{
  "_format": "hh-sol-artifact-1",
  "contractName": "DCNT721A",
  "sourceName": "contracts/DCNT721A.sol",
  "abi": [
    {
      "inputs": [],
      "name": "ApprovalCallerNotOwnerNorApproved",
      "type": "error"
    },
    {
      "inputs": [],
      "name": "ApprovalQueryForNonexistentToken",
      "type": "error"
    },
    {
      "inputs": [],
      "name": "ApproveToCaller",
      "type": "error"
    },
    {
      "inputs": [],
      "name": "BalanceQueryForZeroAddress",
      "type": "error"
    },
    {
      "inputs": [],
      "name": "MintERC2309QuantityExceedsLimit",
      "type": "error"
    },
    {
      "inputs": [],
      "name": "MintToZeroAddress",
      "type": "error"
    },
    {
      "inputs": [],
      "name": "MintZeroQuantity",
      "type": "error"
    },
    {
      "inputs": [],
      "name": "OwnerQueryForNonexistentToken",
      "type": "error"
    },
    {
      "inputs": [],
      "name": "OwnershipNotInitializedForExtraData",
      "type": "error"
    },
    {
      "inputs": [],
      "name": "TransferCallerNotOwnerNorApproved",
      "type": "error"
    },
    {
      "inputs": [],
      "name": "TransferFromIncorrectOwner",
      "type": "error"
    },
    {
      "inputs": [],
      "name": "TransferToNonERC721ReceiverImplementer",
      "type": "error"
    },
    {
      "inputs": [],
      "name": "TransferToZeroAddress",
      "type": "error"
    },
    {
      "inputs": [],
      "name": "URIQueryForNonexistentToken",
      "type": "error"
    },
    {
      "anonymous": false,
      "inputs": [
        {
          "indexed": true,
          "internalType": "address",
          "name": "owner",
          "type": "address"
        },
        {
          "indexed": true,
          "internalType": "address",
          "name": "approved",
          "type": "address"
        },
        {
          "indexed": true,
          "internalType": "uint256",
          "name": "tokenId",
          "type": "uint256"
        }
      ],
      "name": "Approval",
      "type": "event"
    },
    {
      "anonymous": false,
      "inputs": [
        {
          "indexed": true,
          "internalType": "address",
          "name": "owner",
          "type": "address"
        },
        {
          "indexed": true,
          "internalType": "address",
          "name": "operator",
          "type": "address"
        },
        {
          "indexed": false,
          "internalType": "bool",
          "name": "approved",
          "type": "bool"
        }
      ],
      "name": "ApprovalForAll",
      "type": "event"
    },
    {
      "anonymous": false,
      "inputs": [
        {
          "indexed": true,
          "internalType": "uint256",
          "name": "fromTokenId",
          "type": "uint256"
        },
        {
          "indexed": false,
          "internalType": "uint256",
          "name": "toTokenId",
          "type": "uint256"
        },
        {
          "indexed": true,
          "internalType": "address",
          "name": "from",
          "type": "address"
        },
        {
          "indexed": true,
          "internalType": "address",
          "name": "to",
          "type": "address"
        }
      ],
      "name": "ConsecutiveTransfer",
      "type": "event"
    },
    {
      "anonymous": false,
      "inputs": [
        {
          "indexed": false,
          "internalType": "uint8",
          "name": "version",
          "type": "uint8"
        }
      ],
      "name": "Initialized",
      "type": "event"
    },
    {
      "anonymous": false,
      "inputs": [
        {
          "indexed": false,
          "internalType": "address",
          "name": "sender",
          "type": "address"
        },
        {
          "indexed": false,
          "internalType": "uint256",
          "name": "tokenId_",
          "type": "uint256"
        }
      ],
      "name": "Minted",
      "type": "event"
    },
    {
      "anonymous": false,
      "inputs": [
        {
          "indexed": true,
          "internalType": "address",
          "name": "previousOwner",
          "type": "address"
        },
        {
          "indexed": true,
          "internalType": "address",
          "name": "newOwner",
          "type": "address"
        }
      ],
      "name": "OwnershipTransferred",
      "type": "event"
    },
    {
      "anonymous": false,
      "inputs": [
        {
          "indexed": true,
          "internalType": "address",
          "name": "from",
          "type": "address"
        },
        {
          "indexed": true,
          "internalType": "address",
          "name": "to",
          "type": "address"
        },
        {
          "indexed": true,
          "internalType": "uint256",
          "name": "tokenId",
          "type": "uint256"
        }
      ],
      "name": "Transfer",
      "type": "event"
    },
    {
      "inputs": [],
      "name": "MAX_TOKENS",
      "outputs": [
        {
          "internalType": "uint256",
          "name": "",
          "type": "uint256"
        }
      ],
      "stateMutability": "view",
      "type": "function"
    },
    {
      "inputs": [
        {
          "internalType": "address",
          "name": "to",
          "type": "address"
        },
        {
          "internalType": "uint256",
          "name": "tokenId",
          "type": "uint256"
        }
      ],
      "name": "approve",
      "outputs": [],
      "stateMutability": "nonpayable",
      "type": "function"
    },
    {
      "inputs": [
        {
          "internalType": "address",
          "name": "owner",
          "type": "address"
        }
      ],
      "name": "balanceOf",
      "outputs": [
        {
          "internalType": "uint256",
          "name": "",
          "type": "uint256"
        }
      ],
      "stateMutability": "view",
      "type": "function"
    },
    {
      "inputs": [],
      "name": "baseURI",
      "outputs": [
        {
          "internalType": "string",
          "name": "",
          "type": "string"
        }
      ],
      "stateMutability": "view",
      "type": "function"
    },
    {
      "inputs": [
        {
          "internalType": "address[]",
          "name": "accounts",
          "type": "address[]"
        },
        {
          "internalType": "uint32[]",
          "name": "percentAllocations",
          "type": "uint32[]"
        },
        {
          "internalType": "uint32",
          "name": "distributorFee",
          "type": "uint32"
        }
      ],
      "name": "createSplit",
      "outputs": [],
      "stateMutability": "nonpayable",
      "type": "function"
    },
    {
      "inputs": [
        {
          "internalType": "address",
          "name": "account",
          "type": "address"
        },
        {
          "internalType": "uint256",
          "name": "withdrawETH",
          "type": "uint256"
        },
        {
          "internalType": "contract ERC20[]",
          "name": "tokens",
          "type": "address[]"
        },
        {
          "internalType": "address[]",
          "name": "accounts",
          "type": "address[]"
        },
        {
          "internalType": "uint32[]",
          "name": "percentAllocations",
          "type": "uint32[]"
        },
        {
          "internalType": "uint32",
          "name": "distributorFee",
          "type": "uint32"
        },
        {
          "internalType": "address",
          "name": "distributorAddress",
          "type": "address"
        }
      ],
      "name": "distributeAndWithdraw",
      "outputs": [],
      "stateMutability": "nonpayable",
      "type": "function"
    },
    {
      "inputs": [
        {
          "internalType": "contract ERC20",
          "name": "token",
          "type": "address"
        },
        {
          "internalType": "address[]",
          "name": "accounts",
          "type": "address[]"
        },
        {
          "internalType": "uint32[]",
          "name": "percentAllocations",
          "type": "uint32[]"
        },
        {
          "internalType": "uint32",
          "name": "distributorFee",
          "type": "uint32"
        },
        {
          "internalType": "address",
          "name": "distributorAddress",
          "type": "address"
        }
      ],
      "name": "distributeERC20",
      "outputs": [],
      "stateMutability": "nonpayable",
      "type": "function"
    },
    {
      "inputs": [
        {
          "internalType": "address[]",
          "name": "accounts",
          "type": "address[]"
        },
        {
          "internalType": "uint32[]",
          "name": "percentAllocations",
          "type": "uint32[]"
        },
        {
          "internalType": "uint32",
          "name": "distributorFee",
          "type": "uint32"
        },
        {
          "internalType": "address",
          "name": "distributorAddress",
          "type": "address"
        }
      ],
      "name": "distributeETH",
      "outputs": [],
      "stateMutability": "nonpayable",
      "type": "function"
    },
    {
      "inputs": [],
      "name": "flipSaleState",
      "outputs": [],
      "stateMutability": "nonpayable",
      "type": "function"
    },
    {
      "inputs": [
        {
          "internalType": "uint256",
          "name": "tokenId",
          "type": "uint256"
        }
      ],
      "name": "getApproved",
      "outputs": [
        {
          "internalType": "address",
          "name": "",
          "type": "address"
        }
      ],
      "stateMutability": "view",
      "type": "function"
    },
    {
      "inputs": [
        {
          "internalType": "address",
          "name": "_owner",
          "type": "address"
        },
        {
          "components": [
            {
              "internalType": "string",
              "name": "name",
              "type": "string"
            },
            {
              "internalType": "string",
              "name": "symbol",
              "type": "string"
            },
            {
              "internalType": "uint256",
              "name": "maxTokens",
              "type": "uint256"
            },
            {
              "internalType": "uint256",
              "name": "tokenPrice",
              "type": "uint256"
            },
            {
              "internalType": "uint256",
              "name": "maxTokenPurchase",
              "type": "uint256"
            },
            {
              "internalType": "uint256",
              "name": "royaltyBPS",
              "type": "uint256"
            }
          ],
          "internalType": "struct EditionConfig",
          "name": "_editionConfig",
          "type": "tuple"
        },
        {
          "components": [
            {
              "internalType": "string",
              "name": "metadataURI",
              "type": "string"
            },
            {
              "internalType": "bytes",
              "name": "metadataRendererInit",
              "type": "bytes"
            }
          ],
          "internalType": "struct MetadataConfig",
          "name": "_metadataConfig",
          "type": "tuple"
        },
        {
          "internalType": "address",
          "name": "_metadataRenderer",
          "type": "address"
        },
        {
          "internalType": "address",
          "name": "_splitMain",
          "type": "address"
        }
      ],
      "name": "initialize",
      "outputs": [],
      "stateMutability": "nonpayable",
      "type": "function"
    },
    {
      "inputs": [
        {
          "internalType": "address",
          "name": "owner",
          "type": "address"
        },
        {
          "internalType": "address",
          "name": "operator",
          "type": "address"
        }
      ],
      "name": "isApprovedForAll",
      "outputs": [
        {
          "internalType": "bool",
          "name": "",
          "type": "bool"
        }
      ],
      "stateMutability": "view",
      "type": "function"
    },
    {
      "inputs": [],
      "name": "maxTokenPurchase",
      "outputs": [
        {
          "internalType": "uint256",
          "name": "",
          "type": "uint256"
        }
      ],
      "stateMutability": "view",
      "type": "function"
    },
    {
      "inputs": [],
      "name": "metadataRenderer",
      "outputs": [
        {
          "internalType": "address",
          "name": "",
          "type": "address"
        }
      ],
      "stateMutability": "view",
      "type": "function"
    },
    {
      "inputs": [
        {
          "internalType": "uint256",
          "name": "numberOfTokens",
          "type": "uint256"
        }
      ],
      "name": "mint",
      "outputs": [],
      "stateMutability": "payable",
      "type": "function"
    },
    {
      "inputs": [],
      "name": "name",
      "outputs": [
        {
          "internalType": "string",
          "name": "",
          "type": "string"
        }
      ],
      "stateMutability": "view",
      "type": "function"
    },
    {
      "inputs": [],
      "name": "owner",
      "outputs": [
        {
          "internalType": "address",
          "name": "",
          "type": "address"
        }
      ],
      "stateMutability": "view",
      "type": "function"
    },
    {
      "inputs": [
        {
          "internalType": "uint256",
          "name": "tokenId",
          "type": "uint256"
        }
      ],
      "name": "ownerOf",
      "outputs": [
        {
          "internalType": "address",
          "name": "",
          "type": "address"
        }
      ],
      "stateMutability": "view",
      "type": "function"
    },
    {
      "inputs": [],
      "name": "renounceOwnership",
      "outputs": [],
      "stateMutability": "nonpayable",
      "type": "function"
    },
    {
      "inputs": [
        {
          "internalType": "uint256",
          "name": "numReserved",
          "type": "uint256"
        }
      ],
      "name": "reserveDCNT",
      "outputs": [],
      "stateMutability": "nonpayable",
      "type": "function"
    },
    {
      "inputs": [],
      "name": "royaltyBPS",
      "outputs": [
        {
          "internalType": "uint256",
          "name": "",
          "type": "uint256"
        }
      ],
      "stateMutability": "view",
      "type": "function"
    },
    {
      "inputs": [
        {
          "internalType": "uint256",
          "name": "tokenId",
          "type": "uint256"
        },
        {
          "internalType": "uint256",
          "name": "salePrice",
          "type": "uint256"
        }
      ],
      "name": "royaltyInfo",
      "outputs": [
        {
          "internalType": "address",
          "name": "receiver",
          "type": "address"
        },
        {
          "internalType": "uint256",
          "name": "royaltyAmount",
          "type": "uint256"
        }
      ],
      "stateMutability": "view",
      "type": "function"
    },
    {
      "inputs": [
        {
          "internalType": "address",
          "name": "from",
          "type": "address"
        },
        {
          "internalType": "address",
          "name": "to",
          "type": "address"
        },
        {
          "internalType": "uint256",
          "name": "tokenId",
          "type": "uint256"
        }
      ],
      "name": "safeTransferFrom",
      "outputs": [],
      "stateMutability": "nonpayable",
      "type": "function"
    },
    {
      "inputs": [
        {
          "internalType": "address",
          "name": "from",
          "type": "address"
        },
        {
          "internalType": "address",
          "name": "to",
          "type": "address"
        },
        {
          "internalType": "uint256",
          "name": "tokenId",
          "type": "uint256"
        },
        {
          "internalType": "bytes",
          "name": "_data",
          "type": "bytes"
        }
      ],
      "name": "safeTransferFrom",
      "outputs": [],
      "stateMutability": "nonpayable",
      "type": "function"
    },
    {
      "inputs": [],
      "name": "saleIsActive",
      "outputs": [
        {
          "internalType": "bool",
          "name": "",
          "type": "bool"
        }
      ],
      "stateMutability": "view",
      "type": "function"
    },
    {
      "inputs": [
        {
          "internalType": "address",
          "name": "operator",
          "type": "address"
        },
        {
          "internalType": "bool",
          "name": "approved",
          "type": "bool"
        }
      ],
      "name": "setApprovalForAll",
      "outputs": [],
      "stateMutability": "nonpayable",
      "type": "function"
    },
    {
      "inputs": [
        {
          "internalType": "string",
          "name": "uri",
          "type": "string"
        }
      ],
      "name": "setBaseURI",
      "outputs": [],
      "stateMutability": "nonpayable",
      "type": "function"
    },
    {
      "inputs": [
        {
          "internalType": "address",
          "name": "_metadataRenderer",
          "type": "address"
        }
      ],
      "name": "setMetadataRenderer",
      "outputs": [],
      "stateMutability": "nonpayable",
      "type": "function"
    },
    {
      "inputs": [],
      "name": "splitMain",
      "outputs": [
        {
          "internalType": "address",
          "name": "",
          "type": "address"
        }
      ],
      "stateMutability": "view",
      "type": "function"
    },
    {
      "inputs": [],
      "name": "splitWallet",
      "outputs": [
        {
          "internalType": "address",
          "name": "",
          "type": "address"
        }
      ],
      "stateMutability": "view",
      "type": "function"
    },
    {
      "inputs": [
        {
          "internalType": "bytes4",
          "name": "interfaceId",
          "type": "bytes4"
        }
      ],
      "name": "supportsInterface",
      "outputs": [
        {
          "internalType": "bool",
          "name": "",
          "type": "bool"
        }
      ],
      "stateMutability": "view",
      "type": "function"
    },
    {
      "inputs": [],
      "name": "symbol",
      "outputs": [
        {
          "internalType": "string",
          "name": "",
          "type": "string"
        }
      ],
      "stateMutability": "view",
      "type": "function"
    },
    {
      "inputs": [],
      "name": "tokenPrice",
      "outputs": [
        {
          "internalType": "uint256",
          "name": "",
          "type": "uint256"
        }
      ],
      "stateMutability": "view",
      "type": "function"
    },
    {
      "inputs": [
        {
          "internalType": "uint256",
          "name": "tokenId",
          "type": "uint256"
        }
      ],
      "name": "tokenURI",
      "outputs": [
        {
          "internalType": "string",
          "name": "",
          "type": "string"
        }
      ],
      "stateMutability": "view",
      "type": "function"
    },
    {
      "inputs": [],
      "name": "totalSupply",
      "outputs": [
        {
          "internalType": "uint256",
          "name": "",
          "type": "uint256"
        }
      ],
      "stateMutability": "view",
      "type": "function"
    },
    {
      "inputs": [
        {
          "internalType": "address",
          "name": "from",
          "type": "address"
        },
        {
          "internalType": "address",
          "name": "to",
          "type": "address"
        },
        {
          "internalType": "uint256",
          "name": "tokenId",
          "type": "uint256"
        }
      ],
      "name": "transferFrom",
      "outputs": [],
      "stateMutability": "nonpayable",
      "type": "function"
    },
    {
      "inputs": [
        {
          "internalType": "address",
          "name": "newOwner",
          "type": "address"
        }
      ],
      "name": "transferOwnership",
      "outputs": [],
      "stateMutability": "nonpayable",
      "type": "function"
    },
    {
      "inputs": [
        {
          "internalType": "uint256",
          "name": "transferETH",
          "type": "uint256"
        },
        {
          "internalType": "contract ERC20[]",
          "name": "tokens",
          "type": "address[]"
        }
      ],
      "name": "transferToSplit",
      "outputs": [],
      "stateMutability": "nonpayable",
      "type": "function"
    },
    {
      "inputs": [],
      "name": "withdraw",
      "outputs": [],
      "stateMutability": "nonpayable",
      "type": "function"
    }
  ],
  "bytecode": "0x60806040526000600c60006101000a81548160ff0219169083151502179055503480156200002c57600080fd5b506200004d620000416200005360201b60201c565b6200005b60201b60201c565b62000121565b600033905090565b6000600860029054906101000a900473ffffffffffffffffffffffffffffffffffffffff16905081600860026101000a81548173ffffffffffffffffffffffffffffffffffffffff021916908373ffffffffffffffffffffffffffffffffffffffff1602179055508173ffffffffffffffffffffffffffffffffffffffff168173ffffffffffffffffffffffffffffffffffffffff167f8be0079c531659141344cd1fd0a4f28419497f9722a3daafe3b4186f6b6457e060405160405180910390a35050565b614e6b80620001316000396000f3fe60806040526004361061022f5760003560e01c8063703199701161012e578063a22cb465116100ab578063e985e9c51161006f578063e985e9c5146107f2578063eb8d24441461082f578063f2fde38b1461085a578063f47c84c514610883578063fd4fe8a8146108ae5761022f565b8063a22cb4651461070f578063b88d4fde14610738578063b9c9d93a14610761578063c4559d5a1461078c578063c87b56dd146107b55761022f565b80637ff9b596116100f25780637ff9b596146106495780638da5cb5b1461067457806395d89b411461069f5780639b90c9c3146106ca578063a0712d68146106f35761022f565b8063703199701461057657806370a08231146105a1578063713b9787146105de578063715018a61461060957806379ab7c8e146106205761022f565b806323b872dd116101bc57806342842e0e1161018057806342842e0e1461049357806355f804b3146104bc5780636352211e146104e55780636c0360eb146105225780636c1951ae1461054d5761022f565b806323b872dd146103d5578063284a44a8146103fe5780632a55205a1461042757806334918dfd146104655780633ccfd60b1461047c5761022f565b8063081812fc11610203578063081812fc146102ee578063095ea7b31461032b57806309aa3dcf146103545780630e769b2b1461037f57806318160ddd146103aa5761022f565b80625f16fb14610234578063015893c51461025d57806301ffc9a71461028657806306fdde03146102c3575b600080fd5b34801561024057600080fd5b5061025b600480360381019061025691906131c3565b6108d7565b005b34801561026957600080fd5b50610284600480360381019061027f919061327f565b6109e7565b005b34801561029257600080fd5b506102ad60048036038101906102a8919061336c565b610b16565b6040516102ba91906133b4565b60405180910390f35b3480156102cf57600080fd5b506102d8610b58565b6040516102e59190613468565b60405180910390f35b3480156102fa57600080fd5b50610315600480360381019061031091906134c0565b610bea565b60405161032291906134fc565b60405180910390f35b34801561033757600080fd5b50610352600480360381019061034d9190613517565b610c69565b005b34801561036057600080fd5b50610369610dad565b6040516103769190613566565b60405180910390f35b34801561038b57600080fd5b50610394610db3565b6040516103a191906134fc565b60405180910390f35b3480156103b657600080fd5b506103bf610dd9565b6040516103cc9190613566565b60405180910390f35b3480156103e157600080fd5b506103fc60048036038101906103f79190613581565b610df0565b005b34801561040a57600080fd5b5061042560048036038101906104209190613712565b611115565b005b34801561043357600080fd5b5061044e60048036038101906104499190613810565b611200565b60405161045c929190613850565b60405180910390f35b34801561047157600080fd5b5061047a611303565b005b34801561048857600080fd5b50610491611337565b005b34801561049f57600080fd5b506104ba60048036038101906104b59190613581565b6113fe565b005b3480156104c857600080fd5b506104e360048036038101906104de919061392e565b61141e565b005b3480156104f157600080fd5b5061050c600480360381019061050791906134c0565b611440565b60405161051991906134fc565b60405180910390f35b34801561052e57600080fd5b50610537611452565b6040516105449190613468565b60405180910390f35b34801561055957600080fd5b50610574600480360381019061056f91906134c0565b6114e0565b005b34801561058257600080fd5b5061058b611587565b60405161059891906134fc565b60405180910390f35b3480156105ad57600080fd5b506105c860048036038101906105c39190613977565b6115ad565b6040516105d59190613566565b60405180910390f35b3480156105ea57600080fd5b506105f3611666565b60405161060091906134fc565b60405180910390f35b34801561061557600080fd5b5061061e61168c565b005b34801561062c57600080fd5b50610647600480360381019061064291906139a4565b6116a0565b005b34801561065557600080fd5b5061065e61176d565b60405161066b9190613566565b60405180910390f35b34801561068057600080fd5b50610689611773565b60405161069691906134fc565b60405180910390f35b3480156106ab57600080fd5b506106b461179d565b6040516106c19190613468565b60405180910390f35b3480156106d657600080fd5b506106f160048036038101906106ec9190613c0b565b61182f565b005b61070d600480360381019061070891906134c0565b611b43565b005b34801561071b57600080fd5b5061073660048036038101906107319190613cea565b611d3a565b005b34801561074457600080fd5b5061075f600480360381019061075a9190613d2a565b611eb2565b005b34801561076d57600080fd5b50610776611f25565b6040516107839190613566565b60405180910390f35b34801561079857600080fd5b506107b360048036038101906107ae9190613dad565b611f2b565b005b3480156107c157600080fd5b506107dc60048036038101906107d791906134c0565b612037565b6040516107e99190613468565b60405180910390f35b3480156107fe57600080fd5b5061081960048036038101906108149190613e54565b612196565b60405161082691906133b4565b60405180910390f35b34801561083b57600080fd5b5061084461222a565b60405161085191906133b4565b60405180910390f35b34801561086657600080fd5b50610881600480360381019061087c9190613977565b61223d565b005b34801561088f57600080fd5b506108986122c1565b6040516108a59190613566565b60405180910390f35b3480156108ba57600080fd5b506108d560048036038101906108d09190613977565b6122c7565b005b600073ffffffffffffffffffffffffffffffffffffffff166108f7612313565b73ffffffffffffffffffffffffffffffffffffffff16141561094e576040517f08c379a000000000000000000000000000000000000000000000000000000000815260040161094590613ee0565b60405180910390fd5b6109578761233d565b61095f612463565b73ffffffffffffffffffffffffffffffffffffffff166315811302610982612313565b898989898989896040518963ffffffff1660e01b81526004016109ac9897969594939291906140f4565b600060405180830381600087803b1580156109c657600080fd5b505af11580156109da573d6000803e3d6000fd5b5050505050505050505050565b6109ef61248d565b600073ffffffffffffffffffffffffffffffffffffffff16610a0f612313565b73ffffffffffffffffffffffffffffffffffffffff1614610a65576040517f08c379a0000000000000000000000000000000000000000000000000000000008152600401610a5c906141b3565b60405180910390fd5b6000610a6f612463565b73ffffffffffffffffffffffffffffffffffffffff16637601f7828787878787306040518763ffffffff1660e01b8152600401610ab1969594939291906141d3565b602060405180830381600087803b158015610acb57600080fd5b505af1158015610adf573d6000803e3d6000fd5b505050506040513d601f19601f82011682018060405250810190610b03919061423f565b9050610b0e8161250b565b505050505050565b6000632a55205a60e01b827bffffffffffffffffffffffffffffffffffffffffffffffffffffffff19161480610b515750610b508261254f565b5b9050919050565b606060028054610b679061429b565b80601f0160208091040260200160405190810160405280929190818152602001828054610b939061429b565b8015610be05780601f10610bb557610100808354040283529160200191610be0565b820191906000526020600020905b815481529060010190602001808311610bc357829003601f168201915b5050505050905090565b6000610bf5826125e1565b610c2b576040517fcf4700e400000000000000000000000000000000000000000000000000000000815260040160405180910390fd5b6006600083815260200190815260200160002060000160009054906101000a900473ffffffffffffffffffffffffffffffffffffffff169050919050565b6000610c7482611440565b90508073ffffffffffffffffffffffffffffffffffffffff16610c95612640565b73ffffffffffffffffffffffffffffffffffffffff1614610cf857610cc181610cbc612640565b612196565b610cf7576040517fcfb3b94200000000000000000000000000000000000000000000000000000000815260040160405180910390fd5b5b826006600084815260200190815260200160002060000160006101000a81548173ffffffffffffffffffffffffffffffffffffffff021916908373ffffffffffffffffffffffffffffffffffffffff160217905550818373ffffffffffffffffffffffffffffffffffffffff168273ffffffffffffffffffffffffffffffffffffffff167f8c5be1e5ebec7d5bd14f71427d1e84f3dd0314c0f7b2291e5b200ac8c7c3b92560405160405180910390a4505050565b600b5481565b601060009054906101000a900473ffffffffffffffffffffffffffffffffffffffff1681565b6000610de3612648565b6001546000540303905090565b6000610dfb8261264d565b90508373ffffffffffffffffffffffffffffffffffffffff168173ffffffffffffffffffffffffffffffffffffffff1614610e62576040517fa114810000000000000000000000000000000000000000000000000000000000815260040160405180910390fd5b600080610e6e8461271b565b91509150610e848187610e7f612640565b612742565b610ed057610e9986610e94612640565b612196565b610ecf576040517f59c896be00000000000000000000000000000000000000000000000000000000815260040160405180910390fd5b5b600073ffffffffffffffffffffffffffffffffffffffff168573ffffffffffffffffffffffffffffffffffffffff161415610f37576040517fea553b3400000000000000000000000000000000000000000000000000000000815260040160405180910390fd5b610f448686866001612786565b8015610f4f57600082555b600560008773ffffffffffffffffffffffffffffffffffffffff1673ffffffffffffffffffffffffffffffffffffffff168152602001908152602001600020600081546001900391905081905550600560008673ffffffffffffffffffffffffffffffffffffffff1673ffffffffffffffffffffffffffffffffffffffff168152602001908152602001600020600081546001019190508190555061101d85610ff988888761278c565b7c0200000000000000000000000000000000000000000000000000000000176127b4565b600460008681526020019081526020016000208190555060007c0200000000000000000000000000000000000000000000000000000000841614156110a55760006001850190506000600460008381526020019081526020016000205414156110a35760005481146110a2578360046000838152602001908152602001600020819055505b5b505b838573ffffffffffffffffffffffffffffffffffffffff168773ffffffffffffffffffffffffffffffffffffffff167fddf252ad1be2c89b69c2b068fc378daa952ba7f163c4a11628f55a4df523b3ef60405160405180910390a461110d86868660016127df565b505050505050565b600073ffffffffffffffffffffffffffffffffffffffff16611135612313565b73ffffffffffffffffffffffffffffffffffffffff16141561118c576040517f08c379a000000000000000000000000000000000000000000000000000000000815260040161118390613ee0565b60405180910390fd5b600088146111a3576111a2868686868686611f2b565b5b60005b87518110156111e9576111d88882815181106111c5576111c46142cd565b5b60200260200101518888888888886108d7565b806111e29061432b565b90506111a6565b506111f58989896127e5565b505050505050505050565b60008061120c846125e1565b61124b576040517f08c379a0000000000000000000000000000000000000000000000000000000008152600401611242906143c0565b60405180910390fd5b600073ffffffffffffffffffffffffffffffffffffffff16601160009054906101000a900473ffffffffffffffffffffffffffffffffffffffff1673ffffffffffffffffffffffffffffffffffffffff16146112cb57601160009054906101000a900473ffffffffffffffffffffffffffffffffffffffff1691506112d6565b6112d3611773565b91505b6000612710600f54856112e991906143e0565b6112f39190614469565b9050828192509250509250929050565b61130b61248d565b600c60009054906101000a900460ff1615600c60006101000a81548160ff021916908315150217905550565b61133f61248d565b600073ffffffffffffffffffffffffffffffffffffffff1661135f612313565b73ffffffffffffffffffffffffffffffffffffffff16146113b5576040517f08c379a00000000000000000000000000000000000000000000000000000000081526004016113ac9061450c565b60405180910390fd5b3373ffffffffffffffffffffffffffffffffffffffff166108fc479081150290604051600060405180830381858888f193505050501580156113fb573d6000803e3d6000fd5b50565b61141983838360405180602001604052806000815250611eb2565b505050565b61142661248d565b80600d908051906020019061143c929190612f79565b5050565b600061144b8261264d565b9050919050565b600d805461145f9061429b565b80601f016020809104026020016040519081016040528092919081815260200182805461148b9061429b565b80156114d85780601f106114ad576101008083540402835291602001916114d8565b820191906000526020600020905b8154815290600101906020018083116114bb57829003601f168201915b505050505081565b6114e861248d565b60006114f2610dd9565b90506009548282611503919061452c565b10611543576040517f08c379a000000000000000000000000000000000000000000000000000000000815260040161153a906145ce565b60405180910390fd5b60005b828110156115825761156f3360018385611560919061452c565b61156a919061452c565b612860565b808061157a9061432b565b915050611546565b505050565b600e60009054906101000a900473ffffffffffffffffffffffffffffffffffffffff1681565b60008073ffffffffffffffffffffffffffffffffffffffff168273ffffffffffffffffffffffffffffffffffffffff161415611615576040517f8f4eb60400000000000000000000000000000000000000000000000000000000815260040160405180910390fd5b67ffffffffffffffff600560008473ffffffffffffffffffffffffffffffffffffffff1673ffffffffffffffffffffffffffffffffffffffff16815260200190815260200160002054169050919050565b601160009054906101000a900473ffffffffffffffffffffffffffffffffffffffff1681565b61169461248d565b61169e600061287e565b565b600073ffffffffffffffffffffffffffffffffffffffff166116c0612313565b73ffffffffffffffffffffffffffffffffffffffff161415611717576040517f08c379a000000000000000000000000000000000000000000000000000000000815260040161170e90613ee0565b60405180910390fd5b6000821461172857611727612944565b5b60005b81518110156117685761175782828151811061174a576117496142cd565b5b602002602001015161233d565b806117619061432b565b905061172b565b505050565b600a5481565b6000600860029054906101000a900473ffffffffffffffffffffffffffffffffffffffff16905090565b6060600380546117ac9061429b565b80601f01602080910402602001604051908101604052809291908181526020018280546117d89061429b565b80156118255780601f106117fa57610100808354040283529160200191611825565b820191906000526020600020905b81548152906001019060200180831161180857829003601f168201915b5050505050905090565b6000600860019054906101000a900460ff1615905080801561186357506001600860009054906101000a900460ff1660ff16105b806118925750611872306129fa565b15801561189157506001600860009054906101000a900460ff1660ff16145b5b6118d1576040517f08c379a00000000000000000000000000000000000000000000000000000000081526004016118c890614660565b60405180910390fd5b6001600860006101000a81548160ff021916908360ff160217905550801561190f576001600860016101000a81548160ff0219169083151502179055505b6119188661287e565b846000015160029080519060200190611932929190612f79565b5084602001516003908051906020019061194d929190612f79565b50611956612648565b60008190555084604001516009819055508460600151600a819055508460800151600b819055508460a00151600f8190555081601060006101000a81548173ffffffffffffffffffffffffffffffffffffffff021916908373ffffffffffffffffffffffffffffffffffffffff160217905550600073ffffffffffffffffffffffffffffffffffffffff168373ffffffffffffffffffffffffffffffffffffffff1614158015611a0b57506000846020015151115b15611ac55782600e60006101000a81548173ffffffffffffffffffffffffffffffffffffffff021916908373ffffffffffffffffffffffffffffffffffffffff1602179055508273ffffffffffffffffffffffffffffffffffffffff1663856a7ffa85602001516040518263ffffffff1660e01b8152600401611a8e91906146d5565b600060405180830381600087803b158015611aa857600080fd5b505af1158015611abc573d6000803e3d6000fd5b50505050611ae1565b8360000151600d9080519060200190611adf929190612f79565b505b8015611b3b576000600860016101000a81548160ff0219169083151502179055507f7f26b83ff96e1f2b6a682f133852f6798a09c465da95921460cefb38474024986001604051611b32919061473f565b60405180910390a15b505050505050565b6000611b4d610dd9565b9050600c60009054906101000a900460ff16611b9e576040517f08c379a0000000000000000000000000000000000000000000000000000000008152600401611b95906147a6565b60405180910390fd5b6009548282611bad919061452c565b1115611bee576040517f08c379a0000000000000000000000000000000000000000000000000000000008152600401611be5906145ce565b60405180910390fd5b600954811115611c33576040517f08c379a0000000000000000000000000000000000000000000000000000000008152600401611c2a90614812565b60405180910390fd5b600b54821115611c78576040517f08c379a0000000000000000000000000000000000000000000000000000000008152600401611c6f9061487e565b60405180910390fd5b81600a54611c8691906143e0565b341015611cc8576040517f08c379a0000000000000000000000000000000000000000000000000000000008152600401611cbf906148ea565b60405180910390fd5b611cd23383612860565b60005b82811015611d35577f30385c845b448a36257a6a1716e6ad2e1bc2cbe333cde1e69fe849ad6511adfe338380611d0a9061432b565b9450604051611d1a929190613850565b60405180910390a18080611d2d9061432b565b915050611cd5565b505050565b611d42612640565b73ffffffffffffffffffffffffffffffffffffffff168273ffffffffffffffffffffffffffffffffffffffff161415611da7576040517fb06307db00000000000000000000000000000000000000000000000000000000815260040160405180910390fd5b8060076000611db4612640565b73ffffffffffffffffffffffffffffffffffffffff1673ffffffffffffffffffffffffffffffffffffffff16815260200190815260200160002060008473ffffffffffffffffffffffffffffffffffffffff1673ffffffffffffffffffffffffffffffffffffffff16815260200190815260200160002060006101000a81548160ff0219169083151502179055508173ffffffffffffffffffffffffffffffffffffffff16611e61612640565b73ffffffffffffffffffffffffffffffffffffffff167f17307eab39ab6107e8899845ad3d59bd9653f200f220920489ca2b5937696c3183604051611ea691906133b4565b60405180910390a35050565b611ebd848484610df0565b60008373ffffffffffffffffffffffffffffffffffffffff163b14611f1f57611ee884848484612a1d565b611f1e576040517fd1a57ed600000000000000000000000000000000000000000000000000000000815260040160405180910390fd5b5b50505050565b600f5481565b600073ffffffffffffffffffffffffffffffffffffffff16611f4b612313565b73ffffffffffffffffffffffffffffffffffffffff161415611fa2576040517f08c379a0000000000000000000000000000000000000000000000000000000008152600401611f9990613ee0565b60405180910390fd5b611faa612944565b611fb2612463565b73ffffffffffffffffffffffffffffffffffffffff1663e61cb05e611fd5612313565b8888888888886040518863ffffffff1660e01b8152600401611ffd979695949392919061490a565b600060405180830381600087803b15801561201757600080fd5b505af115801561202b573d6000803e3d6000fd5b50505050505050505050565b6060612042826125e1565b612078576040517fa14c4b5000000000000000000000000000000000000000000000000000000000815260040160405180910390fd5b600073ffffffffffffffffffffffffffffffffffffffff16600e60009054906101000a900473ffffffffffffffffffffffffffffffffffffffff1673ffffffffffffffffffffffffffffffffffffffff161461218557600e60009054906101000a900473ffffffffffffffffffffffffffffffffffffffff1673ffffffffffffffffffffffffffffffffffffffff1663c87b56dd836040518263ffffffff1660e01b81526004016121299190613566565b60006040518083038186803b15801561214157600080fd5b505afa158015612155573d6000803e3d6000fd5b505050506040513d6000823e3d601f19601f8201168201806040525081019061217e91906149df565b9050612191565b61218e82612b7d565b90505b919050565b6000600760008473ffffffffffffffffffffffffffffffffffffffff1673ffffffffffffffffffffffffffffffffffffffff16815260200190815260200160002060008373ffffffffffffffffffffffffffffffffffffffff1673ffffffffffffffffffffffffffffffffffffffff16815260200190815260200160002060009054906101000a900460ff16905092915050565b600c60009054906101000a900460ff1681565b61224561248d565b600073ffffffffffffffffffffffffffffffffffffffff168173ffffffffffffffffffffffffffffffffffffffff1614156122b5576040517f08c379a00000000000000000000000000000000000000000000000000000000081526004016122ac90614a9a565b60405180910390fd5b6122be8161287e565b50565b60095481565b6122cf61248d565b80600e60006101000a81548173ffffffffffffffffffffffffffffffffffffffff021916908373ffffffffffffffffffffffffffffffffffffffff16021790555050565b6000601160009054906101000a900473ffffffffffffffffffffffffffffffffffffffff16905090565b60008173ffffffffffffffffffffffffffffffffffffffff166370a08231306040518263ffffffff1660e01b815260040161237891906134fc565b60206040518083038186803b15801561239057600080fd5b505afa1580156123a4573d6000803e3d6000fd5b505050506040513d601f19601f820116820180604052508101906123c89190614acf565b90508173ffffffffffffffffffffffffffffffffffffffff1663a9059cbb6123ee612313565b836040518363ffffffff1660e01b815260040161240c929190613850565b602060405180830381600087803b15801561242657600080fd5b505af115801561243a573d6000803e3d6000fd5b505050506040513d601f19601f8201168201806040525081019061245e9190614b11565b505050565b6000601060009054906101000a900473ffffffffffffffffffffffffffffffffffffffff16905090565b612495612c1c565b73ffffffffffffffffffffffffffffffffffffffff166124b3611773565b73ffffffffffffffffffffffffffffffffffffffff1614612509576040517f08c379a000000000000000000000000000000000000000000000000000000000815260040161250090614b8a565b60405180910390fd5b565b80601160006101000a81548173ffffffffffffffffffffffffffffffffffffffff021916908373ffffffffffffffffffffffffffffffffffffffff16021790555050565b60006301ffc9a760e01b827bffffffffffffffffffffffffffffffffffffffffffffffffffffffff191614806125aa57506380ac58cd60e01b827bffffffffffffffffffffffffffffffffffffffffffffffffffffffff1916145b806125da5750635b5e139f60e01b827bffffffffffffffffffffffffffffffffffffffffffffffffffffffff1916145b9050919050565b6000816125ec612648565b111580156125fb575060005482105b8015612639575060007c0100000000000000000000000000000000000000000000000000000000600460008581526020019081526020016000205416145b9050919050565b600033905090565b600090565b6000808290508061265c612648565b116126e4576000548110156126e35760006004600083815260200190815260200160002054905060007c0100000000000000000000000000000000000000000000000000000000821614156126e1575b60008114156126d75760046000836001900393508381526020019081526020016000205490506126ac565b8092505050612716565b505b5b6040517fdf2d9b4200000000000000000000000000000000000000000000000000000000815260040160405180910390fd5b919050565b60008060006006600085815260200190815260200160002090508092508254915050915091565b600073ffffffffffffffffffffffffffffffffffffffff8316925073ffffffffffffffffffffffffffffffffffffffff821691508382148383141790509392505050565b50505050565b60008060e883901c905060e86127a3868684612c24565b62ffffff16901b9150509392505050565b600073ffffffffffffffffffffffffffffffffffffffff83169250814260a01b178317905092915050565b50505050565b6127ed612463565b73ffffffffffffffffffffffffffffffffffffffff16636e5f69198484846040518463ffffffff1660e01b815260040161282993929190614c57565b600060405180830381600087803b15801561284357600080fd5b505af1158015612857573d6000803e3d6000fd5b50505050505050565b61287a828260405180602001604052806000815250612c2d565b5050565b6000600860029054906101000a900473ffffffffffffffffffffffffffffffffffffffff16905081600860026101000a81548173ffffffffffffffffffffffffffffffffffffffff021916908373ffffffffffffffffffffffffffffffffffffffff1602179055508173ffffffffffffffffffffffffffffffffffffffff168173ffffffffffffffffffffffffffffffffffffffff167f8be0079c531659141344cd1fd0a4f28419497f9722a3daafe3b4186f6b6457e060405160405180910390a35050565b600061294e612313565b73ffffffffffffffffffffffffffffffffffffffff164760405161297190614cc6565b60006040518083038185875af1925050503d80600081146129ae576040519150601f19603f3d011682016040523d82523d6000602084013e6129b3565b606091505b50509050806129f7576040517f08c379a00000000000000000000000000000000000000000000000000000000081526004016129ee90614d27565b60405180910390fd5b50565b6000808273ffffffffffffffffffffffffffffffffffffffff163b119050919050565b60008373ffffffffffffffffffffffffffffffffffffffff1663150b7a02612a43612640565b8786866040518563ffffffff1660e01b8152600401612a659493929190614d47565b602060405180830381600087803b158015612a7f57600080fd5b505af1925050508015612ab057506040513d601f19601f82011682018060405250810190612aad9190614da8565b60015b612b2a573d8060008114612ae0576040519150601f19603f3d011682016040523d82523d6000602084013e612ae5565b606091505b50600081511415612b22576040517fd1a57ed600000000000000000000000000000000000000000000000000000000815260040160405180910390fd5b805181602001fd5b63150b7a0260e01b7bffffffffffffffffffffffffffffffffffffffffffffffffffffffff1916817bffffffffffffffffffffffffffffffffffffffffffffffffffffffff191614915050949350505050565b6060612b88826125e1565b612bbe576040517fa14c4b5000000000000000000000000000000000000000000000000000000000815260040160405180910390fd5b6000612bc8612cca565b9050600081511415612be95760405180602001604052806000815250612c14565b80612bf384612d5c565b604051602001612c04929190614e11565b6040516020818303038152906040525b915050919050565b600033905090565b60009392505050565b612c378383612dac565b60008373ffffffffffffffffffffffffffffffffffffffff163b14612cc557600080549050600083820390505b612c776000868380600101945086612a1d565b612cad576040517fd1a57ed600000000000000000000000000000000000000000000000000000000815260040160405180910390fd5b818110612c64578160005414612cc257600080fd5b50505b505050565b6060600d8054612cd99061429b565b80601f0160208091040260200160405190810160405280929190818152602001828054612d059061429b565b8015612d525780601f10612d2757610100808354040283529160200191612d52565b820191906000526020600020905b815481529060010190602001808311612d3557829003601f168201915b5050505050905090565b606060806040510190508060405280825b600115612d9857600183039250600a81066030018353600a8104905080612d9357612d98565b612d6d565b508181036020830392508083525050919050565b6000805490506000821415612ded576040517fb562e8dd00000000000000000000000000000000000000000000000000000000815260040160405180910390fd5b612dfa6000848385612786565b600160406001901b178202600560008573ffffffffffffffffffffffffffffffffffffffff1673ffffffffffffffffffffffffffffffffffffffff16815260200190815260200160002060008282540192505081905550612e7183612e62600086600061278c565b612e6b85612f69565b176127b4565b6004600083815260200190815260200160002081905550600080838301905073ffffffffffffffffffffffffffffffffffffffff85169150828260007fddf252ad1be2c89b69c2b068fc378daa952ba7f163c4a11628f55a4df523b3ef600080a4600183015b818114612f1257808360007fddf252ad1be2c89b69c2b068fc378daa952ba7f163c4a11628f55a4df523b3ef600080a4600181019050612ed7565b506000821415612f4e576040517f2e07630000000000000000000000000000000000000000000000000000000000815260040160405180910390fd5b806000819055505050612f6460008483856127df565b505050565b60006001821460e11b9050919050565b828054612f859061429b565b90600052602060002090601f016020900481019282612fa75760008555612fee565b82601f10612fc057805160ff1916838001178555612fee565b82800160010185558215612fee579182015b82811115612fed578251825591602001919060010190612fd2565b5b509050612ffb9190612fff565b5090565b5b80821115613018576000816000905550600101613000565b5090565b6000604051905090565b600080fd5b600080fd5b600073ffffffffffffffffffffffffffffffffffffffff82169050919050565b600061305b82613030565b9050919050565b600061306d82613050565b9050919050565b61307d81613062565b811461308857600080fd5b50565b60008135905061309a81613074565b92915050565b600080fd5b600080fd5b600080fd5b60008083601f8401126130c5576130c46130a0565b5b8235905067ffffffffffffffff8111156130e2576130e16130a5565b5b6020830191508360208202830111156130fe576130fd6130aa565b5b9250929050565b60008083601f84011261311b5761311a6130a0565b5b8235905067ffffffffffffffff811115613138576131376130a5565b5b602083019150836020820283011115613154576131536130aa565b5b9250929050565b600063ffffffff82169050919050565b6131748161315b565b811461317f57600080fd5b50565b6000813590506131918161316b565b92915050565b6131a081613050565b81146131ab57600080fd5b50565b6000813590506131bd81613197565b92915050565b600080600080600080600060a0888a0312156131e2576131e1613026565b5b60006131f08a828b0161308b565b975050602088013567ffffffffffffffff8111156132115761321061302b565b5b61321d8a828b016130af565b9650965050604088013567ffffffffffffffff8111156132405761323f61302b565b5b61324c8a828b01613105565b9450945050606061325f8a828b01613182565b92505060806132708a828b016131ae565b91505092959891949750929550565b60008060008060006060868803121561329b5761329a613026565b5b600086013567ffffffffffffffff8111156132b9576132b861302b565b5b6132c5888289016130af565b9550955050602086013567ffffffffffffffff8111156132e8576132e761302b565b5b6132f488828901613105565b9350935050604061330788828901613182565b9150509295509295909350565b60007fffffffff0000000000000000000000000000000000000000000000000000000082169050919050565b61334981613314565b811461335457600080fd5b50565b60008135905061336681613340565b92915050565b60006020828403121561338257613381613026565b5b600061339084828501613357565b91505092915050565b60008115159050919050565b6133ae81613399565b82525050565b60006020820190506133c960008301846133a5565b92915050565b600081519050919050565b600082825260208201905092915050565b60005b838110156134095780820151818401526020810190506133ee565b83811115613418576000848401525b50505050565b6000601f19601f8301169050919050565b600061343a826133cf565b61344481856133da565b93506134548185602086016133eb565b61345d8161341e565b840191505092915050565b60006020820190508181036000830152613482818461342f565b905092915050565b6000819050919050565b61349d8161348a565b81146134a857600080fd5b50565b6000813590506134ba81613494565b92915050565b6000602082840312156134d6576134d5613026565b5b60006134e4848285016134ab565b91505092915050565b6134f681613050565b82525050565b600060208201905061351160008301846134ed565b92915050565b6000806040838503121561352e5761352d613026565b5b600061353c858286016131ae565b925050602061354d858286016134ab565b9150509250929050565b6135608161348a565b82525050565b600060208201905061357b6000830184613557565b92915050565b60008060006060848603121561359a57613599613026565b5b60006135a8868287016131ae565b93505060206135b9868287016131ae565b92505060406135ca868287016134ab565b9150509250925092565b7f4e487b7100000000000000000000000000000000000000000000000000000000600052604160045260246000fd5b61360c8261341e565b810181811067ffffffffffffffff8211171561362b5761362a6135d4565b5b80604052505050565b600061363e61301c565b905061364a8282613603565b919050565b600067ffffffffffffffff82111561366a576136696135d4565b5b602082029050602081019050919050565b600061368e6136898461364f565b613634565b905080838252602082019050602084028301858111156136b1576136b06130aa565b5b835b818110156136da57806136c6888261308b565b8452602084019350506020810190506136b3565b5050509392505050565b600082601f8301126136f9576136f86130a0565b5b813561370984826020860161367b565b91505092915050565b600080600080600080600080600060e08a8c03121561373457613733613026565b5b60006137428c828d016131ae565b99505060206137538c828d016134ab565b98505060408a013567ffffffffffffffff8111156137745761377361302b565b5b6137808c828d016136e4565b97505060608a013567ffffffffffffffff8111156137a1576137a061302b565b5b6137ad8c828d016130af565b965096505060808a013567ffffffffffffffff8111156137d0576137cf61302b565b5b6137dc8c828d01613105565b945094505060a06137ef8c828d01613182565b92505060c06138008c828d016131ae565b9150509295985092959850929598565b6000806040838503121561382757613826613026565b5b6000613835858286016134ab565b9250506020613846858286016134ab565b9150509250929050565b600060408201905061386560008301856134ed565b6138726020830184613557565b9392505050565b600080fd5b600067ffffffffffffffff821115613899576138986135d4565b5b6138a28261341e565b9050602081019050919050565b82818337600083830152505050565b60006138d16138cc8461387e565b613634565b9050828152602081018484840111156138ed576138ec613879565b5b6138f88482856138af565b509392505050565b600082601f830112613915576139146130a0565b5b81356139258482602086016138be565b91505092915050565b60006020828403121561394457613943613026565b5b600082013567ffffffffffffffff8111156139625761396161302b565b5b61396e84828501613900565b91505092915050565b60006020828403121561398d5761398c613026565b5b600061399b848285016131ae565b91505092915050565b600080604083850312156139bb576139ba613026565b5b60006139c9858286016134ab565b925050602083013567ffffffffffffffff8111156139ea576139e961302b565b5b6139f6858286016136e4565b9150509250929050565b600080fd5b600080fd5b600060c08284031215613a2057613a1f613a00565b5b613a2a60c0613634565b9050600082013567ffffffffffffffff811115613a4a57613a49613a05565b5b613a5684828501613900565b600083015250602082013567ffffffffffffffff811115613a7a57613a79613a05565b5b613a8684828501613900565b6020830152506040613a9a848285016134ab565b6040830152506060613aae848285016134ab565b6060830152506080613ac2848285016134ab565b60808301525060a0613ad6848285016134ab565b60a08301525092915050565b600067ffffffffffffffff821115613afd57613afc6135d4565b5b613b068261341e565b9050602081019050919050565b6000613b26613b2184613ae2565b613634565b905082815260208101848484011115613b4257613b41613879565b5b613b4d8482856138af565b509392505050565b600082601f830112613b6a57613b696130a0565b5b8135613b7a848260208601613b13565b91505092915050565b600060408284031215613b9957613b98613a00565b5b613ba36040613634565b9050600082013567ffffffffffffffff811115613bc357613bc2613a05565b5b613bcf84828501613900565b600083015250602082013567ffffffffffffffff811115613bf357613bf2613a05565b5b613bff84828501613b55565b60208301525092915050565b600080600080600060a08688031215613c2757613c26613026565b5b6000613c35888289016131ae565b955050602086013567ffffffffffffffff811115613c5657613c5561302b565b5b613c6288828901613a0a565b945050604086013567ffffffffffffffff811115613c8357613c8261302b565b5b613c8f88828901613b83565b9350506060613ca0888289016131ae565b9250506080613cb1888289016131ae565b9150509295509295909350565b613cc781613399565b8114613cd257600080fd5b50565b600081359050613ce481613cbe565b92915050565b60008060408385031215613d0157613d00613026565b5b6000613d0f858286016131ae565b9250506020613d2085828601613cd5565b9150509250929050565b60008060008060808587031215613d4457613d43613026565b5b6000613d52878288016131ae565b9450506020613d63878288016131ae565b9350506040613d74878288016134ab565b925050606085013567ffffffffffffffff811115613d9557613d9461302b565b5b613da187828801613b55565b91505092959194509250565b60008060008060008060808789031215613dca57613dc9613026565b5b600087013567ffffffffffffffff811115613de857613de761302b565b5b613df489828a016130af565b9650965050602087013567ffffffffffffffff811115613e1757613e1661302b565b5b613e2389828a01613105565b94509450506040613e3689828a01613182565b9250506060613e4789828a016131ae565b9150509295509295509295565b60008060408385031215613e6b57613e6a613026565b5b6000613e79858286016131ae565b9250506020613e8a858286016131ae565b9150509250929050565b7f53706c6974206e6f742063726561746564207965740000000000000000000000600082015250565b6000613eca6015836133da565b9150613ed582613e94565b602082019050919050565b60006020820190508181036000830152613ef981613ebd565b9050919050565b6000819050919050565b6000613f25613f20613f1b84613030565b613f00565b613030565b9050919050565b6000613f3782613f0a565b9050919050565b6000613f4982613f2c565b9050919050565b613f5981613f3e565b82525050565b600082825260208201905092915050565b6000819050919050565b613f8381613050565b82525050565b6000613f958383613f7a565b60208301905092915050565b6000613fb060208401846131ae565b905092915050565b6000602082019050919050565b6000613fd18385613f5f565b9350613fdc82613f70565b8060005b8581101561401557613ff28284613fa1565b613ffc8882613f89565b975061400783613fb8565b925050600181019050613fe0565b5085925050509392505050565b600082825260208201905092915050565b6000819050919050565b6140468161315b565b82525050565b6000614058838361403d565b60208301905092915050565b60006140736020840184613182565b905092915050565b6000602082019050919050565b60006140948385614022565b935061409f82614033565b8060005b858110156140d8576140b58284614064565b6140bf888261404c565b97506140ca8361407b565b9250506001810190506140a3565b5085925050509392505050565b6140ee8161315b565b82525050565b600060c082019050614109600083018b6134ed565b614116602083018a613f50565b818103604083015261412981888a613fc5565b9050818103606083015261413e818688614088565b905061414d60808301856140e5565b61415a60a08301846134ed565b9998505050505050505050565b7f53706c697420616c726561647920637265617465640000000000000000000000600082015250565b600061419d6015836133da565b91506141a882614167565b602082019050919050565b600060208201905081810360008301526141cc81614190565b9050919050565b600060808201905081810360008301526141ee81888a613fc5565b90508181036020830152614203818688614088565b905061421260408301856140e5565b61421f60608301846134ed565b979650505050505050565b60008151905061423981613197565b92915050565b60006020828403121561425557614254613026565b5b60006142638482850161422a565b91505092915050565b7f4e487b7100000000000000000000000000000000000000000000000000000000600052602260045260246000fd5b600060028204905060018216806142b357607f821691505b602082108114156142c7576142c661426c565b5b50919050565b7f4e487b7100000000000000000000000000000000000000000000000000000000600052603260045260246000fd5b7f4e487b7100000000000000000000000000000000000000000000000000000000600052601160045260246000fd5b60006143368261348a565b91507fffffffffffffffffffffffffffffffffffffffffffffffffffffffffffffffff821415614369576143686142fc565b5b600182019050919050565b7f4e6f6e6578697374656e7420746f6b656e000000000000000000000000000000600082015250565b60006143aa6011836133da565b91506143b582614374565b602082019050919050565b600060208201905081810360008301526143d98161439d565b9050919050565b60006143eb8261348a565b91506143f68361348a565b9250817fffffffffffffffffffffffffffffffffffffffffffffffffffffffffffffffff048311821515161561442f5761442e6142fc565b5b828202905092915050565b7f4e487b7100000000000000000000000000000000000000000000000000000000600052601260045260246000fd5b60006144748261348a565b915061447f8361348a565b92508261448f5761448e61443a565b5b828204905092915050565b7f43616e6e6f74207769746864726177207769746820616e20616374697665207360008201527f706c697400000000000000000000000000000000000000000000000000000000602082015250565b60006144f66024836133da565b91506145018261449a565b604082019050919050565b60006020820190508181036000830152614525816144e9565b9050919050565b60006145378261348a565b91506145428361348a565b9250827fffffffffffffffffffffffffffffffffffffffffffffffffffffffffffffffff03821115614577576145766142fc565b5b828201905092915050565b7f507572636861736520776f756c6420657863656564206d617820737570706c79600082015250565b60006145b86020836133da565b91506145c382614582565b602082019050919050565b600060208201905081810360008301526145e7816145ab565b9050919050565b7f496e697469616c697a61626c653a20636f6e747261637420697320616c72656160008201527f647920696e697469616c697a6564000000000000000000000000000000000000602082015250565b600061464a602e836133da565b9150614655826145ee565b604082019050919050565b600060208201905081810360008301526146798161463d565b9050919050565b600081519050919050565b600082825260208201905092915050565b60006146a782614680565b6146b1818561468b565b93506146c18185602086016133eb565b6146ca8161341e565b840191505092915050565b600060208201905081810360008301526146ef818461469c565b905092915050565b6000819050919050565b600060ff82169050919050565b600061472961472461471f846146f7565b613f00565b614701565b9050919050565b6147398161470e565b82525050565b60006020820190506147546000830184614730565b92915050565b7f53616c65206d7573742062652061637469766520746f206d696e740000000000600082015250565b6000614790601b836133da565b915061479b8261475a565b602082019050919050565b600060208201905081810360008301526147bf81614783565b9050919050565b7f534f4c44204f5554000000000000000000000000000000000000000000000000600082015250565b60006147fc6008836133da565b9150614807826147c6565b602082019050919050565b6000602082019050818103600083015261482b816147ef565b9050919050565b7f4578636565646564206d6178206e756d62657220706572206d696e7400000000600082015250565b6000614868601c836133da565b915061487382614832565b602082019050919050565b600060208201905081810360008301526148978161485b565b9050919050565b7f496e73756666696369656e742066756e64730000000000000000000000000000600082015250565b60006148d46012836133da565b91506148df8261489e565b602082019050919050565b60006020820190508181036000830152614903816148c7565b9050919050565b600060a08201905061491f600083018a6134ed565b818103602083015261493281888a613fc5565b90508181036040830152614947818688614088565b905061495660608301856140e5565b61496360808301846134ed565b98975050505050505050565b600061498261497d8461387e565b613634565b90508281526020810184848401111561499e5761499d613879565b5b6149a98482856133eb565b509392505050565b600082601f8301126149c6576149c56130a0565b5b81516149d684826020860161496f565b91505092915050565b6000602082840312156149f5576149f4613026565b5b600082015167ffffffffffffffff811115614a1357614a1261302b565b5b614a1f848285016149b1565b91505092915050565b7f4f776e61626c653a206e6577206f776e657220697320746865207a65726f206160008201527f6464726573730000000000000000000000000000000000000000000000000000602082015250565b6000614a846026836133da565b9150614a8f82614a28565b604082019050919050565b60006020820190508181036000830152614ab381614a77565b9050919050565b600081519050614ac981613494565b92915050565b600060208284031215614ae557614ae4613026565b5b6000614af384828501614aba565b91505092915050565b600081519050614b0b81613cbe565b92915050565b600060208284031215614b2757614b26613026565b5b6000614b3584828501614afc565b91505092915050565b7f4f776e61626c653a2063616c6c6572206973206e6f7420746865206f776e6572600082015250565b6000614b746020836133da565b9150614b7f82614b3e565b602082019050919050565b60006020820190508181036000830152614ba381614b67565b9050919050565b600081519050919050565b6000819050602082019050919050565b614bce81613f3e565b82525050565b6000614be08383614bc5565b60208301905092915050565b6000602082019050919050565b6000614c0482614baa565b614c0e8185613f5f565b9350614c1983614bb5565b8060005b83811015614c4a578151614c318882614bd4565b9750614c3c83614bec565b925050600181019050614c1d565b5085935050505092915050565b6000606082019050614c6c60008301866134ed565b614c796020830185613557565b8181036040830152614c8b8184614bf9565b9050949350505050565b600081905092915050565b50565b6000614cb0600083614c95565b9150614cbb82614ca0565b600082019050919050565b6000614cd182614ca3565b9150819050919050565b7f436f756c64206e6f74207472616e736665722045544820746f2073706c697400600082015250565b6000614d11601f836133da565b9150614d1c82614cdb565b602082019050919050565b60006020820190508181036000830152614d4081614d04565b9050919050565b6000608082019050614d5c60008301876134ed565b614d6960208301866134ed565b614d766040830185613557565b8181036060830152614d88818461469c565b905095945050505050565b600081519050614da281613340565b92915050565b600060208284031215614dbe57614dbd613026565b5b6000614dcc84828501614d93565b91505092915050565b600081905092915050565b6000614deb826133cf565b614df58185614dd5565b9350614e058185602086016133eb565b80840191505092915050565b6000614e1d8285614de0565b9150614e298284614de0565b9150819050939250505056fea26469706673582212205a74a92989ea257ca8331e5a4629f790cb69905ebdfe65f6c392fd78b230670164736f6c63430008090033",
  "linkReferences": {},
  "deployedLinkReferences": {}
}