{
  "_format": "hh-sol-artifact-1",
  "contractName": "DCNTStaking",
  "sourceName": "contracts/DCNTStaking.sol",
  "abi": [
    {
      "anonymous": false,
      "inputs": [
        {
          "indexed": false,
          "internalType": "address",
          "name": "owner",
          "type": "address"
        },
        {
          "indexed": false,
          "internalType": "uint256",
          "name": "amount",
          "type": "uint256"
        }
      ],
      "name": "Claimed",
      "type": "event"
    },
    {
      "anonymous": false,
      "inputs": [
        {
          "indexed": false,
          "internalType": "uint8",
          "name": "version",
          "type": "uint8"
        }
      ],
      "name": "Initialized",
      "type": "event"
    },
    {
      "anonymous": false,
      "inputs": [
        {
          "indexed": false,
          "internalType": "address",
          "name": "owner",
          "type": "address"
        },
        {
          "indexed": false,
          "internalType": "uint256",
          "name": "tokenId",
          "type": "uint256"
        },
        {
          "indexed": false,
          "internalType": "uint256",
          "name": "value",
          "type": "uint256"
        }
      ],
      "name": "NFTStaked",
      "type": "event"
    },
    {
      "anonymous": false,
      "inputs": [
        {
          "indexed": false,
          "internalType": "address",
          "name": "owner",
          "type": "address"
        },
        {
          "indexed": false,
          "internalType": "uint256",
          "name": "tokenId",
          "type": "uint256"
        },
        {
          "indexed": false,
          "internalType": "uint256",
          "name": "value",
          "type": "uint256"
        }
      ],
      "name": "NFTUnstaked",
      "type": "event"
    },
    {
      "anonymous": false,
      "inputs": [
        {
          "indexed": true,
          "internalType": "address",
          "name": "previousOwner",
          "type": "address"
        },
        {
          "indexed": true,
          "internalType": "address",
          "name": "newOwner",
          "type": "address"
        }
      ],
      "name": "OwnershipTransferred",
      "type": "event"
    },
    {
      "stateMutability": "payable",
      "type": "fallback"
    },
    {
      "inputs": [
        {
          "internalType": "address",
          "name": "account",
          "type": "address"
        }
      ],
      "name": "balanceOf",
      "outputs": [
        {
          "internalType": "uint256",
          "name": "",
          "type": "uint256"
        }
      ],
      "stateMutability": "view",
      "type": "function"
    },
    {
      "inputs": [
        {
          "internalType": "uint256[]",
          "name": "tokenIds",
          "type": "uint256[]"
        }
      ],
      "name": "claim",
      "outputs": [],
      "stateMutability": "nonpayable",
      "type": "function"
    },
    {
      "inputs": [
        {
          "internalType": "address",
          "name": "account",
          "type": "address"
        },
        {
          "internalType": "uint256[]",
          "name": "tokenIds",
          "type": "uint256[]"
        }
      ],
      "name": "claimForAddress",
      "outputs": [],
      "stateMutability": "nonpayable",
      "type": "function"
    },
    {
      "inputs": [
        {
          "internalType": "address",
          "name": "account",
          "type": "address"
        },
        {
          "internalType": "uint256[]",
          "name": "tokenIds",
          "type": "uint256[]"
        }
      ],
      "name": "earningInfo",
      "outputs": [
        {
          "internalType": "uint256",
          "name": "",
          "type": "uint256"
        }
      ],
      "stateMutability": "view",
      "type": "function"
    },
    {
      "inputs": [],
      "name": "erc20Address",
      "outputs": [
        {
          "internalType": "address",
          "name": "",
          "type": "address"
        }
      ],
      "stateMutability": "view",
      "type": "function"
    },
    {
      "inputs": [
        {
          "internalType": "address",
          "name": "_owner",
          "type": "address"
        },
        {
          "internalType": "address",
          "name": "_nft",
          "type": "address"
        },
        {
          "internalType": "address",
          "name": "_token",
          "type": "address"
        },
        {
          "internalType": "uint256",
          "name": "_vaultDuration",
          "type": "uint256"
        },
        {
          "internalType": "uint256",
          "name": "_totalSupply",
          "type": "uint256"
        }
      ],
      "name": "initialize",
      "outputs": [],
      "stateMutability": "nonpayable",
      "type": "function"
    },
    {
      "inputs": [],
      "name": "nftAddress",
      "outputs": [
        {
          "internalType": "address",
          "name": "",
          "type": "address"
        }
      ],
      "stateMutability": "view",
      "type": "function"
    },
    {
      "inputs": [
        {
          "internalType": "address",
          "name": "",
          "type": "address"
        },
        {
          "internalType": "address",
          "name": "",
          "type": "address"
        },
        {
          "internalType": "uint256",
          "name": "",
          "type": "uint256"
        },
        {
          "internalType": "bytes",
          "name": "",
          "type": "bytes"
        }
      ],
      "name": "onERC721Received",
      "outputs": [
        {
          "internalType": "bytes4",
          "name": "",
          "type": "bytes4"
        }
      ],
      "stateMutability": "pure",
      "type": "function"
    },
    {
      "inputs": [],
      "name": "owner",
      "outputs": [
        {
          "internalType": "address",
          "name": "",
          "type": "address"
        }
      ],
      "stateMutability": "view",
      "type": "function"
    },
    {
      "inputs": [],
      "name": "renounceOwnership",
      "outputs": [],
      "stateMutability": "nonpayable",
      "type": "function"
    },
    {
      "inputs": [
        {
          "internalType": "uint256[]",
          "name": "tokenIds",
          "type": "uint256[]"
        }
      ],
      "name": "stake",
      "outputs": [],
      "stateMutability": "nonpayable",
      "type": "function"
    },
    {
      "inputs": [
        {
          "internalType": "address",
          "name": "account",
          "type": "address"
        }
      ],
      "name": "tokensOfOwner",
      "outputs": [
        {
          "internalType": "uint256[]",
          "name": "ownerTokens",
          "type": "uint256[]"
        }
      ],
      "stateMutability": "view",
      "type": "function"
    },
    {
      "inputs": [],
      "name": "totalClaimed",
      "outputs": [
        {
          "internalType": "uint256",
          "name": "",
          "type": "uint256"
        }
      ],
      "stateMutability": "view",
      "type": "function"
    },
    {
      "inputs": [],
      "name": "totalStaked",
      "outputs": [
        {
          "internalType": "uint256",
          "name": "",
          "type": "uint256"
        }
      ],
      "stateMutability": "view",
      "type": "function"
    },
    {
      "inputs": [],
      "name": "totalSupply",
      "outputs": [
        {
          "internalType": "uint256",
          "name": "",
          "type": "uint256"
        }
      ],
      "stateMutability": "view",
      "type": "function"
    },
    {
      "inputs": [
        {
          "internalType": "address",
          "name": "newOwner",
          "type": "address"
        }
      ],
      "name": "transferOwnership",
      "outputs": [],
      "stateMutability": "nonpayable",
      "type": "function"
    },
    {
      "inputs": [
        {
          "internalType": "uint256[]",
          "name": "tokenIds",
          "type": "uint256[]"
        }
      ],
      "name": "unstake",
      "outputs": [],
      "stateMutability": "nonpayable",
      "type": "function"
    },
    {
      "inputs": [
        {
          "internalType": "uint256",
          "name": "",
          "type": "uint256"
        }
      ],
      "name": "vault",
      "outputs": [
        {
          "internalType": "uint24",
          "name": "tokenId",
          "type": "uint24"
        },
        {
          "internalType": "uint48",
          "name": "timestamp",
          "type": "uint48"
        },
        {
          "internalType": "address",
          "name": "owner",
          "type": "address"
        }
      ],
      "stateMutability": "view",
      "type": "function"
    },
    {
      "inputs": [],
      "name": "vaultEnd",
      "outputs": [
        {
          "internalType": "uint256",
          "name": "",
          "type": "uint256"
        }
      ],
      "stateMutability": "view",
      "type": "function"
    },
    {
      "inputs": [],
      "name": "vaultStart",
      "outputs": [
        {
          "internalType": "uint256",
          "name": "",
          "type": "uint256"
        }
      ],
      "stateMutability": "view",
      "type": "function"
    },
    {
      "inputs": [
        {
          "internalType": "uint256",
          "name": "amount",
          "type": "uint256"
        }
      ],
      "name": "withdraw",
      "outputs": [],
      "stateMutability": "nonpayable",
      "type": "function"
    },
    {
      "stateMutability": "payable",
      "type": "receive"
    }
  ],
  "bytecode": "0x60806040523480156200001157600080fd5b5062000032620000266200003f60201b60201c565b6200004760201b60201c565b600180819055506200010c565b600033905090565b60008060029054906101000a900473ffffffffffffffffffffffffffffffffffffffff16905081600060026101000a81548173ffffffffffffffffffffffffffffffffffffffff021916908373ffffffffffffffffffffffffffffffffffffffff1602179055508173ffffffffffffffffffffffffffffffffffffffff168173ffffffffffffffffffffffffffffffffffffffff167f8be0079c531659141344cd1fd0a4f28419497f9722a3daafe3b4186f6b6457e060405160405180910390a35050565b612ad8806200011c6000396000f3fe60806040526004361061012e5760003560e01c8063760c4e47116100ab5780638da5cb5b1161006f5780638da5cb5b146103fe578063a6b63eb814610429578063c36be35714610452578063d54ad2a11461047b578063e449f341146104a6578063f2fde38b146104cf57610135565b8063760c4e47146102ef5780637e75dd601461031a578063817b1cd21461035757806381a36fb6146103825780638462151c146103c157610135565b80632e1a7d4d116100f25780632e1a7d4d1461021e5780635bf8633a146102475780636ba4c1381461027257806370a082311461029b578063715018a6146102d857610135565b80630fbf0a9314610137578063150b7a021461016057806318160ddd1461019d5780631997e5a2146101c8578063276184ae146101f357610135565b3661013557005b005b34801561014357600080fd5b5061015e60048036038101906101599190611dea565b6104f8565b005b34801561016c57600080fd5b5061018760048036038101906101829190611f21565b610a44565b6040516101949190611fe4565b60405180910390f35b3480156101a957600080fd5b506101b2610a59565b6040516101bf919061200e565b60405180910390f35b3480156101d457600080fd5b506101dd610a5f565b6040516101ea919061200e565b60405180910390f35b3480156101ff57600080fd5b50610208610a65565b6040516102159190612038565b60405180910390f35b34801561022a57600080fd5b5061024560048036038101906102409190612053565b610a8b565b005b34801561025357600080fd5b5061025c610b46565b6040516102699190612038565b60405180910390f35b34801561027e57600080fd5b5061029960048036038101906102949190611dea565b610b6c565b005b3480156102a757600080fd5b506102c260048036038101906102bd9190612080565b610bd2565b6040516102cf919061200e565b60405180910390f35b3480156102e457600080fd5b506102ed610c7b565b005b3480156102fb57600080fd5b50610304610c8f565b604051610311919061200e565b60405180910390f35b34801561032657600080fd5b50610341600480360381019061033c91906120ad565b610c95565b60405161034e919061200e565b60405180910390f35b34801561036357600080fd5b5061036c610e44565b604051610379919061200e565b60405180910390f35b34801561038e57600080fd5b506103a960048036038101906103a49190612053565b610e4a565b6040516103b89392919061214c565b60405180910390f35b3480156103cd57600080fd5b506103e860048036038101906103e39190612080565b610eb5565b6040516103f59190612241565b60405180910390f35b34801561040a57600080fd5b5061041361109a565b6040516104209190612038565b60405180910390f35b34801561043557600080fd5b50610450600480360381019061044b9190612263565b6110c3565b005b34801561045e57600080fd5b50610479600480360381019061047491906120ad565b6112b9565b005b34801561048757600080fd5b50610490611320565b60405161049d919061200e565b60405180910390f35b3480156104b257600080fd5b506104cd60048036038101906104c89190611dea565b611326565b005b3480156104db57600080fd5b506104f660048036038101906104f19190612080565b61138c565b005b6002600154141561053e576040517f08c379a00000000000000000000000000000000000000000000000000000000081526004016105359061233b565b60405180910390fd5b60026001819055506000828290506002600082825461055d919061238a565b9250508190555060005b838390508114610a3757838382818110610584576105836123e0565b5b905060200201359150600073ffffffffffffffffffffffffffffffffffffffff166009600084815260200190815260200160002060000160099054906101000a900473ffffffffffffffffffffffffffffffffffffffff1673ffffffffffffffffffffffffffffffffffffffff1614610632576040517f08c379a00000000000000000000000000000000000000000000000000000000081526004016106299061245b565b60405180910390fd5b3373ffffffffffffffffffffffffffffffffffffffff16600360009054906101000a900473ffffffffffffffffffffffffffffffffffffffff1673ffffffffffffffffffffffffffffffffffffffff16636352211e846040518263ffffffff1660e01b81526004016106a4919061200e565b60206040518083038186803b1580156106bc57600080fd5b505afa1580156106d0573d6000803e3d6000fd5b505050506040513d601f19601f820116820180604052508101906106f49190612490565b73ffffffffffffffffffffffffffffffffffffffff161461074a576040517f08c379a000000000000000000000000000000000000000000000000000000000815260040161074190612509565b60405180910390fd5b3073ffffffffffffffffffffffffffffffffffffffff16600360009054906101000a900473ffffffffffffffffffffffffffffffffffffffff1673ffffffffffffffffffffffffffffffffffffffff1663081812fc846040518263ffffffff1660e01b81526004016107bc919061200e565b60206040518083038186803b1580156107d457600080fd5b505afa1580156107e8573d6000803e3d6000fd5b505050506040513d601f19601f8201168201806040525081019061080c9190612490565b73ffffffffffffffffffffffffffffffffffffffff1614610862576040517f08c379a000000000000000000000000000000000000000000000000000000000815260040161085990612575565b60405180910390fd5b600360009054906101000a900473ffffffffffffffffffffffffffffffffffffffff1673ffffffffffffffffffffffffffffffffffffffff166342842e0e3330856040518463ffffffff1660e01b81526004016108c193929190612595565b600060405180830381600087803b1580156108db57600080fd5b505af11580156108ef573d6000803e3d6000fd5b505050507f36b3725f1783bad4ff05b7f4c077c3aa68eeb23a4d054ba189db4d01ac278d39338342604051610926939291906125cc565b60405180910390a160405180606001604052808362ffffff16815260200161095042600654611410565b65ffffffffffff1681526020013373ffffffffffffffffffffffffffffffffffffffff168152506009600084815260200190815260200160002060008201518160000160006101000a81548162ffffff021916908362ffffff16021790555060208201518160000160036101000a81548165ffffffffffff021916908365ffffffffffff16021790555060408201518160000160096101000a81548173ffffffffffffffffffffffffffffffffffffffff021916908373ffffffffffffffffffffffffffffffffffffffff1602179055509050508080610a2f90612603565b915050610567565b5050600180819055505050565b600063150b7a0260e01b905095945050505050565b60085481565b60055481565b600460009054906101000a900473ffffffffffffffffffffffffffffffffffffffff1681565b610a9361142a565b600460009054906101000a900473ffffffffffffffffffffffffffffffffffffffff1673ffffffffffffffffffffffffffffffffffffffff1663a9059cbb30836040518363ffffffff1660e01b8152600401610af092919061264c565b602060405180830381600087803b158015610b0a57600080fd5b505af1158015610b1e573d6000803e3d6000fd5b505050506040513d601f19601f82011682018060405250810190610b4291906126ad565b5050565b600360009054906101000a900473ffffffffffffffffffffffffffffffffffffffff1681565b60026001541415610bb2576040517f08c379a0000000000000000000000000000000000000000000000000000000008152600401610ba99061233b565b60405180910390fd5b6002600181905550610bc733838360006114a8565b600180819055505050565b6000806000905060005b6008548111610c71578373ffffffffffffffffffffffffffffffffffffffff166009600083815260200190815260200160002060000160099054906101000a900473ffffffffffffffffffffffffffffffffffffffff1673ffffffffffffffffffffffffffffffffffffffff161415610c5e578180610c5a90612603565b9250505b8080610c6990612603565b915050610bdc565b5080915050919050565b610c8361142a565b610c8d6000611870565b565b60065481565b6000806000805b858590508114610e3757858582818110610cb957610cb86123e0565b5b9050602002013592506000600960008581526020019081526020016000206040518060600160405290816000820160009054906101000a900462ffffff1662ffffff1662ffffff1681526020016000820160039054906101000a900465ffffffffffff1665ffffffffffff1665ffffffffffff1681526020016000820160099054906101000a900473ffffffffffffffffffffffffffffffffffffffff1673ffffffffffffffffffffffffffffffffffffffff1673ffffffffffffffffffffffffffffffffffffffff168152505090508773ffffffffffffffffffffffffffffffffffffffff16816040015173ffffffffffffffffffffffffffffffffffffffff1614610dfb576040517f08c379a0000000000000000000000000000000000000000000000000000000008152600401610df290612726565b60405180910390fd5b6000816020015165ffffffffffff169050610e1581611935565b84610e20919061238a565b935050508080610e2f90612603565b915050610c9c565b5080925050509392505050565b60025481565b60096020528060005260406000206000915090508060000160009054906101000a900462ffffff16908060000160039054906101000a900465ffffffffffff16908060000160099054906101000a900473ffffffffffffffffffffffffffffffffffffffff16905083565b6060600060085467ffffffffffffffff811115610ed557610ed4612746565b5b604051908082528060200260200182016040528015610f035781602001602082028036833780820191505090505b5090506000805b6008548111610fe9578473ffffffffffffffffffffffffffffffffffffffff166009600083815260200190815260200160002060000160099054906101000a900473ffffffffffffffffffffffffffffffffffffffff1673ffffffffffffffffffffffffffffffffffffffff161415610fd6576009600082815260200190815260200160002060000160009054906101000a900462ffffff1662ffffff16838381518110610fbb57610fba6123e0565b5b6020026020010181815250508180610fd290612603565b9250505b8080610fe190612603565b915050610f0a565b5060008167ffffffffffffffff81111561100657611005612746565b5b6040519080825280602002602001820160405280156110345781602001602082028036833780820191505090505b50905060005b82811461108e57838181518110611054576110536123e0565b5b602002602001015182828151811061106f5761106e6123e0565b5b602002602001018181525050808061108690612603565b91505061103a565b50809350505050919050565b60008060029054906101000a900473ffffffffffffffffffffffffffffffffffffffff16905090565b60008060019054906101000a900460ff161590508080156110f45750600160008054906101000a900460ff1660ff16105b80611121575061110330611a7d565b1580156111205750600160008054906101000a900460ff1660ff16145b5b611160576040517f08c379a0000000000000000000000000000000000000000000000000000000008152600401611157906127e7565b60405180910390fd5b60016000806101000a81548160ff021916908360ff160217905550801561119d576001600060016101000a81548160ff0219169083151502179055505b6111a686611870565b84600360006101000a81548173ffffffffffffffffffffffffffffffffffffffff021916908373ffffffffffffffffffffffffffffffffffffffff16021790555083600460006101000a81548173ffffffffffffffffffffffffffffffffffffffff021916908373ffffffffffffffffffffffffffffffffffffffff16021790555042600581905550620151808361123e9190612807565b60055461124b919061238a565b6006819055508160088190555080156112b15760008060016101000a81548160ff0219169083151502179055507f7f26b83ff96e1f2b6a682f133852f6798a09c465da95921460cefb384740249860016040516112a891906128b3565b60405180910390a15b505050505050565b600260015414156112ff576040517f08c379a00000000000000000000000000000000000000000000000000000000081526004016112f69061233b565b60405180910390fd5b600260018190555061131483838360006114a8565b60018081905550505050565b60075481565b6002600154141561136c576040517f08c379a00000000000000000000000000000000000000000000000000000000081526004016113639061233b565b60405180910390fd5b600260018190555061138133838360016114a8565b600180819055505050565b61139461142a565b600073ffffffffffffffffffffffffffffffffffffffff168173ffffffffffffffffffffffffffffffffffffffff161415611404576040517f08c379a00000000000000000000000000000000000000000000000000000000081526004016113fb90612940565b60405180910390fd5b61140d81611870565b50565b6000818310156114205782611422565b815b905092915050565b611432611aa0565b73ffffffffffffffffffffffffffffffffffffffff1661145061109a565b73ffffffffffffffffffffffffffffffffffffffff16146114a6576040517f08c379a000000000000000000000000000000000000000000000000000000000815260040161149d906129ac565b60405180910390fd5b565b6000806000905060005b858590508114611749578585828181106114cf576114ce6123e0565b5b9050602002013592506000600960008581526020019081526020016000206040518060600160405290816000820160009054906101000a900462ffffff1662ffffff1662ffffff1681526020016000820160039054906101000a900465ffffffffffff1665ffffffffffff1665ffffffffffff1681526020016000820160099054906101000a900473ffffffffffffffffffffffffffffffffffffffff1673ffffffffffffffffffffffffffffffffffffffff1673ffffffffffffffffffffffffffffffffffffffff168152505090508773ffffffffffffffffffffffffffffffffffffffff16816040015173ffffffffffffffffffffffffffffffffffffffff1614611611576040517f08c379a000000000000000000000000000000000000000000000000000000000815260040161160890612726565b60405180910390fd5b6000816020015165ffffffffffff169050600061163042600654611410565b905061163b82611935565b85611646919061238a565b945060405180606001604052808762ffffff1681526020018265ffffffffffff1681526020018b73ffffffffffffffffffffffffffffffffffffffff168152506009600088815260200190815260200160002060008201518160000160006101000a81548162ffffff021916908362ffffff16021790555060208201518160000160036101000a81548165ffffffffffff021916908365ffffffffffff16021790555060408201518160000160096101000a81548173ffffffffffffffffffffffffffffffffffffffff021916908373ffffffffffffffffffffffffffffffffffffffff160217905550905050505050808061174190612603565b9150506114b2565b50600081111561181d57600460009054906101000a900473ffffffffffffffffffffffffffffffffffffffff1673ffffffffffffffffffffffffffffffffffffffff1663a9059cbb87836040518363ffffffff1660e01b81526004016117b092919061264c565b602060405180830381600087803b1580156117ca57600080fd5b505af11580156117de573d6000803e3d6000fd5b505050506040513d601f19601f8201168201806040525081019061180291906126ad565b508060076000828254611815919061238a565b925050819055505b821561182f5761182e868686611aa8565b5b7fd8138f8a3f377c5259ca548e70e4c2de94f129f5a11036a15b69513cba2b426a868260405161186092919061264c565b60405180910390a1505050505050565b60008060029054906101000a900473ffffffffffffffffffffffffffffffffffffffff16905081600060026101000a81548173ffffffffffffffffffffffffffffffffffffffff021916908373ffffffffffffffffffffffffffffffffffffffff1602179055508173ffffffffffffffffffffffffffffffffffffffff168173ffffffffffffffffffffffffffffffffffffffff167f8be0079c531659141344cd1fd0a4f28419497f9722a3daafe3b4186f6b6457e060405160405180910390a35050565b600080600460009054906101000a900473ffffffffffffffffffffffffffffffffffffffff1673ffffffffffffffffffffffffffffffffffffffff166370a08231306040518263ffffffff1660e01b81526004016119939190612038565b60206040518083038186803b1580156119ab57600080fd5b505afa1580156119bf573d6000803e3d6000fd5b505050506040513d601f19601f820116820180604052508101906119e391906129e1565b90506000600754826119f5919061238a565b90506000600554600654611a099190612a0e565b905060006201518082611a1c9190612a71565b905060008160085485611a2f9190612a71565b611a399190612a71565b9050600087611a4a42600654611410565b611a549190612a0e565b9050620151808183611a669190612807565b611a709190612a71565b9650505050505050919050565b6000808273ffffffffffffffffffffffffffffffffffffffff163b119050919050565b600033905090565b60008282905060026000828254611abf9190612a0e565b9250508190555060005b838390508114611d7457838382818110611ae657611ae56123e0565b5b9050602002013591506000600960008481526020019081526020016000206040518060600160405290816000820160009054906101000a900462ffffff1662ffffff1662ffffff1681526020016000820160039054906101000a900465ffffffffffff1665ffffffffffff1665ffffffffffff1681526020016000820160099054906101000a900473ffffffffffffffffffffffffffffffffffffffff1673ffffffffffffffffffffffffffffffffffffffff1673ffffffffffffffffffffffffffffffffffffffff168152505090503373ffffffffffffffffffffffffffffffffffffffff16816040015173ffffffffffffffffffffffffffffffffffffffff1614611c28576040517f08c379a0000000000000000000000000000000000000000000000000000000008152600401611c1f90612726565b60405180910390fd5b60096000848152602001908152602001600020600080820160006101000a81549062ffffff02191690556000820160036101000a81549065ffffffffffff02191690556000820160096101000a81549073ffffffffffffffffffffffffffffffffffffffff021916905550507fc486b9458a8637650d84d262414833a5a457bc91ae86b7da110386c8c3fa255b868442604051611cc7939291906125cc565b60405180910390a1600360009054906101000a900473ffffffffffffffffffffffffffffffffffffffff1673ffffffffffffffffffffffffffffffffffffffff166342842e0e3088866040518463ffffffff1660e01b8152600401611d2e93929190612595565b600060405180830381600087803b158015611d4857600080fd5b505af1158015611d5c573d6000803e3d6000fd5b50505050508080611d6c90612603565b915050611ac9565b5050505050565b600080fd5b600080fd5b600080fd5b600080fd5b600080fd5b60008083601f840112611daa57611da9611d85565b5b8235905067ffffffffffffffff811115611dc757611dc6611d8a565b5b602083019150836020820283011115611de357611de2611d8f565b5b9250929050565b60008060208385031215611e0157611e00611d7b565b5b600083013567ffffffffffffffff811115611e1f57611e1e611d80565b5b611e2b85828601611d94565b92509250509250929050565b600073ffffffffffffffffffffffffffffffffffffffff82169050919050565b6000611e6282611e37565b9050919050565b611e7281611e57565b8114611e7d57600080fd5b50565b600081359050611e8f81611e69565b92915050565b6000819050919050565b611ea881611e95565b8114611eb357600080fd5b50565b600081359050611ec581611e9f565b92915050565b60008083601f840112611ee157611ee0611d85565b5b8235905067ffffffffffffffff811115611efe57611efd611d8a565b5b602083019150836001820283011115611f1a57611f19611d8f565b5b9250929050565b600080600080600060808688031215611f3d57611f3c611d7b565b5b6000611f4b88828901611e80565b9550506020611f5c88828901611e80565b9450506040611f6d88828901611eb6565b935050606086013567ffffffffffffffff811115611f8e57611f8d611d80565b5b611f9a88828901611ecb565b92509250509295509295909350565b60007fffffffff0000000000000000000000000000000000000000000000000000000082169050919050565b611fde81611fa9565b82525050565b6000602082019050611ff96000830184611fd5565b92915050565b61200881611e95565b82525050565b60006020820190506120236000830184611fff565b92915050565b61203281611e57565b82525050565b600060208201905061204d6000830184612029565b92915050565b60006020828403121561206957612068611d7b565b5b600061207784828501611eb6565b91505092915050565b60006020828403121561209657612095611d7b565b5b60006120a484828501611e80565b91505092915050565b6000806000604084860312156120c6576120c5611d7b565b5b60006120d486828701611e80565b935050602084013567ffffffffffffffff8111156120f5576120f4611d80565b5b61210186828701611d94565b92509250509250925092565b600062ffffff82169050919050565b6121258161210d565b82525050565b600065ffffffffffff82169050919050565b6121468161212b565b82525050565b6000606082019050612161600083018661211c565b61216e602083018561213d565b61217b6040830184612029565b949350505050565b600081519050919050565b600082825260208201905092915050565b6000819050602082019050919050565b6121b881611e95565b82525050565b60006121ca83836121af565b60208301905092915050565b6000602082019050919050565b60006121ee82612183565b6121f8818561218e565b93506122038361219f565b8060005b8381101561223457815161221b88826121be565b9750612226836121d6565b925050600181019050612207565b5085935050505092915050565b6000602082019050818103600083015261225b81846121e3565b905092915050565b600080600080600060a0868803121561227f5761227e611d7b565b5b600061228d88828901611e80565b955050602061229e88828901611e80565b94505060406122af88828901611e80565b93505060606122c088828901611eb6565b92505060806122d188828901611eb6565b9150509295509295909350565b600082825260208201905092915050565b7f5265656e7472616e637947756172643a207265656e7472616e742063616c6c00600082015250565b6000612325601f836122de565b9150612330826122ef565b602082019050919050565b6000602082019050818103600083015261235481612318565b9050919050565b7f4e487b7100000000000000000000000000000000000000000000000000000000600052601160045260246000fd5b600061239582611e95565b91506123a083611e95565b9250827fffffffffffffffffffffffffffffffffffffffffffffffffffffffffffffffff038211156123d5576123d461235b565b5b828201905092915050565b7f4e487b7100000000000000000000000000000000000000000000000000000000600052603260045260246000fd5b7f616c7265616479207374616b6564000000000000000000000000000000000000600082015250565b6000612445600e836122de565b91506124508261240f565b602082019050919050565b6000602082019050818103600083015261247481612438565b9050919050565b60008151905061248a81611e69565b92915050565b6000602082840312156124a6576124a5611d7b565b5b60006124b48482850161247b565b91505092915050565b7f6e6f7420796f757220746f6b656e000000000000000000000000000000000000600082015250565b60006124f3600e836122de565b91506124fe826124bd565b602082019050919050565b60006020820190508181036000830152612522816124e6565b9050919050565b7f6e6f7420617070726f76656420666f72207472616e7366657200000000000000600082015250565b600061255f6019836122de565b915061256a82612529565b602082019050919050565b6000602082019050818103600083015261258e81612552565b9050919050565b60006060820190506125aa6000830186612029565b6125b76020830185612029565b6125c46040830184611fff565b949350505050565b60006060820190506125e16000830186612029565b6125ee6020830185611fff565b6125fb6040830184611fff565b949350505050565b600061260e82611e95565b91507fffffffffffffffffffffffffffffffffffffffffffffffffffffffffffffffff8214156126415761264061235b565b5b600182019050919050565b60006040820190506126616000830185612029565b61266e6020830184611fff565b9392505050565b60008115159050919050565b61268a81612675565b811461269557600080fd5b50565b6000815190506126a781612681565b92915050565b6000602082840312156126c3576126c2611d7b565b5b60006126d184828501612698565b91505092915050565b7f6e6f7420616e206f776e65720000000000000000000000000000000000000000600082015250565b6000612710600c836122de565b915061271b826126da565b602082019050919050565b6000602082019050818103600083015261273f81612703565b9050919050565b7f4e487b7100000000000000000000000000000000000000000000000000000000600052604160045260246000fd5b7f496e697469616c697a61626c653a20636f6e747261637420697320616c72656160008201527f647920696e697469616c697a6564000000000000000000000000000000000000602082015250565b60006127d1602e836122de565b91506127dc82612775565b604082019050919050565b60006020820190508181036000830152612800816127c4565b9050919050565b600061281282611e95565b915061281d83611e95565b9250817fffffffffffffffffffffffffffffffffffffffffffffffffffffffffffffffff04831182151516156128565761285561235b565b5b828202905092915050565b6000819050919050565b600060ff82169050919050565b6000819050919050565b600061289d61289861289384612861565b612878565b61286b565b9050919050565b6128ad81612882565b82525050565b60006020820190506128c860008301846128a4565b92915050565b7f4f776e61626c653a206e6577206f776e657220697320746865207a65726f206160008201527f6464726573730000000000000000000000000000000000000000000000000000602082015250565b600061292a6026836122de565b9150612935826128ce565b604082019050919050565b600060208201905081810360008301526129598161291d565b9050919050565b7f4f776e61626c653a2063616c6c6572206973206e6f7420746865206f776e6572600082015250565b60006129966020836122de565b91506129a182612960565b602082019050919050565b600060208201905081810360008301526129c581612989565b9050919050565b6000815190506129db81611e9f565b92915050565b6000602082840312156129f7576129f6611d7b565b5b6000612a05848285016129cc565b91505092915050565b6000612a1982611e95565b9150612a2483611e95565b925082821015612a3757612a3661235b565b5b828203905092915050565b7f4e487b7100000000000000000000000000000000000000000000000000000000600052601260045260246000fd5b6000612a7c82611e95565b9150612a8783611e95565b925082612a9757612a96612a42565b5b82820490509291505056fea2646970667358221220a502bcd0a877f453f9d0730f41efcc89112036c8122adb4899b748d32b4a083064736f6c63430008090033",
  "linkReferences": {},
  "deployedLinkReferences": {}
}