{
  "_format": "hh-sol-artifact-1",
  "contractName": "DCNTStaking",
  "sourceName": "contracts/DCNTStaking.sol",
  "abi": [
    {
      "anonymous": false,
      "inputs": [
        {
          "indexed": false,
          "internalType": "address",
          "name": "owner",
          "type": "address"
        },
        {
          "indexed": false,
          "internalType": "uint256",
          "name": "amount",
          "type": "uint256"
        }
      ],
      "name": "Claimed",
      "type": "event"
    },
    {
      "anonymous": false,
      "inputs": [
        {
          "indexed": false,
          "internalType": "uint8",
          "name": "version",
          "type": "uint8"
        }
      ],
      "name": "Initialized",
      "type": "event"
    },
    {
      "anonymous": false,
      "inputs": [
        {
          "indexed": false,
          "internalType": "address",
          "name": "owner",
          "type": "address"
        },
        {
          "indexed": false,
          "internalType": "uint256",
          "name": "tokenId",
          "type": "uint256"
        },
        {
          "indexed": false,
          "internalType": "uint256",
          "name": "value",
          "type": "uint256"
        }
      ],
      "name": "NFTStaked",
      "type": "event"
    },
    {
      "anonymous": false,
      "inputs": [
        {
          "indexed": false,
          "internalType": "address",
          "name": "owner",
          "type": "address"
        },
        {
          "indexed": false,
          "internalType": "uint256",
          "name": "tokenId",
          "type": "uint256"
        },
        {
          "indexed": false,
          "internalType": "uint256",
          "name": "value",
          "type": "uint256"
        }
      ],
      "name": "NFTUnstaked",
      "type": "event"
    },
    {
      "anonymous": false,
      "inputs": [
        {
          "indexed": true,
          "internalType": "address",
          "name": "previousOwner",
          "type": "address"
        },
        {
          "indexed": true,
          "internalType": "address",
          "name": "newOwner",
          "type": "address"
        }
      ],
      "name": "OwnershipTransferred",
      "type": "event"
    },
    {
      "stateMutability": "payable",
      "type": "fallback"
    },
    {
      "inputs": [
        {
          "internalType": "address",
          "name": "account",
          "type": "address"
        }
      ],
      "name": "balanceOf",
      "outputs": [
        {
          "internalType": "uint256",
          "name": "",
          "type": "uint256"
        }
      ],
      "stateMutability": "view",
      "type": "function"
    },
    {
      "inputs": [
        {
          "internalType": "uint256[]",
          "name": "tokenIds",
          "type": "uint256[]"
        }
      ],
      "name": "claim",
      "outputs": [],
      "stateMutability": "nonpayable",
      "type": "function"
    },
    {
      "inputs": [
        {
          "internalType": "address",
          "name": "account",
          "type": "address"
        },
        {
          "internalType": "uint256[]",
          "name": "tokenIds",
          "type": "uint256[]"
        }
      ],
      "name": "claimForAddress",
      "outputs": [],
      "stateMutability": "nonpayable",
      "type": "function"
    },
    {
      "inputs": [
        {
          "internalType": "address",
          "name": "account",
          "type": "address"
        },
        {
          "internalType": "uint256[]",
          "name": "tokenIds",
          "type": "uint256[]"
        }
      ],
      "name": "earningInfo",
      "outputs": [
        {
          "internalType": "uint256",
          "name": "",
          "type": "uint256"
        }
      ],
      "stateMutability": "view",
      "type": "function"
    },
    {
      "inputs": [],
      "name": "erc20Address",
      "outputs": [
        {
          "internalType": "address",
          "name": "",
          "type": "address"
        }
      ],
      "stateMutability": "view",
      "type": "function"
    },
    {
      "inputs": [
        {
          "internalType": "address",
          "name": "_owner",
          "type": "address"
        },
        {
          "internalType": "address",
          "name": "_nft",
          "type": "address"
        },
        {
          "internalType": "address",
          "name": "_token",
          "type": "address"
        },
        {
          "internalType": "uint256",
          "name": "_vaultDuration",
          "type": "uint256"
        },
        {
          "internalType": "uint256",
          "name": "_totalSupply",
          "type": "uint256"
        }
      ],
      "name": "initialize",
      "outputs": [],
      "stateMutability": "nonpayable",
      "type": "function"
    },
    {
      "inputs": [],
      "name": "nftAddress",
      "outputs": [
        {
          "internalType": "address",
          "name": "",
          "type": "address"
        }
      ],
      "stateMutability": "view",
      "type": "function"
    },
    {
      "inputs": [
        {
          "internalType": "address",
          "name": "",
          "type": "address"
        },
        {
          "internalType": "address",
          "name": "",
          "type": "address"
        },
        {
          "internalType": "uint256",
          "name": "",
          "type": "uint256"
        },
        {
          "internalType": "bytes",
          "name": "",
          "type": "bytes"
        }
      ],
      "name": "onERC721Received",
      "outputs": [
        {
          "internalType": "bytes4",
          "name": "",
          "type": "bytes4"
        }
      ],
      "stateMutability": "pure",
      "type": "function"
    },
    {
      "inputs": [],
      "name": "owner",
      "outputs": [
        {
          "internalType": "address",
          "name": "",
          "type": "address"
        }
      ],
      "stateMutability": "view",
      "type": "function"
    },
    {
      "inputs": [],
      "name": "renounceOwnership",
      "outputs": [],
      "stateMutability": "nonpayable",
      "type": "function"
    },
    {
      "inputs": [
        {
          "internalType": "uint256[]",
          "name": "tokenIds",
          "type": "uint256[]"
        }
      ],
      "name": "stake",
      "outputs": [],
      "stateMutability": "nonpayable",
      "type": "function"
    },
    {
      "inputs": [
        {
          "internalType": "address",
          "name": "account",
          "type": "address"
        }
      ],
      "name": "tokensOfOwner",
      "outputs": [
        {
          "internalType": "uint256[]",
          "name": "ownerTokens",
          "type": "uint256[]"
        }
      ],
      "stateMutability": "view",
      "type": "function"
    },
    {
      "inputs": [],
      "name": "totalClaimed",
      "outputs": [
        {
          "internalType": "uint256",
          "name": "",
          "type": "uint256"
        }
      ],
      "stateMutability": "view",
      "type": "function"
    },
    {
      "inputs": [],
      "name": "totalStaked",
      "outputs": [
        {
          "internalType": "uint256",
          "name": "",
          "type": "uint256"
        }
      ],
      "stateMutability": "view",
      "type": "function"
    },
    {
      "inputs": [],
      "name": "totalSupply",
      "outputs": [
        {
          "internalType": "uint256",
          "name": "",
          "type": "uint256"
        }
      ],
      "stateMutability": "view",
      "type": "function"
    },
    {
      "inputs": [
        {
          "internalType": "address",
          "name": "newOwner",
          "type": "address"
        }
      ],
      "name": "transferOwnership",
      "outputs": [],
      "stateMutability": "nonpayable",
      "type": "function"
    },
    {
      "inputs": [
        {
          "internalType": "uint256[]",
          "name": "tokenIds",
          "type": "uint256[]"
        }
      ],
      "name": "unstake",
      "outputs": [],
      "stateMutability": "nonpayable",
      "type": "function"
    },
    {
      "inputs": [
        {
          "internalType": "uint256",
          "name": "",
          "type": "uint256"
        }
      ],
      "name": "vault",
      "outputs": [
        {
          "internalType": "uint24",
          "name": "tokenId",
          "type": "uint24"
        },
        {
          "internalType": "uint48",
          "name": "timestamp",
          "type": "uint48"
        },
        {
          "internalType": "address",
          "name": "owner",
          "type": "address"
        }
      ],
      "stateMutability": "view",
      "type": "function"
    },
    {
      "inputs": [],
      "name": "vaultEnd",
      "outputs": [
        {
          "internalType": "uint256",
          "name": "",
          "type": "uint256"
        }
      ],
      "stateMutability": "view",
      "type": "function"
    },
    {
      "inputs": [],
      "name": "vaultStart",
      "outputs": [
        {
          "internalType": "uint256",
          "name": "",
          "type": "uint256"
        }
      ],
      "stateMutability": "view",
      "type": "function"
    },
    {
      "inputs": [
        {
          "internalType": "uint256",
          "name": "amount",
          "type": "uint256"
        }
      ],
      "name": "withdraw",
      "outputs": [],
      "stateMutability": "nonpayable",
      "type": "function"
    },
    {
      "stateMutability": "payable",
      "type": "receive"
    }
  ],
  "bytecode": "0x60806040523480156200001157600080fd5b5062000032620000266200003f60201b60201c565b6200004760201b60201c565b600180819055506200010c565b600033905090565b60008060029054906101000a900473ffffffffffffffffffffffffffffffffffffffff16905081600060026101000a81548173ffffffffffffffffffffffffffffffffffffffff021916908373ffffffffffffffffffffffffffffffffffffffff1602179055508173ffffffffffffffffffffffffffffffffffffffff168173ffffffffffffffffffffffffffffffffffffffff167f8be0079c531659141344cd1fd0a4f28419497f9722a3daafe3b4186f6b6457e060405160405180910390a35050565b612954806200011c6000396000f3fe60806040526004361061012e5760003560e01c8063760c4e47116100ab5780638da5cb5b1161006f5780638da5cb5b146103fe578063a6b63eb814610429578063c36be35714610452578063d54ad2a11461047b578063e449f341146104a6578063f2fde38b146104cf57610135565b8063760c4e47146102ef5780637e75dd601461031a578063817b1cd21461035757806381a36fb6146103825780638462151c146103c157610135565b80632e1a7d4d116100f25780632e1a7d4d1461021e5780635bf8633a146102475780636ba4c1381461027257806370a082311461029b578063715018a6146102d857610135565b80630fbf0a9314610137578063150b7a021461016057806318160ddd1461019d5780631997e5a2146101c8578063276184ae146101f357610135565b3661013557005b005b34801561014357600080fd5b5061015e60048036038101906101599190611cd2565b6104f8565b005b34801561016c57600080fd5b5061018760048036038101906101829190611e09565b61092c565b6040516101949190611ecc565b60405180910390f35b3480156101a957600080fd5b506101b2610941565b6040516101bf9190611ef6565b60405180910390f35b3480156101d457600080fd5b506101dd610947565b6040516101ea9190611ef6565b60405180910390f35b3480156101ff57600080fd5b5061020861094d565b6040516102159190611f20565b60405180910390f35b34801561022a57600080fd5b5061024560048036038101906102409190611f3b565b610973565b005b34801561025357600080fd5b5061025c610a2e565b6040516102699190611f20565b60405180910390f35b34801561027e57600080fd5b5061029960048036038101906102949190611cd2565b610a54565b005b3480156102a757600080fd5b506102c260048036038101906102bd9190611f68565b610aba565b6040516102cf9190611ef6565b60405180910390f35b3480156102e457600080fd5b506102ed610b63565b005b3480156102fb57600080fd5b50610304610b77565b6040516103119190611ef6565b60405180910390f35b34801561032657600080fd5b50610341600480360381019061033c9190611f95565b610b7d565b60405161034e9190611ef6565b60405180910390f35b34801561036357600080fd5b5061036c610d2c565b6040516103799190611ef6565b60405180910390f35b34801561038e57600080fd5b506103a960048036038101906103a49190611f3b565b610d32565b6040516103b893929190612034565b60405180910390f35b3480156103cd57600080fd5b506103e860048036038101906103e39190611f68565b610d9d565b6040516103f59190612129565b60405180910390f35b34801561040a57600080fd5b50610413610f82565b6040516104209190611f20565b60405180910390f35b34801561043557600080fd5b50610450600480360381019061044b919061214b565b610fab565b005b34801561045e57600080fd5b5061047960048036038101906104749190611f95565b6111a1565b005b34801561048757600080fd5b50610490611208565b60405161049d9190611ef6565b60405180910390f35b3480156104b257600080fd5b506104cd60048036038101906104c89190611cd2565b61120e565b005b3480156104db57600080fd5b506104f660048036038101906104f19190611f68565b611274565b005b6002600154141561053e576040517f08c379a000000000000000000000000000000000000000000000000000000000815260040161053590612223565b60405180910390fd5b60026001819055506000828290506002600082825461055d9190612272565b9250508190555060005b83839050811461091f57838382818110610584576105836122c8565b5b905060200201359150600073ffffffffffffffffffffffffffffffffffffffff166009600084815260200190815260200160002060000160099054906101000a900473ffffffffffffffffffffffffffffffffffffffff1673ffffffffffffffffffffffffffffffffffffffff1614610632576040517f08c379a000000000000000000000000000000000000000000000000000000000815260040161062990612343565b60405180910390fd5b3373ffffffffffffffffffffffffffffffffffffffff16600360009054906101000a900473ffffffffffffffffffffffffffffffffffffffff1673ffffffffffffffffffffffffffffffffffffffff16636352211e846040518263ffffffff1660e01b81526004016106a49190611ef6565b60206040518083038186803b1580156106bc57600080fd5b505afa1580156106d0573d6000803e3d6000fd5b505050506040513d601f19601f820116820180604052508101906106f49190612378565b73ffffffffffffffffffffffffffffffffffffffff161461074a576040517f08c379a0000000000000000000000000000000000000000000000000000000008152600401610741906123f1565b60405180910390fd5b600360009054906101000a900473ffffffffffffffffffffffffffffffffffffffff1673ffffffffffffffffffffffffffffffffffffffff166342842e0e3330856040518463ffffffff1660e01b81526004016107a993929190612411565b600060405180830381600087803b1580156107c357600080fd5b505af11580156107d7573d6000803e3d6000fd5b505050507f36b3725f1783bad4ff05b7f4c077c3aa68eeb23a4d054ba189db4d01ac278d3933834260405161080e93929190612448565b60405180910390a160405180606001604052808362ffffff168152602001610838426006546112f8565b65ffffffffffff1681526020013373ffffffffffffffffffffffffffffffffffffffff168152506009600084815260200190815260200160002060008201518160000160006101000a81548162ffffff021916908362ffffff16021790555060208201518160000160036101000a81548165ffffffffffff021916908365ffffffffffff16021790555060408201518160000160096101000a81548173ffffffffffffffffffffffffffffffffffffffff021916908373ffffffffffffffffffffffffffffffffffffffff16021790555090505080806109179061247f565b915050610567565b5050600180819055505050565b600063150b7a0260e01b905095945050505050565b60085481565b60055481565b600460009054906101000a900473ffffffffffffffffffffffffffffffffffffffff1681565b61097b611312565b600460009054906101000a900473ffffffffffffffffffffffffffffffffffffffff1673ffffffffffffffffffffffffffffffffffffffff1663a9059cbb30836040518363ffffffff1660e01b81526004016109d89291906124c8565b602060405180830381600087803b1580156109f257600080fd5b505af1158015610a06573d6000803e3d6000fd5b505050506040513d601f19601f82011682018060405250810190610a2a9190612529565b5050565b600360009054906101000a900473ffffffffffffffffffffffffffffffffffffffff1681565b60026001541415610a9a576040517f08c379a0000000000000000000000000000000000000000000000000000000008152600401610a9190612223565b60405180910390fd5b6002600181905550610aaf3383836000611390565b600180819055505050565b6000806000905060005b6008548111610b59578373ffffffffffffffffffffffffffffffffffffffff166009600083815260200190815260200160002060000160099054906101000a900473ffffffffffffffffffffffffffffffffffffffff1673ffffffffffffffffffffffffffffffffffffffff161415610b46578180610b429061247f565b9250505b8080610b519061247f565b915050610ac4565b5080915050919050565b610b6b611312565b610b756000611758565b565b60065481565b6000806000805b858590508114610d1f57858582818110610ba157610ba06122c8565b5b9050602002013592506000600960008581526020019081526020016000206040518060600160405290816000820160009054906101000a900462ffffff1662ffffff1662ffffff1681526020016000820160039054906101000a900465ffffffffffff1665ffffffffffff1665ffffffffffff1681526020016000820160099054906101000a900473ffffffffffffffffffffffffffffffffffffffff1673ffffffffffffffffffffffffffffffffffffffff1673ffffffffffffffffffffffffffffffffffffffff168152505090508773ffffffffffffffffffffffffffffffffffffffff16816040015173ffffffffffffffffffffffffffffffffffffffff1614610ce3576040517f08c379a0000000000000000000000000000000000000000000000000000000008152600401610cda906125a2565b60405180910390fd5b6000816020015165ffffffffffff169050610cfd8161181d565b84610d089190612272565b935050508080610d179061247f565b915050610b84565b5080925050509392505050565b60025481565b60096020528060005260406000206000915090508060000160009054906101000a900462ffffff16908060000160039054906101000a900465ffffffffffff16908060000160099054906101000a900473ffffffffffffffffffffffffffffffffffffffff16905083565b6060600060085467ffffffffffffffff811115610dbd57610dbc6125c2565b5b604051908082528060200260200182016040528015610deb5781602001602082028036833780820191505090505b5090506000805b6008548111610ed1578473ffffffffffffffffffffffffffffffffffffffff166009600083815260200190815260200160002060000160099054906101000a900473ffffffffffffffffffffffffffffffffffffffff1673ffffffffffffffffffffffffffffffffffffffff161415610ebe576009600082815260200190815260200160002060000160009054906101000a900462ffffff1662ffffff16838381518110610ea357610ea26122c8565b5b6020026020010181815250508180610eba9061247f565b9250505b8080610ec99061247f565b915050610df2565b5060008167ffffffffffffffff811115610eee57610eed6125c2565b5b604051908082528060200260200182016040528015610f1c5781602001602082028036833780820191505090505b50905060005b828114610f7657838181518110610f3c57610f3b6122c8565b5b6020026020010151828281518110610f5757610f566122c8565b5b6020026020010181815250508080610f6e9061247f565b915050610f22565b50809350505050919050565b60008060029054906101000a900473ffffffffffffffffffffffffffffffffffffffff16905090565b60008060019054906101000a900460ff16159050808015610fdc5750600160008054906101000a900460ff1660ff16105b806110095750610feb30611965565b1580156110085750600160008054906101000a900460ff1660ff16145b5b611048576040517f08c379a000000000000000000000000000000000000000000000000000000000815260040161103f90612663565b60405180910390fd5b60016000806101000a81548160ff021916908360ff1602179055508015611085576001600060016101000a81548160ff0219169083151502179055505b61108e86611758565b84600360006101000a81548173ffffffffffffffffffffffffffffffffffffffff021916908373ffffffffffffffffffffffffffffffffffffffff16021790555083600460006101000a81548173ffffffffffffffffffffffffffffffffffffffff021916908373ffffffffffffffffffffffffffffffffffffffff1602179055504260058190555062015180836111269190612683565b6005546111339190612272565b6006819055508160088190555080156111995760008060016101000a81548160ff0219169083151502179055507f7f26b83ff96e1f2b6a682f133852f6798a09c465da95921460cefb38474024986001604051611190919061272f565b60405180910390a15b505050505050565b600260015414156111e7576040517f08c379a00000000000000000000000000000000000000000000000000000000081526004016111de90612223565b60405180910390fd5b60026001819055506111fc8383836000611390565b60018081905550505050565b60075481565b60026001541415611254576040517f08c379a000000000000000000000000000000000000000000000000000000000815260040161124b90612223565b60405180910390fd5b60026001819055506112693383836001611390565b600180819055505050565b61127c611312565b600073ffffffffffffffffffffffffffffffffffffffff168173ffffffffffffffffffffffffffffffffffffffff1614156112ec576040517f08c379a00000000000000000000000000000000000000000000000000000000081526004016112e3906127bc565b60405180910390fd5b6112f581611758565b50565b600081831015611308578261130a565b815b905092915050565b61131a611988565b73ffffffffffffffffffffffffffffffffffffffff16611338610f82565b73ffffffffffffffffffffffffffffffffffffffff161461138e576040517f08c379a000000000000000000000000000000000000000000000000000000000815260040161138590612828565b60405180910390fd5b565b6000806000905060005b858590508114611631578585828181106113b7576113b66122c8565b5b9050602002013592506000600960008581526020019081526020016000206040518060600160405290816000820160009054906101000a900462ffffff1662ffffff1662ffffff1681526020016000820160039054906101000a900465ffffffffffff1665ffffffffffff1665ffffffffffff1681526020016000820160099054906101000a900473ffffffffffffffffffffffffffffffffffffffff1673ffffffffffffffffffffffffffffffffffffffff1673ffffffffffffffffffffffffffffffffffffffff168152505090508773ffffffffffffffffffffffffffffffffffffffff16816040015173ffffffffffffffffffffffffffffffffffffffff16146114f9576040517f08c379a00000000000000000000000000000000000000000000000000000000081526004016114f0906125a2565b60405180910390fd5b6000816020015165ffffffffffff1690506000611518426006546112f8565b90506115238261181d565b8561152e9190612272565b945060405180606001604052808762ffffff1681526020018265ffffffffffff1681526020018b73ffffffffffffffffffffffffffffffffffffffff168152506009600088815260200190815260200160002060008201518160000160006101000a81548162ffffff021916908362ffffff16021790555060208201518160000160036101000a81548165ffffffffffff021916908365ffffffffffff16021790555060408201518160000160096101000a81548173ffffffffffffffffffffffffffffffffffffffff021916908373ffffffffffffffffffffffffffffffffffffffff16021790555090505050505080806116299061247f565b91505061139a565b50600081111561170557600460009054906101000a900473ffffffffffffffffffffffffffffffffffffffff1673ffffffffffffffffffffffffffffffffffffffff1663a9059cbb87836040518363ffffffff1660e01b81526004016116989291906124c8565b602060405180830381600087803b1580156116b257600080fd5b505af11580156116c6573d6000803e3d6000fd5b505050506040513d601f19601f820116820180604052508101906116ea9190612529565b5080600760008282546116fd9190612272565b925050819055505b821561171757611716868686611990565b5b7fd8138f8a3f377c5259ca548e70e4c2de94f129f5a11036a15b69513cba2b426a86826040516117489291906124c8565b60405180910390a1505050505050565b60008060029054906101000a900473ffffffffffffffffffffffffffffffffffffffff16905081600060026101000a81548173ffffffffffffffffffffffffffffffffffffffff021916908373ffffffffffffffffffffffffffffffffffffffff1602179055508173ffffffffffffffffffffffffffffffffffffffff168173ffffffffffffffffffffffffffffffffffffffff167f8be0079c531659141344cd1fd0a4f28419497f9722a3daafe3b4186f6b6457e060405160405180910390a35050565b600080600460009054906101000a900473ffffffffffffffffffffffffffffffffffffffff1673ffffffffffffffffffffffffffffffffffffffff166370a08231306040518263ffffffff1660e01b815260040161187b9190611f20565b60206040518083038186803b15801561189357600080fd5b505afa1580156118a7573d6000803e3d6000fd5b505050506040513d601f19601f820116820180604052508101906118cb919061285d565b90506000600754826118dd9190612272565b905060006005546006546118f1919061288a565b90506000620151808261190491906128ed565b90506000816008548561191791906128ed565b61192191906128ed565b9050600087611932426006546112f8565b61193c919061288a565b905062015180818361194e9190612683565b61195891906128ed565b9650505050505050919050565b6000808273ffffffffffffffffffffffffffffffffffffffff163b119050919050565b600033905090565b600082829050600260008282546119a7919061288a565b9250508190555060005b838390508114611c5c578383828181106119ce576119cd6122c8565b5b9050602002013591506000600960008481526020019081526020016000206040518060600160405290816000820160009054906101000a900462ffffff1662ffffff1662ffffff1681526020016000820160039054906101000a900465ffffffffffff1665ffffffffffff1665ffffffffffff1681526020016000820160099054906101000a900473ffffffffffffffffffffffffffffffffffffffff1673ffffffffffffffffffffffffffffffffffffffff1673ffffffffffffffffffffffffffffffffffffffff168152505090503373ffffffffffffffffffffffffffffffffffffffff16816040015173ffffffffffffffffffffffffffffffffffffffff1614611b10576040517f08c379a0000000000000000000000000000000000000000000000000000000008152600401611b07906125a2565b60405180910390fd5b60096000848152602001908152602001600020600080820160006101000a81549062ffffff02191690556000820160036101000a81549065ffffffffffff02191690556000820160096101000a81549073ffffffffffffffffffffffffffffffffffffffff021916905550507fc486b9458a8637650d84d262414833a5a457bc91ae86b7da110386c8c3fa255b868442604051611baf93929190612448565b60405180910390a1600360009054906101000a900473ffffffffffffffffffffffffffffffffffffffff1673ffffffffffffffffffffffffffffffffffffffff166342842e0e3088866040518463ffffffff1660e01b8152600401611c1693929190612411565b600060405180830381600087803b158015611c3057600080fd5b505af1158015611c44573d6000803e3d6000fd5b50505050508080611c549061247f565b9150506119b1565b5050505050565b600080fd5b600080fd5b600080fd5b600080fd5b600080fd5b60008083601f840112611c9257611c91611c6d565b5b8235905067ffffffffffffffff811115611caf57611cae611c72565b5b602083019150836020820283011115611ccb57611cca611c77565b5b9250929050565b60008060208385031215611ce957611ce8611c63565b5b600083013567ffffffffffffffff811115611d0757611d06611c68565b5b611d1385828601611c7c565b92509250509250929050565b600073ffffffffffffffffffffffffffffffffffffffff82169050919050565b6000611d4a82611d1f565b9050919050565b611d5a81611d3f565b8114611d6557600080fd5b50565b600081359050611d7781611d51565b92915050565b6000819050919050565b611d9081611d7d565b8114611d9b57600080fd5b50565b600081359050611dad81611d87565b92915050565b60008083601f840112611dc957611dc8611c6d565b5b8235905067ffffffffffffffff811115611de657611de5611c72565b5b602083019150836001820283011115611e0257611e01611c77565b5b9250929050565b600080600080600060808688031215611e2557611e24611c63565b5b6000611e3388828901611d68565b9550506020611e4488828901611d68565b9450506040611e5588828901611d9e565b935050606086013567ffffffffffffffff811115611e7657611e75611c68565b5b611e8288828901611db3565b92509250509295509295909350565b60007fffffffff0000000000000000000000000000000000000000000000000000000082169050919050565b611ec681611e91565b82525050565b6000602082019050611ee16000830184611ebd565b92915050565b611ef081611d7d565b82525050565b6000602082019050611f0b6000830184611ee7565b92915050565b611f1a81611d3f565b82525050565b6000602082019050611f356000830184611f11565b92915050565b600060208284031215611f5157611f50611c63565b5b6000611f5f84828501611d9e565b91505092915050565b600060208284031215611f7e57611f7d611c63565b5b6000611f8c84828501611d68565b91505092915050565b600080600060408486031215611fae57611fad611c63565b5b6000611fbc86828701611d68565b935050602084013567ffffffffffffffff811115611fdd57611fdc611c68565b5b611fe986828701611c7c565b92509250509250925092565b600062ffffff82169050919050565b61200d81611ff5565b82525050565b600065ffffffffffff82169050919050565b61202e81612013565b82525050565b60006060820190506120496000830186612004565b6120566020830185612025565b6120636040830184611f11565b949350505050565b600081519050919050565b600082825260208201905092915050565b6000819050602082019050919050565b6120a081611d7d565b82525050565b60006120b28383612097565b60208301905092915050565b6000602082019050919050565b60006120d68261206b565b6120e08185612076565b93506120eb83612087565b8060005b8381101561211c57815161210388826120a6565b975061210e836120be565b9250506001810190506120ef565b5085935050505092915050565b6000602082019050818103600083015261214381846120cb565b905092915050565b600080600080600060a0868803121561216757612166611c63565b5b600061217588828901611d68565b955050602061218688828901611d68565b945050604061219788828901611d68565b93505060606121a888828901611d9e565b92505060806121b988828901611d9e565b9150509295509295909350565b600082825260208201905092915050565b7f5265656e7472616e637947756172643a207265656e7472616e742063616c6c00600082015250565b600061220d601f836121c6565b9150612218826121d7565b602082019050919050565b6000602082019050818103600083015261223c81612200565b9050919050565b7f4e487b7100000000000000000000000000000000000000000000000000000000600052601160045260246000fd5b600061227d82611d7d565b915061228883611d7d565b9250827fffffffffffffffffffffffffffffffffffffffffffffffffffffffffffffffff038211156122bd576122bc612243565b5b828201905092915050565b7f4e487b7100000000000000000000000000000000000000000000000000000000600052603260045260246000fd5b7f616c7265616479207374616b6564000000000000000000000000000000000000600082015250565b600061232d600e836121c6565b9150612338826122f7565b602082019050919050565b6000602082019050818103600083015261235c81612320565b9050919050565b60008151905061237281611d51565b92915050565b60006020828403121561238e5761238d611c63565b5b600061239c84828501612363565b91505092915050565b7f6e6f7420796f757220746f6b656e000000000000000000000000000000000000600082015250565b60006123db600e836121c6565b91506123e6826123a5565b602082019050919050565b6000602082019050818103600083015261240a816123ce565b9050919050565b60006060820190506124266000830186611f11565b6124336020830185611f11565b6124406040830184611ee7565b949350505050565b600060608201905061245d6000830186611f11565b61246a6020830185611ee7565b6124776040830184611ee7565b949350505050565b600061248a82611d7d565b91507fffffffffffffffffffffffffffffffffffffffffffffffffffffffffffffffff8214156124bd576124bc612243565b5b600182019050919050565b60006040820190506124dd6000830185611f11565b6124ea6020830184611ee7565b9392505050565b60008115159050919050565b612506816124f1565b811461251157600080fd5b50565b600081519050612523816124fd565b92915050565b60006020828403121561253f5761253e611c63565b5b600061254d84828501612514565b91505092915050565b7f6e6f7420616e206f776e65720000000000000000000000000000000000000000600082015250565b600061258c600c836121c6565b915061259782612556565b602082019050919050565b600060208201905081810360008301526125bb8161257f565b9050919050565b7f4e487b7100000000000000000000000000000000000000000000000000000000600052604160045260246000fd5b7f496e697469616c697a61626c653a20636f6e747261637420697320616c72656160008201527f647920696e697469616c697a6564000000000000000000000000000000000000602082015250565b600061264d602e836121c6565b9150612658826125f1565b604082019050919050565b6000602082019050818103600083015261267c81612640565b9050919050565b600061268e82611d7d565b915061269983611d7d565b9250817fffffffffffffffffffffffffffffffffffffffffffffffffffffffffffffffff04831182151516156126d2576126d1612243565b5b828202905092915050565b6000819050919050565b600060ff82169050919050565b6000819050919050565b600061271961271461270f846126dd565b6126f4565b6126e7565b9050919050565b612729816126fe565b82525050565b60006020820190506127446000830184612720565b92915050565b7f4f776e61626c653a206e6577206f776e657220697320746865207a65726f206160008201527f6464726573730000000000000000000000000000000000000000000000000000602082015250565b60006127a66026836121c6565b91506127b18261274a565b604082019050919050565b600060208201905081810360008301526127d581612799565b9050919050565b7f4f776e61626c653a2063616c6c6572206973206e6f7420746865206f776e6572600082015250565b60006128126020836121c6565b915061281d826127dc565b602082019050919050565b6000602082019050818103600083015261284181612805565b9050919050565b60008151905061285781611d87565b92915050565b60006020828403121561287357612872611c63565b5b600061288184828501612848565b91505092915050565b600061289582611d7d565b91506128a083611d7d565b9250828210156128b3576128b2612243565b5b828203905092915050565b7f4e487b7100000000000000000000000000000000000000000000000000000000600052601260045260246000fd5b60006128f882611d7d565b915061290383611d7d565b925082612913576129126128be565b5b82820490509291505056fea264697066735822122014ac3fcaa67e49a420fabc4400646f918d3d96d0c7b6c46fa912029db9d0b87264736f6c63430008090033",
  "linkReferences": {},
  "deployedLinkReferences": {}
}