{
  "_format": "hh-sol-artifact-1",
  "contractName": "DCNTVaultNFT",
  "sourceName": "contracts/DCNTVaultNFT.sol",
  "abi": [
    {
      "inputs": [
        {
          "internalType": "address",
          "name": "_DCNTSDK",
          "type": "address"
        }
      ],
      "stateMutability": "nonpayable",
      "type": "constructor"
    },
    {
      "anonymous": false,
      "inputs": [
        {
          "indexed": false,
          "internalType": "address",
          "name": "nft",
          "type": "address"
        },
        {
          "indexed": false,
          "internalType": "address",
          "name": "vault",
          "type": "address"
        }
      ],
      "name": "Create",
      "type": "event"
    },
    {
      "anonymous": false,
      "inputs": [
        {
          "indexed": true,
          "internalType": "address",
          "name": "previousOwner",
          "type": "address"
        },
        {
          "indexed": true,
          "internalType": "address",
          "name": "newOwner",
          "type": "address"
        }
      ],
      "name": "OwnershipTransferred",
      "type": "event"
    },
    {
      "inputs": [],
      "name": "DCNT4907AImplementation",
      "outputs": [
        {
          "internalType": "address",
          "name": "",
          "type": "address"
        }
      ],
      "stateMutability": "view",
      "type": "function"
    },
    {
      "inputs": [],
      "name": "DCNT721AImplementation",
      "outputs": [
        {
          "internalType": "address",
          "name": "",
          "type": "address"
        }
      ],
      "stateMutability": "view",
      "type": "function"
    },
    {
      "inputs": [],
      "name": "DCNTCrescendoImplementation",
      "outputs": [
        {
          "internalType": "address",
          "name": "",
          "type": "address"
        }
      ],
      "stateMutability": "view",
      "type": "function"
    },
    {
      "inputs": [],
      "name": "DCNTStakingImplementation",
      "outputs": [
        {
          "internalType": "address",
          "name": "",
          "type": "address"
        }
      ],
      "stateMutability": "view",
      "type": "function"
    },
    {
      "inputs": [],
      "name": "DCNTVaultImplementation",
      "outputs": [
        {
          "internalType": "address",
          "name": "",
          "type": "address"
        }
      ],
      "stateMutability": "view",
      "type": "function"
    },
    {
      "inputs": [],
      "name": "SplitMain",
      "outputs": [
        {
          "internalType": "address",
          "name": "",
          "type": "address"
        }
      ],
      "stateMutability": "view",
      "type": "function"
    },
    {
      "inputs": [],
      "name": "contractRegistry",
      "outputs": [
        {
          "internalType": "address",
          "name": "",
          "type": "address"
        }
      ],
      "stateMutability": "view",
      "type": "function"
    },
    {
      "inputs": [
        {
          "internalType": "address",
          "name": "_DCNTSDK",
          "type": "address"
        },
        {
          "components": [
            {
              "internalType": "string",
              "name": "name",
              "type": "string"
            },
            {
              "internalType": "string",
              "name": "symbol",
              "type": "string"
            },
            {
              "internalType": "uint256",
              "name": "maxTokens",
              "type": "uint256"
            },
            {
              "internalType": "uint256",
              "name": "tokenPrice",
              "type": "uint256"
            },
            {
              "internalType": "uint256",
              "name": "maxTokenPurchase",
              "type": "uint256"
            },
            {
              "internalType": "uint256",
              "name": "royaltyBPS",
              "type": "uint256"
            }
          ],
          "internalType": "struct EditionConfig",
          "name": "_editionConfig",
          "type": "tuple"
        },
        {
          "components": [
            {
              "internalType": "string",
              "name": "metadataURI",
              "type": "string"
            },
            {
              "internalType": "bytes",
              "name": "metadataRendererInit",
              "type": "bytes"
            }
          ],
          "internalType": "struct MetadataConfig",
          "name": "_metadataConfig",
          "type": "tuple"
        },
        {
          "internalType": "address",
          "name": "_vaultDistributionTokenAddress",
          "type": "address"
        },
        {
          "internalType": "uint256",
          "name": "_unlockDate",
          "type": "uint256"
        },
        {
          "internalType": "bool",
          "name": "_supports4907",
          "type": "bool"
        }
      ],
      "name": "create",
      "outputs": [
        {
          "internalType": "address",
          "name": "nft",
          "type": "address"
        },
        {
          "internalType": "address",
          "name": "vault",
          "type": "address"
        }
      ],
      "stateMutability": "nonpayable",
      "type": "function"
    },
    {
      "inputs": [],
      "name": "metadataRenderer",
      "outputs": [
        {
          "internalType": "address",
          "name": "",
          "type": "address"
        }
      ],
      "stateMutability": "view",
      "type": "function"
    },
    {
      "inputs": [],
      "name": "owner",
      "outputs": [
        {
          "internalType": "address",
          "name": "",
          "type": "address"
        }
      ],
      "stateMutability": "view",
      "type": "function"
    },
    {
      "inputs": [],
      "name": "renounceOwnership",
      "outputs": [],
      "stateMutability": "nonpayable",
      "type": "function"
    },
    {
      "inputs": [
        {
          "internalType": "address",
          "name": "newOwner",
          "type": "address"
        }
      ],
      "name": "transferOwnership",
      "outputs": [],
      "stateMutability": "nonpayable",
      "type": "function"
    }
  ],
  "bytecode": "0x60806040523480156200001157600080fd5b506040516200195238038062001952833981810160405281019062000037919062000632565b620000576200004b620004fc60201b60201c565b6200050460201b60201c565b60008190508073ffffffffffffffffffffffffffffffffffffffff166310a089136040518163ffffffff1660e01b8152600401602060405180830381600087803b158015620000a557600080fd5b505af1158015620000ba573d6000803e3d6000fd5b505050506040513d601f19601f82011682018060405250810190620000e0919062000632565b600160006101000a81548173ffffffffffffffffffffffffffffffffffffffff021916908373ffffffffffffffffffffffffffffffffffffffff1602179055508073ffffffffffffffffffffffffffffffffffffffff16634285656b6040518163ffffffff1660e01b8152600401602060405180830381600087803b1580156200016957600080fd5b505af11580156200017e573d6000803e3d6000fd5b505050506040513d601f19601f82011682018060405250810190620001a4919062000632565b600260006101000a81548173ffffffffffffffffffffffffffffffffffffffff021916908373ffffffffffffffffffffffffffffffffffffffff1602179055508073ffffffffffffffffffffffffffffffffffffffff16639f61dfec6040518163ffffffff1660e01b8152600401602060405180830381600087803b1580156200022d57600080fd5b505af115801562000242573d6000803e3d6000fd5b505050506040513d601f19601f8201168201806040525081019062000268919062000632565b600460006101000a81548173ffffffffffffffffffffffffffffffffffffffff021916908373ffffffffffffffffffffffffffffffffffffffff1602179055508073ffffffffffffffffffffffffffffffffffffffff1663703199706040518163ffffffff1660e01b8152600401602060405180830381600087803b158015620002f157600080fd5b505af115801562000306573d6000803e3d6000fd5b505050506040513d601f19601f820116820180604052508101906200032c919062000632565b600660006101000a81548173ffffffffffffffffffffffffffffffffffffffff021916908373ffffffffffffffffffffffffffffffffffffffff1602179055508073ffffffffffffffffffffffffffffffffffffffff1663abf410e56040518163ffffffff1660e01b8152600401602060405180830381600087803b158015620003b557600080fd5b505af1158015620003ca573d6000803e3d6000fd5b505050506040513d601f19601f82011682018060405250810190620003f0919062000632565b600760006101000a81548173ffffffffffffffffffffffffffffffffffffffff021916908373ffffffffffffffffffffffffffffffffffffffff1602179055508073ffffffffffffffffffffffffffffffffffffffff1663eef702e96040518163ffffffff1660e01b8152600401602060405180830381600087803b1580156200047957600080fd5b505af11580156200048e573d6000803e3d6000fd5b505050506040513d601f19601f82011682018060405250810190620004b4919062000632565b600860006101000a81548173ffffffffffffffffffffffffffffffffffffffff021916908373ffffffffffffffffffffffffffffffffffffffff160217905550505062000664565b600033905090565b60008060009054906101000a900473ffffffffffffffffffffffffffffffffffffffff169050816000806101000a81548173ffffffffffffffffffffffffffffffffffffffff021916908373ffffffffffffffffffffffffffffffffffffffff1602179055508173ffffffffffffffffffffffffffffffffffffffff168173ffffffffffffffffffffffffffffffffffffffff167f8be0079c531659141344cd1fd0a4f28419497f9722a3daafe3b4186f6b6457e060405160405180910390a35050565b600080fd5b600073ffffffffffffffffffffffffffffffffffffffff82169050919050565b6000620005fa82620005cd565b9050919050565b6200060c81620005ed565b81146200061857600080fd5b50565b6000815190506200062c8162000601565b92915050565b6000602082840312156200064b576200064a620005c8565b5b60006200065b848285016200061b565b91505092915050565b6112de80620006746000396000f3fe608060405234801561001057600080fd5b50600436106100b45760003560e01c80638da5cb5b116100715780638da5cb5b1461016c5780639f61dfec1461018a578063abf410e5146101a8578063ca825bb5146101c6578063eef702e9146101e4578063f2fde38b14610202576100b4565b806310a08913146100b9578063151953bf146100d75780633c3b370b146101085780634285656b146101265780637031997014610144578063715018a614610162575b600080fd5b6100c161021e565b6040516100ce919061095b565b60405180910390f35b6100f160048036038101906100ec9190610d75565b610244565b6040516100ff929190610e3a565b60405180910390f35b610110610605565b60405161011d919061095b565b60405180910390f35b61012e61062b565b60405161013b919061095b565b60405180910390f35b61014c610651565b604051610159919061095b565b60405180910390f35b61016a610677565b005b61017461068b565b604051610181919061095b565b60405180910390f35b6101926106b4565b60405161019f919061095b565b60405180910390f35b6101b06106da565b6040516101bd919061095b565b60405180910390f35b6101ce610700565b6040516101db919061095b565b60405180910390f35b6101ec610726565b6040516101f9919061095b565b60405180910390f35b61021c60048036038101906102179190610e63565b61074c565b005b600160009054906101000a900473ffffffffffffffffffffffffffffffffffffffff1681565b60008060008315610372576000808a73ffffffffffffffffffffffffffffffffffffffff168a8a60405160240161027c929190611050565b6040516020818303038152906040527f31eb0ece000000000000000000000000000000000000000000000000000000007bffffffffffffffffffffffffffffffffffffffffffffffffffffffff19166020820180517bffffffffffffffffffffffffffffffffffffffffffffffffffffffff838183161783525050505060405161030691906110c3565b600060405180830381855af49150503d8060008114610341576040519150601f19603f3d011682016040523d82523d6000602084013e610346565b606091505b50915091508161035557600080fd5b808060200190518101906103699190611118565b92505050610491565b6000808a73ffffffffffffffffffffffffffffffffffffffff168a8a60405160240161039f929190611050565b6040516020818303038152906040527f19bf8c65000000000000000000000000000000000000000000000000000000007bffffffffffffffffffffffffffffffffffffffffffffffffffffffff19166020820180517bffffffffffffffffffffffffffffffffffffffffffffffffffffffff838183161783525050505060405161042991906110c3565b600060405180830381855af49150503d8060008114610464576040519150601f19603f3d011682016040523d82523d6000602084013e610469565b606091505b50915091508161047857600080fd5b8080602001905181019061048c9190611118565b925050505b6000808a73ffffffffffffffffffffffffffffffffffffffff1688848c604001518a6040516024016104c69493929190611154565b6040516020818303038152906040527f73d622f8000000000000000000000000000000000000000000000000000000007bffffffffffffffffffffffffffffffffffffffffffffffffffffffff19166020820180517bffffffffffffffffffffffffffffffffffffffffffffffffffffffff838183161783525050505060405161055091906110c3565b600060405180830381855af49150503d806000811461058b576040519150601f19603f3d011682016040523d82523d6000602084013e610590565b606091505b50915091508161059f57600080fd5b6000818060200190518101906105b59190611118565b90507f96b5b9b8a7193304150caccf9b80d150675fa3d6af57761d8d8ef1d6f9a1a90984826040516105e8929190610e3a565b60405180910390a183819550955050505050965096945050505050565b600560009054906101000a900473ffffffffffffffffffffffffffffffffffffffff1681565b600260009054906101000a900473ffffffffffffffffffffffffffffffffffffffff1681565b600660009054906101000a900473ffffffffffffffffffffffffffffffffffffffff1681565b61067f6107d0565b610689600061084e565b565b60008060009054906101000a900473ffffffffffffffffffffffffffffffffffffffff16905090565b600460009054906101000a900473ffffffffffffffffffffffffffffffffffffffff1681565b600760009054906101000a900473ffffffffffffffffffffffffffffffffffffffff1681565b600360009054906101000a900473ffffffffffffffffffffffffffffffffffffffff1681565b600860009054906101000a900473ffffffffffffffffffffffffffffffffffffffff1681565b6107546107d0565b600073ffffffffffffffffffffffffffffffffffffffff168173ffffffffffffffffffffffffffffffffffffffff1614156107c4576040517f08c379a00000000000000000000000000000000000000000000000000000000081526004016107bb9061121c565b60405180910390fd5b6107cd8161084e565b50565b6107d8610912565b73ffffffffffffffffffffffffffffffffffffffff166107f661068b565b73ffffffffffffffffffffffffffffffffffffffff161461084c576040517f08c379a000000000000000000000000000000000000000000000000000000000815260040161084390611288565b60405180910390fd5b565b60008060009054906101000a900473ffffffffffffffffffffffffffffffffffffffff169050816000806101000a81548173ffffffffffffffffffffffffffffffffffffffff021916908373ffffffffffffffffffffffffffffffffffffffff1602179055508173ffffffffffffffffffffffffffffffffffffffff168173ffffffffffffffffffffffffffffffffffffffff167f8be0079c531659141344cd1fd0a4f28419497f9722a3daafe3b4186f6b6457e060405160405180910390a35050565b600033905090565b600073ffffffffffffffffffffffffffffffffffffffff82169050919050565b60006109458261091a565b9050919050565b6109558161093a565b82525050565b6000602082019050610970600083018461094c565b92915050565b6000604051905090565b600080fd5b600080fd5b6109938161093a565b811461099e57600080fd5b50565b6000813590506109b08161098a565b92915050565b600080fd5b6000601f19601f8301169050919050565b7f4e487b7100000000000000000000000000000000000000000000000000000000600052604160045260246000fd5b610a04826109bb565b810181811067ffffffffffffffff82111715610a2357610a226109cc565b5b80604052505050565b6000610a36610976565b9050610a4282826109fb565b919050565b600080fd5b600080fd5b600080fd5b600067ffffffffffffffff821115610a7157610a706109cc565b5b610a7a826109bb565b9050602081019050919050565b82818337600083830152505050565b6000610aa9610aa484610a56565b610a2c565b905082815260208101848484011115610ac557610ac4610a51565b5b610ad0848285610a87565b509392505050565b600082601f830112610aed57610aec610a4c565b5b8135610afd848260208601610a96565b91505092915050565b6000819050919050565b610b1981610b06565b8114610b2457600080fd5b50565b600081359050610b3681610b10565b92915050565b600060c08284031215610b5257610b516109b6565b5b610b5c60c0610a2c565b9050600082013567ffffffffffffffff811115610b7c57610b7b610a47565b5b610b8884828501610ad8565b600083015250602082013567ffffffffffffffff811115610bac57610bab610a47565b5b610bb884828501610ad8565b6020830152506040610bcc84828501610b27565b6040830152506060610be084828501610b27565b6060830152506080610bf484828501610b27565b60808301525060a0610c0884828501610b27565b60a08301525092915050565b600067ffffffffffffffff821115610c2f57610c2e6109cc565b5b610c38826109bb565b9050602081019050919050565b6000610c58610c5384610c14565b610a2c565b905082815260208101848484011115610c7457610c73610a51565b5b610c7f848285610a87565b509392505050565b600082601f830112610c9c57610c9b610a4c565b5b8135610cac848260208601610c45565b91505092915050565b600060408284031215610ccb57610cca6109b6565b5b610cd56040610a2c565b9050600082013567ffffffffffffffff811115610cf557610cf4610a47565b5b610d0184828501610ad8565b600083015250602082013567ffffffffffffffff811115610d2557610d24610a47565b5b610d3184828501610c87565b60208301525092915050565b60008115159050919050565b610d5281610d3d565b8114610d5d57600080fd5b50565b600081359050610d6f81610d49565b92915050565b60008060008060008060c08789031215610d9257610d91610980565b5b6000610da089828a016109a1565b965050602087013567ffffffffffffffff811115610dc157610dc0610985565b5b610dcd89828a01610b3c565b955050604087013567ffffffffffffffff811115610dee57610ded610985565b5b610dfa89828a01610cb5565b9450506060610e0b89828a016109a1565b9350506080610e1c89828a01610b27565b92505060a0610e2d89828a01610d60565b9150509295509295509295565b6000604082019050610e4f600083018561094c565b610e5c602083018461094c565b9392505050565b600060208284031215610e7957610e78610980565b5b6000610e87848285016109a1565b91505092915050565b600081519050919050565b600082825260208201905092915050565b60005b83811015610eca578082015181840152602081019050610eaf565b83811115610ed9576000848401525b50505050565b6000610eea82610e90565b610ef48185610e9b565b9350610f04818560208601610eac565b610f0d816109bb565b840191505092915050565b610f2181610b06565b82525050565b600060c0830160008301518482036000860152610f448282610edf565b91505060208301518482036020860152610f5e8282610edf565b9150506040830151610f736040860182610f18565b506060830151610f866060860182610f18565b506080830151610f996080860182610f18565b5060a0830151610fac60a0860182610f18565b508091505092915050565b600081519050919050565b600082825260208201905092915050565b6000610fde82610fb7565b610fe88185610fc2565b9350610ff8818560208601610eac565b611001816109bb565b840191505092915050565b600060408301600083015184820360008601526110298282610edf565b915050602083015184820360208601526110438282610fd3565b9150508091505092915050565b6000604082019050818103600083015261106a8185610f27565b9050818103602083015261107e818461100c565b90509392505050565b600081905092915050565b600061109d82610fb7565b6110a78185611087565b93506110b7818560208601610eac565b80840191505092915050565b60006110cf8284611092565b915081905092915050565b60006110e58261091a565b9050919050565b6110f5816110da565b811461110057600080fd5b50565b600081519050611112816110ec565b92915050565b60006020828403121561112e5761112d610980565b5b600061113c84828501611103565b91505092915050565b61114e81610b06565b82525050565b6000608082019050611169600083018761094c565b611176602083018661094c565b6111836040830185611145565b6111906060830184611145565b95945050505050565b600082825260208201905092915050565b7f4f776e61626c653a206e6577206f776e657220697320746865207a65726f206160008201527f6464726573730000000000000000000000000000000000000000000000000000602082015250565b6000611206602683611199565b9150611211826111aa565b604082019050919050565b60006020820190508181036000830152611235816111f9565b9050919050565b7f4f776e61626c653a2063616c6c6572206973206e6f7420746865206f776e6572600082015250565b6000611272602083611199565b915061127d8261123c565b602082019050919050565b600060208201905081810360008301526112a181611265565b905091905056fea2646970667358221220c0f32046358d011745cb67551ccbca4d003b95c9791bd8c1b6f98f6dc7776c6064736f6c63430008090033",
  "linkReferences": {},
  "deployedLinkReferences": {}
}