{
  "_format": "hh-sol-artifact-1",
  "contractName": "DCNTSDK",
  "sourceName": "contracts/DCNTSDK.sol",
  "abi": [
    {
      "inputs": [
        {
          "internalType": "address",
          "name": "_DCNT721AImplementation",
          "type": "address"
        },
        {
          "internalType": "address",
          "name": "_DCNT4907AImplementation",
          "type": "address"
        },
        {
          "internalType": "address",
          "name": "_DCNTCrescendoImplementation",
          "type": "address"
        },
        {
          "internalType": "address",
          "name": "_DCNTVaultImplementation",
          "type": "address"
        },
        {
          "internalType": "address",
          "name": "_DCNTStakingImplementation",
          "type": "address"
        }
      ],
      "stateMutability": "nonpayable",
      "type": "constructor"
    },
    {
      "anonymous": false,
      "inputs": [
        {
          "indexed": false,
          "internalType": "address",
          "name": "DCNT4907A",
          "type": "address"
        }
      ],
      "name": "DeployDCNT4907A",
      "type": "event"
    },
    {
      "anonymous": false,
      "inputs": [
        {
          "indexed": false,
          "internalType": "address",
          "name": "DCNT721A",
          "type": "address"
        }
      ],
      "name": "DeployDCNT721A",
      "type": "event"
    },
    {
      "anonymous": false,
      "inputs": [
        {
          "indexed": false,
          "internalType": "address",
          "name": "DCNTCrescendo",
          "type": "address"
        }
      ],
      "name": "DeployDCNTCrescendo",
      "type": "event"
    },
    {
      "anonymous": false,
      "inputs": [
        {
          "indexed": false,
          "internalType": "address",
          "name": "DCNTStaking",
          "type": "address"
        }
      ],
      "name": "DeployDCNTStaking",
      "type": "event"
    },
    {
      "anonymous": false,
      "inputs": [
        {
          "indexed": false,
          "internalType": "address",
          "name": "DCNTVault",
          "type": "address"
        }
      ],
      "name": "DeployDCNTVault",
      "type": "event"
    },
    {
      "anonymous": false,
      "inputs": [
        {
          "indexed": true,
          "internalType": "address",
          "name": "previousOwner",
          "type": "address"
        },
        {
          "indexed": true,
          "internalType": "address",
          "name": "newOwner",
          "type": "address"
        }
      ],
      "name": "OwnershipTransferred",
      "type": "event"
    },
    {
      "inputs": [],
      "name": "DCNT4907AImplementation",
      "outputs": [
        {
          "internalType": "address",
          "name": "",
          "type": "address"
        }
      ],
      "stateMutability": "view",
      "type": "function"
    },
    {
      "inputs": [],
      "name": "DCNT721AImplementation",
      "outputs": [
        {
          "internalType": "address",
          "name": "",
          "type": "address"
        }
      ],
      "stateMutability": "view",
      "type": "function"
    },
    {
      "inputs": [],
      "name": "DCNTCrescendoImplementation",
      "outputs": [
        {
          "internalType": "address",
          "name": "",
          "type": "address"
        }
      ],
      "stateMutability": "view",
      "type": "function"
    },
    {
      "inputs": [],
      "name": "DCNTStakingImplementation",
      "outputs": [
        {
          "internalType": "address",
          "name": "",
          "type": "address"
        }
      ],
      "stateMutability": "view",
      "type": "function"
    },
    {
      "inputs": [],
      "name": "DCNTVaultImplementation",
      "outputs": [
        {
          "internalType": "address",
          "name": "",
          "type": "address"
        }
      ],
      "stateMutability": "view",
      "type": "function"
    },
    {
      "inputs": [
        {
          "internalType": "uint256",
          "name": "",
          "type": "uint256"
        }
      ],
      "name": "allDCNT4907A",
      "outputs": [
        {
          "internalType": "address",
          "name": "",
          "type": "address"
        }
      ],
      "stateMutability": "view",
      "type": "function"
    },
    {
      "inputs": [
        {
          "internalType": "uint256",
          "name": "",
          "type": "uint256"
        }
      ],
      "name": "allDCNT721A",
      "outputs": [
        {
          "internalType": "address",
          "name": "",
          "type": "address"
        }
      ],
      "stateMutability": "view",
      "type": "function"
    },
    {
      "inputs": [
        {
          "internalType": "uint256",
          "name": "",
          "type": "uint256"
        }
      ],
      "name": "allDCNTCrescendo",
      "outputs": [
        {
          "internalType": "address",
          "name": "",
          "type": "address"
        }
      ],
      "stateMutability": "view",
      "type": "function"
    },
    {
      "inputs": [
        {
          "internalType": "uint256",
          "name": "",
          "type": "uint256"
        }
      ],
      "name": "allDCNTStaking",
      "outputs": [
        {
          "internalType": "address",
          "name": "",
          "type": "address"
        }
      ],
      "stateMutability": "view",
      "type": "function"
    },
    {
      "inputs": [
        {
          "internalType": "uint256",
          "name": "",
          "type": "uint256"
        }
      ],
      "name": "allDCNTVault",
      "outputs": [
        {
          "internalType": "address",
          "name": "",
          "type": "address"
        }
      ],
      "stateMutability": "view",
      "type": "function"
    },
    {
      "inputs": [
        {
          "internalType": "string",
          "name": "_name",
          "type": "string"
        },
        {
          "internalType": "string",
          "name": "_symbol",
          "type": "string"
        },
        {
          "internalType": "uint256",
          "name": "_maxTokens",
          "type": "uint256"
        },
        {
          "internalType": "uint256",
          "name": "_tokenPrice",
          "type": "uint256"
        },
        {
          "internalType": "uint256",
          "name": "_maxTokenPurchase",
          "type": "uint256"
        }
      ],
      "name": "deployDCNT4907A",
      "outputs": [
        {
          "internalType": "address",
          "name": "clone",
          "type": "address"
        }
      ],
      "stateMutability": "nonpayable",
      "type": "function"
    },
    {
      "inputs": [
        {
          "internalType": "string",
          "name": "_name",
          "type": "string"
        },
        {
          "internalType": "string",
          "name": "_symbol",
          "type": "string"
        },
        {
          "internalType": "uint256",
          "name": "_maxTokens",
          "type": "uint256"
        },
        {
          "internalType": "uint256",
          "name": "_tokenPrice",
          "type": "uint256"
        },
        {
          "internalType": "uint256",
          "name": "_maxTokenPurchase",
          "type": "uint256"
        }
      ],
      "name": "deployDCNT721A",
      "outputs": [
        {
          "internalType": "address",
          "name": "clone",
          "type": "address"
        }
      ],
      "stateMutability": "nonpayable",
      "type": "function"
    },
    {
      "inputs": [
        {
          "internalType": "string",
          "name": "_name",
          "type": "string"
        },
        {
          "internalType": "string",
          "name": "_symbol",
          "type": "string"
        },
        {
          "internalType": "string",
          "name": "_uri",
          "type": "string"
        },
        {
          "internalType": "uint256",
          "name": "_initialPrice",
          "type": "uint256"
        },
        {
          "internalType": "uint256",
          "name": "_step1",
          "type": "uint256"
        },
        {
          "internalType": "uint256",
          "name": "_step2",
          "type": "uint256"
        },
        {
          "internalType": "uint256",
          "name": "_hitch",
          "type": "uint256"
        },
        {
          "internalType": "uint256",
          "name": "_trNum",
          "type": "uint256"
        },
        {
          "internalType": "uint256",
          "name": "_trDenom",
          "type": "uint256"
        },
        {
          "internalType": "address payable",
          "name": "_payouts",
          "type": "address"
        }
      ],
      "name": "deployDCNTCrescendo",
      "outputs": [
        {
          "internalType": "address",
          "name": "clone",
          "type": "address"
        }
      ],
      "stateMutability": "nonpayable",
      "type": "function"
    },
    {
      "inputs": [
        {
          "internalType": "address",
          "name": "_nft",
          "type": "address"
        },
        {
          "internalType": "address",
          "name": "_token",
          "type": "address"
        },
        {
          "internalType": "uint256",
          "name": "_vaultDuration",
          "type": "uint256"
        },
        {
          "internalType": "uint256",
          "name": "_totalSupply",
          "type": "uint256"
        }
      ],
      "name": "deployDCNTStaking",
      "outputs": [
        {
          "internalType": "address",
          "name": "clone",
          "type": "address"
        }
      ],
      "stateMutability": "nonpayable",
      "type": "function"
    },
    {
      "inputs": [
        {
          "internalType": "address",
          "name": "_vaultDistributionTokenAddress",
          "type": "address"
        },
        {
          "internalType": "address",
          "name": "_nftVaultKeyAddress",
          "type": "address"
        },
        {
          "internalType": "uint256",
          "name": "_nftTotalSupply",
          "type": "uint256"
        },
        {
          "internalType": "uint256",
          "name": "_unlockDate",
          "type": "uint256"
        }
      ],
      "name": "deployDCNTVault",
      "outputs": [
        {
          "internalType": "address",
          "name": "clone",
          "type": "address"
        }
      ],
      "stateMutability": "nonpayable",
      "type": "function"
    },
    {
      "inputs": [],
      "name": "owner",
      "outputs": [
        {
          "internalType": "address",
          "name": "",
          "type": "address"
        }
      ],
      "stateMutability": "view",
      "type": "function"
    },
    {
      "inputs": [],
      "name": "renounceOwnership",
      "outputs": [],
      "stateMutability": "nonpayable",
      "type": "function"
    },
    {
      "inputs": [
        {
          "internalType": "address",
          "name": "newOwner",
          "type": "address"
        }
      ],
      "name": "transferOwnership",
      "outputs": [],
      "stateMutability": "nonpayable",
      "type": "function"
    }
  ],
  "bytecode": "0x60806040523480156200001157600080fd5b5060405162001ecd38038062001ecd8339818101604052810190620000379190620002dd565b620000576200004b620001a760201b60201c565b620001af60201b60201c565b84600160006101000a81548173ffffffffffffffffffffffffffffffffffffffff021916908373ffffffffffffffffffffffffffffffffffffffff16021790555083600260006101000a81548173ffffffffffffffffffffffffffffffffffffffff021916908373ffffffffffffffffffffffffffffffffffffffff16021790555082600360006101000a81548173ffffffffffffffffffffffffffffffffffffffff021916908373ffffffffffffffffffffffffffffffffffffffff16021790555081600460006101000a81548173ffffffffffffffffffffffffffffffffffffffff021916908373ffffffffffffffffffffffffffffffffffffffff16021790555080600560006101000a81548173ffffffffffffffffffffffffffffffffffffffff021916908373ffffffffffffffffffffffffffffffffffffffff160217905550505050505062000365565b600033905090565b60008060009054906101000a900473ffffffffffffffffffffffffffffffffffffffff169050816000806101000a81548173ffffffffffffffffffffffffffffffffffffffff021916908373ffffffffffffffffffffffffffffffffffffffff1602179055508173ffffffffffffffffffffffffffffffffffffffff168173ffffffffffffffffffffffffffffffffffffffff167f8be0079c531659141344cd1fd0a4f28419497f9722a3daafe3b4186f6b6457e060405160405180910390a35050565b600080fd5b600073ffffffffffffffffffffffffffffffffffffffff82169050919050565b6000620002a58262000278565b9050919050565b620002b78162000298565b8114620002c357600080fd5b50565b600081519050620002d781620002ac565b92915050565b600080600080600060a08688031215620002fc57620002fb62000273565b5b60006200030c88828901620002c6565b95505060206200031f88828901620002c6565b94505060406200033288828901620002c6565b93505060606200034588828901620002c6565b92505060806200035888828901620002c6565b9150509295509295909350565b611b5880620003756000396000f3fe608060405234801561001057600080fd5b50600436106101165760003560e01c806382882ff1116100a2578063bc10a4fa11610071578063bc10a4fa1461030b578063ca825bb51461033b578063f2fde38b14610359578063f5c0eb6d14610375578063f698e642146103a557610116565b806382882ff11461026f5780638da5cb5b1461029f57806397590fcc146102bd5780639f61dfec146102ed57610116565b80634285656b116100e95780634285656b146101b7578063715018a6146101d557806371da37ca146101df57806373d622f81461020f5780637caee4651461023f57610116565b806310a089131461011b57806317a82e6114610139578063311ceaca146101695780633c3b370b14610199575b600080fd5b6101236103d5565b6040516101309190611276565b60405180910390f35b610153600480360381019061014e91906112db565b6103fb565b6040516101609190611276565b60405180910390f35b610183600480360381019061017e91906112db565b61043a565b6040516101909190611276565b60405180910390f35b6101a1610479565b6040516101ae9190611276565b60405180910390f35b6101bf61049f565b6040516101cc9190611276565b60405180910390f35b6101dd6104c5565b005b6101f960048036038101906101f4919061148c565b6104d9565b6040516102069190611276565b60405180910390f35b610229600480360381019061022491906115eb565b6106ce565b6040516102369190611276565b60405180910390f35b610259600480360381019061025491906112db565b6108b1565b6040516102669190611276565b60405180910390f35b61028960048036038101906102849190611652565b6108f0565b6040516102969190611276565b60405180910390f35b6102a7610ad6565b6040516102b49190611276565b60405180910390f35b6102d760048036038101906102d291906112db565b610aff565b6040516102e49190611276565b60405180910390f35b6102f5610b3e565b6040516103029190611276565b60405180910390f35b610325600480360381019061032091906115eb565b610b64565b6040516103329190611276565b60405180910390f35b610343610d47565b6040516103509190611276565b60405180910390f35b610373600480360381019061036e9190611705565b610d6d565b005b61038f600480360381019061038a91906112db565b610df1565b60405161039c9190611276565b60405180910390f35b6103bf60048036038101906103ba9190611652565b610e30565b6040516103cc9190611276565b60405180910390f35b600160009054906101000a900473ffffffffffffffffffffffffffffffffffffffff1681565b6008818154811061040b57600080fd5b906000526020600020016000915054906101000a900473ffffffffffffffffffffffffffffffffffffffff1681565b600a818154811061044a57600080fd5b906000526020600020016000915054906101000a900473ffffffffffffffffffffffffffffffffffffffff1681565b600560009054906101000a900473ffffffffffffffffffffffffffffffffffffffff1681565b600260009054906101000a900473ffffffffffffffffffffffffffffffffffffffff1681565b6104cd611016565b6104d76000611094565b565b600080610507600360009054906101000a900473ffffffffffffffffffffffffffffffffffffffff16611158565b905060008173ffffffffffffffffffffffffffffffffffffffff16338e8e8e8e8e8e8e8e8e8e6040516024016105479b9a999897969594939291906117d8565b6040516020818303038152906040527fba8e7a3b000000000000000000000000000000000000000000000000000000007bffffffffffffffffffffffffffffffffffffffffffffffffffffffff19166020820180517bffffffffffffffffffffffffffffffffffffffffffffffffffffffff83818316178352505050506040516105d191906118df565b6000604051808303816000865af19150503d806000811461060e576040519150601f19603f3d011682016040523d82523d6000602084013e610613565b606091505b505090508061062157600080fd5b6008829080600181540180825580915050600190039060005260206000200160009091909190916101000a81548173ffffffffffffffffffffffffffffffffffffffff021916908373ffffffffffffffffffffffffffffffffffffffff1602179055507f2c14c8ffafc8bfdf42e6469d6c292eeaebf445beafb817fb0bc9df3ebd89f006826040516106b39190611276565b60405180910390a181925050509a9950505050505050505050565b6000806106fc600460009054906101000a900473ffffffffffffffffffffffffffffffffffffffff16611158565b905060008173ffffffffffffffffffffffffffffffffffffffff1633888888886040516024016107309594939291906118f6565b6040516020818303038152906040527fa6b63eb8000000000000000000000000000000000000000000000000000000007bffffffffffffffffffffffffffffffffffffffffffffffffffffffff19166020820180517bffffffffffffffffffffffffffffffffffffffffffffffffffffffff83818316178352505050506040516107ba91906118df565b6000604051808303816000865af19150503d80600081146107f7576040519150601f19603f3d011682016040523d82523d6000602084013e6107fc565b606091505b505090508061080a57600080fd5b6009829080600181540180825580915050600190039060005260206000200160009091909190916101000a81548173ffffffffffffffffffffffffffffffffffffffff021916908373ffffffffffffffffffffffffffffffffffffffff1602179055507ff12b488daa6140ffee78fe266c37addbbaea912b09ce36e613a17844dac4255b8260405161089c9190611276565b60405180910390a18192505050949350505050565b600781815481106108c157600080fd5b906000526020600020016000915054906101000a900473ffffffffffffffffffffffffffffffffffffffff1681565b60008061091e600160009054906101000a900473ffffffffffffffffffffffffffffffffffffffff16611158565b905060008173ffffffffffffffffffffffffffffffffffffffff1633898989898960405160240161095496959493929190611949565b6040516020818303038152906040527fa3685b85000000000000000000000000000000000000000000000000000000007bffffffffffffffffffffffffffffffffffffffffffffffffffffffff19166020820180517bffffffffffffffffffffffffffffffffffffffffffffffffffffffff83818316178352505050506040516109de91906118df565b6000604051808303816000865af19150503d8060008114610a1b576040519150601f19603f3d011682016040523d82523d6000602084013e610a20565b606091505b5050905080610a2e57600080fd5b6006829080600181540180825580915050600190039060005260206000200160009091909190916101000a81548173ffffffffffffffffffffffffffffffffffffffff021916908373ffffffffffffffffffffffffffffffffffffffff1602179055507f149ce80ffd882db4157fb46dd05201336d87f52ace89212615557e5455b8a0df82604051610ac09190611276565b60405180910390a1819250505095945050505050565b60008060009054906101000a900473ffffffffffffffffffffffffffffffffffffffff16905090565b60098181548110610b0f57600080fd5b906000526020600020016000915054906101000a900473ffffffffffffffffffffffffffffffffffffffff1681565b600460009054906101000a900473ffffffffffffffffffffffffffffffffffffffff1681565b600080610b92600560009054906101000a900473ffffffffffffffffffffffffffffffffffffffff16611158565b905060008173ffffffffffffffffffffffffffffffffffffffff163388888888604051602401610bc69594939291906118f6565b6040516020818303038152906040527fa6b63eb8000000000000000000000000000000000000000000000000000000007bffffffffffffffffffffffffffffffffffffffffffffffffffffffff19166020820180517bffffffffffffffffffffffffffffffffffffffffffffffffffffffff8381831617835250505050604051610c5091906118df565b6000604051808303816000865af19150503d8060008114610c8d576040519150601f19603f3d011682016040523d82523d6000602084013e610c92565b606091505b5050905080610ca057600080fd5b600a829080600181540180825580915050600190039060005260206000200160009091909190916101000a81548173ffffffffffffffffffffffffffffffffffffffff021916908373ffffffffffffffffffffffffffffffffffffffff1602179055507fe9eeb18af71a650338802cfcb86b39b211ed34fd8a37cacc5a16514a183e8d6682604051610d329190611276565b60405180910390a18192505050949350505050565b600360009054906101000a900473ffffffffffffffffffffffffffffffffffffffff1681565b610d75611016565b600073ffffffffffffffffffffffffffffffffffffffff168173ffffffffffffffffffffffffffffffffffffffff161415610de5576040517f08c379a0000000000000000000000000000000000000000000000000000000008152600401610ddc90611a2a565b60405180910390fd5b610dee81611094565b50565b60068181548110610e0157600080fd5b906000526020600020016000915054906101000a900473ffffffffffffffffffffffffffffffffffffffff1681565b600080610e5e600260009054906101000a900473ffffffffffffffffffffffffffffffffffffffff16611158565b905060008173ffffffffffffffffffffffffffffffffffffffff16338989898989604051602401610e9496959493929190611949565b6040516020818303038152906040527fa3685b85000000000000000000000000000000000000000000000000000000007bffffffffffffffffffffffffffffffffffffffffffffffffffffffff19166020820180517bffffffffffffffffffffffffffffffffffffffffffffffffffffffff8381831617835250505050604051610f1e91906118df565b6000604051808303816000865af19150503d8060008114610f5b576040519150601f19603f3d011682016040523d82523d6000602084013e610f60565b606091505b5050905080610f6e57600080fd5b6007829080600181540180825580915050600190039060005260206000200160009091909190916101000a81548173ffffffffffffffffffffffffffffffffffffffff021916908373ffffffffffffffffffffffffffffffffffffffff1602179055507f3758a9cde202b40b236c1867c2734461fd598d835ad020bda26ca4f85838f2c4826040516110009190611276565b60405180910390a1819250505095945050505050565b61101e61122d565b73ffffffffffffffffffffffffffffffffffffffff1661103c610ad6565b73ffffffffffffffffffffffffffffffffffffffff1614611092576040517f08c379a000000000000000000000000000000000000000000000000000000000815260040161108990611a96565b60405180910390fd5b565b60008060009054906101000a900473ffffffffffffffffffffffffffffffffffffffff169050816000806101000a81548173ffffffffffffffffffffffffffffffffffffffff021916908373ffffffffffffffffffffffffffffffffffffffff1602179055508173ffffffffffffffffffffffffffffffffffffffff168173ffffffffffffffffffffffffffffffffffffffff167f8be0079c531659141344cd1fd0a4f28419497f9722a3daafe3b4186f6b6457e060405160405180910390a35050565b60006040517f3d602d80600a3d3981f3363d3d373d3d3d363d7300000000000000000000000081528260601b60148201527f5af43d82803e903d91602b57fd5bf3000000000000000000000000000000000060288201526037816000f0915050600073ffffffffffffffffffffffffffffffffffffffff168173ffffffffffffffffffffffffffffffffffffffff161415611228576040517f08c379a000000000000000000000000000000000000000000000000000000000815260040161121f90611b02565b60405180910390fd5b919050565b600033905090565b600073ffffffffffffffffffffffffffffffffffffffff82169050919050565b600061126082611235565b9050919050565b61127081611255565b82525050565b600060208201905061128b6000830184611267565b92915050565b6000604051905090565b600080fd5b600080fd5b6000819050919050565b6112b8816112a5565b81146112c357600080fd5b50565b6000813590506112d5816112af565b92915050565b6000602082840312156112f1576112f061129b565b5b60006112ff848285016112c6565b91505092915050565b600080fd5b600080fd5b6000601f19601f8301169050919050565b7f4e487b7100000000000000000000000000000000000000000000000000000000600052604160045260246000fd5b61135b82611312565b810181811067ffffffffffffffff8211171561137a57611379611323565b5b80604052505050565b600061138d611291565b90506113998282611352565b919050565b600067ffffffffffffffff8211156113b9576113b8611323565b5b6113c282611312565b9050602081019050919050565b82818337600083830152505050565b60006113f16113ec8461139e565b611383565b90508281526020810184848401111561140d5761140c61130d565b5b6114188482856113cf565b509392505050565b600082601f83011261143557611434611308565b5b81356114458482602086016113de565b91505092915050565b600061145982611235565b9050919050565b6114698161144e565b811461147457600080fd5b50565b60008135905061148681611460565b92915050565b6000806000806000806000806000806101408b8d0312156114b0576114af61129b565b5b60008b013567ffffffffffffffff8111156114ce576114cd6112a0565b5b6114da8d828e01611420565b9a505060208b013567ffffffffffffffff8111156114fb576114fa6112a0565b5b6115078d828e01611420565b99505060408b013567ffffffffffffffff811115611528576115276112a0565b5b6115348d828e01611420565b98505060606115458d828e016112c6565b97505060806115568d828e016112c6565b96505060a06115678d828e016112c6565b95505060c06115788d828e016112c6565b94505060e06115898d828e016112c6565b93505061010061159b8d828e016112c6565b9250506101206115ad8d828e01611477565b9150509295989b9194979a5092959850565b6115c881611255565b81146115d357600080fd5b50565b6000813590506115e5816115bf565b92915050565b600080600080608085870312156116055761160461129b565b5b6000611613878288016115d6565b9450506020611624878288016115d6565b9350506040611635878288016112c6565b9250506060611646878288016112c6565b91505092959194509250565b600080600080600060a0868803121561166e5761166d61129b565b5b600086013567ffffffffffffffff81111561168c5761168b6112a0565b5b61169888828901611420565b955050602086013567ffffffffffffffff8111156116b9576116b86112a0565b5b6116c588828901611420565b94505060406116d6888289016112c6565b93505060606116e7888289016112c6565b92505060806116f8888289016112c6565b9150509295509295909350565b60006020828403121561171b5761171a61129b565b5b6000611729848285016115d6565b91505092915050565b600081519050919050565b600082825260208201905092915050565b60005b8381101561176c578082015181840152602081019050611751565b8381111561177b576000848401525b50505050565b600061178c82611732565b611796818561173d565b93506117a681856020860161174e565b6117af81611312565b840191505092915050565b6117c3816112a5565b82525050565b6117d28161144e565b82525050565b6000610160820190506117ee600083018e611267565b8181036020830152611800818d611781565b90508181036040830152611814818c611781565b90508181036060830152611828818b611781565b9050611837608083018a6117ba565b61184460a08301896117ba565b61185160c08301886117ba565b61185e60e08301876117ba565b61186c6101008301866117ba565b61187a6101208301856117ba565b6118886101408301846117c9565b9c9b505050505050505050505050565b600081519050919050565b600081905092915050565b60006118b982611898565b6118c381856118a3565b93506118d381856020860161174e565b80840191505092915050565b60006118eb82846118ae565b915081905092915050565b600060a08201905061190b6000830188611267565b6119186020830187611267565b6119256040830186611267565b61193260608301856117ba565b61193f60808301846117ba565b9695505050505050565b600060c08201905061195e6000830189611267565b81810360208301526119708188611781565b905081810360408301526119848187611781565b905061199360608301866117ba565b6119a060808301856117ba565b6119ad60a08301846117ba565b979650505050505050565b7f4f776e61626c653a206e6577206f776e657220697320746865207a65726f206160008201527f6464726573730000000000000000000000000000000000000000000000000000602082015250565b6000611a1460268361173d565b9150611a1f826119b8565b604082019050919050565b60006020820190508181036000830152611a4381611a07565b9050919050565b7f4f776e61626c653a2063616c6c6572206973206e6f7420746865206f776e6572600082015250565b6000611a8060208361173d565b9150611a8b82611a4a565b602082019050919050565b60006020820190508181036000830152611aaf81611a73565b9050919050565b7f455243313136373a20637265617465206661696c656400000000000000000000600082015250565b6000611aec60168361173d565b9150611af782611ab6565b602082019050919050565b60006020820190508181036000830152611b1b81611adf565b905091905056fea2646970667358221220864fb7781a011111c40baf3456cbc908c567056ac832fdb6a307b8d3df673c9264736f6c63430008090033",
  "linkReferences": {},
  "deployedLinkReferences": {}
}