{
  "_format": "hh-sol-artifact-1",
  "contractName": "DCNTCrescendo",
  "sourceName": "contracts/DCNTCrescendo.sol",
  "abi": [
    {
      "anonymous": false,
      "inputs": [
        {
          "indexed": true,
          "internalType": "address",
          "name": "owner",
          "type": "address"
        },
        {
          "indexed": true,
          "internalType": "address",
          "name": "operator",
          "type": "address"
        },
        {
          "indexed": false,
          "internalType": "bool",
          "name": "approved",
          "type": "bool"
        }
      ],
      "name": "ApprovalForAll",
      "type": "event"
    },
    {
      "anonymous": false,
      "inputs": [
        {
          "indexed": true,
          "internalType": "address",
          "name": "sender",
          "type": "address"
        },
        {
          "indexed": false,
          "internalType": "uint256",
          "name": "amount",
          "type": "uint256"
        },
        {
          "indexed": false,
          "internalType": "uint256",
          "name": "id",
          "type": "uint256"
        },
        {
          "indexed": false,
          "internalType": "uint256",
          "name": "reimbursement",
          "type": "uint256"
        }
      ],
      "name": "CurvedBurn",
      "type": "event"
    },
    {
      "anonymous": false,
      "inputs": [
        {
          "indexed": true,
          "internalType": "address",
          "name": "sender",
          "type": "address"
        },
        {
          "indexed": false,
          "internalType": "uint256",
          "name": "amount",
          "type": "uint256"
        },
        {
          "indexed": false,
          "internalType": "uint256",
          "name": "id",
          "type": "uint256"
        },
        {
          "indexed": false,
          "internalType": "uint256",
          "name": "deposit",
          "type": "uint256"
        }
      ],
      "name": "CurvedMint",
      "type": "event"
    },
    {
      "anonymous": false,
      "inputs": [
        {
          "indexed": false,
          "internalType": "uint8",
          "name": "version",
          "type": "uint8"
        }
      ],
      "name": "Initialized",
      "type": "event"
    },
    {
      "anonymous": false,
      "inputs": [
        {
          "indexed": true,
          "internalType": "address",
          "name": "previousOwner",
          "type": "address"
        },
        {
          "indexed": true,
          "internalType": "address",
          "name": "newOwner",
          "type": "address"
        }
      ],
      "name": "OwnershipTransferred",
      "type": "event"
    },
    {
      "anonymous": false,
      "inputs": [
        {
          "indexed": true,
          "internalType": "address",
          "name": "operator",
          "type": "address"
        },
        {
          "indexed": true,
          "internalType": "address",
          "name": "from",
          "type": "address"
        },
        {
          "indexed": true,
          "internalType": "address",
          "name": "to",
          "type": "address"
        },
        {
          "indexed": false,
          "internalType": "uint256[]",
          "name": "ids",
          "type": "uint256[]"
        },
        {
          "indexed": false,
          "internalType": "uint256[]",
          "name": "amounts",
          "type": "uint256[]"
        }
      ],
      "name": "TransferBatch",
      "type": "event"
    },
    {
      "anonymous": false,
      "inputs": [
        {
          "indexed": true,
          "internalType": "address",
          "name": "operator",
          "type": "address"
        },
        {
          "indexed": true,
          "internalType": "address",
          "name": "from",
          "type": "address"
        },
        {
          "indexed": true,
          "internalType": "address",
          "name": "to",
          "type": "address"
        },
        {
          "indexed": false,
          "internalType": "uint256",
          "name": "id",
          "type": "uint256"
        },
        {
          "indexed": false,
          "internalType": "uint256",
          "name": "amount",
          "type": "uint256"
        }
      ],
      "name": "TransferSingle",
      "type": "event"
    },
    {
      "anonymous": false,
      "inputs": [
        {
          "indexed": false,
          "internalType": "string",
          "name": "value",
          "type": "string"
        },
        {
          "indexed": true,
          "internalType": "uint256",
          "name": "id",
          "type": "uint256"
        }
      ],
      "name": "URI",
      "type": "event"
    },
    {
      "inputs": [
        {
          "internalType": "address",
          "name": "",
          "type": "address"
        },
        {
          "internalType": "uint256",
          "name": "",
          "type": "uint256"
        }
      ],
      "name": "balanceOf",
      "outputs": [
        {
          "internalType": "uint256",
          "name": "",
          "type": "uint256"
        }
      ],
      "stateMutability": "view",
      "type": "function"
    },
    {
      "inputs": [
        {
          "internalType": "address[]",
          "name": "owners",
          "type": "address[]"
        },
        {
          "internalType": "uint256[]",
          "name": "ids",
          "type": "uint256[]"
        }
      ],
      "name": "balanceOfBatch",
      "outputs": [
        {
          "internalType": "uint256[]",
          "name": "balances",
          "type": "uint256[]"
        }
      ],
      "stateMutability": "view",
      "type": "function"
    },
    {
      "inputs": [
        {
          "internalType": "uint256",
          "name": "id",
          "type": "uint256"
        }
      ],
      "name": "buy",
      "outputs": [],
      "stateMutability": "payable",
      "type": "function"
    },
    {
      "inputs": [
        {
          "internalType": "uint256",
          "name": "amount",
          "type": "uint256"
        },
        {
          "internalType": "uint256",
          "name": "id",
          "type": "uint256"
        }
      ],
      "name": "calculateCurvedBurnReturn",
      "outputs": [
        {
          "internalType": "uint256",
          "name": "",
          "type": "uint256"
        }
      ],
      "stateMutability": "view",
      "type": "function"
    },
    {
      "inputs": [
        {
          "internalType": "uint256",
          "name": "amount",
          "type": "uint256"
        },
        {
          "internalType": "uint256",
          "name": "id",
          "type": "uint256"
        }
      ],
      "name": "calculateCurvedMintReturn",
      "outputs": [
        {
          "internalType": "uint256",
          "name": "",
          "type": "uint256"
        }
      ],
      "stateMutability": "view",
      "type": "function"
    },
    {
      "inputs": [
        {
          "internalType": "address[]",
          "name": "accounts",
          "type": "address[]"
        },
        {
          "internalType": "uint32[]",
          "name": "percentAllocations",
          "type": "uint32[]"
        },
        {
          "internalType": "uint32",
          "name": "distributorFee",
          "type": "uint32"
        }
      ],
      "name": "createSplit",
      "outputs": [],
      "stateMutability": "nonpayable",
      "type": "function"
    },
    {
      "inputs": [
        {
          "internalType": "address",
          "name": "account",
          "type": "address"
        },
        {
          "internalType": "uint256",
          "name": "withdrawETH",
          "type": "uint256"
        },
        {
          "internalType": "contract ERC20[]",
          "name": "tokens",
          "type": "address[]"
        },
        {
          "internalType": "address[]",
          "name": "accounts",
          "type": "address[]"
        },
        {
          "internalType": "uint32[]",
          "name": "percentAllocations",
          "type": "uint32[]"
        },
        {
          "internalType": "uint32",
          "name": "distributorFee",
          "type": "uint32"
        },
        {
          "internalType": "address",
          "name": "distributorAddress",
          "type": "address"
        }
      ],
      "name": "distributeAndWithdraw",
      "outputs": [],
      "stateMutability": "nonpayable",
      "type": "function"
    },
    {
      "inputs": [
        {
          "internalType": "address",
          "name": "account",
          "type": "address"
        },
        {
          "internalType": "uint256",
          "name": "withdrawETH",
          "type": "uint256"
        },
        {
          "internalType": "contract ERC20[]",
          "name": "tokens",
          "type": "address[]"
        },
        {
          "internalType": "address[]",
          "name": "accounts",
          "type": "address[]"
        },
        {
          "internalType": "uint32[]",
          "name": "percentAllocations",
          "type": "uint32[]"
        },
        {
          "internalType": "uint32",
          "name": "distributorFee",
          "type": "uint32"
        },
        {
          "internalType": "address",
          "name": "distributorAddress",
          "type": "address"
        }
      ],
      "name": "distributeAndWithdrawFund",
      "outputs": [],
      "stateMutability": "nonpayable",
      "type": "function"
    },
    {
      "inputs": [
        {
          "internalType": "contract ERC20",
          "name": "token",
          "type": "address"
        },
        {
          "internalType": "address[]",
          "name": "accounts",
          "type": "address[]"
        },
        {
          "internalType": "uint32[]",
          "name": "percentAllocations",
          "type": "uint32[]"
        },
        {
          "internalType": "uint32",
          "name": "distributorFee",
          "type": "uint32"
        },
        {
          "internalType": "address",
          "name": "distributorAddress",
          "type": "address"
        }
      ],
      "name": "distributeERC20",
      "outputs": [],
      "stateMutability": "nonpayable",
      "type": "function"
    },
    {
      "inputs": [
        {
          "internalType": "address[]",
          "name": "accounts",
          "type": "address[]"
        },
        {
          "internalType": "uint32[]",
          "name": "percentAllocations",
          "type": "uint32[]"
        },
        {
          "internalType": "uint32",
          "name": "distributorFee",
          "type": "uint32"
        },
        {
          "internalType": "address",
          "name": "distributorAddress",
          "type": "address"
        }
      ],
      "name": "distributeETH",
      "outputs": [],
      "stateMutability": "nonpayable",
      "type": "function"
    },
    {
      "inputs": [],
      "name": "flipSaleState",
      "outputs": [],
      "stateMutability": "nonpayable",
      "type": "function"
    },
    {
      "inputs": [
        {
          "internalType": "address",
          "name": "_owner",
          "type": "address"
        },
        {
          "components": [
            {
              "internalType": "string",
              "name": "name",
              "type": "string"
            },
            {
              "internalType": "string",
              "name": "symbol",
              "type": "string"
            },
            {
              "internalType": "uint256",
              "name": "initialPrice",
              "type": "uint256"
            },
            {
              "internalType": "uint256",
              "name": "step1",
              "type": "uint256"
            },
            {
              "internalType": "uint256",
              "name": "step2",
              "type": "uint256"
            },
            {
              "internalType": "uint256",
              "name": "hitch",
              "type": "uint256"
            },
            {
              "internalType": "uint256",
              "name": "takeRateBPS",
              "type": "uint256"
            },
            {
              "internalType": "uint256",
              "name": "unlockDate",
              "type": "uint256"
            },
            {
              "internalType": "uint256",
              "name": "royaltyBPS",
              "type": "uint256"
            }
          ],
          "internalType": "struct CrescendoConfig",
          "name": "_config",
          "type": "tuple"
        },
        {
          "components": [
            {
              "internalType": "string",
              "name": "metadataURI",
              "type": "string"
            },
            {
              "internalType": "bytes",
              "name": "metadataRendererInit",
              "type": "bytes"
            }
          ],
          "internalType": "struct MetadataConfig",
          "name": "_metadataConfig",
          "type": "tuple"
        },
        {
          "internalType": "address",
          "name": "_metadataRenderer",
          "type": "address"
        },
        {
          "internalType": "address",
          "name": "_splitMain",
          "type": "address"
        }
      ],
      "name": "initialize",
      "outputs": [],
      "stateMutability": "nonpayable",
      "type": "function"
    },
    {
      "inputs": [
        {
          "internalType": "address",
          "name": "",
          "type": "address"
        },
        {
          "internalType": "address",
          "name": "",
          "type": "address"
        }
      ],
      "name": "isApprovedForAll",
      "outputs": [
        {
          "internalType": "bool",
          "name": "",
          "type": "bool"
        }
      ],
      "stateMutability": "view",
      "type": "function"
    },
    {
      "inputs": [],
      "name": "liquidity",
      "outputs": [
        {
          "internalType": "uint256",
          "name": "",
          "type": "uint256"
        }
      ],
      "stateMutability": "view",
      "type": "function"
    },
    {
      "inputs": [],
      "name": "metadataRenderer",
      "outputs": [
        {
          "internalType": "address",
          "name": "",
          "type": "address"
        }
      ],
      "stateMutability": "view",
      "type": "function"
    },
    {
      "inputs": [],
      "name": "name",
      "outputs": [
        {
          "internalType": "string",
          "name": "",
          "type": "string"
        }
      ],
      "stateMutability": "view",
      "type": "function"
    },
    {
      "inputs": [],
      "name": "owner",
      "outputs": [
        {
          "internalType": "address",
          "name": "",
          "type": "address"
        }
      ],
      "stateMutability": "view",
      "type": "function"
    },
    {
      "inputs": [],
      "name": "renounceOwnership",
      "outputs": [],
      "stateMutability": "nonpayable",
      "type": "function"
    },
    {
      "inputs": [],
      "name": "reserveAmt",
      "outputs": [
        {
          "internalType": "uint256",
          "name": "",
          "type": "uint256"
        }
      ],
      "stateMutability": "view",
      "type": "function"
    },
    {
      "inputs": [],
      "name": "royaltyBPS",
      "outputs": [
        {
          "internalType": "uint256",
          "name": "",
          "type": "uint256"
        }
      ],
      "stateMutability": "view",
      "type": "function"
    },
    {
      "inputs": [
        {
          "internalType": "uint256",
          "name": "tokenId",
          "type": "uint256"
        },
        {
          "internalType": "uint256",
          "name": "salePrice",
          "type": "uint256"
        }
      ],
      "name": "royaltyInfo",
      "outputs": [
        {
          "internalType": "address",
          "name": "receiver",
          "type": "address"
        },
        {
          "internalType": "uint256",
          "name": "royaltyAmount",
          "type": "uint256"
        }
      ],
      "stateMutability": "view",
      "type": "function"
    },
    {
      "inputs": [
        {
          "internalType": "address",
          "name": "from",
          "type": "address"
        },
        {
          "internalType": "address",
          "name": "to",
          "type": "address"
        },
        {
          "internalType": "uint256[]",
          "name": "ids",
          "type": "uint256[]"
        },
        {
          "internalType": "uint256[]",
          "name": "amounts",
          "type": "uint256[]"
        },
        {
          "internalType": "bytes",
          "name": "data",
          "type": "bytes"
        }
      ],
      "name": "safeBatchTransferFrom",
      "outputs": [],
      "stateMutability": "nonpayable",
      "type": "function"
    },
    {
      "inputs": [
        {
          "internalType": "address",
          "name": "from",
          "type": "address"
        },
        {
          "internalType": "address",
          "name": "to",
          "type": "address"
        },
        {
          "internalType": "uint256",
          "name": "id",
          "type": "uint256"
        },
        {
          "internalType": "uint256",
          "name": "amount",
          "type": "uint256"
        },
        {
          "internalType": "bytes",
          "name": "data",
          "type": "bytes"
        }
      ],
      "name": "safeTransferFrom",
      "outputs": [],
      "stateMutability": "nonpayable",
      "type": "function"
    },
    {
      "inputs": [],
      "name": "saleIsActive",
      "outputs": [
        {
          "internalType": "bool",
          "name": "",
          "type": "bool"
        }
      ],
      "stateMutability": "view",
      "type": "function"
    },
    {
      "inputs": [
        {
          "internalType": "uint256",
          "name": "id",
          "type": "uint256"
        }
      ],
      "name": "sell",
      "outputs": [],
      "stateMutability": "nonpayable",
      "type": "function"
    },
    {
      "inputs": [
        {
          "internalType": "address",
          "name": "operator",
          "type": "address"
        },
        {
          "internalType": "bool",
          "name": "approved",
          "type": "bool"
        }
      ],
      "name": "setApprovalForAll",
      "outputs": [],
      "stateMutability": "nonpayable",
      "type": "function"
    },
    {
      "inputs": [
        {
          "internalType": "address",
          "name": "_metadataRenderer",
          "type": "address"
        }
      ],
      "name": "setMetadataRenderer",
      "outputs": [],
      "stateMutability": "nonpayable",
      "type": "function"
    },
    {
      "inputs": [],
      "name": "splitMain",
      "outputs": [
        {
          "internalType": "address",
          "name": "",
          "type": "address"
        }
      ],
      "stateMutability": "view",
      "type": "function"
    },
    {
      "inputs": [],
      "name": "splitWallet",
      "outputs": [
        {
          "internalType": "address",
          "name": "",
          "type": "address"
        }
      ],
      "stateMutability": "view",
      "type": "function"
    },
    {
      "inputs": [
        {
          "internalType": "bytes4",
          "name": "interfaceId",
          "type": "bytes4"
        }
      ],
      "name": "supportsInterface",
      "outputs": [
        {
          "internalType": "bool",
          "name": "",
          "type": "bool"
        }
      ],
      "stateMutability": "view",
      "type": "function"
    },
    {
      "inputs": [],
      "name": "symbol",
      "outputs": [
        {
          "internalType": "string",
          "name": "",
          "type": "string"
        }
      ],
      "stateMutability": "view",
      "type": "function"
    },
    {
      "inputs": [
        {
          "internalType": "uint256",
          "name": "id",
          "type": "uint256"
        }
      ],
      "name": "totalSupply",
      "outputs": [
        {
          "internalType": "uint256",
          "name": "",
          "type": "uint256"
        }
      ],
      "stateMutability": "view",
      "type": "function"
    },
    {
      "inputs": [
        {
          "internalType": "uint256",
          "name": "transferETH",
          "type": "uint256"
        },
        {
          "internalType": "contract ERC20[]",
          "name": "tokens",
          "type": "address[]"
        }
      ],
      "name": "transferFundToSplit",
      "outputs": [],
      "stateMutability": "nonpayable",
      "type": "function"
    },
    {
      "inputs": [
        {
          "internalType": "address",
          "name": "newOwner",
          "type": "address"
        }
      ],
      "name": "transferOwnership",
      "outputs": [],
      "stateMutability": "nonpayable",
      "type": "function"
    },
    {
      "inputs": [
        {
          "internalType": "uint256",
          "name": "transferETH",
          "type": "uint256"
        },
        {
          "internalType": "contract ERC20[]",
          "name": "tokens",
          "type": "address[]"
        }
      ],
      "name": "transferToSplit",
      "outputs": [],
      "stateMutability": "nonpayable",
      "type": "function"
    },
    {
      "inputs": [],
      "name": "unlockDate",
      "outputs": [
        {
          "internalType": "uint256",
          "name": "",
          "type": "uint256"
        }
      ],
      "stateMutability": "view",
      "type": "function"
    },
    {
      "inputs": [
        {
          "internalType": "string",
          "name": "uri_",
          "type": "string"
        }
      ],
      "name": "updateUri",
      "outputs": [],
      "stateMutability": "nonpayable",
      "type": "function"
    },
    {
      "inputs": [
        {
          "internalType": "uint256",
          "name": "",
          "type": "uint256"
        }
      ],
      "name": "uri",
      "outputs": [
        {
          "internalType": "string",
          "name": "",
          "type": "string"
        }
      ],
      "stateMutability": "view",
      "type": "function"
    },
    {
      "inputs": [],
      "name": "withdraw",
      "outputs": [],
      "stateMutability": "nonpayable",
      "type": "function"
    },
    {
      "inputs": [],
      "name": "withdrawFund",
      "outputs": [],
      "stateMutability": "nonpayable",
      "type": "function"
    }
  ],
  "bytecode": "0x60806040526000600d556000600e60006101000a81548160ff0219169083151502179055503480156200003157600080fd5b5062000052620000466200005860201b60201c565b6200006060201b60201c565b62000123565b600033905090565b600060028054906101000a900473ffffffffffffffffffffffffffffffffffffffff169050816002806101000a81548173ffffffffffffffffffffffffffffffffffffffff021916908373ffffffffffffffffffffffffffffffffffffffff1602179055508173ffffffffffffffffffffffffffffffffffffffff168173ffffffffffffffffffffffffffffffffffffffff167f8be0079c531659141344cd1fd0a4f28419497f9722a3daafe3b4186f6b6457e060405160405180910390a35050565b615da980620001336000396000f3fe6080604052600436106102395760003560e01c806379ab7c8e1161012e578063c4559d5a116100ab578063eb8d24441161006f578063eb8d244414610839578063ee37778d14610864578063f242432a146108a1578063f2fde38b146108ca578063fd4fe8a8146108f357610239565b8063c4559d5a14610777578063d96a094a146107a0578063e07fa3c1146107bc578063e4849b32146107d3578063e985e9c5146107fc57610239565b8063a22cb465116100f2578063a22cb4651461067e578063a3111abd146106a7578063af548ffb146106e4578063b9c9d93a1461070f578063bd85b0391461073a57610239565b806379ab7c8e146105ad5780638da5cb5b146105d657806390619fa81461060157806394a11aea1461062a57806395d89b411461065357610239565b80632a55205a116101bc578063570b3c6a11610180578063570b3c6a146104ec57806369ac5721146105155780637031997014610540578063713b97871461056b578063715018a61461059657610239565b80632a55205a1461041a5780632eb2c2d61461045857806334918dfd146104815780633ccfd60b146104985780634e1273f4146104af57610239565b80630e769b2b116102035780630e769b2b146103355780630e89341c146103605780631a6865021461039d5780632586ed89146103c8578063284a44a8146103f157610239565b80625f16fb1461023e578062fdd58e14610267578063015893c5146102a457806301ffc9a7146102cd57806306fdde031461030a575b600080fd5b34801561024a57600080fd5b50610265600480360381019061026091906139d7565b61091c565b005b34801561027357600080fd5b5061028e60048036038101906102899190613ac9565b610a2c565b60405161029b9190613b18565b60405180910390f35b3480156102b057600080fd5b506102cb60048036038101906102c69190613b33565b610a51565b005b3480156102d957600080fd5b506102f460048036038101906102ef9190613c20565b610b80565b6040516103019190613c68565b60405180910390f35b34801561031657600080fd5b5061031f610bc2565b60405161032c9190613d1c565b60405180910390f35b34801561034157600080fd5b5061034a610c54565b6040516103579190613d4d565b60405180910390f35b34801561036c57600080fd5b5061038760048036038101906103829190613d68565b610c7a565b6040516103949190613d1c565b60405180910390f35b3480156103a957600080fd5b506103b2610e1d565b6040516103bf9190613b18565b60405180910390f35b3480156103d457600080fd5b506103ef60048036038101906103ea9190614110565b610e4c565b005b3480156103fd57600080fd5b5061041860048036038101906104139190614286565b611177565b005b34801561042657600080fd5b50610441600480360381019061043c9190614384565b611262565b60405161044f9291906143c4565b60405180910390f35b34801561046457600080fd5b5061047f600480360381019061047a9190614499565b611360565b005b34801561048d57600080fd5b506104966117cb565b005b3480156104a457600080fd5b506104ad6117ff565b005b3480156104bb57600080fd5b506104d660048036038101906104d19190614575565b61195f565b6040516104e391906146b4565b60405180910390f35b3480156104f857600080fd5b50610513600480360381019061050e91906146d6565b611ac8565b005b34801561052157600080fd5b5061052a611adc565b6040516105379190613b18565b60405180910390f35b34801561054c57600080fd5b50610555611ae2565b6040516105629190613d4d565b60405180910390f35b34801561057757600080fd5b50610580611b08565b60405161058d9190613d4d565b60405180910390f35b3480156105a257600080fd5b506105ab611b2e565b005b3480156105b957600080fd5b506105d460048036038101906105cf919061471f565b611b42565b005b3480156105e257600080fd5b506105eb611c0f565b6040516105f89190613d4d565b60405180910390f35b34801561060d57600080fd5b506106286004803603810190610623919061471f565b611c37565b005b34801561063657600080fd5b50610651600480360381019061064c9190614286565b611d49565b005b34801561065f57600080fd5b50610668611ef8565b6040516106759190613d1c565b60405180910390f35b34801561068a57600080fd5b506106a560048036038101906106a091906147a7565b611f8a565b005b3480156106b357600080fd5b506106ce60048036038101906106c99190614384565b612087565b6040516106db9190613b18565b60405180910390f35b3480156106f057600080fd5b506106f96120e8565b6040516107069190613b18565b60405180910390f35b34801561071b57600080fd5b50610724612124565b6040516107319190613b18565b60405180910390f35b34801561074657600080fd5b50610761600480360381019061075c9190613d68565b61212a565b60405161076e9190613b18565b60405180910390f35b34801561078357600080fd5b5061079e600480360381019061079991906147e7565b612147565b005b6107ba60048036038101906107b59190613d68565b612253565b005b3480156107c857600080fd5b506107d1612512565b005b3480156107df57600080fd5b506107fa60048036038101906107f59190613d68565b61261e565b005b34801561080857600080fd5b50610823600480360381019061081e919061488e565b6128fc565b6040516108309190613c68565b60405180910390f35b34801561084557600080fd5b5061084e61292b565b60405161085b9190613c68565b60405180910390f35b34801561087057600080fd5b5061088b60048036038101906108869190614384565b61293e565b6040516108989190613b18565b60405180910390f35b3480156108ad57600080fd5b506108c860048036038101906108c391906148ce565b6129c6565b005b3480156108d657600080fd5b506108f160048036038101906108ec9190614968565b612d88565b005b3480156108ff57600080fd5b5061091a60048036038101906109159190614968565b612e0c565b005b600073ffffffffffffffffffffffffffffffffffffffff1661093c612e58565b73ffffffffffffffffffffffffffffffffffffffff161415610993576040517f08c379a000000000000000000000000000000000000000000000000000000000815260040161098a906149e1565b60405180910390fd5b61099c87612e82565b6109a4612fa8565b73ffffffffffffffffffffffffffffffffffffffff1663158113026109c7612e58565b898989898989896040518963ffffffff1660e01b81526004016109f1989796959493929190614bf5565b600060405180830381600087803b158015610a0b57600080fd5b505af1158015610a1f573d6000803e3d6000fd5b5050505050505050505050565b6000602052816000526040600020602052806000526040600020600091509150505481565b610a59612fd2565b600073ffffffffffffffffffffffffffffffffffffffff16610a79612e58565b73ffffffffffffffffffffffffffffffffffffffff1614610acf576040517f08c379a0000000000000000000000000000000000000000000000000000000008152600401610ac690614cb4565b60405180910390fd5b6000610ad9612fa8565b73ffffffffffffffffffffffffffffffffffffffff16637601f7828787878787306040518763ffffffff1660e01b8152600401610b1b96959493929190614cd4565b602060405180830381600087803b158015610b3557600080fd5b505af1158015610b49573d6000803e3d6000fd5b505050506040513d601f19601f82011682018060405250810190610b6d9190614d40565b9050610b7881613050565b505050505050565b6000632a55205a60e01b827bffffffffffffffffffffffffffffffffffffffffffffffffffffffff19161480610bbb5750610bba82613094565b5b9050919050565b606060038054610bd190614d9c565b80601f0160208091040260200160405190810160405280929190818152602001828054610bfd90614d9c565b8015610c4a5780601f10610c1f57610100808354040283529160200191610c4a565b820191906000526020600020905b815481529060010190602001808311610c2d57829003601f168201915b5050505050905090565b601060009054906101000a900473ffffffffffffffffffffffffffffffffffffffff1681565b6060600073ffffffffffffffffffffffffffffffffffffffff16601260009054906101000a900473ffffffffffffffffffffffffffffffffffffffff1673ffffffffffffffffffffffffffffffffffffffff1614610d8a57601260009054906101000a900473ffffffffffffffffffffffffffffffffffffffff1673ffffffffffffffffffffffffffffffffffffffff1663c87b56dd60016040518263ffffffff1660e01b8152600401610d2e9190614e09565b60006040518083038186803b158015610d4657600080fd5b505afa158015610d5a573d6000803e3d6000fd5b505050506040513d6000823e3d601f19601f82011682018060405250810190610d839190614e94565b9050610e18565b60058054610d9790614d9c565b80601f0160208091040260200160405190810160405280929190818152602001828054610dc390614d9c565b8015610e105780601f10610de557610100808354040283529160200191610e10565b820191906000526020600020905b815481529060010190602001808311610df357829003601f168201915b505050505090505b919050565b6000612710600d5447610e309190614f0c565b600954610e3d9190614f62565b610e479190614feb565b905090565b6000600260019054906101000a900460ff16159050808015610e8057506001600260009054906101000a900460ff1660ff16105b80610eaf5750610e8f30613126565b158015610eae57506001600260009054906101000a900460ff1660ff16145b5b610eee576040517f08c379a0000000000000000000000000000000000000000000000000000000008152600401610ee59061508e565b60405180910390fd5b6001600260006101000a81548160ff021916908360ff1602179055508015610f2c576001600260016101000a81548160ff0219169083151502179055505b610f3586613149565b8460400151600c600080815260200190815260200160002081905550846060015160068190555084608001516007819055508460a001516008819055508460c001516009819055508460e00151600f81905550846000015160039080519060200190610fa292919061378d565b50846020015160049080519060200190610fbd92919061378d565b50846101000151600a8190555081601060006101000a81548173ffffffffffffffffffffffffffffffffffffffff021916908373ffffffffffffffffffffffffffffffffffffffff160217905550600073ffffffffffffffffffffffffffffffffffffffff168373ffffffffffffffffffffffffffffffffffffffff161415801561104d57506000846020015151115b156111075782601260006101000a81548173ffffffffffffffffffffffffffffffffffffffff021916908373ffffffffffffffffffffffffffffffffffffffff1602179055508273ffffffffffffffffffffffffffffffffffffffff1663856a7ffa85602001516040518263ffffffff1660e01b81526004016110d09190615103565b600060405180830381600087803b1580156110ea57600080fd5b505af11580156110fe573d6000803e3d6000fd5b50505050611115565b611114846000015161320c565b5b801561116f576000600260016101000a81548160ff0219169083151502179055507f7f26b83ff96e1f2b6a682f133852f6798a09c465da95921460cefb384740249860016040516111669190615163565b60405180910390a15b505050505050565b600073ffffffffffffffffffffffffffffffffffffffff16611197612e58565b73ffffffffffffffffffffffffffffffffffffffff1614156111ee576040517f08c379a00000000000000000000000000000000000000000000000000000000081526004016111e5906149e1565b60405180910390fd5b6000881461120557611204868686868686612147565b5b60005b875181101561124b5761123a8882815181106112275761122661517e565b5b602002602001015188888888888861091c565b80611244906151ad565b9050611208565b50611257898989613226565b505050505050505050565b600080600084146112a8576040517f08c379a000000000000000000000000000000000000000000000000000000000815260040161129f90615242565b60405180910390fd5b600073ffffffffffffffffffffffffffffffffffffffff16601160009054906101000a900473ffffffffffffffffffffffffffffffffffffffff1673ffffffffffffffffffffffffffffffffffffffff161461132857601160009054906101000a900473ffffffffffffffffffffffffffffffffffffffff169150611333565b611330611c0f565b91505b6000612710600a54856113469190614f62565b6113509190614feb565b9050828192509250509250929050565b8383905086869050146113a8576040517f08c379a000000000000000000000000000000000000000000000000000000000815260040161139f906152ae565b60405180910390fd5b8773ffffffffffffffffffffffffffffffffffffffff163373ffffffffffffffffffffffffffffffffffffffff1614806114685750600160008973ffffffffffffffffffffffffffffffffffffffff1673ffffffffffffffffffffffffffffffffffffffff16815260200190815260200160002060003373ffffffffffffffffffffffffffffffffffffffff1673ffffffffffffffffffffffffffffffffffffffff16815260200190815260200160002060009054906101000a900460ff165b6114a7576040517f08c379a000000000000000000000000000000000000000000000000000000000815260040161149e9061531a565b60405180910390fd5b60008060005b888890508110156115c7578888828181106114cb576114ca61517e565b5b9050602002013592508686828181106114e7576114e661517e565b5b905060200201359150816000808d73ffffffffffffffffffffffffffffffffffffffff1673ffffffffffffffffffffffffffffffffffffffff1681526020019081526020016000206000858152602001908152602001600020600082825461154f919061533a565b92505081905550816000808c73ffffffffffffffffffffffffffffffffffffffff1673ffffffffffffffffffffffffffffffffffffffff168152602001908152602001600020600085815260200190815260200160002060008282546115b59190614f0c565b925050819055508060010190506114ad565b508873ffffffffffffffffffffffffffffffffffffffff168a73ffffffffffffffffffffffffffffffffffffffff163373ffffffffffffffffffffffffffffffffffffffff167f4a39dc06d4c0dbc64b70af90fd698a233a518aa5d07e595d983b8c0526c8f7fb8b8b8b8b60405161164294939291906153cf565b60405180910390a460008973ffffffffffffffffffffffffffffffffffffffff163b1461174e5763bc197c8160e01b7bffffffffffffffffffffffffffffffffffffffffffffffffffffffff19168973ffffffffffffffffffffffffffffffffffffffff1663bc197c81338d8c8c8c8c8c8c6040518963ffffffff1660e01b81526004016116d7989796959493929190615437565b602060405180830381600087803b1580156116f157600080fd5b505af1158015611705573d6000803e3d6000fd5b505050506040513d601f19601f8201168201806040525081019061172991906154ba565b7bffffffffffffffffffffffffffffffffffffffffffffffffffffffff191614611780565b600073ffffffffffffffffffffffffffffffffffffffff168973ffffffffffffffffffffffffffffffffffffffff1614155b6117bf576040517f08c379a00000000000000000000000000000000000000000000000000000000081526004016117b690615533565b60405180910390fd5b50505050505050505050565b6117d3612fd2565b600e60009054906101000a900460ff1615600e60006101000a81548160ff021916908315150217905550565b611807612fd2565b600073ffffffffffffffffffffffffffffffffffffffff16611827612e58565b73ffffffffffffffffffffffffffffffffffffffff161461187d576040517f08c379a0000000000000000000000000000000000000000000000000000000008152600401611874906155c5565b60405180910390fd5b6000600d5461188a610e1d565b611894919061533a565b905080600d60008282546118a89190614f0c565b9250508190555060003373ffffffffffffffffffffffffffffffffffffffff16826040516118d590615616565b60006040518083038185875af1925050503d8060008114611912576040519150601f19603f3d011682016040523d82523d6000602084013e611917565b606091505b505090508061195b576040517f08c379a000000000000000000000000000000000000000000000000000000000815260040161195290615677565b60405180910390fd5b5050565b60608282905085859050146119a9576040517f08c379a00000000000000000000000000000000000000000000000000000000081526004016119a0906152ae565b60405180910390fd5b8484905067ffffffffffffffff8111156119c6576119c5613d9a565b5b6040519080825280602002602001820160405280156119f45781602001602082028036833780820191505090505b50905060005b85859050811015611abf57600080878784818110611a1b57611a1a61517e565b5b9050602002016020810190611a309190614968565b73ffffffffffffffffffffffffffffffffffffffff1673ffffffffffffffffffffffffffffffffffffffff1681526020019081526020016000206000858584818110611a7f57611a7e61517e565b5b90506020020135815260200190815260200160002054828281518110611aa857611aa761517e565b5b6020026020010181815250508060010190506119fa565b50949350505050565b611ad0612fd2565b611ad98161320c565b50565b600f5481565b601260009054906101000a900473ffffffffffffffffffffffffffffffffffffffff1681565b601160009054906101000a900473ffffffffffffffffffffffffffffffffffffffff1681565b611b36612fd2565b611b406000613149565b565b600073ffffffffffffffffffffffffffffffffffffffff16611b62612e58565b73ffffffffffffffffffffffffffffffffffffffff161415611bb9576040517f08c379a0000000000000000000000000000000000000000000000000000000008152600401611bb0906149e1565b60405180910390fd5b60008214611bca57611bc96132a1565b5b60005b8151811015611c0a57611bf9828281518110611bec57611beb61517e565b5b6020026020010151612e82565b80611c03906151ad565b9050611bcd565b505050565b600060028054906101000a900473ffffffffffffffffffffffffffffffffffffffff16905090565b600073ffffffffffffffffffffffffffffffffffffffff16611c57612e58565b73ffffffffffffffffffffffffffffffffffffffff161415611cae576040517f08c379a0000000000000000000000000000000000000000000000000000000008152600401611ca5906149e1565b60405180910390fd5b600f54421015611cf3576040517f08c379a0000000000000000000000000000000000000000000000000000000008152600401611cea906156e3565b60405180910390fd5b60008214611d0457611d0361338a565b5b60005b8151811015611d4457611d33828281518110611d2657611d2561517e565b5b6020026020010151612e82565b80611d3d906151ad565b9050611d07565b505050565b600073ffffffffffffffffffffffffffffffffffffffff16611d69612e58565b73ffffffffffffffffffffffffffffffffffffffff161415611dc0576040517f08c379a0000000000000000000000000000000000000000000000000000000008152600401611db7906149e1565b60405180910390fd5b600f54421015611e05576040517f08c379a0000000000000000000000000000000000000000000000000000000008152600401611dfc906156e3565b60405180910390fd5b60008814611e9b57611e1561338a565b611e1d612fa8565b73ffffffffffffffffffffffffffffffffffffffff1663e61cb05e611e40612e58565b8888888888886040518863ffffffff1660e01b8152600401611e689796959493929190615703565b600060405180830381600087803b158015611e8257600080fd5b505af1158015611e96573d6000803e3d6000fd5b505050505b60005b8751811015611ee157611ed0888281518110611ebd57611ebc61517e565b5b602002602001015188888888888861091c565b80611eda906151ad565b9050611e9e565b50611eed898989613226565b505050505050505050565b606060048054611f0790614d9c565b80601f0160208091040260200160405190810160405280929190818152602001828054611f3390614d9c565b8015611f805780601f10611f5557610100808354040283529160200191611f80565b820191906000526020600020905b815481529060010190602001808311611f6357829003601f168201915b5050505050905090565b80600160003373ffffffffffffffffffffffffffffffffffffffff1673ffffffffffffffffffffffffffffffffffffffff16815260200190815260200160002060008473ffffffffffffffffffffffffffffffffffffffff1673ffffffffffffffffffffffffffffffffffffffff16815260200190815260200160002060006101000a81548160ff0219169083151502179055508173ffffffffffffffffffffffffffffffffffffffff163373ffffffffffffffffffffffffffffffffffffffff167f17307eab39ab6107e8899845ad3d59bd9653f200f220920489ca2b5937696c318360405161207b9190613c68565b60405180910390a35050565b6000600183146120cc576040517f08c379a00000000000000000000000000000000000000000000000000000000081526004016120c3906157b4565b60405180910390fd5b600c600083815260200190815260200160002054905092915050565b6000612710600d54476120fb9190614f0c565b60095461271061210b919061533a565b6121159190614f62565b61211f9190614feb565b905090565b600a5481565b6000600b6000838152602001908152602001600020549050919050565b600073ffffffffffffffffffffffffffffffffffffffff16612167612e58565b73ffffffffffffffffffffffffffffffffffffffff1614156121be576040517f08c379a00000000000000000000000000000000000000000000000000000000081526004016121b5906149e1565b60405180910390fd5b6121c66132a1565b6121ce612fa8565b73ffffffffffffffffffffffffffffffffffffffff1663e61cb05e6121f1612e58565b8888888888886040518863ffffffff1660e01b81526004016122199796959493929190615703565b600060405180830381600087803b15801561223357600080fd5b505af1158015612247573d6000803e3d6000fd5b50505050505050505050565b600e60009054906101000a900460ff166122a2576040517f08c379a000000000000000000000000000000000000000000000000000000000815260040161229990615820565b60405180910390fd5b60006122af600183612087565b9050803410156122f4576040517f08c379a00000000000000000000000000000000000000000000000000000000081526004016122eb9061588c565b60405180910390fd5b60008214612337576040517f08c379a000000000000000000000000000000000000000000000000000000000815260040161232e90615242565b60405180910390fd5b60008134612345919061533a565b11156124045760003373ffffffffffffffffffffffffffffffffffffffff168234612370919061533a565b60405161237c90615616565b60006040518083038185875af1925050503d80600081146123b9576040519150601f19603f3d011682016040523d82523d6000602084013e6123be565b606091505b5050905080612402576040517f08c379a00000000000000000000000000000000000000000000000000000000081526004016123f990615677565b60405180910390fd5b505b6124203383600160405180602001604052806000815250613440565b6001600b600084815260200190815260200160002060008282546124449190614f0c565b925050819055503373ffffffffffffffffffffffffffffffffffffffff167f25ba90957e661d6984db35cb313f752c45b1b67a3252e45d3f260a00fff0d71960018484604051612496939291906158ac565b60405180910390a26008546124aa8361212a565b10156124e157600654600c600084815260200190815260200160002060008282546124d59190614f0c565b9250508190555061250e565b600754600c600084815260200190815260200160002060008282546125069190614f0c565b925050819055505b5050565b61251a612fd2565b600f5442101561255f576040517f08c379a0000000000000000000000000000000000000000000000000000000008152600401612556906156e3565b60405180910390fd5b600073ffffffffffffffffffffffffffffffffffffffff1661257f612e58565b73ffffffffffffffffffffffffffffffffffffffff16146125d5576040517f08c379a00000000000000000000000000000000000000000000000000000000081526004016125cc906155c5565b60405180910390fd5b3373ffffffffffffffffffffffffffffffffffffffff166108fc479081150290604051600060405180830381858888f1935050505015801561261b573d6000803e3d6000fd5b50565b600e60009054906101000a900460ff1661266d576040517f08c379a00000000000000000000000000000000000000000000000000000000081526004016126649061592f565b60405180910390fd5b600081146126b0576040517f08c379a00000000000000000000000000000000000000000000000000000000081526004016126a790615242565b60405180910390fd5b60006126bd60018361293e565b905060008060003373ffffffffffffffffffffffffffffffffffffffff1673ffffffffffffffffffffffffffffffffffffffff16815260200190815260200160002060008481526020019081526020016000205411612751576040517f08c379a00000000000000000000000000000000000000000000000000000000081526004016127489061599b565b60405180910390fd5b61275d3383600161369b565b6001600b60008481526020019081526020016000206000828254612781919061533a565b9250508190555060003373ffffffffffffffffffffffffffffffffffffffff16826040516127ae90615616565b60006040518083038185875af1925050503d80600081146127eb576040519150601f19603f3d011682016040523d82523d6000602084013e6127f0565b606091505b5050905080612834576040517f08c379a000000000000000000000000000000000000000000000000000000000815260040161282b90615677565b60405180910390fd5b3373ffffffffffffffffffffffffffffffffffffffff167f68294b5fb4234239b694f5ef768a13b93132c838ecd88673e56a4caa8089b9196001858560405161287f939291906158ac565b60405180910390a26008546128938461212a565b10156128ca57600654600c600085815260200190815260200160002060008282546128be919061533a565b925050819055506128f7565b600754600c600085815260200190815260200160002060008282546128ef919061533a565b925050819055505b505050565b60016020528160005260406000206020528060005260406000206000915091509054906101000a900460ff1681565b600e60009054906101000a900460ff1681565b600060018314612983576040517f08c379a000000000000000000000000000000000000000000000000000000000815260040161297a906157b4565b60405180910390fd5b612710600c6000848152602001908152602001600020546009546127106129aa919061533a565b6129b49190614f62565b6129be9190614feb565b905092915050565b8573ffffffffffffffffffffffffffffffffffffffff163373ffffffffffffffffffffffffffffffffffffffff161480612a865750600160008773ffffffffffffffffffffffffffffffffffffffff1673ffffffffffffffffffffffffffffffffffffffff16815260200190815260200160002060003373ffffffffffffffffffffffffffffffffffffffff1673ffffffffffffffffffffffffffffffffffffffff16815260200190815260200160002060009054906101000a900460ff165b612ac5576040517f08c379a0000000000000000000000000000000000000000000000000000000008152600401612abc9061531a565b60405180910390fd5b826000808873ffffffffffffffffffffffffffffffffffffffff1673ffffffffffffffffffffffffffffffffffffffff16815260200190815260200160002060008681526020019081526020016000206000828254612b24919061533a565b92505081905550826000808773ffffffffffffffffffffffffffffffffffffffff1673ffffffffffffffffffffffffffffffffffffffff16815260200190815260200160002060008681526020019081526020016000206000828254612b8a9190614f0c565b925050819055508473ffffffffffffffffffffffffffffffffffffffff168673ffffffffffffffffffffffffffffffffffffffff163373ffffffffffffffffffffffffffffffffffffffff167fc3d58168c5ae7397731d063d5bbf3d657854427343f4c083240f7aacaa2d0f628787604051612c079291906159bb565b60405180910390a460008573ffffffffffffffffffffffffffffffffffffffff163b14612d0f5763f23a6e6160e01b7bffffffffffffffffffffffffffffffffffffffffffffffffffffffff19168573ffffffffffffffffffffffffffffffffffffffff1663f23a6e613389888888886040518763ffffffff1660e01b8152600401612c98969594939291906159e4565b602060405180830381600087803b158015612cb257600080fd5b505af1158015612cc6573d6000803e3d6000fd5b505050506040513d601f19601f82011682018060405250810190612cea91906154ba565b7bffffffffffffffffffffffffffffffffffffffffffffffffffffffff191614612d41565b600073ffffffffffffffffffffffffffffffffffffffff168573ffffffffffffffffffffffffffffffffffffffff1614155b612d80576040517f08c379a0000000000000000000000000000000000000000000000000000000008152600401612d7790615533565b60405180910390fd5b505050505050565b612d90612fd2565b600073ffffffffffffffffffffffffffffffffffffffff168173ffffffffffffffffffffffffffffffffffffffff161415612e00576040517f08c379a0000000000000000000000000000000000000000000000000000000008152600401612df790615ab2565b60405180910390fd5b612e0981613149565b50565b612e14612fd2565b80601260006101000a81548173ffffffffffffffffffffffffffffffffffffffff021916908373ffffffffffffffffffffffffffffffffffffffff16021790555050565b6000601160009054906101000a900473ffffffffffffffffffffffffffffffffffffffff16905090565b60008173ffffffffffffffffffffffffffffffffffffffff166370a08231306040518263ffffffff1660e01b8152600401612ebd9190613d4d565b60206040518083038186803b158015612ed557600080fd5b505afa158015612ee9573d6000803e3d6000fd5b505050506040513d601f19601f82011682018060405250810190612f0d9190615ae7565b90508173ffffffffffffffffffffffffffffffffffffffff1663a9059cbb612f33612e58565b836040518363ffffffff1660e01b8152600401612f519291906143c4565b602060405180830381600087803b158015612f6b57600080fd5b505af1158015612f7f573d6000803e3d6000fd5b505050506040513d601f19601f82011682018060405250810190612fa39190615b29565b505050565b6000601060009054906101000a900473ffffffffffffffffffffffffffffffffffffffff16905090565b612fda613785565b73ffffffffffffffffffffffffffffffffffffffff16612ff8611c0f565b73ffffffffffffffffffffffffffffffffffffffff161461304e576040517f08c379a000000000000000000000000000000000000000000000000000000000815260040161304590615ba2565b60405180910390fd5b565b80601160006101000a81548173ffffffffffffffffffffffffffffffffffffffff021916908373ffffffffffffffffffffffffffffffffffffffff16021790555050565b60006301ffc9a760e01b827bffffffffffffffffffffffffffffffffffffffffffffffffffffffff191614806130ef575063d9b67a2660e01b827bffffffffffffffffffffffffffffffffffffffffffffffffffffffff1916145b8061311f5750630e89341c60e01b827bffffffffffffffffffffffffffffffffffffffffffffffffffffffff1916145b9050919050565b6000808273ffffffffffffffffffffffffffffffffffffffff163b119050919050565b600060028054906101000a900473ffffffffffffffffffffffffffffffffffffffff169050816002806101000a81548173ffffffffffffffffffffffffffffffffffffffff021916908373ffffffffffffffffffffffffffffffffffffffff1602179055508173ffffffffffffffffffffffffffffffffffffffff168173ffffffffffffffffffffffffffffffffffffffff167f8be0079c531659141344cd1fd0a4f28419497f9722a3daafe3b4186f6b6457e060405160405180910390a35050565b806005908051906020019061322292919061378d565b5050565b61322e612fa8565b73ffffffffffffffffffffffffffffffffffffffff16636e5f69198484846040518463ffffffff1660e01b815260040161326a93929190615c6f565b600060405180830381600087803b15801561328457600080fd5b505af1158015613298573d6000803e3d6000fd5b50505050505050565b6000600d546132ae610e1d565b6132b8919061533a565b905080600d60008282546132cc9190614f0c565b9250508190555060006132dd612e58565b73ffffffffffffffffffffffffffffffffffffffff168260405161330090615616565b60006040518083038185875af1925050503d806000811461333d576040519150601f19603f3d011682016040523d82523d6000602084013e613342565b606091505b5050905080613386576040517f08c379a000000000000000000000000000000000000000000000000000000000815260040161337d90615cf9565b60405180910390fd5b5050565b6000613394612e58565b73ffffffffffffffffffffffffffffffffffffffff16476040516133b790615616565b60006040518083038185875af1925050503d80600081146133f4576040519150601f19603f3d011682016040523d82523d6000602084013e6133f9565b606091505b505090508061343d576040517f08c379a000000000000000000000000000000000000000000000000000000000815260040161343490615cf9565b60405180910390fd5b50565b816000808673ffffffffffffffffffffffffffffffffffffffff1673ffffffffffffffffffffffffffffffffffffffff1681526020019081526020016000206000858152602001908152602001600020600082825461349f9190614f0c565b925050819055508373ffffffffffffffffffffffffffffffffffffffff16600073ffffffffffffffffffffffffffffffffffffffff163373ffffffffffffffffffffffffffffffffffffffff167fc3d58168c5ae7397731d063d5bbf3d657854427343f4c083240f7aacaa2d0f62868660405161351d9291906159bb565b60405180910390a460008473ffffffffffffffffffffffffffffffffffffffff163b146136245763f23a6e6160e01b7bffffffffffffffffffffffffffffffffffffffffffffffffffffffff19168473ffffffffffffffffffffffffffffffffffffffff1663f23a6e613360008787876040518663ffffffff1660e01b81526004016135ad959493929190615d19565b602060405180830381600087803b1580156135c757600080fd5b505af11580156135db573d6000803e3d6000fd5b505050506040513d601f19601f820116820180604052508101906135ff91906154ba565b7bffffffffffffffffffffffffffffffffffffffffffffffffffffffff191614613656565b600073ffffffffffffffffffffffffffffffffffffffff168473ffffffffffffffffffffffffffffffffffffffff1614155b613695576040517f08c379a000000000000000000000000000000000000000000000000000000000815260040161368c90615533565b60405180910390fd5b50505050565b806000808573ffffffffffffffffffffffffffffffffffffffff1673ffffffffffffffffffffffffffffffffffffffff168152602001908152602001600020600084815260200190815260200160002060008282546136fa919061533a565b92505081905550600073ffffffffffffffffffffffffffffffffffffffff168373ffffffffffffffffffffffffffffffffffffffff163373ffffffffffffffffffffffffffffffffffffffff167fc3d58168c5ae7397731d063d5bbf3d657854427343f4c083240f7aacaa2d0f6285856040516137789291906159bb565b60405180910390a4505050565b600033905090565b82805461379990614d9c565b90600052602060002090601f0160209004810192826137bb5760008555613802565b82601f106137d457805160ff1916838001178555613802565b82800160010185558215613802579182015b828111156138015782518255916020019190600101906137e6565b5b50905061380f9190613813565b5090565b5b8082111561382c576000816000905550600101613814565b5090565b6000604051905090565b600080fd5b600080fd5b600073ffffffffffffffffffffffffffffffffffffffff82169050919050565b600061386f82613844565b9050919050565b600061388182613864565b9050919050565b61389181613876565b811461389c57600080fd5b50565b6000813590506138ae81613888565b92915050565b600080fd5b600080fd5b600080fd5b60008083601f8401126138d9576138d86138b4565b5b8235905067ffffffffffffffff8111156138f6576138f56138b9565b5b602083019150836020820283011115613912576139116138be565b5b9250929050565b60008083601f84011261392f5761392e6138b4565b5b8235905067ffffffffffffffff81111561394c5761394b6138b9565b5b602083019150836020820283011115613968576139676138be565b5b9250929050565b600063ffffffff82169050919050565b6139888161396f565b811461399357600080fd5b50565b6000813590506139a58161397f565b92915050565b6139b481613864565b81146139bf57600080fd5b50565b6000813590506139d1816139ab565b92915050565b600080600080600080600060a0888a0312156139f6576139f561383a565b5b6000613a048a828b0161389f565b975050602088013567ffffffffffffffff811115613a2557613a2461383f565b5b613a318a828b016138c3565b9650965050604088013567ffffffffffffffff811115613a5457613a5361383f565b5b613a608a828b01613919565b94509450506060613a738a828b01613996565b9250506080613a848a828b016139c2565b91505092959891949750929550565b6000819050919050565b613aa681613a93565b8114613ab157600080fd5b50565b600081359050613ac381613a9d565b92915050565b60008060408385031215613ae057613adf61383a565b5b6000613aee858286016139c2565b9250506020613aff85828601613ab4565b9150509250929050565b613b1281613a93565b82525050565b6000602082019050613b2d6000830184613b09565b92915050565b600080600080600060608688031215613b4f57613b4e61383a565b5b600086013567ffffffffffffffff811115613b6d57613b6c61383f565b5b613b79888289016138c3565b9550955050602086013567ffffffffffffffff811115613b9c57613b9b61383f565b5b613ba888828901613919565b93509350506040613bbb88828901613996565b9150509295509295909350565b60007fffffffff0000000000000000000000000000000000000000000000000000000082169050919050565b613bfd81613bc8565b8114613c0857600080fd5b50565b600081359050613c1a81613bf4565b92915050565b600060208284031215613c3657613c3561383a565b5b6000613c4484828501613c0b565b91505092915050565b60008115159050919050565b613c6281613c4d565b82525050565b6000602082019050613c7d6000830184613c59565b92915050565b600081519050919050565b600082825260208201905092915050565b60005b83811015613cbd578082015181840152602081019050613ca2565b83811115613ccc576000848401525b50505050565b6000601f19601f8301169050919050565b6000613cee82613c83565b613cf88185613c8e565b9350613d08818560208601613c9f565b613d1181613cd2565b840191505092915050565b60006020820190508181036000830152613d368184613ce3565b905092915050565b613d4781613864565b82525050565b6000602082019050613d626000830184613d3e565b92915050565b600060208284031215613d7e57613d7d61383a565b5b6000613d8c84828501613ab4565b91505092915050565b600080fd5b7f4e487b7100000000000000000000000000000000000000000000000000000000600052604160045260246000fd5b613dd282613cd2565b810181811067ffffffffffffffff82111715613df157613df0613d9a565b5b80604052505050565b6000613e04613830565b9050613e108282613dc9565b919050565b600080fd5b600080fd5b600067ffffffffffffffff821115613e3a57613e39613d9a565b5b613e4382613cd2565b9050602081019050919050565b82818337600083830152505050565b6000613e72613e6d84613e1f565b613dfa565b905082815260208101848484011115613e8e57613e8d613e1a565b5b613e99848285613e50565b509392505050565b600082601f830112613eb657613eb56138b4565b5b8135613ec6848260208601613e5f565b91505092915050565b60006101208284031215613ee657613ee5613d95565b5b613ef1610120613dfa565b9050600082013567ffffffffffffffff811115613f1157613f10613e15565b5b613f1d84828501613ea1565b600083015250602082013567ffffffffffffffff811115613f4157613f40613e15565b5b613f4d84828501613ea1565b6020830152506040613f6184828501613ab4565b6040830152506060613f7584828501613ab4565b6060830152506080613f8984828501613ab4565b60808301525060a0613f9d84828501613ab4565b60a08301525060c0613fb184828501613ab4565b60c08301525060e0613fc584828501613ab4565b60e083015250610100613fda84828501613ab4565b6101008301525092915050565b600067ffffffffffffffff82111561400257614001613d9a565b5b61400b82613cd2565b9050602081019050919050565b600061402b61402684613fe7565b613dfa565b90508281526020810184848401111561404757614046613e1a565b5b614052848285613e50565b509392505050565b600082601f83011261406f5761406e6138b4565b5b813561407f848260208601614018565b91505092915050565b60006040828403121561409e5761409d613d95565b5b6140a86040613dfa565b9050600082013567ffffffffffffffff8111156140c8576140c7613e15565b5b6140d484828501613ea1565b600083015250602082013567ffffffffffffffff8111156140f8576140f7613e15565b5b6141048482850161405a565b60208301525092915050565b600080600080600060a0868803121561412c5761412b61383a565b5b600061413a888289016139c2565b955050602086013567ffffffffffffffff81111561415b5761415a61383f565b5b61416788828901613ecf565b945050604086013567ffffffffffffffff8111156141885761418761383f565b5b61419488828901614088565b93505060606141a5888289016139c2565b92505060806141b6888289016139c2565b9150509295509295909350565b600067ffffffffffffffff8211156141de576141dd613d9a565b5b602082029050602081019050919050565b60006142026141fd846141c3565b613dfa565b90508083825260208201905060208402830185811115614225576142246138be565b5b835b8181101561424e578061423a888261389f565b845260208401935050602081019050614227565b5050509392505050565b600082601f83011261426d5761426c6138b4565b5b813561427d8482602086016141ef565b91505092915050565b600080600080600080600080600060e08a8c0312156142a8576142a761383a565b5b60006142b68c828d016139c2565b99505060206142c78c828d01613ab4565b98505060408a013567ffffffffffffffff8111156142e8576142e761383f565b5b6142f48c828d01614258565b97505060608a013567ffffffffffffffff8111156143155761431461383f565b5b6143218c828d016138c3565b965096505060808a013567ffffffffffffffff8111156143445761434361383f565b5b6143508c828d01613919565b945094505060a06143638c828d01613996565b92505060c06143748c828d016139c2565b9150509295985092959850929598565b6000806040838503121561439b5761439a61383a565b5b60006143a985828601613ab4565b92505060206143ba85828601613ab4565b9150509250929050565b60006040820190506143d96000830185613d3e565b6143e66020830184613b09565b9392505050565b60008083601f840112614403576144026138b4565b5b8235905067ffffffffffffffff8111156144205761441f6138b9565b5b60208301915083602082028301111561443c5761443b6138be565b5b9250929050565b60008083601f840112614459576144586138b4565b5b8235905067ffffffffffffffff811115614476576144756138b9565b5b602083019150836001820283011115614492576144916138be565b5b9250929050565b60008060008060008060008060a0898b0312156144b9576144b861383a565b5b60006144c78b828c016139c2565b98505060206144d88b828c016139c2565b975050604089013567ffffffffffffffff8111156144f9576144f861383f565b5b6145058b828c016143ed565b9650965050606089013567ffffffffffffffff8111156145285761452761383f565b5b6145348b828c016143ed565b9450945050608089013567ffffffffffffffff8111156145575761455661383f565b5b6145638b828c01614443565b92509250509295985092959890939650565b6000806000806040858703121561458f5761458e61383a565b5b600085013567ffffffffffffffff8111156145ad576145ac61383f565b5b6145b9878288016138c3565b9450945050602085013567ffffffffffffffff8111156145dc576145db61383f565b5b6145e8878288016143ed565b925092505092959194509250565b600081519050919050565b600082825260208201905092915050565b6000819050602082019050919050565b61462b81613a93565b82525050565b600061463d8383614622565b60208301905092915050565b6000602082019050919050565b6000614661826145f6565b61466b8185614601565b935061467683614612565b8060005b838110156146a757815161468e8882614631565b975061469983614649565b92505060018101905061467a565b5085935050505092915050565b600060208201905081810360008301526146ce8184614656565b905092915050565b6000602082840312156146ec576146eb61383a565b5b600082013567ffffffffffffffff81111561470a5761470961383f565b5b61471684828501613ea1565b91505092915050565b600080604083850312156147365761473561383a565b5b600061474485828601613ab4565b925050602083013567ffffffffffffffff8111156147655761476461383f565b5b61477185828601614258565b9150509250929050565b61478481613c4d565b811461478f57600080fd5b50565b6000813590506147a18161477b565b92915050565b600080604083850312156147be576147bd61383a565b5b60006147cc858286016139c2565b92505060206147dd85828601614792565b9150509250929050565b600080600080600080608087890312156148045761480361383a565b5b600087013567ffffffffffffffff8111156148225761482161383f565b5b61482e89828a016138c3565b9650965050602087013567ffffffffffffffff8111156148515761485061383f565b5b61485d89828a01613919565b9450945050604061487089828a01613996565b925050606061488189828a016139c2565b9150509295509295509295565b600080604083850312156148a5576148a461383a565b5b60006148b3858286016139c2565b92505060206148c4858286016139c2565b9150509250929050565b60008060008060008060a087890312156148eb576148ea61383a565b5b60006148f989828a016139c2565b965050602061490a89828a016139c2565b955050604061491b89828a01613ab4565b945050606061492c89828a01613ab4565b935050608087013567ffffffffffffffff81111561494d5761494c61383f565b5b61495989828a01614443565b92509250509295509295509295565b60006020828403121561497e5761497d61383a565b5b600061498c848285016139c2565b91505092915050565b7f53706c6974206e6f742063726561746564207965740000000000000000000000600082015250565b60006149cb601583613c8e565b91506149d682614995565b602082019050919050565b600060208201905081810360008301526149fa816149be565b9050919050565b6000819050919050565b6000614a26614a21614a1c84613844565b614a01565b613844565b9050919050565b6000614a3882614a0b565b9050919050565b6000614a4a82614a2d565b9050919050565b614a5a81614a3f565b82525050565b600082825260208201905092915050565b6000819050919050565b614a8481613864565b82525050565b6000614a968383614a7b565b60208301905092915050565b6000614ab160208401846139c2565b905092915050565b6000602082019050919050565b6000614ad28385614a60565b9350614add82614a71565b8060005b85811015614b1657614af38284614aa2565b614afd8882614a8a565b9750614b0883614ab9565b925050600181019050614ae1565b5085925050509392505050565b600082825260208201905092915050565b6000819050919050565b614b478161396f565b82525050565b6000614b598383614b3e565b60208301905092915050565b6000614b746020840184613996565b905092915050565b6000602082019050919050565b6000614b958385614b23565b9350614ba082614b34565b8060005b85811015614bd957614bb68284614b65565b614bc08882614b4d565b9750614bcb83614b7c565b925050600181019050614ba4565b5085925050509392505050565b614bef8161396f565b82525050565b600060c082019050614c0a600083018b613d3e565b614c17602083018a614a51565b8181036040830152614c2a81888a614ac6565b90508181036060830152614c3f818688614b89565b9050614c4e6080830185614be6565b614c5b60a0830184613d3e565b9998505050505050505050565b7f53706c697420616c726561647920637265617465640000000000000000000000600082015250565b6000614c9e601583613c8e565b9150614ca982614c68565b602082019050919050565b60006020820190508181036000830152614ccd81614c91565b9050919050565b60006080820190508181036000830152614cef81888a614ac6565b90508181036020830152614d04818688614b89565b9050614d136040830185614be6565b614d206060830184613d3e565b979650505050505050565b600081519050614d3a816139ab565b92915050565b600060208284031215614d5657614d5561383a565b5b6000614d6484828501614d2b565b91505092915050565b7f4e487b7100000000000000000000000000000000000000000000000000000000600052602260045260246000fd5b60006002820490506001821680614db457607f821691505b60208210811415614dc857614dc7614d6d565b5b50919050565b6000819050919050565b6000614df3614dee614de984614dce565b614a01565b613a93565b9050919050565b614e0381614dd8565b82525050565b6000602082019050614e1e6000830184614dfa565b92915050565b6000614e37614e3284613e1f565b613dfa565b905082815260208101848484011115614e5357614e52613e1a565b5b614e5e848285613c9f565b509392505050565b600082601f830112614e7b57614e7a6138b4565b5b8151614e8b848260208601614e24565b91505092915050565b600060208284031215614eaa57614ea961383a565b5b600082015167ffffffffffffffff811115614ec857614ec761383f565b5b614ed484828501614e66565b91505092915050565b7f4e487b7100000000000000000000000000000000000000000000000000000000600052601160045260246000fd5b6000614f1782613a93565b9150614f2283613a93565b9250827fffffffffffffffffffffffffffffffffffffffffffffffffffffffffffffffff03821115614f5757614f56614edd565b5b828201905092915050565b6000614f6d82613a93565b9150614f7883613a93565b9250817fffffffffffffffffffffffffffffffffffffffffffffffffffffffffffffffff0483118215151615614fb157614fb0614edd565b5b828202905092915050565b7f4e487b7100000000000000000000000000000000000000000000000000000000600052601260045260246000fd5b6000614ff682613a93565b915061500183613a93565b92508261501157615010614fbc565b5b828204905092915050565b7f496e697469616c697a61626c653a20636f6e747261637420697320616c72656160008201527f647920696e697469616c697a6564000000000000000000000000000000000000602082015250565b6000615078602e83613c8e565b91506150838261501c565b604082019050919050565b600060208201905081810360008301526150a78161506b565b9050919050565b600081519050919050565b600082825260208201905092915050565b60006150d5826150ae565b6150df81856150b9565b93506150ef818560208601613c9f565b6150f881613cd2565b840191505092915050565b6000602082019050818103600083015261511d81846150ca565b905092915050565b600060ff82169050919050565b600061514d61514861514384614dce565b614a01565b615125565b9050919050565b61515d81615132565b82525050565b60006020820190506151786000830184615154565b92915050565b7f4e487b7100000000000000000000000000000000000000000000000000000000600052603260045260246000fd5b60006151b882613a93565b91507fffffffffffffffffffffffffffffffffffffffffffffffffffffffffffffffff8214156151eb576151ea614edd565b5b600182019050919050565b7f63757272656e746c79206f6e6c79206f6e652065646974696f6e000000000000600082015250565b600061522c601a83613c8e565b9150615237826151f6565b602082019050919050565b6000602082019050818103600083015261525b8161521f565b9050919050565b7f4c454e4754485f4d49534d415443480000000000000000000000000000000000600082015250565b6000615298600f83613c8e565b91506152a382615262565b602082019050919050565b600060208201905081810360008301526152c78161528b565b9050919050565b7f4e4f545f415554484f52495a4544000000000000000000000000000000000000600082015250565b6000615304600e83613c8e565b915061530f826152ce565b602082019050919050565b60006020820190508181036000830152615333816152f7565b9050919050565b600061534582613a93565b915061535083613a93565b92508282101561536357615362614edd565b5b828203905092915050565b600080fd5b600061537f8385614601565b93507f07ffffffffffffffffffffffffffffffffffffffffffffffffffffffffffffff8311156153b2576153b161536e565b5b6020830292506153c3838584613e50565b82840190509392505050565b600060408201905081810360008301526153ea818688615373565b905081810360208301526153ff818486615373565b905095945050505050565b600061541683856150b9565b9350615423838584613e50565b61542c83613cd2565b840190509392505050565b600060a08201905061544c600083018b613d3e565b615459602083018a613d3e565b818103604083015261546c81888a615373565b90508181036060830152615481818688615373565b9050818103608083015261549681848661540a565b90509998505050505050505050565b6000815190506154b481613bf4565b92915050565b6000602082840312156154d0576154cf61383a565b5b60006154de848285016154a5565b91505092915050565b7f554e534146455f524543495049454e5400000000000000000000000000000000600082015250565b600061551d601083613c8e565b9150615528826154e7565b602082019050919050565b6000602082019050818103600083015261554c81615510565b9050919050565b7f43616e6e6f74207769746864726177207769746820616e20616374697665207360008201527f706c697400000000000000000000000000000000000000000000000000000000602082015250565b60006155af602483613c8e565b91506155ba82615553565b604082019050919050565b600060208201905081810360008301526155de816155a2565b9050919050565b600081905092915050565b50565b60006156006000836155e5565b915061560b826155f0565b600082019050919050565b6000615621826155f3565b9150819050919050565b7f4661696c656420746f2073656e64206574686572000000000000000000000000600082015250565b6000615661601483613c8e565b915061566c8261562b565b602082019050919050565b6000602082019050818103600083015261569081615654565b9050919050565b7f4372657363656e646f206973207374696c6c206c6f636b656400000000000000600082015250565b60006156cd601983613c8e565b91506156d882615697565b602082019050919050565b600060208201905081810360008301526156fc816156c0565b9050919050565b600060a082019050615718600083018a613d3e565b818103602083015261572b81888a614ac6565b90508181036040830152615740818688614b89565b905061574f6060830185614be6565b61575c6080830184613d3e565b98975050505050505050565b7f6d617820616d6f756e7420697320310000000000000000000000000000000000600082015250565b600061579e600f83613c8e565b91506157a982615768565b602082019050919050565b600060208201905081810360008301526157cd81615791565b9050919050565b7f53616c65206d7573742062652061637469766520746f20627579000000000000600082015250565b600061580a601a83613c8e565b9150615815826157d4565b602082019050919050565b60006020820190508181036000830152615839816157fd565b9050919050565b7f496e73756666696369656e742066756e64730000000000000000000000000000600082015250565b6000615876601283613c8e565b915061588182615840565b602082019050919050565b600060208201905081810360008301526158a581615869565b9050919050565b60006060820190506158c16000830186614dfa565b6158ce6020830185613b09565b6158db6040830184613b09565b949350505050565b7f53616c65206d7573742062652061637469766520746f2073656c6c0000000000600082015250565b6000615919601b83613c8e565b9150615924826158e3565b602082019050919050565b600060208201905081810360008301526159488161590c565b9050919050565b7f6d757374206f776e206e667420746f2073656c6c000000000000000000000000600082015250565b6000615985601483613c8e565b91506159908261594f565b602082019050919050565b600060208201905081810360008301526159b481615978565b9050919050565b60006040820190506159d06000830185613b09565b6159dd6020830184613b09565b9392505050565b600060a0820190506159f96000830189613d3e565b615a066020830188613d3e565b615a136040830187613b09565b615a206060830186613b09565b8181036080830152615a3381848661540a565b9050979650505050505050565b7f4f776e61626c653a206e6577206f776e657220697320746865207a65726f206160008201527f6464726573730000000000000000000000000000000000000000000000000000602082015250565b6000615a9c602683613c8e565b9150615aa782615a40565b604082019050919050565b60006020820190508181036000830152615acb81615a8f565b9050919050565b600081519050615ae181613a9d565b92915050565b600060208284031215615afd57615afc61383a565b5b6000615b0b84828501615ad2565b91505092915050565b600081519050615b238161477b565b92915050565b600060208284031215615b3f57615b3e61383a565b5b6000615b4d84828501615b14565b91505092915050565b7f4f776e61626c653a2063616c6c6572206973206e6f7420746865206f776e6572600082015250565b6000615b8c602083613c8e565b9150615b9782615b56565b602082019050919050565b60006020820190508181036000830152615bbb81615b7f565b9050919050565b600081519050919050565b6000819050602082019050919050565b615be681614a3f565b82525050565b6000615bf88383615bdd565b60208301905092915050565b6000602082019050919050565b6000615c1c82615bc2565b615c268185614a60565b9350615c3183615bcd565b8060005b83811015615c62578151615c498882615bec565b9750615c5483615c04565b925050600181019050615c35565b5085935050505092915050565b6000606082019050615c846000830186613d3e565b615c916020830185613b09565b8181036040830152615ca38184615c11565b9050949350505050565b7f436f756c64206e6f74207472616e736665722045544820746f2073706c697400600082015250565b6000615ce3601f83613c8e565b9150615cee82615cad565b602082019050919050565b60006020820190508181036000830152615d1281615cd6565b9050919050565b600060a082019050615d2e6000830188613d3e565b615d3b6020830187613d3e565b615d486040830186613b09565b615d556060830185613b09565b8181036080830152615d6781846150ca565b9050969550505050505056fea2646970667358221220c1a7ac9ad5569ace575a45cf84d5e39dfb164bb4b5b280bbc5117e8bceda4bb064736f6c63430008090033",
  "linkReferences": {},
  "deployedLinkReferences": {}
}