{
  "_format": "hh-sol-artifact-1",
  "contractName": "DCNTCrescendo",
  "sourceName": "contracts/DCNTCrescendo.sol",
  "abi": [
    {
      "anonymous": false,
      "inputs": [
        {
          "indexed": true,
          "internalType": "address",
          "name": "owner",
          "type": "address"
        },
        {
          "indexed": true,
          "internalType": "address",
          "name": "operator",
          "type": "address"
        },
        {
          "indexed": false,
          "internalType": "bool",
          "name": "approved",
          "type": "bool"
        }
      ],
      "name": "ApprovalForAll",
      "type": "event"
    },
    {
      "anonymous": false,
      "inputs": [
        {
          "indexed": true,
          "internalType": "address",
          "name": "sender",
          "type": "address"
        },
        {
          "indexed": false,
          "internalType": "uint256",
          "name": "amount",
          "type": "uint256"
        },
        {
          "indexed": false,
          "internalType": "uint256",
          "name": "id",
          "type": "uint256"
        },
        {
          "indexed": false,
          "internalType": "uint256",
          "name": "reimbursement",
          "type": "uint256"
        }
      ],
      "name": "CurvedBurn",
      "type": "event"
    },
    {
      "anonymous": false,
      "inputs": [
        {
          "indexed": true,
          "internalType": "address",
          "name": "sender",
          "type": "address"
        },
        {
          "indexed": false,
          "internalType": "uint256",
          "name": "amount",
          "type": "uint256"
        },
        {
          "indexed": false,
          "internalType": "uint256",
          "name": "id",
          "type": "uint256"
        },
        {
          "indexed": false,
          "internalType": "uint256",
          "name": "deposit",
          "type": "uint256"
        }
      ],
      "name": "CurvedMint",
      "type": "event"
    },
    {
      "anonymous": false,
      "inputs": [
        {
          "indexed": false,
          "internalType": "uint8",
          "name": "version",
          "type": "uint8"
        }
      ],
      "name": "Initialized",
      "type": "event"
    },
    {
      "anonymous": false,
      "inputs": [
        {
          "indexed": true,
          "internalType": "address",
          "name": "previousOwner",
          "type": "address"
        },
        {
          "indexed": true,
          "internalType": "address",
          "name": "newOwner",
          "type": "address"
        }
      ],
      "name": "OwnershipTransferred",
      "type": "event"
    },
    {
      "anonymous": false,
      "inputs": [
        {
          "indexed": true,
          "internalType": "address",
          "name": "operator",
          "type": "address"
        },
        {
          "indexed": true,
          "internalType": "address",
          "name": "from",
          "type": "address"
        },
        {
          "indexed": true,
          "internalType": "address",
          "name": "to",
          "type": "address"
        },
        {
          "indexed": false,
          "internalType": "uint256[]",
          "name": "ids",
          "type": "uint256[]"
        },
        {
          "indexed": false,
          "internalType": "uint256[]",
          "name": "amounts",
          "type": "uint256[]"
        }
      ],
      "name": "TransferBatch",
      "type": "event"
    },
    {
      "anonymous": false,
      "inputs": [
        {
          "indexed": true,
          "internalType": "address",
          "name": "operator",
          "type": "address"
        },
        {
          "indexed": true,
          "internalType": "address",
          "name": "from",
          "type": "address"
        },
        {
          "indexed": true,
          "internalType": "address",
          "name": "to",
          "type": "address"
        },
        {
          "indexed": false,
          "internalType": "uint256",
          "name": "id",
          "type": "uint256"
        },
        {
          "indexed": false,
          "internalType": "uint256",
          "name": "amount",
          "type": "uint256"
        }
      ],
      "name": "TransferSingle",
      "type": "event"
    },
    {
      "anonymous": false,
      "inputs": [
        {
          "indexed": false,
          "internalType": "string",
          "name": "value",
          "type": "string"
        },
        {
          "indexed": true,
          "internalType": "uint256",
          "name": "id",
          "type": "uint256"
        }
      ],
      "name": "URI",
      "type": "event"
    },
    {
      "inputs": [
        {
          "internalType": "address",
          "name": "",
          "type": "address"
        },
        {
          "internalType": "uint256",
          "name": "",
          "type": "uint256"
        }
      ],
      "name": "balanceOf",
      "outputs": [
        {
          "internalType": "uint256",
          "name": "",
          "type": "uint256"
        }
      ],
      "stateMutability": "view",
      "type": "function"
    },
    {
      "inputs": [
        {
          "internalType": "address[]",
          "name": "owners",
          "type": "address[]"
        },
        {
          "internalType": "uint256[]",
          "name": "ids",
          "type": "uint256[]"
        }
      ],
      "name": "balanceOfBatch",
      "outputs": [
        {
          "internalType": "uint256[]",
          "name": "balances",
          "type": "uint256[]"
        }
      ],
      "stateMutability": "view",
      "type": "function"
    },
    {
      "inputs": [
        {
          "internalType": "uint256",
          "name": "id",
          "type": "uint256"
        }
      ],
      "name": "buy",
      "outputs": [],
      "stateMutability": "payable",
      "type": "function"
    },
    {
      "inputs": [
        {
          "internalType": "uint256",
          "name": "amount",
          "type": "uint256"
        },
        {
          "internalType": "uint256",
          "name": "id",
          "type": "uint256"
        }
      ],
      "name": "calculateCurvedBurnReturn",
      "outputs": [
        {
          "internalType": "uint256",
          "name": "",
          "type": "uint256"
        }
      ],
      "stateMutability": "view",
      "type": "function"
    },
    {
      "inputs": [
        {
          "internalType": "uint256",
          "name": "amount",
          "type": "uint256"
        },
        {
          "internalType": "uint256",
          "name": "id",
          "type": "uint256"
        }
      ],
      "name": "calculateCurvedMintReturn",
      "outputs": [
        {
          "internalType": "uint256",
          "name": "",
          "type": "uint256"
        }
      ],
      "stateMutability": "view",
      "type": "function"
    },
    {
      "inputs": [],
      "name": "flipSaleState",
      "outputs": [],
      "stateMutability": "nonpayable",
      "type": "function"
    },
    {
      "inputs": [
        {
          "internalType": "address",
          "name": "_owner",
          "type": "address"
        },
        {
          "internalType": "string",
          "name": "name_",
          "type": "string"
        },
        {
          "internalType": "string",
          "name": "symbol_",
          "type": "string"
        },
        {
          "internalType": "string",
          "name": "uri_",
          "type": "string"
        },
        {
          "internalType": "uint256",
          "name": "_initialPrice",
          "type": "uint256"
        },
        {
          "internalType": "uint256",
          "name": "_step1",
          "type": "uint256"
        },
        {
          "internalType": "uint256",
          "name": "_step2",
          "type": "uint256"
        },
        {
          "internalType": "uint256",
          "name": "_hitch",
          "type": "uint256"
        },
        {
          "internalType": "uint256",
          "name": "_trNum",
          "type": "uint256"
        },
        {
          "internalType": "uint256",
          "name": "_trDenom",
          "type": "uint256"
        },
        {
          "internalType": "address payable",
          "name": "_payouts",
          "type": "address"
        }
      ],
      "name": "initialize",
      "outputs": [],
      "stateMutability": "nonpayable",
      "type": "function"
    },
    {
      "inputs": [
        {
          "internalType": "address",
          "name": "",
          "type": "address"
        },
        {
          "internalType": "address",
          "name": "",
          "type": "address"
        }
      ],
      "name": "isApprovedForAll",
      "outputs": [
        {
          "internalType": "bool",
          "name": "",
          "type": "bool"
        }
      ],
      "stateMutability": "view",
      "type": "function"
    },
    {
      "inputs": [],
      "name": "liquidity",
      "outputs": [
        {
          "internalType": "uint256",
          "name": "",
          "type": "uint256"
        }
      ],
      "stateMutability": "view",
      "type": "function"
    },
    {
      "inputs": [],
      "name": "name",
      "outputs": [
        {
          "internalType": "string",
          "name": "",
          "type": "string"
        }
      ],
      "stateMutability": "view",
      "type": "function"
    },
    {
      "inputs": [],
      "name": "owner",
      "outputs": [
        {
          "internalType": "address",
          "name": "",
          "type": "address"
        }
      ],
      "stateMutability": "view",
      "type": "function"
    },
    {
      "inputs": [],
      "name": "payouts",
      "outputs": [
        {
          "internalType": "address payable",
          "name": "",
          "type": "address"
        }
      ],
      "stateMutability": "view",
      "type": "function"
    },
    {
      "inputs": [],
      "name": "renounceOwnership",
      "outputs": [],
      "stateMutability": "nonpayable",
      "type": "function"
    },
    {
      "inputs": [],
      "name": "reserveAmt",
      "outputs": [
        {
          "internalType": "uint256",
          "name": "",
          "type": "uint256"
        }
      ],
      "stateMutability": "view",
      "type": "function"
    },
    {
      "inputs": [
        {
          "internalType": "address",
          "name": "from",
          "type": "address"
        },
        {
          "internalType": "address",
          "name": "to",
          "type": "address"
        },
        {
          "internalType": "uint256[]",
          "name": "ids",
          "type": "uint256[]"
        },
        {
          "internalType": "uint256[]",
          "name": "amounts",
          "type": "uint256[]"
        },
        {
          "internalType": "bytes",
          "name": "data",
          "type": "bytes"
        }
      ],
      "name": "safeBatchTransferFrom",
      "outputs": [],
      "stateMutability": "nonpayable",
      "type": "function"
    },
    {
      "inputs": [
        {
          "internalType": "address",
          "name": "from",
          "type": "address"
        },
        {
          "internalType": "address",
          "name": "to",
          "type": "address"
        },
        {
          "internalType": "uint256",
          "name": "id",
          "type": "uint256"
        },
        {
          "internalType": "uint256",
          "name": "amount",
          "type": "uint256"
        },
        {
          "internalType": "bytes",
          "name": "data",
          "type": "bytes"
        }
      ],
      "name": "safeTransferFrom",
      "outputs": [],
      "stateMutability": "nonpayable",
      "type": "function"
    },
    {
      "inputs": [],
      "name": "saleIsActive",
      "outputs": [
        {
          "internalType": "bool",
          "name": "",
          "type": "bool"
        }
      ],
      "stateMutability": "view",
      "type": "function"
    },
    {
      "inputs": [
        {
          "internalType": "uint256",
          "name": "id",
          "type": "uint256"
        }
      ],
      "name": "sell",
      "outputs": [],
      "stateMutability": "nonpayable",
      "type": "function"
    },
    {
      "inputs": [
        {
          "internalType": "address",
          "name": "operator",
          "type": "address"
        },
        {
          "internalType": "bool",
          "name": "approved",
          "type": "bool"
        }
      ],
      "name": "setApprovalForAll",
      "outputs": [],
      "stateMutability": "nonpayable",
      "type": "function"
    },
    {
      "inputs": [
        {
          "internalType": "bytes4",
          "name": "interfaceId",
          "type": "bytes4"
        }
      ],
      "name": "supportsInterface",
      "outputs": [
        {
          "internalType": "bool",
          "name": "",
          "type": "bool"
        }
      ],
      "stateMutability": "view",
      "type": "function"
    },
    {
      "inputs": [],
      "name": "symbol",
      "outputs": [
        {
          "internalType": "string",
          "name": "",
          "type": "string"
        }
      ],
      "stateMutability": "view",
      "type": "function"
    },
    {
      "inputs": [
        {
          "internalType": "uint256",
          "name": "id",
          "type": "uint256"
        }
      ],
      "name": "totalSupply",
      "outputs": [
        {
          "internalType": "uint256",
          "name": "",
          "type": "uint256"
        }
      ],
      "stateMutability": "view",
      "type": "function"
    },
    {
      "inputs": [
        {
          "internalType": "address",
          "name": "newOwner",
          "type": "address"
        }
      ],
      "name": "transferOwnership",
      "outputs": [],
      "stateMutability": "nonpayable",
      "type": "function"
    },
    {
      "inputs": [
        {
          "internalType": "string",
          "name": "uri_",
          "type": "string"
        }
      ],
      "name": "updateUri",
      "outputs": [],
      "stateMutability": "nonpayable",
      "type": "function"
    },
    {
      "inputs": [
        {
          "internalType": "uint256",
          "name": "",
          "type": "uint256"
        }
      ],
      "name": "uri",
      "outputs": [
        {
          "internalType": "string",
          "name": "",
          "type": "string"
        }
      ],
      "stateMutability": "view",
      "type": "function"
    },
    {
      "inputs": [],
      "name": "withdrawDividend",
      "outputs": [],
      "stateMutability": "nonpayable",
      "type": "function"
    },
    {
      "inputs": [],
      "name": "withdrawFund",
      "outputs": [],
      "stateMutability": "nonpayable",
      "type": "function"
    }
  ],
  "bytecode": "0x60806040526000600d556000600e60006101000a81548160ff0219169083151502179055503480156200003157600080fd5b5062000052620000466200005860201b60201c565b6200006060201b60201c565b62000123565b600033905090565b600060028054906101000a900473ffffffffffffffffffffffffffffffffffffffff169050816002806101000a81548173ffffffffffffffffffffffffffffffffffffffff021916908373ffffffffffffffffffffffffffffffffffffffff1602179055508173ffffffffffffffffffffffffffffffffffffffff168173ffffffffffffffffffffffffffffffffffffffff167f8be0079c531659141344cd1fd0a4f28419497f9722a3daafe3b4186f6b6457e060405160405180910390a35050565b613b6580620001336000396000f3fe60806040526004361061019b5760003560e01c8063a22cb465116100ec578063e07fa3c11161008a578063eb8d244411610064578063eb8d244414610592578063ee37778d146105bd578063f242432a146105fa578063f2fde38b146106235761019b565b8063e07fa3c114610515578063e4849b321461052c578063e985e9c5146105555761019b565b8063af548ffb116100c6578063af548ffb14610468578063ba8e7a3b14610493578063bd85b039146104bc578063d96a094a146104f95761019b565b8063a22cb465146103d7578063a247bc3214610400578063a3111abd1461042b5761019b565b806334918dfd116101595780636a474002116101335780636a47400214610353578063715018a61461036a5780638da5cb5b1461038157806395d89b41146103ac5761019b565b806334918dfd146102d65780634e1273f4146102ed578063570b3c6a1461032a5761019b565b8062fdd58e146101a057806301ffc9a7146101dd57806306fdde031461021a5780630e89341c146102455780631a686502146102825780632eb2c2d6146102ad575b600080fd5b3480156101ac57600080fd5b506101c760048036038101906101c2919061253b565b61064c565b6040516101d4919061258a565b60405180910390f35b3480156101e957600080fd5b5061020460048036038101906101ff91906125fd565b610671565b6040516102119190612645565b60405180910390f35b34801561022657600080fd5b5061022f610703565b60405161023c91906126f9565b60405180910390f35b34801561025157600080fd5b5061026c6004803603810190610267919061271b565b610795565b60405161027991906126f9565b60405180910390f35b34801561028e57600080fd5b50610297610829565b6040516102a4919061258a565b60405180910390f35b3480156102b957600080fd5b506102d460048036038101906102cf9190612803565b610858565b005b3480156102e257600080fd5b506102eb610cc3565b005b3480156102f957600080fd5b50610314600480360381019061030f9190612935565b610cf7565b6040516103219190612a74565b60405180910390f35b34801561033657600080fd5b50610351600480360381019061034c9190612bc6565b610e60565b005b34801561035f57600080fd5b50610368610e74565b005b34801561037657600080fd5b5061037f610f78565b005b34801561038d57600080fd5b50610396610f8c565b6040516103a39190612c1e565b60405180910390f35b3480156103b857600080fd5b506103c1610fb4565b6040516103ce91906126f9565b60405180910390f35b3480156103e357600080fd5b506103fe60048036038101906103f99190612c65565b611046565b005b34801561040c57600080fd5b50610415611143565b6040516104229190612cc6565b60405180910390f35b34801561043757600080fd5b50610452600480360381019061044d9190612ce1565b611169565b60405161045f919061258a565b60405180910390f35b34801561047457600080fd5b5061047d6111ca565b60405161048a919061258a565b60405180910390f35b34801561049f57600080fd5b506104ba60048036038101906104b59190612d4d565b611206565b005b3480156104c857600080fd5b506104e360048036038101906104de919061271b565b61140a565b6040516104f0919061258a565b60405180910390f35b610513600480360381019061050e919061271b565b611427565b005b34801561052157600080fd5b5061052a6116e6565b005b34801561053857600080fd5b50610553600480360381019061054e919061271b565b611737565b005b34801561056157600080fd5b5061057c60048036038101906105779190612e95565b611a15565b6040516105899190612645565b60405180910390f35b34801561059e57600080fd5b506105a7611a44565b6040516105b49190612645565b60405180910390f35b3480156105c957600080fd5b506105e460048036038101906105df9190612ce1565b611a57565b6040516105f1919061258a565b60405180910390f35b34801561060657600080fd5b50610621600480360381019061061c9190612ed5565b611adf565b005b34801561062f57600080fd5b5061064a60048036038101906106459190612f6f565b611ea1565b005b6000602052816000526040600020602052806000526040600020600091509150505481565b60006301ffc9a760e01b827bffffffffffffffffffffffffffffffffffffffffffffffffffffffff191614806106cc575063d9b67a2660e01b827bffffffffffffffffffffffffffffffffffffffffffffffffffffffff1916145b806106fc5750630e89341c60e01b827bffffffffffffffffffffffffffffffffffffffffffffffffffffffff1916145b9050919050565b60606003805461071290612fcb565b80601f016020809104026020016040519081016040528092919081815260200182805461073e90612fcb565b801561078b5780601f106107605761010080835404028352916020019161078b565b820191906000526020600020905b81548152906001019060200180831161076e57829003601f168201915b5050505050905090565b6060600580546107a490612fcb565b80601f01602080910402602001604051908101604052809291908181526020018280546107d090612fcb565b801561081d5780601f106107f25761010080835404028352916020019161081d565b820191906000526020600020905b81548152906001019060200180831161080057829003601f168201915b50505050509050919050565b6000600a54600d544761083c919061302c565b6009546108499190613082565b610853919061310b565b905090565b8383905086869050146108a0576040517f08c379a000000000000000000000000000000000000000000000000000000000815260040161089790613188565b60405180910390fd5b8773ffffffffffffffffffffffffffffffffffffffff163373ffffffffffffffffffffffffffffffffffffffff1614806109605750600160008973ffffffffffffffffffffffffffffffffffffffff1673ffffffffffffffffffffffffffffffffffffffff16815260200190815260200160002060003373ffffffffffffffffffffffffffffffffffffffff1673ffffffffffffffffffffffffffffffffffffffff16815260200190815260200160002060009054906101000a900460ff165b61099f576040517f08c379a0000000000000000000000000000000000000000000000000000000008152600401610996906131f4565b60405180910390fd5b60008060005b88889050811015610abf578888828181106109c3576109c2613214565b5b9050602002013592508686828181106109df576109de613214565b5b905060200201359150816000808d73ffffffffffffffffffffffffffffffffffffffff1673ffffffffffffffffffffffffffffffffffffffff16815260200190815260200160002060008581526020019081526020016000206000828254610a479190613243565b92505081905550816000808c73ffffffffffffffffffffffffffffffffffffffff1673ffffffffffffffffffffffffffffffffffffffff16815260200190815260200160002060008581526020019081526020016000206000828254610aad919061302c565b925050819055508060010190506109a5565b508873ffffffffffffffffffffffffffffffffffffffff168a73ffffffffffffffffffffffffffffffffffffffff163373ffffffffffffffffffffffffffffffffffffffff167f4a39dc06d4c0dbc64b70af90fd698a233a518aa5d07e595d983b8c0526c8f7fb8b8b8b8b604051610b3a94939291906132d8565b60405180910390a460008973ffffffffffffffffffffffffffffffffffffffff163b14610c465763bc197c8160e01b7bffffffffffffffffffffffffffffffffffffffffffffffffffffffff19168973ffffffffffffffffffffffffffffffffffffffff1663bc197c81338d8c8c8c8c8c8c6040518963ffffffff1660e01b8152600401610bcf989796959493929190613351565b602060405180830381600087803b158015610be957600080fd5b505af1158015610bfd573d6000803e3d6000fd5b505050506040513d601f19601f82011682018060405250810190610c2191906133d4565b7bffffffffffffffffffffffffffffffffffffffffffffffffffffffff191614610c78565b600073ffffffffffffffffffffffffffffffffffffffff168973ffffffffffffffffffffffffffffffffffffffff1614155b610cb7576040517f08c379a0000000000000000000000000000000000000000000000000000000008152600401610cae9061344d565b60405180910390fd5b50505050505050505050565b610ccb611f25565b600e60009054906101000a900460ff1615600e60006101000a81548160ff021916908315150217905550565b6060828290508585905014610d41576040517f08c379a0000000000000000000000000000000000000000000000000000000008152600401610d3890613188565b60405180910390fd5b8484905067ffffffffffffffff811115610d5e57610d5d612a9b565b5b604051908082528060200260200182016040528015610d8c5781602001602082028036833780820191505090505b50905060005b85859050811015610e5757600080878784818110610db357610db2613214565b5b9050602002016020810190610dc89190612f6f565b73ffffffffffffffffffffffffffffffffffffffff1673ffffffffffffffffffffffffffffffffffffffff1681526020019081526020016000206000858584818110610e1757610e16613214565b5b90506020020135815260200190815260200160002054828281518110610e4057610e3f613214565b5b602002602001018181525050806001019050610d92565b50949350505050565b610e68611f25565b610e7181611fa3565b50565b6000600d54610e81610829565b610e8b9190613243565b905080600d6000828254610e9f919061302c565b925050819055506000600e60019054906101000a900473ffffffffffffffffffffffffffffffffffffffff1673ffffffffffffffffffffffffffffffffffffffff1682604051610eee9061349e565b60006040518083038185875af1925050503d8060008114610f2b576040519150601f19603f3d011682016040523d82523d6000602084013e610f30565b606091505b5050905080610f74576040517f08c379a0000000000000000000000000000000000000000000000000000000008152600401610f6b906134ff565b60405180910390fd5b5050565b610f80611f25565b610f8a6000611fbd565b565b600060028054906101000a900473ffffffffffffffffffffffffffffffffffffffff16905090565b606060048054610fc390612fcb565b80601f0160208091040260200160405190810160405280929190818152602001828054610fef90612fcb565b801561103c5780601f106110115761010080835404028352916020019161103c565b820191906000526020600020905b81548152906001019060200180831161101f57829003601f168201915b5050505050905090565b80600160003373ffffffffffffffffffffffffffffffffffffffff1673ffffffffffffffffffffffffffffffffffffffff16815260200190815260200160002060008473ffffffffffffffffffffffffffffffffffffffff1673ffffffffffffffffffffffffffffffffffffffff16815260200190815260200160002060006101000a81548160ff0219169083151502179055508173ffffffffffffffffffffffffffffffffffffffff163373ffffffffffffffffffffffffffffffffffffffff167f17307eab39ab6107e8899845ad3d59bd9653f200f220920489ca2b5937696c31836040516111379190612645565b60405180910390a35050565b600e60019054906101000a900473ffffffffffffffffffffffffffffffffffffffff1681565b6000600183146111ae576040517f08c379a00000000000000000000000000000000000000000000000000000000081526004016111a59061356b565b60405180910390fd5b600c600083815260200190815260200160002054905092915050565b6000600a54600d54476111dd919061302c565b600954600a546111ed9190613243565b6111f79190613082565b611201919061310b565b905090565b6000600260019054906101000a900460ff1615905080801561123a57506001600260009054906101000a900460ff1660ff16105b80611269575061124930612080565b15801561126857506001600260009054906101000a900460ff1660ff16145b5b6112a8576040517f08c379a000000000000000000000000000000000000000000000000000000000815260040161129f906135fd565b60405180910390fd5b6001600260006101000a81548160ff021916908360ff16021790555080156112e6576001600260016101000a81548160ff0219169083151502179055505b6112ef8c611fbd565b81600e60016101000a81548173ffffffffffffffffffffffffffffffffffffffff021916908373ffffffffffffffffffffffffffffffffffffffff16021790555087600c6000808152602001908152602001600020819055508660068190555085600781905550846008819055508360098190555082600a819055508a600390805190602001906113819291906123f0565b5089600490805190602001906113989291906123f0565b506113a289611fa3565b80156113fc576000600260016101000a81548160ff0219169083151502179055507f7f26b83ff96e1f2b6a682f133852f6798a09c465da95921460cefb384740249860016040516113f3919061366f565b60405180910390a15b505050505050505050505050565b6000600b6000838152602001908152602001600020549050919050565b600e60009054906101000a900460ff16611476576040517f08c379a000000000000000000000000000000000000000000000000000000000815260040161146d906136d6565b60405180910390fd5b6000611483600183611169565b9050803410156114c8576040517f08c379a00000000000000000000000000000000000000000000000000000000081526004016114bf90613742565b60405180910390fd5b6000821461150b576040517f08c379a0000000000000000000000000000000000000000000000000000000008152600401611502906137ae565b60405180910390fd5b600081346115199190613243565b11156115d85760003373ffffffffffffffffffffffffffffffffffffffff1682346115449190613243565b6040516115509061349e565b60006040518083038185875af1925050503d806000811461158d576040519150601f19603f3d011682016040523d82523d6000602084013e611592565b606091505b50509050806115d6576040517f08c379a00000000000000000000000000000000000000000000000000000000081526004016115cd906134ff565b60405180910390fd5b505b6115f433836001604051806020016040528060008152506120a3565b6001600b60008481526020019081526020016000206000828254611618919061302c565b925050819055503373ffffffffffffffffffffffffffffffffffffffff167f25ba90957e661d6984db35cb313f752c45b1b67a3252e45d3f260a00fff0d7196001848460405161166a939291906137ff565b60405180910390a260085461167e8361140a565b10156116b557600654600c600084815260200190815260200160002060008282546116a9919061302c565b925050819055506116e2565b600754600c600084815260200190815260200160002060008282546116da919061302c565b925050819055505b5050565b6116ee611f25565b3373ffffffffffffffffffffffffffffffffffffffff166108fc479081150290604051600060405180830381858888f19350505050158015611734573d6000803e3d6000fd5b50565b600e60009054906101000a900460ff16611786576040517f08c379a000000000000000000000000000000000000000000000000000000000815260040161177d90613882565b60405180910390fd5b600081146117c9576040517f08c379a00000000000000000000000000000000000000000000000000000000081526004016117c0906137ae565b60405180910390fd5b60006117d6600183611a57565b905060008060003373ffffffffffffffffffffffffffffffffffffffff1673ffffffffffffffffffffffffffffffffffffffff1681526020019081526020016000206000848152602001908152602001600020541161186a576040517f08c379a0000000000000000000000000000000000000000000000000000000008152600401611861906138ee565b60405180910390fd5b611876338360016122fe565b6001600b6000848152602001908152602001600020600082825461189a9190613243565b9250508190555060003373ffffffffffffffffffffffffffffffffffffffff16826040516118c79061349e565b60006040518083038185875af1925050503d8060008114611904576040519150601f19603f3d011682016040523d82523d6000602084013e611909565b606091505b505090508061194d576040517f08c379a0000000000000000000000000000000000000000000000000000000008152600401611944906134ff565b60405180910390fd5b3373ffffffffffffffffffffffffffffffffffffffff167f68294b5fb4234239b694f5ef768a13b93132c838ecd88673e56a4caa8089b91960018585604051611998939291906137ff565b60405180910390a26008546119ac8461140a565b10156119e357600654600c600085815260200190815260200160002060008282546119d79190613243565b92505081905550611a10565b600754600c60008581526020019081526020016000206000828254611a089190613243565b925050819055505b505050565b60016020528160005260406000206020528060005260406000206000915091509054906101000a900460ff1681565b600e60009054906101000a900460ff1681565b600060018314611a9c576040517f08c379a0000000000000000000000000000000000000000000000000000000008152600401611a939061356b565b60405180910390fd5b600a54600c600084815260200190815260200160002054600954600a54611ac39190613243565b611acd9190613082565b611ad7919061310b565b905092915050565b8573ffffffffffffffffffffffffffffffffffffffff163373ffffffffffffffffffffffffffffffffffffffff161480611b9f5750600160008773ffffffffffffffffffffffffffffffffffffffff1673ffffffffffffffffffffffffffffffffffffffff16815260200190815260200160002060003373ffffffffffffffffffffffffffffffffffffffff1673ffffffffffffffffffffffffffffffffffffffff16815260200190815260200160002060009054906101000a900460ff165b611bde576040517f08c379a0000000000000000000000000000000000000000000000000000000008152600401611bd5906131f4565b60405180910390fd5b826000808873ffffffffffffffffffffffffffffffffffffffff1673ffffffffffffffffffffffffffffffffffffffff16815260200190815260200160002060008681526020019081526020016000206000828254611c3d9190613243565b92505081905550826000808773ffffffffffffffffffffffffffffffffffffffff1673ffffffffffffffffffffffffffffffffffffffff16815260200190815260200160002060008681526020019081526020016000206000828254611ca3919061302c565b925050819055508473ffffffffffffffffffffffffffffffffffffffff168673ffffffffffffffffffffffffffffffffffffffff163373ffffffffffffffffffffffffffffffffffffffff167fc3d58168c5ae7397731d063d5bbf3d657854427343f4c083240f7aacaa2d0f628787604051611d2092919061390e565b60405180910390a460008573ffffffffffffffffffffffffffffffffffffffff163b14611e285763f23a6e6160e01b7bffffffffffffffffffffffffffffffffffffffffffffffffffffffff19168573ffffffffffffffffffffffffffffffffffffffff1663f23a6e613389888888886040518763ffffffff1660e01b8152600401611db196959493929190613937565b602060405180830381600087803b158015611dcb57600080fd5b505af1158015611ddf573d6000803e3d6000fd5b505050506040513d601f19601f82011682018060405250810190611e0391906133d4565b7bffffffffffffffffffffffffffffffffffffffffffffffffffffffff191614611e5a565b600073ffffffffffffffffffffffffffffffffffffffff168573ffffffffffffffffffffffffffffffffffffffff1614155b611e99576040517f08c379a0000000000000000000000000000000000000000000000000000000008152600401611e909061344d565b60405180910390fd5b505050505050565b611ea9611f25565b600073ffffffffffffffffffffffffffffffffffffffff168173ffffffffffffffffffffffffffffffffffffffff161415611f19576040517f08c379a0000000000000000000000000000000000000000000000000000000008152600401611f1090613a05565b60405180910390fd5b611f2281611fbd565b50565b611f2d6123e8565b73ffffffffffffffffffffffffffffffffffffffff16611f4b610f8c565b73ffffffffffffffffffffffffffffffffffffffff1614611fa1576040517f08c379a0000000000000000000000000000000000000000000000000000000008152600401611f9890613a71565b60405180910390fd5b565b8060059080519060200190611fb99291906123f0565b5050565b600060028054906101000a900473ffffffffffffffffffffffffffffffffffffffff169050816002806101000a81548173ffffffffffffffffffffffffffffffffffffffff021916908373ffffffffffffffffffffffffffffffffffffffff1602179055508173ffffffffffffffffffffffffffffffffffffffff168173ffffffffffffffffffffffffffffffffffffffff167f8be0079c531659141344cd1fd0a4f28419497f9722a3daafe3b4186f6b6457e060405160405180910390a35050565b6000808273ffffffffffffffffffffffffffffffffffffffff163b119050919050565b816000808673ffffffffffffffffffffffffffffffffffffffff1673ffffffffffffffffffffffffffffffffffffffff16815260200190815260200160002060008581526020019081526020016000206000828254612102919061302c565b925050819055508373ffffffffffffffffffffffffffffffffffffffff16600073ffffffffffffffffffffffffffffffffffffffff163373ffffffffffffffffffffffffffffffffffffffff167fc3d58168c5ae7397731d063d5bbf3d657854427343f4c083240f7aacaa2d0f62868660405161218092919061390e565b60405180910390a460008473ffffffffffffffffffffffffffffffffffffffff163b146122875763f23a6e6160e01b7bffffffffffffffffffffffffffffffffffffffffffffffffffffffff19168473ffffffffffffffffffffffffffffffffffffffff1663f23a6e613360008787876040518663ffffffff1660e01b8152600401612210959493929190613ad5565b602060405180830381600087803b15801561222a57600080fd5b505af115801561223e573d6000803e3d6000fd5b505050506040513d601f19601f8201168201806040525081019061226291906133d4565b7bffffffffffffffffffffffffffffffffffffffffffffffffffffffff1916146122b9565b600073ffffffffffffffffffffffffffffffffffffffff168473ffffffffffffffffffffffffffffffffffffffff1614155b6122f8576040517f08c379a00000000000000000000000000000000000000000000000000000000081526004016122ef9061344d565b60405180910390fd5b50505050565b806000808573ffffffffffffffffffffffffffffffffffffffff1673ffffffffffffffffffffffffffffffffffffffff1681526020019081526020016000206000848152602001908152602001600020600082825461235d9190613243565b92505081905550600073ffffffffffffffffffffffffffffffffffffffff168373ffffffffffffffffffffffffffffffffffffffff163373ffffffffffffffffffffffffffffffffffffffff167fc3d58168c5ae7397731d063d5bbf3d657854427343f4c083240f7aacaa2d0f6285856040516123db92919061390e565b60405180910390a4505050565b600033905090565b8280546123fc90612fcb565b90600052602060002090601f01602090048101928261241e5760008555612465565b82601f1061243757805160ff1916838001178555612465565b82800160010185558215612465579182015b82811115612464578251825591602001919060010190612449565b5b5090506124729190612476565b5090565b5b8082111561248f576000816000905550600101612477565b5090565b6000604051905090565b600080fd5b600080fd5b600073ffffffffffffffffffffffffffffffffffffffff82169050919050565b60006124d2826124a7565b9050919050565b6124e2816124c7565b81146124ed57600080fd5b50565b6000813590506124ff816124d9565b92915050565b6000819050919050565b61251881612505565b811461252357600080fd5b50565b6000813590506125358161250f565b92915050565b600080604083850312156125525761255161249d565b5b6000612560858286016124f0565b925050602061257185828601612526565b9150509250929050565b61258481612505565b82525050565b600060208201905061259f600083018461257b565b92915050565b60007fffffffff0000000000000000000000000000000000000000000000000000000082169050919050565b6125da816125a5565b81146125e557600080fd5b50565b6000813590506125f7816125d1565b92915050565b6000602082840312156126135761261261249d565b5b6000612621848285016125e8565b91505092915050565b60008115159050919050565b61263f8161262a565b82525050565b600060208201905061265a6000830184612636565b92915050565b600081519050919050565b600082825260208201905092915050565b60005b8381101561269a57808201518184015260208101905061267f565b838111156126a9576000848401525b50505050565b6000601f19601f8301169050919050565b60006126cb82612660565b6126d5818561266b565b93506126e581856020860161267c565b6126ee816126af565b840191505092915050565b6000602082019050818103600083015261271381846126c0565b905092915050565b6000602082840312156127315761273061249d565b5b600061273f84828501612526565b91505092915050565b600080fd5b600080fd5b600080fd5b60008083601f84011261276d5761276c612748565b5b8235905067ffffffffffffffff81111561278a5761278961274d565b5b6020830191508360208202830111156127a6576127a5612752565b5b9250929050565b60008083601f8401126127c3576127c2612748565b5b8235905067ffffffffffffffff8111156127e0576127df61274d565b5b6020830191508360018202830111156127fc576127fb612752565b5b9250929050565b60008060008060008060008060a0898b0312156128235761282261249d565b5b60006128318b828c016124f0565b98505060206128428b828c016124f0565b975050604089013567ffffffffffffffff811115612863576128626124a2565b5b61286f8b828c01612757565b9650965050606089013567ffffffffffffffff811115612892576128916124a2565b5b61289e8b828c01612757565b9450945050608089013567ffffffffffffffff8111156128c1576128c06124a2565b5b6128cd8b828c016127ad565b92509250509295985092959890939650565b60008083601f8401126128f5576128f4612748565b5b8235905067ffffffffffffffff8111156129125761291161274d565b5b60208301915083602082028301111561292e5761292d612752565b5b9250929050565b6000806000806040858703121561294f5761294e61249d565b5b600085013567ffffffffffffffff81111561296d5761296c6124a2565b5b612979878288016128df565b9450945050602085013567ffffffffffffffff81111561299c5761299b6124a2565b5b6129a887828801612757565b925092505092959194509250565b600081519050919050565b600082825260208201905092915050565b6000819050602082019050919050565b6129eb81612505565b82525050565b60006129fd83836129e2565b60208301905092915050565b6000602082019050919050565b6000612a21826129b6565b612a2b81856129c1565b9350612a36836129d2565b8060005b83811015612a67578151612a4e88826129f1565b9750612a5983612a09565b925050600181019050612a3a565b5085935050505092915050565b60006020820190508181036000830152612a8e8184612a16565b905092915050565b600080fd5b7f4e487b7100000000000000000000000000000000000000000000000000000000600052604160045260246000fd5b612ad3826126af565b810181811067ffffffffffffffff82111715612af257612af1612a9b565b5b80604052505050565b6000612b05612493565b9050612b118282612aca565b919050565b600067ffffffffffffffff821115612b3157612b30612a9b565b5b612b3a826126af565b9050602081019050919050565b82818337600083830152505050565b6000612b69612b6484612b16565b612afb565b905082815260208101848484011115612b8557612b84612a96565b5b612b90848285612b47565b509392505050565b600082601f830112612bad57612bac612748565b5b8135612bbd848260208601612b56565b91505092915050565b600060208284031215612bdc57612bdb61249d565b5b600082013567ffffffffffffffff811115612bfa57612bf96124a2565b5b612c0684828501612b98565b91505092915050565b612c18816124c7565b82525050565b6000602082019050612c336000830184612c0f565b92915050565b612c428161262a565b8114612c4d57600080fd5b50565b600081359050612c5f81612c39565b92915050565b60008060408385031215612c7c57612c7b61249d565b5b6000612c8a858286016124f0565b9250506020612c9b85828601612c50565b9150509250929050565b6000612cb0826124a7565b9050919050565b612cc081612ca5565b82525050565b6000602082019050612cdb6000830184612cb7565b92915050565b60008060408385031215612cf857612cf761249d565b5b6000612d0685828601612526565b9250506020612d1785828601612526565b9150509250929050565b612d2a81612ca5565b8114612d3557600080fd5b50565b600081359050612d4781612d21565b92915050565b60008060008060008060008060008060006101608c8e031215612d7357612d7261249d565b5b6000612d818e828f016124f0565b9b505060208c013567ffffffffffffffff811115612da257612da16124a2565b5b612dae8e828f01612b98565b9a505060408c013567ffffffffffffffff811115612dcf57612dce6124a2565b5b612ddb8e828f01612b98565b99505060608c013567ffffffffffffffff811115612dfc57612dfb6124a2565b5b612e088e828f01612b98565b9850506080612e198e828f01612526565b97505060a0612e2a8e828f01612526565b96505060c0612e3b8e828f01612526565b95505060e0612e4c8e828f01612526565b945050610100612e5e8e828f01612526565b935050610120612e708e828f01612526565b925050610140612e828e828f01612d38565b9150509295989b509295989b9093969950565b60008060408385031215612eac57612eab61249d565b5b6000612eba858286016124f0565b9250506020612ecb858286016124f0565b9150509250929050565b60008060008060008060a08789031215612ef257612ef161249d565b5b6000612f0089828a016124f0565b9650506020612f1189828a016124f0565b9550506040612f2289828a01612526565b9450506060612f3389828a01612526565b935050608087013567ffffffffffffffff811115612f5457612f536124a2565b5b612f6089828a016127ad565b92509250509295509295509295565b600060208284031215612f8557612f8461249d565b5b6000612f93848285016124f0565b91505092915050565b7f4e487b7100000000000000000000000000000000000000000000000000000000600052602260045260246000fd5b60006002820490506001821680612fe357607f821691505b60208210811415612ff757612ff6612f9c565b5b50919050565b7f4e487b7100000000000000000000000000000000000000000000000000000000600052601160045260246000fd5b600061303782612505565b915061304283612505565b9250827fffffffffffffffffffffffffffffffffffffffffffffffffffffffffffffffff0382111561307757613076612ffd565b5b828201905092915050565b600061308d82612505565b915061309883612505565b9250817fffffffffffffffffffffffffffffffffffffffffffffffffffffffffffffffff04831182151516156130d1576130d0612ffd565b5b828202905092915050565b7f4e487b7100000000000000000000000000000000000000000000000000000000600052601260045260246000fd5b600061311682612505565b915061312183612505565b925082613131576131306130dc565b5b828204905092915050565b7f4c454e4754485f4d49534d415443480000000000000000000000000000000000600082015250565b6000613172600f8361266b565b915061317d8261313c565b602082019050919050565b600060208201905081810360008301526131a181613165565b9050919050565b7f4e4f545f415554484f52495a4544000000000000000000000000000000000000600082015250565b60006131de600e8361266b565b91506131e9826131a8565b602082019050919050565b6000602082019050818103600083015261320d816131d1565b9050919050565b7f4e487b7100000000000000000000000000000000000000000000000000000000600052603260045260246000fd5b600061324e82612505565b915061325983612505565b92508282101561326c5761326b612ffd565b5b828203905092915050565b600080fd5b600061328883856129c1565b93507f07ffffffffffffffffffffffffffffffffffffffffffffffffffffffffffffff8311156132bb576132ba613277565b5b6020830292506132cc838584612b47565b82840190509392505050565b600060408201905081810360008301526132f381868861327c565b9050818103602083015261330881848661327c565b905095945050505050565b600082825260208201905092915050565b60006133308385613313565b935061333d838584612b47565b613346836126af565b840190509392505050565b600060a082019050613366600083018b612c0f565b613373602083018a612c0f565b818103604083015261338681888a61327c565b9050818103606083015261339b81868861327c565b905081810360808301526133b0818486613324565b90509998505050505050505050565b6000815190506133ce816125d1565b92915050565b6000602082840312156133ea576133e961249d565b5b60006133f8848285016133bf565b91505092915050565b7f554e534146455f524543495049454e5400000000000000000000000000000000600082015250565b600061343760108361266b565b915061344282613401565b602082019050919050565b600060208201905081810360008301526134668161342a565b9050919050565b600081905092915050565b50565b600061348860008361346d565b915061349382613478565b600082019050919050565b60006134a98261347b565b9150819050919050565b7f4661696c656420746f2073656e64206574686572000000000000000000000000600082015250565b60006134e960148361266b565b91506134f4826134b3565b602082019050919050565b60006020820190508181036000830152613518816134dc565b9050919050565b7f6d617820616d6f756e7420697320310000000000000000000000000000000000600082015250565b6000613555600f8361266b565b91506135608261351f565b602082019050919050565b6000602082019050818103600083015261358481613548565b9050919050565b7f496e697469616c697a61626c653a20636f6e747261637420697320616c72656160008201527f647920696e697469616c697a6564000000000000000000000000000000000000602082015250565b60006135e7602e8361266b565b91506135f28261358b565b604082019050919050565b60006020820190508181036000830152613616816135da565b9050919050565b6000819050919050565b600060ff82169050919050565b6000819050919050565b600061365961365461364f8461361d565b613634565b613627565b9050919050565b6136698161363e565b82525050565b60006020820190506136846000830184613660565b92915050565b7f53616c65206d7573742062652061637469766520746f20627579000000000000600082015250565b60006136c0601a8361266b565b91506136cb8261368a565b602082019050919050565b600060208201905081810360008301526136ef816136b3565b9050919050565b7f496e73756666696369656e742066756e64730000000000000000000000000000600082015250565b600061372c60128361266b565b9150613737826136f6565b602082019050919050565b6000602082019050818103600083015261375b8161371f565b9050919050565b7f63757272656e746c79206f6e6c79206f6e652065646974696f6e000000000000600082015250565b6000613798601a8361266b565b91506137a382613762565b602082019050919050565b600060208201905081810360008301526137c78161378b565b9050919050565b60006137e96137e46137df8461361d565b613634565b612505565b9050919050565b6137f9816137ce565b82525050565b600060608201905061381460008301866137f0565b613821602083018561257b565b61382e604083018461257b565b949350505050565b7f53616c65206d7573742062652061637469766520746f2073656c6c0000000000600082015250565b600061386c601b8361266b565b915061387782613836565b602082019050919050565b6000602082019050818103600083015261389b8161385f565b9050919050565b7f6d757374206f776e206e667420746f2073656c6c000000000000000000000000600082015250565b60006138d860148361266b565b91506138e3826138a2565b602082019050919050565b60006020820190508181036000830152613907816138cb565b9050919050565b6000604082019050613923600083018561257b565b613930602083018461257b565b9392505050565b600060a08201905061394c6000830189612c0f565b6139596020830188612c0f565b613966604083018761257b565b613973606083018661257b565b8181036080830152613986818486613324565b9050979650505050505050565b7f4f776e61626c653a206e6577206f776e657220697320746865207a65726f206160008201527f6464726573730000000000000000000000000000000000000000000000000000602082015250565b60006139ef60268361266b565b91506139fa82613993565b604082019050919050565b60006020820190508181036000830152613a1e816139e2565b9050919050565b7f4f776e61626c653a2063616c6c6572206973206e6f7420746865206f776e6572600082015250565b6000613a5b60208361266b565b9150613a6682613a25565b602082019050919050565b60006020820190508181036000830152613a8a81613a4e565b9050919050565b600081519050919050565b6000613aa782613a91565b613ab18185613313565b9350613ac181856020860161267c565b613aca816126af565b840191505092915050565b600060a082019050613aea6000830188612c0f565b613af76020830187612c0f565b613b04604083018661257b565b613b11606083018561257b565b8181036080830152613b238184613a9c565b9050969550505050505056fea26469706673582212201011d8545ccc6a42388af1a4715834503475a8fc4a9f059d156622812f3138ea64736f6c63430008090033",
  "linkReferences": {},
  "deployedLinkReferences": {}
}