{
  "_format": "hh-sol-artifact-1",
  "contractName": "DCNT4907A",
  "sourceName": "contracts/DCNT4907A.sol",
  "abi": [
    {
      "inputs": [],
      "name": "ApprovalCallerNotOwnerNorApproved",
      "type": "error"
    },
    {
      "inputs": [],
      "name": "ApprovalQueryForNonexistentToken",
      "type": "error"
    },
    {
      "inputs": [],
      "name": "ApproveToCaller",
      "type": "error"
    },
    {
      "inputs": [],
      "name": "BalanceQueryForZeroAddress",
      "type": "error"
    },
    {
      "inputs": [],
      "name": "MintERC2309QuantityExceedsLimit",
      "type": "error"
    },
    {
      "inputs": [],
      "name": "MintToZeroAddress",
      "type": "error"
    },
    {
      "inputs": [],
      "name": "MintZeroQuantity",
      "type": "error"
    },
    {
      "inputs": [],
      "name": "OwnerQueryForNonexistentToken",
      "type": "error"
    },
    {
      "inputs": [],
      "name": "OwnershipNotInitializedForExtraData",
      "type": "error"
    },
    {
      "inputs": [],
      "name": "SetUserCallerNotOwnerNorApproved",
      "type": "error"
    },
    {
      "inputs": [],
      "name": "TransferCallerNotOwnerNorApproved",
      "type": "error"
    },
    {
      "inputs": [],
      "name": "TransferFromIncorrectOwner",
      "type": "error"
    },
    {
      "inputs": [],
      "name": "TransferToNonERC721ReceiverImplementer",
      "type": "error"
    },
    {
      "inputs": [],
      "name": "TransferToZeroAddress",
      "type": "error"
    },
    {
      "inputs": [],
      "name": "URIQueryForNonexistentToken",
      "type": "error"
    },
    {
      "anonymous": false,
      "inputs": [
        {
          "indexed": true,
          "internalType": "address",
          "name": "owner",
          "type": "address"
        },
        {
          "indexed": true,
          "internalType": "address",
          "name": "approved",
          "type": "address"
        },
        {
          "indexed": true,
          "internalType": "uint256",
          "name": "tokenId",
          "type": "uint256"
        }
      ],
      "name": "Approval",
      "type": "event"
    },
    {
      "anonymous": false,
      "inputs": [
        {
          "indexed": true,
          "internalType": "address",
          "name": "owner",
          "type": "address"
        },
        {
          "indexed": true,
          "internalType": "address",
          "name": "operator",
          "type": "address"
        },
        {
          "indexed": false,
          "internalType": "bool",
          "name": "approved",
          "type": "bool"
        }
      ],
      "name": "ApprovalForAll",
      "type": "event"
    },
    {
      "anonymous": false,
      "inputs": [
        {
          "indexed": true,
          "internalType": "uint256",
          "name": "fromTokenId",
          "type": "uint256"
        },
        {
          "indexed": false,
          "internalType": "uint256",
          "name": "toTokenId",
          "type": "uint256"
        },
        {
          "indexed": true,
          "internalType": "address",
          "name": "from",
          "type": "address"
        },
        {
          "indexed": true,
          "internalType": "address",
          "name": "to",
          "type": "address"
        }
      ],
      "name": "ConsecutiveTransfer",
      "type": "event"
    },
    {
      "anonymous": false,
      "inputs": [
        {
          "indexed": false,
          "internalType": "uint8",
          "name": "version",
          "type": "uint8"
        }
      ],
      "name": "Initialized",
      "type": "event"
    },
    {
      "anonymous": false,
      "inputs": [
        {
          "indexed": false,
          "internalType": "address",
          "name": "sender",
          "type": "address"
        },
        {
          "indexed": false,
          "internalType": "uint256",
          "name": "tokenId_",
          "type": "uint256"
        }
      ],
      "name": "Minted",
      "type": "event"
    },
    {
      "anonymous": false,
      "inputs": [
        {
          "indexed": true,
          "internalType": "address",
          "name": "previousOwner",
          "type": "address"
        },
        {
          "indexed": true,
          "internalType": "address",
          "name": "newOwner",
          "type": "address"
        }
      ],
      "name": "OwnershipTransferred",
      "type": "event"
    },
    {
      "anonymous": false,
      "inputs": [
        {
          "indexed": true,
          "internalType": "address",
          "name": "from",
          "type": "address"
        },
        {
          "indexed": true,
          "internalType": "address",
          "name": "to",
          "type": "address"
        },
        {
          "indexed": true,
          "internalType": "uint256",
          "name": "tokenId",
          "type": "uint256"
        }
      ],
      "name": "Transfer",
      "type": "event"
    },
    {
      "anonymous": false,
      "inputs": [
        {
          "indexed": true,
          "internalType": "uint256",
          "name": "tokenId",
          "type": "uint256"
        },
        {
          "indexed": true,
          "internalType": "address",
          "name": "user",
          "type": "address"
        },
        {
          "indexed": false,
          "internalType": "uint64",
          "name": "expires",
          "type": "uint64"
        }
      ],
      "name": "UpdateUser",
      "type": "event"
    },
    {
      "inputs": [],
      "name": "MAX_TOKENS",
      "outputs": [
        {
          "internalType": "uint256",
          "name": "",
          "type": "uint256"
        }
      ],
      "stateMutability": "view",
      "type": "function"
    },
    {
      "inputs": [
        {
          "internalType": "address",
          "name": "to",
          "type": "address"
        },
        {
          "internalType": "uint256",
          "name": "tokenId",
          "type": "uint256"
        }
      ],
      "name": "approve",
      "outputs": [],
      "stateMutability": "nonpayable",
      "type": "function"
    },
    {
      "inputs": [
        {
          "internalType": "address",
          "name": "owner",
          "type": "address"
        }
      ],
      "name": "balanceOf",
      "outputs": [
        {
          "internalType": "uint256",
          "name": "",
          "type": "uint256"
        }
      ],
      "stateMutability": "view",
      "type": "function"
    },
    {
      "inputs": [],
      "name": "baseURI",
      "outputs": [
        {
          "internalType": "string",
          "name": "",
          "type": "string"
        }
      ],
      "stateMutability": "view",
      "type": "function"
    },
    {
      "inputs": [],
      "name": "flipSaleState",
      "outputs": [],
      "stateMutability": "nonpayable",
      "type": "function"
    },
    {
      "inputs": [
        {
          "internalType": "uint256",
          "name": "tokenId",
          "type": "uint256"
        }
      ],
      "name": "getApproved",
      "outputs": [
        {
          "internalType": "address",
          "name": "",
          "type": "address"
        }
      ],
      "stateMutability": "view",
      "type": "function"
    },
    {
      "inputs": [
        {
          "internalType": "address",
          "name": "_owner",
          "type": "address"
        },
        {
          "internalType": "string",
          "name": "name",
          "type": "string"
        },
        {
          "internalType": "string",
          "name": "symbol",
          "type": "string"
        },
        {
          "internalType": "uint256",
          "name": "_maxTokens",
          "type": "uint256"
        },
        {
          "internalType": "uint256",
          "name": "_tokenPrice",
          "type": "uint256"
        },
        {
          "internalType": "uint256",
          "name": "_maxTokenPurchase",
          "type": "uint256"
        }
      ],
      "name": "initialize",
      "outputs": [],
      "stateMutability": "nonpayable",
      "type": "function"
    },
    {
      "inputs": [
        {
          "internalType": "address",
          "name": "owner",
          "type": "address"
        },
        {
          "internalType": "address",
          "name": "operator",
          "type": "address"
        }
      ],
      "name": "isApprovedForAll",
      "outputs": [
        {
          "internalType": "bool",
          "name": "",
          "type": "bool"
        }
      ],
      "stateMutability": "view",
      "type": "function"
    },
    {
      "inputs": [],
      "name": "maxTokenPurchase",
      "outputs": [
        {
          "internalType": "uint256",
          "name": "",
          "type": "uint256"
        }
      ],
      "stateMutability": "view",
      "type": "function"
    },
    {
      "inputs": [],
      "name": "metadataRenderer",
      "outputs": [
        {
          "internalType": "address",
          "name": "",
          "type": "address"
        }
      ],
      "stateMutability": "view",
      "type": "function"
    },
    {
      "inputs": [
        {
          "internalType": "uint256",
          "name": "numberOfTokens",
          "type": "uint256"
        }
      ],
      "name": "mint",
      "outputs": [],
      "stateMutability": "payable",
      "type": "function"
    },
    {
      "inputs": [],
      "name": "name",
      "outputs": [
        {
          "internalType": "string",
          "name": "",
          "type": "string"
        }
      ],
      "stateMutability": "view",
      "type": "function"
    },
    {
      "inputs": [],
      "name": "owner",
      "outputs": [
        {
          "internalType": "address",
          "name": "",
          "type": "address"
        }
      ],
      "stateMutability": "view",
      "type": "function"
    },
    {
      "inputs": [
        {
          "internalType": "uint256",
          "name": "tokenId",
          "type": "uint256"
        }
      ],
      "name": "ownerOf",
      "outputs": [
        {
          "internalType": "address",
          "name": "",
          "type": "address"
        }
      ],
      "stateMutability": "view",
      "type": "function"
    },
    {
      "inputs": [],
      "name": "renounceOwnership",
      "outputs": [],
      "stateMutability": "nonpayable",
      "type": "function"
    },
    {
      "inputs": [
        {
          "internalType": "uint256",
          "name": "numReserved",
          "type": "uint256"
        }
      ],
      "name": "reserveDCNT",
      "outputs": [],
      "stateMutability": "nonpayable",
      "type": "function"
    },
    {
      "inputs": [
        {
          "internalType": "address",
          "name": "from",
          "type": "address"
        },
        {
          "internalType": "address",
          "name": "to",
          "type": "address"
        },
        {
          "internalType": "uint256",
          "name": "tokenId",
          "type": "uint256"
        }
      ],
      "name": "safeTransferFrom",
      "outputs": [],
      "stateMutability": "nonpayable",
      "type": "function"
    },
    {
      "inputs": [
        {
          "internalType": "address",
          "name": "from",
          "type": "address"
        },
        {
          "internalType": "address",
          "name": "to",
          "type": "address"
        },
        {
          "internalType": "uint256",
          "name": "tokenId",
          "type": "uint256"
        },
        {
          "internalType": "bytes",
          "name": "_data",
          "type": "bytes"
        }
      ],
      "name": "safeTransferFrom",
      "outputs": [],
      "stateMutability": "nonpayable",
      "type": "function"
    },
    {
      "inputs": [],
      "name": "saleIsActive",
      "outputs": [
        {
          "internalType": "bool",
          "name": "",
          "type": "bool"
        }
      ],
      "stateMutability": "view",
      "type": "function"
    },
    {
      "inputs": [
        {
          "internalType": "address",
          "name": "operator",
          "type": "address"
        },
        {
          "internalType": "bool",
          "name": "approved",
          "type": "bool"
        }
      ],
      "name": "setApprovalForAll",
      "outputs": [],
      "stateMutability": "nonpayable",
      "type": "function"
    },
    {
      "inputs": [
        {
          "internalType": "string",
          "name": "uri",
          "type": "string"
        }
      ],
      "name": "setBaseURI",
      "outputs": [],
      "stateMutability": "nonpayable",
      "type": "function"
    },
    {
      "inputs": [
        {
          "internalType": "address",
          "name": "_metadataRenderer",
          "type": "address"
        }
      ],
      "name": "setMetadataRenderer",
      "outputs": [],
      "stateMutability": "nonpayable",
      "type": "function"
    },
    {
      "inputs": [
        {
          "internalType": "uint256",
          "name": "tokenId",
          "type": "uint256"
        },
        {
          "internalType": "address",
          "name": "user",
          "type": "address"
        },
        {
          "internalType": "uint64",
          "name": "expires",
          "type": "uint64"
        }
      ],
      "name": "setUser",
      "outputs": [],
      "stateMutability": "nonpayable",
      "type": "function"
    },
    {
      "inputs": [
        {
          "internalType": "bytes4",
          "name": "interfaceId",
          "type": "bytes4"
        }
      ],
      "name": "supportsInterface",
      "outputs": [
        {
          "internalType": "bool",
          "name": "",
          "type": "bool"
        }
      ],
      "stateMutability": "view",
      "type": "function"
    },
    {
      "inputs": [],
      "name": "symbol",
      "outputs": [
        {
          "internalType": "string",
          "name": "",
          "type": "string"
        }
      ],
      "stateMutability": "view",
      "type": "function"
    },
    {
      "inputs": [],
      "name": "tokenPrice",
      "outputs": [
        {
          "internalType": "uint256",
          "name": "",
          "type": "uint256"
        }
      ],
      "stateMutability": "view",
      "type": "function"
    },
    {
      "inputs": [
        {
          "internalType": "uint256",
          "name": "tokenId",
          "type": "uint256"
        }
      ],
      "name": "tokenURI",
      "outputs": [
        {
          "internalType": "string",
          "name": "",
          "type": "string"
        }
      ],
      "stateMutability": "view",
      "type": "function"
    },
    {
      "inputs": [],
      "name": "totalSupply",
      "outputs": [
        {
          "internalType": "uint256",
          "name": "",
          "type": "uint256"
        }
      ],
      "stateMutability": "view",
      "type": "function"
    },
    {
      "inputs": [
        {
          "internalType": "address",
          "name": "from",
          "type": "address"
        },
        {
          "internalType": "address",
          "name": "to",
          "type": "address"
        },
        {
          "internalType": "uint256",
          "name": "tokenId",
          "type": "uint256"
        }
      ],
      "name": "transferFrom",
      "outputs": [],
      "stateMutability": "nonpayable",
      "type": "function"
    },
    {
      "inputs": [
        {
          "internalType": "address",
          "name": "newOwner",
          "type": "address"
        }
      ],
      "name": "transferOwnership",
      "outputs": [],
      "stateMutability": "nonpayable",
      "type": "function"
    },
    {
      "inputs": [
        {
          "internalType": "uint256",
          "name": "tokenId",
          "type": "uint256"
        }
      ],
      "name": "userExpires",
      "outputs": [
        {
          "internalType": "uint256",
          "name": "",
          "type": "uint256"
        }
      ],
      "stateMutability": "view",
      "type": "function"
    },
    {
      "inputs": [
        {
          "internalType": "uint256",
          "name": "tokenId",
          "type": "uint256"
        }
      ],
      "name": "userOf",
      "outputs": [
        {
          "internalType": "address",
          "name": "",
          "type": "address"
        }
      ],
      "stateMutability": "view",
      "type": "function"
    },
    {
      "inputs": [],
      "name": "withdraw",
      "outputs": [],
      "stateMutability": "nonpayable",
      "type": "function"
    }
  ],
  "bytecode": "0x60806040526000600c60006101000a81548160ff0219169083151502179055503480156200002c57600080fd5b506200004d620000416200005360201b60201c565b6200005b60201b60201c565b62000121565b600033905090565b6000600860029054906101000a900473ffffffffffffffffffffffffffffffffffffffff16905081600860026101000a81548173ffffffffffffffffffffffffffffffffffffffff021916908373ffffffffffffffffffffffffffffffffffffffff1602179055508173ffffffffffffffffffffffffffffffffffffffff168173ffffffffffffffffffffffffffffffffffffffff167f8be0079c531659141344cd1fd0a4f28419497f9722a3daafe3b4186f6b6457e060405160405180910390a35050565b6135c080620001316000396000f3fe6080604052600436106101ee5760003560e01c8063715018a61161010d578063b88d4fde116100a0578063e985e9c51161006f578063e985e9c5146106c8578063eb8d244414610705578063f2fde38b14610730578063f47c84c514610759578063fd4fe8a814610784576101ee565b8063b88d4fde146105fc578063c2f1f14a14610625578063c87b56dd14610662578063e030565e1461069f576101ee565b806395d89b41116100dc57806395d89b4114610563578063a0712d681461058e578063a22cb465146105aa578063a3685b85146105d3576101ee565b8063715018a6146104b95780637ff9b596146104d05780638da5cb5b146104fb5780638fc88c4814610526576101ee565b80633ccfd60b116101855780636c0360eb116101545780636c0360eb146103fd5780636c1951ae14610428578063703199701461045157806370a082311461047c576101ee565b80633ccfd60b1461035757806342842e0e1461036e57806355f804b3146103975780636352211e146103c0576101ee565b806309aa3dcf116101c157806309aa3dcf146102c157806318160ddd146102ec57806323b872dd1461031757806334918dfd14610340576101ee565b806301ffc9a7146101f357806306fdde0314610230578063081812fc1461025b578063095ea7b314610298575b600080fd5b3480156101ff57600080fd5b5061021a60048036038101906102159190612600565b6107ad565b6040516102279190612648565b60405180910390f35b34801561023c57600080fd5b506102456107bf565b60405161025291906126fc565b60405180910390f35b34801561026757600080fd5b50610282600480360381019061027d9190612754565b610851565b60405161028f91906127c2565b60405180910390f35b3480156102a457600080fd5b506102bf60048036038101906102ba9190612809565b6108d0565b005b3480156102cd57600080fd5b506102d6610a14565b6040516102e39190612858565b60405180910390f35b3480156102f857600080fd5b50610301610a1a565b60405161030e9190612858565b60405180910390f35b34801561032357600080fd5b5061033e60048036038101906103399190612873565b610a31565b005b34801561034c57600080fd5b50610355610d56565b005b34801561036357600080fd5b5061036c610d8a565b005b34801561037a57600080fd5b5061039560048036038101906103909190612873565b610ddb565b005b3480156103a357600080fd5b506103be60048036038101906103b991906129fb565b610dfb565b005b3480156103cc57600080fd5b506103e760048036038101906103e29190612754565b610e1d565b6040516103f491906127c2565b60405180910390f35b34801561040957600080fd5b50610412610e2f565b60405161041f91906126fc565b60405180910390f35b34801561043457600080fd5b5061044f600480360381019061044a9190612754565b610ebd565b005b34801561045d57600080fd5b50610466610f64565b60405161047391906127c2565b60405180910390f35b34801561048857600080fd5b506104a3600480360381019061049e9190612a44565b610f8a565b6040516104b09190612858565b60405180910390f35b3480156104c557600080fd5b506104ce611043565b005b3480156104dc57600080fd5b506104e5611057565b6040516104f29190612858565b60405180910390f35b34801561050757600080fd5b5061051061105d565b60405161051d91906127c2565b60405180910390f35b34801561053257600080fd5b5061054d60048036038101906105489190612754565b611087565b60405161055a9190612858565b60405180910390f35b34801561056f57600080fd5b506105786110a8565b60405161058591906126fc565b60405180910390f35b6105a860048036038101906105a39190612754565b61113a565b005b3480156105b657600080fd5b506105d160048036038101906105cc9190612a9d565b611331565b005b3480156105df57600080fd5b506105fa60048036038101906105f59190612add565b6114a9565b005b34801561060857600080fd5b50610623600480360381019061061e9190612c43565b611646565b005b34801561063157600080fd5b5061064c60048036038101906106479190612754565b6116b9565b60405161065991906127c2565b60405180910390f35b34801561066e57600080fd5b5061068960048036038101906106849190612754565b6116e5565b60405161069691906126fc565b60405180910390f35b3480156106ab57600080fd5b506106c660048036038101906106c19190612d06565b6116f7565b005b3480156106d457600080fd5b506106ef60048036038101906106ea9190612d59565b61185c565b6040516106fc9190612648565b60405180910390f35b34801561071157600080fd5b5061071a6118f0565b6040516107279190612648565b60405180910390f35b34801561073c57600080fd5b5061075760048036038101906107529190612a44565b611903565b005b34801561076557600080fd5b5061076e611987565b60405161077b9190612858565b60405180910390f35b34801561079057600080fd5b506107ab60048036038101906107a69190612a44565b61198d565b005b60006107b8826119d9565b9050919050565b6060600280546107ce90612dc8565b80601f01602080910402602001604051908101604052809291908181526020018280546107fa90612dc8565b80156108475780601f1061081c57610100808354040283529160200191610847565b820191906000526020600020905b81548152906001019060200180831161082a57829003601f168201915b5050505050905090565b600061085c82611a1b565b610892576040517fcf4700e400000000000000000000000000000000000000000000000000000000815260040160405180910390fd5b6006600083815260200190815260200160002060000160009054906101000a900473ffffffffffffffffffffffffffffffffffffffff169050919050565b60006108db82610e1d565b90508073ffffffffffffffffffffffffffffffffffffffff166108fc611a7a565b73ffffffffffffffffffffffffffffffffffffffff161461095f5761092881610923611a7a565b61185c565b61095e576040517fcfb3b94200000000000000000000000000000000000000000000000000000000815260040160405180910390fd5b5b826006600084815260200190815260200160002060000160006101000a81548173ffffffffffffffffffffffffffffffffffffffff021916908373ffffffffffffffffffffffffffffffffffffffff160217905550818373ffffffffffffffffffffffffffffffffffffffff168273ffffffffffffffffffffffffffffffffffffffff167f8c5be1e5ebec7d5bd14f71427d1e84f3dd0314c0f7b2291e5b200ac8c7c3b92560405160405180910390a4505050565b600b5481565b6000610a24611a82565b6001546000540303905090565b6000610a3c82611a87565b90508373ffffffffffffffffffffffffffffffffffffffff168173ffffffffffffffffffffffffffffffffffffffff1614610aa3576040517fa114810000000000000000000000000000000000000000000000000000000000815260040160405180910390fd5b600080610aaf84611b55565b91509150610ac58187610ac0611a7a565b611b7c565b610b1157610ada86610ad5611a7a565b61185c565b610b10576040517f59c896be00000000000000000000000000000000000000000000000000000000815260040160405180910390fd5b5b600073ffffffffffffffffffffffffffffffffffffffff168573ffffffffffffffffffffffffffffffffffffffff161415610b78576040517fea553b3400000000000000000000000000000000000000000000000000000000815260040160405180910390fd5b610b858686866001611bc0565b8015610b9057600082555b600560008773ffffffffffffffffffffffffffffffffffffffff1673ffffffffffffffffffffffffffffffffffffffff168152602001908152602001600020600081546001900391905081905550600560008673ffffffffffffffffffffffffffffffffffffffff1673ffffffffffffffffffffffffffffffffffffffff1681526020019081526020016000206000815460010191905081905550610c5e85610c3a888887611bc6565b7c020000000000000000000000000000000000000000000000000000000017611bee565b600460008681526020019081526020016000208190555060007c020000000000000000000000000000000000000000000000000000000084161415610ce6576000600185019050600060046000838152602001908152602001600020541415610ce4576000548114610ce3578360046000838152602001908152602001600020819055505b5b505b838573ffffffffffffffffffffffffffffffffffffffff168773ffffffffffffffffffffffffffffffffffffffff167fddf252ad1be2c89b69c2b068fc378daa952ba7f163c4a11628f55a4df523b3ef60405160405180910390a4610d4e8686866001611c19565b505050505050565b610d5e611c1f565b600c60009054906101000a900460ff1615600c60006101000a81548160ff021916908315150217905550565b610d92611c1f565b3373ffffffffffffffffffffffffffffffffffffffff166108fc479081150290604051600060405180830381858888f19350505050158015610dd8573d6000803e3d6000fd5b50565b610df683838360405180602001604052806000815250611646565b505050565b610e03611c1f565b80600d9080519060200190610e199291906124f1565b5050565b6000610e2882611a87565b9050919050565b600d8054610e3c90612dc8565b80601f0160208091040260200160405190810160405280929190818152602001828054610e6890612dc8565b8015610eb55780601f10610e8a57610100808354040283529160200191610eb5565b820191906000526020600020905b815481529060010190602001808311610e9857829003601f168201915b505050505081565b610ec5611c1f565b6000610ecf610a1a565b90506009548282610ee09190612e29565b10610f20576040517f08c379a0000000000000000000000000000000000000000000000000000000008152600401610f1790612ecb565b60405180910390fd5b60005b82811015610f5f57610f4c3360018385610f3d9190612e29565b610f479190612e29565b611c9d565b8080610f5790612eeb565b915050610f23565b505050565b600e60009054906101000a900473ffffffffffffffffffffffffffffffffffffffff1681565b60008073ffffffffffffffffffffffffffffffffffffffff168273ffffffffffffffffffffffffffffffffffffffff161415610ff2576040517f8f4eb60400000000000000000000000000000000000000000000000000000000815260040160405180910390fd5b67ffffffffffffffff600560008473ffffffffffffffffffffffffffffffffffffffff1673ffffffffffffffffffffffffffffffffffffffff16815260200190815260200160002054169050919050565b61104b611c1f565b6110556000611cbb565b565b600a5481565b6000600860029054906101000a900473ffffffffffffffffffffffffffffffffffffffff16905090565b600060a0600f600084815260200190815260200160002054901c9050919050565b6060600380546110b790612dc8565b80601f01602080910402602001604051908101604052809291908181526020018280546110e390612dc8565b80156111305780601f1061110557610100808354040283529160200191611130565b820191906000526020600020905b81548152906001019060200180831161111357829003601f168201915b5050505050905090565b6000611144610a1a565b9050600c60009054906101000a900460ff16611195576040517f08c379a000000000000000000000000000000000000000000000000000000000815260040161118c90612f80565b60405180910390fd5b60095482826111a49190612e29565b11156111e5576040517f08c379a00000000000000000000000000000000000000000000000000000000081526004016111dc90612ecb565b60405180910390fd5b60095481111561122a576040517f08c379a000000000000000000000000000000000000000000000000000000000815260040161122190612fec565b60405180910390fd5b600b5482111561126f576040517f08c379a000000000000000000000000000000000000000000000000000000000815260040161126690613058565b60405180910390fd5b81600a5461127d9190613078565b3410156112bf576040517f08c379a00000000000000000000000000000000000000000000000000000000081526004016112b69061311e565b60405180910390fd5b6112c93383611c9d565b60005b8281101561132c577f30385c845b448a36257a6a1716e6ad2e1bc2cbe333cde1e69fe849ad6511adfe33838061130190612eeb565b945060405161131192919061313e565b60405180910390a1808061132490612eeb565b9150506112cc565b505050565b611339611a7a565b73ffffffffffffffffffffffffffffffffffffffff168273ffffffffffffffffffffffffffffffffffffffff16141561139e576040517fb06307db00000000000000000000000000000000000000000000000000000000815260040160405180910390fd5b80600760006113ab611a7a565b73ffffffffffffffffffffffffffffffffffffffff1673ffffffffffffffffffffffffffffffffffffffff16815260200190815260200160002060008473ffffffffffffffffffffffffffffffffffffffff1673ffffffffffffffffffffffffffffffffffffffff16815260200190815260200160002060006101000a81548160ff0219169083151502179055508173ffffffffffffffffffffffffffffffffffffffff16611458611a7a565b73ffffffffffffffffffffffffffffffffffffffff167f17307eab39ab6107e8899845ad3d59bd9653f200f220920489ca2b5937696c318360405161149d9190612648565b60405180910390a35050565b6000600860019054906101000a900460ff161590508080156114dd57506001600860009054906101000a900460ff1660ff16105b8061150c57506114ec30611d81565b15801561150b57506001600860009054906101000a900460ff1660ff16145b5b61154b576040517f08c379a0000000000000000000000000000000000000000000000000000000008152600401611542906131d9565b60405180910390fd5b6001600860006101000a81548160ff021916908360ff1602179055508015611589576001600860016101000a81548160ff0219169083151502179055505b61159287611cbb565b85600290805190602001906115a89291906124f1565b5084600390805190602001906115bf9291906124f1565b506115c8611a82565b6000819055508360098190555082600a8190555081600b81905550801561163d576000600860016101000a81548160ff0219169083151502179055507f7f26b83ff96e1f2b6a682f133852f6798a09c465da95921460cefb38474024986001604051611634919061324b565b60405180910390a15b50505050505050565b611651848484610a31565b60008373ffffffffffffffffffffffffffffffffffffffff163b146116b35761167c84848484611da4565b6116b2576040517fd1a57ed600000000000000000000000000000000000000000000000000000000815260040160405180910390fd5b5b50505050565b600080600f6000848152602001908152602001600020549050804260a01b108102905080915050919050565b60606116f082611f04565b9050919050565b600061170284610e1d565b90508073ffffffffffffffffffffffffffffffffffffffff16611723611a7a565b73ffffffffffffffffffffffffffffffffffffffff16146117c95761174f8161174a611a7a565b61185c565b6117c85761175b611a7a565b73ffffffffffffffffffffffffffffffffffffffff1661177a85610851565b73ffffffffffffffffffffffffffffffffffffffff16146117c7576040517f4f1dd8e800000000000000000000000000000000000000000000000000000000815260040160405180910390fd5b5b5b8273ffffffffffffffffffffffffffffffffffffffff1660a08367ffffffffffffffff16901b17600f6000868152602001908152602001600020819055508273ffffffffffffffffffffffffffffffffffffffff16847f4e06b4e7000e659094299b3533b47b6aa8ad048e95e872d23d1f4ee55af89cfe8460405161184e9190613275565b60405180910390a350505050565b6000600760008473ffffffffffffffffffffffffffffffffffffffff1673ffffffffffffffffffffffffffffffffffffffff16815260200190815260200160002060008373ffffffffffffffffffffffffffffffffffffffff1673ffffffffffffffffffffffffffffffffffffffff16815260200190815260200160002060009054906101000a900460ff16905092915050565b600c60009054906101000a900460ff1681565b61190b611c1f565b600073ffffffffffffffffffffffffffffffffffffffff168173ffffffffffffffffffffffffffffffffffffffff16141561197b576040517f08c379a000000000000000000000000000000000000000000000000000000000815260040161197290613302565b60405180910390fd5b61198481611cbb565b50565b60095481565b611995611c1f565b80600e60006101000a81548173ffffffffffffffffffffffffffffffffffffffff021916908373ffffffffffffffffffffffffffffffffffffffff16021790555050565b60006119e482612063565b80611a14575063ad092b5c60e01b827bffffffffffffffffffffffffffffffffffffffffffffffffffffffff1916145b9050919050565b600081611a26611a82565b11158015611a35575060005482105b8015611a73575060007c0100000000000000000000000000000000000000000000000000000000600460008581526020019081526020016000205416145b9050919050565b600033905090565b600090565b60008082905080611a96611a82565b11611b1e57600054811015611b1d5760006004600083815260200190815260200160002054905060007c010000000000000000000000000000000000000000000000000000000082161415611b1b575b6000811415611b11576004600083600190039350838152602001908152602001600020549050611ae6565b8092505050611b50565b505b5b6040517fdf2d9b4200000000000000000000000000000000000000000000000000000000815260040160405180910390fd5b919050565b60008060006006600085815260200190815260200160002090508092508254915050915091565b600073ffffffffffffffffffffffffffffffffffffffff8316925073ffffffffffffffffffffffffffffffffffffffff821691508382148383141790509392505050565b50505050565b60008060e883901c905060e8611bdd8686846120f5565b62ffffff16901b9150509392505050565b600073ffffffffffffffffffffffffffffffffffffffff83169250814260a01b178317905092915050565b50505050565b611c276120fe565b73ffffffffffffffffffffffffffffffffffffffff16611c4561105d565b73ffffffffffffffffffffffffffffffffffffffff1614611c9b576040517f08c379a0000000000000000000000000000000000000000000000000000000008152600401611c929061336e565b60405180910390fd5b565b611cb7828260405180602001604052806000815250612106565b5050565b6000600860029054906101000a900473ffffffffffffffffffffffffffffffffffffffff16905081600860026101000a81548173ffffffffffffffffffffffffffffffffffffffff021916908373ffffffffffffffffffffffffffffffffffffffff1602179055508173ffffffffffffffffffffffffffffffffffffffff168173ffffffffffffffffffffffffffffffffffffffff167f8be0079c531659141344cd1fd0a4f28419497f9722a3daafe3b4186f6b6457e060405160405180910390a35050565b6000808273ffffffffffffffffffffffffffffffffffffffff163b119050919050565b60008373ffffffffffffffffffffffffffffffffffffffff1663150b7a02611dca611a7a565b8786866040518563ffffffff1660e01b8152600401611dec94939291906133e3565b602060405180830381600087803b158015611e0657600080fd5b505af1925050508015611e3757506040513d601f19601f82011682018060405250810190611e349190613444565b60015b611eb1573d8060008114611e67576040519150601f19603f3d011682016040523d82523d6000602084013e611e6c565b606091505b50600081511415611ea9576040517fd1a57ed600000000000000000000000000000000000000000000000000000000815260040160405180910390fd5b805181602001fd5b63150b7a0260e01b7bffffffffffffffffffffffffffffffffffffffffffffffffffffffff1916817bffffffffffffffffffffffffffffffffffffffffffffffffffffffff191614915050949350505050565b6060611f0f82611a1b565b611f45576040517fa14c4b5000000000000000000000000000000000000000000000000000000000815260040160405180910390fd5b600073ffffffffffffffffffffffffffffffffffffffff16600e60009054906101000a900473ffffffffffffffffffffffffffffffffffffffff1673ffffffffffffffffffffffffffffffffffffffff161461205257600e60009054906101000a900473ffffffffffffffffffffffffffffffffffffffff1673ffffffffffffffffffffffffffffffffffffffff1663c87b56dd836040518263ffffffff1660e01b8152600401611ff69190612858565b60006040518083038186803b15801561200e57600080fd5b505afa158015612022573d6000803e3d6000fd5b505050506040513d6000823e3d601f19601f8201168201806040525081019061204b91906134e1565b905061205e565b61205b826121a3565b90505b919050565b60006301ffc9a760e01b827bffffffffffffffffffffffffffffffffffffffffffffffffffffffff191614806120be57506380ac58cd60e01b827bffffffffffffffffffffffffffffffffffffffffffffffffffffffff1916145b806120ee5750635b5e139f60e01b827bffffffffffffffffffffffffffffffffffffffffffffffffffffffff1916145b9050919050565b60009392505050565b600033905090565b6121108383612242565b60008373ffffffffffffffffffffffffffffffffffffffff163b1461219e57600080549050600083820390505b6121506000868380600101945086611da4565b612186576040517fd1a57ed600000000000000000000000000000000000000000000000000000000815260040160405180910390fd5b81811061213d57816000541461219b57600080fd5b50505b505050565b60606121ae82611a1b565b6121e4576040517fa14c4b5000000000000000000000000000000000000000000000000000000000815260040160405180910390fd5b60006121ee6123ff565b905060008151141561220f576040518060200160405280600081525061223a565b8061221984612491565b60405160200161222a929190613566565b6040516020818303038152906040525b915050919050565b6000805490506000821415612283576040517fb562e8dd00000000000000000000000000000000000000000000000000000000815260040160405180910390fd5b6122906000848385611bc0565b600160406001901b178202600560008573ffffffffffffffffffffffffffffffffffffffff1673ffffffffffffffffffffffffffffffffffffffff16815260200190815260200160002060008282540192505081905550612307836122f86000866000611bc6565b612301856124e1565b17611bee565b6004600083815260200190815260200160002081905550600080838301905073ffffffffffffffffffffffffffffffffffffffff85169150828260007fddf252ad1be2c89b69c2b068fc378daa952ba7f163c4a11628f55a4df523b3ef600080a4600183015b8181146123a857808360007fddf252ad1be2c89b69c2b068fc378daa952ba7f163c4a11628f55a4df523b3ef600080a460018101905061236d565b5060008214156123e4576040517f2e07630000000000000000000000000000000000000000000000000000000000815260040160405180910390fd5b8060008190555050506123fa6000848385611c19565b505050565b6060600d805461240e90612dc8565b80601f016020809104026020016040519081016040528092919081815260200182805461243a90612dc8565b80156124875780601f1061245c57610100808354040283529160200191612487565b820191906000526020600020905b81548152906001019060200180831161246a57829003601f168201915b5050505050905090565b606060806040510190508060405280825b6001156124cd57600183039250600a81066030018353600a81049050806124c8576124cd565b6124a2565b508181036020830392508083525050919050565b60006001821460e11b9050919050565b8280546124fd90612dc8565b90600052602060002090601f01602090048101928261251f5760008555612566565b82601f1061253857805160ff1916838001178555612566565b82800160010185558215612566579182015b8281111561256557825182559160200191906001019061254a565b5b5090506125739190612577565b5090565b5b80821115612590576000816000905550600101612578565b5090565b6000604051905090565b600080fd5b600080fd5b60007fffffffff0000000000000000000000000000000000000000000000000000000082169050919050565b6125dd816125a8565b81146125e857600080fd5b50565b6000813590506125fa816125d4565b92915050565b6000602082840312156126165761261561259e565b5b6000612624848285016125eb565b91505092915050565b60008115159050919050565b6126428161262d565b82525050565b600060208201905061265d6000830184612639565b92915050565b600081519050919050565b600082825260208201905092915050565b60005b8381101561269d578082015181840152602081019050612682565b838111156126ac576000848401525b50505050565b6000601f19601f8301169050919050565b60006126ce82612663565b6126d8818561266e565b93506126e881856020860161267f565b6126f1816126b2565b840191505092915050565b6000602082019050818103600083015261271681846126c3565b905092915050565b6000819050919050565b6127318161271e565b811461273c57600080fd5b50565b60008135905061274e81612728565b92915050565b60006020828403121561276a5761276961259e565b5b60006127788482850161273f565b91505092915050565b600073ffffffffffffffffffffffffffffffffffffffff82169050919050565b60006127ac82612781565b9050919050565b6127bc816127a1565b82525050565b60006020820190506127d760008301846127b3565b92915050565b6127e6816127a1565b81146127f157600080fd5b50565b600081359050612803816127dd565b92915050565b600080604083850312156128205761281f61259e565b5b600061282e858286016127f4565b925050602061283f8582860161273f565b9150509250929050565b6128528161271e565b82525050565b600060208201905061286d6000830184612849565b92915050565b60008060006060848603121561288c5761288b61259e565b5b600061289a868287016127f4565b93505060206128ab868287016127f4565b92505060406128bc8682870161273f565b9150509250925092565b600080fd5b600080fd5b7f4e487b7100000000000000000000000000000000000000000000000000000000600052604160045260246000fd5b612908826126b2565b810181811067ffffffffffffffff82111715612927576129266128d0565b5b80604052505050565b600061293a612594565b905061294682826128ff565b919050565b600067ffffffffffffffff821115612966576129656128d0565b5b61296f826126b2565b9050602081019050919050565b82818337600083830152505050565b600061299e6129998461294b565b612930565b9050828152602081018484840111156129ba576129b96128cb565b5b6129c584828561297c565b509392505050565b600082601f8301126129e2576129e16128c6565b5b81356129f284826020860161298b565b91505092915050565b600060208284031215612a1157612a1061259e565b5b600082013567ffffffffffffffff811115612a2f57612a2e6125a3565b5b612a3b848285016129cd565b91505092915050565b600060208284031215612a5a57612a5961259e565b5b6000612a68848285016127f4565b91505092915050565b612a7a8161262d565b8114612a8557600080fd5b50565b600081359050612a9781612a71565b92915050565b60008060408385031215612ab457612ab361259e565b5b6000612ac2858286016127f4565b9250506020612ad385828601612a88565b9150509250929050565b60008060008060008060c08789031215612afa57612af961259e565b5b6000612b0889828a016127f4565b965050602087013567ffffffffffffffff811115612b2957612b286125a3565b5b612b3589828a016129cd565b955050604087013567ffffffffffffffff811115612b5657612b556125a3565b5b612b6289828a016129cd565b9450506060612b7389828a0161273f565b9350506080612b8489828a0161273f565b92505060a0612b9589828a0161273f565b9150509295509295509295565b600067ffffffffffffffff821115612bbd57612bbc6128d0565b5b612bc6826126b2565b9050602081019050919050565b6000612be6612be184612ba2565b612930565b905082815260208101848484011115612c0257612c016128cb565b5b612c0d84828561297c565b509392505050565b600082601f830112612c2a57612c296128c6565b5b8135612c3a848260208601612bd3565b91505092915050565b60008060008060808587031215612c5d57612c5c61259e565b5b6000612c6b878288016127f4565b9450506020612c7c878288016127f4565b9350506040612c8d8782880161273f565b925050606085013567ffffffffffffffff811115612cae57612cad6125a3565b5b612cba87828801612c15565b91505092959194509250565b600067ffffffffffffffff82169050919050565b612ce381612cc6565b8114612cee57600080fd5b50565b600081359050612d0081612cda565b92915050565b600080600060608486031215612d1f57612d1e61259e565b5b6000612d2d8682870161273f565b9350506020612d3e868287016127f4565b9250506040612d4f86828701612cf1565b9150509250925092565b60008060408385031215612d7057612d6f61259e565b5b6000612d7e858286016127f4565b9250506020612d8f858286016127f4565b9150509250929050565b7f4e487b7100000000000000000000000000000000000000000000000000000000600052602260045260246000fd5b60006002820490506001821680612de057607f821691505b60208210811415612df457612df3612d99565b5b50919050565b7f4e487b7100000000000000000000000000000000000000000000000000000000600052601160045260246000fd5b6000612e348261271e565b9150612e3f8361271e565b9250827fffffffffffffffffffffffffffffffffffffffffffffffffffffffffffffffff03821115612e7457612e73612dfa565b5b828201905092915050565b7f507572636861736520776f756c6420657863656564206d617820737570706c79600082015250565b6000612eb560208361266e565b9150612ec082612e7f565b602082019050919050565b60006020820190508181036000830152612ee481612ea8565b9050919050565b6000612ef68261271e565b91507fffffffffffffffffffffffffffffffffffffffffffffffffffffffffffffffff821415612f2957612f28612dfa565b5b600182019050919050565b7f53616c65206d7573742062652061637469766520746f206d696e740000000000600082015250565b6000612f6a601b8361266e565b9150612f7582612f34565b602082019050919050565b60006020820190508181036000830152612f9981612f5d565b9050919050565b7f534f4c44204f5554000000000000000000000000000000000000000000000000600082015250565b6000612fd660088361266e565b9150612fe182612fa0565b602082019050919050565b6000602082019050818103600083015261300581612fc9565b9050919050565b7f4578636565646564206d6178206e756d62657220706572206d696e7400000000600082015250565b6000613042601c8361266e565b915061304d8261300c565b602082019050919050565b6000602082019050818103600083015261307181613035565b9050919050565b60006130838261271e565b915061308e8361271e565b9250817fffffffffffffffffffffffffffffffffffffffffffffffffffffffffffffffff04831182151516156130c7576130c6612dfa565b5b828202905092915050565b7f496e73756666696369656e742066756e64730000000000000000000000000000600082015250565b600061310860128361266e565b9150613113826130d2565b602082019050919050565b60006020820190508181036000830152613137816130fb565b9050919050565b600060408201905061315360008301856127b3565b6131606020830184612849565b9392505050565b7f496e697469616c697a61626c653a20636f6e747261637420697320616c72656160008201527f647920696e697469616c697a6564000000000000000000000000000000000000602082015250565b60006131c3602e8361266e565b91506131ce82613167565b604082019050919050565b600060208201905081810360008301526131f2816131b6565b9050919050565b6000819050919050565b600060ff82169050919050565b6000819050919050565b600061323561323061322b846131f9565b613210565b613203565b9050919050565b6132458161321a565b82525050565b6000602082019050613260600083018461323c565b92915050565b61326f81612cc6565b82525050565b600060208201905061328a6000830184613266565b92915050565b7f4f776e61626c653a206e6577206f776e657220697320746865207a65726f206160008201527f6464726573730000000000000000000000000000000000000000000000000000602082015250565b60006132ec60268361266e565b91506132f782613290565b604082019050919050565b6000602082019050818103600083015261331b816132df565b9050919050565b7f4f776e61626c653a2063616c6c6572206973206e6f7420746865206f776e6572600082015250565b600061335860208361266e565b915061336382613322565b602082019050919050565b600060208201905081810360008301526133878161334b565b9050919050565b600081519050919050565b600082825260208201905092915050565b60006133b58261338e565b6133bf8185613399565b93506133cf81856020860161267f565b6133d8816126b2565b840191505092915050565b60006080820190506133f860008301876127b3565b61340560208301866127b3565b6134126040830185612849565b818103606083015261342481846133aa565b905095945050505050565b60008151905061343e816125d4565b92915050565b60006020828403121561345a5761345961259e565b5b60006134688482850161342f565b91505092915050565b600061348461347f8461294b565b612930565b9050828152602081018484840111156134a05761349f6128cb565b5b6134ab84828561267f565b509392505050565b600082601f8301126134c8576134c76128c6565b5b81516134d8848260208601613471565b91505092915050565b6000602082840312156134f7576134f661259e565b5b600082015167ffffffffffffffff811115613515576135146125a3565b5b613521848285016134b3565b91505092915050565b600081905092915050565b600061354082612663565b61354a818561352a565b935061355a81856020860161267f565b80840191505092915050565b60006135728285613535565b915061357e8284613535565b9150819050939250505056fea264697066735822122040e10564128dcdb4acbb2239188adc85f500564ede1cd3a7817d26bb74c5b5fc64736f6c63430008090033",
  "linkReferences": {},
  "deployedLinkReferences": {}
}