{
  "_format": "hh-sol-artifact-1",
  "contractName": "DCNT4907A",
  "sourceName": "contracts/DCNT4907A.sol",
  "abi": [
    {
      "inputs": [],
      "name": "ApprovalCallerNotOwnerNorApproved",
      "type": "error"
    },
    {
      "inputs": [],
      "name": "ApprovalQueryForNonexistentToken",
      "type": "error"
    },
    {
      "inputs": [],
      "name": "ApproveToCaller",
      "type": "error"
    },
    {
      "inputs": [],
      "name": "BalanceQueryForZeroAddress",
      "type": "error"
    },
    {
      "inputs": [],
      "name": "MintERC2309QuantityExceedsLimit",
      "type": "error"
    },
    {
      "inputs": [],
      "name": "MintToZeroAddress",
      "type": "error"
    },
    {
      "inputs": [],
      "name": "MintZeroQuantity",
      "type": "error"
    },
    {
      "inputs": [],
      "name": "OwnerQueryForNonexistentToken",
      "type": "error"
    },
    {
      "inputs": [],
      "name": "OwnershipNotInitializedForExtraData",
      "type": "error"
    },
    {
      "inputs": [],
      "name": "SetUserCallerNotOwnerNorApproved",
      "type": "error"
    },
    {
      "inputs": [],
      "name": "TransferCallerNotOwnerNorApproved",
      "type": "error"
    },
    {
      "inputs": [],
      "name": "TransferFromIncorrectOwner",
      "type": "error"
    },
    {
      "inputs": [],
      "name": "TransferToNonERC721ReceiverImplementer",
      "type": "error"
    },
    {
      "inputs": [],
      "name": "TransferToZeroAddress",
      "type": "error"
    },
    {
      "inputs": [],
      "name": "URIQueryForNonexistentToken",
      "type": "error"
    },
    {
      "anonymous": false,
      "inputs": [
        {
          "indexed": true,
          "internalType": "address",
          "name": "owner",
          "type": "address"
        },
        {
          "indexed": true,
          "internalType": "address",
          "name": "approved",
          "type": "address"
        },
        {
          "indexed": true,
          "internalType": "uint256",
          "name": "tokenId",
          "type": "uint256"
        }
      ],
      "name": "Approval",
      "type": "event"
    },
    {
      "anonymous": false,
      "inputs": [
        {
          "indexed": true,
          "internalType": "address",
          "name": "owner",
          "type": "address"
        },
        {
          "indexed": true,
          "internalType": "address",
          "name": "operator",
          "type": "address"
        },
        {
          "indexed": false,
          "internalType": "bool",
          "name": "approved",
          "type": "bool"
        }
      ],
      "name": "ApprovalForAll",
      "type": "event"
    },
    {
      "anonymous": false,
      "inputs": [
        {
          "indexed": true,
          "internalType": "uint256",
          "name": "fromTokenId",
          "type": "uint256"
        },
        {
          "indexed": false,
          "internalType": "uint256",
          "name": "toTokenId",
          "type": "uint256"
        },
        {
          "indexed": true,
          "internalType": "address",
          "name": "from",
          "type": "address"
        },
        {
          "indexed": true,
          "internalType": "address",
          "name": "to",
          "type": "address"
        }
      ],
      "name": "ConsecutiveTransfer",
      "type": "event"
    },
    {
      "anonymous": false,
      "inputs": [
        {
          "indexed": false,
          "internalType": "uint8",
          "name": "version",
          "type": "uint8"
        }
      ],
      "name": "Initialized",
      "type": "event"
    },
    {
      "anonymous": false,
      "inputs": [
        {
          "indexed": false,
          "internalType": "address",
          "name": "sender",
          "type": "address"
        },
        {
          "indexed": false,
          "internalType": "uint256",
          "name": "tokenId_",
          "type": "uint256"
        }
      ],
      "name": "Minted",
      "type": "event"
    },
    {
      "anonymous": false,
      "inputs": [
        {
          "indexed": true,
          "internalType": "address",
          "name": "previousOwner",
          "type": "address"
        },
        {
          "indexed": true,
          "internalType": "address",
          "name": "newOwner",
          "type": "address"
        }
      ],
      "name": "OwnershipTransferred",
      "type": "event"
    },
    {
      "anonymous": false,
      "inputs": [
        {
          "indexed": true,
          "internalType": "address",
          "name": "from",
          "type": "address"
        },
        {
          "indexed": true,
          "internalType": "address",
          "name": "to",
          "type": "address"
        },
        {
          "indexed": true,
          "internalType": "uint256",
          "name": "tokenId",
          "type": "uint256"
        }
      ],
      "name": "Transfer",
      "type": "event"
    },
    {
      "anonymous": false,
      "inputs": [
        {
          "indexed": true,
          "internalType": "uint256",
          "name": "tokenId",
          "type": "uint256"
        },
        {
          "indexed": true,
          "internalType": "address",
          "name": "user",
          "type": "address"
        },
        {
          "indexed": false,
          "internalType": "uint64",
          "name": "expires",
          "type": "uint64"
        }
      ],
      "name": "UpdateUser",
      "type": "event"
    },
    {
      "inputs": [],
      "name": "MAX_TOKENS",
      "outputs": [
        {
          "internalType": "uint256",
          "name": "",
          "type": "uint256"
        }
      ],
      "stateMutability": "view",
      "type": "function"
    },
    {
      "inputs": [
        {
          "internalType": "address",
          "name": "to",
          "type": "address"
        },
        {
          "internalType": "uint256",
          "name": "tokenId",
          "type": "uint256"
        }
      ],
      "name": "approve",
      "outputs": [],
      "stateMutability": "nonpayable",
      "type": "function"
    },
    {
      "inputs": [
        {
          "internalType": "address",
          "name": "owner",
          "type": "address"
        }
      ],
      "name": "balanceOf",
      "outputs": [
        {
          "internalType": "uint256",
          "name": "",
          "type": "uint256"
        }
      ],
      "stateMutability": "view",
      "type": "function"
    },
    {
      "inputs": [],
      "name": "baseURI",
      "outputs": [
        {
          "internalType": "string",
          "name": "",
          "type": "string"
        }
      ],
      "stateMutability": "view",
      "type": "function"
    },
    {
      "inputs": [],
      "name": "flipSaleState",
      "outputs": [],
      "stateMutability": "nonpayable",
      "type": "function"
    },
    {
      "inputs": [
        {
          "internalType": "uint256",
          "name": "tokenId",
          "type": "uint256"
        }
      ],
      "name": "getApproved",
      "outputs": [
        {
          "internalType": "address",
          "name": "",
          "type": "address"
        }
      ],
      "stateMutability": "view",
      "type": "function"
    },
    {
      "inputs": [
        {
          "internalType": "address",
          "name": "_owner",
          "type": "address"
        },
        {
          "internalType": "string",
          "name": "name",
          "type": "string"
        },
        {
          "internalType": "string",
          "name": "symbol",
          "type": "string"
        },
        {
          "internalType": "uint256",
          "name": "_maxTokens",
          "type": "uint256"
        },
        {
          "internalType": "uint256",
          "name": "_tokenPrice",
          "type": "uint256"
        },
        {
          "internalType": "uint256",
          "name": "_maxTokenPurchase",
          "type": "uint256"
        }
      ],
      "name": "initialize",
      "outputs": [],
      "stateMutability": "nonpayable",
      "type": "function"
    },
    {
      "inputs": [
        {
          "internalType": "address",
          "name": "owner",
          "type": "address"
        },
        {
          "internalType": "address",
          "name": "operator",
          "type": "address"
        }
      ],
      "name": "isApprovedForAll",
      "outputs": [
        {
          "internalType": "bool",
          "name": "",
          "type": "bool"
        }
      ],
      "stateMutability": "view",
      "type": "function"
    },
    {
      "inputs": [],
      "name": "maxTokenPurchase",
      "outputs": [
        {
          "internalType": "uint256",
          "name": "",
          "type": "uint256"
        }
      ],
      "stateMutability": "view",
      "type": "function"
    },
    {
      "inputs": [
        {
          "internalType": "uint256",
          "name": "numberOfTokens",
          "type": "uint256"
        }
      ],
      "name": "mint",
      "outputs": [],
      "stateMutability": "payable",
      "type": "function"
    },
    {
      "inputs": [],
      "name": "name",
      "outputs": [
        {
          "internalType": "string",
          "name": "",
          "type": "string"
        }
      ],
      "stateMutability": "view",
      "type": "function"
    },
    {
      "inputs": [],
      "name": "owner",
      "outputs": [
        {
          "internalType": "address",
          "name": "",
          "type": "address"
        }
      ],
      "stateMutability": "view",
      "type": "function"
    },
    {
      "inputs": [
        {
          "internalType": "uint256",
          "name": "tokenId",
          "type": "uint256"
        }
      ],
      "name": "ownerOf",
      "outputs": [
        {
          "internalType": "address",
          "name": "",
          "type": "address"
        }
      ],
      "stateMutability": "view",
      "type": "function"
    },
    {
      "inputs": [],
      "name": "renounceOwnership",
      "outputs": [],
      "stateMutability": "nonpayable",
      "type": "function"
    },
    {
      "inputs": [
        {
          "internalType": "uint256",
          "name": "numReserved",
          "type": "uint256"
        }
      ],
      "name": "reserveDCNT",
      "outputs": [],
      "stateMutability": "nonpayable",
      "type": "function"
    },
    {
      "inputs": [
        {
          "internalType": "address",
          "name": "from",
          "type": "address"
        },
        {
          "internalType": "address",
          "name": "to",
          "type": "address"
        },
        {
          "internalType": "uint256",
          "name": "tokenId",
          "type": "uint256"
        }
      ],
      "name": "safeTransferFrom",
      "outputs": [],
      "stateMutability": "nonpayable",
      "type": "function"
    },
    {
      "inputs": [
        {
          "internalType": "address",
          "name": "from",
          "type": "address"
        },
        {
          "internalType": "address",
          "name": "to",
          "type": "address"
        },
        {
          "internalType": "uint256",
          "name": "tokenId",
          "type": "uint256"
        },
        {
          "internalType": "bytes",
          "name": "_data",
          "type": "bytes"
        }
      ],
      "name": "safeTransferFrom",
      "outputs": [],
      "stateMutability": "nonpayable",
      "type": "function"
    },
    {
      "inputs": [],
      "name": "saleIsActive",
      "outputs": [
        {
          "internalType": "bool",
          "name": "",
          "type": "bool"
        }
      ],
      "stateMutability": "view",
      "type": "function"
    },
    {
      "inputs": [
        {
          "internalType": "address",
          "name": "operator",
          "type": "address"
        },
        {
          "internalType": "bool",
          "name": "approved",
          "type": "bool"
        }
      ],
      "name": "setApprovalForAll",
      "outputs": [],
      "stateMutability": "nonpayable",
      "type": "function"
    },
    {
      "inputs": [
        {
          "internalType": "string",
          "name": "uri",
          "type": "string"
        }
      ],
      "name": "setBaseURI",
      "outputs": [],
      "stateMutability": "nonpayable",
      "type": "function"
    },
    {
      "inputs": [
        {
          "internalType": "uint256",
          "name": "tokenId",
          "type": "uint256"
        },
        {
          "internalType": "address",
          "name": "user",
          "type": "address"
        },
        {
          "internalType": "uint64",
          "name": "expires",
          "type": "uint64"
        }
      ],
      "name": "setUser",
      "outputs": [],
      "stateMutability": "nonpayable",
      "type": "function"
    },
    {
      "inputs": [
        {
          "internalType": "bytes4",
          "name": "interfaceId",
          "type": "bytes4"
        }
      ],
      "name": "supportsInterface",
      "outputs": [
        {
          "internalType": "bool",
          "name": "",
          "type": "bool"
        }
      ],
      "stateMutability": "view",
      "type": "function"
    },
    {
      "inputs": [],
      "name": "symbol",
      "outputs": [
        {
          "internalType": "string",
          "name": "",
          "type": "string"
        }
      ],
      "stateMutability": "view",
      "type": "function"
    },
    {
      "inputs": [],
      "name": "tokenPrice",
      "outputs": [
        {
          "internalType": "uint256",
          "name": "",
          "type": "uint256"
        }
      ],
      "stateMutability": "view",
      "type": "function"
    },
    {
      "inputs": [
        {
          "internalType": "uint256",
          "name": "tokenId",
          "type": "uint256"
        }
      ],
      "name": "tokenURI",
      "outputs": [
        {
          "internalType": "string",
          "name": "",
          "type": "string"
        }
      ],
      "stateMutability": "view",
      "type": "function"
    },
    {
      "inputs": [],
      "name": "totalSupply",
      "outputs": [
        {
          "internalType": "uint256",
          "name": "",
          "type": "uint256"
        }
      ],
      "stateMutability": "view",
      "type": "function"
    },
    {
      "inputs": [
        {
          "internalType": "address",
          "name": "from",
          "type": "address"
        },
        {
          "internalType": "address",
          "name": "to",
          "type": "address"
        },
        {
          "internalType": "uint256",
          "name": "tokenId",
          "type": "uint256"
        }
      ],
      "name": "transferFrom",
      "outputs": [],
      "stateMutability": "nonpayable",
      "type": "function"
    },
    {
      "inputs": [
        {
          "internalType": "address",
          "name": "newOwner",
          "type": "address"
        }
      ],
      "name": "transferOwnership",
      "outputs": [],
      "stateMutability": "nonpayable",
      "type": "function"
    },
    {
      "inputs": [
        {
          "internalType": "uint256",
          "name": "tokenId",
          "type": "uint256"
        }
      ],
      "name": "userExpires",
      "outputs": [
        {
          "internalType": "uint256",
          "name": "",
          "type": "uint256"
        }
      ],
      "stateMutability": "view",
      "type": "function"
    },
    {
      "inputs": [
        {
          "internalType": "uint256",
          "name": "tokenId",
          "type": "uint256"
        }
      ],
      "name": "userOf",
      "outputs": [
        {
          "internalType": "address",
          "name": "",
          "type": "address"
        }
      ],
      "stateMutability": "view",
      "type": "function"
    },
    {
      "inputs": [],
      "name": "withdraw",
      "outputs": [],
      "stateMutability": "nonpayable",
      "type": "function"
    }
  ],
  "bytecode": "0x60806040526000600c60006101000a81548160ff0219169083151502179055503480156200002c57600080fd5b506200004d620000416200005360201b60201c565b6200005b60201b60201c565b62000121565b600033905090565b6000600860029054906101000a900473ffffffffffffffffffffffffffffffffffffffff16905081600860026101000a81548173ffffffffffffffffffffffffffffffffffffffff021916908373ffffffffffffffffffffffffffffffffffffffff1602179055508173ffffffffffffffffffffffffffffffffffffffff168173ffffffffffffffffffffffffffffffffffffffff167f8be0079c531659141344cd1fd0a4f28419497f9722a3daafe3b4186f6b6457e060405160405180910390a35050565b6132ba80620001316000396000f3fe6080604052600436106101d85760003560e01c8063715018a611610102578063b88d4fde11610095578063e985e9c511610064578063e985e9c514610687578063eb8d2444146106c4578063f2fde38b146106ef578063f47c84c514610718576101d8565b8063b88d4fde146105bb578063c2f1f14a146105e4578063c87b56dd14610621578063e030565e1461065e576101d8565b806395d89b41116100d157806395d89b4114610522578063a0712d681461054d578063a22cb46514610569578063a3685b8514610592576101d8565b8063715018a6146104785780637ff9b5961461048f5780638da5cb5b146104ba5780638fc88c48146104e5576101d8565b806334918dfd1161017a5780636352211e116101495780636352211e146103aa5780636c0360eb146103e75780636c1951ae1461041257806370a082311461043b576101d8565b806334918dfd1461032a5780633ccfd60b1461034157806342842e0e1461035857806355f804b314610381576101d8565b8063095ea7b3116101b6578063095ea7b31461028257806309aa3dcf146102ab57806318160ddd146102d657806323b872dd14610301576101d8565b806301ffc9a7146101dd57806306fdde031461021a578063081812fc14610245575b600080fd5b3480156101e957600080fd5b5061020460048036038101906101ff91906123b3565b610743565b60405161021191906123fb565b60405180910390f35b34801561022657600080fd5b5061022f610755565b60405161023c91906124af565b60405180910390f35b34801561025157600080fd5b5061026c60048036038101906102679190612507565b6107e7565b6040516102799190612575565b60405180910390f35b34801561028e57600080fd5b506102a960048036038101906102a491906125bc565b610866565b005b3480156102b757600080fd5b506102c06109aa565b6040516102cd919061260b565b60405180910390f35b3480156102e257600080fd5b506102eb6109b0565b6040516102f8919061260b565b60405180910390f35b34801561030d57600080fd5b5061032860048036038101906103239190612626565b6109c7565b005b34801561033657600080fd5b5061033f610cec565b005b34801561034d57600080fd5b50610356610d20565b005b34801561036457600080fd5b5061037f600480360381019061037a9190612626565b610d71565b005b34801561038d57600080fd5b506103a860048036038101906103a391906127ae565b610d91565b005b3480156103b657600080fd5b506103d160048036038101906103cc9190612507565b610db3565b6040516103de9190612575565b60405180910390f35b3480156103f357600080fd5b506103fc610dc5565b60405161040991906124af565b60405180910390f35b34801561041e57600080fd5b5061043960048036038101906104349190612507565b610e53565b005b34801561044757600080fd5b50610462600480360381019061045d91906127f7565b610efa565b60405161046f919061260b565b60405180910390f35b34801561048457600080fd5b5061048d610fb3565b005b34801561049b57600080fd5b506104a4610fc7565b6040516104b1919061260b565b60405180910390f35b3480156104c657600080fd5b506104cf610fcd565b6040516104dc9190612575565b60405180910390f35b3480156104f157600080fd5b5061050c60048036038101906105079190612507565b610ff7565b604051610519919061260b565b60405180910390f35b34801561052e57600080fd5b50610537611018565b60405161054491906124af565b60405180910390f35b61056760048036038101906105629190612507565b6110aa565b005b34801561057557600080fd5b50610590600480360381019061058b9190612850565b6112a1565b005b34801561059e57600080fd5b506105b960048036038101906105b49190612890565b611419565b005b3480156105c757600080fd5b506105e260048036038101906105dd91906129f6565b6115b6565b005b3480156105f057600080fd5b5061060b60048036038101906106069190612507565b611629565b6040516106189190612575565b60405180910390f35b34801561062d57600080fd5b5061064860048036038101906106439190612507565b611655565b60405161065591906124af565b60405180910390f35b34801561066a57600080fd5b5061068560048036038101906106809190612ab9565b6116f4565b005b34801561069357600080fd5b506106ae60048036038101906106a99190612b0c565b611859565b6040516106bb91906123fb565b60405180910390f35b3480156106d057600080fd5b506106d96118ed565b6040516106e691906123fb565b60405180910390f35b3480156106fb57600080fd5b50610716600480360381019061071191906127f7565b611900565b005b34801561072457600080fd5b5061072d611984565b60405161073a919061260b565b60405180910390f35b600061074e8261198a565b9050919050565b60606002805461076490612b7b565b80601f016020809104026020016040519081016040528092919081815260200182805461079090612b7b565b80156107dd5780601f106107b2576101008083540402835291602001916107dd565b820191906000526020600020905b8154815290600101906020018083116107c057829003601f168201915b5050505050905090565b60006107f2826119cc565b610828576040517fcf4700e400000000000000000000000000000000000000000000000000000000815260040160405180910390fd5b6006600083815260200190815260200160002060000160009054906101000a900473ffffffffffffffffffffffffffffffffffffffff169050919050565b600061087182610db3565b90508073ffffffffffffffffffffffffffffffffffffffff16610892611a2b565b73ffffffffffffffffffffffffffffffffffffffff16146108f5576108be816108b9611a2b565b611859565b6108f4576040517fcfb3b94200000000000000000000000000000000000000000000000000000000815260040160405180910390fd5b5b826006600084815260200190815260200160002060000160006101000a81548173ffffffffffffffffffffffffffffffffffffffff021916908373ffffffffffffffffffffffffffffffffffffffff160217905550818373ffffffffffffffffffffffffffffffffffffffff168273ffffffffffffffffffffffffffffffffffffffff167f8c5be1e5ebec7d5bd14f71427d1e84f3dd0314c0f7b2291e5b200ac8c7c3b92560405160405180910390a4505050565b600b5481565b60006109ba611a33565b6001546000540303905090565b60006109d282611a38565b90508373ffffffffffffffffffffffffffffffffffffffff168173ffffffffffffffffffffffffffffffffffffffff1614610a39576040517fa114810000000000000000000000000000000000000000000000000000000000815260040160405180910390fd5b600080610a4584611b06565b91509150610a5b8187610a56611a2b565b611b2d565b610aa757610a7086610a6b611a2b565b611859565b610aa6576040517f59c896be00000000000000000000000000000000000000000000000000000000815260040160405180910390fd5b5b600073ffffffffffffffffffffffffffffffffffffffff168573ffffffffffffffffffffffffffffffffffffffff161415610b0e576040517fea553b3400000000000000000000000000000000000000000000000000000000815260040160405180910390fd5b610b1b8686866001611b71565b8015610b2657600082555b600560008773ffffffffffffffffffffffffffffffffffffffff1673ffffffffffffffffffffffffffffffffffffffff168152602001908152602001600020600081546001900391905081905550600560008673ffffffffffffffffffffffffffffffffffffffff1673ffffffffffffffffffffffffffffffffffffffff1681526020019081526020016000206000815460010191905081905550610bf485610bd0888887611b77565b7c020000000000000000000000000000000000000000000000000000000017611b9f565b600460008681526020019081526020016000208190555060007c020000000000000000000000000000000000000000000000000000000084161415610c7c576000600185019050600060046000838152602001908152602001600020541415610c7a576000548114610c79578360046000838152602001908152602001600020819055505b5b505b838573ffffffffffffffffffffffffffffffffffffffff168773ffffffffffffffffffffffffffffffffffffffff167fddf252ad1be2c89b69c2b068fc378daa952ba7f163c4a11628f55a4df523b3ef60405160405180910390a4610ce48686866001611bca565b505050505050565b610cf4611bd0565b600c60009054906101000a900460ff1615600c60006101000a81548160ff021916908315150217905550565b610d28611bd0565b3373ffffffffffffffffffffffffffffffffffffffff166108fc479081150290604051600060405180830381858888f19350505050158015610d6e573d6000803e3d6000fd5b50565b610d8c838383604051806020016040528060008152506115b6565b505050565b610d99611bd0565b80600d9080519060200190610daf9291906122a4565b5050565b6000610dbe82611a38565b9050919050565b600d8054610dd290612b7b565b80601f0160208091040260200160405190810160405280929190818152602001828054610dfe90612b7b565b8015610e4b5780601f10610e2057610100808354040283529160200191610e4b565b820191906000526020600020905b815481529060010190602001808311610e2e57829003601f168201915b505050505081565b610e5b611bd0565b6000610e656109b0565b90506009548282610e769190612bdc565b10610eb6576040517f08c379a0000000000000000000000000000000000000000000000000000000008152600401610ead90612c7e565b60405180910390fd5b60005b82811015610ef557610ee23360018385610ed39190612bdc565b610edd9190612bdc565b611c4e565b8080610eed90612c9e565b915050610eb9565b505050565b60008073ffffffffffffffffffffffffffffffffffffffff168273ffffffffffffffffffffffffffffffffffffffff161415610f62576040517f8f4eb60400000000000000000000000000000000000000000000000000000000815260040160405180910390fd5b67ffffffffffffffff600560008473ffffffffffffffffffffffffffffffffffffffff1673ffffffffffffffffffffffffffffffffffffffff16815260200190815260200160002054169050919050565b610fbb611bd0565b610fc56000611c6c565b565b600a5481565b6000600860029054906101000a900473ffffffffffffffffffffffffffffffffffffffff16905090565b600060a0600e600084815260200190815260200160002054901c9050919050565b60606003805461102790612b7b565b80601f016020809104026020016040519081016040528092919081815260200182805461105390612b7b565b80156110a05780601f10611075576101008083540402835291602001916110a0565b820191906000526020600020905b81548152906001019060200180831161108357829003601f168201915b5050505050905090565b60006110b46109b0565b9050600c60009054906101000a900460ff16611105576040517f08c379a00000000000000000000000000000000000000000000000000000000081526004016110fc90612d33565b60405180910390fd5b60095482826111149190612bdc565b1115611155576040517f08c379a000000000000000000000000000000000000000000000000000000000815260040161114c90612c7e565b60405180910390fd5b60095481111561119a576040517f08c379a000000000000000000000000000000000000000000000000000000000815260040161119190612d9f565b60405180910390fd5b600b548211156111df576040517f08c379a00000000000000000000000000000000000000000000000000000000081526004016111d690612e0b565b60405180910390fd5b81600a546111ed9190612e2b565b34101561122f576040517f08c379a000000000000000000000000000000000000000000000000000000000815260040161122690612ed1565b60405180910390fd5b6112393383611c4e565b60005b8281101561129c577f30385c845b448a36257a6a1716e6ad2e1bc2cbe333cde1e69fe849ad6511adfe33838061127190612c9e565b9450604051611281929190612ef1565b60405180910390a1808061129490612c9e565b91505061123c565b505050565b6112a9611a2b565b73ffffffffffffffffffffffffffffffffffffffff168273ffffffffffffffffffffffffffffffffffffffff16141561130e576040517fb06307db00000000000000000000000000000000000000000000000000000000815260040160405180910390fd5b806007600061131b611a2b565b73ffffffffffffffffffffffffffffffffffffffff1673ffffffffffffffffffffffffffffffffffffffff16815260200190815260200160002060008473ffffffffffffffffffffffffffffffffffffffff1673ffffffffffffffffffffffffffffffffffffffff16815260200190815260200160002060006101000a81548160ff0219169083151502179055508173ffffffffffffffffffffffffffffffffffffffff166113c8611a2b565b73ffffffffffffffffffffffffffffffffffffffff167f17307eab39ab6107e8899845ad3d59bd9653f200f220920489ca2b5937696c318360405161140d91906123fb565b60405180910390a35050565b6000600860019054906101000a900460ff1615905080801561144d57506001600860009054906101000a900460ff1660ff16105b8061147c575061145c30611d32565b15801561147b57506001600860009054906101000a900460ff1660ff16145b5b6114bb576040517f08c379a00000000000000000000000000000000000000000000000000000000081526004016114b290612f8c565b60405180910390fd5b6001600860006101000a81548160ff021916908360ff16021790555080156114f9576001600860016101000a81548160ff0219169083151502179055505b61150287611c6c565b85600290805190602001906115189291906122a4565b50846003908051906020019061152f9291906122a4565b50611538611a33565b6000819055508360098190555082600a8190555081600b8190555080156115ad576000600860016101000a81548160ff0219169083151502179055507f7f26b83ff96e1f2b6a682f133852f6798a09c465da95921460cefb384740249860016040516115a49190612ffe565b60405180910390a15b50505050505050565b6115c18484846109c7565b60008373ffffffffffffffffffffffffffffffffffffffff163b14611623576115ec84848484611d55565b611622576040517fd1a57ed600000000000000000000000000000000000000000000000000000000815260040160405180910390fd5b5b50505050565b600080600e6000848152602001908152602001600020549050804260a01b108102905080915050919050565b6060611660826119cc565b611696576040517fa14c4b5000000000000000000000000000000000000000000000000000000000815260040160405180910390fd5b60006116a0611eb5565b90506000815114156116c157604051806020016040528060008152506116ec565b806116cb84611f47565b6040516020016116dc929190613055565b6040516020818303038152906040525b915050919050565b60006116ff84610db3565b90508073ffffffffffffffffffffffffffffffffffffffff16611720611a2b565b73ffffffffffffffffffffffffffffffffffffffff16146117c65761174c81611747611a2b565b611859565b6117c557611758611a2b565b73ffffffffffffffffffffffffffffffffffffffff16611777856107e7565b73ffffffffffffffffffffffffffffffffffffffff16146117c4576040517f4f1dd8e800000000000000000000000000000000000000000000000000000000815260040160405180910390fd5b5b5b8273ffffffffffffffffffffffffffffffffffffffff1660a08367ffffffffffffffff16901b17600e6000868152602001908152602001600020819055508273ffffffffffffffffffffffffffffffffffffffff16847f4e06b4e7000e659094299b3533b47b6aa8ad048e95e872d23d1f4ee55af89cfe8460405161184b9190613088565b60405180910390a350505050565b6000600760008473ffffffffffffffffffffffffffffffffffffffff1673ffffffffffffffffffffffffffffffffffffffff16815260200190815260200160002060008373ffffffffffffffffffffffffffffffffffffffff1673ffffffffffffffffffffffffffffffffffffffff16815260200190815260200160002060009054906101000a900460ff16905092915050565b600c60009054906101000a900460ff1681565b611908611bd0565b600073ffffffffffffffffffffffffffffffffffffffff168173ffffffffffffffffffffffffffffffffffffffff161415611978576040517f08c379a000000000000000000000000000000000000000000000000000000000815260040161196f90613115565b60405180910390fd5b61198181611c6c565b50565b60095481565b600061199582611f97565b806119c5575063ad092b5c60e01b827bffffffffffffffffffffffffffffffffffffffffffffffffffffffff1916145b9050919050565b6000816119d7611a33565b111580156119e6575060005482105b8015611a24575060007c0100000000000000000000000000000000000000000000000000000000600460008581526020019081526020016000205416145b9050919050565b600033905090565b600090565b60008082905080611a47611a33565b11611acf57600054811015611ace5760006004600083815260200190815260200160002054905060007c010000000000000000000000000000000000000000000000000000000082161415611acc575b6000811415611ac2576004600083600190039350838152602001908152602001600020549050611a97565b8092505050611b01565b505b5b6040517fdf2d9b4200000000000000000000000000000000000000000000000000000000815260040160405180910390fd5b919050565b60008060006006600085815260200190815260200160002090508092508254915050915091565b600073ffffffffffffffffffffffffffffffffffffffff8316925073ffffffffffffffffffffffffffffffffffffffff821691508382148383141790509392505050565b50505050565b60008060e883901c905060e8611b8e868684612029565b62ffffff16901b9150509392505050565b600073ffffffffffffffffffffffffffffffffffffffff83169250814260a01b178317905092915050565b50505050565b611bd8612032565b73ffffffffffffffffffffffffffffffffffffffff16611bf6610fcd565b73ffffffffffffffffffffffffffffffffffffffff1614611c4c576040517f08c379a0000000000000000000000000000000000000000000000000000000008152600401611c4390613181565b60405180910390fd5b565b611c6882826040518060200160405280600081525061203a565b5050565b6000600860029054906101000a900473ffffffffffffffffffffffffffffffffffffffff16905081600860026101000a81548173ffffffffffffffffffffffffffffffffffffffff021916908373ffffffffffffffffffffffffffffffffffffffff1602179055508173ffffffffffffffffffffffffffffffffffffffff168173ffffffffffffffffffffffffffffffffffffffff167f8be0079c531659141344cd1fd0a4f28419497f9722a3daafe3b4186f6b6457e060405160405180910390a35050565b6000808273ffffffffffffffffffffffffffffffffffffffff163b119050919050565b60008373ffffffffffffffffffffffffffffffffffffffff1663150b7a02611d7b611a2b565b8786866040518563ffffffff1660e01b8152600401611d9d94939291906131f6565b602060405180830381600087803b158015611db757600080fd5b505af1925050508015611de857506040513d601f19601f82011682018060405250810190611de59190613257565b60015b611e62573d8060008114611e18576040519150601f19603f3d011682016040523d82523d6000602084013e611e1d565b606091505b50600081511415611e5a576040517fd1a57ed600000000000000000000000000000000000000000000000000000000815260040160405180910390fd5b805181602001fd5b63150b7a0260e01b7bffffffffffffffffffffffffffffffffffffffffffffffffffffffff1916817bffffffffffffffffffffffffffffffffffffffffffffffffffffffff191614915050949350505050565b6060600d8054611ec490612b7b565b80601f0160208091040260200160405190810160405280929190818152602001828054611ef090612b7b565b8015611f3d5780601f10611f1257610100808354040283529160200191611f3d565b820191906000526020600020905b815481529060010190602001808311611f2057829003601f168201915b5050505050905090565b606060806040510190508060405280825b600115611f8357600183039250600a81066030018353600a8104905080611f7e57611f83565b611f58565b508181036020830392508083525050919050565b60006301ffc9a760e01b827bffffffffffffffffffffffffffffffffffffffffffffffffffffffff19161480611ff257506380ac58cd60e01b827bffffffffffffffffffffffffffffffffffffffffffffffffffffffff1916145b806120225750635b5e139f60e01b827bffffffffffffffffffffffffffffffffffffffffffffffffffffffff1916145b9050919050565b60009392505050565b600033905090565b61204483836120d7565b60008373ffffffffffffffffffffffffffffffffffffffff163b146120d257600080549050600083820390505b6120846000868380600101945086611d55565b6120ba576040517fd1a57ed600000000000000000000000000000000000000000000000000000000815260040160405180910390fd5b8181106120715781600054146120cf57600080fd5b50505b505050565b6000805490506000821415612118576040517fb562e8dd00000000000000000000000000000000000000000000000000000000815260040160405180910390fd5b6121256000848385611b71565b600160406001901b178202600560008573ffffffffffffffffffffffffffffffffffffffff1673ffffffffffffffffffffffffffffffffffffffff1681526020019081526020016000206000828254019250508190555061219c8361218d6000866000611b77565b61219685612294565b17611b9f565b6004600083815260200190815260200160002081905550600080838301905073ffffffffffffffffffffffffffffffffffffffff85169150828260007fddf252ad1be2c89b69c2b068fc378daa952ba7f163c4a11628f55a4df523b3ef600080a4600183015b81811461223d57808360007fddf252ad1be2c89b69c2b068fc378daa952ba7f163c4a11628f55a4df523b3ef600080a4600181019050612202565b506000821415612279576040517f2e07630000000000000000000000000000000000000000000000000000000000815260040160405180910390fd5b80600081905550505061228f6000848385611bca565b505050565b60006001821460e11b9050919050565b8280546122b090612b7b565b90600052602060002090601f0160209004810192826122d25760008555612319565b82601f106122eb57805160ff1916838001178555612319565b82800160010185558215612319579182015b828111156123185782518255916020019190600101906122fd565b5b509050612326919061232a565b5090565b5b8082111561234357600081600090555060010161232b565b5090565b6000604051905090565b600080fd5b600080fd5b60007fffffffff0000000000000000000000000000000000000000000000000000000082169050919050565b6123908161235b565b811461239b57600080fd5b50565b6000813590506123ad81612387565b92915050565b6000602082840312156123c9576123c8612351565b5b60006123d78482850161239e565b91505092915050565b60008115159050919050565b6123f5816123e0565b82525050565b600060208201905061241060008301846123ec565b92915050565b600081519050919050565b600082825260208201905092915050565b60005b83811015612450578082015181840152602081019050612435565b8381111561245f576000848401525b50505050565b6000601f19601f8301169050919050565b600061248182612416565b61248b8185612421565b935061249b818560208601612432565b6124a481612465565b840191505092915050565b600060208201905081810360008301526124c98184612476565b905092915050565b6000819050919050565b6124e4816124d1565b81146124ef57600080fd5b50565b600081359050612501816124db565b92915050565b60006020828403121561251d5761251c612351565b5b600061252b848285016124f2565b91505092915050565b600073ffffffffffffffffffffffffffffffffffffffff82169050919050565b600061255f82612534565b9050919050565b61256f81612554565b82525050565b600060208201905061258a6000830184612566565b92915050565b61259981612554565b81146125a457600080fd5b50565b6000813590506125b681612590565b92915050565b600080604083850312156125d3576125d2612351565b5b60006125e1858286016125a7565b92505060206125f2858286016124f2565b9150509250929050565b612605816124d1565b82525050565b600060208201905061262060008301846125fc565b92915050565b60008060006060848603121561263f5761263e612351565b5b600061264d868287016125a7565b935050602061265e868287016125a7565b925050604061266f868287016124f2565b9150509250925092565b600080fd5b600080fd5b7f4e487b7100000000000000000000000000000000000000000000000000000000600052604160045260246000fd5b6126bb82612465565b810181811067ffffffffffffffff821117156126da576126d9612683565b5b80604052505050565b60006126ed612347565b90506126f982826126b2565b919050565b600067ffffffffffffffff82111561271957612718612683565b5b61272282612465565b9050602081019050919050565b82818337600083830152505050565b600061275161274c846126fe565b6126e3565b90508281526020810184848401111561276d5761276c61267e565b5b61277884828561272f565b509392505050565b600082601f83011261279557612794612679565b5b81356127a584826020860161273e565b91505092915050565b6000602082840312156127c4576127c3612351565b5b600082013567ffffffffffffffff8111156127e2576127e1612356565b5b6127ee84828501612780565b91505092915050565b60006020828403121561280d5761280c612351565b5b600061281b848285016125a7565b91505092915050565b61282d816123e0565b811461283857600080fd5b50565b60008135905061284a81612824565b92915050565b6000806040838503121561286757612866612351565b5b6000612875858286016125a7565b92505060206128868582860161283b565b9150509250929050565b60008060008060008060c087890312156128ad576128ac612351565b5b60006128bb89828a016125a7565b965050602087013567ffffffffffffffff8111156128dc576128db612356565b5b6128e889828a01612780565b955050604087013567ffffffffffffffff81111561290957612908612356565b5b61291589828a01612780565b945050606061292689828a016124f2565b935050608061293789828a016124f2565b92505060a061294889828a016124f2565b9150509295509295509295565b600067ffffffffffffffff8211156129705761296f612683565b5b61297982612465565b9050602081019050919050565b600061299961299484612955565b6126e3565b9050828152602081018484840111156129b5576129b461267e565b5b6129c084828561272f565b509392505050565b600082601f8301126129dd576129dc612679565b5b81356129ed848260208601612986565b91505092915050565b60008060008060808587031215612a1057612a0f612351565b5b6000612a1e878288016125a7565b9450506020612a2f878288016125a7565b9350506040612a40878288016124f2565b925050606085013567ffffffffffffffff811115612a6157612a60612356565b5b612a6d878288016129c8565b91505092959194509250565b600067ffffffffffffffff82169050919050565b612a9681612a79565b8114612aa157600080fd5b50565b600081359050612ab381612a8d565b92915050565b600080600060608486031215612ad257612ad1612351565b5b6000612ae0868287016124f2565b9350506020612af1868287016125a7565b9250506040612b0286828701612aa4565b9150509250925092565b60008060408385031215612b2357612b22612351565b5b6000612b31858286016125a7565b9250506020612b42858286016125a7565b9150509250929050565b7f4e487b7100000000000000000000000000000000000000000000000000000000600052602260045260246000fd5b60006002820490506001821680612b9357607f821691505b60208210811415612ba757612ba6612b4c565b5b50919050565b7f4e487b7100000000000000000000000000000000000000000000000000000000600052601160045260246000fd5b6000612be7826124d1565b9150612bf2836124d1565b9250827fffffffffffffffffffffffffffffffffffffffffffffffffffffffffffffffff03821115612c2757612c26612bad565b5b828201905092915050565b7f507572636861736520776f756c6420657863656564206d617820737570706c79600082015250565b6000612c68602083612421565b9150612c7382612c32565b602082019050919050565b60006020820190508181036000830152612c9781612c5b565b9050919050565b6000612ca9826124d1565b91507fffffffffffffffffffffffffffffffffffffffffffffffffffffffffffffffff821415612cdc57612cdb612bad565b5b600182019050919050565b7f53616c65206d7573742062652061637469766520746f206d696e740000000000600082015250565b6000612d1d601b83612421565b9150612d2882612ce7565b602082019050919050565b60006020820190508181036000830152612d4c81612d10565b9050919050565b7f534f4c44204f5554000000000000000000000000000000000000000000000000600082015250565b6000612d89600883612421565b9150612d9482612d53565b602082019050919050565b60006020820190508181036000830152612db881612d7c565b9050919050565b7f4578636565646564206d6178206e756d62657220706572206d696e7400000000600082015250565b6000612df5601c83612421565b9150612e0082612dbf565b602082019050919050565b60006020820190508181036000830152612e2481612de8565b9050919050565b6000612e36826124d1565b9150612e41836124d1565b9250817fffffffffffffffffffffffffffffffffffffffffffffffffffffffffffffffff0483118215151615612e7a57612e79612bad565b5b828202905092915050565b7f496e73756666696369656e742066756e64730000000000000000000000000000600082015250565b6000612ebb601283612421565b9150612ec682612e85565b602082019050919050565b60006020820190508181036000830152612eea81612eae565b9050919050565b6000604082019050612f066000830185612566565b612f1360208301846125fc565b9392505050565b7f496e697469616c697a61626c653a20636f6e747261637420697320616c72656160008201527f647920696e697469616c697a6564000000000000000000000000000000000000602082015250565b6000612f76602e83612421565b9150612f8182612f1a565b604082019050919050565b60006020820190508181036000830152612fa581612f69565b9050919050565b6000819050919050565b600060ff82169050919050565b6000819050919050565b6000612fe8612fe3612fde84612fac565b612fc3565b612fb6565b9050919050565b612ff881612fcd565b82525050565b60006020820190506130136000830184612fef565b92915050565b600081905092915050565b600061302f82612416565b6130398185613019565b9350613049818560208601612432565b80840191505092915050565b60006130618285613024565b915061306d8284613024565b91508190509392505050565b61308281612a79565b82525050565b600060208201905061309d6000830184613079565b92915050565b7f4f776e61626c653a206e6577206f776e657220697320746865207a65726f206160008201527f6464726573730000000000000000000000000000000000000000000000000000602082015250565b60006130ff602683612421565b915061310a826130a3565b604082019050919050565b6000602082019050818103600083015261312e816130f2565b9050919050565b7f4f776e61626c653a2063616c6c6572206973206e6f7420746865206f776e6572600082015250565b600061316b602083612421565b915061317682613135565b602082019050919050565b6000602082019050818103600083015261319a8161315e565b9050919050565b600081519050919050565b600082825260208201905092915050565b60006131c8826131a1565b6131d281856131ac565b93506131e2818560208601612432565b6131eb81612465565b840191505092915050565b600060808201905061320b6000830187612566565b6132186020830186612566565b61322560408301856125fc565b818103606083015261323781846131bd565b905095945050505050565b60008151905061325181612387565b92915050565b60006020828403121561326d5761326c612351565b5b600061327b84828501613242565b9150509291505056fea264697066735822122036a6e1236a1cc222829979c4a4db18bb0084d7c7452c72ae5edc3e1efe757d6c64736f6c63430008090033",
  "linkReferences": {},
  "deployedLinkReferences": {}
}