{
  "_format": "hh-sol-artifact-1",
  "contractName": "DCNT4907A",
  "sourceName": "contracts/DCNT4907A.sol",
  "abi": [
    {
      "inputs": [],
      "name": "ApprovalCallerNotOwnerNorApproved",
      "type": "error"
    },
    {
      "inputs": [],
      "name": "ApprovalQueryForNonexistentToken",
      "type": "error"
    },
    {
      "inputs": [],
      "name": "ApproveToCaller",
      "type": "error"
    },
    {
      "inputs": [],
      "name": "BalanceQueryForZeroAddress",
      "type": "error"
    },
    {
      "inputs": [],
      "name": "MintERC2309QuantityExceedsLimit",
      "type": "error"
    },
    {
      "inputs": [],
      "name": "MintToZeroAddress",
      "type": "error"
    },
    {
      "inputs": [],
      "name": "MintZeroQuantity",
      "type": "error"
    },
    {
      "inputs": [],
      "name": "OwnerQueryForNonexistentToken",
      "type": "error"
    },
    {
      "inputs": [],
      "name": "OwnershipNotInitializedForExtraData",
      "type": "error"
    },
    {
      "inputs": [],
      "name": "SetUserCallerNotOwnerNorApproved",
      "type": "error"
    },
    {
      "inputs": [],
      "name": "TransferCallerNotOwnerNorApproved",
      "type": "error"
    },
    {
      "inputs": [],
      "name": "TransferFromIncorrectOwner",
      "type": "error"
    },
    {
      "inputs": [],
      "name": "TransferToNonERC721ReceiverImplementer",
      "type": "error"
    },
    {
      "inputs": [],
      "name": "TransferToZeroAddress",
      "type": "error"
    },
    {
      "inputs": [],
      "name": "URIQueryForNonexistentToken",
      "type": "error"
    },
    {
      "anonymous": false,
      "inputs": [
        {
          "indexed": true,
          "internalType": "address",
          "name": "owner",
          "type": "address"
        },
        {
          "indexed": true,
          "internalType": "address",
          "name": "approved",
          "type": "address"
        },
        {
          "indexed": true,
          "internalType": "uint256",
          "name": "tokenId",
          "type": "uint256"
        }
      ],
      "name": "Approval",
      "type": "event"
    },
    {
      "anonymous": false,
      "inputs": [
        {
          "indexed": true,
          "internalType": "address",
          "name": "owner",
          "type": "address"
        },
        {
          "indexed": true,
          "internalType": "address",
          "name": "operator",
          "type": "address"
        },
        {
          "indexed": false,
          "internalType": "bool",
          "name": "approved",
          "type": "bool"
        }
      ],
      "name": "ApprovalForAll",
      "type": "event"
    },
    {
      "anonymous": false,
      "inputs": [
        {
          "indexed": true,
          "internalType": "uint256",
          "name": "fromTokenId",
          "type": "uint256"
        },
        {
          "indexed": false,
          "internalType": "uint256",
          "name": "toTokenId",
          "type": "uint256"
        },
        {
          "indexed": true,
          "internalType": "address",
          "name": "from",
          "type": "address"
        },
        {
          "indexed": true,
          "internalType": "address",
          "name": "to",
          "type": "address"
        }
      ],
      "name": "ConsecutiveTransfer",
      "type": "event"
    },
    {
      "anonymous": false,
      "inputs": [
        {
          "indexed": false,
          "internalType": "uint8",
          "name": "version",
          "type": "uint8"
        }
      ],
      "name": "Initialized",
      "type": "event"
    },
    {
      "anonymous": false,
      "inputs": [
        {
          "indexed": false,
          "internalType": "address",
          "name": "sender",
          "type": "address"
        },
        {
          "indexed": false,
          "internalType": "uint256",
          "name": "tokenId_",
          "type": "uint256"
        }
      ],
      "name": "Minted",
      "type": "event"
    },
    {
      "anonymous": false,
      "inputs": [
        {
          "indexed": true,
          "internalType": "address",
          "name": "previousOwner",
          "type": "address"
        },
        {
          "indexed": true,
          "internalType": "address",
          "name": "newOwner",
          "type": "address"
        }
      ],
      "name": "OwnershipTransferred",
      "type": "event"
    },
    {
      "anonymous": false,
      "inputs": [
        {
          "indexed": true,
          "internalType": "address",
          "name": "from",
          "type": "address"
        },
        {
          "indexed": true,
          "internalType": "address",
          "name": "to",
          "type": "address"
        },
        {
          "indexed": true,
          "internalType": "uint256",
          "name": "tokenId",
          "type": "uint256"
        }
      ],
      "name": "Transfer",
      "type": "event"
    },
    {
      "anonymous": false,
      "inputs": [
        {
          "indexed": true,
          "internalType": "uint256",
          "name": "tokenId",
          "type": "uint256"
        },
        {
          "indexed": true,
          "internalType": "address",
          "name": "user",
          "type": "address"
        },
        {
          "indexed": false,
          "internalType": "uint64",
          "name": "expires",
          "type": "uint64"
        }
      ],
      "name": "UpdateUser",
      "type": "event"
    },
    {
      "inputs": [],
      "name": "MAX_TOKENS",
      "outputs": [
        {
          "internalType": "uint256",
          "name": "",
          "type": "uint256"
        }
      ],
      "stateMutability": "view",
      "type": "function"
    },
    {
      "inputs": [
        {
          "internalType": "address",
          "name": "to",
          "type": "address"
        },
        {
          "internalType": "uint256",
          "name": "tokenId",
          "type": "uint256"
        }
      ],
      "name": "approve",
      "outputs": [],
      "stateMutability": "nonpayable",
      "type": "function"
    },
    {
      "inputs": [
        {
          "internalType": "address",
          "name": "owner",
          "type": "address"
        }
      ],
      "name": "balanceOf",
      "outputs": [
        {
          "internalType": "uint256",
          "name": "",
          "type": "uint256"
        }
      ],
      "stateMutability": "view",
      "type": "function"
    },
    {
      "inputs": [],
      "name": "baseURI",
      "outputs": [
        {
          "internalType": "string",
          "name": "",
          "type": "string"
        }
      ],
      "stateMutability": "view",
      "type": "function"
    },
    {
      "inputs": [
        {
          "internalType": "address[]",
          "name": "accounts",
          "type": "address[]"
        },
        {
          "internalType": "uint32[]",
          "name": "percentAllocations",
          "type": "uint32[]"
        },
        {
          "internalType": "uint32",
          "name": "distributorFee",
          "type": "uint32"
        }
      ],
      "name": "createSplit",
      "outputs": [],
      "stateMutability": "nonpayable",
      "type": "function"
    },
    {
      "inputs": [
        {
          "internalType": "address",
          "name": "account",
          "type": "address"
        },
        {
          "internalType": "uint256",
          "name": "withdrawETH",
          "type": "uint256"
        },
        {
          "internalType": "contract ERC20[]",
          "name": "tokens",
          "type": "address[]"
        },
        {
          "internalType": "address[]",
          "name": "accounts",
          "type": "address[]"
        },
        {
          "internalType": "uint32[]",
          "name": "percentAllocations",
          "type": "uint32[]"
        },
        {
          "internalType": "uint32",
          "name": "distributorFee",
          "type": "uint32"
        },
        {
          "internalType": "address",
          "name": "distributorAddress",
          "type": "address"
        }
      ],
      "name": "distributeAndWithdraw",
      "outputs": [],
      "stateMutability": "nonpayable",
      "type": "function"
    },
    {
      "inputs": [
        {
          "internalType": "contract ERC20",
          "name": "token",
          "type": "address"
        },
        {
          "internalType": "address[]",
          "name": "accounts",
          "type": "address[]"
        },
        {
          "internalType": "uint32[]",
          "name": "percentAllocations",
          "type": "uint32[]"
        },
        {
          "internalType": "uint32",
          "name": "distributorFee",
          "type": "uint32"
        },
        {
          "internalType": "address",
          "name": "distributorAddress",
          "type": "address"
        }
      ],
      "name": "distributeERC20",
      "outputs": [],
      "stateMutability": "nonpayable",
      "type": "function"
    },
    {
      "inputs": [
        {
          "internalType": "address[]",
          "name": "accounts",
          "type": "address[]"
        },
        {
          "internalType": "uint32[]",
          "name": "percentAllocations",
          "type": "uint32[]"
        },
        {
          "internalType": "uint32",
          "name": "distributorFee",
          "type": "uint32"
        },
        {
          "internalType": "address",
          "name": "distributorAddress",
          "type": "address"
        }
      ],
      "name": "distributeETH",
      "outputs": [],
      "stateMutability": "nonpayable",
      "type": "function"
    },
    {
      "inputs": [],
      "name": "flipSaleState",
      "outputs": [],
      "stateMutability": "nonpayable",
      "type": "function"
    },
    {
      "inputs": [
        {
          "internalType": "uint256",
          "name": "tokenId",
          "type": "uint256"
        }
      ],
      "name": "getApproved",
      "outputs": [
        {
          "internalType": "address",
          "name": "",
          "type": "address"
        }
      ],
      "stateMutability": "view",
      "type": "function"
    },
    {
      "inputs": [
        {
          "internalType": "address",
          "name": "_owner",
          "type": "address"
        },
        {
          "components": [
            {
              "internalType": "string",
              "name": "name",
              "type": "string"
            },
            {
              "internalType": "string",
              "name": "symbol",
              "type": "string"
            },
            {
              "internalType": "uint256",
              "name": "maxTokens",
              "type": "uint256"
            },
            {
              "internalType": "uint256",
              "name": "tokenPrice",
              "type": "uint256"
            },
            {
              "internalType": "uint256",
              "name": "maxTokenPurchase",
              "type": "uint256"
            },
            {
              "internalType": "uint256",
              "name": "royaltyBPS",
              "type": "uint256"
            }
          ],
          "internalType": "struct EditionConfig",
          "name": "_editionConfig",
          "type": "tuple"
        },
        {
          "components": [
            {
              "internalType": "string",
              "name": "metadataURI",
              "type": "string"
            },
            {
              "internalType": "bytes",
              "name": "metadataRendererInit",
              "type": "bytes"
            }
          ],
          "internalType": "struct MetadataConfig",
          "name": "_metadataConfig",
          "type": "tuple"
        },
        {
          "internalType": "address",
          "name": "_metadataRenderer",
          "type": "address"
        },
        {
          "internalType": "address",
          "name": "_splitMain",
          "type": "address"
        }
      ],
      "name": "initialize",
      "outputs": [],
      "stateMutability": "nonpayable",
      "type": "function"
    },
    {
      "inputs": [
        {
          "internalType": "address",
          "name": "owner",
          "type": "address"
        },
        {
          "internalType": "address",
          "name": "operator",
          "type": "address"
        }
      ],
      "name": "isApprovedForAll",
      "outputs": [
        {
          "internalType": "bool",
          "name": "",
          "type": "bool"
        }
      ],
      "stateMutability": "view",
      "type": "function"
    },
    {
      "inputs": [],
      "name": "maxTokenPurchase",
      "outputs": [
        {
          "internalType": "uint256",
          "name": "",
          "type": "uint256"
        }
      ],
      "stateMutability": "view",
      "type": "function"
    },
    {
      "inputs": [],
      "name": "metadataRenderer",
      "outputs": [
        {
          "internalType": "address",
          "name": "",
          "type": "address"
        }
      ],
      "stateMutability": "view",
      "type": "function"
    },
    {
      "inputs": [
        {
          "internalType": "uint256",
          "name": "numberOfTokens",
          "type": "uint256"
        }
      ],
      "name": "mint",
      "outputs": [],
      "stateMutability": "payable",
      "type": "function"
    },
    {
      "inputs": [],
      "name": "name",
      "outputs": [
        {
          "internalType": "string",
          "name": "",
          "type": "string"
        }
      ],
      "stateMutability": "view",
      "type": "function"
    },
    {
      "inputs": [],
      "name": "owner",
      "outputs": [
        {
          "internalType": "address",
          "name": "",
          "type": "address"
        }
      ],
      "stateMutability": "view",
      "type": "function"
    },
    {
      "inputs": [
        {
          "internalType": "uint256",
          "name": "tokenId",
          "type": "uint256"
        }
      ],
      "name": "ownerOf",
      "outputs": [
        {
          "internalType": "address",
          "name": "",
          "type": "address"
        }
      ],
      "stateMutability": "view",
      "type": "function"
    },
    {
      "inputs": [],
      "name": "renounceOwnership",
      "outputs": [],
      "stateMutability": "nonpayable",
      "type": "function"
    },
    {
      "inputs": [
        {
          "internalType": "uint256",
          "name": "numReserved",
          "type": "uint256"
        }
      ],
      "name": "reserveDCNT",
      "outputs": [],
      "stateMutability": "nonpayable",
      "type": "function"
    },
    {
      "inputs": [],
      "name": "royaltyBPS",
      "outputs": [
        {
          "internalType": "uint256",
          "name": "",
          "type": "uint256"
        }
      ],
      "stateMutability": "view",
      "type": "function"
    },
    {
      "inputs": [
        {
          "internalType": "uint256",
          "name": "tokenId",
          "type": "uint256"
        },
        {
          "internalType": "uint256",
          "name": "salePrice",
          "type": "uint256"
        }
      ],
      "name": "royaltyInfo",
      "outputs": [
        {
          "internalType": "address",
          "name": "receiver",
          "type": "address"
        },
        {
          "internalType": "uint256",
          "name": "royaltyAmount",
          "type": "uint256"
        }
      ],
      "stateMutability": "view",
      "type": "function"
    },
    {
      "inputs": [
        {
          "internalType": "address",
          "name": "from",
          "type": "address"
        },
        {
          "internalType": "address",
          "name": "to",
          "type": "address"
        },
        {
          "internalType": "uint256",
          "name": "tokenId",
          "type": "uint256"
        }
      ],
      "name": "safeTransferFrom",
      "outputs": [],
      "stateMutability": "nonpayable",
      "type": "function"
    },
    {
      "inputs": [
        {
          "internalType": "address",
          "name": "from",
          "type": "address"
        },
        {
          "internalType": "address",
          "name": "to",
          "type": "address"
        },
        {
          "internalType": "uint256",
          "name": "tokenId",
          "type": "uint256"
        },
        {
          "internalType": "bytes",
          "name": "_data",
          "type": "bytes"
        }
      ],
      "name": "safeTransferFrom",
      "outputs": [],
      "stateMutability": "nonpayable",
      "type": "function"
    },
    {
      "inputs": [],
      "name": "saleIsActive",
      "outputs": [
        {
          "internalType": "bool",
          "name": "",
          "type": "bool"
        }
      ],
      "stateMutability": "view",
      "type": "function"
    },
    {
      "inputs": [
        {
          "internalType": "address",
          "name": "operator",
          "type": "address"
        },
        {
          "internalType": "bool",
          "name": "approved",
          "type": "bool"
        }
      ],
      "name": "setApprovalForAll",
      "outputs": [],
      "stateMutability": "nonpayable",
      "type": "function"
    },
    {
      "inputs": [
        {
          "internalType": "string",
          "name": "uri",
          "type": "string"
        }
      ],
      "name": "setBaseURI",
      "outputs": [],
      "stateMutability": "nonpayable",
      "type": "function"
    },
    {
      "inputs": [
        {
          "internalType": "address",
          "name": "_metadataRenderer",
          "type": "address"
        }
      ],
      "name": "setMetadataRenderer",
      "outputs": [],
      "stateMutability": "nonpayable",
      "type": "function"
    },
    {
      "inputs": [
        {
          "internalType": "uint256",
          "name": "tokenId",
          "type": "uint256"
        },
        {
          "internalType": "address",
          "name": "user",
          "type": "address"
        },
        {
          "internalType": "uint64",
          "name": "expires",
          "type": "uint64"
        }
      ],
      "name": "setUser",
      "outputs": [],
      "stateMutability": "nonpayable",
      "type": "function"
    },
    {
      "inputs": [],
      "name": "splitMain",
      "outputs": [
        {
          "internalType": "address",
          "name": "",
          "type": "address"
        }
      ],
      "stateMutability": "view",
      "type": "function"
    },
    {
      "inputs": [],
      "name": "splitWallet",
      "outputs": [
        {
          "internalType": "address",
          "name": "",
          "type": "address"
        }
      ],
      "stateMutability": "view",
      "type": "function"
    },
    {
      "inputs": [
        {
          "internalType": "bytes4",
          "name": "interfaceId",
          "type": "bytes4"
        }
      ],
      "name": "supportsInterface",
      "outputs": [
        {
          "internalType": "bool",
          "name": "",
          "type": "bool"
        }
      ],
      "stateMutability": "view",
      "type": "function"
    },
    {
      "inputs": [],
      "name": "symbol",
      "outputs": [
        {
          "internalType": "string",
          "name": "",
          "type": "string"
        }
      ],
      "stateMutability": "view",
      "type": "function"
    },
    {
      "inputs": [],
      "name": "tokenPrice",
      "outputs": [
        {
          "internalType": "uint256",
          "name": "",
          "type": "uint256"
        }
      ],
      "stateMutability": "view",
      "type": "function"
    },
    {
      "inputs": [
        {
          "internalType": "uint256",
          "name": "tokenId",
          "type": "uint256"
        }
      ],
      "name": "tokenURI",
      "outputs": [
        {
          "internalType": "string",
          "name": "",
          "type": "string"
        }
      ],
      "stateMutability": "view",
      "type": "function"
    },
    {
      "inputs": [],
      "name": "totalSupply",
      "outputs": [
        {
          "internalType": "uint256",
          "name": "",
          "type": "uint256"
        }
      ],
      "stateMutability": "view",
      "type": "function"
    },
    {
      "inputs": [
        {
          "internalType": "address",
          "name": "from",
          "type": "address"
        },
        {
          "internalType": "address",
          "name": "to",
          "type": "address"
        },
        {
          "internalType": "uint256",
          "name": "tokenId",
          "type": "uint256"
        }
      ],
      "name": "transferFrom",
      "outputs": [],
      "stateMutability": "nonpayable",
      "type": "function"
    },
    {
      "inputs": [
        {
          "internalType": "address",
          "name": "newOwner",
          "type": "address"
        }
      ],
      "name": "transferOwnership",
      "outputs": [],
      "stateMutability": "nonpayable",
      "type": "function"
    },
    {
      "inputs": [
        {
          "internalType": "uint256",
          "name": "transferETH",
          "type": "uint256"
        },
        {
          "internalType": "contract ERC20[]",
          "name": "tokens",
          "type": "address[]"
        }
      ],
      "name": "transferToSplit",
      "outputs": [],
      "stateMutability": "nonpayable",
      "type": "function"
    },
    {
      "inputs": [
        {
          "internalType": "uint256",
          "name": "tokenId",
          "type": "uint256"
        }
      ],
      "name": "userExpires",
      "outputs": [
        {
          "internalType": "uint256",
          "name": "",
          "type": "uint256"
        }
      ],
      "stateMutability": "view",
      "type": "function"
    },
    {
      "inputs": [
        {
          "internalType": "uint256",
          "name": "tokenId",
          "type": "uint256"
        }
      ],
      "name": "userOf",
      "outputs": [
        {
          "internalType": "address",
          "name": "",
          "type": "address"
        }
      ],
      "stateMutability": "view",
      "type": "function"
    },
    {
      "inputs": [],
      "name": "withdraw",
      "outputs": [],
      "stateMutability": "nonpayable",
      "type": "function"
    }
  ],
  "bytecode": "0x60806040526000600c60006101000a81548160ff0219169083151502179055503480156200002c57600080fd5b506200004d620000416200005360201b60201c565b6200005b60201b60201c565b62000121565b600033905090565b6000600860029054906101000a900473ffffffffffffffffffffffffffffffffffffffff16905081600860026101000a81548173ffffffffffffffffffffffffffffffffffffffff021916908373ffffffffffffffffffffffffffffffffffffffff1602179055508173ffffffffffffffffffffffffffffffffffffffff168173ffffffffffffffffffffffffffffffffffffffff167f8be0079c531659141344cd1fd0a4f28419497f9722a3daafe3b4186f6b6457e060405160405180910390a35050565b61520480620001316000396000f3fe6080604052600436106102505760003560e01c8063713b978711610139578063b88d4fde116100b6578063e030565e1161007a578063e030565e1461088d578063e985e9c5146108b6578063eb8d2444146108f3578063f2fde38b1461091e578063f47c84c514610947578063fd4fe8a81461097257610250565b8063b88d4fde14610796578063b9c9d93a146107bf578063c2f1f14a146107ea578063c4559d5a14610827578063c87b56dd1461085057610250565b80638fc88c48116100fd5780638fc88c48146106c057806395d89b41146106fd5780639b90c9c314610728578063a0712d6814610751578063a22cb4651461076d57610250565b8063713b9787146105ff578063715018a61461062a57806379ab7c8e146106415780637ff9b5961461066a5780638da5cb5b1461069557610250565b8063284a44a8116101d257806355f804b31161019657806355f804b3146104dd5780636352211e146105065780636c0360eb146105435780636c1951ae1461056e578063703199701461059757806370a08231146105c257610250565b8063284a44a81461041f5780632a55205a1461044857806334918dfd146104865780633ccfd60b1461049d57806342842e0e146104b457610250565b8063095ea7b311610219578063095ea7b31461034c57806309aa3dcf146103755780630e769b2b146103a057806318160ddd146103cb57806323b872dd146103f657610250565b80625f16fb14610255578063015893c51461027e57806301ffc9a7146102a757806306fdde03146102e4578063081812fc1461030f575b600080fd5b34801561026157600080fd5b5061027c6004803603810190610277919061349f565b61099b565b005b34801561028a57600080fd5b506102a560048036038101906102a0919061355b565b610aab565b005b3480156102b357600080fd5b506102ce60048036038101906102c99190613648565b610bda565b6040516102db9190613690565b60405180910390f35b3480156102f057600080fd5b506102f9610bec565b6040516103069190613744565b60405180910390f35b34801561031b57600080fd5b506103366004803603810190610331919061379c565b610c7e565b60405161034391906137d8565b60405180910390f35b34801561035857600080fd5b50610373600480360381019061036e91906137f3565b610cfd565b005b34801561038157600080fd5b5061038a610e41565b6040516103979190613842565b60405180910390f35b3480156103ac57600080fd5b506103b5610e47565b6040516103c291906137d8565b60405180910390f35b3480156103d757600080fd5b506103e0610e6d565b6040516103ed9190613842565b60405180910390f35b34801561040257600080fd5b5061041d6004803603810190610418919061385d565b610e84565b005b34801561042b57600080fd5b50610446600480360381019061044191906139ee565b6111a9565b005b34801561045457600080fd5b5061046f600480360381019061046a9190613aec565b611294565b60405161047d929190613b2c565b60405180910390f35b34801561049257600080fd5b5061049b611397565b005b3480156104a957600080fd5b506104b26113cb565b005b3480156104c057600080fd5b506104db60048036038101906104d6919061385d565b611492565b005b3480156104e957600080fd5b5061050460048036038101906104ff9190613c0a565b6114b2565b005b34801561051257600080fd5b5061052d6004803603810190610528919061379c565b6114d4565b60405161053a91906137d8565b60405180910390f35b34801561054f57600080fd5b506105586114e6565b6040516105659190613744565b60405180910390f35b34801561057a57600080fd5b506105956004803603810190610590919061379c565b611574565b005b3480156105a357600080fd5b506105ac61161b565b6040516105b991906137d8565b60405180910390f35b3480156105ce57600080fd5b506105e960048036038101906105e49190613c53565b611641565b6040516105f69190613842565b60405180910390f35b34801561060b57600080fd5b506106146116fa565b60405161062191906137d8565b60405180910390f35b34801561063657600080fd5b5061063f611720565b005b34801561064d57600080fd5b5061066860048036038101906106639190613c80565b611734565b005b34801561067657600080fd5b5061067f611801565b60405161068c9190613842565b60405180910390f35b3480156106a157600080fd5b506106aa611807565b6040516106b791906137d8565b60405180910390f35b3480156106cc57600080fd5b506106e760048036038101906106e2919061379c565b611831565b6040516106f49190613842565b60405180910390f35b34801561070957600080fd5b50610712611852565b60405161071f9190613744565b60405180910390f35b34801561073457600080fd5b5061074f600480360381019061074a9190613ee7565b6118e4565b005b61076b6004803603810190610766919061379c565b611bf8565b005b34801561077957600080fd5b50610794600480360381019061078f9190613fc6565b611def565b005b3480156107a257600080fd5b506107bd60048036038101906107b89190614006565b611f67565b005b3480156107cb57600080fd5b506107d4611fda565b6040516107e19190613842565b60405180910390f35b3480156107f657600080fd5b50610811600480360381019061080c919061379c565b611fe0565b60405161081e91906137d8565b60405180910390f35b34801561083357600080fd5b5061084e60048036038101906108499190614089565b61200c565b005b34801561085c57600080fd5b506108776004803603810190610872919061379c565b612118565b6040516108849190613744565b60405180910390f35b34801561089957600080fd5b506108b460048036038101906108af9190614170565b61212a565b005b3480156108c257600080fd5b506108dd60048036038101906108d891906141c3565b61228f565b6040516108ea9190613690565b60405180910390f35b3480156108ff57600080fd5b50610908612323565b6040516109159190613690565b60405180910390f35b34801561092a57600080fd5b5061094560048036038101906109409190613c53565b612336565b005b34801561095357600080fd5b5061095c6123ba565b6040516109699190613842565b60405180910390f35b34801561097e57600080fd5b5061099960048036038101906109949190613c53565b6123c0565b005b600073ffffffffffffffffffffffffffffffffffffffff166109bb61240c565b73ffffffffffffffffffffffffffffffffffffffff161415610a12576040517f08c379a0000000000000000000000000000000000000000000000000000000008152600401610a099061424f565b60405180910390fd5b610a1b87612436565b610a2361255c565b73ffffffffffffffffffffffffffffffffffffffff166315811302610a4661240c565b898989898989896040518963ffffffff1660e01b8152600401610a70989796959493929190614463565b600060405180830381600087803b158015610a8a57600080fd5b505af1158015610a9e573d6000803e3d6000fd5b5050505050505050505050565b610ab3612586565b600073ffffffffffffffffffffffffffffffffffffffff16610ad361240c565b73ffffffffffffffffffffffffffffffffffffffff1614610b29576040517f08c379a0000000000000000000000000000000000000000000000000000000008152600401610b2090614522565b60405180910390fd5b6000610b3361255c565b73ffffffffffffffffffffffffffffffffffffffff16637601f7828787878787306040518763ffffffff1660e01b8152600401610b7596959493929190614542565b602060405180830381600087803b158015610b8f57600080fd5b505af1158015610ba3573d6000803e3d6000fd5b505050506040513d601f19601f82011682018060405250810190610bc791906145ae565b9050610bd281612604565b505050505050565b6000610be582612648565b9050919050565b606060028054610bfb9061460a565b80601f0160208091040260200160405190810160405280929190818152602001828054610c279061460a565b8015610c745780601f10610c4957610100808354040283529160200191610c74565b820191906000526020600020905b815481529060010190602001808311610c5757829003601f168201915b5050505050905090565b6000610c898261268a565b610cbf576040517fcf4700e400000000000000000000000000000000000000000000000000000000815260040160405180910390fd5b6006600083815260200190815260200160002060000160009054906101000a900473ffffffffffffffffffffffffffffffffffffffff169050919050565b6000610d08826114d4565b90508073ffffffffffffffffffffffffffffffffffffffff16610d296126e9565b73ffffffffffffffffffffffffffffffffffffffff1614610d8c57610d5581610d506126e9565b61228f565b610d8b576040517fcfb3b94200000000000000000000000000000000000000000000000000000000815260040160405180910390fd5b5b826006600084815260200190815260200160002060000160006101000a81548173ffffffffffffffffffffffffffffffffffffffff021916908373ffffffffffffffffffffffffffffffffffffffff160217905550818373ffffffffffffffffffffffffffffffffffffffff168273ffffffffffffffffffffffffffffffffffffffff167f8c5be1e5ebec7d5bd14f71427d1e84f3dd0314c0f7b2291e5b200ac8c7c3b92560405160405180910390a4505050565b600b5481565b601060009054906101000a900473ffffffffffffffffffffffffffffffffffffffff1681565b6000610e776126f1565b6001546000540303905090565b6000610e8f826126f6565b90508373ffffffffffffffffffffffffffffffffffffffff168173ffffffffffffffffffffffffffffffffffffffff1614610ef6576040517fa114810000000000000000000000000000000000000000000000000000000000815260040160405180910390fd5b600080610f02846127c4565b91509150610f188187610f136126e9565b6127eb565b610f6457610f2d86610f286126e9565b61228f565b610f63576040517f59c896be00000000000000000000000000000000000000000000000000000000815260040160405180910390fd5b5b600073ffffffffffffffffffffffffffffffffffffffff168573ffffffffffffffffffffffffffffffffffffffff161415610fcb576040517fea553b3400000000000000000000000000000000000000000000000000000000815260040160405180910390fd5b610fd8868686600161282f565b8015610fe357600082555b600560008773ffffffffffffffffffffffffffffffffffffffff1673ffffffffffffffffffffffffffffffffffffffff168152602001908152602001600020600081546001900391905081905550600560008673ffffffffffffffffffffffffffffffffffffffff1673ffffffffffffffffffffffffffffffffffffffff16815260200190815260200160002060008154600101919050819055506110b18561108d888887612835565b7c02000000000000000000000000000000000000000000000000000000001761285d565b600460008681526020019081526020016000208190555060007c020000000000000000000000000000000000000000000000000000000084161415611139576000600185019050600060046000838152602001908152602001600020541415611137576000548114611136578360046000838152602001908152602001600020819055505b5b505b838573ffffffffffffffffffffffffffffffffffffffff168773ffffffffffffffffffffffffffffffffffffffff167fddf252ad1be2c89b69c2b068fc378daa952ba7f163c4a11628f55a4df523b3ef60405160405180910390a46111a18686866001612888565b505050505050565b600073ffffffffffffffffffffffffffffffffffffffff166111c961240c565b73ffffffffffffffffffffffffffffffffffffffff161415611220576040517f08c379a00000000000000000000000000000000000000000000000000000000081526004016112179061424f565b60405180910390fd5b600088146112375761123686868686868661200c565b5b60005b875181101561127d5761126c8882815181106112595761125861463c565b5b602002602001015188888888888861099b565b806112769061469a565b905061123a565b5061128989898961288e565b505050505050505050565b6000806112a08461268a565b6112df576040517f08c379a00000000000000000000000000000000000000000000000000000000081526004016112d69061472f565b60405180910390fd5b600073ffffffffffffffffffffffffffffffffffffffff16601160009054906101000a900473ffffffffffffffffffffffffffffffffffffffff1673ffffffffffffffffffffffffffffffffffffffff161461135f57601160009054906101000a900473ffffffffffffffffffffffffffffffffffffffff16915061136a565b611367611807565b91505b6000612710600f548561137d919061474f565b61138791906147d8565b9050828192509250509250929050565b61139f612586565b600c60009054906101000a900460ff1615600c60006101000a81548160ff021916908315150217905550565b6113d3612586565b600073ffffffffffffffffffffffffffffffffffffffff166113f361240c565b73ffffffffffffffffffffffffffffffffffffffff1614611449576040517f08c379a00000000000000000000000000000000000000000000000000000000081526004016114409061487b565b60405180910390fd5b3373ffffffffffffffffffffffffffffffffffffffff166108fc479081150290604051600060405180830381858888f1935050505015801561148f573d6000803e3d6000fd5b50565b6114ad83838360405180602001604052806000815250611f67565b505050565b6114ba612586565b80600d90805190602001906114d0929190613255565b5050565b60006114df826126f6565b9050919050565b600d80546114f39061460a565b80601f016020809104026020016040519081016040528092919081815260200182805461151f9061460a565b801561156c5780601f106115415761010080835404028352916020019161156c565b820191906000526020600020905b81548152906001019060200180831161154f57829003601f168201915b505050505081565b61157c612586565b6000611586610e6d565b90506009548282611597919061489b565b106115d7576040517f08c379a00000000000000000000000000000000000000000000000000000000081526004016115ce9061493d565b60405180910390fd5b60005b828110156116165761160333600183856115f4919061489b565b6115fe919061489b565b612909565b808061160e9061469a565b9150506115da565b505050565b600e60009054906101000a900473ffffffffffffffffffffffffffffffffffffffff1681565b60008073ffffffffffffffffffffffffffffffffffffffff168273ffffffffffffffffffffffffffffffffffffffff1614156116a9576040517f8f4eb60400000000000000000000000000000000000000000000000000000000815260040160405180910390fd5b67ffffffffffffffff600560008473ffffffffffffffffffffffffffffffffffffffff1673ffffffffffffffffffffffffffffffffffffffff16815260200190815260200160002054169050919050565b601160009054906101000a900473ffffffffffffffffffffffffffffffffffffffff1681565b611728612586565b6117326000612927565b565b600073ffffffffffffffffffffffffffffffffffffffff1661175461240c565b73ffffffffffffffffffffffffffffffffffffffff1614156117ab576040517f08c379a00000000000000000000000000000000000000000000000000000000081526004016117a29061424f565b60405180910390fd5b600082146117bc576117bb6129ed565b5b60005b81518110156117fc576117eb8282815181106117de576117dd61463c565b5b6020026020010151612436565b806117f59061469a565b90506117bf565b505050565b600a5481565b6000600860029054906101000a900473ffffffffffffffffffffffffffffffffffffffff16905090565b600060a06012600084815260200190815260200160002054901c9050919050565b6060600380546118619061460a565b80601f016020809104026020016040519081016040528092919081815260200182805461188d9061460a565b80156118da5780601f106118af576101008083540402835291602001916118da565b820191906000526020600020905b8154815290600101906020018083116118bd57829003601f168201915b5050505050905090565b6000600860019054906101000a900460ff1615905080801561191857506001600860009054906101000a900460ff1660ff16105b80611947575061192730612aa3565b15801561194657506001600860009054906101000a900460ff1660ff16145b5b611986576040517f08c379a000000000000000000000000000000000000000000000000000000000815260040161197d906149cf565b60405180910390fd5b6001600860006101000a81548160ff021916908360ff16021790555080156119c4576001600860016101000a81548160ff0219169083151502179055505b6119cd86612927565b8460000151600290805190602001906119e7929190613255565b50846020015160039080519060200190611a02929190613255565b50611a0b6126f1565b60008190555084604001516009819055508460600151600a819055508460800151600b819055508460a00151600f8190555081601060006101000a81548173ffffffffffffffffffffffffffffffffffffffff021916908373ffffffffffffffffffffffffffffffffffffffff160217905550600073ffffffffffffffffffffffffffffffffffffffff168373ffffffffffffffffffffffffffffffffffffffff1614158015611ac057506000846020015151115b15611b7a5782600e60006101000a81548173ffffffffffffffffffffffffffffffffffffffff021916908373ffffffffffffffffffffffffffffffffffffffff1602179055508273ffffffffffffffffffffffffffffffffffffffff1663856a7ffa85602001516040518263ffffffff1660e01b8152600401611b439190614a44565b600060405180830381600087803b158015611b5d57600080fd5b505af1158015611b71573d6000803e3d6000fd5b50505050611b96565b8360000151600d9080519060200190611b94929190613255565b505b8015611bf0576000600860016101000a81548160ff0219169083151502179055507f7f26b83ff96e1f2b6a682f133852f6798a09c465da95921460cefb38474024986001604051611be79190614aae565b60405180910390a15b505050505050565b6000611c02610e6d565b9050600c60009054906101000a900460ff16611c53576040517f08c379a0000000000000000000000000000000000000000000000000000000008152600401611c4a90614b15565b60405180910390fd5b6009548282611c62919061489b565b1115611ca3576040517f08c379a0000000000000000000000000000000000000000000000000000000008152600401611c9a9061493d565b60405180910390fd5b600954811115611ce8576040517f08c379a0000000000000000000000000000000000000000000000000000000008152600401611cdf90614b81565b60405180910390fd5b600b54821115611d2d576040517f08c379a0000000000000000000000000000000000000000000000000000000008152600401611d2490614bed565b60405180910390fd5b81600a54611d3b919061474f565b341015611d7d576040517f08c379a0000000000000000000000000000000000000000000000000000000008152600401611d7490614c59565b60405180910390fd5b611d873383612909565b60005b82811015611dea577f30385c845b448a36257a6a1716e6ad2e1bc2cbe333cde1e69fe849ad6511adfe338380611dbf9061469a565b9450604051611dcf929190613b2c565b60405180910390a18080611de29061469a565b915050611d8a565b505050565b611df76126e9565b73ffffffffffffffffffffffffffffffffffffffff168273ffffffffffffffffffffffffffffffffffffffff161415611e5c576040517fb06307db00000000000000000000000000000000000000000000000000000000815260040160405180910390fd5b8060076000611e696126e9565b73ffffffffffffffffffffffffffffffffffffffff1673ffffffffffffffffffffffffffffffffffffffff16815260200190815260200160002060008473ffffffffffffffffffffffffffffffffffffffff1673ffffffffffffffffffffffffffffffffffffffff16815260200190815260200160002060006101000a81548160ff0219169083151502179055508173ffffffffffffffffffffffffffffffffffffffff16611f166126e9565b73ffffffffffffffffffffffffffffffffffffffff167f17307eab39ab6107e8899845ad3d59bd9653f200f220920489ca2b5937696c3183604051611f5b9190613690565b60405180910390a35050565b611f72848484610e84565b60008373ffffffffffffffffffffffffffffffffffffffff163b14611fd457611f9d84848484612ac6565b611fd3576040517fd1a57ed600000000000000000000000000000000000000000000000000000000815260040160405180910390fd5b5b50505050565b600f5481565b60008060126000848152602001908152602001600020549050804260a01b108102905080915050919050565b600073ffffffffffffffffffffffffffffffffffffffff1661202c61240c565b73ffffffffffffffffffffffffffffffffffffffff161415612083576040517f08c379a000000000000000000000000000000000000000000000000000000000815260040161207a9061424f565b60405180910390fd5b61208b6129ed565b61209361255c565b73ffffffffffffffffffffffffffffffffffffffff1663e61cb05e6120b661240c565b8888888888886040518863ffffffff1660e01b81526004016120de9796959493929190614c79565b600060405180830381600087803b1580156120f857600080fd5b505af115801561210c573d6000803e3d6000fd5b50505050505050505050565b606061212382612c26565b9050919050565b6000612135846114d4565b90508073ffffffffffffffffffffffffffffffffffffffff166121566126e9565b73ffffffffffffffffffffffffffffffffffffffff16146121fc576121828161217d6126e9565b61228f565b6121fb5761218e6126e9565b73ffffffffffffffffffffffffffffffffffffffff166121ad85610c7e565b73ffffffffffffffffffffffffffffffffffffffff16146121fa576040517f4f1dd8e800000000000000000000000000000000000000000000000000000000815260040160405180910390fd5b5b5b8273ffffffffffffffffffffffffffffffffffffffff1660a08367ffffffffffffffff16901b1760126000868152602001908152602001600020819055508273ffffffffffffffffffffffffffffffffffffffff16847f4e06b4e7000e659094299b3533b47b6aa8ad048e95e872d23d1f4ee55af89cfe846040516122819190614ced565b60405180910390a350505050565b6000600760008473ffffffffffffffffffffffffffffffffffffffff1673ffffffffffffffffffffffffffffffffffffffff16815260200190815260200160002060008373ffffffffffffffffffffffffffffffffffffffff1673ffffffffffffffffffffffffffffffffffffffff16815260200190815260200160002060009054906101000a900460ff16905092915050565b600c60009054906101000a900460ff1681565b61233e612586565b600073ffffffffffffffffffffffffffffffffffffffff168173ffffffffffffffffffffffffffffffffffffffff1614156123ae576040517f08c379a00000000000000000000000000000000000000000000000000000000081526004016123a590614d7a565b60405180910390fd5b6123b781612927565b50565b60095481565b6123c8612586565b80600e60006101000a81548173ffffffffffffffffffffffffffffffffffffffff021916908373ffffffffffffffffffffffffffffffffffffffff16021790555050565b6000601160009054906101000a900473ffffffffffffffffffffffffffffffffffffffff16905090565b60008173ffffffffffffffffffffffffffffffffffffffff166370a08231306040518263ffffffff1660e01b815260040161247191906137d8565b60206040518083038186803b15801561248957600080fd5b505afa15801561249d573d6000803e3d6000fd5b505050506040513d601f19601f820116820180604052508101906124c19190614daf565b90508173ffffffffffffffffffffffffffffffffffffffff1663a9059cbb6124e761240c565b836040518363ffffffff1660e01b8152600401612505929190613b2c565b602060405180830381600087803b15801561251f57600080fd5b505af1158015612533573d6000803e3d6000fd5b505050506040513d601f19601f820116820180604052508101906125579190614df1565b505050565b6000601060009054906101000a900473ffffffffffffffffffffffffffffffffffffffff16905090565b61258e612d85565b73ffffffffffffffffffffffffffffffffffffffff166125ac611807565b73ffffffffffffffffffffffffffffffffffffffff1614612602576040517f08c379a00000000000000000000000000000000000000000000000000000000081526004016125f990614e6a565b60405180910390fd5b565b80601160006101000a81548173ffffffffffffffffffffffffffffffffffffffff021916908373ffffffffffffffffffffffffffffffffffffffff16021790555050565b600061265382612d8d565b80612683575063ad092b5c60e01b827bffffffffffffffffffffffffffffffffffffffffffffffffffffffff1916145b9050919050565b6000816126956126f1565b111580156126a4575060005482105b80156126e2575060007c0100000000000000000000000000000000000000000000000000000000600460008581526020019081526020016000205416145b9050919050565b600033905090565b600090565b600080829050806127056126f1565b1161278d5760005481101561278c5760006004600083815260200190815260200160002054905060007c01000000000000000000000000000000000000000000000000000000008216141561278a575b6000811415612780576004600083600190039350838152602001908152602001600020549050612755565b80925050506127bf565b505b5b6040517fdf2d9b4200000000000000000000000000000000000000000000000000000000815260040160405180910390fd5b919050565b60008060006006600085815260200190815260200160002090508092508254915050915091565b600073ffffffffffffffffffffffffffffffffffffffff8316925073ffffffffffffffffffffffffffffffffffffffff821691508382148383141790509392505050565b50505050565b60008060e883901c905060e861284c868684612dcf565b62ffffff16901b9150509392505050565b600073ffffffffffffffffffffffffffffffffffffffff83169250814260a01b178317905092915050565b50505050565b61289661255c565b73ffffffffffffffffffffffffffffffffffffffff16636e5f69198484846040518463ffffffff1660e01b81526004016128d293929190614f37565b600060405180830381600087803b1580156128ec57600080fd5b505af1158015612900573d6000803e3d6000fd5b50505050505050565b612923828260405180602001604052806000815250612dd8565b5050565b6000600860029054906101000a900473ffffffffffffffffffffffffffffffffffffffff16905081600860026101000a81548173ffffffffffffffffffffffffffffffffffffffff021916908373ffffffffffffffffffffffffffffffffffffffff1602179055508173ffffffffffffffffffffffffffffffffffffffff168173ffffffffffffffffffffffffffffffffffffffff167f8be0079c531659141344cd1fd0a4f28419497f9722a3daafe3b4186f6b6457e060405160405180910390a35050565b60006129f761240c565b73ffffffffffffffffffffffffffffffffffffffff1647604051612a1a90614fa6565b60006040518083038185875af1925050503d8060008114612a57576040519150601f19603f3d011682016040523d82523d6000602084013e612a5c565b606091505b5050905080612aa0576040517f08c379a0000000000000000000000000000000000000000000000000000000008152600401612a9790615007565b60405180910390fd5b50565b6000808273ffffffffffffffffffffffffffffffffffffffff163b119050919050565b60008373ffffffffffffffffffffffffffffffffffffffff1663150b7a02612aec6126e9565b8786866040518563ffffffff1660e01b8152600401612b0e9493929190615027565b602060405180830381600087803b158015612b2857600080fd5b505af1925050508015612b5957506040513d601f19601f82011682018060405250810190612b569190615088565b60015b612bd3573d8060008114612b89576040519150601f19603f3d011682016040523d82523d6000602084013e612b8e565b606091505b50600081511415612bcb576040517fd1a57ed600000000000000000000000000000000000000000000000000000000815260040160405180910390fd5b805181602001fd5b63150b7a0260e01b7bffffffffffffffffffffffffffffffffffffffffffffffffffffffff1916817bffffffffffffffffffffffffffffffffffffffffffffffffffffffff191614915050949350505050565b6060612c318261268a565b612c67576040517fa14c4b5000000000000000000000000000000000000000000000000000000000815260040160405180910390fd5b600073ffffffffffffffffffffffffffffffffffffffff16600e60009054906101000a900473ffffffffffffffffffffffffffffffffffffffff1673ffffffffffffffffffffffffffffffffffffffff1614612d7457600e60009054906101000a900473ffffffffffffffffffffffffffffffffffffffff1673ffffffffffffffffffffffffffffffffffffffff1663c87b56dd836040518263ffffffff1660e01b8152600401612d189190613842565b60006040518083038186803b158015612d3057600080fd5b505afa158015612d44573d6000803e3d6000fd5b505050506040513d6000823e3d601f19601f82011682018060405250810190612d6d9190615125565b9050612d80565b612d7d82612e75565b90505b919050565b600033905090565b6000632a55205a60e01b827bffffffffffffffffffffffffffffffffffffffffffffffffffffffff19161480612dc85750612dc782612f14565b5b9050919050565b60009392505050565b612de28383612fa6565b60008373ffffffffffffffffffffffffffffffffffffffff163b14612e7057600080549050600083820390505b612e226000868380600101945086612ac6565b612e58576040517fd1a57ed600000000000000000000000000000000000000000000000000000000815260040160405180910390fd5b818110612e0f578160005414612e6d57600080fd5b50505b505050565b6060612e808261268a565b612eb6576040517fa14c4b5000000000000000000000000000000000000000000000000000000000815260040160405180910390fd5b6000612ec0613163565b9050600081511415612ee15760405180602001604052806000815250612f0c565b80612eeb846131f5565b604051602001612efc9291906151aa565b6040516020818303038152906040525b915050919050565b60006301ffc9a760e01b827bffffffffffffffffffffffffffffffffffffffffffffffffffffffff19161480612f6f57506380ac58cd60e01b827bffffffffffffffffffffffffffffffffffffffffffffffffffffffff1916145b80612f9f5750635b5e139f60e01b827bffffffffffffffffffffffffffffffffffffffffffffffffffffffff1916145b9050919050565b6000805490506000821415612fe7576040517fb562e8dd00000000000000000000000000000000000000000000000000000000815260040160405180910390fd5b612ff4600084838561282f565b600160406001901b178202600560008573ffffffffffffffffffffffffffffffffffffffff1673ffffffffffffffffffffffffffffffffffffffff1681526020019081526020016000206000828254019250508190555061306b8361305c6000866000612835565b61306585613245565b1761285d565b6004600083815260200190815260200160002081905550600080838301905073ffffffffffffffffffffffffffffffffffffffff85169150828260007fddf252ad1be2c89b69c2b068fc378daa952ba7f163c4a11628f55a4df523b3ef600080a4600183015b81811461310c57808360007fddf252ad1be2c89b69c2b068fc378daa952ba7f163c4a11628f55a4df523b3ef600080a46001810190506130d1565b506000821415613148576040517f2e07630000000000000000000000000000000000000000000000000000000000815260040160405180910390fd5b80600081905550505061315e6000848385612888565b505050565b6060600d80546131729061460a565b80601f016020809104026020016040519081016040528092919081815260200182805461319e9061460a565b80156131eb5780601f106131c0576101008083540402835291602001916131eb565b820191906000526020600020905b8154815290600101906020018083116131ce57829003601f168201915b5050505050905090565b606060806040510190508060405280825b60011561323157600183039250600a81066030018353600a810490508061322c57613231565b613206565b508181036020830392508083525050919050565b60006001821460e11b9050919050565b8280546132619061460a565b90600052602060002090601f01602090048101928261328357600085556132ca565b82601f1061329c57805160ff19168380011785556132ca565b828001600101855582156132ca579182015b828111156132c95782518255916020019190600101906132ae565b5b5090506132d791906132db565b5090565b5b808211156132f45760008160009055506001016132dc565b5090565b6000604051905090565b600080fd5b600080fd5b600073ffffffffffffffffffffffffffffffffffffffff82169050919050565b60006133378261330c565b9050919050565b60006133498261332c565b9050919050565b6133598161333e565b811461336457600080fd5b50565b60008135905061337681613350565b92915050565b600080fd5b600080fd5b600080fd5b60008083601f8401126133a1576133a061337c565b5b8235905067ffffffffffffffff8111156133be576133bd613381565b5b6020830191508360208202830111156133da576133d9613386565b5b9250929050565b60008083601f8401126133f7576133f661337c565b5b8235905067ffffffffffffffff81111561341457613413613381565b5b6020830191508360208202830111156134305761342f613386565b5b9250929050565b600063ffffffff82169050919050565b61345081613437565b811461345b57600080fd5b50565b60008135905061346d81613447565b92915050565b61347c8161332c565b811461348757600080fd5b50565b60008135905061349981613473565b92915050565b600080600080600080600060a0888a0312156134be576134bd613302565b5b60006134cc8a828b01613367565b975050602088013567ffffffffffffffff8111156134ed576134ec613307565b5b6134f98a828b0161338b565b9650965050604088013567ffffffffffffffff81111561351c5761351b613307565b5b6135288a828b016133e1565b9450945050606061353b8a828b0161345e565b925050608061354c8a828b0161348a565b91505092959891949750929550565b60008060008060006060868803121561357757613576613302565b5b600086013567ffffffffffffffff81111561359557613594613307565b5b6135a18882890161338b565b9550955050602086013567ffffffffffffffff8111156135c4576135c3613307565b5b6135d0888289016133e1565b935093505060406135e38882890161345e565b9150509295509295909350565b60007fffffffff0000000000000000000000000000000000000000000000000000000082169050919050565b613625816135f0565b811461363057600080fd5b50565b6000813590506136428161361c565b92915050565b60006020828403121561365e5761365d613302565b5b600061366c84828501613633565b91505092915050565b60008115159050919050565b61368a81613675565b82525050565b60006020820190506136a56000830184613681565b92915050565b600081519050919050565b600082825260208201905092915050565b60005b838110156136e55780820151818401526020810190506136ca565b838111156136f4576000848401525b50505050565b6000601f19601f8301169050919050565b6000613716826136ab565b61372081856136b6565b93506137308185602086016136c7565b613739816136fa565b840191505092915050565b6000602082019050818103600083015261375e818461370b565b905092915050565b6000819050919050565b61377981613766565b811461378457600080fd5b50565b60008135905061379681613770565b92915050565b6000602082840312156137b2576137b1613302565b5b60006137c084828501613787565b91505092915050565b6137d28161332c565b82525050565b60006020820190506137ed60008301846137c9565b92915050565b6000806040838503121561380a57613809613302565b5b60006138188582860161348a565b925050602061382985828601613787565b9150509250929050565b61383c81613766565b82525050565b60006020820190506138576000830184613833565b92915050565b60008060006060848603121561387657613875613302565b5b60006138848682870161348a565b93505060206138958682870161348a565b92505060406138a686828701613787565b9150509250925092565b7f4e487b7100000000000000000000000000000000000000000000000000000000600052604160045260246000fd5b6138e8826136fa565b810181811067ffffffffffffffff82111715613907576139066138b0565b5b80604052505050565b600061391a6132f8565b905061392682826138df565b919050565b600067ffffffffffffffff821115613946576139456138b0565b5b602082029050602081019050919050565b600061396a6139658461392b565b613910565b9050808382526020820190506020840283018581111561398d5761398c613386565b5b835b818110156139b657806139a28882613367565b84526020840193505060208101905061398f565b5050509392505050565b600082601f8301126139d5576139d461337c565b5b81356139e5848260208601613957565b91505092915050565b600080600080600080600080600060e08a8c031215613a1057613a0f613302565b5b6000613a1e8c828d0161348a565b9950506020613a2f8c828d01613787565b98505060408a013567ffffffffffffffff811115613a5057613a4f613307565b5b613a5c8c828d016139c0565b97505060608a013567ffffffffffffffff811115613a7d57613a7c613307565b5b613a898c828d0161338b565b965096505060808a013567ffffffffffffffff811115613aac57613aab613307565b5b613ab88c828d016133e1565b945094505060a0613acb8c828d0161345e565b92505060c0613adc8c828d0161348a565b9150509295985092959850929598565b60008060408385031215613b0357613b02613302565b5b6000613b1185828601613787565b9250506020613b2285828601613787565b9150509250929050565b6000604082019050613b4160008301856137c9565b613b4e6020830184613833565b9392505050565b600080fd5b600067ffffffffffffffff821115613b7557613b746138b0565b5b613b7e826136fa565b9050602081019050919050565b82818337600083830152505050565b6000613bad613ba884613b5a565b613910565b905082815260208101848484011115613bc957613bc8613b55565b5b613bd4848285613b8b565b509392505050565b600082601f830112613bf157613bf061337c565b5b8135613c01848260208601613b9a565b91505092915050565b600060208284031215613c2057613c1f613302565b5b600082013567ffffffffffffffff811115613c3e57613c3d613307565b5b613c4a84828501613bdc565b91505092915050565b600060208284031215613c6957613c68613302565b5b6000613c778482850161348a565b91505092915050565b60008060408385031215613c9757613c96613302565b5b6000613ca585828601613787565b925050602083013567ffffffffffffffff811115613cc657613cc5613307565b5b613cd2858286016139c0565b9150509250929050565b600080fd5b600080fd5b600060c08284031215613cfc57613cfb613cdc565b5b613d0660c0613910565b9050600082013567ffffffffffffffff811115613d2657613d25613ce1565b5b613d3284828501613bdc565b600083015250602082013567ffffffffffffffff811115613d5657613d55613ce1565b5b613d6284828501613bdc565b6020830152506040613d7684828501613787565b6040830152506060613d8a84828501613787565b6060830152506080613d9e84828501613787565b60808301525060a0613db284828501613787565b60a08301525092915050565b600067ffffffffffffffff821115613dd957613dd86138b0565b5b613de2826136fa565b9050602081019050919050565b6000613e02613dfd84613dbe565b613910565b905082815260208101848484011115613e1e57613e1d613b55565b5b613e29848285613b8b565b509392505050565b600082601f830112613e4657613e4561337c565b5b8135613e56848260208601613def565b91505092915050565b600060408284031215613e7557613e74613cdc565b5b613e7f6040613910565b9050600082013567ffffffffffffffff811115613e9f57613e9e613ce1565b5b613eab84828501613bdc565b600083015250602082013567ffffffffffffffff811115613ecf57613ece613ce1565b5b613edb84828501613e31565b60208301525092915050565b600080600080600060a08688031215613f0357613f02613302565b5b6000613f118882890161348a565b955050602086013567ffffffffffffffff811115613f3257613f31613307565b5b613f3e88828901613ce6565b945050604086013567ffffffffffffffff811115613f5f57613f5e613307565b5b613f6b88828901613e5f565b9350506060613f7c8882890161348a565b9250506080613f8d8882890161348a565b9150509295509295909350565b613fa381613675565b8114613fae57600080fd5b50565b600081359050613fc081613f9a565b92915050565b60008060408385031215613fdd57613fdc613302565b5b6000613feb8582860161348a565b9250506020613ffc85828601613fb1565b9150509250929050565b600080600080608085870312156140205761401f613302565b5b600061402e8782880161348a565b945050602061403f8782880161348a565b935050604061405087828801613787565b925050606085013567ffffffffffffffff81111561407157614070613307565b5b61407d87828801613e31565b91505092959194509250565b600080600080600080608087890312156140a6576140a5613302565b5b600087013567ffffffffffffffff8111156140c4576140c3613307565b5b6140d089828a0161338b565b9650965050602087013567ffffffffffffffff8111156140f3576140f2613307565b5b6140ff89828a016133e1565b9450945050604061411289828a0161345e565b925050606061412389828a0161348a565b9150509295509295509295565b600067ffffffffffffffff82169050919050565b61414d81614130565b811461415857600080fd5b50565b60008135905061416a81614144565b92915050565b60008060006060848603121561418957614188613302565b5b600061419786828701613787565b93505060206141a88682870161348a565b92505060406141b98682870161415b565b9150509250925092565b600080604083850312156141da576141d9613302565b5b60006141e88582860161348a565b92505060206141f98582860161348a565b9150509250929050565b7f53706c6974206e6f742063726561746564207965740000000000000000000000600082015250565b60006142396015836136b6565b915061424482614203565b602082019050919050565b600060208201905081810360008301526142688161422c565b9050919050565b6000819050919050565b600061429461428f61428a8461330c565b61426f565b61330c565b9050919050565b60006142a682614279565b9050919050565b60006142b88261429b565b9050919050565b6142c8816142ad565b82525050565b600082825260208201905092915050565b6000819050919050565b6142f28161332c565b82525050565b600061430483836142e9565b60208301905092915050565b600061431f602084018461348a565b905092915050565b6000602082019050919050565b600061434083856142ce565b935061434b826142df565b8060005b85811015614384576143618284614310565b61436b88826142f8565b975061437683614327565b92505060018101905061434f565b5085925050509392505050565b600082825260208201905092915050565b6000819050919050565b6143b581613437565b82525050565b60006143c783836143ac565b60208301905092915050565b60006143e2602084018461345e565b905092915050565b6000602082019050919050565b60006144038385614391565b935061440e826143a2565b8060005b858110156144475761442482846143d3565b61442e88826143bb565b9750614439836143ea565b925050600181019050614412565b5085925050509392505050565b61445d81613437565b82525050565b600060c082019050614478600083018b6137c9565b614485602083018a6142bf565b818103604083015261449881888a614334565b905081810360608301526144ad8186886143f7565b90506144bc6080830185614454565b6144c960a08301846137c9565b9998505050505050505050565b7f53706c697420616c726561647920637265617465640000000000000000000000600082015250565b600061450c6015836136b6565b9150614517826144d6565b602082019050919050565b6000602082019050818103600083015261453b816144ff565b9050919050565b6000608082019050818103600083015261455d81888a614334565b905081810360208301526145728186886143f7565b90506145816040830185614454565b61458e60608301846137c9565b979650505050505050565b6000815190506145a881613473565b92915050565b6000602082840312156145c4576145c3613302565b5b60006145d284828501614599565b91505092915050565b7f4e487b7100000000000000000000000000000000000000000000000000000000600052602260045260246000fd5b6000600282049050600182168061462257607f821691505b60208210811415614636576146356145db565b5b50919050565b7f4e487b7100000000000000000000000000000000000000000000000000000000600052603260045260246000fd5b7f4e487b7100000000000000000000000000000000000000000000000000000000600052601160045260246000fd5b60006146a582613766565b91507fffffffffffffffffffffffffffffffffffffffffffffffffffffffffffffffff8214156146d8576146d761466b565b5b600182019050919050565b7f4e6f6e6578697374656e7420746f6b656e000000000000000000000000000000600082015250565b60006147196011836136b6565b9150614724826146e3565b602082019050919050565b600060208201905081810360008301526147488161470c565b9050919050565b600061475a82613766565b915061476583613766565b9250817fffffffffffffffffffffffffffffffffffffffffffffffffffffffffffffffff048311821515161561479e5761479d61466b565b5b828202905092915050565b7f4e487b7100000000000000000000000000000000000000000000000000000000600052601260045260246000fd5b60006147e382613766565b91506147ee83613766565b9250826147fe576147fd6147a9565b5b828204905092915050565b7f43616e6e6f74207769746864726177207769746820616e20616374697665207360008201527f706c697400000000000000000000000000000000000000000000000000000000602082015250565b60006148656024836136b6565b915061487082614809565b604082019050919050565b6000602082019050818103600083015261489481614858565b9050919050565b60006148a682613766565b91506148b183613766565b9250827fffffffffffffffffffffffffffffffffffffffffffffffffffffffffffffffff038211156148e6576148e561466b565b5b828201905092915050565b7f507572636861736520776f756c6420657863656564206d617820737570706c79600082015250565b60006149276020836136b6565b9150614932826148f1565b602082019050919050565b600060208201905081810360008301526149568161491a565b9050919050565b7f496e697469616c697a61626c653a20636f6e747261637420697320616c72656160008201527f647920696e697469616c697a6564000000000000000000000000000000000000602082015250565b60006149b9602e836136b6565b91506149c48261495d565b604082019050919050565b600060208201905081810360008301526149e8816149ac565b9050919050565b600081519050919050565b600082825260208201905092915050565b6000614a16826149ef565b614a2081856149fa565b9350614a308185602086016136c7565b614a39816136fa565b840191505092915050565b60006020820190508181036000830152614a5e8184614a0b565b905092915050565b6000819050919050565b600060ff82169050919050565b6000614a98614a93614a8e84614a66565b61426f565b614a70565b9050919050565b614aa881614a7d565b82525050565b6000602082019050614ac36000830184614a9f565b92915050565b7f53616c65206d7573742062652061637469766520746f206d696e740000000000600082015250565b6000614aff601b836136b6565b9150614b0a82614ac9565b602082019050919050565b60006020820190508181036000830152614b2e81614af2565b9050919050565b7f534f4c44204f5554000000000000000000000000000000000000000000000000600082015250565b6000614b6b6008836136b6565b9150614b7682614b35565b602082019050919050565b60006020820190508181036000830152614b9a81614b5e565b9050919050565b7f4578636565646564206d6178206e756d62657220706572206d696e7400000000600082015250565b6000614bd7601c836136b6565b9150614be282614ba1565b602082019050919050565b60006020820190508181036000830152614c0681614bca565b9050919050565b7f496e73756666696369656e742066756e64730000000000000000000000000000600082015250565b6000614c436012836136b6565b9150614c4e82614c0d565b602082019050919050565b60006020820190508181036000830152614c7281614c36565b9050919050565b600060a082019050614c8e600083018a6137c9565b8181036020830152614ca181888a614334565b90508181036040830152614cb68186886143f7565b9050614cc56060830185614454565b614cd260808301846137c9565b98975050505050505050565b614ce781614130565b82525050565b6000602082019050614d026000830184614cde565b92915050565b7f4f776e61626c653a206e6577206f776e657220697320746865207a65726f206160008201527f6464726573730000000000000000000000000000000000000000000000000000602082015250565b6000614d646026836136b6565b9150614d6f82614d08565b604082019050919050565b60006020820190508181036000830152614d9381614d57565b9050919050565b600081519050614da981613770565b92915050565b600060208284031215614dc557614dc4613302565b5b6000614dd384828501614d9a565b91505092915050565b600081519050614deb81613f9a565b92915050565b600060208284031215614e0757614e06613302565b5b6000614e1584828501614ddc565b91505092915050565b7f4f776e61626c653a2063616c6c6572206973206e6f7420746865206f776e6572600082015250565b6000614e546020836136b6565b9150614e5f82614e1e565b602082019050919050565b60006020820190508181036000830152614e8381614e47565b9050919050565b600081519050919050565b6000819050602082019050919050565b614eae816142ad565b82525050565b6000614ec08383614ea5565b60208301905092915050565b6000602082019050919050565b6000614ee482614e8a565b614eee81856142ce565b9350614ef983614e95565b8060005b83811015614f2a578151614f118882614eb4565b9750614f1c83614ecc565b925050600181019050614efd565b5085935050505092915050565b6000606082019050614f4c60008301866137c9565b614f596020830185613833565b8181036040830152614f6b8184614ed9565b9050949350505050565b600081905092915050565b50565b6000614f90600083614f75565b9150614f9b82614f80565b600082019050919050565b6000614fb182614f83565b9150819050919050565b7f436f756c64206e6f74207472616e736665722045544820746f2073706c697400600082015250565b6000614ff1601f836136b6565b9150614ffc82614fbb565b602082019050919050565b6000602082019050818103600083015261502081614fe4565b9050919050565b600060808201905061503c60008301876137c9565b61504960208301866137c9565b6150566040830185613833565b81810360608301526150688184614a0b565b905095945050505050565b6000815190506150828161361c565b92915050565b60006020828403121561509e5761509d613302565b5b60006150ac84828501615073565b91505092915050565b60006150c86150c384613b5a565b613910565b9050828152602081018484840111156150e4576150e3613b55565b5b6150ef8482856136c7565b509392505050565b600082601f83011261510c5761510b61337c565b5b815161511c8482602086016150b5565b91505092915050565b60006020828403121561513b5761513a613302565b5b600082015167ffffffffffffffff81111561515957615158613307565b5b615165848285016150f7565b91505092915050565b600081905092915050565b6000615184826136ab565b61518e818561516e565b935061519e8185602086016136c7565b80840191505092915050565b60006151b68285615179565b91506151c28284615179565b9150819050939250505056fea2646970667358221220f456c7f8fc3403f68711f876b970cad68808bf8c9d1cd3e5421ecc4aaf0cd19964736f6c63430008090033",
  "linkReferences": {},
  "deployedLinkReferences": {}
}