{
  "_format": "hh-sol-artifact-1",
  "contractName": "DCNTRegistry",
  "sourceName": "contracts/DCNTRegistry.sol",
  "abi": [
    {
      "inputs": [],
      "stateMutability": "nonpayable",
      "type": "constructor"
    },
    {
      "anonymous": false,
      "inputs": [
        {
          "indexed": true,
          "internalType": "address",
          "name": "deployer",
          "type": "address"
        },
        {
          "indexed": true,
          "internalType": "address",
          "name": "deployment",
          "type": "address"
        },
        {
          "indexed": false,
          "internalType": "string",
          "name": "key",
          "type": "string"
        }
      ],
      "name": "Register",
      "type": "event"
    },
    {
      "anonymous": false,
      "inputs": [
        {
          "indexed": true,
          "internalType": "address",
          "name": "deployer",
          "type": "address"
        },
        {
          "indexed": true,
          "internalType": "address",
          "name": "deployment",
          "type": "address"
        }
      ],
      "name": "Remove",
      "type": "event"
    },
    {
      "inputs": [
        {
          "internalType": "address",
          "name": "_deployer",
          "type": "address"
        }
      ],
      "name": "query",
      "outputs": [
        {
          "internalType": "address[]",
          "name": "",
          "type": "address[]"
        }
      ],
      "stateMutability": "view",
      "type": "function"
    },
    {
      "inputs": [
        {
          "internalType": "address",
          "name": "_deployer",
          "type": "address"
        },
        {
          "internalType": "address",
          "name": "_deployment",
          "type": "address"
        },
        {
          "internalType": "string",
          "name": "_key",
          "type": "string"
        }
      ],
      "name": "register",
      "outputs": [],
      "stateMutability": "nonpayable",
      "type": "function"
    },
    {
      "inputs": [
        {
          "internalType": "address",
          "name": "_deployer",
          "type": "address"
        },
        {
          "internalType": "address",
          "name": "_deployment",
          "type": "address"
        }
      ],
      "name": "remove",
      "outputs": [],
      "stateMutability": "nonpayable",
      "type": "function"
    }
  ],
  "bytecode": "0x608060405234801561001057600080fd5b50610a5f806100206000396000f3fe608060405234801561001057600080fd5b50600436106100415760003560e01c80637f7c149114610046578063d4fc9fc614610062578063ede4973914610092575b600080fd5b610060600480360381019061005b91906105de565b6100ae565b005b61007c6004803603810190610077919061061e565b6101a1565b6040516100899190610709565b60405180910390f35b6100ac60048036038101906100a79190610790565b6101f0565b005b6000610100826000808673ffffffffffffffffffffffffffffffffffffffff1673ffffffffffffffffffffffffffffffffffffffff1681526020019081526020016000206102f290919063ffffffff16565b905080610142576040517f08c379a000000000000000000000000000000000000000000000000000000000815260040161013990610861565b60405180910390fd5b8173ffffffffffffffffffffffffffffffffffffffff168373ffffffffffffffffffffffffffffffffffffffff167fdf0aeeaee96d1d44914c04fae90b6bd2595c79e3a78f9692d4e975759cdb6e3f60405160405180910390a3505050565b60606101e96000808473ffffffffffffffffffffffffffffffffffffffff1673ffffffffffffffffffffffffffffffffffffffff168152602001908152602001600020610322565b9050919050565b6000610242846000808873ffffffffffffffffffffffffffffffffffffffff1673ffffffffffffffffffffffffffffffffffffffff16815260200190815260200160002061034390919063ffffffff16565b905080610284576040517f08c379a000000000000000000000000000000000000000000000000000000000815260040161027b906108cd565b60405180910390fd5b8373ffffffffffffffffffffffffffffffffffffffff168573ffffffffffffffffffffffffffffffffffffffff167f696dc6366565cb253ac5f18b9738ff7f1353bf1554d64ed36a4548999e70ad9e85856040516102e392919061093a565b60405180910390a35050505050565b600061031a836000018373ffffffffffffffffffffffffffffffffffffffff1660001b610373565b905092915050565b6060600061033283600001610487565b905060608190508092505050919050565b600061036b836000018373ffffffffffffffffffffffffffffffffffffffff1660001b6104e3565b905092915050565b6000808360010160008481526020019081526020016000205490506000811461047b5760006001826103a59190610997565b90506000600186600001805490506103bd9190610997565b905081811461042c5760008660000182815481106103de576103dd6109cb565b5b9060005260206000200154905080876000018481548110610402576104016109cb565b5b90600052602060002001819055508387600101600083815260200190815260200160002081905550505b856000018054806104405761043f6109fa565b5b600190038181906000526020600020016000905590558560010160008681526020019081526020016000206000905560019350505050610481565b60009150505b92915050565b6060816000018054806020026020016040519081016040528092919081815260200182805480156104d757602002820191906000526020600020905b8154815260200190600101908083116104c3575b50505050509050919050565b60006104ef8383610553565b61054857826000018290806001815401808255809150506001900390600052602060002001600090919091909150558260000180549050836001016000848152602001908152602001600020819055506001905061054d565b600090505b92915050565b600080836001016000848152602001908152602001600020541415905092915050565b600080fd5b600080fd5b600073ffffffffffffffffffffffffffffffffffffffff82169050919050565b60006105ab82610580565b9050919050565b6105bb816105a0565b81146105c657600080fd5b50565b6000813590506105d8816105b2565b92915050565b600080604083850312156105f5576105f4610576565b5b6000610603858286016105c9565b9250506020610614858286016105c9565b9150509250929050565b60006020828403121561063457610633610576565b5b6000610642848285016105c9565b91505092915050565b600081519050919050565b600082825260208201905092915050565b6000819050602082019050919050565b610680816105a0565b82525050565b60006106928383610677565b60208301905092915050565b6000602082019050919050565b60006106b68261064b565b6106c08185610656565b93506106cb83610667565b8060005b838110156106fc5781516106e38882610686565b97506106ee8361069e565b9250506001810190506106cf565b5085935050505092915050565b6000602082019050818103600083015261072381846106ab565b905092915050565b600080fd5b600080fd5b600080fd5b60008083601f8401126107505761074f61072b565b5b8235905067ffffffffffffffff81111561076d5761076c610730565b5b60208301915083600182028301111561078957610788610735565b5b9250929050565b600080600080606085870312156107aa576107a9610576565b5b60006107b8878288016105c9565b94505060206107c9878288016105c9565b935050604085013567ffffffffffffffff8111156107ea576107e961057b565b5b6107f68782880161073a565b925092505092959194509250565b600082825260208201905092915050565b7f52656d6f76616c2077617320756e7375636365737366756c0000000000000000600082015250565b600061084b601883610804565b915061085682610815565b602082019050919050565b6000602082019050818103600083015261087a8161083e565b9050919050565b7f526567697374726174696f6e2077617320756e7375636365737366756c000000600082015250565b60006108b7601d83610804565b91506108c282610881565b602082019050919050565b600060208201905081810360008301526108e6816108aa565b9050919050565b82818337600083830152505050565b6000601f19601f8301169050919050565b60006109198385610804565b93506109268385846108ed565b61092f836108fc565b840190509392505050565b6000602082019050818103600083015261095581848661090d565b90509392505050565b6000819050919050565b7f4e487b7100000000000000000000000000000000000000000000000000000000600052601160045260246000fd5b60006109a28261095e565b91506109ad8361095e565b9250828210156109c0576109bf610968565b5b828203905092915050565b7f4e487b7100000000000000000000000000000000000000000000000000000000600052603260045260246000fd5b7f4e487b7100000000000000000000000000000000000000000000000000000000600052603160045260246000fdfea2646970667358221220ae62f50310cc8df9e1cfc84dd89fb5a20dd507f901918c96e7b17526a3d3d1c264736f6c63430008090033",
  "linkReferences": {},
  "deployedLinkReferences": {}
}