{
  "_format": "hh-sol-artifact-1",
  "contractName": "DCNTVault",
  "sourceName": "contracts/DCNTVault.sol",
  "abi": [
    {
      "anonymous": false,
      "inputs": [
        {
          "indexed": false,
          "internalType": "address",
          "name": "account",
          "type": "address"
        },
        {
          "indexed": false,
          "internalType": "uint256",
          "name": "amount",
          "type": "uint256"
        }
      ],
      "name": "Claimed",
      "type": "event"
    },
    {
      "anonymous": false,
      "inputs": [
        {
          "indexed": false,
          "internalType": "uint8",
          "name": "version",
          "type": "uint8"
        }
      ],
      "name": "Initialized",
      "type": "event"
    },
    {
      "anonymous": false,
      "inputs": [
        {
          "indexed": true,
          "internalType": "address",
          "name": "previousOwner",
          "type": "address"
        },
        {
          "indexed": true,
          "internalType": "address",
          "name": "newOwner",
          "type": "address"
        }
      ],
      "name": "OwnershipTransferred",
      "type": "event"
    },
    {
      "inputs": [
        {
          "internalType": "address",
          "name": "to",
          "type": "address"
        },
        {
          "internalType": "uint256",
          "name": "tokenId",
          "type": "uint256"
        }
      ],
      "name": "claim",
      "outputs": [],
      "stateMutability": "nonpayable",
      "type": "function"
    },
    {
      "inputs": [
        {
          "internalType": "address",
          "name": "to",
          "type": "address"
        },
        {
          "internalType": "uint256[]",
          "name": "tokenIds",
          "type": "uint256[]"
        }
      ],
      "name": "claimMany",
      "outputs": [],
      "stateMutability": "nonpayable",
      "type": "function"
    },
    {
      "inputs": [
        {
          "internalType": "contract IERC20",
          "name": "token",
          "type": "address"
        }
      ],
      "name": "drain",
      "outputs": [],
      "stateMutability": "nonpayable",
      "type": "function"
    },
    {
      "inputs": [],
      "name": "drainEth",
      "outputs": [],
      "stateMutability": "nonpayable",
      "type": "function"
    },
    {
      "inputs": [
        {
          "internalType": "address",
          "name": "_owner",
          "type": "address"
        },
        {
          "internalType": "address",
          "name": "_vaultDistributionTokenAddress",
          "type": "address"
        },
        {
          "internalType": "address",
          "name": "_nftVaultKeyAddress",
          "type": "address"
        },
        {
          "internalType": "uint256",
          "name": "_nftTotalSupply",
          "type": "uint256"
        },
        {
          "internalType": "uint256",
          "name": "_unlockDate",
          "type": "uint256"
        }
      ],
      "name": "initialize",
      "outputs": [],
      "stateMutability": "nonpayable",
      "type": "function"
    },
    {
      "inputs": [],
      "name": "nftTotalSupply",
      "outputs": [
        {
          "internalType": "uint256",
          "name": "",
          "type": "uint256"
        }
      ],
      "stateMutability": "view",
      "type": "function"
    },
    {
      "inputs": [],
      "name": "nftVaultKey",
      "outputs": [
        {
          "internalType": "contract IERC721",
          "name": "",
          "type": "address"
        }
      ],
      "stateMutability": "view",
      "type": "function"
    },
    {
      "inputs": [],
      "name": "owner",
      "outputs": [
        {
          "internalType": "address",
          "name": "",
          "type": "address"
        }
      ],
      "stateMutability": "view",
      "type": "function"
    },
    {
      "inputs": [],
      "name": "renounceOwnership",
      "outputs": [],
      "stateMutability": "nonpayable",
      "type": "function"
    },
    {
      "inputs": [],
      "name": "totalReleased",
      "outputs": [
        {
          "internalType": "uint256",
          "name": "",
          "type": "uint256"
        }
      ],
      "stateMutability": "view",
      "type": "function"
    },
    {
      "inputs": [
        {
          "internalType": "address",
          "name": "newOwner",
          "type": "address"
        }
      ],
      "name": "transferOwnership",
      "outputs": [],
      "stateMutability": "nonpayable",
      "type": "function"
    },
    {
      "inputs": [],
      "name": "unlockDate",
      "outputs": [
        {
          "internalType": "uint256",
          "name": "",
          "type": "uint256"
        }
      ],
      "stateMutability": "view",
      "type": "function"
    },
    {
      "inputs": [],
      "name": "vaultBalance",
      "outputs": [
        {
          "internalType": "uint256",
          "name": "",
          "type": "uint256"
        }
      ],
      "stateMutability": "view",
      "type": "function"
    },
    {
      "inputs": [],
      "name": "vaultDistributionToken",
      "outputs": [
        {
          "internalType": "contract IERC20",
          "name": "",
          "type": "address"
        }
      ],
      "stateMutability": "view",
      "type": "function"
    }
  ],
  "bytecode": "0x608060405234801561001057600080fd5b5061002d61002261003260201b60201c565b61003a60201b60201c565b6100fe565b600033905090565b60008060009054906101000a900473ffffffffffffffffffffffffffffffffffffffff169050816000806101000a81548173ffffffffffffffffffffffffffffffffffffffff021916908373ffffffffffffffffffffffffffffffffffffffff1602179055508173ffffffffffffffffffffffffffffffffffffffff168173ffffffffffffffffffffffffffffffffffffffff167f8be0079c531659141344cd1fd0a4f28419497f9722a3daafe3b4186f6b6457e060405160405180910390a35050565b6119bd8061010d6000396000f3fe608060405234801561001057600080fd5b50600436106100ea5760003560e01c8063715018a61161008c578063aad3ec9611610066578063aad3ec96146101ef578063e33b7de31461020b578063ece5313214610229578063f2fde38b14610245576100ea565b8063715018a6146101ab5780638da5cb5b146101b5578063a6b63eb8146101d3576100ea565b80630bf6cc08116100c85780630bf6cc081461013557806313fd6ef1146101535780633ce2a3c51461017157806369ac57211461018d576100ea565b80630baac66f146100ef5780630bb23784146100f95780630bf5b0ea14610117575b600080fd5b6100f7610261565b005b6101016102b2565b60405161010e9190610e5c565b60405180910390f35b61011f6102b8565b60405161012c9190610ef6565b60405180910390f35b61013d6102de565b60405161014a9190610e5c565b60405180910390f35b61015b610390565b6040516101689190610f32565b60405180910390f35b61018b60048036038101906101869190610ffa565b6103b6565b005b610195610406565b6040516101a29190610e5c565b60405180910390f35b6101b361040c565b005b6101bd610420565b6040516101ca9190611069565b60405180910390f35b6101ed60048036038101906101e891906110b0565b610449565b005b6102096004803603810190610204919061112b565b610622565b005b610213610638565b6040516102209190610e5c565b60405180910390f35b610243600480360381019061023e91906111a9565b610642565b005b61025f600480360381019061025a91906111d6565b610763565b005b6102696107e7565b3373ffffffffffffffffffffffffffffffffffffffff166108fc479081150290604051600060405180830381858888f193505050501580156102af573d6000803e3d6000fd5b50565b60035481565b600260009054906101000a900473ffffffffffffffffffffffffffffffffffffffff1681565b6000600160009054906101000a900473ffffffffffffffffffffffffffffffffffffffff1673ffffffffffffffffffffffffffffffffffffffff166370a08231306040518263ffffffff1660e01b815260040161033b9190611069565b60206040518083038186803b15801561035357600080fd5b505afa158015610367573d6000803e3d6000fd5b505050506040513d601f19601f8201168201806040525081019061038b9190611218565b905090565b600160009054906101000a900473ffffffffffffffffffffffffffffffffffffffff1681565b61040183838380806020026020016040519081016040528093929190818152602001838360200280828437600081840152601f19601f82011690508083019250505050505050610865565b505050565b60045481565b6104146107e7565b61041e6000610cb7565b565b60008060009054906101000a900473ffffffffffffffffffffffffffffffffffffffff16905090565b60008060159054906101000a900460ff1615905080801561047c57506001600060149054906101000a900460ff1660ff16105b806104ab575061048b30610d7b565b1580156104aa57506001600060149054906101000a900460ff1660ff16145b5b6104ea576040517f08c379a00000000000000000000000000000000000000000000000000000000081526004016104e1906112c8565b60405180910390fd5b6001600060146101000a81548160ff021916908360ff1602179055508015610528576001600060156101000a81548160ff0219169083151502179055505b61053186610cb7565b84600160006101000a81548173ffffffffffffffffffffffffffffffffffffffff021916908373ffffffffffffffffffffffffffffffffffffffff16021790555083600260006101000a81548173ffffffffffffffffffffffffffffffffffffffff021916908373ffffffffffffffffffffffffffffffffffffffff1602179055508260038190555081600481905550801561061a5760008060156101000a81548160ff0219169083151502179055507f7f26b83ff96e1f2b6a682f133852f6798a09c465da95921460cefb384740249860016040516106119190611330565b60405180910390a15b505050505050565b6106348261062f83610d9e565b610865565b5050565b6000600654905090565b61064a6107e7565b8073ffffffffffffffffffffffffffffffffffffffff1663a9059cbb338373ffffffffffffffffffffffffffffffffffffffff166370a08231306040518263ffffffff1660e01b81526004016106a09190611069565b60206040518083038186803b1580156106b857600080fd5b505afa1580156106cc573d6000803e3d6000fd5b505050506040513d601f19601f820116820180604052508101906106f09190611218565b6040518363ffffffff1660e01b815260040161070d92919061134b565b602060405180830381600087803b15801561072757600080fd5b505af115801561073b573d6000803e3d6000fd5b505050506040513d601f19601f8201168201806040525081019061075f91906113ac565b5050565b61076b6107e7565b600073ffffffffffffffffffffffffffffffffffffffff168173ffffffffffffffffffffffffffffffffffffffff1614156107db576040517f08c379a00000000000000000000000000000000000000000000000000000000081526004016107d29061144b565b60405180910390fd5b6107e481610cb7565b50565b6107ef610e18565b73ffffffffffffffffffffffffffffffffffffffff1661080d610420565b73ffffffffffffffffffffffffffffffffffffffff1614610863576040517f08c379a000000000000000000000000000000000000000000000000000000000815260040161085a906114b7565b60405180910390fd5b565b6004544210156108aa576040517f08c379a00000000000000000000000000000000000000000000000000000000081526004016108a190611523565b60405180910390fd5b60006108b46102de565b116108f4576040517f08c379a00000000000000000000000000000000000000000000000000000000081526004016108eb9061158f565b60405180910390fd5b60005b8151811015610b06578273ffffffffffffffffffffffffffffffffffffffff16600260009054906101000a900473ffffffffffffffffffffffffffffffffffffffff1673ffffffffffffffffffffffffffffffffffffffff16636352211e848481518110610968576109676115af565b5b60200260200101516040518263ffffffff1660e01b815260040161098c9190610e5c565b60206040518083038186803b1580156109a457600080fd5b505afa1580156109b8573d6000803e3d6000fd5b505050506040513d601f19601f820116820180604052508101906109dc91906115f3565b73ffffffffffffffffffffffffffffffffffffffff1614610a32576040517f08c379a0000000000000000000000000000000000000000000000000000000008152600401610a299061166c565b60405180910390fd5b60056000838381518110610a4957610a486115af565b5b6020026020010151815260200190815260200160002060009054906101000a900460ff1615610aad576040517f08c379a0000000000000000000000000000000000000000000000000000000008152600401610aa4906116d8565b60405180910390fd5b600160056000848481518110610ac657610ac56115af565b5b6020026020010151815260200190815260200160002060006101000a81548160ff0219169083151502179055508080610afe90611727565b9150506108f7565b506000610b2d8251610b16610638565b610b1e6102de565b610b289190611770565b610e20565b905060008111610b72576040517f08c379a0000000000000000000000000000000000000000000000000000000008152600401610b6990611812565b60405180910390fd5b600160009054906101000a900473ffffffffffffffffffffffffffffffffffffffff1673ffffffffffffffffffffffffffffffffffffffff1663a9059cbb84836040518363ffffffff1660e01b8152600401610bcf92919061134b565b602060405180830381600087803b158015610be957600080fd5b505af1158015610bfd573d6000803e3d6000fd5b505050506040513d601f19601f82011682018060405250810190610c2191906113ac565b610c60576040517f08c379a0000000000000000000000000000000000000000000000000000000008152600401610c579061187e565b60405180910390fd5b8060066000828254610c729190611770565b925050819055507fd8138f8a3f377c5259ca548e70e4c2de94f129f5a11036a15b69513cba2b426a8382604051610caa92919061134b565b60405180910390a1505050565b60008060009054906101000a900473ffffffffffffffffffffffffffffffffffffffff169050816000806101000a81548173ffffffffffffffffffffffffffffffffffffffff021916908373ffffffffffffffffffffffffffffffffffffffff1602179055508173ffffffffffffffffffffffffffffffffffffffff168173ffffffffffffffffffffffffffffffffffffffff167f8be0079c531659141344cd1fd0a4f28419497f9722a3daafe3b4186f6b6457e060405160405180910390a35050565b6000808273ffffffffffffffffffffffffffffffffffffffff163b119050919050565b60606000600167ffffffffffffffff811115610dbd57610dbc61189e565b5b604051908082528060200260200182016040528015610deb5781602001602082028036833780820191505090505b5090508281600081518110610e0357610e026115af565b5b60200260200101818152505080915050919050565b600033905090565b60006003548383610e3191906118cd565b610e3b9190611956565b905092915050565b6000819050919050565b610e5681610e43565b82525050565b6000602082019050610e716000830184610e4d565b92915050565b600073ffffffffffffffffffffffffffffffffffffffff82169050919050565b6000819050919050565b6000610ebc610eb7610eb284610e77565b610e97565b610e77565b9050919050565b6000610ece82610ea1565b9050919050565b6000610ee082610ec3565b9050919050565b610ef081610ed5565b82525050565b6000602082019050610f0b6000830184610ee7565b92915050565b6000610f1c82610ec3565b9050919050565b610f2c81610f11565b82525050565b6000602082019050610f476000830184610f23565b92915050565b600080fd5b600080fd5b6000610f6282610e77565b9050919050565b610f7281610f57565b8114610f7d57600080fd5b50565b600081359050610f8f81610f69565b92915050565b600080fd5b600080fd5b600080fd5b60008083601f840112610fba57610fb9610f95565b5b8235905067ffffffffffffffff811115610fd757610fd6610f9a565b5b602083019150836020820283011115610ff357610ff2610f9f565b5b9250929050565b60008060006040848603121561101357611012610f4d565b5b600061102186828701610f80565b935050602084013567ffffffffffffffff81111561104257611041610f52565b5b61104e86828701610fa4565b92509250509250925092565b61106381610f57565b82525050565b600060208201905061107e600083018461105a565b92915050565b61108d81610e43565b811461109857600080fd5b50565b6000813590506110aa81611084565b92915050565b600080600080600060a086880312156110cc576110cb610f4d565b5b60006110da88828901610f80565b95505060206110eb88828901610f80565b94505060406110fc88828901610f80565b935050606061110d8882890161109b565b925050608061111e8882890161109b565b9150509295509295909350565b6000806040838503121561114257611141610f4d565b5b600061115085828601610f80565b92505060206111618582860161109b565b9150509250929050565b600061117682610f57565b9050919050565b6111868161116b565b811461119157600080fd5b50565b6000813590506111a38161117d565b92915050565b6000602082840312156111bf576111be610f4d565b5b60006111cd84828501611194565b91505092915050565b6000602082840312156111ec576111eb610f4d565b5b60006111fa84828501610f80565b91505092915050565b60008151905061121281611084565b92915050565b60006020828403121561122e5761122d610f4d565b5b600061123c84828501611203565b91505092915050565b600082825260208201905092915050565b7f496e697469616c697a61626c653a20636f6e747261637420697320616c72656160008201527f647920696e697469616c697a6564000000000000000000000000000000000000602082015250565b60006112b2602e83611245565b91506112bd82611256565b604082019050919050565b600060208201905081810360008301526112e1816112a5565b9050919050565b6000819050919050565b600060ff82169050919050565b600061131a611315611310846112e8565b610e97565b6112f2565b9050919050565b61132a816112ff565b82525050565b60006020820190506113456000830184611321565b92915050565b6000604082019050611360600083018561105a565b61136d6020830184610e4d565b9392505050565b60008115159050919050565b61138981611374565b811461139457600080fd5b50565b6000815190506113a681611380565b92915050565b6000602082840312156113c2576113c1610f4d565b5b60006113d084828501611397565b91505092915050565b7f4f776e61626c653a206e6577206f776e657220697320746865207a65726f206160008201527f6464726573730000000000000000000000000000000000000000000000000000602082015250565b6000611435602683611245565b9150611440826113d9565b604082019050919050565b6000602082019050818103600083015261146481611428565b9050919050565b7f4f776e61626c653a2063616c6c6572206973206e6f7420746865206f776e6572600082015250565b60006114a1602083611245565b91506114ac8261146b565b602082019050919050565b600060208201905081810360008301526114d081611494565b9050919050565b7f7661756c74206973207374696c6c206c6f636b65640000000000000000000000600082015250565b600061150d601583611245565b9150611518826114d7565b602082019050919050565b6000602082019050818103600083015261153c81611500565b9050919050565b7f7661756c7420697320656d707479000000000000000000000000000000000000600082015250565b6000611579600e83611245565b915061158482611543565b602082019050919050565b600060208201905081810360008301526115a88161156c565b9050919050565b7f4e487b7100000000000000000000000000000000000000000000000000000000600052603260045260246000fd5b6000815190506115ed81610f69565b92915050565b60006020828403121561160957611608610f4d565b5b6000611617848285016115de565b91505092915050565b7f6164647265737320646f6573206e6f74206f776e20746f6b656e000000000000600082015250565b6000611656601a83611245565b915061166182611620565b602082019050919050565b6000602082019050818103600083015261168581611649565b9050919050565b7f746f6b656e20616c726561647920636c61696d65640000000000000000000000600082015250565b60006116c2601583611245565b91506116cd8261168c565b602082019050919050565b600060208201905081810360008301526116f1816116b5565b9050919050565b7f4e487b7100000000000000000000000000000000000000000000000000000000600052601160045260246000fd5b600061173282610e43565b91507fffffffffffffffffffffffffffffffffffffffffffffffffffffffffffffffff821415611765576117646116f8565b5b600182019050919050565b600061177b82610e43565b915061178683610e43565b9250827fffffffffffffffffffffffffffffffffffffffffffffffffffffffffffffffff038211156117bb576117ba6116f8565b5b828201905092915050565b7f6164647265737320686173206e6f20636c61696d61626c6520746f6b656e7300600082015250565b60006117fc601f83611245565b9150611807826117c6565b602082019050919050565b6000602082019050818103600083015261182b816117ef565b9050919050565b7f5472616e73666572206661696c65640000000000000000000000000000000000600082015250565b6000611868600f83611245565b915061187382611832565b602082019050919050565b600060208201905081810360008301526118978161185b565b9050919050565b7f4e487b7100000000000000000000000000000000000000000000000000000000600052604160045260246000fd5b60006118d882610e43565b91506118e383610e43565b9250817fffffffffffffffffffffffffffffffffffffffffffffffffffffffffffffffff048311821515161561191c5761191b6116f8565b5b828202905092915050565b7f4e487b7100000000000000000000000000000000000000000000000000000000600052601260045260246000fd5b600061196182610e43565b915061196c83610e43565b92508261197c5761197b611927565b5b82820490509291505056fea264697066735822122086d856c68f083239a7af6ef98f2bbf22cff0b4d8cb2c2b714c1d060044c5273664736f6c63430008090033",
  "linkReferences": {},
  "deployedLinkReferences": {}
}