{
  "_format": "hh-sol-artifact-1",
  "contractName": "DCNT721A",
  "sourceName": "contracts/DCNT721A.sol",
  "abi": [
    {
      "inputs": [],
      "name": "ApprovalCallerNotOwnerNorApproved",
      "type": "error"
    },
    {
      "inputs": [],
      "name": "ApprovalQueryForNonexistentToken",
      "type": "error"
    },
    {
      "inputs": [],
      "name": "ApproveToCaller",
      "type": "error"
    },
    {
      "inputs": [],
      "name": "BalanceQueryForZeroAddress",
      "type": "error"
    },
    {
      "inputs": [],
      "name": "MintERC2309QuantityExceedsLimit",
      "type": "error"
    },
    {
      "inputs": [],
      "name": "MintToZeroAddress",
      "type": "error"
    },
    {
      "inputs": [],
      "name": "MintZeroQuantity",
      "type": "error"
    },
    {
      "inputs": [],
      "name": "OwnerQueryForNonexistentToken",
      "type": "error"
    },
    {
      "inputs": [],
      "name": "OwnershipNotInitializedForExtraData",
      "type": "error"
    },
    {
      "inputs": [],
      "name": "TransferCallerNotOwnerNorApproved",
      "type": "error"
    },
    {
      "inputs": [],
      "name": "TransferFromIncorrectOwner",
      "type": "error"
    },
    {
      "inputs": [],
      "name": "TransferToNonERC721ReceiverImplementer",
      "type": "error"
    },
    {
      "inputs": [],
      "name": "TransferToZeroAddress",
      "type": "error"
    },
    {
      "inputs": [],
      "name": "URIQueryForNonexistentToken",
      "type": "error"
    },
    {
      "anonymous": false,
      "inputs": [
        {
          "indexed": true,
          "internalType": "address",
          "name": "owner",
          "type": "address"
        },
        {
          "indexed": true,
          "internalType": "address",
          "name": "approved",
          "type": "address"
        },
        {
          "indexed": true,
          "internalType": "uint256",
          "name": "tokenId",
          "type": "uint256"
        }
      ],
      "name": "Approval",
      "type": "event"
    },
    {
      "anonymous": false,
      "inputs": [
        {
          "indexed": true,
          "internalType": "address",
          "name": "owner",
          "type": "address"
        },
        {
          "indexed": true,
          "internalType": "address",
          "name": "operator",
          "type": "address"
        },
        {
          "indexed": false,
          "internalType": "bool",
          "name": "approved",
          "type": "bool"
        }
      ],
      "name": "ApprovalForAll",
      "type": "event"
    },
    {
      "anonymous": false,
      "inputs": [
        {
          "indexed": true,
          "internalType": "uint256",
          "name": "fromTokenId",
          "type": "uint256"
        },
        {
          "indexed": false,
          "internalType": "uint256",
          "name": "toTokenId",
          "type": "uint256"
        },
        {
          "indexed": true,
          "internalType": "address",
          "name": "from",
          "type": "address"
        },
        {
          "indexed": true,
          "internalType": "address",
          "name": "to",
          "type": "address"
        }
      ],
      "name": "ConsecutiveTransfer",
      "type": "event"
    },
    {
      "anonymous": false,
      "inputs": [
        {
          "indexed": false,
          "internalType": "uint8",
          "name": "version",
          "type": "uint8"
        }
      ],
      "name": "Initialized",
      "type": "event"
    },
    {
      "anonymous": false,
      "inputs": [
        {
          "indexed": false,
          "internalType": "address",
          "name": "sender",
          "type": "address"
        },
        {
          "indexed": false,
          "internalType": "uint256",
          "name": "tokenId_",
          "type": "uint256"
        }
      ],
      "name": "Minted",
      "type": "event"
    },
    {
      "anonymous": false,
      "inputs": [
        {
          "indexed": true,
          "internalType": "address",
          "name": "previousOwner",
          "type": "address"
        },
        {
          "indexed": true,
          "internalType": "address",
          "name": "newOwner",
          "type": "address"
        }
      ],
      "name": "OwnershipTransferred",
      "type": "event"
    },
    {
      "anonymous": false,
      "inputs": [
        {
          "indexed": true,
          "internalType": "address",
          "name": "from",
          "type": "address"
        },
        {
          "indexed": true,
          "internalType": "address",
          "name": "to",
          "type": "address"
        },
        {
          "indexed": true,
          "internalType": "uint256",
          "name": "tokenId",
          "type": "uint256"
        }
      ],
      "name": "Transfer",
      "type": "event"
    },
    {
      "inputs": [],
      "name": "MAX_TOKENS",
      "outputs": [
        {
          "internalType": "uint256",
          "name": "",
          "type": "uint256"
        }
      ],
      "stateMutability": "view",
      "type": "function"
    },
    {
      "inputs": [
        {
          "internalType": "address",
          "name": "to",
          "type": "address"
        },
        {
          "internalType": "uint256",
          "name": "tokenId",
          "type": "uint256"
        }
      ],
      "name": "approve",
      "outputs": [],
      "stateMutability": "nonpayable",
      "type": "function"
    },
    {
      "inputs": [
        {
          "internalType": "address",
          "name": "owner",
          "type": "address"
        }
      ],
      "name": "balanceOf",
      "outputs": [
        {
          "internalType": "uint256",
          "name": "",
          "type": "uint256"
        }
      ],
      "stateMutability": "view",
      "type": "function"
    },
    {
      "inputs": [],
      "name": "baseURI",
      "outputs": [
        {
          "internalType": "string",
          "name": "",
          "type": "string"
        }
      ],
      "stateMutability": "view",
      "type": "function"
    },
    {
      "inputs": [],
      "name": "flipSaleState",
      "outputs": [],
      "stateMutability": "nonpayable",
      "type": "function"
    },
    {
      "inputs": [
        {
          "internalType": "uint256",
          "name": "tokenId",
          "type": "uint256"
        }
      ],
      "name": "getApproved",
      "outputs": [
        {
          "internalType": "address",
          "name": "",
          "type": "address"
        }
      ],
      "stateMutability": "view",
      "type": "function"
    },
    {
      "inputs": [
        {
          "internalType": "address",
          "name": "_owner",
          "type": "address"
        },
        {
          "internalType": "string",
          "name": "name",
          "type": "string"
        },
        {
          "internalType": "string",
          "name": "symbol",
          "type": "string"
        },
        {
          "internalType": "uint256",
          "name": "_maxTokens",
          "type": "uint256"
        },
        {
          "internalType": "uint256",
          "name": "_tokenPrice",
          "type": "uint256"
        },
        {
          "internalType": "uint256",
          "name": "_maxTokenPurchase",
          "type": "uint256"
        }
      ],
      "name": "initialize",
      "outputs": [],
      "stateMutability": "nonpayable",
      "type": "function"
    },
    {
      "inputs": [
        {
          "internalType": "address",
          "name": "owner",
          "type": "address"
        },
        {
          "internalType": "address",
          "name": "operator",
          "type": "address"
        }
      ],
      "name": "isApprovedForAll",
      "outputs": [
        {
          "internalType": "bool",
          "name": "",
          "type": "bool"
        }
      ],
      "stateMutability": "view",
      "type": "function"
    },
    {
      "inputs": [],
      "name": "maxTokenPurchase",
      "outputs": [
        {
          "internalType": "uint256",
          "name": "",
          "type": "uint256"
        }
      ],
      "stateMutability": "view",
      "type": "function"
    },
    {
      "inputs": [
        {
          "internalType": "uint256",
          "name": "numberOfTokens",
          "type": "uint256"
        }
      ],
      "name": "mint",
      "outputs": [],
      "stateMutability": "payable",
      "type": "function"
    },
    {
      "inputs": [],
      "name": "name",
      "outputs": [
        {
          "internalType": "string",
          "name": "",
          "type": "string"
        }
      ],
      "stateMutability": "view",
      "type": "function"
    },
    {
      "inputs": [],
      "name": "owner",
      "outputs": [
        {
          "internalType": "address",
          "name": "",
          "type": "address"
        }
      ],
      "stateMutability": "view",
      "type": "function"
    },
    {
      "inputs": [
        {
          "internalType": "uint256",
          "name": "tokenId",
          "type": "uint256"
        }
      ],
      "name": "ownerOf",
      "outputs": [
        {
          "internalType": "address",
          "name": "",
          "type": "address"
        }
      ],
      "stateMutability": "view",
      "type": "function"
    },
    {
      "inputs": [],
      "name": "renounceOwnership",
      "outputs": [],
      "stateMutability": "nonpayable",
      "type": "function"
    },
    {
      "inputs": [
        {
          "internalType": "uint256",
          "name": "numReserved",
          "type": "uint256"
        }
      ],
      "name": "reserveDCNT",
      "outputs": [],
      "stateMutability": "nonpayable",
      "type": "function"
    },
    {
      "inputs": [
        {
          "internalType": "address",
          "name": "from",
          "type": "address"
        },
        {
          "internalType": "address",
          "name": "to",
          "type": "address"
        },
        {
          "internalType": "uint256",
          "name": "tokenId",
          "type": "uint256"
        }
      ],
      "name": "safeTransferFrom",
      "outputs": [],
      "stateMutability": "nonpayable",
      "type": "function"
    },
    {
      "inputs": [
        {
          "internalType": "address",
          "name": "from",
          "type": "address"
        },
        {
          "internalType": "address",
          "name": "to",
          "type": "address"
        },
        {
          "internalType": "uint256",
          "name": "tokenId",
          "type": "uint256"
        },
        {
          "internalType": "bytes",
          "name": "_data",
          "type": "bytes"
        }
      ],
      "name": "safeTransferFrom",
      "outputs": [],
      "stateMutability": "nonpayable",
      "type": "function"
    },
    {
      "inputs": [],
      "name": "saleIsActive",
      "outputs": [
        {
          "internalType": "bool",
          "name": "",
          "type": "bool"
        }
      ],
      "stateMutability": "view",
      "type": "function"
    },
    {
      "inputs": [
        {
          "internalType": "address",
          "name": "operator",
          "type": "address"
        },
        {
          "internalType": "bool",
          "name": "approved",
          "type": "bool"
        }
      ],
      "name": "setApprovalForAll",
      "outputs": [],
      "stateMutability": "nonpayable",
      "type": "function"
    },
    {
      "inputs": [
        {
          "internalType": "string",
          "name": "uri",
          "type": "string"
        }
      ],
      "name": "setBaseURI",
      "outputs": [],
      "stateMutability": "nonpayable",
      "type": "function"
    },
    {
      "inputs": [
        {
          "internalType": "bytes4",
          "name": "interfaceId",
          "type": "bytes4"
        }
      ],
      "name": "supportsInterface",
      "outputs": [
        {
          "internalType": "bool",
          "name": "",
          "type": "bool"
        }
      ],
      "stateMutability": "view",
      "type": "function"
    },
    {
      "inputs": [],
      "name": "symbol",
      "outputs": [
        {
          "internalType": "string",
          "name": "",
          "type": "string"
        }
      ],
      "stateMutability": "view",
      "type": "function"
    },
    {
      "inputs": [],
      "name": "tokenPrice",
      "outputs": [
        {
          "internalType": "uint256",
          "name": "",
          "type": "uint256"
        }
      ],
      "stateMutability": "view",
      "type": "function"
    },
    {
      "inputs": [
        {
          "internalType": "uint256",
          "name": "tokenId",
          "type": "uint256"
        }
      ],
      "name": "tokenURI",
      "outputs": [
        {
          "internalType": "string",
          "name": "",
          "type": "string"
        }
      ],
      "stateMutability": "view",
      "type": "function"
    },
    {
      "inputs": [],
      "name": "totalSupply",
      "outputs": [
        {
          "internalType": "uint256",
          "name": "",
          "type": "uint256"
        }
      ],
      "stateMutability": "view",
      "type": "function"
    },
    {
      "inputs": [
        {
          "internalType": "address",
          "name": "from",
          "type": "address"
        },
        {
          "internalType": "address",
          "name": "to",
          "type": "address"
        },
        {
          "internalType": "uint256",
          "name": "tokenId",
          "type": "uint256"
        }
      ],
      "name": "transferFrom",
      "outputs": [],
      "stateMutability": "nonpayable",
      "type": "function"
    },
    {
      "inputs": [
        {
          "internalType": "address",
          "name": "newOwner",
          "type": "address"
        }
      ],
      "name": "transferOwnership",
      "outputs": [],
      "stateMutability": "nonpayable",
      "type": "function"
    },
    {
      "inputs": [],
      "name": "withdraw",
      "outputs": [],
      "stateMutability": "nonpayable",
      "type": "function"
    }
  ],
  "bytecode": "0x60806040526000600c60006101000a81548160ff0219169083151502179055503480156200002c57600080fd5b506200004d620000416200005360201b60201c565b6200005b60201b60201c565b62000121565b600033905090565b6000600860029054906101000a900473ffffffffffffffffffffffffffffffffffffffff16905081600860026101000a81548173ffffffffffffffffffffffffffffffffffffffff021916908373ffffffffffffffffffffffffffffffffffffffff1602179055508173ffffffffffffffffffffffffffffffffffffffff168173ffffffffffffffffffffffffffffffffffffffff167f8be0079c531659141344cd1fd0a4f28419497f9722a3daafe3b4186f6b6457e060405160405180910390a35050565b612f3380620001316000396000f3fe6080604052600436106101b75760003560e01c806370a08231116100ec578063a3685b851161008a578063e985e9c511610064578063e985e9c5146105c3578063eb8d244414610600578063f2fde38b1461062b578063f47c84c514610654576101b7565b8063a3685b8514610534578063b88d4fde1461055d578063c87b56dd14610586576101b7565b80638da5cb5b116100c65780638da5cb5b1461049957806395d89b41146104c4578063a0712d68146104ef578063a22cb4651461050b576101b7565b806370a082311461041a578063715018a6146104575780637ff9b5961461046e576101b7565b806334918dfd1161015957806355f804b31161013357806355f804b3146103605780636352211e146103895780636c0360eb146103c65780636c1951ae146103f1576101b7565b806334918dfd146103095780633ccfd60b1461032057806342842e0e14610337576101b7565b8063095ea7b311610195578063095ea7b31461026157806309aa3dcf1461028a57806318160ddd146102b557806323b872dd146102e0576101b7565b806301ffc9a7146101bc57806306fdde03146101f9578063081812fc14610224575b600080fd5b3480156101c857600080fd5b506101e360048036038101906101de91906120e9565b61067f565b6040516101f09190612131565b60405180910390f35b34801561020557600080fd5b5061020e610711565b60405161021b91906121e5565b60405180910390f35b34801561023057600080fd5b5061024b6004803603810190610246919061223d565b6107a3565b60405161025891906122ab565b60405180910390f35b34801561026d57600080fd5b50610288600480360381019061028391906122f2565b610822565b005b34801561029657600080fd5b5061029f610966565b6040516102ac9190612341565b60405180910390f35b3480156102c157600080fd5b506102ca61096c565b6040516102d79190612341565b60405180910390f35b3480156102ec57600080fd5b506103076004803603810190610302919061235c565b610983565b005b34801561031557600080fd5b5061031e610ca8565b005b34801561032c57600080fd5b50610335610cdc565b005b34801561034357600080fd5b5061035e6004803603810190610359919061235c565b610d2d565b005b34801561036c57600080fd5b50610387600480360381019061038291906124e4565b610d4d565b005b34801561039557600080fd5b506103b060048036038101906103ab919061223d565b610d6f565b6040516103bd91906122ab565b60405180910390f35b3480156103d257600080fd5b506103db610d81565b6040516103e891906121e5565b60405180910390f35b3480156103fd57600080fd5b506104186004803603810190610413919061223d565b610e0f565b005b34801561042657600080fd5b50610441600480360381019061043c919061252d565b610eb6565b60405161044e9190612341565b60405180910390f35b34801561046357600080fd5b5061046c610f6f565b005b34801561047a57600080fd5b50610483610f83565b6040516104909190612341565b60405180910390f35b3480156104a557600080fd5b506104ae610f89565b6040516104bb91906122ab565b60405180910390f35b3480156104d057600080fd5b506104d9610fb3565b6040516104e691906121e5565b60405180910390f35b6105096004803603810190610504919061223d565b611045565b005b34801561051757600080fd5b50610532600480360381019061052d9190612586565b61123c565b005b34801561054057600080fd5b5061055b600480360381019061055691906125c6565b6113b4565b005b34801561056957600080fd5b50610584600480360381019061057f919061272c565b611551565b005b34801561059257600080fd5b506105ad60048036038101906105a8919061223d565b6115c4565b6040516105ba91906121e5565b60405180910390f35b3480156105cf57600080fd5b506105ea60048036038101906105e591906127af565b611663565b6040516105f79190612131565b60405180910390f35b34801561060c57600080fd5b506106156116f7565b6040516106229190612131565b60405180910390f35b34801561063757600080fd5b50610652600480360381019061064d919061252d565b61170a565b005b34801561066057600080fd5b5061066961178e565b6040516106769190612341565b60405180910390f35b60006301ffc9a760e01b827bffffffffffffffffffffffffffffffffffffffffffffffffffffffff191614806106da57506380ac58cd60e01b827bffffffffffffffffffffffffffffffffffffffffffffffffffffffff1916145b8061070a5750635b5e139f60e01b827bffffffffffffffffffffffffffffffffffffffffffffffffffffffff1916145b9050919050565b6060600280546107209061281e565b80601f016020809104026020016040519081016040528092919081815260200182805461074c9061281e565b80156107995780601f1061076e57610100808354040283529160200191610799565b820191906000526020600020905b81548152906001019060200180831161077c57829003601f168201915b5050505050905090565b60006107ae82611794565b6107e4576040517fcf4700e400000000000000000000000000000000000000000000000000000000815260040160405180910390fd5b6006600083815260200190815260200160002060000160009054906101000a900473ffffffffffffffffffffffffffffffffffffffff169050919050565b600061082d82610d6f565b90508073ffffffffffffffffffffffffffffffffffffffff1661084e6117f3565b73ffffffffffffffffffffffffffffffffffffffff16146108b15761087a816108756117f3565b611663565b6108b0576040517fcfb3b94200000000000000000000000000000000000000000000000000000000815260040160405180910390fd5b5b826006600084815260200190815260200160002060000160006101000a81548173ffffffffffffffffffffffffffffffffffffffff021916908373ffffffffffffffffffffffffffffffffffffffff160217905550818373ffffffffffffffffffffffffffffffffffffffff168273ffffffffffffffffffffffffffffffffffffffff167f8c5be1e5ebec7d5bd14f71427d1e84f3dd0314c0f7b2291e5b200ac8c7c3b92560405160405180910390a4505050565b600b5481565b60006109766117fb565b6001546000540303905090565b600061098e82611800565b90508373ffffffffffffffffffffffffffffffffffffffff168173ffffffffffffffffffffffffffffffffffffffff16146109f5576040517fa114810000000000000000000000000000000000000000000000000000000000815260040160405180910390fd5b600080610a01846118ce565b91509150610a178187610a126117f3565b6118f5565b610a6357610a2c86610a276117f3565b611663565b610a62576040517f59c896be00000000000000000000000000000000000000000000000000000000815260040160405180910390fd5b5b600073ffffffffffffffffffffffffffffffffffffffff168573ffffffffffffffffffffffffffffffffffffffff161415610aca576040517fea553b3400000000000000000000000000000000000000000000000000000000815260040160405180910390fd5b610ad78686866001611939565b8015610ae257600082555b600560008773ffffffffffffffffffffffffffffffffffffffff1673ffffffffffffffffffffffffffffffffffffffff168152602001908152602001600020600081546001900391905081905550600560008673ffffffffffffffffffffffffffffffffffffffff1673ffffffffffffffffffffffffffffffffffffffff1681526020019081526020016000206000815460010191905081905550610bb085610b8c88888761193f565b7c020000000000000000000000000000000000000000000000000000000017611967565b600460008681526020019081526020016000208190555060007c020000000000000000000000000000000000000000000000000000000084161415610c38576000600185019050600060046000838152602001908152602001600020541415610c36576000548114610c35578360046000838152602001908152602001600020819055505b5b505b838573ffffffffffffffffffffffffffffffffffffffff168773ffffffffffffffffffffffffffffffffffffffff167fddf252ad1be2c89b69c2b068fc378daa952ba7f163c4a11628f55a4df523b3ef60405160405180910390a4610ca08686866001611992565b505050505050565b610cb0611998565b600c60009054906101000a900460ff1615600c60006101000a81548160ff021916908315150217905550565b610ce4611998565b3373ffffffffffffffffffffffffffffffffffffffff166108fc479081150290604051600060405180830381858888f19350505050158015610d2a573d6000803e3d6000fd5b50565b610d4883838360405180602001604052806000815250611551565b505050565b610d55611998565b80600d9080519060200190610d6b929190611fda565b5050565b6000610d7a82611800565b9050919050565b600d8054610d8e9061281e565b80601f0160208091040260200160405190810160405280929190818152602001828054610dba9061281e565b8015610e075780601f10610ddc57610100808354040283529160200191610e07565b820191906000526020600020905b815481529060010190602001808311610dea57829003601f168201915b505050505081565b610e17611998565b6000610e2161096c565b90506009548282610e32919061287f565b10610e72576040517f08c379a0000000000000000000000000000000000000000000000000000000008152600401610e6990612921565b60405180910390fd5b60005b82811015610eb157610e9e3360018385610e8f919061287f565b610e99919061287f565b611a16565b8080610ea990612941565b915050610e75565b505050565b60008073ffffffffffffffffffffffffffffffffffffffff168273ffffffffffffffffffffffffffffffffffffffff161415610f1e576040517f8f4eb60400000000000000000000000000000000000000000000000000000000815260040160405180910390fd5b67ffffffffffffffff600560008473ffffffffffffffffffffffffffffffffffffffff1673ffffffffffffffffffffffffffffffffffffffff16815260200190815260200160002054169050919050565b610f77611998565b610f816000611a34565b565b600a5481565b6000600860029054906101000a900473ffffffffffffffffffffffffffffffffffffffff16905090565b606060038054610fc29061281e565b80601f0160208091040260200160405190810160405280929190818152602001828054610fee9061281e565b801561103b5780601f106110105761010080835404028352916020019161103b565b820191906000526020600020905b81548152906001019060200180831161101e57829003601f168201915b5050505050905090565b600061104f61096c565b9050600c60009054906101000a900460ff166110a0576040517f08c379a0000000000000000000000000000000000000000000000000000000008152600401611097906129d6565b60405180910390fd5b60095482826110af919061287f565b11156110f0576040517f08c379a00000000000000000000000000000000000000000000000000000000081526004016110e790612921565b60405180910390fd5b600954811115611135576040517f08c379a000000000000000000000000000000000000000000000000000000000815260040161112c90612a42565b60405180910390fd5b600b5482111561117a576040517f08c379a000000000000000000000000000000000000000000000000000000000815260040161117190612aae565b60405180910390fd5b81600a546111889190612ace565b3410156111ca576040517f08c379a00000000000000000000000000000000000000000000000000000000081526004016111c190612b74565b60405180910390fd5b6111d43383611a16565b60005b82811015611237577f30385c845b448a36257a6a1716e6ad2e1bc2cbe333cde1e69fe849ad6511adfe33838061120c90612941565b945060405161121c929190612b94565b60405180910390a1808061122f90612941565b9150506111d7565b505050565b6112446117f3565b73ffffffffffffffffffffffffffffffffffffffff168273ffffffffffffffffffffffffffffffffffffffff1614156112a9576040517fb06307db00000000000000000000000000000000000000000000000000000000815260040160405180910390fd5b80600760006112b66117f3565b73ffffffffffffffffffffffffffffffffffffffff1673ffffffffffffffffffffffffffffffffffffffff16815260200190815260200160002060008473ffffffffffffffffffffffffffffffffffffffff1673ffffffffffffffffffffffffffffffffffffffff16815260200190815260200160002060006101000a81548160ff0219169083151502179055508173ffffffffffffffffffffffffffffffffffffffff166113636117f3565b73ffffffffffffffffffffffffffffffffffffffff167f17307eab39ab6107e8899845ad3d59bd9653f200f220920489ca2b5937696c31836040516113a89190612131565b60405180910390a35050565b6000600860019054906101000a900460ff161590508080156113e857506001600860009054906101000a900460ff1660ff16105b8061141757506113f730611afa565b15801561141657506001600860009054906101000a900460ff1660ff16145b5b611456576040517f08c379a000000000000000000000000000000000000000000000000000000000815260040161144d90612c2f565b60405180910390fd5b6001600860006101000a81548160ff021916908360ff1602179055508015611494576001600860016101000a81548160ff0219169083151502179055505b61149d87611a34565b85600290805190602001906114b3929190611fda565b5084600390805190602001906114ca929190611fda565b506114d36117fb565b6000819055508360098190555082600a8190555081600b819055508015611548576000600860016101000a81548160ff0219169083151502179055507f7f26b83ff96e1f2b6a682f133852f6798a09c465da95921460cefb3847402498600160405161153f9190612ca1565b60405180910390a15b50505050505050565b61155c848484610983565b60008373ffffffffffffffffffffffffffffffffffffffff163b146115be5761158784848484611b1d565b6115bd576040517fd1a57ed600000000000000000000000000000000000000000000000000000000815260040160405180910390fd5b5b50505050565b60606115cf82611794565b611605576040517fa14c4b5000000000000000000000000000000000000000000000000000000000815260040160405180910390fd5b600061160f611c7d565b9050600081511415611630576040518060200160405280600081525061165b565b8061163a84611d0f565b60405160200161164b929190612cf8565b6040516020818303038152906040525b915050919050565b6000600760008473ffffffffffffffffffffffffffffffffffffffff1673ffffffffffffffffffffffffffffffffffffffff16815260200190815260200160002060008373ffffffffffffffffffffffffffffffffffffffff1673ffffffffffffffffffffffffffffffffffffffff16815260200190815260200160002060009054906101000a900460ff16905092915050565b600c60009054906101000a900460ff1681565b611712611998565b600073ffffffffffffffffffffffffffffffffffffffff168173ffffffffffffffffffffffffffffffffffffffff161415611782576040517f08c379a000000000000000000000000000000000000000000000000000000000815260040161177990612d8e565b60405180910390fd5b61178b81611a34565b50565b60095481565b60008161179f6117fb565b111580156117ae575060005482105b80156117ec575060007c0100000000000000000000000000000000000000000000000000000000600460008581526020019081526020016000205416145b9050919050565b600033905090565b600090565b6000808290508061180f6117fb565b11611897576000548110156118965760006004600083815260200190815260200160002054905060007c010000000000000000000000000000000000000000000000000000000082161415611894575b600081141561188a57600460008360019003935083815260200190815260200160002054905061185f565b80925050506118c9565b505b5b6040517fdf2d9b4200000000000000000000000000000000000000000000000000000000815260040160405180910390fd5b919050565b60008060006006600085815260200190815260200160002090508092508254915050915091565b600073ffffffffffffffffffffffffffffffffffffffff8316925073ffffffffffffffffffffffffffffffffffffffff821691508382148383141790509392505050565b50505050565b60008060e883901c905060e8611956868684611d5f565b62ffffff16901b9150509392505050565b600073ffffffffffffffffffffffffffffffffffffffff83169250814260a01b178317905092915050565b50505050565b6119a0611d68565b73ffffffffffffffffffffffffffffffffffffffff166119be610f89565b73ffffffffffffffffffffffffffffffffffffffff1614611a14576040517f08c379a0000000000000000000000000000000000000000000000000000000008152600401611a0b90612dfa565b60405180910390fd5b565b611a30828260405180602001604052806000815250611d70565b5050565b6000600860029054906101000a900473ffffffffffffffffffffffffffffffffffffffff16905081600860026101000a81548173ffffffffffffffffffffffffffffffffffffffff021916908373ffffffffffffffffffffffffffffffffffffffff1602179055508173ffffffffffffffffffffffffffffffffffffffff168173ffffffffffffffffffffffffffffffffffffffff167f8be0079c531659141344cd1fd0a4f28419497f9722a3daafe3b4186f6b6457e060405160405180910390a35050565b6000808273ffffffffffffffffffffffffffffffffffffffff163b119050919050565b60008373ffffffffffffffffffffffffffffffffffffffff1663150b7a02611b436117f3565b8786866040518563ffffffff1660e01b8152600401611b659493929190612e6f565b602060405180830381600087803b158015611b7f57600080fd5b505af1925050508015611bb057506040513d601f19601f82011682018060405250810190611bad9190612ed0565b60015b611c2a573d8060008114611be0576040519150601f19603f3d011682016040523d82523d6000602084013e611be5565b606091505b50600081511415611c22576040517fd1a57ed600000000000000000000000000000000000000000000000000000000815260040160405180910390fd5b805181602001fd5b63150b7a0260e01b7bffffffffffffffffffffffffffffffffffffffffffffffffffffffff1916817bffffffffffffffffffffffffffffffffffffffffffffffffffffffff191614915050949350505050565b6060600d8054611c8c9061281e565b80601f0160208091040260200160405190810160405280929190818152602001828054611cb89061281e565b8015611d055780601f10611cda57610100808354040283529160200191611d05565b820191906000526020600020905b815481529060010190602001808311611ce857829003601f168201915b5050505050905090565b606060806040510190508060405280825b600115611d4b57600183039250600a81066030018353600a8104905080611d4657611d4b565b611d20565b508181036020830392508083525050919050565b60009392505050565b600033905090565b611d7a8383611e0d565b60008373ffffffffffffffffffffffffffffffffffffffff163b14611e0857600080549050600083820390505b611dba6000868380600101945086611b1d565b611df0576040517fd1a57ed600000000000000000000000000000000000000000000000000000000815260040160405180910390fd5b818110611da7578160005414611e0557600080fd5b50505b505050565b6000805490506000821415611e4e576040517fb562e8dd00000000000000000000000000000000000000000000000000000000815260040160405180910390fd5b611e5b6000848385611939565b600160406001901b178202600560008573ffffffffffffffffffffffffffffffffffffffff1673ffffffffffffffffffffffffffffffffffffffff16815260200190815260200160002060008282540192505081905550611ed283611ec3600086600061193f565b611ecc85611fca565b17611967565b6004600083815260200190815260200160002081905550600080838301905073ffffffffffffffffffffffffffffffffffffffff85169150828260007fddf252ad1be2c89b69c2b068fc378daa952ba7f163c4a11628f55a4df523b3ef600080a4600183015b818114611f7357808360007fddf252ad1be2c89b69c2b068fc378daa952ba7f163c4a11628f55a4df523b3ef600080a4600181019050611f38565b506000821415611faf576040517f2e07630000000000000000000000000000000000000000000000000000000000815260040160405180910390fd5b806000819055505050611fc56000848385611992565b505050565b60006001821460e11b9050919050565b828054611fe69061281e565b90600052602060002090601f016020900481019282612008576000855561204f565b82601f1061202157805160ff191683800117855561204f565b8280016001018555821561204f579182015b8281111561204e578251825591602001919060010190612033565b5b50905061205c9190612060565b5090565b5b80821115612079576000816000905550600101612061565b5090565b6000604051905090565b600080fd5b600080fd5b60007fffffffff0000000000000000000000000000000000000000000000000000000082169050919050565b6120c681612091565b81146120d157600080fd5b50565b6000813590506120e3816120bd565b92915050565b6000602082840312156120ff576120fe612087565b5b600061210d848285016120d4565b91505092915050565b60008115159050919050565b61212b81612116565b82525050565b60006020820190506121466000830184612122565b92915050565b600081519050919050565b600082825260208201905092915050565b60005b8381101561218657808201518184015260208101905061216b565b83811115612195576000848401525b50505050565b6000601f19601f8301169050919050565b60006121b78261214c565b6121c18185612157565b93506121d1818560208601612168565b6121da8161219b565b840191505092915050565b600060208201905081810360008301526121ff81846121ac565b905092915050565b6000819050919050565b61221a81612207565b811461222557600080fd5b50565b60008135905061223781612211565b92915050565b60006020828403121561225357612252612087565b5b600061226184828501612228565b91505092915050565b600073ffffffffffffffffffffffffffffffffffffffff82169050919050565b60006122958261226a565b9050919050565b6122a58161228a565b82525050565b60006020820190506122c0600083018461229c565b92915050565b6122cf8161228a565b81146122da57600080fd5b50565b6000813590506122ec816122c6565b92915050565b6000806040838503121561230957612308612087565b5b6000612317858286016122dd565b925050602061232885828601612228565b9150509250929050565b61233b81612207565b82525050565b60006020820190506123566000830184612332565b92915050565b60008060006060848603121561237557612374612087565b5b6000612383868287016122dd565b9350506020612394868287016122dd565b92505060406123a586828701612228565b9150509250925092565b600080fd5b600080fd5b7f4e487b7100000000000000000000000000000000000000000000000000000000600052604160045260246000fd5b6123f18261219b565b810181811067ffffffffffffffff821117156124105761240f6123b9565b5b80604052505050565b600061242361207d565b905061242f82826123e8565b919050565b600067ffffffffffffffff82111561244f5761244e6123b9565b5b6124588261219b565b9050602081019050919050565b82818337600083830152505050565b600061248761248284612434565b612419565b9050828152602081018484840111156124a3576124a26123b4565b5b6124ae848285612465565b509392505050565b600082601f8301126124cb576124ca6123af565b5b81356124db848260208601612474565b91505092915050565b6000602082840312156124fa576124f9612087565b5b600082013567ffffffffffffffff8111156125185761251761208c565b5b612524848285016124b6565b91505092915050565b60006020828403121561254357612542612087565b5b6000612551848285016122dd565b91505092915050565b61256381612116565b811461256e57600080fd5b50565b6000813590506125808161255a565b92915050565b6000806040838503121561259d5761259c612087565b5b60006125ab858286016122dd565b92505060206125bc85828601612571565b9150509250929050565b60008060008060008060c087890312156125e3576125e2612087565b5b60006125f189828a016122dd565b965050602087013567ffffffffffffffff8111156126125761261161208c565b5b61261e89828a016124b6565b955050604087013567ffffffffffffffff81111561263f5761263e61208c565b5b61264b89828a016124b6565b945050606061265c89828a01612228565b935050608061266d89828a01612228565b92505060a061267e89828a01612228565b9150509295509295509295565b600067ffffffffffffffff8211156126a6576126a56123b9565b5b6126af8261219b565b9050602081019050919050565b60006126cf6126ca8461268b565b612419565b9050828152602081018484840111156126eb576126ea6123b4565b5b6126f6848285612465565b509392505050565b600082601f830112612713576127126123af565b5b81356127238482602086016126bc565b91505092915050565b6000806000806080858703121561274657612745612087565b5b6000612754878288016122dd565b9450506020612765878288016122dd565b935050604061277687828801612228565b925050606085013567ffffffffffffffff8111156127975761279661208c565b5b6127a3878288016126fe565b91505092959194509250565b600080604083850312156127c6576127c5612087565b5b60006127d4858286016122dd565b92505060206127e5858286016122dd565b9150509250929050565b7f4e487b7100000000000000000000000000000000000000000000000000000000600052602260045260246000fd5b6000600282049050600182168061283657607f821691505b6020821081141561284a576128496127ef565b5b50919050565b7f4e487b7100000000000000000000000000000000000000000000000000000000600052601160045260246000fd5b600061288a82612207565b915061289583612207565b9250827fffffffffffffffffffffffffffffffffffffffffffffffffffffffffffffffff038211156128ca576128c9612850565b5b828201905092915050565b7f507572636861736520776f756c6420657863656564206d617820737570706c79600082015250565b600061290b602083612157565b9150612916826128d5565b602082019050919050565b6000602082019050818103600083015261293a816128fe565b9050919050565b600061294c82612207565b91507fffffffffffffffffffffffffffffffffffffffffffffffffffffffffffffffff82141561297f5761297e612850565b5b600182019050919050565b7f53616c65206d7573742062652061637469766520746f206d696e740000000000600082015250565b60006129c0601b83612157565b91506129cb8261298a565b602082019050919050565b600060208201905081810360008301526129ef816129b3565b9050919050565b7f534f4c44204f5554000000000000000000000000000000000000000000000000600082015250565b6000612a2c600883612157565b9150612a37826129f6565b602082019050919050565b60006020820190508181036000830152612a5b81612a1f565b9050919050565b7f4578636565646564206d6178206e756d62657220706572206d696e7400000000600082015250565b6000612a98601c83612157565b9150612aa382612a62565b602082019050919050565b60006020820190508181036000830152612ac781612a8b565b9050919050565b6000612ad982612207565b9150612ae483612207565b9250817fffffffffffffffffffffffffffffffffffffffffffffffffffffffffffffffff0483118215151615612b1d57612b1c612850565b5b828202905092915050565b7f496e73756666696369656e742066756e64730000000000000000000000000000600082015250565b6000612b5e601283612157565b9150612b6982612b28565b602082019050919050565b60006020820190508181036000830152612b8d81612b51565b9050919050565b6000604082019050612ba9600083018561229c565b612bb66020830184612332565b9392505050565b7f496e697469616c697a61626c653a20636f6e747261637420697320616c72656160008201527f647920696e697469616c697a6564000000000000000000000000000000000000602082015250565b6000612c19602e83612157565b9150612c2482612bbd565b604082019050919050565b60006020820190508181036000830152612c4881612c0c565b9050919050565b6000819050919050565b600060ff82169050919050565b6000819050919050565b6000612c8b612c86612c8184612c4f565b612c66565b612c59565b9050919050565b612c9b81612c70565b82525050565b6000602082019050612cb66000830184612c92565b92915050565b600081905092915050565b6000612cd28261214c565b612cdc8185612cbc565b9350612cec818560208601612168565b80840191505092915050565b6000612d048285612cc7565b9150612d108284612cc7565b91508190509392505050565b7f4f776e61626c653a206e6577206f776e657220697320746865207a65726f206160008201527f6464726573730000000000000000000000000000000000000000000000000000602082015250565b6000612d78602683612157565b9150612d8382612d1c565b604082019050919050565b60006020820190508181036000830152612da781612d6b565b9050919050565b7f4f776e61626c653a2063616c6c6572206973206e6f7420746865206f776e6572600082015250565b6000612de4602083612157565b9150612def82612dae565b602082019050919050565b60006020820190508181036000830152612e1381612dd7565b9050919050565b600081519050919050565b600082825260208201905092915050565b6000612e4182612e1a565b612e4b8185612e25565b9350612e5b818560208601612168565b612e648161219b565b840191505092915050565b6000608082019050612e84600083018761229c565b612e91602083018661229c565b612e9e6040830185612332565b8181036060830152612eb08184612e36565b905095945050505050565b600081519050612eca816120bd565b92915050565b600060208284031215612ee657612ee5612087565b5b6000612ef484828501612ebb565b9150509291505056fea26469706673582212206e69912abbf5da405d6d1a66216e8c16d2d4576807662e22fa152572ad95ac4b64736f6c63430008090033",
  "linkReferences": {},
  "deployedLinkReferences": {}
}