{
  "_format": "hh-sol-artifact-1",
  "contractName": "DCNT721A",
  "sourceName": "contracts/DCNT721A.sol",
  "abi": [
    {
      "inputs": [],
      "name": "ApprovalCallerNotOwnerNorApproved",
      "type": "error"
    },
    {
      "inputs": [],
      "name": "ApprovalQueryForNonexistentToken",
      "type": "error"
    },
    {
      "inputs": [],
      "name": "ApproveToCaller",
      "type": "error"
    },
    {
      "inputs": [],
      "name": "BalanceQueryForZeroAddress",
      "type": "error"
    },
    {
      "inputs": [],
      "name": "MintERC2309QuantityExceedsLimit",
      "type": "error"
    },
    {
      "inputs": [],
      "name": "MintToZeroAddress",
      "type": "error"
    },
    {
      "inputs": [],
      "name": "MintZeroQuantity",
      "type": "error"
    },
    {
      "inputs": [],
      "name": "OwnerQueryForNonexistentToken",
      "type": "error"
    },
    {
      "inputs": [],
      "name": "OwnershipNotInitializedForExtraData",
      "type": "error"
    },
    {
      "inputs": [],
      "name": "TransferCallerNotOwnerNorApproved",
      "type": "error"
    },
    {
      "inputs": [],
      "name": "TransferFromIncorrectOwner",
      "type": "error"
    },
    {
      "inputs": [],
      "name": "TransferToNonERC721ReceiverImplementer",
      "type": "error"
    },
    {
      "inputs": [],
      "name": "TransferToZeroAddress",
      "type": "error"
    },
    {
      "inputs": [],
      "name": "URIQueryForNonexistentToken",
      "type": "error"
    },
    {
      "anonymous": false,
      "inputs": [
        {
          "indexed": true,
          "internalType": "address",
          "name": "owner",
          "type": "address"
        },
        {
          "indexed": true,
          "internalType": "address",
          "name": "approved",
          "type": "address"
        },
        {
          "indexed": true,
          "internalType": "uint256",
          "name": "tokenId",
          "type": "uint256"
        }
      ],
      "name": "Approval",
      "type": "event"
    },
    {
      "anonymous": false,
      "inputs": [
        {
          "indexed": true,
          "internalType": "address",
          "name": "owner",
          "type": "address"
        },
        {
          "indexed": true,
          "internalType": "address",
          "name": "operator",
          "type": "address"
        },
        {
          "indexed": false,
          "internalType": "bool",
          "name": "approved",
          "type": "bool"
        }
      ],
      "name": "ApprovalForAll",
      "type": "event"
    },
    {
      "anonymous": false,
      "inputs": [
        {
          "indexed": true,
          "internalType": "uint256",
          "name": "fromTokenId",
          "type": "uint256"
        },
        {
          "indexed": false,
          "internalType": "uint256",
          "name": "toTokenId",
          "type": "uint256"
        },
        {
          "indexed": true,
          "internalType": "address",
          "name": "from",
          "type": "address"
        },
        {
          "indexed": true,
          "internalType": "address",
          "name": "to",
          "type": "address"
        }
      ],
      "name": "ConsecutiveTransfer",
      "type": "event"
    },
    {
      "anonymous": false,
      "inputs": [
        {
          "indexed": false,
          "internalType": "uint8",
          "name": "version",
          "type": "uint8"
        }
      ],
      "name": "Initialized",
      "type": "event"
    },
    {
      "anonymous": false,
      "inputs": [
        {
          "indexed": false,
          "internalType": "address",
          "name": "sender",
          "type": "address"
        },
        {
          "indexed": false,
          "internalType": "uint256",
          "name": "tokenId_",
          "type": "uint256"
        }
      ],
      "name": "Minted",
      "type": "event"
    },
    {
      "anonymous": false,
      "inputs": [
        {
          "indexed": true,
          "internalType": "address",
          "name": "previousOwner",
          "type": "address"
        },
        {
          "indexed": true,
          "internalType": "address",
          "name": "newOwner",
          "type": "address"
        }
      ],
      "name": "OwnershipTransferred",
      "type": "event"
    },
    {
      "anonymous": false,
      "inputs": [
        {
          "indexed": true,
          "internalType": "address",
          "name": "from",
          "type": "address"
        },
        {
          "indexed": true,
          "internalType": "address",
          "name": "to",
          "type": "address"
        },
        {
          "indexed": true,
          "internalType": "uint256",
          "name": "tokenId",
          "type": "uint256"
        }
      ],
      "name": "Transfer",
      "type": "event"
    },
    {
      "inputs": [],
      "name": "MAX_TOKENS",
      "outputs": [
        {
          "internalType": "uint256",
          "name": "",
          "type": "uint256"
        }
      ],
      "stateMutability": "view",
      "type": "function"
    },
    {
      "inputs": [
        {
          "internalType": "address",
          "name": "to",
          "type": "address"
        },
        {
          "internalType": "uint256",
          "name": "tokenId",
          "type": "uint256"
        }
      ],
      "name": "approve",
      "outputs": [],
      "stateMutability": "nonpayable",
      "type": "function"
    },
    {
      "inputs": [
        {
          "internalType": "address",
          "name": "owner",
          "type": "address"
        }
      ],
      "name": "balanceOf",
      "outputs": [
        {
          "internalType": "uint256",
          "name": "",
          "type": "uint256"
        }
      ],
      "stateMutability": "view",
      "type": "function"
    },
    {
      "inputs": [],
      "name": "baseURI",
      "outputs": [
        {
          "internalType": "string",
          "name": "",
          "type": "string"
        }
      ],
      "stateMutability": "view",
      "type": "function"
    },
    {
      "inputs": [],
      "name": "flipSaleState",
      "outputs": [],
      "stateMutability": "nonpayable",
      "type": "function"
    },
    {
      "inputs": [
        {
          "internalType": "uint256",
          "name": "tokenId",
          "type": "uint256"
        }
      ],
      "name": "getApproved",
      "outputs": [
        {
          "internalType": "address",
          "name": "",
          "type": "address"
        }
      ],
      "stateMutability": "view",
      "type": "function"
    },
    {
      "inputs": [
        {
          "internalType": "address",
          "name": "_owner",
          "type": "address"
        },
        {
          "internalType": "string",
          "name": "name",
          "type": "string"
        },
        {
          "internalType": "string",
          "name": "symbol",
          "type": "string"
        },
        {
          "internalType": "uint256",
          "name": "_maxTokens",
          "type": "uint256"
        },
        {
          "internalType": "uint256",
          "name": "_tokenPrice",
          "type": "uint256"
        },
        {
          "internalType": "uint256",
          "name": "_maxTokenPurchase",
          "type": "uint256"
        }
      ],
      "name": "initialize",
      "outputs": [],
      "stateMutability": "nonpayable",
      "type": "function"
    },
    {
      "inputs": [
        {
          "internalType": "address",
          "name": "owner",
          "type": "address"
        },
        {
          "internalType": "address",
          "name": "operator",
          "type": "address"
        }
      ],
      "name": "isApprovedForAll",
      "outputs": [
        {
          "internalType": "bool",
          "name": "",
          "type": "bool"
        }
      ],
      "stateMutability": "view",
      "type": "function"
    },
    {
      "inputs": [],
      "name": "maxTokenPurchase",
      "outputs": [
        {
          "internalType": "uint256",
          "name": "",
          "type": "uint256"
        }
      ],
      "stateMutability": "view",
      "type": "function"
    },
    {
      "inputs": [],
      "name": "metadataRenderer",
      "outputs": [
        {
          "internalType": "address",
          "name": "",
          "type": "address"
        }
      ],
      "stateMutability": "view",
      "type": "function"
    },
    {
      "inputs": [
        {
          "internalType": "uint256",
          "name": "numberOfTokens",
          "type": "uint256"
        }
      ],
      "name": "mint",
      "outputs": [],
      "stateMutability": "payable",
      "type": "function"
    },
    {
      "inputs": [],
      "name": "name",
      "outputs": [
        {
          "internalType": "string",
          "name": "",
          "type": "string"
        }
      ],
      "stateMutability": "view",
      "type": "function"
    },
    {
      "inputs": [],
      "name": "owner",
      "outputs": [
        {
          "internalType": "address",
          "name": "",
          "type": "address"
        }
      ],
      "stateMutability": "view",
      "type": "function"
    },
    {
      "inputs": [
        {
          "internalType": "uint256",
          "name": "tokenId",
          "type": "uint256"
        }
      ],
      "name": "ownerOf",
      "outputs": [
        {
          "internalType": "address",
          "name": "",
          "type": "address"
        }
      ],
      "stateMutability": "view",
      "type": "function"
    },
    {
      "inputs": [],
      "name": "renounceOwnership",
      "outputs": [],
      "stateMutability": "nonpayable",
      "type": "function"
    },
    {
      "inputs": [
        {
          "internalType": "uint256",
          "name": "numReserved",
          "type": "uint256"
        }
      ],
      "name": "reserveDCNT",
      "outputs": [],
      "stateMutability": "nonpayable",
      "type": "function"
    },
    {
      "inputs": [
        {
          "internalType": "address",
          "name": "from",
          "type": "address"
        },
        {
          "internalType": "address",
          "name": "to",
          "type": "address"
        },
        {
          "internalType": "uint256",
          "name": "tokenId",
          "type": "uint256"
        }
      ],
      "name": "safeTransferFrom",
      "outputs": [],
      "stateMutability": "nonpayable",
      "type": "function"
    },
    {
      "inputs": [
        {
          "internalType": "address",
          "name": "from",
          "type": "address"
        },
        {
          "internalType": "address",
          "name": "to",
          "type": "address"
        },
        {
          "internalType": "uint256",
          "name": "tokenId",
          "type": "uint256"
        },
        {
          "internalType": "bytes",
          "name": "_data",
          "type": "bytes"
        }
      ],
      "name": "safeTransferFrom",
      "outputs": [],
      "stateMutability": "nonpayable",
      "type": "function"
    },
    {
      "inputs": [],
      "name": "saleIsActive",
      "outputs": [
        {
          "internalType": "bool",
          "name": "",
          "type": "bool"
        }
      ],
      "stateMutability": "view",
      "type": "function"
    },
    {
      "inputs": [
        {
          "internalType": "address",
          "name": "operator",
          "type": "address"
        },
        {
          "internalType": "bool",
          "name": "approved",
          "type": "bool"
        }
      ],
      "name": "setApprovalForAll",
      "outputs": [],
      "stateMutability": "nonpayable",
      "type": "function"
    },
    {
      "inputs": [
        {
          "internalType": "string",
          "name": "uri",
          "type": "string"
        }
      ],
      "name": "setBaseURI",
      "outputs": [],
      "stateMutability": "nonpayable",
      "type": "function"
    },
    {
      "inputs": [
        {
          "internalType": "address",
          "name": "_metadataRenderer",
          "type": "address"
        }
      ],
      "name": "setMetadataRenderer",
      "outputs": [],
      "stateMutability": "nonpayable",
      "type": "function"
    },
    {
      "inputs": [
        {
          "internalType": "bytes4",
          "name": "interfaceId",
          "type": "bytes4"
        }
      ],
      "name": "supportsInterface",
      "outputs": [
        {
          "internalType": "bool",
          "name": "",
          "type": "bool"
        }
      ],
      "stateMutability": "view",
      "type": "function"
    },
    {
      "inputs": [],
      "name": "symbol",
      "outputs": [
        {
          "internalType": "string",
          "name": "",
          "type": "string"
        }
      ],
      "stateMutability": "view",
      "type": "function"
    },
    {
      "inputs": [],
      "name": "tokenPrice",
      "outputs": [
        {
          "internalType": "uint256",
          "name": "",
          "type": "uint256"
        }
      ],
      "stateMutability": "view",
      "type": "function"
    },
    {
      "inputs": [
        {
          "internalType": "uint256",
          "name": "tokenId",
          "type": "uint256"
        }
      ],
      "name": "tokenURI",
      "outputs": [
        {
          "internalType": "string",
          "name": "",
          "type": "string"
        }
      ],
      "stateMutability": "view",
      "type": "function"
    },
    {
      "inputs": [],
      "name": "totalSupply",
      "outputs": [
        {
          "internalType": "uint256",
          "name": "",
          "type": "uint256"
        }
      ],
      "stateMutability": "view",
      "type": "function"
    },
    {
      "inputs": [
        {
          "internalType": "address",
          "name": "from",
          "type": "address"
        },
        {
          "internalType": "address",
          "name": "to",
          "type": "address"
        },
        {
          "internalType": "uint256",
          "name": "tokenId",
          "type": "uint256"
        }
      ],
      "name": "transferFrom",
      "outputs": [],
      "stateMutability": "nonpayable",
      "type": "function"
    },
    {
      "inputs": [
        {
          "internalType": "address",
          "name": "newOwner",
          "type": "address"
        }
      ],
      "name": "transferOwnership",
      "outputs": [],
      "stateMutability": "nonpayable",
      "type": "function"
    },
    {
      "inputs": [],
      "name": "withdraw",
      "outputs": [],
      "stateMutability": "nonpayable",
      "type": "function"
    }
  ],
  "bytecode": "0x60806040526000600c60006101000a81548160ff0219169083151502179055503480156200002c57600080fd5b506200004d620000416200005360201b60201c565b6200005b60201b60201c565b62000121565b600033905090565b6000600860029054906101000a900473ffffffffffffffffffffffffffffffffffffffff16905081600860026101000a81548173ffffffffffffffffffffffffffffffffffffffff021916908373ffffffffffffffffffffffffffffffffffffffff1602179055508173ffffffffffffffffffffffffffffffffffffffff168173ffffffffffffffffffffffffffffffffffffffff167f8be0079c531659141344cd1fd0a4f28419497f9722a3daafe3b4186f6b6457e060405160405180910390a35050565b61322780620001316000396000f3fe6080604052600436106101cd5760003560e01c806370a08231116100f7578063a3685b8511610095578063eb8d244411610064578063eb8d244414610641578063f2fde38b1461066c578063f47c84c514610695578063fd4fe8a8146106c0576101cd565b8063a3685b8514610575578063b88d4fde1461059e578063c87b56dd146105c7578063e985e9c514610604576101cd565b80638da5cb5b116100d15780638da5cb5b146104da57806395d89b4114610505578063a0712d6814610530578063a22cb4651461054c576101cd565b806370a082311461045b578063715018a6146104985780637ff9b596146104af576101cd565b806334918dfd1161016f5780636352211e1161013e5780636352211e1461039f5780636c0360eb146103dc5780636c1951ae146104075780637031997014610430576101cd565b806334918dfd1461031f5780633ccfd60b1461033657806342842e0e1461034d57806355f804b314610376576101cd565b8063095ea7b3116101ab578063095ea7b31461027757806309aa3dcf146102a057806318160ddd146102cb57806323b872dd146102f6576101cd565b806301ffc9a7146101d257806306fdde031461020f578063081812fc1461023a575b600080fd5b3480156101de57600080fd5b506101f960048036038101906101f49190612324565b6106e9565b604051610206919061236c565b60405180910390f35b34801561021b57600080fd5b5061022461077b565b6040516102319190612420565b60405180910390f35b34801561024657600080fd5b50610261600480360381019061025c9190612478565b61080d565b60405161026e91906124e6565b60405180910390f35b34801561028357600080fd5b5061029e6004803603810190610299919061252d565b61088c565b005b3480156102ac57600080fd5b506102b56109d0565b6040516102c2919061257c565b60405180910390f35b3480156102d757600080fd5b506102e06109d6565b6040516102ed919061257c565b60405180910390f35b34801561030257600080fd5b5061031d60048036038101906103189190612597565b6109ed565b005b34801561032b57600080fd5b50610334610d12565b005b34801561034257600080fd5b5061034b610d46565b005b34801561035957600080fd5b50610374600480360381019061036f9190612597565b610d97565b005b34801561038257600080fd5b5061039d6004803603810190610398919061271f565b610db7565b005b3480156103ab57600080fd5b506103c660048036038101906103c19190612478565b610dd9565b6040516103d391906124e6565b60405180910390f35b3480156103e857600080fd5b506103f1610deb565b6040516103fe9190612420565b60405180910390f35b34801561041357600080fd5b5061042e60048036038101906104299190612478565b610e79565b005b34801561043c57600080fd5b50610445610f20565b60405161045291906124e6565b60405180910390f35b34801561046757600080fd5b50610482600480360381019061047d9190612768565b610f46565b60405161048f919061257c565b60405180910390f35b3480156104a457600080fd5b506104ad610fff565b005b3480156104bb57600080fd5b506104c4611013565b6040516104d1919061257c565b60405180910390f35b3480156104e657600080fd5b506104ef611019565b6040516104fc91906124e6565b60405180910390f35b34801561051157600080fd5b5061051a611043565b6040516105279190612420565b60405180910390f35b61054a60048036038101906105459190612478565b6110d5565b005b34801561055857600080fd5b50610573600480360381019061056e91906127c1565b6112cc565b005b34801561058157600080fd5b5061059c60048036038101906105979190612801565b611444565b005b3480156105aa57600080fd5b506105c560048036038101906105c09190612967565b6115e1565b005b3480156105d357600080fd5b506105ee60048036038101906105e99190612478565b611654565b6040516105fb9190612420565b60405180910390f35b34801561061057600080fd5b5061062b600480360381019061062691906129ea565b6117b3565b604051610638919061236c565b60405180910390f35b34801561064d57600080fd5b50610656611847565b604051610663919061236c565b60405180910390f35b34801561067857600080fd5b50610693600480360381019061068e9190612768565b61185a565b005b3480156106a157600080fd5b506106aa6118de565b6040516106b7919061257c565b60405180910390f35b3480156106cc57600080fd5b506106e760048036038101906106e29190612768565b6118e4565b005b60006301ffc9a760e01b827bffffffffffffffffffffffffffffffffffffffffffffffffffffffff1916148061074457506380ac58cd60e01b827bffffffffffffffffffffffffffffffffffffffffffffffffffffffff1916145b806107745750635b5e139f60e01b827bffffffffffffffffffffffffffffffffffffffffffffffffffffffff1916145b9050919050565b60606002805461078a90612a59565b80601f01602080910402602001604051908101604052809291908181526020018280546107b690612a59565b80156108035780601f106107d857610100808354040283529160200191610803565b820191906000526020600020905b8154815290600101906020018083116107e657829003601f168201915b5050505050905090565b600061081882611930565b61084e576040517fcf4700e400000000000000000000000000000000000000000000000000000000815260040160405180910390fd5b6006600083815260200190815260200160002060000160009054906101000a900473ffffffffffffffffffffffffffffffffffffffff169050919050565b600061089782610dd9565b90508073ffffffffffffffffffffffffffffffffffffffff166108b861198f565b73ffffffffffffffffffffffffffffffffffffffff161461091b576108e4816108df61198f565b6117b3565b61091a576040517fcfb3b94200000000000000000000000000000000000000000000000000000000815260040160405180910390fd5b5b826006600084815260200190815260200160002060000160006101000a81548173ffffffffffffffffffffffffffffffffffffffff021916908373ffffffffffffffffffffffffffffffffffffffff160217905550818373ffffffffffffffffffffffffffffffffffffffff168273ffffffffffffffffffffffffffffffffffffffff167f8c5be1e5ebec7d5bd14f71427d1e84f3dd0314c0f7b2291e5b200ac8c7c3b92560405160405180910390a4505050565b600b5481565b60006109e0611997565b6001546000540303905090565b60006109f88261199c565b90508373ffffffffffffffffffffffffffffffffffffffff168173ffffffffffffffffffffffffffffffffffffffff1614610a5f576040517fa114810000000000000000000000000000000000000000000000000000000000815260040160405180910390fd5b600080610a6b84611a6a565b91509150610a818187610a7c61198f565b611a91565b610acd57610a9686610a9161198f565b6117b3565b610acc576040517f59c896be00000000000000000000000000000000000000000000000000000000815260040160405180910390fd5b5b600073ffffffffffffffffffffffffffffffffffffffff168573ffffffffffffffffffffffffffffffffffffffff161415610b34576040517fea553b3400000000000000000000000000000000000000000000000000000000815260040160405180910390fd5b610b418686866001611ad5565b8015610b4c57600082555b600560008773ffffffffffffffffffffffffffffffffffffffff1673ffffffffffffffffffffffffffffffffffffffff168152602001908152602001600020600081546001900391905081905550600560008673ffffffffffffffffffffffffffffffffffffffff1673ffffffffffffffffffffffffffffffffffffffff1681526020019081526020016000206000815460010191905081905550610c1a85610bf6888887611adb565b7c020000000000000000000000000000000000000000000000000000000017611b03565b600460008681526020019081526020016000208190555060007c020000000000000000000000000000000000000000000000000000000084161415610ca2576000600185019050600060046000838152602001908152602001600020541415610ca0576000548114610c9f578360046000838152602001908152602001600020819055505b5b505b838573ffffffffffffffffffffffffffffffffffffffff168773ffffffffffffffffffffffffffffffffffffffff167fddf252ad1be2c89b69c2b068fc378daa952ba7f163c4a11628f55a4df523b3ef60405160405180910390a4610d0a8686866001611b2e565b505050505050565b610d1a611b34565b600c60009054906101000a900460ff1615600c60006101000a81548160ff021916908315150217905550565b610d4e611b34565b3373ffffffffffffffffffffffffffffffffffffffff166108fc479081150290604051600060405180830381858888f19350505050158015610d94573d6000803e3d6000fd5b50565b610db2838383604051806020016040528060008152506115e1565b505050565b610dbf611b34565b80600d9080519060200190610dd5929190612215565b5050565b6000610de48261199c565b9050919050565b600d8054610df890612a59565b80601f0160208091040260200160405190810160405280929190818152602001828054610e2490612a59565b8015610e715780601f10610e4657610100808354040283529160200191610e71565b820191906000526020600020905b815481529060010190602001808311610e5457829003601f168201915b505050505081565b610e81611b34565b6000610e8b6109d6565b90506009548282610e9c9190612aba565b10610edc576040517f08c379a0000000000000000000000000000000000000000000000000000000008152600401610ed390612b5c565b60405180910390fd5b60005b82811015610f1b57610f083360018385610ef99190612aba565b610f039190612aba565b611bb2565b8080610f1390612b7c565b915050610edf565b505050565b600e60009054906101000a900473ffffffffffffffffffffffffffffffffffffffff1681565b60008073ffffffffffffffffffffffffffffffffffffffff168273ffffffffffffffffffffffffffffffffffffffff161415610fae576040517f8f4eb60400000000000000000000000000000000000000000000000000000000815260040160405180910390fd5b67ffffffffffffffff600560008473ffffffffffffffffffffffffffffffffffffffff1673ffffffffffffffffffffffffffffffffffffffff16815260200190815260200160002054169050919050565b611007611b34565b6110116000611bd0565b565b600a5481565b6000600860029054906101000a900473ffffffffffffffffffffffffffffffffffffffff16905090565b60606003805461105290612a59565b80601f016020809104026020016040519081016040528092919081815260200182805461107e90612a59565b80156110cb5780601f106110a0576101008083540402835291602001916110cb565b820191906000526020600020905b8154815290600101906020018083116110ae57829003601f168201915b5050505050905090565b60006110df6109d6565b9050600c60009054906101000a900460ff16611130576040517f08c379a000000000000000000000000000000000000000000000000000000000815260040161112790612c11565b60405180910390fd5b600954828261113f9190612aba565b1115611180576040517f08c379a000000000000000000000000000000000000000000000000000000000815260040161117790612b5c565b60405180910390fd5b6009548111156111c5576040517f08c379a00000000000000000000000000000000000000000000000000000000081526004016111bc90612c7d565b60405180910390fd5b600b5482111561120a576040517f08c379a000000000000000000000000000000000000000000000000000000000815260040161120190612ce9565b60405180910390fd5b81600a546112189190612d09565b34101561125a576040517f08c379a000000000000000000000000000000000000000000000000000000000815260040161125190612daf565b60405180910390fd5b6112643383611bb2565b60005b828110156112c7577f30385c845b448a36257a6a1716e6ad2e1bc2cbe333cde1e69fe849ad6511adfe33838061129c90612b7c565b94506040516112ac929190612dcf565b60405180910390a180806112bf90612b7c565b915050611267565b505050565b6112d461198f565b73ffffffffffffffffffffffffffffffffffffffff168273ffffffffffffffffffffffffffffffffffffffff161415611339576040517fb06307db00000000000000000000000000000000000000000000000000000000815260040160405180910390fd5b806007600061134661198f565b73ffffffffffffffffffffffffffffffffffffffff1673ffffffffffffffffffffffffffffffffffffffff16815260200190815260200160002060008473ffffffffffffffffffffffffffffffffffffffff1673ffffffffffffffffffffffffffffffffffffffff16815260200190815260200160002060006101000a81548160ff0219169083151502179055508173ffffffffffffffffffffffffffffffffffffffff166113f361198f565b73ffffffffffffffffffffffffffffffffffffffff167f17307eab39ab6107e8899845ad3d59bd9653f200f220920489ca2b5937696c3183604051611438919061236c565b60405180910390a35050565b6000600860019054906101000a900460ff1615905080801561147857506001600860009054906101000a900460ff1660ff16105b806114a7575061148730611c96565b1580156114a657506001600860009054906101000a900460ff1660ff16145b5b6114e6576040517f08c379a00000000000000000000000000000000000000000000000000000000081526004016114dd90612e6a565b60405180910390fd5b6001600860006101000a81548160ff021916908360ff1602179055508015611524576001600860016101000a81548160ff0219169083151502179055505b61152d87611bd0565b8560029080519060200190611543929190612215565b50846003908051906020019061155a929190612215565b50611563611997565b6000819055508360098190555082600a8190555081600b8190555080156115d8576000600860016101000a81548160ff0219169083151502179055507f7f26b83ff96e1f2b6a682f133852f6798a09c465da95921460cefb384740249860016040516115cf9190612edc565b60405180910390a15b50505050505050565b6115ec8484846109ed565b60008373ffffffffffffffffffffffffffffffffffffffff163b1461164e5761161784848484611cb9565b61164d576040517fd1a57ed600000000000000000000000000000000000000000000000000000000815260040160405180910390fd5b5b50505050565b606061165f82611930565b611695576040517fa14c4b5000000000000000000000000000000000000000000000000000000000815260040160405180910390fd5b600073ffffffffffffffffffffffffffffffffffffffff16600e60009054906101000a900473ffffffffffffffffffffffffffffffffffffffff1673ffffffffffffffffffffffffffffffffffffffff16146117a257600e60009054906101000a900473ffffffffffffffffffffffffffffffffffffffff1673ffffffffffffffffffffffffffffffffffffffff1663c87b56dd836040518263ffffffff1660e01b8152600401611746919061257c565b60006040518083038186803b15801561175e57600080fd5b505afa158015611772573d6000803e3d6000fd5b505050506040513d6000823e3d601f19601f8201168201806040525081019061179b9190612f67565b90506117ae565b6117ab82611e19565b90505b919050565b6000600760008473ffffffffffffffffffffffffffffffffffffffff1673ffffffffffffffffffffffffffffffffffffffff16815260200190815260200160002060008373ffffffffffffffffffffffffffffffffffffffff1673ffffffffffffffffffffffffffffffffffffffff16815260200190815260200160002060009054906101000a900460ff16905092915050565b600c60009054906101000a900460ff1681565b611862611b34565b600073ffffffffffffffffffffffffffffffffffffffff168173ffffffffffffffffffffffffffffffffffffffff1614156118d2576040517f08c379a00000000000000000000000000000000000000000000000000000000081526004016118c990613022565b60405180910390fd5b6118db81611bd0565b50565b60095481565b6118ec611b34565b80600e60006101000a81548173ffffffffffffffffffffffffffffffffffffffff021916908373ffffffffffffffffffffffffffffffffffffffff16021790555050565b60008161193b611997565b1115801561194a575060005482105b8015611988575060007c0100000000000000000000000000000000000000000000000000000000600460008581526020019081526020016000205416145b9050919050565b600033905090565b600090565b600080829050806119ab611997565b11611a3357600054811015611a325760006004600083815260200190815260200160002054905060007c010000000000000000000000000000000000000000000000000000000082161415611a30575b6000811415611a265760046000836001900393508381526020019081526020016000205490506119fb565b8092505050611a65565b505b5b6040517fdf2d9b4200000000000000000000000000000000000000000000000000000000815260040160405180910390fd5b919050565b60008060006006600085815260200190815260200160002090508092508254915050915091565b600073ffffffffffffffffffffffffffffffffffffffff8316925073ffffffffffffffffffffffffffffffffffffffff821691508382148383141790509392505050565b50505050565b60008060e883901c905060e8611af2868684611eb8565b62ffffff16901b9150509392505050565b600073ffffffffffffffffffffffffffffffffffffffff83169250814260a01b178317905092915050565b50505050565b611b3c611ec1565b73ffffffffffffffffffffffffffffffffffffffff16611b5a611019565b73ffffffffffffffffffffffffffffffffffffffff1614611bb0576040517f08c379a0000000000000000000000000000000000000000000000000000000008152600401611ba79061308e565b60405180910390fd5b565b611bcc828260405180602001604052806000815250611ec9565b5050565b6000600860029054906101000a900473ffffffffffffffffffffffffffffffffffffffff16905081600860026101000a81548173ffffffffffffffffffffffffffffffffffffffff021916908373ffffffffffffffffffffffffffffffffffffffff1602179055508173ffffffffffffffffffffffffffffffffffffffff168173ffffffffffffffffffffffffffffffffffffffff167f8be0079c531659141344cd1fd0a4f28419497f9722a3daafe3b4186f6b6457e060405160405180910390a35050565b6000808273ffffffffffffffffffffffffffffffffffffffff163b119050919050565b60008373ffffffffffffffffffffffffffffffffffffffff1663150b7a02611cdf61198f565b8786866040518563ffffffff1660e01b8152600401611d019493929190613103565b602060405180830381600087803b158015611d1b57600080fd5b505af1925050508015611d4c57506040513d601f19601f82011682018060405250810190611d499190613164565b60015b611dc6573d8060008114611d7c576040519150601f19603f3d011682016040523d82523d6000602084013e611d81565b606091505b50600081511415611dbe576040517fd1a57ed600000000000000000000000000000000000000000000000000000000815260040160405180910390fd5b805181602001fd5b63150b7a0260e01b7bffffffffffffffffffffffffffffffffffffffffffffffffffffffff1916817bffffffffffffffffffffffffffffffffffffffffffffffffffffffff191614915050949350505050565b6060611e2482611930565b611e5a576040517fa14c4b5000000000000000000000000000000000000000000000000000000000815260040160405180910390fd5b6000611e64611f66565b9050600081511415611e855760405180602001604052806000815250611eb0565b80611e8f84611ff8565b604051602001611ea09291906131cd565b6040516020818303038152906040525b915050919050565b60009392505050565b600033905090565b611ed38383612048565b60008373ffffffffffffffffffffffffffffffffffffffff163b14611f6157600080549050600083820390505b611f136000868380600101945086611cb9565b611f49576040517fd1a57ed600000000000000000000000000000000000000000000000000000000815260040160405180910390fd5b818110611f00578160005414611f5e57600080fd5b50505b505050565b6060600d8054611f7590612a59565b80601f0160208091040260200160405190810160405280929190818152602001828054611fa190612a59565b8015611fee5780601f10611fc357610100808354040283529160200191611fee565b820191906000526020600020905b815481529060010190602001808311611fd157829003601f168201915b5050505050905090565b606060806040510190508060405280825b60011561203457600183039250600a81066030018353600a810490508061202f57612034565b612009565b508181036020830392508083525050919050565b6000805490506000821415612089576040517fb562e8dd00000000000000000000000000000000000000000000000000000000815260040160405180910390fd5b6120966000848385611ad5565b600160406001901b178202600560008573ffffffffffffffffffffffffffffffffffffffff1673ffffffffffffffffffffffffffffffffffffffff1681526020019081526020016000206000828254019250508190555061210d836120fe6000866000611adb565b61210785612205565b17611b03565b6004600083815260200190815260200160002081905550600080838301905073ffffffffffffffffffffffffffffffffffffffff85169150828260007fddf252ad1be2c89b69c2b068fc378daa952ba7f163c4a11628f55a4df523b3ef600080a4600183015b8181146121ae57808360007fddf252ad1be2c89b69c2b068fc378daa952ba7f163c4a11628f55a4df523b3ef600080a4600181019050612173565b5060008214156121ea576040517f2e07630000000000000000000000000000000000000000000000000000000000815260040160405180910390fd5b8060008190555050506122006000848385611b2e565b505050565b60006001821460e11b9050919050565b82805461222190612a59565b90600052602060002090601f016020900481019282612243576000855561228a565b82601f1061225c57805160ff191683800117855561228a565b8280016001018555821561228a579182015b8281111561228957825182559160200191906001019061226e565b5b509050612297919061229b565b5090565b5b808211156122b457600081600090555060010161229c565b5090565b6000604051905090565b600080fd5b600080fd5b60007fffffffff0000000000000000000000000000000000000000000000000000000082169050919050565b612301816122cc565b811461230c57600080fd5b50565b60008135905061231e816122f8565b92915050565b60006020828403121561233a576123396122c2565b5b60006123488482850161230f565b91505092915050565b60008115159050919050565b61236681612351565b82525050565b6000602082019050612381600083018461235d565b92915050565b600081519050919050565b600082825260208201905092915050565b60005b838110156123c15780820151818401526020810190506123a6565b838111156123d0576000848401525b50505050565b6000601f19601f8301169050919050565b60006123f282612387565b6123fc8185612392565b935061240c8185602086016123a3565b612415816123d6565b840191505092915050565b6000602082019050818103600083015261243a81846123e7565b905092915050565b6000819050919050565b61245581612442565b811461246057600080fd5b50565b6000813590506124728161244c565b92915050565b60006020828403121561248e5761248d6122c2565b5b600061249c84828501612463565b91505092915050565b600073ffffffffffffffffffffffffffffffffffffffff82169050919050565b60006124d0826124a5565b9050919050565b6124e0816124c5565b82525050565b60006020820190506124fb60008301846124d7565b92915050565b61250a816124c5565b811461251557600080fd5b50565b60008135905061252781612501565b92915050565b60008060408385031215612544576125436122c2565b5b600061255285828601612518565b925050602061256385828601612463565b9150509250929050565b61257681612442565b82525050565b6000602082019050612591600083018461256d565b92915050565b6000806000606084860312156125b0576125af6122c2565b5b60006125be86828701612518565b93505060206125cf86828701612518565b92505060406125e086828701612463565b9150509250925092565b600080fd5b600080fd5b7f4e487b7100000000000000000000000000000000000000000000000000000000600052604160045260246000fd5b61262c826123d6565b810181811067ffffffffffffffff8211171561264b5761264a6125f4565b5b80604052505050565b600061265e6122b8565b905061266a8282612623565b919050565b600067ffffffffffffffff82111561268a576126896125f4565b5b612693826123d6565b9050602081019050919050565b82818337600083830152505050565b60006126c26126bd8461266f565b612654565b9050828152602081018484840111156126de576126dd6125ef565b5b6126e98482856126a0565b509392505050565b600082601f830112612706576127056125ea565b5b81356127168482602086016126af565b91505092915050565b600060208284031215612735576127346122c2565b5b600082013567ffffffffffffffff811115612753576127526122c7565b5b61275f848285016126f1565b91505092915050565b60006020828403121561277e5761277d6122c2565b5b600061278c84828501612518565b91505092915050565b61279e81612351565b81146127a957600080fd5b50565b6000813590506127bb81612795565b92915050565b600080604083850312156127d8576127d76122c2565b5b60006127e685828601612518565b92505060206127f7858286016127ac565b9150509250929050565b60008060008060008060c0878903121561281e5761281d6122c2565b5b600061282c89828a01612518565b965050602087013567ffffffffffffffff81111561284d5761284c6122c7565b5b61285989828a016126f1565b955050604087013567ffffffffffffffff81111561287a576128796122c7565b5b61288689828a016126f1565b945050606061289789828a01612463565b93505060806128a889828a01612463565b92505060a06128b989828a01612463565b9150509295509295509295565b600067ffffffffffffffff8211156128e1576128e06125f4565b5b6128ea826123d6565b9050602081019050919050565b600061290a612905846128c6565b612654565b905082815260208101848484011115612926576129256125ef565b5b6129318482856126a0565b509392505050565b600082601f83011261294e5761294d6125ea565b5b813561295e8482602086016128f7565b91505092915050565b60008060008060808587031215612981576129806122c2565b5b600061298f87828801612518565b94505060206129a087828801612518565b93505060406129b187828801612463565b925050606085013567ffffffffffffffff8111156129d2576129d16122c7565b5b6129de87828801612939565b91505092959194509250565b60008060408385031215612a0157612a006122c2565b5b6000612a0f85828601612518565b9250506020612a2085828601612518565b9150509250929050565b7f4e487b7100000000000000000000000000000000000000000000000000000000600052602260045260246000fd5b60006002820490506001821680612a7157607f821691505b60208210811415612a8557612a84612a2a565b5b50919050565b7f4e487b7100000000000000000000000000000000000000000000000000000000600052601160045260246000fd5b6000612ac582612442565b9150612ad083612442565b9250827fffffffffffffffffffffffffffffffffffffffffffffffffffffffffffffffff03821115612b0557612b04612a8b565b5b828201905092915050565b7f507572636861736520776f756c6420657863656564206d617820737570706c79600082015250565b6000612b46602083612392565b9150612b5182612b10565b602082019050919050565b60006020820190508181036000830152612b7581612b39565b9050919050565b6000612b8782612442565b91507fffffffffffffffffffffffffffffffffffffffffffffffffffffffffffffffff821415612bba57612bb9612a8b565b5b600182019050919050565b7f53616c65206d7573742062652061637469766520746f206d696e740000000000600082015250565b6000612bfb601b83612392565b9150612c0682612bc5565b602082019050919050565b60006020820190508181036000830152612c2a81612bee565b9050919050565b7f534f4c44204f5554000000000000000000000000000000000000000000000000600082015250565b6000612c67600883612392565b9150612c7282612c31565b602082019050919050565b60006020820190508181036000830152612c9681612c5a565b9050919050565b7f4578636565646564206d6178206e756d62657220706572206d696e7400000000600082015250565b6000612cd3601c83612392565b9150612cde82612c9d565b602082019050919050565b60006020820190508181036000830152612d0281612cc6565b9050919050565b6000612d1482612442565b9150612d1f83612442565b9250817fffffffffffffffffffffffffffffffffffffffffffffffffffffffffffffffff0483118215151615612d5857612d57612a8b565b5b828202905092915050565b7f496e73756666696369656e742066756e64730000000000000000000000000000600082015250565b6000612d99601283612392565b9150612da482612d63565b602082019050919050565b60006020820190508181036000830152612dc881612d8c565b9050919050565b6000604082019050612de460008301856124d7565b612df1602083018461256d565b9392505050565b7f496e697469616c697a61626c653a20636f6e747261637420697320616c72656160008201527f647920696e697469616c697a6564000000000000000000000000000000000000602082015250565b6000612e54602e83612392565b9150612e5f82612df8565b604082019050919050565b60006020820190508181036000830152612e8381612e47565b9050919050565b6000819050919050565b600060ff82169050919050565b6000819050919050565b6000612ec6612ec1612ebc84612e8a565b612ea1565b612e94565b9050919050565b612ed681612eab565b82525050565b6000602082019050612ef16000830184612ecd565b92915050565b6000612f0a612f058461266f565b612654565b905082815260208101848484011115612f2657612f256125ef565b5b612f318482856123a3565b509392505050565b600082601f830112612f4e57612f4d6125ea565b5b8151612f5e848260208601612ef7565b91505092915050565b600060208284031215612f7d57612f7c6122c2565b5b600082015167ffffffffffffffff811115612f9b57612f9a6122c7565b5b612fa784828501612f39565b91505092915050565b7f4f776e61626c653a206e6577206f776e657220697320746865207a65726f206160008201527f6464726573730000000000000000000000000000000000000000000000000000602082015250565b600061300c602683612392565b915061301782612fb0565b604082019050919050565b6000602082019050818103600083015261303b81612fff565b9050919050565b7f4f776e61626c653a2063616c6c6572206973206e6f7420746865206f776e6572600082015250565b6000613078602083612392565b915061308382613042565b602082019050919050565b600060208201905081810360008301526130a78161306b565b9050919050565b600081519050919050565b600082825260208201905092915050565b60006130d5826130ae565b6130df81856130b9565b93506130ef8185602086016123a3565b6130f8816123d6565b840191505092915050565b600060808201905061311860008301876124d7565b61312560208301866124d7565b613132604083018561256d565b818103606083015261314481846130ca565b905095945050505050565b60008151905061315e816122f8565b92915050565b60006020828403121561317a576131796122c2565b5b60006131888482850161314f565b91505092915050565b600081905092915050565b60006131a782612387565b6131b18185613191565b93506131c18185602086016123a3565b80840191505092915050565b60006131d9828561319c565b91506131e5828461319c565b9150819050939250505056fea2646970667358221220b5e81ab759998a25f619d44ccc2e249379a192dedc23d359dcc8300b9d68004764736f6c63430008090033",
  "linkReferences": {},
  "deployedLinkReferences": {}
}