{
  "_format": "hh-sol-artifact-1",
  "contractName": "DCNTMetadataRenderer",
  "sourceName": "contracts/DCNTMetadataRenderer.sol",
  "abi": [
    {
      "inputs": [
        {
          "internalType": "contract ISharedNFTLogic",
          "name": "_sharedNFTLogic",
          "type": "address"
        }
      ],
      "stateMutability": "nonpayable",
      "type": "constructor"
    },
    {
      "inputs": [],
      "name": "Access_OnlyAdmin",
      "type": "error"
    },
    {
      "anonymous": false,
      "inputs": [
        {
          "indexed": true,
          "internalType": "address",
          "name": "target",
          "type": "address"
        },
        {
          "indexed": false,
          "internalType": "address",
          "name": "sender",
          "type": "address"
        },
        {
          "indexed": false,
          "internalType": "string",
          "name": "newArtist",
          "type": "string"
        }
      ],
      "name": "ArtistUpdated",
      "type": "event"
    },
    {
      "anonymous": false,
      "inputs": [
        {
          "indexed": true,
          "internalType": "address",
          "name": "target",
          "type": "address"
        },
        {
          "indexed": false,
          "internalType": "address",
          "name": "sender",
          "type": "address"
        },
        {
          "indexed": false,
          "internalType": "string",
          "name": "artworkUri",
          "type": "string"
        },
        {
          "indexed": false,
          "internalType": "string",
          "name": "artworkMimeType",
          "type": "string"
        },
        {
          "indexed": false,
          "internalType": "string",
          "name": "artworkNft",
          "type": "string"
        }
      ],
      "name": "ArtworkUpdated",
      "type": "event"
    },
    {
      "anonymous": false,
      "inputs": [
        {
          "indexed": true,
          "internalType": "address",
          "name": "target",
          "type": "address"
        },
        {
          "indexed": false,
          "internalType": "address",
          "name": "sender",
          "type": "address"
        },
        {
          "indexed": false,
          "internalType": "string",
          "name": "license",
          "type": "string"
        },
        {
          "indexed": false,
          "internalType": "string",
          "name": "externalUrl",
          "type": "string"
        },
        {
          "indexed": false,
          "internalType": "string",
          "name": "isrc",
          "type": "string"
        },
        {
          "indexed": false,
          "internalType": "string",
          "name": "genre",
          "type": "string"
        }
      ],
      "name": "AudioQualitativeUpdated",
      "type": "event"
    },
    {
      "anonymous": false,
      "inputs": [
        {
          "indexed": true,
          "internalType": "address",
          "name": "target",
          "type": "address"
        },
        {
          "indexed": false,
          "internalType": "address",
          "name": "sender",
          "type": "address"
        },
        {
          "indexed": false,
          "internalType": "string",
          "name": "key",
          "type": "string"
        },
        {
          "indexed": false,
          "internalType": "uint256",
          "name": "bpm",
          "type": "uint256"
        },
        {
          "indexed": false,
          "internalType": "uint256",
          "name": "duration",
          "type": "uint256"
        },
        {
          "indexed": false,
          "internalType": "string",
          "name": "audioMimeType",
          "type": "string"
        },
        {
          "indexed": false,
          "internalType": "uint256",
          "name": "trackNumber",
          "type": "uint256"
        }
      ],
      "name": "AudioQuantitativeUpdated",
      "type": "event"
    },
    {
      "anonymous": false,
      "inputs": [
        {
          "indexed": true,
          "internalType": "address",
          "name": "target",
          "type": "address"
        },
        {
          "indexed": false,
          "internalType": "address",
          "name": "sender",
          "type": "address"
        },
        {
          "components": [
            {
              "internalType": "string",
              "name": "name",
              "type": "string"
            },
            {
              "internalType": "string",
              "name": "collaboratorType",
              "type": "string"
            }
          ],
          "indexed": false,
          "internalType": "struct IOnChainMetadata.Credit[]",
          "name": "credits",
          "type": "tuple[]"
        }
      ],
      "name": "CreditsUpdated",
      "type": "event"
    },
    {
      "anonymous": false,
      "inputs": [
        {
          "indexed": true,
          "internalType": "address",
          "name": "target",
          "type": "address"
        },
        {
          "indexed": false,
          "internalType": "address",
          "name": "sender",
          "type": "address"
        },
        {
          "indexed": false,
          "internalType": "string",
          "name": "newDescription",
          "type": "string"
        }
      ],
      "name": "DescriptionUpdated",
      "type": "event"
    },
    {
      "anonymous": false,
      "inputs": [
        {
          "indexed": true,
          "internalType": "address",
          "name": "target",
          "type": "address"
        },
        {
          "indexed": false,
          "internalType": "string",
          "name": "description",
          "type": "string"
        },
        {
          "indexed": false,
          "internalType": "string",
          "name": "imageURI",
          "type": "string"
        },
        {
          "indexed": false,
          "internalType": "string",
          "name": "animationURI",
          "type": "string"
        }
      ],
      "name": "EditionInitialized",
      "type": "event"
    },
    {
      "anonymous": false,
      "inputs": [
        {
          "indexed": true,
          "internalType": "address",
          "name": "target",
          "type": "address"
        },
        {
          "indexed": false,
          "internalType": "address",
          "name": "sender",
          "type": "address"
        },
        {
          "indexed": false,
          "internalType": "string",
          "name": "losslessAudio",
          "type": "string"
        }
      ],
      "name": "LosslessAudioUpdated",
      "type": "event"
    },
    {
      "anonymous": false,
      "inputs": [
        {
          "indexed": false,
          "internalType": "address",
          "name": "target",
          "type": "address"
        },
        {
          "indexed": false,
          "internalType": "address",
          "name": "sender",
          "type": "address"
        },
        {
          "indexed": false,
          "internalType": "string",
          "name": "lyrics",
          "type": "string"
        },
        {
          "indexed": false,
          "internalType": "string",
          "name": "lyricsNft",
          "type": "string"
        }
      ],
      "name": "LyricsUpdated",
      "type": "event"
    },
    {
      "anonymous": false,
      "inputs": [
        {
          "indexed": true,
          "internalType": "address",
          "name": "target",
          "type": "address"
        },
        {
          "indexed": false,
          "internalType": "address",
          "name": "sender",
          "type": "address"
        },
        {
          "indexed": false,
          "internalType": "string",
          "name": "imageURI",
          "type": "string"
        },
        {
          "indexed": false,
          "internalType": "string",
          "name": "animationURI",
          "type": "string"
        }
      ],
      "name": "MediaURIsUpdated",
      "type": "event"
    },
    {
      "anonymous": false,
      "inputs": [
        {
          "indexed": true,
          "internalType": "address",
          "name": "target",
          "type": "address"
        },
        {
          "indexed": false,
          "internalType": "address",
          "name": "sender",
          "type": "address"
        },
        {
          "indexed": false,
          "internalType": "string",
          "name": "artworkUri",
          "type": "string"
        },
        {
          "indexed": false,
          "internalType": "string",
          "name": "artworkMimeType",
          "type": "string"
        },
        {
          "indexed": false,
          "internalType": "string",
          "name": "artworkNft",
          "type": "string"
        }
      ],
      "name": "ProjectArtworkUpdated",
      "type": "event"
    },
    {
      "anonymous": false,
      "inputs": [
        {
          "indexed": true,
          "internalType": "address",
          "name": "target",
          "type": "address"
        },
        {
          "indexed": false,
          "internalType": "address",
          "name": "sender",
          "type": "address"
        },
        {
          "indexed": false,
          "internalType": "string",
          "name": "title",
          "type": "string"
        },
        {
          "indexed": false,
          "internalType": "string",
          "name": "description",
          "type": "string"
        },
        {
          "indexed": false,
          "internalType": "string",
          "name": "recordLabel",
          "type": "string"
        },
        {
          "indexed": false,
          "internalType": "string",
          "name": "publisher",
          "type": "string"
        },
        {
          "indexed": false,
          "internalType": "string",
          "name": "locationCreated",
          "type": "string"
        },
        {
          "indexed": false,
          "internalType": "string",
          "name": "releaseDate",
          "type": "string"
        },
        {
          "indexed": false,
          "internalType": "string",
          "name": "projectType",
          "type": "string"
        },
        {
          "indexed": false,
          "internalType": "string",
          "name": "upc",
          "type": "string"
        }
      ],
      "name": "ProjectPublishingDataUpdated",
      "type": "event"
    },
    {
      "anonymous": false,
      "inputs": [
        {
          "indexed": true,
          "internalType": "address",
          "name": "target",
          "type": "address"
        },
        {
          "indexed": false,
          "internalType": "address",
          "name": "sender",
          "type": "address"
        },
        {
          "indexed": false,
          "internalType": "string",
          "name": "title",
          "type": "string"
        },
        {
          "indexed": false,
          "internalType": "string",
          "name": "description",
          "type": "string"
        },
        {
          "indexed": false,
          "internalType": "string",
          "name": "recordLabel",
          "type": "string"
        },
        {
          "indexed": false,
          "internalType": "string",
          "name": "publisher",
          "type": "string"
        },
        {
          "indexed": false,
          "internalType": "string",
          "name": "locationCreated",
          "type": "string"
        },
        {
          "indexed": false,
          "internalType": "string",
          "name": "releaseDate",
          "type": "string"
        }
      ],
      "name": "PublishingDataUpdated",
      "type": "event"
    },
    {
      "anonymous": false,
      "inputs": [
        {
          "indexed": false,
          "internalType": "address",
          "name": "target",
          "type": "address"
        },
        {
          "indexed": false,
          "internalType": "address",
          "name": "sender",
          "type": "address"
        },
        {
          "components": [
            {
              "components": [
                {
                  "components": [
                    {
                      "internalType": "string",
                      "name": "losslessAudio",
                      "type": "string"
                    },
                    {
                      "components": [
                        {
                          "internalType": "string",
                          "name": "artistName",
                          "type": "string"
                        },
                        {
                          "components": [
                            {
                              "internalType": "string",
                              "name": "key",
                              "type": "string"
                            },
                            {
                              "internalType": "uint256",
                              "name": "bpm",
                              "type": "uint256"
                            },
                            {
                              "internalType": "uint256",
                              "name": "duration",
                              "type": "uint256"
                            },
                            {
                              "internalType": "string",
                              "name": "audioMimeType",
                              "type": "string"
                            },
                            {
                              "internalType": "uint256",
                              "name": "trackNumber",
                              "type": "uint256"
                            }
                          ],
                          "internalType": "struct IOnChainMetadata.AudioQuantitative",
                          "name": "audioQuantitative",
                          "type": "tuple"
                        },
                        {
                          "components": [
                            {
                              "internalType": "string",
                              "name": "license",
                              "type": "string"
                            },
                            {
                              "internalType": "string",
                              "name": "externalUrl",
                              "type": "string"
                            },
                            {
                              "internalType": "string",
                              "name": "isrc",
                              "type": "string"
                            },
                            {
                              "internalType": "string",
                              "name": "genre",
                              "type": "string"
                            }
                          ],
                          "internalType": "struct IOnChainMetadata.AudioQualitative",
                          "name": "audioQualitative",
                          "type": "tuple"
                        }
                      ],
                      "internalType": "struct IOnChainMetadata.SongDetails",
                      "name": "songDetails",
                      "type": "tuple"
                    },
                    {
                      "components": [
                        {
                          "internalType": "string",
                          "name": "lyrics",
                          "type": "string"
                        },
                        {
                          "internalType": "string",
                          "name": "lyricsNft",
                          "type": "string"
                        }
                      ],
                      "internalType": "struct IOnChainMetadata.Lyrics",
                      "name": "lyrics",
                      "type": "tuple"
                    }
                  ],
                  "internalType": "struct IOnChainMetadata.Audio",
                  "name": "audio",
                  "type": "tuple"
                },
                {
                  "components": [
                    {
                      "internalType": "string",
                      "name": "artworkUri",
                      "type": "string"
                    },
                    {
                      "internalType": "string",
                      "name": "artworkMimeType",
                      "type": "string"
                    },
                    {
                      "internalType": "string",
                      "name": "artworkNft",
                      "type": "string"
                    }
                  ],
                  "internalType": "struct IOnChainMetadata.Artwork",
                  "name": "artwork",
                  "type": "tuple"
                },
                {
                  "components": [
                    {
                      "internalType": "string",
                      "name": "artworkUri",
                      "type": "string"
                    },
                    {
                      "internalType": "string",
                      "name": "artworkMimeType",
                      "type": "string"
                    },
                    {
                      "internalType": "string",
                      "name": "artworkNft",
                      "type": "string"
                    }
                  ],
                  "internalType": "struct IOnChainMetadata.Artwork",
                  "name": "visualizer",
                  "type": "tuple"
                }
              ],
              "internalType": "struct IOnChainMetadata.SongContent",
              "name": "song",
              "type": "tuple"
            },
            {
              "components": [
                {
                  "internalType": "string",
                  "name": "title",
                  "type": "string"
                },
                {
                  "internalType": "string",
                  "name": "description",
                  "type": "string"
                },
                {
                  "internalType": "string",
                  "name": "recordLabel",
                  "type": "string"
                },
                {
                  "internalType": "string",
                  "name": "publisher",
                  "type": "string"
                },
                {
                  "internalType": "string",
                  "name": "locationCreated",
                  "type": "string"
                },
                {
                  "internalType": "string",
                  "name": "releaseDate",
                  "type": "string"
                }
              ],
              "internalType": "struct IOnChainMetadata.PublishingData",
              "name": "songPublishingData",
              "type": "tuple"
            }
          ],
          "indexed": false,
          "internalType": "struct IOnChainMetadata.SongMetadata",
          "name": "songMetadata",
          "type": "tuple"
        },
        {
          "components": [
            {
              "components": [
                {
                  "internalType": "string",
                  "name": "title",
                  "type": "string"
                },
                {
                  "internalType": "string",
                  "name": "description",
                  "type": "string"
                },
                {
                  "internalType": "string",
                  "name": "recordLabel",
                  "type": "string"
                },
                {
                  "internalType": "string",
                  "name": "publisher",
                  "type": "string"
                },
                {
                  "internalType": "string",
                  "name": "locationCreated",
                  "type": "string"
                },
                {
                  "internalType": "string",
                  "name": "releaseDate",
                  "type": "string"
                }
              ],
              "internalType": "struct IOnChainMetadata.PublishingData",
              "name": "publishingData",
              "type": "tuple"
            },
            {
              "components": [
                {
                  "internalType": "string",
                  "name": "artworkUri",
                  "type": "string"
                },
                {
                  "internalType": "string",
                  "name": "artworkMimeType",
                  "type": "string"
                },
                {
                  "internalType": "string",
                  "name": "artworkNft",
                  "type": "string"
                }
              ],
              "internalType": "struct IOnChainMetadata.Artwork",
              "name": "artwork",
              "type": "tuple"
            },
            {
              "internalType": "string",
              "name": "projectType",
              "type": "string"
            },
            {
              "internalType": "string",
              "name": "upc",
              "type": "string"
            }
          ],
          "indexed": false,
          "internalType": "struct IOnChainMetadata.ProjectMetadata",
          "name": "projectMetadata",
          "type": "tuple"
        },
        {
          "indexed": false,
          "internalType": "string[]",
          "name": "tags",
          "type": "string[]"
        },
        {
          "components": [
            {
              "internalType": "string",
              "name": "name",
              "type": "string"
            },
            {
              "internalType": "string",
              "name": "collaboratorType",
              "type": "string"
            }
          ],
          "indexed": false,
          "internalType": "struct IOnChainMetadata.Credit[]",
          "name": "credits",
          "type": "tuple[]"
        }
      ],
      "name": "SongUpdated",
      "type": "event"
    },
    {
      "anonymous": false,
      "inputs": [
        {
          "indexed": true,
          "internalType": "address",
          "name": "target",
          "type": "address"
        },
        {
          "indexed": false,
          "internalType": "address",
          "name": "sender",
          "type": "address"
        },
        {
          "indexed": false,
          "internalType": "string[]",
          "name": "tags",
          "type": "string[]"
        }
      ],
      "name": "TagsUpdated",
      "type": "event"
    },
    {
      "anonymous": false,
      "inputs": [
        {
          "indexed": true,
          "internalType": "address",
          "name": "target",
          "type": "address"
        },
        {
          "indexed": false,
          "internalType": "address",
          "name": "sender",
          "type": "address"
        },
        {
          "indexed": false,
          "internalType": "string",
          "name": "artworkUri",
          "type": "string"
        },
        {
          "indexed": false,
          "internalType": "string",
          "name": "artworkMimeType",
          "type": "string"
        },
        {
          "indexed": false,
          "internalType": "string",
          "name": "artworkNft",
          "type": "string"
        }
      ],
      "name": "VisualizerUpdated",
      "type": "event"
    },
    {
      "inputs": [
        {
          "internalType": "address",
          "name": "target",
          "type": "address"
        },
        {
          "components": [
            {
              "components": [
                {
                  "components": [
                    {
                      "internalType": "string",
                      "name": "losslessAudio",
                      "type": "string"
                    },
                    {
                      "components": [
                        {
                          "internalType": "string",
                          "name": "artistName",
                          "type": "string"
                        },
                        {
                          "components": [
                            {
                              "internalType": "string",
                              "name": "key",
                              "type": "string"
                            },
                            {
                              "internalType": "uint256",
                              "name": "bpm",
                              "type": "uint256"
                            },
                            {
                              "internalType": "uint256",
                              "name": "duration",
                              "type": "uint256"
                            },
                            {
                              "internalType": "string",
                              "name": "audioMimeType",
                              "type": "string"
                            },
                            {
                              "internalType": "uint256",
                              "name": "trackNumber",
                              "type": "uint256"
                            }
                          ],
                          "internalType": "struct IOnChainMetadata.AudioQuantitative",
                          "name": "audioQuantitative",
                          "type": "tuple"
                        },
                        {
                          "components": [
                            {
                              "internalType": "string",
                              "name": "license",
                              "type": "string"
                            },
                            {
                              "internalType": "string",
                              "name": "externalUrl",
                              "type": "string"
                            },
                            {
                              "internalType": "string",
                              "name": "isrc",
                              "type": "string"
                            },
                            {
                              "internalType": "string",
                              "name": "genre",
                              "type": "string"
                            }
                          ],
                          "internalType": "struct IOnChainMetadata.AudioQualitative",
                          "name": "audioQualitative",
                          "type": "tuple"
                        }
                      ],
                      "internalType": "struct IOnChainMetadata.SongDetails",
                      "name": "songDetails",
                      "type": "tuple"
                    },
                    {
                      "components": [
                        {
                          "internalType": "string",
                          "name": "lyrics",
                          "type": "string"
                        },
                        {
                          "internalType": "string",
                          "name": "lyricsNft",
                          "type": "string"
                        }
                      ],
                      "internalType": "struct IOnChainMetadata.Lyrics",
                      "name": "lyrics",
                      "type": "tuple"
                    }
                  ],
                  "internalType": "struct IOnChainMetadata.Audio",
                  "name": "audio",
                  "type": "tuple"
                },
                {
                  "components": [
                    {
                      "internalType": "string",
                      "name": "artworkUri",
                      "type": "string"
                    },
                    {
                      "internalType": "string",
                      "name": "artworkMimeType",
                      "type": "string"
                    },
                    {
                      "internalType": "string",
                      "name": "artworkNft",
                      "type": "string"
                    }
                  ],
                  "internalType": "struct IOnChainMetadata.Artwork",
                  "name": "artwork",
                  "type": "tuple"
                },
                {
                  "components": [
                    {
                      "internalType": "string",
                      "name": "artworkUri",
                      "type": "string"
                    },
                    {
                      "internalType": "string",
                      "name": "artworkMimeType",
                      "type": "string"
                    },
                    {
                      "internalType": "string",
                      "name": "artworkNft",
                      "type": "string"
                    }
                  ],
                  "internalType": "struct IOnChainMetadata.Artwork",
                  "name": "visualizer",
                  "type": "tuple"
                }
              ],
              "internalType": "struct IOnChainMetadata.SongContent",
              "name": "song",
              "type": "tuple"
            },
            {
              "components": [
                {
                  "internalType": "string",
                  "name": "title",
                  "type": "string"
                },
                {
                  "internalType": "string",
                  "name": "description",
                  "type": "string"
                },
                {
                  "internalType": "string",
                  "name": "recordLabel",
                  "type": "string"
                },
                {
                  "internalType": "string",
                  "name": "publisher",
                  "type": "string"
                },
                {
                  "internalType": "string",
                  "name": "locationCreated",
                  "type": "string"
                },
                {
                  "internalType": "string",
                  "name": "releaseDate",
                  "type": "string"
                }
              ],
              "internalType": "struct IOnChainMetadata.PublishingData",
              "name": "songPublishingData",
              "type": "tuple"
            }
          ],
          "internalType": "struct IOnChainMetadata.SongMetadata",
          "name": "_songMetadata",
          "type": "tuple"
        },
        {
          "components": [
            {
              "components": [
                {
                  "internalType": "string",
                  "name": "title",
                  "type": "string"
                },
                {
                  "internalType": "string",
                  "name": "description",
                  "type": "string"
                },
                {
                  "internalType": "string",
                  "name": "recordLabel",
                  "type": "string"
                },
                {
                  "internalType": "string",
                  "name": "publisher",
                  "type": "string"
                },
                {
                  "internalType": "string",
                  "name": "locationCreated",
                  "type": "string"
                },
                {
                  "internalType": "string",
                  "name": "releaseDate",
                  "type": "string"
                }
              ],
              "internalType": "struct IOnChainMetadata.PublishingData",
              "name": "publishingData",
              "type": "tuple"
            },
            {
              "components": [
                {
                  "internalType": "string",
                  "name": "artworkUri",
                  "type": "string"
                },
                {
                  "internalType": "string",
                  "name": "artworkMimeType",
                  "type": "string"
                },
                {
                  "internalType": "string",
                  "name": "artworkNft",
                  "type": "string"
                }
              ],
              "internalType": "struct IOnChainMetadata.Artwork",
              "name": "artwork",
              "type": "tuple"
            },
            {
              "internalType": "string",
              "name": "projectType",
              "type": "string"
            },
            {
              "internalType": "string",
              "name": "upc",
              "type": "string"
            }
          ],
          "internalType": "struct IOnChainMetadata.ProjectMetadata",
          "name": "_projectMetadata",
          "type": "tuple"
        },
        {
          "internalType": "string[]",
          "name": "_tags",
          "type": "string[]"
        },
        {
          "components": [
            {
              "internalType": "string",
              "name": "name",
              "type": "string"
            },
            {
              "internalType": "string",
              "name": "collaboratorType",
              "type": "string"
            }
          ],
          "internalType": "struct IOnChainMetadata.Credit[]",
          "name": "_credits",
          "type": "tuple[]"
        }
      ],
      "name": "bulkUpdate",
      "outputs": [],
      "stateMutability": "nonpayable",
      "type": "function"
    },
    {
      "inputs": [],
      "name": "contractURI",
      "outputs": [
        {
          "internalType": "string",
          "name": "",
          "type": "string"
        }
      ],
      "stateMutability": "view",
      "type": "function"
    },
    {
      "inputs": [
        {
          "internalType": "bytes",
          "name": "data",
          "type": "bytes"
        }
      ],
      "name": "initializeWithData",
      "outputs": [],
      "stateMutability": "nonpayable",
      "type": "function"
    },
    {
      "inputs": [
        {
          "internalType": "address",
          "name": "",
          "type": "address"
        }
      ],
      "name": "projectMetadatas",
      "outputs": [
        {
          "components": [
            {
              "internalType": "string",
              "name": "title",
              "type": "string"
            },
            {
              "internalType": "string",
              "name": "description",
              "type": "string"
            },
            {
              "internalType": "string",
              "name": "recordLabel",
              "type": "string"
            },
            {
              "internalType": "string",
              "name": "publisher",
              "type": "string"
            },
            {
              "internalType": "string",
              "name": "locationCreated",
              "type": "string"
            },
            {
              "internalType": "string",
              "name": "releaseDate",
              "type": "string"
            }
          ],
          "internalType": "struct IOnChainMetadata.PublishingData",
          "name": "publishingData",
          "type": "tuple"
        },
        {
          "components": [
            {
              "internalType": "string",
              "name": "artworkUri",
              "type": "string"
            },
            {
              "internalType": "string",
              "name": "artworkMimeType",
              "type": "string"
            },
            {
              "internalType": "string",
              "name": "artworkNft",
              "type": "string"
            }
          ],
          "internalType": "struct IOnChainMetadata.Artwork",
          "name": "artwork",
          "type": "tuple"
        },
        {
          "internalType": "string",
          "name": "projectType",
          "type": "string"
        },
        {
          "internalType": "string",
          "name": "upc",
          "type": "string"
        }
      ],
      "stateMutability": "view",
      "type": "function"
    },
    {
      "inputs": [
        {
          "internalType": "address",
          "name": "",
          "type": "address"
        }
      ],
      "name": "songMetadatas",
      "outputs": [
        {
          "components": [
            {
              "components": [
                {
                  "internalType": "string",
                  "name": "losslessAudio",
                  "type": "string"
                },
                {
                  "components": [
                    {
                      "internalType": "string",
                      "name": "artistName",
                      "type": "string"
                    },
                    {
                      "components": [
                        {
                          "internalType": "string",
                          "name": "key",
                          "type": "string"
                        },
                        {
                          "internalType": "uint256",
                          "name": "bpm",
                          "type": "uint256"
                        },
                        {
                          "internalType": "uint256",
                          "name": "duration",
                          "type": "uint256"
                        },
                        {
                          "internalType": "string",
                          "name": "audioMimeType",
                          "type": "string"
                        },
                        {
                          "internalType": "uint256",
                          "name": "trackNumber",
                          "type": "uint256"
                        }
                      ],
                      "internalType": "struct IOnChainMetadata.AudioQuantitative",
                      "name": "audioQuantitative",
                      "type": "tuple"
                    },
                    {
                      "components": [
                        {
                          "internalType": "string",
                          "name": "license",
                          "type": "string"
                        },
                        {
                          "internalType": "string",
                          "name": "externalUrl",
                          "type": "string"
                        },
                        {
                          "internalType": "string",
                          "name": "isrc",
                          "type": "string"
                        },
                        {
                          "internalType": "string",
                          "name": "genre",
                          "type": "string"
                        }
                      ],
                      "internalType": "struct IOnChainMetadata.AudioQualitative",
                      "name": "audioQualitative",
                      "type": "tuple"
                    }
                  ],
                  "internalType": "struct IOnChainMetadata.SongDetails",
                  "name": "songDetails",
                  "type": "tuple"
                },
                {
                  "components": [
                    {
                      "internalType": "string",
                      "name": "lyrics",
                      "type": "string"
                    },
                    {
                      "internalType": "string",
                      "name": "lyricsNft",
                      "type": "string"
                    }
                  ],
                  "internalType": "struct IOnChainMetadata.Lyrics",
                  "name": "lyrics",
                  "type": "tuple"
                }
              ],
              "internalType": "struct IOnChainMetadata.Audio",
              "name": "audio",
              "type": "tuple"
            },
            {
              "components": [
                {
                  "internalType": "string",
                  "name": "artworkUri",
                  "type": "string"
                },
                {
                  "internalType": "string",
                  "name": "artworkMimeType",
                  "type": "string"
                },
                {
                  "internalType": "string",
                  "name": "artworkNft",
                  "type": "string"
                }
              ],
              "internalType": "struct IOnChainMetadata.Artwork",
              "name": "artwork",
              "type": "tuple"
            },
            {
              "components": [
                {
                  "internalType": "string",
                  "name": "artworkUri",
                  "type": "string"
                },
                {
                  "internalType": "string",
                  "name": "artworkMimeType",
                  "type": "string"
                },
                {
                  "internalType": "string",
                  "name": "artworkNft",
                  "type": "string"
                }
              ],
              "internalType": "struct IOnChainMetadata.Artwork",
              "name": "visualizer",
              "type": "tuple"
            }
          ],
          "internalType": "struct IOnChainMetadata.SongContent",
          "name": "song",
          "type": "tuple"
        },
        {
          "components": [
            {
              "internalType": "string",
              "name": "title",
              "type": "string"
            },
            {
              "internalType": "string",
              "name": "description",
              "type": "string"
            },
            {
              "internalType": "string",
              "name": "recordLabel",
              "type": "string"
            },
            {
              "internalType": "string",
              "name": "publisher",
              "type": "string"
            },
            {
              "internalType": "string",
              "name": "locationCreated",
              "type": "string"
            },
            {
              "internalType": "string",
              "name": "releaseDate",
              "type": "string"
            }
          ],
          "internalType": "struct IOnChainMetadata.PublishingData",
          "name": "songPublishingData",
          "type": "tuple"
        }
      ],
      "stateMutability": "view",
      "type": "function"
    },
    {
      "inputs": [
        {
          "internalType": "uint256",
          "name": "tokenId",
          "type": "uint256"
        }
      ],
      "name": "tokenURI",
      "outputs": [
        {
          "internalType": "string",
          "name": "",
          "type": "string"
        }
      ],
      "stateMutability": "view",
      "type": "function"
    },
    {
      "inputs": [
        {
          "internalType": "uint256",
          "name": "tokenId",
          "type": "uint256"
        },
        {
          "internalType": "address",
          "name": "target",
          "type": "address"
        }
      ],
      "name": "tokenURITarget",
      "outputs": [
        {
          "internalType": "string",
          "name": "",
          "type": "string"
        }
      ],
      "stateMutability": "view",
      "type": "function"
    },
    {
      "inputs": [
        {
          "internalType": "address",
          "name": "target",
          "type": "address"
        },
        {
          "components": [
            {
              "internalType": "string",
              "name": "name",
              "type": "string"
            },
            {
              "internalType": "string",
              "name": "collaboratorType",
              "type": "string"
            }
          ],
          "internalType": "struct IOnChainMetadata.Credit[]",
          "name": "_credits",
          "type": "tuple[]"
        }
      ],
      "name": "updateCredits",
      "outputs": [],
      "stateMutability": "nonpayable",
      "type": "function"
    },
    {
      "inputs": [
        {
          "internalType": "address",
          "name": "target",
          "type": "address"
        },
        {
          "internalType": "string",
          "name": "newDescription",
          "type": "string"
        }
      ],
      "name": "updateDescription",
      "outputs": [],
      "stateMutability": "nonpayable",
      "type": "function"
    },
    {
      "inputs": [
        {
          "internalType": "address",
          "name": "target",
          "type": "address"
        },
        {
          "internalType": "string",
          "name": "imageURI",
          "type": "string"
        },
        {
          "internalType": "string",
          "name": "animationURI",
          "type": "string"
        }
      ],
      "name": "updateMediaURIs",
      "outputs": [],
      "stateMutability": "nonpayable",
      "type": "function"
    },
    {
      "inputs": [
        {
          "internalType": "address",
          "name": "target",
          "type": "address"
        },
        {
          "internalType": "string[]",
          "name": "tags",
          "type": "string[]"
        }
      ],
      "name": "updateTags",
      "outputs": [],
      "stateMutability": "nonpayable",
      "type": "function"
    }
  ],
  "bytecode": "0x60a06040523480156200001157600080fd5b50604051620056e1380380620056e18339818101604052810190620000379190620000f0565b8073ffffffffffffffffffffffffffffffffffffffff1660808173ffffffffffffffffffffffffffffffffffffffff16815250505062000122565b600080fd5b600073ffffffffffffffffffffffffffffffffffffffff82169050919050565b6000620000a48262000077565b9050919050565b6000620000b88262000097565b9050919050565b620000ca81620000ab565b8114620000d657600080fd5b50565b600081519050620000ea81620000bf565b92915050565b60006020828403121562000109576200010862000072565b5b60006200011984828501620000d9565b91505092915050565b60805161559c620001456000396000818161164f0152612a76015261559c6000f3fe608060405234801561001057600080fd5b50600436106100a95760003560e01c8063afb5b68411610071578063afb5b68414610151578063b80adf251461016d578063c87b56dd1461019d578063d1fe4b3d146101cd578063d5159df7146101e9578063e8a3d4851461021a576100a9565b80631821cdde146100ae5780632f17b8f0146100ca578063856a7ffa146100e65780638bbb2cf214610102578063af9bb7971461011e575b600080fd5b6100c860048036038101906100c39190613899565b610238565b005b6100e460048036038101906100df9190613987565b61088f565b005b61010060048036038101906100fb9190613ab3565b610abc565b005b61011c60048036038101906101179190613afc565b610c44565b005b61013860048036038101906101339190613b58565b610e0f565b6040516101489493929190613d61565b60405180910390f35b61016b60048036038101906101669190613dc2565b611485565b005b61018760048036038101906101829190613e1e565b61164b565b6040516101949190613e5e565b60405180910390f35b6101b760048036038101906101b29190613e80565b611886565b6040516101c49190613e5e565b60405180910390f35b6101e760048036038101906101e29190613ead565b61189f565b005b61020360048036038101906101fe9190613b58565b611c26565b6040516102119291906141cd565b60405180910390f35b610222612994565b60405161022f9190613e5e565b60405180910390f35b853373ffffffffffffffffffffffffffffffffffffffff168173ffffffffffffffffffffffffffffffffffffffff161415801561031e57503373ffffffffffffffffffffffffffffffffffffffff168173ffffffffffffffffffffffffffffffffffffffff16638da5cb5b6040518163ffffffff1660e01b815260040160206040518083038186803b1580156102cd57600080fd5b505afa1580156102e1573d6000803e3d6000fd5b505050506040513d601f19601f820116820180604052508101906103059190614219565b73ffffffffffffffffffffffffffffffffffffffff1614155b15610355576040517f02bd6bd100000000000000000000000000000000000000000000000000000000815260040160405180910390fd5b856000808973ffffffffffffffffffffffffffffffffffffffff1673ffffffffffffffffffffffffffffffffffffffff16815260200190815260200160002060008201518160000160008201518160000160008201518160000190805190602001906103c2929190612bd2565b5060208201518160010160008201518160000190805190602001906103e8929190612bd2565b50602082015181600101600082015181600001908051906020019061040e929190612bd2565b506020820151816001015560408201518160020155606082015181600301908051906020019061043f929190612bd2565b506080820151816004015550506040820151816006016000820151816000019080519060200190610471929190612bd2565b50602082015181600101908051906020019061048e929190612bd2565b5060408201518160020190805190602001906104ab929190612bd2565b5060608201518160030190805190602001906104c8929190612bd2565b5050505050604082015181600b0160008201518160000190805190602001906104f2929190612bd2565b50602082015181600101908051906020019061050f929190612bd2565b5050505050602082015181600d016000820151816000019080519060200190610539929190612bd2565b506020820151816001019080519060200190610556929190612bd2565b506040820151816002019080519060200190610573929190612bd2565b505050604082015181601001600082015181600001908051906020019061059b929190612bd2565b5060208201518160010190805190602001906105b8929190612bd2565b5060408201518160020190805190602001906105d5929190612bd2565b505050505060208201518160130160008201518160000190805190602001906105ff929190612bd2565b50602082015181600101908051906020019061061c929190612bd2565b506040820151816002019080519060200190610639929190612bd2565b506060820151816003019080519060200190610656929190612bd2565b506080820151816004019080519060200190610673929190612bd2565b5060a0820151816005019080519060200190610690929190612bd2565b50505090505084600160008973ffffffffffffffffffffffffffffffffffffffff1673ffffffffffffffffffffffffffffffffffffffff16815260200190815260200160002060008201518160000160008201518160000190805190602001906106fb929190612bd2565b506020820151816001019080519060200190610718929190612bd2565b506040820151816002019080519060200190610735929190612bd2565b506060820151816003019080519060200190610752929190612bd2565b50608082015181600401908051906020019061076f929190612bd2565b5060a082015181600501908051906020019061078c929190612bd2565b50505060208201518160060160008201518160000190805190602001906107b4929190612bd2565b5060208201518160010190805190602001906107d1929190612bd2565b5060408201518160020190805190602001906107ee929190612bd2565b505050604082015181600901908051906020019061080d929190612bd2565b50606082015181600a01908051906020019061082a929190612bd2565b509050506108388785611485565b61084387848461189f565b7fd8dc0881ec840ecce080f25893fc6ed26eb14e3cb10bdf02b5536bff243a1efa8733888888888860405161087e97969594939291906146ac565b60405180910390a150505050505050565b823373ffffffffffffffffffffffffffffffffffffffff168173ffffffffffffffffffffffffffffffffffffffff161415801561097557503373ffffffffffffffffffffffffffffffffffffffff168173ffffffffffffffffffffffffffffffffffffffff16638da5cb5b6040518163ffffffff1660e01b815260040160206040518083038186803b15801561092457600080fd5b505afa158015610938573d6000803e3d6000fd5b505050506040513d601f19601f8201168201806040525081019061095c9190614219565b73ffffffffffffffffffffffffffffffffffffffff1614155b156109ac576040517f02bd6bd100000000000000000000000000000000000000000000000000000000815260040160405180910390fd5b826000808673ffffffffffffffffffffffffffffffffffffffff1673ffffffffffffffffffffffffffffffffffffffff168152602001908152602001600020600001600d016000019080519060200190610a07929190612bd2565b50816000808673ffffffffffffffffffffffffffffffffffffffff1673ffffffffffffffffffffffffffffffffffffffff1681526020019081526020016000206000016000016000019080519060200190610a63929190612bd2565b508373ffffffffffffffffffffffffffffffffffffffff167fc4c1b9223fcebe5f35b9030d3df655018c40e88d70b8a3c63ed851c5d972210f338585604051610aae9392919061472b565b60405180910390a250505050565b600080600083806020019051810190610ad591906147e0565b925092509250826000803373ffffffffffffffffffffffffffffffffffffffff1673ffffffffffffffffffffffffffffffffffffffff1681526020019081526020016000206013016001019080519060200190610b33929190612bd2565b50806000803373ffffffffffffffffffffffffffffffffffffffff1673ffffffffffffffffffffffffffffffffffffffff1681526020019081526020016000206000016000016000019080519060200190610b8f929190612bd2565b50816000803373ffffffffffffffffffffffffffffffffffffffff1673ffffffffffffffffffffffffffffffffffffffff168152602001908152602001600020600001600d016000019080519060200190610beb929190612bd2565b503373ffffffffffffffffffffffffffffffffffffffff167ff889a5cdc62274389379cbfade0f225b1d30b7395177fd6aeaab61662b1c6edf848484604051610c3693929190614887565b60405180910390a250505050565b813373ffffffffffffffffffffffffffffffffffffffff168173ffffffffffffffffffffffffffffffffffffffff1614158015610d2a57503373ffffffffffffffffffffffffffffffffffffffff168173ffffffffffffffffffffffffffffffffffffffff16638da5cb5b6040518163ffffffff1660e01b815260040160206040518083038186803b158015610cd957600080fd5b505afa158015610ced573d6000803e3d6000fd5b505050506040513d601f19601f82011682018060405250810190610d119190614219565b73ffffffffffffffffffffffffffffffffffffffff1614155b15610d61576040517f02bd6bd100000000000000000000000000000000000000000000000000000000815260040160405180910390fd5b816000808573ffffffffffffffffffffffffffffffffffffffff1673ffffffffffffffffffffffffffffffffffffffff1681526020019081526020016000206013016001019080519060200190610db9929190612bd2565b508273ffffffffffffffffffffffffffffffffffffffff167f36195b44a3184513e02477929207751ea9d67026b917ed74d374a7f9e8c5e4d13384604051610e029291906148d3565b60405180910390a2505050565b6001602052806000526040600020600091509050806000016040518060c0016040529081600082018054610e4290614932565b80601f0160208091040260200160405190810160405280929190818152602001828054610e6e90614932565b8015610ebb5780601f10610e9057610100808354040283529160200191610ebb565b820191906000526020600020905b815481529060010190602001808311610e9e57829003601f168201915b50505050508152602001600182018054610ed490614932565b80601f0160208091040260200160405190810160405280929190818152602001828054610f0090614932565b8015610f4d5780601f10610f2257610100808354040283529160200191610f4d565b820191906000526020600020905b815481529060010190602001808311610f3057829003601f168201915b50505050508152602001600282018054610f6690614932565b80601f0160208091040260200160405190810160405280929190818152602001828054610f9290614932565b8015610fdf5780601f10610fb457610100808354040283529160200191610fdf565b820191906000526020600020905b815481529060010190602001808311610fc257829003601f168201915b50505050508152602001600382018054610ff890614932565b80601f016020809104026020016040519081016040528092919081815260200182805461102490614932565b80156110715780601f1061104657610100808354040283529160200191611071565b820191906000526020600020905b81548152906001019060200180831161105457829003601f168201915b5050505050815260200160048201805461108a90614932565b80601f01602080910402602001604051908101604052809291908181526020018280546110b690614932565b80156111035780601f106110d857610100808354040283529160200191611103565b820191906000526020600020905b8154815290600101906020018083116110e657829003601f168201915b5050505050815260200160058201805461111c90614932565b80601f016020809104026020016040519081016040528092919081815260200182805461114890614932565b80156111955780601f1061116a57610100808354040283529160200191611195565b820191906000526020600020905b81548152906001019060200180831161117857829003601f168201915b50505050508152505090806006016040518060600160405290816000820180546111be90614932565b80601f01602080910402602001604051908101604052809291908181526020018280546111ea90614932565b80156112375780601f1061120c57610100808354040283529160200191611237565b820191906000526020600020905b81548152906001019060200180831161121a57829003601f168201915b5050505050815260200160018201805461125090614932565b80601f016020809104026020016040519081016040528092919081815260200182805461127c90614932565b80156112c95780601f1061129e576101008083540402835291602001916112c9565b820191906000526020600020905b8154815290600101906020018083116112ac57829003601f168201915b505050505081526020016002820180546112e290614932565b80601f016020809104026020016040519081016040528092919081815260200182805461130e90614932565b801561135b5780601f106113305761010080835404028352916020019161135b565b820191906000526020600020905b81548152906001019060200180831161133e57829003601f168201915b5050505050815250509080600901805461137490614932565b80601f01602080910402602001604051908101604052809291908181526020018280546113a090614932565b80156113ed5780601f106113c2576101008083540402835291602001916113ed565b820191906000526020600020905b8154815290600101906020018083116113d057829003601f168201915b50505050509080600a01805461140290614932565b80601f016020809104026020016040519081016040528092919081815260200182805461142e90614932565b801561147b5780601f106114505761010080835404028352916020019161147b565b820191906000526020600020905b81548152906001019060200180831161145e57829003601f168201915b5050505050905084565b813373ffffffffffffffffffffffffffffffffffffffff168173ffffffffffffffffffffffffffffffffffffffff161415801561156b57503373ffffffffffffffffffffffffffffffffffffffff168173ffffffffffffffffffffffffffffffffffffffff16638da5cb5b6040518163ffffffff1660e01b815260040160206040518083038186803b15801561151a57600080fd5b505afa15801561152e573d6000803e3d6000fd5b505050506040513d601f19601f820116820180604052508101906115529190614219565b73ffffffffffffffffffffffffffffffffffffffff1614155b156115a2576040517f02bd6bd100000000000000000000000000000000000000000000000000000000815260040160405180910390fd5b81600260008573ffffffffffffffffffffffffffffffffffffffff1673ffffffffffffffffffffffffffffffffffffffff16815260200190815260200160002090805190602001906115f5929190612c58565b508273ffffffffffffffffffffffffffffffffffffffff167f70deccfc75f688d1fad2a661e4818b3a9939f15bd374bb3b28c5d8b013446b72338460405161163e929190614964565b60405180910390a2505050565b60607f000000000000000000000000000000000000000000000000000000000000000073ffffffffffffffffffffffffffffffffffffffff16630464320b8373ffffffffffffffffffffffffffffffffffffffff166306fdde036040518163ffffffff1660e01b815260040160006040518083038186803b1580156116cf57600080fd5b505afa1580156116e3573d6000803e3d6000fd5b505050506040513d6000823e3d601f19601f8201168201806040525081019061170c9190614994565b856000808773ffffffffffffffffffffffffffffffffffffffff1673ffffffffffffffffffffffffffffffffffffffff168152602001908152602001600020600160008873ffffffffffffffffffffffffffffffffffffffff1673ffffffffffffffffffffffffffffffffffffffff168152602001908152602001600020600360008973ffffffffffffffffffffffffffffffffffffffff1673ffffffffffffffffffffffffffffffffffffffff168152602001908152602001600020600260008a73ffffffffffffffffffffffffffffffffffffffff1673ffffffffffffffffffffffffffffffffffffffff1681526020019081526020016000206040518763ffffffff1660e01b81526004016118299695949392919061508e565b60006040518083038186803b15801561184157600080fd5b505afa158015611855573d6000803e3d6000fd5b505050506040513d6000823e3d601f19601f8201168201806040525081019061187e9190614994565b905092915050565b60606000339050611897838261164b565b915050919050565b823373ffffffffffffffffffffffffffffffffffffffff168173ffffffffffffffffffffffffffffffffffffffff161415801561198557503373ffffffffffffffffffffffffffffffffffffffff168173ffffffffffffffffffffffffffffffffffffffff16638da5cb5b6040518163ffffffff1660e01b815260040160206040518083038186803b15801561193457600080fd5b505afa158015611948573d6000803e3d6000fd5b505050506040513d601f19601f8201168201806040525081019061196c9190614219565b73ffffffffffffffffffffffffffffffffffffffff1614155b156119bc576040517f02bd6bd100000000000000000000000000000000000000000000000000000000815260040160405180910390fd5b600360008573ffffffffffffffffffffffffffffffffffffffff1673ffffffffffffffffffffffffffffffffffffffff1681526020019081526020016000206000611a079190612cb8565b60005b83839050811015611bcd57600360008673ffffffffffffffffffffffffffffffffffffffff1673ffffffffffffffffffffffffffffffffffffffff1681526020019081526020016000206040518060400160405280868685818110611a7257611a71615112565b5b9050602002810190611a849190615150565b8060000190611a939190615178565b8080601f016020809104026020016040519081016040528093929190818152602001838380828437600081840152601f19601f820116905080830192505050505050508152602001868685818110611aee57611aed615112565b5b9050602002810190611b009190615150565b8060200190611b0f9190615178565b8080601f016020809104026020016040519081016040528093929190818152602001838380828437600081840152601f19601f8201169050808301925050505050505081525090806001815401808255809150506001900390600052602060002090600202016000909190919091506000820151816000019080519060200190611b9a929190612bd2565b506020820151816001019080519060200190611bb7929190612bd2565b5050508080611bc59061520a565b915050611a0a565b508373ffffffffffffffffffffffffffffffffffffffff167f96e9933dcda4e1f454ca4daf8783c1a245e683873ee5c52bf9df39e5bebb9715338585604051611c1893929190615253565b60405180910390a250505050565b60006020528060005260406000206000915090508060000160405180606001604052908160008201604051806060016040529081600082018054611c6990614932565b80601f0160208091040260200160405190810160405280929190818152602001828054611c9590614932565b8015611ce25780601f10611cb757610100808354040283529160200191611ce2565b820191906000526020600020905b815481529060010190602001808311611cc557829003601f168201915b5050505050815260200160018201604051806060016040529081600082018054611d0b90614932565b80601f0160208091040260200160405190810160405280929190818152602001828054611d3790614932565b8015611d845780601f10611d5957610100808354040283529160200191611d84565b820191906000526020600020905b815481529060010190602001808311611d6757829003601f168201915b50505050508152602001600182016040518060a0016040529081600082018054611dad90614932565b80601f0160208091040260200160405190810160405280929190818152602001828054611dd990614932565b8015611e265780601f10611dfb57610100808354040283529160200191611e26565b820191906000526020600020905b815481529060010190602001808311611e0957829003601f168201915b505050505081526020016001820154815260200160028201548152602001600382018054611e5390614932565b80601f0160208091040260200160405190810160405280929190818152602001828054611e7f90614932565b8015611ecc5780601f10611ea157610100808354040283529160200191611ecc565b820191906000526020600020905b815481529060010190602001808311611eaf57829003601f168201915b50505050508152602001600482015481525050815260200160068201604051806080016040529081600082018054611f0390614932565b80601f0160208091040260200160405190810160405280929190818152602001828054611f2f90614932565b8015611f7c5780601f10611f5157610100808354040283529160200191611f7c565b820191906000526020600020905b815481529060010190602001808311611f5f57829003601f168201915b50505050508152602001600182018054611f9590614932565b80601f0160208091040260200160405190810160405280929190818152602001828054611fc190614932565b801561200e5780601f10611fe35761010080835404028352916020019161200e565b820191906000526020600020905b815481529060010190602001808311611ff157829003601f168201915b5050505050815260200160028201805461202790614932565b80601f016020809104026020016040519081016040528092919081815260200182805461205390614932565b80156120a05780601f10612075576101008083540402835291602001916120a0565b820191906000526020600020905b81548152906001019060200180831161208357829003601f168201915b505050505081526020016003820180546120b990614932565b80601f01602080910402602001604051908101604052809291908181526020018280546120e590614932565b80156121325780601f1061210757610100808354040283529160200191612132565b820191906000526020600020905b81548152906001019060200180831161211557829003601f168201915b505050505081525050815250508152602001600b820160405180604001604052908160008201805461216390614932565b80601f016020809104026020016040519081016040528092919081815260200182805461218f90614932565b80156121dc5780601f106121b1576101008083540402835291602001916121dc565b820191906000526020600020905b8154815290600101906020018083116121bf57829003601f168201915b505050505081526020016001820180546121f590614932565b80601f016020809104026020016040519081016040528092919081815260200182805461222190614932565b801561226e5780601f106122435761010080835404028352916020019161226e565b820191906000526020600020905b81548152906001019060200180831161225157829003601f168201915b505050505081525050815250508152602001600d820160405180606001604052908160008201805461229f90614932565b80601f01602080910402602001604051908101604052809291908181526020018280546122cb90614932565b80156123185780601f106122ed57610100808354040283529160200191612318565b820191906000526020600020905b8154815290600101906020018083116122fb57829003601f168201915b5050505050815260200160018201805461233190614932565b80601f016020809104026020016040519081016040528092919081815260200182805461235d90614932565b80156123aa5780601f1061237f576101008083540402835291602001916123aa565b820191906000526020600020905b81548152906001019060200180831161238d57829003601f168201915b505050505081526020016002820180546123c390614932565b80601f01602080910402602001604051908101604052809291908181526020018280546123ef90614932565b801561243c5780601f106124115761010080835404028352916020019161243c565b820191906000526020600020905b81548152906001019060200180831161241f57829003601f168201915b50505050508152505081526020016010820160405180606001604052908160008201805461246990614932565b80601f016020809104026020016040519081016040528092919081815260200182805461249590614932565b80156124e25780601f106124b7576101008083540402835291602001916124e2565b820191906000526020600020905b8154815290600101906020018083116124c557829003601f168201915b505050505081526020016001820180546124fb90614932565b80601f016020809104026020016040519081016040528092919081815260200182805461252790614932565b80156125745780601f1061254957610100808354040283529160200191612574565b820191906000526020600020905b81548152906001019060200180831161255757829003601f168201915b5050505050815260200160028201805461258d90614932565b80601f01602080910402602001604051908101604052809291908181526020018280546125b990614932565b80156126065780601f106125db57610100808354040283529160200191612606565b820191906000526020600020905b8154815290600101906020018083116125e957829003601f168201915b5050505050815250508152505090806013016040518060c001604052908160008201805461263390614932565b80601f016020809104026020016040519081016040528092919081815260200182805461265f90614932565b80156126ac5780601f10612681576101008083540402835291602001916126ac565b820191906000526020600020905b81548152906001019060200180831161268f57829003601f168201915b505050505081526020016001820180546126c590614932565b80601f01602080910402602001604051908101604052809291908181526020018280546126f190614932565b801561273e5780601f106127135761010080835404028352916020019161273e565b820191906000526020600020905b81548152906001019060200180831161272157829003601f168201915b5050505050815260200160028201805461275790614932565b80601f016020809104026020016040519081016040528092919081815260200182805461278390614932565b80156127d05780601f106127a5576101008083540402835291602001916127d0565b820191906000526020600020905b8154815290600101906020018083116127b357829003601f168201915b505050505081526020016003820180546127e990614932565b80601f016020809104026020016040519081016040528092919081815260200182805461281590614932565b80156128625780601f1061283757610100808354040283529160200191612862565b820191906000526020600020905b81548152906001019060200180831161284557829003601f168201915b5050505050815260200160048201805461287b90614932565b80601f01602080910402602001604051908101604052809291908181526020018280546128a790614932565b80156128f45780601f106128c9576101008083540402835291602001916128f4565b820191906000526020600020905b8154815290600101906020018083116128d757829003601f168201915b5050505050815260200160058201805461290d90614932565b80601f016020809104026020016040519081016040528092919081815260200182805461293990614932565b80156129865780601f1061295b57610100808354040283529160200191612986565b820191906000526020600020905b81548152906001019060200180831161296957829003601f168201915b505050505081525050905082565b60606000339050600060405180602001604052806000815250905060008060008473ffffffffffffffffffffffffffffffffffffffff1673ffffffffffffffffffffffffffffffffffffffff168152602001908152602001600020600001600d016000018054612a0390614932565b90501115612a74576000808373ffffffffffffffffffffffffffffffffffffffff1673ffffffffffffffffffffffffffffffffffffffff168152602001908152602001600020600001600d01600001604051602001612a62919061535b565b60405160208183030381529060405290505b7f000000000000000000000000000000000000000000000000000000000000000073ffffffffffffffffffffffffffffffffffffffff1663d01fde8c6000808573ffffffffffffffffffffffffffffffffffffffff1673ffffffffffffffffffffffffffffffffffffffff1681526020019081526020016000206013016000016000808673ffffffffffffffffffffffffffffffffffffffff1673ffffffffffffffffffffffffffffffffffffffff16815260200190815260200160002060130160010184604051602001612b4b939291906154a8565b6040516020818303038152906040526040518263ffffffff1660e01b8152600401612b769190615544565b60006040518083038186803b158015612b8e57600080fd5b505afa158015612ba2573d6000803e3d6000fd5b505050506040513d6000823e3d601f19601f82011682018060405250810190612bcb9190614994565b9250505090565b828054612bde90614932565b90600052602060002090601f016020900481019282612c005760008555612c47565b82601f10612c1957805160ff1916838001178555612c47565b82800160010185558215612c47579182015b82811115612c46578251825591602001919060010190612c2b565b5b509050612c549190612cdc565b5090565b828054828255906000526020600020908101928215612ca7579160200282015b82811115612ca6578251829080519060200190612c96929190612bd2565b5091602001919060010190612c78565b5b509050612cb49190612cf9565b5090565b5080546000825560020290600052602060002090810190612cd99190612d1d565b50565b5b80821115612cf5576000816000905550600101612cdd565b5090565b5b80821115612d195760008181612d109190612d54565b50600101612cfa565b5090565b5b80821115612d505760008082016000612d379190612d54565b600182016000612d479190612d54565b50600201612d1e565b5090565b508054612d6090614932565b6000825580601f10612d725750612d91565b601f016020900490600052602060002090810190612d909190612cdc565b5b50565b6000604051905090565b600080fd5b600080fd5b600073ffffffffffffffffffffffffffffffffffffffff82169050919050565b6000612dd382612da8565b9050919050565b612de381612dc8565b8114612dee57600080fd5b50565b600081359050612e0081612dda565b92915050565b600080fd5b6000601f19601f8301169050919050565b7f4e487b7100000000000000000000000000000000000000000000000000000000600052604160045260246000fd5b612e5482612e0b565b810181811067ffffffffffffffff82111715612e7357612e72612e1c565b5b80604052505050565b6000612e86612d94565b9050612e928282612e4b565b919050565b600080fd5b600080fd5b600080fd5b600067ffffffffffffffff821115612ec157612ec0612e1c565b5b612eca82612e0b565b9050602081019050919050565b82818337600083830152505050565b6000612ef9612ef484612ea6565b612e7c565b905082815260208101848484011115612f1557612f14612ea1565b5b612f20848285612ed7565b509392505050565b600082601f830112612f3d57612f3c612e9c565b5b8135612f4d848260208601612ee6565b91505092915050565b6000819050919050565b612f6981612f56565b8114612f7457600080fd5b50565b600081359050612f8681612f60565b92915050565b600060a08284031215612fa257612fa1612e06565b5b612fac60a0612e7c565b9050600082013567ffffffffffffffff811115612fcc57612fcb612e97565b5b612fd884828501612f28565b6000830152506020612fec84828501612f77565b602083015250604061300084828501612f77565b604083015250606082013567ffffffffffffffff81111561302457613023612e97565b5b61303084828501612f28565b606083015250608061304484828501612f77565b60808301525092915050565b60006080828403121561306657613065612e06565b5b6130706080612e7c565b9050600082013567ffffffffffffffff8111156130905761308f612e97565b5b61309c84828501612f28565b600083015250602082013567ffffffffffffffff8111156130c0576130bf612e97565b5b6130cc84828501612f28565b602083015250604082013567ffffffffffffffff8111156130f0576130ef612e97565b5b6130fc84828501612f28565b604083015250606082013567ffffffffffffffff8111156131205761311f612e97565b5b61312c84828501612f28565b60608301525092915050565b60006060828403121561314e5761314d612e06565b5b6131586060612e7c565b9050600082013567ffffffffffffffff81111561317857613177612e97565b5b61318484828501612f28565b600083015250602082013567ffffffffffffffff8111156131a8576131a7612e97565b5b6131b484828501612f8c565b602083015250604082013567ffffffffffffffff8111156131d8576131d7612e97565b5b6131e484828501613050565b60408301525092915050565b60006040828403121561320657613205612e06565b5b6132106040612e7c565b9050600082013567ffffffffffffffff8111156132305761322f612e97565b5b61323c84828501612f28565b600083015250602082013567ffffffffffffffff8111156132605761325f612e97565b5b61326c84828501612f28565b60208301525092915050565b60006060828403121561328e5761328d612e06565b5b6132986060612e7c565b9050600082013567ffffffffffffffff8111156132b8576132b7612e97565b5b6132c484828501612f28565b600083015250602082013567ffffffffffffffff8111156132e8576132e7612e97565b5b6132f484828501613138565b602083015250604082013567ffffffffffffffff81111561331857613317612e97565b5b613324848285016131f0565b60408301525092915050565b60006060828403121561334657613345612e06565b5b6133506060612e7c565b9050600082013567ffffffffffffffff8111156133705761336f612e97565b5b61337c84828501612f28565b600083015250602082013567ffffffffffffffff8111156133a05761339f612e97565b5b6133ac84828501612f28565b602083015250604082013567ffffffffffffffff8111156133d0576133cf612e97565b5b6133dc84828501612f28565b60408301525092915050565b6000606082840312156133fe576133fd612e06565b5b6134086060612e7c565b9050600082013567ffffffffffffffff81111561342857613427612e97565b5b61343484828501613278565b600083015250602082013567ffffffffffffffff81111561345857613457612e97565b5b61346484828501613330565b602083015250604082013567ffffffffffffffff81111561348857613487612e97565b5b61349484828501613330565b60408301525092915050565b600060c082840312156134b6576134b5612e06565b5b6134c060c0612e7c565b9050600082013567ffffffffffffffff8111156134e0576134df612e97565b5b6134ec84828501612f28565b600083015250602082013567ffffffffffffffff8111156135105761350f612e97565b5b61351c84828501612f28565b602083015250604082013567ffffffffffffffff8111156135405761353f612e97565b5b61354c84828501612f28565b604083015250606082013567ffffffffffffffff8111156135705761356f612e97565b5b61357c84828501612f28565b606083015250608082013567ffffffffffffffff8111156135a05761359f612e97565b5b6135ac84828501612f28565b60808301525060a082013567ffffffffffffffff8111156135d0576135cf612e97565b5b6135dc84828501612f28565b60a08301525092915050565b6000604082840312156135fe576135fd612e06565b5b6136086040612e7c565b9050600082013567ffffffffffffffff81111561362857613627612e97565b5b613634848285016133e8565b600083015250602082013567ffffffffffffffff81111561365857613657612e97565b5b613664848285016134a0565b60208301525092915050565b60006080828403121561368657613685612e06565b5b6136906080612e7c565b9050600082013567ffffffffffffffff8111156136b0576136af612e97565b5b6136bc848285016134a0565b600083015250602082013567ffffffffffffffff8111156136e0576136df612e97565b5b6136ec84828501613330565b602083015250604082013567ffffffffffffffff8111156137105761370f612e97565b5b61371c84828501612f28565b604083015250606082013567ffffffffffffffff8111156137405761373f612e97565b5b61374c84828501612f28565b60608301525092915050565b600067ffffffffffffffff82111561377357613772612e1c565b5b602082029050602081019050919050565b600080fd5b600061379c61379784613758565b612e7c565b905080838252602082019050602084028301858111156137bf576137be613784565b5b835b8181101561380657803567ffffffffffffffff8111156137e4576137e3612e9c565b5b8086016137f18982612f28565b855260208501945050506020810190506137c1565b5050509392505050565b600082601f83011261382557613824612e9c565b5b8135613835848260208601613789565b91505092915050565b600080fd5b60008083601f84011261385957613858612e9c565b5b8235905067ffffffffffffffff8111156138765761387561383e565b5b60208301915083602082028301111561389257613891613784565b5b9250929050565b60008060008060008060a087890312156138b6576138b5612d9e565b5b60006138c489828a01612df1565b965050602087013567ffffffffffffffff8111156138e5576138e4612da3565b5b6138f189828a016135e8565b955050604087013567ffffffffffffffff81111561391257613911612da3565b5b61391e89828a01613670565b945050606087013567ffffffffffffffff81111561393f5761393e612da3565b5b61394b89828a01613810565b935050608087013567ffffffffffffffff81111561396c5761396b612da3565b5b61397889828a01613843565b92509250509295509295509295565b6000806000606084860312156139a05761399f612d9e565b5b60006139ae86828701612df1565b935050602084013567ffffffffffffffff8111156139cf576139ce612da3565b5b6139db86828701612f28565b925050604084013567ffffffffffffffff8111156139fc576139fb612da3565b5b613a0886828701612f28565b9150509250925092565b600067ffffffffffffffff821115613a2d57613a2c612e1c565b5b613a3682612e0b565b9050602081019050919050565b6000613a56613a5184613a12565b612e7c565b905082815260208101848484011115613a7257613a71612ea1565b5b613a7d848285612ed7565b509392505050565b600082601f830112613a9a57613a99612e9c565b5b8135613aaa848260208601613a43565b91505092915050565b600060208284031215613ac957613ac8612d9e565b5b600082013567ffffffffffffffff811115613ae757613ae6612da3565b5b613af384828501613a85565b91505092915050565b60008060408385031215613b1357613b12612d9e565b5b6000613b2185828601612df1565b925050602083013567ffffffffffffffff811115613b4257613b41612da3565b5b613b4e85828601612f28565b9150509250929050565b600060208284031215613b6e57613b6d612d9e565b5b6000613b7c84828501612df1565b91505092915050565b600081519050919050565b600082825260208201905092915050565b60005b83811015613bbf578082015181840152602081019050613ba4565b83811115613bce576000848401525b50505050565b6000613bdf82613b85565b613be98185613b90565b9350613bf9818560208601613ba1565b613c0281612e0b565b840191505092915050565b600060c0830160008301518482036000860152613c2a8282613bd4565b91505060208301518482036020860152613c448282613bd4565b91505060408301518482036040860152613c5e8282613bd4565b91505060608301518482036060860152613c788282613bd4565b91505060808301518482036080860152613c928282613bd4565b91505060a083015184820360a0860152613cac8282613bd4565b9150508091505092915050565b60006060830160008301518482036000860152613cd68282613bd4565b91505060208301518482036020860152613cf08282613bd4565b91505060408301518482036040860152613d0a8282613bd4565b9150508091505092915050565b600082825260208201905092915050565b6000613d3382613b85565b613d3d8185613d17565b9350613d4d818560208601613ba1565b613d5681612e0b565b840191505092915050565b60006080820190508181036000830152613d7b8187613c0d565b90508181036020830152613d8f8186613cb9565b90508181036040830152613da38185613d28565b90508181036060830152613db78184613d28565b905095945050505050565b60008060408385031215613dd957613dd8612d9e565b5b6000613de785828601612df1565b925050602083013567ffffffffffffffff811115613e0857613e07612da3565b5b613e1485828601613810565b9150509250929050565b60008060408385031215613e3557613e34612d9e565b5b6000613e4385828601612f77565b9250506020613e5485828601612df1565b9150509250929050565b60006020820190508181036000830152613e788184613d28565b905092915050565b600060208284031215613e9657613e95612d9e565b5b6000613ea484828501612f77565b91505092915050565b600080600060408486031215613ec657613ec5612d9e565b5b6000613ed486828701612df1565b935050602084013567ffffffffffffffff811115613ef557613ef4612da3565b5b613f0186828701613843565b92509250509250925092565b613f1681612f56565b82525050565b600060a0830160008301518482036000860152613f398282613bd4565b9150506020830151613f4e6020860182613f0d565b506040830151613f616040860182613f0d565b5060608301518482036060860152613f798282613bd4565b9150506080830151613f8e6080860182613f0d565b508091505092915050565b60006080830160008301518482036000860152613fb68282613bd4565b91505060208301518482036020860152613fd08282613bd4565b91505060408301518482036040860152613fea8282613bd4565b915050606083015184820360608601526140048282613bd4565b9150508091505092915050565b6000606083016000830151848203600086015261402e8282613bd4565b915050602083015184820360208601526140488282613f1c565b915050604083015184820360408601526140628282613f99565b9150508091505092915050565b6000604083016000830151848203600086015261408c8282613bd4565b915050602083015184820360208601526140a68282613bd4565b9150508091505092915050565b600060608301600083015184820360008601526140d08282613bd4565b915050602083015184820360208601526140ea8282614011565b91505060408301518482036040860152614104828261406f565b9150508091505092915050565b6000606083016000830151848203600086015261412e8282613bd4565b915050602083015184820360208601526141488282613bd4565b915050604083015184820360408601526141628282613bd4565b9150508091505092915050565b6000606083016000830151848203600086015261418c82826140b3565b915050602083015184820360208601526141a68282614111565b915050604083015184820360408601526141c08282614111565b9150508091505092915050565b600060408201905081810360008301526141e7818561416f565b905081810360208301526141fb8184613c0d565b90509392505050565b60008151905061421381612dda565b92915050565b60006020828403121561422f5761422e612d9e565b5b600061423d84828501614204565b91505092915050565b61424f81612dc8565b82525050565b6000606083016000830151848203600086015261427282826140b3565b9150506020830151848203602086015261428c8282614111565b915050604083015184820360408601526142a68282614111565b9150508091505092915050565b600060c08301600083015184820360008601526142d08282613bd4565b915050602083015184820360208601526142ea8282613bd4565b915050604083015184820360408601526143048282613bd4565b9150506060830151848203606086015261431e8282613bd4565b915050608083015184820360808601526143388282613bd4565b91505060a083015184820360a08601526143528282613bd4565b9150508091505092915050565b6000604083016000830151848203600086015261437c8282614255565b9150506020830151848203602086015261439682826142b3565b9150508091505092915050565b600060808301600083015184820360008601526143c082826142b3565b915050602083015184820360208601526143da8282614111565b915050604083015184820360408601526143f48282613bd4565b9150506060830151848203606086015261440e8282613bd4565b9150508091505092915050565b600081519050919050565b600082825260208201905092915050565b6000819050602082019050919050565b60006144538383613bd4565b905092915050565b6000602082019050919050565b60006144738261441b565b61447d8185614426565b93508360208202850161448f85614437565b8060005b858110156144cb57848403895281516144ac8582614447565b94506144b78361445b565b925060208a01995050600181019050614493565b50829750879550505050505092915050565b600082825260208201905092915050565b6000819050919050565b600080fd5b600080fd5b600080fd5b6000808335600160200384360303811261452457614523614502565b5b83810192508235915060208301925067ffffffffffffffff82111561454c5761454b6144f8565b5b600182023603841315614562576145616144fd565b5b509250929050565b60006145768385613b90565b9350614583838584612ed7565b61458c83612e0b565b840190509392505050565b6000604083016145aa6000840184614507565b85830360008701526145bd83828461456a565b925050506145ce6020840184614507565b85830360208701526145e183828461456a565b925050508091505092915050565b60006145fb8383614597565b905092915050565b60008235600160400383360303811261461f5761461e614502565b5b82810191505092915050565b6000602082019050919050565b600061464483856144dd565b935083602084028501614656846144ee565b8060005b8781101561469a5784840389526146718284614603565b61467b85826145ef565b94506146868361462b565b925060208a0199505060018101905061465a565b50829750879450505050509392505050565b600060c0820190506146c1600083018a614246565b6146ce6020830189614246565b81810360408301526146e0818861435f565b905081810360608301526146f481876143a3565b905081810360808301526147088186614468565b905081810360a083015261471d818486614638565b905098975050505050505050565b60006060820190506147406000830186614246565b81810360208301526147528185613d28565b905081810360408301526147668184613d28565b9050949350505050565b600061478361477e84612ea6565b612e7c565b90508281526020810184848401111561479f5761479e612ea1565b5b6147aa848285613ba1565b509392505050565b600082601f8301126147c7576147c6612e9c565b5b81516147d7848260208601614770565b91505092915050565b6000806000606084860312156147f9576147f8612d9e565b5b600084015167ffffffffffffffff81111561481757614816612da3565b5b614823868287016147b2565b935050602084015167ffffffffffffffff81111561484457614843612da3565b5b614850868287016147b2565b925050604084015167ffffffffffffffff81111561487157614870612da3565b5b61487d868287016147b2565b9150509250925092565b600060608201905081810360008301526148a18186613d28565b905081810360208301526148b58185613d28565b905081810360408301526148c98184613d28565b9050949350505050565b60006040820190506148e86000830185614246565b81810360208301526148fa8184613d28565b90509392505050565b7f4e487b7100000000000000000000000000000000000000000000000000000000600052602260045260246000fd5b6000600282049050600182168061494a57607f821691505b6020821081141561495e5761495d614903565b5b50919050565b60006040820190506149796000830185614246565b818103602083015261498b8184614468565b90509392505050565b6000602082840312156149aa576149a9612d9e565b5b600082015167ffffffffffffffff8111156149c8576149c7612da3565b5b6149d4848285016147b2565b91505092915050565b6149e681612f56565b82525050565b60008190508160005260206000209050919050565b60008154614a0e81614932565b614a188186613b90565b94506001821660008114614a335760018114614a4557614a78565b60ff1983168652602086019350614a78565b614a4e856149ec565b60005b83811015614a7057815481890152600182019150602081019050614a51565b808801955050505b50505092915050565b60008160001c9050919050565b6000819050919050565b6000614aab614aa683614a81565b614a8e565b9050919050565b600060a0830160008084018583036000870152614acf8382614a01565b92505060018401549050614ae281614a98565b614aef6020870182613f0d565b5060028401549050614b0081614a98565b614b0d6040870182613f0d565b50600384018583036060870152614b248382614a01565b92505060048401549050614b3781614a98565b614b446080870182613f0d565b50819250505092915050565b60006080830160008084018583036000870152614b6d8382614a01565b925050600184018583036020870152614b868382614a01565b925050600284018583036040870152614b9f8382614a01565b925050600384018583036060870152614bb88382614a01565b925050819250505092915050565b60006060830160008084018583036000870152614be38382614a01565b925050600184018583036020870152614bfc8382614ab2565b925050600684018583036040870152614c158382614b50565b925050819250505092915050565b60006040830160008084018583036000870152614c408382614a01565b925050600184018583036020870152614c598382614a01565b925050819250505092915050565b60006060830160008084018583036000870152614c848382614a01565b925050600184018583036020870152614c9d8382614bc6565b925050600b84018583036040870152614cb68382614c23565b925050819250505092915050565b60006060830160008084018583036000870152614ce18382614a01565b925050600184018583036020870152614cfa8382614a01565b925050600284018583036040870152614d138382614a01565b925050819250505092915050565b60006060830160008084018583036000870152614d3e8382614c67565b925050600d84018583036020870152614d578382614cc4565b925050601084018583036040870152614d708382614cc4565b925050819250505092915050565b600060c0830160008084018583036000870152614d9b8382614a01565b925050600184018583036020870152614db48382614a01565b925050600284018583036040870152614dcd8382614a01565b925050600384018583036060870152614de68382614a01565b925050600484018583036080870152614dff8382614a01565b9250506005840185830360a0870152614e188382614a01565b925050819250505092915050565b60006040830160008084018583036000870152614e438382614d21565b925050601384018583036020870152614e5c8382614d7e565b925050819250505092915050565b60006080830160008084018583036000870152614e878382614d7e565b925050600684018583036020870152614ea08382614cc4565b925050600984018583036040870152614eb98382614a01565b925050600a84018583036060870152614ed28382614a01565b925050819250505092915050565b600081549050919050565b60008190508160005260206000209050919050565b60006040830160008084018583036000870152614f1d8382614a01565b925050600184018583036020870152614f368382614a01565b925050819250505092915050565b6000614f508383614f00565b905092915050565b6000600282019050919050565b6000614f7082614ee0565b614f7a81856144dd565b935083602082028501614f8c85614eeb565b8060005b85811015614fc757848403895281614fa88582614f44565b9450614fb383614f58565b925060208a01995050600181019050614f90565b50829750879550505050505092915050565b600081549050919050565b60008190508160005260206000209050919050565b60006150058383614a01565b905092915050565b6000600182019050919050565b600061502582614fd9565b61502f8185614426565b93508360208202850161504185614fe4565b8060005b8581101561507c5784840389528161505d8582614ff9565b94506150688361500d565b925060208a01995050600181019050615045565b50829750879550505050505092915050565b600060c08201905081810360008301526150a88189613d28565b90506150b760208301886149dd565b81810360408301526150c98187614e26565b905081810360608301526150dd8186614e6a565b905081810360808301526150f18185614f65565b905081810360a0830152615105818461501a565b9050979650505050505050565b7f4e487b7100000000000000000000000000000000000000000000000000000000600052603260045260246000fd5b600080fd5b600080fd5b600080fd5b60008235600160400383360303811261516c5761516b615141565b5b80830191505092915050565b6000808335600160200384360303811261519557615194615141565b5b80840192508235915067ffffffffffffffff8211156151b7576151b6615146565b5b6020830192506001820236038313156151d3576151d261514b565b5b509250929050565b7f4e487b7100000000000000000000000000000000000000000000000000000000600052601160045260246000fd5b600061521582612f56565b91507fffffffffffffffffffffffffffffffffffffffffffffffffffffffffffffffff821415615248576152476151db565b5b600182019050919050565b60006040820190506152686000830186614246565b818103602083015261527b818486614638565b9050949350505050565b600081905092915050565b7f222c2022696d616765223a202200000000000000000000000000000000000000600082015250565b60006152c6600d83615285565b91506152d182615290565b600d82019050919050565b600081546152e981614932565b6152f38186615285565b9450600182166000811461530e576001811461531f57615352565b60ff19831686528186019350615352565b615328856149ec565b60005b8381101561534a5781548189015260018201915060208101905061532b565b838801955050505b50505092915050565b6000615366826152b9565b915061537282846152dc565b915081905092915050565b7f7b226e616d65223a202200000000000000000000000000000000000000000000600082015250565b60006153b3600a83615285565b91506153be8261537d565b600a82019050919050565b7f222c20226465736372697074696f6e223a202200000000000000000000000000600082015250565b60006153ff601383615285565b915061540a826153c9565b601382019050919050565b600081519050919050565b600081905092915050565b600061543682615415565b6154408185615420565b9350615450818560208601613ba1565b80840191505092915050565b7f227d000000000000000000000000000000000000000000000000000000000000600082015250565b6000615492600283615285565b915061549d8261545c565b600282019050919050565b60006154b3826153a6565b91506154bf82866152dc565b91506154ca826153f2565b91506154d682856152dc565b91506154e2828461542b565b91506154ed82615485565b9150819050949350505050565b600082825260208201905092915050565b600061551682615415565b61552081856154fa565b9350615530818560208601613ba1565b61553981612e0b565b840191505092915050565b6000602082019050818103600083015261555e818461550b565b90509291505056fea2646970667358221220aa6d9038bb21d600863e215eeae4e884e0fa3434f9c8c3b9b470b7c59bbdd9ef64736f6c63430008090033",
  "linkReferences": {},
  "deployedLinkReferences": {}
}