{
  "_format": "hh-sol-artifact-1",
  "contractName": "DCNT4907A",
  "sourceName": "contracts/DCNT4907A.sol",
  "abi": [
    {
      "inputs": [],
      "name": "ApprovalCallerNotOwnerNorApproved",
      "type": "error"
    },
    {
      "inputs": [],
      "name": "ApprovalQueryForNonexistentToken",
      "type": "error"
    },
    {
      "inputs": [],
      "name": "ApproveToCaller",
      "type": "error"
    },
    {
      "inputs": [],
      "name": "BalanceQueryForZeroAddress",
      "type": "error"
    },
    {
      "inputs": [],
      "name": "MintERC2309QuantityExceedsLimit",
      "type": "error"
    },
    {
      "inputs": [],
      "name": "MintToZeroAddress",
      "type": "error"
    },
    {
      "inputs": [],
      "name": "MintZeroQuantity",
      "type": "error"
    },
    {
      "inputs": [
        {
          "internalType": "address",
          "name": "operator",
          "type": "address"
        }
      ],
      "name": "OperatorNotAllowed",
      "type": "error"
    },
    {
      "inputs": [],
      "name": "OwnerQueryForNonexistentToken",
      "type": "error"
    },
    {
      "inputs": [],
      "name": "OwnershipNotInitializedForExtraData",
      "type": "error"
    },
    {
      "inputs": [],
      "name": "SetUserCallerNotOwnerNorApproved",
      "type": "error"
    },
    {
      "inputs": [],
      "name": "TransferCallerNotOwnerNorApproved",
      "type": "error"
    },
    {
      "inputs": [],
      "name": "TransferFromIncorrectOwner",
      "type": "error"
    },
    {
      "inputs": [],
      "name": "TransferToNonERC721ReceiverImplementer",
      "type": "error"
    },
    {
      "inputs": [],
      "name": "TransferToZeroAddress",
      "type": "error"
    },
    {
      "inputs": [],
      "name": "URIQueryForNonexistentToken",
      "type": "error"
    },
    {
      "anonymous": false,
      "inputs": [
        {
          "indexed": true,
          "internalType": "address",
          "name": "owner",
          "type": "address"
        },
        {
          "indexed": true,
          "internalType": "address",
          "name": "approved",
          "type": "address"
        },
        {
          "indexed": true,
          "internalType": "uint256",
          "name": "tokenId",
          "type": "uint256"
        }
      ],
      "name": "Approval",
      "type": "event"
    },
    {
      "anonymous": false,
      "inputs": [
        {
          "indexed": true,
          "internalType": "address",
          "name": "owner",
          "type": "address"
        },
        {
          "indexed": true,
          "internalType": "address",
          "name": "operator",
          "type": "address"
        },
        {
          "indexed": false,
          "internalType": "bool",
          "name": "approved",
          "type": "bool"
        }
      ],
      "name": "ApprovalForAll",
      "type": "event"
    },
    {
      "anonymous": false,
      "inputs": [
        {
          "indexed": true,
          "internalType": "uint256",
          "name": "fromTokenId",
          "type": "uint256"
        },
        {
          "indexed": false,
          "internalType": "uint256",
          "name": "toTokenId",
          "type": "uint256"
        },
        {
          "indexed": true,
          "internalType": "address",
          "name": "from",
          "type": "address"
        },
        {
          "indexed": true,
          "internalType": "address",
          "name": "to",
          "type": "address"
        }
      ],
      "name": "ConsecutiveTransfer",
      "type": "event"
    },
    {
      "anonymous": false,
      "inputs": [
        {
          "indexed": false,
          "internalType": "uint8",
          "name": "version",
          "type": "uint8"
        }
      ],
      "name": "Initialized",
      "type": "event"
    },
    {
      "anonymous": false,
      "inputs": [
        {
          "indexed": false,
          "internalType": "address",
          "name": "sender",
          "type": "address"
        },
        {
          "indexed": false,
          "internalType": "uint256",
          "name": "tokenId_",
          "type": "uint256"
        }
      ],
      "name": "Minted",
      "type": "event"
    },
    {
      "anonymous": false,
      "inputs": [
        {
          "indexed": true,
          "internalType": "address",
          "name": "previousOwner",
          "type": "address"
        },
        {
          "indexed": true,
          "internalType": "address",
          "name": "newOwner",
          "type": "address"
        }
      ],
      "name": "OwnershipTransferred",
      "type": "event"
    },
    {
      "anonymous": false,
      "inputs": [
        {
          "indexed": true,
          "internalType": "bytes32",
          "name": "role",
          "type": "bytes32"
        },
        {
          "indexed": true,
          "internalType": "bytes32",
          "name": "previousAdminRole",
          "type": "bytes32"
        },
        {
          "indexed": true,
          "internalType": "bytes32",
          "name": "newAdminRole",
          "type": "bytes32"
        }
      ],
      "name": "RoleAdminChanged",
      "type": "event"
    },
    {
      "anonymous": false,
      "inputs": [
        {
          "indexed": true,
          "internalType": "bytes32",
          "name": "role",
          "type": "bytes32"
        },
        {
          "indexed": true,
          "internalType": "address",
          "name": "account",
          "type": "address"
        },
        {
          "indexed": true,
          "internalType": "address",
          "name": "sender",
          "type": "address"
        }
      ],
      "name": "RoleGranted",
      "type": "event"
    },
    {
      "anonymous": false,
      "inputs": [
        {
          "indexed": true,
          "internalType": "bytes32",
          "name": "role",
          "type": "bytes32"
        },
        {
          "indexed": true,
          "internalType": "address",
          "name": "account",
          "type": "address"
        },
        {
          "indexed": true,
          "internalType": "address",
          "name": "sender",
          "type": "address"
        }
      ],
      "name": "RoleRevoked",
      "type": "event"
    },
    {
      "anonymous": false,
      "inputs": [
        {
          "indexed": true,
          "internalType": "address",
          "name": "from",
          "type": "address"
        },
        {
          "indexed": true,
          "internalType": "address",
          "name": "to",
          "type": "address"
        },
        {
          "indexed": true,
          "internalType": "uint256",
          "name": "tokenId",
          "type": "uint256"
        }
      ],
      "name": "Transfer",
      "type": "event"
    },
    {
      "anonymous": false,
      "inputs": [
        {
          "indexed": true,
          "internalType": "uint256",
          "name": "tokenId",
          "type": "uint256"
        },
        {
          "indexed": true,
          "internalType": "address",
          "name": "user",
          "type": "address"
        },
        {
          "indexed": false,
          "internalType": "uint64",
          "name": "expires",
          "type": "uint64"
        }
      ],
      "name": "UpdateUser",
      "type": "event"
    },
    {
      "inputs": [],
      "name": "DEFAULT_ADMIN_ROLE",
      "outputs": [
        {
          "internalType": "bytes32",
          "name": "",
          "type": "bytes32"
        }
      ],
      "stateMutability": "view",
      "type": "function"
    },
    {
      "inputs": [],
      "name": "MAX_TOKENS",
      "outputs": [
        {
          "internalType": "uint32",
          "name": "",
          "type": "uint32"
        }
      ],
      "stateMutability": "view",
      "type": "function"
    },
    {
      "inputs": [
        {
          "internalType": "uint32",
          "name": "newCap",
          "type": "uint32"
        }
      ],
      "name": "adjustCap",
      "outputs": [],
      "stateMutability": "nonpayable",
      "type": "function"
    },
    {
      "inputs": [
        {
          "internalType": "address",
          "name": "operator",
          "type": "address"
        },
        {
          "internalType": "uint256",
          "name": "tokenId",
          "type": "uint256"
        }
      ],
      "name": "approve",
      "outputs": [],
      "stateMutability": "nonpayable",
      "type": "function"
    },
    {
      "inputs": [
        {
          "internalType": "address",
          "name": "owner",
          "type": "address"
        }
      ],
      "name": "balanceOf",
      "outputs": [
        {
          "internalType": "uint256",
          "name": "",
          "type": "uint256"
        }
      ],
      "stateMutability": "view",
      "type": "function"
    },
    {
      "inputs": [],
      "name": "baseURI",
      "outputs": [
        {
          "internalType": "string",
          "name": "",
          "type": "string"
        }
      ],
      "stateMutability": "view",
      "type": "function"
    },
    {
      "inputs": [],
      "name": "contractURI",
      "outputs": [
        {
          "internalType": "string",
          "name": "",
          "type": "string"
        }
      ],
      "stateMutability": "view",
      "type": "function"
    },
    {
      "inputs": [],
      "name": "contractVersion",
      "outputs": [
        {
          "internalType": "uint32",
          "name": "",
          "type": "uint32"
        }
      ],
      "stateMutability": "view",
      "type": "function"
    },
    {
      "inputs": [
        {
          "internalType": "address",
          "name": "_splitMain",
          "type": "address"
        },
        {
          "internalType": "address[]",
          "name": "accounts",
          "type": "address[]"
        },
        {
          "internalType": "uint32[]",
          "name": "percentAllocations",
          "type": "uint32[]"
        },
        {
          "internalType": "uint32",
          "name": "distributorFee",
          "type": "uint32"
        }
      ],
      "name": "createSplit",
      "outputs": [],
      "stateMutability": "nonpayable",
      "type": "function"
    },
    {
      "inputs": [
        {
          "internalType": "address",
          "name": "account",
          "type": "address"
        },
        {
          "internalType": "uint256",
          "name": "withdrawETH",
          "type": "uint256"
        },
        {
          "internalType": "contract ERC20[]",
          "name": "tokens",
          "type": "address[]"
        },
        {
          "internalType": "address[]",
          "name": "accounts",
          "type": "address[]"
        },
        {
          "internalType": "uint32[]",
          "name": "percentAllocations",
          "type": "uint32[]"
        },
        {
          "internalType": "uint32",
          "name": "distributorFee",
          "type": "uint32"
        },
        {
          "internalType": "address",
          "name": "distributorAddress",
          "type": "address"
        }
      ],
      "name": "distributeAndWithdraw",
      "outputs": [],
      "stateMutability": "nonpayable",
      "type": "function"
    },
    {
      "inputs": [
        {
          "internalType": "contract ERC20",
          "name": "token",
          "type": "address"
        },
        {
          "internalType": "address[]",
          "name": "accounts",
          "type": "address[]"
        },
        {
          "internalType": "uint32[]",
          "name": "percentAllocations",
          "type": "uint32[]"
        },
        {
          "internalType": "uint32",
          "name": "distributorFee",
          "type": "uint32"
        },
        {
          "internalType": "address",
          "name": "distributorAddress",
          "type": "address"
        }
      ],
      "name": "distributeERC20",
      "outputs": [],
      "stateMutability": "nonpayable",
      "type": "function"
    },
    {
      "inputs": [
        {
          "internalType": "address[]",
          "name": "accounts",
          "type": "address[]"
        },
        {
          "internalType": "uint32[]",
          "name": "percentAllocations",
          "type": "uint32[]"
        },
        {
          "internalType": "uint32",
          "name": "distributorFee",
          "type": "uint32"
        },
        {
          "internalType": "address",
          "name": "distributorAddress",
          "type": "address"
        }
      ],
      "name": "distributeETH",
      "outputs": [],
      "stateMutability": "nonpayable",
      "type": "function"
    },
    {
      "inputs": [],
      "name": "edition",
      "outputs": [
        {
          "internalType": "bool",
          "name": "hasAdjustableCap",
          "type": "bool"
        },
        {
          "internalType": "bool",
          "name": "isSoulbound",
          "type": "bool"
        },
        {
          "internalType": "uint32",
          "name": "maxTokens",
          "type": "uint32"
        },
        {
          "internalType": "uint32",
          "name": "maxTokenPurchase",
          "type": "uint32"
        },
        {
          "internalType": "uint32",
          "name": "presaleStart",
          "type": "uint32"
        },
        {
          "internalType": "uint32",
          "name": "presaleEnd",
          "type": "uint32"
        },
        {
          "internalType": "uint32",
          "name": "saleStart",
          "type": "uint32"
        },
        {
          "internalType": "uint32",
          "name": "saleEnd",
          "type": "uint32"
        },
        {
          "internalType": "uint16",
          "name": "royaltyBPS",
          "type": "uint16"
        },
        {
          "internalType": "uint96",
          "name": "tokenPrice",
          "type": "uint96"
        },
        {
          "internalType": "address",
          "name": "payoutAddress",
          "type": "address"
        },
        {
          "internalType": "bytes32",
          "name": "presaleMerkleRoot",
          "type": "bytes32"
        }
      ],
      "stateMutability": "view",
      "type": "function"
    },
    {
      "inputs": [],
      "name": "flipSaleState",
      "outputs": [],
      "stateMutability": "nonpayable",
      "type": "function"
    },
    {
      "inputs": [
        {
          "internalType": "uint256",
          "name": "tokenId",
          "type": "uint256"
        }
      ],
      "name": "getApproved",
      "outputs": [
        {
          "internalType": "address",
          "name": "",
          "type": "address"
        }
      ],
      "stateMutability": "view",
      "type": "function"
    },
    {
      "inputs": [
        {
          "internalType": "bytes32",
          "name": "role",
          "type": "bytes32"
        }
      ],
      "name": "getRoleAdmin",
      "outputs": [
        {
          "internalType": "bytes32",
          "name": "",
          "type": "bytes32"
        }
      ],
      "stateMutability": "view",
      "type": "function"
    },
    {
      "inputs": [
        {
          "internalType": "bytes32",
          "name": "role",
          "type": "bytes32"
        },
        {
          "internalType": "address",
          "name": "account",
          "type": "address"
        }
      ],
      "name": "grantRole",
      "outputs": [],
      "stateMutability": "nonpayable",
      "type": "function"
    },
    {
      "inputs": [],
      "name": "hasAdjustableCap",
      "outputs": [
        {
          "internalType": "bool",
          "name": "",
          "type": "bool"
        }
      ],
      "stateMutability": "view",
      "type": "function"
    },
    {
      "inputs": [
        {
          "internalType": "bytes32",
          "name": "role",
          "type": "bytes32"
        },
        {
          "internalType": "address",
          "name": "account",
          "type": "address"
        }
      ],
      "name": "hasRole",
      "outputs": [
        {
          "internalType": "bool",
          "name": "",
          "type": "bool"
        }
      ],
      "stateMutability": "view",
      "type": "function"
    },
    {
      "inputs": [
        {
          "internalType": "address",
          "name": "_owner",
          "type": "address"
        },
        {
          "components": [
            {
              "internalType": "string",
              "name": "name",
              "type": "string"
            },
            {
              "internalType": "string",
              "name": "symbol",
              "type": "string"
            },
            {
              "internalType": "bool",
              "name": "hasAdjustableCap",
              "type": "bool"
            },
            {
              "internalType": "bool",
              "name": "isSoulbound",
              "type": "bool"
            },
            {
              "internalType": "uint32",
              "name": "maxTokens",
              "type": "uint32"
            },
            {
              "internalType": "uint32",
              "name": "maxTokenPurchase",
              "type": "uint32"
            },
            {
              "internalType": "uint32",
              "name": "presaleStart",
              "type": "uint32"
            },
            {
              "internalType": "uint32",
              "name": "presaleEnd",
              "type": "uint32"
            },
            {
              "internalType": "uint32",
              "name": "saleStart",
              "type": "uint32"
            },
            {
              "internalType": "uint32",
              "name": "saleEnd",
              "type": "uint32"
            },
            {
              "internalType": "uint16",
              "name": "royaltyBPS",
              "type": "uint16"
            },
            {
              "internalType": "uint96",
              "name": "tokenPrice",
              "type": "uint96"
            },
            {
              "internalType": "address",
              "name": "payoutAddress",
              "type": "address"
            },
            {
              "internalType": "bytes32",
              "name": "presaleMerkleRoot",
              "type": "bytes32"
            }
          ],
          "internalType": "struct EditionConfig",
          "name": "_editionConfig",
          "type": "tuple"
        },
        {
          "components": [
            {
              "internalType": "string",
              "name": "contractURI",
              "type": "string"
            },
            {
              "internalType": "string",
              "name": "metadataURI",
              "type": "string"
            },
            {
              "internalType": "bytes",
              "name": "metadataRendererInit",
              "type": "bytes"
            },
            {
              "internalType": "address",
              "name": "parentIP",
              "type": "address"
            }
          ],
          "internalType": "struct MetadataConfig",
          "name": "_metadataConfig",
          "type": "tuple"
        },
        {
          "components": [
            {
              "internalType": "address",
              "name": "tokenAddress",
              "type": "address"
            },
            {
              "internalType": "uint88",
              "name": "minBalance",
              "type": "uint88"
            },
            {
              "internalType": "enum SaleType",
              "name": "saleType",
              "type": "uint8"
            }
          ],
          "internalType": "struct TokenGateConfig",
          "name": "_tokenGateConfig",
          "type": "tuple"
        },
        {
          "internalType": "address",
          "name": "_metadataRenderer",
          "type": "address"
        }
      ],
      "name": "initialize",
      "outputs": [],
      "stateMutability": "nonpayable",
      "type": "function"
    },
    {
      "inputs": [
        {
          "internalType": "address",
          "name": "owner",
          "type": "address"
        },
        {
          "internalType": "address",
          "name": "operator",
          "type": "address"
        }
      ],
      "name": "isApprovedForAll",
      "outputs": [
        {
          "internalType": "bool",
          "name": "",
          "type": "bool"
        }
      ],
      "stateMutability": "view",
      "type": "function"
    },
    {
      "inputs": [],
      "name": "isSoulbound",
      "outputs": [
        {
          "internalType": "bool",
          "name": "",
          "type": "bool"
        }
      ],
      "stateMutability": "view",
      "type": "function"
    },
    {
      "inputs": [],
      "name": "maxTokenPurchase",
      "outputs": [
        {
          "internalType": "uint32",
          "name": "",
          "type": "uint32"
        }
      ],
      "stateMutability": "view",
      "type": "function"
    },
    {
      "inputs": [],
      "name": "metadataRenderer",
      "outputs": [
        {
          "internalType": "address",
          "name": "",
          "type": "address"
        }
      ],
      "stateMutability": "view",
      "type": "function"
    },
    {
      "inputs": [
        {
          "internalType": "address",
          "name": "to",
          "type": "address"
        },
        {
          "internalType": "uint256",
          "name": "numberOfTokens",
          "type": "uint256"
        }
      ],
      "name": "mint",
      "outputs": [],
      "stateMutability": "payable",
      "type": "function"
    },
    {
      "inputs": [
        {
          "internalType": "address[]",
          "name": "recipients",
          "type": "address[]"
        }
      ],
      "name": "mintAirdrop",
      "outputs": [],
      "stateMutability": "nonpayable",
      "type": "function"
    },
    {
      "inputs": [
        {
          "internalType": "uint256",
          "name": "quantity",
          "type": "uint256"
        },
        {
          "internalType": "uint256",
          "name": "maxQuantity",
          "type": "uint256"
        },
        {
          "internalType": "uint256",
          "name": "pricePerToken",
          "type": "uint256"
        },
        {
          "internalType": "bytes32[]",
          "name": "merkleProof",
          "type": "bytes32[]"
        }
      ],
      "name": "mintPresale",
      "outputs": [],
      "stateMutability": "payable",
      "type": "function"
    },
    {
      "inputs": [],
      "name": "name",
      "outputs": [
        {
          "internalType": "string",
          "name": "",
          "type": "string"
        }
      ],
      "stateMutability": "view",
      "type": "function"
    },
    {
      "inputs": [],
      "name": "operatorFilterRegistry",
      "outputs": [
        {
          "internalType": "contract IOperatorFilterRegistry",
          "name": "",
          "type": "address"
        }
      ],
      "stateMutability": "view",
      "type": "function"
    },
    {
      "inputs": [],
      "name": "owner",
      "outputs": [
        {
          "internalType": "address",
          "name": "",
          "type": "address"
        }
      ],
      "stateMutability": "view",
      "type": "function"
    },
    {
      "inputs": [
        {
          "internalType": "uint256",
          "name": "tokenId",
          "type": "uint256"
        }
      ],
      "name": "ownerOf",
      "outputs": [
        {
          "internalType": "address",
          "name": "",
          "type": "address"
        }
      ],
      "stateMutability": "view",
      "type": "function"
    },
    {
      "inputs": [],
      "name": "parentIP",
      "outputs": [
        {
          "internalType": "address",
          "name": "",
          "type": "address"
        }
      ],
      "stateMutability": "view",
      "type": "function"
    },
    {
      "inputs": [],
      "name": "payoutAddress",
      "outputs": [
        {
          "internalType": "address",
          "name": "",
          "type": "address"
        }
      ],
      "stateMutability": "view",
      "type": "function"
    },
    {
      "inputs": [],
      "name": "presaleEnd",
      "outputs": [
        {
          "internalType": "uint32",
          "name": "",
          "type": "uint32"
        }
      ],
      "stateMutability": "view",
      "type": "function"
    },
    {
      "inputs": [],
      "name": "presaleMerkleRoot",
      "outputs": [
        {
          "internalType": "bytes32",
          "name": "",
          "type": "bytes32"
        }
      ],
      "stateMutability": "view",
      "type": "function"
    },
    {
      "inputs": [],
      "name": "presaleStart",
      "outputs": [
        {
          "internalType": "uint32",
          "name": "",
          "type": "uint32"
        }
      ],
      "stateMutability": "view",
      "type": "function"
    },
    {
      "inputs": [],
      "name": "renounceOwnership",
      "outputs": [],
      "stateMutability": "nonpayable",
      "type": "function"
    },
    {
      "inputs": [
        {
          "internalType": "bytes32",
          "name": "role",
          "type": "bytes32"
        },
        {
          "internalType": "address",
          "name": "account",
          "type": "address"
        }
      ],
      "name": "renounceRole",
      "outputs": [],
      "stateMutability": "nonpayable",
      "type": "function"
    },
    {
      "inputs": [
        {
          "internalType": "uint256",
          "name": "numReserved",
          "type": "uint256"
        }
      ],
      "name": "reserveDCNT",
      "outputs": [],
      "stateMutability": "nonpayable",
      "type": "function"
    },
    {
      "inputs": [
        {
          "internalType": "bytes32",
          "name": "role",
          "type": "bytes32"
        },
        {
          "internalType": "address",
          "name": "account",
          "type": "address"
        }
      ],
      "name": "revokeRole",
      "outputs": [],
      "stateMutability": "nonpayable",
      "type": "function"
    },
    {
      "inputs": [],
      "name": "royaltyBPS",
      "outputs": [
        {
          "internalType": "uint16",
          "name": "",
          "type": "uint16"
        }
      ],
      "stateMutability": "view",
      "type": "function"
    },
    {
      "inputs": [
        {
          "internalType": "uint256",
          "name": "tokenId",
          "type": "uint256"
        },
        {
          "internalType": "uint256",
          "name": "salePrice",
          "type": "uint256"
        }
      ],
      "name": "royaltyInfo",
      "outputs": [
        {
          "internalType": "address",
          "name": "receiver",
          "type": "address"
        },
        {
          "internalType": "uint256",
          "name": "royaltyAmount",
          "type": "uint256"
        }
      ],
      "stateMutability": "view",
      "type": "function"
    },
    {
      "inputs": [
        {
          "internalType": "address",
          "name": "from",
          "type": "address"
        },
        {
          "internalType": "address",
          "name": "to",
          "type": "address"
        },
        {
          "internalType": "uint256",
          "name": "tokenId",
          "type": "uint256"
        }
      ],
      "name": "safeTransferFrom",
      "outputs": [],
      "stateMutability": "nonpayable",
      "type": "function"
    },
    {
      "inputs": [
        {
          "internalType": "address",
          "name": "from",
          "type": "address"
        },
        {
          "internalType": "address",
          "name": "to",
          "type": "address"
        },
        {
          "internalType": "uint256",
          "name": "tokenId",
          "type": "uint256"
        },
        {
          "internalType": "bytes",
          "name": "_data",
          "type": "bytes"
        }
      ],
      "name": "safeTransferFrom",
      "outputs": [],
      "stateMutability": "nonpayable",
      "type": "function"
    },
    {
      "inputs": [],
      "name": "saleEnd",
      "outputs": [
        {
          "internalType": "uint32",
          "name": "",
          "type": "uint32"
        }
      ],
      "stateMutability": "view",
      "type": "function"
    },
    {
      "inputs": [],
      "name": "saleIsActive",
      "outputs": [
        {
          "internalType": "bool",
          "name": "_saleIsActive",
          "type": "bool"
        }
      ],
      "stateMutability": "view",
      "type": "function"
    },
    {
      "inputs": [],
      "name": "saleIsPaused",
      "outputs": [
        {
          "internalType": "bool",
          "name": "",
          "type": "bool"
        }
      ],
      "stateMutability": "view",
      "type": "function"
    },
    {
      "inputs": [],
      "name": "saleStart",
      "outputs": [
        {
          "internalType": "uint32",
          "name": "",
          "type": "uint32"
        }
      ],
      "stateMutability": "view",
      "type": "function"
    },
    {
      "inputs": [
        {
          "internalType": "address",
          "name": "operator",
          "type": "address"
        },
        {
          "internalType": "bool",
          "name": "approved",
          "type": "bool"
        }
      ],
      "name": "setApprovalForAll",
      "outputs": [],
      "stateMutability": "nonpayable",
      "type": "function"
    },
    {
      "inputs": [
        {
          "internalType": "string",
          "name": "uri",
          "type": "string"
        }
      ],
      "name": "setBaseURI",
      "outputs": [],
      "stateMutability": "nonpayable",
      "type": "function"
    },
    {
      "inputs": [
        {
          "internalType": "string",
          "name": "uri",
          "type": "string"
        }
      ],
      "name": "setContractURI",
      "outputs": [],
      "stateMutability": "nonpayable",
      "type": "function"
    },
    {
      "inputs": [
        {
          "internalType": "address",
          "name": "_metadataRenderer",
          "type": "address"
        }
      ],
      "name": "setMetadataRenderer",
      "outputs": [],
      "stateMutability": "nonpayable",
      "type": "function"
    },
    {
      "inputs": [
        {
          "internalType": "address",
          "name": "_payoutAddress",
          "type": "address"
        }
      ],
      "name": "setPayoutAddress",
      "outputs": [],
      "stateMutability": "nonpayable",
      "type": "function"
    },
    {
      "inputs": [
        {
          "internalType": "bytes32",
          "name": "_presaleMerkleRoot",
          "type": "bytes32"
        }
      ],
      "name": "setPresaleMerkleRoot",
      "outputs": [],
      "stateMutability": "nonpayable",
      "type": "function"
    },
    {
      "inputs": [
        {
          "components": [
            {
              "internalType": "address",
              "name": "tokenAddress",
              "type": "address"
            },
            {
              "internalType": "uint88",
              "name": "minBalance",
              "type": "uint88"
            },
            {
              "internalType": "enum SaleType",
              "name": "saleType",
              "type": "uint8"
            }
          ],
          "internalType": "struct TokenGateConfig",
          "name": "_tokenGateConfig",
          "type": "tuple"
        }
      ],
      "name": "setTokenGate",
      "outputs": [],
      "stateMutability": "nonpayable",
      "type": "function"
    },
    {
      "inputs": [
        {
          "internalType": "uint256",
          "name": "tokenId",
          "type": "uint256"
        },
        {
          "internalType": "address",
          "name": "user",
          "type": "address"
        },
        {
          "internalType": "uint64",
          "name": "expires",
          "type": "uint64"
        }
      ],
      "name": "setUser",
      "outputs": [],
      "stateMutability": "nonpayable",
      "type": "function"
    },
    {
      "inputs": [],
      "name": "splitMain",
      "outputs": [
        {
          "internalType": "address",
          "name": "",
          "type": "address"
        }
      ],
      "stateMutability": "view",
      "type": "function"
    },
    {
      "inputs": [],
      "name": "splitWallet",
      "outputs": [
        {
          "internalType": "address",
          "name": "",
          "type": "address"
        }
      ],
      "stateMutability": "view",
      "type": "function"
    },
    {
      "inputs": [
        {
          "internalType": "bytes4",
          "name": "interfaceId",
          "type": "bytes4"
        }
      ],
      "name": "supportsInterface",
      "outputs": [
        {
          "internalType": "bool",
          "name": "",
          "type": "bool"
        }
      ],
      "stateMutability": "view",
      "type": "function"
    },
    {
      "inputs": [],
      "name": "symbol",
      "outputs": [
        {
          "internalType": "string",
          "name": "",
          "type": "string"
        }
      ],
      "stateMutability": "view",
      "type": "function"
    },
    {
      "inputs": [],
      "name": "tokenGateConfig",
      "outputs": [
        {
          "internalType": "address",
          "name": "tokenAddress",
          "type": "address"
        },
        {
          "internalType": "uint88",
          "name": "minBalance",
          "type": "uint88"
        },
        {
          "internalType": "enum SaleType",
          "name": "saleType",
          "type": "uint8"
        }
      ],
      "stateMutability": "view",
      "type": "function"
    },
    {
      "inputs": [],
      "name": "tokenPrice",
      "outputs": [
        {
          "internalType": "uint96",
          "name": "",
          "type": "uint96"
        }
      ],
      "stateMutability": "view",
      "type": "function"
    },
    {
      "inputs": [
        {
          "internalType": "uint256",
          "name": "tokenId",
          "type": "uint256"
        }
      ],
      "name": "tokenURI",
      "outputs": [
        {
          "internalType": "string",
          "name": "",
          "type": "string"
        }
      ],
      "stateMutability": "view",
      "type": "function"
    },
    {
      "inputs": [],
      "name": "totalSupply",
      "outputs": [
        {
          "internalType": "uint256",
          "name": "",
          "type": "uint256"
        }
      ],
      "stateMutability": "view",
      "type": "function"
    },
    {
      "inputs": [
        {
          "internalType": "address",
          "name": "from",
          "type": "address"
        },
        {
          "internalType": "address",
          "name": "to",
          "type": "address"
        },
        {
          "internalType": "uint256",
          "name": "tokenId",
          "type": "uint256"
        }
      ],
      "name": "transferFrom",
      "outputs": [],
      "stateMutability": "nonpayable",
      "type": "function"
    },
    {
      "inputs": [
        {
          "internalType": "address",
          "name": "newOwner",
          "type": "address"
        }
      ],
      "name": "transferOwnership",
      "outputs": [],
      "stateMutability": "nonpayable",
      "type": "function"
    },
    {
      "inputs": [
        {
          "internalType": "uint256",
          "name": "transferETH",
          "type": "uint256"
        },
        {
          "internalType": "contract ERC20[]",
          "name": "tokens",
          "type": "address[]"
        }
      ],
      "name": "transferToSplit",
      "outputs": [],
      "stateMutability": "nonpayable",
      "type": "function"
    },
    {
      "inputs": [
        {
          "internalType": "bool",
          "name": "enable",
          "type": "bool"
        },
        {
          "internalType": "address",
          "name": "operatorFilter",
          "type": "address"
        }
      ],
      "name": "updateOperatorFilter",
      "outputs": [],
      "stateMutability": "nonpayable",
      "type": "function"
    },
    {
      "inputs": [
        {
          "internalType": "uint32",
          "name": "newStart",
          "type": "uint32"
        },
        {
          "internalType": "uint32",
          "name": "newEnd",
          "type": "uint32"
        }
      ],
      "name": "updatePresaleStartEnd",
      "outputs": [],
      "stateMutability": "nonpayable",
      "type": "function"
    },
    {
      "inputs": [
        {
          "internalType": "uint32",
          "name": "newStart",
          "type": "uint32"
        },
        {
          "internalType": "uint32",
          "name": "newEnd",
          "type": "uint32"
        }
      ],
      "name": "updateSaleStartEnd",
      "outputs": [],
      "stateMutability": "nonpayable",
      "type": "function"
    },
    {
      "inputs": [
        {
          "internalType": "uint256",
          "name": "tokenId",
          "type": "uint256"
        }
      ],
      "name": "userExpires",
      "outputs": [
        {
          "internalType": "uint256",
          "name": "",
          "type": "uint256"
        }
      ],
      "stateMutability": "view",
      "type": "function"
    },
    {
      "inputs": [
        {
          "internalType": "uint256",
          "name": "tokenId",
          "type": "uint256"
        }
      ],
      "name": "userOf",
      "outputs": [
        {
          "internalType": "address",
          "name": "",
          "type": "address"
        }
      ],
      "stateMutability": "view",
      "type": "function"
    },
    {
      "inputs": [],
      "name": "withdraw",
      "outputs": [],
      "stateMutability": "nonpayable",
      "type": "function"
    }
  ],
  "bytecode": "0x60a06040523480156200001157600080fd5b5060076200001f336200002e565b63ffffffff166080526200008a565b600a80546001600160a01b038381166201000081810262010000600160b01b031985161790945560405193909204169182907f8be0079c531659141344cd1fd0a4f28419497f9722a3daafe3b4186f6b6457e090600090a35050565b6080516151e2620000a66000396000610b3401526151e26000f3fe6080604052600436106104255760003560e01c806379ab7c8e11610229578063c10b93581161012e578063e8a3d485116100b6578063f2fde38b1161007a578063f2fde38b14610e4b578063f47c84c514610e6b578063f7eca6d014610e8c578063fd4fe8a814610ea9578063ff45640d14610ec957600080fd5b8063e8a3d48514610d98578063e985e9c514610dad578063eb8d244414610df6578063ed1f24ad14610e0b578063f0cc8b6214610e2b57600080fd5b8063c87b56dd116100fd578063c87b56dd14610cf5578063d547741f14610d15578063de8801e514610d35578063e030565e14610d57578063e6c350c114610d7757600080fd5b8063c10b935814610c5f578063c2f1f14a14610c81578063c4559d5a14610cb5578063c595317014610cd557600080fd5b8063a0a8e460116101b1578063ae1dd6c411610180578063ae1dd6c414610baf578063b0ccc31e14610bcf578063b80476d014610bf1578063b88d4fde14610c11578063b9c9d93a14610c3157600080fd5b8063a0a8e46014610b25578063a217fddf14610b58578063a22cb46514610b6d578063ab0bcc4114610b8d57600080fd5b80638fc88c48116101f85780638fc88c4814610a8857806391d1485414610ab8578063931cf0f414610ad8578063938e3d7b14610af057806395d89b4114610b1057600080fd5b806379ab7c8e146109025780637ff9b596146109225780638da5cb5b1461094a5780638e98f86a1461096e57600080fd5b80632f2ff15d1161032f5780635b8d02d7116102b75780637031997011610286578063703199701461087a57806370a082311461089a578063713b9787146108ba578063715018a6146108da578063727a612e146108ef57600080fd5b80635b8d02d7146108005780636352211e146108255780636c0360eb146108455780636c1951ae1461085a57600080fd5b806336568abe116102fe57806336568abe146107785780633ccfd60b1461079857806340c10f19146107ad57806342842e0e146107c057806355f804b3146107e057600080fd5b80632f2ff15d1461070357806333ea3e6d1461072357806333ea51a81461074357806334918dfd1461076357600080fd5b80631dbdedbd116103b2578063248a9ca311610381578063248a9ca314610634578063284a44a81461066457806328d7b276146106845780632a55205a146106a45780632d75fea6146106e357600080fd5b80631dbdedbd1461059157806322212e2b146105dd578063229f3e29146105f257806323b872dd1461061457600080fd5b8063095ea7b3116103f9578063095ea7b3146104db57806309aa3dcf146104fb5780630ad6c6161461052e5780630e769b2b1461054e57806318160ddd1461056e57600080fd5b80625f16fb1461042a57806301ffc9a71461044c57806306fdde0314610481578063081812fc146104a3575b600080fd5b34801561043657600080fd5b5061044a610445366004613ef2565b610ee9565b005b34801561045857600080fd5b5061046c610467366004613faf565b610fa0565b60405190151581526020015b60405180910390f35b34801561048d57600080fd5b50610496610fb1565b604051610478919061401c565b3480156104af57600080fd5b506104c36104be36600461402f565b611043565b6040516001600160a01b039091168152602001610478565b3480156104e757600080fd5b5061044a6104f6366004614048565b611087565b34801561050757600080fd5b50600d54600160301b900463ffffffff165b60405163ffffffff9091168152602001610478565b34801561053a57600080fd5b5061044a610549366004614074565b611095565b34801561055a57600080fd5b50600b546104c3906001600160a01b031681565b34801561057a57600080fd5b50600154600054035b604051908152602001610478565b34801561059d57600080fd5b506009546105ce906001600160a01b03811690600160a01b81046001600160581b031690600160f81b900460ff1683565b604051610478939291906140bd565b3480156105e957600080fd5b50600f54610583565b3480156105fe57600080fd5b50600d54600160701b900463ffffffff16610519565b34801561062057600080fd5b5061044a61062f366004614108565b6110fc565b34801561064057600080fd5b5061058361064f36600461402f565b60009081526008602052604090206001015490565b34801561067057600080fd5b5061044a61067f366004614240565b6112a2565b34801561069057600080fd5b5061044a61069f36600461402f565b611339565b3480156106b057600080fd5b506106c46106bf366004614314565b611365565b604080516001600160a01b039093168352602083019190915201610478565b3480156106ef57600080fd5b5061044a6106fe36600461434f565b611450565b34801561070f57600080fd5b5061044a61071e366004614388565b611677565b34801561072f57600080fd5b5061044a61073e3660046143ad565b61169c565b34801561074f57600080fd5b5061044a61075e36600461443e565b6117a9565b34801561076f57600080fd5b5061044a6117f8565b34801561078457600080fd5b5061044a610793366004614388565b611840565b3480156107a457600080fd5b5061044a6118ba565b61044a6107bb366004614048565b6119fe565b3480156107cc57600080fd5b5061044a6107db366004614108565b611dee565b3480156107ec57600080fd5b5061044a6107fb3660046144d8565b611e09565b34801561080c57600080fd5b50600e54600160601b90046001600160a01b03166104c3565b34801561083157600080fd5b506104c361084036600461402f565b611e3c565b34801561085157600080fd5b50610496611e47565b34801561086657600080fd5b5061044a61087536600461402f565b611ed5565b34801561088657600080fd5b506012546104c3906001600160a01b031681565b3480156108a657600080fd5b506105836108b536600461443e565b611f70565b3480156108c657600080fd5b50600c546104c3906001600160a01b031681565b3480156108e657600080fd5b5061044a611fbe565b61044a6108fd36600461450c565b611fd2565b34801561090e57600080fd5b5061044a61091d36600461456c565b6123fb565b34801561092e57600080fd5b50600e546040516001600160601b039091168152602001610478565b34801561095657600080fd5b50600a546201000090046001600160a01b03166104c3565b34801561097a57600080fd5b50600d54600e54600f54610a059260ff8082169361010083049091169262010000830463ffffffff90811693600160301b8104821693600160501b8204831693600160701b8304841693600160901b8404811693600160b01b810490911692600160d01b90910461ffff16916001600160601b03821691600160601b90046001600160a01b0316908c565b604080519c15158d529a151560208d015263ffffffff998a169a8c019a909a5296881660608b015294871660808a015292861660a089015290851660c088015290931660e086015261ffff9092166101008501526001600160601b039091166101208401526001600160a01b031661014083015261016082015261018001610478565b348015610a9457600080fd5b50610583610aa336600461402f565b60009081526014602052604090205460a01c90565b348015610ac457600080fd5b5061046c610ad3366004614388565b61246f565b348015610ae457600080fd5b50600d5460ff1661046c565b348015610afc57600080fd5b5061044a610b0b3660046144d8565b61249a565b348015610b1c57600080fd5b506104966124cd565b348015610b3157600080fd5b507f0000000000000000000000000000000000000000000000000000000000000000610519565b348015610b6457600080fd5b50610583600081565b348015610b7957600080fd5b5061044a610b883660046145a8565b6124dc565b348015610b9957600080fd5b50600d54600160901b900463ffffffff16610519565b348015610bbb57600080fd5b5061044a610bca366004614758565b6124e6565b348015610bdb57600080fd5b506104c36daaeb6d7670e522a718067333cd4e81565b348015610bfd57600080fd5b5061044a610c0c366004614911565b612a02565b348015610c1d57600080fd5b5061044a610c2c36600461492c565b612b01565b348015610c3d57600080fd5b50600d54600160d01b900461ffff1660405161ffff9091168152602001610478565b348015610c6b57600080fd5b50600d54600160b01b900463ffffffff16610519565b348015610c8d57600080fd5b506104c3610c9c36600461402f565b6000908152601460205260409020544260a01b81110290565b348015610cc157600080fd5b5061044a610cd0366004614997565b612b4b565b348015610ce157600080fd5b5061044a610cf0366004614a2a565b612bf5565b348015610d0157600080fd5b50610496610d1036600461402f565b612d0d565b348015610d2157600080fd5b5061044a610d30366004614388565b612d18565b348015610d4157600080fd5b50600d54600160501b900463ffffffff16610519565b348015610d6357600080fd5b5061044a610d72366004614a6b565b612d3d565b348015610d8357600080fd5b5060125461046c90600160a01b900460ff1681565b348015610da457600080fd5b50610496612e0d565b348015610db957600080fd5b5061046c610dc8366004614ab9565b6001600160a01b03918216600090815260076020908152604080832093909416825291909152205460ff1690565b348015610e0257600080fd5b5061046c612ead565b348015610e1757600080fd5b5061044a610e26366004614074565b612ef7565b348015610e3757600080fd5b506013546104c3906001600160a01b031681565b348015610e5757600080fd5b5061044a610e6636600461443e565b612f5e565b348015610e7757600080fd5b50600d5462010000900463ffffffff16610519565b348015610e9857600080fd5b50600d54610100900460ff1661046c565b348015610eb557600080fd5b5061044a610ec436600461443e565b612fd7565b348015610ed557600080fd5b5061044a610ee4366004614ad7565b613020565b600c546001600160a01b0316610f1a5760405162461bcd60e51b8152600401610f1190614aef565b60405180910390fd5b610f2387613054565b600b54600c54604051630ac0898160e11b81526001600160a01b0392831692631581130292610f65929116908b908b908b908b908b908b908b90600401614ba0565b600060405180830381600087803b158015610f7f57600080fd5b505af1158015610f93573d6000803e3d6000fd5b5050505050505050505050565b6000610fab82613138565b92915050565b606060028054610fc090614c02565b80601f0160208091040260200160405190810160405280929190818152602001828054610fec90614c02565b80156110395780601f1061100e57610100808354040283529160200191611039565b820191906000526020600020905b81548152906001019060200180831161101c57829003601f168201915b5050505050905090565b600061104e82613160565b61106b576040516333d1c03960e21b815260040160405180910390fd5b506000908152600660205260409020546001600160a01b031690565b6110918282613187565b5050565b6110a060003361246f565b6110bc5760405162461bcd60e51b8152600401610f1190614c36565b600d805467ffffffffffffffff60901b1916600160901b63ffffffff9485160263ffffffff60b01b191617600160b01b9290931691909102919091179055565b60006111078261319b565b9050836001600160a01b0316816001600160a01b03161461113a5760405162a1148160e81b815260040160405180910390fd5b60008281526006602052604090208054338082146001600160a01b038816909114176111875761116a8633610dc8565b61118757604051632ce44b5f60e11b815260040160405180910390fd5b6001600160a01b0385166111ae57604051633a954ecd60e21b815260040160405180910390fd5b6111bb8686866001613209565b80156111c657600082555b6001600160a01b038681166000908152600560205260408082208054600019019055918716808252919020805460010190554260a01b17600160e11b17600085815260046020526040812091909155600160e11b84169003611258576001840160008181526004602052604081205490036112565760005481146112565760008181526004602052604090208490555b505b83856001600160a01b0316876001600160a01b03167fddf252ad1be2c89b69c2b068fc378daa952ba7f163c4a11628f55a4df523b3ef60405160405180910390a45b505050505050565b600c546001600160a01b03166112ca5760405162461bcd60e51b8152600401610f1190614aef565b87156112de576112de868686868686612b4b565b60005b8751811015611322576113128882815181106112ff576112ff614c59565b6020026020010151888888888888610ee9565b61131b81614c85565b90506112e1565b5061132e898989613215565b505050505050505050565b61134460003361246f565b6113605760405162461bcd60e51b8152600401610f1190614c36565b600f55565b60008061137184613160565b6113b15760405162461bcd60e51b81526020600482015260116024820152702737b732bc34b9ba32b73a103a37b5b2b760791b6044820152606401610f11565b600c546001600160a01b0316156113d557600c546001600160a01b0316915061141c565b600e54600160601b90046001600160a01b03161561140757600e54600160601b90046001600160a01b0316915061141c565b600a546201000090046001600160a01b031691505b600d546000906127109061143b90600160d01b900461ffff1686614c9e565b6114459190614cb5565b9150505b9250929050565b61145b60003361246f565b6114775760405162461bcd60e51b8152600401610f1190614c36565b60405163c3c5a54760e01b81523060048201819052906daaeb6d7670e522a718067333cd4e9063c3c5a547906024016020604051808303816000875af11580156114c5573d6000803e3d6000fd5b505050506040513d601f19601f820116820180604052508101906114e99190614cd7565b1580156114f35750825b1561156d57604051633e9f1edf60e11b81526001600160a01b038083166004830152831660248201526daaeb6d7670e522a718067333cd4e90637d3e3dbe906044015b600060405180830381600087803b15801561155057600080fd5b505af1158015611564573d6000803e3d6000fd5b50505050505050565b82156115b557604051632cc5350560e21b81526001600160a01b038083166004830152831660248201526daaeb6d7670e522a718067333cd4e9063b314d41490604401611536565b60405163034a0dc160e41b81526001600160a01b0382166004820152600060248201526daaeb6d7670e522a718067333cd4e906334a0dc1090604401600060405180830381600087803b15801561160b57600080fd5b505af115801561161f573d6000803e3d6000fd5b5050604051631761612360e11b81526001600160a01b03841660048201526daaeb6d7670e522a718067333cd4e9250632ec2c2469150602401600060405180830381600087803b15801561155057600080fd5b505050565b60008281526008602052604090206001015461169281613249565b6116728383613253565b6116a46132d9565b600c546001600160a01b0316156116f55760405162461bcd60e51b815260206004820152601560248201527414dc1b1a5d08185b1c9958591e4818dc99585d1959605a1b6044820152606401610f11565b600b80546001600160a01b0319166001600160a01b038816908117909155604051633b00fbc160e11b8152637601f7829061173e90889088908890889088903390600401614cf4565b6020604051808303816000875af115801561175d573d6000803e3d6000fd5b505050506040513d601f19601f820116820180604052508101906117819190614d45565b600c80546001600160a01b0319166001600160a01b0392909216919091179055505050505050565b6117b460003361246f565b6117d05760405162461bcd60e51b8152600401610f1190614c36565b600e80546001600160a01b03909216600160601b026001600160601b03909216919091179055565b61180360003361246f565b61181f5760405162461bcd60e51b8152600401610f1190614c36565b6012805460ff60a01b198116600160a01b9182900460ff1615909102179055565b6001600160a01b03811633146118b05760405162461bcd60e51b815260206004820152602f60248201527f416363657373436f6e74726f6c3a2063616e206f6e6c792072656e6f756e636560448201526e103937b632b9903337b91039b2b63360891b6064820152608401610f11565b611091828261333a565b600c546001600160a01b03161561191f5760405162461bcd60e51b8152602060048201526024808201527f43616e6e6f74207769746864726177207769746820616e2061637469766520736044820152631c1b1a5d60e21b6064820152608401610f11565b600e54600090600160601b90046001600160a01b031661195057600a546201000090046001600160a01b0316611964565b600e54600160601b90046001600160a01b03165b90506000816001600160a01b03164760405160006040518083038185875af1925050503d80600081146119b3576040519150601f19603f3d011682016040523d82523d6000602084013e6119b8565b606091505b50509050806110915760405162461bcd60e51b8152602060048201526012602482015271436f756c64206e6f7420776974686472617760701b6044820152606401610f11565b6009546000906001600160a01b031615801590611a6757506000600954600160f81b900460ff166002811115611a3657611a366140a7565b1480611a675750808015611a6757506001600954600160f81b900460ff166002811115611a6557611a656140a7565b145b80611a98575080158015611a9857506002600954600160f81b900460ff166002811115611a9657611a966140a7565b145b15611b64576009546040516370a0823160e01b8152336004820152600160a01b82046001600160581b0316916001600160a01b0316906370a08231906024016020604051808303816000875af1158015611af6573d6000803e3d6000fd5b505050506040513d601f19601f82011682018060405250810190611b1a9190614d62565b1015611b645760405162461bcd60e51b81526020600482015260196024820152783237903737ba1037bbb7103932b8bab4b932b2103a37b5b2b760391b6044820152606401610f11565b600054600d54600160901b900463ffffffff164210801590611b955750600d54600160b01b900463ffffffff164211155b611bd95760405162461bcd60e51b815260206004820152601560248201527429b0b632b99030b932903737ba1030b1ba34bb329760591b6044820152606401610f11565b601254600160a01b900460ff1615611c335760405162461bcd60e51b815260206004820152601b60248201527f53616c65206d7573742062652061637469766520746f206d696e7400000000006044820152606401610f11565b600d5462010000900463ffffffff16611c4c8483614d7b565b1115611c6a5760405162461bcd60e51b8152600401610f1190614d8e565b600d5462010000900463ffffffff16811115611cb35760405162461bcd60e51b815260206004820152600860248201526714d3d3110813d55560c21b6044820152606401610f11565b600e54611cca9084906001600160601b0316614c9e565b341015611d0e5760405162461bcd60e51b8152602060048201526012602482015271496e73756666696369656e742066756e647360701b6044820152606401610f11565b600d54600160301b900463ffffffff1615611d8257600d54600160301b900463ffffffff16831115611d825760405162461bcd60e51b815260206004820152601c60248201527f4578636565646564206d6178206e756d62657220706572206d696e74000000006044820152606401610f11565b611d8c84846133a1565b60005b83811015611de757604080516001600160a01b0387168152602081018490526001909301927f30385c845b448a36257a6a1716e6ad2e1bc2cbe333cde1e69fe849ad6511adfe910160405180910390a1600101611d8f565b5050505050565b61167283838360405180602001604052806000815250612b01565b611e1460003361246f565b611e305760405162461bcd60e51b8152600401610f1190614c36565b60106110918282614e09565b6000610fab8261319b565b60108054611e5490614c02565b80601f0160208091040260200160405190810160405280929190818152602001828054611e8090614c02565b8015611ecd5780601f10611ea257610100808354040283529160200191611ecd565b820191906000526020600020905b815481529060010190602001808311611eb057829003601f168201915b505050505081565b611ee060003361246f565b611efc5760405162461bcd60e51b8152600401610f1190614c36565b600054600d5462010000900463ffffffff16611f188383614d7b565b10611f355760405162461bcd60e51b8152600401610f1190614d8e565b60005b8281101561167257611f5e33611f4e8385614d7b565b611f59906001614d7b565b6133a1565b80611f6881614c85565b915050611f38565b60006001600160a01b038216611f99576040516323d3ad8160e21b815260040160405180910390fd5b506001600160a01b03166000908152600560205260409020546001600160401b031690565b611fc66132d9565b611fd060006133bb565b565b6009546001906001600160a01b03161580159061203b57506000600954600160f81b900460ff16600281111561200a5761200a6140a7565b148061203b575080801561203b57506001600954600160f81b900460ff166002811115612039576120396140a7565b145b8061206c57508015801561206c57506002600954600160f81b900460ff16600281111561206a5761206a6140a7565b145b15612138576009546040516370a0823160e01b8152336004820152600160a01b82046001600160581b0316916001600160a01b0316906370a08231906024016020604051808303816000875af11580156120ca573d6000803e3d6000fd5b505050506040513d601f19601f820116820180604052508101906120ee9190614d62565b10156121385760405162461bcd60e51b81526020600482015260196024820152783237903737ba1037bbb7103932b8bab4b932b2103a37b5b2b760391b6044820152606401610f11565b600d54600160501b900463ffffffff1642108015906121665750600d54600160701b900463ffffffff164211155b6121a05760405162461bcd60e51b815260206004820152600b60248201526a6e6f742070726573616c6560a81b6044820152606401610f11565b600054601254600160a01b900460ff16156121fd5760405162461bcd60e51b815260206004820152601b60248201527f53616c65206d7573742062652061637469766520746f206d696e7400000000006044820152606401610f11565b600d5462010000900463ffffffff166122168883614d7b565b11156122345760405162461bcd60e51b8152600401610f1190614d8e565b6122b784848080602002602001604051908101604052809392919081815260200183836020028082843760009201919091525050600f546040516bffffffffffffffffffffffff193360601b166020820152603481018c9052605481018b9052909250607401905060405160208183030381529060405280519060200120613417565b6122f25760405162461bcd60e51b815260206004820152600c60248201526b1b9bdd08185c1c1c9bdd995960a21b6044820152606401610f11565b6122fc8786614c9e565b3410156123405760405162461bcd60e51b8152602060048201526012602482015271496e73756666696369656e742066756e647360701b6044820152606401610f11565b858761234b33611f70565b6123559190614d7b565b11156123955760405162461bcd60e51b815260206004820152600f60248201526e6d696e74656420746f6f206d616e7960881b6044820152606401610f11565b61239f33886133a1565b60005b878110156123f15760408051338152602081018490526001909301927f30385c845b448a36257a6a1716e6ad2e1bc2cbe333cde1e69fe849ad6511adfe910160405180910390a16001016123a2565b5050505050505050565b600c546001600160a01b03166124235760405162461bcd60e51b8152600401610f1190614aef565b81156124315761243161342d565b60005b81518110156116725761245f82828151811061245257612452614c59565b6020026020010151613054565b61246881614c85565b9050612434565b60009182526008602090815260408084206001600160a01b0393909316845291905290205460ff1690565b6124a560003361246f565b6124c15760405162461bcd60e51b8152600401610f1190614c36565b60116110918282614e09565b606060038054610fc090614c02565b61109182826134d0565b600a54610100900460ff16158080156125065750600a54600160ff909116105b806125205750303b1580156125205750600a5460ff166001145b6125835760405162461bcd60e51b815260206004820152602e60248201527f496e697469616c697a61626c653a20636f6e747261637420697320616c72656160448201526d191e481a5b9a5d1a585b1a5e995960921b6064820152608401610f11565b600a805460ff1916600117905580156125a657600a805461ff0019166101001790555b6125af866133bb565b6125ba600087613253565b84516002906125c99082614e09565b5060208501516003906125dc9082614e09565b50600080556060840151601380546001600160a01b039283166001600160a01b031990911617905583516009805460208701516001600160581b0316600160a01b026001600160f81b0319909116929093169190911791909117808255604085015185929182906001600160f81b0316600160f81b836002811115612663576126636140a7565b0217905550905050604051806101800160405280866040015115158152602001866060015115158152602001866080015163ffffffff1681526020018660a0015163ffffffff1681526020018660c0015163ffffffff1681526020018660e0015163ffffffff16815260200186610100015163ffffffff16815260200186610120015163ffffffff16815260200186610140015161ffff1681526020018661016001516001600160601b031681526020018661018001516001600160a01b03168152602001866101a00151815250600d60008201518160000160006101000a81548160ff02191690831515021790555060208201518160000160016101000a81548160ff02191690831515021790555060408201518160000160026101000a81548163ffffffff021916908363ffffffff16021790555060608201518160000160066101000a81548163ffffffff021916908363ffffffff160217905550608082015181600001600a6101000a81548163ffffffff021916908363ffffffff16021790555060a082015181600001600e6101000a81548163ffffffff021916908363ffffffff16021790555060c08201518160000160126101000a81548163ffffffff021916908363ffffffff16021790555060e08201518160000160166101000a81548163ffffffff021916908363ffffffff16021790555061010082015181600001601a6101000a81548161ffff021916908361ffff1602179055506101208201518160010160006101000a8154816001600160601b0302191690836001600160601b0316021790555061014082015181600101600c6101000a8154816001600160a01b0302191690836001600160a01b03160217905550610160820151816002015590505060006001600160a01b0316826001600160a01b03161415801561291357506000846040015151115b1561299157601280546001600160a01b0319166001600160a01b03841690811790915560408581015190516342b53ffd60e11b815263856a7ffa9161295a9160040161401c565b600060405180830381600087803b15801561297457600080fd5b505af1158015612988573d6000803e3d6000fd5b505050506129b5565b83516011906129a09082614e09565b5060208401516010906129b39082614e09565b505b801561129a57600a805461ff0019169055604051600181527f7f26b83ff96e1f2b6a682f133852f6798a09c465da95921460cefb38474024989060200160405180910390a1505050505050565b612a0d60003361246f565b612a295760405162461bcd60e51b8152600401610f1190614c36565b600d5460ff16612a895760405162461bcd60e51b815260206004820152602560248201527f63616e6e6f742061646a7573742073697a65206f66207468697320636f6c6c6560448201526431ba34b7b760d91b6064820152608401610f11565b8063ffffffff16612a9960005490565b1115612add5760405162461bcd60e51b8152602060048201526013602482015272063616e6e6f742064656372656173652063617606c1b6044820152606401610f11565b600d805463ffffffff909216620100000265ffffffff000019909216919091179055565b612b0c8484846110fc565b6001600160a01b0383163b15612b4557612b28848484846134e4565b612b45576040516368d2bf6b60e11b815260040160405180910390fd5b50505050565b600c546001600160a01b0316612b735760405162461bcd60e51b8152600401610f1190614aef565b612b7b61342d565b600b54600c5460405163730e582f60e11b81526001600160a01b039283169263e61cb05e92612bbb929116908a908a908a908a908a908a90600401614ec8565b600060405180830381600087803b158015612bd557600080fd5b505af1158015612be9573d6000803e3d6000fd5b50505050505050505050565b612c0060003361246f565b612c1c5760405162461bcd60e51b8152600401610f1190614c36565b600054600d54819062010000900463ffffffff16612c3a8483614d7b565b1115612c585760405162461bcd60e51b8152600401610f1190614d8e565b8183015b80831015611de757612c978585848603818110612c7b57612c7b614c59565b9050602002016020810190612c90919061443e565b60016133a1565b7f30385c845b448a36257a6a1716e6ad2e1bc2cbe333cde1e69fe849ad6511adfe8585848603818110612ccc57612ccc614c59565b9050602002016020810190612ce1919061443e565b604080516001600160a01b039092168252602082018690520160405180910390a1600190920191612c5c565b6060610fab826135d0565b600082815260086020526040902060010154612d3381613249565b611672838361333a565b6000612d4884611e3c565b9050336001600160a01b03821614612d9957612d648133610dc8565b612d995733612d7285611043565b6001600160a01b031614612d99576040516309e3bb1d60e31b815260040160405180910390fd5b6000848152601460209081526040918290206001600160a01b03861660a086901b67ffffffffffffffff60a01b16811790915591516001600160401b038516815286917f4e06b4e7000e659094299b3533b47b6aa8ad048e95e872d23d1f4ee55af89cfe910160405180910390a350505050565b6012546060906001600160a01b0316612e2d5760118054610fc090614c02565b601260009054906101000a90046001600160a01b03166001600160a01b031663e8a3d4856040518163ffffffff1660e01b8152600401600060405180830381865afa158015612e80573d6000803e3d6000fd5b505050506040513d6000823e601f3d908101601f19168201604052612ea89190810190614f21565b905090565b600d54600090600160901b900463ffffffff164210801590612ede5750600d54600160b01b900463ffffffff164211155b8015612ea8575050601254600160a01b900460ff161590565b612f0260003361246f565b612f1e5760405162461bcd60e51b8152600401610f1190614c36565b600d805467ffffffffffffffff60501b1916600160501b63ffffffff9485160263ffffffff60701b191617600160701b9290931691909102919091179055565b612f666132d9565b6001600160a01b038116612fcb5760405162461bcd60e51b815260206004820152602660248201527f4f776e61626c653a206e6577206f776e657220697320746865207a65726f206160448201526564647265737360d01b6064820152608401610f11565b612fd4816133bb565b50565b612fe260003361246f565b612ffe5760405162461bcd60e51b8152600401610f1190614c36565b601280546001600160a01b0319166001600160a01b0392909216919091179055565b61302b60003361246f565b6130475760405162461bcd60e51b8152600401610f1190614c36565b8060096116728282614f97565b6040516370a0823160e01b81523060048201526000906001600160a01b038316906370a0823190602401602060405180830381865afa15801561309b573d6000803e3d6000fd5b505050506040513d601f19601f820116820180604052508101906130bf9190614d62565b600c5460405163a9059cbb60e01b81526001600160a01b0391821660048201526024810183905291925083169063a9059cbb906044016020604051808303816000875af1158015613114573d6000803e3d6000fd5b505050506040513d601f19601f820116820180604052508101906116729190614cd7565b600061314382613683565b80610fab5750506001600160e01b031916632b424ad760e21b1490565b6000805482108015610fab575050600090815260046020526040902054600160e01b161590565b81613191816136c6565b611672838361377f565b6000816000548110156131f05760008181526004602052604081205490600160e01b821690036131ee575b806000036131e75750600019016000818152600460205260409020546131c6565b9392505050565b505b604051636f96cda160e11b815260040160405180910390fd5b612b458484848461381f565b600b54604051636e5f691960e01b81526001600160a01b0390911690636e5f69199061153690869086908690600401615034565b612fd481336138a0565b61325d828261246f565b6110915760008281526008602090815260408083206001600160a01b03851684529091529020805460ff191660011790556132953390565b6001600160a01b0316816001600160a01b0316837f2f8788117e7eff1d82e926ec794901d17c78024a50270940304540a733656f0d60405160405180910390a45050565b600a546001600160a01b0362010000909104163314611fd05760405162461bcd60e51b815260206004820181905260248201527f4f776e61626c653a2063616c6c6572206973206e6f7420746865206f776e65726044820152606401610f11565b613344828261246f565b156110915760008281526008602090815260408083206001600160a01b0385168085529252808320805460ff1916905551339285917ff6391f5c32d9c69d2a47ea670b442974b53935d1edc7fd64eb21e047a839171b9190a45050565b6110918282604051806020016040528060008152506138f9565b600a80546001600160a01b038381166201000081810262010000600160b01b031985161790945560405193909204169182907f8be0079c531659141344cd1fd0a4f28419497f9722a3daafe3b4186f6b6457e090600090a35050565b600082613424858461395f565b14949350505050565b600c546040516000916001600160a01b03169047908381818185875af1925050503d806000811461347a576040519150601f19603f3d011682016040523d82523d6000602084013e61347f565b606091505b5050905080612fd45760405162461bcd60e51b815260206004820152601f60248201527f436f756c64206e6f74207472616e736665722045544820746f2073706c6974006044820152606401610f11565b816134da816136c6565b61167283836139ac565b604051630a85bd0160e11b81526000906001600160a01b0385169063150b7a0290613519903390899088908890600401615097565b6020604051808303816000875af1925050508015613554575060408051601f3d908101601f19168201909252613551918101906150d4565b60015b6135b2573d808015613582576040519150601f19603f3d011682016040523d82523d6000602084013e613587565b606091505b5080516000036135aa576040516368d2bf6b60e11b815260040160405180910390fd5b805181602001fd5b6001600160e01b031916630a85bd0160e11b1490505b949350505050565b60606135db82613160565b6135f857604051630a14c4b560e41b815260040160405180910390fd5b6012546001600160a01b03161561367a5760125460405163c87b56dd60e01b8152600481018490526001600160a01b039091169063c87b56dd90602401600060405180830381865afa158015613652573d6000803e3d6000fd5b505050506040513d6000823e601f3d908101601f19168201604052610fab9190810190614f21565b610fab82613a41565b600063152a902d60e11b6001600160e01b0319831614806136a857506136a882613ac4565b806136b757506136b782613af9565b80610fab5750610fab82613ac4565b6daaeb6d7670e522a718067333cd4e3b15612fd457604051633185c44d60e21b81523060048201526001600160a01b03821660248201526daaeb6d7670e522a718067333cd4e9063c617113490604401602060405180830381865afa158015613733573d6000803e3d6000fd5b505050506040513d601f19601f820116820180604052508101906137579190614cd7565b612fd457604051633b79c77360e21b81526001600160a01b0382166004820152602401610f11565b600061378a82611e3c565b9050336001600160a01b038216146137c3576137a68133610dc8565b6137c3576040516367d9dca160e11b815260040160405180910390fd5b60008281526006602052604080822080546001600160a01b0319166001600160a01b0387811691821790925591518593918516917f8c5be1e5ebec7d5bd14f71427d1e84f3dd0314c0f7b2291e5b200ac8c7c3b92591a4505050565b836001600160a01b038116331461383957613839336136c6565b600d54610100900460ff16158061386857506001600160a01b038516158061386857506001600160a01b038416155b611de75760405162461bcd60e51b81526020600482015260096024820152681cdbdd5b189bdd5b9960ba1b6044820152606401610f11565b6138aa828261246f565b611091576138b781613b47565b6138c2836020613b59565b6040516020016138d39291906150f1565b60408051601f198184030181529082905262461bcd60e51b8252610f119160040161401c565b6139038383613cf4565b6001600160a01b0383163b15611672576000548281035b61392d60008683806001019450866134e4565b61394a576040516368d2bf6b60e11b815260040160405180910390fd5b81811061391a578160005414611de757600080fd5b600081815b84518110156139a4576139908286838151811061398357613983614c59565b6020026020010151613dff565b91508061399c81614c85565b915050613964565b509392505050565b336001600160a01b038316036139d55760405163b06307db60e01b815260040160405180910390fd5b3360008181526007602090815260408083206001600160a01b03871680855290835292819020805460ff191686151590811790915590519081529192917f17307eab39ab6107e8899845ad3d59bd9653f200f220920489ca2b5937696c31910160405180910390a35050565b6060613a4c82613160565b613a6957604051630a14c4b560e41b815260040160405180910390fd5b6000613a73613e2e565b90508051600003613a9357604051806020016040528060008152506131e7565b80613a9d84613e3d565b604051602001613aae929190615166565b6040516020818303038152906040529392505050565b60006001600160e01b03198216637965db0b60e01b1480610fab57506301ffc9a760e01b6001600160e01b0319831614610fab565b60006301ffc9a760e01b6001600160e01b031983161480613b2a57506380ac58cd60e01b6001600160e01b03198316145b80610fab5750506001600160e01b031916635b5e139f60e01b1490565b6060610fab6001600160a01b03831660145b60606000613b68836002614c9e565b613b73906002614d7b565b6001600160401b03811115613b8a57613b8a614149565b6040519080825280601f01601f191660200182016040528015613bb4576020820181803683370190505b509050600360fc1b81600081518110613bcf57613bcf614c59565b60200101906001600160f81b031916908160001a905350600f60fb1b81600181518110613bfe57613bfe614c59565b60200101906001600160f81b031916908160001a9053506000613c22846002614c9e565b613c2d906001614d7b565b90505b6001811115613ca5576f181899199a1a9b1b9c1cb0b131b232b360811b85600f1660108110613c6157613c61614c59565b1a60f81b828281518110613c7757613c77614c59565b60200101906001600160f81b031916908160001a90535060049490941c93613c9e81615195565b9050613c30565b5083156131e75760405162461bcd60e51b815260206004820181905260248201527f537472696e67733a20686578206c656e67746820696e73756666696369656e746044820152606401610f11565b6000805490829003613d195760405163b562e8dd60e01b815260040160405180910390fd5b613d266000848385613209565b6001600160a01b03831660008181526005602090815260408083208054680100000000000000018802019055848352600490915281206001851460e11b4260a01b178317905582840190839083907fddf252ad1be2c89b69c2b068fc378daa952ba7f163c4a11628f55a4df523b3ef8180a4600183015b818114613dd557808360007fddf252ad1be2c89b69c2b068fc378daa952ba7f163c4a11628f55a4df523b3ef600080a4600101613d9d565b5081600003613df657604051622e076360e81b815260040160405180910390fd5b60005550505050565b6000818310613e1b5760008281526020849052604090206131e7565b60008381526020839052604090206131e7565b606060108054610fc090614c02565b604080516080019081905280825b600183039250600a81066030018353600a900480613e4b5750819003601f19909101908152919050565b6001600160a01b0381168114612fd457600080fd5b60008083601f840112613e9c57600080fd5b5081356001600160401b03811115613eb357600080fd5b6020830191508360208260051b850101111561144957600080fd5b803563ffffffff81168114613ee257600080fd5b919050565b8035613ee281613e75565b600080600080600080600060a0888a031215613f0d57600080fd5b8735613f1881613e75565b965060208801356001600160401b0380821115613f3457600080fd5b613f408b838c01613e8a565b909850965060408a0135915080821115613f5957600080fd5b50613f668a828b01613e8a565b9095509350613f79905060608901613ece565b91506080880135613f8981613e75565b8091505092959891949750929550565b6001600160e01b031981168114612fd457600080fd5b600060208284031215613fc157600080fd5b81356131e781613f99565b60005b83811015613fe7578181015183820152602001613fcf565b50506000910152565b60008151808452614008816020860160208601613fcc565b601f01601f19169290920160200192915050565b6020815260006131e76020830184613ff0565b60006020828403121561404157600080fd5b5035919050565b6000806040838503121561405b57600080fd5b823561406681613e75565b946020939093013593505050565b6000806040838503121561408757600080fd5b61409083613ece565b915061409e60208401613ece565b90509250929050565b634e487b7160e01b600052602160045260246000fd5b6001600160a01b03841681526001600160581b038316602082015260608101600383106140fa57634e487b7160e01b600052602160045260246000fd5b826040830152949350505050565b60008060006060848603121561411d57600080fd5b833561412881613e75565b9250602084013561413881613e75565b929592945050506040919091013590565b634e487b7160e01b600052604160045260246000fd5b6040516101c081016001600160401b038111828210171561418257614182614149565b60405290565b604051601f8201601f191681016001600160401b03811182821017156141b0576141b0614149565b604052919050565b600082601f8301126141c957600080fd5b813560206001600160401b038211156141e4576141e4614149565b8160051b6141f3828201614188565b928352848101820192828101908785111561420d57600080fd5b83870192505b8483101561423557823561422681613e75565b82529183019190830190614213565b979650505050505050565b600080600080600080600080600060e08a8c03121561425e57600080fd5b893561426981613e75565b985060208a0135975060408a01356001600160401b038082111561428c57600080fd5b6142988d838e016141b8565b985060608c01359150808211156142ae57600080fd5b6142ba8d838e01613e8a565b909850965060808c01359150808211156142d357600080fd5b506142e08c828d01613e8a565b90955093506142f3905060a08b01613ece565b915060c08a013561430381613e75565b809150509295985092959850929598565b6000806040838503121561432757600080fd5b50508035926020909101359150565b8015158114612fd457600080fd5b8035613ee281614336565b6000806040838503121561436257600080fd5b823561436d81614336565b9150602083013561437d81613e75565b809150509250929050565b6000806040838503121561439b57600080fd5b82359150602083013561437d81613e75565b600080600080600080608087890312156143c657600080fd5b86356143d181613e75565b955060208701356001600160401b03808211156143ed57600080fd5b6143f98a838b01613e8a565b9097509550604089013591508082111561441257600080fd5b5061441f89828a01613e8a565b9094509250614432905060608801613ece565b90509295509295509295565b60006020828403121561445057600080fd5b81356131e781613e75565b60006001600160401b0382111561447457614474614149565b50601f01601f191660200190565b600082601f83011261449357600080fd5b81356144a66144a18261445b565b614188565b8181528460208386010111156144bb57600080fd5b816020850160208301376000918101602001919091529392505050565b6000602082840312156144ea57600080fd5b81356001600160401b0381111561450057600080fd5b6135c884828501614482565b60008060008060006080868803121561452457600080fd5b85359450602086013593506040860135925060608601356001600160401b0381111561454f57600080fd5b61455b88828901613e8a565b969995985093965092949392505050565b6000806040838503121561457f57600080fd5b8235915060208301356001600160401b0381111561459c57600080fd5b611445858286016141b8565b600080604083850312156145bb57600080fd5b82356145c681613e75565b9150602083013561437d81614336565b803561ffff81168114613ee257600080fd5b80356001600160601b0381168114613ee257600080fd5b60006080828403121561461157600080fd5b604051608081016001600160401b03828210818311171561463457614634614149565b81604052829350843591508082111561464c57600080fd5b61465886838701614482565b8352602085013591508082111561466e57600080fd5b61467a86838701614482565b6020840152604085013591508082111561469357600080fd5b506146a085828601614482565b60408301525060608301356146b481613e75565b6060919091015292915050565b6001600160581b0381168114612fd457600080fd5b60038110612fd457600080fd5b6000606082840312156146f557600080fd5b604051606081018181106001600160401b038211171561471757614717614149565b604052905080823561472881613e75565b81526020830135614738816146c1565b6020820152604083013561474b816146d6565b6040919091015292915050565b600080600080600060e0868803121561477057600080fd5b853561477b81613e75565b945060208601356001600160401b038082111561479757600080fd5b908701906101c0828a0312156147ac57600080fd5b6147b461415f565b8235828111156147c357600080fd5b6147cf8b828601614482565b8252506020830135828111156147e457600080fd5b6147f08b828601614482565b60208301525061480260408401614344565b604082015261481360608401614344565b606082015261482460808401613ece565b608082015261483560a08401613ece565b60a082015261484660c08401613ece565b60c082015261485760e08401613ece565b60e082015261010061486a818501613ece565b9082015261012061487c848201613ece565b9082015261014061488e8482016145d6565b908201526101606148a08482016145e8565b908201526101806148b2848201613ee7565b908201526101a09283013592810192909252909450604087013590808211156148da57600080fd5b506148e7888289016145ff565b9350506148f787606088016146e3565b915061490560c08701613ee7565b90509295509295909350565b60006020828403121561492357600080fd5b6131e782613ece565b6000806000806080858703121561494257600080fd5b843561494d81613e75565b9350602085013561495d81613e75565b92506040850135915060608501356001600160401b0381111561497f57600080fd5b61498b87828801614482565b91505092959194509250565b600080600080600080608087890312156149b057600080fd5b86356001600160401b03808211156149c757600080fd5b6149d38a838b01613e8a565b909850965060208901359150808211156149ec57600080fd5b506149f989828a01613e8a565b9095509350614a0c905060408801613ece565b91506060870135614a1c81613e75565b809150509295509295509295565b60008060208385031215614a3d57600080fd5b82356001600160401b03811115614a5357600080fd5b614a5f85828601613e8a565b90969095509350505050565b600080600060608486031215614a8057600080fd5b833592506020840135614a9281613e75565b915060408401356001600160401b0381168114614aae57600080fd5b809150509250925092565b60008060408385031215614acc57600080fd5b823561436d81613e75565b600060608284031215614ae957600080fd5b50919050565b60208082526015908201527414dc1b1a5d081b9bdd0818dc99585d1959081e595d605a1b604082015260600190565b8183526000602080850194508260005b85811015614b5c578135614b4181613e75565b6001600160a01b031687529582019590820190600101614b2e565b509495945050505050565b8183526000602080850194508260005b85811015614b5c5763ffffffff614b8d83613ece565b1687529582019590820190600101614b77565b600060018060a01b03808b168352808a16602084015260c06040840152614bcb60c08401898b614b1e565b8381036060850152614bde81888a614b67565b63ffffffff969096166080850152509290921660a090910152509695505050505050565b600181811c90821680614c1657607f821691505b602082108103614ae957634e487b7160e01b600052602260045260246000fd5b60208082526009908201526837b7363ca0b236b4b760b91b604082015260600190565b634e487b7160e01b600052603260045260246000fd5b634e487b7160e01b600052601160045260246000fd5b600060018201614c9757614c97614c6f565b5060010190565b8082028115828204841417610fab57610fab614c6f565b600082614cd257634e487b7160e01b600052601260045260246000fd5b500490565b600060208284031215614ce957600080fd5b81516131e781614336565b608081526000614d0860808301888a614b1e565b8281036020840152614d1b818789614b67565b63ffffffff95909516604084015250506001600160a01b0391909116606090910152949350505050565b600060208284031215614d5757600080fd5b81516131e781613e75565b600060208284031215614d7457600080fd5b5051919050565b80820180821115610fab57610fab614c6f565b6020808252818101527f507572636861736520776f756c6420657863656564206d617820737570706c79604082015260600190565b601f82111561167257600081815260208120601f850160051c81016020861015614dea5750805b601f850160051c820191505b8181101561129a57828155600101614df6565b81516001600160401b03811115614e2257614e22614149565b614e3681614e308454614c02565b84614dc3565b602080601f831160018114614e6b5760008415614e535750858301515b600019600386901b1c1916600185901b17855561129a565b600085815260208120601f198616915b82811015614e9a57888601518255948401946001909101908401614e7b565b5085821015614eb85787850151600019600388901b60f8161c191681555b5050505050600190811b01905550565b600060018060a01b03808a16835260a06020840152614eeb60a08401898b614b1e565b8381036040850152614efe81888a614b67565b63ffffffff96909616606085015250929092166080909101525095945050505050565b600060208284031215614f3357600080fd5b81516001600160401b03811115614f4957600080fd5b8201601f81018413614f5a57600080fd5b8051614f686144a18261445b565b818152856020838501011115614f7d57600080fd5b614f8e826020830160208601613fcc565b95945050505050565b8135614fa281613e75565b81546001600160a01b031981166001600160a01b039290921691821783556020840135614fce816146c1565b6affffffffffffffffffffff60a01b60a09190911b166001600160f81b0319918216831781178455604085013591615005836146d6565b6003831061502357634e487b7160e01b600052602160045260246000fd5b921760f89190911b90911617905550565b6001600160a01b038481168252602080830185905260606040840181905284519084018190526000928583019290916080860190855b8181101561508857855185168352948301949183019160010161506a565b50909998505050505050505050565b6001600160a01b03858116825284166020820152604081018390526080606082018190526000906150ca90830184613ff0565b9695505050505050565b6000602082840312156150e657600080fd5b81516131e781613f99565b7f416363657373436f6e74726f6c3a206163636f756e7420000000000000000000815260008351615129816017850160208801613fcc565b7001034b99036b4b9b9b4b733903937b6329607d1b601791840191820152835161515a816028840160208801613fcc565b01602801949350505050565b60008351615178818460208801613fcc565b83519083019061518c818360208801613fcc565b01949350505050565b6000816151a4576151a4614c6f565b50600019019056fea2646970667358221220db1af359e403ee826e038ea4b535a4e17ac38a3dccdfe2066065f72e87d072c764736f6c63430008110033",
  "linkReferences": {},
  "deployedLinkReferences": {}
}