{
  "_format": "hh-sol-artifact-1",
  "contractName": "DCNT4907A",
  "sourceName": "contracts/DCNT4907A.sol",
  "abi": [
    {
      "inputs": [],
      "name": "ApprovalCallerNotOwnerNorApproved",
      "type": "error"
    },
    {
      "inputs": [],
      "name": "ApprovalQueryForNonexistentToken",
      "type": "error"
    },
    {
      "inputs": [],
      "name": "ApproveToCaller",
      "type": "error"
    },
    {
      "inputs": [],
      "name": "BalanceQueryForZeroAddress",
      "type": "error"
    },
    {
      "inputs": [],
      "name": "MintERC2309QuantityExceedsLimit",
      "type": "error"
    },
    {
      "inputs": [],
      "name": "MintToZeroAddress",
      "type": "error"
    },
    {
      "inputs": [],
      "name": "MintZeroQuantity",
      "type": "error"
    },
    {
      "inputs": [],
      "name": "OwnerQueryForNonexistentToken",
      "type": "error"
    },
    {
      "inputs": [],
      "name": "OwnershipNotInitializedForExtraData",
      "type": "error"
    },
    {
      "inputs": [],
      "name": "SetUserCallerNotOwnerNorApproved",
      "type": "error"
    },
    {
      "inputs": [],
      "name": "TransferCallerNotOwnerNorApproved",
      "type": "error"
    },
    {
      "inputs": [],
      "name": "TransferFromIncorrectOwner",
      "type": "error"
    },
    {
      "inputs": [],
      "name": "TransferToNonERC721ReceiverImplementer",
      "type": "error"
    },
    {
      "inputs": [],
      "name": "TransferToZeroAddress",
      "type": "error"
    },
    {
      "inputs": [],
      "name": "URIQueryForNonexistentToken",
      "type": "error"
    },
    {
      "anonymous": false,
      "inputs": [
        {
          "indexed": true,
          "internalType": "address",
          "name": "owner",
          "type": "address"
        },
        {
          "indexed": true,
          "internalType": "address",
          "name": "approved",
          "type": "address"
        },
        {
          "indexed": true,
          "internalType": "uint256",
          "name": "tokenId",
          "type": "uint256"
        }
      ],
      "name": "Approval",
      "type": "event"
    },
    {
      "anonymous": false,
      "inputs": [
        {
          "indexed": true,
          "internalType": "address",
          "name": "owner",
          "type": "address"
        },
        {
          "indexed": true,
          "internalType": "address",
          "name": "operator",
          "type": "address"
        },
        {
          "indexed": false,
          "internalType": "bool",
          "name": "approved",
          "type": "bool"
        }
      ],
      "name": "ApprovalForAll",
      "type": "event"
    },
    {
      "anonymous": false,
      "inputs": [
        {
          "indexed": true,
          "internalType": "uint256",
          "name": "fromTokenId",
          "type": "uint256"
        },
        {
          "indexed": false,
          "internalType": "uint256",
          "name": "toTokenId",
          "type": "uint256"
        },
        {
          "indexed": true,
          "internalType": "address",
          "name": "from",
          "type": "address"
        },
        {
          "indexed": true,
          "internalType": "address",
          "name": "to",
          "type": "address"
        }
      ],
      "name": "ConsecutiveTransfer",
      "type": "event"
    },
    {
      "anonymous": false,
      "inputs": [
        {
          "indexed": false,
          "internalType": "uint8",
          "name": "version",
          "type": "uint8"
        }
      ],
      "name": "Initialized",
      "type": "event"
    },
    {
      "anonymous": false,
      "inputs": [
        {
          "indexed": false,
          "internalType": "address",
          "name": "sender",
          "type": "address"
        },
        {
          "indexed": false,
          "internalType": "uint256",
          "name": "tokenId_",
          "type": "uint256"
        }
      ],
      "name": "Minted",
      "type": "event"
    },
    {
      "anonymous": false,
      "inputs": [
        {
          "indexed": true,
          "internalType": "address",
          "name": "previousOwner",
          "type": "address"
        },
        {
          "indexed": true,
          "internalType": "address",
          "name": "newOwner",
          "type": "address"
        }
      ],
      "name": "OwnershipTransferred",
      "type": "event"
    },
    {
      "anonymous": false,
      "inputs": [
        {
          "indexed": true,
          "internalType": "address",
          "name": "from",
          "type": "address"
        },
        {
          "indexed": true,
          "internalType": "address",
          "name": "to",
          "type": "address"
        },
        {
          "indexed": true,
          "internalType": "uint256",
          "name": "tokenId",
          "type": "uint256"
        }
      ],
      "name": "Transfer",
      "type": "event"
    },
    {
      "anonymous": false,
      "inputs": [
        {
          "indexed": true,
          "internalType": "uint256",
          "name": "tokenId",
          "type": "uint256"
        },
        {
          "indexed": true,
          "internalType": "address",
          "name": "user",
          "type": "address"
        },
        {
          "indexed": false,
          "internalType": "uint64",
          "name": "expires",
          "type": "uint64"
        }
      ],
      "name": "UpdateUser",
      "type": "event"
    },
    {
      "inputs": [],
      "name": "MAX_TOKENS",
      "outputs": [
        {
          "internalType": "uint256",
          "name": "",
          "type": "uint256"
        }
      ],
      "stateMutability": "view",
      "type": "function"
    },
    {
      "inputs": [
        {
          "internalType": "uint256",
          "name": "newCap",
          "type": "uint256"
        }
      ],
      "name": "adjustCap",
      "outputs": [],
      "stateMutability": "nonpayable",
      "type": "function"
    },
    {
      "inputs": [
        {
          "internalType": "address",
          "name": "to",
          "type": "address"
        },
        {
          "internalType": "uint256",
          "name": "tokenId",
          "type": "uint256"
        }
      ],
      "name": "approve",
      "outputs": [],
      "stateMutability": "nonpayable",
      "type": "function"
    },
    {
      "inputs": [
        {
          "internalType": "address",
          "name": "owner",
          "type": "address"
        }
      ],
      "name": "balanceOf",
      "outputs": [
        {
          "internalType": "uint256",
          "name": "",
          "type": "uint256"
        }
      ],
      "stateMutability": "view",
      "type": "function"
    },
    {
      "inputs": [],
      "name": "baseURI",
      "outputs": [
        {
          "internalType": "string",
          "name": "",
          "type": "string"
        }
      ],
      "stateMutability": "view",
      "type": "function"
    },
    {
      "inputs": [],
      "name": "contractURI",
      "outputs": [
        {
          "internalType": "string",
          "name": "",
          "type": "string"
        }
      ],
      "stateMutability": "view",
      "type": "function"
    },
    {
      "inputs": [
        {
          "internalType": "address[]",
          "name": "accounts",
          "type": "address[]"
        },
        {
          "internalType": "uint32[]",
          "name": "percentAllocations",
          "type": "uint32[]"
        },
        {
          "internalType": "uint32",
          "name": "distributorFee",
          "type": "uint32"
        }
      ],
      "name": "createSplit",
      "outputs": [],
      "stateMutability": "nonpayable",
      "type": "function"
    },
    {
      "inputs": [
        {
          "internalType": "address",
          "name": "account",
          "type": "address"
        },
        {
          "internalType": "uint256",
          "name": "withdrawETH",
          "type": "uint256"
        },
        {
          "internalType": "contract ERC20[]",
          "name": "tokens",
          "type": "address[]"
        },
        {
          "internalType": "address[]",
          "name": "accounts",
          "type": "address[]"
        },
        {
          "internalType": "uint32[]",
          "name": "percentAllocations",
          "type": "uint32[]"
        },
        {
          "internalType": "uint32",
          "name": "distributorFee",
          "type": "uint32"
        },
        {
          "internalType": "address",
          "name": "distributorAddress",
          "type": "address"
        }
      ],
      "name": "distributeAndWithdraw",
      "outputs": [],
      "stateMutability": "nonpayable",
      "type": "function"
    },
    {
      "inputs": [
        {
          "internalType": "contract ERC20",
          "name": "token",
          "type": "address"
        },
        {
          "internalType": "address[]",
          "name": "accounts",
          "type": "address[]"
        },
        {
          "internalType": "uint32[]",
          "name": "percentAllocations",
          "type": "uint32[]"
        },
        {
          "internalType": "uint32",
          "name": "distributorFee",
          "type": "uint32"
        },
        {
          "internalType": "address",
          "name": "distributorAddress",
          "type": "address"
        }
      ],
      "name": "distributeERC20",
      "outputs": [],
      "stateMutability": "nonpayable",
      "type": "function"
    },
    {
      "inputs": [
        {
          "internalType": "address[]",
          "name": "accounts",
          "type": "address[]"
        },
        {
          "internalType": "uint32[]",
          "name": "percentAllocations",
          "type": "uint32[]"
        },
        {
          "internalType": "uint32",
          "name": "distributorFee",
          "type": "uint32"
        },
        {
          "internalType": "address",
          "name": "distributorAddress",
          "type": "address"
        }
      ],
      "name": "distributeETH",
      "outputs": [],
      "stateMutability": "nonpayable",
      "type": "function"
    },
    {
      "inputs": [],
      "name": "flipSaleState",
      "outputs": [],
      "stateMutability": "nonpayable",
      "type": "function"
    },
    {
      "inputs": [
        {
          "internalType": "uint256",
          "name": "tokenId",
          "type": "uint256"
        }
      ],
      "name": "getApproved",
      "outputs": [
        {
          "internalType": "address",
          "name": "",
          "type": "address"
        }
      ],
      "stateMutability": "view",
      "type": "function"
    },
    {
      "inputs": [],
      "name": "hasAdjustableCap",
      "outputs": [
        {
          "internalType": "bool",
          "name": "",
          "type": "bool"
        }
      ],
      "stateMutability": "view",
      "type": "function"
    },
    {
      "inputs": [
        {
          "internalType": "address",
          "name": "_owner",
          "type": "address"
        },
        {
          "components": [
            {
              "internalType": "string",
              "name": "name",
              "type": "string"
            },
            {
              "internalType": "string",
              "name": "symbol",
              "type": "string"
            },
            {
              "internalType": "bool",
              "name": "hasAdjustableCap",
              "type": "bool"
            },
            {
              "internalType": "uint256",
              "name": "maxTokens",
              "type": "uint256"
            },
            {
              "internalType": "uint256",
              "name": "tokenPrice",
              "type": "uint256"
            },
            {
              "internalType": "uint256",
              "name": "maxTokenPurchase",
              "type": "uint256"
            },
            {
              "internalType": "bytes32",
              "name": "presaleMerkleRoot",
              "type": "bytes32"
            },
            {
              "internalType": "uint256",
              "name": "presaleStart",
              "type": "uint256"
            },
            {
              "internalType": "uint256",
              "name": "presaleEnd",
              "type": "uint256"
            },
            {
              "internalType": "uint256",
              "name": "saleStart",
              "type": "uint256"
            },
            {
              "internalType": "uint256",
              "name": "saleEnd",
              "type": "uint256"
            },
            {
              "internalType": "uint256",
              "name": "royaltyBPS",
              "type": "uint256"
            }
          ],
          "internalType": "struct EditionConfig",
          "name": "_editionConfig",
          "type": "tuple"
        },
        {
          "components": [
            {
              "internalType": "string",
              "name": "contractURI",
              "type": "string"
            },
            {
              "internalType": "string",
              "name": "metadataURI",
              "type": "string"
            },
            {
              "internalType": "bytes",
              "name": "metadataRendererInit",
              "type": "bytes"
            },
            {
              "internalType": "address",
              "name": "parentIP",
              "type": "address"
            }
          ],
          "internalType": "struct MetadataConfig",
          "name": "_metadataConfig",
          "type": "tuple"
        },
        {
          "components": [
            {
              "internalType": "address",
              "name": "tokenAddress",
              "type": "address"
            },
            {
              "internalType": "uint88",
              "name": "minBalance",
              "type": "uint88"
            },
            {
              "internalType": "enum SaleType",
              "name": "saleType",
              "type": "uint8"
            }
          ],
          "internalType": "struct TokenGateConfig",
          "name": "_tokenGateConfig",
          "type": "tuple"
        },
        {
          "internalType": "address",
          "name": "_metadataRenderer",
          "type": "address"
        },
        {
          "internalType": "address",
          "name": "_splitMain",
          "type": "address"
        }
      ],
      "name": "initialize",
      "outputs": [],
      "stateMutability": "nonpayable",
      "type": "function"
    },
    {
      "inputs": [
        {
          "internalType": "address",
          "name": "owner",
          "type": "address"
        },
        {
          "internalType": "address",
          "name": "operator",
          "type": "address"
        }
      ],
      "name": "isApprovedForAll",
      "outputs": [
        {
          "internalType": "bool",
          "name": "",
          "type": "bool"
        }
      ],
      "stateMutability": "view",
      "type": "function"
    },
    {
      "inputs": [],
      "name": "maxTokenPurchase",
      "outputs": [
        {
          "internalType": "uint256",
          "name": "",
          "type": "uint256"
        }
      ],
      "stateMutability": "view",
      "type": "function"
    },
    {
      "inputs": [],
      "name": "metadataRenderer",
      "outputs": [
        {
          "internalType": "address",
          "name": "",
          "type": "address"
        }
      ],
      "stateMutability": "view",
      "type": "function"
    },
    {
      "inputs": [
        {
          "internalType": "uint256",
          "name": "numberOfTokens",
          "type": "uint256"
        }
      ],
      "name": "mint",
      "outputs": [],
      "stateMutability": "payable",
      "type": "function"
    },
    {
      "inputs": [
        {
          "internalType": "address[]",
          "name": "recipients",
          "type": "address[]"
        }
      ],
      "name": "mintAirdrop",
      "outputs": [],
      "stateMutability": "nonpayable",
      "type": "function"
    },
    {
      "inputs": [
        {
          "internalType": "uint256",
          "name": "quantity",
          "type": "uint256"
        },
        {
          "internalType": "uint256",
          "name": "maxQuantity",
          "type": "uint256"
        },
        {
          "internalType": "uint256",
          "name": "pricePerToken",
          "type": "uint256"
        },
        {
          "internalType": "bytes32[]",
          "name": "merkleProof",
          "type": "bytes32[]"
        }
      ],
      "name": "mintPresale",
      "outputs": [],
      "stateMutability": "payable",
      "type": "function"
    },
    {
      "inputs": [],
      "name": "name",
      "outputs": [
        {
          "internalType": "string",
          "name": "",
          "type": "string"
        }
      ],
      "stateMutability": "view",
      "type": "function"
    },
    {
      "inputs": [],
      "name": "owner",
      "outputs": [
        {
          "internalType": "address",
          "name": "",
          "type": "address"
        }
      ],
      "stateMutability": "view",
      "type": "function"
    },
    {
      "inputs": [
        {
          "internalType": "uint256",
          "name": "tokenId",
          "type": "uint256"
        }
      ],
      "name": "ownerOf",
      "outputs": [
        {
          "internalType": "address",
          "name": "",
          "type": "address"
        }
      ],
      "stateMutability": "view",
      "type": "function"
    },
    {
      "inputs": [],
      "name": "parentIP",
      "outputs": [
        {
          "internalType": "address",
          "name": "",
          "type": "address"
        }
      ],
      "stateMutability": "view",
      "type": "function"
    },
    {
      "inputs": [],
      "name": "presaleEnd",
      "outputs": [
        {
          "internalType": "uint256",
          "name": "",
          "type": "uint256"
        }
      ],
      "stateMutability": "view",
      "type": "function"
    },
    {
      "inputs": [],
      "name": "presaleStart",
      "outputs": [
        {
          "internalType": "uint256",
          "name": "",
          "type": "uint256"
        }
      ],
      "stateMutability": "view",
      "type": "function"
    },
    {
      "inputs": [],
      "name": "renounceOwnership",
      "outputs": [],
      "stateMutability": "nonpayable",
      "type": "function"
    },
    {
      "inputs": [
        {
          "internalType": "uint256",
          "name": "numReserved",
          "type": "uint256"
        }
      ],
      "name": "reserveDCNT",
      "outputs": [],
      "stateMutability": "nonpayable",
      "type": "function"
    },
    {
      "inputs": [],
      "name": "royaltyBPS",
      "outputs": [
        {
          "internalType": "uint256",
          "name": "",
          "type": "uint256"
        }
      ],
      "stateMutability": "view",
      "type": "function"
    },
    {
      "inputs": [
        {
          "internalType": "uint256",
          "name": "tokenId",
          "type": "uint256"
        },
        {
          "internalType": "uint256",
          "name": "salePrice",
          "type": "uint256"
        }
      ],
      "name": "royaltyInfo",
      "outputs": [
        {
          "internalType": "address",
          "name": "receiver",
          "type": "address"
        },
        {
          "internalType": "uint256",
          "name": "royaltyAmount",
          "type": "uint256"
        }
      ],
      "stateMutability": "view",
      "type": "function"
    },
    {
      "inputs": [
        {
          "internalType": "address",
          "name": "from",
          "type": "address"
        },
        {
          "internalType": "address",
          "name": "to",
          "type": "address"
        },
        {
          "internalType": "uint256",
          "name": "tokenId",
          "type": "uint256"
        }
      ],
      "name": "safeTransferFrom",
      "outputs": [],
      "stateMutability": "nonpayable",
      "type": "function"
    },
    {
      "inputs": [
        {
          "internalType": "address",
          "name": "from",
          "type": "address"
        },
        {
          "internalType": "address",
          "name": "to",
          "type": "address"
        },
        {
          "internalType": "uint256",
          "name": "tokenId",
          "type": "uint256"
        },
        {
          "internalType": "bytes",
          "name": "_data",
          "type": "bytes"
        }
      ],
      "name": "safeTransferFrom",
      "outputs": [],
      "stateMutability": "nonpayable",
      "type": "function"
    },
    {
      "inputs": [],
      "name": "saleEnd",
      "outputs": [
        {
          "internalType": "uint256",
          "name": "",
          "type": "uint256"
        }
      ],
      "stateMutability": "view",
      "type": "function"
    },
    {
      "inputs": [],
      "name": "saleIsActive",
      "outputs": [
        {
          "internalType": "bool",
          "name": "_saleIsActive",
          "type": "bool"
        }
      ],
      "stateMutability": "view",
      "type": "function"
    },
    {
      "inputs": [],
      "name": "saleIsPaused",
      "outputs": [
        {
          "internalType": "bool",
          "name": "",
          "type": "bool"
        }
      ],
      "stateMutability": "view",
      "type": "function"
    },
    {
      "inputs": [],
      "name": "saleStart",
      "outputs": [
        {
          "internalType": "uint256",
          "name": "",
          "type": "uint256"
        }
      ],
      "stateMutability": "view",
      "type": "function"
    },
    {
      "inputs": [
        {
          "internalType": "address",
          "name": "operator",
          "type": "address"
        },
        {
          "internalType": "bool",
          "name": "approved",
          "type": "bool"
        }
      ],
      "name": "setApprovalForAll",
      "outputs": [],
      "stateMutability": "nonpayable",
      "type": "function"
    },
    {
      "inputs": [
        {
          "internalType": "string",
          "name": "uri",
          "type": "string"
        }
      ],
      "name": "setBaseURI",
      "outputs": [],
      "stateMutability": "nonpayable",
      "type": "function"
    },
    {
      "inputs": [
        {
          "internalType": "string",
          "name": "uri",
          "type": "string"
        }
      ],
      "name": "setContractURI",
      "outputs": [],
      "stateMutability": "nonpayable",
      "type": "function"
    },
    {
      "inputs": [
        {
          "internalType": "address",
          "name": "_metadataRenderer",
          "type": "address"
        }
      ],
      "name": "setMetadataRenderer",
      "outputs": [],
      "stateMutability": "nonpayable",
      "type": "function"
    },
    {
      "inputs": [
        {
          "internalType": "bytes32",
          "name": "_presaleMerkleRoot",
          "type": "bytes32"
        }
      ],
      "name": "setPresaleMerkleRoot",
      "outputs": [],
      "stateMutability": "nonpayable",
      "type": "function"
    },
    {
      "inputs": [
        {
          "internalType": "uint256",
          "name": "tokenId",
          "type": "uint256"
        },
        {
          "internalType": "address",
          "name": "user",
          "type": "address"
        },
        {
          "internalType": "uint64",
          "name": "expires",
          "type": "uint64"
        }
      ],
      "name": "setUser",
      "outputs": [],
      "stateMutability": "nonpayable",
      "type": "function"
    },
    {
      "inputs": [],
      "name": "splitMain",
      "outputs": [
        {
          "internalType": "address",
          "name": "",
          "type": "address"
        }
      ],
      "stateMutability": "view",
      "type": "function"
    },
    {
      "inputs": [],
      "name": "splitWallet",
      "outputs": [
        {
          "internalType": "address",
          "name": "",
          "type": "address"
        }
      ],
      "stateMutability": "view",
      "type": "function"
    },
    {
      "inputs": [
        {
          "internalType": "bytes4",
          "name": "interfaceId",
          "type": "bytes4"
        }
      ],
      "name": "supportsInterface",
      "outputs": [
        {
          "internalType": "bool",
          "name": "",
          "type": "bool"
        }
      ],
      "stateMutability": "view",
      "type": "function"
    },
    {
      "inputs": [],
      "name": "symbol",
      "outputs": [
        {
          "internalType": "string",
          "name": "",
          "type": "string"
        }
      ],
      "stateMutability": "view",
      "type": "function"
    },
    {
      "inputs": [],
      "name": "tokenGateConfig",
      "outputs": [
        {
          "internalType": "address",
          "name": "tokenAddress",
          "type": "address"
        },
        {
          "internalType": "uint88",
          "name": "minBalance",
          "type": "uint88"
        },
        {
          "internalType": "enum SaleType",
          "name": "saleType",
          "type": "uint8"
        }
      ],
      "stateMutability": "view",
      "type": "function"
    },
    {
      "inputs": [],
      "name": "tokenPrice",
      "outputs": [
        {
          "internalType": "uint256",
          "name": "",
          "type": "uint256"
        }
      ],
      "stateMutability": "view",
      "type": "function"
    },
    {
      "inputs": [
        {
          "internalType": "uint256",
          "name": "tokenId",
          "type": "uint256"
        }
      ],
      "name": "tokenURI",
      "outputs": [
        {
          "internalType": "string",
          "name": "",
          "type": "string"
        }
      ],
      "stateMutability": "view",
      "type": "function"
    },
    {
      "inputs": [],
      "name": "totalSupply",
      "outputs": [
        {
          "internalType": "uint256",
          "name": "",
          "type": "uint256"
        }
      ],
      "stateMutability": "view",
      "type": "function"
    },
    {
      "inputs": [
        {
          "internalType": "address",
          "name": "from",
          "type": "address"
        },
        {
          "internalType": "address",
          "name": "to",
          "type": "address"
        },
        {
          "internalType": "uint256",
          "name": "tokenId",
          "type": "uint256"
        }
      ],
      "name": "transferFrom",
      "outputs": [],
      "stateMutability": "nonpayable",
      "type": "function"
    },
    {
      "inputs": [
        {
          "internalType": "address",
          "name": "newOwner",
          "type": "address"
        }
      ],
      "name": "transferOwnership",
      "outputs": [],
      "stateMutability": "nonpayable",
      "type": "function"
    },
    {
      "inputs": [
        {
          "internalType": "uint256",
          "name": "transferETH",
          "type": "uint256"
        },
        {
          "internalType": "contract ERC20[]",
          "name": "tokens",
          "type": "address[]"
        }
      ],
      "name": "transferToSplit",
      "outputs": [],
      "stateMutability": "nonpayable",
      "type": "function"
    },
    {
      "inputs": [
        {
          "internalType": "uint256",
          "name": "newStart",
          "type": "uint256"
        },
        {
          "internalType": "uint256",
          "name": "newEnd",
          "type": "uint256"
        }
      ],
      "name": "updateSaleStartEnd",
      "outputs": [],
      "stateMutability": "nonpayable",
      "type": "function"
    },
    {
      "inputs": [
        {
          "internalType": "uint256",
          "name": "tokenId",
          "type": "uint256"
        }
      ],
      "name": "userExpires",
      "outputs": [
        {
          "internalType": "uint256",
          "name": "",
          "type": "uint256"
        }
      ],
      "stateMutability": "view",
      "type": "function"
    },
    {
      "inputs": [
        {
          "internalType": "uint256",
          "name": "tokenId",
          "type": "uint256"
        }
      ],
      "name": "userOf",
      "outputs": [
        {
          "internalType": "address",
          "name": "",
          "type": "address"
        }
      ],
      "stateMutability": "view",
      "type": "function"
    },
    {
      "inputs": [],
      "name": "withdraw",
      "outputs": [],
      "stateMutability": "nonpayable",
      "type": "function"
    }
  ],
  "bytecode": "0x60806040523480156200001157600080fd5b506200001d3362000023565b6200007f565b600980546001600160a01b038381166201000081810262010000600160b01b031985161790945560405193909204169182907f8be0079c531659141344cd1fd0a4f28419497f9722a3daafe3b4186f6b6457e090600090a35050565b613ee0806200008f6000396000f3fe6080604052600436106103755760003560e01c806379ab7c8e116101d1578063c4559d5a11610102578063e6c350c1116100a0578063f0cc8b621161006f578063f0cc8b6214610a3c578063f2fde38b14610a5c578063f47c84c514610a7c578063fd4fe8a814610a9257600080fd5b8063e6c350c1146109af578063e8a3d485146109c9578063e985e9c5146109de578063eb8d244414610a2757600080fd5b8063c9ef5eee116100dc578063c9ef5eee14610939578063d58d458a14610959578063de8801e514610979578063e030565e1461098f57600080fd5b8063c4559d5a146108d9578063c5953170146108f9578063c87b56dd1461091957600080fd5b8063a0712d681161016f578063b88d4fde11610149578063b88d4fde14610859578063b9c9d93a14610879578063c10b93581461088f578063c2f1f14a146108a557600080fd5b8063a0712d6814610810578063a22cb46514610823578063ab0bcc411461084357600080fd5b80638fc88c48116101ab5780638fc88c481461078a578063931cf0f4146107ba578063938e3d7b146107db57806395d89b41146107fb57600080fd5b806379ab7c8e146107305780637ff9b596146107505780638da5cb5b1461076657600080fd5b806328d7b276116102ab5780636c0360eb1161024957806370a082311161022357806370a08231146106c8578063713b9787146106e8578063715018a614610708578063727a612e1461071d57600080fd5b80636c0360eb146106735780636c1951ae1461068857806370319970146106a857600080fd5b80633ccfd60b116102855780633ccfd60b146105fe57806342842e0e1461061357806355f804b3146106335780636352211e1461065357600080fd5b806328d7b2761461058a5780632a55205a146105aa57806334918dfd146105e957600080fd5b80630e769b2b116103185780631dbdedbd116102f25780631dbdedbd146104e8578063229f3e291461053457806323b872dd1461054a578063284a44a81461056a57600080fd5b80630e769b2b1461048f57806317dc2587146104af57806318160ddd146104cf57600080fd5b806306fdde031161035457806306fdde03146103f1578063081812fc14610413578063095ea7b31461044b57806309aa3dcf1461046b57600080fd5b80625f16fb1461037a578063015893c51461039c57806301ffc9a7146103bc575b600080fd5b34801561038657600080fd5b5061039a610395366004612f60565b610ab2565b005b3480156103a857600080fd5b5061039a6103b7366004613007565b610b90565b3480156103c857600080fd5b506103dc6103d736600461309d565b610d1a565b60405190151581526020015b60405180910390f35b3480156103fd57600080fd5b50610406610d2b565b6040516103e89190613112565b34801561041f57600080fd5b5061043361042e366004613125565b610dbd565b6040516001600160a01b0390911681526020016103e8565b34801561045757600080fd5b5061039a61046636600461313e565b610e01565b34801561047757600080fd5b50610481600c5481565b6040519081526020016103e8565b34801561049b57600080fd5b50601754610433906001600160a01b031681565b3480156104bb57600080fd5b5061039a6104ca36600461316a565b610ea1565b3480156104db57600080fd5b5060015460005403610481565b3480156104f457600080fd5b50600854610525906001600160a01b03811690600160a01b81046001600160581b031690600160f81b900460ff1683565b6040516103e8939291906131a2565b34801561054057600080fd5b5061048160155481565b34801561055657600080fd5b5061039a6105653660046131ed565b610eb4565b34801561057657600080fd5b5061039a610585366004613325565b611042565b34801561059657600080fd5b5061039a6105a5366004613125565b6110ec565b3480156105b657600080fd5b506105ca6105c536600461316a565b6110f9565b604080516001600160a01b0390931683526020830191909152016103e8565b3480156105f557600080fd5b5061039a6111a6565b34801561060a57600080fd5b5061039a6111c2565b34801561061f57600080fd5b5061039a61062e3660046131ed565b6112d0565b34801561063f57600080fd5b5061039a61064e366004613476565b6112f0565b34801561065f57600080fd5b5061043361066e366004613125565b61130f565b34801561067f57600080fd5b5061040661131a565b34801561069457600080fd5b5061039a6106a3366004613125565b6113a8565b3480156106b457600080fd5b50601254610433906001600160a01b031681565b3480156106d457600080fd5b506104816106e33660046134aa565b611418565b3480156106f457600080fd5b50601854610433906001600160a01b031681565b34801561071457600080fd5b5061039a611466565b61039a61072b3660046134c7565b61147a565b34801561073c57600080fd5b5061039a61074b366004613527565b611885565b34801561075c57600080fd5b50610481600b5481565b34801561077257600080fd5b506009546201000090046001600160a01b0316610433565b34801561079657600080fd5b506104816107a5366004613125565b6000908152601a602052604090205460a01c90565b3480156107c657600080fd5b506009546103dc90600160b01b900460ff1681565b3480156107e757600080fd5b5061039a6107f6366004613476565b61190c565b34801561080757600080fd5b50610406611927565b61039a61081e366004613125565b611936565b34801561082f57600080fd5b5061039a61083e36600461357c565b611ccf565b34801561084f57600080fd5b50610481600d5481565b34801561086557600080fd5b5061039a6108743660046135b5565b611d65565b34801561088557600080fd5b5061048160135481565b34801561089b57600080fd5b50610481600e5481565b3480156108b157600080fd5b506104336108c0366004613125565b6000908152601a60205260409020544260a01b81110290565b3480156108e557600080fd5b5061039a6108f4366004613620565b611da9565b34801561090557600080fd5b5061039a6109143660046136b3565b611e7a565b34801561092557600080fd5b50610406610934366004613125565b611f6e565b34801561094557600080fd5b5061039a61095436600461383b565b611f79565b34801561096557600080fd5b5061039a610974366004613125565b612292565b34801561098557600080fd5b5061048160145481565b34801561099b57600080fd5b5061039a6109aa3660046139ac565b612354565b3480156109bb57600080fd5b50600f546103dc9060ff1681565b3480156109d557600080fd5b50610406612424565b3480156109ea57600080fd5b506103dc6109f93660046139fa565b6001600160a01b03918216600090815260076020908152604080832093909416825291909152205460ff1690565b348015610a3357600080fd5b506103dc6124d3565b348015610a4857600080fd5b50601954610433906001600160a01b031681565b348015610a6857600080fd5b5061039a610a773660046134aa565b6124fb565b348015610a8857600080fd5b50610481600a5481565b348015610a9e57600080fd5b5061039a610aad3660046134aa565b612571565b6000610ac66018546001600160a01b031690565b6001600160a01b03161415610af65760405162461bcd60e51b8152600401610aed90613a28565b60405180910390fd5b610aff8761259b565b6017546001600160a01b03166001600160a01b03166315811302610b2b6018546001600160a01b031690565b898989898989896040518963ffffffff1660e01b8152600401610b55989796959493929190613ad9565b600060405180830381600087803b158015610b6f57600080fd5b505af1158015610b83573d6000803e3d6000fd5b5050505050505050505050565b610b986126b8565b6000610bac6017546001600160a01b031690565b6001600160a01b03161415610bf75760405162461bcd60e51b815260206004820152601160248201527014dc1b1a5d13585a5b881b9bdd081cd95d607a1b6044820152606401610aed565b6000610c0b6018546001600160a01b031690565b6001600160a01b031614610c595760405162461bcd60e51b815260206004820152601560248201527414dc1b1a5d08185b1c9958591e4818dc99585d1959605a1b6044820152606401610aed565b6000610c6d6017546001600160a01b031690565b6001600160a01b0316637601f7828787878787336040518763ffffffff1660e01b8152600401610ca296959493929190613b3b565b602060405180830381600087803b158015610cbc57600080fd5b505af1158015610cd0573d6000803e3d6000fd5b505050506040513d601f19601f82011682018060405250810190610cf49190613b8c565b601880546001600160a01b0319166001600160a01b03831617905590505b505050505050565b6000610d2582612719565b92915050565b606060028054610d3a90613ba9565b80601f0160208091040260200160405190810160405280929190818152602001828054610d6690613ba9565b8015610db35780601f10610d8857610100808354040283529160200191610db3565b820191906000526020600020905b815481529060010190602001808311610d9657829003601f168201915b5050505050905090565b6000610dc882612741565b610de5576040516333d1c03960e21b815260040160405180910390fd5b506000908152600660205260409020546001600160a01b031690565b6000610e0c8261130f565b9050336001600160a01b03821614610e4557610e2881336109f9565b610e45576040516367d9dca160e11b815260040160405180910390fd5b60008281526006602052604080822080546001600160a01b0319166001600160a01b0387811691821790925591518593918516917f8c5be1e5ebec7d5bd14f71427d1e84f3dd0314c0f7b2291e5b200ac8c7c3b92591a4505050565b610ea96126b8565b600d91909155600e55565b6000610ebf82612768565b9050836001600160a01b0316816001600160a01b031614610ef25760405162a1148160e81b815260040160405180910390fd5b60008281526006602052604090208054338082146001600160a01b03881690911417610f3f57610f2286336109f9565b610f3f57604051632ce44b5f60e11b815260040160405180910390fd5b6001600160a01b038516610f6657604051633a954ecd60e21b815260040160405180910390fd5b8015610f7157600082555b6001600160a01b038681166000908152600560205260408082208054600019019055918716808252919020805460010190554260a01b17600160e11b17600085815260046020526040902055600160e11b8316610ffc5760018401600081815260046020526040902054610ffa576000548114610ffa5760008181526004602052604090208490555b505b83856001600160a01b0316876001600160a01b03167fddf252ad1be2c89b69c2b068fc378daa952ba7f163c4a11628f55a4df523b3ef60405160405180910390a4610d12565b60006110566018546001600160a01b031690565b6001600160a01b0316141561107d5760405162461bcd60e51b8152600401610aed90613a28565b871561109157611091868686868686611da9565b60005b87518110156110d5576110c58882815181106110b2576110b2613be4565b6020026020010151888888888888610ab2565b6110ce81613c10565b9050611094565b506110e18989896127d0565b505050505050505050565b6110f46126b8565b601655565b60008061110584612741565b6111455760405162461bcd60e51b81526020600482015260116024820152702737b732bc34b9ba32b73a103a37b5b2b760791b6044820152606401610aed565b6018546001600160a01b031615611169576018546001600160a01b0316915061117e565b6009546201000090046001600160a01b031691505b6000612710601354856111919190613c2b565b61119b9190613c4a565b9150505b9250929050565b6111ae6126b8565b600f805460ff19811660ff90911615179055565b6111ca6126b8565b60006111de6018546001600160a01b031690565b6001600160a01b0316146112405760405162461bcd60e51b8152602060048201526024808201527f43616e6e6f74207769746864726177207769746820616e2061637469766520736044820152631c1b1a5d60e21b6064820152608401610aed565b604051600090339047908381818185875af1925050503d8060008114611282576040519150601f19603f3d011682016040523d82523d6000602084013e611287565b606091505b50509050806112cd5760405162461bcd60e51b8152602060048201526012602482015271436f756c64206e6f7420776974686472617760701b6044820152606401610aed565b50565b6112eb83838360405180602001604052806000815250611d65565b505050565b6112f86126b8565b805161130b906010906020840190612e4a565b5050565b6000610d2582612768565b6010805461132790613ba9565b80601f016020809104026020016040519081016040528092919081815260200182805461135390613ba9565b80156113a05780601f10611375576101008083540402835291602001916113a0565b820191906000526020600020905b81548152906001019060200180831161138357829003601f168201915b505050505081565b6113b06126b8565b600054600a546113c08383613c6c565b106113dd5760405162461bcd60e51b8152600401610aed90613c84565b60005b828110156112eb57611406336113f68385613c6c565b611401906001613c6c565b612832565b8061141081613c10565b9150506113e0565b60006001600160a01b038216611441576040516323d3ad8160e21b815260040160405180910390fd5b506001600160a01b03166000908152600560205260409020546001600160401b031690565b61146e6126b8565b611478600061284c565b565b6008546001906001600160a01b0316158015906114e357506000600854600160f81b900460ff1660028111156114b2576114b261318c565b14806114e357508080156114e357506001600854600160f81b900460ff1660028111156114e1576114e161318c565b145b8061151457508015801561151457506002600854600160f81b900460ff1660028111156115125761151261318c565b145b156115ef576008546040516370a0823160e01b8152336004820152600160a01b82046001600160581b0316916001600160a01b0316906370a0823190602401602060405180830381600087803b15801561156d57600080fd5b505af1158015611581573d6000803e3d6000fd5b505050506040513d601f19601f820116820180604052508101906115a59190613cb9565b10156115ef5760405162461bcd60e51b81526020600482015260196024820152783237903737ba1037bbb7103932b8bab4b932b2103a37b5b2b760391b6044820152606401610aed565b601454421015801561160357506015544211155b61163d5760405162461bcd60e51b815260206004820152600b60248201526a6e6f742070726573616c6560a81b6044820152606401610aed565b600054600f5460ff16156116935760405162461bcd60e51b815260206004820152601b60248201527f53616c65206d7573742062652061637469766520746f206d696e7400000000006044820152606401610aed565b600a546116a08883613c6c565b11156116be5760405162461bcd60e51b8152600401610aed90613c84565b611741848480806020026020016040519081016040528093929190818152602001838360200280828437600092019190915250506016546040516bffffffffffffffffffffffff193360601b166020820152603481018c9052605481018b90529092506074019050604051602081830303815290604052805190602001206128a8565b61177c5760405162461bcd60e51b815260206004820152600c60248201526b1b9bdd08185c1c1c9bdd995960a21b6044820152606401610aed565b6117868786613c2b565b3410156117ca5760405162461bcd60e51b8152602060048201526012602482015271496e73756666696369656e742066756e647360701b6044820152606401610aed565b85876117d533611418565b6117df9190613c6c565b111561181f5760405162461bcd60e51b815260206004820152600f60248201526e6d696e74656420746f6f206d616e7960881b6044820152606401610aed565b6118293388612832565b60005b8781101561187b5760408051338152602081018490526001909301927f30385c845b448a36257a6a1716e6ad2e1bc2cbe333cde1e69fe849ad6511adfe910160405180910390a160010161182c565b5050505050505050565b60006118996018546001600160a01b031690565b6001600160a01b031614156118c05760405162461bcd60e51b8152600401610aed90613a28565b81156118ce576118ce6128be565b60005b81518110156112eb576118fc8282815181106118ef576118ef613be4565b602002602001015161259b565b61190581613c10565b90506118d1565b6119146126b8565b805161130b906011906020840190612e4a565b606060038054610d3a90613ba9565b6008546000906001600160a01b03161580159061199f57506000600854600160f81b900460ff16600281111561196e5761196e61318c565b148061199f575080801561199f57506001600854600160f81b900460ff16600281111561199d5761199d61318c565b145b806119d05750801580156119d057506002600854600160f81b900460ff1660028111156119ce576119ce61318c565b145b15611aab576008546040516370a0823160e01b8152336004820152600160a01b82046001600160581b0316916001600160a01b0316906370a0823190602401602060405180830381600087803b158015611a2957600080fd5b505af1158015611a3d573d6000803e3d6000fd5b505050506040513d601f19601f82011682018060405250810190611a619190613cb9565b1015611aab5760405162461bcd60e51b81526020600482015260196024820152783237903737ba1037bbb7103932b8bab4b932b2103a37b5b2b760391b6044820152606401610aed565b600054600d544210801590611ac25750600e544211155b611b065760405162461bcd60e51b815260206004820152601560248201527429b0b632b99030b932903737ba1030b1ba34bb329760591b6044820152606401610aed565b600f5460ff1615611b595760405162461bcd60e51b815260206004820152601b60248201527f53616c65206d7573742062652061637469766520746f206d696e7400000000006044820152606401610aed565b600a54611b668483613c6c565b1115611b845760405162461bcd60e51b8152600401610aed90613c84565b600a54811115611bc15760405162461bcd60e51b815260206004820152600860248201526714d3d3110813d55560c21b6044820152606401610aed565b82600b54611bcf9190613c2b565b341015611c135760405162461bcd60e51b8152602060048201526012602482015271496e73756666696369656e742066756e647360701b6044820152606401610aed565b600c5415611c6d57600c54831115611c6d5760405162461bcd60e51b815260206004820152601c60248201527f4578636565646564206d6178206e756d62657220706572206d696e74000000006044820152606401610aed565b611c773384612832565b60005b83811015611cc95760408051338152602081018490526001909301927f30385c845b448a36257a6a1716e6ad2e1bc2cbe333cde1e69fe849ad6511adfe910160405180910390a1600101611c7a565b50505050565b6001600160a01b038216331415611cf95760405163b06307db60e01b815260040160405180910390fd5b3360008181526007602090815260408083206001600160a01b03871680855290835292819020805460ff191686151590811790915590519081529192917f17307eab39ab6107e8899845ad3d59bd9653f200f220920489ca2b5937696c31910160405180910390a35050565b611d70848484610eb4565b6001600160a01b0383163b15611cc957611d8c84848484612972565b611cc9576040516368d2bf6b60e11b815260040160405180910390fd5b6000611dbd6018546001600160a01b031690565b6001600160a01b03161415611de45760405162461bcd60e51b8152600401610aed90613a28565b611dec6128be565b6017546001600160a01b03166001600160a01b031663e61cb05e611e186018546001600160a01b031690565b8888888888886040518863ffffffff1660e01b8152600401611e409796959493929190613cd2565b600060405180830381600087803b158015611e5a57600080fd5b505af1158015611e6e573d6000803e3d6000fd5b50505050505050505050565b611e826126b8565b600054600a548190611e948483613c6c565b1115611eb25760405162461bcd60e51b8152600401610aed90613c84565b8183015b80831015611f6757611ef18585848603818110611ed557611ed5613be4565b9050602002016020810190611eea91906134aa565b6001612832565b7f30385c845b448a36257a6a1716e6ad2e1bc2cbe333cde1e69fe849ad6511adfe8585848603818110611f2657611f26613be4565b9050602002016020810190611f3b91906134aa565b604080516001600160a01b039092168252602082018690520160405180910390a1600190920191611eb6565b5050505050565b6060610d2582612a6a565b600954610100900460ff1615808015611f995750600954600160ff909116105b80611fb35750303b158015611fb3575060095460ff166001145b6120165760405162461bcd60e51b815260206004820152602e60248201527f496e697469616c697a61626c653a20636f6e747261637420697320616c72656160448201526d191e481a5b9a5d1a585b1a5e995960921b6064820152608401610aed565b6009805460ff191660011790558015612039576009805461ff0019166101001790555b6120428761284c565b8551805161205891600291602090910190612e4a565b50602080870151805161206f926003920190612e4a565b5060008055606080870151600a556080870151600b5560a0870151600c55610120870151600d55610140870151600e5561016087015160135560408088015160098054911515600160b01b0260ff60b01b1990921691909117905590860151601980546001600160a01b039283166001600160a01b03199182161790915560178054868416921691909117905585516008805460208901516001600160581b0316600160a01b026001600160f81b031990911692909316919091179190911780825591860151869282906001600160f81b0316600160f81b8360028111156121595761215961318c565b0217905550505060c086015160165560e08601516014556101008601516015556001600160a01b0383161580159061219657506000856040015151115b1561221457601280546001600160a01b0319166001600160a01b03851690811790915560408681015190516342b53ffd60e11b815263856a7ffa916121dd91600401613112565b600060405180830381600087803b1580156121f757600080fd5b505af115801561220b573d6000803e3d6000fd5b50505050612243565b8451805161222a91601191602090910190612e4a565b506020808601518051612241926010920190612e4a565b505b8015612289576009805461ff0019169055604051600181527f7f26b83ff96e1f2b6a682f133852f6798a09c465da95921460cefb38474024989060200160405180910390a15b50505050505050565b61229a6126b8565b600954600160b01b900460ff166123015760405162461bcd60e51b815260206004820152602560248201527f63616e6e6f742061646a7573742073697a65206f66207468697320636f6c6c6560448201526431ba34b7b760d91b6064820152608401610aed565b8061230b60005490565b111561234f5760405162461bcd60e51b8152602060048201526013602482015272063616e6e6f742064656372656173652063617606c1b6044820152606401610aed565b600a55565b600061235f8461130f565b9050336001600160a01b038216146123b05761237b81336109f9565b6123b0573361238985610dbd565b6001600160a01b0316146123b0576040516309e3bb1d60e31b815260040160405180910390fd5b6000848152601a60209081526040918290206001600160a01b03861660a086901b67ffffffffffffffff60a01b16811790915591516001600160401b038516815286917f4e06b4e7000e659094299b3533b47b6aa8ad048e95e872d23d1f4ee55af89cfe910160405180910390a350505050565b6012546060906001600160a01b03166124445760118054610d3a90613ba9565b601260009054906101000a90046001600160a01b03166001600160a01b031663e8a3d4856040518163ffffffff1660e01b815260040160006040518083038186803b15801561249257600080fd5b505afa1580156124a6573d6000803e3d6000fd5b505050506040513d6000823e601f3d908101601f191682016040526124ce9190810190613d2b565b905090565b6000600d5442101580156124e95750600e544211155b80156124ce575050600f5460ff161590565b6125036126b8565b6001600160a01b0381166125685760405162461bcd60e51b815260206004820152602660248201527f4f776e61626c653a206e6577206f776e657220697320746865207a65726f206160448201526564647265737360d01b6064820152608401610aed565b6112cd8161284c565b6125796126b8565b601280546001600160a01b0319166001600160a01b0392909216919091179055565b6040516370a0823160e01b81523060048201526000906001600160a01b038316906370a082319060240160206040518083038186803b1580156125dd57600080fd5b505afa1580156125f1573d6000803e3d6000fd5b505050506040513d601f19601f820116820180604052508101906126159190613cb9565b9050816001600160a01b031663a9059cbb6126386018546001600160a01b031690565b6040516001600160e01b031960e084901b1681526001600160a01b03909116600482015260248101849052604401602060405180830381600087803b15801561268057600080fd5b505af1158015612694573d6000803e3d6000fd5b505050506040513d601f19601f820116820180604052508101906112eb9190613da1565b6009546001600160a01b03620100009091041633146114785760405162461bcd60e51b815260206004820181905260248201527f4f776e61626c653a2063616c6c6572206973206e6f7420746865206f776e65726044820152606401610aed565b600061272482612b2c565b80610d255750506001600160e01b031916632b424ad760e21b1490565b6000805482108015610d25575050600090815260046020526040902054600160e01b161590565b6000816000548110156127b757600081815260046020526040902054600160e01b81166127b5575b806127ae575060001901600081815260046020526040902054612790565b9392505050565b505b604051636f96cda160e11b815260040160405180910390fd5b601754604051636e5f691960e01b81526001600160a01b0390911690636e5f69199061280490869086908690600401613dbe565b600060405180830381600087803b15801561281e57600080fd5b505af1158015612289573d6000803e3d6000fd5b61130b828260405180602001604052806000815250612b51565b600980546001600160a01b038381166201000081810262010000600160b01b031985161790945560405193909204169182907f8be0079c531659141344cd1fd0a4f28419497f9722a3daafe3b4186f6b6457e090600090a35050565b6000826128b58584612bb7565b14949350505050565b60006128d26018546001600160a01b031690565b6001600160a01b03164760405160006040518083038185875af1925050503d806000811461291c576040519150601f19603f3d011682016040523d82523d6000602084013e612921565b606091505b50509050806112cd5760405162461bcd60e51b815260206004820152601f60248201527f436f756c64206e6f74207472616e736665722045544820746f2073706c6974006044820152606401610aed565b604051630a85bd0160e11b81526000906001600160a01b0385169063150b7a02906129a7903390899088908890600401613e21565b602060405180830381600087803b1580156129c157600080fd5b505af19250505080156129f1575060408051601f3d908101601f191682019092526129ee91810190613e5e565b60015b612a4c573d808015612a1f576040519150601f19603f3d011682016040523d82523d6000602084013e612a24565b606091505b508051612a44576040516368d2bf6b60e11b815260040160405180910390fd5b805181602001fd5b6001600160e01b031916630a85bd0160e11b1490505b949350505050565b6060612a7582612741565b612a9257604051630a14c4b560e41b815260040160405180910390fd5b6012546001600160a01b031615612b235760125460405163c87b56dd60e01b8152600481018490526001600160a01b039091169063c87b56dd9060240160006040518083038186803b158015612ae757600080fd5b505afa158015612afb573d6000803e3d6000fd5b505050506040513d6000823e601f3d908101601f19168201604052610d259190810190613d2b565b610d2582612c04565b600063152a902d60e11b6001600160e01b031983161480610d255750610d2582612c88565b612b5b8383612cd6565b6001600160a01b0383163b156112eb576000548281035b612b856000868380600101945086612972565b612ba2576040516368d2bf6b60e11b815260040160405180910390fd5b818110612b72578160005414611f6757600080fd5b600081815b8451811015612bfc57612be882868381518110612bdb57612bdb613be4565b6020026020010151612dcd565b915080612bf481613c10565b915050612bbc565b509392505050565b6060612c0f82612741565b612c2c57604051630a14c4b560e41b815260040160405180910390fd5b6000612c36612df9565b9050805160001415612c5757604051806020016040528060008152506127ae565b80612c6184612e08565b604051602001612c72929190613e7b565b6040516020818303038152906040529392505050565b60006301ffc9a760e01b6001600160e01b031983161480612cb957506380ac58cd60e01b6001600160e01b03198316145b80610d255750506001600160e01b031916635b5e139f60e01b1490565b60005481612cf75760405163b562e8dd60e01b815260040160405180910390fd5b6001600160a01b03831660008181526005602090815260408083208054680100000000000000018802019055848352600490915281206001851460e11b4260a01b178317905582840190839083907fddf252ad1be2c89b69c2b068fc378daa952ba7f163c4a11628f55a4df523b3ef8180a4600183015b818114612da657808360007fddf252ad1be2c89b69c2b068fc378daa952ba7f163c4a11628f55a4df523b3ef600080a4600101612d6e565b5081612dc457604051622e076360e81b815260040160405180910390fd5b60005550505050565b6000818310612de95760008281526020849052604090206127ae565b5060009182526020526040902090565b606060108054610d3a90613ba9565b604080516080019081905280825b600183039250600a81066030018353600a900480612e3357612e38565b612e16565b50819003601f19909101908152919050565b828054612e5690613ba9565b90600052602060002090601f016020900481019282612e785760008555612ebe565b82601f10612e9157805160ff1916838001178555612ebe565b82800160010185558215612ebe579182015b82811115612ebe578251825591602001919060010190612ea3565b50612eca929150612ece565b5090565b5b80821115612eca5760008155600101612ecf565b6001600160a01b03811681146112cd57600080fd5b60008083601f840112612f0a57600080fd5b5081356001600160401b03811115612f2157600080fd5b6020830191508360208260051b850101111561119f57600080fd5b803563ffffffff81168114612f5057600080fd5b919050565b8035612f5081612ee3565b600080600080600080600060a0888a031215612f7b57600080fd5b8735612f8681612ee3565b965060208801356001600160401b0380821115612fa257600080fd5b612fae8b838c01612ef8565b909850965060408a0135915080821115612fc757600080fd5b50612fd48a828b01612ef8565b9095509350612fe7905060608901612f3c565b91506080880135612ff781612ee3565b8091505092959891949750929550565b60008060008060006060868803121561301f57600080fd5b85356001600160401b038082111561303657600080fd5b61304289838a01612ef8565b9097509550602088013591508082111561305b57600080fd5b5061306888828901612ef8565b909450925061307b905060408701612f3c565b90509295509295909350565b6001600160e01b0319811681146112cd57600080fd5b6000602082840312156130af57600080fd5b81356127ae81613087565b60005b838110156130d55781810151838201526020016130bd565b83811115611cc95750506000910152565b600081518084526130fe8160208601602086016130ba565b601f01601f19169290920160200192915050565b6020815260006127ae60208301846130e6565b60006020828403121561313757600080fd5b5035919050565b6000806040838503121561315157600080fd5b823561315c81612ee3565b946020939093013593505050565b6000806040838503121561317d57600080fd5b50508035926020909101359150565b634e487b7160e01b600052602160045260246000fd5b6001600160a01b03841681526001600160581b038316602082015260608101600383106131df57634e487b7160e01b600052602160045260246000fd5b826040830152949350505050565b60008060006060848603121561320257600080fd5b833561320d81612ee3565b9250602084013561321d81612ee3565b929592945050506040919091013590565b634e487b7160e01b600052604160045260246000fd5b60405161018081016001600160401b03811182821017156132675761326761322e565b60405290565b604051601f8201601f191681016001600160401b03811182821017156132955761329561322e565b604052919050565b600082601f8301126132ae57600080fd5b813560206001600160401b038211156132c9576132c961322e565b8160051b6132d882820161326d565b92835284810182019282810190878511156132f257600080fd5b83870192505b8483101561331a57823561330b81612ee3565b825291830191908301906132f8565b979650505050505050565b600080600080600080600080600060e08a8c03121561334357600080fd5b893561334e81612ee3565b985060208a0135975060408a01356001600160401b038082111561337157600080fd5b61337d8d838e0161329d565b985060608c013591508082111561339357600080fd5b61339f8d838e01612ef8565b909850965060808c01359150808211156133b857600080fd5b506133c58c828d01612ef8565b90955093506133d8905060a08b01612f3c565b915060c08a01356133e881612ee3565b809150509295985092959850929598565b60006001600160401b038211156134125761341261322e565b50601f01601f191660200190565b600082601f83011261343157600080fd5b813561344461343f826133f9565b61326d565b81815284602083860101111561345957600080fd5b816020850160208301376000918101602001919091529392505050565b60006020828403121561348857600080fd5b81356001600160401b0381111561349e57600080fd5b612a6284828501613420565b6000602082840312156134bc57600080fd5b81356127ae81612ee3565b6000806000806000608086880312156134df57600080fd5b85359450602086013593506040860135925060608601356001600160401b0381111561350a57600080fd5b61351688828901612ef8565b969995985093965092949392505050565b6000806040838503121561353a57600080fd5b8235915060208301356001600160401b0381111561355757600080fd5b61119b8582860161329d565b80151581146112cd57600080fd5b8035612f5081613563565b6000806040838503121561358f57600080fd5b823561359a81612ee3565b915060208301356135aa81613563565b809150509250929050565b600080600080608085870312156135cb57600080fd5b84356135d681612ee3565b935060208501356135e681612ee3565b92506040850135915060608501356001600160401b0381111561360857600080fd5b61361487828801613420565b91505092959194509250565b6000806000806000806080878903121561363957600080fd5b86356001600160401b038082111561365057600080fd5b61365c8a838b01612ef8565b9098509650602089013591508082111561367557600080fd5b5061368289828a01612ef8565b9095509350613695905060408801612f3c565b915060608701356136a581612ee3565b809150509295509295509295565b600080602083850312156136c657600080fd5b82356001600160401b038111156136dc57600080fd5b6136e885828601612ef8565b90969095509350505050565b60006080828403121561370657600080fd5b604051608081016001600160401b0382821081831117156137295761372961322e565b81604052829350843591508082111561374157600080fd5b61374d86838701613420565b8352602085013591508082111561376357600080fd5b61376f86838701613420565b6020840152604085013591508082111561378857600080fd5b5061379585828601613420565b60408301525060608301356137a981612ee3565b6060919091015292915050565b6000606082840312156137c857600080fd5b604051606081018181106001600160401b03821117156137ea576137ea61322e565b60405290508082356137fb81612ee3565b815260208301356001600160581b038116811461381757600080fd5b602082015260408301356003811061382e57600080fd5b6040919091015292915050565b60008060008060008061010080888a03121561385657600080fd5b873561386181612ee3565b965060208801356001600160401b038082111561387d57600080fd5b90890190610180828c03121561389257600080fd5b61389a613244565b8235828111156138a957600080fd5b6138b58d828601613420565b8252506020830135828111156138ca57600080fd5b6138d68d828601613420565b6020830152506138e860408401613571565b6040820152606083013560608201526080830135608082015260a083013560a082015260c083013560c082015260e083013560e082015283830135848201526101209350838301358482015261014093508383013584820152610160935083830135848201528098505060408a013592508083111561396657600080fd5b505061397489828a016136f4565b94505061398488606089016137b6565b925061399260c08801612f55565b91506139a060e08801612f55565b90509295509295509295565b6000806000606084860312156139c157600080fd5b8335925060208401356139d381612ee3565b915060408401356001600160401b03811681146139ef57600080fd5b809150509250925092565b60008060408385031215613a0d57600080fd5b8235613a1881612ee3565b915060208301356135aa81612ee3565b60208082526015908201527414dc1b1a5d081b9bdd0818dc99585d1959081e595d605a1b604082015260600190565b8183526000602080850194508260005b85811015613a95578135613a7a81612ee3565b6001600160a01b031687529582019590820190600101613a67565b509495945050505050565b8183526000602080850194508260005b85811015613a955763ffffffff613ac683612f3c565b1687529582019590820190600101613ab0565b600060018060a01b03808b168352808a16602084015260c06040840152613b0460c08401898b613a57565b8381036060850152613b1781888a613aa0565b63ffffffff969096166080850152509290921660a090910152509695505050505050565b608081526000613b4f60808301888a613a57565b8281036020840152613b62818789613aa0565b63ffffffff95909516604084015250506001600160a01b0391909116606090910152949350505050565b600060208284031215613b9e57600080fd5b81516127ae81612ee3565b600181811c90821680613bbd57607f821691505b60208210811415613bde57634e487b7160e01b600052602260045260246000fd5b50919050565b634e487b7160e01b600052603260045260246000fd5b634e487b7160e01b600052601160045260246000fd5b6000600019821415613c2457613c24613bfa565b5060010190565b6000816000190483118215151615613c4557613c45613bfa565b500290565b600082613c6757634e487b7160e01b600052601260045260246000fd5b500490565b60008219821115613c7f57613c7f613bfa565b500190565b6020808252818101527f507572636861736520776f756c6420657863656564206d617820737570706c79604082015260600190565b600060208284031215613ccb57600080fd5b5051919050565b600060018060a01b03808a16835260a06020840152613cf560a08401898b613a57565b8381036040850152613d0881888a613aa0565b63ffffffff96909616606085015250929092166080909101525095945050505050565b600060208284031215613d3d57600080fd5b81516001600160401b03811115613d5357600080fd5b8201601f81018413613d6457600080fd5b8051613d7261343f826133f9565b818152856020838501011115613d8757600080fd5b613d988260208301602086016130ba565b95945050505050565b600060208284031215613db357600080fd5b81516127ae81613563565b6001600160a01b038481168252602080830185905260606040840181905284519084018190526000928583019290916080860190855b81811015613e12578551851683529483019491830191600101613df4565b50909998505050505050505050565b6001600160a01b0385811682528416602082015260408101839052608060608201819052600090613e54908301846130e6565b9695505050505050565b600060208284031215613e7057600080fd5b81516127ae81613087565b60008351613e8d8184602088016130ba565b835190830190613ea18183602088016130ba565b0194935050505056fea2646970667358221220d0414101000905ec911d9d5bf78ce99d6aa99429145c15ae3ebebc4ec6526a8264736f6c63430008090033",
  "linkReferences": {},
  "deployedLinkReferences": {}
}