{
  "_format": "hh-sol-artifact-1",
  "contractName": "DCNT721A",
  "sourceName": "contracts/DCNT721A.sol",
  "abi": [
    {
      "inputs": [],
      "name": "ApprovalCallerNotOwnerNorApproved",
      "type": "error"
    },
    {
      "inputs": [],
      "name": "ApprovalQueryForNonexistentToken",
      "type": "error"
    },
    {
      "inputs": [],
      "name": "ApproveToCaller",
      "type": "error"
    },
    {
      "inputs": [],
      "name": "BalanceQueryForZeroAddress",
      "type": "error"
    },
    {
      "inputs": [],
      "name": "MintERC2309QuantityExceedsLimit",
      "type": "error"
    },
    {
      "inputs": [],
      "name": "MintToZeroAddress",
      "type": "error"
    },
    {
      "inputs": [],
      "name": "MintZeroQuantity",
      "type": "error"
    },
    {
      "inputs": [
        {
          "internalType": "address",
          "name": "operator",
          "type": "address"
        }
      ],
      "name": "OperatorNotAllowed",
      "type": "error"
    },
    {
      "inputs": [],
      "name": "OwnerQueryForNonexistentToken",
      "type": "error"
    },
    {
      "inputs": [],
      "name": "OwnershipNotInitializedForExtraData",
      "type": "error"
    },
    {
      "inputs": [],
      "name": "TransferCallerNotOwnerNorApproved",
      "type": "error"
    },
    {
      "inputs": [],
      "name": "TransferFromIncorrectOwner",
      "type": "error"
    },
    {
      "inputs": [],
      "name": "TransferToNonERC721ReceiverImplementer",
      "type": "error"
    },
    {
      "inputs": [],
      "name": "TransferToZeroAddress",
      "type": "error"
    },
    {
      "inputs": [],
      "name": "URIQueryForNonexistentToken",
      "type": "error"
    },
    {
      "anonymous": false,
      "inputs": [
        {
          "indexed": true,
          "internalType": "address",
          "name": "owner",
          "type": "address"
        },
        {
          "indexed": true,
          "internalType": "address",
          "name": "approved",
          "type": "address"
        },
        {
          "indexed": true,
          "internalType": "uint256",
          "name": "tokenId",
          "type": "uint256"
        }
      ],
      "name": "Approval",
      "type": "event"
    },
    {
      "anonymous": false,
      "inputs": [
        {
          "indexed": true,
          "internalType": "address",
          "name": "owner",
          "type": "address"
        },
        {
          "indexed": true,
          "internalType": "address",
          "name": "operator",
          "type": "address"
        },
        {
          "indexed": false,
          "internalType": "bool",
          "name": "approved",
          "type": "bool"
        }
      ],
      "name": "ApprovalForAll",
      "type": "event"
    },
    {
      "anonymous": false,
      "inputs": [
        {
          "indexed": true,
          "internalType": "uint256",
          "name": "fromTokenId",
          "type": "uint256"
        },
        {
          "indexed": false,
          "internalType": "uint256",
          "name": "toTokenId",
          "type": "uint256"
        },
        {
          "indexed": true,
          "internalType": "address",
          "name": "from",
          "type": "address"
        },
        {
          "indexed": true,
          "internalType": "address",
          "name": "to",
          "type": "address"
        }
      ],
      "name": "ConsecutiveTransfer",
      "type": "event"
    },
    {
      "anonymous": false,
      "inputs": [
        {
          "indexed": false,
          "internalType": "uint8",
          "name": "version",
          "type": "uint8"
        }
      ],
      "name": "Initialized",
      "type": "event"
    },
    {
      "anonymous": false,
      "inputs": [
        {
          "indexed": false,
          "internalType": "address",
          "name": "sender",
          "type": "address"
        },
        {
          "indexed": false,
          "internalType": "uint256",
          "name": "tokenId_",
          "type": "uint256"
        }
      ],
      "name": "Minted",
      "type": "event"
    },
    {
      "anonymous": false,
      "inputs": [
        {
          "indexed": true,
          "internalType": "address",
          "name": "previousOwner",
          "type": "address"
        },
        {
          "indexed": true,
          "internalType": "address",
          "name": "newOwner",
          "type": "address"
        }
      ],
      "name": "OwnershipTransferred",
      "type": "event"
    },
    {
      "anonymous": false,
      "inputs": [
        {
          "indexed": true,
          "internalType": "address",
          "name": "from",
          "type": "address"
        },
        {
          "indexed": true,
          "internalType": "address",
          "name": "to",
          "type": "address"
        },
        {
          "indexed": true,
          "internalType": "uint256",
          "name": "tokenId",
          "type": "uint256"
        }
      ],
      "name": "Transfer",
      "type": "event"
    },
    {
      "inputs": [],
      "name": "MAX_TOKENS",
      "outputs": [
        {
          "internalType": "uint256",
          "name": "",
          "type": "uint256"
        }
      ],
      "stateMutability": "view",
      "type": "function"
    },
    {
      "inputs": [
        {
          "internalType": "uint256",
          "name": "newCap",
          "type": "uint256"
        }
      ],
      "name": "adjustCap",
      "outputs": [],
      "stateMutability": "nonpayable",
      "type": "function"
    },
    {
      "inputs": [
        {
          "internalType": "address",
          "name": "operator",
          "type": "address"
        },
        {
          "internalType": "uint256",
          "name": "tokenId",
          "type": "uint256"
        }
      ],
      "name": "approve",
      "outputs": [],
      "stateMutability": "nonpayable",
      "type": "function"
    },
    {
      "inputs": [
        {
          "internalType": "address",
          "name": "owner",
          "type": "address"
        }
      ],
      "name": "balanceOf",
      "outputs": [
        {
          "internalType": "uint256",
          "name": "",
          "type": "uint256"
        }
      ],
      "stateMutability": "view",
      "type": "function"
    },
    {
      "inputs": [],
      "name": "baseURI",
      "outputs": [
        {
          "internalType": "string",
          "name": "",
          "type": "string"
        }
      ],
      "stateMutability": "view",
      "type": "function"
    },
    {
      "inputs": [],
      "name": "contractURI",
      "outputs": [
        {
          "internalType": "string",
          "name": "",
          "type": "string"
        }
      ],
      "stateMutability": "view",
      "type": "function"
    },
    {
      "inputs": [
        {
          "internalType": "address[]",
          "name": "accounts",
          "type": "address[]"
        },
        {
          "internalType": "uint32[]",
          "name": "percentAllocations",
          "type": "uint32[]"
        },
        {
          "internalType": "uint32",
          "name": "distributorFee",
          "type": "uint32"
        }
      ],
      "name": "createSplit",
      "outputs": [],
      "stateMutability": "nonpayable",
      "type": "function"
    },
    {
      "inputs": [
        {
          "internalType": "address",
          "name": "account",
          "type": "address"
        },
        {
          "internalType": "uint256",
          "name": "withdrawETH",
          "type": "uint256"
        },
        {
          "internalType": "contract ERC20[]",
          "name": "tokens",
          "type": "address[]"
        },
        {
          "internalType": "address[]",
          "name": "accounts",
          "type": "address[]"
        },
        {
          "internalType": "uint32[]",
          "name": "percentAllocations",
          "type": "uint32[]"
        },
        {
          "internalType": "uint32",
          "name": "distributorFee",
          "type": "uint32"
        },
        {
          "internalType": "address",
          "name": "distributorAddress",
          "type": "address"
        }
      ],
      "name": "distributeAndWithdraw",
      "outputs": [],
      "stateMutability": "nonpayable",
      "type": "function"
    },
    {
      "inputs": [
        {
          "internalType": "contract ERC20",
          "name": "token",
          "type": "address"
        },
        {
          "internalType": "address[]",
          "name": "accounts",
          "type": "address[]"
        },
        {
          "internalType": "uint32[]",
          "name": "percentAllocations",
          "type": "uint32[]"
        },
        {
          "internalType": "uint32",
          "name": "distributorFee",
          "type": "uint32"
        },
        {
          "internalType": "address",
          "name": "distributorAddress",
          "type": "address"
        }
      ],
      "name": "distributeERC20",
      "outputs": [],
      "stateMutability": "nonpayable",
      "type": "function"
    },
    {
      "inputs": [
        {
          "internalType": "address[]",
          "name": "accounts",
          "type": "address[]"
        },
        {
          "internalType": "uint32[]",
          "name": "percentAllocations",
          "type": "uint32[]"
        },
        {
          "internalType": "uint32",
          "name": "distributorFee",
          "type": "uint32"
        },
        {
          "internalType": "address",
          "name": "distributorAddress",
          "type": "address"
        }
      ],
      "name": "distributeETH",
      "outputs": [],
      "stateMutability": "nonpayable",
      "type": "function"
    },
    {
      "inputs": [],
      "name": "flipSaleState",
      "outputs": [],
      "stateMutability": "nonpayable",
      "type": "function"
    },
    {
      "inputs": [
        {
          "internalType": "uint256",
          "name": "tokenId",
          "type": "uint256"
        }
      ],
      "name": "getApproved",
      "outputs": [
        {
          "internalType": "address",
          "name": "",
          "type": "address"
        }
      ],
      "stateMutability": "view",
      "type": "function"
    },
    {
      "inputs": [],
      "name": "hasAdjustableCap",
      "outputs": [
        {
          "internalType": "bool",
          "name": "",
          "type": "bool"
        }
      ],
      "stateMutability": "view",
      "type": "function"
    },
    {
      "inputs": [
        {
          "internalType": "address",
          "name": "_owner",
          "type": "address"
        },
        {
          "components": [
            {
              "internalType": "string",
              "name": "name",
              "type": "string"
            },
            {
              "internalType": "string",
              "name": "symbol",
              "type": "string"
            },
            {
              "internalType": "bool",
              "name": "hasAdjustableCap",
              "type": "bool"
            },
            {
              "internalType": "uint256",
              "name": "maxTokens",
              "type": "uint256"
            },
            {
              "internalType": "uint256",
              "name": "tokenPrice",
              "type": "uint256"
            },
            {
              "internalType": "uint256",
              "name": "maxTokenPurchase",
              "type": "uint256"
            },
            {
              "internalType": "bytes32",
              "name": "presaleMerkleRoot",
              "type": "bytes32"
            },
            {
              "internalType": "uint256",
              "name": "presaleStart",
              "type": "uint256"
            },
            {
              "internalType": "uint256",
              "name": "presaleEnd",
              "type": "uint256"
            },
            {
              "internalType": "uint256",
              "name": "saleStart",
              "type": "uint256"
            },
            {
              "internalType": "uint256",
              "name": "saleEnd",
              "type": "uint256"
            },
            {
              "internalType": "uint256",
              "name": "royaltyBPS",
              "type": "uint256"
            }
          ],
          "internalType": "struct EditionConfig",
          "name": "_editionConfig",
          "type": "tuple"
        },
        {
          "components": [
            {
              "internalType": "string",
              "name": "contractURI",
              "type": "string"
            },
            {
              "internalType": "string",
              "name": "metadataURI",
              "type": "string"
            },
            {
              "internalType": "bytes",
              "name": "metadataRendererInit",
              "type": "bytes"
            },
            {
              "internalType": "address",
              "name": "parentIP",
              "type": "address"
            }
          ],
          "internalType": "struct MetadataConfig",
          "name": "_metadataConfig",
          "type": "tuple"
        },
        {
          "components": [
            {
              "internalType": "address",
              "name": "tokenAddress",
              "type": "address"
            },
            {
              "internalType": "uint88",
              "name": "minBalance",
              "type": "uint88"
            },
            {
              "internalType": "enum SaleType",
              "name": "saleType",
              "type": "uint8"
            }
          ],
          "internalType": "struct TokenGateConfig",
          "name": "_tokenGateConfig",
          "type": "tuple"
        },
        {
          "internalType": "address",
          "name": "_metadataRenderer",
          "type": "address"
        },
        {
          "internalType": "address",
          "name": "_splitMain",
          "type": "address"
        }
      ],
      "name": "initialize",
      "outputs": [],
      "stateMutability": "nonpayable",
      "type": "function"
    },
    {
      "inputs": [
        {
          "internalType": "address",
          "name": "owner",
          "type": "address"
        },
        {
          "internalType": "address",
          "name": "operator",
          "type": "address"
        }
      ],
      "name": "isApprovedForAll",
      "outputs": [
        {
          "internalType": "bool",
          "name": "",
          "type": "bool"
        }
      ],
      "stateMutability": "view",
      "type": "function"
    },
    {
      "inputs": [],
      "name": "maxTokenPurchase",
      "outputs": [
        {
          "internalType": "uint256",
          "name": "",
          "type": "uint256"
        }
      ],
      "stateMutability": "view",
      "type": "function"
    },
    {
      "inputs": [],
      "name": "metadataRenderer",
      "outputs": [
        {
          "internalType": "address",
          "name": "",
          "type": "address"
        }
      ],
      "stateMutability": "view",
      "type": "function"
    },
    {
      "inputs": [
        {
          "internalType": "uint256",
          "name": "numberOfTokens",
          "type": "uint256"
        }
      ],
      "name": "mint",
      "outputs": [],
      "stateMutability": "payable",
      "type": "function"
    },
    {
      "inputs": [
        {
          "internalType": "address[]",
          "name": "recipients",
          "type": "address[]"
        }
      ],
      "name": "mintAirdrop",
      "outputs": [],
      "stateMutability": "nonpayable",
      "type": "function"
    },
    {
      "inputs": [
        {
          "internalType": "uint256",
          "name": "quantity",
          "type": "uint256"
        },
        {
          "internalType": "uint256",
          "name": "maxQuantity",
          "type": "uint256"
        },
        {
          "internalType": "uint256",
          "name": "pricePerToken",
          "type": "uint256"
        },
        {
          "internalType": "bytes32[]",
          "name": "merkleProof",
          "type": "bytes32[]"
        }
      ],
      "name": "mintPresale",
      "outputs": [],
      "stateMutability": "payable",
      "type": "function"
    },
    {
      "inputs": [],
      "name": "name",
      "outputs": [
        {
          "internalType": "string",
          "name": "",
          "type": "string"
        }
      ],
      "stateMutability": "view",
      "type": "function"
    },
    {
      "inputs": [],
      "name": "operatorFilterRegistry",
      "outputs": [
        {
          "internalType": "contract IOperatorFilterRegistry",
          "name": "",
          "type": "address"
        }
      ],
      "stateMutability": "view",
      "type": "function"
    },
    {
      "inputs": [],
      "name": "owner",
      "outputs": [
        {
          "internalType": "address",
          "name": "",
          "type": "address"
        }
      ],
      "stateMutability": "view",
      "type": "function"
    },
    {
      "inputs": [
        {
          "internalType": "uint256",
          "name": "tokenId",
          "type": "uint256"
        }
      ],
      "name": "ownerOf",
      "outputs": [
        {
          "internalType": "address",
          "name": "",
          "type": "address"
        }
      ],
      "stateMutability": "view",
      "type": "function"
    },
    {
      "inputs": [],
      "name": "parentIP",
      "outputs": [
        {
          "internalType": "address",
          "name": "",
          "type": "address"
        }
      ],
      "stateMutability": "view",
      "type": "function"
    },
    {
      "inputs": [],
      "name": "presaleEnd",
      "outputs": [
        {
          "internalType": "uint256",
          "name": "",
          "type": "uint256"
        }
      ],
      "stateMutability": "view",
      "type": "function"
    },
    {
      "inputs": [],
      "name": "presaleStart",
      "outputs": [
        {
          "internalType": "uint256",
          "name": "",
          "type": "uint256"
        }
      ],
      "stateMutability": "view",
      "type": "function"
    },
    {
      "inputs": [],
      "name": "renounceOwnership",
      "outputs": [],
      "stateMutability": "nonpayable",
      "type": "function"
    },
    {
      "inputs": [
        {
          "internalType": "uint256",
          "name": "numReserved",
          "type": "uint256"
        }
      ],
      "name": "reserveDCNT",
      "outputs": [],
      "stateMutability": "nonpayable",
      "type": "function"
    },
    {
      "inputs": [],
      "name": "royaltyBPS",
      "outputs": [
        {
          "internalType": "uint256",
          "name": "",
          "type": "uint256"
        }
      ],
      "stateMutability": "view",
      "type": "function"
    },
    {
      "inputs": [
        {
          "internalType": "uint256",
          "name": "tokenId",
          "type": "uint256"
        },
        {
          "internalType": "uint256",
          "name": "salePrice",
          "type": "uint256"
        }
      ],
      "name": "royaltyInfo",
      "outputs": [
        {
          "internalType": "address",
          "name": "receiver",
          "type": "address"
        },
        {
          "internalType": "uint256",
          "name": "royaltyAmount",
          "type": "uint256"
        }
      ],
      "stateMutability": "view",
      "type": "function"
    },
    {
      "inputs": [
        {
          "internalType": "address",
          "name": "from",
          "type": "address"
        },
        {
          "internalType": "address",
          "name": "to",
          "type": "address"
        },
        {
          "internalType": "uint256",
          "name": "tokenId",
          "type": "uint256"
        }
      ],
      "name": "safeTransferFrom",
      "outputs": [],
      "stateMutability": "nonpayable",
      "type": "function"
    },
    {
      "inputs": [
        {
          "internalType": "address",
          "name": "from",
          "type": "address"
        },
        {
          "internalType": "address",
          "name": "to",
          "type": "address"
        },
        {
          "internalType": "uint256",
          "name": "tokenId",
          "type": "uint256"
        },
        {
          "internalType": "bytes",
          "name": "_data",
          "type": "bytes"
        }
      ],
      "name": "safeTransferFrom",
      "outputs": [],
      "stateMutability": "nonpayable",
      "type": "function"
    },
    {
      "inputs": [],
      "name": "saleEnd",
      "outputs": [
        {
          "internalType": "uint256",
          "name": "",
          "type": "uint256"
        }
      ],
      "stateMutability": "view",
      "type": "function"
    },
    {
      "inputs": [],
      "name": "saleIsActive",
      "outputs": [
        {
          "internalType": "bool",
          "name": "_saleIsActive",
          "type": "bool"
        }
      ],
      "stateMutability": "view",
      "type": "function"
    },
    {
      "inputs": [],
      "name": "saleIsPaused",
      "outputs": [
        {
          "internalType": "bool",
          "name": "",
          "type": "bool"
        }
      ],
      "stateMutability": "view",
      "type": "function"
    },
    {
      "inputs": [],
      "name": "saleStart",
      "outputs": [
        {
          "internalType": "uint256",
          "name": "",
          "type": "uint256"
        }
      ],
      "stateMutability": "view",
      "type": "function"
    },
    {
      "inputs": [
        {
          "internalType": "address",
          "name": "operator",
          "type": "address"
        },
        {
          "internalType": "bool",
          "name": "approved",
          "type": "bool"
        }
      ],
      "name": "setApprovalForAll",
      "outputs": [],
      "stateMutability": "nonpayable",
      "type": "function"
    },
    {
      "inputs": [
        {
          "internalType": "string",
          "name": "uri",
          "type": "string"
        }
      ],
      "name": "setBaseURI",
      "outputs": [],
      "stateMutability": "nonpayable",
      "type": "function"
    },
    {
      "inputs": [
        {
          "internalType": "string",
          "name": "uri",
          "type": "string"
        }
      ],
      "name": "setContractURI",
      "outputs": [],
      "stateMutability": "nonpayable",
      "type": "function"
    },
    {
      "inputs": [
        {
          "internalType": "address",
          "name": "_metadataRenderer",
          "type": "address"
        }
      ],
      "name": "setMetadataRenderer",
      "outputs": [],
      "stateMutability": "nonpayable",
      "type": "function"
    },
    {
      "inputs": [
        {
          "internalType": "bytes32",
          "name": "_presaleMerkleRoot",
          "type": "bytes32"
        }
      ],
      "name": "setPresaleMerkleRoot",
      "outputs": [],
      "stateMutability": "nonpayable",
      "type": "function"
    },
    {
      "inputs": [],
      "name": "splitMain",
      "outputs": [
        {
          "internalType": "address",
          "name": "",
          "type": "address"
        }
      ],
      "stateMutability": "view",
      "type": "function"
    },
    {
      "inputs": [],
      "name": "splitWallet",
      "outputs": [
        {
          "internalType": "address",
          "name": "",
          "type": "address"
        }
      ],
      "stateMutability": "view",
      "type": "function"
    },
    {
      "inputs": [
        {
          "internalType": "bytes4",
          "name": "interfaceId",
          "type": "bytes4"
        }
      ],
      "name": "supportsInterface",
      "outputs": [
        {
          "internalType": "bool",
          "name": "",
          "type": "bool"
        }
      ],
      "stateMutability": "view",
      "type": "function"
    },
    {
      "inputs": [],
      "name": "symbol",
      "outputs": [
        {
          "internalType": "string",
          "name": "",
          "type": "string"
        }
      ],
      "stateMutability": "view",
      "type": "function"
    },
    {
      "inputs": [],
      "name": "tokenGateConfig",
      "outputs": [
        {
          "internalType": "address",
          "name": "tokenAddress",
          "type": "address"
        },
        {
          "internalType": "uint88",
          "name": "minBalance",
          "type": "uint88"
        },
        {
          "internalType": "enum SaleType",
          "name": "saleType",
          "type": "uint8"
        }
      ],
      "stateMutability": "view",
      "type": "function"
    },
    {
      "inputs": [],
      "name": "tokenPrice",
      "outputs": [
        {
          "internalType": "uint256",
          "name": "",
          "type": "uint256"
        }
      ],
      "stateMutability": "view",
      "type": "function"
    },
    {
      "inputs": [
        {
          "internalType": "uint256",
          "name": "tokenId",
          "type": "uint256"
        }
      ],
      "name": "tokenURI",
      "outputs": [
        {
          "internalType": "string",
          "name": "",
          "type": "string"
        }
      ],
      "stateMutability": "view",
      "type": "function"
    },
    {
      "inputs": [],
      "name": "totalSupply",
      "outputs": [
        {
          "internalType": "uint256",
          "name": "",
          "type": "uint256"
        }
      ],
      "stateMutability": "view",
      "type": "function"
    },
    {
      "inputs": [
        {
          "internalType": "address",
          "name": "from",
          "type": "address"
        },
        {
          "internalType": "address",
          "name": "to",
          "type": "address"
        },
        {
          "internalType": "uint256",
          "name": "tokenId",
          "type": "uint256"
        }
      ],
      "name": "transferFrom",
      "outputs": [],
      "stateMutability": "nonpayable",
      "type": "function"
    },
    {
      "inputs": [
        {
          "internalType": "address",
          "name": "newOwner",
          "type": "address"
        }
      ],
      "name": "transferOwnership",
      "outputs": [],
      "stateMutability": "nonpayable",
      "type": "function"
    },
    {
      "inputs": [
        {
          "internalType": "uint256",
          "name": "transferETH",
          "type": "uint256"
        },
        {
          "internalType": "contract ERC20[]",
          "name": "tokens",
          "type": "address[]"
        }
      ],
      "name": "transferToSplit",
      "outputs": [],
      "stateMutability": "nonpayable",
      "type": "function"
    },
    {
      "inputs": [
        {
          "internalType": "bool",
          "name": "enable",
          "type": "bool"
        },
        {
          "internalType": "address",
          "name": "operatorFilter",
          "type": "address"
        }
      ],
      "name": "updateOperatorFilter",
      "outputs": [],
      "stateMutability": "nonpayable",
      "type": "function"
    },
    {
      "inputs": [
        {
          "internalType": "uint256",
          "name": "newStart",
          "type": "uint256"
        },
        {
          "internalType": "uint256",
          "name": "newEnd",
          "type": "uint256"
        }
      ],
      "name": "updatePresaleStartEnd",
      "outputs": [],
      "stateMutability": "nonpayable",
      "type": "function"
    },
    {
      "inputs": [
        {
          "internalType": "uint256",
          "name": "newStart",
          "type": "uint256"
        },
        {
          "internalType": "uint256",
          "name": "newEnd",
          "type": "uint256"
        }
      ],
      "name": "updateSaleStartEnd",
      "outputs": [],
      "stateMutability": "nonpayable",
      "type": "function"
    },
    {
      "inputs": [],
      "name": "withdraw",
      "outputs": [],
      "stateMutability": "nonpayable",
      "type": "function"
    }
  ],
  "bytecode": "0x60806040523480156200001157600080fd5b506200001d3362000023565b6200007f565b600980546001600160a01b038381166201000081810262010000600160b01b031985161790945560405193909204169182907f8be0079c531659141344cd1fd0a4f28419497f9722a3daafe3b4186f6b6457e090600090a35050565b61402a806200008f6000396000f3fe6080604052600436106103755760003560e01c8063715018a6116101d1578063c10b935811610102578063e6c350c1116100a0578063f0cc8b621161006f578063f0cc8b62146109f1578063f2fde38b14610a11578063f47c84c514610a31578063fd4fe8a814610a4757600080fd5b8063e6c350c11461098d578063e8a3d485146109a7578063e985e9c5146109bc578063eb8d2444146109dc57600080fd5b8063c87b56dd116100dc578063c87b56dd14610917578063c9ef5eee14610937578063d58d458a14610957578063de8801e51461097757600080fd5b8063c10b9358146108c1578063c4559d5a146108d7578063c5953170146108f757600080fd5b806395d89b411161016f578063ab0bcc4111610149578063ab0bcc4114610853578063b0ccc31e14610869578063b88d4fde1461088b578063b9c9d93a146108ab57600080fd5b806395d89b411461080b578063a0712d6814610820578063a22cb4651461083357600080fd5b80637ff9b596116101ab5780637ff9b596146107905780638da5cb5b146107a6578063931cf0f4146107ca578063938e3d7b146107eb57600080fd5b8063715018a614610748578063727a612e1461075d57806379ab7c8e1461077057600080fd5b806328d7b276116102ab5780635799dbdd116102495780636c1951ae116102235780636c1951ae146106c857806370319970146106e857806370a0823114610708578063713b97871461072857600080fd5b80635799dbdd146106735780636352211e146106935780636c0360eb146106b357600080fd5b806334918dfd1161028557806334918dfd146106095780633ccfd60b1461061e57806342842e0e1461063357806355f804b31461065357600080fd5b806328d7b2761461058a5780632a55205a146105aa5780632d75fea6146105e957600080fd5b80630e769b2b116103185780631dbdedbd116102f25780631dbdedbd146104e8578063229f3e291461053457806323b872dd1461054a578063284a44a81461056a57600080fd5b80630e769b2b1461048f57806317dc2587146104af57806318160ddd146104cf57600080fd5b806306fdde031161035457806306fdde03146103f1578063081812fc14610413578063095ea7b31461044b57806309aa3dcf1461046b57600080fd5b80625f16fb1461037a578063015893c51461039c57806301ffc9a7146103bc575b600080fd5b34801561038657600080fd5b5061039a610395366004612fed565b610a67565b005b3480156103a857600080fd5b5061039a6103b7366004613094565b610b44565b3480156103c857600080fd5b506103dc6103d736600461312a565b610cbe565b60405190151581526020015b60405180910390f35b3480156103fd57600080fd5b50610406610ce9565b6040516103e89190613197565b34801561041f57600080fd5b5061043361042e3660046131aa565b610d7b565b6040516001600160a01b0390911681526020016103e8565b34801561045757600080fd5b5061039a6104663660046131c3565b610dbf565b34801561047757600080fd5b50610481600c5481565b6040519081526020016103e8565b34801561049b57600080fd5b50601754610433906001600160a01b031681565b3480156104bb57600080fd5b5061039a6104ca3660046131ef565b610dd8565b3480156104db57600080fd5b5060015460005403610481565b3480156104f457600080fd5b50600854610525906001600160a01b03811690600160a01b81046001600160581b031690600160f81b900460ff1683565b6040516103e893929190613227565b34801561054057600080fd5b5061048160155481565b34801561055657600080fd5b5061039a610565366004613272565b610deb565b34801561057657600080fd5b5061039a6105853660046133aa565b610f8d565b34801561059657600080fd5b5061039a6105a53660046131aa565b611036565b3480156105b657600080fd5b506105ca6105c53660046131ef565b611043565b604080516001600160a01b0390931683526020830191909152016103e8565b3480156105f557600080fd5b5061039a610604366004613497565b6110f0565b34801561061557600080fd5b5061039a6112de565b34801561062a57600080fd5b5061039a6112fa565b34801561063f57600080fd5b5061039a61064e366004613272565b611408565b34801561065f57600080fd5b5061039a61066e36600461354d565b611423565b34801561067f57600080fd5b5061039a61068e3660046131ef565b61143b565b34801561069f57600080fd5b506104336106ae3660046131aa565b61144e565b3480156106bf57600080fd5b50610406611459565b3480156106d457600080fd5b5061039a6106e33660046131aa565b6114e7565b3480156106f457600080fd5b50601254610433906001600160a01b031681565b34801561071457600080fd5b50610481610723366004613581565b611557565b34801561073457600080fd5b50601854610433906001600160a01b031681565b34801561075457600080fd5b5061039a6115a5565b61039a61076b36600461359e565b6115b9565b34801561077c57600080fd5b5061039a61078b3660046135fe565b6119b5565b34801561079c57600080fd5b50610481600b5481565b3480156107b257600080fd5b506009546201000090046001600160a01b0316610433565b3480156107d657600080fd5b506009546103dc90600160b01b900460ff1681565b3480156107f757600080fd5b5061039a61080636600461354d565b611a3b565b34801561081757600080fd5b50610406611a4f565b61039a61082e3660046131aa565b611a5e565b34801561083f57600080fd5b5061039a61084e36600461363a565b611de8565b34801561085f57600080fd5b50610481600d5481565b34801561087557600080fd5b506104336daaeb6d7670e522a718067333cd4e81565b34801561089757600080fd5b5061039a6108a6366004613668565b611dfc565b3480156108b757600080fd5b5061048160135481565b3480156108cd57600080fd5b50610481600e5481565b3480156108e357600080fd5b5061039a6108f23660046136d3565b611e40565b34801561090357600080fd5b5061039a610912366004613766565b611f10565b34801561092357600080fd5b506104066109323660046131aa565b612004565b34801561094357600080fd5b5061039a6109523660046138ee565b6120b7565b34801561096357600080fd5b5061039a6109723660046131aa565b6123b9565b34801561098357600080fd5b5061048160145481565b34801561099957600080fd5b50600f546103dc9060ff1681565b3480156109b357600080fd5b5061040661247b565b3480156109c857600080fd5b506103dc6109d7366004613a5f565b61251b565b3480156109e857600080fd5b506103dc612549565b3480156109fd57600080fd5b50601954610433906001600160a01b031681565b348015610a1d57600080fd5b5061039a610a2c366004613581565b612571565b348015610a3d57600080fd5b50610481600a5481565b348015610a5357600080fd5b5061039a610a62366004613581565b6125e7565b6000610a7b6018546001600160a01b031690565b6001600160a01b031603610aaa5760405162461bcd60e51b8152600401610aa190613a7d565b60405180910390fd5b610ab387612611565b6017546001600160a01b03166001600160a01b03166315811302610adf6018546001600160a01b031690565b898989898989896040518963ffffffff1660e01b8152600401610b09989796959493929190613b2e565b600060405180830381600087803b158015610b2357600080fd5b505af1158015610b37573d6000803e3d6000fd5b5050505050505050505050565b610b4c612710565b6000610b606017546001600160a01b031690565b6001600160a01b031603610baa5760405162461bcd60e51b815260206004820152601160248201527014dc1b1a5d13585a5b881b9bdd081cd95d607a1b6044820152606401610aa1565b6000610bbe6018546001600160a01b031690565b6001600160a01b031614610c0c5760405162461bcd60e51b815260206004820152601560248201527414dc1b1a5d08185b1c9958591e4818dc99585d1959605a1b6044820152606401610aa1565b6000610c206017546001600160a01b031690565b6001600160a01b0316637601f7828787878787336040518763ffffffff1660e01b8152600401610c5596959493929190613b90565b6020604051808303816000875af1158015610c74573d6000803e3d6000fd5b505050506040513d601f19601f82011682018060405250810190610c989190613be1565b601880546001600160a01b0319166001600160a01b03831617905590505b505050505050565b600063152a902d60e11b6001600160e01b031983161480610ce35750610ce382612771565b92915050565b606060028054610cf890613bfe565b80601f0160208091040260200160405190810160405280929190818152602001828054610d2490613bfe565b8015610d715780601f10610d4657610100808354040283529160200191610d71565b820191906000526020600020905b815481529060010190602001808311610d5457829003601f168201915b5050505050905090565b6000610d86826127bf565b610da3576040516333d1c03960e21b815260040160405180910390fd5b506000908152600660205260409020546001600160a01b031690565b81610dc9816127e6565b610dd3838361289f565b505050565b610de0612710565b600d91909155600e55565b6000610df68261293f565b9050836001600160a01b0316816001600160a01b031614610e295760405162a1148160e81b815260040160405180910390fd5b60008281526006602052604090208054338082146001600160a01b03881690911417610e7657610e59863361251b565b610e7657604051632ce44b5f60e11b815260040160405180910390fd5b6001600160a01b038516610e9d57604051633a954ecd60e21b815260040160405180910390fd5b610eaa86868660016129ad565b8015610eb557600082555b6001600160a01b038681166000908152600560205260408082208054600019019055918716808252919020805460010190554260a01b17600160e11b17600085815260046020526040812091909155600160e11b84169003610f4757600184016000818152600460205260408120549003610f45576000548114610f455760008181526004602052604090208490555b505b83856001600160a01b0316876001600160a01b03167fddf252ad1be2c89b69c2b068fc378daa952ba7f163c4a11628f55a4df523b3ef60405160405180910390a4610cb6565b6000610fa16018546001600160a01b031690565b6001600160a01b031603610fc75760405162461bcd60e51b8152600401610aa190613a7d565b8715610fdb57610fdb868686868686611e40565b60005b875181101561101f5761100f888281518110610ffc57610ffc613c38565b6020026020010151888888888888610a67565b61101881613c64565b9050610fde565b5061102b8989896129c7565b505050505050505050565b61103e612710565b601655565b60008061104f846127bf565b61108f5760405162461bcd60e51b81526020600482015260116024820152702737b732bc34b9ba32b73a103a37b5b2b760791b6044820152606401610aa1565b6018546001600160a01b0316156110b3576018546001600160a01b031691506110c8565b6009546201000090046001600160a01b031691505b6000612710601354856110db9190613c7d565b6110e59190613c94565b9150505b9250929050565b6110f8612710565b60405163c3c5a54760e01b81523060048201819052906daaeb6d7670e522a718067333cd4e9063c3c5a547906024016020604051808303816000875af1158015611146573d6000803e3d6000fd5b505050506040513d601f19601f8201168201806040525081019061116a9190613cb6565b1580156111745750825b156111ee57604051633e9f1edf60e11b81526001600160a01b038083166004830152831660248201526daaeb6d7670e522a718067333cd4e90637d3e3dbe906044015b600060405180830381600087803b1580156111d157600080fd5b505af11580156111e5573d6000803e3d6000fd5b50505050505050565b821561123657604051632cc5350560e21b81526001600160a01b038083166004830152831660248201526daaeb6d7670e522a718067333cd4e9063b314d414906044016111b7565b60405163034a0dc160e41b81526001600160a01b0382166004820152600060248201526daaeb6d7670e522a718067333cd4e906334a0dc1090604401600060405180830381600087803b15801561128c57600080fd5b505af11580156112a0573d6000803e3d6000fd5b5050604051631761612360e11b81526001600160a01b03841660048201526daaeb6d7670e522a718067333cd4e9250632ec2c24691506024016111b7565b6112e6612710565b600f805460ff19811660ff90911615179055565b611302612710565b60006113166018546001600160a01b031690565b6001600160a01b0316146113785760405162461bcd60e51b8152602060048201526024808201527f43616e6e6f74207769746864726177207769746820616e2061637469766520736044820152631c1b1a5d60e21b6064820152608401610aa1565b604051600090339047908381818185875af1925050503d80600081146113ba576040519150601f19603f3d011682016040523d82523d6000602084013e6113bf565b606091505b50509050806114055760405162461bcd60e51b8152602060048201526012602482015271436f756c64206e6f7420776974686472617760701b6044820152606401610aa1565b50565b610dd383838360405180602001604052806000815250611dfc565b61142b612710565b60106114378282613d19565b5050565b611443612710565b601491909155601555565b6000610ce38261293f565b6010805461146690613bfe565b80601f016020809104026020016040519081016040528092919081815260200182805461149290613bfe565b80156114df5780601f106114b4576101008083540402835291602001916114df565b820191906000526020600020905b8154815290600101906020018083116114c257829003601f168201915b505050505081565b6114ef612710565b600054600a546114ff8383613dd8565b1061151c5760405162461bcd60e51b8152600401610aa190613deb565b60005b82811015610dd357611545336115358385613dd8565b611540906001613dd8565b6129fb565b8061154f81613c64565b91505061151f565b60006001600160a01b038216611580576040516323d3ad8160e21b815260040160405180910390fd5b506001600160a01b03166000908152600560205260409020546001600160401b031690565b6115ad612710565b6115b76000612a15565b565b6008546001906001600160a01b03161580159061162257506000600854600160f81b900460ff1660028111156115f1576115f1613211565b1480611622575080801561162257506001600854600160f81b900460ff16600281111561162057611620613211565b145b8061165357508015801561165357506002600854600160f81b900460ff16600281111561165157611651613211565b145b1561171f576008546040516370a0823160e01b8152336004820152600160a01b82046001600160581b0316916001600160a01b0316906370a08231906024016020604051808303816000875af11580156116b1573d6000803e3d6000fd5b505050506040513d601f19601f820116820180604052508101906116d59190613e20565b101561171f5760405162461bcd60e51b81526020600482015260196024820152783237903737ba1037bbb7103932b8bab4b932b2103a37b5b2b760391b6044820152606401610aa1565b601454421015801561173357506015544211155b61176d5760405162461bcd60e51b815260206004820152600b60248201526a6e6f742070726573616c6560a81b6044820152606401610aa1565b600054600f5460ff16156117c35760405162461bcd60e51b815260206004820152601b60248201527f53616c65206d7573742062652061637469766520746f206d696e7400000000006044820152606401610aa1565b600a546117d08883613dd8565b11156117ee5760405162461bcd60e51b8152600401610aa190613deb565b611871848480806020026020016040519081016040528093929190818152602001838360200280828437600092019190915250506016546040516bffffffffffffffffffffffff193360601b166020820152603481018c9052605481018b9052909250607401905060405160208183030381529060405280519060200120612a71565b6118ac5760405162461bcd60e51b815260206004820152600c60248201526b1b9bdd08185c1c1c9bdd995960a21b6044820152606401610aa1565b6118b68786613c7d565b3410156118fa5760405162461bcd60e51b8152602060048201526012602482015271496e73756666696369656e742066756e647360701b6044820152606401610aa1565b858761190533611557565b61190f9190613dd8565b111561194f5760405162461bcd60e51b815260206004820152600f60248201526e6d696e74656420746f6f206d616e7960881b6044820152606401610aa1565b61195933886129fb565b60005b878110156119ab5760408051338152602081018490526001909301927f30385c845b448a36257a6a1716e6ad2e1bc2cbe333cde1e69fe849ad6511adfe910160405180910390a160010161195c565b5050505050505050565b60006119c96018546001600160a01b031690565b6001600160a01b0316036119ef5760405162461bcd60e51b8152600401610aa190613a7d565b81156119fd576119fd612a87565b60005b8151811015610dd357611a2b828281518110611a1e57611a1e613c38565b6020026020010151612611565b611a3481613c64565b9050611a00565b611a43612710565b60116114378282613d19565b606060038054610cf890613bfe565b6008546000906001600160a01b031615801590611ac757506000600854600160f81b900460ff166002811115611a9657611a96613211565b1480611ac75750808015611ac757506001600854600160f81b900460ff166002811115611ac557611ac5613211565b145b80611af8575080158015611af857506002600854600160f81b900460ff166002811115611af657611af6613211565b145b15611bc4576008546040516370a0823160e01b8152336004820152600160a01b82046001600160581b0316916001600160a01b0316906370a08231906024016020604051808303816000875af1158015611b56573d6000803e3d6000fd5b505050506040513d601f19601f82011682018060405250810190611b7a9190613e20565b1015611bc45760405162461bcd60e51b81526020600482015260196024820152783237903737ba1037bbb7103932b8bab4b932b2103a37b5b2b760391b6044820152606401610aa1565b600054600d544210801590611bdb5750600e544211155b611c1f5760405162461bcd60e51b815260206004820152601560248201527429b0b632b99030b932903737ba1030b1ba34bb329760591b6044820152606401610aa1565b600f5460ff1615611c725760405162461bcd60e51b815260206004820152601b60248201527f53616c65206d7573742062652061637469766520746f206d696e7400000000006044820152606401610aa1565b600a54611c7f8483613dd8565b1115611c9d5760405162461bcd60e51b8152600401610aa190613deb565b600a54811115611cda5760405162461bcd60e51b815260206004820152600860248201526714d3d3110813d55560c21b6044820152606401610aa1565b82600b54611ce89190613c7d565b341015611d2c5760405162461bcd60e51b8152602060048201526012602482015271496e73756666696369656e742066756e647360701b6044820152606401610aa1565b600c5415611d8657600c54831115611d865760405162461bcd60e51b815260206004820152601c60248201527f4578636565646564206d6178206e756d62657220706572206d696e74000000006044820152606401610aa1565b611d9033846129fb565b60005b83811015611de25760408051338152602081018490526001909301927f30385c845b448a36257a6a1716e6ad2e1bc2cbe333cde1e69fe849ad6511adfe910160405180910390a1600101611d93565b50505050565b81611df2816127e6565b610dd38383612b3b565b611e07848484610deb565b6001600160a01b0383163b15611de257611e2384848484612bd0565b611de2576040516368d2bf6b60e11b815260040160405180910390fd5b6000611e546018546001600160a01b031690565b6001600160a01b031603611e7a5760405162461bcd60e51b8152600401610aa190613a7d565b611e82612a87565b6017546001600160a01b03166001600160a01b031663e61cb05e611eae6018546001600160a01b031690565b8888888888886040518863ffffffff1660e01b8152600401611ed69796959493929190613e39565b600060405180830381600087803b158015611ef057600080fd5b505af1158015611f04573d6000803e3d6000fd5b50505050505050505050565b611f18612710565b600054600a548190611f2a8483613dd8565b1115611f485760405162461bcd60e51b8152600401610aa190613deb565b8183015b80831015611ffd57611f878585848603818110611f6b57611f6b613c38565b9050602002016020810190611f809190613581565b60016129fb565b7f30385c845b448a36257a6a1716e6ad2e1bc2cbe333cde1e69fe849ad6511adfe8585848603818110611fbc57611fbc613c38565b9050602002016020810190611fd19190613581565b604080516001600160a01b039092168252602082018690520160405180910390a1600190920191611f4c565b5050505050565b606061200f826127bf565b61202c57604051630a14c4b560e41b815260040160405180910390fd5b6012546001600160a01b0316156120ae5760125460405163c87b56dd60e01b8152600481018490526001600160a01b039091169063c87b56dd90602401600060405180830381865afa158015612086573d6000803e3d6000fd5b505050506040513d6000823e601f3d908101601f19168201604052610ce39190810190613e92565b610ce382612cbc565b600954610100900460ff16158080156120d75750600954600160ff909116105b806120f15750303b1580156120f1575060095460ff166001145b6121545760405162461bcd60e51b815260206004820152602e60248201527f496e697469616c697a61626c653a20636f6e747261637420697320616c72656160448201526d191e481a5b9a5d1a585b1a5e995960921b6064820152608401610aa1565b6009805460ff191660011790558015612177576009805461ff0019166101001790555b61218087612a15565b855160029061218f9082613d19565b5060208601516003906121a29082613d19565b5060008055606080870151600a556080870151600b5560a0870151600c55610120870151600d55610140870151600e5561016087015160135560408088015160098054911515600160b01b0260ff60b01b1990921691909117905590860151601980546001600160a01b039283166001600160a01b03199182161790915560178054868416921691909117905585516008805460208901516001600160581b0316600160a01b026001600160f81b031990911692909316919091179190911780825591860151869282906001600160f81b0316600160f81b83600281111561228c5761228c613211565b0217905550505060c086015160165560e08601516014556101008601516015556001600160a01b038316158015906122c957506000856040015151115b1561234757601280546001600160a01b0319166001600160a01b03851690811790915560408681015190516342b53ffd60e11b815263856a7ffa9161231091600401613197565b600060405180830381600087803b15801561232a57600080fd5b505af115801561233e573d6000803e3d6000fd5b5050505061236b565b84516011906123569082613d19565b5060208501516010906123699082613d19565b505b80156111e5576009805461ff0019169055604051600181527f7f26b83ff96e1f2b6a682f133852f6798a09c465da95921460cefb38474024989060200160405180910390a150505050505050565b6123c1612710565b600954600160b01b900460ff166124285760405162461bcd60e51b815260206004820152602560248201527f63616e6e6f742061646a7573742073697a65206f66207468697320636f6c6c6560448201526431ba34b7b760d91b6064820152608401610aa1565b8061243260005490565b11156124765760405162461bcd60e51b8152602060048201526013602482015272063616e6e6f742064656372656173652063617606c1b6044820152606401610aa1565b600a55565b6012546060906001600160a01b031661249b5760118054610cf890613bfe565b601260009054906101000a90046001600160a01b03166001600160a01b031663e8a3d4856040518163ffffffff1660e01b8152600401600060405180830381865afa1580156124ee573d6000803e3d6000fd5b505050506040513d6000823e601f3d908101601f191682016040526125169190810190613e92565b905090565b6001600160a01b03918216600090815260076020908152604080832093909416825291909152205460ff1690565b6000600d54421015801561255f5750600e544211155b8015612516575050600f5460ff161590565b612579612710565b6001600160a01b0381166125de5760405162461bcd60e51b815260206004820152602660248201527f4f776e61626c653a206e6577206f776e657220697320746865207a65726f206160448201526564647265737360d01b6064820152608401610aa1565b61140581612a15565b6125ef612710565b601280546001600160a01b0319166001600160a01b0392909216919091179055565b6040516370a0823160e01b81523060048201526000906001600160a01b038316906370a0823190602401602060405180830381865afa158015612658573d6000803e3d6000fd5b505050506040513d601f19601f8201168201806040525081019061267c9190613e20565b9050816001600160a01b031663a9059cbb61269f6018546001600160a01b031690565b6040516001600160e01b031960e084901b1681526001600160a01b039091166004820152602481018490526044016020604051808303816000875af11580156126ec573d6000803e3d6000fd5b505050506040513d601f19601f82011682018060405250810190610dd39190613cb6565b6009546001600160a01b03620100009091041633146115b75760405162461bcd60e51b815260206004820181905260248201527f4f776e61626c653a2063616c6c6572206973206e6f7420746865206f776e65726044820152606401610aa1565b60006301ffc9a760e01b6001600160e01b0319831614806127a257506380ac58cd60e01b6001600160e01b03198316145b80610ce35750506001600160e01b031916635b5e139f60e01b1490565b6000805482108015610ce3575050600090815260046020526040902054600160e01b161590565b6daaeb6d7670e522a718067333cd4e3b1561140557604051633185c44d60e21b81523060048201526001600160a01b03821660248201526daaeb6d7670e522a718067333cd4e9063c617113490604401602060405180830381865afa158015612853573d6000803e3d6000fd5b505050506040513d601f19601f820116820180604052508101906128779190613cb6565b61140557604051633b79c77360e21b81526001600160a01b0382166004820152602401610aa1565b60006128aa8261144e565b9050336001600160a01b038216146128e3576128c6813361251b565b6128e3576040516367d9dca160e11b815260040160405180910390fd5b60008281526006602052604080822080546001600160a01b0319166001600160a01b0387811691821790925591518593918516917f8c5be1e5ebec7d5bd14f71427d1e84f3dd0314c0f7b2291e5b200ac8c7c3b92591a4505050565b6000816000548110156129945760008181526004602052604081205490600160e01b82169003612992575b8060000361298b57506000190160008181526004602052604090205461296a565b9392505050565b505b604051636f96cda160e11b815260040160405180910390fd5b836001600160a01b0381163314611ffd57611ffd336127e6565b601754604051636e5f691960e01b81526001600160a01b0390911690636e5f6919906111b790869086908690600401613f08565b611437828260405180602001604052806000815250612d3f565b600980546001600160a01b038381166201000081810262010000600160b01b031985161790945560405193909204169182907f8be0079c531659141344cd1fd0a4f28419497f9722a3daafe3b4186f6b6457e090600090a35050565b600082612a7e8584612da5565b14949350505050565b6000612a9b6018546001600160a01b031690565b6001600160a01b03164760405160006040518083038185875af1925050503d8060008114612ae5576040519150601f19603f3d011682016040523d82523d6000602084013e612aea565b606091505b50509050806114055760405162461bcd60e51b815260206004820152601f60248201527f436f756c64206e6f74207472616e736665722045544820746f2073706c6974006044820152606401610aa1565b336001600160a01b03831603612b645760405163b06307db60e01b815260040160405180910390fd5b3360008181526007602090815260408083206001600160a01b03871680855290835292819020805460ff191686151590811790915590519081529192917f17307eab39ab6107e8899845ad3d59bd9653f200f220920489ca2b5937696c31910160405180910390a35050565b604051630a85bd0160e11b81526000906001600160a01b0385169063150b7a0290612c05903390899088908890600401613f6b565b6020604051808303816000875af1925050508015612c40575060408051601f3d908101601f19168201909252612c3d91810190613fa8565b60015b612c9e573d808015612c6e576040519150601f19603f3d011682016040523d82523d6000602084013e612c73565b606091505b508051600003612c96576040516368d2bf6b60e11b815260040160405180910390fd5b805181602001fd5b6001600160e01b031916630a85bd0160e11b1490505b949350505050565b6060612cc7826127bf565b612ce457604051630a14c4b560e41b815260040160405180910390fd5b6000612cee612df2565b90508051600003612d0e576040518060200160405280600081525061298b565b80612d1884612e01565b604051602001612d29929190613fc5565b6040516020818303038152906040529392505050565b612d498383612e39565b6001600160a01b0383163b15610dd3576000548281035b612d736000868380600101945086612bd0565b612d90576040516368d2bf6b60e11b815260040160405180910390fd5b818110612d60578160005414611ffd57600080fd5b600081815b8451811015612dea57612dd682868381518110612dc957612dc9613c38565b6020026020010151612f44565b915080612de281613c64565b915050612daa565b509392505050565b606060108054610cf890613bfe565b604080516080019081905280825b600183039250600a81066030018353600a900480612e0f5750819003601f19909101908152919050565b6000805490829003612e5e5760405163b562e8dd60e01b815260040160405180910390fd5b612e6b60008483856129ad565b6001600160a01b03831660008181526005602090815260408083208054680100000000000000018802019055848352600490915281206001851460e11b4260a01b178317905582840190839083907fddf252ad1be2c89b69c2b068fc378daa952ba7f163c4a11628f55a4df523b3ef8180a4600183015b818114612f1a57808360007fddf252ad1be2c89b69c2b068fc378daa952ba7f163c4a11628f55a4df523b3ef600080a4600101612ee2565b5081600003612f3b57604051622e076360e81b815260040160405180910390fd5b60005550505050565b6000818310612f6057600082815260208490526040902061298b565b5060009182526020526040902090565b6001600160a01b038116811461140557600080fd5b60008083601f840112612f9757600080fd5b5081356001600160401b03811115612fae57600080fd5b6020830191508360208260051b85010111156110e957600080fd5b803563ffffffff81168114612fdd57600080fd5b919050565b8035612fdd81612f70565b600080600080600080600060a0888a03121561300857600080fd5b873561301381612f70565b965060208801356001600160401b038082111561302f57600080fd5b61303b8b838c01612f85565b909850965060408a013591508082111561305457600080fd5b506130618a828b01612f85565b9095509350613074905060608901612fc9565b9150608088013561308481612f70565b8091505092959891949750929550565b6000806000806000606086880312156130ac57600080fd5b85356001600160401b03808211156130c357600080fd5b6130cf89838a01612f85565b909750955060208801359150808211156130e857600080fd5b506130f588828901612f85565b9094509250613108905060408701612fc9565b90509295509295909350565b6001600160e01b03198116811461140557600080fd5b60006020828403121561313c57600080fd5b813561298b81613114565b60005b8381101561316257818101518382015260200161314a565b50506000910152565b60008151808452613183816020860160208601613147565b601f01601f19169290920160200192915050565b60208152600061298b602083018461316b565b6000602082840312156131bc57600080fd5b5035919050565b600080604083850312156131d657600080fd5b82356131e181612f70565b946020939093013593505050565b6000806040838503121561320257600080fd5b50508035926020909101359150565b634e487b7160e01b600052602160045260246000fd5b6001600160a01b03841681526001600160581b0383166020820152606081016003831061326457634e487b7160e01b600052602160045260246000fd5b826040830152949350505050565b60008060006060848603121561328757600080fd5b833561329281612f70565b925060208401356132a281612f70565b929592945050506040919091013590565b634e487b7160e01b600052604160045260246000fd5b60405161018081016001600160401b03811182821017156132ec576132ec6132b3565b60405290565b604051601f8201601f191681016001600160401b038111828210171561331a5761331a6132b3565b604052919050565b600082601f83011261333357600080fd5b813560206001600160401b0382111561334e5761334e6132b3565b8160051b61335d8282016132f2565b928352848101820192828101908785111561337757600080fd5b83870192505b8483101561339f57823561339081612f70565b8252918301919083019061337d565b979650505050505050565b600080600080600080600080600060e08a8c0312156133c857600080fd5b89356133d381612f70565b985060208a0135975060408a01356001600160401b03808211156133f657600080fd5b6134028d838e01613322565b985060608c013591508082111561341857600080fd5b6134248d838e01612f85565b909850965060808c013591508082111561343d57600080fd5b5061344a8c828d01612f85565b909550935061345d905060a08b01612fc9565b915060c08a013561346d81612f70565b809150509295985092959850929598565b801515811461140557600080fd5b8035612fdd8161347e565b600080604083850312156134aa57600080fd5b82356134b58161347e565b915060208301356134c581612f70565b809150509250929050565b60006001600160401b038211156134e9576134e96132b3565b50601f01601f191660200190565b600082601f83011261350857600080fd5b813561351b613516826134d0565b6132f2565b81815284602083860101111561353057600080fd5b816020850160208301376000918101602001919091529392505050565b60006020828403121561355f57600080fd5b81356001600160401b0381111561357557600080fd5b612cb4848285016134f7565b60006020828403121561359357600080fd5b813561298b81612f70565b6000806000806000608086880312156135b657600080fd5b85359450602086013593506040860135925060608601356001600160401b038111156135e157600080fd5b6135ed88828901612f85565b969995985093965092949392505050565b6000806040838503121561361157600080fd5b8235915060208301356001600160401b0381111561362e57600080fd5b6110e585828601613322565b6000806040838503121561364d57600080fd5b823561365881612f70565b915060208301356134c58161347e565b6000806000806080858703121561367e57600080fd5b843561368981612f70565b9350602085013561369981612f70565b92506040850135915060608501356001600160401b038111156136bb57600080fd5b6136c7878288016134f7565b91505092959194509250565b600080600080600080608087890312156136ec57600080fd5b86356001600160401b038082111561370357600080fd5b61370f8a838b01612f85565b9098509650602089013591508082111561372857600080fd5b5061373589828a01612f85565b9095509350613748905060408801612fc9565b9150606087013561375881612f70565b809150509295509295509295565b6000806020838503121561377957600080fd5b82356001600160401b0381111561378f57600080fd5b61379b85828601612f85565b90969095509350505050565b6000608082840312156137b957600080fd5b604051608081016001600160401b0382821081831117156137dc576137dc6132b3565b8160405282935084359150808211156137f457600080fd5b613800868387016134f7565b8352602085013591508082111561381657600080fd5b613822868387016134f7565b6020840152604085013591508082111561383b57600080fd5b50613848858286016134f7565b604083015250606083013561385c81612f70565b6060919091015292915050565b60006060828403121561387b57600080fd5b604051606081018181106001600160401b038211171561389d5761389d6132b3565b60405290508082356138ae81612f70565b815260208301356001600160581b03811681146138ca57600080fd5b60208201526040830135600381106138e157600080fd5b6040919091015292915050565b60008060008060008061010080888a03121561390957600080fd5b873561391481612f70565b965060208801356001600160401b038082111561393057600080fd5b90890190610180828c03121561394557600080fd5b61394d6132c9565b82358281111561395c57600080fd5b6139688d8286016134f7565b82525060208301358281111561397d57600080fd5b6139898d8286016134f7565b60208301525061399b6040840161348c565b6040820152606083013560608201526080830135608082015260a083013560a082015260c083013560c082015260e083013560e082015283830135848201526101209350838301358482015261014093508383013584820152610160935083830135848201528098505060408a0135925080831115613a1957600080fd5b5050613a2789828a016137a7565b945050613a378860608901613869565b9250613a4560c08801612fe2565b9150613a5360e08801612fe2565b90509295509295509295565b60008060408385031215613a7257600080fd5b82356134b581612f70565b60208082526015908201527414dc1b1a5d081b9bdd0818dc99585d1959081e595d605a1b604082015260600190565b8183526000602080850194508260005b85811015613aea578135613acf81612f70565b6001600160a01b031687529582019590820190600101613abc565b509495945050505050565b8183526000602080850194508260005b85811015613aea5763ffffffff613b1b83612fc9565b1687529582019590820190600101613b05565b600060018060a01b03808b168352808a16602084015260c06040840152613b5960c08401898b613aac565b8381036060850152613b6c81888a613af5565b63ffffffff969096166080850152509290921660a090910152509695505050505050565b608081526000613ba460808301888a613aac565b8281036020840152613bb7818789613af5565b63ffffffff95909516604084015250506001600160a01b0391909116606090910152949350505050565b600060208284031215613bf357600080fd5b815161298b81612f70565b600181811c90821680613c1257607f821691505b602082108103613c3257634e487b7160e01b600052602260045260246000fd5b50919050565b634e487b7160e01b600052603260045260246000fd5b634e487b7160e01b600052601160045260246000fd5b600060018201613c7657613c76613c4e565b5060010190565b8082028115828204841417610ce357610ce3613c4e565b600082613cb157634e487b7160e01b600052601260045260246000fd5b500490565b600060208284031215613cc857600080fd5b815161298b8161347e565b601f821115610dd357600081815260208120601f850160051c81016020861015613cfa5750805b601f850160051c820191505b81811015610cb657828155600101613d06565b81516001600160401b03811115613d3257613d326132b3565b613d4681613d408454613bfe565b84613cd3565b602080601f831160018114613d7b5760008415613d635750858301515b600019600386901b1c1916600185901b178555610cb6565b600085815260208120601f198616915b82811015613daa57888601518255948401946001909101908401613d8b565b5085821015613dc85787850151600019600388901b60f8161c191681555b5050505050600190811b01905550565b80820180821115610ce357610ce3613c4e565b6020808252818101527f507572636861736520776f756c6420657863656564206d617820737570706c79604082015260600190565b600060208284031215613e3257600080fd5b5051919050565b600060018060a01b03808a16835260a06020840152613e5c60a08401898b613aac565b8381036040850152613e6f81888a613af5565b63ffffffff96909616606085015250929092166080909101525095945050505050565b600060208284031215613ea457600080fd5b81516001600160401b03811115613eba57600080fd5b8201601f81018413613ecb57600080fd5b8051613ed9613516826134d0565b818152856020838501011115613eee57600080fd5b613eff826020830160208601613147565b95945050505050565b6001600160a01b038481168252602080830185905260606040840181905284519084018190526000928583019290916080860190855b81811015613f5c578551851683529483019491830191600101613f3e565b50909998505050505050505050565b6001600160a01b0385811682528416602082015260408101839052608060608201819052600090613f9e9083018461316b565b9695505050505050565b600060208284031215613fba57600080fd5b815161298b81613114565b60008351613fd7818460208801613147565b835190830190613feb818360208801613147565b0194935050505056fea2646970667358221220a1cd5ba7506a6d711da9ecfa6ec729940d8b89d472da37a165f19d64fce9d02c64736f6c63430008110033",
  "linkReferences": {},
  "deployedLinkReferences": {}
}