{
  "_format": "hh-sol-artifact-1",
  "contractName": "DCNT721A",
  "sourceName": "contracts/DCNT721A.sol",
  "abi": [
    {
      "inputs": [],
      "name": "ApprovalCallerNotOwnerNorApproved",
      "type": "error"
    },
    {
      "inputs": [],
      "name": "ApprovalQueryForNonexistentToken",
      "type": "error"
    },
    {
      "inputs": [],
      "name": "ApproveToCaller",
      "type": "error"
    },
    {
      "inputs": [],
      "name": "BalanceQueryForZeroAddress",
      "type": "error"
    },
    {
      "inputs": [],
      "name": "MintERC2309QuantityExceedsLimit",
      "type": "error"
    },
    {
      "inputs": [],
      "name": "MintToZeroAddress",
      "type": "error"
    },
    {
      "inputs": [],
      "name": "MintZeroQuantity",
      "type": "error"
    },
    {
      "inputs": [],
      "name": "OwnerQueryForNonexistentToken",
      "type": "error"
    },
    {
      "inputs": [],
      "name": "OwnershipNotInitializedForExtraData",
      "type": "error"
    },
    {
      "inputs": [],
      "name": "TransferCallerNotOwnerNorApproved",
      "type": "error"
    },
    {
      "inputs": [],
      "name": "TransferFromIncorrectOwner",
      "type": "error"
    },
    {
      "inputs": [],
      "name": "TransferToNonERC721ReceiverImplementer",
      "type": "error"
    },
    {
      "inputs": [],
      "name": "TransferToZeroAddress",
      "type": "error"
    },
    {
      "inputs": [],
      "name": "URIQueryForNonexistentToken",
      "type": "error"
    },
    {
      "anonymous": false,
      "inputs": [
        {
          "indexed": true,
          "internalType": "address",
          "name": "owner",
          "type": "address"
        },
        {
          "indexed": true,
          "internalType": "address",
          "name": "approved",
          "type": "address"
        },
        {
          "indexed": true,
          "internalType": "uint256",
          "name": "tokenId",
          "type": "uint256"
        }
      ],
      "name": "Approval",
      "type": "event"
    },
    {
      "anonymous": false,
      "inputs": [
        {
          "indexed": true,
          "internalType": "address",
          "name": "owner",
          "type": "address"
        },
        {
          "indexed": true,
          "internalType": "address",
          "name": "operator",
          "type": "address"
        },
        {
          "indexed": false,
          "internalType": "bool",
          "name": "approved",
          "type": "bool"
        }
      ],
      "name": "ApprovalForAll",
      "type": "event"
    },
    {
      "anonymous": false,
      "inputs": [
        {
          "indexed": true,
          "internalType": "uint256",
          "name": "fromTokenId",
          "type": "uint256"
        },
        {
          "indexed": false,
          "internalType": "uint256",
          "name": "toTokenId",
          "type": "uint256"
        },
        {
          "indexed": true,
          "internalType": "address",
          "name": "from",
          "type": "address"
        },
        {
          "indexed": true,
          "internalType": "address",
          "name": "to",
          "type": "address"
        }
      ],
      "name": "ConsecutiveTransfer",
      "type": "event"
    },
    {
      "anonymous": false,
      "inputs": [
        {
          "indexed": false,
          "internalType": "uint8",
          "name": "version",
          "type": "uint8"
        }
      ],
      "name": "Initialized",
      "type": "event"
    },
    {
      "anonymous": false,
      "inputs": [
        {
          "indexed": false,
          "internalType": "address",
          "name": "sender",
          "type": "address"
        },
        {
          "indexed": false,
          "internalType": "uint256",
          "name": "tokenId_",
          "type": "uint256"
        }
      ],
      "name": "Minted",
      "type": "event"
    },
    {
      "anonymous": false,
      "inputs": [
        {
          "indexed": true,
          "internalType": "address",
          "name": "previousOwner",
          "type": "address"
        },
        {
          "indexed": true,
          "internalType": "address",
          "name": "newOwner",
          "type": "address"
        }
      ],
      "name": "OwnershipTransferred",
      "type": "event"
    },
    {
      "anonymous": false,
      "inputs": [
        {
          "indexed": true,
          "internalType": "address",
          "name": "from",
          "type": "address"
        },
        {
          "indexed": true,
          "internalType": "address",
          "name": "to",
          "type": "address"
        },
        {
          "indexed": true,
          "internalType": "uint256",
          "name": "tokenId",
          "type": "uint256"
        }
      ],
      "name": "Transfer",
      "type": "event"
    },
    {
      "inputs": [],
      "name": "MAX_TOKENS",
      "outputs": [
        {
          "internalType": "uint256",
          "name": "",
          "type": "uint256"
        }
      ],
      "stateMutability": "view",
      "type": "function"
    },
    {
      "inputs": [
        {
          "internalType": "address",
          "name": "to",
          "type": "address"
        },
        {
          "internalType": "uint256",
          "name": "tokenId",
          "type": "uint256"
        }
      ],
      "name": "approve",
      "outputs": [],
      "stateMutability": "nonpayable",
      "type": "function"
    },
    {
      "inputs": [
        {
          "internalType": "address",
          "name": "owner",
          "type": "address"
        }
      ],
      "name": "balanceOf",
      "outputs": [
        {
          "internalType": "uint256",
          "name": "",
          "type": "uint256"
        }
      ],
      "stateMutability": "view",
      "type": "function"
    },
    {
      "inputs": [],
      "name": "baseURI",
      "outputs": [
        {
          "internalType": "string",
          "name": "",
          "type": "string"
        }
      ],
      "stateMutability": "view",
      "type": "function"
    },
    {
      "inputs": [
        {
          "internalType": "address[]",
          "name": "accounts",
          "type": "address[]"
        },
        {
          "internalType": "uint32[]",
          "name": "percentAllocations",
          "type": "uint32[]"
        },
        {
          "internalType": "uint32",
          "name": "distributorFee",
          "type": "uint32"
        }
      ],
      "name": "createSplit",
      "outputs": [],
      "stateMutability": "nonpayable",
      "type": "function"
    },
    {
      "inputs": [
        {
          "internalType": "address",
          "name": "account",
          "type": "address"
        },
        {
          "internalType": "uint256",
          "name": "withdrawETH",
          "type": "uint256"
        },
        {
          "internalType": "contract ERC20[]",
          "name": "tokens",
          "type": "address[]"
        },
        {
          "internalType": "address[]",
          "name": "accounts",
          "type": "address[]"
        },
        {
          "internalType": "uint32[]",
          "name": "percentAllocations",
          "type": "uint32[]"
        },
        {
          "internalType": "uint32",
          "name": "distributorFee",
          "type": "uint32"
        },
        {
          "internalType": "address",
          "name": "distributorAddress",
          "type": "address"
        }
      ],
      "name": "distributeAndWithdraw",
      "outputs": [],
      "stateMutability": "nonpayable",
      "type": "function"
    },
    {
      "inputs": [
        {
          "internalType": "contract ERC20",
          "name": "token",
          "type": "address"
        },
        {
          "internalType": "address[]",
          "name": "accounts",
          "type": "address[]"
        },
        {
          "internalType": "uint32[]",
          "name": "percentAllocations",
          "type": "uint32[]"
        },
        {
          "internalType": "uint32",
          "name": "distributorFee",
          "type": "uint32"
        },
        {
          "internalType": "address",
          "name": "distributorAddress",
          "type": "address"
        }
      ],
      "name": "distributeERC20",
      "outputs": [],
      "stateMutability": "nonpayable",
      "type": "function"
    },
    {
      "inputs": [
        {
          "internalType": "address[]",
          "name": "accounts",
          "type": "address[]"
        },
        {
          "internalType": "uint32[]",
          "name": "percentAllocations",
          "type": "uint32[]"
        },
        {
          "internalType": "uint32",
          "name": "distributorFee",
          "type": "uint32"
        },
        {
          "internalType": "address",
          "name": "distributorAddress",
          "type": "address"
        }
      ],
      "name": "distributeETH",
      "outputs": [],
      "stateMutability": "nonpayable",
      "type": "function"
    },
    {
      "inputs": [],
      "name": "flipSaleState",
      "outputs": [],
      "stateMutability": "nonpayable",
      "type": "function"
    },
    {
      "inputs": [
        {
          "internalType": "uint256",
          "name": "tokenId",
          "type": "uint256"
        }
      ],
      "name": "getApproved",
      "outputs": [
        {
          "internalType": "address",
          "name": "",
          "type": "address"
        }
      ],
      "stateMutability": "view",
      "type": "function"
    },
    {
      "inputs": [
        {
          "internalType": "address",
          "name": "_owner",
          "type": "address"
        },
        {
          "components": [
            {
              "internalType": "string",
              "name": "name",
              "type": "string"
            },
            {
              "internalType": "string",
              "name": "symbol",
              "type": "string"
            },
            {
              "internalType": "uint256",
              "name": "maxTokens",
              "type": "uint256"
            },
            {
              "internalType": "uint256",
              "name": "tokenPrice",
              "type": "uint256"
            },
            {
              "internalType": "uint256",
              "name": "maxTokenPurchase",
              "type": "uint256"
            },
            {
              "internalType": "uint256",
              "name": "saleStart",
              "type": "uint256"
            },
            {
              "internalType": "uint256",
              "name": "royaltyBPS",
              "type": "uint256"
            }
          ],
          "internalType": "struct EditionConfig",
          "name": "_editionConfig",
          "type": "tuple"
        },
        {
          "components": [
            {
              "internalType": "string",
              "name": "metadataURI",
              "type": "string"
            },
            {
              "internalType": "bytes",
              "name": "metadataRendererInit",
              "type": "bytes"
            }
          ],
          "internalType": "struct MetadataConfig",
          "name": "_metadataConfig",
          "type": "tuple"
        },
        {
          "internalType": "address",
          "name": "_metadataRenderer",
          "type": "address"
        },
        {
          "internalType": "address",
          "name": "_splitMain",
          "type": "address"
        }
      ],
      "name": "initialize",
      "outputs": [],
      "stateMutability": "nonpayable",
      "type": "function"
    },
    {
      "inputs": [
        {
          "internalType": "address",
          "name": "owner",
          "type": "address"
        },
        {
          "internalType": "address",
          "name": "operator",
          "type": "address"
        }
      ],
      "name": "isApprovedForAll",
      "outputs": [
        {
          "internalType": "bool",
          "name": "",
          "type": "bool"
        }
      ],
      "stateMutability": "view",
      "type": "function"
    },
    {
      "inputs": [],
      "name": "maxTokenPurchase",
      "outputs": [
        {
          "internalType": "uint256",
          "name": "",
          "type": "uint256"
        }
      ],
      "stateMutability": "view",
      "type": "function"
    },
    {
      "inputs": [],
      "name": "metadataRenderer",
      "outputs": [
        {
          "internalType": "address",
          "name": "",
          "type": "address"
        }
      ],
      "stateMutability": "view",
      "type": "function"
    },
    {
      "inputs": [
        {
          "internalType": "uint256",
          "name": "numberOfTokens",
          "type": "uint256"
        }
      ],
      "name": "mint",
      "outputs": [],
      "stateMutability": "payable",
      "type": "function"
    },
    {
      "inputs": [],
      "name": "name",
      "outputs": [
        {
          "internalType": "string",
          "name": "",
          "type": "string"
        }
      ],
      "stateMutability": "view",
      "type": "function"
    },
    {
      "inputs": [],
      "name": "owner",
      "outputs": [
        {
          "internalType": "address",
          "name": "",
          "type": "address"
        }
      ],
      "stateMutability": "view",
      "type": "function"
    },
    {
      "inputs": [
        {
          "internalType": "uint256",
          "name": "tokenId",
          "type": "uint256"
        }
      ],
      "name": "ownerOf",
      "outputs": [
        {
          "internalType": "address",
          "name": "",
          "type": "address"
        }
      ],
      "stateMutability": "view",
      "type": "function"
    },
    {
      "inputs": [],
      "name": "renounceOwnership",
      "outputs": [],
      "stateMutability": "nonpayable",
      "type": "function"
    },
    {
      "inputs": [
        {
          "internalType": "uint256",
          "name": "numReserved",
          "type": "uint256"
        }
      ],
      "name": "reserveDCNT",
      "outputs": [],
      "stateMutability": "nonpayable",
      "type": "function"
    },
    {
      "inputs": [],
      "name": "royaltyBPS",
      "outputs": [
        {
          "internalType": "uint256",
          "name": "",
          "type": "uint256"
        }
      ],
      "stateMutability": "view",
      "type": "function"
    },
    {
      "inputs": [
        {
          "internalType": "uint256",
          "name": "tokenId",
          "type": "uint256"
        },
        {
          "internalType": "uint256",
          "name": "salePrice",
          "type": "uint256"
        }
      ],
      "name": "royaltyInfo",
      "outputs": [
        {
          "internalType": "address",
          "name": "receiver",
          "type": "address"
        },
        {
          "internalType": "uint256",
          "name": "royaltyAmount",
          "type": "uint256"
        }
      ],
      "stateMutability": "view",
      "type": "function"
    },
    {
      "inputs": [
        {
          "internalType": "address",
          "name": "from",
          "type": "address"
        },
        {
          "internalType": "address",
          "name": "to",
          "type": "address"
        },
        {
          "internalType": "uint256",
          "name": "tokenId",
          "type": "uint256"
        }
      ],
      "name": "safeTransferFrom",
      "outputs": [],
      "stateMutability": "nonpayable",
      "type": "function"
    },
    {
      "inputs": [
        {
          "internalType": "address",
          "name": "from",
          "type": "address"
        },
        {
          "internalType": "address",
          "name": "to",
          "type": "address"
        },
        {
          "internalType": "uint256",
          "name": "tokenId",
          "type": "uint256"
        },
        {
          "internalType": "bytes",
          "name": "_data",
          "type": "bytes"
        }
      ],
      "name": "safeTransferFrom",
      "outputs": [],
      "stateMutability": "nonpayable",
      "type": "function"
    },
    {
      "inputs": [],
      "name": "saleIsActive",
      "outputs": [
        {
          "internalType": "bool",
          "name": "_saleIsActive",
          "type": "bool"
        }
      ],
      "stateMutability": "view",
      "type": "function"
    },
    {
      "inputs": [],
      "name": "saleIsPaused",
      "outputs": [
        {
          "internalType": "bool",
          "name": "",
          "type": "bool"
        }
      ],
      "stateMutability": "view",
      "type": "function"
    },
    {
      "inputs": [],
      "name": "saleStart",
      "outputs": [
        {
          "internalType": "uint256",
          "name": "",
          "type": "uint256"
        }
      ],
      "stateMutability": "view",
      "type": "function"
    },
    {
      "inputs": [
        {
          "internalType": "address",
          "name": "operator",
          "type": "address"
        },
        {
          "internalType": "bool",
          "name": "approved",
          "type": "bool"
        }
      ],
      "name": "setApprovalForAll",
      "outputs": [],
      "stateMutability": "nonpayable",
      "type": "function"
    },
    {
      "inputs": [
        {
          "internalType": "string",
          "name": "uri",
          "type": "string"
        }
      ],
      "name": "setBaseURI",
      "outputs": [],
      "stateMutability": "nonpayable",
      "type": "function"
    },
    {
      "inputs": [
        {
          "internalType": "address",
          "name": "_metadataRenderer",
          "type": "address"
        }
      ],
      "name": "setMetadataRenderer",
      "outputs": [],
      "stateMutability": "nonpayable",
      "type": "function"
    },
    {
      "inputs": [],
      "name": "splitMain",
      "outputs": [
        {
          "internalType": "address",
          "name": "",
          "type": "address"
        }
      ],
      "stateMutability": "view",
      "type": "function"
    },
    {
      "inputs": [],
      "name": "splitWallet",
      "outputs": [
        {
          "internalType": "address",
          "name": "",
          "type": "address"
        }
      ],
      "stateMutability": "view",
      "type": "function"
    },
    {
      "inputs": [
        {
          "internalType": "bytes4",
          "name": "interfaceId",
          "type": "bytes4"
        }
      ],
      "name": "supportsInterface",
      "outputs": [
        {
          "internalType": "bool",
          "name": "",
          "type": "bool"
        }
      ],
      "stateMutability": "view",
      "type": "function"
    },
    {
      "inputs": [],
      "name": "symbol",
      "outputs": [
        {
          "internalType": "string",
          "name": "",
          "type": "string"
        }
      ],
      "stateMutability": "view",
      "type": "function"
    },
    {
      "inputs": [],
      "name": "tokenPrice",
      "outputs": [
        {
          "internalType": "uint256",
          "name": "",
          "type": "uint256"
        }
      ],
      "stateMutability": "view",
      "type": "function"
    },
    {
      "inputs": [
        {
          "internalType": "uint256",
          "name": "tokenId",
          "type": "uint256"
        }
      ],
      "name": "tokenURI",
      "outputs": [
        {
          "internalType": "string",
          "name": "",
          "type": "string"
        }
      ],
      "stateMutability": "view",
      "type": "function"
    },
    {
      "inputs": [],
      "name": "totalSupply",
      "outputs": [
        {
          "internalType": "uint256",
          "name": "",
          "type": "uint256"
        }
      ],
      "stateMutability": "view",
      "type": "function"
    },
    {
      "inputs": [
        {
          "internalType": "address",
          "name": "from",
          "type": "address"
        },
        {
          "internalType": "address",
          "name": "to",
          "type": "address"
        },
        {
          "internalType": "uint256",
          "name": "tokenId",
          "type": "uint256"
        }
      ],
      "name": "transferFrom",
      "outputs": [],
      "stateMutability": "nonpayable",
      "type": "function"
    },
    {
      "inputs": [
        {
          "internalType": "address",
          "name": "newOwner",
          "type": "address"
        }
      ],
      "name": "transferOwnership",
      "outputs": [],
      "stateMutability": "nonpayable",
      "type": "function"
    },
    {
      "inputs": [
        {
          "internalType": "uint256",
          "name": "transferETH",
          "type": "uint256"
        },
        {
          "internalType": "contract ERC20[]",
          "name": "tokens",
          "type": "address[]"
        }
      ],
      "name": "transferToSplit",
      "outputs": [],
      "stateMutability": "nonpayable",
      "type": "function"
    },
    {
      "inputs": [],
      "name": "withdraw",
      "outputs": [],
      "stateMutability": "nonpayable",
      "type": "function"
    }
  ],
  "bytecode": "0x60806040523480156200001157600080fd5b5062000032620000266200003860201b60201c565b6200004060201b60201c565b62000106565b600033905090565b6000600860029054906101000a900473ffffffffffffffffffffffffffffffffffffffff16905081600860026101000a81548173ffffffffffffffffffffffffffffffffffffffff021916908373ffffffffffffffffffffffffffffffffffffffff1602179055508173ffffffffffffffffffffffffffffffffffffffff168173ffffffffffffffffffffffffffffffffffffffff167f8be0079c531659141344cd1fd0a4f28419497f9722a3daafe3b4186f6b6457e060405160405180910390a35050565b6150c280620001166000396000f3fe6080604052600436106102455760003560e01c806370a0823111610139578063ab0bcc41116100b6578063e6c350c11161007a578063e6c350c114610833578063e985e9c51461085e578063eb8d24441461089b578063f2fde38b146108c6578063f47c84c5146108ef578063fd4fe8a81461091a57610245565b8063ab0bcc411461074e578063b88d4fde14610779578063b9c9d93a146107a2578063c4559d5a146107cd578063c87b56dd146107f657610245565b80638da5cb5b116100fd5780638da5cb5b1461068a57806395d89b41146106b5578063a0712d68146106e0578063a22cb465146106fc578063aa3de3cd1461072557610245565b806370a08231146105b7578063713b9787146105f4578063715018a61461061f57806379ab7c8e146106365780637ff9b5961461065f57610245565b8063284a44a8116101c757806355f804b31161018b57806355f804b3146104d25780636352211e146104fb5780636c0360eb146105385780636c1951ae14610563578063703199701461058c57610245565b8063284a44a8146104145780632a55205a1461043d57806334918dfd1461047b5780633ccfd60b1461049257806342842e0e146104a957610245565b8063095ea7b31161020e578063095ea7b31461034157806309aa3dcf1461036a5780630e769b2b1461039557806318160ddd146103c057806323b872dd146103eb57610245565b80625f16fb1461024a578063015893c51461027357806301ffc9a71461029c57806306fdde03146102d9578063081812fc14610304575b600080fd5b34801561025657600080fd5b50610271600480360381019061026c919061332e565b610943565b005b34801561027f57600080fd5b5061029a600480360381019061029591906133ea565b610a53565b005b3480156102a857600080fd5b506102c360048036038101906102be91906134d7565b610bf9565b6040516102d0919061351f565b60405180910390f35b3480156102e557600080fd5b506102ee610c3b565b6040516102fb91906135d3565b60405180910390f35b34801561031057600080fd5b5061032b6004803603810190610326919061362b565b610ccd565b6040516103389190613667565b60405180910390f35b34801561034d57600080fd5b5061036860048036038101906103639190613682565b610d4c565b005b34801561037657600080fd5b5061037f610e90565b60405161038c91906136d1565b60405180910390f35b3480156103a157600080fd5b506103aa610e96565b6040516103b79190613667565b60405180910390f35b3480156103cc57600080fd5b506103d5610ebc565b6040516103e291906136d1565b60405180910390f35b3480156103f757600080fd5b50610412600480360381019061040d91906136ec565b610ed3565b005b34801561042057600080fd5b5061043b6004803603810190610436919061387d565b6111f8565b005b34801561044957600080fd5b50610464600480360381019061045f919061397b565b6112e3565b6040516104729291906139bb565b60405180910390f35b34801561048757600080fd5b506104906113e6565b005b34801561049e57600080fd5b506104a761141a565b005b3480156104b557600080fd5b506104d060048036038101906104cb91906136ec565b6114e1565b005b3480156104de57600080fd5b506104f960048036038101906104f49190613a99565b611501565b005b34801561050757600080fd5b50610522600480360381019061051d919061362b565b611523565b60405161052f9190613667565b60405180910390f35b34801561054457600080fd5b5061054d611535565b60405161055a91906135d3565b60405180910390f35b34801561056f57600080fd5b5061058a6004803603810190610585919061362b565b6115c3565b005b34801561059857600080fd5b506105a161166a565b6040516105ae9190613667565b60405180910390f35b3480156105c357600080fd5b506105de60048036038101906105d99190613ae2565b611690565b6040516105eb91906136d1565b60405180910390f35b34801561060057600080fd5b50610609611749565b6040516106169190613667565b60405180910390f35b34801561062b57600080fd5b5061063461176f565b005b34801561064257600080fd5b5061065d60048036038101906106589190613b0f565b611783565b005b34801561066b57600080fd5b50610674611850565b60405161068191906136d1565b60405180910390f35b34801561069657600080fd5b5061069f611856565b6040516106ac9190613667565b60405180910390f35b3480156106c157600080fd5b506106ca611880565b6040516106d791906135d3565b60405180910390f35b6106fa60048036038101906106f5919061362b565b611912565b005b34801561070857600080fd5b50610723600480360381019061071e9190613b97565b611b5a565b005b34801561073157600080fd5b5061074c60048036038101906107479190613df6565b611cd2565b005b34801561075a57600080fd5b50610763611ff1565b60405161077091906136d1565b60405180910390f35b34801561078557600080fd5b506107a0600480360381019061079b9190613ea9565b611ff7565b005b3480156107ae57600080fd5b506107b761206a565b6040516107c491906136d1565b60405180910390f35b3480156107d957600080fd5b506107f460048036038101906107ef9190613f2c565b612070565b005b34801561080257600080fd5b5061081d6004803603810190610818919061362b565b61217c565b60405161082a91906135d3565b60405180910390f35b34801561083f57600080fd5b506108486122db565b604051610855919061351f565b60405180910390f35b34801561086a57600080fd5b5061088560048036038101906108809190613fd3565b6122ee565b604051610892919061351f565b60405180910390f35b3480156108a757600080fd5b506108b0612382565b6040516108bd919061351f565b60405180910390f35b3480156108d257600080fd5b506108ed60048036038101906108e89190613ae2565b6123a8565b005b3480156108fb57600080fd5b5061090461242c565b60405161091191906136d1565b60405180910390f35b34801561092657600080fd5b50610941600480360381019061093c9190613ae2565b612432565b005b600073ffffffffffffffffffffffffffffffffffffffff1661096361247e565b73ffffffffffffffffffffffffffffffffffffffff1614156109ba576040517f08c379a00000000000000000000000000000000000000000000000000000000081526004016109b19061405f565b60405180910390fd5b6109c3876124a8565b6109cb6125ce565b73ffffffffffffffffffffffffffffffffffffffff1663158113026109ee61247e565b898989898989896040518963ffffffff1660e01b8152600401610a18989796959493929190614273565b600060405180830381600087803b158015610a3257600080fd5b505af1158015610a46573d6000803e3d6000fd5b5050505050505050505050565b610a5b6125f8565b600073ffffffffffffffffffffffffffffffffffffffff16610a7b6125ce565b73ffffffffffffffffffffffffffffffffffffffff161415610ad2576040517f08c379a0000000000000000000000000000000000000000000000000000000008152600401610ac990614332565b60405180910390fd5b600073ffffffffffffffffffffffffffffffffffffffff16610af261247e565b73ffffffffffffffffffffffffffffffffffffffff1614610b48576040517f08c379a0000000000000000000000000000000000000000000000000000000008152600401610b3f9061439e565b60405180910390fd5b6000610b526125ce565b73ffffffffffffffffffffffffffffffffffffffff16637601f7828787878787336040518763ffffffff1660e01b8152600401610b94969594939291906143be565b602060405180830381600087803b158015610bae57600080fd5b505af1158015610bc2573d6000803e3d6000fd5b505050506040513d601f19601f82011682018060405250810190610be6919061442a565b9050610bf181612676565b505050505050565b6000632a55205a60e01b827bffffffffffffffffffffffffffffffffffffffffffffffffffffffff19161480610c345750610c33826126ba565b5b9050919050565b606060028054610c4a90614486565b80601f0160208091040260200160405190810160405280929190818152602001828054610c7690614486565b8015610cc35780601f10610c9857610100808354040283529160200191610cc3565b820191906000526020600020905b815481529060010190602001808311610ca657829003601f168201915b5050505050905090565b6000610cd88261274c565b610d0e576040517fcf4700e400000000000000000000000000000000000000000000000000000000815260040160405180910390fd5b6006600083815260200190815260200160002060000160009054906101000a900473ffffffffffffffffffffffffffffffffffffffff169050919050565b6000610d5782611523565b90508073ffffffffffffffffffffffffffffffffffffffff16610d786127ab565b73ffffffffffffffffffffffffffffffffffffffff1614610ddb57610da481610d9f6127ab565b6122ee565b610dda576040517fcfb3b94200000000000000000000000000000000000000000000000000000000815260040160405180910390fd5b5b826006600084815260200190815260200160002060000160006101000a81548173ffffffffffffffffffffffffffffffffffffffff021916908373ffffffffffffffffffffffffffffffffffffffff160217905550818373ffffffffffffffffffffffffffffffffffffffff168273ffffffffffffffffffffffffffffffffffffffff167f8c5be1e5ebec7d5bd14f71427d1e84f3dd0314c0f7b2291e5b200ac8c7c3b92560405160405180910390a4505050565b600b5481565b601160009054906101000a900473ffffffffffffffffffffffffffffffffffffffff1681565b6000610ec66127b3565b6001546000540303905090565b6000610ede826127b8565b90508373ffffffffffffffffffffffffffffffffffffffff168173ffffffffffffffffffffffffffffffffffffffff1614610f45576040517fa114810000000000000000000000000000000000000000000000000000000000815260040160405180910390fd5b600080610f5184612886565b91509150610f678187610f626127ab565b6128ad565b610fb357610f7c86610f776127ab565b6122ee565b610fb2576040517f59c896be00000000000000000000000000000000000000000000000000000000815260040160405180910390fd5b5b600073ffffffffffffffffffffffffffffffffffffffff168573ffffffffffffffffffffffffffffffffffffffff16141561101a576040517fea553b3400000000000000000000000000000000000000000000000000000000815260040160405180910390fd5b61102786868660016128f1565b801561103257600082555b600560008773ffffffffffffffffffffffffffffffffffffffff1673ffffffffffffffffffffffffffffffffffffffff168152602001908152602001600020600081546001900391905081905550600560008673ffffffffffffffffffffffffffffffffffffffff1673ffffffffffffffffffffffffffffffffffffffff1681526020019081526020016000206000815460010191905081905550611100856110dc8888876128f7565b7c02000000000000000000000000000000000000000000000000000000001761291f565b600460008681526020019081526020016000208190555060007c020000000000000000000000000000000000000000000000000000000084161415611188576000600185019050600060046000838152602001908152602001600020541415611186576000548114611185578360046000838152602001908152602001600020819055505b5b505b838573ffffffffffffffffffffffffffffffffffffffff168773ffffffffffffffffffffffffffffffffffffffff167fddf252ad1be2c89b69c2b068fc378daa952ba7f163c4a11628f55a4df523b3ef60405160405180910390a46111f0868686600161294a565b505050505050565b600073ffffffffffffffffffffffffffffffffffffffff1661121861247e565b73ffffffffffffffffffffffffffffffffffffffff16141561126f576040517f08c379a00000000000000000000000000000000000000000000000000000000081526004016112669061405f565b60405180910390fd5b6000881461128657611285868686868686612070565b5b60005b87518110156112cc576112bb8882815181106112a8576112a76144b8565b5b6020026020010151888888888888610943565b806112c590614516565b9050611289565b506112d8898989612950565b505050505050505050565b6000806112ef8461274c565b61132e576040517f08c379a0000000000000000000000000000000000000000000000000000000008152600401611325906145ab565b60405180910390fd5b600073ffffffffffffffffffffffffffffffffffffffff16601260009054906101000a900473ffffffffffffffffffffffffffffffffffffffff1673ffffffffffffffffffffffffffffffffffffffff16146113ae57601260009054906101000a900473ffffffffffffffffffffffffffffffffffffffff1691506113b9565b6113b6611856565b91505b6000612710601054856113cc91906145cb565b6113d69190614654565b9050828192509250509250929050565b6113ee6125f8565b600d60009054906101000a900460ff1615600d60006101000a81548160ff021916908315150217905550565b6114226125f8565b600073ffffffffffffffffffffffffffffffffffffffff1661144261247e565b73ffffffffffffffffffffffffffffffffffffffff1614611498576040517f08c379a000000000000000000000000000000000000000000000000000000000815260040161148f906146f7565b60405180910390fd5b3373ffffffffffffffffffffffffffffffffffffffff166108fc479081150290604051600060405180830381858888f193505050501580156114de573d6000803e3d6000fd5b50565b6114fc83838360405180602001604052806000815250611ff7565b505050565b6115096125f8565b80600e908051906020019061151f9291906130e4565b5050565b600061152e826127b8565b9050919050565b600e805461154290614486565b80601f016020809104026020016040519081016040528092919081815260200182805461156e90614486565b80156115bb5780601f10611590576101008083540402835291602001916115bb565b820191906000526020600020905b81548152906001019060200180831161159e57829003601f168201915b505050505081565b6115cb6125f8565b60006115d5610ebc565b905060095482826115e69190614717565b10611626576040517f08c379a000000000000000000000000000000000000000000000000000000000815260040161161d906147b9565b60405180910390fd5b60005b828110156116655761165233600183856116439190614717565b61164d9190614717565b6129cb565b808061165d90614516565b915050611629565b505050565b600f60009054906101000a900473ffffffffffffffffffffffffffffffffffffffff1681565b60008073ffffffffffffffffffffffffffffffffffffffff168273ffffffffffffffffffffffffffffffffffffffff1614156116f8576040517f8f4eb60400000000000000000000000000000000000000000000000000000000815260040160405180910390fd5b67ffffffffffffffff600560008473ffffffffffffffffffffffffffffffffffffffff1673ffffffffffffffffffffffffffffffffffffffff16815260200190815260200160002054169050919050565b601260009054906101000a900473ffffffffffffffffffffffffffffffffffffffff1681565b6117776125f8565b61178160006129e9565b565b600073ffffffffffffffffffffffffffffffffffffffff166117a361247e565b73ffffffffffffffffffffffffffffffffffffffff1614156117fa576040517f08c379a00000000000000000000000000000000000000000000000000000000081526004016117f19061405f565b60405180910390fd5b6000821461180b5761180a612aaf565b5b60005b815181101561184b5761183a82828151811061182d5761182c6144b8565b5b60200260200101516124a8565b8061184490614516565b905061180e565b505050565b600a5481565b6000600860029054906101000a900473ffffffffffffffffffffffffffffffffffffffff16905090565b60606003805461188f90614486565b80601f01602080910402602001604051908101604052809291908181526020018280546118bb90614486565b80156119085780601f106118dd57610100808354040283529160200191611908565b820191906000526020600020905b8154815290600101906020018083116118eb57829003601f168201915b5050505050905090565b600061191c610ebc565b9050600c54421015611963576040517f08c379a000000000000000000000000000000000000000000000000000000000815260040161195a90614825565b60405180910390fd5b600d60009054906101000a900460ff16156119b3576040517f08c379a00000000000000000000000000000000000000000000000000000000081526004016119aa90614891565b60405180910390fd5b60095482826119c29190614717565b1115611a03576040517f08c379a00000000000000000000000000000000000000000000000000000000081526004016119fa906147b9565b60405180910390fd5b600954811115611a48576040517f08c379a0000000000000000000000000000000000000000000000000000000008152600401611a3f906148fd565b60405180910390fd5b81600a54611a5691906145cb565b341015611a98576040517f08c379a0000000000000000000000000000000000000000000000000000000008152600401611a8f90614969565b60405180910390fd5b6000600b5414611ae857600b54821115611ae7576040517f08c379a0000000000000000000000000000000000000000000000000000000008152600401611ade906149d5565b60405180910390fd5b5b611af233836129cb565b60005b82811015611b55577f30385c845b448a36257a6a1716e6ad2e1bc2cbe333cde1e69fe849ad6511adfe338380611b2a90614516565b9450604051611b3a9291906139bb565b60405180910390a18080611b4d90614516565b915050611af5565b505050565b611b626127ab565b73ffffffffffffffffffffffffffffffffffffffff168273ffffffffffffffffffffffffffffffffffffffff161415611bc7576040517fb06307db00000000000000000000000000000000000000000000000000000000815260040160405180910390fd5b8060076000611bd46127ab565b73ffffffffffffffffffffffffffffffffffffffff1673ffffffffffffffffffffffffffffffffffffffff16815260200190815260200160002060008473ffffffffffffffffffffffffffffffffffffffff1673ffffffffffffffffffffffffffffffffffffffff16815260200190815260200160002060006101000a81548160ff0219169083151502179055508173ffffffffffffffffffffffffffffffffffffffff16611c816127ab565b73ffffffffffffffffffffffffffffffffffffffff167f17307eab39ab6107e8899845ad3d59bd9653f200f220920489ca2b5937696c3183604051611cc6919061351f565b60405180910390a35050565b6000600860019054906101000a900460ff16159050808015611d0657506001600860009054906101000a900460ff1660ff16105b80611d355750611d1530612b65565b158015611d3457506001600860009054906101000a900460ff1660ff16145b5b611d74576040517f08c379a0000000000000000000000000000000000000000000000000000000008152600401611d6b90614a67565b60405180910390fd5b6001600860006101000a81548160ff021916908360ff1602179055508015611db2576001600860016101000a81548160ff0219169083151502179055505b611dbb866129e9565b846000015160029080519060200190611dd59291906130e4565b50846020015160039080519060200190611df09291906130e4565b50611df96127b3565b60008190555084604001516009819055508460600151600a819055508460800151600b819055508460a00151600c819055508460c0015160108190555081601160006101000a81548173ffffffffffffffffffffffffffffffffffffffff021916908373ffffffffffffffffffffffffffffffffffffffff160217905550600073ffffffffffffffffffffffffffffffffffffffff168373ffffffffffffffffffffffffffffffffffffffff1614158015611eb957506000846020015151115b15611f735782600f60006101000a81548173ffffffffffffffffffffffffffffffffffffffff021916908373ffffffffffffffffffffffffffffffffffffffff1602179055508273ffffffffffffffffffffffffffffffffffffffff1663856a7ffa85602001516040518263ffffffff1660e01b8152600401611f3c9190614adc565b600060405180830381600087803b158015611f5657600080fd5b505af1158015611f6a573d6000803e3d6000fd5b50505050611f8f565b8360000151600e9080519060200190611f8d9291906130e4565b505b8015611fe9576000600860016101000a81548160ff0219169083151502179055507f7f26b83ff96e1f2b6a682f133852f6798a09c465da95921460cefb38474024986001604051611fe09190614b46565b60405180910390a15b505050505050565b600c5481565b612002848484610ed3565b60008373ffffffffffffffffffffffffffffffffffffffff163b146120645761202d84848484612b88565b612063576040517fd1a57ed600000000000000000000000000000000000000000000000000000000815260040160405180910390fd5b5b50505050565b60105481565b600073ffffffffffffffffffffffffffffffffffffffff1661209061247e565b73ffffffffffffffffffffffffffffffffffffffff1614156120e7576040517f08c379a00000000000000000000000000000000000000000000000000000000081526004016120de9061405f565b60405180910390fd5b6120ef612aaf565b6120f76125ce565b73ffffffffffffffffffffffffffffffffffffffff1663e61cb05e61211a61247e565b8888888888886040518863ffffffff1660e01b81526004016121429796959493929190614b61565b600060405180830381600087803b15801561215c57600080fd5b505af1158015612170573d6000803e3d6000fd5b50505050505050505050565b60606121878261274c565b6121bd576040517fa14c4b5000000000000000000000000000000000000000000000000000000000815260040160405180910390fd5b600073ffffffffffffffffffffffffffffffffffffffff16600f60009054906101000a900473ffffffffffffffffffffffffffffffffffffffff1673ffffffffffffffffffffffffffffffffffffffff16146122ca57600f60009054906101000a900473ffffffffffffffffffffffffffffffffffffffff1673ffffffffffffffffffffffffffffffffffffffff1663c87b56dd836040518263ffffffff1660e01b815260040161226e91906136d1565b60006040518083038186803b15801561228657600080fd5b505afa15801561229a573d6000803e3d6000fd5b505050506040513d6000823e3d601f19601f820116820180604052508101906122c39190614c36565b90506122d6565b6122d382612ce8565b90505b919050565b600d60009054906101000a900460ff1681565b6000600760008473ffffffffffffffffffffffffffffffffffffffff1673ffffffffffffffffffffffffffffffffffffffff16815260200190815260200160002060008373ffffffffffffffffffffffffffffffffffffffff1673ffffffffffffffffffffffffffffffffffffffff16815260200190815260200160002060009054906101000a900460ff16905092915050565b6000600c5442101580156123a35750600d60009054906101000a900460ff16155b905090565b6123b06125f8565b600073ffffffffffffffffffffffffffffffffffffffff168173ffffffffffffffffffffffffffffffffffffffff161415612420576040517f08c379a000000000000000000000000000000000000000000000000000000000815260040161241790614cf1565b60405180910390fd5b612429816129e9565b50565b60095481565b61243a6125f8565b80600f60006101000a81548173ffffffffffffffffffffffffffffffffffffffff021916908373ffffffffffffffffffffffffffffffffffffffff16021790555050565b6000601260009054906101000a900473ffffffffffffffffffffffffffffffffffffffff16905090565b60008173ffffffffffffffffffffffffffffffffffffffff166370a08231306040518263ffffffff1660e01b81526004016124e39190613667565b60206040518083038186803b1580156124fb57600080fd5b505afa15801561250f573d6000803e3d6000fd5b505050506040513d601f19601f820116820180604052508101906125339190614d26565b90508173ffffffffffffffffffffffffffffffffffffffff1663a9059cbb61255961247e565b836040518363ffffffff1660e01b81526004016125779291906139bb565b602060405180830381600087803b15801561259157600080fd5b505af11580156125a5573d6000803e3d6000fd5b505050506040513d601f19601f820116820180604052508101906125c99190614d68565b505050565b6000601160009054906101000a900473ffffffffffffffffffffffffffffffffffffffff16905090565b612600612d87565b73ffffffffffffffffffffffffffffffffffffffff1661261e611856565b73ffffffffffffffffffffffffffffffffffffffff1614612674576040517f08c379a000000000000000000000000000000000000000000000000000000000815260040161266b90614de1565b60405180910390fd5b565b80601260006101000a81548173ffffffffffffffffffffffffffffffffffffffff021916908373ffffffffffffffffffffffffffffffffffffffff16021790555050565b60006301ffc9a760e01b827bffffffffffffffffffffffffffffffffffffffffffffffffffffffff1916148061271557506380ac58cd60e01b827bffffffffffffffffffffffffffffffffffffffffffffffffffffffff1916145b806127455750635b5e139f60e01b827bffffffffffffffffffffffffffffffffffffffffffffffffffffffff1916145b9050919050565b6000816127576127b3565b11158015612766575060005482105b80156127a4575060007c0100000000000000000000000000000000000000000000000000000000600460008581526020019081526020016000205416145b9050919050565b600033905090565b600090565b600080829050806127c76127b3565b1161284f5760005481101561284e5760006004600083815260200190815260200160002054905060007c01000000000000000000000000000000000000000000000000000000008216141561284c575b6000811415612842576004600083600190039350838152602001908152602001600020549050612817565b8092505050612881565b505b5b6040517fdf2d9b4200000000000000000000000000000000000000000000000000000000815260040160405180910390fd5b919050565b60008060006006600085815260200190815260200160002090508092508254915050915091565b600073ffffffffffffffffffffffffffffffffffffffff8316925073ffffffffffffffffffffffffffffffffffffffff821691508382148383141790509392505050565b50505050565b60008060e883901c905060e861290e868684612d8f565b62ffffff16901b9150509392505050565b600073ffffffffffffffffffffffffffffffffffffffff83169250814260a01b178317905092915050565b50505050565b6129586125ce565b73ffffffffffffffffffffffffffffffffffffffff16636e5f69198484846040518463ffffffff1660e01b815260040161299493929190614eae565b600060405180830381600087803b1580156129ae57600080fd5b505af11580156129c2573d6000803e3d6000fd5b50505050505050565b6129e5828260405180602001604052806000815250612d98565b5050565b6000600860029054906101000a900473ffffffffffffffffffffffffffffffffffffffff16905081600860026101000a81548173ffffffffffffffffffffffffffffffffffffffff021916908373ffffffffffffffffffffffffffffffffffffffff1602179055508173ffffffffffffffffffffffffffffffffffffffff168173ffffffffffffffffffffffffffffffffffffffff167f8be0079c531659141344cd1fd0a4f28419497f9722a3daafe3b4186f6b6457e060405160405180910390a35050565b6000612ab961247e565b73ffffffffffffffffffffffffffffffffffffffff1647604051612adc90614f1d565b60006040518083038185875af1925050503d8060008114612b19576040519150601f19603f3d011682016040523d82523d6000602084013e612b1e565b606091505b5050905080612b62576040517f08c379a0000000000000000000000000000000000000000000000000000000008152600401612b5990614f7e565b60405180910390fd5b50565b6000808273ffffffffffffffffffffffffffffffffffffffff163b119050919050565b60008373ffffffffffffffffffffffffffffffffffffffff1663150b7a02612bae6127ab565b8786866040518563ffffffff1660e01b8152600401612bd09493929190614f9e565b602060405180830381600087803b158015612bea57600080fd5b505af1925050508015612c1b57506040513d601f19601f82011682018060405250810190612c189190614fff565b60015b612c95573d8060008114612c4b576040519150601f19603f3d011682016040523d82523d6000602084013e612c50565b606091505b50600081511415612c8d576040517fd1a57ed600000000000000000000000000000000000000000000000000000000815260040160405180910390fd5b805181602001fd5b63150b7a0260e01b7bffffffffffffffffffffffffffffffffffffffffffffffffffffffff1916817bffffffffffffffffffffffffffffffffffffffffffffffffffffffff191614915050949350505050565b6060612cf38261274c565b612d29576040517fa14c4b5000000000000000000000000000000000000000000000000000000000815260040160405180910390fd5b6000612d33612e35565b9050600081511415612d545760405180602001604052806000815250612d7f565b80612d5e84612ec7565b604051602001612d6f929190615068565b6040516020818303038152906040525b915050919050565b600033905090565b60009392505050565b612da28383612f17565b60008373ffffffffffffffffffffffffffffffffffffffff163b14612e3057600080549050600083820390505b612de26000868380600101945086612b88565b612e18576040517fd1a57ed600000000000000000000000000000000000000000000000000000000815260040160405180910390fd5b818110612dcf578160005414612e2d57600080fd5b50505b505050565b6060600e8054612e4490614486565b80601f0160208091040260200160405190810160405280929190818152602001828054612e7090614486565b8015612ebd5780601f10612e9257610100808354040283529160200191612ebd565b820191906000526020600020905b815481529060010190602001808311612ea057829003601f168201915b5050505050905090565b606060806040510190508060405280825b600115612f0357600183039250600a81066030018353600a8104905080612efe57612f03565b612ed8565b508181036020830392508083525050919050565b6000805490506000821415612f58576040517fb562e8dd00000000000000000000000000000000000000000000000000000000815260040160405180910390fd5b612f6560008483856128f1565b600160406001901b178202600560008573ffffffffffffffffffffffffffffffffffffffff1673ffffffffffffffffffffffffffffffffffffffff16815260200190815260200160002060008282540192505081905550612fdc83612fcd60008660006128f7565b612fd6856130d4565b1761291f565b6004600083815260200190815260200160002081905550600080838301905073ffffffffffffffffffffffffffffffffffffffff85169150828260007fddf252ad1be2c89b69c2b068fc378daa952ba7f163c4a11628f55a4df523b3ef600080a4600183015b81811461307d57808360007fddf252ad1be2c89b69c2b068fc378daa952ba7f163c4a11628f55a4df523b3ef600080a4600181019050613042565b5060008214156130b9576040517f2e07630000000000000000000000000000000000000000000000000000000000815260040160405180910390fd5b8060008190555050506130cf600084838561294a565b505050565b60006001821460e11b9050919050565b8280546130f090614486565b90600052602060002090601f0160209004810192826131125760008555613159565b82601f1061312b57805160ff1916838001178555613159565b82800160010185558215613159579182015b8281111561315857825182559160200191906001019061313d565b5b509050613166919061316a565b5090565b5b8082111561318357600081600090555060010161316b565b5090565b6000604051905090565b600080fd5b600080fd5b600073ffffffffffffffffffffffffffffffffffffffff82169050919050565b60006131c68261319b565b9050919050565b60006131d8826131bb565b9050919050565b6131e8816131cd565b81146131f357600080fd5b50565b600081359050613205816131df565b92915050565b600080fd5b600080fd5b600080fd5b60008083601f8401126132305761322f61320b565b5b8235905067ffffffffffffffff81111561324d5761324c613210565b5b60208301915083602082028301111561326957613268613215565b5b9250929050565b60008083601f8401126132865761328561320b565b5b8235905067ffffffffffffffff8111156132a3576132a2613210565b5b6020830191508360208202830111156132bf576132be613215565b5b9250929050565b600063ffffffff82169050919050565b6132df816132c6565b81146132ea57600080fd5b50565b6000813590506132fc816132d6565b92915050565b61330b816131bb565b811461331657600080fd5b50565b60008135905061332881613302565b92915050565b600080600080600080600060a0888a03121561334d5761334c613191565b5b600061335b8a828b016131f6565b975050602088013567ffffffffffffffff81111561337c5761337b613196565b5b6133888a828b0161321a565b9650965050604088013567ffffffffffffffff8111156133ab576133aa613196565b5b6133b78a828b01613270565b945094505060606133ca8a828b016132ed565b92505060806133db8a828b01613319565b91505092959891949750929550565b60008060008060006060868803121561340657613405613191565b5b600086013567ffffffffffffffff81111561342457613423613196565b5b6134308882890161321a565b9550955050602086013567ffffffffffffffff81111561345357613452613196565b5b61345f88828901613270565b93509350506040613472888289016132ed565b9150509295509295909350565b60007fffffffff0000000000000000000000000000000000000000000000000000000082169050919050565b6134b48161347f565b81146134bf57600080fd5b50565b6000813590506134d1816134ab565b92915050565b6000602082840312156134ed576134ec613191565b5b60006134fb848285016134c2565b91505092915050565b60008115159050919050565b61351981613504565b82525050565b60006020820190506135346000830184613510565b92915050565b600081519050919050565b600082825260208201905092915050565b60005b83811015613574578082015181840152602081019050613559565b83811115613583576000848401525b50505050565b6000601f19601f8301169050919050565b60006135a58261353a565b6135af8185613545565b93506135bf818560208601613556565b6135c881613589565b840191505092915050565b600060208201905081810360008301526135ed818461359a565b905092915050565b6000819050919050565b613608816135f5565b811461361357600080fd5b50565b600081359050613625816135ff565b92915050565b60006020828403121561364157613640613191565b5b600061364f84828501613616565b91505092915050565b613661816131bb565b82525050565b600060208201905061367c6000830184613658565b92915050565b6000806040838503121561369957613698613191565b5b60006136a785828601613319565b92505060206136b885828601613616565b9150509250929050565b6136cb816135f5565b82525050565b60006020820190506136e660008301846136c2565b92915050565b60008060006060848603121561370557613704613191565b5b600061371386828701613319565b935050602061372486828701613319565b925050604061373586828701613616565b9150509250925092565b7f4e487b7100000000000000000000000000000000000000000000000000000000600052604160045260246000fd5b61377782613589565b810181811067ffffffffffffffff821117156137965761379561373f565b5b80604052505050565b60006137a9613187565b90506137b5828261376e565b919050565b600067ffffffffffffffff8211156137d5576137d461373f565b5b602082029050602081019050919050565b60006137f96137f4846137ba565b61379f565b9050808382526020820190506020840283018581111561381c5761381b613215565b5b835b81811015613845578061383188826131f6565b84526020840193505060208101905061381e565b5050509392505050565b600082601f8301126138645761386361320b565b5b81356138748482602086016137e6565b91505092915050565b600080600080600080600080600060e08a8c03121561389f5761389e613191565b5b60006138ad8c828d01613319565b99505060206138be8c828d01613616565b98505060408a013567ffffffffffffffff8111156138df576138de613196565b5b6138eb8c828d0161384f565b97505060608a013567ffffffffffffffff81111561390c5761390b613196565b5b6139188c828d0161321a565b965096505060808a013567ffffffffffffffff81111561393b5761393a613196565b5b6139478c828d01613270565b945094505060a061395a8c828d016132ed565b92505060c061396b8c828d01613319565b9150509295985092959850929598565b6000806040838503121561399257613991613191565b5b60006139a085828601613616565b92505060206139b185828601613616565b9150509250929050565b60006040820190506139d06000830185613658565b6139dd60208301846136c2565b9392505050565b600080fd5b600067ffffffffffffffff821115613a0457613a0361373f565b5b613a0d82613589565b9050602081019050919050565b82818337600083830152505050565b6000613a3c613a37846139e9565b61379f565b905082815260208101848484011115613a5857613a576139e4565b5b613a63848285613a1a565b509392505050565b600082601f830112613a8057613a7f61320b565b5b8135613a90848260208601613a29565b91505092915050565b600060208284031215613aaf57613aae613191565b5b600082013567ffffffffffffffff811115613acd57613acc613196565b5b613ad984828501613a6b565b91505092915050565b600060208284031215613af857613af7613191565b5b6000613b0684828501613319565b91505092915050565b60008060408385031215613b2657613b25613191565b5b6000613b3485828601613616565b925050602083013567ffffffffffffffff811115613b5557613b54613196565b5b613b618582860161384f565b9150509250929050565b613b7481613504565b8114613b7f57600080fd5b50565b600081359050613b9181613b6b565b92915050565b60008060408385031215613bae57613bad613191565b5b6000613bbc85828601613319565b9250506020613bcd85828601613b82565b9150509250929050565b600080fd5b600080fd5b600060e08284031215613bf757613bf6613bd7565b5b613c0160e061379f565b9050600082013567ffffffffffffffff811115613c2157613c20613bdc565b5b613c2d84828501613a6b565b600083015250602082013567ffffffffffffffff811115613c5157613c50613bdc565b5b613c5d84828501613a6b565b6020830152506040613c7184828501613616565b6040830152506060613c8584828501613616565b6060830152506080613c9984828501613616565b60808301525060a0613cad84828501613616565b60a08301525060c0613cc184828501613616565b60c08301525092915050565b600067ffffffffffffffff821115613ce857613ce761373f565b5b613cf182613589565b9050602081019050919050565b6000613d11613d0c84613ccd565b61379f565b905082815260208101848484011115613d2d57613d2c6139e4565b5b613d38848285613a1a565b509392505050565b600082601f830112613d5557613d5461320b565b5b8135613d65848260208601613cfe565b91505092915050565b600060408284031215613d8457613d83613bd7565b5b613d8e604061379f565b9050600082013567ffffffffffffffff811115613dae57613dad613bdc565b5b613dba84828501613a6b565b600083015250602082013567ffffffffffffffff811115613dde57613ddd613bdc565b5b613dea84828501613d40565b60208301525092915050565b600080600080600060a08688031215613e1257613e11613191565b5b6000613e2088828901613319565b955050602086013567ffffffffffffffff811115613e4157613e40613196565b5b613e4d88828901613be1565b945050604086013567ffffffffffffffff811115613e6e57613e6d613196565b5b613e7a88828901613d6e565b9350506060613e8b88828901613319565b9250506080613e9c88828901613319565b9150509295509295909350565b60008060008060808587031215613ec357613ec2613191565b5b6000613ed187828801613319565b9450506020613ee287828801613319565b9350506040613ef387828801613616565b925050606085013567ffffffffffffffff811115613f1457613f13613196565b5b613f2087828801613d40565b91505092959194509250565b60008060008060008060808789031215613f4957613f48613191565b5b600087013567ffffffffffffffff811115613f6757613f66613196565b5b613f7389828a0161321a565b9650965050602087013567ffffffffffffffff811115613f9657613f95613196565b5b613fa289828a01613270565b94509450506040613fb589828a016132ed565b9250506060613fc689828a01613319565b9150509295509295509295565b60008060408385031215613fea57613fe9613191565b5b6000613ff885828601613319565b925050602061400985828601613319565b9150509250929050565b7f53706c6974206e6f742063726561746564207965740000000000000000000000600082015250565b6000614049601583613545565b915061405482614013565b602082019050919050565b600060208201905081810360008301526140788161403c565b9050919050565b6000819050919050565b60006140a461409f61409a8461319b565b61407f565b61319b565b9050919050565b60006140b682614089565b9050919050565b60006140c8826140ab565b9050919050565b6140d8816140bd565b82525050565b600082825260208201905092915050565b6000819050919050565b614102816131bb565b82525050565b600061411483836140f9565b60208301905092915050565b600061412f6020840184613319565b905092915050565b6000602082019050919050565b600061415083856140de565b935061415b826140ef565b8060005b85811015614194576141718284614120565b61417b8882614108565b975061418683614137565b92505060018101905061415f565b5085925050509392505050565b600082825260208201905092915050565b6000819050919050565b6141c5816132c6565b82525050565b60006141d783836141bc565b60208301905092915050565b60006141f260208401846132ed565b905092915050565b6000602082019050919050565b600061421383856141a1565b935061421e826141b2565b8060005b858110156142575761423482846141e3565b61423e88826141cb565b9750614249836141fa565b925050600181019050614222565b5085925050509392505050565b61426d816132c6565b82525050565b600060c082019050614288600083018b613658565b614295602083018a6140cf565b81810360408301526142a881888a614144565b905081810360608301526142bd818688614207565b90506142cc6080830185614264565b6142d960a0830184613658565b9998505050505050505050565b7f53706c69744d61696e206e6f7420736574000000000000000000000000000000600082015250565b600061431c601183613545565b9150614327826142e6565b602082019050919050565b6000602082019050818103600083015261434b8161430f565b9050919050565b7f53706c697420616c726561647920637265617465640000000000000000000000600082015250565b6000614388601583613545565b915061439382614352565b602082019050919050565b600060208201905081810360008301526143b78161437b565b9050919050565b600060808201905081810360008301526143d981888a614144565b905081810360208301526143ee818688614207565b90506143fd6040830185614264565b61440a6060830184613658565b979650505050505050565b60008151905061442481613302565b92915050565b6000602082840312156144405761443f613191565b5b600061444e84828501614415565b91505092915050565b7f4e487b7100000000000000000000000000000000000000000000000000000000600052602260045260246000fd5b6000600282049050600182168061449e57607f821691505b602082108114156144b2576144b1614457565b5b50919050565b7f4e487b7100000000000000000000000000000000000000000000000000000000600052603260045260246000fd5b7f4e487b7100000000000000000000000000000000000000000000000000000000600052601160045260246000fd5b6000614521826135f5565b91507fffffffffffffffffffffffffffffffffffffffffffffffffffffffffffffffff821415614554576145536144e7565b5b600182019050919050565b7f4e6f6e6578697374656e7420746f6b656e000000000000000000000000000000600082015250565b6000614595601183613545565b91506145a08261455f565b602082019050919050565b600060208201905081810360008301526145c481614588565b9050919050565b60006145d6826135f5565b91506145e1836135f5565b9250817fffffffffffffffffffffffffffffffffffffffffffffffffffffffffffffffff048311821515161561461a576146196144e7565b5b828202905092915050565b7f4e487b7100000000000000000000000000000000000000000000000000000000600052601260045260246000fd5b600061465f826135f5565b915061466a836135f5565b92508261467a57614679614625565b5b828204905092915050565b7f43616e6e6f74207769746864726177207769746820616e20616374697665207360008201527f706c697400000000000000000000000000000000000000000000000000000000602082015250565b60006146e1602483613545565b91506146ec82614685565b604082019050919050565b60006020820190508181036000830152614710816146d4565b9050919050565b6000614722826135f5565b915061472d836135f5565b9250827fffffffffffffffffffffffffffffffffffffffffffffffffffffffffffffffff03821115614762576147616144e7565b5b828201905092915050565b7f507572636861736520776f756c6420657863656564206d617820737570706c79600082015250565b60006147a3602083613545565b91506147ae8261476d565b602082019050919050565b600060208201905081810360008301526147d281614796565b9050919050565b7f53616c657320617265206e6f7420616374697665207965742e00000000000000600082015250565b600061480f601983613545565b915061481a826147d9565b602082019050919050565b6000602082019050818103600083015261483e81614802565b9050919050565b7f53616c65206d7573742062652061637469766520746f206d696e740000000000600082015250565b600061487b601b83613545565b915061488682614845565b602082019050919050565b600060208201905081810360008301526148aa8161486e565b9050919050565b7f534f4c44204f5554000000000000000000000000000000000000000000000000600082015250565b60006148e7600883613545565b91506148f2826148b1565b602082019050919050565b60006020820190508181036000830152614916816148da565b9050919050565b7f496e73756666696369656e742066756e64730000000000000000000000000000600082015250565b6000614953601283613545565b915061495e8261491d565b602082019050919050565b6000602082019050818103600083015261498281614946565b9050919050565b7f4578636565646564206d6178206e756d62657220706572206d696e7400000000600082015250565b60006149bf601c83613545565b91506149ca82614989565b602082019050919050565b600060208201905081810360008301526149ee816149b2565b9050919050565b7f496e697469616c697a61626c653a20636f6e747261637420697320616c72656160008201527f647920696e697469616c697a6564000000000000000000000000000000000000602082015250565b6000614a51602e83613545565b9150614a5c826149f5565b604082019050919050565b60006020820190508181036000830152614a8081614a44565b9050919050565b600081519050919050565b600082825260208201905092915050565b6000614aae82614a87565b614ab88185614a92565b9350614ac8818560208601613556565b614ad181613589565b840191505092915050565b60006020820190508181036000830152614af68184614aa3565b905092915050565b6000819050919050565b600060ff82169050919050565b6000614b30614b2b614b2684614afe565b61407f565b614b08565b9050919050565b614b4081614b15565b82525050565b6000602082019050614b5b6000830184614b37565b92915050565b600060a082019050614b76600083018a613658565b8181036020830152614b8981888a614144565b90508181036040830152614b9e818688614207565b9050614bad6060830185614264565b614bba6080830184613658565b98975050505050505050565b6000614bd9614bd4846139e9565b61379f565b905082815260208101848484011115614bf557614bf46139e4565b5b614c00848285613556565b509392505050565b600082601f830112614c1d57614c1c61320b565b5b8151614c2d848260208601614bc6565b91505092915050565b600060208284031215614c4c57614c4b613191565b5b600082015167ffffffffffffffff811115614c6a57614c69613196565b5b614c7684828501614c08565b91505092915050565b7f4f776e61626c653a206e6577206f776e657220697320746865207a65726f206160008201527f6464726573730000000000000000000000000000000000000000000000000000602082015250565b6000614cdb602683613545565b9150614ce682614c7f565b604082019050919050565b60006020820190508181036000830152614d0a81614cce565b9050919050565b600081519050614d20816135ff565b92915050565b600060208284031215614d3c57614d3b613191565b5b6000614d4a84828501614d11565b91505092915050565b600081519050614d6281613b6b565b92915050565b600060208284031215614d7e57614d7d613191565b5b6000614d8c84828501614d53565b91505092915050565b7f4f776e61626c653a2063616c6c6572206973206e6f7420746865206f776e6572600082015250565b6000614dcb602083613545565b9150614dd682614d95565b602082019050919050565b60006020820190508181036000830152614dfa81614dbe565b9050919050565b600081519050919050565b6000819050602082019050919050565b614e25816140bd565b82525050565b6000614e378383614e1c565b60208301905092915050565b6000602082019050919050565b6000614e5b82614e01565b614e6581856140de565b9350614e7083614e0c565b8060005b83811015614ea1578151614e888882614e2b565b9750614e9383614e43565b925050600181019050614e74565b5085935050505092915050565b6000606082019050614ec36000830186613658565b614ed060208301856136c2565b8181036040830152614ee28184614e50565b9050949350505050565b600081905092915050565b50565b6000614f07600083614eec565b9150614f1282614ef7565b600082019050919050565b6000614f2882614efa565b9150819050919050565b7f436f756c64206e6f74207472616e736665722045544820746f2073706c697400600082015250565b6000614f68601f83613545565b9150614f7382614f32565b602082019050919050565b60006020820190508181036000830152614f9781614f5b565b9050919050565b6000608082019050614fb36000830187613658565b614fc06020830186613658565b614fcd60408301856136c2565b8181036060830152614fdf8184614aa3565b905095945050505050565b600081519050614ff9816134ab565b92915050565b60006020828403121561501557615014613191565b5b600061502384828501614fea565b91505092915050565b600081905092915050565b60006150428261353a565b61504c818561502c565b935061505c818560208601613556565b80840191505092915050565b60006150748285615037565b91506150808284615037565b9150819050939250505056fea26469706673582212209222c459ae7d96125134a5d3828b7b92f8f3514c11068fb6943e59a0407bafec64736f6c63430008090033",
  "linkReferences": {},
  "deployedLinkReferences": {}
}