{
  "_format": "hh-sol-artifact-1",
  "contractName": "DCNT721A",
  "sourceName": "contracts/DCNT721A.sol",
  "abi": [
    {
      "inputs": [],
      "name": "ApprovalCallerNotOwnerNorApproved",
      "type": "error"
    },
    {
      "inputs": [],
      "name": "ApprovalQueryForNonexistentToken",
      "type": "error"
    },
    {
      "inputs": [],
      "name": "ApproveToCaller",
      "type": "error"
    },
    {
      "inputs": [],
      "name": "BalanceQueryForZeroAddress",
      "type": "error"
    },
    {
      "inputs": [],
      "name": "MintERC2309QuantityExceedsLimit",
      "type": "error"
    },
    {
      "inputs": [],
      "name": "MintToZeroAddress",
      "type": "error"
    },
    {
      "inputs": [],
      "name": "MintZeroQuantity",
      "type": "error"
    },
    {
      "inputs": [],
      "name": "OwnerQueryForNonexistentToken",
      "type": "error"
    },
    {
      "inputs": [],
      "name": "OwnershipNotInitializedForExtraData",
      "type": "error"
    },
    {
      "inputs": [],
      "name": "TransferCallerNotOwnerNorApproved",
      "type": "error"
    },
    {
      "inputs": [],
      "name": "TransferFromIncorrectOwner",
      "type": "error"
    },
    {
      "inputs": [],
      "name": "TransferToNonERC721ReceiverImplementer",
      "type": "error"
    },
    {
      "inputs": [],
      "name": "TransferToZeroAddress",
      "type": "error"
    },
    {
      "inputs": [],
      "name": "URIQueryForNonexistentToken",
      "type": "error"
    },
    {
      "anonymous": false,
      "inputs": [
        {
          "indexed": true,
          "internalType": "address",
          "name": "owner",
          "type": "address"
        },
        {
          "indexed": true,
          "internalType": "address",
          "name": "approved",
          "type": "address"
        },
        {
          "indexed": true,
          "internalType": "uint256",
          "name": "tokenId",
          "type": "uint256"
        }
      ],
      "name": "Approval",
      "type": "event"
    },
    {
      "anonymous": false,
      "inputs": [
        {
          "indexed": true,
          "internalType": "address",
          "name": "owner",
          "type": "address"
        },
        {
          "indexed": true,
          "internalType": "address",
          "name": "operator",
          "type": "address"
        },
        {
          "indexed": false,
          "internalType": "bool",
          "name": "approved",
          "type": "bool"
        }
      ],
      "name": "ApprovalForAll",
      "type": "event"
    },
    {
      "anonymous": false,
      "inputs": [
        {
          "indexed": true,
          "internalType": "uint256",
          "name": "fromTokenId",
          "type": "uint256"
        },
        {
          "indexed": false,
          "internalType": "uint256",
          "name": "toTokenId",
          "type": "uint256"
        },
        {
          "indexed": true,
          "internalType": "address",
          "name": "from",
          "type": "address"
        },
        {
          "indexed": true,
          "internalType": "address",
          "name": "to",
          "type": "address"
        }
      ],
      "name": "ConsecutiveTransfer",
      "type": "event"
    },
    {
      "anonymous": false,
      "inputs": [
        {
          "indexed": false,
          "internalType": "uint8",
          "name": "version",
          "type": "uint8"
        }
      ],
      "name": "Initialized",
      "type": "event"
    },
    {
      "anonymous": false,
      "inputs": [
        {
          "indexed": false,
          "internalType": "address",
          "name": "sender",
          "type": "address"
        },
        {
          "indexed": false,
          "internalType": "uint256",
          "name": "tokenId_",
          "type": "uint256"
        }
      ],
      "name": "Minted",
      "type": "event"
    },
    {
      "anonymous": false,
      "inputs": [
        {
          "indexed": true,
          "internalType": "address",
          "name": "previousOwner",
          "type": "address"
        },
        {
          "indexed": true,
          "internalType": "address",
          "name": "newOwner",
          "type": "address"
        }
      ],
      "name": "OwnershipTransferred",
      "type": "event"
    },
    {
      "anonymous": false,
      "inputs": [
        {
          "indexed": true,
          "internalType": "address",
          "name": "from",
          "type": "address"
        },
        {
          "indexed": true,
          "internalType": "address",
          "name": "to",
          "type": "address"
        },
        {
          "indexed": true,
          "internalType": "uint256",
          "name": "tokenId",
          "type": "uint256"
        }
      ],
      "name": "Transfer",
      "type": "event"
    },
    {
      "inputs": [],
      "name": "MAX_TOKENS",
      "outputs": [
        {
          "internalType": "uint256",
          "name": "",
          "type": "uint256"
        }
      ],
      "stateMutability": "view",
      "type": "function"
    },
    {
      "inputs": [
        {
          "internalType": "uint256",
          "name": "newCap",
          "type": "uint256"
        }
      ],
      "name": "adjustCap",
      "outputs": [],
      "stateMutability": "nonpayable",
      "type": "function"
    },
    {
      "inputs": [
        {
          "internalType": "address",
          "name": "to",
          "type": "address"
        },
        {
          "internalType": "uint256",
          "name": "tokenId",
          "type": "uint256"
        }
      ],
      "name": "approve",
      "outputs": [],
      "stateMutability": "nonpayable",
      "type": "function"
    },
    {
      "inputs": [
        {
          "internalType": "address",
          "name": "owner",
          "type": "address"
        }
      ],
      "name": "balanceOf",
      "outputs": [
        {
          "internalType": "uint256",
          "name": "",
          "type": "uint256"
        }
      ],
      "stateMutability": "view",
      "type": "function"
    },
    {
      "inputs": [],
      "name": "baseURI",
      "outputs": [
        {
          "internalType": "string",
          "name": "",
          "type": "string"
        }
      ],
      "stateMutability": "view",
      "type": "function"
    },
    {
      "inputs": [],
      "name": "contractURI",
      "outputs": [
        {
          "internalType": "string",
          "name": "",
          "type": "string"
        }
      ],
      "stateMutability": "view",
      "type": "function"
    },
    {
      "inputs": [
        {
          "internalType": "address[]",
          "name": "accounts",
          "type": "address[]"
        },
        {
          "internalType": "uint32[]",
          "name": "percentAllocations",
          "type": "uint32[]"
        },
        {
          "internalType": "uint32",
          "name": "distributorFee",
          "type": "uint32"
        }
      ],
      "name": "createSplit",
      "outputs": [],
      "stateMutability": "nonpayable",
      "type": "function"
    },
    {
      "inputs": [
        {
          "internalType": "address",
          "name": "account",
          "type": "address"
        },
        {
          "internalType": "uint256",
          "name": "withdrawETH",
          "type": "uint256"
        },
        {
          "internalType": "contract ERC20[]",
          "name": "tokens",
          "type": "address[]"
        },
        {
          "internalType": "address[]",
          "name": "accounts",
          "type": "address[]"
        },
        {
          "internalType": "uint32[]",
          "name": "percentAllocations",
          "type": "uint32[]"
        },
        {
          "internalType": "uint32",
          "name": "distributorFee",
          "type": "uint32"
        },
        {
          "internalType": "address",
          "name": "distributorAddress",
          "type": "address"
        }
      ],
      "name": "distributeAndWithdraw",
      "outputs": [],
      "stateMutability": "nonpayable",
      "type": "function"
    },
    {
      "inputs": [
        {
          "internalType": "contract ERC20",
          "name": "token",
          "type": "address"
        },
        {
          "internalType": "address[]",
          "name": "accounts",
          "type": "address[]"
        },
        {
          "internalType": "uint32[]",
          "name": "percentAllocations",
          "type": "uint32[]"
        },
        {
          "internalType": "uint32",
          "name": "distributorFee",
          "type": "uint32"
        },
        {
          "internalType": "address",
          "name": "distributorAddress",
          "type": "address"
        }
      ],
      "name": "distributeERC20",
      "outputs": [],
      "stateMutability": "nonpayable",
      "type": "function"
    },
    {
      "inputs": [
        {
          "internalType": "address[]",
          "name": "accounts",
          "type": "address[]"
        },
        {
          "internalType": "uint32[]",
          "name": "percentAllocations",
          "type": "uint32[]"
        },
        {
          "internalType": "uint32",
          "name": "distributorFee",
          "type": "uint32"
        },
        {
          "internalType": "address",
          "name": "distributorAddress",
          "type": "address"
        }
      ],
      "name": "distributeETH",
      "outputs": [],
      "stateMutability": "nonpayable",
      "type": "function"
    },
    {
      "inputs": [],
      "name": "flipSaleState",
      "outputs": [],
      "stateMutability": "nonpayable",
      "type": "function"
    },
    {
      "inputs": [
        {
          "internalType": "uint256",
          "name": "tokenId",
          "type": "uint256"
        }
      ],
      "name": "getApproved",
      "outputs": [
        {
          "internalType": "address",
          "name": "",
          "type": "address"
        }
      ],
      "stateMutability": "view",
      "type": "function"
    },
    {
      "inputs": [],
      "name": "hasAdjustableCap",
      "outputs": [
        {
          "internalType": "bool",
          "name": "",
          "type": "bool"
        }
      ],
      "stateMutability": "view",
      "type": "function"
    },
    {
      "inputs": [
        {
          "internalType": "address",
          "name": "_owner",
          "type": "address"
        },
        {
          "components": [
            {
              "internalType": "string",
              "name": "name",
              "type": "string"
            },
            {
              "internalType": "string",
              "name": "symbol",
              "type": "string"
            },
            {
              "internalType": "bool",
              "name": "hasAdjustableCap",
              "type": "bool"
            },
            {
              "internalType": "uint256",
              "name": "maxTokens",
              "type": "uint256"
            },
            {
              "internalType": "uint256",
              "name": "tokenPrice",
              "type": "uint256"
            },
            {
              "internalType": "uint256",
              "name": "maxTokenPurchase",
              "type": "uint256"
            },
            {
              "internalType": "bytes32",
              "name": "presaleMerkleRoot",
              "type": "bytes32"
            },
            {
              "internalType": "uint256",
              "name": "presaleStart",
              "type": "uint256"
            },
            {
              "internalType": "uint256",
              "name": "presaleEnd",
              "type": "uint256"
            },
            {
              "internalType": "uint256",
              "name": "saleStart",
              "type": "uint256"
            },
            {
              "internalType": "uint256",
              "name": "saleEnd",
              "type": "uint256"
            },
            {
              "internalType": "uint256",
              "name": "royaltyBPS",
              "type": "uint256"
            }
          ],
          "internalType": "struct EditionConfig",
          "name": "_editionConfig",
          "type": "tuple"
        },
        {
          "components": [
            {
              "internalType": "string",
              "name": "contractURI",
              "type": "string"
            },
            {
              "internalType": "string",
              "name": "metadataURI",
              "type": "string"
            },
            {
              "internalType": "bytes",
              "name": "metadataRendererInit",
              "type": "bytes"
            },
            {
              "internalType": "address",
              "name": "parentIP",
              "type": "address"
            }
          ],
          "internalType": "struct MetadataConfig",
          "name": "_metadataConfig",
          "type": "tuple"
        },
        {
          "components": [
            {
              "internalType": "address",
              "name": "tokenAddress",
              "type": "address"
            },
            {
              "internalType": "uint88",
              "name": "minBalance",
              "type": "uint88"
            },
            {
              "internalType": "enum SaleType",
              "name": "saleType",
              "type": "uint8"
            }
          ],
          "internalType": "struct TokenGateConfig",
          "name": "_tokenGateConfig",
          "type": "tuple"
        },
        {
          "internalType": "address",
          "name": "_metadataRenderer",
          "type": "address"
        },
        {
          "internalType": "address",
          "name": "_splitMain",
          "type": "address"
        }
      ],
      "name": "initialize",
      "outputs": [],
      "stateMutability": "nonpayable",
      "type": "function"
    },
    {
      "inputs": [
        {
          "internalType": "address",
          "name": "owner",
          "type": "address"
        },
        {
          "internalType": "address",
          "name": "operator",
          "type": "address"
        }
      ],
      "name": "isApprovedForAll",
      "outputs": [
        {
          "internalType": "bool",
          "name": "",
          "type": "bool"
        }
      ],
      "stateMutability": "view",
      "type": "function"
    },
    {
      "inputs": [],
      "name": "maxTokenPurchase",
      "outputs": [
        {
          "internalType": "uint256",
          "name": "",
          "type": "uint256"
        }
      ],
      "stateMutability": "view",
      "type": "function"
    },
    {
      "inputs": [],
      "name": "metadataRenderer",
      "outputs": [
        {
          "internalType": "address",
          "name": "",
          "type": "address"
        }
      ],
      "stateMutability": "view",
      "type": "function"
    },
    {
      "inputs": [
        {
          "internalType": "uint256",
          "name": "numberOfTokens",
          "type": "uint256"
        }
      ],
      "name": "mint",
      "outputs": [],
      "stateMutability": "payable",
      "type": "function"
    },
    {
      "inputs": [
        {
          "internalType": "address[]",
          "name": "recipients",
          "type": "address[]"
        }
      ],
      "name": "mintAirdrop",
      "outputs": [],
      "stateMutability": "nonpayable",
      "type": "function"
    },
    {
      "inputs": [
        {
          "internalType": "uint256",
          "name": "quantity",
          "type": "uint256"
        },
        {
          "internalType": "uint256",
          "name": "maxQuantity",
          "type": "uint256"
        },
        {
          "internalType": "uint256",
          "name": "pricePerToken",
          "type": "uint256"
        },
        {
          "internalType": "bytes32[]",
          "name": "merkleProof",
          "type": "bytes32[]"
        }
      ],
      "name": "mintPresale",
      "outputs": [],
      "stateMutability": "payable",
      "type": "function"
    },
    {
      "inputs": [],
      "name": "name",
      "outputs": [
        {
          "internalType": "string",
          "name": "",
          "type": "string"
        }
      ],
      "stateMutability": "view",
      "type": "function"
    },
    {
      "inputs": [],
      "name": "owner",
      "outputs": [
        {
          "internalType": "address",
          "name": "",
          "type": "address"
        }
      ],
      "stateMutability": "view",
      "type": "function"
    },
    {
      "inputs": [
        {
          "internalType": "uint256",
          "name": "tokenId",
          "type": "uint256"
        }
      ],
      "name": "ownerOf",
      "outputs": [
        {
          "internalType": "address",
          "name": "",
          "type": "address"
        }
      ],
      "stateMutability": "view",
      "type": "function"
    },
    {
      "inputs": [],
      "name": "parentIP",
      "outputs": [
        {
          "internalType": "address",
          "name": "",
          "type": "address"
        }
      ],
      "stateMutability": "view",
      "type": "function"
    },
    {
      "inputs": [],
      "name": "presaleEnd",
      "outputs": [
        {
          "internalType": "uint256",
          "name": "",
          "type": "uint256"
        }
      ],
      "stateMutability": "view",
      "type": "function"
    },
    {
      "inputs": [],
      "name": "presaleStart",
      "outputs": [
        {
          "internalType": "uint256",
          "name": "",
          "type": "uint256"
        }
      ],
      "stateMutability": "view",
      "type": "function"
    },
    {
      "inputs": [],
      "name": "renounceOwnership",
      "outputs": [],
      "stateMutability": "nonpayable",
      "type": "function"
    },
    {
      "inputs": [
        {
          "internalType": "uint256",
          "name": "numReserved",
          "type": "uint256"
        }
      ],
      "name": "reserveDCNT",
      "outputs": [],
      "stateMutability": "nonpayable",
      "type": "function"
    },
    {
      "inputs": [],
      "name": "royaltyBPS",
      "outputs": [
        {
          "internalType": "uint256",
          "name": "",
          "type": "uint256"
        }
      ],
      "stateMutability": "view",
      "type": "function"
    },
    {
      "inputs": [
        {
          "internalType": "uint256",
          "name": "tokenId",
          "type": "uint256"
        },
        {
          "internalType": "uint256",
          "name": "salePrice",
          "type": "uint256"
        }
      ],
      "name": "royaltyInfo",
      "outputs": [
        {
          "internalType": "address",
          "name": "receiver",
          "type": "address"
        },
        {
          "internalType": "uint256",
          "name": "royaltyAmount",
          "type": "uint256"
        }
      ],
      "stateMutability": "view",
      "type": "function"
    },
    {
      "inputs": [
        {
          "internalType": "address",
          "name": "from",
          "type": "address"
        },
        {
          "internalType": "address",
          "name": "to",
          "type": "address"
        },
        {
          "internalType": "uint256",
          "name": "tokenId",
          "type": "uint256"
        }
      ],
      "name": "safeTransferFrom",
      "outputs": [],
      "stateMutability": "nonpayable",
      "type": "function"
    },
    {
      "inputs": [
        {
          "internalType": "address",
          "name": "from",
          "type": "address"
        },
        {
          "internalType": "address",
          "name": "to",
          "type": "address"
        },
        {
          "internalType": "uint256",
          "name": "tokenId",
          "type": "uint256"
        },
        {
          "internalType": "bytes",
          "name": "_data",
          "type": "bytes"
        }
      ],
      "name": "safeTransferFrom",
      "outputs": [],
      "stateMutability": "nonpayable",
      "type": "function"
    },
    {
      "inputs": [],
      "name": "saleEnd",
      "outputs": [
        {
          "internalType": "uint256",
          "name": "",
          "type": "uint256"
        }
      ],
      "stateMutability": "view",
      "type": "function"
    },
    {
      "inputs": [],
      "name": "saleIsActive",
      "outputs": [
        {
          "internalType": "bool",
          "name": "_saleIsActive",
          "type": "bool"
        }
      ],
      "stateMutability": "view",
      "type": "function"
    },
    {
      "inputs": [],
      "name": "saleIsPaused",
      "outputs": [
        {
          "internalType": "bool",
          "name": "",
          "type": "bool"
        }
      ],
      "stateMutability": "view",
      "type": "function"
    },
    {
      "inputs": [],
      "name": "saleStart",
      "outputs": [
        {
          "internalType": "uint256",
          "name": "",
          "type": "uint256"
        }
      ],
      "stateMutability": "view",
      "type": "function"
    },
    {
      "inputs": [
        {
          "internalType": "address",
          "name": "operator",
          "type": "address"
        },
        {
          "internalType": "bool",
          "name": "approved",
          "type": "bool"
        }
      ],
      "name": "setApprovalForAll",
      "outputs": [],
      "stateMutability": "nonpayable",
      "type": "function"
    },
    {
      "inputs": [
        {
          "internalType": "string",
          "name": "uri",
          "type": "string"
        }
      ],
      "name": "setBaseURI",
      "outputs": [],
      "stateMutability": "nonpayable",
      "type": "function"
    },
    {
      "inputs": [
        {
          "internalType": "string",
          "name": "uri",
          "type": "string"
        }
      ],
      "name": "setContractURI",
      "outputs": [],
      "stateMutability": "nonpayable",
      "type": "function"
    },
    {
      "inputs": [
        {
          "internalType": "address",
          "name": "_metadataRenderer",
          "type": "address"
        }
      ],
      "name": "setMetadataRenderer",
      "outputs": [],
      "stateMutability": "nonpayable",
      "type": "function"
    },
    {
      "inputs": [
        {
          "internalType": "bytes32",
          "name": "_presaleMerkleRoot",
          "type": "bytes32"
        }
      ],
      "name": "setPresaleMerkleRoot",
      "outputs": [],
      "stateMutability": "nonpayable",
      "type": "function"
    },
    {
      "inputs": [],
      "name": "splitMain",
      "outputs": [
        {
          "internalType": "address",
          "name": "",
          "type": "address"
        }
      ],
      "stateMutability": "view",
      "type": "function"
    },
    {
      "inputs": [],
      "name": "splitWallet",
      "outputs": [
        {
          "internalType": "address",
          "name": "",
          "type": "address"
        }
      ],
      "stateMutability": "view",
      "type": "function"
    },
    {
      "inputs": [
        {
          "internalType": "bytes4",
          "name": "interfaceId",
          "type": "bytes4"
        }
      ],
      "name": "supportsInterface",
      "outputs": [
        {
          "internalType": "bool",
          "name": "",
          "type": "bool"
        }
      ],
      "stateMutability": "view",
      "type": "function"
    },
    {
      "inputs": [],
      "name": "symbol",
      "outputs": [
        {
          "internalType": "string",
          "name": "",
          "type": "string"
        }
      ],
      "stateMutability": "view",
      "type": "function"
    },
    {
      "inputs": [],
      "name": "tokenGateConfig",
      "outputs": [
        {
          "internalType": "address",
          "name": "tokenAddress",
          "type": "address"
        },
        {
          "internalType": "uint88",
          "name": "minBalance",
          "type": "uint88"
        },
        {
          "internalType": "enum SaleType",
          "name": "saleType",
          "type": "uint8"
        }
      ],
      "stateMutability": "view",
      "type": "function"
    },
    {
      "inputs": [],
      "name": "tokenPrice",
      "outputs": [
        {
          "internalType": "uint256",
          "name": "",
          "type": "uint256"
        }
      ],
      "stateMutability": "view",
      "type": "function"
    },
    {
      "inputs": [
        {
          "internalType": "uint256",
          "name": "tokenId",
          "type": "uint256"
        }
      ],
      "name": "tokenURI",
      "outputs": [
        {
          "internalType": "string",
          "name": "",
          "type": "string"
        }
      ],
      "stateMutability": "view",
      "type": "function"
    },
    {
      "inputs": [],
      "name": "totalSupply",
      "outputs": [
        {
          "internalType": "uint256",
          "name": "",
          "type": "uint256"
        }
      ],
      "stateMutability": "view",
      "type": "function"
    },
    {
      "inputs": [
        {
          "internalType": "address",
          "name": "from",
          "type": "address"
        },
        {
          "internalType": "address",
          "name": "to",
          "type": "address"
        },
        {
          "internalType": "uint256",
          "name": "tokenId",
          "type": "uint256"
        }
      ],
      "name": "transferFrom",
      "outputs": [],
      "stateMutability": "nonpayable",
      "type": "function"
    },
    {
      "inputs": [
        {
          "internalType": "address",
          "name": "newOwner",
          "type": "address"
        }
      ],
      "name": "transferOwnership",
      "outputs": [],
      "stateMutability": "nonpayable",
      "type": "function"
    },
    {
      "inputs": [
        {
          "internalType": "uint256",
          "name": "transferETH",
          "type": "uint256"
        },
        {
          "internalType": "contract ERC20[]",
          "name": "tokens",
          "type": "address[]"
        }
      ],
      "name": "transferToSplit",
      "outputs": [],
      "stateMutability": "nonpayable",
      "type": "function"
    },
    {
      "inputs": [
        {
          "internalType": "uint256",
          "name": "newStart",
          "type": "uint256"
        },
        {
          "internalType": "uint256",
          "name": "newEnd",
          "type": "uint256"
        }
      ],
      "name": "updateSaleStartEnd",
      "outputs": [],
      "stateMutability": "nonpayable",
      "type": "function"
    },
    {
      "inputs": [],
      "name": "withdraw",
      "outputs": [],
      "stateMutability": "nonpayable",
      "type": "function"
    }
  ],
  "bytecode": "0x60806040523480156200001157600080fd5b506200001d3362000023565b6200007f565b600980546001600160a01b038381166201000081810262010000600160b01b031985161790945560405193909204169182907f8be0079c531659141344cd1fd0a4f28419497f9722a3daafe3b4186f6b6457e090600090a35050565b613cbf806200008f6000396000f3fe6080604052600436106103345760003560e01c8063727a612e116101ab578063c4559d5a116100f7578063e8a3d48511610095578063f0cc8b621161006f578063f0cc8b6214610977578063f2fde38b14610997578063f47c84c5146109b7578063fd4fe8a8146109cd57600080fd5b8063e8a3d48514610904578063e985e9c514610919578063eb8d24441461096257600080fd5b8063c9ef5eee116100d1578063c9ef5eee14610894578063d58d458a146108b4578063de8801e5146108d4578063e6c350c1146108ea57600080fd5b8063c4559d5a14610834578063c595317014610854578063c87b56dd1461087457600080fd5b806395d89b4111610164578063ab0bcc411161013e578063ab0bcc41146107d2578063b88d4fde146107e8578063b9c9d93a14610808578063c10b93581461081e57600080fd5b806395d89b411461078a578063a0712d681461079f578063a22cb465146107b257600080fd5b8063727a612e146106dc57806379ab7c8e146106ef5780637ff9b5961461070f5780638da5cb5b14610725578063931cf0f414610749578063938e3d7b1461076a57600080fd5b8063284a44a8116102855780636352211e1161022357806370319970116101fd578063703199701461066757806370a0823114610687578063713b9787146106a7578063715018a6146106c757600080fd5b80636352211e146106125780636c0360eb146106325780636c1951ae1461064757600080fd5b806334918dfd1161025f57806334918dfd146105a85780633ccfd60b146105bd57806342842e0e146105d257806355f804b3146105f257600080fd5b8063284a44a81461052957806328d7b276146105495780632a55205a1461056957600080fd5b806309aa3dcf116102f257806318160ddd116102cc57806318160ddd1461048e5780631dbdedbd146104a7578063229f3e29146104f357806323b872dd1461050957600080fd5b806309aa3dcf1461042a5780630e769b2b1461044e57806317dc25871461046e57600080fd5b80625f16fb14610339578063015893c51461035b57806301ffc9a71461037b57806306fdde03146103b0578063081812fc146103d2578063095ea7b31461040a575b600080fd5b34801561034557600080fd5b50610359610354366004612d8d565b6109ed565b005b34801561036757600080fd5b50610359610376366004612e34565b610acb565b34801561038757600080fd5b5061039b610396366004612eca565b610c55565b60405190151581526020015b60405180910390f35b3480156103bc57600080fd5b506103c5610c80565b6040516103a79190612f3f565b3480156103de57600080fd5b506103f26103ed366004612f52565b610d12565b6040516001600160a01b0390911681526020016103a7565b34801561041657600080fd5b50610359610425366004612f6b565b610d56565b34801561043657600080fd5b50610440600c5481565b6040519081526020016103a7565b34801561045a57600080fd5b506017546103f2906001600160a01b031681565b34801561047a57600080fd5b50610359610489366004612f97565b610df6565b34801561049a57600080fd5b5060015460005403610440565b3480156104b357600080fd5b506008546104e4906001600160a01b03811690600160a01b81046001600160581b031690600160f81b900460ff1683565b6040516103a793929190612fcf565b3480156104ff57600080fd5b5061044060155481565b34801561051557600080fd5b5061035961052436600461301a565b610e09565b34801561053557600080fd5b50610359610544366004613152565b610f97565b34801561055557600080fd5b50610359610564366004612f52565b611041565b34801561057557600080fd5b50610589610584366004612f97565b61104e565b604080516001600160a01b0390931683526020830191909152016103a7565b3480156105b457600080fd5b506103596110fb565b3480156105c957600080fd5b50610359611117565b3480156105de57600080fd5b506103596105ed36600461301a565b611225565b3480156105fe57600080fd5b5061035961060d3660046132a3565b611245565b34801561061e57600080fd5b506103f261062d366004612f52565b611264565b34801561063e57600080fd5b506103c561126f565b34801561065357600080fd5b50610359610662366004612f52565b6112fd565b34801561067357600080fd5b506012546103f2906001600160a01b031681565b34801561069357600080fd5b506104406106a23660046132d7565b61136d565b3480156106b357600080fd5b506018546103f2906001600160a01b031681565b3480156106d357600080fd5b506103596113bb565b6103596106ea3660046132f4565b6113cf565b3480156106fb57600080fd5b5061035961070a366004613354565b6117da565b34801561071b57600080fd5b50610440600b5481565b34801561073157600080fd5b506009546201000090046001600160a01b03166103f2565b34801561075557600080fd5b5060095461039b90600160b01b900460ff1681565b34801561077657600080fd5b506103596107853660046132a3565b611861565b34801561079657600080fd5b506103c561187c565b6103596107ad366004612f52565b61188b565b3480156107be57600080fd5b506103596107cd3660046133a9565b611c24565b3480156107de57600080fd5b50610440600d5481565b3480156107f457600080fd5b506103596108033660046133e2565b611cba565b34801561081457600080fd5b5061044060135481565b34801561082a57600080fd5b50610440600e5481565b34801561084057600080fd5b5061035961084f36600461344d565b611cfe565b34801561086057600080fd5b5061035961086f3660046134e0565b611dcf565b34801561088057600080fd5b506103c561088f366004612f52565b611ec3565b3480156108a057600080fd5b506103596108af366004613668565b611f85565b3480156108c057600080fd5b506103596108cf366004612f52565b61229e565b3480156108e057600080fd5b5061044060145481565b3480156108f657600080fd5b50600f5461039b9060ff1681565b34801561091057600080fd5b506103c5612360565b34801561092557600080fd5b5061039b6109343660046137d9565b6001600160a01b03918216600090815260076020908152604080832093909416825291909152205460ff1690565b34801561096e57600080fd5b5061039b61240f565b34801561098357600080fd5b506019546103f2906001600160a01b031681565b3480156109a357600080fd5b506103596109b23660046132d7565b612437565b3480156109c357600080fd5b50610440600a5481565b3480156109d957600080fd5b506103596109e83660046132d7565b6124ad565b6000610a016018546001600160a01b031690565b6001600160a01b03161415610a315760405162461bcd60e51b8152600401610a2890613807565b60405180910390fd5b610a3a876124d7565b6017546001600160a01b03166001600160a01b03166315811302610a666018546001600160a01b031690565b898989898989896040518963ffffffff1660e01b8152600401610a909897969594939291906138b8565b600060405180830381600087803b158015610aaa57600080fd5b505af1158015610abe573d6000803e3d6000fd5b5050505050505050505050565b610ad36125f4565b6000610ae76017546001600160a01b031690565b6001600160a01b03161415610b325760405162461bcd60e51b815260206004820152601160248201527014dc1b1a5d13585a5b881b9bdd081cd95d607a1b6044820152606401610a28565b6000610b466018546001600160a01b031690565b6001600160a01b031614610b945760405162461bcd60e51b815260206004820152601560248201527414dc1b1a5d08185b1c9958591e4818dc99585d1959605a1b6044820152606401610a28565b6000610ba86017546001600160a01b031690565b6001600160a01b0316637601f7828787878787336040518763ffffffff1660e01b8152600401610bdd9695949392919061391a565b602060405180830381600087803b158015610bf757600080fd5b505af1158015610c0b573d6000803e3d6000fd5b505050506040513d601f19601f82011682018060405250810190610c2f919061396b565b601880546001600160a01b0319166001600160a01b03831617905590505b505050505050565b600063152a902d60e11b6001600160e01b031983161480610c7a5750610c7a82612655565b92915050565b606060028054610c8f90613988565b80601f0160208091040260200160405190810160405280929190818152602001828054610cbb90613988565b8015610d085780601f10610cdd57610100808354040283529160200191610d08565b820191906000526020600020905b815481529060010190602001808311610ceb57829003601f168201915b5050505050905090565b6000610d1d826126a3565b610d3a576040516333d1c03960e21b815260040160405180910390fd5b506000908152600660205260409020546001600160a01b031690565b6000610d6182611264565b9050336001600160a01b03821614610d9a57610d7d8133610934565b610d9a576040516367d9dca160e11b815260040160405180910390fd5b60008281526006602052604080822080546001600160a01b0319166001600160a01b0387811691821790925591518593918516917f8c5be1e5ebec7d5bd14f71427d1e84f3dd0314c0f7b2291e5b200ac8c7c3b92591a4505050565b610dfe6125f4565b600d91909155600e55565b6000610e14826126ca565b9050836001600160a01b0316816001600160a01b031614610e475760405162a1148160e81b815260040160405180910390fd5b60008281526006602052604090208054338082146001600160a01b03881690911417610e9457610e778633610934565b610e9457604051632ce44b5f60e11b815260040160405180910390fd5b6001600160a01b038516610ebb57604051633a954ecd60e21b815260040160405180910390fd5b8015610ec657600082555b6001600160a01b038681166000908152600560205260408082208054600019019055918716808252919020805460010190554260a01b17600160e11b17600085815260046020526040902055600160e11b8316610f515760018401600081815260046020526040902054610f4f576000548114610f4f5760008181526004602052604090208490555b505b83856001600160a01b0316876001600160a01b03167fddf252ad1be2c89b69c2b068fc378daa952ba7f163c4a11628f55a4df523b3ef60405160405180910390a4610c4d565b6000610fab6018546001600160a01b031690565b6001600160a01b03161415610fd25760405162461bcd60e51b8152600401610a2890613807565b8715610fe657610fe6868686868686611cfe565b60005b875181101561102a5761101a888281518110611007576110076139c3565b60200260200101518888888888886109ed565b611023816139ef565b9050610fe9565b50611036898989612732565b505050505050505050565b6110496125f4565b601655565b60008061105a846126a3565b61109a5760405162461bcd60e51b81526020600482015260116024820152702737b732bc34b9ba32b73a103a37b5b2b760791b6044820152606401610a28565b6018546001600160a01b0316156110be576018546001600160a01b031691506110d3565b6009546201000090046001600160a01b031691505b6000612710601354856110e69190613a0a565b6110f09190613a29565b9150505b9250929050565b6111036125f4565b600f805460ff19811660ff90911615179055565b61111f6125f4565b60006111336018546001600160a01b031690565b6001600160a01b0316146111955760405162461bcd60e51b8152602060048201526024808201527f43616e6e6f74207769746864726177207769746820616e2061637469766520736044820152631c1b1a5d60e21b6064820152608401610a28565b604051600090339047908381818185875af1925050503d80600081146111d7576040519150601f19603f3d011682016040523d82523d6000602084013e6111dc565b606091505b50509050806112225760405162461bcd60e51b8152602060048201526012602482015271436f756c64206e6f7420776974686472617760701b6044820152606401610a28565b50565b61124083838360405180602001604052806000815250611cba565b505050565b61124d6125f4565b8051611260906010906020840190612c77565b5050565b6000610c7a826126ca565b6010805461127c90613988565b80601f01602080910402602001604051908101604052809291908181526020018280546112a890613988565b80156112f55780601f106112ca576101008083540402835291602001916112f5565b820191906000526020600020905b8154815290600101906020018083116112d857829003601f168201915b505050505081565b6113056125f4565b600054600a546113158383613a4b565b106113325760405162461bcd60e51b8152600401610a2890613a63565b60005b828110156112405761135b3361134b8385613a4b565b611356906001613a4b565b612794565b80611365816139ef565b915050611335565b60006001600160a01b038216611396576040516323d3ad8160e21b815260040160405180910390fd5b506001600160a01b03166000908152600560205260409020546001600160401b031690565b6113c36125f4565b6113cd60006127ae565b565b6008546001906001600160a01b03161580159061143857506000600854600160f81b900460ff16600281111561140757611407612fb9565b1480611438575080801561143857506001600854600160f81b900460ff16600281111561143657611436612fb9565b145b8061146957508015801561146957506002600854600160f81b900460ff16600281111561146757611467612fb9565b145b15611544576008546040516370a0823160e01b8152336004820152600160a01b82046001600160581b0316916001600160a01b0316906370a0823190602401602060405180830381600087803b1580156114c257600080fd5b505af11580156114d6573d6000803e3d6000fd5b505050506040513d601f19601f820116820180604052508101906114fa9190613a98565b10156115445760405162461bcd60e51b81526020600482015260196024820152783237903737ba1037bbb7103932b8bab4b932b2103a37b5b2b760391b6044820152606401610a28565b601454421015801561155857506015544211155b6115925760405162461bcd60e51b815260206004820152600b60248201526a6e6f742070726573616c6560a81b6044820152606401610a28565b600054600f5460ff16156115e85760405162461bcd60e51b815260206004820152601b60248201527f53616c65206d7573742062652061637469766520746f206d696e7400000000006044820152606401610a28565b600a546115f58883613a4b565b11156116135760405162461bcd60e51b8152600401610a2890613a63565b611696848480806020026020016040519081016040528093929190818152602001838360200280828437600092019190915250506016546040516bffffffffffffffffffffffff193360601b166020820152603481018c9052605481018b905290925060740190506040516020818303038152906040528051906020012061280a565b6116d15760405162461bcd60e51b815260206004820152600c60248201526b1b9bdd08185c1c1c9bdd995960a21b6044820152606401610a28565b6116db8786613a0a565b34101561171f5760405162461bcd60e51b8152602060048201526012602482015271496e73756666696369656e742066756e647360701b6044820152606401610a28565b858761172a3361136d565b6117349190613a4b565b11156117745760405162461bcd60e51b815260206004820152600f60248201526e6d696e74656420746f6f206d616e7960881b6044820152606401610a28565b61177e3388612794565b60005b878110156117d05760408051338152602081018490526001909301927f30385c845b448a36257a6a1716e6ad2e1bc2cbe333cde1e69fe849ad6511adfe910160405180910390a1600101611781565b5050505050505050565b60006117ee6018546001600160a01b031690565b6001600160a01b031614156118155760405162461bcd60e51b8152600401610a2890613807565b811561182357611823612820565b60005b815181101561124057611851828281518110611844576118446139c3565b60200260200101516124d7565b61185a816139ef565b9050611826565b6118696125f4565b8051611260906011906020840190612c77565b606060038054610c8f90613988565b6008546000906001600160a01b0316158015906118f457506000600854600160f81b900460ff1660028111156118c3576118c3612fb9565b14806118f457508080156118f457506001600854600160f81b900460ff1660028111156118f2576118f2612fb9565b145b8061192557508015801561192557506002600854600160f81b900460ff16600281111561192357611923612fb9565b145b15611a00576008546040516370a0823160e01b8152336004820152600160a01b82046001600160581b0316916001600160a01b0316906370a0823190602401602060405180830381600087803b15801561197e57600080fd5b505af1158015611992573d6000803e3d6000fd5b505050506040513d601f19601f820116820180604052508101906119b69190613a98565b1015611a005760405162461bcd60e51b81526020600482015260196024820152783237903737ba1037bbb7103932b8bab4b932b2103a37b5b2b760391b6044820152606401610a28565b600054600d544210801590611a175750600e544211155b611a5b5760405162461bcd60e51b815260206004820152601560248201527429b0b632b99030b932903737ba1030b1ba34bb329760591b6044820152606401610a28565b600f5460ff1615611aae5760405162461bcd60e51b815260206004820152601b60248201527f53616c65206d7573742062652061637469766520746f206d696e7400000000006044820152606401610a28565b600a54611abb8483613a4b565b1115611ad95760405162461bcd60e51b8152600401610a2890613a63565b600a54811115611b165760405162461bcd60e51b815260206004820152600860248201526714d3d3110813d55560c21b6044820152606401610a28565b82600b54611b249190613a0a565b341015611b685760405162461bcd60e51b8152602060048201526012602482015271496e73756666696369656e742066756e647360701b6044820152606401610a28565b600c5415611bc257600c54831115611bc25760405162461bcd60e51b815260206004820152601c60248201527f4578636565646564206d6178206e756d62657220706572206d696e74000000006044820152606401610a28565b611bcc3384612794565b60005b83811015611c1e5760408051338152602081018490526001909301927f30385c845b448a36257a6a1716e6ad2e1bc2cbe333cde1e69fe849ad6511adfe910160405180910390a1600101611bcf565b50505050565b6001600160a01b038216331415611c4e5760405163b06307db60e01b815260040160405180910390fd5b3360008181526007602090815260408083206001600160a01b03871680855290835292819020805460ff191686151590811790915590519081529192917f17307eab39ab6107e8899845ad3d59bd9653f200f220920489ca2b5937696c31910160405180910390a35050565b611cc5848484610e09565b6001600160a01b0383163b15611c1e57611ce1848484846128d4565b611c1e576040516368d2bf6b60e11b815260040160405180910390fd5b6000611d126018546001600160a01b031690565b6001600160a01b03161415611d395760405162461bcd60e51b8152600401610a2890613807565b611d41612820565b6017546001600160a01b03166001600160a01b031663e61cb05e611d6d6018546001600160a01b031690565b8888888888886040518863ffffffff1660e01b8152600401611d959796959493929190613ab1565b600060405180830381600087803b158015611daf57600080fd5b505af1158015611dc3573d6000803e3d6000fd5b50505050505050505050565b611dd76125f4565b600054600a548190611de98483613a4b565b1115611e075760405162461bcd60e51b8152600401610a2890613a63565b8183015b80831015611ebc57611e468585848603818110611e2a57611e2a6139c3565b9050602002016020810190611e3f91906132d7565b6001612794565b7f30385c845b448a36257a6a1716e6ad2e1bc2cbe333cde1e69fe849ad6511adfe8585848603818110611e7b57611e7b6139c3565b9050602002016020810190611e9091906132d7565b604080516001600160a01b039092168252602082018690520160405180910390a1600190920191611e0b565b5050505050565b6060611ece826126a3565b611eeb57604051630a14c4b560e41b815260040160405180910390fd5b6012546001600160a01b031615611f7c5760125460405163c87b56dd60e01b8152600481018490526001600160a01b039091169063c87b56dd9060240160006040518083038186803b158015611f4057600080fd5b505afa158015611f54573d6000803e3d6000fd5b505050506040513d6000823e601f3d908101601f19168201604052610c7a9190810190613b0a565b610c7a826129cc565b600954610100900460ff1615808015611fa55750600954600160ff909116105b80611fbf5750303b158015611fbf575060095460ff166001145b6120225760405162461bcd60e51b815260206004820152602e60248201527f496e697469616c697a61626c653a20636f6e747261637420697320616c72656160448201526d191e481a5b9a5d1a585b1a5e995960921b6064820152608401610a28565b6009805460ff191660011790558015612045576009805461ff0019166101001790555b61204e876127ae565b8551805161206491600291602090910190612c77565b50602080870151805161207b926003920190612c77565b5060008055606080870151600a556080870151600b5560a0870151600c55610120870151600d55610140870151600e5561016087015160135560408088015160098054911515600160b01b0260ff60b01b1990921691909117905590860151601980546001600160a01b039283166001600160a01b03199182161790915560178054868416921691909117905585516008805460208901516001600160581b0316600160a01b026001600160f81b031990911692909316919091179190911780825591860151869282906001600160f81b0316600160f81b83600281111561216557612165612fb9565b0217905550505060c086015160165560e08601516014556101008601516015556001600160a01b038316158015906121a257506000856040015151115b1561222057601280546001600160a01b0319166001600160a01b03851690811790915560408681015190516342b53ffd60e11b815263856a7ffa916121e991600401612f3f565b600060405180830381600087803b15801561220357600080fd5b505af1158015612217573d6000803e3d6000fd5b5050505061224f565b8451805161223691601191602090910190612c77565b50602080860151805161224d926010920190612c77565b505b8015612295576009805461ff0019169055604051600181527f7f26b83ff96e1f2b6a682f133852f6798a09c465da95921460cefb38474024989060200160405180910390a15b50505050505050565b6122a66125f4565b600954600160b01b900460ff1661230d5760405162461bcd60e51b815260206004820152602560248201527f63616e6e6f742061646a7573742073697a65206f66207468697320636f6c6c6560448201526431ba34b7b760d91b6064820152608401610a28565b8061231760005490565b111561235b5760405162461bcd60e51b8152602060048201526013602482015272063616e6e6f742064656372656173652063617606c1b6044820152606401610a28565b600a55565b6012546060906001600160a01b03166123805760118054610c8f90613988565b601260009054906101000a90046001600160a01b03166001600160a01b031663e8a3d4856040518163ffffffff1660e01b815260040160006040518083038186803b1580156123ce57600080fd5b505afa1580156123e2573d6000803e3d6000fd5b505050506040513d6000823e601f3d908101601f1916820160405261240a9190810190613b0a565b905090565b6000600d5442101580156124255750600e544211155b801561240a575050600f5460ff161590565b61243f6125f4565b6001600160a01b0381166124a45760405162461bcd60e51b815260206004820152602660248201527f4f776e61626c653a206e6577206f776e657220697320746865207a65726f206160448201526564647265737360d01b6064820152608401610a28565b611222816127ae565b6124b56125f4565b601280546001600160a01b0319166001600160a01b0392909216919091179055565b6040516370a0823160e01b81523060048201526000906001600160a01b038316906370a082319060240160206040518083038186803b15801561251957600080fd5b505afa15801561252d573d6000803e3d6000fd5b505050506040513d601f19601f820116820180604052508101906125519190613a98565b9050816001600160a01b031663a9059cbb6125746018546001600160a01b031690565b6040516001600160e01b031960e084901b1681526001600160a01b03909116600482015260248101849052604401602060405180830381600087803b1580156125bc57600080fd5b505af11580156125d0573d6000803e3d6000fd5b505050506040513d601f19601f820116820180604052508101906112409190613b80565b6009546001600160a01b03620100009091041633146113cd5760405162461bcd60e51b815260206004820181905260248201527f4f776e61626c653a2063616c6c6572206973206e6f7420746865206f776e65726044820152606401610a28565b60006301ffc9a760e01b6001600160e01b03198316148061268657506380ac58cd60e01b6001600160e01b03198316145b80610c7a5750506001600160e01b031916635b5e139f60e01b1490565b6000805482108015610c7a575050600090815260046020526040902054600160e01b161590565b60008160005481101561271957600081815260046020526040902054600160e01b8116612717575b806127105750600019016000818152600460205260409020546126f2565b9392505050565b505b604051636f96cda160e11b815260040160405180910390fd5b601754604051636e5f691960e01b81526001600160a01b0390911690636e5f69199061276690869086908690600401613b9d565b600060405180830381600087803b15801561278057600080fd5b505af1158015612295573d6000803e3d6000fd5b611260828260405180602001604052806000815250612a50565b600980546001600160a01b038381166201000081810262010000600160b01b031985161790945560405193909204169182907f8be0079c531659141344cd1fd0a4f28419497f9722a3daafe3b4186f6b6457e090600090a35050565b6000826128178584612ab6565b14949350505050565b60006128346018546001600160a01b031690565b6001600160a01b03164760405160006040518083038185875af1925050503d806000811461287e576040519150601f19603f3d011682016040523d82523d6000602084013e612883565b606091505b50509050806112225760405162461bcd60e51b815260206004820152601f60248201527f436f756c64206e6f74207472616e736665722045544820746f2073706c6974006044820152606401610a28565b604051630a85bd0160e11b81526000906001600160a01b0385169063150b7a0290612909903390899088908890600401613c00565b602060405180830381600087803b15801561292357600080fd5b505af1925050508015612953575060408051601f3d908101601f1916820190925261295091810190613c3d565b60015b6129ae573d808015612981576040519150601f19603f3d011682016040523d82523d6000602084013e612986565b606091505b5080516129a6576040516368d2bf6b60e11b815260040160405180910390fd5b805181602001fd5b6001600160e01b031916630a85bd0160e11b1490505b949350505050565b60606129d7826126a3565b6129f457604051630a14c4b560e41b815260040160405180910390fd5b60006129fe612b03565b9050805160001415612a1f5760405180602001604052806000815250612710565b80612a2984612b12565b604051602001612a3a929190613c5a565b6040516020818303038152906040529392505050565b612a5a8383612b54565b6001600160a01b0383163b15611240576000548281035b612a8460008683806001019450866128d4565b612aa1576040516368d2bf6b60e11b815260040160405180910390fd5b818110612a71578160005414611ebc57600080fd5b600081815b8451811015612afb57612ae782868381518110612ada57612ada6139c3565b6020026020010151612c4b565b915080612af3816139ef565b915050612abb565b509392505050565b606060108054610c8f90613988565b604080516080019081905280825b600183039250600a81066030018353600a900480612b3d57612b42565b612b20565b50819003601f19909101908152919050565b60005481612b755760405163b562e8dd60e01b815260040160405180910390fd5b6001600160a01b03831660008181526005602090815260408083208054680100000000000000018802019055848352600490915281206001851460e11b4260a01b178317905582840190839083907fddf252ad1be2c89b69c2b068fc378daa952ba7f163c4a11628f55a4df523b3ef8180a4600183015b818114612c2457808360007fddf252ad1be2c89b69c2b068fc378daa952ba7f163c4a11628f55a4df523b3ef600080a4600101612bec565b5081612c4257604051622e076360e81b815260040160405180910390fd5b60005550505050565b6000818310612c67576000828152602084905260409020612710565b5060009182526020526040902090565b828054612c8390613988565b90600052602060002090601f016020900481019282612ca55760008555612ceb565b82601f10612cbe57805160ff1916838001178555612ceb565b82800160010185558215612ceb579182015b82811115612ceb578251825591602001919060010190612cd0565b50612cf7929150612cfb565b5090565b5b80821115612cf75760008155600101612cfc565b6001600160a01b038116811461122257600080fd5b60008083601f840112612d3757600080fd5b5081356001600160401b03811115612d4e57600080fd5b6020830191508360208260051b85010111156110f457600080fd5b803563ffffffff81168114612d7d57600080fd5b919050565b8035612d7d81612d10565b600080600080600080600060a0888a031215612da857600080fd5b8735612db381612d10565b965060208801356001600160401b0380821115612dcf57600080fd5b612ddb8b838c01612d25565b909850965060408a0135915080821115612df457600080fd5b50612e018a828b01612d25565b9095509350612e14905060608901612d69565b91506080880135612e2481612d10565b8091505092959891949750929550565b600080600080600060608688031215612e4c57600080fd5b85356001600160401b0380821115612e6357600080fd5b612e6f89838a01612d25565b90975095506020880135915080821115612e8857600080fd5b50612e9588828901612d25565b9094509250612ea8905060408701612d69565b90509295509295909350565b6001600160e01b03198116811461122257600080fd5b600060208284031215612edc57600080fd5b813561271081612eb4565b60005b83811015612f02578181015183820152602001612eea565b83811115611c1e5750506000910152565b60008151808452612f2b816020860160208601612ee7565b601f01601f19169290920160200192915050565b6020815260006127106020830184612f13565b600060208284031215612f6457600080fd5b5035919050565b60008060408385031215612f7e57600080fd5b8235612f8981612d10565b946020939093013593505050565b60008060408385031215612faa57600080fd5b50508035926020909101359150565b634e487b7160e01b600052602160045260246000fd5b6001600160a01b03841681526001600160581b0383166020820152606081016003831061300c57634e487b7160e01b600052602160045260246000fd5b826040830152949350505050565b60008060006060848603121561302f57600080fd5b833561303a81612d10565b9250602084013561304a81612d10565b929592945050506040919091013590565b634e487b7160e01b600052604160045260246000fd5b60405161018081016001600160401b03811182821017156130945761309461305b565b60405290565b604051601f8201601f191681016001600160401b03811182821017156130c2576130c261305b565b604052919050565b600082601f8301126130db57600080fd5b813560206001600160401b038211156130f6576130f661305b565b8160051b61310582820161309a565b928352848101820192828101908785111561311f57600080fd5b83870192505b8483101561314757823561313881612d10565b82529183019190830190613125565b979650505050505050565b600080600080600080600080600060e08a8c03121561317057600080fd5b893561317b81612d10565b985060208a0135975060408a01356001600160401b038082111561319e57600080fd5b6131aa8d838e016130ca565b985060608c01359150808211156131c057600080fd5b6131cc8d838e01612d25565b909850965060808c01359150808211156131e557600080fd5b506131f28c828d01612d25565b9095509350613205905060a08b01612d69565b915060c08a013561321581612d10565b809150509295985092959850929598565b60006001600160401b0382111561323f5761323f61305b565b50601f01601f191660200190565b600082601f83011261325e57600080fd5b813561327161326c82613226565b61309a565b81815284602083860101111561328657600080fd5b816020850160208301376000918101602001919091529392505050565b6000602082840312156132b557600080fd5b81356001600160401b038111156132cb57600080fd5b6129c48482850161324d565b6000602082840312156132e957600080fd5b813561271081612d10565b60008060008060006080868803121561330c57600080fd5b85359450602086013593506040860135925060608601356001600160401b0381111561333757600080fd5b61334388828901612d25565b969995985093965092949392505050565b6000806040838503121561336757600080fd5b8235915060208301356001600160401b0381111561338457600080fd5b6110f0858286016130ca565b801515811461122257600080fd5b8035612d7d81613390565b600080604083850312156133bc57600080fd5b82356133c781612d10565b915060208301356133d781613390565b809150509250929050565b600080600080608085870312156133f857600080fd5b843561340381612d10565b9350602085013561341381612d10565b92506040850135915060608501356001600160401b0381111561343557600080fd5b6134418782880161324d565b91505092959194509250565b6000806000806000806080878903121561346657600080fd5b86356001600160401b038082111561347d57600080fd5b6134898a838b01612d25565b909850965060208901359150808211156134a257600080fd5b506134af89828a01612d25565b90955093506134c2905060408801612d69565b915060608701356134d281612d10565b809150509295509295509295565b600080602083850312156134f357600080fd5b82356001600160401b0381111561350957600080fd5b61351585828601612d25565b90969095509350505050565b60006080828403121561353357600080fd5b604051608081016001600160401b0382821081831117156135565761355661305b565b81604052829350843591508082111561356e57600080fd5b61357a8683870161324d565b8352602085013591508082111561359057600080fd5b61359c8683870161324d565b602084015260408501359150808211156135b557600080fd5b506135c28582860161324d565b60408301525060608301356135d681612d10565b6060919091015292915050565b6000606082840312156135f557600080fd5b604051606081018181106001600160401b03821117156136175761361761305b565b604052905080823561362881612d10565b815260208301356001600160581b038116811461364457600080fd5b602082015260408301356003811061365b57600080fd5b6040919091015292915050565b60008060008060008061010080888a03121561368357600080fd5b873561368e81612d10565b965060208801356001600160401b03808211156136aa57600080fd5b90890190610180828c0312156136bf57600080fd5b6136c7613071565b8235828111156136d657600080fd5b6136e28d82860161324d565b8252506020830135828111156136f757600080fd5b6137038d82860161324d565b6020830152506137156040840161339e565b6040820152606083013560608201526080830135608082015260a083013560a082015260c083013560c082015260e083013560e082015283830135848201526101209350838301358482015261014093508383013584820152610160935083830135848201528098505060408a013592508083111561379357600080fd5b50506137a189828a01613521565b9450506137b188606089016135e3565b92506137bf60c08801612d82565b91506137cd60e08801612d82565b90509295509295509295565b600080604083850312156137ec57600080fd5b82356137f781612d10565b915060208301356133d781612d10565b60208082526015908201527414dc1b1a5d081b9bdd0818dc99585d1959081e595d605a1b604082015260600190565b8183526000602080850194508260005b8581101561387457813561385981612d10565b6001600160a01b031687529582019590820190600101613846565b509495945050505050565b8183526000602080850194508260005b858110156138745763ffffffff6138a583612d69565b168752958201959082019060010161388f565b600060018060a01b03808b168352808a16602084015260c060408401526138e360c08401898b613836565b83810360608501526138f681888a61387f565b63ffffffff969096166080850152509290921660a090910152509695505050505050565b60808152600061392e60808301888a613836565b828103602084015261394181878961387f565b63ffffffff95909516604084015250506001600160a01b0391909116606090910152949350505050565b60006020828403121561397d57600080fd5b815161271081612d10565b600181811c9082168061399c57607f821691505b602082108114156139bd57634e487b7160e01b600052602260045260246000fd5b50919050565b634e487b7160e01b600052603260045260246000fd5b634e487b7160e01b600052601160045260246000fd5b6000600019821415613a0357613a036139d9565b5060010190565b6000816000190483118215151615613a2457613a246139d9565b500290565b600082613a4657634e487b7160e01b600052601260045260246000fd5b500490565b60008219821115613a5e57613a5e6139d9565b500190565b6020808252818101527f507572636861736520776f756c6420657863656564206d617820737570706c79604082015260600190565b600060208284031215613aaa57600080fd5b5051919050565b600060018060a01b03808a16835260a06020840152613ad460a08401898b613836565b8381036040850152613ae781888a61387f565b63ffffffff96909616606085015250929092166080909101525095945050505050565b600060208284031215613b1c57600080fd5b81516001600160401b03811115613b3257600080fd5b8201601f81018413613b4357600080fd5b8051613b5161326c82613226565b818152856020838501011115613b6657600080fd5b613b77826020830160208601612ee7565b95945050505050565b600060208284031215613b9257600080fd5b815161271081613390565b6001600160a01b038481168252602080830185905260606040840181905284519084018190526000928583019290916080860190855b81811015613bf1578551851683529483019491830191600101613bd3565b50909998505050505050505050565b6001600160a01b0385811682528416602082015260408101839052608060608201819052600090613c3390830184612f13565b9695505050505050565b600060208284031215613c4f57600080fd5b815161271081612eb4565b60008351613c6c818460208801612ee7565b835190830190613c80818360208801612ee7565b0194935050505056fea26469706673582212202c1d5229a93a35f9768e4b40e9cebe98964dad09d68e09cfa8b3600a88569ba264736f6c63430008090033",
  "linkReferences": {},
  "deployedLinkReferences": {}
}