{
  "_format": "hh-sol-artifact-1",
  "contractName": "DCNTSDK",
  "sourceName": "contracts/DCNTSDK.sol",
  "abi": [
    {
      "inputs": [
        {
          "internalType": "address",
          "name": "_DCNT721AImplementation",
          "type": "address"
        },
        {
          "internalType": "address",
          "name": "_DCNT4907AImplementation",
          "type": "address"
        },
        {
          "internalType": "address",
          "name": "_DCNTSeriesImplementation",
          "type": "address"
        },
        {
          "internalType": "address",
          "name": "_DCNTCrescendoImplementation",
          "type": "address"
        },
        {
          "internalType": "address",
          "name": "_DCNTVaultImplementation",
          "type": "address"
        },
        {
          "internalType": "address",
          "name": "_DCNTStakingImplementation",
          "type": "address"
        },
        {
          "internalType": "address",
          "name": "_metadataRenderer",
          "type": "address"
        },
        {
          "internalType": "address",
          "name": "_contractRegistry",
          "type": "address"
        },
        {
          "internalType": "address",
          "name": "_ZKEditionImplementation",
          "type": "address"
        }
      ],
      "stateMutability": "nonpayable",
      "type": "constructor"
    },
    {
      "anonymous": false,
      "inputs": [
        {
          "indexed": false,
          "internalType": "address",
          "name": "DCNT4907A",
          "type": "address"
        }
      ],
      "name": "DeployDCNT4907A",
      "type": "event"
    },
    {
      "anonymous": false,
      "inputs": [
        {
          "indexed": false,
          "internalType": "address",
          "name": "DCNT721A",
          "type": "address"
        }
      ],
      "name": "DeployDCNT721A",
      "type": "event"
    },
    {
      "anonymous": false,
      "inputs": [
        {
          "indexed": false,
          "internalType": "address",
          "name": "DCNTCrescendo",
          "type": "address"
        }
      ],
      "name": "DeployDCNTCrescendo",
      "type": "event"
    },
    {
      "anonymous": false,
      "inputs": [
        {
          "indexed": false,
          "internalType": "address",
          "name": "DCNTSeries",
          "type": "address"
        }
      ],
      "name": "DeployDCNTSeries",
      "type": "event"
    },
    {
      "anonymous": false,
      "inputs": [
        {
          "indexed": false,
          "internalType": "address",
          "name": "DCNTStaking",
          "type": "address"
        }
      ],
      "name": "DeployDCNTStaking",
      "type": "event"
    },
    {
      "anonymous": false,
      "inputs": [
        {
          "indexed": false,
          "internalType": "address",
          "name": "DCNTVault",
          "type": "address"
        }
      ],
      "name": "DeployDCNTVault",
      "type": "event"
    },
    {
      "anonymous": false,
      "inputs": [
        {
          "indexed": false,
          "internalType": "address",
          "name": "ZKEdition",
          "type": "address"
        }
      ],
      "name": "DeployZKEdition",
      "type": "event"
    },
    {
      "anonymous": false,
      "inputs": [
        {
          "indexed": true,
          "internalType": "address",
          "name": "previousOwner",
          "type": "address"
        },
        {
          "indexed": true,
          "internalType": "address",
          "name": "newOwner",
          "type": "address"
        }
      ],
      "name": "OwnershipTransferred",
      "type": "event"
    },
    {
      "inputs": [],
      "name": "DCNT4907AImplementation",
      "outputs": [
        {
          "internalType": "address",
          "name": "",
          "type": "address"
        }
      ],
      "stateMutability": "view",
      "type": "function"
    },
    {
      "inputs": [],
      "name": "DCNT721AImplementation",
      "outputs": [
        {
          "internalType": "address",
          "name": "",
          "type": "address"
        }
      ],
      "stateMutability": "view",
      "type": "function"
    },
    {
      "inputs": [],
      "name": "DCNTCrescendoImplementation",
      "outputs": [
        {
          "internalType": "address",
          "name": "",
          "type": "address"
        }
      ],
      "stateMutability": "view",
      "type": "function"
    },
    {
      "inputs": [],
      "name": "DCNTSeriesImplementation",
      "outputs": [
        {
          "internalType": "address",
          "name": "",
          "type": "address"
        }
      ],
      "stateMutability": "view",
      "type": "function"
    },
    {
      "inputs": [],
      "name": "DCNTStakingImplementation",
      "outputs": [
        {
          "internalType": "address",
          "name": "",
          "type": "address"
        }
      ],
      "stateMutability": "view",
      "type": "function"
    },
    {
      "inputs": [],
      "name": "DCNTVaultImplementation",
      "outputs": [
        {
          "internalType": "address",
          "name": "",
          "type": "address"
        }
      ],
      "stateMutability": "view",
      "type": "function"
    },
    {
      "inputs": [],
      "name": "ZKEditionImplementation",
      "outputs": [
        {
          "internalType": "address",
          "name": "",
          "type": "address"
        }
      ],
      "stateMutability": "view",
      "type": "function"
    },
    {
      "inputs": [],
      "name": "contractRegistry",
      "outputs": [
        {
          "internalType": "address",
          "name": "",
          "type": "address"
        }
      ],
      "stateMutability": "view",
      "type": "function"
    },
    {
      "inputs": [
        {
          "components": [
            {
              "internalType": "string",
              "name": "name",
              "type": "string"
            },
            {
              "internalType": "string",
              "name": "symbol",
              "type": "string"
            },
            {
              "internalType": "bool",
              "name": "hasAdjustableCap",
              "type": "bool"
            },
            {
              "internalType": "bool",
              "name": "isSoulbound",
              "type": "bool"
            },
            {
              "internalType": "uint32",
              "name": "maxTokens",
              "type": "uint32"
            },
            {
              "internalType": "uint32",
              "name": "maxTokenPurchase",
              "type": "uint32"
            },
            {
              "internalType": "uint32",
              "name": "presaleStart",
              "type": "uint32"
            },
            {
              "internalType": "uint32",
              "name": "presaleEnd",
              "type": "uint32"
            },
            {
              "internalType": "uint32",
              "name": "saleStart",
              "type": "uint32"
            },
            {
              "internalType": "uint32",
              "name": "saleEnd",
              "type": "uint32"
            },
            {
              "internalType": "uint16",
              "name": "royaltyBPS",
              "type": "uint16"
            },
            {
              "internalType": "uint96",
              "name": "tokenPrice",
              "type": "uint96"
            },
            {
              "internalType": "address",
              "name": "feeManager",
              "type": "address"
            },
            {
              "internalType": "address",
              "name": "payoutAddress",
              "type": "address"
            },
            {
              "internalType": "bytes32",
              "name": "presaleMerkleRoot",
              "type": "bytes32"
            }
          ],
          "internalType": "struct EditionConfig",
          "name": "_editionConfig",
          "type": "tuple"
        },
        {
          "components": [
            {
              "internalType": "string",
              "name": "contractURI",
              "type": "string"
            },
            {
              "internalType": "string",
              "name": "metadataURI",
              "type": "string"
            },
            {
              "internalType": "bytes",
              "name": "metadataRendererInit",
              "type": "bytes"
            },
            {
              "internalType": "address",
              "name": "parentIP",
              "type": "address"
            }
          ],
          "internalType": "struct MetadataConfig",
          "name": "_metadataConfig",
          "type": "tuple"
        },
        {
          "components": [
            {
              "internalType": "address",
              "name": "tokenAddress",
              "type": "address"
            },
            {
              "internalType": "uint88",
              "name": "minBalance",
              "type": "uint88"
            },
            {
              "internalType": "enum SaleType",
              "name": "saleType",
              "type": "uint8"
            }
          ],
          "internalType": "struct TokenGateConfig",
          "name": "_tokenGateConfig",
          "type": "tuple"
        }
      ],
      "name": "deployDCNT4907A",
      "outputs": [
        {
          "internalType": "address",
          "name": "clone",
          "type": "address"
        }
      ],
      "stateMutability": "nonpayable",
      "type": "function"
    },
    {
      "inputs": [
        {
          "components": [
            {
              "internalType": "string",
              "name": "name",
              "type": "string"
            },
            {
              "internalType": "string",
              "name": "symbol",
              "type": "string"
            },
            {
              "internalType": "bool",
              "name": "hasAdjustableCap",
              "type": "bool"
            },
            {
              "internalType": "bool",
              "name": "isSoulbound",
              "type": "bool"
            },
            {
              "internalType": "uint32",
              "name": "maxTokens",
              "type": "uint32"
            },
            {
              "internalType": "uint32",
              "name": "maxTokenPurchase",
              "type": "uint32"
            },
            {
              "internalType": "uint32",
              "name": "presaleStart",
              "type": "uint32"
            },
            {
              "internalType": "uint32",
              "name": "presaleEnd",
              "type": "uint32"
            },
            {
              "internalType": "uint32",
              "name": "saleStart",
              "type": "uint32"
            },
            {
              "internalType": "uint32",
              "name": "saleEnd",
              "type": "uint32"
            },
            {
              "internalType": "uint16",
              "name": "royaltyBPS",
              "type": "uint16"
            },
            {
              "internalType": "uint96",
              "name": "tokenPrice",
              "type": "uint96"
            },
            {
              "internalType": "address",
              "name": "feeManager",
              "type": "address"
            },
            {
              "internalType": "address",
              "name": "payoutAddress",
              "type": "address"
            },
            {
              "internalType": "bytes32",
              "name": "presaleMerkleRoot",
              "type": "bytes32"
            }
          ],
          "internalType": "struct EditionConfig",
          "name": "_editionConfig",
          "type": "tuple"
        },
        {
          "components": [
            {
              "internalType": "string",
              "name": "contractURI",
              "type": "string"
            },
            {
              "internalType": "string",
              "name": "metadataURI",
              "type": "string"
            },
            {
              "internalType": "bytes",
              "name": "metadataRendererInit",
              "type": "bytes"
            },
            {
              "internalType": "address",
              "name": "parentIP",
              "type": "address"
            }
          ],
          "internalType": "struct MetadataConfig",
          "name": "_metadataConfig",
          "type": "tuple"
        },
        {
          "components": [
            {
              "internalType": "address",
              "name": "tokenAddress",
              "type": "address"
            },
            {
              "internalType": "uint88",
              "name": "minBalance",
              "type": "uint88"
            },
            {
              "internalType": "enum SaleType",
              "name": "saleType",
              "type": "uint8"
            }
          ],
          "internalType": "struct TokenGateConfig",
          "name": "_tokenGateConfig",
          "type": "tuple"
        }
      ],
      "name": "deployDCNT721A",
      "outputs": [
        {
          "internalType": "address",
          "name": "clone",
          "type": "address"
        }
      ],
      "stateMutability": "nonpayable",
      "type": "function"
    },
    {
      "inputs": [
        {
          "components": [
            {
              "internalType": "string",
              "name": "name",
              "type": "string"
            },
            {
              "internalType": "string",
              "name": "symbol",
              "type": "string"
            },
            {
              "internalType": "uint256",
              "name": "initialPrice",
              "type": "uint256"
            },
            {
              "internalType": "uint256",
              "name": "step1",
              "type": "uint256"
            },
            {
              "internalType": "uint256",
              "name": "step2",
              "type": "uint256"
            },
            {
              "internalType": "uint256",
              "name": "hitch",
              "type": "uint256"
            },
            {
              "internalType": "uint256",
              "name": "takeRateBPS",
              "type": "uint256"
            },
            {
              "internalType": "uint256",
              "name": "unlockDate",
              "type": "uint256"
            },
            {
              "internalType": "uint256",
              "name": "saleStart",
              "type": "uint256"
            },
            {
              "internalType": "uint256",
              "name": "royaltyBPS",
              "type": "uint256"
            }
          ],
          "internalType": "struct CrescendoConfig",
          "name": "_config",
          "type": "tuple"
        },
        {
          "components": [
            {
              "internalType": "string",
              "name": "contractURI",
              "type": "string"
            },
            {
              "internalType": "string",
              "name": "metadataURI",
              "type": "string"
            },
            {
              "internalType": "bytes",
              "name": "metadataRendererInit",
              "type": "bytes"
            },
            {
              "internalType": "address",
              "name": "parentIP",
              "type": "address"
            }
          ],
          "internalType": "struct MetadataConfig",
          "name": "_metadataConfig",
          "type": "tuple"
        }
      ],
      "name": "deployDCNTCrescendo",
      "outputs": [
        {
          "internalType": "address",
          "name": "clone",
          "type": "address"
        }
      ],
      "stateMutability": "nonpayable",
      "type": "function"
    },
    {
      "inputs": [
        {
          "components": [
            {
              "internalType": "string",
              "name": "name",
              "type": "string"
            },
            {
              "internalType": "string",
              "name": "symbol",
              "type": "string"
            },
            {
              "internalType": "string",
              "name": "contractURI",
              "type": "string"
            },
            {
              "internalType": "string",
              "name": "metadataURI",
              "type": "string"
            },
            {
              "internalType": "uint128",
              "name": "startTokenId",
              "type": "uint128"
            },
            {
              "internalType": "uint128",
              "name": "endTokenId",
              "type": "uint128"
            },
            {
              "internalType": "uint16",
              "name": "royaltyBPS",
              "type": "uint16"
            },
            {
              "internalType": "address",
              "name": "feeManager",
              "type": "address"
            },
            {
              "internalType": "address",
              "name": "payoutAddress",
              "type": "address"
            },
            {
              "internalType": "address",
              "name": "currencyOracle",
              "type": "address"
            },
            {
              "internalType": "bool",
              "name": "isSoulbound",
              "type": "bool"
            },
            {
              "internalType": "bool",
              "name": "hasAdjustableCaps",
              "type": "bool"
            }
          ],
          "internalType": "struct IDCNTSeries.SeriesConfig",
          "name": "_config",
          "type": "tuple"
        },
        {
          "components": [
            {
              "internalType": "uint32",
              "name": "maxTokens",
              "type": "uint32"
            },
            {
              "internalType": "uint32",
              "name": "maxTokensPerOwner",
              "type": "uint32"
            },
            {
              "internalType": "uint32",
              "name": "presaleStart",
              "type": "uint32"
            },
            {
              "internalType": "uint32",
              "name": "presaleEnd",
              "type": "uint32"
            },
            {
              "internalType": "uint32",
              "name": "saleStart",
              "type": "uint32"
            },
            {
              "internalType": "uint32",
              "name": "saleEnd",
              "type": "uint32"
            },
            {
              "internalType": "uint96",
              "name": "tokenPrice",
              "type": "uint96"
            },
            {
              "internalType": "bytes32",
              "name": "presaleMerkleRoot",
              "type": "bytes32"
            },
            {
              "components": [
                {
                  "internalType": "address",
                  "name": "tokenAddress",
                  "type": "address"
                },
                {
                  "internalType": "uint88",
                  "name": "minBalance",
                  "type": "uint88"
                },
                {
                  "internalType": "enum SaleType",
                  "name": "saleType",
                  "type": "uint8"
                }
              ],
              "internalType": "struct TokenGateConfig",
              "name": "tokenGate",
              "type": "tuple"
            }
          ],
          "internalType": "struct IDCNTSeries.Drop",
          "name": "_defaultDrop",
          "type": "tuple"
        },
        {
          "components": [
            {
              "internalType": "uint256[]",
              "name": "tokenIds",
              "type": "uint256[]"
            },
            {
              "internalType": "uint256[]",
              "name": "tokenIdDropIds",
              "type": "uint256[]"
            },
            {
              "internalType": "uint256[]",
              "name": "dropIds",
              "type": "uint256[]"
            },
            {
              "components": [
                {
                  "internalType": "uint32",
                  "name": "maxTokens",
                  "type": "uint32"
                },
                {
                  "internalType": "uint32",
                  "name": "maxTokensPerOwner",
                  "type": "uint32"
                },
                {
                  "internalType": "uint32",
                  "name": "presaleStart",
                  "type": "uint32"
                },
                {
                  "internalType": "uint32",
                  "name": "presaleEnd",
                  "type": "uint32"
                },
                {
                  "internalType": "uint32",
                  "name": "saleStart",
                  "type": "uint32"
                },
                {
                  "internalType": "uint32",
                  "name": "saleEnd",
                  "type": "uint32"
                },
                {
                  "internalType": "uint96",
                  "name": "tokenPrice",
                  "type": "uint96"
                },
                {
                  "internalType": "bytes32",
                  "name": "presaleMerkleRoot",
                  "type": "bytes32"
                },
                {
                  "components": [
                    {
                      "internalType": "address",
                      "name": "tokenAddress",
                      "type": "address"
                    },
                    {
                      "internalType": "uint88",
                      "name": "minBalance",
                      "type": "uint88"
                    },
                    {
                      "internalType": "enum SaleType",
                      "name": "saleType",
                      "type": "uint8"
                    }
                  ],
                  "internalType": "struct TokenGateConfig",
                  "name": "tokenGate",
                  "type": "tuple"
                }
              ],
              "internalType": "struct IDCNTSeries.Drop[]",
              "name": "drops",
              "type": "tuple[]"
            }
          ],
          "internalType": "struct IDCNTSeries.DropMap",
          "name": "_dropOverrides",
          "type": "tuple"
        }
      ],
      "name": "deployDCNTSeries",
      "outputs": [
        {
          "internalType": "address",
          "name": "clone",
          "type": "address"
        }
      ],
      "stateMutability": "nonpayable",
      "type": "function"
    },
    {
      "inputs": [
        {
          "internalType": "address",
          "name": "_nft",
          "type": "address"
        },
        {
          "internalType": "address",
          "name": "_token",
          "type": "address"
        },
        {
          "internalType": "uint256",
          "name": "_vaultDuration",
          "type": "uint256"
        },
        {
          "internalType": "uint256",
          "name": "_totalSupply",
          "type": "uint256"
        }
      ],
      "name": "deployDCNTStaking",
      "outputs": [
        {
          "internalType": "address",
          "name": "clone",
          "type": "address"
        }
      ],
      "stateMutability": "nonpayable",
      "type": "function"
    },
    {
      "inputs": [
        {
          "internalType": "address",
          "name": "_vaultDistributionTokenAddress",
          "type": "address"
        },
        {
          "internalType": "address",
          "name": "_nftVaultKeyAddress",
          "type": "address"
        },
        {
          "internalType": "uint256",
          "name": "_nftTotalSupply",
          "type": "uint256"
        },
        {
          "internalType": "uint256",
          "name": "_unlockDate",
          "type": "uint256"
        }
      ],
      "name": "deployDCNTVault",
      "outputs": [
        {
          "internalType": "address",
          "name": "clone",
          "type": "address"
        }
      ],
      "stateMutability": "nonpayable",
      "type": "function"
    },
    {
      "inputs": [
        {
          "components": [
            {
              "internalType": "string",
              "name": "name",
              "type": "string"
            },
            {
              "internalType": "string",
              "name": "symbol",
              "type": "string"
            },
            {
              "internalType": "bool",
              "name": "hasAdjustableCap",
              "type": "bool"
            },
            {
              "internalType": "bool",
              "name": "isSoulbound",
              "type": "bool"
            },
            {
              "internalType": "uint32",
              "name": "maxTokens",
              "type": "uint32"
            },
            {
              "internalType": "uint32",
              "name": "maxTokenPurchase",
              "type": "uint32"
            },
            {
              "internalType": "uint32",
              "name": "presaleStart",
              "type": "uint32"
            },
            {
              "internalType": "uint32",
              "name": "presaleEnd",
              "type": "uint32"
            },
            {
              "internalType": "uint32",
              "name": "saleStart",
              "type": "uint32"
            },
            {
              "internalType": "uint32",
              "name": "saleEnd",
              "type": "uint32"
            },
            {
              "internalType": "uint16",
              "name": "royaltyBPS",
              "type": "uint16"
            },
            {
              "internalType": "uint96",
              "name": "tokenPrice",
              "type": "uint96"
            },
            {
              "internalType": "address",
              "name": "feeManager",
              "type": "address"
            },
            {
              "internalType": "address",
              "name": "payoutAddress",
              "type": "address"
            },
            {
              "internalType": "bytes32",
              "name": "presaleMerkleRoot",
              "type": "bytes32"
            }
          ],
          "internalType": "struct EditionConfig",
          "name": "_editionConfig",
          "type": "tuple"
        },
        {
          "components": [
            {
              "internalType": "string",
              "name": "contractURI",
              "type": "string"
            },
            {
              "internalType": "string",
              "name": "metadataURI",
              "type": "string"
            },
            {
              "internalType": "bytes",
              "name": "metadataRendererInit",
              "type": "bytes"
            },
            {
              "internalType": "address",
              "name": "parentIP",
              "type": "address"
            }
          ],
          "internalType": "struct MetadataConfig",
          "name": "_metadataConfig",
          "type": "tuple"
        },
        {
          "components": [
            {
              "internalType": "address",
              "name": "tokenAddress",
              "type": "address"
            },
            {
              "internalType": "uint88",
              "name": "minBalance",
              "type": "uint88"
            },
            {
              "internalType": "enum SaleType",
              "name": "saleType",
              "type": "uint8"
            }
          ],
          "internalType": "struct TokenGateConfig",
          "name": "_tokenGateConfig",
          "type": "tuple"
        },
        {
          "internalType": "address",
          "name": "zkVerifier",
          "type": "address"
        }
      ],
      "name": "deployZKEdition",
      "outputs": [
        {
          "internalType": "address",
          "name": "clone",
          "type": "address"
        }
      ],
      "stateMutability": "nonpayable",
      "type": "function"
    },
    {
      "inputs": [],
      "name": "metadataRenderer",
      "outputs": [
        {
          "internalType": "address",
          "name": "",
          "type": "address"
        }
      ],
      "stateMutability": "view",
      "type": "function"
    },
    {
      "inputs": [],
      "name": "owner",
      "outputs": [
        {
          "internalType": "address",
          "name": "",
          "type": "address"
        }
      ],
      "stateMutability": "view",
      "type": "function"
    },
    {
      "inputs": [],
      "name": "renounceOwnership",
      "outputs": [],
      "stateMutability": "nonpayable",
      "type": "function"
    },
    {
      "inputs": [
        {
          "internalType": "address",
          "name": "newOwner",
          "type": "address"
        }
      ],
      "name": "transferOwnership",
      "outputs": [],
      "stateMutability": "nonpayable",
      "type": "function"
    }
  ],
  "bytecode": "0x60806040523480156200001157600080fd5b5060405162001d7038038062001d7083398101604081905262000034916200014d565b6200003f33620000e0565b600180546001600160a01b03199081166001600160a01b039b8c1617909155600280548216998b1699909917909855600380548916978a1697909717909655600480548816958916959095179094556005805487169388169390931790925560068054861691871691909117905560088054851691861691909117905560098054841691851691909117905560078054909216921691909117905562000208565b600080546001600160a01b038381166001600160a01b0319831681178455604051919092169283917f8be0079c531659141344cd1fd0a4f28419497f9722a3daafe3b4186f6b6457e09190a35050565b80516001600160a01b03811681146200014857600080fd5b919050565b60008060008060008060008060006101208a8c0312156200016d57600080fd5b620001788a62000130565b98506200018860208b0162000130565b97506200019860408b0162000130565b9650620001a860608b0162000130565b9550620001b860808b0162000130565b9450620001c860a08b0162000130565b9350620001d860c08b0162000130565b9250620001e860e08b0162000130565b9150620001f96101008b0162000130565b90509295985092959850929598565b611b5880620002186000396000f3fe608060405234801561001057600080fd5b50600436106101215760003560e01c8063715018a6116100ad578063b8ab450d11610071578063b8ab450d14610241578063bc10a4fa14610254578063ca825bb514610267578063d0ae315a1461027a578063f2fde38b1461028d57600080fd5b8063715018a6146101ed57806373d622f8146101f75780638da5cb5b1461020a5780639f61dfec1461021b578063abf410e51461022e57600080fd5b80633c3b370b116100f45780633c3b370b1461018e5780634285656b146101a15780634b477284146101b45780636572e5f1146101c757806370319970146101da57600080fd5b806310a089131461012657806315605173146101555780632d11e65e14610168578063389058981461017b575b600080fd5b600154610139906001600160a01b031681565b6040516001600160a01b03909116815260200160405180910390f35b610139610163366004610fbd565b6102a0565b600354610139906001600160a01b031681565b610139610189366004611032565b610437565b600654610139906001600160a01b031681565b600254610139906001600160a01b031681565b6101396101c2366004610fbd565b6105ce565b6101396101d536600461109f565b61075b565b600854610139906001600160a01b031681565b6101f56108dd565b005b610139610205366004611142565b6108f1565b6000546001600160a01b0316610139565b600554610139906001600160a01b031681565b600954610139906001600160a01b031681565b61013961024f366004611184565b610a96565b610139610262366004611142565b610c25565b600454610139906001600160a01b031681565b600754610139906001600160a01b031681565b6101f561029b36600461120a565b610dbe565b6001546000906102b8906001600160a01b0316610e3c565b6008546040519192506000916001600160a01b03808516926102e89233928a928a928a9290911690602401611547565b60408051601f198184030181529181526020820180516001600160e01b031663569c66c560e01b1790525161031d919061159e565b6000604051808303816000865af19150503d806000811461035a576040519150601f19603f3d011682016040523d82523d6000602084013e61035f565b606091505b505090508061036d57600080fd5b60095460405163ede4973960e01b81523360048201526001600160a01b03848116602483015260606044830152600860648301526744434e543732314160c01b60848301529091169063ede497399060a401600060405180830381600087803b1580156103d957600080fd5b505af11580156103ed573d6000803e3d6000fd5b50506040516001600160a01b03851681527f149ce80ffd882db4157fb46dd05201336d87f52ace89212615557e5455b8a0df925060200190505b60405180910390a1509392505050565b60045460009061044f906001600160a01b0316610e3c565b6008546040519192506000916001600160a01b038085169261047c923392899289929116906024016115cd565b60408051601f198184030181529181526020820180516001600160e01b0316636a276a6360e11b179052516104b1919061159e565b6000604051808303816000865af19150503d80600081146104ee576040519150601f19603f3d011682016040523d82523d6000602084013e6104f3565b606091505b505090508061050157600080fd5b60095460405163ede4973960e01b81523360048201526001600160a01b03848116602483015260606044830152600d60648301526c44434e544372657363656e646f60981b60848301529091169063ede497399060a401600060405180830381600087803b15801561057257600080fd5b505af1158015610586573d6000803e3d6000fd5b50506040516001600160a01b03851681527f2c14c8ffafc8bfdf42e6469d6c292eeaebf445beafb817fb0bc9df3ebd89f0069250602001905060405180910390a15092915050565b6002546000906105e6906001600160a01b0316610e3c565b6008546040519192506000916001600160a01b03808516926106169233928a928a928a9290911690602401611547565b60408051601f198184030181529181526020820180516001600160e01b031663569c66c560e01b1790525161064b919061159e565b6000604051808303816000865af19150503d8060008114610688576040519150601f19603f3d011682016040523d82523d6000602084013e61068d565b606091505b505090508061069b57600080fd5b6009805460405163ede4973960e01b81523360048201526001600160a01b0385811660248301526060604483015260648201939093526844434e54343930374160b81b608482015291169063ede497399060a401600060405180830381600087803b15801561070957600080fd5b505af115801561071d573d6000803e3d6000fd5b50506040516001600160a01b03851681527f3758a9cde202b40b236c1867c2734461fd598d835ad020bda26ca4f85838f2c492506020019050610427565b600354600090610773906001600160a01b0316610e3c565b90506000816001600160a01b031633868686604051602401610798949392919061190d565b60408051601f198184030181529181526020820180516001600160e01b031663747ae48760e11b179052516107cd919061159e565b6000604051808303816000865af19150503d806000811461080a576040519150601f19603f3d011682016040523d82523d6000602084013e61080f565b606091505b505090508061081d57600080fd5b60095460405163ede4973960e01b81523360048201526001600160a01b03848116602483015260606044830152600a60648301526944434e5453657269657360b01b60848301529091169063ede497399060a401600060405180830381600087803b15801561088b57600080fd5b505af115801561089f573d6000803e3d6000fd5b50506040516001600160a01b03851681527f1110b9d4e98ce9495365b594b3a8b9eba38d4c31da9dbacffb3c1f23ee40843792506020019050610427565b6108e5610ed6565b6108ef6000610f30565b565b600554600090610909906001600160a01b0316610e3c565b6040513360248201526001600160a01b03878116604483015286811660648301526084820186905260a4820185905291925060009183169060c40160408051601f198184030181529181526020820180516001600160e01b03166314d6c7d760e31b17905251610979919061159e565b6000604051808303816000865af19150503d80600081146109b6576040519150601f19603f3d011682016040523d82523d6000602084013e6109bb565b606091505b50509050806109c957600080fd5b6009805460405163ede4973960e01b81523360048201526001600160a01b038581166024830152606060448301526064820193909352681110d39515985d5b1d60ba1b608482015291169063ede497399060a401600060405180830381600087803b158015610a3757600080fd5b505af1158015610a4b573d6000803e3d6000fd5b50506040516001600160a01b03851681527ff12b488daa6140ffee78fe266c37addbbaea912b09ce36e613a17844dac4255b925060200190505b60405180910390a150949350505050565b600754600090610aae906001600160a01b0316610e3c565b6008546040519192506000916001600160a01b0380851692610ae09233928b928b928b92909116908a90602401611abc565b60408051601f198184030181529181526020820180516001600160e01b031663146d68a360e21b17905251610b15919061159e565b6000604051808303816000865af19150503d8060008114610b52576040519150601f19603f3d011682016040523d82523d6000602084013e610b57565b606091505b5050905080610b6557600080fd5b6009805460405163ede4973960e01b81523360048201526001600160a01b038581166024830152606060448301526064820193909352682d25a2b234ba34b7b760b91b608482015291169063ede497399060a401600060405180830381600087803b158015610bd357600080fd5b505af1158015610be7573d6000803e3d6000fd5b50506040516001600160a01b03851681527f49451ac6869c0fa590f484823265bd786e5c483c78431c2fc0cc2f7f939678e492506020019050610a85565b600654600090610c3d906001600160a01b0316610e3c565b6040513360248201526001600160a01b03878116604483015286811660648301526084820186905260a4820185905291925060009183169060c40160408051601f198184030181529181526020820180516001600160e01b03166314d6c7d760e31b17905251610cad919061159e565b6000604051808303816000865af19150503d8060008114610cea576040519150601f19603f3d011682016040523d82523d6000602084013e610cef565b606091505b5050905080610cfd57600080fd5b60095460405163ede4973960e01b81523360048201526001600160a01b03848116602483015260606044830152600b60648301526a44434e545374616b696e6760a81b60848301529091169063ede497399060a401600060405180830381600087803b158015610d6c57600080fd5b505af1158015610d80573d6000803e3d6000fd5b50506040516001600160a01b03851681527fe9eeb18af71a650338802cfcb86b39b211ed34fd8a37cacc5a16514a183e8d6692506020019050610a85565b610dc6610ed6565b6001600160a01b038116610e305760405162461bcd60e51b815260206004820152602660248201527f4f776e61626c653a206e6577206f776e657220697320746865207a65726f206160448201526564647265737360d01b60648201526084015b60405180910390fd5b610e3981610f30565b50565b6000763d602d80600a3d3981f3363d3d373d3d3d363d730000008260601b60e81c176000526e5af43d82803e903d91602b57fd5bf38260781b17602052603760096000f090506001600160a01b038116610ed15760405162461bcd60e51b8152602060048201526016602482015275115490cc4c4d8dce8818dc99585d194819985a5b195960521b6044820152606401610e27565b919050565b6000546001600160a01b031633146108ef5760405162461bcd60e51b815260206004820181905260248201527f4f776e61626c653a2063616c6c6572206973206e6f7420746865206f776e65726044820152606401610e27565b600080546001600160a01b038381166001600160a01b0319831681178455604051919092169283917f8be0079c531659141344cd1fd0a4f28419497f9722a3daafe3b4186f6b6457e09190a35050565b60006101e08284031215610f9357600080fd5b50919050565b600060808284031215610f9357600080fd5b600060608284031215610f9357600080fd5b600080600060a08486031215610fd257600080fd5b833567ffffffffffffffff80821115610fea57600080fd5b610ff687838801610f80565b9450602086013591508082111561100c57600080fd5b5061101986828701610f99565b9250506110298560408601610fab565b90509250925092565b6000806040838503121561104557600080fd5b823567ffffffffffffffff8082111561105d57600080fd5b90840190610140828703121561107257600080fd5b9092506020840135908082111561108857600080fd5b5061109585828601610f99565b9150509250929050565b60008060008385036101a08112156110b657600080fd5b843567ffffffffffffffff808211156110ce57600080fd5b818701915061018080838a0312156110e557600080fd5b829650610160601f19850112156110fb57600080fd5b60208801955087013592508083111561111357600080fd5b505061112186828701610f99565b9150509250925092565b80356001600160a01b0381168114610ed157600080fd5b6000806000806080858703121561115857600080fd5b6111618561112b565b935061116f6020860161112b565b93969395505050506040820135916060013590565b60008060008060c0858703121561119a57600080fd5b843567ffffffffffffffff808211156111b257600080fd5b6111be88838901610f80565b955060208701359150808211156111d457600080fd5b506111e187828801610f99565b9350506111f18660408701610fab565b91506111ff60a0860161112b565b905092959194509250565b60006020828403121561121c57600080fd5b6112258261112b565b9392505050565b6000808335601e1984360301811261124357600080fd5b830160208101925035905067ffffffffffffffff81111561126357600080fd5b80360382131561127257600080fd5b9250929050565b81835281816020850137506000828201602090810191909152601f909101601f19169091010190565b80358015158114610ed157600080fd5b803563ffffffff81168114610ed157600080fd5b803561ffff81168114610ed157600080fd5b80356001600160601b0381168114610ed157600080fd5b60006101e06112fe838461122c565b82865261130e8387018284611279565b9250505061131f602084018461122c565b8583036020870152611332838284611279565b92505050611342604084016112a2565b15156040850152611355606084016112a2565b15156060850152611368608084016112b2565b63ffffffff16608085015261137f60a084016112b2565b63ffffffff1660a085015261139660c084016112b2565b63ffffffff1660c08501526113ad60e084016112b2565b63ffffffff1660e08501526101006113c68482016112b2565b63ffffffff16908501526101206113de8482016112b2565b63ffffffff16908501526101406113f68482016112c6565b61ffff169085015261016061140c8482016112d8565b6001600160601b03169085015261018061142784820161112b565b6001600160a01b0316908501526101a061144284820161112b565b6001600160a01b0316908501526101c09283013592909301919091525090565b600061146e828361122c565b60808552611480608086018284611279565b915050611490602084018461122c565b85830360208701526114a3838284611279565b925050506114b4604084018461122c565b85830360408701526114c7838284611279565b92506001600160a01b0391506114e190506060850161112b565b1660608501528091505092915050565b6001600160a01b036115028261112b565b16825260208101356affffffffffffffffffffff811680821461152457600080fd5b60208401525060408101356003811061153c57600080fd5b806040840152505050565b600060018060a01b03808816835260e0602084015261156960e08401886112ef565b838103604085015261157b8188611462565b92505061158b60608401866114f1565b80841660c0840152509695505050505050565b6000825160005b818110156115bf57602081860181015185830152016115a5565b506000920191825250919050565b6001600160a01b03851681526080602082015260006115ec858061122c565b6101408060808601526116046101c086018385611279565b9250611613602089018961122c565b868503607f190160a0880152925061162c848483611279565b935050604088013560c0860152606088013560e0860152610100915060808801358286015261012060a08901358187015260c08901358287015260e089013561016087015282890135610180870152808901356101a0870152505050828103604084015261169a8186611462565b9150506116b260608301846001600160a01b03169052565b95945050505050565b80356001600160801b0381168114610ed157600080fd5b63ffffffff806116e1836112b2565b168352806116f1602084016112b2565b16602084015280611704604084016112b2565b16604084015280611717606084016112b2565b1660608401525061172a608082016112b2565b63ffffffff16608083015261174160a082016112b2565b63ffffffff1660a083015261175860c082016112d8565b6001600160601b031660c083015260e081810135908301526101006117818184018284016114f1565b505050565b6000808335601e1984360301811261179d57600080fd5b830160208101925035905067ffffffffffffffff8111156117bd57600080fd5b8060051b360382131561127257600080fd5b81835260006001600160fb1b038311156117e857600080fd5b8260051b80836020870137939093016020019392505050565b81835260208301925060008160005b848110156118365761182286836116d2565b610160958601959190910190600101611810565b5093949350505050565b600061184c8283611786565b6080855261185e6080860182846117cf565b91505061186e6020840184611786565b85830360208701526118818382846117cf565b925050506118926040840184611786565b85830360408701526118a58382846117cf565b925050506060830135601e198436030181126118c057600080fd5b830160208101903567ffffffffffffffff8111156118dd57600080fd5b610160810236038213156118f057600080fd5b8583036060870152611903838284611801565b9695505050505050565b6001600160a01b03851681526101c060208201819052600090611930868061122c565b6101808386015261194661034086018284611279565b92505050611957602087018761122c565b6101bf1980868503016101e0870152611971848385611279565b935061198060408a018a61122c565b93509150808685030161020087015261199a848484611279565b93506119a960608a018a61122c565b935091508086850301610220870152506119c4838383611279565b925050506119d4608087016116bb565b6001600160801b03166102408401526119ef60a087016116bb565b6001600160801b0316610260840152611a0a60c087016112c6565b61ffff16610280840152611a2060e0870161112b565b6001600160a01b03166102a0840152611a3c610100870161112b565b6001600160a01b03166102c0840152611a58610120870161112b565b6001600160a01b03166102e0840152611a7461014087016112a2565b1515610300840152611a8961016087016112a2565b1515610320840152611a9e60408401866116d2565b8281036101a0840152611ab18185611840565b979650505050505050565b6001600160a01b03878116825261010060208301819052600091611ae28483018a6112ef565b91508382036040850152611af68289611462565b9250611b0560608501886114f1565b80861660c085015280851660e0850152505097965050505050505056fea26469706673582212207de67640329659b524f5ea419f4e250d6c9cd38b92897fa16dbab69fd065b27a64736f6c63430008110033",
  "linkReferences": {},
  "deployedLinkReferences": {}
}