{
  "_format": "hh-sol-artifact-1",
  "contractName": "DCNT4907A",
  "sourceName": "contracts/DCNT4907A.sol",
  "abi": [
    {
      "inputs": [],
      "name": "ApprovalCallerNotOwnerNorApproved",
      "type": "error"
    },
    {
      "inputs": [],
      "name": "ApprovalQueryForNonexistentToken",
      "type": "error"
    },
    {
      "inputs": [],
      "name": "ApproveToCaller",
      "type": "error"
    },
    {
      "inputs": [],
      "name": "BalanceQueryForZeroAddress",
      "type": "error"
    },
    {
      "inputs": [],
      "name": "MintERC2309QuantityExceedsLimit",
      "type": "error"
    },
    {
      "inputs": [],
      "name": "MintToZeroAddress",
      "type": "error"
    },
    {
      "inputs": [],
      "name": "MintZeroQuantity",
      "type": "error"
    },
    {
      "inputs": [
        {
          "internalType": "address",
          "name": "operator",
          "type": "address"
        }
      ],
      "name": "OperatorNotAllowed",
      "type": "error"
    },
    {
      "inputs": [],
      "name": "OwnerQueryForNonexistentToken",
      "type": "error"
    },
    {
      "inputs": [],
      "name": "OwnershipNotInitializedForExtraData",
      "type": "error"
    },
    {
      "inputs": [],
      "name": "SetUserCallerNotOwnerNorApproved",
      "type": "error"
    },
    {
      "inputs": [],
      "name": "TransferCallerNotOwnerNorApproved",
      "type": "error"
    },
    {
      "inputs": [],
      "name": "TransferFromIncorrectOwner",
      "type": "error"
    },
    {
      "inputs": [],
      "name": "TransferToNonERC721ReceiverImplementer",
      "type": "error"
    },
    {
      "inputs": [],
      "name": "TransferToZeroAddress",
      "type": "error"
    },
    {
      "inputs": [],
      "name": "URIQueryForNonexistentToken",
      "type": "error"
    },
    {
      "anonymous": false,
      "inputs": [
        {
          "indexed": true,
          "internalType": "address",
          "name": "owner",
          "type": "address"
        },
        {
          "indexed": true,
          "internalType": "address",
          "name": "approved",
          "type": "address"
        },
        {
          "indexed": true,
          "internalType": "uint256",
          "name": "tokenId",
          "type": "uint256"
        }
      ],
      "name": "Approval",
      "type": "event"
    },
    {
      "anonymous": false,
      "inputs": [
        {
          "indexed": true,
          "internalType": "address",
          "name": "owner",
          "type": "address"
        },
        {
          "indexed": true,
          "internalType": "address",
          "name": "operator",
          "type": "address"
        },
        {
          "indexed": false,
          "internalType": "bool",
          "name": "approved",
          "type": "bool"
        }
      ],
      "name": "ApprovalForAll",
      "type": "event"
    },
    {
      "anonymous": false,
      "inputs": [
        {
          "indexed": true,
          "internalType": "uint256",
          "name": "fromTokenId",
          "type": "uint256"
        },
        {
          "indexed": false,
          "internalType": "uint256",
          "name": "toTokenId",
          "type": "uint256"
        },
        {
          "indexed": true,
          "internalType": "address",
          "name": "from",
          "type": "address"
        },
        {
          "indexed": true,
          "internalType": "address",
          "name": "to",
          "type": "address"
        }
      ],
      "name": "ConsecutiveTransfer",
      "type": "event"
    },
    {
      "anonymous": false,
      "inputs": [
        {
          "indexed": false,
          "internalType": "uint8",
          "name": "version",
          "type": "uint8"
        }
      ],
      "name": "Initialized",
      "type": "event"
    },
    {
      "anonymous": false,
      "inputs": [
        {
          "indexed": false,
          "internalType": "address",
          "name": "sender",
          "type": "address"
        },
        {
          "indexed": false,
          "internalType": "uint256",
          "name": "tokenId_",
          "type": "uint256"
        }
      ],
      "name": "Minted",
      "type": "event"
    },
    {
      "anonymous": false,
      "inputs": [
        {
          "indexed": true,
          "internalType": "address",
          "name": "previousOwner",
          "type": "address"
        },
        {
          "indexed": true,
          "internalType": "address",
          "name": "newOwner",
          "type": "address"
        }
      ],
      "name": "OwnershipTransferred",
      "type": "event"
    },
    {
      "anonymous": false,
      "inputs": [
        {
          "indexed": true,
          "internalType": "address",
          "name": "from",
          "type": "address"
        },
        {
          "indexed": true,
          "internalType": "address",
          "name": "to",
          "type": "address"
        },
        {
          "indexed": true,
          "internalType": "uint256",
          "name": "tokenId",
          "type": "uint256"
        }
      ],
      "name": "Transfer",
      "type": "event"
    },
    {
      "anonymous": false,
      "inputs": [
        {
          "indexed": true,
          "internalType": "uint256",
          "name": "tokenId",
          "type": "uint256"
        },
        {
          "indexed": true,
          "internalType": "address",
          "name": "user",
          "type": "address"
        },
        {
          "indexed": false,
          "internalType": "uint64",
          "name": "expires",
          "type": "uint64"
        }
      ],
      "name": "UpdateUser",
      "type": "event"
    },
    {
      "inputs": [],
      "name": "MAX_TOKENS",
      "outputs": [
        {
          "internalType": "uint256",
          "name": "",
          "type": "uint256"
        }
      ],
      "stateMutability": "view",
      "type": "function"
    },
    {
      "inputs": [
        {
          "internalType": "uint256",
          "name": "newCap",
          "type": "uint256"
        }
      ],
      "name": "adjustCap",
      "outputs": [],
      "stateMutability": "nonpayable",
      "type": "function"
    },
    {
      "inputs": [
        {
          "internalType": "address",
          "name": "operator",
          "type": "address"
        },
        {
          "internalType": "uint256",
          "name": "tokenId",
          "type": "uint256"
        }
      ],
      "name": "approve",
      "outputs": [],
      "stateMutability": "nonpayable",
      "type": "function"
    },
    {
      "inputs": [
        {
          "internalType": "address",
          "name": "owner",
          "type": "address"
        }
      ],
      "name": "balanceOf",
      "outputs": [
        {
          "internalType": "uint256",
          "name": "",
          "type": "uint256"
        }
      ],
      "stateMutability": "view",
      "type": "function"
    },
    {
      "inputs": [],
      "name": "baseURI",
      "outputs": [
        {
          "internalType": "string",
          "name": "",
          "type": "string"
        }
      ],
      "stateMutability": "view",
      "type": "function"
    },
    {
      "inputs": [],
      "name": "contractURI",
      "outputs": [
        {
          "internalType": "string",
          "name": "",
          "type": "string"
        }
      ],
      "stateMutability": "view",
      "type": "function"
    },
    {
      "inputs": [
        {
          "internalType": "address[]",
          "name": "accounts",
          "type": "address[]"
        },
        {
          "internalType": "uint32[]",
          "name": "percentAllocations",
          "type": "uint32[]"
        },
        {
          "internalType": "uint32",
          "name": "distributorFee",
          "type": "uint32"
        }
      ],
      "name": "createSplit",
      "outputs": [],
      "stateMutability": "nonpayable",
      "type": "function"
    },
    {
      "inputs": [
        {
          "internalType": "address",
          "name": "account",
          "type": "address"
        },
        {
          "internalType": "uint256",
          "name": "withdrawETH",
          "type": "uint256"
        },
        {
          "internalType": "contract ERC20[]",
          "name": "tokens",
          "type": "address[]"
        },
        {
          "internalType": "address[]",
          "name": "accounts",
          "type": "address[]"
        },
        {
          "internalType": "uint32[]",
          "name": "percentAllocations",
          "type": "uint32[]"
        },
        {
          "internalType": "uint32",
          "name": "distributorFee",
          "type": "uint32"
        },
        {
          "internalType": "address",
          "name": "distributorAddress",
          "type": "address"
        }
      ],
      "name": "distributeAndWithdraw",
      "outputs": [],
      "stateMutability": "nonpayable",
      "type": "function"
    },
    {
      "inputs": [
        {
          "internalType": "contract ERC20",
          "name": "token",
          "type": "address"
        },
        {
          "internalType": "address[]",
          "name": "accounts",
          "type": "address[]"
        },
        {
          "internalType": "uint32[]",
          "name": "percentAllocations",
          "type": "uint32[]"
        },
        {
          "internalType": "uint32",
          "name": "distributorFee",
          "type": "uint32"
        },
        {
          "internalType": "address",
          "name": "distributorAddress",
          "type": "address"
        }
      ],
      "name": "distributeERC20",
      "outputs": [],
      "stateMutability": "nonpayable",
      "type": "function"
    },
    {
      "inputs": [
        {
          "internalType": "address[]",
          "name": "accounts",
          "type": "address[]"
        },
        {
          "internalType": "uint32[]",
          "name": "percentAllocations",
          "type": "uint32[]"
        },
        {
          "internalType": "uint32",
          "name": "distributorFee",
          "type": "uint32"
        },
        {
          "internalType": "address",
          "name": "distributorAddress",
          "type": "address"
        }
      ],
      "name": "distributeETH",
      "outputs": [],
      "stateMutability": "nonpayable",
      "type": "function"
    },
    {
      "inputs": [],
      "name": "flipSaleState",
      "outputs": [],
      "stateMutability": "nonpayable",
      "type": "function"
    },
    {
      "inputs": [
        {
          "internalType": "uint256",
          "name": "tokenId",
          "type": "uint256"
        }
      ],
      "name": "getApproved",
      "outputs": [
        {
          "internalType": "address",
          "name": "",
          "type": "address"
        }
      ],
      "stateMutability": "view",
      "type": "function"
    },
    {
      "inputs": [],
      "name": "hasAdjustableCap",
      "outputs": [
        {
          "internalType": "bool",
          "name": "",
          "type": "bool"
        }
      ],
      "stateMutability": "view",
      "type": "function"
    },
    {
      "inputs": [
        {
          "internalType": "address",
          "name": "_owner",
          "type": "address"
        },
        {
          "components": [
            {
              "internalType": "string",
              "name": "name",
              "type": "string"
            },
            {
              "internalType": "string",
              "name": "symbol",
              "type": "string"
            },
            {
              "internalType": "bool",
              "name": "hasAdjustableCap",
              "type": "bool"
            },
            {
              "internalType": "uint256",
              "name": "maxTokens",
              "type": "uint256"
            },
            {
              "internalType": "uint256",
              "name": "tokenPrice",
              "type": "uint256"
            },
            {
              "internalType": "uint256",
              "name": "maxTokenPurchase",
              "type": "uint256"
            },
            {
              "internalType": "bytes32",
              "name": "presaleMerkleRoot",
              "type": "bytes32"
            },
            {
              "internalType": "uint256",
              "name": "presaleStart",
              "type": "uint256"
            },
            {
              "internalType": "uint256",
              "name": "presaleEnd",
              "type": "uint256"
            },
            {
              "internalType": "uint256",
              "name": "saleStart",
              "type": "uint256"
            },
            {
              "internalType": "uint256",
              "name": "saleEnd",
              "type": "uint256"
            },
            {
              "internalType": "uint256",
              "name": "royaltyBPS",
              "type": "uint256"
            }
          ],
          "internalType": "struct EditionConfig",
          "name": "_editionConfig",
          "type": "tuple"
        },
        {
          "components": [
            {
              "internalType": "string",
              "name": "contractURI",
              "type": "string"
            },
            {
              "internalType": "string",
              "name": "metadataURI",
              "type": "string"
            },
            {
              "internalType": "bytes",
              "name": "metadataRendererInit",
              "type": "bytes"
            },
            {
              "internalType": "address",
              "name": "parentIP",
              "type": "address"
            }
          ],
          "internalType": "struct MetadataConfig",
          "name": "_metadataConfig",
          "type": "tuple"
        },
        {
          "components": [
            {
              "internalType": "address",
              "name": "tokenAddress",
              "type": "address"
            },
            {
              "internalType": "uint88",
              "name": "minBalance",
              "type": "uint88"
            },
            {
              "internalType": "enum SaleType",
              "name": "saleType",
              "type": "uint8"
            }
          ],
          "internalType": "struct TokenGateConfig",
          "name": "_tokenGateConfig",
          "type": "tuple"
        },
        {
          "internalType": "address",
          "name": "_metadataRenderer",
          "type": "address"
        },
        {
          "internalType": "address",
          "name": "_splitMain",
          "type": "address"
        }
      ],
      "name": "initialize",
      "outputs": [],
      "stateMutability": "nonpayable",
      "type": "function"
    },
    {
      "inputs": [
        {
          "internalType": "address",
          "name": "owner",
          "type": "address"
        },
        {
          "internalType": "address",
          "name": "operator",
          "type": "address"
        }
      ],
      "name": "isApprovedForAll",
      "outputs": [
        {
          "internalType": "bool",
          "name": "",
          "type": "bool"
        }
      ],
      "stateMutability": "view",
      "type": "function"
    },
    {
      "inputs": [],
      "name": "maxTokenPurchase",
      "outputs": [
        {
          "internalType": "uint256",
          "name": "",
          "type": "uint256"
        }
      ],
      "stateMutability": "view",
      "type": "function"
    },
    {
      "inputs": [],
      "name": "metadataRenderer",
      "outputs": [
        {
          "internalType": "address",
          "name": "",
          "type": "address"
        }
      ],
      "stateMutability": "view",
      "type": "function"
    },
    {
      "inputs": [
        {
          "internalType": "uint256",
          "name": "numberOfTokens",
          "type": "uint256"
        }
      ],
      "name": "mint",
      "outputs": [],
      "stateMutability": "payable",
      "type": "function"
    },
    {
      "inputs": [
        {
          "internalType": "address[]",
          "name": "recipients",
          "type": "address[]"
        }
      ],
      "name": "mintAirdrop",
      "outputs": [],
      "stateMutability": "nonpayable",
      "type": "function"
    },
    {
      "inputs": [
        {
          "internalType": "uint256",
          "name": "quantity",
          "type": "uint256"
        },
        {
          "internalType": "uint256",
          "name": "maxQuantity",
          "type": "uint256"
        },
        {
          "internalType": "uint256",
          "name": "pricePerToken",
          "type": "uint256"
        },
        {
          "internalType": "bytes32[]",
          "name": "merkleProof",
          "type": "bytes32[]"
        }
      ],
      "name": "mintPresale",
      "outputs": [],
      "stateMutability": "payable",
      "type": "function"
    },
    {
      "inputs": [],
      "name": "name",
      "outputs": [
        {
          "internalType": "string",
          "name": "",
          "type": "string"
        }
      ],
      "stateMutability": "view",
      "type": "function"
    },
    {
      "inputs": [],
      "name": "operatorFilterRegistry",
      "outputs": [
        {
          "internalType": "contract IOperatorFilterRegistry",
          "name": "",
          "type": "address"
        }
      ],
      "stateMutability": "view",
      "type": "function"
    },
    {
      "inputs": [],
      "name": "owner",
      "outputs": [
        {
          "internalType": "address",
          "name": "",
          "type": "address"
        }
      ],
      "stateMutability": "view",
      "type": "function"
    },
    {
      "inputs": [
        {
          "internalType": "uint256",
          "name": "tokenId",
          "type": "uint256"
        }
      ],
      "name": "ownerOf",
      "outputs": [
        {
          "internalType": "address",
          "name": "",
          "type": "address"
        }
      ],
      "stateMutability": "view",
      "type": "function"
    },
    {
      "inputs": [],
      "name": "parentIP",
      "outputs": [
        {
          "internalType": "address",
          "name": "",
          "type": "address"
        }
      ],
      "stateMutability": "view",
      "type": "function"
    },
    {
      "inputs": [],
      "name": "presaleEnd",
      "outputs": [
        {
          "internalType": "uint256",
          "name": "",
          "type": "uint256"
        }
      ],
      "stateMutability": "view",
      "type": "function"
    },
    {
      "inputs": [],
      "name": "presaleStart",
      "outputs": [
        {
          "internalType": "uint256",
          "name": "",
          "type": "uint256"
        }
      ],
      "stateMutability": "view",
      "type": "function"
    },
    {
      "inputs": [],
      "name": "renounceOwnership",
      "outputs": [],
      "stateMutability": "nonpayable",
      "type": "function"
    },
    {
      "inputs": [
        {
          "internalType": "uint256",
          "name": "numReserved",
          "type": "uint256"
        }
      ],
      "name": "reserveDCNT",
      "outputs": [],
      "stateMutability": "nonpayable",
      "type": "function"
    },
    {
      "inputs": [],
      "name": "royaltyBPS",
      "outputs": [
        {
          "internalType": "uint256",
          "name": "",
          "type": "uint256"
        }
      ],
      "stateMutability": "view",
      "type": "function"
    },
    {
      "inputs": [
        {
          "internalType": "uint256",
          "name": "tokenId",
          "type": "uint256"
        },
        {
          "internalType": "uint256",
          "name": "salePrice",
          "type": "uint256"
        }
      ],
      "name": "royaltyInfo",
      "outputs": [
        {
          "internalType": "address",
          "name": "receiver",
          "type": "address"
        },
        {
          "internalType": "uint256",
          "name": "royaltyAmount",
          "type": "uint256"
        }
      ],
      "stateMutability": "view",
      "type": "function"
    },
    {
      "inputs": [
        {
          "internalType": "address",
          "name": "from",
          "type": "address"
        },
        {
          "internalType": "address",
          "name": "to",
          "type": "address"
        },
        {
          "internalType": "uint256",
          "name": "tokenId",
          "type": "uint256"
        }
      ],
      "name": "safeTransferFrom",
      "outputs": [],
      "stateMutability": "nonpayable",
      "type": "function"
    },
    {
      "inputs": [
        {
          "internalType": "address",
          "name": "from",
          "type": "address"
        },
        {
          "internalType": "address",
          "name": "to",
          "type": "address"
        },
        {
          "internalType": "uint256",
          "name": "tokenId",
          "type": "uint256"
        },
        {
          "internalType": "bytes",
          "name": "_data",
          "type": "bytes"
        }
      ],
      "name": "safeTransferFrom",
      "outputs": [],
      "stateMutability": "nonpayable",
      "type": "function"
    },
    {
      "inputs": [],
      "name": "saleEnd",
      "outputs": [
        {
          "internalType": "uint256",
          "name": "",
          "type": "uint256"
        }
      ],
      "stateMutability": "view",
      "type": "function"
    },
    {
      "inputs": [],
      "name": "saleIsActive",
      "outputs": [
        {
          "internalType": "bool",
          "name": "_saleIsActive",
          "type": "bool"
        }
      ],
      "stateMutability": "view",
      "type": "function"
    },
    {
      "inputs": [],
      "name": "saleIsPaused",
      "outputs": [
        {
          "internalType": "bool",
          "name": "",
          "type": "bool"
        }
      ],
      "stateMutability": "view",
      "type": "function"
    },
    {
      "inputs": [],
      "name": "saleStart",
      "outputs": [
        {
          "internalType": "uint256",
          "name": "",
          "type": "uint256"
        }
      ],
      "stateMutability": "view",
      "type": "function"
    },
    {
      "inputs": [
        {
          "internalType": "address",
          "name": "operator",
          "type": "address"
        },
        {
          "internalType": "bool",
          "name": "approved",
          "type": "bool"
        }
      ],
      "name": "setApprovalForAll",
      "outputs": [],
      "stateMutability": "nonpayable",
      "type": "function"
    },
    {
      "inputs": [
        {
          "internalType": "string",
          "name": "uri",
          "type": "string"
        }
      ],
      "name": "setBaseURI",
      "outputs": [],
      "stateMutability": "nonpayable",
      "type": "function"
    },
    {
      "inputs": [
        {
          "internalType": "string",
          "name": "uri",
          "type": "string"
        }
      ],
      "name": "setContractURI",
      "outputs": [],
      "stateMutability": "nonpayable",
      "type": "function"
    },
    {
      "inputs": [
        {
          "internalType": "address",
          "name": "_metadataRenderer",
          "type": "address"
        }
      ],
      "name": "setMetadataRenderer",
      "outputs": [],
      "stateMutability": "nonpayable",
      "type": "function"
    },
    {
      "inputs": [
        {
          "internalType": "bytes32",
          "name": "_presaleMerkleRoot",
          "type": "bytes32"
        }
      ],
      "name": "setPresaleMerkleRoot",
      "outputs": [],
      "stateMutability": "nonpayable",
      "type": "function"
    },
    {
      "inputs": [
        {
          "internalType": "uint256",
          "name": "tokenId",
          "type": "uint256"
        },
        {
          "internalType": "address",
          "name": "user",
          "type": "address"
        },
        {
          "internalType": "uint64",
          "name": "expires",
          "type": "uint64"
        }
      ],
      "name": "setUser",
      "outputs": [],
      "stateMutability": "nonpayable",
      "type": "function"
    },
    {
      "inputs": [],
      "name": "splitMain",
      "outputs": [
        {
          "internalType": "address",
          "name": "",
          "type": "address"
        }
      ],
      "stateMutability": "view",
      "type": "function"
    },
    {
      "inputs": [],
      "name": "splitWallet",
      "outputs": [
        {
          "internalType": "address",
          "name": "",
          "type": "address"
        }
      ],
      "stateMutability": "view",
      "type": "function"
    },
    {
      "inputs": [
        {
          "internalType": "bytes4",
          "name": "interfaceId",
          "type": "bytes4"
        }
      ],
      "name": "supportsInterface",
      "outputs": [
        {
          "internalType": "bool",
          "name": "",
          "type": "bool"
        }
      ],
      "stateMutability": "view",
      "type": "function"
    },
    {
      "inputs": [],
      "name": "symbol",
      "outputs": [
        {
          "internalType": "string",
          "name": "",
          "type": "string"
        }
      ],
      "stateMutability": "view",
      "type": "function"
    },
    {
      "inputs": [],
      "name": "tokenGateConfig",
      "outputs": [
        {
          "internalType": "address",
          "name": "tokenAddress",
          "type": "address"
        },
        {
          "internalType": "uint88",
          "name": "minBalance",
          "type": "uint88"
        },
        {
          "internalType": "enum SaleType",
          "name": "saleType",
          "type": "uint8"
        }
      ],
      "stateMutability": "view",
      "type": "function"
    },
    {
      "inputs": [],
      "name": "tokenPrice",
      "outputs": [
        {
          "internalType": "uint256",
          "name": "",
          "type": "uint256"
        }
      ],
      "stateMutability": "view",
      "type": "function"
    },
    {
      "inputs": [
        {
          "internalType": "uint256",
          "name": "tokenId",
          "type": "uint256"
        }
      ],
      "name": "tokenURI",
      "outputs": [
        {
          "internalType": "string",
          "name": "",
          "type": "string"
        }
      ],
      "stateMutability": "view",
      "type": "function"
    },
    {
      "inputs": [],
      "name": "totalSupply",
      "outputs": [
        {
          "internalType": "uint256",
          "name": "",
          "type": "uint256"
        }
      ],
      "stateMutability": "view",
      "type": "function"
    },
    {
      "inputs": [
        {
          "internalType": "address",
          "name": "from",
          "type": "address"
        },
        {
          "internalType": "address",
          "name": "to",
          "type": "address"
        },
        {
          "internalType": "uint256",
          "name": "tokenId",
          "type": "uint256"
        }
      ],
      "name": "transferFrom",
      "outputs": [],
      "stateMutability": "nonpayable",
      "type": "function"
    },
    {
      "inputs": [
        {
          "internalType": "address",
          "name": "newOwner",
          "type": "address"
        }
      ],
      "name": "transferOwnership",
      "outputs": [],
      "stateMutability": "nonpayable",
      "type": "function"
    },
    {
      "inputs": [
        {
          "internalType": "uint256",
          "name": "transferETH",
          "type": "uint256"
        },
        {
          "internalType": "contract ERC20[]",
          "name": "tokens",
          "type": "address[]"
        }
      ],
      "name": "transferToSplit",
      "outputs": [],
      "stateMutability": "nonpayable",
      "type": "function"
    },
    {
      "inputs": [
        {
          "internalType": "bool",
          "name": "enable",
          "type": "bool"
        },
        {
          "internalType": "address",
          "name": "operatorFilter",
          "type": "address"
        }
      ],
      "name": "updateOperatorFilter",
      "outputs": [],
      "stateMutability": "nonpayable",
      "type": "function"
    },
    {
      "inputs": [
        {
          "internalType": "uint256",
          "name": "newStart",
          "type": "uint256"
        },
        {
          "internalType": "uint256",
          "name": "newEnd",
          "type": "uint256"
        }
      ],
      "name": "updatePresaleStartEnd",
      "outputs": [],
      "stateMutability": "nonpayable",
      "type": "function"
    },
    {
      "inputs": [
        {
          "internalType": "uint256",
          "name": "newStart",
          "type": "uint256"
        },
        {
          "internalType": "uint256",
          "name": "newEnd",
          "type": "uint256"
        }
      ],
      "name": "updateSaleStartEnd",
      "outputs": [],
      "stateMutability": "nonpayable",
      "type": "function"
    },
    {
      "inputs": [
        {
          "internalType": "uint256",
          "name": "tokenId",
          "type": "uint256"
        }
      ],
      "name": "userExpires",
      "outputs": [
        {
          "internalType": "uint256",
          "name": "",
          "type": "uint256"
        }
      ],
      "stateMutability": "view",
      "type": "function"
    },
    {
      "inputs": [
        {
          "internalType": "uint256",
          "name": "tokenId",
          "type": "uint256"
        }
      ],
      "name": "userOf",
      "outputs": [
        {
          "internalType": "address",
          "name": "",
          "type": "address"
        }
      ],
      "stateMutability": "view",
      "type": "function"
    },
    {
      "inputs": [],
      "name": "withdraw",
      "outputs": [],
      "stateMutability": "nonpayable",
      "type": "function"
    }
  ],
  "bytecode": "0x60806040523480156200001157600080fd5b506200001d3362000023565b6200007f565b600980546001600160a01b038381166201000081810262010000600160b01b031985161790945560405193909204169182907f8be0079c531659141344cd1fd0a4f28419497f9722a3daafe3b4186f6b6457e090600090a35050565b614260806200008f6000396000f3fe6080604052600436106103965760003560e01c806379ab7c8e116101dc578063c4559d5a11610102578063e6c350c1116100a0578063f0cc8b621161006f578063f0cc8b6214610a96578063f2fde38b14610ab6578063f47c84c514610ad6578063fd4fe8a814610aec57600080fd5b8063e6c350c114610a32578063e8a3d48514610a4c578063e985e9c514610a61578063eb8d244414610a8157600080fd5b8063c9ef5eee116100dc578063c9ef5eee146109bc578063d58d458a146109dc578063de8801e5146109fc578063e030565e14610a1257600080fd5b8063c4559d5a1461095c578063c59531701461097c578063c87b56dd1461099c57600080fd5b8063a0712d681161017a578063b88d4fde11610149578063b88d4fde146108dc578063b9c9d93a146108fc578063c10b935814610912578063c2f1f14a1461092857600080fd5b8063a0712d6814610871578063a22cb46514610884578063ab0bcc41146108a4578063b0ccc31e146108ba57600080fd5b80638fc88c48116101b65780638fc88c48146107eb578063931cf0f41461081b578063938e3d7b1461083c57806395d89b411461085c57600080fd5b806379ab7c8e146107915780637ff9b596146107b15780638da5cb5b146107c757600080fd5b80632a55205a116102c15780636352211e1161025f57806370a082311161022e57806370a0823114610729578063713b978714610749578063715018a614610769578063727a612e1461077e57600080fd5b80636352211e146106b45780636c0360eb146106d45780636c1951ae146106e9578063703199701461070957600080fd5b80633ccfd60b1161029b5780633ccfd60b1461063f57806342842e0e1461065457806355f804b3146106745780635799dbdd1461069457600080fd5b80632a55205a146105cb5780632d75fea61461060a57806334918dfd1461062a57600080fd5b80630e769b2b11610339578063229f3e2911610308578063229f3e291461055557806323b872dd1461056b578063284a44a81461058b57806328d7b276146105ab57600080fd5b80630e769b2b146104b057806317dc2587146104d057806318160ddd146104f05780631dbdedbd1461050957600080fd5b806306fdde031161037557806306fdde0314610412578063081812fc14610434578063095ea7b31461046c57806309aa3dcf1461048c57600080fd5b80625f16fb1461039b578063015893c5146103bd57806301ffc9a7146103dd575b600080fd5b3480156103a757600080fd5b506103bb6103b63660046131d5565b610b0c565b005b3480156103c957600080fd5b506103bb6103d836600461327c565b610be9565b3480156103e957600080fd5b506103fd6103f8366004613312565b610d63565b60405190151581526020015b60405180910390f35b34801561041e57600080fd5b50610427610d74565b604051610409919061337f565b34801561044057600080fd5b5061045461044f366004613392565b610e06565b6040516001600160a01b039091168152602001610409565b34801561047857600080fd5b506103bb6104873660046133ab565b610e4a565b34801561049857600080fd5b506104a2600c5481565b604051908152602001610409565b3480156104bc57600080fd5b50601754610454906001600160a01b031681565b3480156104dc57600080fd5b506103bb6104eb3660046133d7565b610e58565b3480156104fc57600080fd5b50600154600054036104a2565b34801561051557600080fd5b50600854610546906001600160a01b03811690600160a01b81046001600160581b031690600160f81b900460ff1683565b6040516104099392919061340f565b34801561056157600080fd5b506104a260155481565b34801561057757600080fd5b506103bb61058636600461345a565b610e6b565b34801561059757600080fd5b506103bb6105a6366004613592565b61100d565b3480156105b757600080fd5b506103bb6105c6366004613392565b6110b6565b3480156105d757600080fd5b506105eb6105e63660046133d7565b6110c3565b604080516001600160a01b039093168352602083019190915201610409565b34801561061657600080fd5b506103bb61062536600461367f565b611170565b34801561063657600080fd5b506103bb611378565b34801561064b57600080fd5b506103bb611394565b34801561066057600080fd5b506103bb61066f36600461345a565b6114a2565b34801561068057600080fd5b506103bb61068f366004613735565b6114bd565b3480156106a057600080fd5b506103bb6106af3660046133d7565b6114d1565b3480156106c057600080fd5b506104546106cf366004613392565b6114e4565b3480156106e057600080fd5b506104276114ef565b3480156106f557600080fd5b506103bb610704366004613392565b61157d565b34801561071557600080fd5b50601254610454906001600160a01b031681565b34801561073557600080fd5b506104a2610744366004613769565b6115ed565b34801561075557600080fd5b50601854610454906001600160a01b031681565b34801561077557600080fd5b506103bb61163b565b6103bb61078c366004613786565b61164f565b34801561079d57600080fd5b506103bb6107ac3660046137e6565b611a4b565b3480156107bd57600080fd5b506104a2600b5481565b3480156107d357600080fd5b506009546201000090046001600160a01b0316610454565b3480156107f757600080fd5b506104a2610806366004613392565b6000908152601a602052604090205460a01c90565b34801561082757600080fd5b506009546103fd90600160b01b900460ff1681565b34801561084857600080fd5b506103bb610857366004613735565b611ad1565b34801561086857600080fd5b50610427611ae5565b6103bb61087f366004613392565b611af4565b34801561089057600080fd5b506103bb61089f366004613822565b611e7e565b3480156108b057600080fd5b506104a2600d5481565b3480156108c657600080fd5b506104546daaeb6d7670e522a718067333cd4e81565b3480156108e857600080fd5b506103bb6108f7366004613850565b611e88565b34801561090857600080fd5b506104a260135481565b34801561091e57600080fd5b506104a2600e5481565b34801561093457600080fd5b50610454610943366004613392565b6000908152601a60205260409020544260a01b81110290565b34801561096857600080fd5b506103bb6109773660046138bb565b611ecc565b34801561098857600080fd5b506103bb61099736600461394e565b611f9c565b3480156109a857600080fd5b506104276109b7366004613392565b612090565b3480156109c857600080fd5b506103bb6109d7366004613ad6565b61209b565b3480156109e857600080fd5b506103bb6109f7366004613392565b61239d565b348015610a0857600080fd5b506104a260145481565b348015610a1e57600080fd5b506103bb610a2d366004613c47565b61245f565b348015610a3e57600080fd5b50600f546103fd9060ff1681565b348015610a5857600080fd5b5061042761252f565b348015610a6d57600080fd5b506103fd610a7c366004613c95565b6125cf565b348015610a8d57600080fd5b506103fd6125fd565b348015610aa257600080fd5b50601954610454906001600160a01b031681565b348015610ac257600080fd5b506103bb610ad1366004613769565b612625565b348015610ae257600080fd5b506104a2600a5481565b348015610af857600080fd5b506103bb610b07366004613769565b61269b565b6000610b206018546001600160a01b031690565b6001600160a01b031603610b4f5760405162461bcd60e51b8152600401610b4690613cb3565b60405180910390fd5b610b58876126c5565b6017546001600160a01b03166001600160a01b03166315811302610b846018546001600160a01b031690565b898989898989896040518963ffffffff1660e01b8152600401610bae989796959493929190613d64565b600060405180830381600087803b158015610bc857600080fd5b505af1158015610bdc573d6000803e3d6000fd5b5050505050505050505050565b610bf16127c4565b6000610c056017546001600160a01b031690565b6001600160a01b031603610c4f5760405162461bcd60e51b815260206004820152601160248201527014dc1b1a5d13585a5b881b9bdd081cd95d607a1b6044820152606401610b46565b6000610c636018546001600160a01b031690565b6001600160a01b031614610cb15760405162461bcd60e51b815260206004820152601560248201527414dc1b1a5d08185b1c9958591e4818dc99585d1959605a1b6044820152606401610b46565b6000610cc56017546001600160a01b031690565b6001600160a01b0316637601f7828787878787336040518763ffffffff1660e01b8152600401610cfa96959493929190613dc6565b6020604051808303816000875af1158015610d19573d6000803e3d6000fd5b505050506040513d601f19601f82011682018060405250810190610d3d9190613e17565b601880546001600160a01b0319166001600160a01b03831617905590505b505050505050565b6000610d6e82612825565b92915050565b606060028054610d8390613e34565b80601f0160208091040260200160405190810160405280929190818152602001828054610daf90613e34565b8015610dfc5780601f10610dd157610100808354040283529160200191610dfc565b820191906000526020600020905b815481529060010190602001808311610ddf57829003601f168201915b5050505050905090565b6000610e118261284d565b610e2e576040516333d1c03960e21b815260040160405180910390fd5b506000908152600660205260409020546001600160a01b031690565b610e548282612874565b5050565b610e606127c4565b600d91909155600e55565b6000610e7682612888565b9050836001600160a01b0316816001600160a01b031614610ea95760405162a1148160e81b815260040160405180910390fd5b60008281526006602052604090208054338082146001600160a01b03881690911417610ef657610ed986336125cf565b610ef657604051632ce44b5f60e11b815260040160405180910390fd5b6001600160a01b038516610f1d57604051633a954ecd60e21b815260040160405180910390fd5b610f2a86868660016128f6565b8015610f3557600082555b6001600160a01b038681166000908152600560205260408082208054600019019055918716808252919020805460010190554260a01b17600160e11b17600085815260046020526040812091909155600160e11b84169003610fc757600184016000818152600460205260408120549003610fc5576000548114610fc55760008181526004602052604090208490555b505b83856001600160a01b0316876001600160a01b03167fddf252ad1be2c89b69c2b068fc378daa952ba7f163c4a11628f55a4df523b3ef60405160405180910390a4610d5b565b60006110216018546001600160a01b031690565b6001600160a01b0316036110475760405162461bcd60e51b8152600401610b4690613cb3565b871561105b5761105b868686868686611ecc565b60005b875181101561109f5761108f88828151811061107c5761107c613e6e565b6020026020010151888888888888610b0c565b61109881613e9a565b905061105e565b506110ab898989612902565b505050505050505050565b6110be6127c4565b601655565b6000806110cf8461284d565b61110f5760405162461bcd60e51b81526020600482015260116024820152702737b732bc34b9ba32b73a103a37b5b2b760791b6044820152606401610b46565b6018546001600160a01b031615611133576018546001600160a01b03169150611148565b6009546201000090046001600160a01b031691505b60006127106013548561115b9190613eb3565b6111659190613eca565b9150505b9250929050565b6111786127c4565b60405163c3c5a54760e01b81523060048201819052906daaeb6d7670e522a718067333cd4e9063c3c5a547906024016020604051808303816000875af11580156111c6573d6000803e3d6000fd5b505050506040513d601f19601f820116820180604052508101906111ea9190613eec565b1580156111f45750825b1561126e57604051633e9f1edf60e11b81526001600160a01b038083166004830152831660248201526daaeb6d7670e522a718067333cd4e90637d3e3dbe906044015b600060405180830381600087803b15801561125157600080fd5b505af1158015611265573d6000803e3d6000fd5b50505050505050565b82156112b657604051632cc5350560e21b81526001600160a01b038083166004830152831660248201526daaeb6d7670e522a718067333cd4e9063b314d41490604401611237565b60405163034a0dc160e41b81526001600160a01b0382166004820152600060248201526daaeb6d7670e522a718067333cd4e906334a0dc1090604401600060405180830381600087803b15801561130c57600080fd5b505af1158015611320573d6000803e3d6000fd5b5050604051631761612360e11b81526001600160a01b03841660048201526daaeb6d7670e522a718067333cd4e9250632ec2c2469150602401600060405180830381600087803b15801561125157600080fd5b505050565b6113806127c4565b600f805460ff19811660ff90911615179055565b61139c6127c4565b60006113b06018546001600160a01b031690565b6001600160a01b0316146114125760405162461bcd60e51b8152602060048201526024808201527f43616e6e6f74207769746864726177207769746820616e2061637469766520736044820152631c1b1a5d60e21b6064820152608401610b46565b604051600090339047908381818185875af1925050503d8060008114611454576040519150601f19603f3d011682016040523d82523d6000602084013e611459565b606091505b505090508061149f5760405162461bcd60e51b8152602060048201526012602482015271436f756c64206e6f7420776974686472617760701b6044820152606401610b46565b50565b61137383838360405180602001604052806000815250611e88565b6114c56127c4565b6010610e548282613f4f565b6114d96127c4565b601491909155601555565b6000610d6e82612888565b601080546114fc90613e34565b80601f016020809104026020016040519081016040528092919081815260200182805461152890613e34565b80156115755780601f1061154a57610100808354040283529160200191611575565b820191906000526020600020905b81548152906001019060200180831161155857829003601f168201915b505050505081565b6115856127c4565b600054600a54611595838361400e565b106115b25760405162461bcd60e51b8152600401610b4690614021565b60005b82811015611373576115db336115cb838561400e565b6115d690600161400e565b612936565b806115e581613e9a565b9150506115b5565b60006001600160a01b038216611616576040516323d3ad8160e21b815260040160405180910390fd5b506001600160a01b03166000908152600560205260409020546001600160401b031690565b6116436127c4565b61164d6000612950565b565b6008546001906001600160a01b0316158015906116b857506000600854600160f81b900460ff166002811115611687576116876133f9565b14806116b857508080156116b857506001600854600160f81b900460ff1660028111156116b6576116b66133f9565b145b806116e95750801580156116e957506002600854600160f81b900460ff1660028111156116e7576116e76133f9565b145b156117b5576008546040516370a0823160e01b8152336004820152600160a01b82046001600160581b0316916001600160a01b0316906370a08231906024016020604051808303816000875af1158015611747573d6000803e3d6000fd5b505050506040513d601f19601f8201168201806040525081019061176b9190614056565b10156117b55760405162461bcd60e51b81526020600482015260196024820152783237903737ba1037bbb7103932b8bab4b932b2103a37b5b2b760391b6044820152606401610b46565b60145442101580156117c957506015544211155b6118035760405162461bcd60e51b815260206004820152600b60248201526a6e6f742070726573616c6560a81b6044820152606401610b46565b600054600f5460ff16156118595760405162461bcd60e51b815260206004820152601b60248201527f53616c65206d7573742062652061637469766520746f206d696e7400000000006044820152606401610b46565b600a54611866888361400e565b11156118845760405162461bcd60e51b8152600401610b4690614021565b611907848480806020026020016040519081016040528093929190818152602001838360200280828437600092019190915250506016546040516bffffffffffffffffffffffff193360601b166020820152603481018c9052605481018b90529092506074019050604051602081830303815290604052805190602001206129ac565b6119425760405162461bcd60e51b815260206004820152600c60248201526b1b9bdd08185c1c1c9bdd995960a21b6044820152606401610b46565b61194c8786613eb3565b3410156119905760405162461bcd60e51b8152602060048201526012602482015271496e73756666696369656e742066756e647360701b6044820152606401610b46565b858761199b336115ed565b6119a5919061400e565b11156119e55760405162461bcd60e51b815260206004820152600f60248201526e6d696e74656420746f6f206d616e7960881b6044820152606401610b46565b6119ef3388612936565b60005b87811015611a415760408051338152602081018490526001909301927f30385c845b448a36257a6a1716e6ad2e1bc2cbe333cde1e69fe849ad6511adfe910160405180910390a16001016119f2565b5050505050505050565b6000611a5f6018546001600160a01b031690565b6001600160a01b031603611a855760405162461bcd60e51b8152600401610b4690613cb3565b8115611a9357611a936129c2565b60005b815181101561137357611ac1828281518110611ab457611ab4613e6e565b60200260200101516126c5565b611aca81613e9a565b9050611a96565b611ad96127c4565b6011610e548282613f4f565b606060038054610d8390613e34565b6008546000906001600160a01b031615801590611b5d57506000600854600160f81b900460ff166002811115611b2c57611b2c6133f9565b1480611b5d5750808015611b5d57506001600854600160f81b900460ff166002811115611b5b57611b5b6133f9565b145b80611b8e575080158015611b8e57506002600854600160f81b900460ff166002811115611b8c57611b8c6133f9565b145b15611c5a576008546040516370a0823160e01b8152336004820152600160a01b82046001600160581b0316916001600160a01b0316906370a08231906024016020604051808303816000875af1158015611bec573d6000803e3d6000fd5b505050506040513d601f19601f82011682018060405250810190611c109190614056565b1015611c5a5760405162461bcd60e51b81526020600482015260196024820152783237903737ba1037bbb7103932b8bab4b932b2103a37b5b2b760391b6044820152606401610b46565b600054600d544210801590611c715750600e544211155b611cb55760405162461bcd60e51b815260206004820152601560248201527429b0b632b99030b932903737ba1030b1ba34bb329760591b6044820152606401610b46565b600f5460ff1615611d085760405162461bcd60e51b815260206004820152601b60248201527f53616c65206d7573742062652061637469766520746f206d696e7400000000006044820152606401610b46565b600a54611d15848361400e565b1115611d335760405162461bcd60e51b8152600401610b4690614021565b600a54811115611d705760405162461bcd60e51b815260206004820152600860248201526714d3d3110813d55560c21b6044820152606401610b46565b82600b54611d7e9190613eb3565b341015611dc25760405162461bcd60e51b8152602060048201526012602482015271496e73756666696369656e742066756e647360701b6044820152606401610b46565b600c5415611e1c57600c54831115611e1c5760405162461bcd60e51b815260206004820152601c60248201527f4578636565646564206d6178206e756d62657220706572206d696e74000000006044820152606401610b46565b611e263384612936565b60005b83811015611e785760408051338152602081018490526001909301927f30385c845b448a36257a6a1716e6ad2e1bc2cbe333cde1e69fe849ad6511adfe910160405180910390a1600101611e29565b50505050565b610e548282612a76565b611e93848484610e6b565b6001600160a01b0383163b15611e7857611eaf84848484612a8a565b611e78576040516368d2bf6b60e11b815260040160405180910390fd5b6000611ee06018546001600160a01b031690565b6001600160a01b031603611f065760405162461bcd60e51b8152600401610b4690613cb3565b611f0e6129c2565b6017546001600160a01b03166001600160a01b031663e61cb05e611f3a6018546001600160a01b031690565b8888888888886040518863ffffffff1660e01b8152600401611f62979695949392919061406f565b600060405180830381600087803b158015611f7c57600080fd5b505af1158015611f90573d6000803e3d6000fd5b50505050505050505050565b611fa46127c4565b600054600a548190611fb6848361400e565b1115611fd45760405162461bcd60e51b8152600401610b4690614021565b8183015b80831015612089576120138585848603818110611ff757611ff7613e6e565b905060200201602081019061200c9190613769565b6001612936565b7f30385c845b448a36257a6a1716e6ad2e1bc2cbe333cde1e69fe849ad6511adfe858584860381811061204857612048613e6e565b905060200201602081019061205d9190613769565b604080516001600160a01b039092168252602082018690520160405180910390a1600190920191611fd8565b5050505050565b6060610d6e82612b76565b600954610100900460ff16158080156120bb5750600954600160ff909116105b806120d55750303b1580156120d5575060095460ff166001145b6121385760405162461bcd60e51b815260206004820152602e60248201527f496e697469616c697a61626c653a20636f6e747261637420697320616c72656160448201526d191e481a5b9a5d1a585b1a5e995960921b6064820152608401610b46565b6009805460ff19166001179055801561215b576009805461ff0019166101001790555b61216487612950565b85516002906121739082613f4f565b5060208601516003906121869082613f4f565b5060008055606080870151600a556080870151600b5560a0870151600c55610120870151600d55610140870151600e5561016087015160135560408088015160098054911515600160b01b0260ff60b01b1990921691909117905590860151601980546001600160a01b039283166001600160a01b03199182161790915560178054868416921691909117905585516008805460208901516001600160581b0316600160a01b026001600160f81b031990911692909316919091179190911780825591860151869282906001600160f81b0316600160f81b836002811115612270576122706133f9565b0217905550505060c086015160165560e08601516014556101008601516015556001600160a01b038316158015906122ad57506000856040015151115b1561232b57601280546001600160a01b0319166001600160a01b03851690811790915560408681015190516342b53ffd60e11b815263856a7ffa916122f49160040161337f565b600060405180830381600087803b15801561230e57600080fd5b505af1158015612322573d6000803e3d6000fd5b5050505061234f565b845160119061233a9082613f4f565b50602085015160109061234d9082613f4f565b505b8015611265576009805461ff0019169055604051600181527f7f26b83ff96e1f2b6a682f133852f6798a09c465da95921460cefb38474024989060200160405180910390a150505050505050565b6123a56127c4565b600954600160b01b900460ff1661240c5760405162461bcd60e51b815260206004820152602560248201527f63616e6e6f742061646a7573742073697a65206f66207468697320636f6c6c6560448201526431ba34b7b760d91b6064820152608401610b46565b8061241660005490565b111561245a5760405162461bcd60e51b8152602060048201526013602482015272063616e6e6f742064656372656173652063617606c1b6044820152606401610b46565b600a55565b600061246a846114e4565b9050336001600160a01b038216146124bb5761248681336125cf565b6124bb573361249485610e06565b6001600160a01b0316146124bb576040516309e3bb1d60e31b815260040160405180910390fd5b6000848152601a60209081526040918290206001600160a01b03861660a086901b67ffffffffffffffff60a01b16811790915591516001600160401b038516815286917f4e06b4e7000e659094299b3533b47b6aa8ad048e95e872d23d1f4ee55af89cfe910160405180910390a350505050565b6012546060906001600160a01b031661254f5760118054610d8390613e34565b601260009054906101000a90046001600160a01b03166001600160a01b031663e8a3d4856040518163ffffffff1660e01b8152600401600060405180830381865afa1580156125a2573d6000803e3d6000fd5b505050506040513d6000823e601f3d908101601f191682016040526125ca91908101906140c8565b905090565b6001600160a01b03918216600090815260076020908152604080832093909416825291909152205460ff1690565b6000600d5442101580156126135750600e544211155b80156125ca575050600f5460ff161590565b61262d6127c4565b6001600160a01b0381166126925760405162461bcd60e51b815260206004820152602660248201527f4f776e61626c653a206e6577206f776e657220697320746865207a65726f206160448201526564647265737360d01b6064820152608401610b46565b61149f81612950565b6126a36127c4565b601280546001600160a01b0319166001600160a01b0392909216919091179055565b6040516370a0823160e01b81523060048201526000906001600160a01b038316906370a0823190602401602060405180830381865afa15801561270c573d6000803e3d6000fd5b505050506040513d601f19601f820116820180604052508101906127309190614056565b9050816001600160a01b031663a9059cbb6127536018546001600160a01b031690565b6040516001600160e01b031960e084901b1681526001600160a01b039091166004820152602481018490526044016020604051808303816000875af11580156127a0573d6000803e3d6000fd5b505050506040513d601f19601f820116820180604052508101906113739190613eec565b6009546001600160a01b036201000090910416331461164d5760405162461bcd60e51b815260206004820181905260248201527f4f776e61626c653a2063616c6c6572206973206e6f7420746865206f776e65726044820152606401610b46565b600061283082612c29565b80610d6e5750506001600160e01b031916632b424ad760e21b1490565b6000805482108015610d6e575050600090815260046020526040902054600160e01b161590565b8161287e81612c4e565b6113738383612d07565b6000816000548110156128dd5760008181526004602052604081205490600160e01b821690036128db575b806000036128d45750600019016000818152600460205260409020546128b3565b9392505050565b505b604051636f96cda160e11b815260040160405180910390fd5b611e7884848484612da7565b601754604051636e5f691960e01b81526001600160a01b0390911690636e5f6919906112379086908690869060040161413e565b610e54828260405180602001604052806000815250612dc1565b600980546001600160a01b038381166201000081810262010000600160b01b031985161790945560405193909204169182907f8be0079c531659141344cd1fd0a4f28419497f9722a3daafe3b4186f6b6457e090600090a35050565b6000826129b98584612e27565b14949350505050565b60006129d66018546001600160a01b031690565b6001600160a01b03164760405160006040518083038185875af1925050503d8060008114612a20576040519150601f19603f3d011682016040523d82523d6000602084013e612a25565b606091505b505090508061149f5760405162461bcd60e51b815260206004820152601f60248201527f436f756c64206e6f74207472616e736665722045544820746f2073706c6974006044820152606401610b46565b81612a8081612c4e565b6113738383612e74565b604051630a85bd0160e11b81526000906001600160a01b0385169063150b7a0290612abf9033908990889088906004016141a1565b6020604051808303816000875af1925050508015612afa575060408051601f3d908101601f19168201909252612af7918101906141de565b60015b612b58573d808015612b28576040519150601f19603f3d011682016040523d82523d6000602084013e612b2d565b606091505b508051600003612b50576040516368d2bf6b60e11b815260040160405180910390fd5b805181602001fd5b6001600160e01b031916630a85bd0160e11b1490505b949350505050565b6060612b818261284d565b612b9e57604051630a14c4b560e41b815260040160405180910390fd5b6012546001600160a01b031615612c205760125460405163c87b56dd60e01b8152600481018490526001600160a01b039091169063c87b56dd90602401600060405180830381865afa158015612bf8573d6000803e3d6000fd5b505050506040513d6000823e601f3d908101601f19168201604052610d6e91908101906140c8565b610d6e82612f09565b600063152a902d60e11b6001600160e01b031983161480610d6e5750610d6e82612f8c565b6daaeb6d7670e522a718067333cd4e3b1561149f57604051633185c44d60e21b81523060048201526001600160a01b03821660248201526daaeb6d7670e522a718067333cd4e9063c617113490604401602060405180830381865afa158015612cbb573d6000803e3d6000fd5b505050506040513d601f19601f82011682018060405250810190612cdf9190613eec565b61149f57604051633b79c77360e21b81526001600160a01b0382166004820152602401610b46565b6000612d12826114e4565b9050336001600160a01b03821614612d4b57612d2e81336125cf565b612d4b576040516367d9dca160e11b815260040160405180910390fd5b60008281526006602052604080822080546001600160a01b0319166001600160a01b0387811691821790925591518593918516917f8c5be1e5ebec7d5bd14f71427d1e84f3dd0314c0f7b2291e5b200ac8c7c3b92591a4505050565b836001600160a01b03811633146120895761208933612c4e565b612dcb8383612fda565b6001600160a01b0383163b15611373576000548281035b612df56000868380600101945086612a8a565b612e12576040516368d2bf6b60e11b815260040160405180910390fd5b818110612de257816000541461208957600080fd5b600081815b8451811015612e6c57612e5882868381518110612e4b57612e4b613e6e565b60200260200101516130e5565b915080612e6481613e9a565b915050612e2c565b509392505050565b336001600160a01b03831603612e9d5760405163b06307db60e01b815260040160405180910390fd5b3360008181526007602090815260408083206001600160a01b03871680855290835292819020805460ff191686151590811790915590519081529192917f17307eab39ab6107e8899845ad3d59bd9653f200f220920489ca2b5937696c31910160405180910390a35050565b6060612f148261284d565b612f3157604051630a14c4b560e41b815260040160405180910390fd5b6000612f3b613111565b90508051600003612f5b57604051806020016040528060008152506128d4565b80612f6584613120565b604051602001612f769291906141fb565b6040516020818303038152906040529392505050565b60006301ffc9a760e01b6001600160e01b031983161480612fbd57506380ac58cd60e01b6001600160e01b03198316145b80610d6e5750506001600160e01b031916635b5e139f60e01b1490565b6000805490829003612fff5760405163b562e8dd60e01b815260040160405180910390fd5b61300c60008483856128f6565b6001600160a01b03831660008181526005602090815260408083208054680100000000000000018802019055848352600490915281206001851460e11b4260a01b178317905582840190839083907fddf252ad1be2c89b69c2b068fc378daa952ba7f163c4a11628f55a4df523b3ef8180a4600183015b8181146130bb57808360007fddf252ad1be2c89b69c2b068fc378daa952ba7f163c4a11628f55a4df523b3ef600080a4600101613083565b50816000036130dc57604051622e076360e81b815260040160405180910390fd5b60005550505050565b60008183106131015760008281526020849052604090206128d4565b5060009182526020526040902090565b606060108054610d8390613e34565b604080516080019081905280825b600183039250600a81066030018353600a90048061312e5750819003601f19909101908152919050565b6001600160a01b038116811461149f57600080fd5b60008083601f84011261317f57600080fd5b5081356001600160401b0381111561319657600080fd5b6020830191508360208260051b850101111561116957600080fd5b803563ffffffff811681146131c557600080fd5b919050565b80356131c581613158565b600080600080600080600060a0888a0312156131f057600080fd5b87356131fb81613158565b965060208801356001600160401b038082111561321757600080fd5b6132238b838c0161316d565b909850965060408a013591508082111561323c57600080fd5b506132498a828b0161316d565b909550935061325c9050606089016131b1565b9150608088013561326c81613158565b8091505092959891949750929550565b60008060008060006060868803121561329457600080fd5b85356001600160401b03808211156132ab57600080fd5b6132b789838a0161316d565b909750955060208801359150808211156132d057600080fd5b506132dd8882890161316d565b90945092506132f09050604087016131b1565b90509295509295909350565b6001600160e01b03198116811461149f57600080fd5b60006020828403121561332457600080fd5b81356128d4816132fc565b60005b8381101561334a578181015183820152602001613332565b50506000910152565b6000815180845261336b81602086016020860161332f565b601f01601f19169290920160200192915050565b6020815260006128d46020830184613353565b6000602082840312156133a457600080fd5b5035919050565b600080604083850312156133be57600080fd5b82356133c981613158565b946020939093013593505050565b600080604083850312156133ea57600080fd5b50508035926020909101359150565b634e487b7160e01b600052602160045260246000fd5b6001600160a01b03841681526001600160581b0383166020820152606081016003831061344c57634e487b7160e01b600052602160045260246000fd5b826040830152949350505050565b60008060006060848603121561346f57600080fd5b833561347a81613158565b9250602084013561348a81613158565b929592945050506040919091013590565b634e487b7160e01b600052604160045260246000fd5b60405161018081016001600160401b03811182821017156134d4576134d461349b565b60405290565b604051601f8201601f191681016001600160401b03811182821017156135025761350261349b565b604052919050565b600082601f83011261351b57600080fd5b813560206001600160401b038211156135365761353661349b565b8160051b6135458282016134da565b928352848101820192828101908785111561355f57600080fd5b83870192505b8483101561358757823561357881613158565b82529183019190830190613565565b979650505050505050565b600080600080600080600080600060e08a8c0312156135b057600080fd5b89356135bb81613158565b985060208a0135975060408a01356001600160401b03808211156135de57600080fd5b6135ea8d838e0161350a565b985060608c013591508082111561360057600080fd5b61360c8d838e0161316d565b909850965060808c013591508082111561362557600080fd5b506136328c828d0161316d565b9095509350613645905060a08b016131b1565b915060c08a013561365581613158565b809150509295985092959850929598565b801515811461149f57600080fd5b80356131c581613666565b6000806040838503121561369257600080fd5b823561369d81613666565b915060208301356136ad81613158565b809150509250929050565b60006001600160401b038211156136d1576136d161349b565b50601f01601f191660200190565b600082601f8301126136f057600080fd5b81356137036136fe826136b8565b6134da565b81815284602083860101111561371857600080fd5b816020850160208301376000918101602001919091529392505050565b60006020828403121561374757600080fd5b81356001600160401b0381111561375d57600080fd5b612b6e848285016136df565b60006020828403121561377b57600080fd5b81356128d481613158565b60008060008060006080868803121561379e57600080fd5b85359450602086013593506040860135925060608601356001600160401b038111156137c957600080fd5b6137d58882890161316d565b969995985093965092949392505050565b600080604083850312156137f957600080fd5b8235915060208301356001600160401b0381111561381657600080fd5b6111658582860161350a565b6000806040838503121561383557600080fd5b823561384081613158565b915060208301356136ad81613666565b6000806000806080858703121561386657600080fd5b843561387181613158565b9350602085013561388181613158565b92506040850135915060608501356001600160401b038111156138a357600080fd5b6138af878288016136df565b91505092959194509250565b600080600080600080608087890312156138d457600080fd5b86356001600160401b03808211156138eb57600080fd5b6138f78a838b0161316d565b9098509650602089013591508082111561391057600080fd5b5061391d89828a0161316d565b90955093506139309050604088016131b1565b9150606087013561394081613158565b809150509295509295509295565b6000806020838503121561396157600080fd5b82356001600160401b0381111561397757600080fd5b6139838582860161316d565b90969095509350505050565b6000608082840312156139a157600080fd5b604051608081016001600160401b0382821081831117156139c4576139c461349b565b8160405282935084359150808211156139dc57600080fd5b6139e8868387016136df565b835260208501359150808211156139fe57600080fd5b613a0a868387016136df565b60208401526040850135915080821115613a2357600080fd5b50613a30858286016136df565b6040830152506060830135613a4481613158565b6060919091015292915050565b600060608284031215613a6357600080fd5b604051606081018181106001600160401b0382111715613a8557613a8561349b565b6040529050808235613a9681613158565b815260208301356001600160581b0381168114613ab257600080fd5b6020820152604083013560038110613ac957600080fd5b6040919091015292915050565b60008060008060008061010080888a031215613af157600080fd5b8735613afc81613158565b965060208801356001600160401b0380821115613b1857600080fd5b90890190610180828c031215613b2d57600080fd5b613b356134b1565b823582811115613b4457600080fd5b613b508d8286016136df565b825250602083013582811115613b6557600080fd5b613b718d8286016136df565b602083015250613b8360408401613674565b6040820152606083013560608201526080830135608082015260a083013560a082015260c083013560c082015260e083013560e082015283830135848201526101209350838301358482015261014093508383013584820152610160935083830135848201528098505060408a0135925080831115613c0157600080fd5b5050613c0f89828a0161398f565b945050613c1f8860608901613a51565b9250613c2d60c088016131ca565b9150613c3b60e088016131ca565b90509295509295509295565b600080600060608486031215613c5c57600080fd5b833592506020840135613c6e81613158565b915060408401356001600160401b0381168114613c8a57600080fd5b809150509250925092565b60008060408385031215613ca857600080fd5b823561369d81613158565b60208082526015908201527414dc1b1a5d081b9bdd0818dc99585d1959081e595d605a1b604082015260600190565b8183526000602080850194508260005b85811015613d20578135613d0581613158565b6001600160a01b031687529582019590820190600101613cf2565b509495945050505050565b8183526000602080850194508260005b85811015613d205763ffffffff613d51836131b1565b1687529582019590820190600101613d3b565b600060018060a01b03808b168352808a16602084015260c06040840152613d8f60c08401898b613ce2565b8381036060850152613da281888a613d2b565b63ffffffff969096166080850152509290921660a090910152509695505050505050565b608081526000613dda60808301888a613ce2565b8281036020840152613ded818789613d2b565b63ffffffff95909516604084015250506001600160a01b0391909116606090910152949350505050565b600060208284031215613e2957600080fd5b81516128d481613158565b600181811c90821680613e4857607f821691505b602082108103613e6857634e487b7160e01b600052602260045260246000fd5b50919050565b634e487b7160e01b600052603260045260246000fd5b634e487b7160e01b600052601160045260246000fd5b600060018201613eac57613eac613e84565b5060010190565b8082028115828204841417610d6e57610d6e613e84565b600082613ee757634e487b7160e01b600052601260045260246000fd5b500490565b600060208284031215613efe57600080fd5b81516128d481613666565b601f82111561137357600081815260208120601f850160051c81016020861015613f305750805b601f850160051c820191505b81811015610d5b57828155600101613f3c565b81516001600160401b03811115613f6857613f6861349b565b613f7c81613f768454613e34565b84613f09565b602080601f831160018114613fb15760008415613f995750858301515b600019600386901b1c1916600185901b178555610d5b565b600085815260208120601f198616915b82811015613fe057888601518255948401946001909101908401613fc1565b5085821015613ffe5787850151600019600388901b60f8161c191681555b5050505050600190811b01905550565b80820180821115610d6e57610d6e613e84565b6020808252818101527f507572636861736520776f756c6420657863656564206d617820737570706c79604082015260600190565b60006020828403121561406857600080fd5b5051919050565b600060018060a01b03808a16835260a0602084015261409260a08401898b613ce2565b83810360408501526140a581888a613d2b565b63ffffffff96909616606085015250929092166080909101525095945050505050565b6000602082840312156140da57600080fd5b81516001600160401b038111156140f057600080fd5b8201601f8101841361410157600080fd5b805161410f6136fe826136b8565b81815285602083850101111561412457600080fd5b61413582602083016020860161332f565b95945050505050565b6001600160a01b038481168252602080830185905260606040840181905284519084018190526000928583019290916080860190855b81811015614192578551851683529483019491830191600101614174565b50909998505050505050505050565b6001600160a01b03858116825284166020820152604081018390526080606082018190526000906141d490830184613353565b9695505050505050565b6000602082840312156141f057600080fd5b81516128d4816132fc565b6000835161420d81846020880161332f565b83519083019061422181836020880161332f565b0194935050505056fea2646970667358221220320a17caa10ec7f3d370c303bb1bbd1c371c31775b52bd828f284bc2e0ef70b264736f6c63430008110033",
  "linkReferences": {},
  "deployedLinkReferences": {}
}