{
  "_format": "hh-sol-artifact-1",
  "contractName": "DCNT721A",
  "sourceName": "contracts/DCNT721A.sol",
  "abi": [
    {
      "inputs": [],
      "name": "ApprovalCallerNotOwnerNorApproved",
      "type": "error"
    },
    {
      "inputs": [],
      "name": "ApprovalQueryForNonexistentToken",
      "type": "error"
    },
    {
      "inputs": [],
      "name": "ApproveToCaller",
      "type": "error"
    },
    {
      "inputs": [],
      "name": "BalanceQueryForZeroAddress",
      "type": "error"
    },
    {
      "inputs": [],
      "name": "MintERC2309QuantityExceedsLimit",
      "type": "error"
    },
    {
      "inputs": [],
      "name": "MintToZeroAddress",
      "type": "error"
    },
    {
      "inputs": [],
      "name": "MintZeroQuantity",
      "type": "error"
    },
    {
      "inputs": [],
      "name": "OwnerQueryForNonexistentToken",
      "type": "error"
    },
    {
      "inputs": [],
      "name": "OwnershipNotInitializedForExtraData",
      "type": "error"
    },
    {
      "inputs": [],
      "name": "TransferCallerNotOwnerNorApproved",
      "type": "error"
    },
    {
      "inputs": [],
      "name": "TransferFromIncorrectOwner",
      "type": "error"
    },
    {
      "inputs": [],
      "name": "TransferToNonERC721ReceiverImplementer",
      "type": "error"
    },
    {
      "inputs": [],
      "name": "TransferToZeroAddress",
      "type": "error"
    },
    {
      "inputs": [],
      "name": "URIQueryForNonexistentToken",
      "type": "error"
    },
    {
      "anonymous": false,
      "inputs": [
        {
          "indexed": true,
          "internalType": "address",
          "name": "owner",
          "type": "address"
        },
        {
          "indexed": true,
          "internalType": "address",
          "name": "approved",
          "type": "address"
        },
        {
          "indexed": true,
          "internalType": "uint256",
          "name": "tokenId",
          "type": "uint256"
        }
      ],
      "name": "Approval",
      "type": "event"
    },
    {
      "anonymous": false,
      "inputs": [
        {
          "indexed": true,
          "internalType": "address",
          "name": "owner",
          "type": "address"
        },
        {
          "indexed": true,
          "internalType": "address",
          "name": "operator",
          "type": "address"
        },
        {
          "indexed": false,
          "internalType": "bool",
          "name": "approved",
          "type": "bool"
        }
      ],
      "name": "ApprovalForAll",
      "type": "event"
    },
    {
      "anonymous": false,
      "inputs": [
        {
          "indexed": true,
          "internalType": "uint256",
          "name": "fromTokenId",
          "type": "uint256"
        },
        {
          "indexed": false,
          "internalType": "uint256",
          "name": "toTokenId",
          "type": "uint256"
        },
        {
          "indexed": true,
          "internalType": "address",
          "name": "from",
          "type": "address"
        },
        {
          "indexed": true,
          "internalType": "address",
          "name": "to",
          "type": "address"
        }
      ],
      "name": "ConsecutiveTransfer",
      "type": "event"
    },
    {
      "anonymous": false,
      "inputs": [
        {
          "indexed": false,
          "internalType": "uint8",
          "name": "version",
          "type": "uint8"
        }
      ],
      "name": "Initialized",
      "type": "event"
    },
    {
      "anonymous": false,
      "inputs": [
        {
          "indexed": false,
          "internalType": "address",
          "name": "sender",
          "type": "address"
        },
        {
          "indexed": false,
          "internalType": "uint256",
          "name": "tokenId_",
          "type": "uint256"
        }
      ],
      "name": "Minted",
      "type": "event"
    },
    {
      "anonymous": false,
      "inputs": [
        {
          "indexed": true,
          "internalType": "address",
          "name": "previousOwner",
          "type": "address"
        },
        {
          "indexed": true,
          "internalType": "address",
          "name": "newOwner",
          "type": "address"
        }
      ],
      "name": "OwnershipTransferred",
      "type": "event"
    },
    {
      "anonymous": false,
      "inputs": [
        {
          "indexed": true,
          "internalType": "address",
          "name": "from",
          "type": "address"
        },
        {
          "indexed": true,
          "internalType": "address",
          "name": "to",
          "type": "address"
        },
        {
          "indexed": true,
          "internalType": "uint256",
          "name": "tokenId",
          "type": "uint256"
        }
      ],
      "name": "Transfer",
      "type": "event"
    },
    {
      "inputs": [],
      "name": "MAX_TOKENS",
      "outputs": [
        {
          "internalType": "uint256",
          "name": "",
          "type": "uint256"
        }
      ],
      "stateMutability": "view",
      "type": "function"
    },
    {
      "inputs": [
        {
          "internalType": "uint256",
          "name": "newCap",
          "type": "uint256"
        }
      ],
      "name": "adjustCap",
      "outputs": [],
      "stateMutability": "nonpayable",
      "type": "function"
    },
    {
      "inputs": [
        {
          "internalType": "address",
          "name": "to",
          "type": "address"
        },
        {
          "internalType": "uint256",
          "name": "tokenId",
          "type": "uint256"
        }
      ],
      "name": "approve",
      "outputs": [],
      "stateMutability": "nonpayable",
      "type": "function"
    },
    {
      "inputs": [
        {
          "internalType": "address",
          "name": "owner",
          "type": "address"
        }
      ],
      "name": "balanceOf",
      "outputs": [
        {
          "internalType": "uint256",
          "name": "",
          "type": "uint256"
        }
      ],
      "stateMutability": "view",
      "type": "function"
    },
    {
      "inputs": [],
      "name": "baseURI",
      "outputs": [
        {
          "internalType": "string",
          "name": "",
          "type": "string"
        }
      ],
      "stateMutability": "view",
      "type": "function"
    },
    {
      "inputs": [],
      "name": "contractURI",
      "outputs": [
        {
          "internalType": "string",
          "name": "",
          "type": "string"
        }
      ],
      "stateMutability": "view",
      "type": "function"
    },
    {
      "inputs": [
        {
          "internalType": "address[]",
          "name": "accounts",
          "type": "address[]"
        },
        {
          "internalType": "uint32[]",
          "name": "percentAllocations",
          "type": "uint32[]"
        },
        {
          "internalType": "uint32",
          "name": "distributorFee",
          "type": "uint32"
        }
      ],
      "name": "createSplit",
      "outputs": [],
      "stateMutability": "nonpayable",
      "type": "function"
    },
    {
      "inputs": [
        {
          "internalType": "address",
          "name": "account",
          "type": "address"
        },
        {
          "internalType": "uint256",
          "name": "withdrawETH",
          "type": "uint256"
        },
        {
          "internalType": "contract ERC20[]",
          "name": "tokens",
          "type": "address[]"
        },
        {
          "internalType": "address[]",
          "name": "accounts",
          "type": "address[]"
        },
        {
          "internalType": "uint32[]",
          "name": "percentAllocations",
          "type": "uint32[]"
        },
        {
          "internalType": "uint32",
          "name": "distributorFee",
          "type": "uint32"
        },
        {
          "internalType": "address",
          "name": "distributorAddress",
          "type": "address"
        }
      ],
      "name": "distributeAndWithdraw",
      "outputs": [],
      "stateMutability": "nonpayable",
      "type": "function"
    },
    {
      "inputs": [
        {
          "internalType": "contract ERC20",
          "name": "token",
          "type": "address"
        },
        {
          "internalType": "address[]",
          "name": "accounts",
          "type": "address[]"
        },
        {
          "internalType": "uint32[]",
          "name": "percentAllocations",
          "type": "uint32[]"
        },
        {
          "internalType": "uint32",
          "name": "distributorFee",
          "type": "uint32"
        },
        {
          "internalType": "address",
          "name": "distributorAddress",
          "type": "address"
        }
      ],
      "name": "distributeERC20",
      "outputs": [],
      "stateMutability": "nonpayable",
      "type": "function"
    },
    {
      "inputs": [
        {
          "internalType": "address[]",
          "name": "accounts",
          "type": "address[]"
        },
        {
          "internalType": "uint32[]",
          "name": "percentAllocations",
          "type": "uint32[]"
        },
        {
          "internalType": "uint32",
          "name": "distributorFee",
          "type": "uint32"
        },
        {
          "internalType": "address",
          "name": "distributorAddress",
          "type": "address"
        }
      ],
      "name": "distributeETH",
      "outputs": [],
      "stateMutability": "nonpayable",
      "type": "function"
    },
    {
      "inputs": [],
      "name": "flipSaleState",
      "outputs": [],
      "stateMutability": "nonpayable",
      "type": "function"
    },
    {
      "inputs": [
        {
          "internalType": "uint256",
          "name": "tokenId",
          "type": "uint256"
        }
      ],
      "name": "getApproved",
      "outputs": [
        {
          "internalType": "address",
          "name": "",
          "type": "address"
        }
      ],
      "stateMutability": "view",
      "type": "function"
    },
    {
      "inputs": [],
      "name": "hasAdjustableCap",
      "outputs": [
        {
          "internalType": "bool",
          "name": "",
          "type": "bool"
        }
      ],
      "stateMutability": "view",
      "type": "function"
    },
    {
      "inputs": [
        {
          "internalType": "address",
          "name": "_owner",
          "type": "address"
        },
        {
          "components": [
            {
              "internalType": "string",
              "name": "name",
              "type": "string"
            },
            {
              "internalType": "string",
              "name": "symbol",
              "type": "string"
            },
            {
              "internalType": "bool",
              "name": "hasAdjustableCap",
              "type": "bool"
            },
            {
              "internalType": "uint256",
              "name": "maxTokens",
              "type": "uint256"
            },
            {
              "internalType": "uint256",
              "name": "tokenPrice",
              "type": "uint256"
            },
            {
              "internalType": "uint256",
              "name": "maxTokenPurchase",
              "type": "uint256"
            },
            {
              "internalType": "bytes32",
              "name": "presaleMerkleRoot",
              "type": "bytes32"
            },
            {
              "internalType": "uint256",
              "name": "presaleStart",
              "type": "uint256"
            },
            {
              "internalType": "uint256",
              "name": "presaleEnd",
              "type": "uint256"
            },
            {
              "internalType": "uint256",
              "name": "saleStart",
              "type": "uint256"
            },
            {
              "internalType": "uint256",
              "name": "saleEnd",
              "type": "uint256"
            },
            {
              "internalType": "uint256",
              "name": "royaltyBPS",
              "type": "uint256"
            }
          ],
          "internalType": "struct EditionConfig",
          "name": "_editionConfig",
          "type": "tuple"
        },
        {
          "components": [
            {
              "internalType": "string",
              "name": "contractURI",
              "type": "string"
            },
            {
              "internalType": "string",
              "name": "metadataURI",
              "type": "string"
            },
            {
              "internalType": "bytes",
              "name": "metadataRendererInit",
              "type": "bytes"
            },
            {
              "internalType": "address",
              "name": "parentIP",
              "type": "address"
            }
          ],
          "internalType": "struct MetadataConfig",
          "name": "_metadataConfig",
          "type": "tuple"
        },
        {
          "components": [
            {
              "internalType": "address",
              "name": "tokenAddress",
              "type": "address"
            },
            {
              "internalType": "uint88",
              "name": "minBalance",
              "type": "uint88"
            },
            {
              "internalType": "enum SaleType",
              "name": "saleType",
              "type": "uint8"
            }
          ],
          "internalType": "struct TokenGateConfig",
          "name": "_tokenGateConfig",
          "type": "tuple"
        },
        {
          "internalType": "address",
          "name": "_metadataRenderer",
          "type": "address"
        },
        {
          "internalType": "address",
          "name": "_splitMain",
          "type": "address"
        }
      ],
      "name": "initialize",
      "outputs": [],
      "stateMutability": "nonpayable",
      "type": "function"
    },
    {
      "inputs": [
        {
          "internalType": "address",
          "name": "owner",
          "type": "address"
        },
        {
          "internalType": "address",
          "name": "operator",
          "type": "address"
        }
      ],
      "name": "isApprovedForAll",
      "outputs": [
        {
          "internalType": "bool",
          "name": "",
          "type": "bool"
        }
      ],
      "stateMutability": "view",
      "type": "function"
    },
    {
      "inputs": [],
      "name": "maxTokenPurchase",
      "outputs": [
        {
          "internalType": "uint256",
          "name": "",
          "type": "uint256"
        }
      ],
      "stateMutability": "view",
      "type": "function"
    },
    {
      "inputs": [],
      "name": "metadataRenderer",
      "outputs": [
        {
          "internalType": "address",
          "name": "",
          "type": "address"
        }
      ],
      "stateMutability": "view",
      "type": "function"
    },
    {
      "inputs": [
        {
          "internalType": "uint256",
          "name": "numberOfTokens",
          "type": "uint256"
        }
      ],
      "name": "mint",
      "outputs": [],
      "stateMutability": "payable",
      "type": "function"
    },
    {
      "inputs": [
        {
          "internalType": "address[]",
          "name": "recipients",
          "type": "address[]"
        }
      ],
      "name": "mintAirdrop",
      "outputs": [],
      "stateMutability": "nonpayable",
      "type": "function"
    },
    {
      "inputs": [
        {
          "internalType": "uint256",
          "name": "quantity",
          "type": "uint256"
        },
        {
          "internalType": "uint256",
          "name": "maxQuantity",
          "type": "uint256"
        },
        {
          "internalType": "uint256",
          "name": "pricePerToken",
          "type": "uint256"
        },
        {
          "internalType": "bytes32[]",
          "name": "merkleProof",
          "type": "bytes32[]"
        }
      ],
      "name": "mintPresale",
      "outputs": [],
      "stateMutability": "payable",
      "type": "function"
    },
    {
      "inputs": [],
      "name": "name",
      "outputs": [
        {
          "internalType": "string",
          "name": "",
          "type": "string"
        }
      ],
      "stateMutability": "view",
      "type": "function"
    },
    {
      "inputs": [],
      "name": "owner",
      "outputs": [
        {
          "internalType": "address",
          "name": "",
          "type": "address"
        }
      ],
      "stateMutability": "view",
      "type": "function"
    },
    {
      "inputs": [
        {
          "internalType": "uint256",
          "name": "tokenId",
          "type": "uint256"
        }
      ],
      "name": "ownerOf",
      "outputs": [
        {
          "internalType": "address",
          "name": "",
          "type": "address"
        }
      ],
      "stateMutability": "view",
      "type": "function"
    },
    {
      "inputs": [],
      "name": "parentIP",
      "outputs": [
        {
          "internalType": "address",
          "name": "",
          "type": "address"
        }
      ],
      "stateMutability": "view",
      "type": "function"
    },
    {
      "inputs": [],
      "name": "presaleEnd",
      "outputs": [
        {
          "internalType": "uint256",
          "name": "",
          "type": "uint256"
        }
      ],
      "stateMutability": "view",
      "type": "function"
    },
    {
      "inputs": [],
      "name": "presaleStart",
      "outputs": [
        {
          "internalType": "uint256",
          "name": "",
          "type": "uint256"
        }
      ],
      "stateMutability": "view",
      "type": "function"
    },
    {
      "inputs": [],
      "name": "renounceOwnership",
      "outputs": [],
      "stateMutability": "nonpayable",
      "type": "function"
    },
    {
      "inputs": [
        {
          "internalType": "uint256",
          "name": "numReserved",
          "type": "uint256"
        }
      ],
      "name": "reserveDCNT",
      "outputs": [],
      "stateMutability": "nonpayable",
      "type": "function"
    },
    {
      "inputs": [],
      "name": "royaltyBPS",
      "outputs": [
        {
          "internalType": "uint256",
          "name": "",
          "type": "uint256"
        }
      ],
      "stateMutability": "view",
      "type": "function"
    },
    {
      "inputs": [
        {
          "internalType": "uint256",
          "name": "tokenId",
          "type": "uint256"
        },
        {
          "internalType": "uint256",
          "name": "salePrice",
          "type": "uint256"
        }
      ],
      "name": "royaltyInfo",
      "outputs": [
        {
          "internalType": "address",
          "name": "receiver",
          "type": "address"
        },
        {
          "internalType": "uint256",
          "name": "royaltyAmount",
          "type": "uint256"
        }
      ],
      "stateMutability": "view",
      "type": "function"
    },
    {
      "inputs": [
        {
          "internalType": "address",
          "name": "from",
          "type": "address"
        },
        {
          "internalType": "address",
          "name": "to",
          "type": "address"
        },
        {
          "internalType": "uint256",
          "name": "tokenId",
          "type": "uint256"
        }
      ],
      "name": "safeTransferFrom",
      "outputs": [],
      "stateMutability": "nonpayable",
      "type": "function"
    },
    {
      "inputs": [
        {
          "internalType": "address",
          "name": "from",
          "type": "address"
        },
        {
          "internalType": "address",
          "name": "to",
          "type": "address"
        },
        {
          "internalType": "uint256",
          "name": "tokenId",
          "type": "uint256"
        },
        {
          "internalType": "bytes",
          "name": "_data",
          "type": "bytes"
        }
      ],
      "name": "safeTransferFrom",
      "outputs": [],
      "stateMutability": "nonpayable",
      "type": "function"
    },
    {
      "inputs": [],
      "name": "saleEnd",
      "outputs": [
        {
          "internalType": "uint256",
          "name": "",
          "type": "uint256"
        }
      ],
      "stateMutability": "view",
      "type": "function"
    },
    {
      "inputs": [],
      "name": "saleIsActive",
      "outputs": [
        {
          "internalType": "bool",
          "name": "_saleIsActive",
          "type": "bool"
        }
      ],
      "stateMutability": "view",
      "type": "function"
    },
    {
      "inputs": [],
      "name": "saleIsPaused",
      "outputs": [
        {
          "internalType": "bool",
          "name": "",
          "type": "bool"
        }
      ],
      "stateMutability": "view",
      "type": "function"
    },
    {
      "inputs": [],
      "name": "saleStart",
      "outputs": [
        {
          "internalType": "uint256",
          "name": "",
          "type": "uint256"
        }
      ],
      "stateMutability": "view",
      "type": "function"
    },
    {
      "inputs": [
        {
          "internalType": "address",
          "name": "operator",
          "type": "address"
        },
        {
          "internalType": "bool",
          "name": "approved",
          "type": "bool"
        }
      ],
      "name": "setApprovalForAll",
      "outputs": [],
      "stateMutability": "nonpayable",
      "type": "function"
    },
    {
      "inputs": [
        {
          "internalType": "string",
          "name": "uri",
          "type": "string"
        }
      ],
      "name": "setBaseURI",
      "outputs": [],
      "stateMutability": "nonpayable",
      "type": "function"
    },
    {
      "inputs": [
        {
          "internalType": "string",
          "name": "uri",
          "type": "string"
        }
      ],
      "name": "setContractURI",
      "outputs": [],
      "stateMutability": "nonpayable",
      "type": "function"
    },
    {
      "inputs": [
        {
          "internalType": "address",
          "name": "_metadataRenderer",
          "type": "address"
        }
      ],
      "name": "setMetadataRenderer",
      "outputs": [],
      "stateMutability": "nonpayable",
      "type": "function"
    },
    {
      "inputs": [
        {
          "internalType": "bytes32",
          "name": "_presaleMerkleRoot",
          "type": "bytes32"
        }
      ],
      "name": "setPresaleMerkleRoot",
      "outputs": [],
      "stateMutability": "nonpayable",
      "type": "function"
    },
    {
      "inputs": [],
      "name": "splitMain",
      "outputs": [
        {
          "internalType": "address",
          "name": "",
          "type": "address"
        }
      ],
      "stateMutability": "view",
      "type": "function"
    },
    {
      "inputs": [],
      "name": "splitWallet",
      "outputs": [
        {
          "internalType": "address",
          "name": "",
          "type": "address"
        }
      ],
      "stateMutability": "view",
      "type": "function"
    },
    {
      "inputs": [
        {
          "internalType": "bytes4",
          "name": "interfaceId",
          "type": "bytes4"
        }
      ],
      "name": "supportsInterface",
      "outputs": [
        {
          "internalType": "bool",
          "name": "",
          "type": "bool"
        }
      ],
      "stateMutability": "view",
      "type": "function"
    },
    {
      "inputs": [],
      "name": "symbol",
      "outputs": [
        {
          "internalType": "string",
          "name": "",
          "type": "string"
        }
      ],
      "stateMutability": "view",
      "type": "function"
    },
    {
      "inputs": [],
      "name": "tokenGateConfig",
      "outputs": [
        {
          "internalType": "address",
          "name": "tokenAddress",
          "type": "address"
        },
        {
          "internalType": "uint88",
          "name": "minBalance",
          "type": "uint88"
        },
        {
          "internalType": "enum SaleType",
          "name": "saleType",
          "type": "uint8"
        }
      ],
      "stateMutability": "view",
      "type": "function"
    },
    {
      "inputs": [],
      "name": "tokenPrice",
      "outputs": [
        {
          "internalType": "uint256",
          "name": "",
          "type": "uint256"
        }
      ],
      "stateMutability": "view",
      "type": "function"
    },
    {
      "inputs": [
        {
          "internalType": "uint256",
          "name": "tokenId",
          "type": "uint256"
        }
      ],
      "name": "tokenURI",
      "outputs": [
        {
          "internalType": "string",
          "name": "",
          "type": "string"
        }
      ],
      "stateMutability": "view",
      "type": "function"
    },
    {
      "inputs": [],
      "name": "totalSupply",
      "outputs": [
        {
          "internalType": "uint256",
          "name": "",
          "type": "uint256"
        }
      ],
      "stateMutability": "view",
      "type": "function"
    },
    {
      "inputs": [
        {
          "internalType": "address",
          "name": "from",
          "type": "address"
        },
        {
          "internalType": "address",
          "name": "to",
          "type": "address"
        },
        {
          "internalType": "uint256",
          "name": "tokenId",
          "type": "uint256"
        }
      ],
      "name": "transferFrom",
      "outputs": [],
      "stateMutability": "nonpayable",
      "type": "function"
    },
    {
      "inputs": [
        {
          "internalType": "address",
          "name": "newOwner",
          "type": "address"
        }
      ],
      "name": "transferOwnership",
      "outputs": [],
      "stateMutability": "nonpayable",
      "type": "function"
    },
    {
      "inputs": [
        {
          "internalType": "uint256",
          "name": "transferETH",
          "type": "uint256"
        },
        {
          "internalType": "contract ERC20[]",
          "name": "tokens",
          "type": "address[]"
        }
      ],
      "name": "transferToSplit",
      "outputs": [],
      "stateMutability": "nonpayable",
      "type": "function"
    },
    {
      "inputs": [
        {
          "internalType": "uint256",
          "name": "newStart",
          "type": "uint256"
        },
        {
          "internalType": "uint256",
          "name": "newEnd",
          "type": "uint256"
        }
      ],
      "name": "updatePresaleStartEnd",
      "outputs": [],
      "stateMutability": "nonpayable",
      "type": "function"
    },
    {
      "inputs": [
        {
          "internalType": "uint256",
          "name": "newStart",
          "type": "uint256"
        },
        {
          "internalType": "uint256",
          "name": "newEnd",
          "type": "uint256"
        }
      ],
      "name": "updateSaleStartEnd",
      "outputs": [],
      "stateMutability": "nonpayable",
      "type": "function"
    },
    {
      "inputs": [],
      "name": "withdraw",
      "outputs": [],
      "stateMutability": "nonpayable",
      "type": "function"
    }
  ],
  "bytecode": "0x60806040523480156200001157600080fd5b506200001d3362000023565b6200007f565b600980546001600160a01b038381166201000081810262010000600160b01b031985161790945560405193909204169182907f8be0079c531659141344cd1fd0a4f28419497f9722a3daafe3b4186f6b6457e090600090a35050565b613d0d806200008f6000396000f3fe60806040526004361061034f5760003560e01c8063715018a6116101c6578063c4559d5a116100f7578063e8a3d48511610095578063f0cc8b621161006f578063f0cc8b62146109b2578063f2fde38b146109d2578063f47c84c5146109f2578063fd4fe8a814610a0857600080fd5b8063e8a3d4851461093f578063e985e9c514610954578063eb8d24441461099d57600080fd5b8063c9ef5eee116100d1578063c9ef5eee146108cf578063d58d458a146108ef578063de8801e51461090f578063e6c350c11461092557600080fd5b8063c4559d5a1461086f578063c59531701461088f578063c87b56dd146108af57600080fd5b806395d89b4111610164578063ab0bcc411161013e578063ab0bcc411461080d578063b88d4fde14610823578063b9c9d93a14610843578063c10b93581461085957600080fd5b806395d89b41146107c5578063a0712d68146107da578063a22cb465146107ed57600080fd5b80637ff9b596116101a05780637ff9b5961461074a5780638da5cb5b14610760578063931cf0f414610784578063938e3d7b146107a557600080fd5b8063715018a614610702578063727a612e1461071757806379ab7c8e1461072a57600080fd5b8063284a44a8116102a05780635799dbdd1161023e5780636c1951ae116102185780636c1951ae1461068257806370319970146106a257806370a08231146106c2578063713b9787146106e257600080fd5b80635799dbdd1461062d5780636352211e1461064d5780636c0360eb1461066d57600080fd5b806334918dfd1161027a57806334918dfd146105c35780633ccfd60b146105d857806342842e0e146105ed57806355f804b31461060d57600080fd5b8063284a44a81461054457806328d7b276146105645780632a55205a1461058457600080fd5b806309aa3dcf1161030d57806318160ddd116102e757806318160ddd146104a95780631dbdedbd146104c2578063229f3e291461050e57806323b872dd1461052457600080fd5b806309aa3dcf146104455780630e769b2b1461046957806317dc25871461048957600080fd5b80625f16fb14610354578063015893c51461037657806301ffc9a71461039657806306fdde03146103cb578063081812fc146103ed578063095ea7b314610425575b600080fd5b34801561036057600080fd5b5061037461036f366004612ddb565b610a28565b005b34801561038257600080fd5b50610374610391366004612e82565b610b06565b3480156103a257600080fd5b506103b66103b1366004612f18565b610c90565b60405190151581526020015b60405180910390f35b3480156103d757600080fd5b506103e0610cbb565b6040516103c29190612f8d565b3480156103f957600080fd5b5061040d610408366004612fa0565b610d4d565b6040516001600160a01b0390911681526020016103c2565b34801561043157600080fd5b50610374610440366004612fb9565b610d91565b34801561045157600080fd5b5061045b600c5481565b6040519081526020016103c2565b34801561047557600080fd5b5060175461040d906001600160a01b031681565b34801561049557600080fd5b506103746104a4366004612fe5565b610e31565b3480156104b557600080fd5b506001546000540361045b565b3480156104ce57600080fd5b506008546104ff906001600160a01b03811690600160a01b81046001600160581b031690600160f81b900460ff1683565b6040516103c29392919061301d565b34801561051a57600080fd5b5061045b60155481565b34801561053057600080fd5b5061037461053f366004613068565b610e44565b34801561055057600080fd5b5061037461055f3660046131a0565b610fd2565b34801561057057600080fd5b5061037461057f366004612fa0565b61107c565b34801561059057600080fd5b506105a461059f366004612fe5565b611089565b604080516001600160a01b0390931683526020830191909152016103c2565b3480156105cf57600080fd5b50610374611136565b3480156105e457600080fd5b50610374611152565b3480156105f957600080fd5b50610374610608366004613068565b611260565b34801561061957600080fd5b506103746106283660046132f1565b611280565b34801561063957600080fd5b50610374610648366004612fe5565b61129f565b34801561065957600080fd5b5061040d610668366004612fa0565b6112b2565b34801561067957600080fd5b506103e06112bd565b34801561068e57600080fd5b5061037461069d366004612fa0565b61134b565b3480156106ae57600080fd5b5060125461040d906001600160a01b031681565b3480156106ce57600080fd5b5061045b6106dd366004613325565b6113bb565b3480156106ee57600080fd5b5060185461040d906001600160a01b031681565b34801561070e57600080fd5b50610374611409565b610374610725366004613342565b61141d565b34801561073657600080fd5b506103746107453660046133a2565b611828565b34801561075657600080fd5b5061045b600b5481565b34801561076c57600080fd5b506009546201000090046001600160a01b031661040d565b34801561079057600080fd5b506009546103b690600160b01b900460ff1681565b3480156107b157600080fd5b506103746107c03660046132f1565b6118af565b3480156107d157600080fd5b506103e06118ca565b6103746107e8366004612fa0565b6118d9565b3480156107f957600080fd5b506103746108083660046133f7565b611c72565b34801561081957600080fd5b5061045b600d5481565b34801561082f57600080fd5b5061037461083e366004613430565b611d08565b34801561084f57600080fd5b5061045b60135481565b34801561086557600080fd5b5061045b600e5481565b34801561087b57600080fd5b5061037461088a36600461349b565b611d4c565b34801561089b57600080fd5b506103746108aa36600461352e565b611e1d565b3480156108bb57600080fd5b506103e06108ca366004612fa0565b611f11565b3480156108db57600080fd5b506103746108ea3660046136b6565b611fd3565b3480156108fb57600080fd5b5061037461090a366004612fa0565b6122ec565b34801561091b57600080fd5b5061045b60145481565b34801561093157600080fd5b50600f546103b69060ff1681565b34801561094b57600080fd5b506103e06123ae565b34801561096057600080fd5b506103b661096f366004613827565b6001600160a01b03918216600090815260076020908152604080832093909416825291909152205460ff1690565b3480156109a957600080fd5b506103b661245d565b3480156109be57600080fd5b5060195461040d906001600160a01b031681565b3480156109de57600080fd5b506103746109ed366004613325565b612485565b3480156109fe57600080fd5b5061045b600a5481565b348015610a1457600080fd5b50610374610a23366004613325565b6124fb565b6000610a3c6018546001600160a01b031690565b6001600160a01b03161415610a6c5760405162461bcd60e51b8152600401610a6390613855565b60405180910390fd5b610a7587612525565b6017546001600160a01b03166001600160a01b03166315811302610aa16018546001600160a01b031690565b898989898989896040518963ffffffff1660e01b8152600401610acb989796959493929190613906565b600060405180830381600087803b158015610ae557600080fd5b505af1158015610af9573d6000803e3d6000fd5b5050505050505050505050565b610b0e612642565b6000610b226017546001600160a01b031690565b6001600160a01b03161415610b6d5760405162461bcd60e51b815260206004820152601160248201527014dc1b1a5d13585a5b881b9bdd081cd95d607a1b6044820152606401610a63565b6000610b816018546001600160a01b031690565b6001600160a01b031614610bcf5760405162461bcd60e51b815260206004820152601560248201527414dc1b1a5d08185b1c9958591e4818dc99585d1959605a1b6044820152606401610a63565b6000610be36017546001600160a01b031690565b6001600160a01b0316637601f7828787878787336040518763ffffffff1660e01b8152600401610c1896959493929190613968565b602060405180830381600087803b158015610c3257600080fd5b505af1158015610c46573d6000803e3d6000fd5b505050506040513d601f19601f82011682018060405250810190610c6a91906139b9565b601880546001600160a01b0319166001600160a01b03831617905590505b505050505050565b600063152a902d60e11b6001600160e01b031983161480610cb55750610cb5826126a3565b92915050565b606060028054610cca906139d6565b80601f0160208091040260200160405190810160405280929190818152602001828054610cf6906139d6565b8015610d435780601f10610d1857610100808354040283529160200191610d43565b820191906000526020600020905b815481529060010190602001808311610d2657829003601f168201915b5050505050905090565b6000610d58826126f1565b610d75576040516333d1c03960e21b815260040160405180910390fd5b506000908152600660205260409020546001600160a01b031690565b6000610d9c826112b2565b9050336001600160a01b03821614610dd557610db8813361096f565b610dd5576040516367d9dca160e11b815260040160405180910390fd5b60008281526006602052604080822080546001600160a01b0319166001600160a01b0387811691821790925591518593918516917f8c5be1e5ebec7d5bd14f71427d1e84f3dd0314c0f7b2291e5b200ac8c7c3b92591a4505050565b610e39612642565b600d91909155600e55565b6000610e4f82612718565b9050836001600160a01b0316816001600160a01b031614610e825760405162a1148160e81b815260040160405180910390fd5b60008281526006602052604090208054338082146001600160a01b03881690911417610ecf57610eb2863361096f565b610ecf57604051632ce44b5f60e11b815260040160405180910390fd5b6001600160a01b038516610ef657604051633a954ecd60e21b815260040160405180910390fd5b8015610f0157600082555b6001600160a01b038681166000908152600560205260408082208054600019019055918716808252919020805460010190554260a01b17600160e11b17600085815260046020526040902055600160e11b8316610f8c5760018401600081815260046020526040902054610f8a576000548114610f8a5760008181526004602052604090208490555b505b83856001600160a01b0316876001600160a01b03167fddf252ad1be2c89b69c2b068fc378daa952ba7f163c4a11628f55a4df523b3ef60405160405180910390a4610c88565b6000610fe66018546001600160a01b031690565b6001600160a01b0316141561100d5760405162461bcd60e51b8152600401610a6390613855565b871561102157611021868686868686611d4c565b60005b87518110156110655761105588828151811061104257611042613a11565b6020026020010151888888888888610a28565b61105e81613a3d565b9050611024565b50611071898989612780565b505050505050505050565b611084612642565b601655565b600080611095846126f1565b6110d55760405162461bcd60e51b81526020600482015260116024820152702737b732bc34b9ba32b73a103a37b5b2b760791b6044820152606401610a63565b6018546001600160a01b0316156110f9576018546001600160a01b0316915061110e565b6009546201000090046001600160a01b031691505b6000612710601354856111219190613a58565b61112b9190613a77565b9150505b9250929050565b61113e612642565b600f805460ff19811660ff90911615179055565b61115a612642565b600061116e6018546001600160a01b031690565b6001600160a01b0316146111d05760405162461bcd60e51b8152602060048201526024808201527f43616e6e6f74207769746864726177207769746820616e2061637469766520736044820152631c1b1a5d60e21b6064820152608401610a63565b604051600090339047908381818185875af1925050503d8060008114611212576040519150601f19603f3d011682016040523d82523d6000602084013e611217565b606091505b505090508061125d5760405162461bcd60e51b8152602060048201526012602482015271436f756c64206e6f7420776974686472617760701b6044820152606401610a63565b50565b61127b83838360405180602001604052806000815250611d08565b505050565b611288612642565b805161129b906010906020840190612cc5565b5050565b6112a7612642565b601491909155601555565b6000610cb582612718565b601080546112ca906139d6565b80601f01602080910402602001604051908101604052809291908181526020018280546112f6906139d6565b80156113435780601f1061131857610100808354040283529160200191611343565b820191906000526020600020905b81548152906001019060200180831161132657829003601f168201915b505050505081565b611353612642565b600054600a546113638383613a99565b106113805760405162461bcd60e51b8152600401610a6390613ab1565b60005b8281101561127b576113a9336113998385613a99565b6113a4906001613a99565b6127e2565b806113b381613a3d565b915050611383565b60006001600160a01b0382166113e4576040516323d3ad8160e21b815260040160405180910390fd5b506001600160a01b03166000908152600560205260409020546001600160401b031690565b611411612642565b61141b60006127fc565b565b6008546001906001600160a01b03161580159061148657506000600854600160f81b900460ff16600281111561145557611455613007565b1480611486575080801561148657506001600854600160f81b900460ff16600281111561148457611484613007565b145b806114b75750801580156114b757506002600854600160f81b900460ff1660028111156114b5576114b5613007565b145b15611592576008546040516370a0823160e01b8152336004820152600160a01b82046001600160581b0316916001600160a01b0316906370a0823190602401602060405180830381600087803b15801561151057600080fd5b505af1158015611524573d6000803e3d6000fd5b505050506040513d601f19601f820116820180604052508101906115489190613ae6565b10156115925760405162461bcd60e51b81526020600482015260196024820152783237903737ba1037bbb7103932b8bab4b932b2103a37b5b2b760391b6044820152606401610a63565b60145442101580156115a657506015544211155b6115e05760405162461bcd60e51b815260206004820152600b60248201526a6e6f742070726573616c6560a81b6044820152606401610a63565b600054600f5460ff16156116365760405162461bcd60e51b815260206004820152601b60248201527f53616c65206d7573742062652061637469766520746f206d696e7400000000006044820152606401610a63565b600a546116438883613a99565b11156116615760405162461bcd60e51b8152600401610a6390613ab1565b6116e4848480806020026020016040519081016040528093929190818152602001838360200280828437600092019190915250506016546040516bffffffffffffffffffffffff193360601b166020820152603481018c9052605481018b9052909250607401905060405160208183030381529060405280519060200120612858565b61171f5760405162461bcd60e51b815260206004820152600c60248201526b1b9bdd08185c1c1c9bdd995960a21b6044820152606401610a63565b6117298786613a58565b34101561176d5760405162461bcd60e51b8152602060048201526012602482015271496e73756666696369656e742066756e647360701b6044820152606401610a63565b8587611778336113bb565b6117829190613a99565b11156117c25760405162461bcd60e51b815260206004820152600f60248201526e6d696e74656420746f6f206d616e7960881b6044820152606401610a63565b6117cc33886127e2565b60005b8781101561181e5760408051338152602081018490526001909301927f30385c845b448a36257a6a1716e6ad2e1bc2cbe333cde1e69fe849ad6511adfe910160405180910390a16001016117cf565b5050505050505050565b600061183c6018546001600160a01b031690565b6001600160a01b031614156118635760405162461bcd60e51b8152600401610a6390613855565b81156118715761187161286e565b60005b815181101561127b5761189f82828151811061189257611892613a11565b6020026020010151612525565b6118a881613a3d565b9050611874565b6118b7612642565b805161129b906011906020840190612cc5565b606060038054610cca906139d6565b6008546000906001600160a01b03161580159061194257506000600854600160f81b900460ff16600281111561191157611911613007565b1480611942575080801561194257506001600854600160f81b900460ff16600281111561194057611940613007565b145b8061197357508015801561197357506002600854600160f81b900460ff16600281111561197157611971613007565b145b15611a4e576008546040516370a0823160e01b8152336004820152600160a01b82046001600160581b0316916001600160a01b0316906370a0823190602401602060405180830381600087803b1580156119cc57600080fd5b505af11580156119e0573d6000803e3d6000fd5b505050506040513d601f19601f82011682018060405250810190611a049190613ae6565b1015611a4e5760405162461bcd60e51b81526020600482015260196024820152783237903737ba1037bbb7103932b8bab4b932b2103a37b5b2b760391b6044820152606401610a63565b600054600d544210801590611a655750600e544211155b611aa95760405162461bcd60e51b815260206004820152601560248201527429b0b632b99030b932903737ba1030b1ba34bb329760591b6044820152606401610a63565b600f5460ff1615611afc5760405162461bcd60e51b815260206004820152601b60248201527f53616c65206d7573742062652061637469766520746f206d696e7400000000006044820152606401610a63565b600a54611b098483613a99565b1115611b275760405162461bcd60e51b8152600401610a6390613ab1565b600a54811115611b645760405162461bcd60e51b815260206004820152600860248201526714d3d3110813d55560c21b6044820152606401610a63565b82600b54611b729190613a58565b341015611bb65760405162461bcd60e51b8152602060048201526012602482015271496e73756666696369656e742066756e647360701b6044820152606401610a63565b600c5415611c1057600c54831115611c105760405162461bcd60e51b815260206004820152601c60248201527f4578636565646564206d6178206e756d62657220706572206d696e74000000006044820152606401610a63565b611c1a33846127e2565b60005b83811015611c6c5760408051338152602081018490526001909301927f30385c845b448a36257a6a1716e6ad2e1bc2cbe333cde1e69fe849ad6511adfe910160405180910390a1600101611c1d565b50505050565b6001600160a01b038216331415611c9c5760405163b06307db60e01b815260040160405180910390fd5b3360008181526007602090815260408083206001600160a01b03871680855290835292819020805460ff191686151590811790915590519081529192917f17307eab39ab6107e8899845ad3d59bd9653f200f220920489ca2b5937696c31910160405180910390a35050565b611d13848484610e44565b6001600160a01b0383163b15611c6c57611d2f84848484612922565b611c6c576040516368d2bf6b60e11b815260040160405180910390fd5b6000611d606018546001600160a01b031690565b6001600160a01b03161415611d875760405162461bcd60e51b8152600401610a6390613855565b611d8f61286e565b6017546001600160a01b03166001600160a01b031663e61cb05e611dbb6018546001600160a01b031690565b8888888888886040518863ffffffff1660e01b8152600401611de39796959493929190613aff565b600060405180830381600087803b158015611dfd57600080fd5b505af1158015611e11573d6000803e3d6000fd5b50505050505050505050565b611e25612642565b600054600a548190611e378483613a99565b1115611e555760405162461bcd60e51b8152600401610a6390613ab1565b8183015b80831015611f0a57611e948585848603818110611e7857611e78613a11565b9050602002016020810190611e8d9190613325565b60016127e2565b7f30385c845b448a36257a6a1716e6ad2e1bc2cbe333cde1e69fe849ad6511adfe8585848603818110611ec957611ec9613a11565b9050602002016020810190611ede9190613325565b604080516001600160a01b039092168252602082018690520160405180910390a1600190920191611e59565b5050505050565b6060611f1c826126f1565b611f3957604051630a14c4b560e41b815260040160405180910390fd5b6012546001600160a01b031615611fca5760125460405163c87b56dd60e01b8152600481018490526001600160a01b039091169063c87b56dd9060240160006040518083038186803b158015611f8e57600080fd5b505afa158015611fa2573d6000803e3d6000fd5b505050506040513d6000823e601f3d908101601f19168201604052610cb59190810190613b58565b610cb582612a1a565b600954610100900460ff1615808015611ff35750600954600160ff909116105b8061200d5750303b15801561200d575060095460ff166001145b6120705760405162461bcd60e51b815260206004820152602e60248201527f496e697469616c697a61626c653a20636f6e747261637420697320616c72656160448201526d191e481a5b9a5d1a585b1a5e995960921b6064820152608401610a63565b6009805460ff191660011790558015612093576009805461ff0019166101001790555b61209c876127fc565b855180516120b291600291602090910190612cc5565b5060208087015180516120c9926003920190612cc5565b5060008055606080870151600a556080870151600b5560a0870151600c55610120870151600d55610140870151600e5561016087015160135560408088015160098054911515600160b01b0260ff60b01b1990921691909117905590860151601980546001600160a01b039283166001600160a01b03199182161790915560178054868416921691909117905585516008805460208901516001600160581b0316600160a01b026001600160f81b031990911692909316919091179190911780825591860151869282906001600160f81b0316600160f81b8360028111156121b3576121b3613007565b0217905550505060c086015160165560e08601516014556101008601516015556001600160a01b038316158015906121f057506000856040015151115b1561226e57601280546001600160a01b0319166001600160a01b03851690811790915560408681015190516342b53ffd60e11b815263856a7ffa9161223791600401612f8d565b600060405180830381600087803b15801561225157600080fd5b505af1158015612265573d6000803e3d6000fd5b5050505061229d565b8451805161228491601191602090910190612cc5565b50602080860151805161229b926010920190612cc5565b505b80156122e3576009805461ff0019169055604051600181527f7f26b83ff96e1f2b6a682f133852f6798a09c465da95921460cefb38474024989060200160405180910390a15b50505050505050565b6122f4612642565b600954600160b01b900460ff1661235b5760405162461bcd60e51b815260206004820152602560248201527f63616e6e6f742061646a7573742073697a65206f66207468697320636f6c6c6560448201526431ba34b7b760d91b6064820152608401610a63565b8061236560005490565b11156123a95760405162461bcd60e51b8152602060048201526013602482015272063616e6e6f742064656372656173652063617606c1b6044820152606401610a63565b600a55565b6012546060906001600160a01b03166123ce5760118054610cca906139d6565b601260009054906101000a90046001600160a01b03166001600160a01b031663e8a3d4856040518163ffffffff1660e01b815260040160006040518083038186803b15801561241c57600080fd5b505afa158015612430573d6000803e3d6000fd5b505050506040513d6000823e601f3d908101601f191682016040526124589190810190613b58565b905090565b6000600d5442101580156124735750600e544211155b8015612458575050600f5460ff161590565b61248d612642565b6001600160a01b0381166124f25760405162461bcd60e51b815260206004820152602660248201527f4f776e61626c653a206e6577206f776e657220697320746865207a65726f206160448201526564647265737360d01b6064820152608401610a63565b61125d816127fc565b612503612642565b601280546001600160a01b0319166001600160a01b0392909216919091179055565b6040516370a0823160e01b81523060048201526000906001600160a01b038316906370a082319060240160206040518083038186803b15801561256757600080fd5b505afa15801561257b573d6000803e3d6000fd5b505050506040513d601f19601f8201168201806040525081019061259f9190613ae6565b9050816001600160a01b031663a9059cbb6125c26018546001600160a01b031690565b6040516001600160e01b031960e084901b1681526001600160a01b03909116600482015260248101849052604401602060405180830381600087803b15801561260a57600080fd5b505af115801561261e573d6000803e3d6000fd5b505050506040513d601f19601f8201168201806040525081019061127b9190613bce565b6009546001600160a01b036201000090910416331461141b5760405162461bcd60e51b815260206004820181905260248201527f4f776e61626c653a2063616c6c6572206973206e6f7420746865206f776e65726044820152606401610a63565b60006301ffc9a760e01b6001600160e01b0319831614806126d457506380ac58cd60e01b6001600160e01b03198316145b80610cb55750506001600160e01b031916635b5e139f60e01b1490565b6000805482108015610cb5575050600090815260046020526040902054600160e01b161590565b60008160005481101561276757600081815260046020526040902054600160e01b8116612765575b8061275e575060001901600081815260046020526040902054612740565b9392505050565b505b604051636f96cda160e11b815260040160405180910390fd5b601754604051636e5f691960e01b81526001600160a01b0390911690636e5f6919906127b490869086908690600401613beb565b600060405180830381600087803b1580156127ce57600080fd5b505af11580156122e3573d6000803e3d6000fd5b61129b828260405180602001604052806000815250612a9e565b600980546001600160a01b038381166201000081810262010000600160b01b031985161790945560405193909204169182907f8be0079c531659141344cd1fd0a4f28419497f9722a3daafe3b4186f6b6457e090600090a35050565b6000826128658584612b04565b14949350505050565b60006128826018546001600160a01b031690565b6001600160a01b03164760405160006040518083038185875af1925050503d80600081146128cc576040519150601f19603f3d011682016040523d82523d6000602084013e6128d1565b606091505b505090508061125d5760405162461bcd60e51b815260206004820152601f60248201527f436f756c64206e6f74207472616e736665722045544820746f2073706c6974006044820152606401610a63565b604051630a85bd0160e11b81526000906001600160a01b0385169063150b7a0290612957903390899088908890600401613c4e565b602060405180830381600087803b15801561297157600080fd5b505af19250505080156129a1575060408051601f3d908101601f1916820190925261299e91810190613c8b565b60015b6129fc573d8080156129cf576040519150601f19603f3d011682016040523d82523d6000602084013e6129d4565b606091505b5080516129f4576040516368d2bf6b60e11b815260040160405180910390fd5b805181602001fd5b6001600160e01b031916630a85bd0160e11b1490505b949350505050565b6060612a25826126f1565b612a4257604051630a14c4b560e41b815260040160405180910390fd5b6000612a4c612b51565b9050805160001415612a6d576040518060200160405280600081525061275e565b80612a7784612b60565b604051602001612a88929190613ca8565b6040516020818303038152906040529392505050565b612aa88383612ba2565b6001600160a01b0383163b1561127b576000548281035b612ad26000868380600101945086612922565b612aef576040516368d2bf6b60e11b815260040160405180910390fd5b818110612abf578160005414611f0a57600080fd5b600081815b8451811015612b4957612b3582868381518110612b2857612b28613a11565b6020026020010151612c99565b915080612b4181613a3d565b915050612b09565b509392505050565b606060108054610cca906139d6565b604080516080019081905280825b600183039250600a81066030018353600a900480612b8b57612b90565b612b6e565b50819003601f19909101908152919050565b60005481612bc35760405163b562e8dd60e01b815260040160405180910390fd5b6001600160a01b03831660008181526005602090815260408083208054680100000000000000018802019055848352600490915281206001851460e11b4260a01b178317905582840190839083907fddf252ad1be2c89b69c2b068fc378daa952ba7f163c4a11628f55a4df523b3ef8180a4600183015b818114612c7257808360007fddf252ad1be2c89b69c2b068fc378daa952ba7f163c4a11628f55a4df523b3ef600080a4600101612c3a565b5081612c9057604051622e076360e81b815260040160405180910390fd5b60005550505050565b6000818310612cb557600082815260208490526040902061275e565b5060009182526020526040902090565b828054612cd1906139d6565b90600052602060002090601f016020900481019282612cf35760008555612d39565b82601f10612d0c57805160ff1916838001178555612d39565b82800160010185558215612d39579182015b82811115612d39578251825591602001919060010190612d1e565b50612d45929150612d49565b5090565b5b80821115612d455760008155600101612d4a565b6001600160a01b038116811461125d57600080fd5b60008083601f840112612d8557600080fd5b5081356001600160401b03811115612d9c57600080fd5b6020830191508360208260051b850101111561112f57600080fd5b803563ffffffff81168114612dcb57600080fd5b919050565b8035612dcb81612d5e565b600080600080600080600060a0888a031215612df657600080fd5b8735612e0181612d5e565b965060208801356001600160401b0380821115612e1d57600080fd5b612e298b838c01612d73565b909850965060408a0135915080821115612e4257600080fd5b50612e4f8a828b01612d73565b9095509350612e62905060608901612db7565b91506080880135612e7281612d5e565b8091505092959891949750929550565b600080600080600060608688031215612e9a57600080fd5b85356001600160401b0380821115612eb157600080fd5b612ebd89838a01612d73565b90975095506020880135915080821115612ed657600080fd5b50612ee388828901612d73565b9094509250612ef6905060408701612db7565b90509295509295909350565b6001600160e01b03198116811461125d57600080fd5b600060208284031215612f2a57600080fd5b813561275e81612f02565b60005b83811015612f50578181015183820152602001612f38565b83811115611c6c5750506000910152565b60008151808452612f79816020860160208601612f35565b601f01601f19169290920160200192915050565b60208152600061275e6020830184612f61565b600060208284031215612fb257600080fd5b5035919050565b60008060408385031215612fcc57600080fd5b8235612fd781612d5e565b946020939093013593505050565b60008060408385031215612ff857600080fd5b50508035926020909101359150565b634e487b7160e01b600052602160045260246000fd5b6001600160a01b03841681526001600160581b0383166020820152606081016003831061305a57634e487b7160e01b600052602160045260246000fd5b826040830152949350505050565b60008060006060848603121561307d57600080fd5b833561308881612d5e565b9250602084013561309881612d5e565b929592945050506040919091013590565b634e487b7160e01b600052604160045260246000fd5b60405161018081016001600160401b03811182821017156130e2576130e26130a9565b60405290565b604051601f8201601f191681016001600160401b0381118282101715613110576131106130a9565b604052919050565b600082601f83011261312957600080fd5b813560206001600160401b03821115613144576131446130a9565b8160051b6131538282016130e8565b928352848101820192828101908785111561316d57600080fd5b83870192505b8483101561319557823561318681612d5e565b82529183019190830190613173565b979650505050505050565b600080600080600080600080600060e08a8c0312156131be57600080fd5b89356131c981612d5e565b985060208a0135975060408a01356001600160401b03808211156131ec57600080fd5b6131f88d838e01613118565b985060608c013591508082111561320e57600080fd5b61321a8d838e01612d73565b909850965060808c013591508082111561323357600080fd5b506132408c828d01612d73565b9095509350613253905060a08b01612db7565b915060c08a013561326381612d5e565b809150509295985092959850929598565b60006001600160401b0382111561328d5761328d6130a9565b50601f01601f191660200190565b600082601f8301126132ac57600080fd5b81356132bf6132ba82613274565b6130e8565b8181528460208386010111156132d457600080fd5b816020850160208301376000918101602001919091529392505050565b60006020828403121561330357600080fd5b81356001600160401b0381111561331957600080fd5b612a128482850161329b565b60006020828403121561333757600080fd5b813561275e81612d5e565b60008060008060006080868803121561335a57600080fd5b85359450602086013593506040860135925060608601356001600160401b0381111561338557600080fd5b61339188828901612d73565b969995985093965092949392505050565b600080604083850312156133b557600080fd5b8235915060208301356001600160401b038111156133d257600080fd5b61112b85828601613118565b801515811461125d57600080fd5b8035612dcb816133de565b6000806040838503121561340a57600080fd5b823561341581612d5e565b91506020830135613425816133de565b809150509250929050565b6000806000806080858703121561344657600080fd5b843561345181612d5e565b9350602085013561346181612d5e565b92506040850135915060608501356001600160401b0381111561348357600080fd5b61348f8782880161329b565b91505092959194509250565b600080600080600080608087890312156134b457600080fd5b86356001600160401b03808211156134cb57600080fd5b6134d78a838b01612d73565b909850965060208901359150808211156134f057600080fd5b506134fd89828a01612d73565b9095509350613510905060408801612db7565b9150606087013561352081612d5e565b809150509295509295509295565b6000806020838503121561354157600080fd5b82356001600160401b0381111561355757600080fd5b61356385828601612d73565b90969095509350505050565b60006080828403121561358157600080fd5b604051608081016001600160401b0382821081831117156135a4576135a46130a9565b8160405282935084359150808211156135bc57600080fd5b6135c88683870161329b565b835260208501359150808211156135de57600080fd5b6135ea8683870161329b565b6020840152604085013591508082111561360357600080fd5b506136108582860161329b565b604083015250606083013561362481612d5e565b6060919091015292915050565b60006060828403121561364357600080fd5b604051606081018181106001600160401b0382111715613665576136656130a9565b604052905080823561367681612d5e565b815260208301356001600160581b038116811461369257600080fd5b60208201526040830135600381106136a957600080fd5b6040919091015292915050565b60008060008060008061010080888a0312156136d157600080fd5b87356136dc81612d5e565b965060208801356001600160401b03808211156136f857600080fd5b90890190610180828c03121561370d57600080fd5b6137156130bf565b82358281111561372457600080fd5b6137308d82860161329b565b82525060208301358281111561374557600080fd5b6137518d82860161329b565b602083015250613763604084016133ec565b6040820152606083013560608201526080830135608082015260a083013560a082015260c083013560c082015260e083013560e082015283830135848201526101209350838301358482015261014093508383013584820152610160935083830135848201528098505060408a01359250808311156137e157600080fd5b50506137ef89828a0161356f565b9450506137ff8860608901613631565b925061380d60c08801612dd0565b915061381b60e08801612dd0565b90509295509295509295565b6000806040838503121561383a57600080fd5b823561384581612d5e565b9150602083013561342581612d5e565b60208082526015908201527414dc1b1a5d081b9bdd0818dc99585d1959081e595d605a1b604082015260600190565b8183526000602080850194508260005b858110156138c25781356138a781612d5e565b6001600160a01b031687529582019590820190600101613894565b509495945050505050565b8183526000602080850194508260005b858110156138c25763ffffffff6138f383612db7565b16875295820195908201906001016138dd565b600060018060a01b03808b168352808a16602084015260c0604084015261393160c08401898b613884565b838103606085015261394481888a6138cd565b63ffffffff969096166080850152509290921660a090910152509695505050505050565b60808152600061397c60808301888a613884565b828103602084015261398f8187896138cd565b63ffffffff95909516604084015250506001600160a01b0391909116606090910152949350505050565b6000602082840312156139cb57600080fd5b815161275e81612d5e565b600181811c908216806139ea57607f821691505b60208210811415613a0b57634e487b7160e01b600052602260045260246000fd5b50919050565b634e487b7160e01b600052603260045260246000fd5b634e487b7160e01b600052601160045260246000fd5b6000600019821415613a5157613a51613a27565b5060010190565b6000816000190483118215151615613a7257613a72613a27565b500290565b600082613a9457634e487b7160e01b600052601260045260246000fd5b500490565b60008219821115613aac57613aac613a27565b500190565b6020808252818101527f507572636861736520776f756c6420657863656564206d617820737570706c79604082015260600190565b600060208284031215613af857600080fd5b5051919050565b600060018060a01b03808a16835260a06020840152613b2260a08401898b613884565b8381036040850152613b3581888a6138cd565b63ffffffff96909616606085015250929092166080909101525095945050505050565b600060208284031215613b6a57600080fd5b81516001600160401b03811115613b8057600080fd5b8201601f81018413613b9157600080fd5b8051613b9f6132ba82613274565b818152856020838501011115613bb457600080fd5b613bc5826020830160208601612f35565b95945050505050565b600060208284031215613be057600080fd5b815161275e816133de565b6001600160a01b038481168252602080830185905260606040840181905284519084018190526000928583019290916080860190855b81811015613c3f578551851683529483019491830191600101613c21565b50909998505050505050505050565b6001600160a01b0385811682528416602082015260408101839052608060608201819052600090613c8190830184612f61565b9695505050505050565b600060208284031215613c9d57600080fd5b815161275e81612f02565b60008351613cba818460208801612f35565b835190830190613cce818360208801612f35565b0194935050505056fea264697066735822122024034c6bdbd3541f885806d4bf69a9183a1228b52e0edd072dce74b1a875e03864736f6c63430008090033",
  "linkReferences": {},
  "deployedLinkReferences": {}
}