{
  "_format": "hh-sol-artifact-1",
  "contractName": "DCNT4907A",
  "sourceName": "contracts/DCNT4907A.sol",
  "abi": [
    {
      "inputs": [],
      "name": "ApprovalCallerNotOwnerNorApproved",
      "type": "error"
    },
    {
      "inputs": [],
      "name": "ApprovalQueryForNonexistentToken",
      "type": "error"
    },
    {
      "inputs": [],
      "name": "ApproveToCaller",
      "type": "error"
    },
    {
      "inputs": [],
      "name": "BalanceQueryForZeroAddress",
      "type": "error"
    },
    {
      "inputs": [],
      "name": "FeeTransferFailed",
      "type": "error"
    },
    {
      "inputs": [],
      "name": "MintERC2309QuantityExceedsLimit",
      "type": "error"
    },
    {
      "inputs": [],
      "name": "MintToZeroAddress",
      "type": "error"
    },
    {
      "inputs": [],
      "name": "MintZeroQuantity",
      "type": "error"
    },
    {
      "inputs": [
        {
          "internalType": "address",
          "name": "operator",
          "type": "address"
        }
      ],
      "name": "OperatorNotAllowed",
      "type": "error"
    },
    {
      "inputs": [],
      "name": "OwnerQueryForNonexistentToken",
      "type": "error"
    },
    {
      "inputs": [],
      "name": "OwnershipNotInitializedForExtraData",
      "type": "error"
    },
    {
      "inputs": [],
      "name": "SetUserCallerNotOwnerNorApproved",
      "type": "error"
    },
    {
      "inputs": [],
      "name": "TransferCallerNotOwnerNorApproved",
      "type": "error"
    },
    {
      "inputs": [],
      "name": "TransferFromIncorrectOwner",
      "type": "error"
    },
    {
      "inputs": [],
      "name": "TransferToNonERC721ReceiverImplementer",
      "type": "error"
    },
    {
      "inputs": [],
      "name": "TransferToZeroAddress",
      "type": "error"
    },
    {
      "inputs": [],
      "name": "URIQueryForNonexistentToken",
      "type": "error"
    },
    {
      "anonymous": false,
      "inputs": [
        {
          "indexed": true,
          "internalType": "address",
          "name": "owner",
          "type": "address"
        },
        {
          "indexed": true,
          "internalType": "address",
          "name": "approved",
          "type": "address"
        },
        {
          "indexed": true,
          "internalType": "uint256",
          "name": "tokenId",
          "type": "uint256"
        }
      ],
      "name": "Approval",
      "type": "event"
    },
    {
      "anonymous": false,
      "inputs": [
        {
          "indexed": true,
          "internalType": "address",
          "name": "owner",
          "type": "address"
        },
        {
          "indexed": true,
          "internalType": "address",
          "name": "operator",
          "type": "address"
        },
        {
          "indexed": false,
          "internalType": "bool",
          "name": "approved",
          "type": "bool"
        }
      ],
      "name": "ApprovalForAll",
      "type": "event"
    },
    {
      "anonymous": false,
      "inputs": [
        {
          "indexed": true,
          "internalType": "uint256",
          "name": "fromTokenId",
          "type": "uint256"
        },
        {
          "indexed": false,
          "internalType": "uint256",
          "name": "toTokenId",
          "type": "uint256"
        },
        {
          "indexed": true,
          "internalType": "address",
          "name": "from",
          "type": "address"
        },
        {
          "indexed": true,
          "internalType": "address",
          "name": "to",
          "type": "address"
        }
      ],
      "name": "ConsecutiveTransfer",
      "type": "event"
    },
    {
      "anonymous": false,
      "inputs": [
        {
          "indexed": false,
          "internalType": "uint8",
          "name": "version",
          "type": "uint8"
        }
      ],
      "name": "Initialized",
      "type": "event"
    },
    {
      "anonymous": false,
      "inputs": [
        {
          "indexed": false,
          "internalType": "address",
          "name": "sender",
          "type": "address"
        },
        {
          "indexed": false,
          "internalType": "uint256",
          "name": "tokenId_",
          "type": "uint256"
        }
      ],
      "name": "Minted",
      "type": "event"
    },
    {
      "anonymous": false,
      "inputs": [
        {
          "indexed": true,
          "internalType": "address",
          "name": "previousOwner",
          "type": "address"
        },
        {
          "indexed": true,
          "internalType": "address",
          "name": "newOwner",
          "type": "address"
        }
      ],
      "name": "OwnershipTransferred",
      "type": "event"
    },
    {
      "anonymous": false,
      "inputs": [
        {
          "indexed": true,
          "internalType": "bytes32",
          "name": "role",
          "type": "bytes32"
        },
        {
          "indexed": true,
          "internalType": "bytes32",
          "name": "previousAdminRole",
          "type": "bytes32"
        },
        {
          "indexed": true,
          "internalType": "bytes32",
          "name": "newAdminRole",
          "type": "bytes32"
        }
      ],
      "name": "RoleAdminChanged",
      "type": "event"
    },
    {
      "anonymous": false,
      "inputs": [
        {
          "indexed": true,
          "internalType": "bytes32",
          "name": "role",
          "type": "bytes32"
        },
        {
          "indexed": true,
          "internalType": "address",
          "name": "account",
          "type": "address"
        },
        {
          "indexed": true,
          "internalType": "address",
          "name": "sender",
          "type": "address"
        }
      ],
      "name": "RoleGranted",
      "type": "event"
    },
    {
      "anonymous": false,
      "inputs": [
        {
          "indexed": true,
          "internalType": "bytes32",
          "name": "role",
          "type": "bytes32"
        },
        {
          "indexed": true,
          "internalType": "address",
          "name": "account",
          "type": "address"
        },
        {
          "indexed": true,
          "internalType": "address",
          "name": "sender",
          "type": "address"
        }
      ],
      "name": "RoleRevoked",
      "type": "event"
    },
    {
      "anonymous": false,
      "inputs": [
        {
          "indexed": true,
          "internalType": "address",
          "name": "from",
          "type": "address"
        },
        {
          "indexed": true,
          "internalType": "address",
          "name": "to",
          "type": "address"
        },
        {
          "indexed": true,
          "internalType": "uint256",
          "name": "tokenId",
          "type": "uint256"
        }
      ],
      "name": "Transfer",
      "type": "event"
    },
    {
      "anonymous": false,
      "inputs": [
        {
          "indexed": true,
          "internalType": "uint256",
          "name": "tokenId",
          "type": "uint256"
        },
        {
          "indexed": true,
          "internalType": "address",
          "name": "user",
          "type": "address"
        },
        {
          "indexed": false,
          "internalType": "uint64",
          "name": "expires",
          "type": "uint64"
        }
      ],
      "name": "UpdateUser",
      "type": "event"
    },
    {
      "inputs": [],
      "name": "DEFAULT_ADMIN_ROLE",
      "outputs": [
        {
          "internalType": "bytes32",
          "name": "",
          "type": "bytes32"
        }
      ],
      "stateMutability": "view",
      "type": "function"
    },
    {
      "inputs": [],
      "name": "MAX_TOKENS",
      "outputs": [
        {
          "internalType": "uint32",
          "name": "",
          "type": "uint32"
        }
      ],
      "stateMutability": "view",
      "type": "function"
    },
    {
      "inputs": [
        {
          "internalType": "uint32",
          "name": "newCap",
          "type": "uint32"
        }
      ],
      "name": "adjustCap",
      "outputs": [],
      "stateMutability": "nonpayable",
      "type": "function"
    },
    {
      "inputs": [
        {
          "internalType": "address",
          "name": "operator",
          "type": "address"
        },
        {
          "internalType": "uint256",
          "name": "tokenId",
          "type": "uint256"
        }
      ],
      "name": "approve",
      "outputs": [],
      "stateMutability": "nonpayable",
      "type": "function"
    },
    {
      "inputs": [
        {
          "internalType": "address",
          "name": "owner",
          "type": "address"
        }
      ],
      "name": "balanceOf",
      "outputs": [
        {
          "internalType": "uint256",
          "name": "",
          "type": "uint256"
        }
      ],
      "stateMutability": "view",
      "type": "function"
    },
    {
      "inputs": [],
      "name": "baseURI",
      "outputs": [
        {
          "internalType": "string",
          "name": "",
          "type": "string"
        }
      ],
      "stateMutability": "view",
      "type": "function"
    },
    {
      "inputs": [],
      "name": "contractURI",
      "outputs": [
        {
          "internalType": "string",
          "name": "",
          "type": "string"
        }
      ],
      "stateMutability": "view",
      "type": "function"
    },
    {
      "inputs": [],
      "name": "contractVersion",
      "outputs": [
        {
          "internalType": "uint32",
          "name": "",
          "type": "uint32"
        }
      ],
      "stateMutability": "view",
      "type": "function"
    },
    {
      "inputs": [
        {
          "internalType": "address",
          "name": "_splitMain",
          "type": "address"
        },
        {
          "internalType": "address[]",
          "name": "accounts",
          "type": "address[]"
        },
        {
          "internalType": "uint32[]",
          "name": "percentAllocations",
          "type": "uint32[]"
        },
        {
          "internalType": "uint32",
          "name": "distributorFee",
          "type": "uint32"
        }
      ],
      "name": "createSplit",
      "outputs": [],
      "stateMutability": "nonpayable",
      "type": "function"
    },
    {
      "inputs": [
        {
          "internalType": "address",
          "name": "account",
          "type": "address"
        },
        {
          "internalType": "uint256",
          "name": "withdrawETH",
          "type": "uint256"
        },
        {
          "internalType": "contract ERC20[]",
          "name": "tokens",
          "type": "address[]"
        },
        {
          "internalType": "address[]",
          "name": "accounts",
          "type": "address[]"
        },
        {
          "internalType": "uint32[]",
          "name": "percentAllocations",
          "type": "uint32[]"
        },
        {
          "internalType": "uint32",
          "name": "distributorFee",
          "type": "uint32"
        },
        {
          "internalType": "address",
          "name": "distributorAddress",
          "type": "address"
        }
      ],
      "name": "distributeAndWithdraw",
      "outputs": [],
      "stateMutability": "nonpayable",
      "type": "function"
    },
    {
      "inputs": [
        {
          "internalType": "contract ERC20",
          "name": "token",
          "type": "address"
        },
        {
          "internalType": "address[]",
          "name": "accounts",
          "type": "address[]"
        },
        {
          "internalType": "uint32[]",
          "name": "percentAllocations",
          "type": "uint32[]"
        },
        {
          "internalType": "uint32",
          "name": "distributorFee",
          "type": "uint32"
        },
        {
          "internalType": "address",
          "name": "distributorAddress",
          "type": "address"
        }
      ],
      "name": "distributeERC20",
      "outputs": [],
      "stateMutability": "nonpayable",
      "type": "function"
    },
    {
      "inputs": [
        {
          "internalType": "address[]",
          "name": "accounts",
          "type": "address[]"
        },
        {
          "internalType": "uint32[]",
          "name": "percentAllocations",
          "type": "uint32[]"
        },
        {
          "internalType": "uint32",
          "name": "distributorFee",
          "type": "uint32"
        },
        {
          "internalType": "address",
          "name": "distributorAddress",
          "type": "address"
        }
      ],
      "name": "distributeETH",
      "outputs": [],
      "stateMutability": "nonpayable",
      "type": "function"
    },
    {
      "inputs": [],
      "name": "edition",
      "outputs": [
        {
          "internalType": "bool",
          "name": "hasAdjustableCap",
          "type": "bool"
        },
        {
          "internalType": "bool",
          "name": "isSoulbound",
          "type": "bool"
        },
        {
          "internalType": "uint32",
          "name": "maxTokens",
          "type": "uint32"
        },
        {
          "internalType": "uint32",
          "name": "maxTokenPurchase",
          "type": "uint32"
        },
        {
          "internalType": "uint32",
          "name": "presaleStart",
          "type": "uint32"
        },
        {
          "internalType": "uint32",
          "name": "presaleEnd",
          "type": "uint32"
        },
        {
          "internalType": "uint32",
          "name": "saleStart",
          "type": "uint32"
        },
        {
          "internalType": "uint32",
          "name": "saleEnd",
          "type": "uint32"
        },
        {
          "internalType": "uint16",
          "name": "royaltyBPS",
          "type": "uint16"
        },
        {
          "internalType": "uint96",
          "name": "tokenPrice",
          "type": "uint96"
        },
        {
          "internalType": "address",
          "name": "payoutAddress",
          "type": "address"
        },
        {
          "internalType": "bytes32",
          "name": "presaleMerkleRoot",
          "type": "bytes32"
        }
      ],
      "stateMutability": "view",
      "type": "function"
    },
    {
      "inputs": [],
      "name": "feeManager",
      "outputs": [
        {
          "internalType": "address",
          "name": "",
          "type": "address"
        }
      ],
      "stateMutability": "view",
      "type": "function"
    },
    {
      "inputs": [],
      "name": "flipSaleState",
      "outputs": [],
      "stateMutability": "nonpayable",
      "type": "function"
    },
    {
      "inputs": [
        {
          "internalType": "uint256",
          "name": "tokenId",
          "type": "uint256"
        }
      ],
      "name": "getApproved",
      "outputs": [
        {
          "internalType": "address",
          "name": "",
          "type": "address"
        }
      ],
      "stateMutability": "view",
      "type": "function"
    },
    {
      "inputs": [
        {
          "internalType": "bytes32",
          "name": "role",
          "type": "bytes32"
        }
      ],
      "name": "getRoleAdmin",
      "outputs": [
        {
          "internalType": "bytes32",
          "name": "",
          "type": "bytes32"
        }
      ],
      "stateMutability": "view",
      "type": "function"
    },
    {
      "inputs": [
        {
          "internalType": "bytes32",
          "name": "role",
          "type": "bytes32"
        },
        {
          "internalType": "address",
          "name": "account",
          "type": "address"
        }
      ],
      "name": "grantRole",
      "outputs": [],
      "stateMutability": "nonpayable",
      "type": "function"
    },
    {
      "inputs": [],
      "name": "hasAdjustableCap",
      "outputs": [
        {
          "internalType": "bool",
          "name": "",
          "type": "bool"
        }
      ],
      "stateMutability": "view",
      "type": "function"
    },
    {
      "inputs": [
        {
          "internalType": "bytes32",
          "name": "role",
          "type": "bytes32"
        },
        {
          "internalType": "address",
          "name": "account",
          "type": "address"
        }
      ],
      "name": "hasRole",
      "outputs": [
        {
          "internalType": "bool",
          "name": "",
          "type": "bool"
        }
      ],
      "stateMutability": "view",
      "type": "function"
    },
    {
      "inputs": [
        {
          "internalType": "address",
          "name": "_owner",
          "type": "address"
        },
        {
          "components": [
            {
              "internalType": "string",
              "name": "name",
              "type": "string"
            },
            {
              "internalType": "string",
              "name": "symbol",
              "type": "string"
            },
            {
              "internalType": "bool",
              "name": "hasAdjustableCap",
              "type": "bool"
            },
            {
              "internalType": "bool",
              "name": "isSoulbound",
              "type": "bool"
            },
            {
              "internalType": "uint32",
              "name": "maxTokens",
              "type": "uint32"
            },
            {
              "internalType": "uint32",
              "name": "maxTokenPurchase",
              "type": "uint32"
            },
            {
              "internalType": "uint32",
              "name": "presaleStart",
              "type": "uint32"
            },
            {
              "internalType": "uint32",
              "name": "presaleEnd",
              "type": "uint32"
            },
            {
              "internalType": "uint32",
              "name": "saleStart",
              "type": "uint32"
            },
            {
              "internalType": "uint32",
              "name": "saleEnd",
              "type": "uint32"
            },
            {
              "internalType": "uint16",
              "name": "royaltyBPS",
              "type": "uint16"
            },
            {
              "internalType": "uint96",
              "name": "tokenPrice",
              "type": "uint96"
            },
            {
              "internalType": "address",
              "name": "feeManager",
              "type": "address"
            },
            {
              "internalType": "address",
              "name": "payoutAddress",
              "type": "address"
            },
            {
              "internalType": "bytes32",
              "name": "presaleMerkleRoot",
              "type": "bytes32"
            }
          ],
          "internalType": "struct EditionConfig",
          "name": "_editionConfig",
          "type": "tuple"
        },
        {
          "components": [
            {
              "internalType": "string",
              "name": "contractURI",
              "type": "string"
            },
            {
              "internalType": "string",
              "name": "metadataURI",
              "type": "string"
            },
            {
              "internalType": "bytes",
              "name": "metadataRendererInit",
              "type": "bytes"
            },
            {
              "internalType": "address",
              "name": "parentIP",
              "type": "address"
            }
          ],
          "internalType": "struct MetadataConfig",
          "name": "_metadataConfig",
          "type": "tuple"
        },
        {
          "components": [
            {
              "internalType": "address",
              "name": "tokenAddress",
              "type": "address"
            },
            {
              "internalType": "uint88",
              "name": "minBalance",
              "type": "uint88"
            },
            {
              "internalType": "enum SaleType",
              "name": "saleType",
              "type": "uint8"
            }
          ],
          "internalType": "struct TokenGateConfig",
          "name": "_tokenGateConfig",
          "type": "tuple"
        },
        {
          "internalType": "address",
          "name": "_metadataRenderer",
          "type": "address"
        }
      ],
      "name": "initialize",
      "outputs": [],
      "stateMutability": "nonpayable",
      "type": "function"
    },
    {
      "inputs": [
        {
          "internalType": "address",
          "name": "owner",
          "type": "address"
        },
        {
          "internalType": "address",
          "name": "operator",
          "type": "address"
        }
      ],
      "name": "isApprovedForAll",
      "outputs": [
        {
          "internalType": "bool",
          "name": "",
          "type": "bool"
        }
      ],
      "stateMutability": "view",
      "type": "function"
    },
    {
      "inputs": [],
      "name": "isSoulbound",
      "outputs": [
        {
          "internalType": "bool",
          "name": "",
          "type": "bool"
        }
      ],
      "stateMutability": "view",
      "type": "function"
    },
    {
      "inputs": [],
      "name": "maxTokenPurchase",
      "outputs": [
        {
          "internalType": "uint32",
          "name": "",
          "type": "uint32"
        }
      ],
      "stateMutability": "view",
      "type": "function"
    },
    {
      "inputs": [],
      "name": "metadataRenderer",
      "outputs": [
        {
          "internalType": "address",
          "name": "",
          "type": "address"
        }
      ],
      "stateMutability": "view",
      "type": "function"
    },
    {
      "inputs": [
        {
          "internalType": "address",
          "name": "to",
          "type": "address"
        },
        {
          "internalType": "uint256",
          "name": "numberOfTokens",
          "type": "uint256"
        }
      ],
      "name": "mint",
      "outputs": [],
      "stateMutability": "payable",
      "type": "function"
    },
    {
      "inputs": [
        {
          "internalType": "address[]",
          "name": "recipients",
          "type": "address[]"
        }
      ],
      "name": "mintAirdrop",
      "outputs": [],
      "stateMutability": "nonpayable",
      "type": "function"
    },
    {
      "inputs": [
        {
          "internalType": "uint256",
          "name": "quantity",
          "type": "uint256"
        }
      ],
      "name": "mintFee",
      "outputs": [
        {
          "internalType": "uint256",
          "name": "fee",
          "type": "uint256"
        }
      ],
      "stateMutability": "view",
      "type": "function"
    },
    {
      "inputs": [
        {
          "internalType": "address",
          "name": "to",
          "type": "address"
        },
        {
          "internalType": "uint256",
          "name": "quantity",
          "type": "uint256"
        },
        {
          "internalType": "uint256",
          "name": "maxQuantity",
          "type": "uint256"
        },
        {
          "internalType": "uint256",
          "name": "pricePerToken",
          "type": "uint256"
        },
        {
          "internalType": "bytes32[]",
          "name": "merkleProof",
          "type": "bytes32[]"
        }
      ],
      "name": "mintPresale",
      "outputs": [],
      "stateMutability": "payable",
      "type": "function"
    },
    {
      "inputs": [],
      "name": "name",
      "outputs": [
        {
          "internalType": "string",
          "name": "",
          "type": "string"
        }
      ],
      "stateMutability": "view",
      "type": "function"
    },
    {
      "inputs": [],
      "name": "operatorFilterRegistry",
      "outputs": [
        {
          "internalType": "contract IOperatorFilterRegistry",
          "name": "",
          "type": "address"
        }
      ],
      "stateMutability": "view",
      "type": "function"
    },
    {
      "inputs": [],
      "name": "owner",
      "outputs": [
        {
          "internalType": "address",
          "name": "",
          "type": "address"
        }
      ],
      "stateMutability": "view",
      "type": "function"
    },
    {
      "inputs": [
        {
          "internalType": "uint256",
          "name": "tokenId",
          "type": "uint256"
        }
      ],
      "name": "ownerOf",
      "outputs": [
        {
          "internalType": "address",
          "name": "",
          "type": "address"
        }
      ],
      "stateMutability": "view",
      "type": "function"
    },
    {
      "inputs": [],
      "name": "parentIP",
      "outputs": [
        {
          "internalType": "address",
          "name": "",
          "type": "address"
        }
      ],
      "stateMutability": "view",
      "type": "function"
    },
    {
      "inputs": [],
      "name": "payoutAddress",
      "outputs": [
        {
          "internalType": "address",
          "name": "",
          "type": "address"
        }
      ],
      "stateMutability": "view",
      "type": "function"
    },
    {
      "inputs": [],
      "name": "presaleEnd",
      "outputs": [
        {
          "internalType": "uint32",
          "name": "",
          "type": "uint32"
        }
      ],
      "stateMutability": "view",
      "type": "function"
    },
    {
      "inputs": [],
      "name": "presaleMerkleRoot",
      "outputs": [
        {
          "internalType": "bytes32",
          "name": "",
          "type": "bytes32"
        }
      ],
      "stateMutability": "view",
      "type": "function"
    },
    {
      "inputs": [],
      "name": "presaleStart",
      "outputs": [
        {
          "internalType": "uint32",
          "name": "",
          "type": "uint32"
        }
      ],
      "stateMutability": "view",
      "type": "function"
    },
    {
      "inputs": [],
      "name": "renounceOwnership",
      "outputs": [],
      "stateMutability": "nonpayable",
      "type": "function"
    },
    {
      "inputs": [
        {
          "internalType": "bytes32",
          "name": "role",
          "type": "bytes32"
        },
        {
          "internalType": "address",
          "name": "account",
          "type": "address"
        }
      ],
      "name": "renounceRole",
      "outputs": [],
      "stateMutability": "nonpayable",
      "type": "function"
    },
    {
      "inputs": [
        {
          "internalType": "uint256",
          "name": "numReserved",
          "type": "uint256"
        }
      ],
      "name": "reserveDCNT",
      "outputs": [],
      "stateMutability": "nonpayable",
      "type": "function"
    },
    {
      "inputs": [
        {
          "internalType": "bytes32",
          "name": "role",
          "type": "bytes32"
        },
        {
          "internalType": "address",
          "name": "account",
          "type": "address"
        }
      ],
      "name": "revokeRole",
      "outputs": [],
      "stateMutability": "nonpayable",
      "type": "function"
    },
    {
      "inputs": [],
      "name": "royaltyBPS",
      "outputs": [
        {
          "internalType": "uint16",
          "name": "",
          "type": "uint16"
        }
      ],
      "stateMutability": "view",
      "type": "function"
    },
    {
      "inputs": [
        {
          "internalType": "uint256",
          "name": "tokenId",
          "type": "uint256"
        },
        {
          "internalType": "uint256",
          "name": "salePrice",
          "type": "uint256"
        }
      ],
      "name": "royaltyInfo",
      "outputs": [
        {
          "internalType": "address",
          "name": "receiver",
          "type": "address"
        },
        {
          "internalType": "uint256",
          "name": "royaltyAmount",
          "type": "uint256"
        }
      ],
      "stateMutability": "view",
      "type": "function"
    },
    {
      "inputs": [
        {
          "internalType": "address",
          "name": "from",
          "type": "address"
        },
        {
          "internalType": "address",
          "name": "to",
          "type": "address"
        },
        {
          "internalType": "uint256",
          "name": "tokenId",
          "type": "uint256"
        }
      ],
      "name": "safeTransferFrom",
      "outputs": [],
      "stateMutability": "nonpayable",
      "type": "function"
    },
    {
      "inputs": [
        {
          "internalType": "address",
          "name": "from",
          "type": "address"
        },
        {
          "internalType": "address",
          "name": "to",
          "type": "address"
        },
        {
          "internalType": "uint256",
          "name": "tokenId",
          "type": "uint256"
        },
        {
          "internalType": "bytes",
          "name": "_data",
          "type": "bytes"
        }
      ],
      "name": "safeTransferFrom",
      "outputs": [],
      "stateMutability": "nonpayable",
      "type": "function"
    },
    {
      "inputs": [],
      "name": "saleEnd",
      "outputs": [
        {
          "internalType": "uint32",
          "name": "",
          "type": "uint32"
        }
      ],
      "stateMutability": "view",
      "type": "function"
    },
    {
      "inputs": [],
      "name": "saleIsActive",
      "outputs": [
        {
          "internalType": "bool",
          "name": "_saleIsActive",
          "type": "bool"
        }
      ],
      "stateMutability": "view",
      "type": "function"
    },
    {
      "inputs": [],
      "name": "saleIsPaused",
      "outputs": [
        {
          "internalType": "bool",
          "name": "",
          "type": "bool"
        }
      ],
      "stateMutability": "view",
      "type": "function"
    },
    {
      "inputs": [],
      "name": "saleStart",
      "outputs": [
        {
          "internalType": "uint32",
          "name": "",
          "type": "uint32"
        }
      ],
      "stateMutability": "view",
      "type": "function"
    },
    {
      "inputs": [
        {
          "internalType": "address",
          "name": "operator",
          "type": "address"
        },
        {
          "internalType": "bool",
          "name": "approved",
          "type": "bool"
        }
      ],
      "name": "setApprovalForAll",
      "outputs": [],
      "stateMutability": "nonpayable",
      "type": "function"
    },
    {
      "inputs": [
        {
          "internalType": "string",
          "name": "uri",
          "type": "string"
        }
      ],
      "name": "setBaseURI",
      "outputs": [],
      "stateMutability": "nonpayable",
      "type": "function"
    },
    {
      "inputs": [
        {
          "internalType": "string",
          "name": "uri",
          "type": "string"
        }
      ],
      "name": "setContractURI",
      "outputs": [],
      "stateMutability": "nonpayable",
      "type": "function"
    },
    {
      "inputs": [
        {
          "internalType": "address",
          "name": "_metadataRenderer",
          "type": "address"
        }
      ],
      "name": "setMetadataRenderer",
      "outputs": [],
      "stateMutability": "nonpayable",
      "type": "function"
    },
    {
      "inputs": [
        {
          "internalType": "address",
          "name": "_payoutAddress",
          "type": "address"
        }
      ],
      "name": "setPayoutAddress",
      "outputs": [],
      "stateMutability": "nonpayable",
      "type": "function"
    },
    {
      "inputs": [
        {
          "internalType": "bytes32",
          "name": "_presaleMerkleRoot",
          "type": "bytes32"
        }
      ],
      "name": "setPresaleMerkleRoot",
      "outputs": [],
      "stateMutability": "nonpayable",
      "type": "function"
    },
    {
      "inputs": [
        {
          "components": [
            {
              "internalType": "address",
              "name": "tokenAddress",
              "type": "address"
            },
            {
              "internalType": "uint88",
              "name": "minBalance",
              "type": "uint88"
            },
            {
              "internalType": "enum SaleType",
              "name": "saleType",
              "type": "uint8"
            }
          ],
          "internalType": "struct TokenGateConfig",
          "name": "_tokenGateConfig",
          "type": "tuple"
        }
      ],
      "name": "setTokenGate",
      "outputs": [],
      "stateMutability": "nonpayable",
      "type": "function"
    },
    {
      "inputs": [
        {
          "internalType": "uint256",
          "name": "tokenId",
          "type": "uint256"
        },
        {
          "internalType": "address",
          "name": "user",
          "type": "address"
        },
        {
          "internalType": "uint64",
          "name": "expires",
          "type": "uint64"
        }
      ],
      "name": "setUser",
      "outputs": [],
      "stateMutability": "nonpayable",
      "type": "function"
    },
    {
      "inputs": [],
      "name": "splitMain",
      "outputs": [
        {
          "internalType": "address",
          "name": "",
          "type": "address"
        }
      ],
      "stateMutability": "view",
      "type": "function"
    },
    {
      "inputs": [],
      "name": "splitWallet",
      "outputs": [
        {
          "internalType": "address",
          "name": "",
          "type": "address"
        }
      ],
      "stateMutability": "view",
      "type": "function"
    },
    {
      "inputs": [
        {
          "internalType": "bytes4",
          "name": "interfaceId",
          "type": "bytes4"
        }
      ],
      "name": "supportsInterface",
      "outputs": [
        {
          "internalType": "bool",
          "name": "",
          "type": "bool"
        }
      ],
      "stateMutability": "view",
      "type": "function"
    },
    {
      "inputs": [],
      "name": "symbol",
      "outputs": [
        {
          "internalType": "string",
          "name": "",
          "type": "string"
        }
      ],
      "stateMutability": "view",
      "type": "function"
    },
    {
      "inputs": [],
      "name": "tokenGateConfig",
      "outputs": [
        {
          "internalType": "address",
          "name": "tokenAddress",
          "type": "address"
        },
        {
          "internalType": "uint88",
          "name": "minBalance",
          "type": "uint88"
        },
        {
          "internalType": "enum SaleType",
          "name": "saleType",
          "type": "uint8"
        }
      ],
      "stateMutability": "view",
      "type": "function"
    },
    {
      "inputs": [],
      "name": "tokenPrice",
      "outputs": [
        {
          "internalType": "uint96",
          "name": "",
          "type": "uint96"
        }
      ],
      "stateMutability": "view",
      "type": "function"
    },
    {
      "inputs": [
        {
          "internalType": "uint256",
          "name": "tokenId",
          "type": "uint256"
        }
      ],
      "name": "tokenURI",
      "outputs": [
        {
          "internalType": "string",
          "name": "",
          "type": "string"
        }
      ],
      "stateMutability": "view",
      "type": "function"
    },
    {
      "inputs": [],
      "name": "totalSupply",
      "outputs": [
        {
          "internalType": "uint256",
          "name": "",
          "type": "uint256"
        }
      ],
      "stateMutability": "view",
      "type": "function"
    },
    {
      "inputs": [
        {
          "internalType": "address",
          "name": "from",
          "type": "address"
        },
        {
          "internalType": "address",
          "name": "to",
          "type": "address"
        },
        {
          "internalType": "uint256",
          "name": "tokenId",
          "type": "uint256"
        }
      ],
      "name": "transferFrom",
      "outputs": [],
      "stateMutability": "nonpayable",
      "type": "function"
    },
    {
      "inputs": [
        {
          "internalType": "address",
          "name": "newOwner",
          "type": "address"
        }
      ],
      "name": "transferOwnership",
      "outputs": [],
      "stateMutability": "nonpayable",
      "type": "function"
    },
    {
      "inputs": [
        {
          "internalType": "uint256",
          "name": "transferETH",
          "type": "uint256"
        },
        {
          "internalType": "contract ERC20[]",
          "name": "tokens",
          "type": "address[]"
        }
      ],
      "name": "transferToSplit",
      "outputs": [],
      "stateMutability": "nonpayable",
      "type": "function"
    },
    {
      "inputs": [
        {
          "internalType": "bool",
          "name": "enable",
          "type": "bool"
        },
        {
          "internalType": "address",
          "name": "operatorFilter",
          "type": "address"
        }
      ],
      "name": "updateOperatorFilter",
      "outputs": [],
      "stateMutability": "nonpayable",
      "type": "function"
    },
    {
      "inputs": [
        {
          "internalType": "uint32",
          "name": "newStart",
          "type": "uint32"
        },
        {
          "internalType": "uint32",
          "name": "newEnd",
          "type": "uint32"
        }
      ],
      "name": "updatePresaleStartEnd",
      "outputs": [],
      "stateMutability": "nonpayable",
      "type": "function"
    },
    {
      "inputs": [
        {
          "internalType": "uint32",
          "name": "newStart",
          "type": "uint32"
        },
        {
          "internalType": "uint32",
          "name": "newEnd",
          "type": "uint32"
        }
      ],
      "name": "updateSaleStartEnd",
      "outputs": [],
      "stateMutability": "nonpayable",
      "type": "function"
    },
    {
      "inputs": [
        {
          "internalType": "uint256",
          "name": "tokenId",
          "type": "uint256"
        }
      ],
      "name": "userExpires",
      "outputs": [
        {
          "internalType": "uint256",
          "name": "",
          "type": "uint256"
        }
      ],
      "stateMutability": "view",
      "type": "function"
    },
    {
      "inputs": [
        {
          "internalType": "uint256",
          "name": "tokenId",
          "type": "uint256"
        }
      ],
      "name": "userOf",
      "outputs": [
        {
          "internalType": "address",
          "name": "",
          "type": "address"
        }
      ],
      "stateMutability": "view",
      "type": "function"
    },
    {
      "inputs": [],
      "name": "withdraw",
      "outputs": [],
      "stateMutability": "nonpayable",
      "type": "function"
    }
  ],
  "bytecode": "0x60a06040523480156200001157600080fd5b5060086200001f336200002e565b63ffffffff166080526200008a565b600a80546001600160a01b038381166201000081810262010000600160b01b031985161790945560405193909204169182907f8be0079c531659141344cd1fd0a4f28419497f9722a3daafe3b4186f6b6457e090600090a35050565b6080516154ce620000a66000396000610b8a01526154ce6000f3fe60806040526004361061043b5760003560e01c806379ab7c8e11610234578063c2f1f14a1161012e578063e8a3d485116100b6578063f2fde38b1161007a578063f2fde38b14610ea1578063f47c84c514610ec1578063f7eca6d014610ee2578063fd4fe8a814610eff578063ff45640d14610f1f57600080fd5b8063e8a3d48514610dee578063e985e9c514610e03578063eb8d244414610e4c578063ed1f24ad14610e61578063f0cc8b6214610e8157600080fd5b8063d0fb0203116100fd578063d0fb020314610d4b578063d547741f14610d6b578063de8801e514610d8b578063e030565e14610dad578063e6c350c114610dcd57600080fd5b8063c2f1f14a14610cb7578063c4559d5a14610ceb578063c595317014610d0b578063c87b56dd14610d2b57600080fd5b806395d89b41116101bc578063b0ccc31e11610180578063b0ccc31e14610c05578063b80476d014610c27578063b88d4fde14610c47578063b9c9d93a14610c67578063c10b935814610c9557600080fd5b806395d89b4114610b66578063a0a8e46014610b7b578063a217fddf14610bae578063a22cb46514610bc3578063ab0bcc4114610be357600080fd5b80638e98f86a116102035780638e98f86a146109c45780638fc88c4814610ade57806391d1485414610b0e578063931cf0f414610b2e578063938e3d7b14610b4657600080fd5b806379ab7c8e146109385780637ff9b596146109585780638a35ace3146109805780638da5cb5b146109a057600080fd5b80632d75fea61161034557806355f804b3116102cd5780636c1951ae116102915780636c1951ae146108a357806370319970146108c357806370a08231146108e3578063713b978714610903578063715018a61461092357600080fd5b806355f804b314610809578063569c66c5146108295780635b8d02d7146108495780636352211e1461086e5780636c0360eb1461088e57600080fd5b806334918dfd1161031457806334918dfd1461078c57806336568abe146107a15780633ccfd60b146107c157806340c10f19146107d657806342842e0e146107e957600080fd5b80632d75fea61461070c5780632f2ff15d1461072c57806333ea3e6d1461074c57806333ea51a81461076c57600080fd5b806318160ddd116103c857806323b872dd1161039757806323b872dd1461063d578063248a9ca31461065d578063284a44a81461068d57806328d7b276146106ad5780632a55205a146106cd57600080fd5b806318160ddd146105975780631dbdedbd146105ba57806322212e2b14610606578063229f3e291461061b57600080fd5b8063095ea7b31161040f578063095ea7b3146104f157806309aa3dcf146105115780630ad6c616146105445780630b8999f3146105645780630e769b2b1461057757600080fd5b80625f16fb1461044057806301ffc9a71461046257806306fdde0314610497578063081812fc146104b9575b600080fd5b34801561044c57600080fd5b5061046061045b366004614196565b610f3f565b005b34801561046e57600080fd5b5061048261047d366004614253565b610ff6565b60405190151581526020015b60405180910390f35b3480156104a357600080fd5b506104ac611007565b60405161048e91906142c0565b3480156104c557600080fd5b506104d96104d43660046142d3565b611099565b6040516001600160a01b03909116815260200161048e565b3480156104fd57600080fd5b5061046061050c3660046142ec565b6110dd565b34801561051d57600080fd5b50600d54600160301b900463ffffffff165b60405163ffffffff909116815260200161048e565b34801561055057600080fd5b5061046061055f366004614318565b6110eb565b61046061057236600461434b565b611152565b34801561058357600080fd5b50600b546104d9906001600160a01b031681565b3480156105a357600080fd5b50600154600054035b60405190815260200161048e565b3480156105c657600080fd5b506009546105f7906001600160a01b03811690600160a01b81046001600160581b031690600160f81b900460ff1683565b60405161048e939291906143d3565b34801561061257600080fd5b50600f546105ac565b34801561062757600080fd5b50600d54600160701b900463ffffffff1661052f565b34801561064957600080fd5b5061046061065836600461441e565b611586565b34801561066957600080fd5b506105ac6106783660046142d3565b60009081526008602052604090206001015490565b34801561069957600080fd5b506104606106a8366004614556565b61172c565b3480156106b957600080fd5b506104606106c83660046142d3565b6117b8565b3480156106d957600080fd5b506106ed6106e836600461462a565b6117e4565b604080516001600160a01b03909316835260208301919091520161048e565b34801561071857600080fd5b50610460610727366004614665565b6118cf565b34801561073857600080fd5b5061046061074736600461469e565b611af6565b34801561075857600080fd5b506104606107673660046146c3565b611b1b565b34801561077857600080fd5b50610460610787366004614754565b611c28565b34801561079857600080fd5b50610460611c77565b3480156107ad57600080fd5b506104606107bc36600461469e565b611cbf565b3480156107cd57600080fd5b50610460611d39565b6104606107e43660046142ec565b611e7d565b3480156107f557600080fd5b5061046061080436600461441e565b612326565b34801561081557600080fd5b506104606108243660046147ee565b612341565b34801561083557600080fd5b506104606108443660046149a4565b612374565b34801561085557600080fd5b50600e54600160601b90046001600160a01b03166104d9565b34801561087a57600080fd5b506104d96108893660046142d3565b6128a5565b34801561089a57600080fd5b506104ac6128b0565b3480156108af57600080fd5b506104606108be3660046142d3565b61293e565b3480156108cf57600080fd5b506012546104d9906001600160a01b031681565b3480156108ef57600080fd5b506105ac6108fe366004614754565b6129d9565b34801561090f57600080fd5b50600c546104d9906001600160a01b031681565b34801561092f57600080fd5b50610460612a27565b34801561094457600080fd5b50610460610953366004614b6f565b612a3b565b34801561096457600080fd5b50600e546040516001600160601b03909116815260200161048e565b34801561098c57600080fd5b506105ac61099b3660046142d3565b612aaf565b3480156109ac57600080fd5b50600a546201000090046001600160a01b03166104d9565b3480156109d057600080fd5b50600d54600e54600f54610a5b9260ff8082169361010083049091169262010000830463ffffffff90811693600160301b8104821693600160501b8204831693600160701b8304841693600160901b8404811693600160b01b810490911692600160d01b90910461ffff16916001600160601b03821691600160601b90046001600160a01b0316908c565b604080519c15158d529a151560208d015263ffffffff998a169a8c019a909a5296881660608b015294871660808a015292861660a089015290851660c088015290931660e086015261ffff9092166101008501526001600160601b039091166101208401526001600160a01b03166101408301526101608201526101800161048e565b348015610aea57600080fd5b506105ac610af93660046142d3565b60009081526015602052604090205460a01c90565b348015610b1a57600080fd5b50610482610b2936600461469e565b612b4b565b348015610b3a57600080fd5b50600d5460ff16610482565b348015610b5257600080fd5b50610460610b613660046147ee565b612b76565b348015610b7257600080fd5b506104ac612ba9565b348015610b8757600080fd5b507f000000000000000000000000000000000000000000000000000000000000000061052f565b348015610bba57600080fd5b506105ac600081565b348015610bcf57600080fd5b50610460610bde366004614bab565b612bb8565b348015610bef57600080fd5b50600d54600160901b900463ffffffff1661052f565b348015610c1157600080fd5b506104d96daaeb6d7670e522a718067333cd4e81565b348015610c3357600080fd5b50610460610c42366004614bd9565b612bc2565b348015610c5357600080fd5b50610460610c62366004614bf4565b612cc1565b348015610c7357600080fd5b50600d54600160d01b900461ffff1660405161ffff909116815260200161048e565b348015610ca157600080fd5b50600d54600160b01b900463ffffffff1661052f565b348015610cc357600080fd5b506104d9610cd23660046142d3565b6000908152601560205260409020544260a01b81110290565b348015610cf757600080fd5b50610460610d06366004614c5f565b612d0b565b348015610d1757600080fd5b50610460610d26366004614cf2565b612db5565b348015610d3757600080fd5b506104ac610d463660046142d3565b612ed4565b348015610d5757600080fd5b506014546104d9906001600160a01b031681565b348015610d7757600080fd5b50610460610d8636600461469e565b612edf565b348015610d9757600080fd5b50600d54600160501b900463ffffffff1661052f565b348015610db957600080fd5b50610460610dc8366004614d33565b612f04565b348015610dd957600080fd5b5060125461048290600160a01b900460ff1681565b348015610dfa57600080fd5b506104ac612fd4565b348015610e0f57600080fd5b50610482610e1e366004614d81565b6001600160a01b03918216600090815260076020908152604080832093909416825291909152205460ff1690565b348015610e5857600080fd5b50610482613074565b348015610e6d57600080fd5b50610460610e7c366004614318565b6130be565b348015610e8d57600080fd5b506013546104d9906001600160a01b031681565b348015610ead57600080fd5b50610460610ebc366004614754565b613125565b348015610ecd57600080fd5b50600d5462010000900463ffffffff1661052f565b348015610eee57600080fd5b50600d54610100900460ff16610482565b348015610f0b57600080fd5b50610460610f1a366004614754565b61319e565b348015610f2b57600080fd5b50610460610f3a366004614d9f565b6131e7565b600c546001600160a01b0316610f705760405162461bcd60e51b8152600401610f6790614db7565b60405180910390fd5b610f798761321b565b600b54600c54604051630ac0898160e11b81526001600160a01b0392831692631581130292610fbb929116908b908b908b908b908b908b908b90600401614e68565b600060405180830381600087803b158015610fd557600080fd5b505af1158015610fe9573d6000803e3d6000fd5b5050505050505050505050565b6000611001826132ff565b92915050565b60606002805461101690614eca565b80601f016020809104026020016040519081016040528092919081815260200182805461104290614eca565b801561108f5780601f106110645761010080835404028352916020019161108f565b820191906000526020600020905b81548152906001019060200180831161107257829003601f168201915b5050505050905090565b60006110a482613327565b6110c1576040516333d1c03960e21b815260040160405180910390fd5b506000908152600660205260409020546001600160a01b031690565b6110e7828261334e565b5050565b6110f6600033612b4b565b6111125760405162461bcd60e51b8152600401610f6790614efe565b600d805467ffffffffffffffff60901b1916600160901b63ffffffff9485160263ffffffff60b01b191617600160b01b9290931691909102919091179055565b6009546001906001600160a01b0316158015906111bb57506000600954600160f81b900460ff16600281111561118a5761118a6143bd565b14806111bb57508080156111bb57506001600954600160f81b900460ff1660028111156111b9576111b96143bd565b145b806111ec5750801580156111ec57506002600954600160f81b900460ff1660028111156111ea576111ea6143bd565b145b156112b8576009546040516370a0823160e01b8152336004820152600160a01b82046001600160581b0316916001600160a01b0316906370a08231906024016020604051808303816000875af115801561124a573d6000803e3d6000fd5b505050506040513d601f19601f8201168201806040525081019061126e9190614f21565b10156112b85760405162461bcd60e51b81526020600482015260196024820152783237903737ba1037bbb7103932b8bab4b932b2103a37b5b2b760391b6044820152606401610f67565b600d54600160501b900463ffffffff1642108015906112e65750600d54600160701b900463ffffffff164211155b6113205760405162461bcd60e51b815260206004820152600b60248201526a6e6f742070726573616c6560a81b6044820152606401610f67565b600054601254600160a01b900460ff161561137d5760405162461bcd60e51b815260206004820152601b60248201527f53616c65206d7573742062652061637469766520746f206d696e7400000000006044820152606401610f67565b600d5462010000900463ffffffff166113968883614f50565b11156113b45760405162461bcd60e51b8152600401610f6790614f63565b61143884848080602002602001604051908101604052809392919081815260200183836020028082843760009201919091525050600f546040516bffffffffffffffffffffffff1960608f901b166020820152603481018c9052605481018b9052909250607401905060405160208183030381529060405280519060200120613362565b6114735760405162461bcd60e51b815260206004820152600c60248201526b1b9bdd08185c1c1c9bdd995960a21b6044820152606401610f67565b61147d8786614f98565b3410156114c15760405162461bcd60e51b8152602060048201526012602482015271496e73756666696369656e742066756e647360701b6044820152606401610f67565b85876114cc8a6129d9565b6114d69190614f50565b11156115165760405162461bcd60e51b815260206004820152600f60248201526e6d696e74656420746f6f206d616e7960881b6044820152606401610f67565b6115208888613378565b60005b8781101561157b57604080516001600160a01b038b168152602081018490526001909301927f30385c845b448a36257a6a1716e6ad2e1bc2cbe333cde1e69fe849ad6511adfe910160405180910390a1600101611523565b505050505050505050565b600061159182613392565b9050836001600160a01b0316816001600160a01b0316146115c45760405162a1148160e81b815260040160405180910390fd5b60008281526006602052604090208054338082146001600160a01b03881690911417611611576115f48633610e1e565b61161157604051632ce44b5f60e11b815260040160405180910390fd5b6001600160a01b03851661163857604051633a954ecd60e21b815260040160405180910390fd5b6116458686866001613400565b801561165057600082555b6001600160a01b038681166000908152600560205260408082208054600019019055918716808252919020805460010190554260a01b17600160e11b17600085815260046020526040812091909155600160e11b841690036116e2576001840160008181526004602052604081205490036116e05760005481146116e05760008181526004602052604090208490555b505b83856001600160a01b0316876001600160a01b03167fddf252ad1be2c89b69c2b068fc378daa952ba7f163c4a11628f55a4df523b3ef60405160405180910390a45b505050505050565b600c546001600160a01b03166117545760405162461bcd60e51b8152600401610f6790614db7565b871561176857611768868686868686612d0b565b60005b87518110156117ac5761179c88828151811061178957611789614faf565b6020026020010151888888888888610f3f565b6117a581614fc5565b905061176b565b5061157b89898961340c565b6117c3600033612b4b565b6117df5760405162461bcd60e51b8152600401610f6790614efe565b600f55565b6000806117f084613327565b6118305760405162461bcd60e51b81526020600482015260116024820152702737b732bc34b9ba32b73a103a37b5b2b760791b6044820152606401610f67565b600c546001600160a01b03161561185457600c546001600160a01b0316915061189b565b600e54600160601b90046001600160a01b03161561188657600e54600160601b90046001600160a01b0316915061189b565b600a546201000090046001600160a01b031691505b600d54600090612710906118ba90600160d01b900461ffff1686614f98565b6118c49190614fde565b9150505b9250929050565b6118da600033612b4b565b6118f65760405162461bcd60e51b8152600401610f6790614efe565b60405163c3c5a54760e01b81523060048201819052906daaeb6d7670e522a718067333cd4e9063c3c5a547906024016020604051808303816000875af1158015611944573d6000803e3d6000fd5b505050506040513d601f19601f820116820180604052508101906119689190615000565b1580156119725750825b156119ec57604051633e9f1edf60e11b81526001600160a01b038083166004830152831660248201526daaeb6d7670e522a718067333cd4e90637d3e3dbe906044015b600060405180830381600087803b1580156119cf57600080fd5b505af11580156119e3573d6000803e3d6000fd5b50505050505050565b8215611a3457604051632cc5350560e21b81526001600160a01b038083166004830152831660248201526daaeb6d7670e522a718067333cd4e9063b314d414906044016119b5565b60405163034a0dc160e41b81526001600160a01b0382166004820152600060248201526daaeb6d7670e522a718067333cd4e906334a0dc1090604401600060405180830381600087803b158015611a8a57600080fd5b505af1158015611a9e573d6000803e3d6000fd5b5050604051631761612360e11b81526001600160a01b03841660048201526daaeb6d7670e522a718067333cd4e9250632ec2c2469150602401600060405180830381600087803b1580156119cf57600080fd5b505050565b600082815260086020526040902060010154611b1181613440565b611af1838361344a565b611b236134d0565b600c546001600160a01b031615611b745760405162461bcd60e51b815260206004820152601560248201527414dc1b1a5d08185b1c9958591e4818dc99585d1959605a1b6044820152606401610f67565b600b80546001600160a01b0319166001600160a01b038816908117909155604051633b00fbc160e11b8152637601f78290611bbd9088908890889088908890339060040161501d565b6020604051808303816000875af1158015611bdc573d6000803e3d6000fd5b505050506040513d601f19601f82011682018060405250810190611c00919061506e565b600c80546001600160a01b0319166001600160a01b0392909216919091179055505050505050565b611c33600033612b4b565b611c4f5760405162461bcd60e51b8152600401610f6790614efe565b600e80546001600160a01b03909216600160601b026001600160601b03909216919091179055565b611c82600033612b4b565b611c9e5760405162461bcd60e51b8152600401610f6790614efe565b6012805460ff60a01b198116600160a01b9182900460ff1615909102179055565b6001600160a01b0381163314611d2f5760405162461bcd60e51b815260206004820152602f60248201527f416363657373436f6e74726f6c3a2063616e206f6e6c792072656e6f756e636560448201526e103937b632b9903337b91039b2b63360891b6064820152608401610f67565b6110e78282613531565b600c546001600160a01b031615611d9e5760405162461bcd60e51b8152602060048201526024808201527f43616e6e6f74207769746864726177207769746820616e2061637469766520736044820152631c1b1a5d60e21b6064820152608401610f67565b600e54600090600160601b90046001600160a01b0316611dcf57600a546201000090046001600160a01b0316611de3565b600e54600160601b90046001600160a01b03165b90506000816001600160a01b03164760405160006040518083038185875af1925050503d8060008114611e32576040519150601f19603f3d011682016040523d82523d6000602084013e611e37565b606091505b50509050806110e75760405162461bcd60e51b8152602060048201526012602482015271436f756c64206e6f7420776974686472617760701b6044820152606401610f67565b6009546000906001600160a01b031615801590611ee657506000600954600160f81b900460ff166002811115611eb557611eb56143bd565b1480611ee65750808015611ee657506001600954600160f81b900460ff166002811115611ee457611ee46143bd565b145b80611f17575080158015611f1757506002600954600160f81b900460ff166002811115611f1557611f156143bd565b145b15611fe3576009546040516370a0823160e01b8152336004820152600160a01b82046001600160581b0316916001600160a01b0316906370a08231906024016020604051808303816000875af1158015611f75573d6000803e3d6000fd5b505050506040513d601f19601f82011682018060405250810190611f999190614f21565b1015611fe35760405162461bcd60e51b81526020600482015260196024820152783237903737ba1037bbb7103932b8bab4b932b2103a37b5b2b760391b6044820152606401610f67565b600054600d54600160901b900463ffffffff1642108015906120145750600d54600160b01b900463ffffffff164211155b6120585760405162461bcd60e51b815260206004820152601560248201527429b0b632b99030b932903737ba1030b1ba34bb329760591b6044820152606401610f67565b601254600160a01b900460ff16156120b25760405162461bcd60e51b815260206004820152601b60248201527f53616c65206d7573742062652061637469766520746f206d696e7400000000006044820152606401610f67565b600d5462010000900463ffffffff166120cb8483614f50565b11156120e95760405162461bcd60e51b8152600401610f6790614f63565b600d5462010000900463ffffffff168111156121325760405162461bcd60e51b815260206004820152600860248201526714d3d3110813d55560c21b6044820152606401610f67565b60145460009081906001600160a01b0316156121cd57601454600e54604051637096335b60e01b81526001600160601b039091166004820152602481018790526001600160a01b0390911690637096335b906044016040805180830381865afa1580156121a3573d6000803e3d6000fd5b505050506040513d601f19601f820116820180604052508101906121c7919061508b565b90925090505b600e5460009083906121e99088906001600160601b0316614f98565b6121f39190614f50565b90508034101561223a5760405162461bcd60e51b8152602060048201526012602482015271496e73756666696369656e742066756e647360701b6044820152606401610f67565b600d54600160301b900463ffffffff16156122ae57600d54600160301b900463ffffffff168611156122ae5760405162461bcd60e51b815260206004820152601c60248201527f4578636565646564206d6178206e756d62657220706572206d696e74000000006044820152606401610f67565b6122b88787613378565b60005b8681101561231357604080516001600160a01b038a168152602081018790526001909601957f30385c845b448a36257a6a1716e6ad2e1bc2cbe333cde1e69fe849ad6511adfe910160405180910390a16001016122bb565b506119e36123218385614f50565b613598565b611af183838360405180602001604052806000815250612cc1565b61234c600033612b4b565b6123685760405162461bcd60e51b8152600401610f6790614efe565b60106110e782826150f5565b600a54610100900460ff16158080156123945750600a54600160ff909116105b806123ae5750303b1580156123ae5750600a5460ff166001145b6124115760405162461bcd60e51b815260206004820152602e60248201527f496e697469616c697a61626c653a20636f6e747261637420697320616c72656160448201526d191e481a5b9a5d1a585b1a5e995960921b6064820152608401610f67565b600a805460ff19166001179055801561243457600a805461ff0019166101001790555b61243d8661367d565b61244860008761344a565b845160029061245790826150f5565b50602085015160039061246a90826150f5565b5060008055610180850151601480546001600160a01b039283166001600160a01b0319918216179091556060860151601380549184169190921617905583516009805460208701516001600160581b0316600160a01b026001600160f81b0319909116929093169190911791909117808255604085015185929182906001600160f81b0316600160f81b836002811115612506576125066143bd565b0217905550905050604051806101800160405280866040015115158152602001866060015115158152602001866080015163ffffffff1681526020018660a0015163ffffffff1681526020018660c0015163ffffffff1681526020018660e0015163ffffffff16815260200186610100015163ffffffff16815260200186610120015163ffffffff16815260200186610140015161ffff1681526020018661016001516001600160601b03168152602001866101a001516001600160a01b03168152602001866101c00151815250600d60008201518160000160006101000a81548160ff02191690831515021790555060208201518160000160016101000a81548160ff02191690831515021790555060408201518160000160026101000a81548163ffffffff021916908363ffffffff16021790555060608201518160000160066101000a81548163ffffffff021916908363ffffffff160217905550608082015181600001600a6101000a81548163ffffffff021916908363ffffffff16021790555060a082015181600001600e6101000a81548163ffffffff021916908363ffffffff16021790555060c08201518160000160126101000a81548163ffffffff021916908363ffffffff16021790555060e08201518160000160166101000a81548163ffffffff021916908363ffffffff16021790555061010082015181600001601a6101000a81548161ffff021916908361ffff1602179055506101208201518160010160006101000a8154816001600160601b0302191690836001600160601b0316021790555061014082015181600101600c6101000a8154816001600160a01b0302191690836001600160a01b03160217905550610160820151816002015590505060006001600160a01b0316826001600160a01b0316141580156127b657506000846040015151115b1561283457601280546001600160a01b0319166001600160a01b03841690811790915560408581015190516342b53ffd60e11b815263856a7ffa916127fd916004016142c0565b600060405180830381600087803b15801561281757600080fd5b505af115801561282b573d6000803e3d6000fd5b50505050612858565b835160119061284390826150f5565b50602084015160109061285690826150f5565b505b801561172457600a805461ff0019169055604051600181527f7f26b83ff96e1f2b6a682f133852f6798a09c465da95921460cefb38474024989060200160405180910390a1505050505050565b600061100182613392565b601080546128bd90614eca565b80601f01602080910402602001604051908101604052809291908181526020018280546128e990614eca565b80156129365780601f1061290b57610100808354040283529160200191612936565b820191906000526020600020905b81548152906001019060200180831161291957829003601f168201915b505050505081565b612949600033612b4b565b6129655760405162461bcd60e51b8152600401610f6790614efe565b600054600d5462010000900463ffffffff166129818383614f50565b1061299e5760405162461bcd60e51b8152600401610f6790614f63565b60005b82811015611af1576129c7336129b78385614f50565b6129c2906001614f50565b613378565b806129d181614fc5565b9150506129a1565b60006001600160a01b038216612a02576040516323d3ad8160e21b815260040160405180910390fd5b506001600160a01b03166000908152600560205260409020546001600160401b031690565b612a2f6134d0565b612a39600061367d565b565b600c546001600160a01b0316612a635760405162461bcd60e51b8152600401610f6790614db7565b8115612a7157612a716136d9565b60005b8151811015611af157612a9f828281518110612a9257612a92614faf565b602002602001015161321b565b612aa881614fc5565b9050612a74565b6014546000906001600160a01b031615612b4657601454600e54604051637096335b60e01b81526001600160601b039091166004820152602481018490526001600160a01b0390911690637096335b906044016040805180830381865afa158015612b1e573d6000803e3d6000fd5b505050506040513d601f19601f82011682018060405250810190612b42919061508b565b5090505b919050565b60009182526008602090815260408084206001600160a01b0393909316845291905290205460ff1690565b612b81600033612b4b565b612b9d5760405162461bcd60e51b8152600401610f6790614efe565b60116110e782826150f5565b60606003805461101690614eca565b6110e7828261377c565b612bcd600033612b4b565b612be95760405162461bcd60e51b8152600401610f6790614efe565b600d5460ff16612c495760405162461bcd60e51b815260206004820152602560248201527f63616e6e6f742061646a7573742073697a65206f66207468697320636f6c6c6560448201526431ba34b7b760d91b6064820152608401610f67565b8063ffffffff16612c5960005490565b1115612c9d5760405162461bcd60e51b8152602060048201526013602482015272063616e6e6f742064656372656173652063617606c1b6044820152606401610f67565b600d805463ffffffff909216620100000265ffffffff000019909216919091179055565b612ccc848484611586565b6001600160a01b0383163b15612d0557612ce884848484613790565b612d05576040516368d2bf6b60e11b815260040160405180910390fd5b50505050565b600c546001600160a01b0316612d335760405162461bcd60e51b8152600401610f6790614db7565b612d3b6136d9565b600b54600c5460405163730e582f60e11b81526001600160a01b039283169263e61cb05e92612d7b929116908a908a908a908a908a908a906004016151b4565b600060405180830381600087803b158015612d9557600080fd5b505af1158015612da9573d6000803e3d6000fd5b50505050505050505050565b612dc0600033612b4b565b612ddc5760405162461bcd60e51b8152600401610f6790614efe565b600054600d54819062010000900463ffffffff16612dfa8483614f50565b1115612e185760405162461bcd60e51b8152600401610f6790614f63565b8183015b80831015612ecd57612e578585848603818110612e3b57612e3b614faf565b9050602002016020810190612e509190614754565b6001613378565b7f30385c845b448a36257a6a1716e6ad2e1bc2cbe333cde1e69fe849ad6511adfe8585848603818110612e8c57612e8c614faf565b9050602002016020810190612ea19190614754565b604080516001600160a01b039092168252602082018690520160405180910390a1600190920191612e1c565b5050505050565b60606110018261387c565b600082815260086020526040902060010154612efa81613440565b611af18383613531565b6000612f0f846128a5565b9050336001600160a01b03821614612f6057612f2b8133610e1e565b612f605733612f3985611099565b6001600160a01b031614612f60576040516309e3bb1d60e31b815260040160405180910390fd5b6000848152601560209081526040918290206001600160a01b03861660a086901b67ffffffffffffffff60a01b16811790915591516001600160401b038516815286917f4e06b4e7000e659094299b3533b47b6aa8ad048e95e872d23d1f4ee55af89cfe910160405180910390a350505050565b6012546060906001600160a01b0316612ff4576011805461101690614eca565b601260009054906101000a90046001600160a01b03166001600160a01b031663e8a3d4856040518163ffffffff1660e01b8152600401600060405180830381865afa158015613047573d6000803e3d6000fd5b505050506040513d6000823e601f3d908101601f1916820160405261306f919081019061520d565b905090565b600d54600090600160901b900463ffffffff1642108015906130a55750600d54600160b01b900463ffffffff164211155b801561306f575050601254600160a01b900460ff161590565b6130c9600033612b4b565b6130e55760405162461bcd60e51b8152600401610f6790614efe565b600d805467ffffffffffffffff60501b1916600160501b63ffffffff9485160263ffffffff60701b191617600160701b9290931691909102919091179055565b61312d6134d0565b6001600160a01b0381166131925760405162461bcd60e51b815260206004820152602660248201527f4f776e61626c653a206e6577206f776e657220697320746865207a65726f206160448201526564647265737360d01b6064820152608401610f67565b61319b8161367d565b50565b6131a9600033612b4b565b6131c55760405162461bcd60e51b8152600401610f6790614efe565b601280546001600160a01b0319166001600160a01b0392909216919091179055565b6131f2600033612b4b565b61320e5760405162461bcd60e51b8152600401610f6790614efe565b806009611af18282615283565b6040516370a0823160e01b81523060048201526000906001600160a01b038316906370a0823190602401602060405180830381865afa158015613262573d6000803e3d6000fd5b505050506040513d601f19601f820116820180604052508101906132869190614f21565b600c5460405163a9059cbb60e01b81526001600160a01b0391821660048201526024810183905291925083169063a9059cbb906044016020604051808303816000875af11580156132db573d6000803e3d6000fd5b505050506040513d601f19601f82011682018060405250810190611af19190615000565b600061330a8261392f565b806110015750506001600160e01b031916632b424ad760e21b1490565b6000805482108015611001575050600090815260046020526040902054600160e01b161590565b8161335881613972565b611af18383613a2b565b60008261336f8584613acb565b14949350505050565b6110e7828260405180602001604052806000815250613b18565b6000816000548110156133e75760008181526004602052604081205490600160e01b821690036133e5575b806000036133de5750600019016000818152600460205260409020546133bd565b9392505050565b505b604051636f96cda160e11b815260040160405180910390fd5b612d0584848484613b7e565b600b54604051636e5f691960e01b81526001600160a01b0390911690636e5f6919906119b590869086908690600401615320565b61319b8133613bff565b6134548282612b4b565b6110e75760008281526008602090815260408083206001600160a01b03851684529091529020805460ff1916600117905561348c3390565b6001600160a01b0316816001600160a01b0316837f2f8788117e7eff1d82e926ec794901d17c78024a50270940304540a733656f0d60405160405180910390a45050565b600a546001600160a01b0362010000909104163314612a395760405162461bcd60e51b815260206004820181905260248201527f4f776e61626c653a2063616c6c6572206973206e6f7420746865206f776e65726044820152606401610f67565b61353b8282612b4b565b156110e75760008281526008602090815260408083206001600160a01b0385168085529252808320805460ff1916905551339285917ff6391f5c32d9c69d2a47ea670b442974b53935d1edc7fd64eb21e047a839171b9190a45050565b801561319b57601454604080516319b400eb60e21b815290516000926001600160a01b0316916366d003ac9160048083019260209291908290030181865afa1580156135e8573d6000803e3d6000fd5b505050506040513d601f19601f8201168201806040525081019061360c919061506e565b6001600160a01b03168260405160006040518083038185875af1925050503d8060008114613656576040519150601f19603f3d011682016040523d82523d6000602084013e61365b565b606091505b50509050806110e757604051634033e4e360e01b815260040160405180910390fd5b600a80546001600160a01b038381166201000081810262010000600160b01b031985161790945560405193909204169182907f8be0079c531659141344cd1fd0a4f28419497f9722a3daafe3b4186f6b6457e090600090a35050565b600c546040516000916001600160a01b03169047908381818185875af1925050503d8060008114613726576040519150601f19603f3d011682016040523d82523d6000602084013e61372b565b606091505b505090508061319b5760405162461bcd60e51b815260206004820152601f60248201527f436f756c64206e6f74207472616e736665722045544820746f2073706c6974006044820152606401610f67565b8161378681613972565b611af18383613c58565b604051630a85bd0160e11b81526000906001600160a01b0385169063150b7a02906137c5903390899088908890600401615383565b6020604051808303816000875af1925050508015613800575060408051601f3d908101601f191682019092526137fd918101906153c0565b60015b61385e573d80801561382e576040519150601f19603f3d011682016040523d82523d6000602084013e613833565b606091505b508051600003613856576040516368d2bf6b60e11b815260040160405180910390fd5b805181602001fd5b6001600160e01b031916630a85bd0160e11b1490505b949350505050565b606061388782613327565b6138a457604051630a14c4b560e41b815260040160405180910390fd5b6012546001600160a01b0316156139265760125460405163c87b56dd60e01b8152600481018490526001600160a01b039091169063c87b56dd90602401600060405180830381865afa1580156138fe573d6000803e3d6000fd5b505050506040513d6000823e601f3d908101601f19168201604052611001919081019061520d565b61100182613ced565b600063152a902d60e11b6001600160e01b031983161480613954575061395482613d70565b80613963575061396382613da5565b80611001575061100182613d70565b6daaeb6d7670e522a718067333cd4e3b1561319b57604051633185c44d60e21b81523060048201526001600160a01b03821660248201526daaeb6d7670e522a718067333cd4e9063c617113490604401602060405180830381865afa1580156139df573d6000803e3d6000fd5b505050506040513d601f19601f82011682018060405250810190613a039190615000565b61319b57604051633b79c77360e21b81526001600160a01b0382166004820152602401610f67565b6000613a36826128a5565b9050336001600160a01b03821614613a6f57613a528133610e1e565b613a6f576040516367d9dca160e11b815260040160405180910390fd5b60008281526006602052604080822080546001600160a01b0319166001600160a01b0387811691821790925591518593918516917f8c5be1e5ebec7d5bd14f71427d1e84f3dd0314c0f7b2291e5b200ac8c7c3b92591a4505050565b600081815b8451811015613b1057613afc82868381518110613aef57613aef614faf565b6020026020010151613df3565b915080613b0881614fc5565b915050613ad0565b509392505050565b613b228383613e1f565b6001600160a01b0383163b15611af1576000548281035b613b4c6000868380600101945086613790565b613b69576040516368d2bf6b60e11b815260040160405180910390fd5b818110613b39578160005414612ecd57600080fd5b836001600160a01b0381163314613b9857613b9833613972565b600d54610100900460ff161580613bc757506001600160a01b0385161580613bc757506001600160a01b038416155b612ecd5760405162461bcd60e51b81526020600482015260096024820152681cdbdd5b189bdd5b9960ba1b6044820152606401610f67565b613c098282612b4b565b6110e757613c1681613f2a565b613c21836020613f3c565b604051602001613c329291906153dd565b60408051601f198184030181529082905262461bcd60e51b8252610f67916004016142c0565b336001600160a01b03831603613c815760405163b06307db60e01b815260040160405180910390fd5b3360008181526007602090815260408083206001600160a01b03871680855290835292819020805460ff191686151590811790915590519081529192917f17307eab39ab6107e8899845ad3d59bd9653f200f220920489ca2b5937696c31910160405180910390a35050565b6060613cf882613327565b613d1557604051630a14c4b560e41b815260040160405180910390fd5b6000613d1f6140d7565b90508051600003613d3f57604051806020016040528060008152506133de565b80613d49846140e6565b604051602001613d5a929190615452565b6040516020818303038152906040529392505050565b60006001600160e01b03198216637965db0b60e01b148061100157506301ffc9a760e01b6001600160e01b0319831614611001565b60006301ffc9a760e01b6001600160e01b031983161480613dd657506380ac58cd60e01b6001600160e01b03198316145b806110015750506001600160e01b031916635b5e139f60e01b1490565b6000818310613e0f5760008281526020849052604090206133de565b5060009182526020526040902090565b6000805490829003613e445760405163b562e8dd60e01b815260040160405180910390fd5b613e516000848385613400565b6001600160a01b03831660008181526005602090815260408083208054680100000000000000018802019055848352600490915281206001851460e11b4260a01b178317905582840190839083907fddf252ad1be2c89b69c2b068fc378daa952ba7f163c4a11628f55a4df523b3ef8180a4600183015b818114613f0057808360007fddf252ad1be2c89b69c2b068fc378daa952ba7f163c4a11628f55a4df523b3ef600080a4600101613ec8565b5081600003613f2157604051622e076360e81b815260040160405180910390fd5b60005550505050565b60606110016001600160a01b03831660145b60606000613f4b836002614f98565b613f56906002614f50565b6001600160401b03811115613f6d57613f6d61445f565b6040519080825280601f01601f191660200182016040528015613f97576020820181803683370190505b509050600360fc1b81600081518110613fb257613fb2614faf565b60200101906001600160f81b031916908160001a905350600f60fb1b81600181518110613fe157613fe1614faf565b60200101906001600160f81b031916908160001a9053506000614005846002614f98565b614010906001614f50565b90505b6001811115614088576f181899199a1a9b1b9c1cb0b131b232b360811b85600f166010811061404457614044614faf565b1a60f81b82828151811061405a5761405a614faf565b60200101906001600160f81b031916908160001a90535060049490941c9361408181615481565b9050614013565b5083156133de5760405162461bcd60e51b815260206004820181905260248201527f537472696e67733a20686578206c656e67746820696e73756666696369656e746044820152606401610f67565b60606010805461101690614eca565b604080516080019081905280825b600183039250600a81066030018353600a9004806140f45750819003601f19909101908152919050565b6001600160a01b038116811461319b57600080fd5b60008083601f84011261414557600080fd5b5081356001600160401b0381111561415c57600080fd5b6020830191508360208260051b85010111156118c857600080fd5b803563ffffffff81168114612b4657600080fd5b8035612b468161411e565b600080600080600080600060a0888a0312156141b157600080fd5b87356141bc8161411e565b965060208801356001600160401b03808211156141d857600080fd5b6141e48b838c01614133565b909850965060408a01359150808211156141fd57600080fd5b5061420a8a828b01614133565b909550935061421d905060608901614177565b9150608088013561422d8161411e565b8091505092959891949750929550565b6001600160e01b03198116811461319b57600080fd5b60006020828403121561426557600080fd5b81356133de8161423d565b60005b8381101561428b578181015183820152602001614273565b50506000910152565b600081518084526142ac816020860160208601614270565b601f01601f19169290920160200192915050565b6020815260006133de6020830184614294565b6000602082840312156142e557600080fd5b5035919050565b600080604083850312156142ff57600080fd5b823561430a8161411e565b946020939093013593505050565b6000806040838503121561432b57600080fd5b61433483614177565b915061434260208401614177565b90509250929050565b60008060008060008060a0878903121561436457600080fd5b863561436f8161411e565b955060208701359450604087013593506060870135925060808701356001600160401b0381111561439f57600080fd5b6143ab89828a01614133565b979a9699509497509295939492505050565b634e487b7160e01b600052602160045260246000fd5b6001600160a01b03841681526001600160581b0383166020820152606081016003831061441057634e487b7160e01b600052602160045260246000fd5b826040830152949350505050565b60008060006060848603121561443357600080fd5b833561443e8161411e565b9250602084013561444e8161411e565b929592945050506040919091013590565b634e487b7160e01b600052604160045260246000fd5b6040516101e081016001600160401b03811182821017156144985761449861445f565b60405290565b604051601f8201601f191681016001600160401b03811182821017156144c6576144c661445f565b604052919050565b600082601f8301126144df57600080fd5b813560206001600160401b038211156144fa576144fa61445f565b8160051b61450982820161449e565b928352848101820192828101908785111561452357600080fd5b83870192505b8483101561454b57823561453c8161411e565b82529183019190830190614529565b979650505050505050565b600080600080600080600080600060e08a8c03121561457457600080fd5b893561457f8161411e565b985060208a0135975060408a01356001600160401b03808211156145a257600080fd5b6145ae8d838e016144ce565b985060608c01359150808211156145c457600080fd5b6145d08d838e01614133565b909850965060808c01359150808211156145e957600080fd5b506145f68c828d01614133565b9095509350614609905060a08b01614177565b915060c08a01356146198161411e565b809150509295985092959850929598565b6000806040838503121561463d57600080fd5b50508035926020909101359150565b801515811461319b57600080fd5b8035612b468161464c565b6000806040838503121561467857600080fd5b82356146838161464c565b915060208301356146938161411e565b809150509250929050565b600080604083850312156146b157600080fd5b8235915060208301356146938161411e565b600080600080600080608087890312156146dc57600080fd5b86356146e78161411e565b955060208701356001600160401b038082111561470357600080fd5b61470f8a838b01614133565b9097509550604089013591508082111561472857600080fd5b5061473589828a01614133565b9094509250614748905060608801614177565b90509295509295509295565b60006020828403121561476657600080fd5b81356133de8161411e565b60006001600160401b0382111561478a5761478a61445f565b50601f01601f191660200190565b600082601f8301126147a957600080fd5b81356147bc6147b782614771565b61449e565b8181528460208386010111156147d157600080fd5b816020850160208301376000918101602001919091529392505050565b60006020828403121561480057600080fd5b81356001600160401b0381111561481657600080fd5b61387484828501614798565b803561ffff81168114612b4657600080fd5b80356001600160601b0381168114612b4657600080fd5b60006080828403121561485d57600080fd5b604051608081016001600160401b0382821081831117156148805761488061445f565b81604052829350843591508082111561489857600080fd5b6148a486838701614798565b835260208501359150808211156148ba57600080fd5b6148c686838701614798565b602084015260408501359150808211156148df57600080fd5b506148ec85828601614798565b60408301525060608301356149008161411e565b6060919091015292915050565b6001600160581b038116811461319b57600080fd5b6003811061319b57600080fd5b60006060828403121561494157600080fd5b604051606081018181106001600160401b03821117156149635761496361445f565b60405290508082356149748161411e565b815260208301356149848161490d565b6020820152604083013561499781614922565b6040919091015292915050565b600080600080600060e086880312156149bc57600080fd5b85356149c78161411e565b945060208601356001600160401b03808211156149e357600080fd5b908701906101e0828a0312156149f857600080fd5b614a00614475565b823582811115614a0f57600080fd5b614a1b8b828601614798565b825250602083013582811115614a3057600080fd5b614a3c8b828601614798565b602083015250614a4e6040840161465a565b6040820152614a5f6060840161465a565b6060820152614a7060808401614177565b6080820152614a8160a08401614177565b60a0820152614a9260c08401614177565b60c0820152614aa360e08401614177565b60e0820152610100614ab6818501614177565b90820152610120614ac8848201614177565b90820152610140614ada848201614822565b90820152610160614aec848201614834565b90820152610180614afe84820161418b565b908201526101a0614b1084820161418b565b908201526101c0928301359281019290925290945060408701359080821115614b3857600080fd5b50614b458882890161484b565b935050614b55876060880161492f565b9150614b6360c0870161418b565b90509295509295909350565b60008060408385031215614b8257600080fd5b8235915060208301356001600160401b03811115614b9f57600080fd5b6118c4858286016144ce565b60008060408385031215614bbe57600080fd5b8235614bc98161411e565b915060208301356146938161464c565b600060208284031215614beb57600080fd5b6133de82614177565b60008060008060808587031215614c0a57600080fd5b8435614c158161411e565b93506020850135614c258161411e565b92506040850135915060608501356001600160401b03811115614c4757600080fd5b614c5387828801614798565b91505092959194509250565b60008060008060008060808789031215614c7857600080fd5b86356001600160401b0380821115614c8f57600080fd5b614c9b8a838b01614133565b90985096506020890135915080821115614cb457600080fd5b50614cc189828a01614133565b9095509350614cd4905060408801614177565b91506060870135614ce48161411e565b809150509295509295509295565b60008060208385031215614d0557600080fd5b82356001600160401b03811115614d1b57600080fd5b614d2785828601614133565b90969095509350505050565b600080600060608486031215614d4857600080fd5b833592506020840135614d5a8161411e565b915060408401356001600160401b0381168114614d7657600080fd5b809150509250925092565b60008060408385031215614d9457600080fd5b82356146838161411e565b600060608284031215614db157600080fd5b50919050565b60208082526015908201527414dc1b1a5d081b9bdd0818dc99585d1959081e595d605a1b604082015260600190565b8183526000602080850194508260005b85811015614e24578135614e098161411e565b6001600160a01b031687529582019590820190600101614df6565b509495945050505050565b8183526000602080850194508260005b85811015614e245763ffffffff614e5583614177565b1687529582019590820190600101614e3f565b600060018060a01b03808b168352808a16602084015260c06040840152614e9360c08401898b614de6565b8381036060850152614ea681888a614e2f565b63ffffffff969096166080850152509290921660a090910152509695505050505050565b600181811c90821680614ede57607f821691505b602082108103614db157634e487b7160e01b600052602260045260246000fd5b60208082526009908201526837b7363ca0b236b4b760b91b604082015260600190565b600060208284031215614f3357600080fd5b5051919050565b634e487b7160e01b600052601160045260246000fd5b8082018082111561100157611001614f3a565b6020808252818101527f507572636861736520776f756c6420657863656564206d617820737570706c79604082015260600190565b808202811582820484141761100157611001614f3a565b634e487b7160e01b600052603260045260246000fd5b600060018201614fd757614fd7614f3a565b5060010190565b600082614ffb57634e487b7160e01b600052601260045260246000fd5b500490565b60006020828403121561501257600080fd5b81516133de8161464c565b60808152600061503160808301888a614de6565b8281036020840152615044818789614e2f565b63ffffffff95909516604084015250506001600160a01b0391909116606090910152949350505050565b60006020828403121561508057600080fd5b81516133de8161411e565b6000806040838503121561509e57600080fd5b505080516020909101519092909150565b601f821115611af157600081815260208120601f850160051c810160208610156150d65750805b601f850160051c820191505b81811015611724578281556001016150e2565b81516001600160401b0381111561510e5761510e61445f565b6151228161511c8454614eca565b846150af565b602080601f831160018114615157576000841561513f5750858301515b600019600386901b1c1916600185901b178555611724565b600085815260208120601f198616915b8281101561518657888601518255948401946001909101908401615167565b50858210156151a45787850151600019600388901b60f8161c191681555b5050505050600190811b01905550565b600060018060a01b03808a16835260a060208401526151d760a08401898b614de6565b83810360408501526151ea81888a614e2f565b63ffffffff96909616606085015250929092166080909101525095945050505050565b60006020828403121561521f57600080fd5b81516001600160401b0381111561523557600080fd5b8201601f8101841361524657600080fd5b80516152546147b782614771565b81815285602083850101111561526957600080fd5b61527a826020830160208601614270565b95945050505050565b813561528e8161411e565b81546001600160a01b031981166001600160a01b0392909216918217835560208401356152ba8161490d565b6affffffffffffffffffffff60a01b60a09190911b166001600160f81b03199182168317811784556040850135916152f183614922565b6003831061530f57634e487b7160e01b600052602160045260246000fd5b921760f89190911b90911617905550565b6001600160a01b038481168252602080830185905260606040840181905284519084018190526000928583019290916080860190855b81811015615374578551851683529483019491830191600101615356565b50909998505050505050505050565b6001600160a01b03858116825284166020820152604081018390526080606082018190526000906153b690830184614294565b9695505050505050565b6000602082840312156153d257600080fd5b81516133de8161423d565b7f416363657373436f6e74726f6c3a206163636f756e7420000000000000000000815260008351615415816017850160208801614270565b7001034b99036b4b9b9b4b733903937b6329607d1b6017918401918201528351615446816028840160208801614270565b01602801949350505050565b60008351615464818460208801614270565b835190830190615478818360208801614270565b01949350505050565b60008161549057615490614f3a565b50600019019056fea26469706673582212201e98577a316c25ba6c8dfd863d01f9ba689f35c9c6f47cbe4304c6bc04e0068764736f6c63430008110033",
  "linkReferences": {},
  "deployedLinkReferences": {}
}