{
  "_format": "hh-sol-artifact-1",
  "contractName": "DCNTCrescendo",
  "sourceName": "contracts/DCNTCrescendo.sol",
  "abi": [
    {
      "anonymous": false,
      "inputs": [
        {
          "indexed": true,
          "internalType": "address",
          "name": "owner",
          "type": "address"
        },
        {
          "indexed": true,
          "internalType": "address",
          "name": "operator",
          "type": "address"
        },
        {
          "indexed": false,
          "internalType": "bool",
          "name": "approved",
          "type": "bool"
        }
      ],
      "name": "ApprovalForAll",
      "type": "event"
    },
    {
      "anonymous": false,
      "inputs": [
        {
          "indexed": true,
          "internalType": "address",
          "name": "sender",
          "type": "address"
        },
        {
          "indexed": false,
          "internalType": "uint256",
          "name": "amount",
          "type": "uint256"
        },
        {
          "indexed": false,
          "internalType": "uint256",
          "name": "id",
          "type": "uint256"
        },
        {
          "indexed": false,
          "internalType": "uint256",
          "name": "reimbursement",
          "type": "uint256"
        }
      ],
      "name": "CurvedBurn",
      "type": "event"
    },
    {
      "anonymous": false,
      "inputs": [
        {
          "indexed": true,
          "internalType": "address",
          "name": "sender",
          "type": "address"
        },
        {
          "indexed": false,
          "internalType": "uint256",
          "name": "amount",
          "type": "uint256"
        },
        {
          "indexed": false,
          "internalType": "uint256",
          "name": "id",
          "type": "uint256"
        },
        {
          "indexed": false,
          "internalType": "uint256",
          "name": "deposit",
          "type": "uint256"
        }
      ],
      "name": "CurvedMint",
      "type": "event"
    },
    {
      "anonymous": false,
      "inputs": [
        {
          "indexed": false,
          "internalType": "uint8",
          "name": "version",
          "type": "uint8"
        }
      ],
      "name": "Initialized",
      "type": "event"
    },
    {
      "anonymous": false,
      "inputs": [
        {
          "indexed": true,
          "internalType": "address",
          "name": "previousOwner",
          "type": "address"
        },
        {
          "indexed": true,
          "internalType": "address",
          "name": "newOwner",
          "type": "address"
        }
      ],
      "name": "OwnershipTransferred",
      "type": "event"
    },
    {
      "anonymous": false,
      "inputs": [
        {
          "indexed": true,
          "internalType": "address",
          "name": "operator",
          "type": "address"
        },
        {
          "indexed": true,
          "internalType": "address",
          "name": "from",
          "type": "address"
        },
        {
          "indexed": true,
          "internalType": "address",
          "name": "to",
          "type": "address"
        },
        {
          "indexed": false,
          "internalType": "uint256[]",
          "name": "ids",
          "type": "uint256[]"
        },
        {
          "indexed": false,
          "internalType": "uint256[]",
          "name": "amounts",
          "type": "uint256[]"
        }
      ],
      "name": "TransferBatch",
      "type": "event"
    },
    {
      "anonymous": false,
      "inputs": [
        {
          "indexed": true,
          "internalType": "address",
          "name": "operator",
          "type": "address"
        },
        {
          "indexed": true,
          "internalType": "address",
          "name": "from",
          "type": "address"
        },
        {
          "indexed": true,
          "internalType": "address",
          "name": "to",
          "type": "address"
        },
        {
          "indexed": false,
          "internalType": "uint256",
          "name": "id",
          "type": "uint256"
        },
        {
          "indexed": false,
          "internalType": "uint256",
          "name": "amount",
          "type": "uint256"
        }
      ],
      "name": "TransferSingle",
      "type": "event"
    },
    {
      "anonymous": false,
      "inputs": [
        {
          "indexed": false,
          "internalType": "string",
          "name": "value",
          "type": "string"
        },
        {
          "indexed": true,
          "internalType": "uint256",
          "name": "id",
          "type": "uint256"
        }
      ],
      "name": "URI",
      "type": "event"
    },
    {
      "inputs": [
        {
          "internalType": "address",
          "name": "",
          "type": "address"
        },
        {
          "internalType": "uint256",
          "name": "",
          "type": "uint256"
        }
      ],
      "name": "balanceOf",
      "outputs": [
        {
          "internalType": "uint256",
          "name": "",
          "type": "uint256"
        }
      ],
      "stateMutability": "view",
      "type": "function"
    },
    {
      "inputs": [
        {
          "internalType": "address[]",
          "name": "owners",
          "type": "address[]"
        },
        {
          "internalType": "uint256[]",
          "name": "ids",
          "type": "uint256[]"
        }
      ],
      "name": "balanceOfBatch",
      "outputs": [
        {
          "internalType": "uint256[]",
          "name": "balances",
          "type": "uint256[]"
        }
      ],
      "stateMutability": "view",
      "type": "function"
    },
    {
      "inputs": [
        {
          "internalType": "uint256",
          "name": "id",
          "type": "uint256"
        }
      ],
      "name": "buy",
      "outputs": [],
      "stateMutability": "payable",
      "type": "function"
    },
    {
      "inputs": [
        {
          "internalType": "uint256",
          "name": "amount",
          "type": "uint256"
        },
        {
          "internalType": "uint256",
          "name": "id",
          "type": "uint256"
        }
      ],
      "name": "calculateCurvedBurnReturn",
      "outputs": [
        {
          "internalType": "uint256",
          "name": "",
          "type": "uint256"
        }
      ],
      "stateMutability": "view",
      "type": "function"
    },
    {
      "inputs": [
        {
          "internalType": "uint256",
          "name": "amount",
          "type": "uint256"
        },
        {
          "internalType": "uint256",
          "name": "id",
          "type": "uint256"
        }
      ],
      "name": "calculateCurvedMintReturn",
      "outputs": [
        {
          "internalType": "uint256",
          "name": "",
          "type": "uint256"
        }
      ],
      "stateMutability": "view",
      "type": "function"
    },
    {
      "inputs": [],
      "name": "contractURI",
      "outputs": [
        {
          "internalType": "string",
          "name": "",
          "type": "string"
        }
      ],
      "stateMutability": "view",
      "type": "function"
    },
    {
      "inputs": [
        {
          "internalType": "address[]",
          "name": "accounts",
          "type": "address[]"
        },
        {
          "internalType": "uint32[]",
          "name": "percentAllocations",
          "type": "uint32[]"
        },
        {
          "internalType": "uint32",
          "name": "distributorFee",
          "type": "uint32"
        }
      ],
      "name": "createSplit",
      "outputs": [],
      "stateMutability": "nonpayable",
      "type": "function"
    },
    {
      "inputs": [
        {
          "internalType": "address",
          "name": "account",
          "type": "address"
        },
        {
          "internalType": "uint256",
          "name": "withdrawETH",
          "type": "uint256"
        },
        {
          "internalType": "contract ERC20[]",
          "name": "tokens",
          "type": "address[]"
        },
        {
          "internalType": "address[]",
          "name": "accounts",
          "type": "address[]"
        },
        {
          "internalType": "uint32[]",
          "name": "percentAllocations",
          "type": "uint32[]"
        },
        {
          "internalType": "uint32",
          "name": "distributorFee",
          "type": "uint32"
        },
        {
          "internalType": "address",
          "name": "distributorAddress",
          "type": "address"
        }
      ],
      "name": "distributeAndWithdraw",
      "outputs": [],
      "stateMutability": "nonpayable",
      "type": "function"
    },
    {
      "inputs": [
        {
          "internalType": "address",
          "name": "account",
          "type": "address"
        },
        {
          "internalType": "uint256",
          "name": "withdrawETH",
          "type": "uint256"
        },
        {
          "internalType": "contract ERC20[]",
          "name": "tokens",
          "type": "address[]"
        },
        {
          "internalType": "address[]",
          "name": "accounts",
          "type": "address[]"
        },
        {
          "internalType": "uint32[]",
          "name": "percentAllocations",
          "type": "uint32[]"
        },
        {
          "internalType": "uint32",
          "name": "distributorFee",
          "type": "uint32"
        },
        {
          "internalType": "address",
          "name": "distributorAddress",
          "type": "address"
        }
      ],
      "name": "distributeAndWithdrawFund",
      "outputs": [],
      "stateMutability": "nonpayable",
      "type": "function"
    },
    {
      "inputs": [
        {
          "internalType": "contract ERC20",
          "name": "token",
          "type": "address"
        },
        {
          "internalType": "address[]",
          "name": "accounts",
          "type": "address[]"
        },
        {
          "internalType": "uint32[]",
          "name": "percentAllocations",
          "type": "uint32[]"
        },
        {
          "internalType": "uint32",
          "name": "distributorFee",
          "type": "uint32"
        },
        {
          "internalType": "address",
          "name": "distributorAddress",
          "type": "address"
        }
      ],
      "name": "distributeERC20",
      "outputs": [],
      "stateMutability": "nonpayable",
      "type": "function"
    },
    {
      "inputs": [
        {
          "internalType": "address[]",
          "name": "accounts",
          "type": "address[]"
        },
        {
          "internalType": "uint32[]",
          "name": "percentAllocations",
          "type": "uint32[]"
        },
        {
          "internalType": "uint32",
          "name": "distributorFee",
          "type": "uint32"
        },
        {
          "internalType": "address",
          "name": "distributorAddress",
          "type": "address"
        }
      ],
      "name": "distributeETH",
      "outputs": [],
      "stateMutability": "nonpayable",
      "type": "function"
    },
    {
      "inputs": [],
      "name": "flipSaleState",
      "outputs": [],
      "stateMutability": "nonpayable",
      "type": "function"
    },
    {
      "inputs": [],
      "name": "hitch",
      "outputs": [
        {
          "internalType": "uint256",
          "name": "",
          "type": "uint256"
        }
      ],
      "stateMutability": "view",
      "type": "function"
    },
    {
      "inputs": [
        {
          "internalType": "address",
          "name": "_owner",
          "type": "address"
        },
        {
          "components": [
            {
              "internalType": "string",
              "name": "name",
              "type": "string"
            },
            {
              "internalType": "string",
              "name": "symbol",
              "type": "string"
            },
            {
              "internalType": "uint256",
              "name": "initialPrice",
              "type": "uint256"
            },
            {
              "internalType": "uint256",
              "name": "step1",
              "type": "uint256"
            },
            {
              "internalType": "uint256",
              "name": "step2",
              "type": "uint256"
            },
            {
              "internalType": "uint256",
              "name": "hitch",
              "type": "uint256"
            },
            {
              "internalType": "uint256",
              "name": "takeRateBPS",
              "type": "uint256"
            },
            {
              "internalType": "uint256",
              "name": "unlockDate",
              "type": "uint256"
            },
            {
              "internalType": "uint256",
              "name": "saleStart",
              "type": "uint256"
            },
            {
              "internalType": "uint256",
              "name": "royaltyBPS",
              "type": "uint256"
            }
          ],
          "internalType": "struct CrescendoConfig",
          "name": "_config",
          "type": "tuple"
        },
        {
          "components": [
            {
              "internalType": "string",
              "name": "contractURI",
              "type": "string"
            },
            {
              "internalType": "string",
              "name": "metadataURI",
              "type": "string"
            },
            {
              "internalType": "bytes",
              "name": "metadataRendererInit",
              "type": "bytes"
            },
            {
              "internalType": "address",
              "name": "parentIP",
              "type": "address"
            }
          ],
          "internalType": "struct MetadataConfig",
          "name": "_metadataConfig",
          "type": "tuple"
        },
        {
          "internalType": "address",
          "name": "_metadataRenderer",
          "type": "address"
        },
        {
          "internalType": "address",
          "name": "_splitMain",
          "type": "address"
        }
      ],
      "name": "initialize",
      "outputs": [],
      "stateMutability": "nonpayable",
      "type": "function"
    },
    {
      "inputs": [
        {
          "internalType": "address",
          "name": "",
          "type": "address"
        },
        {
          "internalType": "address",
          "name": "",
          "type": "address"
        }
      ],
      "name": "isApprovedForAll",
      "outputs": [
        {
          "internalType": "bool",
          "name": "",
          "type": "bool"
        }
      ],
      "stateMutability": "view",
      "type": "function"
    },
    {
      "inputs": [],
      "name": "liquidity",
      "outputs": [
        {
          "internalType": "uint256",
          "name": "",
          "type": "uint256"
        }
      ],
      "stateMutability": "view",
      "type": "function"
    },
    {
      "inputs": [],
      "name": "metadataRenderer",
      "outputs": [
        {
          "internalType": "address",
          "name": "",
          "type": "address"
        }
      ],
      "stateMutability": "view",
      "type": "function"
    },
    {
      "inputs": [],
      "name": "name",
      "outputs": [
        {
          "internalType": "string",
          "name": "",
          "type": "string"
        }
      ],
      "stateMutability": "view",
      "type": "function"
    },
    {
      "inputs": [],
      "name": "owner",
      "outputs": [
        {
          "internalType": "address",
          "name": "",
          "type": "address"
        }
      ],
      "stateMutability": "view",
      "type": "function"
    },
    {
      "inputs": [],
      "name": "parentIP",
      "outputs": [
        {
          "internalType": "address",
          "name": "",
          "type": "address"
        }
      ],
      "stateMutability": "view",
      "type": "function"
    },
    {
      "inputs": [],
      "name": "renounceOwnership",
      "outputs": [],
      "stateMutability": "nonpayable",
      "type": "function"
    },
    {
      "inputs": [],
      "name": "reserveAmt",
      "outputs": [
        {
          "internalType": "uint256",
          "name": "",
          "type": "uint256"
        }
      ],
      "stateMutability": "view",
      "type": "function"
    },
    {
      "inputs": [],
      "name": "royaltyBPS",
      "outputs": [
        {
          "internalType": "uint256",
          "name": "",
          "type": "uint256"
        }
      ],
      "stateMutability": "view",
      "type": "function"
    },
    {
      "inputs": [
        {
          "internalType": "uint256",
          "name": "tokenId",
          "type": "uint256"
        },
        {
          "internalType": "uint256",
          "name": "salePrice",
          "type": "uint256"
        }
      ],
      "name": "royaltyInfo",
      "outputs": [
        {
          "internalType": "address",
          "name": "receiver",
          "type": "address"
        },
        {
          "internalType": "uint256",
          "name": "royaltyAmount",
          "type": "uint256"
        }
      ],
      "stateMutability": "view",
      "type": "function"
    },
    {
      "inputs": [
        {
          "internalType": "address",
          "name": "from",
          "type": "address"
        },
        {
          "internalType": "address",
          "name": "to",
          "type": "address"
        },
        {
          "internalType": "uint256[]",
          "name": "ids",
          "type": "uint256[]"
        },
        {
          "internalType": "uint256[]",
          "name": "amounts",
          "type": "uint256[]"
        },
        {
          "internalType": "bytes",
          "name": "data",
          "type": "bytes"
        }
      ],
      "name": "safeBatchTransferFrom",
      "outputs": [],
      "stateMutability": "nonpayable",
      "type": "function"
    },
    {
      "inputs": [
        {
          "internalType": "address",
          "name": "from",
          "type": "address"
        },
        {
          "internalType": "address",
          "name": "to",
          "type": "address"
        },
        {
          "internalType": "uint256",
          "name": "id",
          "type": "uint256"
        },
        {
          "internalType": "uint256",
          "name": "amount",
          "type": "uint256"
        },
        {
          "internalType": "bytes",
          "name": "data",
          "type": "bytes"
        }
      ],
      "name": "safeTransferFrom",
      "outputs": [],
      "stateMutability": "nonpayable",
      "type": "function"
    },
    {
      "inputs": [],
      "name": "saleIsActive",
      "outputs": [
        {
          "internalType": "bool",
          "name": "_saleIsActive",
          "type": "bool"
        }
      ],
      "stateMutability": "view",
      "type": "function"
    },
    {
      "inputs": [],
      "name": "saleIsPaused",
      "outputs": [
        {
          "internalType": "bool",
          "name": "",
          "type": "bool"
        }
      ],
      "stateMutability": "view",
      "type": "function"
    },
    {
      "inputs": [],
      "name": "saleStart",
      "outputs": [
        {
          "internalType": "uint256",
          "name": "",
          "type": "uint256"
        }
      ],
      "stateMutability": "view",
      "type": "function"
    },
    {
      "inputs": [
        {
          "internalType": "uint256",
          "name": "id",
          "type": "uint256"
        }
      ],
      "name": "sell",
      "outputs": [],
      "stateMutability": "nonpayable",
      "type": "function"
    },
    {
      "inputs": [
        {
          "internalType": "address",
          "name": "operator",
          "type": "address"
        },
        {
          "internalType": "bool",
          "name": "approved",
          "type": "bool"
        }
      ],
      "name": "setApprovalForAll",
      "outputs": [],
      "stateMutability": "nonpayable",
      "type": "function"
    },
    {
      "inputs": [
        {
          "internalType": "address",
          "name": "_metadataRenderer",
          "type": "address"
        }
      ],
      "name": "setMetadataRenderer",
      "outputs": [],
      "stateMutability": "nonpayable",
      "type": "function"
    },
    {
      "inputs": [],
      "name": "splitMain",
      "outputs": [
        {
          "internalType": "address",
          "name": "",
          "type": "address"
        }
      ],
      "stateMutability": "view",
      "type": "function"
    },
    {
      "inputs": [],
      "name": "splitWallet",
      "outputs": [
        {
          "internalType": "address",
          "name": "",
          "type": "address"
        }
      ],
      "stateMutability": "view",
      "type": "function"
    },
    {
      "inputs": [],
      "name": "step1",
      "outputs": [
        {
          "internalType": "uint256",
          "name": "",
          "type": "uint256"
        }
      ],
      "stateMutability": "view",
      "type": "function"
    },
    {
      "inputs": [],
      "name": "step2",
      "outputs": [
        {
          "internalType": "uint256",
          "name": "",
          "type": "uint256"
        }
      ],
      "stateMutability": "view",
      "type": "function"
    },
    {
      "inputs": [
        {
          "internalType": "bytes4",
          "name": "interfaceId",
          "type": "bytes4"
        }
      ],
      "name": "supportsInterface",
      "outputs": [
        {
          "internalType": "bool",
          "name": "",
          "type": "bool"
        }
      ],
      "stateMutability": "view",
      "type": "function"
    },
    {
      "inputs": [],
      "name": "symbol",
      "outputs": [
        {
          "internalType": "string",
          "name": "",
          "type": "string"
        }
      ],
      "stateMutability": "view",
      "type": "function"
    },
    {
      "inputs": [],
      "name": "takeRateBPS",
      "outputs": [
        {
          "internalType": "uint256",
          "name": "",
          "type": "uint256"
        }
      ],
      "stateMutability": "view",
      "type": "function"
    },
    {
      "inputs": [
        {
          "internalType": "uint256",
          "name": "id",
          "type": "uint256"
        }
      ],
      "name": "totalSupply",
      "outputs": [
        {
          "internalType": "uint256",
          "name": "",
          "type": "uint256"
        }
      ],
      "stateMutability": "view",
      "type": "function"
    },
    {
      "inputs": [],
      "name": "totalWithdrawn",
      "outputs": [
        {
          "internalType": "uint256",
          "name": "",
          "type": "uint256"
        }
      ],
      "stateMutability": "view",
      "type": "function"
    },
    {
      "inputs": [
        {
          "internalType": "uint256",
          "name": "transferETH",
          "type": "uint256"
        },
        {
          "internalType": "contract ERC20[]",
          "name": "tokens",
          "type": "address[]"
        }
      ],
      "name": "transferFundToSplit",
      "outputs": [],
      "stateMutability": "nonpayable",
      "type": "function"
    },
    {
      "inputs": [
        {
          "internalType": "address",
          "name": "newOwner",
          "type": "address"
        }
      ],
      "name": "transferOwnership",
      "outputs": [],
      "stateMutability": "nonpayable",
      "type": "function"
    },
    {
      "inputs": [
        {
          "internalType": "uint256",
          "name": "transferETH",
          "type": "uint256"
        },
        {
          "internalType": "contract ERC20[]",
          "name": "tokens",
          "type": "address[]"
        }
      ],
      "name": "transferToSplit",
      "outputs": [],
      "stateMutability": "nonpayable",
      "type": "function"
    },
    {
      "inputs": [],
      "name": "unlockDate",
      "outputs": [
        {
          "internalType": "uint256",
          "name": "",
          "type": "uint256"
        }
      ],
      "stateMutability": "view",
      "type": "function"
    },
    {
      "inputs": [
        {
          "internalType": "string",
          "name": "contractURI_",
          "type": "string"
        }
      ],
      "name": "updateContractURI",
      "outputs": [],
      "stateMutability": "nonpayable",
      "type": "function"
    },
    {
      "inputs": [
        {
          "internalType": "string",
          "name": "uri_",
          "type": "string"
        }
      ],
      "name": "updateUri",
      "outputs": [],
      "stateMutability": "nonpayable",
      "type": "function"
    },
    {
      "inputs": [
        {
          "internalType": "uint256",
          "name": "",
          "type": "uint256"
        }
      ],
      "name": "uri",
      "outputs": [
        {
          "internalType": "string",
          "name": "",
          "type": "string"
        }
      ],
      "stateMutability": "view",
      "type": "function"
    },
    {
      "inputs": [],
      "name": "withdraw",
      "outputs": [],
      "stateMutability": "nonpayable",
      "type": "function"
    },
    {
      "inputs": [],
      "name": "withdrawFund",
      "outputs": [],
      "stateMutability": "nonpayable",
      "type": "function"
    }
  ],
  "bytecode": "0x60806040526000600e553480156200001657600080fd5b50620000223362000028565b62000084565b600280546001600160a01b038381166201000081810262010000600160b01b031985161790945560405193909204169182907f8be0079c531659141344cd1fd0a4f28419497f9722a3daafe3b4186f6b6457e090600090a35050565b613bca80620000946000396000f3fe6080604052600436106102c75760003560e01c80638da5cb5b11610175578063d40a71fb116100dc578063e985e9c511610095578063f0cc8b621161006f578063f0cc8b6214610872578063f242432a14610892578063f2fde38b146108b2578063fd4fe8a8146108d257600080fd5b8063e985e9c514610802578063eb8d24441461083d578063ee37778d1461085257600080fd5b8063d40a71fb14610775578063d96a094a1461078b578063e07fa3c11461079e578063e4849b32146107b3578063e6c350c1146107d3578063e8a3d485146107ed57600080fd5b8063a3111abd1161012e578063a3111abd146106c7578063ab0bcc41146106e7578063af548ffb146106fd578063b9c9d93a14610712578063bd85b03914610728578063c4559d5a1461075557600080fd5b80638da5cb5b146106185780638f4ed3331461063c57806390619fa81461065257806394a11aea1461067257806395d89b4114610692578063a22cb465146106a757600080fd5b806334918dfd11610234578063570b3c6a116101ed578063713b9787116101c7578063713b9787146105a3578063715018a6146105c357806379ab7c8e146105d85780637e5b1e24146105f857600080fd5b8063570b3c6a1461054d57806369ac57211461056d578063703199701461058357600080fd5b806334918dfd146104b4578063350aa191146104c95780633ccfd60b146104df57806343a58f06146104f45780634b3197131461050a5780634e1273f41461052057600080fd5b80630e89341c116102865780630e89341c146103e05780631a6865021461040057806327715d8014610415578063284a44a8146104355780632a55205a146104555780632eb2c2d61461049457600080fd5b80625f16fb146102cc578062fdd58e146102ee578063015893c51461033657806301ffc9a71461035657806306fdde03146103865780630e769b2b146103a8575b600080fd5b3480156102d857600080fd5b506102ec6102e7366004612a95565b6108f2565b005b3480156102fa57600080fd5b50610323610309366004612b3c565b600060208181529281526040808220909352908152205481565b6040519081526020015b60405180910390f35b34801561034257600080fd5b506102ec610351366004612b68565b6109d0565b34801561036257600080fd5b50610376610371366004612bfe565b610b5a565b604051901515815260200161032d565b34801561039257600080fd5b5061039b610b85565b60405161032d9190612c73565b3480156103b457600080fd5b506012546103c8906001600160a01b031681565b6040516001600160a01b03909116815260200161032d565b3480156103ec57600080fd5b5061039b6103fb366004612c86565b610c17565b34801561040c57600080fd5b50610323610d3d565b34801561042157600080fd5b506102ec610430366004612e6d565b610d6c565b34801561044157600080fd5b506102ec610450366004613029565b611004565b34801561046157600080fd5b506104756104703660046130fd565b6110ae565b604080516001600160a01b03909316835260208301919091520161032d565b3480156104a057600080fd5b506102ec6104af366004613160565b611130565b3480156104c057600080fd5b506102ec6113e2565b3480156104d557600080fd5b50610323600a5481565b3480156104eb57600080fd5b506102ec6113fe565b34801561050057600080fd5b5061032360095481565b34801561051657600080fd5b50610323600e5481565b34801561052c57600080fd5b5061054061053b36600461321e565b6114dc565b60405161032d9190613289565b34801561055957600080fd5b506102ec6105683660046132cd565b611610565b34801561057957600080fd5b5061032360115481565b34801561058f57600080fd5b506014546103c8906001600160a01b031681565b3480156105af57600080fd5b506013546103c8906001600160a01b031681565b3480156105cf57600080fd5b506102ec611624565b3480156105e457600080fd5b506102ec6105f3366004613309565b611638565b34801561060457600080fd5b506102ec6106133660046132cd565b6116c4565b34801561062457600080fd5b506002546201000090046001600160a01b03166103c8565b34801561064857600080fd5b5061032360085481565b34801561065e57600080fd5b506102ec61066d366004613309565b6116df565b34801561067e57600080fd5b506102ec61068d366004613029565b61177b565b34801561069e57600080fd5b5061039b61189e565b3480156106b357600080fd5b506102ec6106c2366004613353565b6118ad565b3480156106d357600080fd5b506103236106e23660046130fd565b611919565b3480156106f357600080fd5b50610323600f5481565b34801561070957600080fd5b50610323611972565b34801561071e57600080fd5b50610323600b5481565b34801561073457600080fd5b50610323610743366004612c86565b6000908152600c602052604090205490565b34801561076157600080fd5b506102ec61077036600461338c565b61199e565b34801561078157600080fd5b5061032360075481565b6102ec610799366004612c86565b611a63565b3480156107aa57600080fd5b506102ec611cbb565b3480156107bf57600080fd5b506102ec6107ce366004612c86565b611d4b565b3480156107df57600080fd5b506010546103769060ff1681565b3480156107f957600080fd5b5061039b611f91565b34801561080e57600080fd5b5061037661081d36600461341f565b600160209081526000928352604080842090915290825290205460ff1681565b34801561084957600080fd5b5061037661203c565b34801561085e57600080fd5b5061032361086d3660046130fd565b612056565b34801561087e57600080fd5b506015546103c8906001600160a01b031681565b34801561089e57600080fd5b506102ec6108ad36600461344d565b6120d6565b3480156108be57600080fd5b506102ec6108cd3660046134c8565b6122d7565b3480156108de57600080fd5b506102ec6108ed3660046134c8565b61234d565b60006109066013546001600160a01b031690565b6001600160a01b031614156109365760405162461bcd60e51b815260040161092d906134e5565b60405180910390fd5b61093f87612377565b6012546001600160a01b03166001600160a01b0316631581130261096b6013546001600160a01b031690565b898989898989896040518963ffffffff1660e01b8152600401610995989796959493929190613596565b600060405180830381600087803b1580156109af57600080fd5b505af11580156109c3573d6000803e3d6000fd5b5050505050505050505050565b6109d8612494565b60006109ec6012546001600160a01b031690565b6001600160a01b03161415610a375760405162461bcd60e51b815260206004820152601160248201527014dc1b1a5d13585a5b881b9bdd081cd95d607a1b604482015260640161092d565b6000610a4b6013546001600160a01b031690565b6001600160a01b031614610a995760405162461bcd60e51b815260206004820152601560248201527414dc1b1a5d08185b1c9958591e4818dc99585d1959605a1b604482015260640161092d565b6000610aad6012546001600160a01b031690565b6001600160a01b0316637601f7828787878787336040518763ffffffff1660e01b8152600401610ae2969594939291906135f8565b602060405180830381600087803b158015610afc57600080fd5b505af1158015610b10573d6000803e3d6000fd5b505050506040513d601f19601f82011682018060405250810190610b349190613649565b601380546001600160a01b0319166001600160a01b03831617905590505b505050505050565b600063152a902d60e11b6001600160e01b031983161480610b7f5750610b7f826124f5565b92915050565b606060038054610b9490613666565b80601f0160208091040260200160405190810160405280929190818152602001828054610bc090613666565b8015610c0d5780601f10610be257610100808354040283529160200191610c0d565b820191906000526020600020905b815481529060010190602001808311610bf057829003601f168201915b5050505050905090565b6014546060906001600160a01b031615610cab5760145460405163c87b56dd60e01b8152600160048201526001600160a01b039091169063c87b56dd9060240160006040518083038186803b158015610c6f57600080fd5b505afa158015610c83573d6000803e3d6000fd5b505050506040513d6000823e601f3d908101601f19168201604052610b7f91908101906136a1565b60058054610cb890613666565b80601f0160208091040260200160405190810160405280929190818152602001828054610ce490613666565b8015610d315780601f10610d0657610100808354040283529160200191610d31565b820191906000526020600020905b815481529060010190602001808311610d1457829003601f168201915b50505050509050919050565b6000612710600e5447610d50919061372d565b600a54610d5d9190613745565b610d679190613764565b905090565b600254610100900460ff1615808015610d8c5750600254600160ff909116105b80610da65750303b158015610da6575060025460ff166001145b610e095760405162461bcd60e51b815260206004820152602e60248201527f496e697469616c697a61626c653a20636f6e747261637420697320616c72656160448201526d191e481a5b9a5d1a585b1a5e995960921b606482015260840161092d565b6002805460ff191660011790558015610e2c576002805461ff0019166101001790555b610e3586612543565b604085015160008052600d60209081527f81955a0a11e65eac625c29e8882660bae4e165a75d72780094acae8ece9a29ee919091556060860151600755608086015160085560a086015160095560c0860151600a5560e086015160115585518051610ea492600392019061297f565b506020808601518051610ebb92600492019061297f565b50610100850151600f55610120850151600b55601280546001600160a01b038085166001600160a01b03199283161790925560608601516015805491841691909216179055831615801590610f1557506000846040015151115b15610f9357601480546001600160a01b0319166001600160a01b03851690811790915560408581015190516342b53ffd60e11b815263856a7ffa91610f5c91600401612c73565b600060405180830381600087803b158015610f7657600080fd5b505af1158015610f8a573d6000803e3d6000fd5b50505050610fb7565b83518051610fa99160069160209091019061297f565b50610fb7846020015161259f565b8015610b52576002805461ff0019169055604051600181527f7f26b83ff96e1f2b6a682f133852f6798a09c465da95921460cefb38474024989060200160405180910390a1505050505050565b60006110186013546001600160a01b031690565b6001600160a01b0316141561103f5760405162461bcd60e51b815260040161092d906134e5565b87156110535761105386868686868661199e565b60005b87518110156110975761108788828151811061107457611074613786565b60200260200101518888888888886108f2565b6110908161379c565b9050611056565b506110a38989896125b2565b505050505050505050565b60008083156110cf5760405162461bcd60e51b815260040161092d906137b7565b6013546001600160a01b0316156110f3576013546001600160a01b03169150611108565b6002546201000090046001600160a01b031691505b6000612710600b548561111b9190613745565b6111259190613764565b9150505b9250929050565b8483146111715760405162461bcd60e51b815260206004820152600f60248201526e0988a9c8ea890be9a92a69a82a8869608b1b604482015260640161092d565b336001600160a01b03891614806111ab57506001600160a01b038816600090815260016020908152604080832033845290915290205460ff165b6111e85760405162461bcd60e51b815260206004820152600e60248201526d1393d517d055551213d49256915160921b604482015260640161092d565b60008060005b878110156112a35788888281811061120857611208613786565b90506020020135925086868281811061122357611223613786565b6001600160a01b038e16600090815260208181526040808320898452825282208054939091029490940135955085939250906112609084906137ee565b90915550506001600160a01b038a166000908152602081815260408083208684529091528120805484929061129690849061372d565b90915550506001016111ee565b50886001600160a01b03168a6001600160a01b0316336001600160a01b03167f4a39dc06d4c0dbc64b70af90fd698a233a518aa5d07e595d983b8c0526c8f7fb8b8b8b8b6040516112f7949392919061383b565b60405180910390a46001600160a01b0389163b156113ad5760405163bc197c8160e01b808252906001600160a01b038b169063bc197c819061134b9033908f908e908e908e908e908e908e9060040161388b565b602060405180830381600087803b15801561136557600080fd5b505af1158015611379573d6000803e3d6000fd5b505050506040513d601f19601f8201168201806040525081019061139d91906138ef565b6001600160e01b031916146113ba565b6001600160a01b03891615155b6113d65760405162461bcd60e51b815260040161092d9061390c565b50505050505050505050565b6113ea612494565b6010805460ff19811660ff90911615179055565b611406612494565b600061141a6013546001600160a01b031690565b6001600160a01b0316146114405760405162461bcd60e51b815260040161092d90613936565b6000600e5461144d610d3d565b61145791906137ee565b905080600e600082825461146b919061372d565b9091555050604051600090339083908381818185875af1925050503d80600081146114b2576040519150601f19603f3d011682016040523d82523d6000602084013e6114b7565b606091505b50509050806114d85760405162461bcd60e51b815260040161092d9061397a565b5050565b606083821461151f5760405162461bcd60e51b815260206004820152600f60248201526e0988a9c8ea890be9a92a69a82a8869608b1b604482015260640161092d565b836001600160401b0381111561153757611537612c9f565b604051908082528060200260200182016040528015611560578160200160208202803683370190505b50905060005b848110156116075760008087878481811061158357611583613786565b905060200201602081019061159891906134c8565b6001600160a01b03166001600160a01b0316815260200190815260200160002060008585848181106115cc576115cc613786565b905060200201358152602001908152602001600020548282815181106115f4576115f4613786565b6020908102919091010152600101611566565b50949350505050565b611618612494565b6116218161259f565b50565b61162c612494565b6116366000612543565b565b600061164c6013546001600160a01b031690565b6001600160a01b031614156116735760405162461bcd60e51b815260040161092d906134e5565b81156116815761168161261d565b60005b81518110156116bf576116af8282815181106116a2576116a2613786565b6020026020010151612377565b6116b88161379c565b9050611684565b505050565b6116cc612494565b80516114d890600690602084019061297f565b60006116f36013546001600160a01b031690565b6001600160a01b0316141561171a5760405162461bcd60e51b815260040161092d906134e5565b60115442101561173c5760405162461bcd60e51b815260040161092d906139a8565b811561174a5761174a6126f0565b60005b81518110156116bf5761176b8282815181106116a2576116a2613786565b6117748161379c565b905061174d565b600061178f6013546001600160a01b031690565b6001600160a01b031614156117b65760405162461bcd60e51b815260040161092d906134e5565b6011544210156117d85760405162461bcd60e51b815260040161092d906139a8565b871561186d576117e66126f0565b6012546001600160a01b03166001600160a01b031663e61cb05e6118126013546001600160a01b031690565b8888888888886040518863ffffffff1660e01b815260040161183a97969594939291906139df565b600060405180830381600087803b15801561185457600080fd5b505af1158015611868573d6000803e3d6000fd5b505050505b60005b87518110156110975761188e88828151811061107457611074613786565b6118978161379c565b9050611870565b606060048054610b9490613666565b3360008181526001602090815260408083206001600160a01b03871680855290835292819020805460ff191686151590811790915590519081529192917f17307eab39ab6107e8899845ad3d59bd9653f200f220920489ca2b5937696c31910160405180910390a35050565b60008260011461195d5760405162461bcd60e51b815260206004820152600f60248201526e6d617820616d6f756e74206973203160881b604482015260640161092d565b506000908152600d6020526040902054919050565b6000612710600e5447611985919061372d565b600a54611994906127106137ee565b610d5d9190613745565b60006119b26013546001600160a01b031690565b6001600160a01b031614156119d95760405162461bcd60e51b815260040161092d906134e5565b6119e161261d565b6012546001600160a01b03166001600160a01b031663e61cb05e611a0d6013546001600160a01b031690565b8888888888886040518863ffffffff1660e01b8152600401611a3597969594939291906139df565b600060405180830381600087803b158015611a4f57600080fd5b505af11580156113d6573d6000803e3d6000fd5b600f54421015611ab15760405162461bcd60e51b815260206004820152601960248201527829b0b632b99030b932903737ba1030b1ba34bb32903cb2ba1760391b604482015260640161092d565b60105460ff1615611ad45760405162461bcd60e51b815260040161092d90613a38565b6000611ae1600183611919565b905080341015611b285760405162461bcd60e51b8152602060048201526012602482015271496e73756666696369656e742066756e647360701b604482015260640161092d565b8115611b465760405162461bcd60e51b815260040161092d906137b7565b6000611b5282346137ee565b1115611bc957600033611b6583346137ee565b604051600081818185875af1925050503d8060008114611ba1576040519150601f19603f3d011682016040523d82523d6000602084013e611ba6565b606091505b5050905080611bc75760405162461bcd60e51b815260040161092d9061397a565b505b611be533836001604051806020016040528060008152506127a4565b6000828152600c60205260408120805460019290611c0490849061372d565b909155505060408051600181526020810184905290810182905233907f25ba90957e661d6984db35cb313f752c45b1b67a3252e45d3f260a00fff0d7199060600160405180910390a26009546000838152600c60205260409020541015611c91576007546000838152600d602052604081208054909190611c8690849061372d565b909155506114d89050565b6008546000838152600d602052604081208054909190611cb290849061372d565b90915550505050565b611cc3612494565b601154421015611ce55760405162461bcd60e51b815260040161092d906139a8565b6000611cf96013546001600160a01b031690565b6001600160a01b031614611d1f5760405162461bcd60e51b815260040161092d90613936565b60405133904780156108fc02916000818181858888f19350505050158015611621573d6000803e3d6000fd5b600f54421015611d995760405162461bcd60e51b815260206004820152601960248201527829b0b632b99030b932903737ba1030b1ba34bb32903cb2ba1760391b604482015260640161092d565b60105460ff1615611dbc5760405162461bcd60e51b815260040161092d90613a38565b8015611dda5760405162461bcd60e51b815260040161092d906137b7565b6000611de7600183612056565b33600090815260208181526040808320868452909152902054909150611e465760405162461bcd60e51b81526020600482015260146024820152731b5d5cdd081bdddb881b999d081d1bc81cd95b1b60621b604482015260640161092d565b611e52338360016128fb565b6000828152600c60205260408120805460019290611e719084906137ee565b9091555050604051600090339083908381818185875af1925050503d8060008114611eb8576040519150601f19603f3d011682016040523d82523d6000602084013e611ebd565b606091505b5050905080611ede5760405162461bcd60e51b815260040161092d9061397a565b60408051600181526020810185905290810183905233907f68294b5fb4234239b694f5ef768a13b93132c838ecd88673e56a4caa8089b9199060600160405180910390a26009546000848152600c60205260409020541015611f66576007546000848152600d602052604081208054909190611f5b9084906137ee565b909155506116bf9050565b6008546000848152600d602052604081208054909190611f879084906137ee565b9091555050505050565b6014546060906001600160a01b03161561202f57601460009054906101000a90046001600160a01b03166001600160a01b031663e8a3d4856040518163ffffffff1660e01b815260040160006040518083038186803b158015611ff357600080fd5b505afa158015612007573d6000803e3d6000fd5b505050506040513d6000823e601f3d908101601f19168201604052610d6791908101906136a1565b60068054610b9490613666565b6000600f544210158015610d6757505060105460ff161590565b60008260011461209a5760405162461bcd60e51b815260206004820152600f60248201526e6d617820616d6f756e74206973203160881b604482015260640161092d565b6000828152600d6020526040902054600a5461271091906120bb90836137ee565b6120c59190613745565b6120cf9190613764565b9392505050565b336001600160a01b038716148061211057506001600160a01b038616600090815260016020908152604080832033845290915290205460ff165b61214d5760405162461bcd60e51b815260206004820152600e60248201526d1393d517d055551213d49256915160921b604482015260640161092d565b6001600160a01b0386166000908152602081815260408083208784529091528120805485929061217e9084906137ee565b90915550506001600160a01b038516600090815260208181526040808320878452909152812080548592906121b490849061372d565b909155505060408051858152602081018590526001600160a01b03808816929089169133917fc3d58168c5ae7397731d063d5bbf3d657854427343f4c083240f7aacaa2d0f62910160405180910390a46001600160a01b0385163b156122ae5760405163f23a6e6160e01b808252906001600160a01b0387169063f23a6e619061224c9033908b908a908a908a908a90600401613a7a565b602060405180830381600087803b15801561226657600080fd5b505af115801561227a573d6000803e3d6000fd5b505050506040513d601f19601f8201168201806040525081019061229e91906138ef565b6001600160e01b031916146122bb565b6001600160a01b03851615155b610b525760405162461bcd60e51b815260040161092d9061390c565b6122df612494565b6001600160a01b0381166123445760405162461bcd60e51b815260206004820152602660248201527f4f776e61626c653a206e6577206f776e657220697320746865207a65726f206160448201526564647265737360d01b606482015260840161092d565b61162181612543565b612355612494565b601480546001600160a01b0319166001600160a01b0392909216919091179055565b6040516370a0823160e01b81523060048201526000906001600160a01b038316906370a082319060240160206040518083038186803b1580156123b957600080fd5b505afa1580156123cd573d6000803e3d6000fd5b505050506040513d601f19601f820116820180604052508101906123f19190613ac1565b9050816001600160a01b031663a9059cbb6124146013546001600160a01b031690565b6040516001600160e01b031960e084901b1681526001600160a01b03909116600482015260248101849052604401602060405180830381600087803b15801561245c57600080fd5b505af1158015612470573d6000803e3d6000fd5b505050506040513d601f19601f820116820180604052508101906116bf9190613ada565b6002546001600160a01b03620100009091041633146116365760405162461bcd60e51b815260206004820181905260248201527f4f776e61626c653a2063616c6c6572206973206e6f7420746865206f776e6572604482015260640161092d565b60006301ffc9a760e01b6001600160e01b0319831614806125265750636cdb3d1360e11b6001600160e01b03198316145b80610b7f5750506001600160e01b0319166303a24d0760e21b1490565b600280546001600160a01b038381166201000081810262010000600160b01b031985161790945560405193909204169182907f8be0079c531659141344cd1fd0a4f28419497f9722a3daafe3b4186f6b6457e090600090a35050565b80516114d890600590602084019061297f565b601254604051636e5f691960e01b81526001600160a01b0390911690636e5f6919906125e690869086908690600401613af7565b600060405180830381600087803b15801561260057600080fd5b505af1158015612614573d6000803e3d6000fd5b50505050505050565b6000600e5461262a610d3d565b61263491906137ee565b905080600e6000828254612648919061372d565b90915550506013546040516000916001600160a01b03169083908381818185875af1925050503d806000811461269a576040519150601f19603f3d011682016040523d82523d6000602084013e61269f565b606091505b50509050806114d85760405162461bcd60e51b815260206004820152601f60248201527f436f756c64206e6f74207472616e736665722045544820746f2073706c697400604482015260640161092d565b60006127046013546001600160a01b031690565b6001600160a01b03164760405160006040518083038185875af1925050503d806000811461274e576040519150601f19603f3d011682016040523d82523d6000602084013e612753565b606091505b50509050806116215760405162461bcd60e51b815260206004820152601f60248201527f436f756c64206e6f74207472616e736665722045544820746f2073706c697400604482015260640161092d565b6001600160a01b038416600090815260208181526040808320868452909152812080548492906127d590849061372d565b909155505060408051848152602081018490526001600160a01b0386169160009133917fc3d58168c5ae7397731d063d5bbf3d657854427343f4c083240f7aacaa2d0f62910160405180910390a46001600160a01b0384163b156128cc5760405163f23a6e6160e01b808252906001600160a01b0386169063f23a6e619061286a903390600090899089908990600401613b5a565b602060405180830381600087803b15801561288457600080fd5b505af1158015612898573d6000803e3d6000fd5b505050506040513d601f19601f820116820180604052508101906128bc91906138ef565b6001600160e01b031916146128d9565b6001600160a01b03841615155b6128f55760405162461bcd60e51b815260040161092d9061390c565b50505050565b6001600160a01b0383166000908152602081815260408083208584529091528120805483929061292c9084906137ee565b909155505060408051838152602081018390526000916001600160a01b0386169133917fc3d58168c5ae7397731d063d5bbf3d657854427343f4c083240f7aacaa2d0f62910160405180910390a4505050565b82805461298b90613666565b90600052602060002090601f0160209004810192826129ad57600085556129f3565b82601f106129c657805160ff19168380011785556129f3565b828001600101855582156129f3579182015b828111156129f35782518255916020019190600101906129d8565b506129ff929150612a03565b5090565b5b808211156129ff5760008155600101612a04565b6001600160a01b038116811461162157600080fd5b60008083601f840112612a3f57600080fd5b5081356001600160401b03811115612a5657600080fd5b6020830191508360208260051b850101111561112957600080fd5b803563ffffffff81168114612a8557600080fd5b919050565b8035612a8581612a18565b600080600080600080600060a0888a031215612ab057600080fd5b8735612abb81612a18565b965060208801356001600160401b0380821115612ad757600080fd5b612ae38b838c01612a2d565b909850965060408a0135915080821115612afc57600080fd5b50612b098a828b01612a2d565b9095509350612b1c905060608901612a71565b91506080880135612b2c81612a18565b8091505092959891949750929550565b60008060408385031215612b4f57600080fd5b8235612b5a81612a18565b946020939093013593505050565b600080600080600060608688031215612b8057600080fd5b85356001600160401b0380821115612b9757600080fd5b612ba389838a01612a2d565b90975095506020880135915080821115612bbc57600080fd5b50612bc988828901612a2d565b9094509250612bdc905060408701612a71565b90509295509295909350565b6001600160e01b03198116811461162157600080fd5b600060208284031215612c1057600080fd5b81356120cf81612be8565b60005b83811015612c36578181015183820152602001612c1e565b838111156128f55750506000910152565b60008151808452612c5f816020860160208601612c1b565b601f01601f19169290920160200192915050565b6020815260006120cf6020830184612c47565b600060208284031215612c9857600080fd5b5035919050565b634e487b7160e01b600052604160045260246000fd5b604051608081016001600160401b0381118282101715612cd757612cd7612c9f565b60405290565b60405161014081016001600160401b0381118282101715612cd757612cd7612c9f565b604051601f8201601f191681016001600160401b0381118282101715612d2857612d28612c9f565b604052919050565b60006001600160401b03821115612d4957612d49612c9f565b50601f01601f191660200190565b6000612d6a612d6584612d30565b612d00565b9050828152838383011115612d7e57600080fd5b828260208301376000602084830101529392505050565b600082601f830112612da657600080fd5b6120cf83833560208501612d57565b600060808284031215612dc757600080fd5b612dcf612cb5565b905081356001600160401b0380821115612de857600080fd5b612df485838601612d95565b83526020840135915080821115612e0a57600080fd5b612e1685838601612d95565b60208401526040840135915080821115612e2f57600080fd5b508201601f81018413612e4157600080fd5b612e5084823560208401612d57565b604083015250612e6260608301612a8a565b606082015292915050565b600080600080600060a08688031215612e8557600080fd5b8535612e9081612a18565b945060208601356001600160401b0380821115612eac57600080fd5b90870190610140828a031215612ec157600080fd5b612ec9612cdd565b823582811115612ed857600080fd5b612ee48b828601612d95565b825250602083013582811115612ef957600080fd5b612f058b828601612d95565b60208301525060408301356040820152606083013560608201526080830135608082015260a083013560a082015260c083013560c082015260e083013560e0820152610100808401358183015250610120808401358183015250809650506040880135915080821115612f7757600080fd5b50612f8488828901612db5565b935050612f9360608701612a8a565b9150612bdc60808701612a8a565b600082601f830112612fb257600080fd5b813560206001600160401b03821115612fcd57612fcd612c9f565b8160051b612fdc828201612d00565b9283528481018201928281019087851115612ff657600080fd5b83870192505b8483101561301e57823561300f81612a18565b82529183019190830190612ffc565b979650505050505050565b600080600080600080600080600060e08a8c03121561304757600080fd5b893561305281612a18565b985060208a0135975060408a01356001600160401b038082111561307557600080fd5b6130818d838e01612fa1565b985060608c013591508082111561309757600080fd5b6130a38d838e01612a2d565b909850965060808c01359150808211156130bc57600080fd5b506130c98c828d01612a2d565b90955093506130dc905060a08b01612a71565b915060c08a01356130ec81612a18565b809150509295985092959850929598565b6000806040838503121561311057600080fd5b50508035926020909101359150565b60008083601f84011261313157600080fd5b5081356001600160401b0381111561314857600080fd5b60208301915083602082850101111561112957600080fd5b60008060008060008060008060a0898b03121561317c57600080fd5b883561318781612a18565b9750602089013561319781612a18565b965060408901356001600160401b03808211156131b357600080fd5b6131bf8c838d01612a2d565b909850965060608b01359150808211156131d857600080fd5b6131e48c838d01612a2d565b909650945060808b01359150808211156131fd57600080fd5b5061320a8b828c0161311f565b999c989b5096995094979396929594505050565b6000806000806040858703121561323457600080fd5b84356001600160401b038082111561324b57600080fd5b61325788838901612a2d565b9096509450602087013591508082111561327057600080fd5b5061327d87828801612a2d565b95989497509550505050565b6020808252825182820181905260009190848201906040850190845b818110156132c1578351835292840192918401916001016132a5565b50909695505050505050565b6000602082840312156132df57600080fd5b81356001600160401b038111156132f557600080fd5b61330184828501612d95565b949350505050565b6000806040838503121561331c57600080fd5b8235915060208301356001600160401b0381111561333957600080fd5b61112585828601612fa1565b801515811461162157600080fd5b6000806040838503121561336657600080fd5b823561337181612a18565b9150602083013561338181613345565b809150509250929050565b600080600080600080608087890312156133a557600080fd5b86356001600160401b03808211156133bc57600080fd5b6133c88a838b01612a2d565b909850965060208901359150808211156133e157600080fd5b506133ee89828a01612a2d565b9095509350613401905060408801612a71565b9150606087013561341181612a18565b809150509295509295509295565b6000806040838503121561343257600080fd5b823561343d81612a18565b9150602083013561338181612a18565b60008060008060008060a0878903121561346657600080fd5b863561347181612a18565b9550602087013561348181612a18565b9450604087013593506060870135925060808701356001600160401b038111156134aa57600080fd5b6134b689828a0161311f565b979a9699509497509295939492505050565b6000602082840312156134da57600080fd5b81356120cf81612a18565b60208082526015908201527414dc1b1a5d081b9bdd0818dc99585d1959081e595d605a1b604082015260600190565b8183526000602080850194508260005b8581101561355257813561353781612a18565b6001600160a01b031687529582019590820190600101613524565b509495945050505050565b8183526000602080850194508260005b858110156135525763ffffffff61358383612a71565b168752958201959082019060010161356d565b600060018060a01b03808b168352808a16602084015260c060408401526135c160c08401898b613514565b83810360608501526135d481888a61355d565b63ffffffff969096166080850152509290921660a090910152509695505050505050565b60808152600061360c60808301888a613514565b828103602084015261361f81878961355d565b63ffffffff95909516604084015250506001600160a01b0391909116606090910152949350505050565b60006020828403121561365b57600080fd5b81516120cf81612a18565b600181811c9082168061367a57607f821691505b6020821081141561369b57634e487b7160e01b600052602260045260246000fd5b50919050565b6000602082840312156136b357600080fd5b81516001600160401b038111156136c957600080fd5b8201601f810184136136da57600080fd5b80516136e8612d6582612d30565b8181528560208385010111156136fd57600080fd5b61370e826020830160208601612c1b565b95945050505050565b634e487b7160e01b600052601160045260246000fd5b6000821982111561374057613740613717565b500190565b600081600019048311821515161561375f5761375f613717565b500290565b60008261378157634e487b7160e01b600052601260045260246000fd5b500490565b634e487b7160e01b600052603260045260246000fd5b60006000198214156137b0576137b0613717565b5060010190565b6020808252601a908201527f63757272656e746c79206f6e6c79206f6e652065646974696f6e000000000000604082015260600190565b60008282101561380057613800613717565b500390565b81835260006001600160fb1b0383111561381e57600080fd5b8260051b8083602087013760009401602001938452509192915050565b60408152600061384f604083018688613805565b828103602084015261301e818587613805565b81835281816020850137506000828201602090810191909152601f909101601f19169091010190565b6001600160a01b0389811682528816602082015260a0604082018190526000906138b8908301888a613805565b82810360608401526138cb818789613805565b905082810360808401526138e0818587613862565b9b9a5050505050505050505050565b60006020828403121561390157600080fd5b81516120cf81612be8565b60208082526010908201526f155394d0519157d49150d2541251539560821b604082015260600190565b60208082526024908201527f43616e6e6f74207769746864726177207769746820616e2061637469766520736040820152631c1b1a5d60e21b606082015260800190565b6020808252601490820152732330b4b632b2103a379039b2b7321032ba3432b960611b604082015260600190565b60208082526019908201527f4372657363656e646f206973207374696c6c206c6f636b656400000000000000604082015260600190565b600060018060a01b03808a16835260a06020840152613a0260a08401898b613514565b8381036040850152613a1581888a61355d565b63ffffffff96909616606085015250929092166080909101525095945050505050565b60208082526022908201527f53616c65206d7573742062652061637469766520746f20627579206f722073656040820152611b1b60f21b606082015260800190565b6001600160a01b03878116825286166020820152604081018590526060810184905260a060808201819052600090613ab59083018486613862565b98975050505050505050565b600060208284031215613ad357600080fd5b5051919050565b600060208284031215613aec57600080fd5b81516120cf81613345565b6001600160a01b038481168252602080830185905260606040840181905284519084018190526000928583019290916080860190855b81811015613b4b578551851683529483019491830191600101613b2d565b50909998505050505050505050565b6001600160a01b03868116825285166020820152604081018490526060810183905260a06080820181905260009061301e90830184612c4756fea26469706673582212200507b34fbb28edc6bcd23e0503a8470606f3fd78ef0183b78e7284b9246a475364736f6c63430008090033",
  "linkReferences": {},
  "deployedLinkReferences": {}
}