{
  "_format": "hh-sol-artifact-1",
  "contractName": "DCNTSDK",
  "sourceName": "contracts/DCNTSDK.sol",
  "abi": [
    {
      "inputs": [
        {
          "internalType": "address",
          "name": "_DCNT721AImplementation",
          "type": "address"
        },
        {
          "internalType": "address",
          "name": "_DCNT4907AImplementation",
          "type": "address"
        },
        {
          "internalType": "address",
          "name": "_DCNTCrescendoImplementation",
          "type": "address"
        },
        {
          "internalType": "address",
          "name": "_DCNTVaultImplementation",
          "type": "address"
        },
        {
          "internalType": "address",
          "name": "_DCNTStakingImplementation",
          "type": "address"
        },
        {
          "internalType": "address",
          "name": "_metadataRenderer",
          "type": "address"
        },
        {
          "internalType": "address",
          "name": "_contractRegistry",
          "type": "address"
        },
        {
          "internalType": "address",
          "name": "_SplitMain",
          "type": "address"
        }
      ],
      "stateMutability": "nonpayable",
      "type": "constructor"
    },
    {
      "anonymous": false,
      "inputs": [
        {
          "indexed": false,
          "internalType": "address",
          "name": "DCNT4907A",
          "type": "address"
        }
      ],
      "name": "DeployDCNT4907A",
      "type": "event"
    },
    {
      "anonymous": false,
      "inputs": [
        {
          "indexed": false,
          "internalType": "address",
          "name": "DCNT721A",
          "type": "address"
        }
      ],
      "name": "DeployDCNT721A",
      "type": "event"
    },
    {
      "anonymous": false,
      "inputs": [
        {
          "indexed": false,
          "internalType": "address",
          "name": "DCNTCrescendo",
          "type": "address"
        }
      ],
      "name": "DeployDCNTCrescendo",
      "type": "event"
    },
    {
      "anonymous": false,
      "inputs": [
        {
          "indexed": false,
          "internalType": "address",
          "name": "DCNTStaking",
          "type": "address"
        }
      ],
      "name": "DeployDCNTStaking",
      "type": "event"
    },
    {
      "anonymous": false,
      "inputs": [
        {
          "indexed": false,
          "internalType": "address",
          "name": "DCNTVault",
          "type": "address"
        }
      ],
      "name": "DeployDCNTVault",
      "type": "event"
    },
    {
      "anonymous": false,
      "inputs": [
        {
          "indexed": true,
          "internalType": "address",
          "name": "previousOwner",
          "type": "address"
        },
        {
          "indexed": true,
          "internalType": "address",
          "name": "newOwner",
          "type": "address"
        }
      ],
      "name": "OwnershipTransferred",
      "type": "event"
    },
    {
      "inputs": [],
      "name": "DCNT4907AImplementation",
      "outputs": [
        {
          "internalType": "address",
          "name": "",
          "type": "address"
        }
      ],
      "stateMutability": "view",
      "type": "function"
    },
    {
      "inputs": [],
      "name": "DCNT721AImplementation",
      "outputs": [
        {
          "internalType": "address",
          "name": "",
          "type": "address"
        }
      ],
      "stateMutability": "view",
      "type": "function"
    },
    {
      "inputs": [],
      "name": "DCNTCrescendoImplementation",
      "outputs": [
        {
          "internalType": "address",
          "name": "",
          "type": "address"
        }
      ],
      "stateMutability": "view",
      "type": "function"
    },
    {
      "inputs": [],
      "name": "DCNTStakingImplementation",
      "outputs": [
        {
          "internalType": "address",
          "name": "",
          "type": "address"
        }
      ],
      "stateMutability": "view",
      "type": "function"
    },
    {
      "inputs": [],
      "name": "DCNTVaultImplementation",
      "outputs": [
        {
          "internalType": "address",
          "name": "",
          "type": "address"
        }
      ],
      "stateMutability": "view",
      "type": "function"
    },
    {
      "inputs": [],
      "name": "SplitMain",
      "outputs": [
        {
          "internalType": "address",
          "name": "",
          "type": "address"
        }
      ],
      "stateMutability": "view",
      "type": "function"
    },
    {
      "inputs": [],
      "name": "contractRegistry",
      "outputs": [
        {
          "internalType": "address",
          "name": "",
          "type": "address"
        }
      ],
      "stateMutability": "view",
      "type": "function"
    },
    {
      "inputs": [
        {
          "components": [
            {
              "internalType": "string",
              "name": "name",
              "type": "string"
            },
            {
              "internalType": "string",
              "name": "symbol",
              "type": "string"
            },
            {
              "internalType": "uint256",
              "name": "maxTokens",
              "type": "uint256"
            },
            {
              "internalType": "uint256",
              "name": "tokenPrice",
              "type": "uint256"
            },
            {
              "internalType": "uint256",
              "name": "maxTokenPurchase",
              "type": "uint256"
            },
            {
              "internalType": "uint256",
              "name": "saleStart",
              "type": "uint256"
            },
            {
              "internalType": "uint256",
              "name": "royaltyBPS",
              "type": "uint256"
            }
          ],
          "internalType": "struct EditionConfig",
          "name": "_editionConfig",
          "type": "tuple"
        },
        {
          "components": [
            {
              "internalType": "string",
              "name": "metadataURI",
              "type": "string"
            },
            {
              "internalType": "bytes",
              "name": "metadataRendererInit",
              "type": "bytes"
            }
          ],
          "internalType": "struct MetadataConfig",
          "name": "_metadataConfig",
          "type": "tuple"
        }
      ],
      "name": "deployDCNT4907A",
      "outputs": [
        {
          "internalType": "address",
          "name": "clone",
          "type": "address"
        }
      ],
      "stateMutability": "nonpayable",
      "type": "function"
    },
    {
      "inputs": [
        {
          "components": [
            {
              "internalType": "string",
              "name": "name",
              "type": "string"
            },
            {
              "internalType": "string",
              "name": "symbol",
              "type": "string"
            },
            {
              "internalType": "uint256",
              "name": "maxTokens",
              "type": "uint256"
            },
            {
              "internalType": "uint256",
              "name": "tokenPrice",
              "type": "uint256"
            },
            {
              "internalType": "uint256",
              "name": "maxTokenPurchase",
              "type": "uint256"
            },
            {
              "internalType": "uint256",
              "name": "saleStart",
              "type": "uint256"
            },
            {
              "internalType": "uint256",
              "name": "royaltyBPS",
              "type": "uint256"
            }
          ],
          "internalType": "struct EditionConfig",
          "name": "_editionConfig",
          "type": "tuple"
        },
        {
          "components": [
            {
              "internalType": "string",
              "name": "metadataURI",
              "type": "string"
            },
            {
              "internalType": "bytes",
              "name": "metadataRendererInit",
              "type": "bytes"
            }
          ],
          "internalType": "struct MetadataConfig",
          "name": "_metadataConfig",
          "type": "tuple"
        }
      ],
      "name": "deployDCNT721A",
      "outputs": [
        {
          "internalType": "address",
          "name": "clone",
          "type": "address"
        }
      ],
      "stateMutability": "nonpayable",
      "type": "function"
    },
    {
      "inputs": [
        {
          "components": [
            {
              "internalType": "string",
              "name": "name",
              "type": "string"
            },
            {
              "internalType": "string",
              "name": "symbol",
              "type": "string"
            },
            {
              "internalType": "uint256",
              "name": "initialPrice",
              "type": "uint256"
            },
            {
              "internalType": "uint256",
              "name": "step1",
              "type": "uint256"
            },
            {
              "internalType": "uint256",
              "name": "step2",
              "type": "uint256"
            },
            {
              "internalType": "uint256",
              "name": "hitch",
              "type": "uint256"
            },
            {
              "internalType": "uint256",
              "name": "takeRateBPS",
              "type": "uint256"
            },
            {
              "internalType": "uint256",
              "name": "unlockDate",
              "type": "uint256"
            },
            {
              "internalType": "uint256",
              "name": "saleStart",
              "type": "uint256"
            },
            {
              "internalType": "uint256",
              "name": "royaltyBPS",
              "type": "uint256"
            }
          ],
          "internalType": "struct CrescendoConfig",
          "name": "_config",
          "type": "tuple"
        },
        {
          "components": [
            {
              "internalType": "string",
              "name": "metadataURI",
              "type": "string"
            },
            {
              "internalType": "bytes",
              "name": "metadataRendererInit",
              "type": "bytes"
            }
          ],
          "internalType": "struct MetadataConfig",
          "name": "_metadataConfig",
          "type": "tuple"
        }
      ],
      "name": "deployDCNTCrescendo",
      "outputs": [
        {
          "internalType": "address",
          "name": "clone",
          "type": "address"
        }
      ],
      "stateMutability": "nonpayable",
      "type": "function"
    },
    {
      "inputs": [
        {
          "internalType": "address",
          "name": "_nft",
          "type": "address"
        },
        {
          "internalType": "address",
          "name": "_token",
          "type": "address"
        },
        {
          "internalType": "uint256",
          "name": "_vaultDuration",
          "type": "uint256"
        },
        {
          "internalType": "uint256",
          "name": "_totalSupply",
          "type": "uint256"
        }
      ],
      "name": "deployDCNTStaking",
      "outputs": [
        {
          "internalType": "address",
          "name": "clone",
          "type": "address"
        }
      ],
      "stateMutability": "nonpayable",
      "type": "function"
    },
    {
      "inputs": [
        {
          "internalType": "address",
          "name": "_vaultDistributionTokenAddress",
          "type": "address"
        },
        {
          "internalType": "address",
          "name": "_nftVaultKeyAddress",
          "type": "address"
        },
        {
          "internalType": "uint256",
          "name": "_nftTotalSupply",
          "type": "uint256"
        },
        {
          "internalType": "uint256",
          "name": "_unlockDate",
          "type": "uint256"
        }
      ],
      "name": "deployDCNTVault",
      "outputs": [
        {
          "internalType": "address",
          "name": "clone",
          "type": "address"
        }
      ],
      "stateMutability": "nonpayable",
      "type": "function"
    },
    {
      "inputs": [],
      "name": "metadataRenderer",
      "outputs": [
        {
          "internalType": "address",
          "name": "",
          "type": "address"
        }
      ],
      "stateMutability": "view",
      "type": "function"
    },
    {
      "inputs": [],
      "name": "owner",
      "outputs": [
        {
          "internalType": "address",
          "name": "",
          "type": "address"
        }
      ],
      "stateMutability": "view",
      "type": "function"
    },
    {
      "inputs": [],
      "name": "renounceOwnership",
      "outputs": [],
      "stateMutability": "nonpayable",
      "type": "function"
    },
    {
      "inputs": [
        {
          "internalType": "address",
          "name": "newOwner",
          "type": "address"
        }
      ],
      "name": "transferOwnership",
      "outputs": [],
      "stateMutability": "nonpayable",
      "type": "function"
    }
  ],
  "bytecode": "0x60806040523480156200001157600080fd5b506040516200261a3803806200261a8339818101604052810190620000379190620003a3565b620000576200004b6200026d60201b60201c565b6200027560201b60201c565b87600160006101000a81548173ffffffffffffffffffffffffffffffffffffffff021916908373ffffffffffffffffffffffffffffffffffffffff16021790555086600260006101000a81548173ffffffffffffffffffffffffffffffffffffffff021916908373ffffffffffffffffffffffffffffffffffffffff16021790555085600360006101000a81548173ffffffffffffffffffffffffffffffffffffffff021916908373ffffffffffffffffffffffffffffffffffffffff16021790555084600460006101000a81548173ffffffffffffffffffffffffffffffffffffffff021916908373ffffffffffffffffffffffffffffffffffffffff16021790555083600560006101000a81548173ffffffffffffffffffffffffffffffffffffffff021916908373ffffffffffffffffffffffffffffffffffffffff16021790555082600660006101000a81548173ffffffffffffffffffffffffffffffffffffffff021916908373ffffffffffffffffffffffffffffffffffffffff16021790555081600760006101000a81548173ffffffffffffffffffffffffffffffffffffffff021916908373ffffffffffffffffffffffffffffffffffffffff16021790555080600860006101000a81548173ffffffffffffffffffffffffffffffffffffffff021916908373ffffffffffffffffffffffffffffffffffffffff16021790555050505050505050506200046c565b600033905090565b60008060009054906101000a900473ffffffffffffffffffffffffffffffffffffffff169050816000806101000a81548173ffffffffffffffffffffffffffffffffffffffff021916908373ffffffffffffffffffffffffffffffffffffffff1602179055508173ffffffffffffffffffffffffffffffffffffffff168173ffffffffffffffffffffffffffffffffffffffff167f8be0079c531659141344cd1fd0a4f28419497f9722a3daafe3b4186f6b6457e060405160405180910390a35050565b600080fd5b600073ffffffffffffffffffffffffffffffffffffffff82169050919050565b60006200036b826200033e565b9050919050565b6200037d816200035e565b81146200038957600080fd5b50565b6000815190506200039d8162000372565b92915050565b600080600080600080600080610100898b031215620003c757620003c662000339565b5b6000620003d78b828c016200038c565b9850506020620003ea8b828c016200038c565b9750506040620003fd8b828c016200038c565b9650506060620004108b828c016200038c565b9550506080620004238b828c016200038c565b94505060a0620004368b828c016200038c565b93505060c0620004498b828c016200038c565b92505060e06200045c8b828c016200038c565b9150509295985092959890939650565b61219e806200047c6000396000f3fe608060405234801561001057600080fd5b50600436106101005760003560e01c80638da5cb5b11610097578063bc10a4fa11610066578063bc10a4fa146102a1578063ca825bb5146102d1578063eef702e9146102ef578063f2fde38b1461030d57610100565b80638da5cb5b146102175780639f61dfec14610235578063a53c971d14610253578063abf410e51461028357610100565b806368784b8c116100d357806368784b8c1461018f57806370319970146101bf578063715018a6146101dd57806373d622f8146101e757610100565b806310a089131461010557806327c8ed22146101235780633c3b370b146101535780634285656b14610171575b600080fd5b61010d610329565b60405161011a9190611272565b60405180910390f35b61013d6004803603810190610138919061167e565b61034f565b60405161014a9190611272565b60405180910390f35b61015b61059b565b6040516101689190611272565b60405180910390f35b6101796105c1565b6040516101869190611272565b60405180910390f35b6101a960048036038101906101a491906117e2565b6105e7565b6040516101b69190611272565b60405180910390f35b6101c7610833565b6040516101d49190611272565b60405180910390f35b6101e5610859565b005b61020160048036038101906101fc9190611886565b61086d565b60405161020e9190611272565b60405180910390f35b61021f610a77565b60405161022c9190611272565b60405180910390f35b61023d610aa0565b60405161024a9190611272565b60405180910390f35b61026d600480360381019061026891906117e2565b610ac6565b60405161027a9190611272565b60405180910390f35b61028b610d12565b6040516102989190611272565b60405180910390f35b6102bb60048036038101906102b69190611886565b610d38565b6040516102c89190611272565b60405180910390f35b6102d9610f42565b6040516102e69190611272565b60405180910390f35b6102f7610f68565b6040516103049190611272565b60405180910390f35b610327600480360381019061032291906118ed565b610f8e565b005b600160009054906101000a900473ffffffffffffffffffffffffffffffffffffffff1681565b600061037c600360009054906101000a900473ffffffffffffffffffffffffffffffffffffffff16611012565b905060008173ffffffffffffffffffffffffffffffffffffffff16338585600660009054906101000a900473ffffffffffffffffffffffffffffffffffffffff16600860009054906101000a900473ffffffffffffffffffffffffffffffffffffffff166040516024016103f4959493929190611b2b565b6040516020818303038152906040527f93b93f3e000000000000000000000000000000000000000000000000000000007bffffffffffffffffffffffffffffffffffffffffffffffffffffffff19166020820180517bffffffffffffffffffffffffffffffffffffffffffffffffffffffff838183161783525050505060405161047e9190611bc8565b6000604051808303816000865af19150503d80600081146104bb576040519150601f19603f3d011682016040523d82523d6000602084013e6104c0565b606091505b50509050806104ce57600080fd5b600760009054906101000a900473ffffffffffffffffffffffffffffffffffffffff1673ffffffffffffffffffffffffffffffffffffffff1663ede4973933846040518363ffffffff1660e01b815260040161052b929190611c3c565b600060405180830381600087803b15801561054557600080fd5b505af1158015610559573d6000803e3d6000fd5b505050507f2c14c8ffafc8bfdf42e6469d6c292eeaebf445beafb817fb0bc9df3ebd89f0068260405161058c9190611272565b60405180910390a15092915050565b600560009054906101000a900473ffffffffffffffffffffffffffffffffffffffff1681565b600260009054906101000a900473ffffffffffffffffffffffffffffffffffffffff1681565b6000610614600260009054906101000a900473ffffffffffffffffffffffffffffffffffffffff16611012565b905060008173ffffffffffffffffffffffffffffffffffffffff16338585600660009054906101000a900473ffffffffffffffffffffffffffffffffffffffff16600860009054906101000a900473ffffffffffffffffffffffffffffffffffffffff1660405160240161068c959493929190611d1b565b6040516020818303038152906040527faa3de3cd000000000000000000000000000000000000000000000000000000007bffffffffffffffffffffffffffffffffffffffffffffffffffffffff19166020820180517bffffffffffffffffffffffffffffffffffffffffffffffffffffffff83818316178352505050506040516107169190611bc8565b6000604051808303816000865af19150503d8060008114610753576040519150601f19603f3d011682016040523d82523d6000602084013e610758565b606091505b505090508061076657600080fd5b600760009054906101000a900473ffffffffffffffffffffffffffffffffffffffff1673ffffffffffffffffffffffffffffffffffffffff1663ede4973933846040518363ffffffff1660e01b81526004016107c3929190611dc8565b600060405180830381600087803b1580156107dd57600080fd5b505af11580156107f1573d6000803e3d6000fd5b505050507f3758a9cde202b40b236c1867c2734461fd598d835ad020bda26ca4f85838f2c4826040516108249190611272565b60405180910390a15092915050565b600660009054906101000a900473ffffffffffffffffffffffffffffffffffffffff1681565b6108616110e7565b61086b6000611165565b565b600061089a600460009054906101000a900473ffffffffffffffffffffffffffffffffffffffff16611012565b905060008173ffffffffffffffffffffffffffffffffffffffff1633878787876040516024016108ce959493929190611e13565b6040516020818303038152906040527fa6b63eb8000000000000000000000000000000000000000000000000000000007bffffffffffffffffffffffffffffffffffffffffffffffffffffffff19166020820180517bffffffffffffffffffffffffffffffffffffffffffffffffffffffff83818316178352505050506040516109589190611bc8565b6000604051808303816000865af19150503d8060008114610995576040519150601f19603f3d011682016040523d82523d6000602084013e61099a565b606091505b50509050806109a857600080fd5b600760009054906101000a900473ffffffffffffffffffffffffffffffffffffffff1673ffffffffffffffffffffffffffffffffffffffff1663ede4973933846040518363ffffffff1660e01b8152600401610a05929190611eb2565b600060405180830381600087803b158015610a1f57600080fd5b505af1158015610a33573d6000803e3d6000fd5b505050507ff12b488daa6140ffee78fe266c37addbbaea912b09ce36e613a17844dac4255b82604051610a669190611272565b60405180910390a150949350505050565b60008060009054906101000a900473ffffffffffffffffffffffffffffffffffffffff16905090565b600460009054906101000a900473ffffffffffffffffffffffffffffffffffffffff1681565b6000610af3600160009054906101000a900473ffffffffffffffffffffffffffffffffffffffff16611012565b905060008173ffffffffffffffffffffffffffffffffffffffff16338585600660009054906101000a900473ffffffffffffffffffffffffffffffffffffffff16600860009054906101000a900473ffffffffffffffffffffffffffffffffffffffff16604051602401610b6b959493929190611d1b565b6040516020818303038152906040527faa3de3cd000000000000000000000000000000000000000000000000000000007bffffffffffffffffffffffffffffffffffffffffffffffffffffffff19166020820180517bffffffffffffffffffffffffffffffffffffffffffffffffffffffff8381831617835250505050604051610bf59190611bc8565b6000604051808303816000865af19150503d8060008114610c32576040519150601f19603f3d011682016040523d82523d6000602084013e610c37565b606091505b5050905080610c4557600080fd5b600760009054906101000a900473ffffffffffffffffffffffffffffffffffffffff1673ffffffffffffffffffffffffffffffffffffffff1663ede4973933846040518363ffffffff1660e01b8152600401610ca2929190611f3a565b600060405180830381600087803b158015610cbc57600080fd5b505af1158015610cd0573d6000803e3d6000fd5b505050507f149ce80ffd882db4157fb46dd05201336d87f52ace89212615557e5455b8a0df82604051610d039190611272565b60405180910390a15092915050565b600760009054906101000a900473ffffffffffffffffffffffffffffffffffffffff1681565b6000610d65600560009054906101000a900473ffffffffffffffffffffffffffffffffffffffff16611012565b905060008173ffffffffffffffffffffffffffffffffffffffff163387878787604051602401610d99959493929190611e13565b6040516020818303038152906040527fa6b63eb8000000000000000000000000000000000000000000000000000000007bffffffffffffffffffffffffffffffffffffffffffffffffffffffff19166020820180517bffffffffffffffffffffffffffffffffffffffffffffffffffffffff8381831617835250505050604051610e239190611bc8565b6000604051808303816000865af19150503d8060008114610e60576040519150601f19603f3d011682016040523d82523d6000602084013e610e65565b606091505b5050905080610e7357600080fd5b600760009054906101000a900473ffffffffffffffffffffffffffffffffffffffff1673ffffffffffffffffffffffffffffffffffffffff1663ede4973933846040518363ffffffff1660e01b8152600401610ed0929190611fc2565b600060405180830381600087803b158015610eea57600080fd5b505af1158015610efe573d6000803e3d6000fd5b505050507fe9eeb18af71a650338802cfcb86b39b211ed34fd8a37cacc5a16514a183e8d6682604051610f319190611272565b60405180910390a150949350505050565b600360009054906101000a900473ffffffffffffffffffffffffffffffffffffffff1681565b600860009054906101000a900473ffffffffffffffffffffffffffffffffffffffff1681565b610f966110e7565b600073ffffffffffffffffffffffffffffffffffffffff168173ffffffffffffffffffffffffffffffffffffffff161415611006576040517f08c379a0000000000000000000000000000000000000000000000000000000008152600401610ffd90612070565b60405180910390fd5b61100f81611165565b50565b60006040517f3d602d80600a3d3981f3363d3d373d3d3d363d7300000000000000000000000081528260601b60148201527f5af43d82803e903d91602b57fd5bf3000000000000000000000000000000000060288201526037816000f0915050600073ffffffffffffffffffffffffffffffffffffffff168173ffffffffffffffffffffffffffffffffffffffff1614156110e2576040517f08c379a00000000000000000000000000000000000000000000000000000000081526004016110d9906120dc565b60405180910390fd5b919050565b6110ef611229565b73ffffffffffffffffffffffffffffffffffffffff1661110d610a77565b73ffffffffffffffffffffffffffffffffffffffff1614611163576040517f08c379a000000000000000000000000000000000000000000000000000000000815260040161115a90612148565b60405180910390fd5b565b60008060009054906101000a900473ffffffffffffffffffffffffffffffffffffffff169050816000806101000a81548173ffffffffffffffffffffffffffffffffffffffff021916908373ffffffffffffffffffffffffffffffffffffffff1602179055508173ffffffffffffffffffffffffffffffffffffffff168173ffffffffffffffffffffffffffffffffffffffff167f8be0079c531659141344cd1fd0a4f28419497f9722a3daafe3b4186f6b6457e060405160405180910390a35050565b600033905090565b600073ffffffffffffffffffffffffffffffffffffffff82169050919050565b600061125c82611231565b9050919050565b61126c81611251565b82525050565b60006020820190506112876000830184611263565b92915050565b6000604051905090565b600080fd5b600080fd5b600080fd5b6000601f19601f8301169050919050565b7f4e487b7100000000000000000000000000000000000000000000000000000000600052604160045260246000fd5b6112ef826112a6565b810181811067ffffffffffffffff8211171561130e5761130d6112b7565b5b80604052505050565b600061132161128d565b905061132d82826112e6565b919050565b600080fd5b600080fd5b600080fd5b600067ffffffffffffffff82111561135c5761135b6112b7565b5b611365826112a6565b9050602081019050919050565b82818337600083830152505050565b600061139461138f84611341565b611317565b9050828152602081018484840111156113b0576113af61133c565b5b6113bb848285611372565b509392505050565b600082601f8301126113d8576113d7611337565b5b81356113e8848260208601611381565b91505092915050565b6000819050919050565b611404816113f1565b811461140f57600080fd5b50565b600081359050611421816113fb565b92915050565b6000610140828403121561143e5761143d6112a1565b5b611449610140611317565b9050600082013567ffffffffffffffff81111561146957611468611332565b5b611475848285016113c3565b600083015250602082013567ffffffffffffffff81111561149957611498611332565b5b6114a5848285016113c3565b60208301525060406114b984828501611412565b60408301525060606114cd84828501611412565b60608301525060806114e184828501611412565b60808301525060a06114f584828501611412565b60a08301525060c061150984828501611412565b60c08301525060e061151d84828501611412565b60e08301525061010061153284828501611412565b6101008301525061012061154884828501611412565b6101208301525092915050565b600067ffffffffffffffff8211156115705761156f6112b7565b5b611579826112a6565b9050602081019050919050565b600061159961159484611555565b611317565b9050828152602081018484840111156115b5576115b461133c565b5b6115c0848285611372565b509392505050565b600082601f8301126115dd576115dc611337565b5b81356115ed848260208601611586565b91505092915050565b60006040828403121561160c5761160b6112a1565b5b6116166040611317565b9050600082013567ffffffffffffffff81111561163657611635611332565b5b611642848285016113c3565b600083015250602082013567ffffffffffffffff81111561166657611665611332565b5b611672848285016115c8565b60208301525092915050565b6000806040838503121561169557611694611297565b5b600083013567ffffffffffffffff8111156116b3576116b261129c565b5b6116bf85828601611427565b925050602083013567ffffffffffffffff8111156116e0576116df61129c565b5b6116ec858286016115f6565b9150509250929050565b600060e0828403121561170c5761170b6112a1565b5b61171660e0611317565b9050600082013567ffffffffffffffff81111561173657611735611332565b5b611742848285016113c3565b600083015250602082013567ffffffffffffffff81111561176657611765611332565b5b611772848285016113c3565b602083015250604061178684828501611412565b604083015250606061179a84828501611412565b60608301525060806117ae84828501611412565b60808301525060a06117c284828501611412565b60a08301525060c06117d684828501611412565b60c08301525092915050565b600080604083850312156117f9576117f8611297565b5b600083013567ffffffffffffffff8111156118175761181661129c565b5b611823858286016116f6565b925050602083013567ffffffffffffffff8111156118445761184361129c565b5b611850858286016115f6565b9150509250929050565b61186381611251565b811461186e57600080fd5b50565b6000813590506118808161185a565b92915050565b600080600080608085870312156118a05761189f611297565b5b60006118ae87828801611871565b94505060206118bf87828801611871565b93505060406118d087828801611412565b92505060606118e187828801611412565b91505092959194509250565b60006020828403121561190357611902611297565b5b600061191184828501611871565b91505092915050565b600081519050919050565b600082825260208201905092915050565b60005b83811015611954578082015181840152602081019050611939565b83811115611963576000848401525b50505050565b60006119748261191a565b61197e8185611925565b935061198e818560208601611936565b611997816112a6565b840191505092915050565b6119ab816113f1565b82525050565b60006101408301600083015184820360008601526119cf8282611969565b915050602083015184820360208601526119e98282611969565b91505060408301516119fe60408601826119a2565b506060830151611a1160608601826119a2565b506080830151611a2460808601826119a2565b5060a0830151611a3760a08601826119a2565b5060c0830151611a4a60c08601826119a2565b5060e0830151611a5d60e08601826119a2565b50610100830151611a726101008601826119a2565b50610120830151611a876101208601826119a2565b508091505092915050565b600081519050919050565b600082825260208201905092915050565b6000611ab982611a92565b611ac38185611a9d565b9350611ad3818560208601611936565b611adc816112a6565b840191505092915050565b60006040830160008301518482036000860152611b048282611969565b91505060208301518482036020860152611b1e8282611aae565b9150508091505092915050565b600060a082019050611b406000830188611263565b8181036020830152611b5281876119b1565b90508181036040830152611b668186611ae7565b9050611b756060830185611263565b611b826080830184611263565b9695505050505050565b600081905092915050565b6000611ba282611a92565b611bac8185611b8c565b9350611bbc818560208601611936565b80840191505092915050565b6000611bd48284611b97565b915081905092915050565b600082825260208201905092915050565b7f44434e544372657363656e646f00000000000000000000000000000000000000600082015250565b6000611c26600d83611bdf565b9150611c3182611bf0565b602082019050919050565b6000606082019050611c516000830185611263565b611c5e6020830184611263565b8181036040830152611c6f81611c19565b90509392505050565b600060e0830160008301518482036000860152611c958282611969565b91505060208301518482036020860152611caf8282611969565b9150506040830151611cc460408601826119a2565b506060830151611cd760608601826119a2565b506080830151611cea60808601826119a2565b5060a0830151611cfd60a08601826119a2565b5060c0830151611d1060c08601826119a2565b508091505092915050565b600060a082019050611d306000830188611263565b8181036020830152611d428187611c78565b90508181036040830152611d568186611ae7565b9050611d656060830185611263565b611d726080830184611263565b9695505050505050565b7f44434e5434393037410000000000000000000000000000000000000000000000600082015250565b6000611db2600983611bdf565b9150611dbd82611d7c565b602082019050919050565b6000606082019050611ddd6000830185611263565b611dea6020830184611263565b8181036040830152611dfb81611da5565b90509392505050565b611e0d816113f1565b82525050565b600060a082019050611e286000830188611263565b611e356020830187611263565b611e426040830186611263565b611e4f6060830185611e04565b611e5c6080830184611e04565b9695505050505050565b7f44434e545661756c740000000000000000000000000000000000000000000000600082015250565b6000611e9c600983611bdf565b9150611ea782611e66565b602082019050919050565b6000606082019050611ec76000830185611263565b611ed46020830184611263565b8181036040830152611ee581611e8f565b90509392505050565b7f44434e5437323141000000000000000000000000000000000000000000000000600082015250565b6000611f24600883611bdf565b9150611f2f82611eee565b602082019050919050565b6000606082019050611f4f6000830185611263565b611f5c6020830184611263565b8181036040830152611f6d81611f17565b90509392505050565b7f44434e545374616b696e67000000000000000000000000000000000000000000600082015250565b6000611fac600b83611bdf565b9150611fb782611f76565b602082019050919050565b6000606082019050611fd76000830185611263565b611fe46020830184611263565b8181036040830152611ff581611f9f565b90509392505050565b7f4f776e61626c653a206e6577206f776e657220697320746865207a65726f206160008201527f6464726573730000000000000000000000000000000000000000000000000000602082015250565b600061205a602683611bdf565b915061206582611ffe565b604082019050919050565b600060208201905081810360008301526120898161204d565b9050919050565b7f455243313136373a20637265617465206661696c656400000000000000000000600082015250565b60006120c6601683611bdf565b91506120d182612090565b602082019050919050565b600060208201905081810360008301526120f5816120b9565b9050919050565b7f4f776e61626c653a2063616c6c6572206973206e6f7420746865206f776e6572600082015250565b6000612132602083611bdf565b915061213d826120fc565b602082019050919050565b6000602082019050818103600083015261216181612125565b905091905056fea26469706673582212204037caff52d62dbc8d78b2b9f969c5781164b722e15c59ebf2847b8e9b9044f164736f6c63430008090033",
  "linkReferences": {},
  "deployedLinkReferences": {}
}