{
  "_format": "hh-sol-artifact-1",
  "contractName": "DCNTVault",
  "sourceName": "contracts/DCNTVault.sol",
  "abi": [
    {
      "anonymous": false,
      "inputs": [
        {
          "indexed": false,
          "internalType": "address",
          "name": "account",
          "type": "address"
        },
        {
          "indexed": false,
          "internalType": "uint256",
          "name": "amount",
          "type": "uint256"
        }
      ],
      "name": "Claimed",
      "type": "event"
    },
    {
      "anonymous": false,
      "inputs": [
        {
          "indexed": false,
          "internalType": "uint8",
          "name": "version",
          "type": "uint8"
        }
      ],
      "name": "Initialized",
      "type": "event"
    },
    {
      "anonymous": false,
      "inputs": [
        {
          "indexed": true,
          "internalType": "address",
          "name": "previousOwner",
          "type": "address"
        },
        {
          "indexed": true,
          "internalType": "address",
          "name": "newOwner",
          "type": "address"
        }
      ],
      "name": "OwnershipTransferred",
      "type": "event"
    },
    {
      "inputs": [
        {
          "internalType": "address",
          "name": "to",
          "type": "address"
        },
        {
          "internalType": "uint256",
          "name": "tokenId",
          "type": "uint256"
        }
      ],
      "name": "claim",
      "outputs": [],
      "stateMutability": "nonpayable",
      "type": "function"
    },
    {
      "inputs": [
        {
          "internalType": "address",
          "name": "to",
          "type": "address"
        },
        {
          "internalType": "uint256[]",
          "name": "tokenIds",
          "type": "uint256[]"
        }
      ],
      "name": "claimMany",
      "outputs": [],
      "stateMutability": "nonpayable",
      "type": "function"
    },
    {
      "inputs": [
        {
          "internalType": "contract IERC20",
          "name": "token",
          "type": "address"
        }
      ],
      "name": "drain",
      "outputs": [],
      "stateMutability": "nonpayable",
      "type": "function"
    },
    {
      "inputs": [],
      "name": "drainEth",
      "outputs": [],
      "stateMutability": "nonpayable",
      "type": "function"
    },
    {
      "inputs": [
        {
          "internalType": "address",
          "name": "_owner",
          "type": "address"
        },
        {
          "internalType": "address",
          "name": "_vaultDistributionTokenAddress",
          "type": "address"
        },
        {
          "internalType": "address",
          "name": "_nftVaultKeyAddress",
          "type": "address"
        },
        {
          "internalType": "uint256",
          "name": "_nftTotalSupply",
          "type": "uint256"
        },
        {
          "internalType": "uint256",
          "name": "_unlockDate",
          "type": "uint256"
        }
      ],
      "name": "initialize",
      "outputs": [],
      "stateMutability": "nonpayable",
      "type": "function"
    },
    {
      "inputs": [],
      "name": "nftTotalSupply",
      "outputs": [
        {
          "internalType": "uint256",
          "name": "",
          "type": "uint256"
        }
      ],
      "stateMutability": "view",
      "type": "function"
    },
    {
      "inputs": [],
      "name": "nftVaultKey",
      "outputs": [
        {
          "internalType": "contract IERC721",
          "name": "",
          "type": "address"
        }
      ],
      "stateMutability": "view",
      "type": "function"
    },
    {
      "inputs": [],
      "name": "owner",
      "outputs": [
        {
          "internalType": "address",
          "name": "",
          "type": "address"
        }
      ],
      "stateMutability": "view",
      "type": "function"
    },
    {
      "inputs": [],
      "name": "renounceOwnership",
      "outputs": [],
      "stateMutability": "nonpayable",
      "type": "function"
    },
    {
      "inputs": [],
      "name": "totalReleased",
      "outputs": [
        {
          "internalType": "uint256",
          "name": "",
          "type": "uint256"
        }
      ],
      "stateMutability": "view",
      "type": "function"
    },
    {
      "inputs": [
        {
          "internalType": "address",
          "name": "newOwner",
          "type": "address"
        }
      ],
      "name": "transferOwnership",
      "outputs": [],
      "stateMutability": "nonpayable",
      "type": "function"
    },
    {
      "inputs": [],
      "name": "unlockDate",
      "outputs": [
        {
          "internalType": "uint256",
          "name": "",
          "type": "uint256"
        }
      ],
      "stateMutability": "view",
      "type": "function"
    },
    {
      "inputs": [],
      "name": "vaultBalance",
      "outputs": [
        {
          "internalType": "uint256",
          "name": "",
          "type": "uint256"
        }
      ],
      "stateMutability": "view",
      "type": "function"
    },
    {
      "inputs": [],
      "name": "vaultDistributionToken",
      "outputs": [
        {
          "internalType": "contract IERC20",
          "name": "",
          "type": "address"
        }
      ],
      "stateMutability": "view",
      "type": "function"
    }
  ],
  "bytecode": "0x608060405234801561001057600080fd5b5061001a3361001f565b61006f565b600080546001600160a01b038381166001600160a01b0319831681178455604051919092169283917f8be0079c531659141344cd1fd0a4f28419497f9722a3daafe3b4186f6b6457e09190a35050565b610d7d8061007e6000396000f3fe608060405234801561001057600080fd5b50600436106100ea5760003560e01c8063715018a61161008c578063aad3ec9611610066578063aad3ec96146101a3578063e33b7de3146101b6578063ece53132146101be578063f2fde38b146101d157600080fd5b8063715018a6146101775780638da5cb5b1461017f578063a6b63eb81461019057600080fd5b80630bf6cc08116100c85780630bf6cc081461014057806313fd6ef1146101485780633ce2a3c51461015b57806369ac57211461016e57600080fd5b80630baac66f146100ef5780630bb23784146100f95780630bf5b0ea14610115575b600080fd5b6100f76101e4565b005b61010260035481565b6040519081526020015b60405180910390f35b600254610128906001600160a01b031681565b6040516001600160a01b03909116815260200161010c565b61010261021b565b600154610128906001600160a01b031681565b6100f7610169366004610b23565b61029c565b61010260045481565b6100f76102de565b6000546001600160a01b0316610128565b6100f761019e366004610bab565b6102f2565b6100f76101b1366004610c06565b610463565b600654610102565b6100f76101cc366004610c32565b610479565b6100f76101df366004610c32565b610580565b6101ec6105f6565b60405133904780156108fc02916000818181858888f19350505050158015610218573d6000803e3d6000fd5b50565b6001546040516370a0823160e01b81523060048201526000916001600160a01b0316906370a082319060240160206040518083038186803b15801561025f57600080fd5b505afa158015610273573d6000803e3d6000fd5b505050506040513d601f19601f820116820180604052508101906102979190610c4f565b905090565b6102d98383838080602002602001604051908101604052809392919081815260200183836020028082843760009201919091525061065092505050565b505050565b6102e66105f6565b6102f06000610a52565b565b600054600160a81b900460ff161580801561031a57506000546001600160a01b90910460ff16105b8061033b5750303b15801561033b5750600054600160a01b900460ff166001145b6103a35760405162461bcd60e51b815260206004820152602e60248201527f496e697469616c697a61626c653a20636f6e747261637420697320616c72656160448201526d191e481a5b9a5d1a585b1a5e995960921b60648201526084015b60405180910390fd5b6000805460ff60a01b1916600160a01b17905580156103d0576000805460ff60a81b1916600160a81b1790555b6103d986610a52565b600180546001600160a01b038088166001600160a01b031992831617909255600280549287169290911691909117905560038390556004829055801561045b576000805460ff60a81b19169055604051600181527f7f26b83ff96e1f2b6a682f133852f6798a09c465da95921460cefb38474024989060200160405180910390a15b505050505050565b6104758261047083610aa2565b610650565b5050565b6104816105f6565b6040516370a0823160e01b81523060048201526001600160a01b0382169063a9059cbb90339083906370a082319060240160206040518083038186803b1580156104ca57600080fd5b505afa1580156104de573d6000803e3d6000fd5b505050506040513d601f19601f820116820180604052508101906105029190610c4f565b6040516001600160e01b031960e085901b1681526001600160a01b0390921660048301526024820152604401602060405180830381600087803b15801561054857600080fd5b505af115801561055c573d6000803e3d6000fd5b505050506040513d601f19601f820116820180604052508101906104759190610c68565b6105886105f6565b6001600160a01b0381166105ed5760405162461bcd60e51b815260206004820152602660248201527f4f776e61626c653a206e6577206f776e657220697320746865207a65726f206160448201526564647265737360d01b606482015260840161039a565b61021881610a52565b6000546001600160a01b031633146102f05760405162461bcd60e51b815260206004820181905260248201527f4f776e61626c653a2063616c6c6572206973206e6f7420746865206f776e6572604482015260640161039a565b60045442101561069a5760405162461bcd60e51b81526020600482015260156024820152741d985d5b1d081a5cc81cdd1a5b1b081b1bd8dad959605a1b604482015260640161039a565b60006106a461021b565b116106e25760405162461bcd60e51b815260206004820152600e60248201526d7661756c7420697320656d70747960901b604482015260640161039a565b60005b81518110156108b65760025482516001600160a01b03808616921690636352211e9085908590811061071957610719610c8a565b60200260200101516040518263ffffffff1660e01b815260040161073f91815260200190565b60206040518083038186803b15801561075757600080fd5b505afa15801561076b573d6000803e3d6000fd5b505050506040513d601f19601f8201168201806040525081019061078f9190610ca0565b6001600160a01b0316146107e55760405162461bcd60e51b815260206004820152601a60248201527f6164647265737320646f6573206e6f74206f776e20746f6b656e000000000000604482015260640161039a565b600560008383815181106107fb576107fb610c8a565b60209081029190910181015182528101919091526040016000205460ff161561085e5760405162461bcd60e51b81526020600482015260156024820152741d1bdad95b88185b1c9958591e4818db185a5b5959605a1b604482015260640161039a565b60016005600084848151811061087657610876610c8a565b6020026020010151815260200190815260200160002060006101000a81548160ff02191690831515021790555080806108ae90610cd3565b9150506106e5565b5060006108de82516108c760065490565b6108cf61021b565b6108d99190610cee565b610aed565b9050600081116109305760405162461bcd60e51b815260206004820152601f60248201527f6164647265737320686173206e6f20636c61696d61626c6520746f6b656e7300604482015260640161039a565b60015460405163a9059cbb60e01b81526001600160a01b038581166004830152602482018490529091169063a9059cbb90604401602060405180830381600087803b15801561097e57600080fd5b505af1158015610992573d6000803e3d6000fd5b505050506040513d601f19601f820116820180604052508101906109b69190610c68565b6109f45760405162461bcd60e51b815260206004820152600f60248201526e151c985b9cd9995c8819985a5b1959608a1b604482015260640161039a565b8060066000828254610a069190610cee565b9091555050604080516001600160a01b0385168152602081018390527fd8138f8a3f377c5259ca548e70e4c2de94f129f5a11036a15b69513cba2b426a910160405180910390a1505050565b600080546001600160a01b038381166001600160a01b0319831681178455604051919092169283917f8be0079c531659141344cd1fd0a4f28419497f9722a3daafe3b4186f6b6457e09190a35050565b60408051600180825281830190925260609160009190602080830190803683370190505090508281600081518110610adc57610adc610c8a565b602090810291909101015292915050565b600354600090610afd8484610d06565b610b079190610d25565b9392505050565b6001600160a01b038116811461021857600080fd5b600080600060408486031215610b3857600080fd5b8335610b4381610b0e565b9250602084013567ffffffffffffffff80821115610b6057600080fd5b818601915086601f830112610b7457600080fd5b813581811115610b8357600080fd5b8760208260051b8501011115610b9857600080fd5b6020830194508093505050509250925092565b600080600080600060a08688031215610bc357600080fd5b8535610bce81610b0e565b94506020860135610bde81610b0e565b93506040860135610bee81610b0e565b94979396509394606081013594506080013592915050565b60008060408385031215610c1957600080fd5b8235610c2481610b0e565b946020939093013593505050565b600060208284031215610c4457600080fd5b8135610b0781610b0e565b600060208284031215610c6157600080fd5b5051919050565b600060208284031215610c7a57600080fd5b81518015158114610b0757600080fd5b634e487b7160e01b600052603260045260246000fd5b600060208284031215610cb257600080fd5b8151610b0781610b0e565b634e487b7160e01b600052601160045260246000fd5b6000600019821415610ce757610ce7610cbd565b5060010190565b60008219821115610d0157610d01610cbd565b500190565b6000816000190483118215151615610d2057610d20610cbd565b500290565b600082610d4257634e487b7160e01b600052601260045260246000fd5b50049056fea2646970667358221220797d11ee07163df6c2bb199907606866dc3fe6870f0265b6251a82e5c1eb55df64736f6c63430008090033",
  "linkReferences": {},
  "deployedLinkReferences": {}
}