{
  "_format": "hh-sol-artifact-1",
  "contractName": "DCNTSDK",
  "sourceName": "contracts/DCNTSDK.sol",
  "abi": [
    {
      "inputs": [
        {
          "internalType": "address",
          "name": "_DCNT721AImplementation",
          "type": "address"
        },
        {
          "internalType": "address",
          "name": "_DCNT4907AImplementation",
          "type": "address"
        },
        {
          "internalType": "address",
          "name": "_DCNTCrescendoImplementation",
          "type": "address"
        },
        {
          "internalType": "address",
          "name": "_DCNTVaultImplementation",
          "type": "address"
        },
        {
          "internalType": "address",
          "name": "_DCNTStakingImplementation",
          "type": "address"
        }
      ],
      "stateMutability": "nonpayable",
      "type": "constructor"
    },
    {
      "anonymous": false,
      "inputs": [
        {
          "indexed": false,
          "internalType": "address",
          "name": "DCNT4907A",
          "type": "address"
        }
      ],
      "name": "DeployDCNT4907A",
      "type": "event"
    },
    {
      "anonymous": false,
      "inputs": [
        {
          "indexed": false,
          "internalType": "address",
          "name": "DCNT721A",
          "type": "address"
        }
      ],
      "name": "DeployDCNT721A",
      "type": "event"
    },
    {
      "anonymous": false,
      "inputs": [
        {
          "indexed": false,
          "internalType": "address",
          "name": "DCNTCrescendo",
          "type": "address"
        }
      ],
      "name": "DeployDCNTCrescendo",
      "type": "event"
    },
    {
      "anonymous": false,
      "inputs": [
        {
          "indexed": false,
          "internalType": "address",
          "name": "DCNTStaking",
          "type": "address"
        }
      ],
      "name": "DeployDCNTStaking",
      "type": "event"
    },
    {
      "anonymous": false,
      "inputs": [
        {
          "indexed": false,
          "internalType": "address",
          "name": "DCNTVault",
          "type": "address"
        }
      ],
      "name": "DeployDCNTVault",
      "type": "event"
    },
    {
      "anonymous": false,
      "inputs": [
        {
          "indexed": true,
          "internalType": "address",
          "name": "previousOwner",
          "type": "address"
        },
        {
          "indexed": true,
          "internalType": "address",
          "name": "newOwner",
          "type": "address"
        }
      ],
      "name": "OwnershipTransferred",
      "type": "event"
    },
    {
      "inputs": [],
      "name": "DCNT4907AImplementation",
      "outputs": [
        {
          "internalType": "address",
          "name": "",
          "type": "address"
        }
      ],
      "stateMutability": "view",
      "type": "function"
    },
    {
      "inputs": [],
      "name": "DCNT721AImplementation",
      "outputs": [
        {
          "internalType": "address",
          "name": "",
          "type": "address"
        }
      ],
      "stateMutability": "view",
      "type": "function"
    },
    {
      "inputs": [],
      "name": "DCNTCrescendoImplementation",
      "outputs": [
        {
          "internalType": "address",
          "name": "",
          "type": "address"
        }
      ],
      "stateMutability": "view",
      "type": "function"
    },
    {
      "inputs": [],
      "name": "DCNTStakingImplementation",
      "outputs": [
        {
          "internalType": "address",
          "name": "",
          "type": "address"
        }
      ],
      "stateMutability": "view",
      "type": "function"
    },
    {
      "inputs": [],
      "name": "DCNTVaultImplementation",
      "outputs": [
        {
          "internalType": "address",
          "name": "",
          "type": "address"
        }
      ],
      "stateMutability": "view",
      "type": "function"
    },
    {
      "inputs": [
        {
          "internalType": "uint256",
          "name": "",
          "type": "uint256"
        }
      ],
      "name": "allDCNT4907A",
      "outputs": [
        {
          "internalType": "address",
          "name": "",
          "type": "address"
        }
      ],
      "stateMutability": "view",
      "type": "function"
    },
    {
      "inputs": [
        {
          "internalType": "uint256",
          "name": "",
          "type": "uint256"
        }
      ],
      "name": "allDCNT721A",
      "outputs": [
        {
          "internalType": "address",
          "name": "",
          "type": "address"
        }
      ],
      "stateMutability": "view",
      "type": "function"
    },
    {
      "inputs": [
        {
          "internalType": "uint256",
          "name": "",
          "type": "uint256"
        }
      ],
      "name": "allDCNTCrescendo",
      "outputs": [
        {
          "internalType": "address",
          "name": "",
          "type": "address"
        }
      ],
      "stateMutability": "view",
      "type": "function"
    },
    {
      "inputs": [
        {
          "internalType": "uint256",
          "name": "",
          "type": "uint256"
        }
      ],
      "name": "allDCNTStaking",
      "outputs": [
        {
          "internalType": "address",
          "name": "",
          "type": "address"
        }
      ],
      "stateMutability": "view",
      "type": "function"
    },
    {
      "inputs": [
        {
          "internalType": "uint256",
          "name": "",
          "type": "uint256"
        }
      ],
      "name": "allDCNTVault",
      "outputs": [
        {
          "internalType": "address",
          "name": "",
          "type": "address"
        }
      ],
      "stateMutability": "view",
      "type": "function"
    },
    {
      "inputs": [
        {
          "internalType": "string",
          "name": "_name",
          "type": "string"
        },
        {
          "internalType": "string",
          "name": "_symbol",
          "type": "string"
        },
        {
          "internalType": "uint256",
          "name": "_maxTokens",
          "type": "uint256"
        },
        {
          "internalType": "uint256",
          "name": "_tokenPrice",
          "type": "uint256"
        },
        {
          "internalType": "uint256",
          "name": "_maxTokenPurchase",
          "type": "uint256"
        }
      ],
      "name": "deployDCNT4907A",
      "outputs": [],
      "stateMutability": "payable",
      "type": "function"
    },
    {
      "inputs": [
        {
          "internalType": "string",
          "name": "_name",
          "type": "string"
        },
        {
          "internalType": "string",
          "name": "_symbol",
          "type": "string"
        },
        {
          "internalType": "uint256",
          "name": "_maxTokens",
          "type": "uint256"
        },
        {
          "internalType": "uint256",
          "name": "_tokenPrice",
          "type": "uint256"
        },
        {
          "internalType": "uint256",
          "name": "_maxTokenPurchase",
          "type": "uint256"
        }
      ],
      "name": "deployDCNT721A",
      "outputs": [],
      "stateMutability": "payable",
      "type": "function"
    },
    {
      "inputs": [
        {
          "internalType": "string",
          "name": "_name",
          "type": "string"
        },
        {
          "internalType": "string",
          "name": "_symbol",
          "type": "string"
        },
        {
          "internalType": "string",
          "name": "_uri",
          "type": "string"
        },
        {
          "internalType": "uint256",
          "name": "_initialPrice",
          "type": "uint256"
        },
        {
          "internalType": "uint256",
          "name": "_step1",
          "type": "uint256"
        },
        {
          "internalType": "uint256",
          "name": "_step2",
          "type": "uint256"
        },
        {
          "internalType": "uint256",
          "name": "_hitch",
          "type": "uint256"
        },
        {
          "internalType": "uint256",
          "name": "_trNum",
          "type": "uint256"
        },
        {
          "internalType": "uint256",
          "name": "_trDenom",
          "type": "uint256"
        },
        {
          "internalType": "address payable",
          "name": "_payouts",
          "type": "address"
        }
      ],
      "name": "deployDCNTCrescendo",
      "outputs": [],
      "stateMutability": "payable",
      "type": "function"
    },
    {
      "inputs": [
        {
          "internalType": "address",
          "name": "_nft",
          "type": "address"
        },
        {
          "internalType": "address",
          "name": "_token",
          "type": "address"
        },
        {
          "internalType": "uint256",
          "name": "_vaultDuration",
          "type": "uint256"
        },
        {
          "internalType": "uint256",
          "name": "_totalSupply",
          "type": "uint256"
        }
      ],
      "name": "deployDCNTStaking",
      "outputs": [],
      "stateMutability": "payable",
      "type": "function"
    },
    {
      "inputs": [
        {
          "internalType": "address",
          "name": "_vaultDistributionTokenAddress",
          "type": "address"
        },
        {
          "internalType": "address",
          "name": "_nftVaultKeyAddress",
          "type": "address"
        },
        {
          "internalType": "uint256",
          "name": "_nftTotalSupply",
          "type": "uint256"
        },
        {
          "internalType": "uint256",
          "name": "_unlockDate",
          "type": "uint256"
        }
      ],
      "name": "deployDCNTVault",
      "outputs": [],
      "stateMutability": "payable",
      "type": "function"
    },
    {
      "inputs": [],
      "name": "owner",
      "outputs": [
        {
          "internalType": "address",
          "name": "",
          "type": "address"
        }
      ],
      "stateMutability": "view",
      "type": "function"
    },
    {
      "inputs": [],
      "name": "renounceOwnership",
      "outputs": [],
      "stateMutability": "nonpayable",
      "type": "function"
    },
    {
      "inputs": [
        {
          "internalType": "address",
          "name": "newOwner",
          "type": "address"
        }
      ],
      "name": "transferOwnership",
      "outputs": [],
      "stateMutability": "nonpayable",
      "type": "function"
    }
  ],
  "bytecode": "0x60806040523480156200001157600080fd5b5060405162001eec38038062001eec8339818101604052810190620000379190620002dd565b620000576200004b620001a760201b60201c565b620001af60201b60201c565b84600160006101000a81548173ffffffffffffffffffffffffffffffffffffffff021916908373ffffffffffffffffffffffffffffffffffffffff16021790555083600260006101000a81548173ffffffffffffffffffffffffffffffffffffffff021916908373ffffffffffffffffffffffffffffffffffffffff16021790555082600360006101000a81548173ffffffffffffffffffffffffffffffffffffffff021916908373ffffffffffffffffffffffffffffffffffffffff16021790555081600460006101000a81548173ffffffffffffffffffffffffffffffffffffffff021916908373ffffffffffffffffffffffffffffffffffffffff16021790555080600560006101000a81548173ffffffffffffffffffffffffffffffffffffffff021916908373ffffffffffffffffffffffffffffffffffffffff160217905550505050505062000365565b600033905090565b60008060009054906101000a900473ffffffffffffffffffffffffffffffffffffffff169050816000806101000a81548173ffffffffffffffffffffffffffffffffffffffff021916908373ffffffffffffffffffffffffffffffffffffffff1602179055508173ffffffffffffffffffffffffffffffffffffffff168173ffffffffffffffffffffffffffffffffffffffff167f8be0079c531659141344cd1fd0a4f28419497f9722a3daafe3b4186f6b6457e060405160405180910390a35050565b600080fd5b600073ffffffffffffffffffffffffffffffffffffffff82169050919050565b6000620002a58262000278565b9050919050565b620002b78162000298565b8114620002c357600080fd5b50565b600081519050620002d781620002ac565b92915050565b600080600080600060a08688031215620002fc57620002fb62000273565b5b60006200030c88828901620002c6565b95505060206200031f88828901620002c6565b94505060406200033288828901620002c6565b93505060606200034588828901620002c6565b92505060806200035888828901620002c6565b9150509295509295909350565b611b7780620003756000396000f3fe6080604052600436106101095760003560e01c806382882ff111610095578063bc10a4fa11610064578063bc10a4fa14610344578063ca825bb514610360578063f2fde38b1461038b578063f5c0eb6d146103b4578063f698e642146103f157610109565b806382882ff1146102955780638da5cb5b146102b157806397590fcc146102dc5780639f61dfec1461031957610109565b80634285656b116100dc5780634285656b146101de578063715018a61461020957806371da37ca1461022057806373d622f81461023c5780637caee4651461025857610109565b806310a089131461010e57806317a82e6114610139578063311ceaca146101765780633c3b370b146101b3575b600080fd5b34801561011a57600080fd5b5061012361040d565b6040516101309190611295565b60405180910390f35b34801561014557600080fd5b50610160600480360381019061015b91906112fa565b610433565b60405161016d9190611295565b60405180910390f35b34801561018257600080fd5b5061019d600480360381019061019891906112fa565b610472565b6040516101aa9190611295565b60405180910390f35b3480156101bf57600080fd5b506101c86104b1565b6040516101d59190611295565b60405180910390f35b3480156101ea57600080fd5b506101f36104d7565b6040516102009190611295565b60405180910390f35b34801561021557600080fd5b5061021e6104fd565b005b61023a600480360381019061023591906114ab565b610511565b005b6102566004803603810190610251919061160a565b610701565b005b34801561026457600080fd5b5061027f600480360381019061027a91906112fa565b6108df565b60405161028c9190611295565b60405180910390f35b6102af60048036038101906102aa9190611671565b61091e565b005b3480156102bd57600080fd5b506102c6610aff565b6040516102d39190611295565b60405180910390f35b3480156102e857600080fd5b5061030360048036038101906102fe91906112fa565b610b28565b6040516103109190611295565b60405180910390f35b34801561032557600080fd5b5061032e610b67565b60405161033b9190611295565b60405180910390f35b61035e6004803603810190610359919061160a565b610b8d565b005b34801561036c57600080fd5b50610375610d6b565b6040516103829190611295565b60405180910390f35b34801561039757600080fd5b506103b260048036038101906103ad9190611724565b610d91565b005b3480156103c057600080fd5b506103db60048036038101906103d691906112fa565b610e15565b6040516103e89190611295565b60405180910390f35b61040b60048036038101906104069190611671565b610e54565b005b600160009054906101000a900473ffffffffffffffffffffffffffffffffffffffff1681565b6008818154811061044357600080fd5b906000526020600020016000915054906101000a900473ffffffffffffffffffffffffffffffffffffffff1681565b600a818154811061048257600080fd5b906000526020600020016000915054906101000a900473ffffffffffffffffffffffffffffffffffffffff1681565b600560009054906101000a900473ffffffffffffffffffffffffffffffffffffffff1681565b600260009054906101000a900473ffffffffffffffffffffffffffffffffffffffff1681565b610505611035565b61050f60006110b3565b565b600061053e600360009054906101000a900473ffffffffffffffffffffffffffffffffffffffff16611177565b905060008173ffffffffffffffffffffffffffffffffffffffff1634338e8e8e8e8e8e8e8e8e8e60405160240161057f9b9a999897969594939291906117f7565b6040516020818303038152906040527fba8e7a3b000000000000000000000000000000000000000000000000000000007bffffffffffffffffffffffffffffffffffffffffffffffffffffffff19166020820180517bffffffffffffffffffffffffffffffffffffffffffffffffffffffff838183161783525050505060405161060991906118fe565b60006040518083038185875af1925050503d8060008114610646576040519150601f19603f3d011682016040523d82523d6000602084013e61064b565b606091505b505090508061065957600080fd5b6008829080600181540180825580915050600190039060005260206000200160009091909190916101000a81548173ffffffffffffffffffffffffffffffffffffffff021916908373ffffffffffffffffffffffffffffffffffffffff1602179055507f2c14c8ffafc8bfdf42e6469d6c292eeaebf445beafb817fb0bc9df3ebd89f006826040516106eb9190611295565b60405180910390a1505050505050505050505050565b600061072e600460009054906101000a900473ffffffffffffffffffffffffffffffffffffffff16611177565b905060008173ffffffffffffffffffffffffffffffffffffffff16343388888888604051602401610763959493929190611915565b6040516020818303038152906040527fa6b63eb8000000000000000000000000000000000000000000000000000000007bffffffffffffffffffffffffffffffffffffffffffffffffffffffff19166020820180517bffffffffffffffffffffffffffffffffffffffffffffffffffffffff83818316178352505050506040516107ed91906118fe565b60006040518083038185875af1925050503d806000811461082a576040519150601f19603f3d011682016040523d82523d6000602084013e61082f565b606091505b505090508061083d57600080fd5b6009829080600181540180825580915050600190039060005260206000200160009091909190916101000a81548173ffffffffffffffffffffffffffffffffffffffff021916908373ffffffffffffffffffffffffffffffffffffffff1602179055507ff12b488daa6140ffee78fe266c37addbbaea912b09ce36e613a17844dac4255b826040516108cf9190611295565b60405180910390a1505050505050565b600781815481106108ef57600080fd5b906000526020600020016000915054906101000a900473ffffffffffffffffffffffffffffffffffffffff1681565b600061094b600160009054906101000a900473ffffffffffffffffffffffffffffffffffffffff16611177565b905060008173ffffffffffffffffffffffffffffffffffffffff163433898989898960405160240161098296959493929190611968565b6040516020818303038152906040527fa3685b85000000000000000000000000000000000000000000000000000000007bffffffffffffffffffffffffffffffffffffffffffffffffffffffff19166020820180517bffffffffffffffffffffffffffffffffffffffffffffffffffffffff8381831617835250505050604051610a0c91906118fe565b60006040518083038185875af1925050503d8060008114610a49576040519150601f19603f3d011682016040523d82523d6000602084013e610a4e565b606091505b5050905080610a5c57600080fd5b6006829080600181540180825580915050600190039060005260206000200160009091909190916101000a81548173ffffffffffffffffffffffffffffffffffffffff021916908373ffffffffffffffffffffffffffffffffffffffff1602179055507f149ce80ffd882db4157fb46dd05201336d87f52ace89212615557e5455b8a0df82604051610aee9190611295565b60405180910390a150505050505050565b60008060009054906101000a900473ffffffffffffffffffffffffffffffffffffffff16905090565b60098181548110610b3857600080fd5b906000526020600020016000915054906101000a900473ffffffffffffffffffffffffffffffffffffffff1681565b600460009054906101000a900473ffffffffffffffffffffffffffffffffffffffff1681565b6000610bba600560009054906101000a900473ffffffffffffffffffffffffffffffffffffffff16611177565b905060008173ffffffffffffffffffffffffffffffffffffffff16343388888888604051602401610bef959493929190611915565b6040516020818303038152906040527fa6b63eb8000000000000000000000000000000000000000000000000000000007bffffffffffffffffffffffffffffffffffffffffffffffffffffffff19166020820180517bffffffffffffffffffffffffffffffffffffffffffffffffffffffff8381831617835250505050604051610c7991906118fe565b60006040518083038185875af1925050503d8060008114610cb6576040519150601f19603f3d011682016040523d82523d6000602084013e610cbb565b606091505b5050905080610cc957600080fd5b600a829080600181540180825580915050600190039060005260206000200160009091909190916101000a81548173ffffffffffffffffffffffffffffffffffffffff021916908373ffffffffffffffffffffffffffffffffffffffff1602179055507fe9eeb18af71a650338802cfcb86b39b211ed34fd8a37cacc5a16514a183e8d6682604051610d5b9190611295565b60405180910390a1505050505050565b600360009054906101000a900473ffffffffffffffffffffffffffffffffffffffff1681565b610d99611035565b600073ffffffffffffffffffffffffffffffffffffffff168173ffffffffffffffffffffffffffffffffffffffff161415610e09576040517f08c379a0000000000000000000000000000000000000000000000000000000008152600401610e0090611a49565b60405180910390fd5b610e12816110b3565b50565b60068181548110610e2557600080fd5b906000526020600020016000915054906101000a900473ffffffffffffffffffffffffffffffffffffffff1681565b6000610e81600260009054906101000a900473ffffffffffffffffffffffffffffffffffffffff16611177565b905060008173ffffffffffffffffffffffffffffffffffffffff1634338989898989604051602401610eb896959493929190611968565b6040516020818303038152906040527fa3685b85000000000000000000000000000000000000000000000000000000007bffffffffffffffffffffffffffffffffffffffffffffffffffffffff19166020820180517bffffffffffffffffffffffffffffffffffffffffffffffffffffffff8381831617835250505050604051610f4291906118fe565b60006040518083038185875af1925050503d8060008114610f7f576040519150601f19603f3d011682016040523d82523d6000602084013e610f84565b606091505b5050905080610f9257600080fd5b6007829080600181540180825580915050600190039060005260206000200160009091909190916101000a81548173ffffffffffffffffffffffffffffffffffffffff021916908373ffffffffffffffffffffffffffffffffffffffff1602179055507f3758a9cde202b40b236c1867c2734461fd598d835ad020bda26ca4f85838f2c4826040516110249190611295565b60405180910390a150505050505050565b61103d61124c565b73ffffffffffffffffffffffffffffffffffffffff1661105b610aff565b73ffffffffffffffffffffffffffffffffffffffff16146110b1576040517f08c379a00000000000000000000000000000000000000000000000000000000081526004016110a890611ab5565b60405180910390fd5b565b60008060009054906101000a900473ffffffffffffffffffffffffffffffffffffffff169050816000806101000a81548173ffffffffffffffffffffffffffffffffffffffff021916908373ffffffffffffffffffffffffffffffffffffffff1602179055508173ffffffffffffffffffffffffffffffffffffffff168173ffffffffffffffffffffffffffffffffffffffff167f8be0079c531659141344cd1fd0a4f28419497f9722a3daafe3b4186f6b6457e060405160405180910390a35050565b60006040517f3d602d80600a3d3981f3363d3d373d3d3d363d7300000000000000000000000081528260601b60148201527f5af43d82803e903d91602b57fd5bf3000000000000000000000000000000000060288201526037816000f0915050600073ffffffffffffffffffffffffffffffffffffffff168173ffffffffffffffffffffffffffffffffffffffff161415611247576040517f08c379a000000000000000000000000000000000000000000000000000000000815260040161123e90611b21565b60405180910390fd5b919050565b600033905090565b600073ffffffffffffffffffffffffffffffffffffffff82169050919050565b600061127f82611254565b9050919050565b61128f81611274565b82525050565b60006020820190506112aa6000830184611286565b92915050565b6000604051905090565b600080fd5b600080fd5b6000819050919050565b6112d7816112c4565b81146112e257600080fd5b50565b6000813590506112f4816112ce565b92915050565b6000602082840312156113105761130f6112ba565b5b600061131e848285016112e5565b91505092915050565b600080fd5b600080fd5b6000601f19601f8301169050919050565b7f4e487b7100000000000000000000000000000000000000000000000000000000600052604160045260246000fd5b61137a82611331565b810181811067ffffffffffffffff8211171561139957611398611342565b5b80604052505050565b60006113ac6112b0565b90506113b88282611371565b919050565b600067ffffffffffffffff8211156113d8576113d7611342565b5b6113e182611331565b9050602081019050919050565b82818337600083830152505050565b600061141061140b846113bd565b6113a2565b90508281526020810184848401111561142c5761142b61132c565b5b6114378482856113ee565b509392505050565b600082601f83011261145457611453611327565b5b81356114648482602086016113fd565b91505092915050565b600061147882611254565b9050919050565b6114888161146d565b811461149357600080fd5b50565b6000813590506114a58161147f565b92915050565b6000806000806000806000806000806101408b8d0312156114cf576114ce6112ba565b5b60008b013567ffffffffffffffff8111156114ed576114ec6112bf565b5b6114f98d828e0161143f565b9a505060208b013567ffffffffffffffff81111561151a576115196112bf565b5b6115268d828e0161143f565b99505060408b013567ffffffffffffffff811115611547576115466112bf565b5b6115538d828e0161143f565b98505060606115648d828e016112e5565b97505060806115758d828e016112e5565b96505060a06115868d828e016112e5565b95505060c06115978d828e016112e5565b94505060e06115a88d828e016112e5565b9350506101006115ba8d828e016112e5565b9250506101206115cc8d828e01611496565b9150509295989b9194979a5092959850565b6115e781611274565b81146115f257600080fd5b50565b600081359050611604816115de565b92915050565b60008060008060808587031215611624576116236112ba565b5b6000611632878288016115f5565b9450506020611643878288016115f5565b9350506040611654878288016112e5565b9250506060611665878288016112e5565b91505092959194509250565b600080600080600060a0868803121561168d5761168c6112ba565b5b600086013567ffffffffffffffff8111156116ab576116aa6112bf565b5b6116b78882890161143f565b955050602086013567ffffffffffffffff8111156116d8576116d76112bf565b5b6116e48882890161143f565b94505060406116f5888289016112e5565b9350506060611706888289016112e5565b9250506080611717888289016112e5565b9150509295509295909350565b60006020828403121561173a576117396112ba565b5b6000611748848285016115f5565b91505092915050565b600081519050919050565b600082825260208201905092915050565b60005b8381101561178b578082015181840152602081019050611770565b8381111561179a576000848401525b50505050565b60006117ab82611751565b6117b5818561175c565b93506117c581856020860161176d565b6117ce81611331565b840191505092915050565b6117e2816112c4565b82525050565b6117f18161146d565b82525050565b60006101608201905061180d600083018e611286565b818103602083015261181f818d6117a0565b90508181036040830152611833818c6117a0565b90508181036060830152611847818b6117a0565b9050611856608083018a6117d9565b61186360a08301896117d9565b61187060c08301886117d9565b61187d60e08301876117d9565b61188b6101008301866117d9565b6118996101208301856117d9565b6118a76101408301846117e8565b9c9b505050505050505050505050565b600081519050919050565b600081905092915050565b60006118d8826118b7565b6118e281856118c2565b93506118f281856020860161176d565b80840191505092915050565b600061190a82846118cd565b915081905092915050565b600060a08201905061192a6000830188611286565b6119376020830187611286565b6119446040830186611286565b61195160608301856117d9565b61195e60808301846117d9565b9695505050505050565b600060c08201905061197d6000830189611286565b818103602083015261198f81886117a0565b905081810360408301526119a381876117a0565b90506119b260608301866117d9565b6119bf60808301856117d9565b6119cc60a08301846117d9565b979650505050505050565b7f4f776e61626c653a206e6577206f776e657220697320746865207a65726f206160008201527f6464726573730000000000000000000000000000000000000000000000000000602082015250565b6000611a3360268361175c565b9150611a3e826119d7565b604082019050919050565b60006020820190508181036000830152611a6281611a26565b9050919050565b7f4f776e61626c653a2063616c6c6572206973206e6f7420746865206f776e6572600082015250565b6000611a9f60208361175c565b9150611aaa82611a69565b602082019050919050565b60006020820190508181036000830152611ace81611a92565b9050919050565b7f455243313136373a20637265617465206661696c656400000000000000000000600082015250565b6000611b0b60168361175c565b9150611b1682611ad5565b602082019050919050565b60006020820190508181036000830152611b3a81611afe565b905091905056fea264697066735822122040c2ed187007427cd0a305a2e0e70447243b37d77b94e59572e39747f973128b64736f6c63430008090033",
  "linkReferences": {},
  "deployedLinkReferences": {}
}