{
  "_format": "hh-sol-artifact-1",
  "contractName": "DCNTCrescendo",
  "sourceName": "contracts/DCNTCrescendo.sol",
  "abi": [
    {
      "anonymous": false,
      "inputs": [
        {
          "indexed": true,
          "internalType": "address",
          "name": "owner",
          "type": "address"
        },
        {
          "indexed": true,
          "internalType": "address",
          "name": "operator",
          "type": "address"
        },
        {
          "indexed": false,
          "internalType": "bool",
          "name": "approved",
          "type": "bool"
        }
      ],
      "name": "ApprovalForAll",
      "type": "event"
    },
    {
      "anonymous": false,
      "inputs": [
        {
          "indexed": true,
          "internalType": "address",
          "name": "sender",
          "type": "address"
        },
        {
          "indexed": false,
          "internalType": "uint256",
          "name": "amount",
          "type": "uint256"
        },
        {
          "indexed": false,
          "internalType": "uint256",
          "name": "id",
          "type": "uint256"
        },
        {
          "indexed": false,
          "internalType": "uint256",
          "name": "reimbursement",
          "type": "uint256"
        }
      ],
      "name": "CurvedBurn",
      "type": "event"
    },
    {
      "anonymous": false,
      "inputs": [
        {
          "indexed": true,
          "internalType": "address",
          "name": "sender",
          "type": "address"
        },
        {
          "indexed": false,
          "internalType": "uint256",
          "name": "amount",
          "type": "uint256"
        },
        {
          "indexed": false,
          "internalType": "uint256",
          "name": "id",
          "type": "uint256"
        },
        {
          "indexed": false,
          "internalType": "uint256",
          "name": "deposit",
          "type": "uint256"
        }
      ],
      "name": "CurvedMint",
      "type": "event"
    },
    {
      "anonymous": false,
      "inputs": [
        {
          "indexed": false,
          "internalType": "uint8",
          "name": "version",
          "type": "uint8"
        }
      ],
      "name": "Initialized",
      "type": "event"
    },
    {
      "anonymous": false,
      "inputs": [
        {
          "indexed": true,
          "internalType": "address",
          "name": "previousOwner",
          "type": "address"
        },
        {
          "indexed": true,
          "internalType": "address",
          "name": "newOwner",
          "type": "address"
        }
      ],
      "name": "OwnershipTransferred",
      "type": "event"
    },
    {
      "anonymous": false,
      "inputs": [
        {
          "indexed": true,
          "internalType": "address",
          "name": "operator",
          "type": "address"
        },
        {
          "indexed": true,
          "internalType": "address",
          "name": "from",
          "type": "address"
        },
        {
          "indexed": true,
          "internalType": "address",
          "name": "to",
          "type": "address"
        },
        {
          "indexed": false,
          "internalType": "uint256[]",
          "name": "ids",
          "type": "uint256[]"
        },
        {
          "indexed": false,
          "internalType": "uint256[]",
          "name": "amounts",
          "type": "uint256[]"
        }
      ],
      "name": "TransferBatch",
      "type": "event"
    },
    {
      "anonymous": false,
      "inputs": [
        {
          "indexed": true,
          "internalType": "address",
          "name": "operator",
          "type": "address"
        },
        {
          "indexed": true,
          "internalType": "address",
          "name": "from",
          "type": "address"
        },
        {
          "indexed": true,
          "internalType": "address",
          "name": "to",
          "type": "address"
        },
        {
          "indexed": false,
          "internalType": "uint256",
          "name": "id",
          "type": "uint256"
        },
        {
          "indexed": false,
          "internalType": "uint256",
          "name": "amount",
          "type": "uint256"
        }
      ],
      "name": "TransferSingle",
      "type": "event"
    },
    {
      "anonymous": false,
      "inputs": [
        {
          "indexed": false,
          "internalType": "string",
          "name": "value",
          "type": "string"
        },
        {
          "indexed": true,
          "internalType": "uint256",
          "name": "id",
          "type": "uint256"
        }
      ],
      "name": "URI",
      "type": "event"
    },
    {
      "inputs": [
        {
          "internalType": "address",
          "name": "",
          "type": "address"
        },
        {
          "internalType": "uint256",
          "name": "",
          "type": "uint256"
        }
      ],
      "name": "balanceOf",
      "outputs": [
        {
          "internalType": "uint256",
          "name": "",
          "type": "uint256"
        }
      ],
      "stateMutability": "view",
      "type": "function"
    },
    {
      "inputs": [
        {
          "internalType": "address[]",
          "name": "owners",
          "type": "address[]"
        },
        {
          "internalType": "uint256[]",
          "name": "ids",
          "type": "uint256[]"
        }
      ],
      "name": "balanceOfBatch",
      "outputs": [
        {
          "internalType": "uint256[]",
          "name": "balances",
          "type": "uint256[]"
        }
      ],
      "stateMutability": "view",
      "type": "function"
    },
    {
      "inputs": [
        {
          "internalType": "uint256",
          "name": "id",
          "type": "uint256"
        }
      ],
      "name": "buy",
      "outputs": [],
      "stateMutability": "payable",
      "type": "function"
    },
    {
      "inputs": [
        {
          "internalType": "uint256",
          "name": "amount",
          "type": "uint256"
        },
        {
          "internalType": "uint256",
          "name": "id",
          "type": "uint256"
        }
      ],
      "name": "calculateCurvedBurnReturn",
      "outputs": [
        {
          "internalType": "uint256",
          "name": "",
          "type": "uint256"
        }
      ],
      "stateMutability": "view",
      "type": "function"
    },
    {
      "inputs": [
        {
          "internalType": "uint256",
          "name": "amount",
          "type": "uint256"
        },
        {
          "internalType": "uint256",
          "name": "id",
          "type": "uint256"
        }
      ],
      "name": "calculateCurvedMintReturn",
      "outputs": [
        {
          "internalType": "uint256",
          "name": "",
          "type": "uint256"
        }
      ],
      "stateMutability": "view",
      "type": "function"
    },
    {
      "inputs": [],
      "name": "contractURI",
      "outputs": [
        {
          "internalType": "string",
          "name": "",
          "type": "string"
        }
      ],
      "stateMutability": "view",
      "type": "function"
    },
    {
      "inputs": [],
      "name": "contractVersion",
      "outputs": [
        {
          "internalType": "uint32",
          "name": "",
          "type": "uint32"
        }
      ],
      "stateMutability": "view",
      "type": "function"
    },
    {
      "inputs": [
        {
          "internalType": "address",
          "name": "_splitMain",
          "type": "address"
        },
        {
          "internalType": "address[]",
          "name": "accounts",
          "type": "address[]"
        },
        {
          "internalType": "uint32[]",
          "name": "percentAllocations",
          "type": "uint32[]"
        },
        {
          "internalType": "uint32",
          "name": "distributorFee",
          "type": "uint32"
        }
      ],
      "name": "createSplit",
      "outputs": [],
      "stateMutability": "nonpayable",
      "type": "function"
    },
    {
      "inputs": [
        {
          "internalType": "address",
          "name": "account",
          "type": "address"
        },
        {
          "internalType": "uint256",
          "name": "withdrawETH",
          "type": "uint256"
        },
        {
          "internalType": "contract ERC20[]",
          "name": "tokens",
          "type": "address[]"
        },
        {
          "internalType": "address[]",
          "name": "accounts",
          "type": "address[]"
        },
        {
          "internalType": "uint32[]",
          "name": "percentAllocations",
          "type": "uint32[]"
        },
        {
          "internalType": "uint32",
          "name": "distributorFee",
          "type": "uint32"
        },
        {
          "internalType": "address",
          "name": "distributorAddress",
          "type": "address"
        }
      ],
      "name": "distributeAndWithdraw",
      "outputs": [],
      "stateMutability": "nonpayable",
      "type": "function"
    },
    {
      "inputs": [
        {
          "internalType": "address",
          "name": "account",
          "type": "address"
        },
        {
          "internalType": "uint256",
          "name": "withdrawETH",
          "type": "uint256"
        },
        {
          "internalType": "contract ERC20[]",
          "name": "tokens",
          "type": "address[]"
        },
        {
          "internalType": "address[]",
          "name": "accounts",
          "type": "address[]"
        },
        {
          "internalType": "uint32[]",
          "name": "percentAllocations",
          "type": "uint32[]"
        },
        {
          "internalType": "uint32",
          "name": "distributorFee",
          "type": "uint32"
        },
        {
          "internalType": "address",
          "name": "distributorAddress",
          "type": "address"
        }
      ],
      "name": "distributeAndWithdrawFund",
      "outputs": [],
      "stateMutability": "nonpayable",
      "type": "function"
    },
    {
      "inputs": [
        {
          "internalType": "contract ERC20",
          "name": "token",
          "type": "address"
        },
        {
          "internalType": "address[]",
          "name": "accounts",
          "type": "address[]"
        },
        {
          "internalType": "uint32[]",
          "name": "percentAllocations",
          "type": "uint32[]"
        },
        {
          "internalType": "uint32",
          "name": "distributorFee",
          "type": "uint32"
        },
        {
          "internalType": "address",
          "name": "distributorAddress",
          "type": "address"
        }
      ],
      "name": "distributeERC20",
      "outputs": [],
      "stateMutability": "nonpayable",
      "type": "function"
    },
    {
      "inputs": [
        {
          "internalType": "address[]",
          "name": "accounts",
          "type": "address[]"
        },
        {
          "internalType": "uint32[]",
          "name": "percentAllocations",
          "type": "uint32[]"
        },
        {
          "internalType": "uint32",
          "name": "distributorFee",
          "type": "uint32"
        },
        {
          "internalType": "address",
          "name": "distributorAddress",
          "type": "address"
        }
      ],
      "name": "distributeETH",
      "outputs": [],
      "stateMutability": "nonpayable",
      "type": "function"
    },
    {
      "inputs": [],
      "name": "flipSaleState",
      "outputs": [],
      "stateMutability": "nonpayable",
      "type": "function"
    },
    {
      "inputs": [],
      "name": "hitch",
      "outputs": [
        {
          "internalType": "uint256",
          "name": "",
          "type": "uint256"
        }
      ],
      "stateMutability": "view",
      "type": "function"
    },
    {
      "inputs": [
        {
          "internalType": "address",
          "name": "_owner",
          "type": "address"
        },
        {
          "components": [
            {
              "internalType": "string",
              "name": "name",
              "type": "string"
            },
            {
              "internalType": "string",
              "name": "symbol",
              "type": "string"
            },
            {
              "internalType": "uint256",
              "name": "initialPrice",
              "type": "uint256"
            },
            {
              "internalType": "uint256",
              "name": "step1",
              "type": "uint256"
            },
            {
              "internalType": "uint256",
              "name": "step2",
              "type": "uint256"
            },
            {
              "internalType": "uint256",
              "name": "hitch",
              "type": "uint256"
            },
            {
              "internalType": "uint256",
              "name": "takeRateBPS",
              "type": "uint256"
            },
            {
              "internalType": "uint256",
              "name": "unlockDate",
              "type": "uint256"
            },
            {
              "internalType": "uint256",
              "name": "saleStart",
              "type": "uint256"
            },
            {
              "internalType": "uint256",
              "name": "royaltyBPS",
              "type": "uint256"
            }
          ],
          "internalType": "struct CrescendoConfig",
          "name": "_config",
          "type": "tuple"
        },
        {
          "components": [
            {
              "internalType": "string",
              "name": "contractURI",
              "type": "string"
            },
            {
              "internalType": "string",
              "name": "metadataURI",
              "type": "string"
            },
            {
              "internalType": "bytes",
              "name": "metadataRendererInit",
              "type": "bytes"
            },
            {
              "internalType": "address",
              "name": "parentIP",
              "type": "address"
            }
          ],
          "internalType": "struct MetadataConfig",
          "name": "_metadataConfig",
          "type": "tuple"
        },
        {
          "internalType": "address",
          "name": "_metadataRenderer",
          "type": "address"
        }
      ],
      "name": "initialize",
      "outputs": [],
      "stateMutability": "nonpayable",
      "type": "function"
    },
    {
      "inputs": [
        {
          "internalType": "address",
          "name": "",
          "type": "address"
        },
        {
          "internalType": "address",
          "name": "",
          "type": "address"
        }
      ],
      "name": "isApprovedForAll",
      "outputs": [
        {
          "internalType": "bool",
          "name": "",
          "type": "bool"
        }
      ],
      "stateMutability": "view",
      "type": "function"
    },
    {
      "inputs": [],
      "name": "liquidity",
      "outputs": [
        {
          "internalType": "uint256",
          "name": "",
          "type": "uint256"
        }
      ],
      "stateMutability": "view",
      "type": "function"
    },
    {
      "inputs": [],
      "name": "metadataRenderer",
      "outputs": [
        {
          "internalType": "address",
          "name": "",
          "type": "address"
        }
      ],
      "stateMutability": "view",
      "type": "function"
    },
    {
      "inputs": [],
      "name": "name",
      "outputs": [
        {
          "internalType": "string",
          "name": "",
          "type": "string"
        }
      ],
      "stateMutability": "view",
      "type": "function"
    },
    {
      "inputs": [],
      "name": "owner",
      "outputs": [
        {
          "internalType": "address",
          "name": "",
          "type": "address"
        }
      ],
      "stateMutability": "view",
      "type": "function"
    },
    {
      "inputs": [],
      "name": "parentIP",
      "outputs": [
        {
          "internalType": "address",
          "name": "",
          "type": "address"
        }
      ],
      "stateMutability": "view",
      "type": "function"
    },
    {
      "inputs": [],
      "name": "renounceOwnership",
      "outputs": [],
      "stateMutability": "nonpayable",
      "type": "function"
    },
    {
      "inputs": [],
      "name": "reserveAmt",
      "outputs": [
        {
          "internalType": "uint256",
          "name": "",
          "type": "uint256"
        }
      ],
      "stateMutability": "view",
      "type": "function"
    },
    {
      "inputs": [],
      "name": "royaltyBPS",
      "outputs": [
        {
          "internalType": "uint256",
          "name": "",
          "type": "uint256"
        }
      ],
      "stateMutability": "view",
      "type": "function"
    },
    {
      "inputs": [
        {
          "internalType": "uint256",
          "name": "tokenId",
          "type": "uint256"
        },
        {
          "internalType": "uint256",
          "name": "salePrice",
          "type": "uint256"
        }
      ],
      "name": "royaltyInfo",
      "outputs": [
        {
          "internalType": "address",
          "name": "receiver",
          "type": "address"
        },
        {
          "internalType": "uint256",
          "name": "royaltyAmount",
          "type": "uint256"
        }
      ],
      "stateMutability": "view",
      "type": "function"
    },
    {
      "inputs": [
        {
          "internalType": "address",
          "name": "from",
          "type": "address"
        },
        {
          "internalType": "address",
          "name": "to",
          "type": "address"
        },
        {
          "internalType": "uint256[]",
          "name": "ids",
          "type": "uint256[]"
        },
        {
          "internalType": "uint256[]",
          "name": "amounts",
          "type": "uint256[]"
        },
        {
          "internalType": "bytes",
          "name": "data",
          "type": "bytes"
        }
      ],
      "name": "safeBatchTransferFrom",
      "outputs": [],
      "stateMutability": "nonpayable",
      "type": "function"
    },
    {
      "inputs": [
        {
          "internalType": "address",
          "name": "from",
          "type": "address"
        },
        {
          "internalType": "address",
          "name": "to",
          "type": "address"
        },
        {
          "internalType": "uint256",
          "name": "id",
          "type": "uint256"
        },
        {
          "internalType": "uint256",
          "name": "amount",
          "type": "uint256"
        },
        {
          "internalType": "bytes",
          "name": "data",
          "type": "bytes"
        }
      ],
      "name": "safeTransferFrom",
      "outputs": [],
      "stateMutability": "nonpayable",
      "type": "function"
    },
    {
      "inputs": [],
      "name": "saleIsActive",
      "outputs": [
        {
          "internalType": "bool",
          "name": "_saleIsActive",
          "type": "bool"
        }
      ],
      "stateMutability": "view",
      "type": "function"
    },
    {
      "inputs": [],
      "name": "saleIsPaused",
      "outputs": [
        {
          "internalType": "bool",
          "name": "",
          "type": "bool"
        }
      ],
      "stateMutability": "view",
      "type": "function"
    },
    {
      "inputs": [],
      "name": "saleStart",
      "outputs": [
        {
          "internalType": "uint256",
          "name": "",
          "type": "uint256"
        }
      ],
      "stateMutability": "view",
      "type": "function"
    },
    {
      "inputs": [
        {
          "internalType": "uint256",
          "name": "id",
          "type": "uint256"
        }
      ],
      "name": "sell",
      "outputs": [],
      "stateMutability": "nonpayable",
      "type": "function"
    },
    {
      "inputs": [
        {
          "internalType": "address",
          "name": "operator",
          "type": "address"
        },
        {
          "internalType": "bool",
          "name": "approved",
          "type": "bool"
        }
      ],
      "name": "setApprovalForAll",
      "outputs": [],
      "stateMutability": "nonpayable",
      "type": "function"
    },
    {
      "inputs": [
        {
          "internalType": "address",
          "name": "_metadataRenderer",
          "type": "address"
        }
      ],
      "name": "setMetadataRenderer",
      "outputs": [],
      "stateMutability": "nonpayable",
      "type": "function"
    },
    {
      "inputs": [],
      "name": "splitMain",
      "outputs": [
        {
          "internalType": "address",
          "name": "",
          "type": "address"
        }
      ],
      "stateMutability": "view",
      "type": "function"
    },
    {
      "inputs": [],
      "name": "splitWallet",
      "outputs": [
        {
          "internalType": "address",
          "name": "",
          "type": "address"
        }
      ],
      "stateMutability": "view",
      "type": "function"
    },
    {
      "inputs": [],
      "name": "step1",
      "outputs": [
        {
          "internalType": "uint256",
          "name": "",
          "type": "uint256"
        }
      ],
      "stateMutability": "view",
      "type": "function"
    },
    {
      "inputs": [],
      "name": "step2",
      "outputs": [
        {
          "internalType": "uint256",
          "name": "",
          "type": "uint256"
        }
      ],
      "stateMutability": "view",
      "type": "function"
    },
    {
      "inputs": [
        {
          "internalType": "bytes4",
          "name": "interfaceId",
          "type": "bytes4"
        }
      ],
      "name": "supportsInterface",
      "outputs": [
        {
          "internalType": "bool",
          "name": "",
          "type": "bool"
        }
      ],
      "stateMutability": "view",
      "type": "function"
    },
    {
      "inputs": [],
      "name": "symbol",
      "outputs": [
        {
          "internalType": "string",
          "name": "",
          "type": "string"
        }
      ],
      "stateMutability": "view",
      "type": "function"
    },
    {
      "inputs": [],
      "name": "takeRateBPS",
      "outputs": [
        {
          "internalType": "uint256",
          "name": "",
          "type": "uint256"
        }
      ],
      "stateMutability": "view",
      "type": "function"
    },
    {
      "inputs": [
        {
          "internalType": "uint256",
          "name": "id",
          "type": "uint256"
        }
      ],
      "name": "totalSupply",
      "outputs": [
        {
          "internalType": "uint256",
          "name": "",
          "type": "uint256"
        }
      ],
      "stateMutability": "view",
      "type": "function"
    },
    {
      "inputs": [],
      "name": "totalWithdrawn",
      "outputs": [
        {
          "internalType": "uint256",
          "name": "",
          "type": "uint256"
        }
      ],
      "stateMutability": "view",
      "type": "function"
    },
    {
      "inputs": [
        {
          "internalType": "uint256",
          "name": "transferETH",
          "type": "uint256"
        },
        {
          "internalType": "contract ERC20[]",
          "name": "tokens",
          "type": "address[]"
        }
      ],
      "name": "transferFundToSplit",
      "outputs": [],
      "stateMutability": "nonpayable",
      "type": "function"
    },
    {
      "inputs": [
        {
          "internalType": "address",
          "name": "newOwner",
          "type": "address"
        }
      ],
      "name": "transferOwnership",
      "outputs": [],
      "stateMutability": "nonpayable",
      "type": "function"
    },
    {
      "inputs": [
        {
          "internalType": "uint256",
          "name": "transferETH",
          "type": "uint256"
        },
        {
          "internalType": "contract ERC20[]",
          "name": "tokens",
          "type": "address[]"
        }
      ],
      "name": "transferToSplit",
      "outputs": [],
      "stateMutability": "nonpayable",
      "type": "function"
    },
    {
      "inputs": [],
      "name": "unlockDate",
      "outputs": [
        {
          "internalType": "uint256",
          "name": "",
          "type": "uint256"
        }
      ],
      "stateMutability": "view",
      "type": "function"
    },
    {
      "inputs": [
        {
          "internalType": "string",
          "name": "contractURI_",
          "type": "string"
        }
      ],
      "name": "updateContractURI",
      "outputs": [],
      "stateMutability": "nonpayable",
      "type": "function"
    },
    {
      "inputs": [
        {
          "internalType": "string",
          "name": "uri_",
          "type": "string"
        }
      ],
      "name": "updateUri",
      "outputs": [],
      "stateMutability": "nonpayable",
      "type": "function"
    },
    {
      "inputs": [
        {
          "internalType": "uint256",
          "name": "",
          "type": "uint256"
        }
      ],
      "name": "uri",
      "outputs": [
        {
          "internalType": "string",
          "name": "",
          "type": "string"
        }
      ],
      "stateMutability": "view",
      "type": "function"
    },
    {
      "inputs": [],
      "name": "withdraw",
      "outputs": [],
      "stateMutability": "nonpayable",
      "type": "function"
    },
    {
      "inputs": [],
      "name": "withdrawFund",
      "outputs": [],
      "stateMutability": "nonpayable",
      "type": "function"
    }
  ],
  "bytecode": "0x60a060405260006010553480156200001657600080fd5b506003620000243362000033565b63ffffffff166080526200008f565b600280546001600160a01b038381166201000081810262010000600160b01b031985161790945560405193909204169182907f8be0079c531659141344cd1fd0a4f28419497f9722a3daafe3b4186f6b6457e090600090a35050565b608051613b84620000ab60003960006106b90152613b846000f3fe6080604052600436106102e25760003560e01c80638f4ed33311610190578063d44ed4c6116100dc578063e985e9c511610095578063f0cc8b621161006f578063f0cc8b62146108ce578063f242432a146108ee578063f2fde38b1461090e578063fd4fe8a81461092e57600080fd5b8063e985e9c51461085e578063eb8d244414610899578063ee37778d146108ae57600080fd5b8063d44ed4c6146107c7578063d96a094a146107e7578063e07fa3c1146107fa578063e4849b321461080f578063e6c350c11461082f578063e8a3d4851461084957600080fd5b8063a3111abd11610149578063b9c9d93a11610123578063b9c9d93a1461074e578063bd85b03914610764578063c4559d5a14610791578063d40a71fb146107b157600080fd5b8063a3111abd14610703578063ab0bcc4114610723578063af548ffb1461073957600080fd5b80638f4ed3331461063757806390619fa81461064d57806394a11aea1461066d57806395d89b411461068d578063a0a8e460146106a2578063a22cb465146106e357600080fd5b8063350aa1911161024f57806369ac572111610208578063715018a6116101e2578063715018a6146105be57806379ab7c8e146105d35780637e5b1e24146105f35780638da5cb5b1461061357600080fd5b806369ac572114610568578063703199701461057e578063713b97871461059e57600080fd5b8063350aa191146104c45780633ccfd60b146104da57806343a58f06146104ef5780634b319713146105055780634e1273f41461051b578063570b3c6a1461054857600080fd5b80631a686502116102a15780631a686502146103fb578063284a44a8146104105780632a55205a146104305780632eb2c2d61461046f57806333ea3e6d1461048f57806334918dfd146104af57600080fd5b80625f16fb146102e7578062fdd58e1461030957806301ffc9a71461035157806306fdde03146103815780630e769b2b146103a35780630e89341c146103db575b600080fd5b3480156102f357600080fd5b5061030761030236600461295e565b61094e565b005b34801561031557600080fd5b5061033e610324366004612a05565b600060208181529281526040808220909352908152205481565b6040519081526020015b60405180910390f35b34801561035d57600080fd5b5061037161036c366004612a47565b610a05565b6040519015158152602001610348565b34801561038d57600080fd5b50610396610a30565b6040516103489190612ab4565b3480156103af57600080fd5b506003546103c3906001600160a01b031681565b6040516001600160a01b039091168152602001610348565b3480156103e757600080fd5b506103966103f6366004612ac7565b610ac2565b34801561040757600080fd5b5061033e610bd9565b34801561041c57600080fd5b5061030761042b366004612bf9565b610c08565b34801561043c57600080fd5b5061045061044b366004612ccd565b610c9f565b604080516001600160a01b039093168352602083019190915201610348565b34801561047b57600080fd5b5061030761048a366004612d30565b610d21565b34801561049b57600080fd5b506103076104aa366004612dee565b610fc4565b3480156104bb57600080fd5b506103076110d1565b3480156104d057600080fd5b5061033e600c5481565b3480156104e657600080fd5b506103076110ed565b3480156104fb57600080fd5b5061033e600b5481565b34801561051157600080fd5b5061033e60105481565b34801561052757600080fd5b5061053b610536366004612e7f565b6111ba565b6040516103489190612eea565b34801561055457600080fd5b50610307610563366004612fb3565b6112ee565b34801561057457600080fd5b5061033e60135481565b34801561058a57600080fd5b506014546103c3906001600160a01b031681565b3480156105aa57600080fd5b506004546103c3906001600160a01b031681565b3480156105ca57600080fd5b50610307611302565b3480156105df57600080fd5b506103076105ee366004612fef565b611316565b3480156105ff57600080fd5b5061030761060e366004612fb3565b61138f565b34801561061f57600080fd5b506002546201000090046001600160a01b03166103c3565b34801561064357600080fd5b5061033e600a5481565b34801561065957600080fd5b50610307610668366004612fef565b6113a3565b34801561067957600080fd5b50610307610688366004612bf9565b61142c565b34801561069957600080fd5b50610396611528565b3480156106ae57600080fd5b5060405163ffffffff7f0000000000000000000000000000000000000000000000000000000000000000168152602001610348565b3480156106ef57600080fd5b506103076106fe366004613039565b611537565b34801561070f57600080fd5b5061033e61071e366004612ccd565b6115a3565b34801561072f57600080fd5b5061033e60115481565b34801561074557600080fd5b5061033e6115fc565b34801561075a57600080fd5b5061033e600d5481565b34801561077057600080fd5b5061033e61077f366004612ac7565b6000908152600e602052604090205490565b34801561079d57600080fd5b506103076107ac366004613072565b611628565b3480156107bd57600080fd5b5061033e60095481565b3480156107d357600080fd5b506103076107e23660046131bd565b6116c6565b6103076107f5366004612ac7565b61193a565b34801561080657600080fd5b50610307611be3565b34801561081b57600080fd5b5061030761082a366004612ac7565b611cce565b34801561083b57600080fd5b506012546103719060ff1681565b34801561085557600080fd5b50610396611f65565b34801561086a57600080fd5b506103716108793660046132ec565b600160209081526000928352604080842090915290825290205460ff1681565b3480156108a557600080fd5b50610371612001565b3480156108ba57600080fd5b5061033e6108c9366004612ccd565b61201b565b3480156108da57600080fd5b506015546103c3906001600160a01b031681565b3480156108fa57600080fd5b5061030761090936600461331a565b61209b565b34801561091a57600080fd5b50610307610929366004613395565b612295565b34801561093a57600080fd5b50610307610949366004613395565b61230b565b6004546001600160a01b031661097f5760405162461bcd60e51b8152600401610976906133b2565b60405180910390fd5b61098887612335565b60035460048054604051630ac0898160e11b81526001600160a01b03938416936315811302936109ca93909116918c918c918c918c918c918c918c9101613463565b600060405180830381600087803b1580156109e457600080fd5b505af11580156109f8573d6000803e3d6000fd5b5050505050505050505050565b600063152a902d60e11b6001600160e01b031983161480610a2a5750610a2a8261241d565b92915050565b606060058054610a3f906134c5565b80601f0160208091040260200160405190810160405280929190818152602001828054610a6b906134c5565b8015610ab85780601f10610a8d57610100808354040283529160200191610ab8565b820191906000526020600020905b815481529060010190602001808311610a9b57829003601f168201915b5050505050905090565b6014546060906001600160a01b031615610b475760145460405163c87b56dd60e01b8152600160048201526001600160a01b039091169063c87b56dd90602401600060405180830381865afa158015610b1f573d6000803e3d6000fd5b505050506040513d6000823e601f3d908101601f19168201604052610a2a91908101906134ff565b60078054610b54906134c5565b80601f0160208091040260200160405190810160405280929190818152602001828054610b80906134c5565b8015610bcd5780601f10610ba257610100808354040283529160200191610bcd565b820191906000526020600020905b815481529060010190602001808311610bb057829003601f168201915b50505050509050919050565b600061271060105447610bec919061358b565b600c54610bf9919061359e565b610c0391906135b5565b905090565b6004546001600160a01b0316610c305760405162461bcd60e51b8152600401610976906133b2565b8715610c4457610c44868686868686611628565b60005b8751811015610c8857610c78888281518110610c6557610c656135d7565b602002602001015188888888888861094e565b610c81816135ed565b9050610c47565b50610c9489898961246b565b505050505050505050565b6000808315610cc05760405162461bcd60e51b815260040161097690613606565b6004546001600160a01b031615610ce4576004546001600160a01b03169150610cf9565b6002546201000090046001600160a01b031691505b6000612710600d5485610d0c919061359e565b610d1691906135b5565b9150505b9250929050565b848314610d625760405162461bcd60e51b815260206004820152600f60248201526e0988a9c8ea890be9a92a69a82a8869608b1b6044820152606401610976565b336001600160a01b0389161480610d9c57506001600160a01b038816600090815260016020908152604080832033845290915290205460ff165b610dd95760405162461bcd60e51b815260206004820152600e60248201526d1393d517d055551213d49256915160921b6044820152606401610976565b60008060005b87811015610e9457888882818110610df957610df96135d7565b905060200201359250868682818110610e1457610e146135d7565b6001600160a01b038e1660009081526020818152604080832089845282528220805493909102949094013595508593925090610e5190849061363d565b90915550506001600160a01b038a1660009081526020818152604080832086845290915281208054849290610e8790849061358b565b9091555050600101610ddf565b50886001600160a01b03168a6001600160a01b0316336001600160a01b03167f4a39dc06d4c0dbc64b70af90fd698a233a518aa5d07e595d983b8c0526c8f7fb8b8b8b8b604051610ee89493929190613682565b60405180910390a46001600160a01b0389163b15610f8f5760405163bc197c8160e01b808252906001600160a01b038b169063bc197c8190610f3c9033908f908e908e908e908e908e908e906004016136d2565b6020604051808303816000875af1158015610f5b573d6000803e3d6000fd5b505050506040513d601f19601f82011682018060405250810190610f7f9190613736565b6001600160e01b03191614610f9c565b6001600160a01b03891615155b610fb85760405162461bcd60e51b815260040161097690613753565b50505050505050505050565b610fcc6124d6565b6004546001600160a01b03161561101d5760405162461bcd60e51b815260206004820152601560248201527414dc1b1a5d08185b1c9958591e4818dc99585d1959605a1b6044820152606401610976565b600380546001600160a01b0319166001600160a01b038816908117909155604051633b00fbc160e11b8152637601f782906110669088908890889088908890339060040161377d565b6020604051808303816000875af1158015611085573d6000803e3d6000fd5b505050506040513d601f19601f820116820180604052508101906110a991906137ce565b600480546001600160a01b0319166001600160a01b0392909216919091179055505050505050565b6110d96124d6565b6012805460ff19811660ff90911615179055565b6110f56124d6565b6004546001600160a01b03161561111e5760405162461bcd60e51b8152600401610976906137eb565b600060105461112b610bd9565b611135919061363d565b90508060106000828254611149919061358b565b9091555050604051600090339083908381818185875af1925050503d8060008114611190576040519150601f19603f3d011682016040523d82523d6000602084013e611195565b606091505b50509050806111b65760405162461bcd60e51b81526004016109769061382f565b5050565b60608382146111fd5760405162461bcd60e51b815260206004820152600f60248201526e0988a9c8ea890be9a92a69a82a8869608b1b6044820152606401610976565b836001600160401b0381111561121557611215612ae0565b60405190808252806020026020018201604052801561123e578160200160208202803683370190505b50905060005b848110156112e557600080878784818110611261576112616135d7565b90506020020160208101906112769190613395565b6001600160a01b03166001600160a01b0316815260200190815260200160002060008585848181106112aa576112aa6135d7565b905060200201358152602001908152602001600020548282815181106112d2576112d26135d7565b6020908102919091010152600101611244565b50949350505050565b6112f66124d6565b6112ff81612537565b50565b61130a6124d6565b6113146000612543565b565b6004546001600160a01b031661133e5760405162461bcd60e51b8152600401610976906133b2565b811561134c5761134c61259f565b60005b815181101561138a5761137a82828151811061136d5761136d6135d7565b6020026020010151612335565b611383816135ed565b905061134f565b505050565b6113976124d6565b60086111b682826138a3565b6004546001600160a01b03166113cb5760405162461bcd60e51b8152600401610976906133b2565b6013544210156113ed5760405162461bcd60e51b815260040161097690613962565b81156113fb576113fb612672565b60005b815181101561138a5761141c82828151811061136d5761136d6135d7565b611425816135ed565b90506113fe565b6004546001600160a01b03166114545760405162461bcd60e51b8152600401610976906133b2565b6013544210156114765760405162461bcd60e51b815260040161097690613962565b87156114f757611484612672565b6003546004805460405163730e582f60e11b81526001600160a01b039384169363e61cb05e936114c493909116918b918b918b918b918b918b9101613999565b600060405180830381600087803b1580156114de57600080fd5b505af11580156114f2573d6000803e3d6000fd5b505050505b60005b8751811015610c8857611518888281518110610c6557610c656135d7565b611521816135ed565b90506114fa565b606060068054610a3f906134c5565b3360008181526001602090815260408083206001600160a01b03871680855290835292819020805460ff191686151590811790915590519081529192917f17307eab39ab6107e8899845ad3d59bd9653f200f220920489ca2b5937696c31910160405180910390a35050565b6000826001146115e75760405162461bcd60e51b815260206004820152600f60248201526e6d617820616d6f756e74206973203160881b6044820152606401610976565b506000908152600f6020526040902054919050565b60006127106010544761160f919061358b565b600c5461161e9061271061363d565b610bf9919061359e565b6004546001600160a01b03166116505760405162461bcd60e51b8152600401610976906133b2565b61165861259f565b6003546004805460405163730e582f60e11b81526001600160a01b039384169363e61cb05e9361169893909116918b918b918b918b918b918b9101613999565b600060405180830381600087803b1580156116b257600080fd5b505af1158015610fb8573d6000803e3d6000fd5b600254610100900460ff16158080156116e65750600254600160ff909116105b806117005750303b158015611700575060025460ff166001145b6117635760405162461bcd60e51b815260206004820152602e60248201527f496e697469616c697a61626c653a20636f6e747261637420697320616c72656160448201526d191e481a5b9a5d1a585b1a5e995960921b6064820152608401610976565b6002805460ff191660011790558015611786576002805461ff0019166101001790555b61178f85612543565b604084015160008052600f6020527ff4803e074bd026baaf6ed2e288c9515f68c72fb7216eebdd7cae1718a53ec3755560608401516009556080840151600a5560a0840151600b5560c0840151600c5560e084015160135583516005906117f690826138a3565b50602084015160069061180990826138a3565b50610100840151601155610120840151600d556060830151601580546001600160a01b0319166001600160a01b0392831617905582161580159061185257506000836040015151115b156118d057601480546001600160a01b0319166001600160a01b03841690811790915560408481015190516342b53ffd60e11b815263856a7ffa9161189991600401612ab4565b600060405180830381600087803b1580156118b357600080fd5b505af11580156118c7573d6000803e3d6000fd5b505050506118ed565b82516008906118df90826138a3565b506118ed8360200151612537565b8015611933576002805461ff0019169055604051600181527f7f26b83ff96e1f2b6a682f133852f6798a09c465da95921460cefb38474024989060200160405180910390a15b5050505050565b6011544210156119885760405162461bcd60e51b815260206004820152601960248201527829b0b632b99030b932903737ba1030b1ba34bb32903cb2ba1760391b6044820152606401610976565b60135442106119d95760405162461bcd60e51b815260206004820152601b60248201527f53616c657320617265206e6f206c6f6e676572206163746976652e00000000006044820152606401610976565b60125460ff16156119fc5760405162461bcd60e51b8152600401610976906139f2565b6000611a096001836115a3565b905080341015611a505760405162461bcd60e51b8152602060048201526012602482015271496e73756666696369656e742066756e647360701b6044820152606401610976565b8115611a6e5760405162461bcd60e51b815260040161097690613606565b6000611a7a823461363d565b1115611af157600033611a8d833461363d565b604051600081818185875af1925050503d8060008114611ac9576040519150601f19603f3d011682016040523d82523d6000602084013e611ace565b606091505b5050905080611aef5760405162461bcd60e51b81526004016109769061382f565b505b611b0d3383600160405180602001604052806000815250612715565b6000828152600e60205260408120805460019290611b2c90849061358b565b909155505060408051600181526020810184905290810182905233907f25ba90957e661d6984db35cb313f752c45b1b67a3252e45d3f260a00fff0d7199060600160405180910390a2600b546000838152600e60205260409020541015611bb9576009546000838152600f602052604081208054909190611bae90849061358b565b909155506111b69050565b600a546000838152600f602052604081208054909190611bda90849061358b565b90915550505050565b611beb6124d6565b601354421015611c0d5760405162461bcd60e51b815260040161097690613962565b6004546001600160a01b031615611c365760405162461bcd60e51b8152600401610976906137eb565b604051600090339047908381818185875af1925050503d8060008114611c78576040519150601f19603f3d011682016040523d82523d6000602084013e611c7d565b606091505b50509050806112ff5760405162461bcd60e51b815260206004820152601760248201527f436f756c64206e6f742077697468647261772066756e640000000000000000006044820152606401610976565b601154421015611d1c5760405162461bcd60e51b815260206004820152601960248201527829b0b632b99030b932903737ba1030b1ba34bb32903cb2ba1760391b6044820152606401610976565b6013544210611d6d5760405162461bcd60e51b815260206004820152601b60248201527f53616c657320617265206e6f206c6f6e676572206163746976652e00000000006044820152606401610976565b60125460ff1615611d905760405162461bcd60e51b8152600401610976906139f2565b8015611dae5760405162461bcd60e51b815260040161097690613606565b6000611dbb60018361201b565b33600090815260208181526040808320868452909152902054909150611e1a5760405162461bcd60e51b81526020600482015260146024820152731b5d5cdd081bdddb881b999d081d1bc81cd95b1b60621b6044820152606401610976565b611e263383600161285d565b6000828152600e60205260408120805460019290611e4590849061363d565b9091555050604051600090339083908381818185875af1925050503d8060008114611e8c576040519150601f19603f3d011682016040523d82523d6000602084013e611e91565b606091505b5050905080611eb25760405162461bcd60e51b81526004016109769061382f565b60408051600181526020810185905290810183905233907f68294b5fb4234239b694f5ef768a13b93132c838ecd88673e56a4caa8089b9199060600160405180910390a2600b546000848152600e60205260409020541015611f3a576009546000848152600f602052604081208054909190611f2f90849061363d565b9091555061138a9050565b600a546000848152600f602052604081208054909190611f5b90849061363d565b9091555050505050565b6014546060906001600160a01b031615611ff457601460009054906101000a90046001600160a01b03166001600160a01b031663e8a3d4856040518163ffffffff1660e01b8152600401600060405180830381865afa158015611fcc573d6000803e3d6000fd5b505050506040513d6000823e601f3d908101601f19168201604052610c0391908101906134ff565b60088054610a3f906134c5565b60006011544210158015610c0357505060125460ff161590565b60008260011461205f5760405162461bcd60e51b815260206004820152600f60248201526e6d617820616d6f756e74206973203160881b6044820152606401610976565b6000828152600f6020526040902054600c546127109190612080908361363d565b61208a919061359e565b61209491906135b5565b9392505050565b336001600160a01b03871614806120d557506001600160a01b038616600090815260016020908152604080832033845290915290205460ff165b6121125760405162461bcd60e51b815260206004820152600e60248201526d1393d517d055551213d49256915160921b6044820152606401610976565b6001600160a01b0386166000908152602081815260408083208784529091528120805485929061214390849061363d565b90915550506001600160a01b0385166000908152602081815260408083208784529091528120805485929061217990849061358b565b909155505060408051858152602081018590526001600160a01b03808816929089169133917fc3d58168c5ae7397731d063d5bbf3d657854427343f4c083240f7aacaa2d0f62910160405180910390a46001600160a01b0385163b156122645760405163f23a6e6160e01b808252906001600160a01b0387169063f23a6e61906122119033908b908a908a908a908a90600401613a34565b6020604051808303816000875af1158015612230573d6000803e3d6000fd5b505050506040513d601f19601f820116820180604052508101906122549190613736565b6001600160e01b03191614612271565b6001600160a01b03851615155b61228d5760405162461bcd60e51b815260040161097690613753565b505050505050565b61229d6124d6565b6001600160a01b0381166123025760405162461bcd60e51b815260206004820152602660248201527f4f776e61626c653a206e6577206f776e657220697320746865207a65726f206160448201526564647265737360d01b6064820152608401610976565b6112ff81612543565b6123136124d6565b601480546001600160a01b0319166001600160a01b0392909216919091179055565b6040516370a0823160e01b81523060048201526000906001600160a01b038316906370a0823190602401602060405180830381865afa15801561237c573d6000803e3d6000fd5b505050506040513d601f19601f820116820180604052508101906123a09190613a7b565b6004805460405163a9059cbb60e01b81526001600160a01b0391821692810192909252602482018390529192509083169063a9059cbb906044016020604051808303816000875af11580156123f9573d6000803e3d6000fd5b505050506040513d601f19601f8201168201806040525081019061138a9190613a94565b60006301ffc9a760e01b6001600160e01b03198316148061244e5750636cdb3d1360e11b6001600160e01b03198316145b80610a2a5750506001600160e01b0319166303a24d0760e21b1490565b600354604051636e5f691960e01b81526001600160a01b0390911690636e5f69199061249f90869086908690600401613ab1565b600060405180830381600087803b1580156124b957600080fd5b505af11580156124cd573d6000803e3d6000fd5b50505050505050565b6002546001600160a01b03620100009091041633146113145760405162461bcd60e51b815260206004820181905260248201527f4f776e61626c653a2063616c6c6572206973206e6f7420746865206f776e65726044820152606401610976565b60076111b682826138a3565b600280546001600160a01b038381166201000081810262010000600160b01b031985161790945560405193909204169182907f8be0079c531659141344cd1fd0a4f28419497f9722a3daafe3b4186f6b6457e090600090a35050565b60006010546125ac610bd9565b6125b6919061363d565b905080601060008282546125ca919061358b565b90915550506004546040516000916001600160a01b03169083908381818185875af1925050503d806000811461261c576040519150601f19603f3d011682016040523d82523d6000602084013e612621565b606091505b50509050806111b65760405162461bcd60e51b815260206004820152601f60248201527f436f756c64206e6f74207472616e736665722045544820746f2073706c6974006044820152606401610976565b6004546040516000916001600160a01b03169047908381818185875af1925050503d80600081146126bf576040519150601f19603f3d011682016040523d82523d6000602084013e6126c4565b606091505b50509050806112ff5760405162461bcd60e51b815260206004820152601f60248201527f436f756c64206e6f74207472616e736665722045544820746f2073706c6974006044820152606401610976565b6001600160a01b0384166000908152602081815260408083208684529091528120805484929061274690849061358b565b909155505060408051848152602081018490526001600160a01b0386169160009133917fc3d58168c5ae7397731d063d5bbf3d657854427343f4c083240f7aacaa2d0f62910160405180910390a46001600160a01b0384163b1561282e5760405163f23a6e6160e01b808252906001600160a01b0386169063f23a6e61906127db903390600090899089908990600401613b14565b6020604051808303816000875af11580156127fa573d6000803e3d6000fd5b505050506040513d601f19601f8201168201806040525081019061281e9190613736565b6001600160e01b0319161461283b565b6001600160a01b03841615155b6128575760405162461bcd60e51b815260040161097690613753565b50505050565b6001600160a01b0383166000908152602081815260408083208584529091528120805483929061288e90849061363d565b909155505060408051838152602081018390526000916001600160a01b0386169133917fc3d58168c5ae7397731d063d5bbf3d657854427343f4c083240f7aacaa2d0f62910160405180910390a4505050565b6001600160a01b03811681146112ff57600080fd5b60008083601f84011261290857600080fd5b5081356001600160401b0381111561291f57600080fd5b6020830191508360208260051b8501011115610d1a57600080fd5b803563ffffffff8116811461294e57600080fd5b919050565b803561294e816128e1565b600080600080600080600060a0888a03121561297957600080fd5b8735612984816128e1565b965060208801356001600160401b03808211156129a057600080fd5b6129ac8b838c016128f6565b909850965060408a01359150808211156129c557600080fd5b506129d28a828b016128f6565b90955093506129e590506060890161293a565b915060808801356129f5816128e1565b8091505092959891949750929550565b60008060408385031215612a1857600080fd5b8235612a23816128e1565b946020939093013593505050565b6001600160e01b0319811681146112ff57600080fd5b600060208284031215612a5957600080fd5b813561209481612a31565b60005b83811015612a7f578181015183820152602001612a67565b50506000910152565b60008151808452612aa0816020860160208601612a64565b601f01601f19169290920160200192915050565b6020815260006120946020830184612a88565b600060208284031215612ad957600080fd5b5035919050565b634e487b7160e01b600052604160045260246000fd5b604051608081016001600160401b0381118282101715612b1857612b18612ae0565b60405290565b60405161014081016001600160401b0381118282101715612b1857612b18612ae0565b604051601f8201601f191681016001600160401b0381118282101715612b6957612b69612ae0565b604052919050565b600082601f830112612b8257600080fd5b813560206001600160401b03821115612b9d57612b9d612ae0565b8160051b612bac828201612b41565b9283528481018201928281019087851115612bc657600080fd5b83870192505b84831015612bee578235612bdf816128e1565b82529183019190830190612bcc565b979650505050505050565b600080600080600080600080600060e08a8c031215612c1757600080fd5b8935612c22816128e1565b985060208a0135975060408a01356001600160401b0380821115612c4557600080fd5b612c518d838e01612b71565b985060608c0135915080821115612c6757600080fd5b612c738d838e016128f6565b909850965060808c0135915080821115612c8c57600080fd5b50612c998c828d016128f6565b9095509350612cac905060a08b0161293a565b915060c08a0135612cbc816128e1565b809150509295985092959850929598565b60008060408385031215612ce057600080fd5b50508035926020909101359150565b60008083601f840112612d0157600080fd5b5081356001600160401b03811115612d1857600080fd5b602083019150836020828501011115610d1a57600080fd5b60008060008060008060008060a0898b031215612d4c57600080fd5b8835612d57816128e1565b97506020890135612d67816128e1565b965060408901356001600160401b0380821115612d8357600080fd5b612d8f8c838d016128f6565b909850965060608b0135915080821115612da857600080fd5b612db48c838d016128f6565b909650945060808b0135915080821115612dcd57600080fd5b50612dda8b828c01612cef565b999c989b5096995094979396929594505050565b60008060008060008060808789031215612e0757600080fd5b8635612e12816128e1565b955060208701356001600160401b0380821115612e2e57600080fd5b612e3a8a838b016128f6565b90975095506040890135915080821115612e5357600080fd5b50612e6089828a016128f6565b9094509250612e7390506060880161293a565b90509295509295509295565b60008060008060408587031215612e9557600080fd5b84356001600160401b0380821115612eac57600080fd5b612eb8888389016128f6565b90965094506020870135915080821115612ed157600080fd5b50612ede878288016128f6565b95989497509550505050565b6020808252825182820181905260009190848201906040850190845b81811015612f2257835183529284019291840191600101612f06565b50909695505050505050565b60006001600160401b03821115612f4757612f47612ae0565b50601f01601f191660200190565b6000612f68612f6384612f2e565b612b41565b9050828152838383011115612f7c57600080fd5b828260208301376000602084830101529392505050565b600082601f830112612fa457600080fd5b61209483833560208501612f55565b600060208284031215612fc557600080fd5b81356001600160401b03811115612fdb57600080fd5b612fe784828501612f93565b949350505050565b6000806040838503121561300257600080fd5b8235915060208301356001600160401b0381111561301f57600080fd5b610d1685828601612b71565b80151581146112ff57600080fd5b6000806040838503121561304c57600080fd5b8235613057816128e1565b915060208301356130678161302b565b809150509250929050565b6000806000806000806080878903121561308b57600080fd5b86356001600160401b03808211156130a257600080fd5b6130ae8a838b016128f6565b909850965060208901359150808211156130c757600080fd5b506130d489828a016128f6565b90955093506130e790506040880161293a565b915060608701356130f7816128e1565b809150509295509295509295565b60006080828403121561311757600080fd5b61311f612af6565b905081356001600160401b038082111561313857600080fd5b61314485838601612f93565b8352602084013591508082111561315a57600080fd5b61316685838601612f93565b6020840152604084013591508082111561317f57600080fd5b508201601f8101841361319157600080fd5b6131a084823560208401612f55565b6040830152506131b260608301612953565b606082015292915050565b600080600080608085870312156131d357600080fd5b84356131de816128e1565b935060208501356001600160401b03808211156131fa57600080fd5b90860190610140828903121561320f57600080fd5b613217612b1e565b82358281111561322657600080fd5b6132328a828601612f93565b82525060208301358281111561324757600080fd5b6132538a828601612f93565b60208301525060408301356040820152606083013560608201526080830135608082015260a083013560a082015260c083013560c082015260e083013560e08201526101008084013581830152506101208084013581830152508095505060408701359150808211156132c557600080fd5b506132d287828801613105565b9250506132e160608601612953565b905092959194509250565b600080604083850312156132ff57600080fd5b823561330a816128e1565b91506020830135613067816128e1565b60008060008060008060a0878903121561333357600080fd5b863561333e816128e1565b9550602087013561334e816128e1565b9450604087013593506060870135925060808701356001600160401b0381111561337757600080fd5b61338389828a01612cef565b979a9699509497509295939492505050565b6000602082840312156133a757600080fd5b8135612094816128e1565b60208082526015908201527414dc1b1a5d081b9bdd0818dc99585d1959081e595d605a1b604082015260600190565b8183526000602080850194508260005b8581101561341f578135613404816128e1565b6001600160a01b0316875295820195908201906001016133f1565b509495945050505050565b8183526000602080850194508260005b8581101561341f5763ffffffff6134508361293a565b168752958201959082019060010161343a565b600060018060a01b03808b168352808a16602084015260c0604084015261348e60c08401898b6133e1565b83810360608501526134a181888a61342a565b63ffffffff969096166080850152509290921660a090910152509695505050505050565b600181811c908216806134d957607f821691505b6020821081036134f957634e487b7160e01b600052602260045260246000fd5b50919050565b60006020828403121561351157600080fd5b81516001600160401b0381111561352757600080fd5b8201601f8101841361353857600080fd5b8051613546612f6382612f2e565b81815285602083850101111561355b57600080fd5b61356c826020830160208601612a64565b95945050505050565b634e487b7160e01b600052601160045260246000fd5b80820180821115610a2a57610a2a613575565b8082028115828204841417610a2a57610a2a613575565b6000826135d257634e487b7160e01b600052601260045260246000fd5b500490565b634e487b7160e01b600052603260045260246000fd5b6000600182016135ff576135ff613575565b5060010190565b6020808252601a908201527f63757272656e746c79206f6e6c79206f6e652065646974696f6e000000000000604082015260600190565b81810381811115610a2a57610a2a613575565b81835260006001600160fb1b0383111561366957600080fd5b8260051b80836020870137939093016020019392505050565b604081526000613696604083018688613650565b8281036020840152612bee818587613650565b81835281816020850137506000828201602090810191909152601f909101601f19169091010190565b6001600160a01b0389811682528816602082015260a0604082018190526000906136ff908301888a613650565b8281036060840152613712818789613650565b905082810360808401526137278185876136a9565b9b9a5050505050505050505050565b60006020828403121561374857600080fd5b815161209481612a31565b60208082526010908201526f155394d0519157d49150d2541251539560821b604082015260600190565b60808152600061379160808301888a6133e1565b82810360208401526137a481878961342a565b63ffffffff95909516604084015250506001600160a01b0391909116606090910152949350505050565b6000602082840312156137e057600080fd5b8151612094816128e1565b60208082526024908201527f43616e6e6f74207769746864726177207769746820616e2061637469766520736040820152631c1b1a5d60e21b606082015260800190565b6020808252601490820152732330b4b632b2103a379039b2b7321032ba3432b960611b604082015260600190565b601f82111561138a57600081815260208120601f850160051c810160208610156138845750805b601f850160051c820191505b8181101561228d57828155600101613890565b81516001600160401b038111156138bc576138bc612ae0565b6138d0816138ca84546134c5565b8461385d565b602080601f83116001811461390557600084156138ed5750858301515b600019600386901b1c1916600185901b17855561228d565b600085815260208120601f198616915b8281101561393457888601518255948401946001909101908401613915565b50858210156139525787850151600019600388901b60f8161c191681555b5050505050600190811b01905550565b60208082526019908201527f4372657363656e646f206973207374696c6c206c6f636b656400000000000000604082015260600190565b600060018060a01b03808a16835260a060208401526139bc60a08401898b6133e1565b83810360408501526139cf81888a61342a565b63ffffffff96909616606085015250929092166080909101525095945050505050565b60208082526022908201527f53616c65206d7573742062652061637469766520746f20627579206f722073656040820152611b1b60f21b606082015260800190565b6001600160a01b03878116825286166020820152604081018590526060810184905260a060808201819052600090613a6f90830184866136a9565b98975050505050505050565b600060208284031215613a8d57600080fd5b5051919050565b600060208284031215613aa657600080fd5b81516120948161302b565b6001600160a01b038481168252602080830185905260606040840181905284519084018190526000928583019290916080860190855b81811015613b05578551851683529483019491830191600101613ae7565b50909998505050505050505050565b6001600160a01b03868116825285166020820152604081018490526060810183905260a060808201819052600090612bee90830184612a8856fea264697066735822122072f837b1958bb88f926b100161b6c671a42581e59eb218685b48c20b6500adb764736f6c63430008110033",
  "linkReferences": {},
  "deployedLinkReferences": {}
}