{
  "_format": "hh-sol-artifact-1",
  "contractName": "DCNT4907A",
  "sourceName": "contracts/DCNT4907A.sol",
  "abi": [
    {
      "inputs": [],
      "name": "ApprovalCallerNotOwnerNorApproved",
      "type": "error"
    },
    {
      "inputs": [],
      "name": "ApprovalQueryForNonexistentToken",
      "type": "error"
    },
    {
      "inputs": [],
      "name": "ApproveToCaller",
      "type": "error"
    },
    {
      "inputs": [],
      "name": "BalanceQueryForZeroAddress",
      "type": "error"
    },
    {
      "inputs": [],
      "name": "MintERC2309QuantityExceedsLimit",
      "type": "error"
    },
    {
      "inputs": [],
      "name": "MintToZeroAddress",
      "type": "error"
    },
    {
      "inputs": [],
      "name": "MintZeroQuantity",
      "type": "error"
    },
    {
      "inputs": [
        {
          "internalType": "address",
          "name": "operator",
          "type": "address"
        }
      ],
      "name": "OperatorNotAllowed",
      "type": "error"
    },
    {
      "inputs": [],
      "name": "OwnerQueryForNonexistentToken",
      "type": "error"
    },
    {
      "inputs": [],
      "name": "OwnershipNotInitializedForExtraData",
      "type": "error"
    },
    {
      "inputs": [],
      "name": "SetUserCallerNotOwnerNorApproved",
      "type": "error"
    },
    {
      "inputs": [],
      "name": "TransferCallerNotOwnerNorApproved",
      "type": "error"
    },
    {
      "inputs": [],
      "name": "TransferFromIncorrectOwner",
      "type": "error"
    },
    {
      "inputs": [],
      "name": "TransferToNonERC721ReceiverImplementer",
      "type": "error"
    },
    {
      "inputs": [],
      "name": "TransferToZeroAddress",
      "type": "error"
    },
    {
      "inputs": [],
      "name": "URIQueryForNonexistentToken",
      "type": "error"
    },
    {
      "anonymous": false,
      "inputs": [
        {
          "indexed": true,
          "internalType": "address",
          "name": "owner",
          "type": "address"
        },
        {
          "indexed": true,
          "internalType": "address",
          "name": "approved",
          "type": "address"
        },
        {
          "indexed": true,
          "internalType": "uint256",
          "name": "tokenId",
          "type": "uint256"
        }
      ],
      "name": "Approval",
      "type": "event"
    },
    {
      "anonymous": false,
      "inputs": [
        {
          "indexed": true,
          "internalType": "address",
          "name": "owner",
          "type": "address"
        },
        {
          "indexed": true,
          "internalType": "address",
          "name": "operator",
          "type": "address"
        },
        {
          "indexed": false,
          "internalType": "bool",
          "name": "approved",
          "type": "bool"
        }
      ],
      "name": "ApprovalForAll",
      "type": "event"
    },
    {
      "anonymous": false,
      "inputs": [
        {
          "indexed": true,
          "internalType": "uint256",
          "name": "fromTokenId",
          "type": "uint256"
        },
        {
          "indexed": false,
          "internalType": "uint256",
          "name": "toTokenId",
          "type": "uint256"
        },
        {
          "indexed": true,
          "internalType": "address",
          "name": "from",
          "type": "address"
        },
        {
          "indexed": true,
          "internalType": "address",
          "name": "to",
          "type": "address"
        }
      ],
      "name": "ConsecutiveTransfer",
      "type": "event"
    },
    {
      "anonymous": false,
      "inputs": [
        {
          "indexed": false,
          "internalType": "uint8",
          "name": "version",
          "type": "uint8"
        }
      ],
      "name": "Initialized",
      "type": "event"
    },
    {
      "anonymous": false,
      "inputs": [
        {
          "indexed": false,
          "internalType": "address",
          "name": "sender",
          "type": "address"
        },
        {
          "indexed": false,
          "internalType": "uint256",
          "name": "tokenId_",
          "type": "uint256"
        }
      ],
      "name": "Minted",
      "type": "event"
    },
    {
      "anonymous": false,
      "inputs": [
        {
          "indexed": true,
          "internalType": "address",
          "name": "previousOwner",
          "type": "address"
        },
        {
          "indexed": true,
          "internalType": "address",
          "name": "newOwner",
          "type": "address"
        }
      ],
      "name": "OwnershipTransferred",
      "type": "event"
    },
    {
      "anonymous": false,
      "inputs": [
        {
          "indexed": true,
          "internalType": "bytes32",
          "name": "role",
          "type": "bytes32"
        },
        {
          "indexed": true,
          "internalType": "bytes32",
          "name": "previousAdminRole",
          "type": "bytes32"
        },
        {
          "indexed": true,
          "internalType": "bytes32",
          "name": "newAdminRole",
          "type": "bytes32"
        }
      ],
      "name": "RoleAdminChanged",
      "type": "event"
    },
    {
      "anonymous": false,
      "inputs": [
        {
          "indexed": true,
          "internalType": "bytes32",
          "name": "role",
          "type": "bytes32"
        },
        {
          "indexed": true,
          "internalType": "address",
          "name": "account",
          "type": "address"
        },
        {
          "indexed": true,
          "internalType": "address",
          "name": "sender",
          "type": "address"
        }
      ],
      "name": "RoleGranted",
      "type": "event"
    },
    {
      "anonymous": false,
      "inputs": [
        {
          "indexed": true,
          "internalType": "bytes32",
          "name": "role",
          "type": "bytes32"
        },
        {
          "indexed": true,
          "internalType": "address",
          "name": "account",
          "type": "address"
        },
        {
          "indexed": true,
          "internalType": "address",
          "name": "sender",
          "type": "address"
        }
      ],
      "name": "RoleRevoked",
      "type": "event"
    },
    {
      "anonymous": false,
      "inputs": [
        {
          "indexed": true,
          "internalType": "address",
          "name": "from",
          "type": "address"
        },
        {
          "indexed": true,
          "internalType": "address",
          "name": "to",
          "type": "address"
        },
        {
          "indexed": true,
          "internalType": "uint256",
          "name": "tokenId",
          "type": "uint256"
        }
      ],
      "name": "Transfer",
      "type": "event"
    },
    {
      "anonymous": false,
      "inputs": [
        {
          "indexed": true,
          "internalType": "uint256",
          "name": "tokenId",
          "type": "uint256"
        },
        {
          "indexed": true,
          "internalType": "address",
          "name": "user",
          "type": "address"
        },
        {
          "indexed": false,
          "internalType": "uint64",
          "name": "expires",
          "type": "uint64"
        }
      ],
      "name": "UpdateUser",
      "type": "event"
    },
    {
      "inputs": [],
      "name": "DEFAULT_ADMIN_ROLE",
      "outputs": [
        {
          "internalType": "bytes32",
          "name": "",
          "type": "bytes32"
        }
      ],
      "stateMutability": "view",
      "type": "function"
    },
    {
      "inputs": [],
      "name": "MAX_TOKENS",
      "outputs": [
        {
          "internalType": "uint32",
          "name": "",
          "type": "uint32"
        }
      ],
      "stateMutability": "view",
      "type": "function"
    },
    {
      "inputs": [
        {
          "internalType": "uint32",
          "name": "newCap",
          "type": "uint32"
        }
      ],
      "name": "adjustCap",
      "outputs": [],
      "stateMutability": "nonpayable",
      "type": "function"
    },
    {
      "inputs": [
        {
          "internalType": "address",
          "name": "operator",
          "type": "address"
        },
        {
          "internalType": "uint256",
          "name": "tokenId",
          "type": "uint256"
        }
      ],
      "name": "approve",
      "outputs": [],
      "stateMutability": "nonpayable",
      "type": "function"
    },
    {
      "inputs": [
        {
          "internalType": "address",
          "name": "owner",
          "type": "address"
        }
      ],
      "name": "balanceOf",
      "outputs": [
        {
          "internalType": "uint256",
          "name": "",
          "type": "uint256"
        }
      ],
      "stateMutability": "view",
      "type": "function"
    },
    {
      "inputs": [],
      "name": "baseURI",
      "outputs": [
        {
          "internalType": "string",
          "name": "",
          "type": "string"
        }
      ],
      "stateMutability": "view",
      "type": "function"
    },
    {
      "inputs": [],
      "name": "contractURI",
      "outputs": [
        {
          "internalType": "string",
          "name": "",
          "type": "string"
        }
      ],
      "stateMutability": "view",
      "type": "function"
    },
    {
      "inputs": [],
      "name": "contractVersion",
      "outputs": [
        {
          "internalType": "uint32",
          "name": "",
          "type": "uint32"
        }
      ],
      "stateMutability": "view",
      "type": "function"
    },
    {
      "inputs": [
        {
          "internalType": "address",
          "name": "_splitMain",
          "type": "address"
        },
        {
          "internalType": "address[]",
          "name": "accounts",
          "type": "address[]"
        },
        {
          "internalType": "uint32[]",
          "name": "percentAllocations",
          "type": "uint32[]"
        },
        {
          "internalType": "uint32",
          "name": "distributorFee",
          "type": "uint32"
        }
      ],
      "name": "createSplit",
      "outputs": [],
      "stateMutability": "nonpayable",
      "type": "function"
    },
    {
      "inputs": [
        {
          "internalType": "address",
          "name": "account",
          "type": "address"
        },
        {
          "internalType": "uint256",
          "name": "withdrawETH",
          "type": "uint256"
        },
        {
          "internalType": "contract ERC20[]",
          "name": "tokens",
          "type": "address[]"
        },
        {
          "internalType": "address[]",
          "name": "accounts",
          "type": "address[]"
        },
        {
          "internalType": "uint32[]",
          "name": "percentAllocations",
          "type": "uint32[]"
        },
        {
          "internalType": "uint32",
          "name": "distributorFee",
          "type": "uint32"
        },
        {
          "internalType": "address",
          "name": "distributorAddress",
          "type": "address"
        }
      ],
      "name": "distributeAndWithdraw",
      "outputs": [],
      "stateMutability": "nonpayable",
      "type": "function"
    },
    {
      "inputs": [
        {
          "internalType": "contract ERC20",
          "name": "token",
          "type": "address"
        },
        {
          "internalType": "address[]",
          "name": "accounts",
          "type": "address[]"
        },
        {
          "internalType": "uint32[]",
          "name": "percentAllocations",
          "type": "uint32[]"
        },
        {
          "internalType": "uint32",
          "name": "distributorFee",
          "type": "uint32"
        },
        {
          "internalType": "address",
          "name": "distributorAddress",
          "type": "address"
        }
      ],
      "name": "distributeERC20",
      "outputs": [],
      "stateMutability": "nonpayable",
      "type": "function"
    },
    {
      "inputs": [
        {
          "internalType": "address[]",
          "name": "accounts",
          "type": "address[]"
        },
        {
          "internalType": "uint32[]",
          "name": "percentAllocations",
          "type": "uint32[]"
        },
        {
          "internalType": "uint32",
          "name": "distributorFee",
          "type": "uint32"
        },
        {
          "internalType": "address",
          "name": "distributorAddress",
          "type": "address"
        }
      ],
      "name": "distributeETH",
      "outputs": [],
      "stateMutability": "nonpayable",
      "type": "function"
    },
    {
      "inputs": [],
      "name": "edition",
      "outputs": [
        {
          "internalType": "bool",
          "name": "hasAdjustableCap",
          "type": "bool"
        },
        {
          "internalType": "bool",
          "name": "isSoulbound",
          "type": "bool"
        },
        {
          "internalType": "uint32",
          "name": "maxTokens",
          "type": "uint32"
        },
        {
          "internalType": "uint32",
          "name": "maxTokenPurchase",
          "type": "uint32"
        },
        {
          "internalType": "uint32",
          "name": "presaleStart",
          "type": "uint32"
        },
        {
          "internalType": "uint32",
          "name": "presaleEnd",
          "type": "uint32"
        },
        {
          "internalType": "uint32",
          "name": "saleStart",
          "type": "uint32"
        },
        {
          "internalType": "uint32",
          "name": "saleEnd",
          "type": "uint32"
        },
        {
          "internalType": "uint16",
          "name": "royaltyBPS",
          "type": "uint16"
        },
        {
          "internalType": "uint96",
          "name": "tokenPrice",
          "type": "uint96"
        },
        {
          "internalType": "address",
          "name": "payoutAddress",
          "type": "address"
        },
        {
          "internalType": "bytes32",
          "name": "presaleMerkleRoot",
          "type": "bytes32"
        }
      ],
      "stateMutability": "view",
      "type": "function"
    },
    {
      "inputs": [],
      "name": "flipSaleState",
      "outputs": [],
      "stateMutability": "nonpayable",
      "type": "function"
    },
    {
      "inputs": [
        {
          "internalType": "uint256",
          "name": "tokenId",
          "type": "uint256"
        }
      ],
      "name": "getApproved",
      "outputs": [
        {
          "internalType": "address",
          "name": "",
          "type": "address"
        }
      ],
      "stateMutability": "view",
      "type": "function"
    },
    {
      "inputs": [
        {
          "internalType": "bytes32",
          "name": "role",
          "type": "bytes32"
        }
      ],
      "name": "getRoleAdmin",
      "outputs": [
        {
          "internalType": "bytes32",
          "name": "",
          "type": "bytes32"
        }
      ],
      "stateMutability": "view",
      "type": "function"
    },
    {
      "inputs": [
        {
          "internalType": "bytes32",
          "name": "role",
          "type": "bytes32"
        },
        {
          "internalType": "address",
          "name": "account",
          "type": "address"
        }
      ],
      "name": "grantRole",
      "outputs": [],
      "stateMutability": "nonpayable",
      "type": "function"
    },
    {
      "inputs": [],
      "name": "hasAdjustableCap",
      "outputs": [
        {
          "internalType": "bool",
          "name": "",
          "type": "bool"
        }
      ],
      "stateMutability": "view",
      "type": "function"
    },
    {
      "inputs": [
        {
          "internalType": "bytes32",
          "name": "role",
          "type": "bytes32"
        },
        {
          "internalType": "address",
          "name": "account",
          "type": "address"
        }
      ],
      "name": "hasRole",
      "outputs": [
        {
          "internalType": "bool",
          "name": "",
          "type": "bool"
        }
      ],
      "stateMutability": "view",
      "type": "function"
    },
    {
      "inputs": [
        {
          "internalType": "address",
          "name": "_owner",
          "type": "address"
        },
        {
          "components": [
            {
              "internalType": "string",
              "name": "name",
              "type": "string"
            },
            {
              "internalType": "string",
              "name": "symbol",
              "type": "string"
            },
            {
              "internalType": "bool",
              "name": "hasAdjustableCap",
              "type": "bool"
            },
            {
              "internalType": "bool",
              "name": "isSoulbound",
              "type": "bool"
            },
            {
              "internalType": "uint32",
              "name": "maxTokens",
              "type": "uint32"
            },
            {
              "internalType": "uint32",
              "name": "maxTokenPurchase",
              "type": "uint32"
            },
            {
              "internalType": "uint32",
              "name": "presaleStart",
              "type": "uint32"
            },
            {
              "internalType": "uint32",
              "name": "presaleEnd",
              "type": "uint32"
            },
            {
              "internalType": "uint32",
              "name": "saleStart",
              "type": "uint32"
            },
            {
              "internalType": "uint32",
              "name": "saleEnd",
              "type": "uint32"
            },
            {
              "internalType": "uint16",
              "name": "royaltyBPS",
              "type": "uint16"
            },
            {
              "internalType": "uint96",
              "name": "tokenPrice",
              "type": "uint96"
            },
            {
              "internalType": "address",
              "name": "payoutAddress",
              "type": "address"
            },
            {
              "internalType": "bytes32",
              "name": "presaleMerkleRoot",
              "type": "bytes32"
            }
          ],
          "internalType": "struct EditionConfig",
          "name": "_editionConfig",
          "type": "tuple"
        },
        {
          "components": [
            {
              "internalType": "string",
              "name": "contractURI",
              "type": "string"
            },
            {
              "internalType": "string",
              "name": "metadataURI",
              "type": "string"
            },
            {
              "internalType": "bytes",
              "name": "metadataRendererInit",
              "type": "bytes"
            },
            {
              "internalType": "address",
              "name": "parentIP",
              "type": "address"
            }
          ],
          "internalType": "struct MetadataConfig",
          "name": "_metadataConfig",
          "type": "tuple"
        },
        {
          "components": [
            {
              "internalType": "address",
              "name": "tokenAddress",
              "type": "address"
            },
            {
              "internalType": "uint88",
              "name": "minBalance",
              "type": "uint88"
            },
            {
              "internalType": "enum SaleType",
              "name": "saleType",
              "type": "uint8"
            }
          ],
          "internalType": "struct TokenGateConfig",
          "name": "_tokenGateConfig",
          "type": "tuple"
        },
        {
          "internalType": "address",
          "name": "_metadataRenderer",
          "type": "address"
        }
      ],
      "name": "initialize",
      "outputs": [],
      "stateMutability": "nonpayable",
      "type": "function"
    },
    {
      "inputs": [
        {
          "internalType": "address",
          "name": "owner",
          "type": "address"
        },
        {
          "internalType": "address",
          "name": "operator",
          "type": "address"
        }
      ],
      "name": "isApprovedForAll",
      "outputs": [
        {
          "internalType": "bool",
          "name": "",
          "type": "bool"
        }
      ],
      "stateMutability": "view",
      "type": "function"
    },
    {
      "inputs": [],
      "name": "isSoulbound",
      "outputs": [
        {
          "internalType": "bool",
          "name": "",
          "type": "bool"
        }
      ],
      "stateMutability": "view",
      "type": "function"
    },
    {
      "inputs": [],
      "name": "maxTokenPurchase",
      "outputs": [
        {
          "internalType": "uint32",
          "name": "",
          "type": "uint32"
        }
      ],
      "stateMutability": "view",
      "type": "function"
    },
    {
      "inputs": [],
      "name": "metadataRenderer",
      "outputs": [
        {
          "internalType": "address",
          "name": "",
          "type": "address"
        }
      ],
      "stateMutability": "view",
      "type": "function"
    },
    {
      "inputs": [
        {
          "internalType": "address",
          "name": "to",
          "type": "address"
        },
        {
          "internalType": "uint256",
          "name": "numberOfTokens",
          "type": "uint256"
        }
      ],
      "name": "mint",
      "outputs": [],
      "stateMutability": "payable",
      "type": "function"
    },
    {
      "inputs": [
        {
          "internalType": "address[]",
          "name": "recipients",
          "type": "address[]"
        }
      ],
      "name": "mintAirdrop",
      "outputs": [],
      "stateMutability": "nonpayable",
      "type": "function"
    },
    {
      "inputs": [
        {
          "internalType": "address",
          "name": "to",
          "type": "address"
        },
        {
          "internalType": "uint256",
          "name": "quantity",
          "type": "uint256"
        },
        {
          "internalType": "uint256",
          "name": "maxQuantity",
          "type": "uint256"
        },
        {
          "internalType": "uint256",
          "name": "pricePerToken",
          "type": "uint256"
        },
        {
          "internalType": "bytes32[]",
          "name": "merkleProof",
          "type": "bytes32[]"
        }
      ],
      "name": "mintPresale",
      "outputs": [],
      "stateMutability": "payable",
      "type": "function"
    },
    {
      "inputs": [],
      "name": "name",
      "outputs": [
        {
          "internalType": "string",
          "name": "",
          "type": "string"
        }
      ],
      "stateMutability": "view",
      "type": "function"
    },
    {
      "inputs": [],
      "name": "operatorFilterRegistry",
      "outputs": [
        {
          "internalType": "contract IOperatorFilterRegistry",
          "name": "",
          "type": "address"
        }
      ],
      "stateMutability": "view",
      "type": "function"
    },
    {
      "inputs": [],
      "name": "owner",
      "outputs": [
        {
          "internalType": "address",
          "name": "",
          "type": "address"
        }
      ],
      "stateMutability": "view",
      "type": "function"
    },
    {
      "inputs": [
        {
          "internalType": "uint256",
          "name": "tokenId",
          "type": "uint256"
        }
      ],
      "name": "ownerOf",
      "outputs": [
        {
          "internalType": "address",
          "name": "",
          "type": "address"
        }
      ],
      "stateMutability": "view",
      "type": "function"
    },
    {
      "inputs": [],
      "name": "parentIP",
      "outputs": [
        {
          "internalType": "address",
          "name": "",
          "type": "address"
        }
      ],
      "stateMutability": "view",
      "type": "function"
    },
    {
      "inputs": [],
      "name": "payoutAddress",
      "outputs": [
        {
          "internalType": "address",
          "name": "",
          "type": "address"
        }
      ],
      "stateMutability": "view",
      "type": "function"
    },
    {
      "inputs": [],
      "name": "presaleEnd",
      "outputs": [
        {
          "internalType": "uint32",
          "name": "",
          "type": "uint32"
        }
      ],
      "stateMutability": "view",
      "type": "function"
    },
    {
      "inputs": [],
      "name": "presaleMerkleRoot",
      "outputs": [
        {
          "internalType": "bytes32",
          "name": "",
          "type": "bytes32"
        }
      ],
      "stateMutability": "view",
      "type": "function"
    },
    {
      "inputs": [],
      "name": "presaleStart",
      "outputs": [
        {
          "internalType": "uint32",
          "name": "",
          "type": "uint32"
        }
      ],
      "stateMutability": "view",
      "type": "function"
    },
    {
      "inputs": [],
      "name": "renounceOwnership",
      "outputs": [],
      "stateMutability": "nonpayable",
      "type": "function"
    },
    {
      "inputs": [
        {
          "internalType": "bytes32",
          "name": "role",
          "type": "bytes32"
        },
        {
          "internalType": "address",
          "name": "account",
          "type": "address"
        }
      ],
      "name": "renounceRole",
      "outputs": [],
      "stateMutability": "nonpayable",
      "type": "function"
    },
    {
      "inputs": [
        {
          "internalType": "uint256",
          "name": "numReserved",
          "type": "uint256"
        }
      ],
      "name": "reserveDCNT",
      "outputs": [],
      "stateMutability": "nonpayable",
      "type": "function"
    },
    {
      "inputs": [
        {
          "internalType": "bytes32",
          "name": "role",
          "type": "bytes32"
        },
        {
          "internalType": "address",
          "name": "account",
          "type": "address"
        }
      ],
      "name": "revokeRole",
      "outputs": [],
      "stateMutability": "nonpayable",
      "type": "function"
    },
    {
      "inputs": [],
      "name": "royaltyBPS",
      "outputs": [
        {
          "internalType": "uint16",
          "name": "",
          "type": "uint16"
        }
      ],
      "stateMutability": "view",
      "type": "function"
    },
    {
      "inputs": [
        {
          "internalType": "uint256",
          "name": "tokenId",
          "type": "uint256"
        },
        {
          "internalType": "uint256",
          "name": "salePrice",
          "type": "uint256"
        }
      ],
      "name": "royaltyInfo",
      "outputs": [
        {
          "internalType": "address",
          "name": "receiver",
          "type": "address"
        },
        {
          "internalType": "uint256",
          "name": "royaltyAmount",
          "type": "uint256"
        }
      ],
      "stateMutability": "view",
      "type": "function"
    },
    {
      "inputs": [
        {
          "internalType": "address",
          "name": "from",
          "type": "address"
        },
        {
          "internalType": "address",
          "name": "to",
          "type": "address"
        },
        {
          "internalType": "uint256",
          "name": "tokenId",
          "type": "uint256"
        }
      ],
      "name": "safeTransferFrom",
      "outputs": [],
      "stateMutability": "nonpayable",
      "type": "function"
    },
    {
      "inputs": [
        {
          "internalType": "address",
          "name": "from",
          "type": "address"
        },
        {
          "internalType": "address",
          "name": "to",
          "type": "address"
        },
        {
          "internalType": "uint256",
          "name": "tokenId",
          "type": "uint256"
        },
        {
          "internalType": "bytes",
          "name": "_data",
          "type": "bytes"
        }
      ],
      "name": "safeTransferFrom",
      "outputs": [],
      "stateMutability": "nonpayable",
      "type": "function"
    },
    {
      "inputs": [],
      "name": "saleEnd",
      "outputs": [
        {
          "internalType": "uint32",
          "name": "",
          "type": "uint32"
        }
      ],
      "stateMutability": "view",
      "type": "function"
    },
    {
      "inputs": [],
      "name": "saleIsActive",
      "outputs": [
        {
          "internalType": "bool",
          "name": "_saleIsActive",
          "type": "bool"
        }
      ],
      "stateMutability": "view",
      "type": "function"
    },
    {
      "inputs": [],
      "name": "saleIsPaused",
      "outputs": [
        {
          "internalType": "bool",
          "name": "",
          "type": "bool"
        }
      ],
      "stateMutability": "view",
      "type": "function"
    },
    {
      "inputs": [],
      "name": "saleStart",
      "outputs": [
        {
          "internalType": "uint32",
          "name": "",
          "type": "uint32"
        }
      ],
      "stateMutability": "view",
      "type": "function"
    },
    {
      "inputs": [
        {
          "internalType": "address",
          "name": "operator",
          "type": "address"
        },
        {
          "internalType": "bool",
          "name": "approved",
          "type": "bool"
        }
      ],
      "name": "setApprovalForAll",
      "outputs": [],
      "stateMutability": "nonpayable",
      "type": "function"
    },
    {
      "inputs": [
        {
          "internalType": "string",
          "name": "uri",
          "type": "string"
        }
      ],
      "name": "setBaseURI",
      "outputs": [],
      "stateMutability": "nonpayable",
      "type": "function"
    },
    {
      "inputs": [
        {
          "internalType": "string",
          "name": "uri",
          "type": "string"
        }
      ],
      "name": "setContractURI",
      "outputs": [],
      "stateMutability": "nonpayable",
      "type": "function"
    },
    {
      "inputs": [
        {
          "internalType": "address",
          "name": "_metadataRenderer",
          "type": "address"
        }
      ],
      "name": "setMetadataRenderer",
      "outputs": [],
      "stateMutability": "nonpayable",
      "type": "function"
    },
    {
      "inputs": [
        {
          "internalType": "address",
          "name": "_payoutAddress",
          "type": "address"
        }
      ],
      "name": "setPayoutAddress",
      "outputs": [],
      "stateMutability": "nonpayable",
      "type": "function"
    },
    {
      "inputs": [
        {
          "internalType": "bytes32",
          "name": "_presaleMerkleRoot",
          "type": "bytes32"
        }
      ],
      "name": "setPresaleMerkleRoot",
      "outputs": [],
      "stateMutability": "nonpayable",
      "type": "function"
    },
    {
      "inputs": [
        {
          "components": [
            {
              "internalType": "address",
              "name": "tokenAddress",
              "type": "address"
            },
            {
              "internalType": "uint88",
              "name": "minBalance",
              "type": "uint88"
            },
            {
              "internalType": "enum SaleType",
              "name": "saleType",
              "type": "uint8"
            }
          ],
          "internalType": "struct TokenGateConfig",
          "name": "_tokenGateConfig",
          "type": "tuple"
        }
      ],
      "name": "setTokenGate",
      "outputs": [],
      "stateMutability": "nonpayable",
      "type": "function"
    },
    {
      "inputs": [
        {
          "internalType": "uint256",
          "name": "tokenId",
          "type": "uint256"
        },
        {
          "internalType": "address",
          "name": "user",
          "type": "address"
        },
        {
          "internalType": "uint64",
          "name": "expires",
          "type": "uint64"
        }
      ],
      "name": "setUser",
      "outputs": [],
      "stateMutability": "nonpayable",
      "type": "function"
    },
    {
      "inputs": [],
      "name": "splitMain",
      "outputs": [
        {
          "internalType": "address",
          "name": "",
          "type": "address"
        }
      ],
      "stateMutability": "view",
      "type": "function"
    },
    {
      "inputs": [],
      "name": "splitWallet",
      "outputs": [
        {
          "internalType": "address",
          "name": "",
          "type": "address"
        }
      ],
      "stateMutability": "view",
      "type": "function"
    },
    {
      "inputs": [
        {
          "internalType": "bytes4",
          "name": "interfaceId",
          "type": "bytes4"
        }
      ],
      "name": "supportsInterface",
      "outputs": [
        {
          "internalType": "bool",
          "name": "",
          "type": "bool"
        }
      ],
      "stateMutability": "view",
      "type": "function"
    },
    {
      "inputs": [],
      "name": "symbol",
      "outputs": [
        {
          "internalType": "string",
          "name": "",
          "type": "string"
        }
      ],
      "stateMutability": "view",
      "type": "function"
    },
    {
      "inputs": [],
      "name": "tokenGateConfig",
      "outputs": [
        {
          "internalType": "address",
          "name": "tokenAddress",
          "type": "address"
        },
        {
          "internalType": "uint88",
          "name": "minBalance",
          "type": "uint88"
        },
        {
          "internalType": "enum SaleType",
          "name": "saleType",
          "type": "uint8"
        }
      ],
      "stateMutability": "view",
      "type": "function"
    },
    {
      "inputs": [],
      "name": "tokenPrice",
      "outputs": [
        {
          "internalType": "uint96",
          "name": "",
          "type": "uint96"
        }
      ],
      "stateMutability": "view",
      "type": "function"
    },
    {
      "inputs": [
        {
          "internalType": "uint256",
          "name": "tokenId",
          "type": "uint256"
        }
      ],
      "name": "tokenURI",
      "outputs": [
        {
          "internalType": "string",
          "name": "",
          "type": "string"
        }
      ],
      "stateMutability": "view",
      "type": "function"
    },
    {
      "inputs": [],
      "name": "totalSupply",
      "outputs": [
        {
          "internalType": "uint256",
          "name": "",
          "type": "uint256"
        }
      ],
      "stateMutability": "view",
      "type": "function"
    },
    {
      "inputs": [
        {
          "internalType": "address",
          "name": "from",
          "type": "address"
        },
        {
          "internalType": "address",
          "name": "to",
          "type": "address"
        },
        {
          "internalType": "uint256",
          "name": "tokenId",
          "type": "uint256"
        }
      ],
      "name": "transferFrom",
      "outputs": [],
      "stateMutability": "nonpayable",
      "type": "function"
    },
    {
      "inputs": [
        {
          "internalType": "address",
          "name": "newOwner",
          "type": "address"
        }
      ],
      "name": "transferOwnership",
      "outputs": [],
      "stateMutability": "nonpayable",
      "type": "function"
    },
    {
      "inputs": [
        {
          "internalType": "uint256",
          "name": "transferETH",
          "type": "uint256"
        },
        {
          "internalType": "contract ERC20[]",
          "name": "tokens",
          "type": "address[]"
        }
      ],
      "name": "transferToSplit",
      "outputs": [],
      "stateMutability": "nonpayable",
      "type": "function"
    },
    {
      "inputs": [
        {
          "internalType": "bool",
          "name": "enable",
          "type": "bool"
        },
        {
          "internalType": "address",
          "name": "operatorFilter",
          "type": "address"
        }
      ],
      "name": "updateOperatorFilter",
      "outputs": [],
      "stateMutability": "nonpayable",
      "type": "function"
    },
    {
      "inputs": [
        {
          "internalType": "uint32",
          "name": "newStart",
          "type": "uint32"
        },
        {
          "internalType": "uint32",
          "name": "newEnd",
          "type": "uint32"
        }
      ],
      "name": "updatePresaleStartEnd",
      "outputs": [],
      "stateMutability": "nonpayable",
      "type": "function"
    },
    {
      "inputs": [
        {
          "internalType": "uint32",
          "name": "newStart",
          "type": "uint32"
        },
        {
          "internalType": "uint32",
          "name": "newEnd",
          "type": "uint32"
        }
      ],
      "name": "updateSaleStartEnd",
      "outputs": [],
      "stateMutability": "nonpayable",
      "type": "function"
    },
    {
      "inputs": [
        {
          "internalType": "uint256",
          "name": "tokenId",
          "type": "uint256"
        }
      ],
      "name": "userExpires",
      "outputs": [
        {
          "internalType": "uint256",
          "name": "",
          "type": "uint256"
        }
      ],
      "stateMutability": "view",
      "type": "function"
    },
    {
      "inputs": [
        {
          "internalType": "uint256",
          "name": "tokenId",
          "type": "uint256"
        }
      ],
      "name": "userOf",
      "outputs": [
        {
          "internalType": "address",
          "name": "",
          "type": "address"
        }
      ],
      "stateMutability": "view",
      "type": "function"
    },
    {
      "inputs": [],
      "name": "withdraw",
      "outputs": [],
      "stateMutability": "nonpayable",
      "type": "function"
    }
  ],
  "bytecode": "0x60a06040523480156200001157600080fd5b5060086200001f336200002e565b63ffffffff166080526200008a565b600a80546001600160a01b038381166201000081810262010000600160b01b031985161790945560405193909204169182907f8be0079c531659141344cd1fd0a4f28419497f9722a3daafe3b4186f6b6457e090600090a35050565b6080516151f1620000a66000396000610b3401526151f16000f3fe6080604052600436106104255760003560e01c806379ab7c8e11610229578063c10b93581161012e578063e8a3d485116100b6578063f2fde38b1161007a578063f2fde38b14610e4b578063f47c84c514610e6b578063f7eca6d014610e8c578063fd4fe8a814610ea9578063ff45640d14610ec957600080fd5b8063e8a3d48514610d98578063e985e9c514610dad578063eb8d244414610df6578063ed1f24ad14610e0b578063f0cc8b6214610e2b57600080fd5b8063c87b56dd116100fd578063c87b56dd14610cf5578063d547741f14610d15578063de8801e514610d35578063e030565e14610d57578063e6c350c114610d7757600080fd5b8063c10b935814610c5f578063c2f1f14a14610c81578063c4559d5a14610cb5578063c595317014610cd557600080fd5b8063a0a8e460116101b1578063ae1dd6c411610180578063ae1dd6c414610baf578063b0ccc31e14610bcf578063b80476d014610bf1578063b88d4fde14610c11578063b9c9d93a14610c3157600080fd5b8063a0a8e46014610b25578063a217fddf14610b58578063a22cb46514610b6d578063ab0bcc4114610b8d57600080fd5b80638fc88c48116101f85780638fc88c4814610a8857806391d1485414610ab8578063931cf0f414610ad8578063938e3d7b14610af057806395d89b4114610b1057600080fd5b806379ab7c8e146109025780637ff9b596146109225780638da5cb5b1461094a5780638e98f86a1461096e57600080fd5b80632d75fea61161032f57806355f804b3116102b75780636c1951ae116102865780636c1951ae1461086d578063703199701461088d57806370a08231146108ad578063713b9787146108cd578063715018a6146108ed57600080fd5b806355f804b3146107f35780635b8d02d7146108135780636352211e146108385780636c0360eb1461085857600080fd5b806334918dfd116102fe57806334918dfd1461077657806336568abe1461078b5780633ccfd60b146107ab57806340c10f19146107c057806342842e0e146107d357600080fd5b80632d75fea6146106f65780632f2ff15d1461071657806333ea3e6d1461073657806333ea51a81461075657600080fd5b806318160ddd116103b257806323b872dd1161038157806323b872dd14610627578063248a9ca314610647578063284a44a81461067757806328d7b276146106975780632a55205a146106b757600080fd5b806318160ddd146105815780631dbdedbd146105a457806322212e2b146105f0578063229f3e291461060557600080fd5b8063095ea7b3116103f9578063095ea7b3146104db57806309aa3dcf146104fb5780630ad6c6161461052e5780630b8999f31461054e5780630e769b2b1461056157600080fd5b80625f16fb1461042a57806301ffc9a71461044c57806306fdde0314610481578063081812fc146104a3575b600080fd5b34801561043657600080fd5b5061044a610445366004613eef565b610ee9565b005b34801561045857600080fd5b5061046c610467366004613fac565b610fa0565b60405190151581526020015b60405180910390f35b34801561048d57600080fd5b50610496610fb1565b6040516104789190614019565b3480156104af57600080fd5b506104c36104be36600461402c565b611043565b6040516001600160a01b039091168152602001610478565b3480156104e757600080fd5b5061044a6104f6366004614045565b611087565b34801561050757600080fd5b50600d54600160301b900463ffffffff165b60405163ffffffff9091168152602001610478565b34801561053a57600080fd5b5061044a610549366004614071565b611095565b61044a61055c3660046140a4565b6110fc565b34801561056d57600080fd5b50600b546104c3906001600160a01b031681565b34801561058d57600080fd5b50600154600054035b604051908152602001610478565b3480156105b057600080fd5b506009546105e1906001600160a01b03811690600160a01b81046001600160581b031690600160f81b900460ff1683565b6040516104789392919061412c565b3480156105fc57600080fd5b50600f54610596565b34801561061157600080fd5b50600d54600160701b900463ffffffff16610519565b34801561063357600080fd5b5061044a610642366004614177565b611530565b34801561065357600080fd5b5061059661066236600461402c565b60009081526008602052604090206001015490565b34801561068357600080fd5b5061044a6106923660046142af565b6116d6565b3480156106a357600080fd5b5061044a6106b236600461402c565b611762565b3480156106c357600080fd5b506106d76106d2366004614383565b61178e565b604080516001600160a01b039093168352602083019190915201610478565b34801561070257600080fd5b5061044a6107113660046143be565b611879565b34801561072257600080fd5b5061044a6107313660046143f7565b611aa0565b34801561074257600080fd5b5061044a61075136600461441c565b611ac5565b34801561076257600080fd5b5061044a6107713660046144ad565b611bd2565b34801561078257600080fd5b5061044a611c21565b34801561079757600080fd5b5061044a6107a63660046143f7565b611c69565b3480156107b757600080fd5b5061044a611ce3565b61044a6107ce366004614045565b611e27565b3480156107df57600080fd5b5061044a6107ee366004614177565b612217565b3480156107ff57600080fd5b5061044a61080e366004614547565b612232565b34801561081f57600080fd5b50600e54600160601b90046001600160a01b03166104c3565b34801561084457600080fd5b506104c361085336600461402c565b612265565b34801561086457600080fd5b50610496612270565b34801561087957600080fd5b5061044a61088836600461402c565b6122fe565b34801561089957600080fd5b506012546104c3906001600160a01b031681565b3480156108b957600080fd5b506105966108c83660046144ad565b612399565b3480156108d957600080fd5b50600c546104c3906001600160a01b031681565b3480156108f957600080fd5b5061044a6123e7565b34801561090e57600080fd5b5061044a61091d36600461457b565b6123fb565b34801561092e57600080fd5b50600e546040516001600160601b039091168152602001610478565b34801561095657600080fd5b50600a546201000090046001600160a01b03166104c3565b34801561097a57600080fd5b50600d54600e54600f54610a059260ff8082169361010083049091169262010000830463ffffffff90811693600160301b8104821693600160501b8204831693600160701b8304841693600160901b8404811693600160b01b810490911692600160d01b90910461ffff16916001600160601b03821691600160601b90046001600160a01b0316908c565b604080519c15158d529a151560208d015263ffffffff998a169a8c019a909a5296881660608b015294871660808a015292861660a089015290851660c088015290931660e086015261ffff9092166101008501526001600160601b039091166101208401526001600160a01b031661014083015261016082015261018001610478565b348015610a9457600080fd5b50610596610aa336600461402c565b60009081526014602052604090205460a01c90565b348015610ac457600080fd5b5061046c610ad33660046143f7565b61246f565b348015610ae457600080fd5b50600d5460ff1661046c565b348015610afc57600080fd5b5061044a610b0b366004614547565b61249a565b348015610b1c57600080fd5b506104966124cd565b348015610b3157600080fd5b507f0000000000000000000000000000000000000000000000000000000000000000610519565b348015610b6457600080fd5b50610596600081565b348015610b7957600080fd5b5061044a610b883660046145b7565b6124dc565b348015610b9957600080fd5b50600d54600160901b900463ffffffff16610519565b348015610bbb57600080fd5b5061044a610bca366004614767565b6124e6565b348015610bdb57600080fd5b506104c36daaeb6d7670e522a718067333cd4e81565b348015610bfd57600080fd5b5061044a610c0c366004614920565b612a02565b348015610c1d57600080fd5b5061044a610c2c36600461493b565b612b01565b348015610c3d57600080fd5b50600d54600160d01b900461ffff1660405161ffff9091168152602001610478565b348015610c6b57600080fd5b50600d54600160b01b900463ffffffff16610519565b348015610c8d57600080fd5b506104c3610c9c36600461402c565b6000908152601460205260409020544260a01b81110290565b348015610cc157600080fd5b5061044a610cd03660046149a6565b612b4b565b348015610ce157600080fd5b5061044a610cf0366004614a39565b612bf5565b348015610d0157600080fd5b50610496610d1036600461402c565b612d0d565b348015610d2157600080fd5b5061044a610d303660046143f7565b612d18565b348015610d4157600080fd5b50600d54600160501b900463ffffffff16610519565b348015610d6357600080fd5b5061044a610d72366004614a7a565b612d3d565b348015610d8357600080fd5b5060125461046c90600160a01b900460ff1681565b348015610da457600080fd5b50610496612e0d565b348015610db957600080fd5b5061046c610dc8366004614ac8565b6001600160a01b03918216600090815260076020908152604080832093909416825291909152205460ff1690565b348015610e0257600080fd5b5061046c612ead565b348015610e1757600080fd5b5061044a610e26366004614071565b612ef7565b348015610e3757600080fd5b506013546104c3906001600160a01b031681565b348015610e5757600080fd5b5061044a610e663660046144ad565b612f5e565b348015610e7757600080fd5b50600d5462010000900463ffffffff16610519565b348015610e9857600080fd5b50600d54610100900460ff1661046c565b348015610eb557600080fd5b5061044a610ec43660046144ad565b612fd7565b348015610ed557600080fd5b5061044a610ee4366004614ae6565b613020565b600c546001600160a01b0316610f1a5760405162461bcd60e51b8152600401610f1190614afe565b60405180910390fd5b610f2387613054565b600b54600c54604051630ac0898160e11b81526001600160a01b0392831692631581130292610f65929116908b908b908b908b908b908b908b90600401614baf565b600060405180830381600087803b158015610f7f57600080fd5b505af1158015610f93573d6000803e3d6000fd5b5050505050505050505050565b6000610fab82613138565b92915050565b606060028054610fc090614c11565b80601f0160208091040260200160405190810160405280929190818152602001828054610fec90614c11565b80156110395780601f1061100e57610100808354040283529160200191611039565b820191906000526020600020905b81548152906001019060200180831161101c57829003601f168201915b5050505050905090565b600061104e82613160565b61106b576040516333d1c03960e21b815260040160405180910390fd5b506000908152600660205260409020546001600160a01b031690565b6110918282613187565b5050565b6110a060003361246f565b6110bc5760405162461bcd60e51b8152600401610f1190614c45565b600d805467ffffffffffffffff60901b1916600160901b63ffffffff9485160263ffffffff60b01b191617600160b01b9290931691909102919091179055565b6009546001906001600160a01b03161580159061116557506000600954600160f81b900460ff16600281111561113457611134614116565b1480611165575080801561116557506001600954600160f81b900460ff16600281111561116357611163614116565b145b8061119657508015801561119657506002600954600160f81b900460ff16600281111561119457611194614116565b145b15611262576009546040516370a0823160e01b8152336004820152600160a01b82046001600160581b0316916001600160a01b0316906370a08231906024016020604051808303816000875af11580156111f4573d6000803e3d6000fd5b505050506040513d601f19601f820116820180604052508101906112189190614c68565b10156112625760405162461bcd60e51b81526020600482015260196024820152783237903737ba1037bbb7103932b8bab4b932b2103a37b5b2b760391b6044820152606401610f11565b600d54600160501b900463ffffffff1642108015906112905750600d54600160701b900463ffffffff164211155b6112ca5760405162461bcd60e51b815260206004820152600b60248201526a6e6f742070726573616c6560a81b6044820152606401610f11565b600054601254600160a01b900460ff16156113275760405162461bcd60e51b815260206004820152601b60248201527f53616c65206d7573742062652061637469766520746f206d696e7400000000006044820152606401610f11565b600d5462010000900463ffffffff166113408883614c97565b111561135e5760405162461bcd60e51b8152600401610f1190614caa565b6113e284848080602002602001604051908101604052809392919081815260200183836020028082843760009201919091525050600f546040516bffffffffffffffffffffffff1960608f901b166020820152603481018c9052605481018b905290925060740190506040516020818303038152906040528051906020012061319b565b61141d5760405162461bcd60e51b815260206004820152600c60248201526b1b9bdd08185c1c1c9bdd995960a21b6044820152606401610f11565b6114278786614cdf565b34101561146b5760405162461bcd60e51b8152602060048201526012602482015271496e73756666696369656e742066756e647360701b6044820152606401610f11565b85876114768a612399565b6114809190614c97565b11156114c05760405162461bcd60e51b815260206004820152600f60248201526e6d696e74656420746f6f206d616e7960881b6044820152606401610f11565b6114ca88886131b1565b60005b8781101561152557604080516001600160a01b038b168152602081018490526001909301927f30385c845b448a36257a6a1716e6ad2e1bc2cbe333cde1e69fe849ad6511adfe910160405180910390a16001016114cd565b505050505050505050565b600061153b826131cb565b9050836001600160a01b0316816001600160a01b03161461156e5760405162a1148160e81b815260040160405180910390fd5b60008281526006602052604090208054338082146001600160a01b038816909114176115bb5761159e8633610dc8565b6115bb57604051632ce44b5f60e11b815260040160405180910390fd5b6001600160a01b0385166115e257604051633a954ecd60e21b815260040160405180910390fd5b6115ef8686866001613239565b80156115fa57600082555b6001600160a01b038681166000908152600560205260408082208054600019019055918716808252919020805460010190554260a01b17600160e11b17600085815260046020526040812091909155600160e11b8416900361168c5760018401600081815260046020526040812054900361168a57600054811461168a5760008181526004602052604090208490555b505b83856001600160a01b0316876001600160a01b03167fddf252ad1be2c89b69c2b068fc378daa952ba7f163c4a11628f55a4df523b3ef60405160405180910390a45b505050505050565b600c546001600160a01b03166116fe5760405162461bcd60e51b8152600401610f1190614afe565b871561171257611712868686868686612b4b565b60005b87518110156117565761174688828151811061173357611733614cf6565b6020026020010151888888888888610ee9565b61174f81614d0c565b9050611715565b50611525898989613245565b61176d60003361246f565b6117895760405162461bcd60e51b8152600401610f1190614c45565b600f55565b60008061179a84613160565b6117da5760405162461bcd60e51b81526020600482015260116024820152702737b732bc34b9ba32b73a103a37b5b2b760791b6044820152606401610f11565b600c546001600160a01b0316156117fe57600c546001600160a01b03169150611845565b600e54600160601b90046001600160a01b03161561183057600e54600160601b90046001600160a01b03169150611845565b600a546201000090046001600160a01b031691505b600d546000906127109061186490600160d01b900461ffff1686614cdf565b61186e9190614d25565b9150505b9250929050565b61188460003361246f565b6118a05760405162461bcd60e51b8152600401610f1190614c45565b60405163c3c5a54760e01b81523060048201819052906daaeb6d7670e522a718067333cd4e9063c3c5a547906024016020604051808303816000875af11580156118ee573d6000803e3d6000fd5b505050506040513d601f19601f820116820180604052508101906119129190614d47565b15801561191c5750825b1561199657604051633e9f1edf60e11b81526001600160a01b038083166004830152831660248201526daaeb6d7670e522a718067333cd4e90637d3e3dbe906044015b600060405180830381600087803b15801561197957600080fd5b505af115801561198d573d6000803e3d6000fd5b50505050505050565b82156119de57604051632cc5350560e21b81526001600160a01b038083166004830152831660248201526daaeb6d7670e522a718067333cd4e9063b314d4149060440161195f565b60405163034a0dc160e41b81526001600160a01b0382166004820152600060248201526daaeb6d7670e522a718067333cd4e906334a0dc1090604401600060405180830381600087803b158015611a3457600080fd5b505af1158015611a48573d6000803e3d6000fd5b5050604051631761612360e11b81526001600160a01b03841660048201526daaeb6d7670e522a718067333cd4e9250632ec2c2469150602401600060405180830381600087803b15801561197957600080fd5b505050565b600082815260086020526040902060010154611abb81613279565b611a9b8383613283565b611acd613309565b600c546001600160a01b031615611b1e5760405162461bcd60e51b815260206004820152601560248201527414dc1b1a5d08185b1c9958591e4818dc99585d1959605a1b6044820152606401610f11565b600b80546001600160a01b0319166001600160a01b038816908117909155604051633b00fbc160e11b8152637601f78290611b6790889088908890889088903390600401614d64565b6020604051808303816000875af1158015611b86573d6000803e3d6000fd5b505050506040513d601f19601f82011682018060405250810190611baa9190614db5565b600c80546001600160a01b0319166001600160a01b0392909216919091179055505050505050565b611bdd60003361246f565b611bf95760405162461bcd60e51b8152600401610f1190614c45565b600e80546001600160a01b03909216600160601b026001600160601b03909216919091179055565b611c2c60003361246f565b611c485760405162461bcd60e51b8152600401610f1190614c45565b6012805460ff60a01b198116600160a01b9182900460ff1615909102179055565b6001600160a01b0381163314611cd95760405162461bcd60e51b815260206004820152602f60248201527f416363657373436f6e74726f6c3a2063616e206f6e6c792072656e6f756e636560448201526e103937b632b9903337b91039b2b63360891b6064820152608401610f11565b611091828261336a565b600c546001600160a01b031615611d485760405162461bcd60e51b8152602060048201526024808201527f43616e6e6f74207769746864726177207769746820616e2061637469766520736044820152631c1b1a5d60e21b6064820152608401610f11565b600e54600090600160601b90046001600160a01b0316611d7957600a546201000090046001600160a01b0316611d8d565b600e54600160601b90046001600160a01b03165b90506000816001600160a01b03164760405160006040518083038185875af1925050503d8060008114611ddc576040519150601f19603f3d011682016040523d82523d6000602084013e611de1565b606091505b50509050806110915760405162461bcd60e51b8152602060048201526012602482015271436f756c64206e6f7420776974686472617760701b6044820152606401610f11565b6009546000906001600160a01b031615801590611e9057506000600954600160f81b900460ff166002811115611e5f57611e5f614116565b1480611e905750808015611e9057506001600954600160f81b900460ff166002811115611e8e57611e8e614116565b145b80611ec1575080158015611ec157506002600954600160f81b900460ff166002811115611ebf57611ebf614116565b145b15611f8d576009546040516370a0823160e01b8152336004820152600160a01b82046001600160581b0316916001600160a01b0316906370a08231906024016020604051808303816000875af1158015611f1f573d6000803e3d6000fd5b505050506040513d601f19601f82011682018060405250810190611f439190614c68565b1015611f8d5760405162461bcd60e51b81526020600482015260196024820152783237903737ba1037bbb7103932b8bab4b932b2103a37b5b2b760391b6044820152606401610f11565b600054600d54600160901b900463ffffffff164210801590611fbe5750600d54600160b01b900463ffffffff164211155b6120025760405162461bcd60e51b815260206004820152601560248201527429b0b632b99030b932903737ba1030b1ba34bb329760591b6044820152606401610f11565b601254600160a01b900460ff161561205c5760405162461bcd60e51b815260206004820152601b60248201527f53616c65206d7573742062652061637469766520746f206d696e7400000000006044820152606401610f11565b600d5462010000900463ffffffff166120758483614c97565b11156120935760405162461bcd60e51b8152600401610f1190614caa565b600d5462010000900463ffffffff168111156120dc5760405162461bcd60e51b815260206004820152600860248201526714d3d3110813d55560c21b6044820152606401610f11565b600e546120f39084906001600160601b0316614cdf565b3410156121375760405162461bcd60e51b8152602060048201526012602482015271496e73756666696369656e742066756e647360701b6044820152606401610f11565b600d54600160301b900463ffffffff16156121ab57600d54600160301b900463ffffffff168311156121ab5760405162461bcd60e51b815260206004820152601c60248201527f4578636565646564206d6178206e756d62657220706572206d696e74000000006044820152606401610f11565b6121b584846131b1565b60005b8381101561221057604080516001600160a01b0387168152602081018490526001909301927f30385c845b448a36257a6a1716e6ad2e1bc2cbe333cde1e69fe849ad6511adfe910160405180910390a16001016121b8565b5050505050565b611a9b83838360405180602001604052806000815250612b01565b61223d60003361246f565b6122595760405162461bcd60e51b8152600401610f1190614c45565b60106110918282614e18565b6000610fab826131cb565b6010805461227d90614c11565b80601f01602080910402602001604051908101604052809291908181526020018280546122a990614c11565b80156122f65780601f106122cb576101008083540402835291602001916122f6565b820191906000526020600020905b8154815290600101906020018083116122d957829003601f168201915b505050505081565b61230960003361246f565b6123255760405162461bcd60e51b8152600401610f1190614c45565b600054600d5462010000900463ffffffff166123418383614c97565b1061235e5760405162461bcd60e51b8152600401610f1190614caa565b60005b82811015611a9b57612387336123778385614c97565b612382906001614c97565b6131b1565b8061239181614d0c565b915050612361565b60006001600160a01b0382166123c2576040516323d3ad8160e21b815260040160405180910390fd5b506001600160a01b03166000908152600560205260409020546001600160401b031690565b6123ef613309565b6123f960006133d1565b565b600c546001600160a01b03166124235760405162461bcd60e51b8152600401610f1190614afe565b81156124315761243161342d565b60005b8151811015611a9b5761245f82828151811061245257612452614cf6565b6020026020010151613054565b61246881614d0c565b9050612434565b60009182526008602090815260408084206001600160a01b0393909316845291905290205460ff1690565b6124a560003361246f565b6124c15760405162461bcd60e51b8152600401610f1190614c45565b60116110918282614e18565b606060038054610fc090614c11565b61109182826134d0565b600a54610100900460ff16158080156125065750600a54600160ff909116105b806125205750303b1580156125205750600a5460ff166001145b6125835760405162461bcd60e51b815260206004820152602e60248201527f496e697469616c697a61626c653a20636f6e747261637420697320616c72656160448201526d191e481a5b9a5d1a585b1a5e995960921b6064820152608401610f11565b600a805460ff1916600117905580156125a657600a805461ff0019166101001790555b6125af866133d1565b6125ba600087613283565b84516002906125c99082614e18565b5060208501516003906125dc9082614e18565b50600080556060840151601380546001600160a01b039283166001600160a01b031990911617905583516009805460208701516001600160581b0316600160a01b026001600160f81b0319909116929093169190911791909117808255604085015185929182906001600160f81b0316600160f81b83600281111561266357612663614116565b0217905550905050604051806101800160405280866040015115158152602001866060015115158152602001866080015163ffffffff1681526020018660a0015163ffffffff1681526020018660c0015163ffffffff1681526020018660e0015163ffffffff16815260200186610100015163ffffffff16815260200186610120015163ffffffff16815260200186610140015161ffff1681526020018661016001516001600160601b031681526020018661018001516001600160a01b03168152602001866101a00151815250600d60008201518160000160006101000a81548160ff02191690831515021790555060208201518160000160016101000a81548160ff02191690831515021790555060408201518160000160026101000a81548163ffffffff021916908363ffffffff16021790555060608201518160000160066101000a81548163ffffffff021916908363ffffffff160217905550608082015181600001600a6101000a81548163ffffffff021916908363ffffffff16021790555060a082015181600001600e6101000a81548163ffffffff021916908363ffffffff16021790555060c08201518160000160126101000a81548163ffffffff021916908363ffffffff16021790555060e08201518160000160166101000a81548163ffffffff021916908363ffffffff16021790555061010082015181600001601a6101000a81548161ffff021916908361ffff1602179055506101208201518160010160006101000a8154816001600160601b0302191690836001600160601b0316021790555061014082015181600101600c6101000a8154816001600160a01b0302191690836001600160a01b03160217905550610160820151816002015590505060006001600160a01b0316826001600160a01b03161415801561291357506000846040015151115b1561299157601280546001600160a01b0319166001600160a01b03841690811790915560408581015190516342b53ffd60e11b815263856a7ffa9161295a91600401614019565b600060405180830381600087803b15801561297457600080fd5b505af1158015612988573d6000803e3d6000fd5b505050506129b5565b83516011906129a09082614e18565b5060208401516010906129b39082614e18565b505b80156116ce57600a805461ff0019169055604051600181527f7f26b83ff96e1f2b6a682f133852f6798a09c465da95921460cefb38474024989060200160405180910390a1505050505050565b612a0d60003361246f565b612a295760405162461bcd60e51b8152600401610f1190614c45565b600d5460ff16612a895760405162461bcd60e51b815260206004820152602560248201527f63616e6e6f742061646a7573742073697a65206f66207468697320636f6c6c6560448201526431ba34b7b760d91b6064820152608401610f11565b8063ffffffff16612a9960005490565b1115612add5760405162461bcd60e51b8152602060048201526013602482015272063616e6e6f742064656372656173652063617606c1b6044820152606401610f11565b600d805463ffffffff909216620100000265ffffffff000019909216919091179055565b612b0c848484611530565b6001600160a01b0383163b15612b4557612b28848484846134e4565b612b45576040516368d2bf6b60e11b815260040160405180910390fd5b50505050565b600c546001600160a01b0316612b735760405162461bcd60e51b8152600401610f1190614afe565b612b7b61342d565b600b54600c5460405163730e582f60e11b81526001600160a01b039283169263e61cb05e92612bbb929116908a908a908a908a908a908a90600401614ed7565b600060405180830381600087803b158015612bd557600080fd5b505af1158015612be9573d6000803e3d6000fd5b50505050505050505050565b612c0060003361246f565b612c1c5760405162461bcd60e51b8152600401610f1190614c45565b600054600d54819062010000900463ffffffff16612c3a8483614c97565b1115612c585760405162461bcd60e51b8152600401610f1190614caa565b8183015b8083101561221057612c978585848603818110612c7b57612c7b614cf6565b9050602002016020810190612c9091906144ad565b60016131b1565b7f30385c845b448a36257a6a1716e6ad2e1bc2cbe333cde1e69fe849ad6511adfe8585848603818110612ccc57612ccc614cf6565b9050602002016020810190612ce191906144ad565b604080516001600160a01b039092168252602082018690520160405180910390a1600190920191612c5c565b6060610fab826135d0565b600082815260086020526040902060010154612d3381613279565b611a9b838361336a565b6000612d4884612265565b9050336001600160a01b03821614612d9957612d648133610dc8565b612d995733612d7285611043565b6001600160a01b031614612d99576040516309e3bb1d60e31b815260040160405180910390fd5b6000848152601460209081526040918290206001600160a01b03861660a086901b67ffffffffffffffff60a01b16811790915591516001600160401b038516815286917f4e06b4e7000e659094299b3533b47b6aa8ad048e95e872d23d1f4ee55af89cfe910160405180910390a350505050565b6012546060906001600160a01b0316612e2d5760118054610fc090614c11565b601260009054906101000a90046001600160a01b03166001600160a01b031663e8a3d4856040518163ffffffff1660e01b8152600401600060405180830381865afa158015612e80573d6000803e3d6000fd5b505050506040513d6000823e601f3d908101601f19168201604052612ea89190810190614f30565b905090565b600d54600090600160901b900463ffffffff164210801590612ede5750600d54600160b01b900463ffffffff164211155b8015612ea8575050601254600160a01b900460ff161590565b612f0260003361246f565b612f1e5760405162461bcd60e51b8152600401610f1190614c45565b600d805467ffffffffffffffff60501b1916600160501b63ffffffff9485160263ffffffff60701b191617600160701b9290931691909102919091179055565b612f66613309565b6001600160a01b038116612fcb5760405162461bcd60e51b815260206004820152602660248201527f4f776e61626c653a206e6577206f776e657220697320746865207a65726f206160448201526564647265737360d01b6064820152608401610f11565b612fd4816133d1565b50565b612fe260003361246f565b612ffe5760405162461bcd60e51b8152600401610f1190614c45565b601280546001600160a01b0319166001600160a01b0392909216919091179055565b61302b60003361246f565b6130475760405162461bcd60e51b8152600401610f1190614c45565b806009611a9b8282614fa6565b6040516370a0823160e01b81523060048201526000906001600160a01b038316906370a0823190602401602060405180830381865afa15801561309b573d6000803e3d6000fd5b505050506040513d601f19601f820116820180604052508101906130bf9190614c68565b600c5460405163a9059cbb60e01b81526001600160a01b0391821660048201526024810183905291925083169063a9059cbb906044016020604051808303816000875af1158015613114573d6000803e3d6000fd5b505050506040513d601f19601f82011682018060405250810190611a9b9190614d47565b600061314382613683565b80610fab5750506001600160e01b031916632b424ad760e21b1490565b6000805482108015610fab575050600090815260046020526040902054600160e01b161590565b81613191816136c6565b611a9b838361377f565b6000826131a8858461381f565b14949350505050565b61109182826040518060200160405280600081525061386c565b6000816000548110156132205760008181526004602052604081205490600160e01b8216900361321e575b806000036132175750600019016000818152600460205260409020546131f6565b9392505050565b505b604051636f96cda160e11b815260040160405180910390fd5b612b45848484846138d2565b600b54604051636e5f691960e01b81526001600160a01b0390911690636e5f69199061195f90869086908690600401615043565b612fd48133613953565b61328d828261246f565b6110915760008281526008602090815260408083206001600160a01b03851684529091529020805460ff191660011790556132c53390565b6001600160a01b0316816001600160a01b0316837f2f8788117e7eff1d82e926ec794901d17c78024a50270940304540a733656f0d60405160405180910390a45050565b600a546001600160a01b03620100009091041633146123f95760405162461bcd60e51b815260206004820181905260248201527f4f776e61626c653a2063616c6c6572206973206e6f7420746865206f776e65726044820152606401610f11565b613374828261246f565b156110915760008281526008602090815260408083206001600160a01b0385168085529252808320805460ff1916905551339285917ff6391f5c32d9c69d2a47ea670b442974b53935d1edc7fd64eb21e047a839171b9190a45050565b600a80546001600160a01b038381166201000081810262010000600160b01b031985161790945560405193909204169182907f8be0079c531659141344cd1fd0a4f28419497f9722a3daafe3b4186f6b6457e090600090a35050565b600c546040516000916001600160a01b03169047908381818185875af1925050503d806000811461347a576040519150601f19603f3d011682016040523d82523d6000602084013e61347f565b606091505b5050905080612fd45760405162461bcd60e51b815260206004820152601f60248201527f436f756c64206e6f74207472616e736665722045544820746f2073706c6974006044820152606401610f11565b816134da816136c6565b611a9b83836139ac565b604051630a85bd0160e11b81526000906001600160a01b0385169063150b7a02906135199033908990889088906004016150a6565b6020604051808303816000875af1925050508015613554575060408051601f3d908101601f19168201909252613551918101906150e3565b60015b6135b2573d808015613582576040519150601f19603f3d011682016040523d82523d6000602084013e613587565b606091505b5080516000036135aa576040516368d2bf6b60e11b815260040160405180910390fd5b805181602001fd5b6001600160e01b031916630a85bd0160e11b1490505b949350505050565b60606135db82613160565b6135f857604051630a14c4b560e41b815260040160405180910390fd5b6012546001600160a01b03161561367a5760125460405163c87b56dd60e01b8152600481018490526001600160a01b039091169063c87b56dd90602401600060405180830381865afa158015613652573d6000803e3d6000fd5b505050506040513d6000823e601f3d908101601f19168201604052610fab9190810190614f30565b610fab82613a41565b600063152a902d60e11b6001600160e01b0319831614806136a857506136a882613ac4565b806136b757506136b782613af9565b80610fab5750610fab82613ac4565b6daaeb6d7670e522a718067333cd4e3b15612fd457604051633185c44d60e21b81523060048201526001600160a01b03821660248201526daaeb6d7670e522a718067333cd4e9063c617113490604401602060405180830381865afa158015613733573d6000803e3d6000fd5b505050506040513d601f19601f820116820180604052508101906137579190614d47565b612fd457604051633b79c77360e21b81526001600160a01b0382166004820152602401610f11565b600061378a82612265565b9050336001600160a01b038216146137c3576137a68133610dc8565b6137c3576040516367d9dca160e11b815260040160405180910390fd5b60008281526006602052604080822080546001600160a01b0319166001600160a01b0387811691821790925591518593918516917f8c5be1e5ebec7d5bd14f71427d1e84f3dd0314c0f7b2291e5b200ac8c7c3b92591a4505050565b600081815b8451811015613864576138508286838151811061384357613843614cf6565b6020026020010151613b47565b91508061385c81614d0c565b915050613824565b509392505050565b6138768383613b73565b6001600160a01b0383163b15611a9b576000548281035b6138a060008683806001019450866134e4565b6138bd576040516368d2bf6b60e11b815260040160405180910390fd5b81811061388d57816000541461221057600080fd5b836001600160a01b03811633146138ec576138ec336136c6565b600d54610100900460ff16158061391b57506001600160a01b038516158061391b57506001600160a01b038416155b6122105760405162461bcd60e51b81526020600482015260096024820152681cdbdd5b189bdd5b9960ba1b6044820152606401610f11565b61395d828261246f565b6110915761396a81613c7e565b613975836020613c90565b604051602001613986929190615100565b60408051601f198184030181529082905262461bcd60e51b8252610f1191600401614019565b336001600160a01b038316036139d55760405163b06307db60e01b815260040160405180910390fd5b3360008181526007602090815260408083206001600160a01b03871680855290835292819020805460ff191686151590811790915590519081529192917f17307eab39ab6107e8899845ad3d59bd9653f200f220920489ca2b5937696c31910160405180910390a35050565b6060613a4c82613160565b613a6957604051630a14c4b560e41b815260040160405180910390fd5b6000613a73613e2b565b90508051600003613a935760405180602001604052806000815250613217565b80613a9d84613e3a565b604051602001613aae929190615175565b6040516020818303038152906040529392505050565b60006001600160e01b03198216637965db0b60e01b1480610fab57506301ffc9a760e01b6001600160e01b0319831614610fab565b60006301ffc9a760e01b6001600160e01b031983161480613b2a57506380ac58cd60e01b6001600160e01b03198316145b80610fab5750506001600160e01b031916635b5e139f60e01b1490565b6000818310613b63576000828152602084905260409020613217565b5060009182526020526040902090565b6000805490829003613b985760405163b562e8dd60e01b815260040160405180910390fd5b613ba56000848385613239565b6001600160a01b03831660008181526005602090815260408083208054680100000000000000018802019055848352600490915281206001851460e11b4260a01b178317905582840190839083907fddf252ad1be2c89b69c2b068fc378daa952ba7f163c4a11628f55a4df523b3ef8180a4600183015b818114613c5457808360007fddf252ad1be2c89b69c2b068fc378daa952ba7f163c4a11628f55a4df523b3ef600080a4600101613c1c565b5081600003613c7557604051622e076360e81b815260040160405180910390fd5b60005550505050565b6060610fab6001600160a01b03831660145b60606000613c9f836002614cdf565b613caa906002614c97565b6001600160401b03811115613cc157613cc16141b8565b6040519080825280601f01601f191660200182016040528015613ceb576020820181803683370190505b509050600360fc1b81600081518110613d0657613d06614cf6565b60200101906001600160f81b031916908160001a905350600f60fb1b81600181518110613d3557613d35614cf6565b60200101906001600160f81b031916908160001a9053506000613d59846002614cdf565b613d64906001614c97565b90505b6001811115613ddc576f181899199a1a9b1b9c1cb0b131b232b360811b85600f1660108110613d9857613d98614cf6565b1a60f81b828281518110613dae57613dae614cf6565b60200101906001600160f81b031916908160001a90535060049490941c93613dd5816151a4565b9050613d67565b5083156132175760405162461bcd60e51b815260206004820181905260248201527f537472696e67733a20686578206c656e67746820696e73756666696369656e746044820152606401610f11565b606060108054610fc090614c11565b604080516080019081905280825b600183039250600a81066030018353600a900480613e485750819003601f19909101908152919050565b6001600160a01b0381168114612fd457600080fd5b60008083601f840112613e9957600080fd5b5081356001600160401b03811115613eb057600080fd5b6020830191508360208260051b850101111561187257600080fd5b803563ffffffff81168114613edf57600080fd5b919050565b8035613edf81613e72565b600080600080600080600060a0888a031215613f0a57600080fd5b8735613f1581613e72565b965060208801356001600160401b0380821115613f3157600080fd5b613f3d8b838c01613e87565b909850965060408a0135915080821115613f5657600080fd5b50613f638a828b01613e87565b9095509350613f76905060608901613ecb565b91506080880135613f8681613e72565b8091505092959891949750929550565b6001600160e01b031981168114612fd457600080fd5b600060208284031215613fbe57600080fd5b813561321781613f96565b60005b83811015613fe4578181015183820152602001613fcc565b50506000910152565b60008151808452614005816020860160208601613fc9565b601f01601f19169290920160200192915050565b6020815260006132176020830184613fed565b60006020828403121561403e57600080fd5b5035919050565b6000806040838503121561405857600080fd5b823561406381613e72565b946020939093013593505050565b6000806040838503121561408457600080fd5b61408d83613ecb565b915061409b60208401613ecb565b90509250929050565b60008060008060008060a087890312156140bd57600080fd5b86356140c881613e72565b955060208701359450604087013593506060870135925060808701356001600160401b038111156140f857600080fd5b61410489828a01613e87565b979a9699509497509295939492505050565b634e487b7160e01b600052602160045260246000fd5b6001600160a01b03841681526001600160581b0383166020820152606081016003831061416957634e487b7160e01b600052602160045260246000fd5b826040830152949350505050565b60008060006060848603121561418c57600080fd5b833561419781613e72565b925060208401356141a781613e72565b929592945050506040919091013590565b634e487b7160e01b600052604160045260246000fd5b6040516101c081016001600160401b03811182821017156141f1576141f16141b8565b60405290565b604051601f8201601f191681016001600160401b038111828210171561421f5761421f6141b8565b604052919050565b600082601f83011261423857600080fd5b813560206001600160401b03821115614253576142536141b8565b8160051b6142628282016141f7565b928352848101820192828101908785111561427c57600080fd5b83870192505b848310156142a457823561429581613e72565b82529183019190830190614282565b979650505050505050565b600080600080600080600080600060e08a8c0312156142cd57600080fd5b89356142d881613e72565b985060208a0135975060408a01356001600160401b03808211156142fb57600080fd5b6143078d838e01614227565b985060608c013591508082111561431d57600080fd5b6143298d838e01613e87565b909850965060808c013591508082111561434257600080fd5b5061434f8c828d01613e87565b9095509350614362905060a08b01613ecb565b915060c08a013561437281613e72565b809150509295985092959850929598565b6000806040838503121561439657600080fd5b50508035926020909101359150565b8015158114612fd457600080fd5b8035613edf816143a5565b600080604083850312156143d157600080fd5b82356143dc816143a5565b915060208301356143ec81613e72565b809150509250929050565b6000806040838503121561440a57600080fd5b8235915060208301356143ec81613e72565b6000806000806000806080878903121561443557600080fd5b863561444081613e72565b955060208701356001600160401b038082111561445c57600080fd5b6144688a838b01613e87565b9097509550604089013591508082111561448157600080fd5b5061448e89828a01613e87565b90945092506144a1905060608801613ecb565b90509295509295509295565b6000602082840312156144bf57600080fd5b813561321781613e72565b60006001600160401b038211156144e3576144e36141b8565b50601f01601f191660200190565b600082601f83011261450257600080fd5b8135614515614510826144ca565b6141f7565b81815284602083860101111561452a57600080fd5b816020850160208301376000918101602001919091529392505050565b60006020828403121561455957600080fd5b81356001600160401b0381111561456f57600080fd5b6135c8848285016144f1565b6000806040838503121561458e57600080fd5b8235915060208301356001600160401b038111156145ab57600080fd5b61186e85828601614227565b600080604083850312156145ca57600080fd5b82356145d581613e72565b915060208301356143ec816143a5565b803561ffff81168114613edf57600080fd5b80356001600160601b0381168114613edf57600080fd5b60006080828403121561462057600080fd5b604051608081016001600160401b038282108183111715614643576146436141b8565b81604052829350843591508082111561465b57600080fd5b614667868387016144f1565b8352602085013591508082111561467d57600080fd5b614689868387016144f1565b602084015260408501359150808211156146a257600080fd5b506146af858286016144f1565b60408301525060608301356146c381613e72565b6060919091015292915050565b6001600160581b0381168114612fd457600080fd5b60038110612fd457600080fd5b60006060828403121561470457600080fd5b604051606081018181106001600160401b0382111715614726576147266141b8565b604052905080823561473781613e72565b81526020830135614747816146d0565b6020820152604083013561475a816146e5565b6040919091015292915050565b600080600080600060e0868803121561477f57600080fd5b853561478a81613e72565b945060208601356001600160401b03808211156147a657600080fd5b908701906101c0828a0312156147bb57600080fd5b6147c36141ce565b8235828111156147d257600080fd5b6147de8b8286016144f1565b8252506020830135828111156147f357600080fd5b6147ff8b8286016144f1565b602083015250614811604084016143b3565b6040820152614822606084016143b3565b606082015261483360808401613ecb565b608082015261484460a08401613ecb565b60a082015261485560c08401613ecb565b60c082015261486660e08401613ecb565b60e0820152610100614879818501613ecb565b9082015261012061488b848201613ecb565b9082015261014061489d8482016145e5565b908201526101606148af8482016145f7565b908201526101806148c1848201613ee4565b908201526101a09283013592810192909252909450604087013590808211156148e957600080fd5b506148f68882890161460e565b93505061490687606088016146f2565b915061491460c08701613ee4565b90509295509295909350565b60006020828403121561493257600080fd5b61321782613ecb565b6000806000806080858703121561495157600080fd5b843561495c81613e72565b9350602085013561496c81613e72565b92506040850135915060608501356001600160401b0381111561498e57600080fd5b61499a878288016144f1565b91505092959194509250565b600080600080600080608087890312156149bf57600080fd5b86356001600160401b03808211156149d657600080fd5b6149e28a838b01613e87565b909850965060208901359150808211156149fb57600080fd5b50614a0889828a01613e87565b9095509350614a1b905060408801613ecb565b91506060870135614a2b81613e72565b809150509295509295509295565b60008060208385031215614a4c57600080fd5b82356001600160401b03811115614a6257600080fd5b614a6e85828601613e87565b90969095509350505050565b600080600060608486031215614a8f57600080fd5b833592506020840135614aa181613e72565b915060408401356001600160401b0381168114614abd57600080fd5b809150509250925092565b60008060408385031215614adb57600080fd5b82356143dc81613e72565b600060608284031215614af857600080fd5b50919050565b60208082526015908201527414dc1b1a5d081b9bdd0818dc99585d1959081e595d605a1b604082015260600190565b8183526000602080850194508260005b85811015614b6b578135614b5081613e72565b6001600160a01b031687529582019590820190600101614b3d565b509495945050505050565b8183526000602080850194508260005b85811015614b6b5763ffffffff614b9c83613ecb565b1687529582019590820190600101614b86565b600060018060a01b03808b168352808a16602084015260c06040840152614bda60c08401898b614b2d565b8381036060850152614bed81888a614b76565b63ffffffff969096166080850152509290921660a090910152509695505050505050565b600181811c90821680614c2557607f821691505b602082108103614af857634e487b7160e01b600052602260045260246000fd5b60208082526009908201526837b7363ca0b236b4b760b91b604082015260600190565b600060208284031215614c7a57600080fd5b5051919050565b634e487b7160e01b600052601160045260246000fd5b80820180821115610fab57610fab614c81565b6020808252818101527f507572636861736520776f756c6420657863656564206d617820737570706c79604082015260600190565b8082028115828204841417610fab57610fab614c81565b634e487b7160e01b600052603260045260246000fd5b600060018201614d1e57614d1e614c81565b5060010190565b600082614d4257634e487b7160e01b600052601260045260246000fd5b500490565b600060208284031215614d5957600080fd5b8151613217816143a5565b608081526000614d7860808301888a614b2d565b8281036020840152614d8b818789614b76565b63ffffffff95909516604084015250506001600160a01b0391909116606090910152949350505050565b600060208284031215614dc757600080fd5b815161321781613e72565b601f821115611a9b57600081815260208120601f850160051c81016020861015614df95750805b601f850160051c820191505b818110156116ce57828155600101614e05565b81516001600160401b03811115614e3157614e316141b8565b614e4581614e3f8454614c11565b84614dd2565b602080601f831160018114614e7a5760008415614e625750858301515b600019600386901b1c1916600185901b1785556116ce565b600085815260208120601f198616915b82811015614ea957888601518255948401946001909101908401614e8a565b5085821015614ec75787850151600019600388901b60f8161c191681555b5050505050600190811b01905550565b600060018060a01b03808a16835260a06020840152614efa60a08401898b614b2d565b8381036040850152614f0d81888a614b76565b63ffffffff96909616606085015250929092166080909101525095945050505050565b600060208284031215614f4257600080fd5b81516001600160401b03811115614f5857600080fd5b8201601f81018413614f6957600080fd5b8051614f77614510826144ca565b818152856020838501011115614f8c57600080fd5b614f9d826020830160208601613fc9565b95945050505050565b8135614fb181613e72565b81546001600160a01b031981166001600160a01b039290921691821783556020840135614fdd816146d0565b6affffffffffffffffffffff60a01b60a09190911b166001600160f81b0319918216831781178455604085013591615014836146e5565b6003831061503257634e487b7160e01b600052602160045260246000fd5b921760f89190911b90911617905550565b6001600160a01b038481168252602080830185905260606040840181905284519084018190526000928583019290916080860190855b81811015615097578551851683529483019491830191600101615079565b50909998505050505050505050565b6001600160a01b03858116825284166020820152604081018390526080606082018190526000906150d990830184613fed565b9695505050505050565b6000602082840312156150f557600080fd5b815161321781613f96565b7f416363657373436f6e74726f6c3a206163636f756e7420000000000000000000815260008351615138816017850160208801613fc9565b7001034b99036b4b9b9b4b733903937b6329607d1b6017918401918201528351615169816028840160208801613fc9565b01602801949350505050565b60008351615187818460208801613fc9565b83519083019061519b818360208801613fc9565b01949350505050565b6000816151b3576151b3614c81565b50600019019056fea26469706673582212204ec69103d5533433b0b7fd1dd4999610b508329c294a78cd062071f96193e61064736f6c63430008110033",
  "linkReferences": {},
  "deployedLinkReferences": {}
}