{
  "_format": "hh-sol-artifact-1",
  "contractName": "DCNT4907A",
  "sourceName": "contracts/DCNT4907A.sol",
  "abi": [
    {
      "inputs": [],
      "name": "ApprovalCallerNotOwnerNorApproved",
      "type": "error"
    },
    {
      "inputs": [],
      "name": "ApprovalQueryForNonexistentToken",
      "type": "error"
    },
    {
      "inputs": [],
      "name": "ApproveToCaller",
      "type": "error"
    },
    {
      "inputs": [],
      "name": "BalanceQueryForZeroAddress",
      "type": "error"
    },
    {
      "inputs": [],
      "name": "MintERC2309QuantityExceedsLimit",
      "type": "error"
    },
    {
      "inputs": [],
      "name": "MintToZeroAddress",
      "type": "error"
    },
    {
      "inputs": [],
      "name": "MintZeroQuantity",
      "type": "error"
    },
    {
      "inputs": [],
      "name": "OwnerQueryForNonexistentToken",
      "type": "error"
    },
    {
      "inputs": [],
      "name": "OwnershipNotInitializedForExtraData",
      "type": "error"
    },
    {
      "inputs": [],
      "name": "SetUserCallerNotOwnerNorApproved",
      "type": "error"
    },
    {
      "inputs": [],
      "name": "TransferCallerNotOwnerNorApproved",
      "type": "error"
    },
    {
      "inputs": [],
      "name": "TransferFromIncorrectOwner",
      "type": "error"
    },
    {
      "inputs": [],
      "name": "TransferToNonERC721ReceiverImplementer",
      "type": "error"
    },
    {
      "inputs": [],
      "name": "TransferToZeroAddress",
      "type": "error"
    },
    {
      "inputs": [],
      "name": "URIQueryForNonexistentToken",
      "type": "error"
    },
    {
      "anonymous": false,
      "inputs": [
        {
          "indexed": true,
          "internalType": "address",
          "name": "owner",
          "type": "address"
        },
        {
          "indexed": true,
          "internalType": "address",
          "name": "approved",
          "type": "address"
        },
        {
          "indexed": true,
          "internalType": "uint256",
          "name": "tokenId",
          "type": "uint256"
        }
      ],
      "name": "Approval",
      "type": "event"
    },
    {
      "anonymous": false,
      "inputs": [
        {
          "indexed": true,
          "internalType": "address",
          "name": "owner",
          "type": "address"
        },
        {
          "indexed": true,
          "internalType": "address",
          "name": "operator",
          "type": "address"
        },
        {
          "indexed": false,
          "internalType": "bool",
          "name": "approved",
          "type": "bool"
        }
      ],
      "name": "ApprovalForAll",
      "type": "event"
    },
    {
      "anonymous": false,
      "inputs": [
        {
          "indexed": true,
          "internalType": "uint256",
          "name": "fromTokenId",
          "type": "uint256"
        },
        {
          "indexed": false,
          "internalType": "uint256",
          "name": "toTokenId",
          "type": "uint256"
        },
        {
          "indexed": true,
          "internalType": "address",
          "name": "from",
          "type": "address"
        },
        {
          "indexed": true,
          "internalType": "address",
          "name": "to",
          "type": "address"
        }
      ],
      "name": "ConsecutiveTransfer",
      "type": "event"
    },
    {
      "anonymous": false,
      "inputs": [
        {
          "indexed": false,
          "internalType": "uint8",
          "name": "version",
          "type": "uint8"
        }
      ],
      "name": "Initialized",
      "type": "event"
    },
    {
      "anonymous": false,
      "inputs": [
        {
          "indexed": false,
          "internalType": "address",
          "name": "sender",
          "type": "address"
        },
        {
          "indexed": false,
          "internalType": "uint256",
          "name": "tokenId_",
          "type": "uint256"
        }
      ],
      "name": "Minted",
      "type": "event"
    },
    {
      "anonymous": false,
      "inputs": [
        {
          "indexed": true,
          "internalType": "address",
          "name": "previousOwner",
          "type": "address"
        },
        {
          "indexed": true,
          "internalType": "address",
          "name": "newOwner",
          "type": "address"
        }
      ],
      "name": "OwnershipTransferred",
      "type": "event"
    },
    {
      "anonymous": false,
      "inputs": [
        {
          "indexed": true,
          "internalType": "address",
          "name": "from",
          "type": "address"
        },
        {
          "indexed": true,
          "internalType": "address",
          "name": "to",
          "type": "address"
        },
        {
          "indexed": true,
          "internalType": "uint256",
          "name": "tokenId",
          "type": "uint256"
        }
      ],
      "name": "Transfer",
      "type": "event"
    },
    {
      "anonymous": false,
      "inputs": [
        {
          "indexed": true,
          "internalType": "uint256",
          "name": "tokenId",
          "type": "uint256"
        },
        {
          "indexed": true,
          "internalType": "address",
          "name": "user",
          "type": "address"
        },
        {
          "indexed": false,
          "internalType": "uint64",
          "name": "expires",
          "type": "uint64"
        }
      ],
      "name": "UpdateUser",
      "type": "event"
    },
    {
      "inputs": [],
      "name": "MAX_TOKENS",
      "outputs": [
        {
          "internalType": "uint256",
          "name": "",
          "type": "uint256"
        }
      ],
      "stateMutability": "view",
      "type": "function"
    },
    {
      "inputs": [
        {
          "internalType": "address",
          "name": "to",
          "type": "address"
        },
        {
          "internalType": "uint256",
          "name": "tokenId",
          "type": "uint256"
        }
      ],
      "name": "approve",
      "outputs": [],
      "stateMutability": "nonpayable",
      "type": "function"
    },
    {
      "inputs": [
        {
          "internalType": "address",
          "name": "owner",
          "type": "address"
        }
      ],
      "name": "balanceOf",
      "outputs": [
        {
          "internalType": "uint256",
          "name": "",
          "type": "uint256"
        }
      ],
      "stateMutability": "view",
      "type": "function"
    },
    {
      "inputs": [],
      "name": "baseURI",
      "outputs": [
        {
          "internalType": "string",
          "name": "",
          "type": "string"
        }
      ],
      "stateMutability": "view",
      "type": "function"
    },
    {
      "inputs": [
        {
          "internalType": "address[]",
          "name": "accounts",
          "type": "address[]"
        },
        {
          "internalType": "uint32[]",
          "name": "percentAllocations",
          "type": "uint32[]"
        },
        {
          "internalType": "uint32",
          "name": "distributorFee",
          "type": "uint32"
        }
      ],
      "name": "createSplit",
      "outputs": [],
      "stateMutability": "nonpayable",
      "type": "function"
    },
    {
      "inputs": [
        {
          "internalType": "address",
          "name": "account",
          "type": "address"
        },
        {
          "internalType": "uint256",
          "name": "withdrawETH",
          "type": "uint256"
        },
        {
          "internalType": "contract ERC20[]",
          "name": "tokens",
          "type": "address[]"
        },
        {
          "internalType": "address[]",
          "name": "accounts",
          "type": "address[]"
        },
        {
          "internalType": "uint32[]",
          "name": "percentAllocations",
          "type": "uint32[]"
        },
        {
          "internalType": "uint32",
          "name": "distributorFee",
          "type": "uint32"
        },
        {
          "internalType": "address",
          "name": "distributorAddress",
          "type": "address"
        }
      ],
      "name": "distributeAndWithdraw",
      "outputs": [],
      "stateMutability": "nonpayable",
      "type": "function"
    },
    {
      "inputs": [
        {
          "internalType": "contract ERC20",
          "name": "token",
          "type": "address"
        },
        {
          "internalType": "address[]",
          "name": "accounts",
          "type": "address[]"
        },
        {
          "internalType": "uint32[]",
          "name": "percentAllocations",
          "type": "uint32[]"
        },
        {
          "internalType": "uint32",
          "name": "distributorFee",
          "type": "uint32"
        },
        {
          "internalType": "address",
          "name": "distributorAddress",
          "type": "address"
        }
      ],
      "name": "distributeERC20",
      "outputs": [],
      "stateMutability": "nonpayable",
      "type": "function"
    },
    {
      "inputs": [
        {
          "internalType": "address[]",
          "name": "accounts",
          "type": "address[]"
        },
        {
          "internalType": "uint32[]",
          "name": "percentAllocations",
          "type": "uint32[]"
        },
        {
          "internalType": "uint32",
          "name": "distributorFee",
          "type": "uint32"
        },
        {
          "internalType": "address",
          "name": "distributorAddress",
          "type": "address"
        }
      ],
      "name": "distributeETH",
      "outputs": [],
      "stateMutability": "nonpayable",
      "type": "function"
    },
    {
      "inputs": [],
      "name": "flipSaleState",
      "outputs": [],
      "stateMutability": "nonpayable",
      "type": "function"
    },
    {
      "inputs": [
        {
          "internalType": "uint256",
          "name": "tokenId",
          "type": "uint256"
        }
      ],
      "name": "getApproved",
      "outputs": [
        {
          "internalType": "address",
          "name": "",
          "type": "address"
        }
      ],
      "stateMutability": "view",
      "type": "function"
    },
    {
      "inputs": [
        {
          "internalType": "address",
          "name": "_owner",
          "type": "address"
        },
        {
          "components": [
            {
              "internalType": "string",
              "name": "name",
              "type": "string"
            },
            {
              "internalType": "string",
              "name": "symbol",
              "type": "string"
            },
            {
              "internalType": "uint256",
              "name": "maxTokens",
              "type": "uint256"
            },
            {
              "internalType": "uint256",
              "name": "tokenPrice",
              "type": "uint256"
            },
            {
              "internalType": "uint256",
              "name": "maxTokenPurchase",
              "type": "uint256"
            },
            {
              "internalType": "uint256",
              "name": "royaltyBPS",
              "type": "uint256"
            }
          ],
          "internalType": "struct EditionConfig",
          "name": "_editionConfig",
          "type": "tuple"
        },
        {
          "components": [
            {
              "internalType": "string",
              "name": "metadataURI",
              "type": "string"
            },
            {
              "internalType": "bytes",
              "name": "metadataRendererInit",
              "type": "bytes"
            }
          ],
          "internalType": "struct MetadataConfig",
          "name": "_metadataConfig",
          "type": "tuple"
        },
        {
          "internalType": "address",
          "name": "_metadataRenderer",
          "type": "address"
        },
        {
          "internalType": "address",
          "name": "_splitMain",
          "type": "address"
        }
      ],
      "name": "initialize",
      "outputs": [],
      "stateMutability": "nonpayable",
      "type": "function"
    },
    {
      "inputs": [
        {
          "internalType": "address",
          "name": "owner",
          "type": "address"
        },
        {
          "internalType": "address",
          "name": "operator",
          "type": "address"
        }
      ],
      "name": "isApprovedForAll",
      "outputs": [
        {
          "internalType": "bool",
          "name": "",
          "type": "bool"
        }
      ],
      "stateMutability": "view",
      "type": "function"
    },
    {
      "inputs": [],
      "name": "maxTokenPurchase",
      "outputs": [
        {
          "internalType": "uint256",
          "name": "",
          "type": "uint256"
        }
      ],
      "stateMutability": "view",
      "type": "function"
    },
    {
      "inputs": [],
      "name": "metadataRenderer",
      "outputs": [
        {
          "internalType": "address",
          "name": "",
          "type": "address"
        }
      ],
      "stateMutability": "view",
      "type": "function"
    },
    {
      "inputs": [
        {
          "internalType": "uint256",
          "name": "numberOfTokens",
          "type": "uint256"
        }
      ],
      "name": "mint",
      "outputs": [],
      "stateMutability": "payable",
      "type": "function"
    },
    {
      "inputs": [],
      "name": "name",
      "outputs": [
        {
          "internalType": "string",
          "name": "",
          "type": "string"
        }
      ],
      "stateMutability": "view",
      "type": "function"
    },
    {
      "inputs": [],
      "name": "owner",
      "outputs": [
        {
          "internalType": "address",
          "name": "",
          "type": "address"
        }
      ],
      "stateMutability": "view",
      "type": "function"
    },
    {
      "inputs": [
        {
          "internalType": "uint256",
          "name": "tokenId",
          "type": "uint256"
        }
      ],
      "name": "ownerOf",
      "outputs": [
        {
          "internalType": "address",
          "name": "",
          "type": "address"
        }
      ],
      "stateMutability": "view",
      "type": "function"
    },
    {
      "inputs": [],
      "name": "renounceOwnership",
      "outputs": [],
      "stateMutability": "nonpayable",
      "type": "function"
    },
    {
      "inputs": [
        {
          "internalType": "uint256",
          "name": "numReserved",
          "type": "uint256"
        }
      ],
      "name": "reserveDCNT",
      "outputs": [],
      "stateMutability": "nonpayable",
      "type": "function"
    },
    {
      "inputs": [],
      "name": "royaltyBPS",
      "outputs": [
        {
          "internalType": "uint256",
          "name": "",
          "type": "uint256"
        }
      ],
      "stateMutability": "view",
      "type": "function"
    },
    {
      "inputs": [
        {
          "internalType": "uint256",
          "name": "tokenId",
          "type": "uint256"
        },
        {
          "internalType": "uint256",
          "name": "salePrice",
          "type": "uint256"
        }
      ],
      "name": "royaltyInfo",
      "outputs": [
        {
          "internalType": "address",
          "name": "receiver",
          "type": "address"
        },
        {
          "internalType": "uint256",
          "name": "royaltyAmount",
          "type": "uint256"
        }
      ],
      "stateMutability": "view",
      "type": "function"
    },
    {
      "inputs": [
        {
          "internalType": "address",
          "name": "from",
          "type": "address"
        },
        {
          "internalType": "address",
          "name": "to",
          "type": "address"
        },
        {
          "internalType": "uint256",
          "name": "tokenId",
          "type": "uint256"
        }
      ],
      "name": "safeTransferFrom",
      "outputs": [],
      "stateMutability": "nonpayable",
      "type": "function"
    },
    {
      "inputs": [
        {
          "internalType": "address",
          "name": "from",
          "type": "address"
        },
        {
          "internalType": "address",
          "name": "to",
          "type": "address"
        },
        {
          "internalType": "uint256",
          "name": "tokenId",
          "type": "uint256"
        },
        {
          "internalType": "bytes",
          "name": "_data",
          "type": "bytes"
        }
      ],
      "name": "safeTransferFrom",
      "outputs": [],
      "stateMutability": "nonpayable",
      "type": "function"
    },
    {
      "inputs": [],
      "name": "saleIsActive",
      "outputs": [
        {
          "internalType": "bool",
          "name": "",
          "type": "bool"
        }
      ],
      "stateMutability": "view",
      "type": "function"
    },
    {
      "inputs": [
        {
          "internalType": "address",
          "name": "operator",
          "type": "address"
        },
        {
          "internalType": "bool",
          "name": "approved",
          "type": "bool"
        }
      ],
      "name": "setApprovalForAll",
      "outputs": [],
      "stateMutability": "nonpayable",
      "type": "function"
    },
    {
      "inputs": [
        {
          "internalType": "string",
          "name": "uri",
          "type": "string"
        }
      ],
      "name": "setBaseURI",
      "outputs": [],
      "stateMutability": "nonpayable",
      "type": "function"
    },
    {
      "inputs": [
        {
          "internalType": "address",
          "name": "_metadataRenderer",
          "type": "address"
        }
      ],
      "name": "setMetadataRenderer",
      "outputs": [],
      "stateMutability": "nonpayable",
      "type": "function"
    },
    {
      "inputs": [
        {
          "internalType": "uint256",
          "name": "tokenId",
          "type": "uint256"
        },
        {
          "internalType": "address",
          "name": "user",
          "type": "address"
        },
        {
          "internalType": "uint64",
          "name": "expires",
          "type": "uint64"
        }
      ],
      "name": "setUser",
      "outputs": [],
      "stateMutability": "nonpayable",
      "type": "function"
    },
    {
      "inputs": [],
      "name": "splitMain",
      "outputs": [
        {
          "internalType": "address",
          "name": "",
          "type": "address"
        }
      ],
      "stateMutability": "view",
      "type": "function"
    },
    {
      "inputs": [],
      "name": "splitWallet",
      "outputs": [
        {
          "internalType": "address",
          "name": "",
          "type": "address"
        }
      ],
      "stateMutability": "view",
      "type": "function"
    },
    {
      "inputs": [
        {
          "internalType": "bytes4",
          "name": "interfaceId",
          "type": "bytes4"
        }
      ],
      "name": "supportsInterface",
      "outputs": [
        {
          "internalType": "bool",
          "name": "",
          "type": "bool"
        }
      ],
      "stateMutability": "view",
      "type": "function"
    },
    {
      "inputs": [],
      "name": "symbol",
      "outputs": [
        {
          "internalType": "string",
          "name": "",
          "type": "string"
        }
      ],
      "stateMutability": "view",
      "type": "function"
    },
    {
      "inputs": [],
      "name": "tokenPrice",
      "outputs": [
        {
          "internalType": "uint256",
          "name": "",
          "type": "uint256"
        }
      ],
      "stateMutability": "view",
      "type": "function"
    },
    {
      "inputs": [
        {
          "internalType": "uint256",
          "name": "tokenId",
          "type": "uint256"
        }
      ],
      "name": "tokenURI",
      "outputs": [
        {
          "internalType": "string",
          "name": "",
          "type": "string"
        }
      ],
      "stateMutability": "view",
      "type": "function"
    },
    {
      "inputs": [],
      "name": "totalSupply",
      "outputs": [
        {
          "internalType": "uint256",
          "name": "",
          "type": "uint256"
        }
      ],
      "stateMutability": "view",
      "type": "function"
    },
    {
      "inputs": [
        {
          "internalType": "address",
          "name": "from",
          "type": "address"
        },
        {
          "internalType": "address",
          "name": "to",
          "type": "address"
        },
        {
          "internalType": "uint256",
          "name": "tokenId",
          "type": "uint256"
        }
      ],
      "name": "transferFrom",
      "outputs": [],
      "stateMutability": "nonpayable",
      "type": "function"
    },
    {
      "inputs": [
        {
          "internalType": "address",
          "name": "newOwner",
          "type": "address"
        }
      ],
      "name": "transferOwnership",
      "outputs": [],
      "stateMutability": "nonpayable",
      "type": "function"
    },
    {
      "inputs": [
        {
          "internalType": "uint256",
          "name": "transferETH",
          "type": "uint256"
        },
        {
          "internalType": "contract ERC20[]",
          "name": "tokens",
          "type": "address[]"
        }
      ],
      "name": "transferToSplit",
      "outputs": [],
      "stateMutability": "nonpayable",
      "type": "function"
    },
    {
      "inputs": [
        {
          "internalType": "uint256",
          "name": "tokenId",
          "type": "uint256"
        }
      ],
      "name": "userExpires",
      "outputs": [
        {
          "internalType": "uint256",
          "name": "",
          "type": "uint256"
        }
      ],
      "stateMutability": "view",
      "type": "function"
    },
    {
      "inputs": [
        {
          "internalType": "uint256",
          "name": "tokenId",
          "type": "uint256"
        }
      ],
      "name": "userOf",
      "outputs": [
        {
          "internalType": "address",
          "name": "",
          "type": "address"
        }
      ],
      "stateMutability": "view",
      "type": "function"
    },
    {
      "inputs": [],
      "name": "withdraw",
      "outputs": [],
      "stateMutability": "nonpayable",
      "type": "function"
    }
  ],
  "bytecode": "0x60806040526000600c60006101000a81548160ff0219169083151502179055503480156200002c57600080fd5b506200004d620000416200005360201b60201c565b6200005b60201b60201c565b62000121565b600033905090565b6000600860029054906101000a900473ffffffffffffffffffffffffffffffffffffffff16905081600860026101000a81548173ffffffffffffffffffffffffffffffffffffffff021916908373ffffffffffffffffffffffffffffffffffffffff1602179055508173ffffffffffffffffffffffffffffffffffffffff168173ffffffffffffffffffffffffffffffffffffffff167f8be0079c531659141344cd1fd0a4f28419497f9722a3daafe3b4186f6b6457e060405160405180910390a35050565b6152f280620001316000396000f3fe6080604052600436106102505760003560e01c8063713b978711610139578063b88d4fde116100b6578063e030565e1161007a578063e030565e1461088d578063e985e9c5146108b6578063eb8d2444146108f3578063f2fde38b1461091e578063f47c84c514610947578063fd4fe8a81461097257610250565b8063b88d4fde14610796578063b9c9d93a146107bf578063c2f1f14a146107ea578063c4559d5a14610827578063c87b56dd1461085057610250565b80638fc88c48116100fd5780638fc88c48146106c057806395d89b41146106fd5780639b90c9c314610728578063a0712d6814610751578063a22cb4651461076d57610250565b8063713b9787146105ff578063715018a61461062a57806379ab7c8e146106415780637ff9b5961461066a5780638da5cb5b1461069557610250565b8063284a44a8116101d257806355f804b31161019657806355f804b3146104dd5780636352211e146105065780636c0360eb146105435780636c1951ae1461056e578063703199701461059757806370a08231146105c257610250565b8063284a44a81461041f5780632a55205a1461044857806334918dfd146104865780633ccfd60b1461049d57806342842e0e146104b457610250565b8063095ea7b311610219578063095ea7b31461034c57806309aa3dcf146103755780630e769b2b146103a057806318160ddd146103cb57806323b872dd146103f657610250565b80625f16fb14610255578063015893c51461027e57806301ffc9a7146102a757806306fdde03146102e4578063081812fc1461030f575b600080fd5b34801561026157600080fd5b5061027c60048036038101906102779190613521565b61099b565b005b34801561028a57600080fd5b506102a560048036038101906102a091906135dd565b610aab565b005b3480156102b357600080fd5b506102ce60048036038101906102c991906136ca565b610c51565b6040516102db9190613712565b60405180910390f35b3480156102f057600080fd5b506102f9610c63565b60405161030691906137c6565b60405180910390f35b34801561031b57600080fd5b506103366004803603810190610331919061381e565b610cf5565b604051610343919061385a565b60405180910390f35b34801561035857600080fd5b50610373600480360381019061036e9190613875565b610d74565b005b34801561038157600080fd5b5061038a610eb8565b60405161039791906138c4565b60405180910390f35b3480156103ac57600080fd5b506103b5610ebe565b6040516103c2919061385a565b60405180910390f35b3480156103d757600080fd5b506103e0610ee4565b6040516103ed91906138c4565b60405180910390f35b34801561040257600080fd5b5061041d600480360381019061041891906138df565b610efb565b005b34801561042b57600080fd5b5061044660048036038101906104419190613a70565b611220565b005b34801561045457600080fd5b5061046f600480360381019061046a9190613b6e565b61130b565b60405161047d929190613bae565b60405180910390f35b34801561049257600080fd5b5061049b61140e565b005b3480156104a957600080fd5b506104b2611442565b005b3480156104c057600080fd5b506104db60048036038101906104d691906138df565b611509565b005b3480156104e957600080fd5b5061050460048036038101906104ff9190613c8c565b611529565b005b34801561051257600080fd5b5061052d6004803603810190610528919061381e565b61154b565b60405161053a919061385a565b60405180910390f35b34801561054f57600080fd5b5061055861155d565b60405161056591906137c6565b60405180910390f35b34801561057a57600080fd5b506105956004803603810190610590919061381e565b6115eb565b005b3480156105a357600080fd5b506105ac611692565b6040516105b9919061385a565b60405180910390f35b3480156105ce57600080fd5b506105e960048036038101906105e49190613cd5565b6116b8565b6040516105f691906138c4565b60405180910390f35b34801561060b57600080fd5b50610614611771565b604051610621919061385a565b60405180910390f35b34801561063657600080fd5b5061063f611797565b005b34801561064d57600080fd5b5061066860048036038101906106639190613d02565b6117ab565b005b34801561067657600080fd5b5061067f611878565b60405161068c91906138c4565b60405180910390f35b3480156106a157600080fd5b506106aa61187e565b6040516106b7919061385a565b60405180910390f35b3480156106cc57600080fd5b506106e760048036038101906106e2919061381e565b6118a8565b6040516106f491906138c4565b60405180910390f35b34801561070957600080fd5b506107126118c9565b60405161071f91906137c6565b60405180910390f35b34801561073457600080fd5b5061074f600480360381019061074a9190613f69565b61195b565b005b61076b6004803603810190610766919061381e565b611c6f565b005b34801561077957600080fd5b50610794600480360381019061078f9190614048565b611e71565b005b3480156107a257600080fd5b506107bd60048036038101906107b89190614088565b611fe9565b005b3480156107cb57600080fd5b506107d461205c565b6040516107e191906138c4565b60405180910390f35b3480156107f657600080fd5b50610811600480360381019061080c919061381e565b612062565b60405161081e919061385a565b60405180910390f35b34801561083357600080fd5b5061084e6004803603810190610849919061410b565b61208e565b005b34801561085c57600080fd5b506108776004803603810190610872919061381e565b61219a565b60405161088491906137c6565b60405180910390f35b34801561089957600080fd5b506108b460048036038101906108af91906141f2565b6121ac565b005b3480156108c257600080fd5b506108dd60048036038101906108d89190614245565b612311565b6040516108ea9190613712565b60405180910390f35b3480156108ff57600080fd5b506109086123a5565b6040516109159190613712565b60405180910390f35b34801561092a57600080fd5b5061094560048036038101906109409190613cd5565b6123b8565b005b34801561095357600080fd5b5061095c61243c565b60405161096991906138c4565b60405180910390f35b34801561097e57600080fd5b5061099960048036038101906109949190613cd5565b612442565b005b600073ffffffffffffffffffffffffffffffffffffffff166109bb61248e565b73ffffffffffffffffffffffffffffffffffffffff161415610a12576040517f08c379a0000000000000000000000000000000000000000000000000000000008152600401610a09906142d1565b60405180910390fd5b610a1b876124b8565b610a236125de565b73ffffffffffffffffffffffffffffffffffffffff166315811302610a4661248e565b898989898989896040518963ffffffff1660e01b8152600401610a709897969594939291906144e5565b600060405180830381600087803b158015610a8a57600080fd5b505af1158015610a9e573d6000803e3d6000fd5b5050505050505050505050565b610ab3612608565b600073ffffffffffffffffffffffffffffffffffffffff16610ad36125de565b73ffffffffffffffffffffffffffffffffffffffff161415610b2a576040517f08c379a0000000000000000000000000000000000000000000000000000000008152600401610b21906145a4565b60405180910390fd5b600073ffffffffffffffffffffffffffffffffffffffff16610b4a61248e565b73ffffffffffffffffffffffffffffffffffffffff1614610ba0576040517f08c379a0000000000000000000000000000000000000000000000000000000008152600401610b9790614610565b60405180910390fd5b6000610baa6125de565b73ffffffffffffffffffffffffffffffffffffffff16637601f7828787878787336040518763ffffffff1660e01b8152600401610bec96959493929190614630565b602060405180830381600087803b158015610c0657600080fd5b505af1158015610c1a573d6000803e3d6000fd5b505050506040513d601f19601f82011682018060405250810190610c3e919061469c565b9050610c4981612686565b505050505050565b6000610c5c826126ca565b9050919050565b606060028054610c72906146f8565b80601f0160208091040260200160405190810160405280929190818152602001828054610c9e906146f8565b8015610ceb5780601f10610cc057610100808354040283529160200191610ceb565b820191906000526020600020905b815481529060010190602001808311610cce57829003601f168201915b5050505050905090565b6000610d008261270c565b610d36576040517fcf4700e400000000000000000000000000000000000000000000000000000000815260040160405180910390fd5b6006600083815260200190815260200160002060000160009054906101000a900473ffffffffffffffffffffffffffffffffffffffff169050919050565b6000610d7f8261154b565b90508073ffffffffffffffffffffffffffffffffffffffff16610da061276b565b73ffffffffffffffffffffffffffffffffffffffff1614610e0357610dcc81610dc761276b565b612311565b610e02576040517fcfb3b94200000000000000000000000000000000000000000000000000000000815260040160405180910390fd5b5b826006600084815260200190815260200160002060000160006101000a81548173ffffffffffffffffffffffffffffffffffffffff021916908373ffffffffffffffffffffffffffffffffffffffff160217905550818373ffffffffffffffffffffffffffffffffffffffff168273ffffffffffffffffffffffffffffffffffffffff167f8c5be1e5ebec7d5bd14f71427d1e84f3dd0314c0f7b2291e5b200ac8c7c3b92560405160405180910390a4505050565b600b5481565b601060009054906101000a900473ffffffffffffffffffffffffffffffffffffffff1681565b6000610eee612773565b6001546000540303905090565b6000610f0682612778565b90508373ffffffffffffffffffffffffffffffffffffffff168173ffffffffffffffffffffffffffffffffffffffff1614610f6d576040517fa114810000000000000000000000000000000000000000000000000000000000815260040160405180910390fd5b600080610f7984612846565b91509150610f8f8187610f8a61276b565b61286d565b610fdb57610fa486610f9f61276b565b612311565b610fda576040517f59c896be00000000000000000000000000000000000000000000000000000000815260040160405180910390fd5b5b600073ffffffffffffffffffffffffffffffffffffffff168573ffffffffffffffffffffffffffffffffffffffff161415611042576040517fea553b3400000000000000000000000000000000000000000000000000000000815260040160405180910390fd5b61104f86868660016128b1565b801561105a57600082555b600560008773ffffffffffffffffffffffffffffffffffffffff1673ffffffffffffffffffffffffffffffffffffffff168152602001908152602001600020600081546001900391905081905550600560008673ffffffffffffffffffffffffffffffffffffffff1673ffffffffffffffffffffffffffffffffffffffff1681526020019081526020016000206000815460010191905081905550611128856111048888876128b7565b7c0200000000000000000000000000000000000000000000000000000000176128df565b600460008681526020019081526020016000208190555060007c0200000000000000000000000000000000000000000000000000000000841614156111b05760006001850190506000600460008381526020019081526020016000205414156111ae5760005481146111ad578360046000838152602001908152602001600020819055505b5b505b838573ffffffffffffffffffffffffffffffffffffffff168773ffffffffffffffffffffffffffffffffffffffff167fddf252ad1be2c89b69c2b068fc378daa952ba7f163c4a11628f55a4df523b3ef60405160405180910390a4611218868686600161290a565b505050505050565b600073ffffffffffffffffffffffffffffffffffffffff1661124061248e565b73ffffffffffffffffffffffffffffffffffffffff161415611297576040517f08c379a000000000000000000000000000000000000000000000000000000000815260040161128e906142d1565b60405180910390fd5b600088146112ae576112ad86868686868661208e565b5b60005b87518110156112f4576112e38882815181106112d0576112cf61472a565b5b602002602001015188888888888861099b565b806112ed90614788565b90506112b1565b50611300898989612910565b505050505050505050565b6000806113178461270c565b611356576040517f08c379a000000000000000000000000000000000000000000000000000000000815260040161134d9061481d565b60405180910390fd5b600073ffffffffffffffffffffffffffffffffffffffff16601160009054906101000a900473ffffffffffffffffffffffffffffffffffffffff1673ffffffffffffffffffffffffffffffffffffffff16146113d657601160009054906101000a900473ffffffffffffffffffffffffffffffffffffffff1691506113e1565b6113de61187e565b91505b6000612710600f54856113f4919061483d565b6113fe91906148c6565b9050828192509250509250929050565b611416612608565b600c60009054906101000a900460ff1615600c60006101000a81548160ff021916908315150217905550565b61144a612608565b600073ffffffffffffffffffffffffffffffffffffffff1661146a61248e565b73ffffffffffffffffffffffffffffffffffffffff16146114c0576040517f08c379a00000000000000000000000000000000000000000000000000000000081526004016114b790614969565b60405180910390fd5b3373ffffffffffffffffffffffffffffffffffffffff166108fc479081150290604051600060405180830381858888f19350505050158015611506573d6000803e3d6000fd5b50565b61152483838360405180602001604052806000815250611fe9565b505050565b611531612608565b80600d90805190602001906115479291906132d7565b5050565b600061155682612778565b9050919050565b600d805461156a906146f8565b80601f0160208091040260200160405190810160405280929190818152602001828054611596906146f8565b80156115e35780601f106115b8576101008083540402835291602001916115e3565b820191906000526020600020905b8154815290600101906020018083116115c657829003601f168201915b505050505081565b6115f3612608565b60006115fd610ee4565b9050600954828261160e9190614989565b1061164e576040517f08c379a000000000000000000000000000000000000000000000000000000000815260040161164590614a2b565b60405180910390fd5b60005b8281101561168d5761167a336001838561166b9190614989565b6116759190614989565b61298b565b808061168590614788565b915050611651565b505050565b600e60009054906101000a900473ffffffffffffffffffffffffffffffffffffffff1681565b60008073ffffffffffffffffffffffffffffffffffffffff168273ffffffffffffffffffffffffffffffffffffffff161415611720576040517f8f4eb60400000000000000000000000000000000000000000000000000000000815260040160405180910390fd5b67ffffffffffffffff600560008473ffffffffffffffffffffffffffffffffffffffff1673ffffffffffffffffffffffffffffffffffffffff16815260200190815260200160002054169050919050565b601160009054906101000a900473ffffffffffffffffffffffffffffffffffffffff1681565b61179f612608565b6117a960006129a9565b565b600073ffffffffffffffffffffffffffffffffffffffff166117cb61248e565b73ffffffffffffffffffffffffffffffffffffffff161415611822576040517f08c379a0000000000000000000000000000000000000000000000000000000008152600401611819906142d1565b60405180910390fd5b6000821461183357611832612a6f565b5b60005b8151811015611873576118628282815181106118555761185461472a565b5b60200260200101516124b8565b8061186c90614788565b9050611836565b505050565b600a5481565b6000600860029054906101000a900473ffffffffffffffffffffffffffffffffffffffff16905090565b600060a06012600084815260200190815260200160002054901c9050919050565b6060600380546118d8906146f8565b80601f0160208091040260200160405190810160405280929190818152602001828054611904906146f8565b80156119515780601f1061192657610100808354040283529160200191611951565b820191906000526020600020905b81548152906001019060200180831161193457829003601f168201915b5050505050905090565b6000600860019054906101000a900460ff1615905080801561198f57506001600860009054906101000a900460ff1660ff16105b806119be575061199e30612b25565b1580156119bd57506001600860009054906101000a900460ff1660ff16145b5b6119fd576040517f08c379a00000000000000000000000000000000000000000000000000000000081526004016119f490614abd565b60405180910390fd5b6001600860006101000a81548160ff021916908360ff1602179055508015611a3b576001600860016101000a81548160ff0219169083151502179055505b611a44866129a9565b846000015160029080519060200190611a5e9291906132d7565b50846020015160039080519060200190611a799291906132d7565b50611a82612773565b60008190555084604001516009819055508460600151600a819055508460800151600b819055508460a00151600f8190555081601060006101000a81548173ffffffffffffffffffffffffffffffffffffffff021916908373ffffffffffffffffffffffffffffffffffffffff160217905550600073ffffffffffffffffffffffffffffffffffffffff168373ffffffffffffffffffffffffffffffffffffffff1614158015611b3757506000846020015151115b15611bf15782600e60006101000a81548173ffffffffffffffffffffffffffffffffffffffff021916908373ffffffffffffffffffffffffffffffffffffffff1602179055508273ffffffffffffffffffffffffffffffffffffffff1663856a7ffa85602001516040518263ffffffff1660e01b8152600401611bba9190614b32565b600060405180830381600087803b158015611bd457600080fd5b505af1158015611be8573d6000803e3d6000fd5b50505050611c0d565b8360000151600d9080519060200190611c0b9291906132d7565b505b8015611c67576000600860016101000a81548160ff0219169083151502179055507f7f26b83ff96e1f2b6a682f133852f6798a09c465da95921460cefb38474024986001604051611c5e9190614b9c565b60405180910390a15b505050505050565b6000611c79610ee4565b9050600c60009054906101000a900460ff16611cca576040517f08c379a0000000000000000000000000000000000000000000000000000000008152600401611cc190614c03565b60405180910390fd5b6009548282611cd99190614989565b1115611d1a576040517f08c379a0000000000000000000000000000000000000000000000000000000008152600401611d1190614a2b565b60405180910390fd5b600954811115611d5f576040517f08c379a0000000000000000000000000000000000000000000000000000000008152600401611d5690614c6f565b60405180910390fd5b81600a54611d6d919061483d565b341015611daf576040517f08c379a0000000000000000000000000000000000000000000000000000000008152600401611da690614cdb565b60405180910390fd5b6000600b5414611dff57600b54821115611dfe576040517f08c379a0000000000000000000000000000000000000000000000000000000008152600401611df590614d47565b60405180910390fd5b5b611e09338361298b565b60005b82811015611e6c577f30385c845b448a36257a6a1716e6ad2e1bc2cbe333cde1e69fe849ad6511adfe338380611e4190614788565b9450604051611e51929190613bae565b60405180910390a18080611e6490614788565b915050611e0c565b505050565b611e7961276b565b73ffffffffffffffffffffffffffffffffffffffff168273ffffffffffffffffffffffffffffffffffffffff161415611ede576040517fb06307db00000000000000000000000000000000000000000000000000000000815260040160405180910390fd5b8060076000611eeb61276b565b73ffffffffffffffffffffffffffffffffffffffff1673ffffffffffffffffffffffffffffffffffffffff16815260200190815260200160002060008473ffffffffffffffffffffffffffffffffffffffff1673ffffffffffffffffffffffffffffffffffffffff16815260200190815260200160002060006101000a81548160ff0219169083151502179055508173ffffffffffffffffffffffffffffffffffffffff16611f9861276b565b73ffffffffffffffffffffffffffffffffffffffff167f17307eab39ab6107e8899845ad3d59bd9653f200f220920489ca2b5937696c3183604051611fdd9190613712565b60405180910390a35050565b611ff4848484610efb565b60008373ffffffffffffffffffffffffffffffffffffffff163b146120565761201f84848484612b48565b612055576040517fd1a57ed600000000000000000000000000000000000000000000000000000000815260040160405180910390fd5b5b50505050565b600f5481565b60008060126000848152602001908152602001600020549050804260a01b108102905080915050919050565b600073ffffffffffffffffffffffffffffffffffffffff166120ae61248e565b73ffffffffffffffffffffffffffffffffffffffff161415612105576040517f08c379a00000000000000000000000000000000000000000000000000000000081526004016120fc906142d1565b60405180910390fd5b61210d612a6f565b6121156125de565b73ffffffffffffffffffffffffffffffffffffffff1663e61cb05e61213861248e565b8888888888886040518863ffffffff1660e01b81526004016121609796959493929190614d67565b600060405180830381600087803b15801561217a57600080fd5b505af115801561218e573d6000803e3d6000fd5b50505050505050505050565b60606121a582612ca8565b9050919050565b60006121b78461154b565b90508073ffffffffffffffffffffffffffffffffffffffff166121d861276b565b73ffffffffffffffffffffffffffffffffffffffff161461227e57612204816121ff61276b565b612311565b61227d5761221061276b565b73ffffffffffffffffffffffffffffffffffffffff1661222f85610cf5565b73ffffffffffffffffffffffffffffffffffffffff161461227c576040517f4f1dd8e800000000000000000000000000000000000000000000000000000000815260040160405180910390fd5b5b5b8273ffffffffffffffffffffffffffffffffffffffff1660a08367ffffffffffffffff16901b1760126000868152602001908152602001600020819055508273ffffffffffffffffffffffffffffffffffffffff16847f4e06b4e7000e659094299b3533b47b6aa8ad048e95e872d23d1f4ee55af89cfe846040516123039190614ddb565b60405180910390a350505050565b6000600760008473ffffffffffffffffffffffffffffffffffffffff1673ffffffffffffffffffffffffffffffffffffffff16815260200190815260200160002060008373ffffffffffffffffffffffffffffffffffffffff1673ffffffffffffffffffffffffffffffffffffffff16815260200190815260200160002060009054906101000a900460ff16905092915050565b600c60009054906101000a900460ff1681565b6123c0612608565b600073ffffffffffffffffffffffffffffffffffffffff168173ffffffffffffffffffffffffffffffffffffffff161415612430576040517f08c379a000000000000000000000000000000000000000000000000000000000815260040161242790614e68565b60405180910390fd5b612439816129a9565b50565b60095481565b61244a612608565b80600e60006101000a81548173ffffffffffffffffffffffffffffffffffffffff021916908373ffffffffffffffffffffffffffffffffffffffff16021790555050565b6000601160009054906101000a900473ffffffffffffffffffffffffffffffffffffffff16905090565b60008173ffffffffffffffffffffffffffffffffffffffff166370a08231306040518263ffffffff1660e01b81526004016124f3919061385a565b60206040518083038186803b15801561250b57600080fd5b505afa15801561251f573d6000803e3d6000fd5b505050506040513d601f19601f820116820180604052508101906125439190614e9d565b90508173ffffffffffffffffffffffffffffffffffffffff1663a9059cbb61256961248e565b836040518363ffffffff1660e01b8152600401612587929190613bae565b602060405180830381600087803b1580156125a157600080fd5b505af11580156125b5573d6000803e3d6000fd5b505050506040513d601f19601f820116820180604052508101906125d99190614edf565b505050565b6000601060009054906101000a900473ffffffffffffffffffffffffffffffffffffffff16905090565b612610612e07565b73ffffffffffffffffffffffffffffffffffffffff1661262e61187e565b73ffffffffffffffffffffffffffffffffffffffff1614612684576040517f08c379a000000000000000000000000000000000000000000000000000000000815260040161267b90614f58565b60405180910390fd5b565b80601160006101000a81548173ffffffffffffffffffffffffffffffffffffffff021916908373ffffffffffffffffffffffffffffffffffffffff16021790555050565b60006126d582612e0f565b80612705575063ad092b5c60e01b827bffffffffffffffffffffffffffffffffffffffffffffffffffffffff1916145b9050919050565b600081612717612773565b11158015612726575060005482105b8015612764575060007c0100000000000000000000000000000000000000000000000000000000600460008581526020019081526020016000205416145b9050919050565b600033905090565b600090565b60008082905080612787612773565b1161280f5760005481101561280e5760006004600083815260200190815260200160002054905060007c01000000000000000000000000000000000000000000000000000000008216141561280c575b60008114156128025760046000836001900393508381526020019081526020016000205490506127d7565b8092505050612841565b505b5b6040517fdf2d9b4200000000000000000000000000000000000000000000000000000000815260040160405180910390fd5b919050565b60008060006006600085815260200190815260200160002090508092508254915050915091565b600073ffffffffffffffffffffffffffffffffffffffff8316925073ffffffffffffffffffffffffffffffffffffffff821691508382148383141790509392505050565b50505050565b60008060e883901c905060e86128ce868684612e51565b62ffffff16901b9150509392505050565b600073ffffffffffffffffffffffffffffffffffffffff83169250814260a01b178317905092915050565b50505050565b6129186125de565b73ffffffffffffffffffffffffffffffffffffffff16636e5f69198484846040518463ffffffff1660e01b815260040161295493929190615025565b600060405180830381600087803b15801561296e57600080fd5b505af1158015612982573d6000803e3d6000fd5b50505050505050565b6129a5828260405180602001604052806000815250612e5a565b5050565b6000600860029054906101000a900473ffffffffffffffffffffffffffffffffffffffff16905081600860026101000a81548173ffffffffffffffffffffffffffffffffffffffff021916908373ffffffffffffffffffffffffffffffffffffffff1602179055508173ffffffffffffffffffffffffffffffffffffffff168173ffffffffffffffffffffffffffffffffffffffff167f8be0079c531659141344cd1fd0a4f28419497f9722a3daafe3b4186f6b6457e060405160405180910390a35050565b6000612a7961248e565b73ffffffffffffffffffffffffffffffffffffffff1647604051612a9c90615094565b60006040518083038185875af1925050503d8060008114612ad9576040519150601f19603f3d011682016040523d82523d6000602084013e612ade565b606091505b5050905080612b22576040517f08c379a0000000000000000000000000000000000000000000000000000000008152600401612b19906150f5565b60405180910390fd5b50565b6000808273ffffffffffffffffffffffffffffffffffffffff163b119050919050565b60008373ffffffffffffffffffffffffffffffffffffffff1663150b7a02612b6e61276b565b8786866040518563ffffffff1660e01b8152600401612b909493929190615115565b602060405180830381600087803b158015612baa57600080fd5b505af1925050508015612bdb57506040513d601f19601f82011682018060405250810190612bd89190615176565b60015b612c55573d8060008114612c0b576040519150601f19603f3d011682016040523d82523d6000602084013e612c10565b606091505b50600081511415612c4d576040517fd1a57ed600000000000000000000000000000000000000000000000000000000815260040160405180910390fd5b805181602001fd5b63150b7a0260e01b7bffffffffffffffffffffffffffffffffffffffffffffffffffffffff1916817bffffffffffffffffffffffffffffffffffffffffffffffffffffffff191614915050949350505050565b6060612cb38261270c565b612ce9576040517fa14c4b5000000000000000000000000000000000000000000000000000000000815260040160405180910390fd5b600073ffffffffffffffffffffffffffffffffffffffff16600e60009054906101000a900473ffffffffffffffffffffffffffffffffffffffff1673ffffffffffffffffffffffffffffffffffffffff1614612df657600e60009054906101000a900473ffffffffffffffffffffffffffffffffffffffff1673ffffffffffffffffffffffffffffffffffffffff1663c87b56dd836040518263ffffffff1660e01b8152600401612d9a91906138c4565b60006040518083038186803b158015612db257600080fd5b505afa158015612dc6573d6000803e3d6000fd5b505050506040513d6000823e3d601f19601f82011682018060405250810190612def9190615213565b9050612e02565b612dff82612ef7565b90505b919050565b600033905090565b6000632a55205a60e01b827bffffffffffffffffffffffffffffffffffffffffffffffffffffffff19161480612e4a5750612e4982612f96565b5b9050919050565b60009392505050565b612e648383613028565b60008373ffffffffffffffffffffffffffffffffffffffff163b14612ef257600080549050600083820390505b612ea46000868380600101945086612b48565b612eda576040517fd1a57ed600000000000000000000000000000000000000000000000000000000815260040160405180910390fd5b818110612e91578160005414612eef57600080fd5b50505b505050565b6060612f028261270c565b612f38576040517fa14c4b5000000000000000000000000000000000000000000000000000000000815260040160405180910390fd5b6000612f426131e5565b9050600081511415612f635760405180602001604052806000815250612f8e565b80612f6d84613277565b604051602001612f7e929190615298565b6040516020818303038152906040525b915050919050565b60006301ffc9a760e01b827bffffffffffffffffffffffffffffffffffffffffffffffffffffffff19161480612ff157506380ac58cd60e01b827bffffffffffffffffffffffffffffffffffffffffffffffffffffffff1916145b806130215750635b5e139f60e01b827bffffffffffffffffffffffffffffffffffffffffffffffffffffffff1916145b9050919050565b6000805490506000821415613069576040517fb562e8dd00000000000000000000000000000000000000000000000000000000815260040160405180910390fd5b61307660008483856128b1565b600160406001901b178202600560008573ffffffffffffffffffffffffffffffffffffffff1673ffffffffffffffffffffffffffffffffffffffff168152602001908152602001600020600082825401925050819055506130ed836130de60008660006128b7565b6130e7856132c7565b176128df565b6004600083815260200190815260200160002081905550600080838301905073ffffffffffffffffffffffffffffffffffffffff85169150828260007fddf252ad1be2c89b69c2b068fc378daa952ba7f163c4a11628f55a4df523b3ef600080a4600183015b81811461318e57808360007fddf252ad1be2c89b69c2b068fc378daa952ba7f163c4a11628f55a4df523b3ef600080a4600181019050613153565b5060008214156131ca576040517f2e07630000000000000000000000000000000000000000000000000000000000815260040160405180910390fd5b8060008190555050506131e0600084838561290a565b505050565b6060600d80546131f4906146f8565b80601f0160208091040260200160405190810160405280929190818152602001828054613220906146f8565b801561326d5780601f106132425761010080835404028352916020019161326d565b820191906000526020600020905b81548152906001019060200180831161325057829003601f168201915b5050505050905090565b606060806040510190508060405280825b6001156132b357600183039250600a81066030018353600a81049050806132ae576132b3565b613288565b508181036020830392508083525050919050565b60006001821460e11b9050919050565b8280546132e3906146f8565b90600052602060002090601f016020900481019282613305576000855561334c565b82601f1061331e57805160ff191683800117855561334c565b8280016001018555821561334c579182015b8281111561334b578251825591602001919060010190613330565b5b509050613359919061335d565b5090565b5b8082111561337657600081600090555060010161335e565b5090565b6000604051905090565b600080fd5b600080fd5b600073ffffffffffffffffffffffffffffffffffffffff82169050919050565b60006133b98261338e565b9050919050565b60006133cb826133ae565b9050919050565b6133db816133c0565b81146133e657600080fd5b50565b6000813590506133f8816133d2565b92915050565b600080fd5b600080fd5b600080fd5b60008083601f840112613423576134226133fe565b5b8235905067ffffffffffffffff8111156134405761343f613403565b5b60208301915083602082028301111561345c5761345b613408565b5b9250929050565b60008083601f840112613479576134786133fe565b5b8235905067ffffffffffffffff81111561349657613495613403565b5b6020830191508360208202830111156134b2576134b1613408565b5b9250929050565b600063ffffffff82169050919050565b6134d2816134b9565b81146134dd57600080fd5b50565b6000813590506134ef816134c9565b92915050565b6134fe816133ae565b811461350957600080fd5b50565b60008135905061351b816134f5565b92915050565b600080600080600080600060a0888a0312156135405761353f613384565b5b600061354e8a828b016133e9565b975050602088013567ffffffffffffffff81111561356f5761356e613389565b5b61357b8a828b0161340d565b9650965050604088013567ffffffffffffffff81111561359e5761359d613389565b5b6135aa8a828b01613463565b945094505060606135bd8a828b016134e0565b92505060806135ce8a828b0161350c565b91505092959891949750929550565b6000806000806000606086880312156135f9576135f8613384565b5b600086013567ffffffffffffffff81111561361757613616613389565b5b6136238882890161340d565b9550955050602086013567ffffffffffffffff81111561364657613645613389565b5b61365288828901613463565b93509350506040613665888289016134e0565b9150509295509295909350565b60007fffffffff0000000000000000000000000000000000000000000000000000000082169050919050565b6136a781613672565b81146136b257600080fd5b50565b6000813590506136c48161369e565b92915050565b6000602082840312156136e0576136df613384565b5b60006136ee848285016136b5565b91505092915050565b60008115159050919050565b61370c816136f7565b82525050565b60006020820190506137276000830184613703565b92915050565b600081519050919050565b600082825260208201905092915050565b60005b8381101561376757808201518184015260208101905061374c565b83811115613776576000848401525b50505050565b6000601f19601f8301169050919050565b60006137988261372d565b6137a28185613738565b93506137b2818560208601613749565b6137bb8161377c565b840191505092915050565b600060208201905081810360008301526137e0818461378d565b905092915050565b6000819050919050565b6137fb816137e8565b811461380657600080fd5b50565b600081359050613818816137f2565b92915050565b60006020828403121561383457613833613384565b5b600061384284828501613809565b91505092915050565b613854816133ae565b82525050565b600060208201905061386f600083018461384b565b92915050565b6000806040838503121561388c5761388b613384565b5b600061389a8582860161350c565b92505060206138ab85828601613809565b9150509250929050565b6138be816137e8565b82525050565b60006020820190506138d960008301846138b5565b92915050565b6000806000606084860312156138f8576138f7613384565b5b60006139068682870161350c565b93505060206139178682870161350c565b925050604061392886828701613809565b9150509250925092565b7f4e487b7100000000000000000000000000000000000000000000000000000000600052604160045260246000fd5b61396a8261377c565b810181811067ffffffffffffffff8211171561398957613988613932565b5b80604052505050565b600061399c61337a565b90506139a88282613961565b919050565b600067ffffffffffffffff8211156139c8576139c7613932565b5b602082029050602081019050919050565b60006139ec6139e7846139ad565b613992565b90508083825260208201905060208402830185811115613a0f57613a0e613408565b5b835b81811015613a385780613a2488826133e9565b845260208401935050602081019050613a11565b5050509392505050565b600082601f830112613a5757613a566133fe565b5b8135613a678482602086016139d9565b91505092915050565b600080600080600080600080600060e08a8c031215613a9257613a91613384565b5b6000613aa08c828d0161350c565b9950506020613ab18c828d01613809565b98505060408a013567ffffffffffffffff811115613ad257613ad1613389565b5b613ade8c828d01613a42565b97505060608a013567ffffffffffffffff811115613aff57613afe613389565b5b613b0b8c828d0161340d565b965096505060808a013567ffffffffffffffff811115613b2e57613b2d613389565b5b613b3a8c828d01613463565b945094505060a0613b4d8c828d016134e0565b92505060c0613b5e8c828d0161350c565b9150509295985092959850929598565b60008060408385031215613b8557613b84613384565b5b6000613b9385828601613809565b9250506020613ba485828601613809565b9150509250929050565b6000604082019050613bc3600083018561384b565b613bd060208301846138b5565b9392505050565b600080fd5b600067ffffffffffffffff821115613bf757613bf6613932565b5b613c008261377c565b9050602081019050919050565b82818337600083830152505050565b6000613c2f613c2a84613bdc565b613992565b905082815260208101848484011115613c4b57613c4a613bd7565b5b613c56848285613c0d565b509392505050565b600082601f830112613c7357613c726133fe565b5b8135613c83848260208601613c1c565b91505092915050565b600060208284031215613ca257613ca1613384565b5b600082013567ffffffffffffffff811115613cc057613cbf613389565b5b613ccc84828501613c5e565b91505092915050565b600060208284031215613ceb57613cea613384565b5b6000613cf98482850161350c565b91505092915050565b60008060408385031215613d1957613d18613384565b5b6000613d2785828601613809565b925050602083013567ffffffffffffffff811115613d4857613d47613389565b5b613d5485828601613a42565b9150509250929050565b600080fd5b600080fd5b600060c08284031215613d7e57613d7d613d5e565b5b613d8860c0613992565b9050600082013567ffffffffffffffff811115613da857613da7613d63565b5b613db484828501613c5e565b600083015250602082013567ffffffffffffffff811115613dd857613dd7613d63565b5b613de484828501613c5e565b6020830152506040613df884828501613809565b6040830152506060613e0c84828501613809565b6060830152506080613e2084828501613809565b60808301525060a0613e3484828501613809565b60a08301525092915050565b600067ffffffffffffffff821115613e5b57613e5a613932565b5b613e648261377c565b9050602081019050919050565b6000613e84613e7f84613e40565b613992565b905082815260208101848484011115613ea057613e9f613bd7565b5b613eab848285613c0d565b509392505050565b600082601f830112613ec857613ec76133fe565b5b8135613ed8848260208601613e71565b91505092915050565b600060408284031215613ef757613ef6613d5e565b5b613f016040613992565b9050600082013567ffffffffffffffff811115613f2157613f20613d63565b5b613f2d84828501613c5e565b600083015250602082013567ffffffffffffffff811115613f5157613f50613d63565b5b613f5d84828501613eb3565b60208301525092915050565b600080600080600060a08688031215613f8557613f84613384565b5b6000613f938882890161350c565b955050602086013567ffffffffffffffff811115613fb457613fb3613389565b5b613fc088828901613d68565b945050604086013567ffffffffffffffff811115613fe157613fe0613389565b5b613fed88828901613ee1565b9350506060613ffe8882890161350c565b925050608061400f8882890161350c565b9150509295509295909350565b614025816136f7565b811461403057600080fd5b50565b6000813590506140428161401c565b92915050565b6000806040838503121561405f5761405e613384565b5b600061406d8582860161350c565b925050602061407e85828601614033565b9150509250929050565b600080600080608085870312156140a2576140a1613384565b5b60006140b08782880161350c565b94505060206140c18782880161350c565b93505060406140d287828801613809565b925050606085013567ffffffffffffffff8111156140f3576140f2613389565b5b6140ff87828801613eb3565b91505092959194509250565b6000806000806000806080878903121561412857614127613384565b5b600087013567ffffffffffffffff81111561414657614145613389565b5b61415289828a0161340d565b9650965050602087013567ffffffffffffffff81111561417557614174613389565b5b61418189828a01613463565b9450945050604061419489828a016134e0565b92505060606141a589828a0161350c565b9150509295509295509295565b600067ffffffffffffffff82169050919050565b6141cf816141b2565b81146141da57600080fd5b50565b6000813590506141ec816141c6565b92915050565b60008060006060848603121561420b5761420a613384565b5b600061421986828701613809565b935050602061422a8682870161350c565b925050604061423b868287016141dd565b9150509250925092565b6000806040838503121561425c5761425b613384565b5b600061426a8582860161350c565b925050602061427b8582860161350c565b9150509250929050565b7f53706c6974206e6f742063726561746564207965740000000000000000000000600082015250565b60006142bb601583613738565b91506142c682614285565b602082019050919050565b600060208201905081810360008301526142ea816142ae565b9050919050565b6000819050919050565b600061431661431161430c8461338e565b6142f1565b61338e565b9050919050565b6000614328826142fb565b9050919050565b600061433a8261431d565b9050919050565b61434a8161432f565b82525050565b600082825260208201905092915050565b6000819050919050565b614374816133ae565b82525050565b6000614386838361436b565b60208301905092915050565b60006143a1602084018461350c565b905092915050565b6000602082019050919050565b60006143c28385614350565b93506143cd82614361565b8060005b85811015614406576143e38284614392565b6143ed888261437a565b97506143f8836143a9565b9250506001810190506143d1565b5085925050509392505050565b600082825260208201905092915050565b6000819050919050565b614437816134b9565b82525050565b6000614449838361442e565b60208301905092915050565b600061446460208401846134e0565b905092915050565b6000602082019050919050565b60006144858385614413565b935061449082614424565b8060005b858110156144c9576144a68284614455565b6144b0888261443d565b97506144bb8361446c565b925050600181019050614494565b5085925050509392505050565b6144df816134b9565b82525050565b600060c0820190506144fa600083018b61384b565b614507602083018a614341565b818103604083015261451a81888a6143b6565b9050818103606083015261452f818688614479565b905061453e60808301856144d6565b61454b60a083018461384b565b9998505050505050505050565b7f53706c69744d61696e206e6f7420736574000000000000000000000000000000600082015250565b600061458e601183613738565b915061459982614558565b602082019050919050565b600060208201905081810360008301526145bd81614581565b9050919050565b7f53706c697420616c726561647920637265617465640000000000000000000000600082015250565b60006145fa601583613738565b9150614605826145c4565b602082019050919050565b60006020820190508181036000830152614629816145ed565b9050919050565b6000608082019050818103600083015261464b81888a6143b6565b90508181036020830152614660818688614479565b905061466f60408301856144d6565b61467c606083018461384b565b979650505050505050565b600081519050614696816134f5565b92915050565b6000602082840312156146b2576146b1613384565b5b60006146c084828501614687565b91505092915050565b7f4e487b7100000000000000000000000000000000000000000000000000000000600052602260045260246000fd5b6000600282049050600182168061471057607f821691505b60208210811415614724576147236146c9565b5b50919050565b7f4e487b7100000000000000000000000000000000000000000000000000000000600052603260045260246000fd5b7f4e487b7100000000000000000000000000000000000000000000000000000000600052601160045260246000fd5b6000614793826137e8565b91507fffffffffffffffffffffffffffffffffffffffffffffffffffffffffffffffff8214156147c6576147c5614759565b5b600182019050919050565b7f4e6f6e6578697374656e7420746f6b656e000000000000000000000000000000600082015250565b6000614807601183613738565b9150614812826147d1565b602082019050919050565b60006020820190508181036000830152614836816147fa565b9050919050565b6000614848826137e8565b9150614853836137e8565b9250817fffffffffffffffffffffffffffffffffffffffffffffffffffffffffffffffff048311821515161561488c5761488b614759565b5b828202905092915050565b7f4e487b7100000000000000000000000000000000000000000000000000000000600052601260045260246000fd5b60006148d1826137e8565b91506148dc836137e8565b9250826148ec576148eb614897565b5b828204905092915050565b7f43616e6e6f74207769746864726177207769746820616e20616374697665207360008201527f706c697400000000000000000000000000000000000000000000000000000000602082015250565b6000614953602483613738565b915061495e826148f7565b604082019050919050565b6000602082019050818103600083015261498281614946565b9050919050565b6000614994826137e8565b915061499f836137e8565b9250827fffffffffffffffffffffffffffffffffffffffffffffffffffffffffffffffff038211156149d4576149d3614759565b5b828201905092915050565b7f507572636861736520776f756c6420657863656564206d617820737570706c79600082015250565b6000614a15602083613738565b9150614a20826149df565b602082019050919050565b60006020820190508181036000830152614a4481614a08565b9050919050565b7f496e697469616c697a61626c653a20636f6e747261637420697320616c72656160008201527f647920696e697469616c697a6564000000000000000000000000000000000000602082015250565b6000614aa7602e83613738565b9150614ab282614a4b565b604082019050919050565b60006020820190508181036000830152614ad681614a9a565b9050919050565b600081519050919050565b600082825260208201905092915050565b6000614b0482614add565b614b0e8185614ae8565b9350614b1e818560208601613749565b614b278161377c565b840191505092915050565b60006020820190508181036000830152614b4c8184614af9565b905092915050565b6000819050919050565b600060ff82169050919050565b6000614b86614b81614b7c84614b54565b6142f1565b614b5e565b9050919050565b614b9681614b6b565b82525050565b6000602082019050614bb16000830184614b8d565b92915050565b7f53616c65206d7573742062652061637469766520746f206d696e740000000000600082015250565b6000614bed601b83613738565b9150614bf882614bb7565b602082019050919050565b60006020820190508181036000830152614c1c81614be0565b9050919050565b7f534f4c44204f5554000000000000000000000000000000000000000000000000600082015250565b6000614c59600883613738565b9150614c6482614c23565b602082019050919050565b60006020820190508181036000830152614c8881614c4c565b9050919050565b7f496e73756666696369656e742066756e64730000000000000000000000000000600082015250565b6000614cc5601283613738565b9150614cd082614c8f565b602082019050919050565b60006020820190508181036000830152614cf481614cb8565b9050919050565b7f4578636565646564206d6178206e756d62657220706572206d696e7400000000600082015250565b6000614d31601c83613738565b9150614d3c82614cfb565b602082019050919050565b60006020820190508181036000830152614d6081614d24565b9050919050565b600060a082019050614d7c600083018a61384b565b8181036020830152614d8f81888a6143b6565b90508181036040830152614da4818688614479565b9050614db360608301856144d6565b614dc0608083018461384b565b98975050505050505050565b614dd5816141b2565b82525050565b6000602082019050614df06000830184614dcc565b92915050565b7f4f776e61626c653a206e6577206f776e657220697320746865207a65726f206160008201527f6464726573730000000000000000000000000000000000000000000000000000602082015250565b6000614e52602683613738565b9150614e5d82614df6565b604082019050919050565b60006020820190508181036000830152614e8181614e45565b9050919050565b600081519050614e97816137f2565b92915050565b600060208284031215614eb357614eb2613384565b5b6000614ec184828501614e88565b91505092915050565b600081519050614ed98161401c565b92915050565b600060208284031215614ef557614ef4613384565b5b6000614f0384828501614eca565b91505092915050565b7f4f776e61626c653a2063616c6c6572206973206e6f7420746865206f776e6572600082015250565b6000614f42602083613738565b9150614f4d82614f0c565b602082019050919050565b60006020820190508181036000830152614f7181614f35565b9050919050565b600081519050919050565b6000819050602082019050919050565b614f9c8161432f565b82525050565b6000614fae8383614f93565b60208301905092915050565b6000602082019050919050565b6000614fd282614f78565b614fdc8185614350565b9350614fe783614f83565b8060005b83811015615018578151614fff8882614fa2565b975061500a83614fba565b925050600181019050614feb565b5085935050505092915050565b600060608201905061503a600083018661384b565b61504760208301856138b5565b81810360408301526150598184614fc7565b9050949350505050565b600081905092915050565b50565b600061507e600083615063565b91506150898261506e565b600082019050919050565b600061509f82615071565b9150819050919050565b7f436f756c64206e6f74207472616e736665722045544820746f2073706c697400600082015250565b60006150df601f83613738565b91506150ea826150a9565b602082019050919050565b6000602082019050818103600083015261510e816150d2565b9050919050565b600060808201905061512a600083018761384b565b615137602083018661384b565b61514460408301856138b5565b81810360608301526151568184614af9565b905095945050505050565b6000815190506151708161369e565b92915050565b60006020828403121561518c5761518b613384565b5b600061519a84828501615161565b91505092915050565b60006151b66151b184613bdc565b613992565b9050828152602081018484840111156151d2576151d1613bd7565b5b6151dd848285613749565b509392505050565b600082601f8301126151fa576151f96133fe565b5b815161520a8482602086016151a3565b91505092915050565b60006020828403121561522957615228613384565b5b600082015167ffffffffffffffff81111561524757615246613389565b5b615253848285016151e5565b91505092915050565b600081905092915050565b60006152728261372d565b61527c818561525c565b935061528c818560208601613749565b80840191505092915050565b60006152a48285615267565b91506152b08284615267565b9150819050939250505056fea2646970667358221220a72fcb07ec9ae57f49667388115ef8253a4cedeaf89f1522e047d03f9de23ab864736f6c63430008090033",
  "linkReferences": {},
  "deployedLinkReferences": {}
}