{
  "_format": "hh-sol-artifact-1",
  "contractName": "DCNTSeries",
  "sourceName": "contracts/DCNTSeries.sol",
  "abi": [
    {
      "inputs": [],
      "name": "AirdropExceedsMaxSupply",
      "type": "error"
    },
    {
      "inputs": [],
      "name": "ArrayLengthMismatch",
      "type": "error"
    },
    {
      "inputs": [],
      "name": "BurnExceedsOwnedTokens",
      "type": "error"
    },
    {
      "inputs": [],
      "name": "CannotDecreaseCap",
      "type": "error"
    },
    {
      "inputs": [],
      "name": "CannotTransferSoulbound",
      "type": "error"
    },
    {
      "inputs": [],
      "name": "CapsAreLocked",
      "type": "error"
    },
    {
      "inputs": [],
      "name": "FeeTransferFailed",
      "type": "error"
    },
    {
      "inputs": [],
      "name": "InsufficientFunds",
      "type": "error"
    },
    {
      "inputs": [],
      "name": "InvalidBPS",
      "type": "error"
    },
    {
      "inputs": [],
      "name": "InvalidTokenRange",
      "type": "error"
    },
    {
      "inputs": [],
      "name": "MintExceedsMaxSupply",
      "type": "error"
    },
    {
      "inputs": [],
      "name": "MintExceedsMaxTokensPerOwner",
      "type": "error"
    },
    {
      "inputs": [],
      "name": "NonexistentToken",
      "type": "error"
    },
    {
      "inputs": [],
      "name": "NotPaused",
      "type": "error"
    },
    {
      "inputs": [],
      "name": "OnlyAdmin",
      "type": "error"
    },
    {
      "inputs": [
        {
          "internalType": "address",
          "name": "operator",
          "type": "address"
        }
      ],
      "name": "OperatorNotAllowed",
      "type": "error"
    },
    {
      "inputs": [],
      "name": "Paused",
      "type": "error"
    },
    {
      "inputs": [],
      "name": "PresaleNotActive",
      "type": "error"
    },
    {
      "inputs": [],
      "name": "PresaleVerificationFailed",
      "type": "error"
    },
    {
      "inputs": [],
      "name": "RefundFailed",
      "type": "error"
    },
    {
      "inputs": [],
      "name": "SaleNotActive",
      "type": "error"
    },
    {
      "inputs": [],
      "name": "SplitsAreActive",
      "type": "error"
    },
    {
      "inputs": [],
      "name": "TokenGateDenied",
      "type": "error"
    },
    {
      "inputs": [],
      "name": "WithdrawFailed",
      "type": "error"
    },
    {
      "anonymous": false,
      "inputs": [
        {
          "indexed": true,
          "internalType": "address",
          "name": "owner",
          "type": "address"
        },
        {
          "indexed": true,
          "internalType": "address",
          "name": "operator",
          "type": "address"
        },
        {
          "indexed": false,
          "internalType": "bool",
          "name": "approved",
          "type": "bool"
        }
      ],
      "name": "ApprovalForAll",
      "type": "event"
    },
    {
      "anonymous": false,
      "inputs": [
        {
          "indexed": false,
          "internalType": "uint8",
          "name": "version",
          "type": "uint8"
        }
      ],
      "name": "Initialized",
      "type": "event"
    },
    {
      "anonymous": false,
      "inputs": [
        {
          "indexed": true,
          "internalType": "address",
          "name": "previousOwner",
          "type": "address"
        },
        {
          "indexed": true,
          "internalType": "address",
          "name": "newOwner",
          "type": "address"
        }
      ],
      "name": "OwnershipTransferred",
      "type": "event"
    },
    {
      "anonymous": false,
      "inputs": [
        {
          "indexed": true,
          "internalType": "bytes32",
          "name": "role",
          "type": "bytes32"
        },
        {
          "indexed": true,
          "internalType": "bytes32",
          "name": "previousAdminRole",
          "type": "bytes32"
        },
        {
          "indexed": true,
          "internalType": "bytes32",
          "name": "newAdminRole",
          "type": "bytes32"
        }
      ],
      "name": "RoleAdminChanged",
      "type": "event"
    },
    {
      "anonymous": false,
      "inputs": [
        {
          "indexed": true,
          "internalType": "bytes32",
          "name": "role",
          "type": "bytes32"
        },
        {
          "indexed": true,
          "internalType": "address",
          "name": "account",
          "type": "address"
        },
        {
          "indexed": true,
          "internalType": "address",
          "name": "sender",
          "type": "address"
        }
      ],
      "name": "RoleGranted",
      "type": "event"
    },
    {
      "anonymous": false,
      "inputs": [
        {
          "indexed": true,
          "internalType": "bytes32",
          "name": "role",
          "type": "bytes32"
        },
        {
          "indexed": true,
          "internalType": "address",
          "name": "account",
          "type": "address"
        },
        {
          "indexed": true,
          "internalType": "address",
          "name": "sender",
          "type": "address"
        }
      ],
      "name": "RoleRevoked",
      "type": "event"
    },
    {
      "anonymous": false,
      "inputs": [
        {
          "indexed": true,
          "internalType": "address",
          "name": "operator",
          "type": "address"
        },
        {
          "indexed": true,
          "internalType": "address",
          "name": "from",
          "type": "address"
        },
        {
          "indexed": true,
          "internalType": "address",
          "name": "to",
          "type": "address"
        },
        {
          "indexed": false,
          "internalType": "uint256[]",
          "name": "ids",
          "type": "uint256[]"
        },
        {
          "indexed": false,
          "internalType": "uint256[]",
          "name": "amounts",
          "type": "uint256[]"
        }
      ],
      "name": "TransferBatch",
      "type": "event"
    },
    {
      "anonymous": false,
      "inputs": [
        {
          "indexed": true,
          "internalType": "address",
          "name": "operator",
          "type": "address"
        },
        {
          "indexed": true,
          "internalType": "address",
          "name": "from",
          "type": "address"
        },
        {
          "indexed": true,
          "internalType": "address",
          "name": "to",
          "type": "address"
        },
        {
          "indexed": false,
          "internalType": "uint256",
          "name": "id",
          "type": "uint256"
        },
        {
          "indexed": false,
          "internalType": "uint256",
          "name": "amount",
          "type": "uint256"
        }
      ],
      "name": "TransferSingle",
      "type": "event"
    },
    {
      "anonymous": false,
      "inputs": [
        {
          "indexed": false,
          "internalType": "string",
          "name": "value",
          "type": "string"
        },
        {
          "indexed": true,
          "internalType": "uint256",
          "name": "id",
          "type": "uint256"
        }
      ],
      "name": "URI",
      "type": "event"
    },
    {
      "inputs": [],
      "name": "DEFAULT_ADMIN_ROLE",
      "outputs": [
        {
          "internalType": "bytes32",
          "name": "",
          "type": "bytes32"
        }
      ],
      "stateMutability": "view",
      "type": "function"
    },
    {
      "inputs": [
        {
          "internalType": "address",
          "name": "",
          "type": "address"
        },
        {
          "internalType": "uint256",
          "name": "",
          "type": "uint256"
        }
      ],
      "name": "balanceOf",
      "outputs": [
        {
          "internalType": "uint256",
          "name": "",
          "type": "uint256"
        }
      ],
      "stateMutability": "view",
      "type": "function"
    },
    {
      "inputs": [
        {
          "internalType": "address[]",
          "name": "owners",
          "type": "address[]"
        },
        {
          "internalType": "uint256[]",
          "name": "ids",
          "type": "uint256[]"
        }
      ],
      "name": "balanceOfBatch",
      "outputs": [
        {
          "internalType": "uint256[]",
          "name": "balances",
          "type": "uint256[]"
        }
      ],
      "stateMutability": "view",
      "type": "function"
    },
    {
      "inputs": [
        {
          "internalType": "uint256",
          "name": "tokenId",
          "type": "uint256"
        },
        {
          "internalType": "uint256",
          "name": "quantity",
          "type": "uint256"
        }
      ],
      "name": "burn",
      "outputs": [],
      "stateMutability": "nonpayable",
      "type": "function"
    },
    {
      "inputs": [],
      "name": "contractURI",
      "outputs": [
        {
          "internalType": "string",
          "name": "",
          "type": "string"
        }
      ],
      "stateMutability": "view",
      "type": "function"
    },
    {
      "inputs": [],
      "name": "contractVersion",
      "outputs": [
        {
          "internalType": "uint32",
          "name": "",
          "type": "uint32"
        }
      ],
      "stateMutability": "view",
      "type": "function"
    },
    {
      "inputs": [
        {
          "internalType": "address",
          "name": "_splitMain",
          "type": "address"
        },
        {
          "internalType": "address[]",
          "name": "accounts",
          "type": "address[]"
        },
        {
          "internalType": "uint32[]",
          "name": "percentAllocations",
          "type": "uint32[]"
        },
        {
          "internalType": "uint32",
          "name": "distributorFee",
          "type": "uint32"
        }
      ],
      "name": "createSplit",
      "outputs": [],
      "stateMutability": "nonpayable",
      "type": "function"
    },
    {
      "inputs": [],
      "name": "currencyOracle",
      "outputs": [
        {
          "internalType": "contract AggregatorV3Interface",
          "name": "",
          "type": "address"
        }
      ],
      "stateMutability": "view",
      "type": "function"
    },
    {
      "inputs": [
        {
          "internalType": "address",
          "name": "account",
          "type": "address"
        },
        {
          "internalType": "uint256",
          "name": "withdrawETH",
          "type": "uint256"
        },
        {
          "internalType": "contract ERC20[]",
          "name": "tokens",
          "type": "address[]"
        },
        {
          "internalType": "address[]",
          "name": "accounts",
          "type": "address[]"
        },
        {
          "internalType": "uint32[]",
          "name": "percentAllocations",
          "type": "uint32[]"
        },
        {
          "internalType": "uint32",
          "name": "distributorFee",
          "type": "uint32"
        },
        {
          "internalType": "address",
          "name": "distributorAddress",
          "type": "address"
        }
      ],
      "name": "distributeAndWithdraw",
      "outputs": [],
      "stateMutability": "nonpayable",
      "type": "function"
    },
    {
      "inputs": [
        {
          "internalType": "contract ERC20",
          "name": "token",
          "type": "address"
        },
        {
          "internalType": "address[]",
          "name": "accounts",
          "type": "address[]"
        },
        {
          "internalType": "uint32[]",
          "name": "percentAllocations",
          "type": "uint32[]"
        },
        {
          "internalType": "uint32",
          "name": "distributorFee",
          "type": "uint32"
        },
        {
          "internalType": "address",
          "name": "distributorAddress",
          "type": "address"
        }
      ],
      "name": "distributeERC20",
      "outputs": [],
      "stateMutability": "nonpayable",
      "type": "function"
    },
    {
      "inputs": [
        {
          "internalType": "address[]",
          "name": "accounts",
          "type": "address[]"
        },
        {
          "internalType": "uint32[]",
          "name": "percentAllocations",
          "type": "uint32[]"
        },
        {
          "internalType": "uint32",
          "name": "distributorFee",
          "type": "uint32"
        },
        {
          "internalType": "address",
          "name": "distributorAddress",
          "type": "address"
        }
      ],
      "name": "distributeETH",
      "outputs": [],
      "stateMutability": "nonpayable",
      "type": "function"
    },
    {
      "inputs": [],
      "name": "feeManager",
      "outputs": [
        {
          "internalType": "address",
          "name": "",
          "type": "address"
        }
      ],
      "stateMutability": "view",
      "type": "function"
    },
    {
      "inputs": [
        {
          "internalType": "bytes32",
          "name": "role",
          "type": "bytes32"
        }
      ],
      "name": "getRoleAdmin",
      "outputs": [
        {
          "internalType": "bytes32",
          "name": "",
          "type": "bytes32"
        }
      ],
      "stateMutability": "view",
      "type": "function"
    },
    {
      "inputs": [
        {
          "internalType": "bytes32",
          "name": "role",
          "type": "bytes32"
        },
        {
          "internalType": "address",
          "name": "account",
          "type": "address"
        }
      ],
      "name": "grantRole",
      "outputs": [],
      "stateMutability": "nonpayable",
      "type": "function"
    },
    {
      "inputs": [],
      "name": "hasAdjustableCaps",
      "outputs": [
        {
          "internalType": "bool",
          "name": "",
          "type": "bool"
        }
      ],
      "stateMutability": "view",
      "type": "function"
    },
    {
      "inputs": [
        {
          "internalType": "bytes32",
          "name": "role",
          "type": "bytes32"
        },
        {
          "internalType": "address",
          "name": "account",
          "type": "address"
        }
      ],
      "name": "hasRole",
      "outputs": [
        {
          "internalType": "bool",
          "name": "",
          "type": "bool"
        }
      ],
      "stateMutability": "view",
      "type": "function"
    },
    {
      "inputs": [
        {
          "internalType": "address",
          "name": "_owner",
          "type": "address"
        },
        {
          "components": [
            {
              "internalType": "string",
              "name": "name",
              "type": "string"
            },
            {
              "internalType": "string",
              "name": "symbol",
              "type": "string"
            },
            {
              "internalType": "string",
              "name": "contractURI",
              "type": "string"
            },
            {
              "internalType": "string",
              "name": "metadataURI",
              "type": "string"
            },
            {
              "internalType": "uint128",
              "name": "startTokenId",
              "type": "uint128"
            },
            {
              "internalType": "uint128",
              "name": "endTokenId",
              "type": "uint128"
            },
            {
              "internalType": "uint16",
              "name": "royaltyBPS",
              "type": "uint16"
            },
            {
              "internalType": "address",
              "name": "feeManager",
              "type": "address"
            },
            {
              "internalType": "address",
              "name": "payoutAddress",
              "type": "address"
            },
            {
              "internalType": "address",
              "name": "currencyOracle",
              "type": "address"
            },
            {
              "internalType": "bool",
              "name": "isSoulbound",
              "type": "bool"
            },
            {
              "internalType": "bool",
              "name": "hasAdjustableCaps",
              "type": "bool"
            }
          ],
          "internalType": "struct IDCNTSeries.SeriesConfig",
          "name": "_config",
          "type": "tuple"
        },
        {
          "components": [
            {
              "internalType": "uint32",
              "name": "maxTokens",
              "type": "uint32"
            },
            {
              "internalType": "uint32",
              "name": "maxTokensPerOwner",
              "type": "uint32"
            },
            {
              "internalType": "uint32",
              "name": "presaleStart",
              "type": "uint32"
            },
            {
              "internalType": "uint32",
              "name": "presaleEnd",
              "type": "uint32"
            },
            {
              "internalType": "uint32",
              "name": "saleStart",
              "type": "uint32"
            },
            {
              "internalType": "uint32",
              "name": "saleEnd",
              "type": "uint32"
            },
            {
              "internalType": "uint96",
              "name": "tokenPrice",
              "type": "uint96"
            },
            {
              "internalType": "bytes32",
              "name": "presaleMerkleRoot",
              "type": "bytes32"
            },
            {
              "components": [
                {
                  "internalType": "address",
                  "name": "tokenAddress",
                  "type": "address"
                },
                {
                  "internalType": "uint88",
                  "name": "minBalance",
                  "type": "uint88"
                },
                {
                  "internalType": "enum SaleType",
                  "name": "saleType",
                  "type": "uint8"
                }
              ],
              "internalType": "struct TokenGateConfig",
              "name": "tokenGate",
              "type": "tuple"
            }
          ],
          "internalType": "struct IDCNTSeries.Drop",
          "name": "_defaultDrop",
          "type": "tuple"
        },
        {
          "components": [
            {
              "internalType": "uint256[]",
              "name": "tokenIds",
              "type": "uint256[]"
            },
            {
              "internalType": "uint256[]",
              "name": "tokenIdDropIds",
              "type": "uint256[]"
            },
            {
              "internalType": "uint256[]",
              "name": "dropIds",
              "type": "uint256[]"
            },
            {
              "components": [
                {
                  "internalType": "uint32",
                  "name": "maxTokens",
                  "type": "uint32"
                },
                {
                  "internalType": "uint32",
                  "name": "maxTokensPerOwner",
                  "type": "uint32"
                },
                {
                  "internalType": "uint32",
                  "name": "presaleStart",
                  "type": "uint32"
                },
                {
                  "internalType": "uint32",
                  "name": "presaleEnd",
                  "type": "uint32"
                },
                {
                  "internalType": "uint32",
                  "name": "saleStart",
                  "type": "uint32"
                },
                {
                  "internalType": "uint32",
                  "name": "saleEnd",
                  "type": "uint32"
                },
                {
                  "internalType": "uint96",
                  "name": "tokenPrice",
                  "type": "uint96"
                },
                {
                  "internalType": "bytes32",
                  "name": "presaleMerkleRoot",
                  "type": "bytes32"
                },
                {
                  "components": [
                    {
                      "internalType": "address",
                      "name": "tokenAddress",
                      "type": "address"
                    },
                    {
                      "internalType": "uint88",
                      "name": "minBalance",
                      "type": "uint88"
                    },
                    {
                      "internalType": "enum SaleType",
                      "name": "saleType",
                      "type": "uint8"
                    }
                  ],
                  "internalType": "struct TokenGateConfig",
                  "name": "tokenGate",
                  "type": "tuple"
                }
              ],
              "internalType": "struct IDCNTSeries.Drop[]",
              "name": "drops",
              "type": "tuple[]"
            }
          ],
          "internalType": "struct IDCNTSeries.DropMap",
          "name": "_dropOverrides",
          "type": "tuple"
        }
      ],
      "name": "initialize",
      "outputs": [],
      "stateMutability": "nonpayable",
      "type": "function"
    },
    {
      "inputs": [
        {
          "internalType": "address",
          "name": "",
          "type": "address"
        },
        {
          "internalType": "address",
          "name": "",
          "type": "address"
        }
      ],
      "name": "isApprovedForAll",
      "outputs": [
        {
          "internalType": "bool",
          "name": "",
          "type": "bool"
        }
      ],
      "stateMutability": "view",
      "type": "function"
    },
    {
      "inputs": [],
      "name": "isSoulbound",
      "outputs": [
        {
          "internalType": "bool",
          "name": "",
          "type": "bool"
        }
      ],
      "stateMutability": "view",
      "type": "function"
    },
    {
      "inputs": [
        {
          "internalType": "uint256",
          "name": "tokenId",
          "type": "uint256"
        },
        {
          "internalType": "address",
          "name": "to",
          "type": "address"
        },
        {
          "internalType": "uint256",
          "name": "quantity",
          "type": "uint256"
        }
      ],
      "name": "mint",
      "outputs": [],
      "stateMutability": "payable",
      "type": "function"
    },
    {
      "inputs": [
        {
          "internalType": "uint256[]",
          "name": "tokenIds",
          "type": "uint256[]"
        },
        {
          "internalType": "address[]",
          "name": "recipients",
          "type": "address[]"
        }
      ],
      "name": "mintAirdrop",
      "outputs": [],
      "stateMutability": "nonpayable",
      "type": "function"
    },
    {
      "inputs": [
        {
          "internalType": "address",
          "name": "to",
          "type": "address"
        },
        {
          "internalType": "uint256[]",
          "name": "tokenIds",
          "type": "uint256[]"
        },
        {
          "internalType": "uint256[]",
          "name": "quantities",
          "type": "uint256[]"
        }
      ],
      "name": "mintBatch",
      "outputs": [],
      "stateMutability": "payable",
      "type": "function"
    },
    {
      "inputs": [
        {
          "internalType": "uint256",
          "name": "tokenId",
          "type": "uint256"
        },
        {
          "internalType": "uint256",
          "name": "quantity",
          "type": "uint256"
        }
      ],
      "name": "mintFee",
      "outputs": [
        {
          "internalType": "uint256",
          "name": "fee",
          "type": "uint256"
        }
      ],
      "stateMutability": "view",
      "type": "function"
    },
    {
      "inputs": [
        {
          "internalType": "address",
          "name": "to",
          "type": "address"
        },
        {
          "internalType": "uint256",
          "name": "tokenId",
          "type": "uint256"
        },
        {
          "internalType": "uint256",
          "name": "quantity",
          "type": "uint256"
        },
        {
          "internalType": "uint256",
          "name": "maxQuantity",
          "type": "uint256"
        },
        {
          "internalType": "uint256",
          "name": "pricePerToken",
          "type": "uint256"
        },
        {
          "internalType": "bytes32[]",
          "name": "merkleProof",
          "type": "bytes32[]"
        }
      ],
      "name": "mintPresale",
      "outputs": [],
      "stateMutability": "payable",
      "type": "function"
    },
    {
      "inputs": [],
      "name": "name",
      "outputs": [
        {
          "internalType": "string",
          "name": "",
          "type": "string"
        }
      ],
      "stateMutability": "view",
      "type": "function"
    },
    {
      "inputs": [],
      "name": "operatorFilterRegistry",
      "outputs": [
        {
          "internalType": "contract IOperatorFilterRegistry",
          "name": "",
          "type": "address"
        }
      ],
      "stateMutability": "view",
      "type": "function"
    },
    {
      "inputs": [],
      "name": "owner",
      "outputs": [
        {
          "internalType": "address",
          "name": "",
          "type": "address"
        }
      ],
      "stateMutability": "view",
      "type": "function"
    },
    {
      "inputs": [],
      "name": "pause",
      "outputs": [],
      "stateMutability": "nonpayable",
      "type": "function"
    },
    {
      "inputs": [],
      "name": "paused",
      "outputs": [
        {
          "internalType": "bool",
          "name": "",
          "type": "bool"
        }
      ],
      "stateMutability": "view",
      "type": "function"
    },
    {
      "inputs": [],
      "name": "payoutAddress",
      "outputs": [
        {
          "internalType": "address",
          "name": "",
          "type": "address"
        }
      ],
      "stateMutability": "view",
      "type": "function"
    },
    {
      "inputs": [],
      "name": "renounceOwnership",
      "outputs": [],
      "stateMutability": "nonpayable",
      "type": "function"
    },
    {
      "inputs": [
        {
          "internalType": "bytes32",
          "name": "role",
          "type": "bytes32"
        },
        {
          "internalType": "address",
          "name": "account",
          "type": "address"
        }
      ],
      "name": "renounceRole",
      "outputs": [],
      "stateMutability": "nonpayable",
      "type": "function"
    },
    {
      "inputs": [
        {
          "internalType": "bytes32",
          "name": "role",
          "type": "bytes32"
        },
        {
          "internalType": "address",
          "name": "account",
          "type": "address"
        }
      ],
      "name": "revokeRole",
      "outputs": [],
      "stateMutability": "nonpayable",
      "type": "function"
    },
    {
      "inputs": [],
      "name": "royaltyBPS",
      "outputs": [
        {
          "internalType": "uint16",
          "name": "",
          "type": "uint16"
        }
      ],
      "stateMutability": "view",
      "type": "function"
    },
    {
      "inputs": [
        {
          "internalType": "uint256",
          "name": "tokenId",
          "type": "uint256"
        },
        {
          "internalType": "uint256",
          "name": "salePrice",
          "type": "uint256"
        }
      ],
      "name": "royaltyInfo",
      "outputs": [
        {
          "internalType": "address",
          "name": "receiver",
          "type": "address"
        },
        {
          "internalType": "uint256",
          "name": "royaltyAmount",
          "type": "uint256"
        }
      ],
      "stateMutability": "view",
      "type": "function"
    },
    {
      "inputs": [
        {
          "internalType": "address",
          "name": "from",
          "type": "address"
        },
        {
          "internalType": "address",
          "name": "to",
          "type": "address"
        },
        {
          "internalType": "uint256[]",
          "name": "ids",
          "type": "uint256[]"
        },
        {
          "internalType": "uint256[]",
          "name": "amounts",
          "type": "uint256[]"
        },
        {
          "internalType": "bytes",
          "name": "data",
          "type": "bytes"
        }
      ],
      "name": "safeBatchTransferFrom",
      "outputs": [],
      "stateMutability": "nonpayable",
      "type": "function"
    },
    {
      "inputs": [
        {
          "internalType": "address",
          "name": "from",
          "type": "address"
        },
        {
          "internalType": "address",
          "name": "to",
          "type": "address"
        },
        {
          "internalType": "uint256",
          "name": "id",
          "type": "uint256"
        },
        {
          "internalType": "uint256",
          "name": "amount",
          "type": "uint256"
        },
        {
          "internalType": "bytes",
          "name": "data",
          "type": "bytes"
        }
      ],
      "name": "safeTransferFrom",
      "outputs": [],
      "stateMutability": "nonpayable",
      "type": "function"
    },
    {
      "inputs": [
        {
          "internalType": "address",
          "name": "operator",
          "type": "address"
        },
        {
          "internalType": "bool",
          "name": "approved",
          "type": "bool"
        }
      ],
      "name": "setApprovalForAll",
      "outputs": [],
      "stateMutability": "nonpayable",
      "type": "function"
    },
    {
      "inputs": [
        {
          "internalType": "string",
          "name": "contractURI_",
          "type": "string"
        }
      ],
      "name": "setContractURI",
      "outputs": [],
      "stateMutability": "nonpayable",
      "type": "function"
    },
    {
      "inputs": [
        {
          "internalType": "address",
          "name": "_payoutAddress",
          "type": "address"
        }
      ],
      "name": "setPayoutAddress",
      "outputs": [],
      "stateMutability": "nonpayable",
      "type": "function"
    },
    {
      "inputs": [
        {
          "internalType": "uint16",
          "name": "_royaltyBPS",
          "type": "uint16"
        }
      ],
      "name": "setRoyaltyBPS",
      "outputs": [],
      "stateMutability": "nonpayable",
      "type": "function"
    },
    {
      "inputs": [
        {
          "internalType": "uint128",
          "name": "newTokens",
          "type": "uint128"
        },
        {
          "components": [
            {
              "internalType": "uint256[]",
              "name": "tokenIds",
              "type": "uint256[]"
            },
            {
              "internalType": "uint256[]",
              "name": "tokenIdDropIds",
              "type": "uint256[]"
            },
            {
              "internalType": "uint256[]",
              "name": "dropIds",
              "type": "uint256[]"
            },
            {
              "components": [
                {
                  "internalType": "uint32",
                  "name": "maxTokens",
                  "type": "uint32"
                },
                {
                  "internalType": "uint32",
                  "name": "maxTokensPerOwner",
                  "type": "uint32"
                },
                {
                  "internalType": "uint32",
                  "name": "presaleStart",
                  "type": "uint32"
                },
                {
                  "internalType": "uint32",
                  "name": "presaleEnd",
                  "type": "uint32"
                },
                {
                  "internalType": "uint32",
                  "name": "saleStart",
                  "type": "uint32"
                },
                {
                  "internalType": "uint32",
                  "name": "saleEnd",
                  "type": "uint32"
                },
                {
                  "internalType": "uint96",
                  "name": "tokenPrice",
                  "type": "uint96"
                },
                {
                  "internalType": "bytes32",
                  "name": "presaleMerkleRoot",
                  "type": "bytes32"
                },
                {
                  "components": [
                    {
                      "internalType": "address",
                      "name": "tokenAddress",
                      "type": "address"
                    },
                    {
                      "internalType": "uint88",
                      "name": "minBalance",
                      "type": "uint88"
                    },
                    {
                      "internalType": "enum SaleType",
                      "name": "saleType",
                      "type": "uint8"
                    }
                  ],
                  "internalType": "struct TokenGateConfig",
                  "name": "tokenGate",
                  "type": "tuple"
                }
              ],
              "internalType": "struct IDCNTSeries.Drop[]",
              "name": "drops",
              "type": "tuple[]"
            }
          ],
          "internalType": "struct IDCNTSeries.DropMap",
          "name": "dropMap",
          "type": "tuple"
        }
      ],
      "name": "setTokenDrops",
      "outputs": [],
      "stateMutability": "nonpayable",
      "type": "function"
    },
    {
      "inputs": [
        {
          "internalType": "string",
          "name": "uri_",
          "type": "string"
        }
      ],
      "name": "setURI",
      "outputs": [],
      "stateMutability": "nonpayable",
      "type": "function"
    },
    {
      "inputs": [],
      "name": "splitMain",
      "outputs": [
        {
          "internalType": "address",
          "name": "",
          "type": "address"
        }
      ],
      "stateMutability": "view",
      "type": "function"
    },
    {
      "inputs": [],
      "name": "splitWallet",
      "outputs": [
        {
          "internalType": "address",
          "name": "",
          "type": "address"
        }
      ],
      "stateMutability": "view",
      "type": "function"
    },
    {
      "inputs": [
        {
          "internalType": "bytes4",
          "name": "interfaceId",
          "type": "bytes4"
        }
      ],
      "name": "supportsInterface",
      "outputs": [
        {
          "internalType": "bool",
          "name": "",
          "type": "bool"
        }
      ],
      "stateMutability": "view",
      "type": "function"
    },
    {
      "inputs": [],
      "name": "symbol",
      "outputs": [
        {
          "internalType": "string",
          "name": "",
          "type": "string"
        }
      ],
      "stateMutability": "view",
      "type": "function"
    },
    {
      "inputs": [
        {
          "internalType": "uint128",
          "name": "tokenId",
          "type": "uint128"
        }
      ],
      "name": "tokenDrop",
      "outputs": [
        {
          "components": [
            {
              "internalType": "uint32",
              "name": "maxTokens",
              "type": "uint32"
            },
            {
              "internalType": "uint32",
              "name": "maxTokensPerOwner",
              "type": "uint32"
            },
            {
              "internalType": "uint32",
              "name": "presaleStart",
              "type": "uint32"
            },
            {
              "internalType": "uint32",
              "name": "presaleEnd",
              "type": "uint32"
            },
            {
              "internalType": "uint32",
              "name": "saleStart",
              "type": "uint32"
            },
            {
              "internalType": "uint32",
              "name": "saleEnd",
              "type": "uint32"
            },
            {
              "internalType": "uint96",
              "name": "tokenPrice",
              "type": "uint96"
            },
            {
              "internalType": "bytes32",
              "name": "presaleMerkleRoot",
              "type": "bytes32"
            },
            {
              "components": [
                {
                  "internalType": "address",
                  "name": "tokenAddress",
                  "type": "address"
                },
                {
                  "internalType": "uint88",
                  "name": "minBalance",
                  "type": "uint88"
                },
                {
                  "internalType": "enum SaleType",
                  "name": "saleType",
                  "type": "uint8"
                }
              ],
              "internalType": "struct TokenGateConfig",
              "name": "tokenGate",
              "type": "tuple"
            }
          ],
          "internalType": "struct IDCNTSeries.Drop",
          "name": "",
          "type": "tuple"
        }
      ],
      "stateMutability": "view",
      "type": "function"
    },
    {
      "inputs": [
        {
          "internalType": "uint256",
          "name": "",
          "type": "uint256"
        }
      ],
      "name": "tokenDropIds",
      "outputs": [
        {
          "internalType": "uint256",
          "name": "",
          "type": "uint256"
        }
      ],
      "stateMutability": "view",
      "type": "function"
    },
    {
      "inputs": [
        {
          "internalType": "uint256",
          "name": "tokenId",
          "type": "uint256"
        }
      ],
      "name": "tokenPrice",
      "outputs": [
        {
          "internalType": "uint256",
          "name": "",
          "type": "uint256"
        }
      ],
      "stateMutability": "view",
      "type": "function"
    },
    {
      "inputs": [],
      "name": "tokenRange",
      "outputs": [
        {
          "internalType": "uint128",
          "name": "startTokenId",
          "type": "uint128"
        },
        {
          "internalType": "uint128",
          "name": "endTokenId",
          "type": "uint128"
        }
      ],
      "stateMutability": "view",
      "type": "function"
    },
    {
      "inputs": [
        {
          "internalType": "uint256",
          "name": "",
          "type": "uint256"
        }
      ],
      "name": "totalSupply",
      "outputs": [
        {
          "internalType": "uint256",
          "name": "",
          "type": "uint256"
        }
      ],
      "stateMutability": "view",
      "type": "function"
    },
    {
      "inputs": [
        {
          "internalType": "address",
          "name": "newOwner",
          "type": "address"
        }
      ],
      "name": "transferOwnership",
      "outputs": [],
      "stateMutability": "nonpayable",
      "type": "function"
    },
    {
      "inputs": [
        {
          "internalType": "uint256",
          "name": "transferETH",
          "type": "uint256"
        },
        {
          "internalType": "contract ERC20[]",
          "name": "tokens",
          "type": "address[]"
        }
      ],
      "name": "transferToSplit",
      "outputs": [],
      "stateMutability": "nonpayable",
      "type": "function"
    },
    {
      "inputs": [],
      "name": "unpause",
      "outputs": [],
      "stateMutability": "nonpayable",
      "type": "function"
    },
    {
      "inputs": [
        {
          "internalType": "bool",
          "name": "enable",
          "type": "bool"
        },
        {
          "internalType": "address",
          "name": "operatorFilter",
          "type": "address"
        }
      ],
      "name": "updateOperatorFilter",
      "outputs": [],
      "stateMutability": "nonpayable",
      "type": "function"
    },
    {
      "inputs": [
        {
          "internalType": "uint256",
          "name": "",
          "type": "uint256"
        }
      ],
      "name": "uri",
      "outputs": [
        {
          "internalType": "string",
          "name": "",
          "type": "string"
        }
      ],
      "stateMutability": "view",
      "type": "function"
    },
    {
      "inputs": [],
      "name": "withdraw",
      "outputs": [],
      "stateMutability": "nonpayable",
      "type": "function"
    }
  ],
  "bytecode": "0x60a06040523480156200001157600080fd5b5060026200001f3362000038565b6004805460ff1916905563ffffffff1660805262000094565b600280546001600160a01b038381166201000081810262010000600160b01b031985161790945560405193909204169182907f8be0079c531659141344cd1fd0a4f28419497f9722a3daafe3b4186f6b6457e090600090a35050565b608051615fa1620000b060003960006108c00152615fa16000f3fe60806040526004361061037f5760003560e01c806379ab7c8e116101d1578063b9c9d93a11610102578063e8a3d485116100a0578063f242432a1161006f578063f242432a14610aec578063f2fde38b14610b0c578063f643b0b214610b2c578063f7eca6d014610b4c57600080fd5b8063e8a3d48514610a4f578063e8f5c90e14610a64578063e985e9c514610a84578063f209e70614610abf57600080fd5b8063d0fb0203116100dc578063d0fb0203146109dc578063d4ddce8a146109fc578063d547741f14610a1c578063d81d0a1514610a3c57600080fd5b8063b9c9d93a14610961578063bd85b0391461098f578063c4559d5a146109bc57600080fd5b8063938e3d7b1161016f578063a217fddf11610149578063a217fddf146108ea578063a22cb465146108ff578063b0ccc31e1461091f578063b390c0ab1461094157600080fd5b8063938e3d7b1461087457806395d89b4114610894578063a0a8e460146108a957600080fd5b806389e2fad2116101ab57806389e2fad2146107f05780638da5cb5b14610810578063913300101461083457806391d148541461085457600080fd5b806379ab7c8e146107a8578063836a1040146107c85780638456cb59146107db57600080fd5b80632eb2c2d6116102b657806340698418116102545780635b8d02d7116102235780635b8d02d7146107355780635c975abb1461075b578063713b978714610773578063715018a61461079357600080fd5b806340698418146106a4578063425e7fe5146106d55780634e1273f4146106e8578063524fc4641461071557600080fd5b806333ea51a81161029057806333ea51a81461063a57806336568abe1461065a5780633ccfd60b1461067a5780633f4ba83a1461068f57600080fd5b80632eb2c2d6146105da5780632f2ff15d146105fa57806333ea3e6d1461061a57600080fd5b80630efd898a11610323578063284a44a8116102fd578063284a44a81461053a5780632a55205a1461055a5780632d731a55146105995780632d75fea6146105ba57600080fd5b80630efd898a146104bd5780631299e5da146104dd578063248a9ca31461050a57600080fd5b806302fe53051161035f57806302fe53051461041e57806306fdde031461043e5780630e769b2b146104605780630e89341c1461049d57600080fd5b80625f16fb14610384578062fdd58e146103a657806301ffc9a7146103ee575b600080fd5b34801561039057600080fd5b506103a461039f366004614640565b610b6d565b005b3480156103b257600080fd5b506103db6103c13660046146e8565b600060208181529281526040808220909352908152205481565b6040519081526020015b60405180910390f35b3480156103fa57600080fd5b5061040e61040936600461472a565b610c27565b60405190151581526020016103e5565b34801561042a57600080fd5b506103a461043936600461478d565b610c61565b34801561044a57600080fd5b50610453610d01565b6040516103e59190614871565b34801561046c57600080fd5b506004546104859061010090046001600160a01b031681565b6040516001600160a01b0390911681526020016103e5565b3480156104a957600080fd5b506104536104b8366004614884565b610d93565b3480156104c957600080fd5b506103db6104d836600461489d565b610e27565b3480156104e957600080fd5b506103db6104f8366004614884565b600c6020526000908152604090205481565b34801561051657600080fd5b506103db610525366004614884565b60009081526003602052604090206001015490565b34801561054657600080fd5b506103a4610555366004614947565b610ed0565b34801561056657600080fd5b5061057a61057536600461489d565b610f67565b604080516001600160a01b0390931683526020830191909152016103e5565b3480156105a557600080fd5b50600b5461040e90600160b81b900460ff1681565b3480156105c657600080fd5b506103a46105d5366004614a26565b611009565b3480156105e657600080fd5b506103a46105f5366004614aa0565b611231565b34801561060657600080fd5b506103a4610615366004614b5e565b6112ba565b34801561062657600080fd5b506103a4610635366004614b83565b6112df565b34801561064657600080fd5b506103a4610655366004614c17565b6113f9565b34801561066657600080fd5b506103a4610675366004614b5e565b61144b565b34801561068657600080fd5b506103a46114c9565b34801561069b57600080fd5b506103a46115ac565b3480156106b057600080fd5b5060085460408051608083901c81526001600160801b039092166020830152016103e5565b6103a46106e3366004614c34565b6115e6565b3480156106f457600080fd5b50610708610703366004614cb0565b611778565b6040516103e59190614d56565b34801561072157600080fd5b50601054610485906001600160a01b031681565b34801561074157600080fd5b50600b54610485906201000090046001600160a01b031681565b34801561076757600080fd5b5060045460ff1661040e565b34801561077f57600080fd5b50600554610485906001600160a01b031681565b34801561079f57600080fd5b506103a461188a565b3480156107b457600080fd5b506103a46107c3366004614d69565b61189c565b6103a46107d6366004614da5565b611910565b3480156107e757600080fd5b506103a4611a60565b3480156107fc57600080fd5b506103a461080b366004614e06565b611a98565b34801561081c57600080fd5b506002546201000090046001600160a01b0316610485565b34801561084057600080fd5b506103a461084f366004614e49565b611e96565b34801561086057600080fd5b5061040e61086f366004614b5e565b611eca565b34801561088057600080fd5b506103a461088f36600461478d565b611ef5565b3480156108a057600080fd5b50610453611f29565b3480156108b557600080fd5b5060405163ffffffff7f00000000000000000000000000000000000000000000000000000000000000001681526020016103e5565b3480156108f657600080fd5b506103db600081565b34801561090b57600080fd5b506103a461091a366004614e6d565b611f38565b34801561092b57600080fd5b506104856daaeb6d7670e522a718067333cd4e81565b34801561094d57600080fd5b506103a461095c36600461489d565b611f4c565b34801561096d57600080fd5b50600b5461097c9061ffff1681565b60405161ffff90911681526020016103e5565b34801561099b57600080fd5b506103db6109aa366004614884565b600e6020526000908152604090205481565b3480156109c857600080fd5b506103a46109d7366004614e9b565b611fb7565b3480156109e857600080fd5b50600f54610485906001600160a01b031681565b348015610a0857600080fd5b506103db610a17366004614884565b612064565b348015610a2857600080fd5b506103a4610a37366004614b5e565b612082565b6103a4610a4a366004614f21565b6120a7565b348015610a5b57600080fd5b5061045361229c565b348015610a7057600080fd5b506103a4610a7f366004614fa3565b6122ab565b348015610a9057600080fd5b5061040e610a9f366004615042565b600160209081526000928352604080842090915290825290205460ff1681565b348015610acb57600080fd5b50610adf610ada366004615060565b6125ae565b6040516103e591906150df565b348015610af857600080fd5b506103a4610b0736600461516f565b61272b565b348015610b1857600080fd5b506103a4610b27366004614c17565b61275d565b348015610b3857600080fd5b506103a4610b47366004614cb0565b6127d3565b348015610b5857600080fd5b50600b5461040e90600160b01b900460ff1681565b6005546001600160a01b0316610b9e5760405162461bcd60e51b8152600401610b95906151ea565b60405180910390fd5b610ba787612864565b60048054600554604051630ac0898160e11b81526001600160a01b03610100909304831693631581130293610bec9316918c918c918c918c918c918c918c9101615292565b600060405180830381600087803b158015610c0657600080fd5b505af1158015610c1a573d6000803e3d6000fd5b5050505050505050505050565b600063152a902d60e11b6001600160e01b031983161480610c4c5750610c4c82612948565b80610c5b5750610c5b8261297d565b92915050565b610c6c600033611eca565b610c8957604051634755657960e01b815260040160405180910390fd5b6009610c95828261536e565b50600854608081901c906001600160801b0316815b816001600160801b03168111610cfb57807f6bb7ff708619ba0610cba295a58592e0451dee2622938c8755667688daf3529b6009604051610ceb919061542d565b60405180910390a2600101610caa565b50505050565b606060068054610d10906152f4565b80601f0160208091040260200160405190810160405280929190818152602001828054610d3c906152f4565b8015610d895780601f10610d5e57610100808354040283529160200191610d89565b820191906000526020600020905b815481529060010190602001808311610d6c57829003601f168201915b5050505050905090565b606060098054610da2906152f4565b80601f0160208091040260200160405190810160405280929190818152602001828054610dce906152f4565b8015610e1b5780601f10610df057610100808354040283529160200191610e1b565b820191906000526020600020905b815481529060010190602001808311610dfe57829003601f168201915b50505050509050919050565b600082610e33816129cb565b600f546001600160a01b031615610ec957600f546001600160a01b0316637096335b610e5e86612064565b856040518363ffffffff1660e01b8152600401610e85929190918252602082015260400190565b6040805180830381865afa158015610ea1573d6000803e3d6000fd5b505050506040513d601f19601f82011682018060405250810190610ec591906154b8565b5091505b5092915050565b6005546001600160a01b0316610ef85760405162461bcd60e51b8152600401610b95906151ea565b8715610f0c57610f0c868686868686611fb7565b60005b8751811015610f5057610f40888281518110610f2d57610f2d6154dc565b6020026020010151888888888888610b6d565b610f4981615508565b9050610f0f565b50610f5c898989612a11565b505050505050505050565b600080610f73846129cb565b6005546001600160a01b031615610f97576005546001600160a01b03169150610fdc565b600b546201000090046001600160a01b031615610fc757600b546201000090046001600160a01b03169150610fdc565b6002546201000090046001600160a01b031691505b600b5460009061271090610ff49061ffff1686615521565b610ffe9190615538565b9150505b9250929050565b611014600033611eca565b61103157604051634755657960e01b815260040160405180910390fd5b60405163c3c5a54760e01b81523060048201819052906daaeb6d7670e522a718067333cd4e9063c3c5a547906024016020604051808303816000875af115801561107f573d6000803e3d6000fd5b505050506040513d601f19601f820116820180604052508101906110a3919061555a565b1580156110ad5750825b1561112757604051633e9f1edf60e11b81526001600160a01b038083166004830152831660248201526daaeb6d7670e522a718067333cd4e90637d3e3dbe906044015b600060405180830381600087803b15801561110a57600080fd5b505af115801561111e573d6000803e3d6000fd5b50505050505050565b821561116f57604051632cc5350560e21b81526001600160a01b038083166004830152831660248201526daaeb6d7670e522a718067333cd4e9063b314d414906044016110f0565b60405163034a0dc160e41b81526001600160a01b0382166004820152600060248201526daaeb6d7670e522a718067333cd4e906334a0dc1090604401600060405180830381600087803b1580156111c557600080fd5b505af11580156111d9573d6000803e3d6000fd5b5050604051631761612360e11b81526001600160a01b03841660048201526daaeb6d7670e522a718067333cd4e9250632ec2c2469150602401600060405180830381600087803b15801561110a57600080fd5b505050565b6112a0888888888080602002602001604051908101604052809392919081815260200183836020028082843760009201919091525050604080516020808c0282810182019093528b82529093508b92508a918291850190849080828437600092019190915250612a4892505050565b6112b08888888888888888612ab5565b5050505050505050565b6000828152600360205260409020600101546112d581612d2a565b61122c8383612d34565b6112e7612dba565b6005546001600160a01b0316156113385760405162461bcd60e51b815260206004820152601560248201527414dc1b1a5d08185b1c9958591e4818dc99585d1959605a1b6044820152606401610b95565b60048054610100600160a81b0319166101006001600160a01b03898116820292909217808455604051633b00fbc160e11b815291900490911691637601f7829161138e9189918991899189918991339101615577565b6020604051808303816000875af11580156113ad573d6000803e3d6000fd5b505050506040513d601f19601f820116820180604052508101906113d191906155c8565b600580546001600160a01b0319166001600160a01b0392909216919091179055505050505050565b611404600033611eca565b61142157604051634755657960e01b815260040160405180910390fd5b600b80546001600160a01b03909216620100000262010000600160b01b0319909216919091179055565b6001600160a01b03811633146114bb5760405162461bcd60e51b815260206004820152602f60248201527f416363657373436f6e74726f6c3a2063616e206f6e6c792072656e6f756e636560448201526e103937b632b9903337b91039b2b63360891b6064820152608401610b95565b6114c58282612e1b565b5050565b6005546001600160a01b0316156114f357604051636427cfb760e11b815260040160405180910390fd5b600b546000906201000090046001600160a01b0316611523576002546201000090046001600160a01b0316611536565b600b546201000090046001600160a01b03165b90506000816001600160a01b03164760405160006040518083038185875af1925050503d8060008114611585576040519150601f19603f3d011682016040523d82523d6000602084013e61158a565b606091505b50509050806114c557604051631d42c86760e21b815260040160405180910390fd5b6115b4612e82565b6115bf600033611eca565b6115dc57604051634755657960e01b815260040160405180910390fd5b6115e4612ea5565b565b8560016115f38282612eb9565b876115fd816129cb565b611605613061565b6116148a8a8a8a8a8a8a613085565b600f5460009081906001600160a01b0316156116a357600f54604051637096335b60e01b8152600481018a9052602481018c90526001600160a01b0390911690637096335b906044016040805180830381865afa158015611679573d6000803e3d6000fd5b505050506040513d601f19601f8201168201806040525081019061169d91906154b8565b90925090505b6000826116b08c8b615521565b6116ba91906155e5565b9050803410156116dd5760405163356680b760e01b815260040160405180910390fd5b6001600160a01b038d166000908152602081815260408083208f84529091529020548a61170a8d836155e5565b111561172957604051630c041fdb60e11b815260040160405180910390fd5b6117448e8e8e604051806020016040528060008152506132ba565b61175661175184866155e5565b6132de565b61176861176383346155f8565b6133c3565b5050505050505050505050505050565b60608382146117995760405162461bcd60e51b8152600401610b959061560b565b836001600160401b038111156117b1576117b1614747565b6040519080825280602002602001820160405280156117da578160200160208202803683370190505b50905060005b84811015611881576000808787848181106117fd576117fd6154dc565b90506020020160208101906118129190614c17565b6001600160a01b03166001600160a01b031681526020019081526020016000206000858584818110611846576118466154dc565b9050602002013581526020019081526020016000205482828151811061186e5761186e6154dc565b60209081029190910101526001016117e0565b50949350505050565b611892612dba565b6115e46000613432565b6005546001600160a01b03166118c45760405162461bcd60e51b8152600401610b95906151ea565b81156118d2576118d261348e565b60005b815181101561122c576119008282815181106118f3576118f36154dc565b6020026020010151612864565b61190981615508565b90506118d5565b82600061191d8282612eb9565b611925613061565b611930848685613531565b600061193b86612064565b600f5490915060009081906001600160a01b0316156119cd57600f54604051637096335b60e01b815260048101859052602481018890526001600160a01b0390911690637096335b906044016040805180830381865afa1580156119a3573d6000803e3d6000fd5b505050506040513d601f19601f820116820180604052508101906119c791906154b8565b90925090505b6000826119da8886615521565b6119e491906155e5565b905080341015611a075760405163356680b760e01b815260040160405180910390fd5b611a22888a89604051806020016040528060008152506132ba565b6000898152600e602052604081208054899290611a409084906155e5565b90915550611a53905061175183856155e5565b610f5c61176382346155f8565b611a68613061565b611a73600033611eca565b611a9057604051634755657960e01b815260040160405180910390fd5b6115e4613724565b611aa3600033611eca565b611ac057604051634755657960e01b815260040160405180910390fd5b6001600160801b03821615611af757600854608081901c906001600160801b0316611af482611aef8684615634565b61373b565b50505b6000611b038280615654565b915060009050611b166040840184615654565b9150611b2790506020840184615654565b905082141580611b455750611b3f606084018461569d565b90508114155b15611b635760405163512509d360e11b815260040160405180910390fd5b60005b82811015611c2d576000611b7a8580615654565b83818110611b8a57611b8a6154dc565b9050602002013590506000858060200190611ba59190615654565b84818110611bb557611bb56154dc565b905060200201359050611bc7826129cb565b611bd0816129cb565b6000818152600d6020908152604080832054858452600e9092529091205463ffffffff9091161015611c1557604051631f66fd4160e01b815260040160405180910390fd5b6000918252600c602052604090912055600101611b66565b5060005b81811015611e8f576000611c486040860186615654565b83818110611c5857611c586154dc565b90506020020135905080600014611c7257611c72816129cb565b36611c80606087018761569d565b84818110611c9057611c906154dc565b6000858152600d6020908152604090912061016090920293909301935091611cbb91508301836156e6565b815463ffffffff908116911614611d3057600b54600160b81b900460ff16611cf65760405163989b234760e01b815260040160405180910390fd5b805463ffffffff16611d0b60208401846156e6565b63ffffffff161015611d3057604051631f66fd4160e01b815260040160405180910390fd5b611d3d60208301836156e6565b815463ffffffff191663ffffffff91909116178155611d6260e0830160c08401615718565b6001820180546bffffffffffffffffffffffff19166001600160601b0392909216919091179055611d9960408301602084016156e6565b815463ffffffff919091166401000000000267ffffffff000000001990911617815560e08201356002820155611dd560608301604084016156e6565b815463ffffffff91909116600160401b0263ffffffff60401b19909116178155611e0560808301606084016156e6565b815463ffffffff91909116600160601b0263ffffffff60601b19909116178155611e3560a08301608084016156e6565b815463ffffffff91909116600160801b0263ffffffff60801b19909116178155611e6560c0830160a084016156e6565b815463ffffffff91909116600160a01b0263ffffffff60a01b199091161790555050600101611c31565b5050505050565b611ea1600033611eca565b611ebe57604051634755657960e01b815260040160405180910390fd5b611ec781613791565b50565b60009182526003602090815260408084206001600160a01b0393909316845291905290205460ff1690565b611f00600033611eca565b611f1d57604051634755657960e01b815260040160405180910390fd5b600a6114c5828261536e565b606060078054610d10906152f4565b81611f42816137d0565b61122c8383613889565b33600090815260208181526040808320858452909152902054811115611f8557604051631fa225b760e31b815260040160405180910390fd5b611f903383836138f5565b6000828152600e602052604081208054839290611fae9084906155f8565b90915550505050565b6005546001600160a01b0316611fdf5760405162461bcd60e51b8152600401610b95906151ea565b611fe761348e565b6004805460055460405163730e582f60e11b81526001600160a01b0361010090930483169363e61cb05e9361202a9316918b918b918b918b918b918b9101615735565b600060405180830381600087803b15801561204457600080fd5b505af1158015612058573d6000803e3d6000fd5b50505050505050505050565b600081612070816129cb565b61207983613918565b91505b50919050565b60008281526003602052604090206001015461209d81612d2a565b61122c8383612e1b565b6120af613061565b82600080808080808080805b898110156121d3578d8d828181106120d5576120d56154dc565b9050602002013598508b8b828181106120f0576120f06154dc565b905060200201359750612104896000612eb9565b61210f8f8a8a613531565b61211889613918565b600f549097506001600160a01b0316156121ad57600f54604051637096335b60e01b815260048101899052602481018a90526001600160a01b0390911690637096335b906044016040805180830381865afa15801561217b573d6000803e3d6000fd5b505050506040513d601f19601f8201168201806040525081019061219f91906154b8565b909650945091850191908401905b6000898152600e60205260409020805489019055868802860193909301926001016120bb565b50823410156121f55760405163356680b760e01b815260040160405180910390fd5b6122828e8e8e80806020026020016040519081016040528093929190818152602001838360200280828437600081840152601f19601f820116905080830192505050505050508d8d80806020026020016040519081016040528093929190818152602001838360200280828437600092018290525060408051602081019091529081529250613aec915050565b61228f61175182846155e5565b61176861176384346155f8565b6060600a8054610d10906152f4565b600254610100900460ff16158080156122cb5750600254600160ff909116105b806122e55750303b1580156122e5575060025460ff166001145b6123485760405162461bcd60e51b815260206004820152602e60248201527f496e697469616c697a61626c653a20636f6e747261637420697320616c72656160448201526d191e481a5b9a5d1a585b1a5e995960921b6064820152608401610b95565b6002805460ff19166001179055801561236b576002805461ff0019166101001790555b61237485613432565b61237f600086612d34565b612389848061578e565b6006916123979190836157d4565b506123a5602085018561578e565b6007916123b39190836157d4565b506123c1606085018561578e565b6009916123cf9190836157d4565b506123dd604085018561578e565b600a916123eb9190836157d4565b506124046123ff60e0860160c08701614e49565b613791565b61241661012085016101008601614c17565b600b80546001600160a01b0392909216620100000262010000600160b01b031990921691909117905561245161018085016101608601615893565b600b8054911515600160b81b0260ff60b81b1990921691909117905561247f61016085016101408601615893565b600b8054911515600160b01b0260ff60b01b199092169190911790556124ac610100850160e08601614c17565b600f80546001600160a01b0319166001600160a01b03929092169190911790556124de61014085016101208601614c17565b601080546001600160a01b0319166001600160a01b039290921691909117905561252161251160a0860160808701615060565b611aef60c0870160a08801615060565b60008052600d602052827f81955a0a11e65eac625c29e8882660bae4e165a75d72780094acae8ece9a29ee6125568282615959565b90505061256282613b05565b8015611e8f576002805461ff0019169055604051600181527f7f26b83ff96e1f2b6a682f133852f6798a09c465da95921460cefb38474024989060200160405180910390a15050505050565b61261160408051610120810182526000808252602080830182905282840182905260608084018390526080840183905260a0840183905260c0840183905260e0840183905284519081018552828152908101829052928301529061010082015290565b6001600160801b0382166000908152600c60209081526040808320548352600d825291829020825161012081018452815463ffffffff80821683526401000000008204811683860152600160401b8204811683870152600160601b82048116606080850191909152600160801b830482166080850152600160a01b9283900490911660a084015260018401546001600160601b031660c084015260028085015460e0850152865191820187526003850180546001600160a01b03811684529384046001600160581b031696830196909652929593946101008701949193909291840191600160f81b900460ff169081111561270e5761270e61507b565b600281111561271f5761271f61507b565b90525090525092915050565b612747868661273987613c87565b61274287613c87565b612a48565b612755868686868686613cd2565b505050505050565b612765612dba565b6001600160a01b0381166127ca5760405162461bcd60e51b815260206004820152602660248201527f4f776e61626c653a206e6577206f776e657220697320746865207a65726f206160448201526564647265737360d01b6064820152608401610b95565b611ec781613432565b6127de600033611eca565b6127fb57604051634755657960e01b815260040160405180910390fd5b8260005b818110156127555761285c86868381811061281c5761281c6154dc565b90506020020135858580806020026020016040519081016040528093929190818152602001838360200280828437600092019190915250613ec492505050565b6001016127ff565b6040516370a0823160e01b81523060048201526000906001600160a01b038316906370a0823190602401602060405180830381865afa1580156128ab573d6000803e3d6000fd5b505050506040513d601f19601f820116820180604052508101906128cf9190615ac1565b60055460405163a9059cbb60e01b81526001600160a01b0391821660048201526024810183905291925083169063a9059cbb906044016020604051808303816000875af1158015612924573d6000803e3d6000fd5b505050506040513d601f19601f8201168201806040525081019061122c919061555a565b60006001600160e01b03198216637965db0b60e01b1480610c5b57506301ffc9a760e01b6001600160e01b0319831614610c5b565b60006301ffc9a760e01b6001600160e01b0319831614806129ae5750636cdb3d1360e11b6001600160e01b03198316145b80610c5b5750506001600160e01b0319166303a24d0760e21b1490565b600854608081901c906001600160801b0316828211806129f35750806001600160801b031683115b1561122c5760405163163a09e160e31b815260040160405180910390fd5b60048054604051636e5f691960e01b81526101009091046001600160a01b031691636e5f6919916110f09187918791879101615ada565b836001600160a01b0381163314612a6257612a62336137d0565b600b54600160b01b900460ff168015612a8357506001600160a01b03851615155b8015612a9757506001600160a01b03841615155b15611e8f5760405163c9e36d3f60e01b815260040160405180910390fd5b848314612ad45760405162461bcd60e51b8152600401610b959061560b565b336001600160a01b0389161480612b0e57506001600160a01b038816600090815260016020908152604080832033845290915290205460ff165b612b4b5760405162461bcd60e51b815260206004820152600e60248201526d1393d517d055551213d49256915160921b6044820152606401610b95565b60008060005b87811015612c0657888882818110612b6b57612b6b6154dc565b905060200201359250868682818110612b8657612b866154dc565b6001600160a01b038e1660009081526020818152604080832089845282528220805493909102949094013595508593925090612bc39084906155f8565b90915550506001600160a01b038a1660009081526020818152604080832086845290915281208054849290612bf99084906155e5565b9091555050600101612b51565b50886001600160a01b03168a6001600160a01b0316336001600160a01b03167f4a39dc06d4c0dbc64b70af90fd698a233a518aa5d07e595d983b8c0526c8f7fb8b8b8b8b604051612c5a9493929190615b6f565b60405180910390a46001600160a01b0389163b15612d015760405163bc197c8160e01b808252906001600160a01b038b169063bc197c8190612cae9033908f908e908e908e908e908e908e90600401615bbf565b6020604051808303816000875af1158015612ccd573d6000803e3d6000fd5b505050506040513d601f19601f82011682018060405250810190612cf19190615c23565b6001600160e01b03191614612d0e565b6001600160a01b03891615155b6120585760405162461bcd60e51b8152600401610b9590615c40565b611ec78133613f93565b612d3e8282611eca565b6114c55760008281526003602090815260408083206001600160a01b03851684529091529020805460ff19166001179055612d763390565b6001600160a01b0316816001600160a01b0316837f2f8788117e7eff1d82e926ec794901d17c78024a50270940304540a733656f0d60405160405180910390a45050565b6002546001600160a01b03620100009091041633146115e45760405162461bcd60e51b815260206004820181905260248201527f4f776e61626c653a2063616c6c6572206973206e6f7420746865206f776e65726044820152606401610b95565b612e258282611eca565b156114c55760008281526003602090815260408083206001600160a01b0385168085529252808320805460ff1916905551339285917ff6391f5c32d9c69d2a47ea670b442974b53935d1edc7fd64eb21e047a839171b9190a45050565b60045460ff166115e457604051636cd6020160e01b815260040160405180910390fd5b612ead612e82565b6004805460ff19169055565b6000828152600c6020908152604080832054808452600d83528184208251606081018452600390910180546001600160a01b0381168352600160a01b81046001600160581b0316958301959095529194939092830190600160f81b900460ff166002811115612f2a57612f2a61507b565b6002811115612f3b57612f3b61507b565b90525080519091506001600160a01b031615801590612fbf5750600081604001516002811115612f6d57612f6d61507b565b1480612f965750828015612f965750600181604001516002811115612f9457612f9461507b565b145b80612fbf575082158015612fbf5750600281604001516002811115612fbd57612fbd61507b565b145b15610cfb57602081015181516040516370a0823160e01b81523360048201526001600160581b03909216916001600160a01b03909116906370a08231906024016020604051808303816000875af115801561301e573d6000803e3d6000fd5b505050506040513d601f19601f820116820180604052508101906130429190615ac1565b1015610cfb5760405163b4827f4960e01b815260040160405180910390fd5b60045460ff16156115e4576040516313d0ff5960e31b815260040160405180910390fd5b6000868152600c60209081526040808320548352600d8252808320815161012081018352815463ffffffff80821683526401000000008204811683870152600160401b8204811683860152600160601b82048116606080850191909152600160801b830482166080850152600160a01b9283900490911660a084015260018401546001600160601b031660c084015260028085015460e0850152855191820186526003850180546001600160a01b03811684529384046001600160581b031697830197909752929593946101008701949193919290840191600160f81b90910460ff16908111156131785761317861507b565b60028111156131895761318961507b565b905250905250604081015190915063ffffffff164210806131b35750806060015163ffffffff1642115b156131d157604051633844da5760e21b815260040160405180910390fd5b80516000888152600e602052604090205463ffffffff909116906131f69088906155e5565b111561321557604051633e0866c760e01b815260040160405180910390fd5b600061329a84848080602002602001604051908101604052809392919081815260200183836020028082843760009201919091525050505060e08401516040516bffffffffffffffffffffffff1960608e901b166020820152603481018a90526054810189905260740160405160208183030381529060405280519060200120613fec565b905080610f5c57604051630d5f220960e31b815260040160405180910390fd5b6132d26000856132c986613c87565b61274286613c87565b610cfb84848484614002565b8015611ec757600f54604080516319b400eb60e21b815290516000926001600160a01b0316916366d003ac9160048083019260209291908290030181865afa15801561332e573d6000803e3d6000fd5b505050506040513d601f19601f8201168201806040525081019061335291906155c8565b6001600160a01b03168260405160006040518083038185875af1925050503d806000811461339c576040519150601f19603f3d011682016040523d82523d6000602084013e6133a1565b606091505b50509050806114c557604051634033e4e360e01b815260040160405180910390fd5b8015611ec757604051600090339083908381818185875af1925050503d806000811461340b576040519150601f19603f3d011682016040523d82523d6000602084013e613410565b606091505b50509050806114c557604051633c31275160e21b815260040160405180910390fd5b600280546001600160a01b038381166201000081810262010000600160b01b031985161790945560405193909204169182907f8be0079c531659141344cd1fd0a4f28419497f9722a3daafe3b4186f6b6457e090600090a35050565b6005546040516000916001600160a01b03169047908381818185875af1925050503d80600081146134db576040519150601f19603f3d011682016040523d82523d6000602084013e6134e0565b606091505b5050905080611ec75760405162461bcd60e51b815260206004820152601f60248201527f436f756c64206e6f74207472616e736665722045544820746f2073706c6974006044820152606401610b95565b61353a826129cb565b6000828152600c6020908152604080832054808452600d8352818420825161012081018452815463ffffffff80821683526401000000008204811683880152600160401b8204811683870152600160601b82048116606080850191909152600160801b830482166080850152600160a01b9283900490911660a084015260018401546001600160601b031660c084015260028085015460e0850152865191820187526003850180546001600160a01b03811684529384046001600160581b0316988301989098529497969295939461010087019491939291840191600160f81b900460ff169081111561362f5761362f61507b565b60028111156136405761364061507b565b9052509052506000858152600e602052604090205460808201519192509063ffffffff1642108061367a57508160a0015163ffffffff1642115b156136985760405163b7b2409760e01b815260040160405180910390fd5b815163ffffffff166136aa85836155e5565b11156136c957604051633e0866c760e01b815260040160405180910390fd5b6020808301516001600160a01b03881660009081528083526040808220898352909352919091205463ffffffff909116906137059086906155e5565b111561275557604051630c041fdb60e11b815260040160405180910390fd5b61372c613061565b6004805460ff19166001179055565b806001600160801b0316826001600160801b0316111561376e576040516328704ad560e01b815260040160405180910390fd5b806001600160801b03166080836001600160801b0316901b176008819055505050565b6127108161ffff1611156137b857604051632ceed3e760e01b815260040160405180910390fd5b600b805461ffff191661ffff92909216919091179055565b6daaeb6d7670e522a718067333cd4e3b15611ec757604051633185c44d60e21b81523060048201526001600160a01b03821660248201526daaeb6d7670e522a718067333cd4e9063c617113490604401602060405180830381865afa15801561383d573d6000803e3d6000fd5b505050506040513d601f19601f82011682018060405250810190613861919061555a565b611ec757604051633b79c77360e21b81526001600160a01b0382166004820152602401610b95565b3360008181526001602090815260408083206001600160a01b03871680855290835292819020805460ff191686151590811790915590519081529192917f17307eab39ab6107e8899845ad3d59bd9653f200f220920489ca2b5937696c31910160405180910390a35050565b61390d33600061390485613c87565b61274285613c87565b61122c838383614144565b6010546000906001600160a01b031615613ac0576010546040805163313ce56760e01b815290516000926001600160a01b03169163313ce5679160048083019260209291908290030181865afa158015613976573d6000803e3d6000fd5b505050506040513d601f19601f8201168201806040525081019061399a9190615c6a565b60ff1690506000601060009054906101000a90046001600160a01b03166001600160a01b031663feaf968c6040518163ffffffff1660e01b815260040160a060405180830381865afa1580156139f4573d6000803e3d6000fd5b505050506040513d601f19601f82011682018060405250810190613a189190615ca7565b50505091505060006012831115613a4e57613a346012846155f8565b613a3f90600a615ddb565b613a499083615538565b613a6e565b613a598360126155f8565b613a6490600a615ddb565b613a6e9083615521565b6000868152600c60209081526040808320548352600d9091529020600101549091508190613aad906001600160601b0316670de0b6b3a7640000615521565b613ab79190615538565b95945050505050565b506000908152600c60209081526040808320548352600d9091529020600101546001600160601b031690565b613af96000858585612a48565b610cfb848484846141c8565b6000613b118280615654565b915060009050613b246040840184615654565b9150613b3590506020840184615654565b905082141580613b535750613b4d606084018461569d565b90508114155b15613b715760405163512509d360e11b815260040160405180910390fd5b60005b82811015613bf6576000613b888580615654565b83818110613b9857613b986154dc565b9050602002013590506000858060200190613bb39190615654565b84818110613bc357613bc36154dc565b905060200201359050613bd5826129cb565b613bde816129cb565b6000918252600c602052604090912055600101613b74565b5060005b81811015610cfb576000613c116040860186615654565b83818110613c2157613c216154dc565b90506020020135905036858060600190613c3b919061569d565b84818110613c4b57613c4b6154dc565b905061016002019050613c5d826129cb565b6000828152600d602052604090208190613c778282615959565b505060019092019150613bfa9050565b60408051600180825281830190925260609160009190602080830190803683370190505090508281600081518110613cc157613cc16154dc565b602090810291909101015292915050565b336001600160a01b0387161480613d0c57506001600160a01b038616600090815260016020908152604080832033845290915290205460ff165b613d495760405162461bcd60e51b815260206004820152600e60248201526d1393d517d055551213d49256915160921b6044820152606401610b95565b6001600160a01b03861660009081526020818152604080832087845290915281208054859290613d7a9084906155f8565b90915550506001600160a01b03851660009081526020818152604080832087845290915281208054859290613db09084906155e5565b909155505060408051858152602081018590526001600160a01b03808816929089169133917fc3d58168c5ae7397731d063d5bbf3d657854427343f4c083240f7aacaa2d0f62910160405180910390a46001600160a01b0385163b15613e9b5760405163f23a6e6160e01b808252906001600160a01b0387169063f23a6e6190613e489033908b908a908a908a908a90600401615de7565b6020604051808303816000875af1158015613e67573d6000803e3d6000fd5b505050506040513d601f19601f82011682018060405250810190613e8b9190615c23565b6001600160e01b03191614613ea8565b6001600160a01b03851615155b6127555760405162461bcd60e51b8152600401610b9590615c40565b613ecd826129cb565b80516000838152600c60209081526040808320548352600d825280832054868452600e9092529091205463ffffffff90911690613f0b9083906155e5565b1115613f2a5760405163373f5c5960e11b815260040160405180910390fd5b60005b81811015613f78576000838281518110613f4957613f496154dc565b60200260200101519050613f6f81866001604051806020016040528060008152506132ba565b50600101613f2d565b506000928352600e6020526040909220805490920190915550565b613f9d8282611eca565b6114c557613faa81614395565b613fb58360206143a7565b604051602001613fc6929190615e2e565b60408051601f198184030181529082905262461bcd60e51b8252610b9591600401614871565b600082613ff98584614549565b14949350505050565b6001600160a01b038416600090815260208181526040808320868452909152812080548492906140339084906155e5565b909155505060408051848152602081018490526001600160a01b0386169160009133917fc3d58168c5ae7397731d063d5bbf3d657854427343f4c083240f7aacaa2d0f62910160405180910390a46001600160a01b0384163b1561411b5760405163f23a6e6160e01b808252906001600160a01b0386169063f23a6e61906140c8903390600090899089908990600401615ea3565b6020604051808303816000875af11580156140e7573d6000803e3d6000fd5b505050506040513d601f19601f8201168201806040525081019061410b9190615c23565b6001600160e01b03191614614128565b6001600160a01b03841615155b610cfb5760405162461bcd60e51b8152600401610b9590615c40565b6001600160a01b038316600090815260208181526040808320858452909152812080548392906141759084906155f8565b909155505060408051838152602081018390526000916001600160a01b0386169133917fc3d58168c5ae7397731d063d5bbf3d657854427343f4c083240f7aacaa2d0f62910160405180910390a4505050565b8251825181146141ea5760405162461bcd60e51b8152600401610b959061560b565b60005b8181101561427957838181518110614207576142076154dc565b6020026020010151600080886001600160a01b03166001600160a01b031681526020019081526020016000206000878481518110614247576142476154dc565b60200260200101518152602001908152602001600020600082825461426c91906155e5565b90915550506001016141ed565b50846001600160a01b031660006001600160a01b0316336001600160a01b03167f4a39dc06d4c0dbc64b70af90fd698a233a518aa5d07e595d983b8c0526c8f7fb87876040516142ca929190615edd565b60405180910390a46001600160a01b0385163b1561436c5760405163bc197c8160e01b808252906001600160a01b0387169063bc197c81906143199033906000908a908a908a90600401615f02565b6020604051808303816000875af1158015614338573d6000803e3d6000fd5b505050506040513d601f19601f8201168201806040525081019061435c9190615c23565b6001600160e01b03191614614379565b6001600160a01b03851615155b611e8f5760405162461bcd60e51b8152600401610b9590615c40565b6060610c5b6001600160a01b03831660145b606060006143b6836002615521565b6143c19060026155e5565b6001600160401b038111156143d8576143d8614747565b6040519080825280601f01601f191660200182016040528015614402576020820181803683370190505b509050600360fc1b8160008151811061441d5761441d6154dc565b60200101906001600160f81b031916908160001a905350600f60fb1b8160018151811061444c5761444c6154dc565b60200101906001600160f81b031916908160001a9053506000614470846002615521565b61447b9060016155e5565b90505b60018111156144f3576f181899199a1a9b1b9c1cb0b131b232b360811b85600f16601081106144af576144af6154dc565b1a60f81b8282815181106144c5576144c56154dc565b60200101906001600160f81b031916908160001a90535060049490941c936144ec81615f54565b905061447e565b5083156145425760405162461bcd60e51b815260206004820181905260248201527f537472696e67733a20686578206c656e67746820696e73756666696369656e746044820152606401610b95565b9392505050565b600081815b845181101561458e5761457a8286838151811061456d5761456d6154dc565b6020026020010151614596565b91508061458681615508565b91505061454e565b509392505050565b60008183106145b2576000828152602084905260409020614542565b6000838152602083905260409020614542565b6001600160a01b0381168114611ec757600080fd5b60008083601f8401126145ec57600080fd5b5081356001600160401b0381111561460357600080fd5b6020830191508360208260051b850101111561100257600080fd5b63ffffffff81168114611ec757600080fd5b803561463b816145c5565b919050565b600080600080600080600060a0888a03121561465b57600080fd5b8735614666816145c5565b965060208801356001600160401b038082111561468257600080fd5b61468e8b838c016145da565b909850965060408a01359150808211156146a757600080fd5b506146b48a828b016145da565b90955093505060608801356146c88161461e565b915060808801356146d8816145c5565b8091505092959891949750929550565b600080604083850312156146fb57600080fd5b8235614706816145c5565b946020939093013593505050565b6001600160e01b031981168114611ec757600080fd5b60006020828403121561473c57600080fd5b813561454281614714565b634e487b7160e01b600052604160045260246000fd5b604051601f8201601f191681016001600160401b038111828210171561478557614785614747565b604052919050565b600060208083850312156147a057600080fd5b82356001600160401b03808211156147b757600080fd5b818501915085601f8301126147cb57600080fd5b8135818111156147dd576147dd614747565b6147ef601f8201601f1916850161475d565b9150808252868482850101111561480557600080fd5b8084840185840137600090820190930192909252509392505050565b60005b8381101561483c578181015183820152602001614824565b50506000910152565b6000815180845261485d816020860160208601614821565b601f01601f19169290920160200192915050565b6020815260006145426020830184614845565b60006020828403121561489657600080fd5b5035919050565b600080604083850312156148b057600080fd5b50508035926020909101359150565b600082601f8301126148d057600080fd5b813560206001600160401b038211156148eb576148eb614747565b8160051b6148fa82820161475d565b928352848101820192828101908785111561491457600080fd5b83870192505b8483101561493c57823561492d816145c5565b8252918301919083019061491a565b979650505050505050565b600080600080600080600080600060e08a8c03121561496557600080fd5b8935614970816145c5565b985060208a0135975060408a01356001600160401b038082111561499357600080fd5b61499f8d838e016148bf565b985060608c01359150808211156149b557600080fd5b6149c18d838e016145da565b909850965060808c01359150808211156149da57600080fd5b506149e78c828d016145da565b90955093505060a08a01356149fb8161461e565b9150614a0960c08b01614630565b90509295985092959850929598565b8015158114611ec757600080fd5b60008060408385031215614a3957600080fd5b8235614a4481614a18565b91506020830135614a54816145c5565b809150509250929050565b60008083601f840112614a7157600080fd5b5081356001600160401b03811115614a8857600080fd5b60208301915083602082850101111561100257600080fd5b60008060008060008060008060a0898b031215614abc57600080fd5b8835614ac7816145c5565b97506020890135614ad7816145c5565b965060408901356001600160401b0380821115614af357600080fd5b614aff8c838d016145da565b909850965060608b0135915080821115614b1857600080fd5b614b248c838d016145da565b909650945060808b0135915080821115614b3d57600080fd5b50614b4a8b828c01614a5f565b999c989b5096995094979396929594505050565b60008060408385031215614b7157600080fd5b823591506020830135614a54816145c5565b60008060008060008060808789031215614b9c57600080fd5b8635614ba7816145c5565b955060208701356001600160401b0380821115614bc357600080fd5b614bcf8a838b016145da565b90975095506040890135915080821115614be857600080fd5b50614bf589828a016145da565b9094509250506060870135614c098161461e565b809150509295509295509295565b600060208284031215614c2957600080fd5b8135614542816145c5565b600080600080600080600060c0888a031215614c4f57600080fd5b8735614c5a816145c5565b96506020880135955060408801359450606088013593506080880135925060a08801356001600160401b03811115614c9157600080fd5b614c9d8a828b016145da565b989b979a50959850939692959293505050565b60008060008060408587031215614cc657600080fd5b84356001600160401b0380821115614cdd57600080fd5b614ce9888389016145da565b90965094506020870135915080821115614d0257600080fd5b50614d0f878288016145da565b95989497509550505050565b600081518084526020808501945080840160005b83811015614d4b57815187529582019590820190600101614d2f565b509495945050505050565b6020815260006145426020830184614d1b565b60008060408385031215614d7c57600080fd5b8235915060208301356001600160401b03811115614d9957600080fd5b610ffe858286016148bf565b600080600060608486031215614dba57600080fd5b833592506020840135614dcc816145c5565b929592945050506040919091013590565b80356001600160801b038116811461463b57600080fd5b60006080828403121561207c57600080fd5b60008060408385031215614e1957600080fd5b614e2283614ddd565b915060208301356001600160401b03811115614e3d57600080fd5b610ffe85828601614df4565b600060208284031215614e5b57600080fd5b813561ffff8116811461454257600080fd5b60008060408385031215614e8057600080fd5b8235614e8b816145c5565b91506020830135614a5481614a18565b60008060008060008060808789031215614eb457600080fd5b86356001600160401b0380821115614ecb57600080fd5b614ed78a838b016145da565b90985096506020890135915080821115614ef057600080fd5b50614efd89828a016145da565b9095509350506040870135614f118161461e565b91506060870135614c09816145c5565b600080600080600060608688031215614f3957600080fd5b8535614f44816145c5565b945060208601356001600160401b0380821115614f6057600080fd5b614f6c89838a016145da565b90965094506040880135915080821115614f8557600080fd5b50614f92888289016145da565b969995985093965092949392505050565b6000806000808486036101c0811215614fbb57600080fd5b8535614fc6816145c5565b945060208601356001600160401b0380821115614fe257600080fd5b90870190610180828a031215614ff757600080fd5b819550610160603f198401121561500d57600080fd5b6040880194506101a088013592508083111561502857600080fd5b505061503687828801614df4565b91505092959194509250565b6000806040838503121561505557600080fd5b8235614a44816145c5565b60006020828403121561507257600080fd5b61454282614ddd565b634e487b7160e01b600052602160045260246000fd5b80516001600160a01b031682526020808201516001600160581b0316908301526040810151600381106150d457634e487b7160e01b600052602160045260246000fd5b806040840152505050565b815163ffffffff908116825260208084015182169083015260408084015182169083015260608084015182169083015260808084015182169083015260a080840151918216908301526101608201905060c083015161514960c08401826001600160601b03169052565b5060e083015160e08301526101008084015161516782850182615091565b505092915050565b60008060008060008060a0878903121561518857600080fd5b8635615193816145c5565b955060208701356151a3816145c5565b9450604087013593506060870135925060808701356001600160401b038111156151cc57600080fd5b6151d889828a01614a5f565b979a9699509497509295939492505050565b60208082526015908201527414dc1b1a5d081b9bdd0818dc99585d1959081e595d605a1b604082015260600190565b8183526000602080850194508260005b85811015614d4b57813561523c816145c5565b6001600160a01b031687529582019590820190600101615229565b8183526000602080850194508260005b85811015614d4b57813561527a8161461e565b63ffffffff1687529582019590820190600101615267565b600060018060a01b03808b168352808a16602084015260c060408401526152bd60c08401898b615219565b83810360608501526152d081888a615257565b63ffffffff969096166080850152509290921660a090910152509695505050505050565b600181811c9082168061530857607f821691505b60208210810361207c57634e487b7160e01b600052602260045260246000fd5b601f82111561122c57600081815260208120601f850160051c8101602086101561534f5750805b601f850160051c820191505b818110156127555782815560010161535b565b81516001600160401b0381111561538757615387614747565b61539b8161539584546152f4565b84615328565b602080601f8311600181146153d057600084156153b85750858301515b600019600386901b1c1916600185901b178555612755565b600085815260208120601f198616915b828110156153ff578886015182559484019460019091019084016153e0565b508582101561541d5787850151600019600388901b60f8161c191681555b5050505050600190811b01905550565b6000602080835260008454615441816152f4565b80848701526040600180841660008114615462576001811461547c576154aa565b60ff1985168984015283151560051b8901830195506154aa565b896000528660002060005b858110156154a25781548b8201860152908301908801615487565b8a0184019650505b509398975050505050505050565b600080604083850312156154cb57600080fd5b505080516020909101519092909150565b634e487b7160e01b600052603260045260246000fd5b634e487b7160e01b600052601160045260246000fd5b60006001820161551a5761551a6154f2565b5060010190565b8082028115828204841417610c5b57610c5b6154f2565b60008261555557634e487b7160e01b600052601260045260246000fd5b500490565b60006020828403121561556c57600080fd5b815161454281614a18565b60808152600061558b60808301888a615219565b828103602084015261559e818789615257565b63ffffffff95909516604084015250506001600160a01b0391909116606090910152949350505050565b6000602082840312156155da57600080fd5b8151614542816145c5565b80820180821115610c5b57610c5b6154f2565b81810381811115610c5b57610c5b6154f2565b6020808252600f908201526e0988a9c8ea890be9a92a69a82a8869608b1b604082015260600190565b6001600160801b03818116838216019080821115610ec957610ec96154f2565b6000808335601e1984360301811261566b57600080fd5b8301803591506001600160401b0382111561568557600080fd5b6020019150600581901b360382131561100257600080fd5b6000808335601e198436030181126156b457600080fd5b8301803591506001600160401b038211156156ce57600080fd5b60200191506101608102360382131561100257600080fd5b6000602082840312156156f857600080fd5b81356145428161461e565b6001600160601b0381168114611ec757600080fd5b60006020828403121561572a57600080fd5b813561454281615703565b600060018060a01b03808a16835260a0602084015261575860a08401898b615219565b838103604085015261576b81888a615257565b63ffffffff96909616606085015250929092166080909101525095945050505050565b6000808335601e198436030181126157a557600080fd5b8301803591506001600160401b038211156157bf57600080fd5b60200191503681900382131561100257600080fd5b6001600160401b038311156157eb576157eb614747565b6157ff836157f983546152f4565b83615328565b6000601f841160018114615833576000851561581b5750838201355b600019600387901b1c1916600186901b178355611e8f565b600083815260209020601f19861690835b828110156158645786850135825560209485019460019092019101615844565b50868210156158815760001960f88860031b161c19848701351681555b505060018560011b0183555050505050565b6000602082840312156158a557600080fd5b813561454281614a18565b60008135610c5b8161461e565b60008135610c5b81615703565b81356158d5816145c5565b81546001600160a01b031981166001600160a01b0392909216918217835560208401356001600160581b038116811461590d57600080fd5b6affffffffffffffffffffff60a01b60a09190911b166001600160f81b03199182168317811784556040850135916003831061594857600080fd5b921760f89190911b90911617905550565b81356159648161461e565b63ffffffff811663ffffffff19835416178255506159a9615987602084016158b0565b825467ffffffff00000000191660209190911b67ffffffff0000000016178255565b6159dd6159b8604084016158b0565b825463ffffffff60401b191660409190911b6bffffffff000000000000000016178255565b615a106159ec606084016158b0565b82805463ffffffff60601b191660609290921b63ffffffff60601b16919091179055565b615a43615a1f608084016158b0565b82805463ffffffff60801b191660809290921b63ffffffff60801b16919091179055565b615a76615a5260a084016158b0565b82805463ffffffff60a01b191660a09290921b63ffffffff60a01b16919091179055565b615aa6615a8560c084016158bd565b600183016001600160601b0382166001600160601b03198254161781555050565b60e082013560028201556114c56101008301600383016158ca565b600060208284031215615ad357600080fd5b5051919050565b6001600160a01b038481168252602080830185905260606040840181905284519084018190526000928583019290916080860190855b81811015615b2e578551851683529483019491830191600101615b10565b50909998505050505050505050565b81835260006001600160fb1b03831115615b5657600080fd5b8260051b80836020870137939093016020019392505050565b604081526000615b83604083018688615b3d565b828103602084015261493c818587615b3d565b81835281816020850137506000828201602090810191909152601f909101601f19169091010190565b6001600160a01b0389811682528816602082015260a060408201819052600090615bec908301888a615b3d565b8281036060840152615bff818789615b3d565b90508281036080840152615c14818587615b96565b9b9a5050505050505050505050565b600060208284031215615c3557600080fd5b815161454281614714565b60208082526010908201526f155394d0519157d49150d2541251539560821b604082015260600190565b600060208284031215615c7c57600080fd5b815160ff8116811461454257600080fd5b805169ffffffffffffffffffff8116811461463b57600080fd5b600080600080600060a08688031215615cbf57600080fd5b615cc886615c8d565b9450602086015193506040860151925060608601519150615ceb60808701615c8d565b90509295509295909350565b600181815b80851115615d32578160001904821115615d1857615d186154f2565b80851615615d2557918102915b93841c9390800290615cfc565b509250929050565b600082615d4957506001610c5b565b81615d5657506000610c5b565b8160018114615d6c5760028114615d7657615d92565b6001915050610c5b565b60ff841115615d8757615d876154f2565b50506001821b610c5b565b5060208310610133831016604e8410600b8410161715615db5575081810a610c5b565b615dbf8383615cf7565b8060001904821115615dd357615dd36154f2565b029392505050565b60006145428383615d3a565b6001600160a01b03878116825286166020820152604081018590526060810184905260a060808201819052600090615e229083018486615b96565b98975050505050505050565b7f416363657373436f6e74726f6c3a206163636f756e7420000000000000000000815260008351615e66816017850160208801614821565b7001034b99036b4b9b9b4b733903937b6329607d1b6017918401918201528351615e97816028840160208801614821565b01602801949350505050565b6001600160a01b03868116825285166020820152604081018490526060810183905260a06080820181905260009061493c90830184614845565b604081526000615ef06040830185614d1b565b8281036020840152613ab78185614d1b565b6001600160a01b0386811682528516602082015260a060408201819052600090615f2e90830186614d1b565b8281036060840152615f408186614d1b565b90508281036080840152615e228185614845565b600081615f6357615f636154f2565b50600019019056fea26469706673582212204c9b9abb141748fa55292e9613d9fc1acca3c95b26a531cc4df8d86557c09c0564736f6c63430008110033",
  "linkReferences": {},
  "deployedLinkReferences": {}
}