{
  "_format": "hh-sol-artifact-1",
  "contractName": "DCNT4907A",
  "sourceName": "contracts/DCNT4907A.sol",
  "abi": [
    {
      "inputs": [],
      "name": "ApprovalCallerNotOwnerNorApproved",
      "type": "error"
    },
    {
      "inputs": [],
      "name": "ApprovalQueryForNonexistentToken",
      "type": "error"
    },
    {
      "inputs": [],
      "name": "ApproveToCaller",
      "type": "error"
    },
    {
      "inputs": [],
      "name": "BalanceQueryForZeroAddress",
      "type": "error"
    },
    {
      "inputs": [],
      "name": "MintERC2309QuantityExceedsLimit",
      "type": "error"
    },
    {
      "inputs": [],
      "name": "MintToZeroAddress",
      "type": "error"
    },
    {
      "inputs": [],
      "name": "MintZeroQuantity",
      "type": "error"
    },
    {
      "inputs": [],
      "name": "OwnerQueryForNonexistentToken",
      "type": "error"
    },
    {
      "inputs": [],
      "name": "OwnershipNotInitializedForExtraData",
      "type": "error"
    },
    {
      "inputs": [],
      "name": "SetUserCallerNotOwnerNorApproved",
      "type": "error"
    },
    {
      "inputs": [],
      "name": "TransferCallerNotOwnerNorApproved",
      "type": "error"
    },
    {
      "inputs": [],
      "name": "TransferFromIncorrectOwner",
      "type": "error"
    },
    {
      "inputs": [],
      "name": "TransferToNonERC721ReceiverImplementer",
      "type": "error"
    },
    {
      "inputs": [],
      "name": "TransferToZeroAddress",
      "type": "error"
    },
    {
      "inputs": [],
      "name": "URIQueryForNonexistentToken",
      "type": "error"
    },
    {
      "anonymous": false,
      "inputs": [
        {
          "indexed": true,
          "internalType": "address",
          "name": "owner",
          "type": "address"
        },
        {
          "indexed": true,
          "internalType": "address",
          "name": "approved",
          "type": "address"
        },
        {
          "indexed": true,
          "internalType": "uint256",
          "name": "tokenId",
          "type": "uint256"
        }
      ],
      "name": "Approval",
      "type": "event"
    },
    {
      "anonymous": false,
      "inputs": [
        {
          "indexed": true,
          "internalType": "address",
          "name": "owner",
          "type": "address"
        },
        {
          "indexed": true,
          "internalType": "address",
          "name": "operator",
          "type": "address"
        },
        {
          "indexed": false,
          "internalType": "bool",
          "name": "approved",
          "type": "bool"
        }
      ],
      "name": "ApprovalForAll",
      "type": "event"
    },
    {
      "anonymous": false,
      "inputs": [
        {
          "indexed": true,
          "internalType": "uint256",
          "name": "fromTokenId",
          "type": "uint256"
        },
        {
          "indexed": false,
          "internalType": "uint256",
          "name": "toTokenId",
          "type": "uint256"
        },
        {
          "indexed": true,
          "internalType": "address",
          "name": "from",
          "type": "address"
        },
        {
          "indexed": true,
          "internalType": "address",
          "name": "to",
          "type": "address"
        }
      ],
      "name": "ConsecutiveTransfer",
      "type": "event"
    },
    {
      "anonymous": false,
      "inputs": [
        {
          "indexed": false,
          "internalType": "uint8",
          "name": "version",
          "type": "uint8"
        }
      ],
      "name": "Initialized",
      "type": "event"
    },
    {
      "anonymous": false,
      "inputs": [
        {
          "indexed": false,
          "internalType": "address",
          "name": "sender",
          "type": "address"
        },
        {
          "indexed": false,
          "internalType": "uint256",
          "name": "tokenId_",
          "type": "uint256"
        }
      ],
      "name": "Minted",
      "type": "event"
    },
    {
      "anonymous": false,
      "inputs": [
        {
          "indexed": true,
          "internalType": "address",
          "name": "previousOwner",
          "type": "address"
        },
        {
          "indexed": true,
          "internalType": "address",
          "name": "newOwner",
          "type": "address"
        }
      ],
      "name": "OwnershipTransferred",
      "type": "event"
    },
    {
      "anonymous": false,
      "inputs": [
        {
          "indexed": true,
          "internalType": "address",
          "name": "from",
          "type": "address"
        },
        {
          "indexed": true,
          "internalType": "address",
          "name": "to",
          "type": "address"
        },
        {
          "indexed": true,
          "internalType": "uint256",
          "name": "tokenId",
          "type": "uint256"
        }
      ],
      "name": "Transfer",
      "type": "event"
    },
    {
      "anonymous": false,
      "inputs": [
        {
          "indexed": true,
          "internalType": "uint256",
          "name": "tokenId",
          "type": "uint256"
        },
        {
          "indexed": true,
          "internalType": "address",
          "name": "user",
          "type": "address"
        },
        {
          "indexed": false,
          "internalType": "uint64",
          "name": "expires",
          "type": "uint64"
        }
      ],
      "name": "UpdateUser",
      "type": "event"
    },
    {
      "inputs": [],
      "name": "MAX_TOKENS",
      "outputs": [
        {
          "internalType": "uint256",
          "name": "",
          "type": "uint256"
        }
      ],
      "stateMutability": "view",
      "type": "function"
    },
    {
      "inputs": [
        {
          "internalType": "uint256",
          "name": "newCap",
          "type": "uint256"
        }
      ],
      "name": "adjustCap",
      "outputs": [],
      "stateMutability": "nonpayable",
      "type": "function"
    },
    {
      "inputs": [
        {
          "internalType": "address",
          "name": "to",
          "type": "address"
        },
        {
          "internalType": "uint256",
          "name": "tokenId",
          "type": "uint256"
        }
      ],
      "name": "approve",
      "outputs": [],
      "stateMutability": "nonpayable",
      "type": "function"
    },
    {
      "inputs": [
        {
          "internalType": "address",
          "name": "owner",
          "type": "address"
        }
      ],
      "name": "balanceOf",
      "outputs": [
        {
          "internalType": "uint256",
          "name": "",
          "type": "uint256"
        }
      ],
      "stateMutability": "view",
      "type": "function"
    },
    {
      "inputs": [],
      "name": "baseURI",
      "outputs": [
        {
          "internalType": "string",
          "name": "",
          "type": "string"
        }
      ],
      "stateMutability": "view",
      "type": "function"
    },
    {
      "inputs": [],
      "name": "contractURI",
      "outputs": [
        {
          "internalType": "string",
          "name": "",
          "type": "string"
        }
      ],
      "stateMutability": "view",
      "type": "function"
    },
    {
      "inputs": [
        {
          "internalType": "address[]",
          "name": "accounts",
          "type": "address[]"
        },
        {
          "internalType": "uint32[]",
          "name": "percentAllocations",
          "type": "uint32[]"
        },
        {
          "internalType": "uint32",
          "name": "distributorFee",
          "type": "uint32"
        }
      ],
      "name": "createSplit",
      "outputs": [],
      "stateMutability": "nonpayable",
      "type": "function"
    },
    {
      "inputs": [
        {
          "internalType": "address",
          "name": "account",
          "type": "address"
        },
        {
          "internalType": "uint256",
          "name": "withdrawETH",
          "type": "uint256"
        },
        {
          "internalType": "contract ERC20[]",
          "name": "tokens",
          "type": "address[]"
        },
        {
          "internalType": "address[]",
          "name": "accounts",
          "type": "address[]"
        },
        {
          "internalType": "uint32[]",
          "name": "percentAllocations",
          "type": "uint32[]"
        },
        {
          "internalType": "uint32",
          "name": "distributorFee",
          "type": "uint32"
        },
        {
          "internalType": "address",
          "name": "distributorAddress",
          "type": "address"
        }
      ],
      "name": "distributeAndWithdraw",
      "outputs": [],
      "stateMutability": "nonpayable",
      "type": "function"
    },
    {
      "inputs": [
        {
          "internalType": "contract ERC20",
          "name": "token",
          "type": "address"
        },
        {
          "internalType": "address[]",
          "name": "accounts",
          "type": "address[]"
        },
        {
          "internalType": "uint32[]",
          "name": "percentAllocations",
          "type": "uint32[]"
        },
        {
          "internalType": "uint32",
          "name": "distributorFee",
          "type": "uint32"
        },
        {
          "internalType": "address",
          "name": "distributorAddress",
          "type": "address"
        }
      ],
      "name": "distributeERC20",
      "outputs": [],
      "stateMutability": "nonpayable",
      "type": "function"
    },
    {
      "inputs": [
        {
          "internalType": "address[]",
          "name": "accounts",
          "type": "address[]"
        },
        {
          "internalType": "uint32[]",
          "name": "percentAllocations",
          "type": "uint32[]"
        },
        {
          "internalType": "uint32",
          "name": "distributorFee",
          "type": "uint32"
        },
        {
          "internalType": "address",
          "name": "distributorAddress",
          "type": "address"
        }
      ],
      "name": "distributeETH",
      "outputs": [],
      "stateMutability": "nonpayable",
      "type": "function"
    },
    {
      "inputs": [],
      "name": "flipSaleState",
      "outputs": [],
      "stateMutability": "nonpayable",
      "type": "function"
    },
    {
      "inputs": [
        {
          "internalType": "uint256",
          "name": "tokenId",
          "type": "uint256"
        }
      ],
      "name": "getApproved",
      "outputs": [
        {
          "internalType": "address",
          "name": "",
          "type": "address"
        }
      ],
      "stateMutability": "view",
      "type": "function"
    },
    {
      "inputs": [],
      "name": "hasAdjustableCap",
      "outputs": [
        {
          "internalType": "bool",
          "name": "",
          "type": "bool"
        }
      ],
      "stateMutability": "view",
      "type": "function"
    },
    {
      "inputs": [
        {
          "internalType": "address",
          "name": "_owner",
          "type": "address"
        },
        {
          "components": [
            {
              "internalType": "string",
              "name": "name",
              "type": "string"
            },
            {
              "internalType": "string",
              "name": "symbol",
              "type": "string"
            },
            {
              "internalType": "bool",
              "name": "hasAdjustableCap",
              "type": "bool"
            },
            {
              "internalType": "uint256",
              "name": "maxTokens",
              "type": "uint256"
            },
            {
              "internalType": "uint256",
              "name": "tokenPrice",
              "type": "uint256"
            },
            {
              "internalType": "uint256",
              "name": "maxTokenPurchase",
              "type": "uint256"
            },
            {
              "internalType": "bytes32",
              "name": "presaleMerkleRoot",
              "type": "bytes32"
            },
            {
              "internalType": "uint256",
              "name": "presaleStart",
              "type": "uint256"
            },
            {
              "internalType": "uint256",
              "name": "presaleEnd",
              "type": "uint256"
            },
            {
              "internalType": "uint256",
              "name": "saleStart",
              "type": "uint256"
            },
            {
              "internalType": "uint256",
              "name": "saleEnd",
              "type": "uint256"
            },
            {
              "internalType": "uint256",
              "name": "royaltyBPS",
              "type": "uint256"
            }
          ],
          "internalType": "struct EditionConfig",
          "name": "_editionConfig",
          "type": "tuple"
        },
        {
          "components": [
            {
              "internalType": "string",
              "name": "contractURI",
              "type": "string"
            },
            {
              "internalType": "string",
              "name": "metadataURI",
              "type": "string"
            },
            {
              "internalType": "bytes",
              "name": "metadataRendererInit",
              "type": "bytes"
            },
            {
              "internalType": "address",
              "name": "parentIP",
              "type": "address"
            }
          ],
          "internalType": "struct MetadataConfig",
          "name": "_metadataConfig",
          "type": "tuple"
        },
        {
          "components": [
            {
              "internalType": "address",
              "name": "tokenAddress",
              "type": "address"
            },
            {
              "internalType": "uint88",
              "name": "minBalance",
              "type": "uint88"
            },
            {
              "internalType": "enum SaleType",
              "name": "saleType",
              "type": "uint8"
            }
          ],
          "internalType": "struct TokenGateConfig",
          "name": "_tokenGateConfig",
          "type": "tuple"
        },
        {
          "internalType": "address",
          "name": "_metadataRenderer",
          "type": "address"
        },
        {
          "internalType": "address",
          "name": "_splitMain",
          "type": "address"
        }
      ],
      "name": "initialize",
      "outputs": [],
      "stateMutability": "nonpayable",
      "type": "function"
    },
    {
      "inputs": [
        {
          "internalType": "address",
          "name": "owner",
          "type": "address"
        },
        {
          "internalType": "address",
          "name": "operator",
          "type": "address"
        }
      ],
      "name": "isApprovedForAll",
      "outputs": [
        {
          "internalType": "bool",
          "name": "",
          "type": "bool"
        }
      ],
      "stateMutability": "view",
      "type": "function"
    },
    {
      "inputs": [],
      "name": "maxTokenPurchase",
      "outputs": [
        {
          "internalType": "uint256",
          "name": "",
          "type": "uint256"
        }
      ],
      "stateMutability": "view",
      "type": "function"
    },
    {
      "inputs": [],
      "name": "metadataRenderer",
      "outputs": [
        {
          "internalType": "address",
          "name": "",
          "type": "address"
        }
      ],
      "stateMutability": "view",
      "type": "function"
    },
    {
      "inputs": [
        {
          "internalType": "uint256",
          "name": "numberOfTokens",
          "type": "uint256"
        }
      ],
      "name": "mint",
      "outputs": [],
      "stateMutability": "payable",
      "type": "function"
    },
    {
      "inputs": [
        {
          "internalType": "address[]",
          "name": "recipients",
          "type": "address[]"
        }
      ],
      "name": "mintAirdrop",
      "outputs": [],
      "stateMutability": "nonpayable",
      "type": "function"
    },
    {
      "inputs": [
        {
          "internalType": "uint256",
          "name": "quantity",
          "type": "uint256"
        },
        {
          "internalType": "uint256",
          "name": "maxQuantity",
          "type": "uint256"
        },
        {
          "internalType": "uint256",
          "name": "pricePerToken",
          "type": "uint256"
        },
        {
          "internalType": "bytes32[]",
          "name": "merkleProof",
          "type": "bytes32[]"
        }
      ],
      "name": "mintPresale",
      "outputs": [],
      "stateMutability": "payable",
      "type": "function"
    },
    {
      "inputs": [],
      "name": "name",
      "outputs": [
        {
          "internalType": "string",
          "name": "",
          "type": "string"
        }
      ],
      "stateMutability": "view",
      "type": "function"
    },
    {
      "inputs": [],
      "name": "owner",
      "outputs": [
        {
          "internalType": "address",
          "name": "",
          "type": "address"
        }
      ],
      "stateMutability": "view",
      "type": "function"
    },
    {
      "inputs": [
        {
          "internalType": "uint256",
          "name": "tokenId",
          "type": "uint256"
        }
      ],
      "name": "ownerOf",
      "outputs": [
        {
          "internalType": "address",
          "name": "",
          "type": "address"
        }
      ],
      "stateMutability": "view",
      "type": "function"
    },
    {
      "inputs": [],
      "name": "parentIP",
      "outputs": [
        {
          "internalType": "address",
          "name": "",
          "type": "address"
        }
      ],
      "stateMutability": "view",
      "type": "function"
    },
    {
      "inputs": [],
      "name": "presaleEnd",
      "outputs": [
        {
          "internalType": "uint256",
          "name": "",
          "type": "uint256"
        }
      ],
      "stateMutability": "view",
      "type": "function"
    },
    {
      "inputs": [],
      "name": "presaleStart",
      "outputs": [
        {
          "internalType": "uint256",
          "name": "",
          "type": "uint256"
        }
      ],
      "stateMutability": "view",
      "type": "function"
    },
    {
      "inputs": [],
      "name": "renounceOwnership",
      "outputs": [],
      "stateMutability": "nonpayable",
      "type": "function"
    },
    {
      "inputs": [
        {
          "internalType": "uint256",
          "name": "numReserved",
          "type": "uint256"
        }
      ],
      "name": "reserveDCNT",
      "outputs": [],
      "stateMutability": "nonpayable",
      "type": "function"
    },
    {
      "inputs": [],
      "name": "royaltyBPS",
      "outputs": [
        {
          "internalType": "uint256",
          "name": "",
          "type": "uint256"
        }
      ],
      "stateMutability": "view",
      "type": "function"
    },
    {
      "inputs": [
        {
          "internalType": "uint256",
          "name": "tokenId",
          "type": "uint256"
        },
        {
          "internalType": "uint256",
          "name": "salePrice",
          "type": "uint256"
        }
      ],
      "name": "royaltyInfo",
      "outputs": [
        {
          "internalType": "address",
          "name": "receiver",
          "type": "address"
        },
        {
          "internalType": "uint256",
          "name": "royaltyAmount",
          "type": "uint256"
        }
      ],
      "stateMutability": "view",
      "type": "function"
    },
    {
      "inputs": [
        {
          "internalType": "address",
          "name": "from",
          "type": "address"
        },
        {
          "internalType": "address",
          "name": "to",
          "type": "address"
        },
        {
          "internalType": "uint256",
          "name": "tokenId",
          "type": "uint256"
        }
      ],
      "name": "safeTransferFrom",
      "outputs": [],
      "stateMutability": "nonpayable",
      "type": "function"
    },
    {
      "inputs": [
        {
          "internalType": "address",
          "name": "from",
          "type": "address"
        },
        {
          "internalType": "address",
          "name": "to",
          "type": "address"
        },
        {
          "internalType": "uint256",
          "name": "tokenId",
          "type": "uint256"
        },
        {
          "internalType": "bytes",
          "name": "_data",
          "type": "bytes"
        }
      ],
      "name": "safeTransferFrom",
      "outputs": [],
      "stateMutability": "nonpayable",
      "type": "function"
    },
    {
      "inputs": [],
      "name": "saleEnd",
      "outputs": [
        {
          "internalType": "uint256",
          "name": "",
          "type": "uint256"
        }
      ],
      "stateMutability": "view",
      "type": "function"
    },
    {
      "inputs": [],
      "name": "saleIsActive",
      "outputs": [
        {
          "internalType": "bool",
          "name": "_saleIsActive",
          "type": "bool"
        }
      ],
      "stateMutability": "view",
      "type": "function"
    },
    {
      "inputs": [],
      "name": "saleIsPaused",
      "outputs": [
        {
          "internalType": "bool",
          "name": "",
          "type": "bool"
        }
      ],
      "stateMutability": "view",
      "type": "function"
    },
    {
      "inputs": [],
      "name": "saleStart",
      "outputs": [
        {
          "internalType": "uint256",
          "name": "",
          "type": "uint256"
        }
      ],
      "stateMutability": "view",
      "type": "function"
    },
    {
      "inputs": [
        {
          "internalType": "address",
          "name": "operator",
          "type": "address"
        },
        {
          "internalType": "bool",
          "name": "approved",
          "type": "bool"
        }
      ],
      "name": "setApprovalForAll",
      "outputs": [],
      "stateMutability": "nonpayable",
      "type": "function"
    },
    {
      "inputs": [
        {
          "internalType": "string",
          "name": "uri",
          "type": "string"
        }
      ],
      "name": "setBaseURI",
      "outputs": [],
      "stateMutability": "nonpayable",
      "type": "function"
    },
    {
      "inputs": [
        {
          "internalType": "string",
          "name": "uri",
          "type": "string"
        }
      ],
      "name": "setContractURI",
      "outputs": [],
      "stateMutability": "nonpayable",
      "type": "function"
    },
    {
      "inputs": [
        {
          "internalType": "address",
          "name": "_metadataRenderer",
          "type": "address"
        }
      ],
      "name": "setMetadataRenderer",
      "outputs": [],
      "stateMutability": "nonpayable",
      "type": "function"
    },
    {
      "inputs": [
        {
          "internalType": "bytes32",
          "name": "_presaleMerkleRoot",
          "type": "bytes32"
        }
      ],
      "name": "setPresaleMerkleRoot",
      "outputs": [],
      "stateMutability": "nonpayable",
      "type": "function"
    },
    {
      "inputs": [
        {
          "internalType": "uint256",
          "name": "tokenId",
          "type": "uint256"
        },
        {
          "internalType": "address",
          "name": "user",
          "type": "address"
        },
        {
          "internalType": "uint64",
          "name": "expires",
          "type": "uint64"
        }
      ],
      "name": "setUser",
      "outputs": [],
      "stateMutability": "nonpayable",
      "type": "function"
    },
    {
      "inputs": [],
      "name": "splitMain",
      "outputs": [
        {
          "internalType": "address",
          "name": "",
          "type": "address"
        }
      ],
      "stateMutability": "view",
      "type": "function"
    },
    {
      "inputs": [],
      "name": "splitWallet",
      "outputs": [
        {
          "internalType": "address",
          "name": "",
          "type": "address"
        }
      ],
      "stateMutability": "view",
      "type": "function"
    },
    {
      "inputs": [
        {
          "internalType": "bytes4",
          "name": "interfaceId",
          "type": "bytes4"
        }
      ],
      "name": "supportsInterface",
      "outputs": [
        {
          "internalType": "bool",
          "name": "",
          "type": "bool"
        }
      ],
      "stateMutability": "view",
      "type": "function"
    },
    {
      "inputs": [],
      "name": "symbol",
      "outputs": [
        {
          "internalType": "string",
          "name": "",
          "type": "string"
        }
      ],
      "stateMutability": "view",
      "type": "function"
    },
    {
      "inputs": [],
      "name": "tokenGateConfig",
      "outputs": [
        {
          "internalType": "address",
          "name": "tokenAddress",
          "type": "address"
        },
        {
          "internalType": "uint88",
          "name": "minBalance",
          "type": "uint88"
        },
        {
          "internalType": "enum SaleType",
          "name": "saleType",
          "type": "uint8"
        }
      ],
      "stateMutability": "view",
      "type": "function"
    },
    {
      "inputs": [],
      "name": "tokenPrice",
      "outputs": [
        {
          "internalType": "uint256",
          "name": "",
          "type": "uint256"
        }
      ],
      "stateMutability": "view",
      "type": "function"
    },
    {
      "inputs": [
        {
          "internalType": "uint256",
          "name": "tokenId",
          "type": "uint256"
        }
      ],
      "name": "tokenURI",
      "outputs": [
        {
          "internalType": "string",
          "name": "",
          "type": "string"
        }
      ],
      "stateMutability": "view",
      "type": "function"
    },
    {
      "inputs": [],
      "name": "totalSupply",
      "outputs": [
        {
          "internalType": "uint256",
          "name": "",
          "type": "uint256"
        }
      ],
      "stateMutability": "view",
      "type": "function"
    },
    {
      "inputs": [
        {
          "internalType": "address",
          "name": "from",
          "type": "address"
        },
        {
          "internalType": "address",
          "name": "to",
          "type": "address"
        },
        {
          "internalType": "uint256",
          "name": "tokenId",
          "type": "uint256"
        }
      ],
      "name": "transferFrom",
      "outputs": [],
      "stateMutability": "nonpayable",
      "type": "function"
    },
    {
      "inputs": [
        {
          "internalType": "address",
          "name": "newOwner",
          "type": "address"
        }
      ],
      "name": "transferOwnership",
      "outputs": [],
      "stateMutability": "nonpayable",
      "type": "function"
    },
    {
      "inputs": [
        {
          "internalType": "uint256",
          "name": "transferETH",
          "type": "uint256"
        },
        {
          "internalType": "contract ERC20[]",
          "name": "tokens",
          "type": "address[]"
        }
      ],
      "name": "transferToSplit",
      "outputs": [],
      "stateMutability": "nonpayable",
      "type": "function"
    },
    {
      "inputs": [
        {
          "internalType": "uint256",
          "name": "newStart",
          "type": "uint256"
        },
        {
          "internalType": "uint256",
          "name": "newEnd",
          "type": "uint256"
        }
      ],
      "name": "updatePresaleStartEnd",
      "outputs": [],
      "stateMutability": "nonpayable",
      "type": "function"
    },
    {
      "inputs": [
        {
          "internalType": "uint256",
          "name": "newStart",
          "type": "uint256"
        },
        {
          "internalType": "uint256",
          "name": "newEnd",
          "type": "uint256"
        }
      ],
      "name": "updateSaleStartEnd",
      "outputs": [],
      "stateMutability": "nonpayable",
      "type": "function"
    },
    {
      "inputs": [
        {
          "internalType": "uint256",
          "name": "tokenId",
          "type": "uint256"
        }
      ],
      "name": "userExpires",
      "outputs": [
        {
          "internalType": "uint256",
          "name": "",
          "type": "uint256"
        }
      ],
      "stateMutability": "view",
      "type": "function"
    },
    {
      "inputs": [
        {
          "internalType": "uint256",
          "name": "tokenId",
          "type": "uint256"
        }
      ],
      "name": "userOf",
      "outputs": [
        {
          "internalType": "address",
          "name": "",
          "type": "address"
        }
      ],
      "stateMutability": "view",
      "type": "function"
    },
    {
      "inputs": [],
      "name": "withdraw",
      "outputs": [],
      "stateMutability": "nonpayable",
      "type": "function"
    }
  ],
  "bytecode": "0x60806040523480156200001157600080fd5b506200001d3362000023565b6200007f565b600980546001600160a01b038381166201000081810262010000600160b01b031985161790945560405193909204169182907f8be0079c531659141344cd1fd0a4f28419497f9722a3daafe3b4186f6b6457e090600090a35050565b613f1e806200008f6000396000f3fe6080604052600436106103805760003560e01c806379ab7c8e116101d1578063c4559d5a11610102578063e6c350c1116100a0578063f0cc8b621161006f578063f0cc8b6214610a67578063f2fde38b14610a87578063f47c84c514610aa7578063fd4fe8a814610abd57600080fd5b8063e6c350c1146109da578063e8a3d485146109f4578063e985e9c514610a09578063eb8d244414610a5257600080fd5b8063c9ef5eee116100dc578063c9ef5eee14610964578063d58d458a14610984578063de8801e5146109a4578063e030565e146109ba57600080fd5b8063c4559d5a14610904578063c595317014610924578063c87b56dd1461094457600080fd5b8063a0712d681161016f578063b88d4fde11610149578063b88d4fde14610884578063b9c9d93a146108a4578063c10b9358146108ba578063c2f1f14a146108d057600080fd5b8063a0712d681461083b578063a22cb4651461084e578063ab0bcc411461086e57600080fd5b80638fc88c48116101ab5780638fc88c48146107b5578063931cf0f4146107e5578063938e3d7b1461080657806395d89b411461082657600080fd5b806379ab7c8e1461075b5780637ff9b5961461077b5780638da5cb5b1461079157600080fd5b806328d7b276116102b65780636352211e1161025457806370a082311161022357806370a08231146106f3578063713b978714610713578063715018a614610733578063727a612e1461074857600080fd5b80636352211e1461067e5780636c0360eb1461069e5780636c1951ae146106b357806370319970146106d357600080fd5b80633ccfd60b116102905780633ccfd60b1461060957806342842e0e1461061e57806355f804b31461063e5780635799dbdd1461065e57600080fd5b806328d7b276146105955780632a55205a146105b557806334918dfd146105f457600080fd5b80630e769b2b116103235780631dbdedbd116102fd5780631dbdedbd146104f3578063229f3e291461053f57806323b872dd14610555578063284a44a81461057557600080fd5b80630e769b2b1461049a57806317dc2587146104ba57806318160ddd146104da57600080fd5b806306fdde031161035f57806306fdde03146103fc578063081812fc1461041e578063095ea7b31461045657806309aa3dcf1461047657600080fd5b80625f16fb14610385578063015893c5146103a757806301ffc9a7146103c7575b600080fd5b34801561039157600080fd5b506103a56103a0366004612f9e565b610add565b005b3480156103b357600080fd5b506103a56103c2366004613045565b610bbb565b3480156103d357600080fd5b506103e76103e23660046130db565b610d45565b60405190151581526020015b60405180910390f35b34801561040857600080fd5b50610411610d56565b6040516103f39190613150565b34801561042a57600080fd5b5061043e610439366004613163565b610de8565b6040516001600160a01b0390911681526020016103f3565b34801561046257600080fd5b506103a561047136600461317c565b610e2c565b34801561048257600080fd5b5061048c600c5481565b6040519081526020016103f3565b3480156104a657600080fd5b5060175461043e906001600160a01b031681565b3480156104c657600080fd5b506103a56104d53660046131a8565b610ecc565b3480156104e657600080fd5b506001546000540361048c565b3480156104ff57600080fd5b50600854610530906001600160a01b03811690600160a01b81046001600160581b031690600160f81b900460ff1683565b6040516103f3939291906131e0565b34801561054b57600080fd5b5061048c60155481565b34801561056157600080fd5b506103a561057036600461322b565b610edf565b34801561058157600080fd5b506103a5610590366004613363565b61106d565b3480156105a157600080fd5b506103a56105b0366004613163565b611117565b3480156105c157600080fd5b506105d56105d03660046131a8565b611124565b604080516001600160a01b0390931683526020830191909152016103f3565b34801561060057600080fd5b506103a56111d1565b34801561061557600080fd5b506103a56111ed565b34801561062a57600080fd5b506103a561063936600461322b565b6112fb565b34801561064a57600080fd5b506103a56106593660046134b4565b61131b565b34801561066a57600080fd5b506103a56106793660046131a8565b61133a565b34801561068a57600080fd5b5061043e610699366004613163565b61134d565b3480156106aa57600080fd5b50610411611358565b3480156106bf57600080fd5b506103a56106ce366004613163565b6113e6565b3480156106df57600080fd5b5060125461043e906001600160a01b031681565b3480156106ff57600080fd5b5061048c61070e3660046134e8565b611456565b34801561071f57600080fd5b5060185461043e906001600160a01b031681565b34801561073f57600080fd5b506103a56114a4565b6103a5610756366004613505565b6114b8565b34801561076757600080fd5b506103a5610776366004613565565b6118c3565b34801561078757600080fd5b5061048c600b5481565b34801561079d57600080fd5b506009546201000090046001600160a01b031661043e565b3480156107c157600080fd5b5061048c6107d0366004613163565b6000908152601a602052604090205460a01c90565b3480156107f157600080fd5b506009546103e790600160b01b900460ff1681565b34801561081257600080fd5b506103a56108213660046134b4565b61194a565b34801561083257600080fd5b50610411611965565b6103a5610849366004613163565b611974565b34801561085a57600080fd5b506103a56108693660046135ba565b611d0d565b34801561087a57600080fd5b5061048c600d5481565b34801561089057600080fd5b506103a561089f3660046135f3565b611da3565b3480156108b057600080fd5b5061048c60135481565b3480156108c657600080fd5b5061048c600e5481565b3480156108dc57600080fd5b5061043e6108eb366004613163565b6000908152601a60205260409020544260a01b81110290565b34801561091057600080fd5b506103a561091f36600461365e565b611de7565b34801561093057600080fd5b506103a561093f3660046136f1565b611eb8565b34801561095057600080fd5b5061041161095f366004613163565b611fac565b34801561097057600080fd5b506103a561097f366004613879565b611fb7565b34801561099057600080fd5b506103a561099f366004613163565b6122d0565b3480156109b057600080fd5b5061048c60145481565b3480156109c657600080fd5b506103a56109d53660046139ea565b612392565b3480156109e657600080fd5b50600f546103e79060ff1681565b348015610a0057600080fd5b50610411612462565b348015610a1557600080fd5b506103e7610a24366004613a38565b6001600160a01b03918216600090815260076020908152604080832093909416825291909152205460ff1690565b348015610a5e57600080fd5b506103e7612511565b348015610a7357600080fd5b5060195461043e906001600160a01b031681565b348015610a9357600080fd5b506103a5610aa23660046134e8565b612539565b348015610ab357600080fd5b5061048c600a5481565b348015610ac957600080fd5b506103a5610ad83660046134e8565b6125af565b6000610af16018546001600160a01b031690565b6001600160a01b03161415610b215760405162461bcd60e51b8152600401610b1890613a66565b60405180910390fd5b610b2a876125d9565b6017546001600160a01b03166001600160a01b03166315811302610b566018546001600160a01b031690565b898989898989896040518963ffffffff1660e01b8152600401610b80989796959493929190613b17565b600060405180830381600087803b158015610b9a57600080fd5b505af1158015610bae573d6000803e3d6000fd5b5050505050505050505050565b610bc36126f6565b6000610bd76017546001600160a01b031690565b6001600160a01b03161415610c225760405162461bcd60e51b815260206004820152601160248201527014dc1b1a5d13585a5b881b9bdd081cd95d607a1b6044820152606401610b18565b6000610c366018546001600160a01b031690565b6001600160a01b031614610c845760405162461bcd60e51b815260206004820152601560248201527414dc1b1a5d08185b1c9958591e4818dc99585d1959605a1b6044820152606401610b18565b6000610c986017546001600160a01b031690565b6001600160a01b0316637601f7828787878787336040518763ffffffff1660e01b8152600401610ccd96959493929190613b79565b602060405180830381600087803b158015610ce757600080fd5b505af1158015610cfb573d6000803e3d6000fd5b505050506040513d601f19601f82011682018060405250810190610d1f9190613bca565b601880546001600160a01b0319166001600160a01b03831617905590505b505050505050565b6000610d5082612757565b92915050565b606060028054610d6590613be7565b80601f0160208091040260200160405190810160405280929190818152602001828054610d9190613be7565b8015610dde5780601f10610db357610100808354040283529160200191610dde565b820191906000526020600020905b815481529060010190602001808311610dc157829003601f168201915b5050505050905090565b6000610df38261277f565b610e10576040516333d1c03960e21b815260040160405180910390fd5b506000908152600660205260409020546001600160a01b031690565b6000610e378261134d565b9050336001600160a01b03821614610e7057610e538133610a24565b610e70576040516367d9dca160e11b815260040160405180910390fd5b60008281526006602052604080822080546001600160a01b0319166001600160a01b0387811691821790925591518593918516917f8c5be1e5ebec7d5bd14f71427d1e84f3dd0314c0f7b2291e5b200ac8c7c3b92591a4505050565b610ed46126f6565b600d91909155600e55565b6000610eea826127a6565b9050836001600160a01b0316816001600160a01b031614610f1d5760405162a1148160e81b815260040160405180910390fd5b60008281526006602052604090208054338082146001600160a01b03881690911417610f6a57610f4d8633610a24565b610f6a57604051632ce44b5f60e11b815260040160405180910390fd5b6001600160a01b038516610f9157604051633a954ecd60e21b815260040160405180910390fd5b8015610f9c57600082555b6001600160a01b038681166000908152600560205260408082208054600019019055918716808252919020805460010190554260a01b17600160e11b17600085815260046020526040902055600160e11b831661102757600184016000818152600460205260409020546110255760005481146110255760008181526004602052604090208490555b505b83856001600160a01b0316876001600160a01b03167fddf252ad1be2c89b69c2b068fc378daa952ba7f163c4a11628f55a4df523b3ef60405160405180910390a4610d3d565b60006110816018546001600160a01b031690565b6001600160a01b031614156110a85760405162461bcd60e51b8152600401610b1890613a66565b87156110bc576110bc868686868686611de7565b60005b8751811015611100576110f08882815181106110dd576110dd613c22565b6020026020010151888888888888610add565b6110f981613c4e565b90506110bf565b5061110c89898961280e565b505050505050505050565b61111f6126f6565b601655565b6000806111308461277f565b6111705760405162461bcd60e51b81526020600482015260116024820152702737b732bc34b9ba32b73a103a37b5b2b760791b6044820152606401610b18565b6018546001600160a01b031615611194576018546001600160a01b031691506111a9565b6009546201000090046001600160a01b031691505b6000612710601354856111bc9190613c69565b6111c69190613c88565b9150505b9250929050565b6111d96126f6565b600f805460ff19811660ff90911615179055565b6111f56126f6565b60006112096018546001600160a01b031690565b6001600160a01b03161461126b5760405162461bcd60e51b8152602060048201526024808201527f43616e6e6f74207769746864726177207769746820616e2061637469766520736044820152631c1b1a5d60e21b6064820152608401610b18565b604051600090339047908381818185875af1925050503d80600081146112ad576040519150601f19603f3d011682016040523d82523d6000602084013e6112b2565b606091505b50509050806112f85760405162461bcd60e51b8152602060048201526012602482015271436f756c64206e6f7420776974686472617760701b6044820152606401610b18565b50565b61131683838360405180602001604052806000815250611da3565b505050565b6113236126f6565b8051611336906010906020840190612e88565b5050565b6113426126f6565b601491909155601555565b6000610d50826127a6565b6010805461136590613be7565b80601f016020809104026020016040519081016040528092919081815260200182805461139190613be7565b80156113de5780601f106113b3576101008083540402835291602001916113de565b820191906000526020600020905b8154815290600101906020018083116113c157829003601f168201915b505050505081565b6113ee6126f6565b600054600a546113fe8383613caa565b1061141b5760405162461bcd60e51b8152600401610b1890613cc2565b60005b8281101561131657611444336114348385613caa565b61143f906001613caa565b612870565b8061144e81613c4e565b91505061141e565b60006001600160a01b03821661147f576040516323d3ad8160e21b815260040160405180910390fd5b506001600160a01b03166000908152600560205260409020546001600160401b031690565b6114ac6126f6565b6114b6600061288a565b565b6008546001906001600160a01b03161580159061152157506000600854600160f81b900460ff1660028111156114f0576114f06131ca565b1480611521575080801561152157506001600854600160f81b900460ff16600281111561151f5761151f6131ca565b145b8061155257508015801561155257506002600854600160f81b900460ff166002811115611550576115506131ca565b145b1561162d576008546040516370a0823160e01b8152336004820152600160a01b82046001600160581b0316916001600160a01b0316906370a0823190602401602060405180830381600087803b1580156115ab57600080fd5b505af11580156115bf573d6000803e3d6000fd5b505050506040513d601f19601f820116820180604052508101906115e39190613cf7565b101561162d5760405162461bcd60e51b81526020600482015260196024820152783237903737ba1037bbb7103932b8bab4b932b2103a37b5b2b760391b6044820152606401610b18565b601454421015801561164157506015544211155b61167b5760405162461bcd60e51b815260206004820152600b60248201526a6e6f742070726573616c6560a81b6044820152606401610b18565b600054600f5460ff16156116d15760405162461bcd60e51b815260206004820152601b60248201527f53616c65206d7573742062652061637469766520746f206d696e7400000000006044820152606401610b18565b600a546116de8883613caa565b11156116fc5760405162461bcd60e51b8152600401610b1890613cc2565b61177f848480806020026020016040519081016040528093929190818152602001838360200280828437600092019190915250506016546040516bffffffffffffffffffffffff193360601b166020820152603481018c9052605481018b90529092506074019050604051602081830303815290604052805190602001206128e6565b6117ba5760405162461bcd60e51b815260206004820152600c60248201526b1b9bdd08185c1c1c9bdd995960a21b6044820152606401610b18565b6117c48786613c69565b3410156118085760405162461bcd60e51b8152602060048201526012602482015271496e73756666696369656e742066756e647360701b6044820152606401610b18565b858761181333611456565b61181d9190613caa565b111561185d5760405162461bcd60e51b815260206004820152600f60248201526e6d696e74656420746f6f206d616e7960881b6044820152606401610b18565b6118673388612870565b60005b878110156118b95760408051338152602081018490526001909301927f30385c845b448a36257a6a1716e6ad2e1bc2cbe333cde1e69fe849ad6511adfe910160405180910390a160010161186a565b5050505050505050565b60006118d76018546001600160a01b031690565b6001600160a01b031614156118fe5760405162461bcd60e51b8152600401610b1890613a66565b811561190c5761190c6128fc565b60005b81518110156113165761193a82828151811061192d5761192d613c22565b60200260200101516125d9565b61194381613c4e565b905061190f565b6119526126f6565b8051611336906011906020840190612e88565b606060038054610d6590613be7565b6008546000906001600160a01b0316158015906119dd57506000600854600160f81b900460ff1660028111156119ac576119ac6131ca565b14806119dd57508080156119dd57506001600854600160f81b900460ff1660028111156119db576119db6131ca565b145b80611a0e575080158015611a0e57506002600854600160f81b900460ff166002811115611a0c57611a0c6131ca565b145b15611ae9576008546040516370a0823160e01b8152336004820152600160a01b82046001600160581b0316916001600160a01b0316906370a0823190602401602060405180830381600087803b158015611a6757600080fd5b505af1158015611a7b573d6000803e3d6000fd5b505050506040513d601f19601f82011682018060405250810190611a9f9190613cf7565b1015611ae95760405162461bcd60e51b81526020600482015260196024820152783237903737ba1037bbb7103932b8bab4b932b2103a37b5b2b760391b6044820152606401610b18565b600054600d544210801590611b005750600e544211155b611b445760405162461bcd60e51b815260206004820152601560248201527429b0b632b99030b932903737ba1030b1ba34bb329760591b6044820152606401610b18565b600f5460ff1615611b975760405162461bcd60e51b815260206004820152601b60248201527f53616c65206d7573742062652061637469766520746f206d696e7400000000006044820152606401610b18565b600a54611ba48483613caa565b1115611bc25760405162461bcd60e51b8152600401610b1890613cc2565b600a54811115611bff5760405162461bcd60e51b815260206004820152600860248201526714d3d3110813d55560c21b6044820152606401610b18565b82600b54611c0d9190613c69565b341015611c515760405162461bcd60e51b8152602060048201526012602482015271496e73756666696369656e742066756e647360701b6044820152606401610b18565b600c5415611cab57600c54831115611cab5760405162461bcd60e51b815260206004820152601c60248201527f4578636565646564206d6178206e756d62657220706572206d696e74000000006044820152606401610b18565b611cb53384612870565b60005b83811015611d075760408051338152602081018490526001909301927f30385c845b448a36257a6a1716e6ad2e1bc2cbe333cde1e69fe849ad6511adfe910160405180910390a1600101611cb8565b50505050565b6001600160a01b038216331415611d375760405163b06307db60e01b815260040160405180910390fd5b3360008181526007602090815260408083206001600160a01b03871680855290835292819020805460ff191686151590811790915590519081529192917f17307eab39ab6107e8899845ad3d59bd9653f200f220920489ca2b5937696c31910160405180910390a35050565b611dae848484610edf565b6001600160a01b0383163b15611d0757611dca848484846129b0565b611d07576040516368d2bf6b60e11b815260040160405180910390fd5b6000611dfb6018546001600160a01b031690565b6001600160a01b03161415611e225760405162461bcd60e51b8152600401610b1890613a66565b611e2a6128fc565b6017546001600160a01b03166001600160a01b031663e61cb05e611e566018546001600160a01b031690565b8888888888886040518863ffffffff1660e01b8152600401611e7e9796959493929190613d10565b600060405180830381600087803b158015611e9857600080fd5b505af1158015611eac573d6000803e3d6000fd5b50505050505050505050565b611ec06126f6565b600054600a548190611ed28483613caa565b1115611ef05760405162461bcd60e51b8152600401610b1890613cc2565b8183015b80831015611fa557611f2f8585848603818110611f1357611f13613c22565b9050602002016020810190611f2891906134e8565b6001612870565b7f30385c845b448a36257a6a1716e6ad2e1bc2cbe333cde1e69fe849ad6511adfe8585848603818110611f6457611f64613c22565b9050602002016020810190611f7991906134e8565b604080516001600160a01b039092168252602082018690520160405180910390a1600190920191611ef4565b5050505050565b6060610d5082612aa8565b600954610100900460ff1615808015611fd75750600954600160ff909116105b80611ff15750303b158015611ff1575060095460ff166001145b6120545760405162461bcd60e51b815260206004820152602e60248201527f496e697469616c697a61626c653a20636f6e747261637420697320616c72656160448201526d191e481a5b9a5d1a585b1a5e995960921b6064820152608401610b18565b6009805460ff191660011790558015612077576009805461ff0019166101001790555b6120808761288a565b8551805161209691600291602090910190612e88565b5060208087015180516120ad926003920190612e88565b5060008055606080870151600a556080870151600b5560a0870151600c55610120870151600d55610140870151600e5561016087015160135560408088015160098054911515600160b01b0260ff60b01b1990921691909117905590860151601980546001600160a01b039283166001600160a01b03199182161790915560178054868416921691909117905585516008805460208901516001600160581b0316600160a01b026001600160f81b031990911692909316919091179190911780825591860151869282906001600160f81b0316600160f81b836002811115612197576121976131ca565b0217905550505060c086015160165560e08601516014556101008601516015556001600160a01b038316158015906121d457506000856040015151115b1561225257601280546001600160a01b0319166001600160a01b03851690811790915560408681015190516342b53ffd60e11b815263856a7ffa9161221b91600401613150565b600060405180830381600087803b15801561223557600080fd5b505af1158015612249573d6000803e3d6000fd5b50505050612281565b8451805161226891601191602090910190612e88565b50602080860151805161227f926010920190612e88565b505b80156122c7576009805461ff0019169055604051600181527f7f26b83ff96e1f2b6a682f133852f6798a09c465da95921460cefb38474024989060200160405180910390a15b50505050505050565b6122d86126f6565b600954600160b01b900460ff1661233f5760405162461bcd60e51b815260206004820152602560248201527f63616e6e6f742061646a7573742073697a65206f66207468697320636f6c6c6560448201526431ba34b7b760d91b6064820152608401610b18565b8061234960005490565b111561238d5760405162461bcd60e51b8152602060048201526013602482015272063616e6e6f742064656372656173652063617606c1b6044820152606401610b18565b600a55565b600061239d8461134d565b9050336001600160a01b038216146123ee576123b98133610a24565b6123ee57336123c785610de8565b6001600160a01b0316146123ee576040516309e3bb1d60e31b815260040160405180910390fd5b6000848152601a60209081526040918290206001600160a01b03861660a086901b67ffffffffffffffff60a01b16811790915591516001600160401b038516815286917f4e06b4e7000e659094299b3533b47b6aa8ad048e95e872d23d1f4ee55af89cfe910160405180910390a350505050565b6012546060906001600160a01b03166124825760118054610d6590613be7565b601260009054906101000a90046001600160a01b03166001600160a01b031663e8a3d4856040518163ffffffff1660e01b815260040160006040518083038186803b1580156124d057600080fd5b505afa1580156124e4573d6000803e3d6000fd5b505050506040513d6000823e601f3d908101601f1916820160405261250c9190810190613d69565b905090565b6000600d5442101580156125275750600e544211155b801561250c575050600f5460ff161590565b6125416126f6565b6001600160a01b0381166125a65760405162461bcd60e51b815260206004820152602660248201527f4f776e61626c653a206e6577206f776e657220697320746865207a65726f206160448201526564647265737360d01b6064820152608401610b18565b6112f88161288a565b6125b76126f6565b601280546001600160a01b0319166001600160a01b0392909216919091179055565b6040516370a0823160e01b81523060048201526000906001600160a01b038316906370a082319060240160206040518083038186803b15801561261b57600080fd5b505afa15801561262f573d6000803e3d6000fd5b505050506040513d601f19601f820116820180604052508101906126539190613cf7565b9050816001600160a01b031663a9059cbb6126766018546001600160a01b031690565b6040516001600160e01b031960e084901b1681526001600160a01b03909116600482015260248101849052604401602060405180830381600087803b1580156126be57600080fd5b505af11580156126d2573d6000803e3d6000fd5b505050506040513d601f19601f820116820180604052508101906113169190613ddf565b6009546001600160a01b03620100009091041633146114b65760405162461bcd60e51b815260206004820181905260248201527f4f776e61626c653a2063616c6c6572206973206e6f7420746865206f776e65726044820152606401610b18565b600061276282612b6a565b80610d505750506001600160e01b031916632b424ad760e21b1490565b6000805482108015610d50575050600090815260046020526040902054600160e01b161590565b6000816000548110156127f557600081815260046020526040902054600160e01b81166127f3575b806127ec5750600019016000818152600460205260409020546127ce565b9392505050565b505b604051636f96cda160e11b815260040160405180910390fd5b601754604051636e5f691960e01b81526001600160a01b0390911690636e5f69199061284290869086908690600401613dfc565b600060405180830381600087803b15801561285c57600080fd5b505af11580156122c7573d6000803e3d6000fd5b611336828260405180602001604052806000815250612b8f565b600980546001600160a01b038381166201000081810262010000600160b01b031985161790945560405193909204169182907f8be0079c531659141344cd1fd0a4f28419497f9722a3daafe3b4186f6b6457e090600090a35050565b6000826128f38584612bf5565b14949350505050565b60006129106018546001600160a01b031690565b6001600160a01b03164760405160006040518083038185875af1925050503d806000811461295a576040519150601f19603f3d011682016040523d82523d6000602084013e61295f565b606091505b50509050806112f85760405162461bcd60e51b815260206004820152601f60248201527f436f756c64206e6f74207472616e736665722045544820746f2073706c6974006044820152606401610b18565b604051630a85bd0160e11b81526000906001600160a01b0385169063150b7a02906129e5903390899088908890600401613e5f565b602060405180830381600087803b1580156129ff57600080fd5b505af1925050508015612a2f575060408051601f3d908101601f19168201909252612a2c91810190613e9c565b60015b612a8a573d808015612a5d576040519150601f19603f3d011682016040523d82523d6000602084013e612a62565b606091505b508051612a82576040516368d2bf6b60e11b815260040160405180910390fd5b805181602001fd5b6001600160e01b031916630a85bd0160e11b1490505b949350505050565b6060612ab38261277f565b612ad057604051630a14c4b560e41b815260040160405180910390fd5b6012546001600160a01b031615612b615760125460405163c87b56dd60e01b8152600481018490526001600160a01b039091169063c87b56dd9060240160006040518083038186803b158015612b2557600080fd5b505afa158015612b39573d6000803e3d6000fd5b505050506040513d6000823e601f3d908101601f19168201604052610d509190810190613d69565b610d5082612c42565b600063152a902d60e11b6001600160e01b031983161480610d505750610d5082612cc6565b612b998383612d14565b6001600160a01b0383163b15611316576000548281035b612bc360008683806001019450866129b0565b612be0576040516368d2bf6b60e11b815260040160405180910390fd5b818110612bb0578160005414611fa557600080fd5b600081815b8451811015612c3a57612c2682868381518110612c1957612c19613c22565b6020026020010151612e0b565b915080612c3281613c4e565b915050612bfa565b509392505050565b6060612c4d8261277f565b612c6a57604051630a14c4b560e41b815260040160405180910390fd5b6000612c74612e37565b9050805160001415612c9557604051806020016040528060008152506127ec565b80612c9f84612e46565b604051602001612cb0929190613eb9565b6040516020818303038152906040529392505050565b60006301ffc9a760e01b6001600160e01b031983161480612cf757506380ac58cd60e01b6001600160e01b03198316145b80610d505750506001600160e01b031916635b5e139f60e01b1490565b60005481612d355760405163b562e8dd60e01b815260040160405180910390fd5b6001600160a01b03831660008181526005602090815260408083208054680100000000000000018802019055848352600490915281206001851460e11b4260a01b178317905582840190839083907fddf252ad1be2c89b69c2b068fc378daa952ba7f163c4a11628f55a4df523b3ef8180a4600183015b818114612de457808360007fddf252ad1be2c89b69c2b068fc378daa952ba7f163c4a11628f55a4df523b3ef600080a4600101612dac565b5081612e0257604051622e076360e81b815260040160405180910390fd5b60005550505050565b6000818310612e275760008281526020849052604090206127ec565b5060009182526020526040902090565b606060108054610d6590613be7565b604080516080019081905280825b600183039250600a81066030018353600a900480612e7157612e76565b612e54565b50819003601f19909101908152919050565b828054612e9490613be7565b90600052602060002090601f016020900481019282612eb65760008555612efc565b82601f10612ecf57805160ff1916838001178555612efc565b82800160010185558215612efc579182015b82811115612efc578251825591602001919060010190612ee1565b50612f08929150612f0c565b5090565b5b80821115612f085760008155600101612f0d565b6001600160a01b03811681146112f857600080fd5b60008083601f840112612f4857600080fd5b5081356001600160401b03811115612f5f57600080fd5b6020830191508360208260051b85010111156111ca57600080fd5b803563ffffffff81168114612f8e57600080fd5b919050565b8035612f8e81612f21565b600080600080600080600060a0888a031215612fb957600080fd5b8735612fc481612f21565b965060208801356001600160401b0380821115612fe057600080fd5b612fec8b838c01612f36565b909850965060408a013591508082111561300557600080fd5b506130128a828b01612f36565b9095509350613025905060608901612f7a565b9150608088013561303581612f21565b8091505092959891949750929550565b60008060008060006060868803121561305d57600080fd5b85356001600160401b038082111561307457600080fd5b61308089838a01612f36565b9097509550602088013591508082111561309957600080fd5b506130a688828901612f36565b90945092506130b9905060408701612f7a565b90509295509295909350565b6001600160e01b0319811681146112f857600080fd5b6000602082840312156130ed57600080fd5b81356127ec816130c5565b60005b838110156131135781810151838201526020016130fb565b83811115611d075750506000910152565b6000815180845261313c8160208601602086016130f8565b601f01601f19169290920160200192915050565b6020815260006127ec6020830184613124565b60006020828403121561317557600080fd5b5035919050565b6000806040838503121561318f57600080fd5b823561319a81612f21565b946020939093013593505050565b600080604083850312156131bb57600080fd5b50508035926020909101359150565b634e487b7160e01b600052602160045260246000fd5b6001600160a01b03841681526001600160581b0383166020820152606081016003831061321d57634e487b7160e01b600052602160045260246000fd5b826040830152949350505050565b60008060006060848603121561324057600080fd5b833561324b81612f21565b9250602084013561325b81612f21565b929592945050506040919091013590565b634e487b7160e01b600052604160045260246000fd5b60405161018081016001600160401b03811182821017156132a5576132a561326c565b60405290565b604051601f8201601f191681016001600160401b03811182821017156132d3576132d361326c565b604052919050565b600082601f8301126132ec57600080fd5b813560206001600160401b038211156133075761330761326c565b8160051b6133168282016132ab565b928352848101820192828101908785111561333057600080fd5b83870192505b8483101561335857823561334981612f21565b82529183019190830190613336565b979650505050505050565b600080600080600080600080600060e08a8c03121561338157600080fd5b893561338c81612f21565b985060208a0135975060408a01356001600160401b03808211156133af57600080fd5b6133bb8d838e016132db565b985060608c01359150808211156133d157600080fd5b6133dd8d838e01612f36565b909850965060808c01359150808211156133f657600080fd5b506134038c828d01612f36565b9095509350613416905060a08b01612f7a565b915060c08a013561342681612f21565b809150509295985092959850929598565b60006001600160401b038211156134505761345061326c565b50601f01601f191660200190565b600082601f83011261346f57600080fd5b813561348261347d82613437565b6132ab565b81815284602083860101111561349757600080fd5b816020850160208301376000918101602001919091529392505050565b6000602082840312156134c657600080fd5b81356001600160401b038111156134dc57600080fd5b612aa08482850161345e565b6000602082840312156134fa57600080fd5b81356127ec81612f21565b60008060008060006080868803121561351d57600080fd5b85359450602086013593506040860135925060608601356001600160401b0381111561354857600080fd5b61355488828901612f36565b969995985093965092949392505050565b6000806040838503121561357857600080fd5b8235915060208301356001600160401b0381111561359557600080fd5b6111c6858286016132db565b80151581146112f857600080fd5b8035612f8e816135a1565b600080604083850312156135cd57600080fd5b82356135d881612f21565b915060208301356135e8816135a1565b809150509250929050565b6000806000806080858703121561360957600080fd5b843561361481612f21565b9350602085013561362481612f21565b92506040850135915060608501356001600160401b0381111561364657600080fd5b6136528782880161345e565b91505092959194509250565b6000806000806000806080878903121561367757600080fd5b86356001600160401b038082111561368e57600080fd5b61369a8a838b01612f36565b909850965060208901359150808211156136b357600080fd5b506136c089828a01612f36565b90955093506136d3905060408801612f7a565b915060608701356136e381612f21565b809150509295509295509295565b6000806020838503121561370457600080fd5b82356001600160401b0381111561371a57600080fd5b61372685828601612f36565b90969095509350505050565b60006080828403121561374457600080fd5b604051608081016001600160401b0382821081831117156137675761376761326c565b81604052829350843591508082111561377f57600080fd5b61378b8683870161345e565b835260208501359150808211156137a157600080fd5b6137ad8683870161345e565b602084015260408501359150808211156137c657600080fd5b506137d38582860161345e565b60408301525060608301356137e781612f21565b6060919091015292915050565b60006060828403121561380657600080fd5b604051606081018181106001600160401b03821117156138285761382861326c565b604052905080823561383981612f21565b815260208301356001600160581b038116811461385557600080fd5b602082015260408301356003811061386c57600080fd5b6040919091015292915050565b60008060008060008061010080888a03121561389457600080fd5b873561389f81612f21565b965060208801356001600160401b03808211156138bb57600080fd5b90890190610180828c0312156138d057600080fd5b6138d8613282565b8235828111156138e757600080fd5b6138f38d82860161345e565b82525060208301358281111561390857600080fd5b6139148d82860161345e565b602083015250613926604084016135af565b6040820152606083013560608201526080830135608082015260a083013560a082015260c083013560c082015260e083013560e082015283830135848201526101209350838301358482015261014093508383013584820152610160935083830135848201528098505060408a01359250808311156139a457600080fd5b50506139b289828a01613732565b9450506139c288606089016137f4565b92506139d060c08801612f93565b91506139de60e08801612f93565b90509295509295509295565b6000806000606084860312156139ff57600080fd5b833592506020840135613a1181612f21565b915060408401356001600160401b0381168114613a2d57600080fd5b809150509250925092565b60008060408385031215613a4b57600080fd5b8235613a5681612f21565b915060208301356135e881612f21565b60208082526015908201527414dc1b1a5d081b9bdd0818dc99585d1959081e595d605a1b604082015260600190565b8183526000602080850194508260005b85811015613ad3578135613ab881612f21565b6001600160a01b031687529582019590820190600101613aa5565b509495945050505050565b8183526000602080850194508260005b85811015613ad35763ffffffff613b0483612f7a565b1687529582019590820190600101613aee565b600060018060a01b03808b168352808a16602084015260c06040840152613b4260c08401898b613a95565b8381036060850152613b5581888a613ade565b63ffffffff969096166080850152509290921660a090910152509695505050505050565b608081526000613b8d60808301888a613a95565b8281036020840152613ba0818789613ade565b63ffffffff95909516604084015250506001600160a01b0391909116606090910152949350505050565b600060208284031215613bdc57600080fd5b81516127ec81612f21565b600181811c90821680613bfb57607f821691505b60208210811415613c1c57634e487b7160e01b600052602260045260246000fd5b50919050565b634e487b7160e01b600052603260045260246000fd5b634e487b7160e01b600052601160045260246000fd5b6000600019821415613c6257613c62613c38565b5060010190565b6000816000190483118215151615613c8357613c83613c38565b500290565b600082613ca557634e487b7160e01b600052601260045260246000fd5b500490565b60008219821115613cbd57613cbd613c38565b500190565b6020808252818101527f507572636861736520776f756c6420657863656564206d617820737570706c79604082015260600190565b600060208284031215613d0957600080fd5b5051919050565b600060018060a01b03808a16835260a06020840152613d3360a08401898b613a95565b8381036040850152613d4681888a613ade565b63ffffffff96909616606085015250929092166080909101525095945050505050565b600060208284031215613d7b57600080fd5b81516001600160401b03811115613d9157600080fd5b8201601f81018413613da257600080fd5b8051613db061347d82613437565b818152856020838501011115613dc557600080fd5b613dd68260208301602086016130f8565b95945050505050565b600060208284031215613df157600080fd5b81516127ec816135a1565b6001600160a01b038481168252602080830185905260606040840181905284519084018190526000928583019290916080860190855b81811015613e50578551851683529483019491830191600101613e32565b50909998505050505050505050565b6001600160a01b0385811682528416602082015260408101839052608060608201819052600090613e9290830184613124565b9695505050505050565b600060208284031215613eae57600080fd5b81516127ec816130c5565b60008351613ecb8184602088016130f8565b835190830190613edf8183602088016130f8565b0194935050505056fea26469706673582212207f8c196ac79bb5dfcb3202ec570c72bef88e63abec5cdb326939c16c778c524864736f6c63430008090033",
  "linkReferences": {},
  "deployedLinkReferences": {}
}