{
  "_format": "hh-sol-artifact-1",
  "contractName": "DCNTSeries",
  "sourceName": "contracts/DCNTSeries.sol",
  "abi": [
    {
      "inputs": [],
      "name": "AirdropExceedsMaxSupply",
      "type": "error"
    },
    {
      "inputs": [],
      "name": "ArrayLengthMismatch",
      "type": "error"
    },
    {
      "inputs": [],
      "name": "BurnExceedsOwnedTokens",
      "type": "error"
    },
    {
      "inputs": [],
      "name": "CannotDecreaseCap",
      "type": "error"
    },
    {
      "inputs": [],
      "name": "CannotTransferSoulbound",
      "type": "error"
    },
    {
      "inputs": [],
      "name": "CapsAreLocked",
      "type": "error"
    },
    {
      "inputs": [],
      "name": "FeeTransferFailed",
      "type": "error"
    },
    {
      "inputs": [],
      "name": "InsufficientFunds",
      "type": "error"
    },
    {
      "inputs": [],
      "name": "InvalidBPS",
      "type": "error"
    },
    {
      "inputs": [],
      "name": "InvalidTokenRange",
      "type": "error"
    },
    {
      "inputs": [],
      "name": "MintExceedsMaxSupply",
      "type": "error"
    },
    {
      "inputs": [],
      "name": "MintExceedsMaxTokensPerOwner",
      "type": "error"
    },
    {
      "inputs": [],
      "name": "NonexistentToken",
      "type": "error"
    },
    {
      "inputs": [],
      "name": "NotPaused",
      "type": "error"
    },
    {
      "inputs": [],
      "name": "OnlyAdmin",
      "type": "error"
    },
    {
      "inputs": [
        {
          "internalType": "address",
          "name": "operator",
          "type": "address"
        }
      ],
      "name": "OperatorNotAllowed",
      "type": "error"
    },
    {
      "inputs": [],
      "name": "Paused",
      "type": "error"
    },
    {
      "inputs": [],
      "name": "PresaleNotActive",
      "type": "error"
    },
    {
      "inputs": [],
      "name": "PresaleVerificationFailed",
      "type": "error"
    },
    {
      "inputs": [],
      "name": "RefundFailed",
      "type": "error"
    },
    {
      "inputs": [],
      "name": "SaleNotActive",
      "type": "error"
    },
    {
      "inputs": [],
      "name": "SplitsAreActive",
      "type": "error"
    },
    {
      "inputs": [],
      "name": "TokenGateDenied",
      "type": "error"
    },
    {
      "inputs": [],
      "name": "WithdrawFailed",
      "type": "error"
    },
    {
      "anonymous": false,
      "inputs": [
        {
          "indexed": true,
          "internalType": "address",
          "name": "owner",
          "type": "address"
        },
        {
          "indexed": true,
          "internalType": "address",
          "name": "operator",
          "type": "address"
        },
        {
          "indexed": false,
          "internalType": "bool",
          "name": "approved",
          "type": "bool"
        }
      ],
      "name": "ApprovalForAll",
      "type": "event"
    },
    {
      "anonymous": false,
      "inputs": [
        {
          "indexed": false,
          "internalType": "uint8",
          "name": "version",
          "type": "uint8"
        }
      ],
      "name": "Initialized",
      "type": "event"
    },
    {
      "anonymous": false,
      "inputs": [
        {
          "indexed": true,
          "internalType": "address",
          "name": "previousOwner",
          "type": "address"
        },
        {
          "indexed": true,
          "internalType": "address",
          "name": "newOwner",
          "type": "address"
        }
      ],
      "name": "OwnershipTransferred",
      "type": "event"
    },
    {
      "anonymous": false,
      "inputs": [
        {
          "indexed": true,
          "internalType": "bytes32",
          "name": "role",
          "type": "bytes32"
        },
        {
          "indexed": true,
          "internalType": "bytes32",
          "name": "previousAdminRole",
          "type": "bytes32"
        },
        {
          "indexed": true,
          "internalType": "bytes32",
          "name": "newAdminRole",
          "type": "bytes32"
        }
      ],
      "name": "RoleAdminChanged",
      "type": "event"
    },
    {
      "anonymous": false,
      "inputs": [
        {
          "indexed": true,
          "internalType": "bytes32",
          "name": "role",
          "type": "bytes32"
        },
        {
          "indexed": true,
          "internalType": "address",
          "name": "account",
          "type": "address"
        },
        {
          "indexed": true,
          "internalType": "address",
          "name": "sender",
          "type": "address"
        }
      ],
      "name": "RoleGranted",
      "type": "event"
    },
    {
      "anonymous": false,
      "inputs": [
        {
          "indexed": true,
          "internalType": "bytes32",
          "name": "role",
          "type": "bytes32"
        },
        {
          "indexed": true,
          "internalType": "address",
          "name": "account",
          "type": "address"
        },
        {
          "indexed": true,
          "internalType": "address",
          "name": "sender",
          "type": "address"
        }
      ],
      "name": "RoleRevoked",
      "type": "event"
    },
    {
      "anonymous": false,
      "inputs": [
        {
          "indexed": true,
          "internalType": "address",
          "name": "operator",
          "type": "address"
        },
        {
          "indexed": true,
          "internalType": "address",
          "name": "from",
          "type": "address"
        },
        {
          "indexed": true,
          "internalType": "address",
          "name": "to",
          "type": "address"
        },
        {
          "indexed": false,
          "internalType": "uint256[]",
          "name": "ids",
          "type": "uint256[]"
        },
        {
          "indexed": false,
          "internalType": "uint256[]",
          "name": "amounts",
          "type": "uint256[]"
        }
      ],
      "name": "TransferBatch",
      "type": "event"
    },
    {
      "anonymous": false,
      "inputs": [
        {
          "indexed": true,
          "internalType": "address",
          "name": "operator",
          "type": "address"
        },
        {
          "indexed": true,
          "internalType": "address",
          "name": "from",
          "type": "address"
        },
        {
          "indexed": true,
          "internalType": "address",
          "name": "to",
          "type": "address"
        },
        {
          "indexed": false,
          "internalType": "uint256",
          "name": "id",
          "type": "uint256"
        },
        {
          "indexed": false,
          "internalType": "uint256",
          "name": "amount",
          "type": "uint256"
        }
      ],
      "name": "TransferSingle",
      "type": "event"
    },
    {
      "anonymous": false,
      "inputs": [
        {
          "indexed": false,
          "internalType": "string",
          "name": "value",
          "type": "string"
        },
        {
          "indexed": true,
          "internalType": "uint256",
          "name": "id",
          "type": "uint256"
        }
      ],
      "name": "URI",
      "type": "event"
    },
    {
      "inputs": [],
      "name": "DEFAULT_ADMIN_ROLE",
      "outputs": [
        {
          "internalType": "bytes32",
          "name": "",
          "type": "bytes32"
        }
      ],
      "stateMutability": "view",
      "type": "function"
    },
    {
      "inputs": [
        {
          "internalType": "address",
          "name": "",
          "type": "address"
        },
        {
          "internalType": "uint256",
          "name": "",
          "type": "uint256"
        }
      ],
      "name": "balanceOf",
      "outputs": [
        {
          "internalType": "uint256",
          "name": "",
          "type": "uint256"
        }
      ],
      "stateMutability": "view",
      "type": "function"
    },
    {
      "inputs": [
        {
          "internalType": "address[]",
          "name": "owners",
          "type": "address[]"
        },
        {
          "internalType": "uint256[]",
          "name": "ids",
          "type": "uint256[]"
        }
      ],
      "name": "balanceOfBatch",
      "outputs": [
        {
          "internalType": "uint256[]",
          "name": "balances",
          "type": "uint256[]"
        }
      ],
      "stateMutability": "view",
      "type": "function"
    },
    {
      "inputs": [
        {
          "internalType": "uint256",
          "name": "tokenId",
          "type": "uint256"
        },
        {
          "internalType": "uint256",
          "name": "quantity",
          "type": "uint256"
        }
      ],
      "name": "burn",
      "outputs": [],
      "stateMutability": "nonpayable",
      "type": "function"
    },
    {
      "inputs": [],
      "name": "contractURI",
      "outputs": [
        {
          "internalType": "string",
          "name": "",
          "type": "string"
        }
      ],
      "stateMutability": "view",
      "type": "function"
    },
    {
      "inputs": [],
      "name": "contractVersion",
      "outputs": [
        {
          "internalType": "uint32",
          "name": "",
          "type": "uint32"
        }
      ],
      "stateMutability": "view",
      "type": "function"
    },
    {
      "inputs": [
        {
          "internalType": "address",
          "name": "_splitMain",
          "type": "address"
        },
        {
          "internalType": "address[]",
          "name": "accounts",
          "type": "address[]"
        },
        {
          "internalType": "uint32[]",
          "name": "percentAllocations",
          "type": "uint32[]"
        },
        {
          "internalType": "uint32",
          "name": "distributorFee",
          "type": "uint32"
        }
      ],
      "name": "createSplit",
      "outputs": [],
      "stateMutability": "nonpayable",
      "type": "function"
    },
    {
      "inputs": [],
      "name": "currencyOracle",
      "outputs": [
        {
          "internalType": "contract AggregatorV3Interface",
          "name": "",
          "type": "address"
        }
      ],
      "stateMutability": "view",
      "type": "function"
    },
    {
      "inputs": [
        {
          "internalType": "address",
          "name": "account",
          "type": "address"
        },
        {
          "internalType": "uint256",
          "name": "withdrawETH",
          "type": "uint256"
        },
        {
          "internalType": "contract ERC20[]",
          "name": "tokens",
          "type": "address[]"
        },
        {
          "internalType": "address[]",
          "name": "accounts",
          "type": "address[]"
        },
        {
          "internalType": "uint32[]",
          "name": "percentAllocations",
          "type": "uint32[]"
        },
        {
          "internalType": "uint32",
          "name": "distributorFee",
          "type": "uint32"
        },
        {
          "internalType": "address",
          "name": "distributorAddress",
          "type": "address"
        }
      ],
      "name": "distributeAndWithdraw",
      "outputs": [],
      "stateMutability": "nonpayable",
      "type": "function"
    },
    {
      "inputs": [
        {
          "internalType": "contract ERC20",
          "name": "token",
          "type": "address"
        },
        {
          "internalType": "address[]",
          "name": "accounts",
          "type": "address[]"
        },
        {
          "internalType": "uint32[]",
          "name": "percentAllocations",
          "type": "uint32[]"
        },
        {
          "internalType": "uint32",
          "name": "distributorFee",
          "type": "uint32"
        },
        {
          "internalType": "address",
          "name": "distributorAddress",
          "type": "address"
        }
      ],
      "name": "distributeERC20",
      "outputs": [],
      "stateMutability": "nonpayable",
      "type": "function"
    },
    {
      "inputs": [
        {
          "internalType": "address[]",
          "name": "accounts",
          "type": "address[]"
        },
        {
          "internalType": "uint32[]",
          "name": "percentAllocations",
          "type": "uint32[]"
        },
        {
          "internalType": "uint32",
          "name": "distributorFee",
          "type": "uint32"
        },
        {
          "internalType": "address",
          "name": "distributorAddress",
          "type": "address"
        }
      ],
      "name": "distributeETH",
      "outputs": [],
      "stateMutability": "nonpayable",
      "type": "function"
    },
    {
      "inputs": [],
      "name": "feeManager",
      "outputs": [
        {
          "internalType": "address",
          "name": "",
          "type": "address"
        }
      ],
      "stateMutability": "view",
      "type": "function"
    },
    {
      "inputs": [
        {
          "internalType": "bytes32",
          "name": "role",
          "type": "bytes32"
        }
      ],
      "name": "getRoleAdmin",
      "outputs": [
        {
          "internalType": "bytes32",
          "name": "",
          "type": "bytes32"
        }
      ],
      "stateMutability": "view",
      "type": "function"
    },
    {
      "inputs": [
        {
          "internalType": "bytes32",
          "name": "role",
          "type": "bytes32"
        },
        {
          "internalType": "address",
          "name": "account",
          "type": "address"
        }
      ],
      "name": "grantRole",
      "outputs": [],
      "stateMutability": "nonpayable",
      "type": "function"
    },
    {
      "inputs": [],
      "name": "hasAdjustableCaps",
      "outputs": [
        {
          "internalType": "bool",
          "name": "",
          "type": "bool"
        }
      ],
      "stateMutability": "view",
      "type": "function"
    },
    {
      "inputs": [
        {
          "internalType": "bytes32",
          "name": "role",
          "type": "bytes32"
        },
        {
          "internalType": "address",
          "name": "account",
          "type": "address"
        }
      ],
      "name": "hasRole",
      "outputs": [
        {
          "internalType": "bool",
          "name": "",
          "type": "bool"
        }
      ],
      "stateMutability": "view",
      "type": "function"
    },
    {
      "inputs": [
        {
          "internalType": "address",
          "name": "_owner",
          "type": "address"
        },
        {
          "components": [
            {
              "internalType": "string",
              "name": "name",
              "type": "string"
            },
            {
              "internalType": "string",
              "name": "symbol",
              "type": "string"
            },
            {
              "internalType": "string",
              "name": "contractURI",
              "type": "string"
            },
            {
              "internalType": "string",
              "name": "metadataURI",
              "type": "string"
            },
            {
              "internalType": "uint128",
              "name": "startTokenId",
              "type": "uint128"
            },
            {
              "internalType": "uint128",
              "name": "endTokenId",
              "type": "uint128"
            },
            {
              "internalType": "uint16",
              "name": "royaltyBPS",
              "type": "uint16"
            },
            {
              "internalType": "address",
              "name": "feeManager",
              "type": "address"
            },
            {
              "internalType": "address",
              "name": "payoutAddress",
              "type": "address"
            },
            {
              "internalType": "address",
              "name": "currencyOracle",
              "type": "address"
            },
            {
              "internalType": "bool",
              "name": "isSoulbound",
              "type": "bool"
            },
            {
              "internalType": "bool",
              "name": "hasAdjustableCaps",
              "type": "bool"
            }
          ],
          "internalType": "struct IDCNTSeries.SeriesConfig",
          "name": "_config",
          "type": "tuple"
        },
        {
          "components": [
            {
              "internalType": "uint32",
              "name": "maxTokens",
              "type": "uint32"
            },
            {
              "internalType": "uint32",
              "name": "maxTokensPerOwner",
              "type": "uint32"
            },
            {
              "internalType": "uint32",
              "name": "presaleStart",
              "type": "uint32"
            },
            {
              "internalType": "uint32",
              "name": "presaleEnd",
              "type": "uint32"
            },
            {
              "internalType": "uint32",
              "name": "saleStart",
              "type": "uint32"
            },
            {
              "internalType": "uint32",
              "name": "saleEnd",
              "type": "uint32"
            },
            {
              "internalType": "uint96",
              "name": "tokenPrice",
              "type": "uint96"
            },
            {
              "internalType": "bytes32",
              "name": "presaleMerkleRoot",
              "type": "bytes32"
            },
            {
              "components": [
                {
                  "internalType": "address",
                  "name": "tokenAddress",
                  "type": "address"
                },
                {
                  "internalType": "uint88",
                  "name": "minBalance",
                  "type": "uint88"
                },
                {
                  "internalType": "enum SaleType",
                  "name": "saleType",
                  "type": "uint8"
                }
              ],
              "internalType": "struct TokenGateConfig",
              "name": "tokenGate",
              "type": "tuple"
            }
          ],
          "internalType": "struct IDCNTSeries.Drop",
          "name": "_defaultDrop",
          "type": "tuple"
        },
        {
          "components": [
            {
              "internalType": "uint256[]",
              "name": "tokenIds",
              "type": "uint256[]"
            },
            {
              "internalType": "uint256[]",
              "name": "tokenIdDropIds",
              "type": "uint256[]"
            },
            {
              "internalType": "uint256[]",
              "name": "dropIds",
              "type": "uint256[]"
            },
            {
              "components": [
                {
                  "internalType": "uint32",
                  "name": "maxTokens",
                  "type": "uint32"
                },
                {
                  "internalType": "uint32",
                  "name": "maxTokensPerOwner",
                  "type": "uint32"
                },
                {
                  "internalType": "uint32",
                  "name": "presaleStart",
                  "type": "uint32"
                },
                {
                  "internalType": "uint32",
                  "name": "presaleEnd",
                  "type": "uint32"
                },
                {
                  "internalType": "uint32",
                  "name": "saleStart",
                  "type": "uint32"
                },
                {
                  "internalType": "uint32",
                  "name": "saleEnd",
                  "type": "uint32"
                },
                {
                  "internalType": "uint96",
                  "name": "tokenPrice",
                  "type": "uint96"
                },
                {
                  "internalType": "bytes32",
                  "name": "presaleMerkleRoot",
                  "type": "bytes32"
                },
                {
                  "components": [
                    {
                      "internalType": "address",
                      "name": "tokenAddress",
                      "type": "address"
                    },
                    {
                      "internalType": "uint88",
                      "name": "minBalance",
                      "type": "uint88"
                    },
                    {
                      "internalType": "enum SaleType",
                      "name": "saleType",
                      "type": "uint8"
                    }
                  ],
                  "internalType": "struct TokenGateConfig",
                  "name": "tokenGate",
                  "type": "tuple"
                }
              ],
              "internalType": "struct IDCNTSeries.Drop[]",
              "name": "drops",
              "type": "tuple[]"
            }
          ],
          "internalType": "struct IDCNTSeries.DropMap",
          "name": "_dropOverrides",
          "type": "tuple"
        }
      ],
      "name": "initialize",
      "outputs": [],
      "stateMutability": "nonpayable",
      "type": "function"
    },
    {
      "inputs": [
        {
          "internalType": "address",
          "name": "",
          "type": "address"
        },
        {
          "internalType": "address",
          "name": "",
          "type": "address"
        }
      ],
      "name": "isApprovedForAll",
      "outputs": [
        {
          "internalType": "bool",
          "name": "",
          "type": "bool"
        }
      ],
      "stateMutability": "view",
      "type": "function"
    },
    {
      "inputs": [],
      "name": "isSoulbound",
      "outputs": [
        {
          "internalType": "bool",
          "name": "",
          "type": "bool"
        }
      ],
      "stateMutability": "view",
      "type": "function"
    },
    {
      "inputs": [
        {
          "internalType": "uint256",
          "name": "tokenId",
          "type": "uint256"
        },
        {
          "internalType": "address",
          "name": "to",
          "type": "address"
        },
        {
          "internalType": "uint256",
          "name": "quantity",
          "type": "uint256"
        }
      ],
      "name": "mint",
      "outputs": [],
      "stateMutability": "payable",
      "type": "function"
    },
    {
      "inputs": [
        {
          "internalType": "uint256",
          "name": "tokenId",
          "type": "uint256"
        },
        {
          "internalType": "address[]",
          "name": "recipients",
          "type": "address[]"
        }
      ],
      "name": "mintAirdrop",
      "outputs": [],
      "stateMutability": "nonpayable",
      "type": "function"
    },
    {
      "inputs": [
        {
          "internalType": "address",
          "name": "to",
          "type": "address"
        },
        {
          "internalType": "uint256[]",
          "name": "tokenIds",
          "type": "uint256[]"
        },
        {
          "internalType": "uint256[]",
          "name": "quantities",
          "type": "uint256[]"
        }
      ],
      "name": "mintBatch",
      "outputs": [],
      "stateMutability": "payable",
      "type": "function"
    },
    {
      "inputs": [
        {
          "internalType": "uint256",
          "name": "tokenId",
          "type": "uint256"
        },
        {
          "internalType": "uint256",
          "name": "quantity",
          "type": "uint256"
        }
      ],
      "name": "mintFee",
      "outputs": [
        {
          "internalType": "uint256",
          "name": "fee",
          "type": "uint256"
        }
      ],
      "stateMutability": "view",
      "type": "function"
    },
    {
      "inputs": [
        {
          "internalType": "uint256",
          "name": "tokenId",
          "type": "uint256"
        },
        {
          "internalType": "uint256",
          "name": "quantity",
          "type": "uint256"
        },
        {
          "internalType": "uint256",
          "name": "maxQuantity",
          "type": "uint256"
        },
        {
          "internalType": "uint256",
          "name": "pricePerToken",
          "type": "uint256"
        },
        {
          "internalType": "bytes32[]",
          "name": "merkleProof",
          "type": "bytes32[]"
        }
      ],
      "name": "mintPresale",
      "outputs": [],
      "stateMutability": "payable",
      "type": "function"
    },
    {
      "inputs": [],
      "name": "name",
      "outputs": [
        {
          "internalType": "string",
          "name": "",
          "type": "string"
        }
      ],
      "stateMutability": "view",
      "type": "function"
    },
    {
      "inputs": [],
      "name": "operatorFilterRegistry",
      "outputs": [
        {
          "internalType": "contract IOperatorFilterRegistry",
          "name": "",
          "type": "address"
        }
      ],
      "stateMutability": "view",
      "type": "function"
    },
    {
      "inputs": [],
      "name": "owner",
      "outputs": [
        {
          "internalType": "address",
          "name": "",
          "type": "address"
        }
      ],
      "stateMutability": "view",
      "type": "function"
    },
    {
      "inputs": [],
      "name": "pause",
      "outputs": [],
      "stateMutability": "nonpayable",
      "type": "function"
    },
    {
      "inputs": [],
      "name": "paused",
      "outputs": [
        {
          "internalType": "bool",
          "name": "",
          "type": "bool"
        }
      ],
      "stateMutability": "view",
      "type": "function"
    },
    {
      "inputs": [],
      "name": "payoutAddress",
      "outputs": [
        {
          "internalType": "address",
          "name": "",
          "type": "address"
        }
      ],
      "stateMutability": "view",
      "type": "function"
    },
    {
      "inputs": [],
      "name": "renounceOwnership",
      "outputs": [],
      "stateMutability": "nonpayable",
      "type": "function"
    },
    {
      "inputs": [
        {
          "internalType": "bytes32",
          "name": "role",
          "type": "bytes32"
        },
        {
          "internalType": "address",
          "name": "account",
          "type": "address"
        }
      ],
      "name": "renounceRole",
      "outputs": [],
      "stateMutability": "nonpayable",
      "type": "function"
    },
    {
      "inputs": [
        {
          "internalType": "bytes32",
          "name": "role",
          "type": "bytes32"
        },
        {
          "internalType": "address",
          "name": "account",
          "type": "address"
        }
      ],
      "name": "revokeRole",
      "outputs": [],
      "stateMutability": "nonpayable",
      "type": "function"
    },
    {
      "inputs": [],
      "name": "royaltyBPS",
      "outputs": [
        {
          "internalType": "uint16",
          "name": "",
          "type": "uint16"
        }
      ],
      "stateMutability": "view",
      "type": "function"
    },
    {
      "inputs": [
        {
          "internalType": "uint256",
          "name": "tokenId",
          "type": "uint256"
        },
        {
          "internalType": "uint256",
          "name": "salePrice",
          "type": "uint256"
        }
      ],
      "name": "royaltyInfo",
      "outputs": [
        {
          "internalType": "address",
          "name": "receiver",
          "type": "address"
        },
        {
          "internalType": "uint256",
          "name": "royaltyAmount",
          "type": "uint256"
        }
      ],
      "stateMutability": "view",
      "type": "function"
    },
    {
      "inputs": [
        {
          "internalType": "address",
          "name": "from",
          "type": "address"
        },
        {
          "internalType": "address",
          "name": "to",
          "type": "address"
        },
        {
          "internalType": "uint256[]",
          "name": "ids",
          "type": "uint256[]"
        },
        {
          "internalType": "uint256[]",
          "name": "amounts",
          "type": "uint256[]"
        },
        {
          "internalType": "bytes",
          "name": "data",
          "type": "bytes"
        }
      ],
      "name": "safeBatchTransferFrom",
      "outputs": [],
      "stateMutability": "nonpayable",
      "type": "function"
    },
    {
      "inputs": [
        {
          "internalType": "address",
          "name": "from",
          "type": "address"
        },
        {
          "internalType": "address",
          "name": "to",
          "type": "address"
        },
        {
          "internalType": "uint256",
          "name": "id",
          "type": "uint256"
        },
        {
          "internalType": "uint256",
          "name": "amount",
          "type": "uint256"
        },
        {
          "internalType": "bytes",
          "name": "data",
          "type": "bytes"
        }
      ],
      "name": "safeTransferFrom",
      "outputs": [],
      "stateMutability": "nonpayable",
      "type": "function"
    },
    {
      "inputs": [
        {
          "internalType": "address",
          "name": "operator",
          "type": "address"
        },
        {
          "internalType": "bool",
          "name": "approved",
          "type": "bool"
        }
      ],
      "name": "setApprovalForAll",
      "outputs": [],
      "stateMutability": "nonpayable",
      "type": "function"
    },
    {
      "inputs": [
        {
          "internalType": "string",
          "name": "contractURI_",
          "type": "string"
        }
      ],
      "name": "setContractURI",
      "outputs": [],
      "stateMutability": "nonpayable",
      "type": "function"
    },
    {
      "inputs": [
        {
          "internalType": "address",
          "name": "_payoutAddress",
          "type": "address"
        }
      ],
      "name": "setPayoutAddress",
      "outputs": [],
      "stateMutability": "nonpayable",
      "type": "function"
    },
    {
      "inputs": [
        {
          "internalType": "uint16",
          "name": "_royaltyBPS",
          "type": "uint16"
        }
      ],
      "name": "setRoyaltyBPS",
      "outputs": [],
      "stateMutability": "nonpayable",
      "type": "function"
    },
    {
      "inputs": [
        {
          "internalType": "uint128",
          "name": "newTokens",
          "type": "uint128"
        },
        {
          "components": [
            {
              "internalType": "uint256[]",
              "name": "tokenIds",
              "type": "uint256[]"
            },
            {
              "internalType": "uint256[]",
              "name": "tokenIdDropIds",
              "type": "uint256[]"
            },
            {
              "internalType": "uint256[]",
              "name": "dropIds",
              "type": "uint256[]"
            },
            {
              "components": [
                {
                  "internalType": "uint32",
                  "name": "maxTokens",
                  "type": "uint32"
                },
                {
                  "internalType": "uint32",
                  "name": "maxTokensPerOwner",
                  "type": "uint32"
                },
                {
                  "internalType": "uint32",
                  "name": "presaleStart",
                  "type": "uint32"
                },
                {
                  "internalType": "uint32",
                  "name": "presaleEnd",
                  "type": "uint32"
                },
                {
                  "internalType": "uint32",
                  "name": "saleStart",
                  "type": "uint32"
                },
                {
                  "internalType": "uint32",
                  "name": "saleEnd",
                  "type": "uint32"
                },
                {
                  "internalType": "uint96",
                  "name": "tokenPrice",
                  "type": "uint96"
                },
                {
                  "internalType": "bytes32",
                  "name": "presaleMerkleRoot",
                  "type": "bytes32"
                },
                {
                  "components": [
                    {
                      "internalType": "address",
                      "name": "tokenAddress",
                      "type": "address"
                    },
                    {
                      "internalType": "uint88",
                      "name": "minBalance",
                      "type": "uint88"
                    },
                    {
                      "internalType": "enum SaleType",
                      "name": "saleType",
                      "type": "uint8"
                    }
                  ],
                  "internalType": "struct TokenGateConfig",
                  "name": "tokenGate",
                  "type": "tuple"
                }
              ],
              "internalType": "struct IDCNTSeries.Drop[]",
              "name": "drops",
              "type": "tuple[]"
            }
          ],
          "internalType": "struct IDCNTSeries.DropMap",
          "name": "dropMap",
          "type": "tuple"
        }
      ],
      "name": "setTokenDrops",
      "outputs": [],
      "stateMutability": "nonpayable",
      "type": "function"
    },
    {
      "inputs": [
        {
          "internalType": "string",
          "name": "uri_",
          "type": "string"
        }
      ],
      "name": "setURI",
      "outputs": [],
      "stateMutability": "nonpayable",
      "type": "function"
    },
    {
      "inputs": [],
      "name": "splitMain",
      "outputs": [
        {
          "internalType": "address",
          "name": "",
          "type": "address"
        }
      ],
      "stateMutability": "view",
      "type": "function"
    },
    {
      "inputs": [],
      "name": "splitWallet",
      "outputs": [
        {
          "internalType": "address",
          "name": "",
          "type": "address"
        }
      ],
      "stateMutability": "view",
      "type": "function"
    },
    {
      "inputs": [
        {
          "internalType": "bytes4",
          "name": "interfaceId",
          "type": "bytes4"
        }
      ],
      "name": "supportsInterface",
      "outputs": [
        {
          "internalType": "bool",
          "name": "",
          "type": "bool"
        }
      ],
      "stateMutability": "view",
      "type": "function"
    },
    {
      "inputs": [],
      "name": "symbol",
      "outputs": [
        {
          "internalType": "string",
          "name": "",
          "type": "string"
        }
      ],
      "stateMutability": "view",
      "type": "function"
    },
    {
      "inputs": [
        {
          "internalType": "uint128",
          "name": "tokenId",
          "type": "uint128"
        }
      ],
      "name": "tokenDrop",
      "outputs": [
        {
          "components": [
            {
              "internalType": "uint32",
              "name": "maxTokens",
              "type": "uint32"
            },
            {
              "internalType": "uint32",
              "name": "maxTokensPerOwner",
              "type": "uint32"
            },
            {
              "internalType": "uint32",
              "name": "presaleStart",
              "type": "uint32"
            },
            {
              "internalType": "uint32",
              "name": "presaleEnd",
              "type": "uint32"
            },
            {
              "internalType": "uint32",
              "name": "saleStart",
              "type": "uint32"
            },
            {
              "internalType": "uint32",
              "name": "saleEnd",
              "type": "uint32"
            },
            {
              "internalType": "uint96",
              "name": "tokenPrice",
              "type": "uint96"
            },
            {
              "internalType": "bytes32",
              "name": "presaleMerkleRoot",
              "type": "bytes32"
            },
            {
              "components": [
                {
                  "internalType": "address",
                  "name": "tokenAddress",
                  "type": "address"
                },
                {
                  "internalType": "uint88",
                  "name": "minBalance",
                  "type": "uint88"
                },
                {
                  "internalType": "enum SaleType",
                  "name": "saleType",
                  "type": "uint8"
                }
              ],
              "internalType": "struct TokenGateConfig",
              "name": "tokenGate",
              "type": "tuple"
            }
          ],
          "internalType": "struct IDCNTSeries.Drop",
          "name": "",
          "type": "tuple"
        }
      ],
      "stateMutability": "view",
      "type": "function"
    },
    {
      "inputs": [
        {
          "internalType": "uint256",
          "name": "",
          "type": "uint256"
        }
      ],
      "name": "tokenDropIds",
      "outputs": [
        {
          "internalType": "uint256",
          "name": "",
          "type": "uint256"
        }
      ],
      "stateMutability": "view",
      "type": "function"
    },
    {
      "inputs": [
        {
          "internalType": "uint256",
          "name": "tokenId",
          "type": "uint256"
        }
      ],
      "name": "tokenPrice",
      "outputs": [
        {
          "internalType": "uint256",
          "name": "",
          "type": "uint256"
        }
      ],
      "stateMutability": "view",
      "type": "function"
    },
    {
      "inputs": [],
      "name": "tokenRange",
      "outputs": [
        {
          "internalType": "uint128",
          "name": "startTokenId",
          "type": "uint128"
        },
        {
          "internalType": "uint128",
          "name": "endTokenId",
          "type": "uint128"
        }
      ],
      "stateMutability": "view",
      "type": "function"
    },
    {
      "inputs": [
        {
          "internalType": "uint256",
          "name": "",
          "type": "uint256"
        }
      ],
      "name": "totalSupply",
      "outputs": [
        {
          "internalType": "uint256",
          "name": "",
          "type": "uint256"
        }
      ],
      "stateMutability": "view",
      "type": "function"
    },
    {
      "inputs": [
        {
          "internalType": "address",
          "name": "newOwner",
          "type": "address"
        }
      ],
      "name": "transferOwnership",
      "outputs": [],
      "stateMutability": "nonpayable",
      "type": "function"
    },
    {
      "inputs": [
        {
          "internalType": "uint256",
          "name": "transferETH",
          "type": "uint256"
        },
        {
          "internalType": "contract ERC20[]",
          "name": "tokens",
          "type": "address[]"
        }
      ],
      "name": "transferToSplit",
      "outputs": [],
      "stateMutability": "nonpayable",
      "type": "function"
    },
    {
      "inputs": [],
      "name": "unpause",
      "outputs": [],
      "stateMutability": "nonpayable",
      "type": "function"
    },
    {
      "inputs": [
        {
          "internalType": "bool",
          "name": "enable",
          "type": "bool"
        },
        {
          "internalType": "address",
          "name": "operatorFilter",
          "type": "address"
        }
      ],
      "name": "updateOperatorFilter",
      "outputs": [],
      "stateMutability": "nonpayable",
      "type": "function"
    },
    {
      "inputs": [
        {
          "internalType": "uint256",
          "name": "",
          "type": "uint256"
        }
      ],
      "name": "uri",
      "outputs": [
        {
          "internalType": "string",
          "name": "",
          "type": "string"
        }
      ],
      "stateMutability": "view",
      "type": "function"
    },
    {
      "inputs": [],
      "name": "withdraw",
      "outputs": [],
      "stateMutability": "nonpayable",
      "type": "function"
    }
  ],
  "bytecode": "0x60a06040523480156200001157600080fd5b5060016200001f3362000038565b6004805460ff1916905563ffffffff1660805262000094565b600280546001600160a01b038381166201000081810262010000600160b01b031985161790945560405193909204169182907f8be0079c531659141344cd1fd0a4f28419497f9722a3daafe3b4186f6b6457e090600090a35050565b608051615f6d620000b060003960006108e00152615f6d6000f3fe60806040526004361061037f5760003560e01c8063715018a6116101d1578063b390c0ab11610102578063d81d0a15116100a0578063f209e7061161006f578063f209e70614610adf578063f242432a14610b0c578063f2fde38b14610b2c578063f7eca6d014610b4c57600080fd5b8063d81d0a1514610a5c578063e8a3d48514610a6f578063e8f5c90e14610a84578063e985e9c514610aa457600080fd5b8063c4559d5a116100dc578063c4559d5a146109dc578063d0fb0203146109fc578063d4ddce8a14610a1c578063d547741f14610a3c57600080fd5b8063b390c0ab14610961578063b9c9d93a14610981578063bd85b039146109af57600080fd5b806391d148541161016f578063a0a8e46011610149578063a0a8e460146108c9578063a217fddf1461090a578063a22cb4651461091f578063b0ccc31e1461093f57600080fd5b806391d1485414610874578063938e3d7b1461089457806395d89b41146108b457600080fd5b80638456cb59116101ab5780638456cb59146107fb57806389e2fad2146108105780638da5cb5b14610830578063913300101461085457600080fd5b8063715018a6146107b357806379ab7c8e146107c8578063836a1040146107e857600080fd5b80632d75fea6116102b65780633f4ba83a116102545780635b8d02d7116102235780635b8d02d7146107425780635c975abb14610768578063661d706414610780578063713b97871461079357600080fd5b80633f4ba83a146106af57806340698418146106c45780634e1273f4146106f5578063524fc4641461072257600080fd5b806333ea3e6d1161029057806333ea3e6d1461063a57806333ea51a81461065a57806336568abe1461067a5780633ccfd60b1461069a57600080fd5b80632d75fea6146105da5780632eb2c2d6146105fa5780632f2ff15d1461061a57600080fd5b80630efd898a11610323578063248a9ca3116102fd578063248a9ca31461052a578063284a44a81461055a5780632a55205a1461057a5780632d731a55146105b957600080fd5b80630efd898a146104bd5780631299e5da146104dd57806314fe4b941461050a57600080fd5b806302fe53051161035f57806302fe53051461041e57806306fdde031461043e5780630e769b2b146104605780630e89341c1461049d57600080fd5b80625f16fb14610384578062fdd58e146103a657806301ffc9a7146103ee575b600080fd5b34801561039057600080fd5b506103a461039f3660046145dd565b610b6d565b005b3480156103b257600080fd5b506103db6103c1366004614685565b600060208181529281526040808220909352908152205481565b6040519081526020015b60405180910390f35b3480156103fa57600080fd5b5061040e6104093660046146c7565b610c27565b60405190151581526020016103e5565b34801561042a57600080fd5b506103a461043936600461472a565b610c61565b34801561044a57600080fd5b50610453610d01565b6040516103e5919061480e565b34801561046c57600080fd5b506004546104859061010090046001600160a01b031681565b6040516001600160a01b0390911681526020016103e5565b3480156104a957600080fd5b506104536104b8366004614821565b610d93565b3480156104c957600080fd5b506103db6104d836600461483a565b610e27565b3480156104e957600080fd5b506103db6104f8366004614821565b600c6020526000908152604090205481565b34801561051657600080fd5b506103a461052536600461485c565b610ed0565b34801561053657600080fd5b506103db610545366004614821565b60009081526003602052604090206001015490565b34801561056657600080fd5b506103a461057536600461492f565b610fd5565b34801561058657600080fd5b5061059a61059536600461483a565b61106c565b604080516001600160a01b0390931683526020830191909152016103e5565b3480156105c557600080fd5b50600b5461040e90600160b81b900460ff1681565b3480156105e657600080fd5b506103a46105f5366004614a0e565b61110e565b34801561060657600080fd5b506103a4610615366004614a88565b611336565b34801561062657600080fd5b506103a4610635366004614b46565b6113bf565b34801561064657600080fd5b506103a4610655366004614b6b565b6113e4565b34801561066657600080fd5b506103a4610675366004614bff565b6114fe565b34801561068657600080fd5b506103a4610695366004614b46565b611550565b3480156106a657600080fd5b506103a46115ce565b3480156106bb57600080fd5b506103a46116b1565b3480156106d057600080fd5b5060085460408051608083901c81526001600160801b039092166020830152016103e5565b34801561070157600080fd5b50610715610710366004614c1c565b6116eb565b6040516103e59190614cc2565b34801561072e57600080fd5b50601054610485906001600160a01b031681565b34801561074e57600080fd5b50600b54610485906201000090046001600160a01b031681565b34801561077457600080fd5b5060045460ff1661040e565b6103a461078e366004614cd5565b6117fd565b34801561079f57600080fd5b50600554610485906001600160a01b031681565b3480156107bf57600080fd5b506103a4611984565b3480156107d457600080fd5b506103a46107e3366004614d3e565b611996565b6103a46107f6366004614d7a565b611a0a565b34801561080757600080fd5b506103a4611b5a565b34801561081c57600080fd5b506103a461082b366004614ddb565b611b92565b34801561083c57600080fd5b506002546201000090046001600160a01b0316610485565b34801561086057600080fd5b506103a461086f366004614e1e565b611f90565b34801561088057600080fd5b5061040e61088f366004614b46565b611fc4565b3480156108a057600080fd5b506103a46108af36600461472a565b611fef565b3480156108c057600080fd5b50610453612023565b3480156108d557600080fd5b5060405163ffffffff7f00000000000000000000000000000000000000000000000000000000000000001681526020016103e5565b34801561091657600080fd5b506103db600081565b34801561092b57600080fd5b506103a461093a366004614e42565b612032565b34801561094b57600080fd5b506104856daaeb6d7670e522a718067333cd4e81565b34801561096d57600080fd5b506103a461097c36600461483a565b612046565b34801561098d57600080fd5b50600b5461099c9061ffff1681565b60405161ffff90911681526020016103e5565b3480156109bb57600080fd5b506103db6109ca366004614821565b600e6020526000908152604090205481565b3480156109e857600080fd5b506103a46109f7366004614e70565b6120b1565b348015610a0857600080fd5b50600f54610485906001600160a01b031681565b348015610a2857600080fd5b506103db610a37366004614821565b61215e565b348015610a4857600080fd5b506103a4610a57366004614b46565b612341565b6103a4610a6a366004614ef6565b612366565b348015610a7b57600080fd5b5061045361256e565b348015610a9057600080fd5b506103a4610a9f366004614f78565b61257d565b348015610ab057600080fd5b5061040e610abf366004615017565b600160209081526000928352604080842090915290825290205460ff1681565b348015610aeb57600080fd5b50610aff610afa366004615035565b612880565b6040516103e591906150b4565b348015610b1857600080fd5b506103a4610b27366004615144565b6129fd565b348015610b3857600080fd5b506103a4610b47366004614bff565b612a2f565b348015610b5857600080fd5b50600b5461040e90600160b01b900460ff1681565b6005546001600160a01b0316610b9e5760405162461bcd60e51b8152600401610b95906151ad565b60405180910390fd5b610ba787612aa5565b60048054600554604051630ac0898160e11b81526001600160a01b03610100909304831693631581130293610bec9316918c918c918c918c918c918c918c9101615255565b600060405180830381600087803b158015610c0657600080fd5b505af1158015610c1a573d6000803e3d6000fd5b5050505050505050505050565b600063152a902d60e11b6001600160e01b031983161480610c4c5750610c4c82612b89565b80610c5b5750610c5b82612bbe565b92915050565b610c6c600033611fc4565b610c8957604051634755657960e01b815260040160405180910390fd5b6009610c958282615331565b50600854608081901c906001600160801b0316815b816001600160801b03168111610cfb57807f6bb7ff708619ba0610cba295a58592e0451dee2622938c8755667688daf3529b6009604051610ceb91906153f0565b60405180910390a2600101610caa565b50505050565b606060068054610d10906152b7565b80601f0160208091040260200160405190810160405280929190818152602001828054610d3c906152b7565b8015610d895780601f10610d5e57610100808354040283529160200191610d89565b820191906000526020600020905b815481529060010190602001808311610d6c57829003601f168201915b5050505050905090565b606060098054610da2906152b7565b80601f0160208091040260200160405190810160405280929190818152602001828054610dce906152b7565b8015610e1b5780601f10610df057610100808354040283529160200191610e1b565b820191906000526020600020905b815481529060010190602001808311610dfe57829003601f168201915b50505050509050919050565b600082610e3381612c0c565b600f546001600160a01b031615610ec957600f546001600160a01b0316637096335b610e5e8661215e565b856040518363ffffffff1660e01b8152600401610e85929190918252602082015260400190565b6040805180830381865afa158015610ea1573d6000803e3d6000fd5b505050506040513d601f19601f82011682018060405250810190610ec5919061547b565b5091505b5092915050565b610edb600033611fc4565b610ef857604051634755657960e01b815260040160405180910390fd5b82610f0281612c0c565b6000848152600c60209081526040808320548352600d825280832054878452600e90925290912054839163ffffffff1690610f3e9083906154b5565b1115610f5d5760405163373f5c5960e11b815260040160405180910390fd5b60005b81811015610fb8576000858583818110610f7c57610f7c6154c8565b9050602002016020810190610f919190614bff565b9050610faf8188600160405180602001604052806000815250612c52565b50600101610f60565b506000948552600e60205260409094208054909401909355505050565b6005546001600160a01b0316610ffd5760405162461bcd60e51b8152600401610b95906151ad565b8715611011576110118686868686866120b1565b60005b875181101561105557611045888281518110611032576110326154c8565b6020026020010151888888888888610b6d565b61104e816154de565b9050611014565b50611061898989612c76565b505050505050505050565b60008061107884612c0c565b6005546001600160a01b03161561109c576005546001600160a01b031691506110e1565b600b546201000090046001600160a01b0316156110cc57600b546201000090046001600160a01b031691506110e1565b6002546201000090046001600160a01b031691505b600b54600090612710906110f99061ffff16866154f7565b611103919061550e565b9150505b9250929050565b611119600033611fc4565b61113657604051634755657960e01b815260040160405180910390fd5b60405163c3c5a54760e01b81523060048201819052906daaeb6d7670e522a718067333cd4e9063c3c5a547906024016020604051808303816000875af1158015611184573d6000803e3d6000fd5b505050506040513d601f19601f820116820180604052508101906111a89190615530565b1580156111b25750825b1561122c57604051633e9f1edf60e11b81526001600160a01b038083166004830152831660248201526daaeb6d7670e522a718067333cd4e90637d3e3dbe906044015b600060405180830381600087803b15801561120f57600080fd5b505af1158015611223573d6000803e3d6000fd5b50505050505050565b821561127457604051632cc5350560e21b81526001600160a01b038083166004830152831660248201526daaeb6d7670e522a718067333cd4e9063b314d414906044016111f5565b60405163034a0dc160e41b81526001600160a01b0382166004820152600060248201526daaeb6d7670e522a718067333cd4e906334a0dc1090604401600060405180830381600087803b1580156112ca57600080fd5b505af11580156112de573d6000803e3d6000fd5b5050604051631761612360e11b81526001600160a01b03841660048201526daaeb6d7670e522a718067333cd4e9250632ec2c2469150602401600060405180830381600087803b15801561120f57600080fd5b505050565b6113a5888888888080602002602001604051908101604052809392919081815260200183836020028082843760009201919091525050604080516020808c0282810182019093528b82529093508b92508a918291850190849080828437600092019190915250612cad92505050565b6113b58888888888888888612d1a565b5050505050505050565b6000828152600360205260409020600101546113da81612f8f565b6113318383612f99565b6113ec61301f565b6005546001600160a01b03161561143d5760405162461bcd60e51b815260206004820152601560248201527414dc1b1a5d08185b1c9958591e4818dc99585d1959605a1b6044820152606401610b95565b60048054610100600160a81b0319166101006001600160a01b03898116820292909217808455604051633b00fbc160e11b815291900490911691637601f78291611493918991899189918991899133910161554d565b6020604051808303816000875af11580156114b2573d6000803e3d6000fd5b505050506040513d601f19601f820116820180604052508101906114d6919061559e565b600580546001600160a01b0319166001600160a01b0392909216919091179055505050505050565b611509600033611fc4565b61152657604051634755657960e01b815260040160405180910390fd5b600b80546001600160a01b03909216620100000262010000600160b01b0319909216919091179055565b6001600160a01b03811633146115c05760405162461bcd60e51b815260206004820152602f60248201527f416363657373436f6e74726f6c3a2063616e206f6e6c792072656e6f756e636560448201526e103937b632b9903337b91039b2b63360891b6064820152608401610b95565b6115ca8282613080565b5050565b6005546001600160a01b0316156115f857604051636427cfb760e11b815260040160405180910390fd5b600b546000906201000090046001600160a01b0316611628576002546201000090046001600160a01b031661163b565b600b546201000090046001600160a01b03165b90506000816001600160a01b03164760405160006040518083038185875af1925050503d806000811461168a576040519150601f19603f3d011682016040523d82523d6000602084013e61168f565b606091505b50509050806115ca57604051631d42c86760e21b815260040160405180910390fd5b6116b96130e7565b6116c4600033611fc4565b6116e157604051634755657960e01b815260040160405180910390fd5b6116e961310a565b565b606083821461170c5760405162461bcd60e51b8152600401610b95906155bb565b836001600160401b03811115611724576117246146e4565b60405190808252806020026020018201604052801561174d578160200160208202803683370190505b50905060005b848110156117f457600080878784818110611770576117706154c8565b90506020020160208101906117859190614bff565b6001600160a01b03166001600160a01b0316815260200190815260200160002060008585848181106117b9576117b96154c8565b905060200201358152602001908152602001600020548282815181106117e1576117e16154c8565b6020908102919091010152600101611753565b50949350505050565b85600161180a828261311e565b8761181481612c0c565b61181c6132c6565b61182a8989898989896132ea565b600f5460009081906001600160a01b0316156118b957600f54604051637096335b60e01b8152600481018a9052602481018c90526001600160a01b0390911690637096335b906044016040805180830381865afa15801561188f573d6000803e3d6000fd5b505050506040513d601f19601f820116820180604052508101906118b3919061547b565b90925090505b6000826118c68c8b6154f7565b6118d091906154b5565b9050803410156118f35760405163356680b760e01b815260040160405180910390fd5b336000908152602081815260408083208f84529091529020548a6119178d836154b5565b111561193657604051630c041fdb60e11b815260040160405180910390fd5b611951338e8e60405180602001604052806000815250612c52565b61196361195e84866154b5565b61351e565b61197561197083346155e4565b613603565b50505050505050505050505050565b61198c61301f565b6116e96000613672565b6005546001600160a01b03166119be5760405162461bcd60e51b8152600401610b95906151ad565b81156119cc576119cc6136ce565b60005b8151811015611331576119fa8282815181106119ed576119ed6154c8565b6020026020010151612aa5565b611a03816154de565b90506119cf565b826000611a17828261311e565b611a1f6132c6565b611a2a848685613771565b6000611a358661215e565b600f5490915060009081906001600160a01b031615611ac757600f54604051637096335b60e01b815260048101859052602481018890526001600160a01b0390911690637096335b906044016040805180830381865afa158015611a9d573d6000803e3d6000fd5b505050506040513d601f19601f82011682018060405250810190611ac1919061547b565b90925090505b600082611ad488866154f7565b611ade91906154b5565b905080341015611b015760405163356680b760e01b815260040160405180910390fd5b611b1c888a8960405180602001604052806000815250612c52565b6000898152600e602052604081208054899290611b3a9084906154b5565b90915550611b4d905061195e83856154b5565b61106161197082346155e4565b611b626132c6565b611b6d600033611fc4565b611b8a57604051634755657960e01b815260040160405180910390fd5b6116e9613964565b611b9d600033611fc4565b611bba57604051634755657960e01b815260040160405180910390fd5b6001600160801b03821615611bf157600854608081901c906001600160801b0316611bee82611be986846155f7565b61397b565b50505b6000611bfd8280615617565b915060009050611c106040840184615617565b9150611c2190506020840184615617565b905082141580611c3f5750611c396060840184615660565b90508114155b15611c5d5760405163512509d360e11b815260040160405180910390fd5b60005b82811015611d27576000611c748580615617565b83818110611c8457611c846154c8565b9050602002013590506000858060200190611c9f9190615617565b84818110611caf57611caf6154c8565b905060200201359050611cc182612c0c565b611cca81612c0c565b6000818152600d6020908152604080832054858452600e9092529091205463ffffffff9091161015611d0f57604051631f66fd4160e01b815260040160405180910390fd5b6000918252600c602052604090912055600101611c60565b5060005b81811015611f89576000611d426040860186615617565b83818110611d5257611d526154c8565b90506020020135905080600014611d6c57611d6c81612c0c565b36611d7a6060870187615660565b84818110611d8a57611d8a6154c8565b6000858152600d6020908152604090912061016090920293909301935091611db591508301836156a9565b815463ffffffff908116911614611e2a57600b54600160b81b900460ff16611df05760405163989b234760e01b815260040160405180910390fd5b805463ffffffff16611e0560208401846156a9565b63ffffffff161015611e2a57604051631f66fd4160e01b815260040160405180910390fd5b611e3760208301836156a9565b815463ffffffff191663ffffffff91909116178155611e5c60e0830160c084016156db565b6001820180546bffffffffffffffffffffffff19166001600160601b0392909216919091179055611e9360408301602084016156a9565b815463ffffffff919091166401000000000267ffffffff000000001990911617815560e08201356002820155611ecf60608301604084016156a9565b815463ffffffff91909116600160401b0263ffffffff60401b19909116178155611eff60808301606084016156a9565b815463ffffffff91909116600160601b0263ffffffff60601b19909116178155611f2f60a08301608084016156a9565b815463ffffffff91909116600160801b0263ffffffff60801b19909116178155611f5f60c0830160a084016156a9565b815463ffffffff91909116600160a01b0263ffffffff60a01b199091161790555050600101611d2b565b5050505050565b611f9b600033611fc4565b611fb857604051634755657960e01b815260040160405180910390fd5b611fc1816139d1565b50565b60009182526003602090815260408084206001600160a01b0393909316845291905290205460ff1690565b611ffa600033611fc4565b61201757604051634755657960e01b815260040160405180910390fd5b600a6115ca8282615331565b606060078054610d10906152b7565b8161203c81613a10565b6113318383613ac9565b3360009081526020818152604080832085845290915290205481111561207f57604051631fa225b760e31b815260040160405180910390fd5b61208a338383613b35565b6000828152600e6020526040812080548392906120a89084906155e4565b90915550505050565b6005546001600160a01b03166120d95760405162461bcd60e51b8152600401610b95906151ad565b6120e16136ce565b6004805460055460405163730e582f60e11b81526001600160a01b0361010090930483169363e61cb05e936121249316918b918b918b918b918b918b91016156f8565b600060405180830381600087803b15801561213e57600080fd5b505af1158015612152573d6000803e3d6000fd5b50505050505050505050565b60008161216a81612c0c565b6010546001600160a01b031615612310576010546040805163313ce56760e01b815290516000926001600160a01b03169163313ce5679160048083019260209291908290030181865afa1580156121c5573d6000803e3d6000fd5b505050506040513d601f19601f820116820180604052508101906121e99190615751565b60ff1690506000601060009054906101000a90046001600160a01b03166001600160a01b031663feaf968c6040518163ffffffff1660e01b815260040160a060405180830381865afa158015612243573d6000803e3d6000fd5b505050506040513d601f19601f82011682018060405250810190612267919061578e565b5050509150506000601283111561229d576122836012846155e4565b61228e90600a6158c2565b612298908361550e565b6122bd565b6122a88360126155e4565b6122b390600a6158c2565b6122bd90836154f7565b6000878152600c60209081526040808320548352600d90915290206001015490915081906122fc906001600160601b0316670de0b6b3a76400006154f7565b612306919061550e565b945050505061233b565b6000838152600c60209081526040808320548352600d9091529020600101546001600160601b031691505b50919050565b60008281526003602052604090206001015461235c81612f8f565b6113318383613080565b61236e6132c6565b60008084815b8181101561241b576000888883818110612390576123906154c8565b90506020020135905060008787848181106123ad576123ad6154c8565b9050602002013590506123c182600061311e565b6123cc8b8383613771565b6000828152600c60209081526040808320548352600d8252808320600190810154958452600e9092529091208054830190556001600160601b0390921681029590950194939093019201612374565b50600f5460009081906001600160a01b0316156124b757600f54604051637096335b60e01b815260048101879052602481018690526001600160a01b0390911690637096335b906044016040805180830381865afa158015612481573d6000803e3d6000fd5b505050506040513d601f19601f820116820180604052508101906124a5919061547b565b90925090506124b482866154b5565b94505b843410156124d85760405163356680b760e01b815260040160405180910390fd5b6125548a8a8a8080602002602001604051908101604052809392919081815260200183836020028082843760009201919091525050604080516020808e0282810182019093528d82529093508d92508c918291850190849080828437600092018290525060408051602081019091529081529250613b58915050565b61256161195e82846154b5565b61215261197086346155e4565b6060600a8054610d10906152b7565b600254610100900460ff161580801561259d5750600254600160ff909116105b806125b75750303b1580156125b7575060025460ff166001145b61261a5760405162461bcd60e51b815260206004820152602e60248201527f496e697469616c697a61626c653a20636f6e747261637420697320616c72656160448201526d191e481a5b9a5d1a585b1a5e995960921b6064820152608401610b95565b6002805460ff19166001179055801561263d576002805461ff0019166101001790555b61264685613672565b612651600086612f99565b61265b84806158ce565b600691612669919083615914565b5061267760208501856158ce565b600791612685919083615914565b5061269360608501856158ce565b6009916126a1919083615914565b506126af60408501856158ce565b600a916126bd919083615914565b506126d66126d160e0860160c08701614e1e565b6139d1565b6126e861012085016101008601614bff565b600b80546001600160a01b0392909216620100000262010000600160b01b0319909216919091179055612723610180850161016086016159d3565b600b8054911515600160b81b0260ff60b81b19909216919091179055612751610160850161014086016159d3565b600b8054911515600160b01b0260ff60b01b1990921691909117905561277e610100850160e08601614bff565b600f80546001600160a01b0319166001600160a01b03929092169190911790556127b061014085016101208601614bff565b601080546001600160a01b0319166001600160a01b03929092169190911790556127f36127e360a0860160808701615035565b611be960c0870160a08801615035565b60008052600d602052827f81955a0a11e65eac625c29e8882660bae4e165a75d72780094acae8ece9a29ee6128288282615a99565b90505061283482613b71565b8015611f89576002805461ff0019169055604051600181527f7f26b83ff96e1f2b6a682f133852f6798a09c465da95921460cefb38474024989060200160405180910390a15050505050565b6128e360408051610120810182526000808252602080830182905282840182905260608084018390526080840183905260a0840183905260c0840183905260e0840183905284519081018552828152908101829052928301529061010082015290565b6001600160801b0382166000908152600c60209081526040808320548352600d825291829020825161012081018452815463ffffffff80821683526401000000008204811683860152600160401b8204811683870152600160601b82048116606080850191909152600160801b830482166080850152600160a01b9283900490911660a084015260018401546001600160601b031660c084015260028085015460e0850152865191820187526003850180546001600160a01b03811684529384046001600160581b031696830196909652929593946101008701949193909291840191600160f81b900460ff16908111156129e0576129e0615050565b60028111156129f1576129f1615050565b90525090525092915050565b612a198686612a0b87613cf3565b612a1487613cf3565b612cad565b612a27868686868686613d3e565b505050505050565b612a3761301f565b6001600160a01b038116612a9c5760405162461bcd60e51b815260206004820152602660248201527f4f776e61626c653a206e6577206f776e657220697320746865207a65726f206160448201526564647265737360d01b6064820152608401610b95565b611fc181613672565b6040516370a0823160e01b81523060048201526000906001600160a01b038316906370a0823190602401602060405180830381865afa158015612aec573d6000803e3d6000fd5b505050506040513d601f19601f82011682018060405250810190612b109190615c01565b60055460405163a9059cbb60e01b81526001600160a01b0391821660048201526024810183905291925083169063a9059cbb906044016020604051808303816000875af1158015612b65573d6000803e3d6000fd5b505050506040513d601f19601f820116820180604052508101906113319190615530565b60006001600160e01b03198216637965db0b60e01b1480610c5b57506301ffc9a760e01b6001600160e01b0319831614610c5b565b60006301ffc9a760e01b6001600160e01b031983161480612bef5750636cdb3d1360e11b6001600160e01b03198316145b80610c5b5750506001600160e01b0319166303a24d0760e21b1490565b600854608081901c906001600160801b031682821180612c345750806001600160801b031683115b156113315760405163163a09e160e31b815260040160405180910390fd5b612c6a600085612c6186613cf3565b612a1486613cf3565b610cfb84848484613f30565b60048054604051636e5f691960e01b81526101009091046001600160a01b031691636e5f6919916111f59187918791879101615c1a565b836001600160a01b0381163314612cc757612cc733613a10565b600b54600160b01b900460ff168015612ce857506001600160a01b03851615155b8015612cfc57506001600160a01b03841615155b15611f895760405163c9e36d3f60e01b815260040160405180910390fd5b848314612d395760405162461bcd60e51b8152600401610b95906155bb565b336001600160a01b0389161480612d7357506001600160a01b038816600090815260016020908152604080832033845290915290205460ff165b612db05760405162461bcd60e51b815260206004820152600e60248201526d1393d517d055551213d49256915160921b6044820152606401610b95565b60008060005b87811015612e6b57888882818110612dd057612dd06154c8565b905060200201359250868682818110612deb57612deb6154c8565b6001600160a01b038e1660009081526020818152604080832089845282528220805493909102949094013595508593925090612e289084906155e4565b90915550506001600160a01b038a1660009081526020818152604080832086845290915281208054849290612e5e9084906154b5565b9091555050600101612db6565b50886001600160a01b03168a6001600160a01b0316336001600160a01b03167f4a39dc06d4c0dbc64b70af90fd698a233a518aa5d07e595d983b8c0526c8f7fb8b8b8b8b604051612ebf9493929190615caf565b60405180910390a46001600160a01b0389163b15612f665760405163bc197c8160e01b808252906001600160a01b038b169063bc197c8190612f139033908f908e908e908e908e908e908e90600401615cff565b6020604051808303816000875af1158015612f32573d6000803e3d6000fd5b505050506040513d601f19601f82011682018060405250810190612f569190615d63565b6001600160e01b03191614612f73565b6001600160a01b03891615155b6121525760405162461bcd60e51b8152600401610b9590615d80565b611fc18133614072565b612fa38282611fc4565b6115ca5760008281526003602090815260408083206001600160a01b03851684529091529020805460ff19166001179055612fdb3390565b6001600160a01b0316816001600160a01b0316837f2f8788117e7eff1d82e926ec794901d17c78024a50270940304540a733656f0d60405160405180910390a45050565b6002546001600160a01b03620100009091041633146116e95760405162461bcd60e51b815260206004820181905260248201527f4f776e61626c653a2063616c6c6572206973206e6f7420746865206f776e65726044820152606401610b95565b61308a8282611fc4565b156115ca5760008281526003602090815260408083206001600160a01b0385168085529252808320805460ff1916905551339285917ff6391f5c32d9c69d2a47ea670b442974b53935d1edc7fd64eb21e047a839171b9190a45050565b60045460ff166116e957604051636cd6020160e01b815260040160405180910390fd5b6131126130e7565b6004805460ff19169055565b6000828152600c6020908152604080832054808452600d83528184208251606081018452600390910180546001600160a01b0381168352600160a01b81046001600160581b0316958301959095529194939092830190600160f81b900460ff16600281111561318f5761318f615050565b60028111156131a0576131a0615050565b90525080519091506001600160a01b03161580159061322457506000816040015160028111156131d2576131d2615050565b14806131fb57508280156131fb57506001816040015160028111156131f9576131f9615050565b145b80613224575082158015613224575060028160400151600281111561322257613222615050565b145b15610cfb57602081015181516040516370a0823160e01b81523360048201526001600160581b03909216916001600160a01b03909116906370a08231906024016020604051808303816000875af1158015613283573d6000803e3d6000fd5b505050506040513d601f19601f820116820180604052508101906132a79190615c01565b1015610cfb5760405163b4827f4960e01b815260040160405180910390fd5b60045460ff16156116e9576040516313d0ff5960e31b815260040160405180910390fd5b6000868152600c60209081526040808320548352600d8252808320815161012081018352815463ffffffff80821683526401000000008204811683870152600160401b8204811683860152600160601b82048116606080850191909152600160801b830482166080850152600160a01b9283900490911660a084015260018401546001600160601b031660c084015260028085015460e0850152855191820186526003850180546001600160a01b03811684529384046001600160581b031697830197909752929593946101008701949193919290840191600160f81b90910460ff16908111156133dd576133dd615050565b60028111156133ee576133ee615050565b905250905250604081015190915063ffffffff164210806134185750806060015163ffffffff1642115b1561343657604051633844da5760e21b815260040160405180910390fd5b80516000888152600e602052604090205463ffffffff9091169061345b9088906154b5565b111561347a57604051633e0866c760e01b815260040160405180910390fd5b60006134fe84848080602002602001604051908101604052809392919081815260200183836020028082843760009201919091525050505060e08401516040516bffffffffffffffffffffffff193360601b166020820152603481018a905260548101899052607401604051602081830303815290604052805190602001206140cb565b9050806113b557604051630d5f220960e31b815260040160405180910390fd5b8015611fc157600f54604080516319b400eb60e21b815290516000926001600160a01b0316916366d003ac9160048083019260209291908290030181865afa15801561356e573d6000803e3d6000fd5b505050506040513d601f19601f82011682018060405250810190613592919061559e565b6001600160a01b03168260405160006040518083038185875af1925050503d80600081146135dc576040519150601f19603f3d011682016040523d82523d6000602084013e6135e1565b606091505b50509050806115ca57604051634033e4e360e01b815260040160405180910390fd5b8015611fc157604051600090339083908381818185875af1925050503d806000811461364b576040519150601f19603f3d011682016040523d82523d6000602084013e613650565b606091505b50509050806115ca57604051633c31275160e21b815260040160405180910390fd5b600280546001600160a01b038381166201000081810262010000600160b01b031985161790945560405193909204169182907f8be0079c531659141344cd1fd0a4f28419497f9722a3daafe3b4186f6b6457e090600090a35050565b6005546040516000916001600160a01b03169047908381818185875af1925050503d806000811461371b576040519150601f19603f3d011682016040523d82523d6000602084013e613720565b606091505b5050905080611fc15760405162461bcd60e51b815260206004820152601f60248201527f436f756c64206e6f74207472616e736665722045544820746f2073706c6974006044820152606401610b95565b61377a82612c0c565b6000828152600c6020908152604080832054808452600d8352818420825161012081018452815463ffffffff80821683526401000000008204811683880152600160401b8204811683870152600160601b82048116606080850191909152600160801b830482166080850152600160a01b9283900490911660a084015260018401546001600160601b031660c084015260028085015460e0850152865191820187526003850180546001600160a01b03811684529384046001600160581b0316988301989098529497969295939461010087019491939291840191600160f81b900460ff169081111561386f5761386f615050565b600281111561388057613880615050565b9052509052506000858152600e602052604090205460808201519192509063ffffffff164210806138ba57508160a0015163ffffffff1642115b156138d85760405163b7b2409760e01b815260040160405180910390fd5b815163ffffffff166138ea85836154b5565b111561390957604051633e0866c760e01b815260040160405180910390fd5b6020808301516001600160a01b03881660009081528083526040808220898352909352919091205463ffffffff909116906139459086906154b5565b1115612a2757604051630c041fdb60e11b815260040160405180910390fd5b61396c6132c6565b6004805460ff19166001179055565b806001600160801b0316826001600160801b031611156139ae576040516328704ad560e01b815260040160405180910390fd5b806001600160801b03166080836001600160801b0316901b176008819055505050565b6127108161ffff1611156139f857604051632ceed3e760e01b815260040160405180910390fd5b600b805461ffff191661ffff92909216919091179055565b6daaeb6d7670e522a718067333cd4e3b15611fc157604051633185c44d60e21b81523060048201526001600160a01b03821660248201526daaeb6d7670e522a718067333cd4e9063c617113490604401602060405180830381865afa158015613a7d573d6000803e3d6000fd5b505050506040513d601f19601f82011682018060405250810190613aa19190615530565b611fc157604051633b79c77360e21b81526001600160a01b0382166004820152602401610b95565b3360008181526001602090815260408083206001600160a01b03871680855290835292819020805460ff191686151590811790915590519081529192917f17307eab39ab6107e8899845ad3d59bd9653f200f220920489ca2b5937696c31910160405180910390a35050565b613b4d336000613b4485613cf3565b612a1485613cf3565b6113318383836140e1565b613b656000858585612cad565b610cfb84848484614165565b6000613b7d8280615617565b915060009050613b906040840184615617565b9150613ba190506020840184615617565b905082141580613bbf5750613bb96060840184615660565b90508114155b15613bdd5760405163512509d360e11b815260040160405180910390fd5b60005b82811015613c62576000613bf48580615617565b83818110613c0457613c046154c8565b9050602002013590506000858060200190613c1f9190615617565b84818110613c2f57613c2f6154c8565b905060200201359050613c4182612c0c565b613c4a81612c0c565b6000918252600c602052604090912055600101613be0565b5060005b81811015610cfb576000613c7d6040860186615617565b83818110613c8d57613c8d6154c8565b90506020020135905036858060600190613ca79190615660565b84818110613cb757613cb76154c8565b905061016002019050613cc982612c0c565b6000828152600d602052604090208190613ce38282615a99565b505060019092019150613c669050565b60408051600180825281830190925260609160009190602080830190803683370190505090508281600081518110613d2d57613d2d6154c8565b602090810291909101015292915050565b336001600160a01b0387161480613d7857506001600160a01b038616600090815260016020908152604080832033845290915290205460ff165b613db55760405162461bcd60e51b815260206004820152600e60248201526d1393d517d055551213d49256915160921b6044820152606401610b95565b6001600160a01b03861660009081526020818152604080832087845290915281208054859290613de69084906155e4565b90915550506001600160a01b03851660009081526020818152604080832087845290915281208054859290613e1c9084906154b5565b909155505060408051858152602081018590526001600160a01b03808816929089169133917fc3d58168c5ae7397731d063d5bbf3d657854427343f4c083240f7aacaa2d0f62910160405180910390a46001600160a01b0385163b15613f075760405163f23a6e6160e01b808252906001600160a01b0387169063f23a6e6190613eb49033908b908a908a908a908a90600401615daa565b6020604051808303816000875af1158015613ed3573d6000803e3d6000fd5b505050506040513d601f19601f82011682018060405250810190613ef79190615d63565b6001600160e01b03191614613f14565b6001600160a01b03851615155b612a275760405162461bcd60e51b8152600401610b9590615d80565b6001600160a01b03841660009081526020818152604080832086845290915281208054849290613f619084906154b5565b909155505060408051848152602081018490526001600160a01b0386169160009133917fc3d58168c5ae7397731d063d5bbf3d657854427343f4c083240f7aacaa2d0f62910160405180910390a46001600160a01b0384163b156140495760405163f23a6e6160e01b808252906001600160a01b0386169063f23a6e6190613ff6903390600090899089908990600401615df1565b6020604051808303816000875af1158015614015573d6000803e3d6000fd5b505050506040513d601f19601f820116820180604052508101906140399190615d63565b6001600160e01b03191614614056565b6001600160a01b03841615155b610cfb5760405162461bcd60e51b8152600401610b9590615d80565b61407c8282611fc4565b6115ca5761408981614332565b614094836020614344565b6040516020016140a5929190615e2b565b60408051601f198184030181529082905262461bcd60e51b8252610b959160040161480e565b6000826140d885846144e6565b14949350505050565b6001600160a01b038316600090815260208181526040808320858452909152812080548392906141129084906155e4565b909155505060408051838152602081018390526000916001600160a01b0386169133917fc3d58168c5ae7397731d063d5bbf3d657854427343f4c083240f7aacaa2d0f62910160405180910390a4505050565b8251825181146141875760405162461bcd60e51b8152600401610b95906155bb565b60005b81811015614216578381815181106141a4576141a46154c8565b6020026020010151600080886001600160a01b03166001600160a01b0316815260200190815260200160002060008784815181106141e4576141e46154c8565b60200260200101518152602001908152602001600020600082825461420991906154b5565b909155505060010161418a565b50846001600160a01b031660006001600160a01b0316336001600160a01b03167f4a39dc06d4c0dbc64b70af90fd698a233a518aa5d07e595d983b8c0526c8f7fb8787604051614267929190615ea0565b60405180910390a46001600160a01b0385163b156143095760405163bc197c8160e01b808252906001600160a01b0387169063bc197c81906142b69033906000908a908a908a90600401615ece565b6020604051808303816000875af11580156142d5573d6000803e3d6000fd5b505050506040513d601f19601f820116820180604052508101906142f99190615d63565b6001600160e01b03191614614316565b6001600160a01b03851615155b611f895760405162461bcd60e51b8152600401610b9590615d80565b6060610c5b6001600160a01b03831660145b606060006143538360026154f7565b61435e9060026154b5565b6001600160401b03811115614375576143756146e4565b6040519080825280601f01601f19166020018201604052801561439f576020820181803683370190505b509050600360fc1b816000815181106143ba576143ba6154c8565b60200101906001600160f81b031916908160001a905350600f60fb1b816001815181106143e9576143e96154c8565b60200101906001600160f81b031916908160001a905350600061440d8460026154f7565b6144189060016154b5565b90505b6001811115614490576f181899199a1a9b1b9c1cb0b131b232b360811b85600f166010811061444c5761444c6154c8565b1a60f81b828281518110614462576144626154c8565b60200101906001600160f81b031916908160001a90535060049490941c9361448981615f20565b905061441b565b5083156144df5760405162461bcd60e51b815260206004820181905260248201527f537472696e67733a20686578206c656e67746820696e73756666696369656e746044820152606401610b95565b9392505050565b600081815b845181101561452b576145178286838151811061450a5761450a6154c8565b6020026020010151614533565b915080614523816154de565b9150506144eb565b509392505050565b600081831061454f5760008281526020849052604090206144df565b60008381526020839052604090206144df565b6001600160a01b0381168114611fc157600080fd5b60008083601f84011261458957600080fd5b5081356001600160401b038111156145a057600080fd5b6020830191508360208260051b850101111561110757600080fd5b63ffffffff81168114611fc157600080fd5b80356145d881614562565b919050565b600080600080600080600060a0888a0312156145f857600080fd5b873561460381614562565b965060208801356001600160401b038082111561461f57600080fd5b61462b8b838c01614577565b909850965060408a013591508082111561464457600080fd5b506146518a828b01614577565b9095509350506060880135614665816145bb565b9150608088013561467581614562565b8091505092959891949750929550565b6000806040838503121561469857600080fd5b82356146a381614562565b946020939093013593505050565b6001600160e01b031981168114611fc157600080fd5b6000602082840312156146d957600080fd5b81356144df816146b1565b634e487b7160e01b600052604160045260246000fd5b604051601f8201601f191681016001600160401b0381118282101715614722576147226146e4565b604052919050565b6000602080838503121561473d57600080fd5b82356001600160401b038082111561475457600080fd5b818501915085601f83011261476857600080fd5b81358181111561477a5761477a6146e4565b61478c601f8201601f191685016146fa565b915080825286848285010111156147a257600080fd5b8084840185840137600090820190930192909252509392505050565b60005b838110156147d95781810151838201526020016147c1565b50506000910152565b600081518084526147fa8160208601602086016147be565b601f01601f19169290920160200192915050565b6020815260006144df60208301846147e2565b60006020828403121561483357600080fd5b5035919050565b6000806040838503121561484d57600080fd5b50508035926020909101359150565b60008060006040848603121561487157600080fd5b8335925060208401356001600160401b0381111561488e57600080fd5b61489a86828701614577565b9497909650939450505050565b600082601f8301126148b857600080fd5b813560206001600160401b038211156148d3576148d36146e4565b8160051b6148e28282016146fa565b92835284810182019282810190878511156148fc57600080fd5b83870192505b8483101561492457823561491581614562565b82529183019190830190614902565b979650505050505050565b600080600080600080600080600060e08a8c03121561494d57600080fd5b893561495881614562565b985060208a0135975060408a01356001600160401b038082111561497b57600080fd5b6149878d838e016148a7565b985060608c013591508082111561499d57600080fd5b6149a98d838e01614577565b909850965060808c01359150808211156149c257600080fd5b506149cf8c828d01614577565b90955093505060a08a01356149e3816145bb565b91506149f160c08b016145cd565b90509295985092959850929598565b8015158114611fc157600080fd5b60008060408385031215614a2157600080fd5b8235614a2c81614a00565b91506020830135614a3c81614562565b809150509250929050565b60008083601f840112614a5957600080fd5b5081356001600160401b03811115614a7057600080fd5b60208301915083602082850101111561110757600080fd5b60008060008060008060008060a0898b031215614aa457600080fd5b8835614aaf81614562565b97506020890135614abf81614562565b965060408901356001600160401b0380821115614adb57600080fd5b614ae78c838d01614577565b909850965060608b0135915080821115614b0057600080fd5b614b0c8c838d01614577565b909650945060808b0135915080821115614b2557600080fd5b50614b328b828c01614a47565b999c989b5096995094979396929594505050565b60008060408385031215614b5957600080fd5b823591506020830135614a3c81614562565b60008060008060008060808789031215614b8457600080fd5b8635614b8f81614562565b955060208701356001600160401b0380821115614bab57600080fd5b614bb78a838b01614577565b90975095506040890135915080821115614bd057600080fd5b50614bdd89828a01614577565b9094509250506060870135614bf1816145bb565b809150509295509295509295565b600060208284031215614c1157600080fd5b81356144df81614562565b60008060008060408587031215614c3257600080fd5b84356001600160401b0380821115614c4957600080fd5b614c5588838901614577565b90965094506020870135915080821115614c6e57600080fd5b50614c7b87828801614577565b95989497509550505050565b600081518084526020808501945080840160005b83811015614cb757815187529582019590820190600101614c9b565b509495945050505050565b6020815260006144df6020830184614c87565b60008060008060008060a08789031215614cee57600080fd5b8635955060208701359450604087013593506060870135925060808701356001600160401b03811115614d2057600080fd5b614d2c89828a01614577565b979a9699509497509295939492505050565b60008060408385031215614d5157600080fd5b8235915060208301356001600160401b03811115614d6e57600080fd5b611103858286016148a7565b600080600060608486031215614d8f57600080fd5b833592506020840135614da181614562565b929592945050506040919091013590565b80356001600160801b03811681146145d857600080fd5b60006080828403121561233b57600080fd5b60008060408385031215614dee57600080fd5b614df783614db2565b915060208301356001600160401b03811115614e1257600080fd5b61110385828601614dc9565b600060208284031215614e3057600080fd5b813561ffff811681146144df57600080fd5b60008060408385031215614e5557600080fd5b8235614e6081614562565b91506020830135614a3c81614a00565b60008060008060008060808789031215614e8957600080fd5b86356001600160401b0380821115614ea057600080fd5b614eac8a838b01614577565b90985096506020890135915080821115614ec557600080fd5b50614ed289828a01614577565b9095509350506040870135614ee6816145bb565b91506060870135614bf181614562565b600080600080600060608688031215614f0e57600080fd5b8535614f1981614562565b945060208601356001600160401b0380821115614f3557600080fd5b614f4189838a01614577565b90965094506040880135915080821115614f5a57600080fd5b50614f6788828901614577565b969995985093965092949392505050565b6000806000808486036101c0811215614f9057600080fd5b8535614f9b81614562565b945060208601356001600160401b0380821115614fb757600080fd5b90870190610180828a031215614fcc57600080fd5b819550610160603f1984011215614fe257600080fd5b6040880194506101a0880135925080831115614ffd57600080fd5b505061500b87828801614dc9565b91505092959194509250565b6000806040838503121561502a57600080fd5b8235614a2c81614562565b60006020828403121561504757600080fd5b6144df82614db2565b634e487b7160e01b600052602160045260246000fd5b80516001600160a01b031682526020808201516001600160581b0316908301526040810151600381106150a957634e487b7160e01b600052602160045260246000fd5b806040840152505050565b815163ffffffff908116825260208084015182169083015260408084015182169083015260608084015182169083015260808084015182169083015260a080840151918216908301526101608201905060c083015161511e60c08401826001600160601b03169052565b5060e083015160e08301526101008084015161513c82850182615066565b505092915050565b60008060008060008060a0878903121561515d57600080fd5b863561516881614562565b9550602087013561517881614562565b9450604087013593506060870135925060808701356001600160401b038111156151a157600080fd5b614d2c89828a01614a47565b60208082526015908201527414dc1b1a5d081b9bdd0818dc99585d1959081e595d605a1b604082015260600190565b8183526000602080850194508260005b85811015614cb75781356151ff81614562565b6001600160a01b0316875295820195908201906001016151ec565b8183526000602080850194508260005b85811015614cb757813561523d816145bb565b63ffffffff168752958201959082019060010161522a565b600060018060a01b03808b168352808a16602084015260c0604084015261528060c08401898b6151dc565b838103606085015261529381888a61521a565b63ffffffff969096166080850152509290921660a090910152509695505050505050565b600181811c908216806152cb57607f821691505b60208210810361233b57634e487b7160e01b600052602260045260246000fd5b601f82111561133157600081815260208120601f850160051c810160208610156153125750805b601f850160051c820191505b81811015612a275782815560010161531e565b81516001600160401b0381111561534a5761534a6146e4565b61535e8161535884546152b7565b846152eb565b602080601f831160018114615393576000841561537b5750858301515b600019600386901b1c1916600185901b178555612a27565b600085815260208120601f198616915b828110156153c2578886015182559484019460019091019084016153a3565b50858210156153e05787850151600019600388901b60f8161c191681555b5050505050600190811b01905550565b6000602080835260008454615404816152b7565b80848701526040600180841660008114615425576001811461543f5761546d565b60ff1985168984015283151560051b89018301955061546d565b896000528660002060005b858110156154655781548b820186015290830190880161544a565b8a0184019650505b509398975050505050505050565b6000806040838503121561548e57600080fd5b505080516020909101519092909150565b634e487b7160e01b600052601160045260246000fd5b80820180821115610c5b57610c5b61549f565b634e487b7160e01b600052603260045260246000fd5b6000600182016154f0576154f061549f565b5060010190565b8082028115828204841417610c5b57610c5b61549f565b60008261552b57634e487b7160e01b600052601260045260246000fd5b500490565b60006020828403121561554257600080fd5b81516144df81614a00565b60808152600061556160808301888a6151dc565b828103602084015261557481878961521a565b63ffffffff95909516604084015250506001600160a01b0391909116606090910152949350505050565b6000602082840312156155b057600080fd5b81516144df81614562565b6020808252600f908201526e0988a9c8ea890be9a92a69a82a8869608b1b604082015260600190565b81810381811115610c5b57610c5b61549f565b6001600160801b03818116838216019080821115610ec957610ec961549f565b6000808335601e1984360301811261562e57600080fd5b8301803591506001600160401b0382111561564857600080fd5b6020019150600581901b360382131561110757600080fd5b6000808335601e1984360301811261567757600080fd5b8301803591506001600160401b0382111561569157600080fd5b60200191506101608102360382131561110757600080fd5b6000602082840312156156bb57600080fd5b81356144df816145bb565b6001600160601b0381168114611fc157600080fd5b6000602082840312156156ed57600080fd5b81356144df816156c6565b600060018060a01b03808a16835260a0602084015261571b60a08401898b6151dc565b838103604085015261572e81888a61521a565b63ffffffff96909616606085015250929092166080909101525095945050505050565b60006020828403121561576357600080fd5b815160ff811681146144df57600080fd5b805169ffffffffffffffffffff811681146145d857600080fd5b600080600080600060a086880312156157a657600080fd5b6157af86615774565b94506020860151935060408601519250606086015191506157d260808701615774565b90509295509295909350565b600181815b808511156158195781600019048211156157ff576157ff61549f565b8085161561580c57918102915b93841c93908002906157e3565b509250929050565b60008261583057506001610c5b565b8161583d57506000610c5b565b8160018114615853576002811461585d57615879565b6001915050610c5b565b60ff84111561586e5761586e61549f565b50506001821b610c5b565b5060208310610133831016604e8410600b841016171561589c575081810a610c5b565b6158a683836157de565b80600019048211156158ba576158ba61549f565b029392505050565b60006144df8383615821565b6000808335601e198436030181126158e557600080fd5b8301803591506001600160401b038211156158ff57600080fd5b60200191503681900382131561110757600080fd5b6001600160401b0383111561592b5761592b6146e4565b61593f8361593983546152b7565b836152eb565b6000601f841160018114615973576000851561595b5750838201355b600019600387901b1c1916600186901b178355611f89565b600083815260209020601f19861690835b828110156159a45786850135825560209485019460019092019101615984565b50868210156159c15760001960f88860031b161c19848701351681555b505060018560011b0183555050505050565b6000602082840312156159e557600080fd5b81356144df81614a00565b60008135610c5b816145bb565b60008135610c5b816156c6565b8135615a1581614562565b81546001600160a01b031981166001600160a01b0392909216918217835560208401356001600160581b0381168114615a4d57600080fd5b6affffffffffffffffffffff60a01b60a09190911b166001600160f81b031991821683178117845560408501359160038310615a8857600080fd5b921760f89190911b90911617905550565b8135615aa4816145bb565b63ffffffff811663ffffffff1983541617825550615ae9615ac7602084016159f0565b825467ffffffff00000000191660209190911b67ffffffff0000000016178255565b615b1d615af8604084016159f0565b825463ffffffff60401b191660409190911b6bffffffff000000000000000016178255565b615b50615b2c606084016159f0565b82805463ffffffff60601b191660609290921b63ffffffff60601b16919091179055565b615b83615b5f608084016159f0565b82805463ffffffff60801b191660809290921b63ffffffff60801b16919091179055565b615bb6615b9260a084016159f0565b82805463ffffffff60a01b191660a09290921b63ffffffff60a01b16919091179055565b615be6615bc560c084016159fd565b600183016001600160601b0382166001600160601b03198254161781555050565b60e082013560028201556115ca610100830160038301615a0a565b600060208284031215615c1357600080fd5b5051919050565b6001600160a01b038481168252602080830185905260606040840181905284519084018190526000928583019290916080860190855b81811015615c6e578551851683529483019491830191600101615c50565b50909998505050505050505050565b81835260006001600160fb1b03831115615c9657600080fd5b8260051b80836020870137939093016020019392505050565b604081526000615cc3604083018688615c7d565b8281036020840152614924818587615c7d565b81835281816020850137506000828201602090810191909152601f909101601f19169091010190565b6001600160a01b0389811682528816602082015260a060408201819052600090615d2c908301888a615c7d565b8281036060840152615d3f818789615c7d565b90508281036080840152615d54818587615cd6565b9b9a5050505050505050505050565b600060208284031215615d7557600080fd5b81516144df816146b1565b60208082526010908201526f155394d0519157d49150d2541251539560821b604082015260600190565b6001600160a01b03878116825286166020820152604081018590526060810184905260a060808201819052600090615de59083018486615cd6565b98975050505050505050565b6001600160a01b03868116825285166020820152604081018490526060810183905260a060808201819052600090614924908301846147e2565b7f416363657373436f6e74726f6c3a206163636f756e7420000000000000000000815260008351615e638160178501602088016147be565b7001034b99036b4b9b9b4b733903937b6329607d1b6017918401918201528351615e948160288401602088016147be565b01602801949350505050565b604081526000615eb36040830185614c87565b8281036020840152615ec58185614c87565b95945050505050565b6001600160a01b0386811682528516602082015260a060408201819052600090615efa90830186614c87565b8281036060840152615f0c8186614c87565b90508281036080840152615de581856147e2565b600081615f2f57615f2f61549f565b50600019019056fea2646970667358221220cfb62fe2b7667da6e635210e1965e02b841cbf82e1f684d381ff1b6359c9bd9764736f6c63430008110033",
  "linkReferences": {},
  "deployedLinkReferences": {}
}