{
  "_format": "hh-sol-artifact-1",
  "contractName": "DCNTMetadataRenderer",
  "sourceName": "contracts/DCNTMetadataRenderer.sol",
  "abi": [
    {
      "inputs": [
        {
          "internalType": "contract ISharedNFTLogic",
          "name": "_sharedNFTLogic",
          "type": "address"
        }
      ],
      "stateMutability": "nonpayable",
      "type": "constructor"
    },
    {
      "inputs": [],
      "name": "Access_OnlyAdmin",
      "type": "error"
    },
    {
      "anonymous": false,
      "inputs": [
        {
          "indexed": true,
          "internalType": "address",
          "name": "target",
          "type": "address"
        },
        {
          "indexed": false,
          "internalType": "address",
          "name": "sender",
          "type": "address"
        },
        {
          "indexed": false,
          "internalType": "string",
          "name": "newArtist",
          "type": "string"
        }
      ],
      "name": "ArtistUpdated",
      "type": "event"
    },
    {
      "anonymous": false,
      "inputs": [
        {
          "indexed": true,
          "internalType": "address",
          "name": "target",
          "type": "address"
        },
        {
          "indexed": false,
          "internalType": "address",
          "name": "sender",
          "type": "address"
        },
        {
          "indexed": false,
          "internalType": "string",
          "name": "artworkUri",
          "type": "string"
        },
        {
          "indexed": false,
          "internalType": "string",
          "name": "artworkMimeType",
          "type": "string"
        },
        {
          "indexed": false,
          "internalType": "string",
          "name": "artworkNft",
          "type": "string"
        }
      ],
      "name": "ArtworkUpdated",
      "type": "event"
    },
    {
      "anonymous": false,
      "inputs": [
        {
          "indexed": true,
          "internalType": "address",
          "name": "target",
          "type": "address"
        },
        {
          "indexed": false,
          "internalType": "address",
          "name": "sender",
          "type": "address"
        },
        {
          "indexed": false,
          "internalType": "string",
          "name": "license",
          "type": "string"
        },
        {
          "indexed": false,
          "internalType": "string",
          "name": "externalUrl",
          "type": "string"
        },
        {
          "indexed": false,
          "internalType": "string",
          "name": "isrc",
          "type": "string"
        },
        {
          "indexed": false,
          "internalType": "string",
          "name": "genre",
          "type": "string"
        }
      ],
      "name": "AudioQualitativeUpdated",
      "type": "event"
    },
    {
      "anonymous": false,
      "inputs": [
        {
          "indexed": true,
          "internalType": "address",
          "name": "target",
          "type": "address"
        },
        {
          "indexed": false,
          "internalType": "address",
          "name": "sender",
          "type": "address"
        },
        {
          "indexed": false,
          "internalType": "string",
          "name": "key",
          "type": "string"
        },
        {
          "indexed": false,
          "internalType": "uint256",
          "name": "bpm",
          "type": "uint256"
        },
        {
          "indexed": false,
          "internalType": "uint256",
          "name": "duration",
          "type": "uint256"
        },
        {
          "indexed": false,
          "internalType": "string",
          "name": "audioMimeType",
          "type": "string"
        },
        {
          "indexed": false,
          "internalType": "uint256",
          "name": "trackNumber",
          "type": "uint256"
        }
      ],
      "name": "AudioQuantitativeUpdated",
      "type": "event"
    },
    {
      "anonymous": false,
      "inputs": [
        {
          "indexed": true,
          "internalType": "address",
          "name": "target",
          "type": "address"
        },
        {
          "indexed": false,
          "internalType": "address",
          "name": "sender",
          "type": "address"
        },
        {
          "components": [
            {
              "internalType": "string",
              "name": "name",
              "type": "string"
            },
            {
              "internalType": "string",
              "name": "collaboratorType",
              "type": "string"
            }
          ],
          "indexed": false,
          "internalType": "struct IOnChainMetadata.Credit[]",
          "name": "credits",
          "type": "tuple[]"
        }
      ],
      "name": "CreditsUpdated",
      "type": "event"
    },
    {
      "anonymous": false,
      "inputs": [
        {
          "indexed": true,
          "internalType": "address",
          "name": "target",
          "type": "address"
        },
        {
          "indexed": false,
          "internalType": "address",
          "name": "sender",
          "type": "address"
        },
        {
          "indexed": false,
          "internalType": "string",
          "name": "newDescription",
          "type": "string"
        }
      ],
      "name": "DescriptionUpdated",
      "type": "event"
    },
    {
      "anonymous": false,
      "inputs": [
        {
          "indexed": true,
          "internalType": "address",
          "name": "target",
          "type": "address"
        },
        {
          "indexed": false,
          "internalType": "string",
          "name": "description",
          "type": "string"
        },
        {
          "indexed": false,
          "internalType": "string",
          "name": "imageURI",
          "type": "string"
        },
        {
          "indexed": false,
          "internalType": "string",
          "name": "animationURI",
          "type": "string"
        }
      ],
      "name": "EditionInitialized",
      "type": "event"
    },
    {
      "anonymous": false,
      "inputs": [
        {
          "indexed": true,
          "internalType": "address",
          "name": "target",
          "type": "address"
        },
        {
          "indexed": false,
          "internalType": "address",
          "name": "sender",
          "type": "address"
        },
        {
          "indexed": false,
          "internalType": "string",
          "name": "losslessAudio",
          "type": "string"
        }
      ],
      "name": "LosslessAudioUpdated",
      "type": "event"
    },
    {
      "anonymous": false,
      "inputs": [
        {
          "indexed": false,
          "internalType": "address",
          "name": "target",
          "type": "address"
        },
        {
          "indexed": false,
          "internalType": "address",
          "name": "sender",
          "type": "address"
        },
        {
          "indexed": false,
          "internalType": "string",
          "name": "lyrics",
          "type": "string"
        },
        {
          "indexed": false,
          "internalType": "string",
          "name": "lyricsNft",
          "type": "string"
        }
      ],
      "name": "LyricsUpdated",
      "type": "event"
    },
    {
      "anonymous": false,
      "inputs": [
        {
          "indexed": true,
          "internalType": "address",
          "name": "target",
          "type": "address"
        },
        {
          "indexed": false,
          "internalType": "address",
          "name": "sender",
          "type": "address"
        },
        {
          "indexed": false,
          "internalType": "string",
          "name": "imageURI",
          "type": "string"
        },
        {
          "indexed": false,
          "internalType": "string",
          "name": "animationURI",
          "type": "string"
        }
      ],
      "name": "MediaURIsUpdated",
      "type": "event"
    },
    {
      "anonymous": false,
      "inputs": [
        {
          "indexed": true,
          "internalType": "address",
          "name": "target",
          "type": "address"
        },
        {
          "indexed": false,
          "internalType": "address",
          "name": "sender",
          "type": "address"
        },
        {
          "indexed": false,
          "internalType": "string",
          "name": "artworkUri",
          "type": "string"
        },
        {
          "indexed": false,
          "internalType": "string",
          "name": "artworkMimeType",
          "type": "string"
        },
        {
          "indexed": false,
          "internalType": "string",
          "name": "artworkNft",
          "type": "string"
        }
      ],
      "name": "ProjectArtworkUpdated",
      "type": "event"
    },
    {
      "anonymous": false,
      "inputs": [
        {
          "indexed": true,
          "internalType": "address",
          "name": "target",
          "type": "address"
        },
        {
          "indexed": false,
          "internalType": "address",
          "name": "sender",
          "type": "address"
        },
        {
          "indexed": false,
          "internalType": "string",
          "name": "title",
          "type": "string"
        },
        {
          "indexed": false,
          "internalType": "string",
          "name": "description",
          "type": "string"
        },
        {
          "indexed": false,
          "internalType": "string",
          "name": "recordLabel",
          "type": "string"
        },
        {
          "indexed": false,
          "internalType": "string",
          "name": "publisher",
          "type": "string"
        },
        {
          "indexed": false,
          "internalType": "string",
          "name": "locationCreated",
          "type": "string"
        },
        {
          "indexed": false,
          "internalType": "string",
          "name": "releaseDate",
          "type": "string"
        },
        {
          "indexed": false,
          "internalType": "string",
          "name": "projectType",
          "type": "string"
        },
        {
          "indexed": false,
          "internalType": "string",
          "name": "upc",
          "type": "string"
        }
      ],
      "name": "ProjectPublishingDataUpdated",
      "type": "event"
    },
    {
      "anonymous": false,
      "inputs": [
        {
          "indexed": true,
          "internalType": "address",
          "name": "target",
          "type": "address"
        },
        {
          "indexed": false,
          "internalType": "address",
          "name": "sender",
          "type": "address"
        },
        {
          "indexed": false,
          "internalType": "string",
          "name": "title",
          "type": "string"
        },
        {
          "indexed": false,
          "internalType": "string",
          "name": "description",
          "type": "string"
        },
        {
          "indexed": false,
          "internalType": "string",
          "name": "recordLabel",
          "type": "string"
        },
        {
          "indexed": false,
          "internalType": "string",
          "name": "publisher",
          "type": "string"
        },
        {
          "indexed": false,
          "internalType": "string",
          "name": "locationCreated",
          "type": "string"
        },
        {
          "indexed": false,
          "internalType": "string",
          "name": "releaseDate",
          "type": "string"
        }
      ],
      "name": "PublishingDataUpdated",
      "type": "event"
    },
    {
      "anonymous": false,
      "inputs": [
        {
          "indexed": false,
          "internalType": "address",
          "name": "target",
          "type": "address"
        },
        {
          "indexed": false,
          "internalType": "address",
          "name": "sender",
          "type": "address"
        },
        {
          "components": [
            {
              "components": [
                {
                  "components": [
                    {
                      "internalType": "string",
                      "name": "losslessAudio",
                      "type": "string"
                    },
                    {
                      "components": [
                        {
                          "internalType": "string",
                          "name": "artistName",
                          "type": "string"
                        },
                        {
                          "components": [
                            {
                              "internalType": "string",
                              "name": "key",
                              "type": "string"
                            },
                            {
                              "internalType": "uint256",
                              "name": "bpm",
                              "type": "uint256"
                            },
                            {
                              "internalType": "uint256",
                              "name": "duration",
                              "type": "uint256"
                            },
                            {
                              "internalType": "string",
                              "name": "audioMimeType",
                              "type": "string"
                            },
                            {
                              "internalType": "uint256",
                              "name": "trackNumber",
                              "type": "uint256"
                            }
                          ],
                          "internalType": "struct IOnChainMetadata.AudioQuantitative",
                          "name": "audioQuantitative",
                          "type": "tuple"
                        },
                        {
                          "components": [
                            {
                              "internalType": "string",
                              "name": "license",
                              "type": "string"
                            },
                            {
                              "internalType": "string",
                              "name": "externalUrl",
                              "type": "string"
                            },
                            {
                              "internalType": "string",
                              "name": "isrc",
                              "type": "string"
                            },
                            {
                              "internalType": "string",
                              "name": "genre",
                              "type": "string"
                            }
                          ],
                          "internalType": "struct IOnChainMetadata.AudioQualitative",
                          "name": "audioQualitative",
                          "type": "tuple"
                        }
                      ],
                      "internalType": "struct IOnChainMetadata.SongDetails",
                      "name": "songDetails",
                      "type": "tuple"
                    },
                    {
                      "components": [
                        {
                          "internalType": "string",
                          "name": "lyrics",
                          "type": "string"
                        },
                        {
                          "internalType": "string",
                          "name": "lyricsNft",
                          "type": "string"
                        }
                      ],
                      "internalType": "struct IOnChainMetadata.Lyrics",
                      "name": "lyrics",
                      "type": "tuple"
                    }
                  ],
                  "internalType": "struct IOnChainMetadata.Audio",
                  "name": "audio",
                  "type": "tuple"
                },
                {
                  "components": [
                    {
                      "internalType": "string",
                      "name": "artworkUri",
                      "type": "string"
                    },
                    {
                      "internalType": "string",
                      "name": "artworkMimeType",
                      "type": "string"
                    },
                    {
                      "internalType": "string",
                      "name": "artworkNft",
                      "type": "string"
                    }
                  ],
                  "internalType": "struct IOnChainMetadata.Artwork",
                  "name": "artwork",
                  "type": "tuple"
                },
                {
                  "components": [
                    {
                      "internalType": "string",
                      "name": "artworkUri",
                      "type": "string"
                    },
                    {
                      "internalType": "string",
                      "name": "artworkMimeType",
                      "type": "string"
                    },
                    {
                      "internalType": "string",
                      "name": "artworkNft",
                      "type": "string"
                    }
                  ],
                  "internalType": "struct IOnChainMetadata.Artwork",
                  "name": "visualizer",
                  "type": "tuple"
                }
              ],
              "internalType": "struct IOnChainMetadata.SongContent",
              "name": "song",
              "type": "tuple"
            },
            {
              "components": [
                {
                  "internalType": "string",
                  "name": "title",
                  "type": "string"
                },
                {
                  "internalType": "string",
                  "name": "description",
                  "type": "string"
                },
                {
                  "internalType": "string",
                  "name": "recordLabel",
                  "type": "string"
                },
                {
                  "internalType": "string",
                  "name": "publisher",
                  "type": "string"
                },
                {
                  "internalType": "string",
                  "name": "locationCreated",
                  "type": "string"
                },
                {
                  "internalType": "string",
                  "name": "releaseDate",
                  "type": "string"
                }
              ],
              "internalType": "struct IOnChainMetadata.PublishingData",
              "name": "songPublishingData",
              "type": "tuple"
            }
          ],
          "indexed": false,
          "internalType": "struct IOnChainMetadata.SongMetadata",
          "name": "songMetadata",
          "type": "tuple"
        },
        {
          "components": [
            {
              "components": [
                {
                  "internalType": "string",
                  "name": "title",
                  "type": "string"
                },
                {
                  "internalType": "string",
                  "name": "description",
                  "type": "string"
                },
                {
                  "internalType": "string",
                  "name": "recordLabel",
                  "type": "string"
                },
                {
                  "internalType": "string",
                  "name": "publisher",
                  "type": "string"
                },
                {
                  "internalType": "string",
                  "name": "locationCreated",
                  "type": "string"
                },
                {
                  "internalType": "string",
                  "name": "releaseDate",
                  "type": "string"
                }
              ],
              "internalType": "struct IOnChainMetadata.PublishingData",
              "name": "publishingData",
              "type": "tuple"
            },
            {
              "components": [
                {
                  "internalType": "string",
                  "name": "artworkUri",
                  "type": "string"
                },
                {
                  "internalType": "string",
                  "name": "artworkMimeType",
                  "type": "string"
                },
                {
                  "internalType": "string",
                  "name": "artworkNft",
                  "type": "string"
                }
              ],
              "internalType": "struct IOnChainMetadata.Artwork",
              "name": "artwork",
              "type": "tuple"
            },
            {
              "internalType": "string",
              "name": "projectType",
              "type": "string"
            },
            {
              "internalType": "string",
              "name": "upc",
              "type": "string"
            }
          ],
          "indexed": false,
          "internalType": "struct IOnChainMetadata.ProjectMetadata",
          "name": "projectMetadata",
          "type": "tuple"
        },
        {
          "indexed": false,
          "internalType": "string[]",
          "name": "tags",
          "type": "string[]"
        },
        {
          "components": [
            {
              "internalType": "string",
              "name": "name",
              "type": "string"
            },
            {
              "internalType": "string",
              "name": "collaboratorType",
              "type": "string"
            }
          ],
          "indexed": false,
          "internalType": "struct IOnChainMetadata.Credit[]",
          "name": "credits",
          "type": "tuple[]"
        }
      ],
      "name": "SongUpdated",
      "type": "event"
    },
    {
      "anonymous": false,
      "inputs": [
        {
          "indexed": true,
          "internalType": "address",
          "name": "target",
          "type": "address"
        },
        {
          "indexed": false,
          "internalType": "address",
          "name": "sender",
          "type": "address"
        },
        {
          "indexed": false,
          "internalType": "string[]",
          "name": "tags",
          "type": "string[]"
        }
      ],
      "name": "TagsUpdated",
      "type": "event"
    },
    {
      "anonymous": false,
      "inputs": [
        {
          "indexed": true,
          "internalType": "address",
          "name": "target",
          "type": "address"
        },
        {
          "indexed": false,
          "internalType": "address",
          "name": "sender",
          "type": "address"
        },
        {
          "indexed": false,
          "internalType": "string",
          "name": "artworkUri",
          "type": "string"
        },
        {
          "indexed": false,
          "internalType": "string",
          "name": "artworkMimeType",
          "type": "string"
        },
        {
          "indexed": false,
          "internalType": "string",
          "name": "artworkNft",
          "type": "string"
        }
      ],
      "name": "VisualizerUpdated",
      "type": "event"
    },
    {
      "inputs": [
        {
          "internalType": "address",
          "name": "target",
          "type": "address"
        },
        {
          "components": [
            {
              "components": [
                {
                  "components": [
                    {
                      "internalType": "string",
                      "name": "losslessAudio",
                      "type": "string"
                    },
                    {
                      "components": [
                        {
                          "internalType": "string",
                          "name": "artistName",
                          "type": "string"
                        },
                        {
                          "components": [
                            {
                              "internalType": "string",
                              "name": "key",
                              "type": "string"
                            },
                            {
                              "internalType": "uint256",
                              "name": "bpm",
                              "type": "uint256"
                            },
                            {
                              "internalType": "uint256",
                              "name": "duration",
                              "type": "uint256"
                            },
                            {
                              "internalType": "string",
                              "name": "audioMimeType",
                              "type": "string"
                            },
                            {
                              "internalType": "uint256",
                              "name": "trackNumber",
                              "type": "uint256"
                            }
                          ],
                          "internalType": "struct IOnChainMetadata.AudioQuantitative",
                          "name": "audioQuantitative",
                          "type": "tuple"
                        },
                        {
                          "components": [
                            {
                              "internalType": "string",
                              "name": "license",
                              "type": "string"
                            },
                            {
                              "internalType": "string",
                              "name": "externalUrl",
                              "type": "string"
                            },
                            {
                              "internalType": "string",
                              "name": "isrc",
                              "type": "string"
                            },
                            {
                              "internalType": "string",
                              "name": "genre",
                              "type": "string"
                            }
                          ],
                          "internalType": "struct IOnChainMetadata.AudioQualitative",
                          "name": "audioQualitative",
                          "type": "tuple"
                        }
                      ],
                      "internalType": "struct IOnChainMetadata.SongDetails",
                      "name": "songDetails",
                      "type": "tuple"
                    },
                    {
                      "components": [
                        {
                          "internalType": "string",
                          "name": "lyrics",
                          "type": "string"
                        },
                        {
                          "internalType": "string",
                          "name": "lyricsNft",
                          "type": "string"
                        }
                      ],
                      "internalType": "struct IOnChainMetadata.Lyrics",
                      "name": "lyrics",
                      "type": "tuple"
                    }
                  ],
                  "internalType": "struct IOnChainMetadata.Audio",
                  "name": "audio",
                  "type": "tuple"
                },
                {
                  "components": [
                    {
                      "internalType": "string",
                      "name": "artworkUri",
                      "type": "string"
                    },
                    {
                      "internalType": "string",
                      "name": "artworkMimeType",
                      "type": "string"
                    },
                    {
                      "internalType": "string",
                      "name": "artworkNft",
                      "type": "string"
                    }
                  ],
                  "internalType": "struct IOnChainMetadata.Artwork",
                  "name": "artwork",
                  "type": "tuple"
                },
                {
                  "components": [
                    {
                      "internalType": "string",
                      "name": "artworkUri",
                      "type": "string"
                    },
                    {
                      "internalType": "string",
                      "name": "artworkMimeType",
                      "type": "string"
                    },
                    {
                      "internalType": "string",
                      "name": "artworkNft",
                      "type": "string"
                    }
                  ],
                  "internalType": "struct IOnChainMetadata.Artwork",
                  "name": "visualizer",
                  "type": "tuple"
                }
              ],
              "internalType": "struct IOnChainMetadata.SongContent",
              "name": "song",
              "type": "tuple"
            },
            {
              "components": [
                {
                  "internalType": "string",
                  "name": "title",
                  "type": "string"
                },
                {
                  "internalType": "string",
                  "name": "description",
                  "type": "string"
                },
                {
                  "internalType": "string",
                  "name": "recordLabel",
                  "type": "string"
                },
                {
                  "internalType": "string",
                  "name": "publisher",
                  "type": "string"
                },
                {
                  "internalType": "string",
                  "name": "locationCreated",
                  "type": "string"
                },
                {
                  "internalType": "string",
                  "name": "releaseDate",
                  "type": "string"
                }
              ],
              "internalType": "struct IOnChainMetadata.PublishingData",
              "name": "songPublishingData",
              "type": "tuple"
            }
          ],
          "internalType": "struct IOnChainMetadata.SongMetadata",
          "name": "_songMetadata",
          "type": "tuple"
        },
        {
          "components": [
            {
              "components": [
                {
                  "internalType": "string",
                  "name": "title",
                  "type": "string"
                },
                {
                  "internalType": "string",
                  "name": "description",
                  "type": "string"
                },
                {
                  "internalType": "string",
                  "name": "recordLabel",
                  "type": "string"
                },
                {
                  "internalType": "string",
                  "name": "publisher",
                  "type": "string"
                },
                {
                  "internalType": "string",
                  "name": "locationCreated",
                  "type": "string"
                },
                {
                  "internalType": "string",
                  "name": "releaseDate",
                  "type": "string"
                }
              ],
              "internalType": "struct IOnChainMetadata.PublishingData",
              "name": "publishingData",
              "type": "tuple"
            },
            {
              "components": [
                {
                  "internalType": "string",
                  "name": "artworkUri",
                  "type": "string"
                },
                {
                  "internalType": "string",
                  "name": "artworkMimeType",
                  "type": "string"
                },
                {
                  "internalType": "string",
                  "name": "artworkNft",
                  "type": "string"
                }
              ],
              "internalType": "struct IOnChainMetadata.Artwork",
              "name": "artwork",
              "type": "tuple"
            },
            {
              "internalType": "string",
              "name": "projectType",
              "type": "string"
            },
            {
              "internalType": "string",
              "name": "upc",
              "type": "string"
            }
          ],
          "internalType": "struct IOnChainMetadata.ProjectMetadata",
          "name": "_projectMetadata",
          "type": "tuple"
        },
        {
          "internalType": "string[]",
          "name": "_tags",
          "type": "string[]"
        },
        {
          "components": [
            {
              "internalType": "string",
              "name": "name",
              "type": "string"
            },
            {
              "internalType": "string",
              "name": "collaboratorType",
              "type": "string"
            }
          ],
          "internalType": "struct IOnChainMetadata.Credit[]",
          "name": "_credits",
          "type": "tuple[]"
        }
      ],
      "name": "bulkUpdate",
      "outputs": [],
      "stateMutability": "nonpayable",
      "type": "function"
    },
    {
      "inputs": [],
      "name": "contractURI",
      "outputs": [
        {
          "internalType": "string",
          "name": "",
          "type": "string"
        }
      ],
      "stateMutability": "view",
      "type": "function"
    },
    {
      "inputs": [
        {
          "internalType": "bytes",
          "name": "data",
          "type": "bytes"
        }
      ],
      "name": "initializeWithData",
      "outputs": [],
      "stateMutability": "nonpayable",
      "type": "function"
    },
    {
      "inputs": [
        {
          "internalType": "address",
          "name": "",
          "type": "address"
        }
      ],
      "name": "projectMetadatas",
      "outputs": [
        {
          "components": [
            {
              "internalType": "string",
              "name": "title",
              "type": "string"
            },
            {
              "internalType": "string",
              "name": "description",
              "type": "string"
            },
            {
              "internalType": "string",
              "name": "recordLabel",
              "type": "string"
            },
            {
              "internalType": "string",
              "name": "publisher",
              "type": "string"
            },
            {
              "internalType": "string",
              "name": "locationCreated",
              "type": "string"
            },
            {
              "internalType": "string",
              "name": "releaseDate",
              "type": "string"
            }
          ],
          "internalType": "struct IOnChainMetadata.PublishingData",
          "name": "publishingData",
          "type": "tuple"
        },
        {
          "components": [
            {
              "internalType": "string",
              "name": "artworkUri",
              "type": "string"
            },
            {
              "internalType": "string",
              "name": "artworkMimeType",
              "type": "string"
            },
            {
              "internalType": "string",
              "name": "artworkNft",
              "type": "string"
            }
          ],
          "internalType": "struct IOnChainMetadata.Artwork",
          "name": "artwork",
          "type": "tuple"
        },
        {
          "internalType": "string",
          "name": "projectType",
          "type": "string"
        },
        {
          "internalType": "string",
          "name": "upc",
          "type": "string"
        }
      ],
      "stateMutability": "view",
      "type": "function"
    },
    {
      "inputs": [],
      "name": "sharedNFTLogic",
      "outputs": [
        {
          "internalType": "contract ISharedNFTLogic",
          "name": "",
          "type": "address"
        }
      ],
      "stateMutability": "view",
      "type": "function"
    },
    {
      "inputs": [
        {
          "internalType": "address",
          "name": "",
          "type": "address"
        }
      ],
      "name": "songMetadatas",
      "outputs": [
        {
          "components": [
            {
              "components": [
                {
                  "internalType": "string",
                  "name": "losslessAudio",
                  "type": "string"
                },
                {
                  "components": [
                    {
                      "internalType": "string",
                      "name": "artistName",
                      "type": "string"
                    },
                    {
                      "components": [
                        {
                          "internalType": "string",
                          "name": "key",
                          "type": "string"
                        },
                        {
                          "internalType": "uint256",
                          "name": "bpm",
                          "type": "uint256"
                        },
                        {
                          "internalType": "uint256",
                          "name": "duration",
                          "type": "uint256"
                        },
                        {
                          "internalType": "string",
                          "name": "audioMimeType",
                          "type": "string"
                        },
                        {
                          "internalType": "uint256",
                          "name": "trackNumber",
                          "type": "uint256"
                        }
                      ],
                      "internalType": "struct IOnChainMetadata.AudioQuantitative",
                      "name": "audioQuantitative",
                      "type": "tuple"
                    },
                    {
                      "components": [
                        {
                          "internalType": "string",
                          "name": "license",
                          "type": "string"
                        },
                        {
                          "internalType": "string",
                          "name": "externalUrl",
                          "type": "string"
                        },
                        {
                          "internalType": "string",
                          "name": "isrc",
                          "type": "string"
                        },
                        {
                          "internalType": "string",
                          "name": "genre",
                          "type": "string"
                        }
                      ],
                      "internalType": "struct IOnChainMetadata.AudioQualitative",
                      "name": "audioQualitative",
                      "type": "tuple"
                    }
                  ],
                  "internalType": "struct IOnChainMetadata.SongDetails",
                  "name": "songDetails",
                  "type": "tuple"
                },
                {
                  "components": [
                    {
                      "internalType": "string",
                      "name": "lyrics",
                      "type": "string"
                    },
                    {
                      "internalType": "string",
                      "name": "lyricsNft",
                      "type": "string"
                    }
                  ],
                  "internalType": "struct IOnChainMetadata.Lyrics",
                  "name": "lyrics",
                  "type": "tuple"
                }
              ],
              "internalType": "struct IOnChainMetadata.Audio",
              "name": "audio",
              "type": "tuple"
            },
            {
              "components": [
                {
                  "internalType": "string",
                  "name": "artworkUri",
                  "type": "string"
                },
                {
                  "internalType": "string",
                  "name": "artworkMimeType",
                  "type": "string"
                },
                {
                  "internalType": "string",
                  "name": "artworkNft",
                  "type": "string"
                }
              ],
              "internalType": "struct IOnChainMetadata.Artwork",
              "name": "artwork",
              "type": "tuple"
            },
            {
              "components": [
                {
                  "internalType": "string",
                  "name": "artworkUri",
                  "type": "string"
                },
                {
                  "internalType": "string",
                  "name": "artworkMimeType",
                  "type": "string"
                },
                {
                  "internalType": "string",
                  "name": "artworkNft",
                  "type": "string"
                }
              ],
              "internalType": "struct IOnChainMetadata.Artwork",
              "name": "visualizer",
              "type": "tuple"
            }
          ],
          "internalType": "struct IOnChainMetadata.SongContent",
          "name": "song",
          "type": "tuple"
        },
        {
          "components": [
            {
              "internalType": "string",
              "name": "title",
              "type": "string"
            },
            {
              "internalType": "string",
              "name": "description",
              "type": "string"
            },
            {
              "internalType": "string",
              "name": "recordLabel",
              "type": "string"
            },
            {
              "internalType": "string",
              "name": "publisher",
              "type": "string"
            },
            {
              "internalType": "string",
              "name": "locationCreated",
              "type": "string"
            },
            {
              "internalType": "string",
              "name": "releaseDate",
              "type": "string"
            }
          ],
          "internalType": "struct IOnChainMetadata.PublishingData",
          "name": "songPublishingData",
          "type": "tuple"
        }
      ],
      "stateMutability": "view",
      "type": "function"
    },
    {
      "inputs": [
        {
          "internalType": "uint256",
          "name": "tokenId",
          "type": "uint256"
        }
      ],
      "name": "tokenURI",
      "outputs": [
        {
          "internalType": "string",
          "name": "",
          "type": "string"
        }
      ],
      "stateMutability": "view",
      "type": "function"
    },
    {
      "inputs": [
        {
          "internalType": "uint256",
          "name": "tokenId",
          "type": "uint256"
        },
        {
          "internalType": "address",
          "name": "target",
          "type": "address"
        }
      ],
      "name": "tokenURITarget",
      "outputs": [
        {
          "internalType": "string",
          "name": "",
          "type": "string"
        }
      ],
      "stateMutability": "view",
      "type": "function"
    },
    {
      "inputs": [
        {
          "internalType": "address",
          "name": "target",
          "type": "address"
        },
        {
          "components": [
            {
              "internalType": "string",
              "name": "name",
              "type": "string"
            },
            {
              "internalType": "string",
              "name": "collaboratorType",
              "type": "string"
            }
          ],
          "internalType": "struct IOnChainMetadata.Credit[]",
          "name": "_credits",
          "type": "tuple[]"
        }
      ],
      "name": "updateCredits",
      "outputs": [],
      "stateMutability": "nonpayable",
      "type": "function"
    },
    {
      "inputs": [
        {
          "internalType": "address",
          "name": "target",
          "type": "address"
        },
        {
          "internalType": "string",
          "name": "newDescription",
          "type": "string"
        }
      ],
      "name": "updateDescription",
      "outputs": [],
      "stateMutability": "nonpayable",
      "type": "function"
    },
    {
      "inputs": [
        {
          "internalType": "address",
          "name": "target",
          "type": "address"
        },
        {
          "internalType": "string",
          "name": "imageURI",
          "type": "string"
        },
        {
          "internalType": "string",
          "name": "animationURI",
          "type": "string"
        }
      ],
      "name": "updateMediaURIs",
      "outputs": [],
      "stateMutability": "nonpayable",
      "type": "function"
    },
    {
      "inputs": [
        {
          "internalType": "address",
          "name": "target",
          "type": "address"
        },
        {
          "internalType": "string[]",
          "name": "tags",
          "type": "string[]"
        }
      ],
      "name": "updateTags",
      "outputs": [],
      "stateMutability": "nonpayable",
      "type": "function"
    }
  ],
  "bytecode": "0x60a06040523480156200001157600080fd5b50604051620057af380380620057af8339818101604052810190620000379190620000f0565b8073ffffffffffffffffffffffffffffffffffffffff1660808173ffffffffffffffffffffffffffffffffffffffff16815250505062000122565b600080fd5b600073ffffffffffffffffffffffffffffffffffffffff82169050919050565b6000620000a48262000077565b9050919050565b6000620000b88262000097565b9050919050565b620000ca81620000ab565b8114620000d657600080fd5b50565b600081519050620000ea81620000bf565b92915050565b60006020828403121562000109576200010862000072565b5b60006200011984828501620000d9565b91505092915050565b6080516156636200014c60003960008181611678015281816129bf0152612ac301526156636000f3fe608060405234801561001057600080fd5b50600436106100b45760003560e01c8063b80adf2511610071578063b80adf2514610178578063c87b56dd146101a8578063d1fe4b3d146101d8578063d5159df7146101f4578063d67e9d9314610225578063e8a3d48514610243576100b4565b80631821cdde146100b95780632f17b8f0146100d5578063856a7ffa146100f15780638bbb2cf21461010d578063af9bb79714610129578063afb5b6841461015c575b600080fd5b6100d360048036038101906100ce91906138e6565b610261565b005b6100ef60048036038101906100ea91906139d4565b6108b8565b005b61010b60048036038101906101069190613b00565b610ae5565b005b61012760048036038101906101229190613b49565b610c6d565b005b610143600480360381019061013e9190613ba5565b610e38565b6040516101539493929190613dae565b60405180910390f35b61017660048036038101906101719190613e0f565b6114ae565b005b610192600480360381019061018d9190613e6b565b611674565b60405161019f9190613eab565b60405180910390f35b6101c260048036038101906101bd9190613ecd565b6118af565b6040516101cf9190613eab565b60405180910390f35b6101f260048036038101906101ed9190613efa565b6118c8565b005b61020e60048036038101906102099190613ba5565b611c4f565b60405161021c92919061421a565b60405180910390f35b61022d6129bd565b60405161023a91906142b0565b60405180910390f35b61024b6129e1565b6040516102589190613eab565b60405180910390f35b853373ffffffffffffffffffffffffffffffffffffffff168173ffffffffffffffffffffffffffffffffffffffff161415801561034757503373ffffffffffffffffffffffffffffffffffffffff168173ffffffffffffffffffffffffffffffffffffffff16638da5cb5b6040518163ffffffff1660e01b815260040160206040518083038186803b1580156102f657600080fd5b505afa15801561030a573d6000803e3d6000fd5b505050506040513d601f19601f8201168201806040525081019061032e91906142e0565b73ffffffffffffffffffffffffffffffffffffffff1614155b1561037e576040517f02bd6bd100000000000000000000000000000000000000000000000000000000815260040160405180910390fd5b856000808973ffffffffffffffffffffffffffffffffffffffff1673ffffffffffffffffffffffffffffffffffffffff16815260200190815260200160002060008201518160000160008201518160000160008201518160000190805190602001906103eb929190612c1f565b506020820151816001016000820151816000019080519060200190610411929190612c1f565b506020820151816001016000820151816000019080519060200190610437929190612c1f565b5060208201518160010155604082015181600201556060820151816003019080519060200190610468929190612c1f565b50608082015181600401555050604082015181600601600082015181600001908051906020019061049a929190612c1f565b5060208201518160010190805190602001906104b7929190612c1f565b5060408201518160020190805190602001906104d4929190612c1f565b5060608201518160030190805190602001906104f1929190612c1f565b5050505050604082015181600b01600082015181600001908051906020019061051b929190612c1f565b506020820151816001019080519060200190610538929190612c1f565b5050505050602082015181600d016000820151816000019080519060200190610562929190612c1f565b50602082015181600101908051906020019061057f929190612c1f565b50604082015181600201908051906020019061059c929190612c1f565b50505060408201518160100160008201518160000190805190602001906105c4929190612c1f565b5060208201518160010190805190602001906105e1929190612c1f565b5060408201518160020190805190602001906105fe929190612c1f565b50505050506020820151816013016000820151816000019080519060200190610628929190612c1f565b506020820151816001019080519060200190610645929190612c1f565b506040820151816002019080519060200190610662929190612c1f565b50606082015181600301908051906020019061067f929190612c1f565b50608082015181600401908051906020019061069c929190612c1f565b5060a08201518160050190805190602001906106b9929190612c1f565b50505090505084600160008973ffffffffffffffffffffffffffffffffffffffff1673ffffffffffffffffffffffffffffffffffffffff1681526020019081526020016000206000820151816000016000820151816000019080519060200190610724929190612c1f565b506020820151816001019080519060200190610741929190612c1f565b50604082015181600201908051906020019061075e929190612c1f565b50606082015181600301908051906020019061077b929190612c1f565b506080820151816004019080519060200190610798929190612c1f565b5060a08201518160050190805190602001906107b5929190612c1f565b50505060208201518160060160008201518160000190805190602001906107dd929190612c1f565b5060208201518160010190805190602001906107fa929190612c1f565b506040820151816002019080519060200190610817929190612c1f565b5050506040820151816009019080519060200190610836929190612c1f565b50606082015181600a019080519060200190610853929190612c1f565b5090505061086187856114ae565b61086c8784846118c8565b7fd8dc0881ec840ecce080f25893fc6ed26eb14e3cb10bdf02b5536bff243a1efa873388888888886040516108a79796959493929190614773565b60405180910390a150505050505050565b823373ffffffffffffffffffffffffffffffffffffffff168173ffffffffffffffffffffffffffffffffffffffff161415801561099e57503373ffffffffffffffffffffffffffffffffffffffff168173ffffffffffffffffffffffffffffffffffffffff16638da5cb5b6040518163ffffffff1660e01b815260040160206040518083038186803b15801561094d57600080fd5b505afa158015610961573d6000803e3d6000fd5b505050506040513d601f19601f8201168201806040525081019061098591906142e0565b73ffffffffffffffffffffffffffffffffffffffff1614155b156109d5576040517f02bd6bd100000000000000000000000000000000000000000000000000000000815260040160405180910390fd5b826000808673ffffffffffffffffffffffffffffffffffffffff1673ffffffffffffffffffffffffffffffffffffffff168152602001908152602001600020600001600d016000019080519060200190610a30929190612c1f565b50816000808673ffffffffffffffffffffffffffffffffffffffff1673ffffffffffffffffffffffffffffffffffffffff1681526020019081526020016000206000016000016000019080519060200190610a8c929190612c1f565b508373ffffffffffffffffffffffffffffffffffffffff167fc4c1b9223fcebe5f35b9030d3df655018c40e88d70b8a3c63ed851c5d972210f338585604051610ad7939291906147f2565b60405180910390a250505050565b600080600083806020019051810190610afe91906148a7565b925092509250826000803373ffffffffffffffffffffffffffffffffffffffff1673ffffffffffffffffffffffffffffffffffffffff1681526020019081526020016000206013016001019080519060200190610b5c929190612c1f565b50806000803373ffffffffffffffffffffffffffffffffffffffff1673ffffffffffffffffffffffffffffffffffffffff1681526020019081526020016000206000016000016000019080519060200190610bb8929190612c1f565b50816000803373ffffffffffffffffffffffffffffffffffffffff1673ffffffffffffffffffffffffffffffffffffffff168152602001908152602001600020600001600d016000019080519060200190610c14929190612c1f565b503373ffffffffffffffffffffffffffffffffffffffff167ff889a5cdc62274389379cbfade0f225b1d30b7395177fd6aeaab61662b1c6edf848484604051610c5f9392919061494e565b60405180910390a250505050565b813373ffffffffffffffffffffffffffffffffffffffff168173ffffffffffffffffffffffffffffffffffffffff1614158015610d5357503373ffffffffffffffffffffffffffffffffffffffff168173ffffffffffffffffffffffffffffffffffffffff16638da5cb5b6040518163ffffffff1660e01b815260040160206040518083038186803b158015610d0257600080fd5b505afa158015610d16573d6000803e3d6000fd5b505050506040513d601f19601f82011682018060405250810190610d3a91906142e0565b73ffffffffffffffffffffffffffffffffffffffff1614155b15610d8a576040517f02bd6bd100000000000000000000000000000000000000000000000000000000815260040160405180910390fd5b816000808573ffffffffffffffffffffffffffffffffffffffff1673ffffffffffffffffffffffffffffffffffffffff1681526020019081526020016000206013016001019080519060200190610de2929190612c1f565b508273ffffffffffffffffffffffffffffffffffffffff167f36195b44a3184513e02477929207751ea9d67026b917ed74d374a7f9e8c5e4d13384604051610e2b92919061499a565b60405180910390a2505050565b6001602052806000526040600020600091509050806000016040518060c0016040529081600082018054610e6b906149f9565b80601f0160208091040260200160405190810160405280929190818152602001828054610e97906149f9565b8015610ee45780601f10610eb957610100808354040283529160200191610ee4565b820191906000526020600020905b815481529060010190602001808311610ec757829003601f168201915b50505050508152602001600182018054610efd906149f9565b80601f0160208091040260200160405190810160405280929190818152602001828054610f29906149f9565b8015610f765780601f10610f4b57610100808354040283529160200191610f76565b820191906000526020600020905b815481529060010190602001808311610f5957829003601f168201915b50505050508152602001600282018054610f8f906149f9565b80601f0160208091040260200160405190810160405280929190818152602001828054610fbb906149f9565b80156110085780601f10610fdd57610100808354040283529160200191611008565b820191906000526020600020905b815481529060010190602001808311610feb57829003601f168201915b50505050508152602001600382018054611021906149f9565b80601f016020809104026020016040519081016040528092919081815260200182805461104d906149f9565b801561109a5780601f1061106f5761010080835404028352916020019161109a565b820191906000526020600020905b81548152906001019060200180831161107d57829003601f168201915b505050505081526020016004820180546110b3906149f9565b80601f01602080910402602001604051908101604052809291908181526020018280546110df906149f9565b801561112c5780601f106111015761010080835404028352916020019161112c565b820191906000526020600020905b81548152906001019060200180831161110f57829003601f168201915b50505050508152602001600582018054611145906149f9565b80601f0160208091040260200160405190810160405280929190818152602001828054611171906149f9565b80156111be5780601f10611193576101008083540402835291602001916111be565b820191906000526020600020905b8154815290600101906020018083116111a157829003601f168201915b50505050508152505090806006016040518060600160405290816000820180546111e7906149f9565b80601f0160208091040260200160405190810160405280929190818152602001828054611213906149f9565b80156112605780601f1061123557610100808354040283529160200191611260565b820191906000526020600020905b81548152906001019060200180831161124357829003601f168201915b50505050508152602001600182018054611279906149f9565b80601f01602080910402602001604051908101604052809291908181526020018280546112a5906149f9565b80156112f25780601f106112c7576101008083540402835291602001916112f2565b820191906000526020600020905b8154815290600101906020018083116112d557829003601f168201915b5050505050815260200160028201805461130b906149f9565b80601f0160208091040260200160405190810160405280929190818152602001828054611337906149f9565b80156113845780601f1061135957610100808354040283529160200191611384565b820191906000526020600020905b81548152906001019060200180831161136757829003601f168201915b5050505050815250509080600901805461139d906149f9565b80601f01602080910402602001604051908101604052809291908181526020018280546113c9906149f9565b80156114165780601f106113eb57610100808354040283529160200191611416565b820191906000526020600020905b8154815290600101906020018083116113f957829003601f168201915b50505050509080600a01805461142b906149f9565b80601f0160208091040260200160405190810160405280929190818152602001828054611457906149f9565b80156114a45780601f10611479576101008083540402835291602001916114a4565b820191906000526020600020905b81548152906001019060200180831161148757829003601f168201915b5050505050905084565b813373ffffffffffffffffffffffffffffffffffffffff168173ffffffffffffffffffffffffffffffffffffffff161415801561159457503373ffffffffffffffffffffffffffffffffffffffff168173ffffffffffffffffffffffffffffffffffffffff16638da5cb5b6040518163ffffffff1660e01b815260040160206040518083038186803b15801561154357600080fd5b505afa158015611557573d6000803e3d6000fd5b505050506040513d601f19601f8201168201806040525081019061157b91906142e0565b73ffffffffffffffffffffffffffffffffffffffff1614155b156115cb576040517f02bd6bd100000000000000000000000000000000000000000000000000000000815260040160405180910390fd5b81600260008573ffffffffffffffffffffffffffffffffffffffff1673ffffffffffffffffffffffffffffffffffffffff168152602001908152602001600020908051906020019061161e929190612ca5565b508273ffffffffffffffffffffffffffffffffffffffff167f70deccfc75f688d1fad2a661e4818b3a9939f15bd374bb3b28c5d8b013446b723384604051611667929190614a2b565b60405180910390a2505050565b60607f000000000000000000000000000000000000000000000000000000000000000073ffffffffffffffffffffffffffffffffffffffff16630464320b8373ffffffffffffffffffffffffffffffffffffffff166306fdde036040518163ffffffff1660e01b815260040160006040518083038186803b1580156116f857600080fd5b505afa15801561170c573d6000803e3d6000fd5b505050506040513d6000823e3d601f19601f820116820180604052508101906117359190614a5b565b856000808773ffffffffffffffffffffffffffffffffffffffff1673ffffffffffffffffffffffffffffffffffffffff168152602001908152602001600020600160008873ffffffffffffffffffffffffffffffffffffffff1673ffffffffffffffffffffffffffffffffffffffff168152602001908152602001600020600360008973ffffffffffffffffffffffffffffffffffffffff1673ffffffffffffffffffffffffffffffffffffffff168152602001908152602001600020600260008a73ffffffffffffffffffffffffffffffffffffffff1673ffffffffffffffffffffffffffffffffffffffff1681526020019081526020016000206040518763ffffffff1660e01b815260040161185296959493929190615155565b60006040518083038186803b15801561186a57600080fd5b505afa15801561187e573d6000803e3d6000fd5b505050506040513d6000823e3d601f19601f820116820180604052508101906118a79190614a5b565b905092915050565b606060003390506118c08382611674565b915050919050565b823373ffffffffffffffffffffffffffffffffffffffff168173ffffffffffffffffffffffffffffffffffffffff16141580156119ae57503373ffffffffffffffffffffffffffffffffffffffff168173ffffffffffffffffffffffffffffffffffffffff16638da5cb5b6040518163ffffffff1660e01b815260040160206040518083038186803b15801561195d57600080fd5b505afa158015611971573d6000803e3d6000fd5b505050506040513d601f19601f8201168201806040525081019061199591906142e0565b73ffffffffffffffffffffffffffffffffffffffff1614155b156119e5576040517f02bd6bd100000000000000000000000000000000000000000000000000000000815260040160405180910390fd5b600360008573ffffffffffffffffffffffffffffffffffffffff1673ffffffffffffffffffffffffffffffffffffffff1681526020019081526020016000206000611a309190612d05565b60005b83839050811015611bf657600360008673ffffffffffffffffffffffffffffffffffffffff1673ffffffffffffffffffffffffffffffffffffffff1681526020019081526020016000206040518060400160405280868685818110611a9b57611a9a6151d9565b5b9050602002810190611aad9190615217565b8060000190611abc919061523f565b8080601f016020809104026020016040519081016040528093929190818152602001838380828437600081840152601f19601f820116905080830192505050505050508152602001868685818110611b1757611b166151d9565b5b9050602002810190611b299190615217565b8060200190611b38919061523f565b8080601f016020809104026020016040519081016040528093929190818152602001838380828437600081840152601f19601f8201169050808301925050505050505081525090806001815401808255809150506001900390600052602060002090600202016000909190919091506000820151816000019080519060200190611bc3929190612c1f565b506020820151816001019080519060200190611be0929190612c1f565b5050508080611bee906152d1565b915050611a33565b508373ffffffffffffffffffffffffffffffffffffffff167f96e9933dcda4e1f454ca4daf8783c1a245e683873ee5c52bf9df39e5bebb9715338585604051611c419392919061531a565b60405180910390a250505050565b60006020528060005260406000206000915090508060000160405180606001604052908160008201604051806060016040529081600082018054611c92906149f9565b80601f0160208091040260200160405190810160405280929190818152602001828054611cbe906149f9565b8015611d0b5780601f10611ce057610100808354040283529160200191611d0b565b820191906000526020600020905b815481529060010190602001808311611cee57829003601f168201915b5050505050815260200160018201604051806060016040529081600082018054611d34906149f9565b80601f0160208091040260200160405190810160405280929190818152602001828054611d60906149f9565b8015611dad5780601f10611d8257610100808354040283529160200191611dad565b820191906000526020600020905b815481529060010190602001808311611d9057829003601f168201915b50505050508152602001600182016040518060a0016040529081600082018054611dd6906149f9565b80601f0160208091040260200160405190810160405280929190818152602001828054611e02906149f9565b8015611e4f5780601f10611e2457610100808354040283529160200191611e4f565b820191906000526020600020905b815481529060010190602001808311611e3257829003601f168201915b505050505081526020016001820154815260200160028201548152602001600382018054611e7c906149f9565b80601f0160208091040260200160405190810160405280929190818152602001828054611ea8906149f9565b8015611ef55780601f10611eca57610100808354040283529160200191611ef5565b820191906000526020600020905b815481529060010190602001808311611ed857829003601f168201915b50505050508152602001600482015481525050815260200160068201604051806080016040529081600082018054611f2c906149f9565b80601f0160208091040260200160405190810160405280929190818152602001828054611f58906149f9565b8015611fa55780601f10611f7a57610100808354040283529160200191611fa5565b820191906000526020600020905b815481529060010190602001808311611f8857829003601f168201915b50505050508152602001600182018054611fbe906149f9565b80601f0160208091040260200160405190810160405280929190818152602001828054611fea906149f9565b80156120375780601f1061200c57610100808354040283529160200191612037565b820191906000526020600020905b81548152906001019060200180831161201a57829003601f168201915b50505050508152602001600282018054612050906149f9565b80601f016020809104026020016040519081016040528092919081815260200182805461207c906149f9565b80156120c95780601f1061209e576101008083540402835291602001916120c9565b820191906000526020600020905b8154815290600101906020018083116120ac57829003601f168201915b505050505081526020016003820180546120e2906149f9565b80601f016020809104026020016040519081016040528092919081815260200182805461210e906149f9565b801561215b5780601f106121305761010080835404028352916020019161215b565b820191906000526020600020905b81548152906001019060200180831161213e57829003601f168201915b505050505081525050815250508152602001600b820160405180604001604052908160008201805461218c906149f9565b80601f01602080910402602001604051908101604052809291908181526020018280546121b8906149f9565b80156122055780601f106121da57610100808354040283529160200191612205565b820191906000526020600020905b8154815290600101906020018083116121e857829003601f168201915b5050505050815260200160018201805461221e906149f9565b80601f016020809104026020016040519081016040528092919081815260200182805461224a906149f9565b80156122975780601f1061226c57610100808354040283529160200191612297565b820191906000526020600020905b81548152906001019060200180831161227a57829003601f168201915b505050505081525050815250508152602001600d82016040518060600160405290816000820180546122c8906149f9565b80601f01602080910402602001604051908101604052809291908181526020018280546122f4906149f9565b80156123415780601f1061231657610100808354040283529160200191612341565b820191906000526020600020905b81548152906001019060200180831161232457829003601f168201915b5050505050815260200160018201805461235a906149f9565b80601f0160208091040260200160405190810160405280929190818152602001828054612386906149f9565b80156123d35780601f106123a8576101008083540402835291602001916123d3565b820191906000526020600020905b8154815290600101906020018083116123b657829003601f168201915b505050505081526020016002820180546123ec906149f9565b80601f0160208091040260200160405190810160405280929190818152602001828054612418906149f9565b80156124655780601f1061243a57610100808354040283529160200191612465565b820191906000526020600020905b81548152906001019060200180831161244857829003601f168201915b505050505081525050815260200160108201604051806060016040529081600082018054612492906149f9565b80601f01602080910402602001604051908101604052809291908181526020018280546124be906149f9565b801561250b5780601f106124e05761010080835404028352916020019161250b565b820191906000526020600020905b8154815290600101906020018083116124ee57829003601f168201915b50505050508152602001600182018054612524906149f9565b80601f0160208091040260200160405190810160405280929190818152602001828054612550906149f9565b801561259d5780601f106125725761010080835404028352916020019161259d565b820191906000526020600020905b81548152906001019060200180831161258057829003601f168201915b505050505081526020016002820180546125b6906149f9565b80601f01602080910402602001604051908101604052809291908181526020018280546125e2906149f9565b801561262f5780601f106126045761010080835404028352916020019161262f565b820191906000526020600020905b81548152906001019060200180831161261257829003601f168201915b5050505050815250508152505090806013016040518060c001604052908160008201805461265c906149f9565b80601f0160208091040260200160405190810160405280929190818152602001828054612688906149f9565b80156126d55780601f106126aa576101008083540402835291602001916126d5565b820191906000526020600020905b8154815290600101906020018083116126b857829003601f168201915b505050505081526020016001820180546126ee906149f9565b80601f016020809104026020016040519081016040528092919081815260200182805461271a906149f9565b80156127675780601f1061273c57610100808354040283529160200191612767565b820191906000526020600020905b81548152906001019060200180831161274a57829003601f168201915b50505050508152602001600282018054612780906149f9565b80601f01602080910402602001604051908101604052809291908181526020018280546127ac906149f9565b80156127f95780601f106127ce576101008083540402835291602001916127f9565b820191906000526020600020905b8154815290600101906020018083116127dc57829003601f168201915b50505050508152602001600382018054612812906149f9565b80601f016020809104026020016040519081016040528092919081815260200182805461283e906149f9565b801561288b5780601f106128605761010080835404028352916020019161288b565b820191906000526020600020905b81548152906001019060200180831161286e57829003601f168201915b505050505081526020016004820180546128a4906149f9565b80601f01602080910402602001604051908101604052809291908181526020018280546128d0906149f9565b801561291d5780601f106128f25761010080835404028352916020019161291d565b820191906000526020600020905b81548152906001019060200180831161290057829003601f168201915b50505050508152602001600582018054612936906149f9565b80601f0160208091040260200160405190810160405280929190818152602001828054612962906149f9565b80156129af5780601f10612984576101008083540402835291602001916129af565b820191906000526020600020905b81548152906001019060200180831161299257829003601f168201915b505050505081525050905082565b7f000000000000000000000000000000000000000000000000000000000000000081565b60606000339050600060405180602001604052806000815250905060008060008473ffffffffffffffffffffffffffffffffffffffff1673ffffffffffffffffffffffffffffffffffffffff168152602001908152602001600020600001600d016000018054612a50906149f9565b90501115612ac1576000808373ffffffffffffffffffffffffffffffffffffffff1673ffffffffffffffffffffffffffffffffffffffff168152602001908152602001600020600001600d01600001604051602001612aaf9190615422565b60405160208183030381529060405290505b7f000000000000000000000000000000000000000000000000000000000000000073ffffffffffffffffffffffffffffffffffffffff1663d01fde8c6000808573ffffffffffffffffffffffffffffffffffffffff1673ffffffffffffffffffffffffffffffffffffffff1681526020019081526020016000206013016000016000808673ffffffffffffffffffffffffffffffffffffffff1673ffffffffffffffffffffffffffffffffffffffff16815260200190815260200160002060130160010184604051602001612b989392919061556f565b6040516020818303038152906040526040518263ffffffff1660e01b8152600401612bc3919061560b565b60006040518083038186803b158015612bdb57600080fd5b505afa158015612bef573d6000803e3d6000fd5b505050506040513d6000823e3d601f19601f82011682018060405250810190612c189190614a5b565b9250505090565b828054612c2b906149f9565b90600052602060002090601f016020900481019282612c4d5760008555612c94565b82601f10612c6657805160ff1916838001178555612c94565b82800160010185558215612c94579182015b82811115612c93578251825591602001919060010190612c78565b5b509050612ca19190612d29565b5090565b828054828255906000526020600020908101928215612cf4579160200282015b82811115612cf3578251829080519060200190612ce3929190612c1f565b5091602001919060010190612cc5565b5b509050612d019190612d46565b5090565b5080546000825560020290600052602060002090810190612d269190612d6a565b50565b5b80821115612d42576000816000905550600101612d2a565b5090565b5b80821115612d665760008181612d5d9190612da1565b50600101612d47565b5090565b5b80821115612d9d5760008082016000612d849190612da1565b600182016000612d949190612da1565b50600201612d6b565b5090565b508054612dad906149f9565b6000825580601f10612dbf5750612dde565b601f016020900490600052602060002090810190612ddd9190612d29565b5b50565b6000604051905090565b600080fd5b600080fd5b600073ffffffffffffffffffffffffffffffffffffffff82169050919050565b6000612e2082612df5565b9050919050565b612e3081612e15565b8114612e3b57600080fd5b50565b600081359050612e4d81612e27565b92915050565b600080fd5b6000601f19601f8301169050919050565b7f4e487b7100000000000000000000000000000000000000000000000000000000600052604160045260246000fd5b612ea182612e58565b810181811067ffffffffffffffff82111715612ec057612ebf612e69565b5b80604052505050565b6000612ed3612de1565b9050612edf8282612e98565b919050565b600080fd5b600080fd5b600080fd5b600067ffffffffffffffff821115612f0e57612f0d612e69565b5b612f1782612e58565b9050602081019050919050565b82818337600083830152505050565b6000612f46612f4184612ef3565b612ec9565b905082815260208101848484011115612f6257612f61612eee565b5b612f6d848285612f24565b509392505050565b600082601f830112612f8a57612f89612ee9565b5b8135612f9a848260208601612f33565b91505092915050565b6000819050919050565b612fb681612fa3565b8114612fc157600080fd5b50565b600081359050612fd381612fad565b92915050565b600060a08284031215612fef57612fee612e53565b5b612ff960a0612ec9565b9050600082013567ffffffffffffffff81111561301957613018612ee4565b5b61302584828501612f75565b600083015250602061303984828501612fc4565b602083015250604061304d84828501612fc4565b604083015250606082013567ffffffffffffffff81111561307157613070612ee4565b5b61307d84828501612f75565b606083015250608061309184828501612fc4565b60808301525092915050565b6000608082840312156130b3576130b2612e53565b5b6130bd6080612ec9565b9050600082013567ffffffffffffffff8111156130dd576130dc612ee4565b5b6130e984828501612f75565b600083015250602082013567ffffffffffffffff81111561310d5761310c612ee4565b5b61311984828501612f75565b602083015250604082013567ffffffffffffffff81111561313d5761313c612ee4565b5b61314984828501612f75565b604083015250606082013567ffffffffffffffff81111561316d5761316c612ee4565b5b61317984828501612f75565b60608301525092915050565b60006060828403121561319b5761319a612e53565b5b6131a56060612ec9565b9050600082013567ffffffffffffffff8111156131c5576131c4612ee4565b5b6131d184828501612f75565b600083015250602082013567ffffffffffffffff8111156131f5576131f4612ee4565b5b61320184828501612fd9565b602083015250604082013567ffffffffffffffff81111561322557613224612ee4565b5b6132318482850161309d565b60408301525092915050565b60006040828403121561325357613252612e53565b5b61325d6040612ec9565b9050600082013567ffffffffffffffff81111561327d5761327c612ee4565b5b61328984828501612f75565b600083015250602082013567ffffffffffffffff8111156132ad576132ac612ee4565b5b6132b984828501612f75565b60208301525092915050565b6000606082840312156132db576132da612e53565b5b6132e56060612ec9565b9050600082013567ffffffffffffffff81111561330557613304612ee4565b5b61331184828501612f75565b600083015250602082013567ffffffffffffffff81111561333557613334612ee4565b5b61334184828501613185565b602083015250604082013567ffffffffffffffff81111561336557613364612ee4565b5b6133718482850161323d565b60408301525092915050565b60006060828403121561339357613392612e53565b5b61339d6060612ec9565b9050600082013567ffffffffffffffff8111156133bd576133bc612ee4565b5b6133c984828501612f75565b600083015250602082013567ffffffffffffffff8111156133ed576133ec612ee4565b5b6133f984828501612f75565b602083015250604082013567ffffffffffffffff81111561341d5761341c612ee4565b5b61342984828501612f75565b60408301525092915050565b60006060828403121561344b5761344a612e53565b5b6134556060612ec9565b9050600082013567ffffffffffffffff81111561347557613474612ee4565b5b613481848285016132c5565b600083015250602082013567ffffffffffffffff8111156134a5576134a4612ee4565b5b6134b18482850161337d565b602083015250604082013567ffffffffffffffff8111156134d5576134d4612ee4565b5b6134e18482850161337d565b60408301525092915050565b600060c0828403121561350357613502612e53565b5b61350d60c0612ec9565b9050600082013567ffffffffffffffff81111561352d5761352c612ee4565b5b61353984828501612f75565b600083015250602082013567ffffffffffffffff81111561355d5761355c612ee4565b5b61356984828501612f75565b602083015250604082013567ffffffffffffffff81111561358d5761358c612ee4565b5b61359984828501612f75565b604083015250606082013567ffffffffffffffff8111156135bd576135bc612ee4565b5b6135c984828501612f75565b606083015250608082013567ffffffffffffffff8111156135ed576135ec612ee4565b5b6135f984828501612f75565b60808301525060a082013567ffffffffffffffff81111561361d5761361c612ee4565b5b61362984828501612f75565b60a08301525092915050565b60006040828403121561364b5761364a612e53565b5b6136556040612ec9565b9050600082013567ffffffffffffffff81111561367557613674612ee4565b5b61368184828501613435565b600083015250602082013567ffffffffffffffff8111156136a5576136a4612ee4565b5b6136b1848285016134ed565b60208301525092915050565b6000608082840312156136d3576136d2612e53565b5b6136dd6080612ec9565b9050600082013567ffffffffffffffff8111156136fd576136fc612ee4565b5b613709848285016134ed565b600083015250602082013567ffffffffffffffff81111561372d5761372c612ee4565b5b6137398482850161337d565b602083015250604082013567ffffffffffffffff81111561375d5761375c612ee4565b5b61376984828501612f75565b604083015250606082013567ffffffffffffffff81111561378d5761378c612ee4565b5b61379984828501612f75565b60608301525092915050565b600067ffffffffffffffff8211156137c0576137bf612e69565b5b602082029050602081019050919050565b600080fd5b60006137e96137e4846137a5565b612ec9565b9050808382526020820190506020840283018581111561380c5761380b6137d1565b5b835b8181101561385357803567ffffffffffffffff81111561383157613830612ee9565b5b80860161383e8982612f75565b8552602085019450505060208101905061380e565b5050509392505050565b600082601f83011261387257613871612ee9565b5b81356138828482602086016137d6565b91505092915050565b600080fd5b60008083601f8401126138a6576138a5612ee9565b5b8235905067ffffffffffffffff8111156138c3576138c261388b565b5b6020830191508360208202830111156138df576138de6137d1565b5b9250929050565b60008060008060008060a0878903121561390357613902612deb565b5b600061391189828a01612e3e565b965050602087013567ffffffffffffffff81111561393257613931612df0565b5b61393e89828a01613635565b955050604087013567ffffffffffffffff81111561395f5761395e612df0565b5b61396b89828a016136bd565b945050606087013567ffffffffffffffff81111561398c5761398b612df0565b5b61399889828a0161385d565b935050608087013567ffffffffffffffff8111156139b9576139b8612df0565b5b6139c589828a01613890565b92509250509295509295509295565b6000806000606084860312156139ed576139ec612deb565b5b60006139fb86828701612e3e565b935050602084013567ffffffffffffffff811115613a1c57613a1b612df0565b5b613a2886828701612f75565b925050604084013567ffffffffffffffff811115613a4957613a48612df0565b5b613a5586828701612f75565b9150509250925092565b600067ffffffffffffffff821115613a7a57613a79612e69565b5b613a8382612e58565b9050602081019050919050565b6000613aa3613a9e84613a5f565b612ec9565b905082815260208101848484011115613abf57613abe612eee565b5b613aca848285612f24565b509392505050565b600082601f830112613ae757613ae6612ee9565b5b8135613af7848260208601613a90565b91505092915050565b600060208284031215613b1657613b15612deb565b5b600082013567ffffffffffffffff811115613b3457613b33612df0565b5b613b4084828501613ad2565b91505092915050565b60008060408385031215613b6057613b5f612deb565b5b6000613b6e85828601612e3e565b925050602083013567ffffffffffffffff811115613b8f57613b8e612df0565b5b613b9b85828601612f75565b9150509250929050565b600060208284031215613bbb57613bba612deb565b5b6000613bc984828501612e3e565b91505092915050565b600081519050919050565b600082825260208201905092915050565b60005b83811015613c0c578082015181840152602081019050613bf1565b83811115613c1b576000848401525b50505050565b6000613c2c82613bd2565b613c368185613bdd565b9350613c46818560208601613bee565b613c4f81612e58565b840191505092915050565b600060c0830160008301518482036000860152613c778282613c21565b91505060208301518482036020860152613c918282613c21565b91505060408301518482036040860152613cab8282613c21565b91505060608301518482036060860152613cc58282613c21565b91505060808301518482036080860152613cdf8282613c21565b91505060a083015184820360a0860152613cf98282613c21565b9150508091505092915050565b60006060830160008301518482036000860152613d238282613c21565b91505060208301518482036020860152613d3d8282613c21565b91505060408301518482036040860152613d578282613c21565b9150508091505092915050565b600082825260208201905092915050565b6000613d8082613bd2565b613d8a8185613d64565b9350613d9a818560208601613bee565b613da381612e58565b840191505092915050565b60006080820190508181036000830152613dc88187613c5a565b90508181036020830152613ddc8186613d06565b90508181036040830152613df08185613d75565b90508181036060830152613e048184613d75565b905095945050505050565b60008060408385031215613e2657613e25612deb565b5b6000613e3485828601612e3e565b925050602083013567ffffffffffffffff811115613e5557613e54612df0565b5b613e618582860161385d565b9150509250929050565b60008060408385031215613e8257613e81612deb565b5b6000613e9085828601612fc4565b9250506020613ea185828601612e3e565b9150509250929050565b60006020820190508181036000830152613ec58184613d75565b905092915050565b600060208284031215613ee357613ee2612deb565b5b6000613ef184828501612fc4565b91505092915050565b600080600060408486031215613f1357613f12612deb565b5b6000613f2186828701612e3e565b935050602084013567ffffffffffffffff811115613f4257613f41612df0565b5b613f4e86828701613890565b92509250509250925092565b613f6381612fa3565b82525050565b600060a0830160008301518482036000860152613f868282613c21565b9150506020830151613f9b6020860182613f5a565b506040830151613fae6040860182613f5a565b5060608301518482036060860152613fc68282613c21565b9150506080830151613fdb6080860182613f5a565b508091505092915050565b600060808301600083015184820360008601526140038282613c21565b9150506020830151848203602086015261401d8282613c21565b915050604083015184820360408601526140378282613c21565b915050606083015184820360608601526140518282613c21565b9150508091505092915050565b6000606083016000830151848203600086015261407b8282613c21565b915050602083015184820360208601526140958282613f69565b915050604083015184820360408601526140af8282613fe6565b9150508091505092915050565b600060408301600083015184820360008601526140d98282613c21565b915050602083015184820360208601526140f38282613c21565b9150508091505092915050565b6000606083016000830151848203600086015261411d8282613c21565b91505060208301518482036020860152614137828261405e565b9150506040830151848203604086015261415182826140bc565b9150508091505092915050565b6000606083016000830151848203600086015261417b8282613c21565b915050602083015184820360208601526141958282613c21565b915050604083015184820360408601526141af8282613c21565b9150508091505092915050565b600060608301600083015184820360008601526141d98282614100565b915050602083015184820360208601526141f3828261415e565b9150506040830151848203604086015261420d828261415e565b9150508091505092915050565b6000604082019050818103600083015261423481856141bc565b905081810360208301526142488184613c5a565b90509392505050565b6000819050919050565b600061427661427161426c84612df5565b614251565b612df5565b9050919050565b60006142888261425b565b9050919050565b600061429a8261427d565b9050919050565b6142aa8161428f565b82525050565b60006020820190506142c560008301846142a1565b92915050565b6000815190506142da81612e27565b92915050565b6000602082840312156142f6576142f5612deb565b5b6000614304848285016142cb565b91505092915050565b61431681612e15565b82525050565b600060608301600083015184820360008601526143398282614100565b91505060208301518482036020860152614353828261415e565b9150506040830151848203604086015261436d828261415e565b9150508091505092915050565b600060c08301600083015184820360008601526143978282613c21565b915050602083015184820360208601526143b18282613c21565b915050604083015184820360408601526143cb8282613c21565b915050606083015184820360608601526143e58282613c21565b915050608083015184820360808601526143ff8282613c21565b91505060a083015184820360a08601526144198282613c21565b9150508091505092915050565b60006040830160008301518482036000860152614443828261431c565b9150506020830151848203602086015261445d828261437a565b9150508091505092915050565b60006080830160008301518482036000860152614487828261437a565b915050602083015184820360208601526144a1828261415e565b915050604083015184820360408601526144bb8282613c21565b915050606083015184820360608601526144d58282613c21565b9150508091505092915050565b600081519050919050565b600082825260208201905092915050565b6000819050602082019050919050565b600061451a8383613c21565b905092915050565b6000602082019050919050565b600061453a826144e2565b61454481856144ed565b935083602082028501614556856144fe565b8060005b858110156145925784840389528151614573858261450e565b945061457e83614522565b925060208a0199505060018101905061455a565b50829750879550505050505092915050565b600082825260208201905092915050565b6000819050919050565b600080fd5b600080fd5b600080fd5b600080833560016020038436030381126145eb576145ea6145c9565b5b83810192508235915060208301925067ffffffffffffffff821115614613576146126145bf565b5b600182023603841315614629576146286145c4565b5b509250929050565b600061463d8385613bdd565b935061464a838584612f24565b61465383612e58565b840190509392505050565b60006040830161467160008401846145ce565b8583036000870152614684838284614631565b9250505061469560208401846145ce565b85830360208701526146a8838284614631565b925050508091505092915050565b60006146c2838361465e565b905092915050565b6000823560016040038336030381126146e6576146e56145c9565b5b82810191505092915050565b6000602082019050919050565b600061470b83856145a4565b93508360208402850161471d846145b5565b8060005b8781101561476157848403895261473882846146ca565b61474285826146b6565b945061474d836146f2565b925060208a01995050600181019050614721565b50829750879450505050509392505050565b600060c082019050614788600083018a61430d565b614795602083018961430d565b81810360408301526147a78188614426565b905081810360608301526147bb818761446a565b905081810360808301526147cf818661452f565b905081810360a08301526147e48184866146ff565b905098975050505050505050565b6000606082019050614807600083018661430d565b81810360208301526148198185613d75565b9050818103604083015261482d8184613d75565b9050949350505050565b600061484a61484584612ef3565b612ec9565b90508281526020810184848401111561486657614865612eee565b5b614871848285613bee565b509392505050565b600082601f83011261488e5761488d612ee9565b5b815161489e848260208601614837565b91505092915050565b6000806000606084860312156148c0576148bf612deb565b5b600084015167ffffffffffffffff8111156148de576148dd612df0565b5b6148ea86828701614879565b935050602084015167ffffffffffffffff81111561490b5761490a612df0565b5b61491786828701614879565b925050604084015167ffffffffffffffff81111561493857614937612df0565b5b61494486828701614879565b9150509250925092565b600060608201905081810360008301526149688186613d75565b9050818103602083015261497c8185613d75565b905081810360408301526149908184613d75565b9050949350505050565b60006040820190506149af600083018561430d565b81810360208301526149c18184613d75565b90509392505050565b7f4e487b7100000000000000000000000000000000000000000000000000000000600052602260045260246000fd5b60006002820490506001821680614a1157607f821691505b60208210811415614a2557614a246149ca565b5b50919050565b6000604082019050614a40600083018561430d565b8181036020830152614a52818461452f565b90509392505050565b600060208284031215614a7157614a70612deb565b5b600082015167ffffffffffffffff811115614a8f57614a8e612df0565b5b614a9b84828501614879565b91505092915050565b614aad81612fa3565b82525050565b60008190508160005260206000209050919050565b60008154614ad5816149f9565b614adf8186613bdd565b94506001821660008114614afa5760018114614b0c57614b3f565b60ff1983168652602086019350614b3f565b614b1585614ab3565b60005b83811015614b3757815481890152600182019150602081019050614b18565b808801955050505b50505092915050565b60008160001c9050919050565b6000819050919050565b6000614b72614b6d83614b48565b614b55565b9050919050565b600060a0830160008084018583036000870152614b968382614ac8565b92505060018401549050614ba981614b5f565b614bb66020870182613f5a565b5060028401549050614bc781614b5f565b614bd46040870182613f5a565b50600384018583036060870152614beb8382614ac8565b92505060048401549050614bfe81614b5f565b614c0b6080870182613f5a565b50819250505092915050565b60006080830160008084018583036000870152614c348382614ac8565b925050600184018583036020870152614c4d8382614ac8565b925050600284018583036040870152614c668382614ac8565b925050600384018583036060870152614c7f8382614ac8565b925050819250505092915050565b60006060830160008084018583036000870152614caa8382614ac8565b925050600184018583036020870152614cc38382614b79565b925050600684018583036040870152614cdc8382614c17565b925050819250505092915050565b60006040830160008084018583036000870152614d078382614ac8565b925050600184018583036020870152614d208382614ac8565b925050819250505092915050565b60006060830160008084018583036000870152614d4b8382614ac8565b925050600184018583036020870152614d648382614c8d565b925050600b84018583036040870152614d7d8382614cea565b925050819250505092915050565b60006060830160008084018583036000870152614da88382614ac8565b925050600184018583036020870152614dc18382614ac8565b925050600284018583036040870152614dda8382614ac8565b925050819250505092915050565b60006060830160008084018583036000870152614e058382614d2e565b925050600d84018583036020870152614e1e8382614d8b565b925050601084018583036040870152614e378382614d8b565b925050819250505092915050565b600060c0830160008084018583036000870152614e628382614ac8565b925050600184018583036020870152614e7b8382614ac8565b925050600284018583036040870152614e948382614ac8565b925050600384018583036060870152614ead8382614ac8565b925050600484018583036080870152614ec68382614ac8565b9250506005840185830360a0870152614edf8382614ac8565b925050819250505092915050565b60006040830160008084018583036000870152614f0a8382614de8565b925050601384018583036020870152614f238382614e45565b925050819250505092915050565b60006080830160008084018583036000870152614f4e8382614e45565b925050600684018583036020870152614f678382614d8b565b925050600984018583036040870152614f808382614ac8565b925050600a84018583036060870152614f998382614ac8565b925050819250505092915050565b600081549050919050565b60008190508160005260206000209050919050565b60006040830160008084018583036000870152614fe48382614ac8565b925050600184018583036020870152614ffd8382614ac8565b925050819250505092915050565b60006150178383614fc7565b905092915050565b6000600282019050919050565b600061503782614fa7565b61504181856145a4565b93508360208202850161505385614fb2565b8060005b8581101561508e5784840389528161506f858261500b565b945061507a8361501f565b925060208a01995050600181019050615057565b50829750879550505050505092915050565b600081549050919050565b60008190508160005260206000209050919050565b60006150cc8383614ac8565b905092915050565b6000600182019050919050565b60006150ec826150a0565b6150f681856144ed565b935083602082028501615108856150ab565b8060005b858110156151435784840389528161512485826150c0565b945061512f836150d4565b925060208a0199505060018101905061510c565b50829750879550505050505092915050565b600060c082019050818103600083015261516f8189613d75565b905061517e6020830188614aa4565b81810360408301526151908187614eed565b905081810360608301526151a48186614f31565b905081810360808301526151b8818561502c565b905081810360a08301526151cc81846150e1565b9050979650505050505050565b7f4e487b7100000000000000000000000000000000000000000000000000000000600052603260045260246000fd5b600080fd5b600080fd5b600080fd5b60008235600160400383360303811261523357615232615208565b5b80830191505092915050565b6000808335600160200384360303811261525c5761525b615208565b5b80840192508235915067ffffffffffffffff82111561527e5761527d61520d565b5b60208301925060018202360383131561529a57615299615212565b5b509250929050565b7f4e487b7100000000000000000000000000000000000000000000000000000000600052601160045260246000fd5b60006152dc82612fa3565b91507fffffffffffffffffffffffffffffffffffffffffffffffffffffffffffffffff82141561530f5761530e6152a2565b5b600182019050919050565b600060408201905061532f600083018661430d565b81810360208301526153428184866146ff565b9050949350505050565b600081905092915050565b7f222c2022696d616765223a202200000000000000000000000000000000000000600082015250565b600061538d600d8361534c565b915061539882615357565b600d82019050919050565b600081546153b0816149f9565b6153ba818661534c565b945060018216600081146153d557600181146153e657615419565b60ff19831686528186019350615419565b6153ef85614ab3565b60005b83811015615411578154818901526001820191506020810190506153f2565b838801955050505b50505092915050565b600061542d82615380565b915061543982846153a3565b915081905092915050565b7f7b226e616d65223a202200000000000000000000000000000000000000000000600082015250565b600061547a600a8361534c565b915061548582615444565b600a82019050919050565b7f222c20226465736372697074696f6e223a202200000000000000000000000000600082015250565b60006154c660138361534c565b91506154d182615490565b601382019050919050565b600081519050919050565b600081905092915050565b60006154fd826154dc565b61550781856154e7565b9350615517818560208601613bee565b80840191505092915050565b7f227d000000000000000000000000000000000000000000000000000000000000600082015250565b600061555960028361534c565b915061556482615523565b600282019050919050565b600061557a8261546d565b915061558682866153a3565b9150615591826154b9565b915061559d82856153a3565b91506155a982846154f2565b91506155b48261554c565b9150819050949350505050565b600082825260208201905092915050565b60006155dd826154dc565b6155e781856155c1565b93506155f7818560208601613bee565b61560081612e58565b840191505092915050565b6000602082019050818103600083015261562581846155d2565b90509291505056fea2646970667358221220acd5985cd27578c7be303012dd2093a78ae5e104600f0c29beed3b4b6035a66c64736f6c63430008090033",
  "linkReferences": {},
  "deployedLinkReferences": {}
}