{
  "_format": "hh-sol-artifact-1",
  "contractName": "DCNTSDK",
  "sourceName": "contracts/DCNTSDK.sol",
  "abi": [
    {
      "inputs": [
        {
          "internalType": "address",
          "name": "_DCNT721AImplementation",
          "type": "address"
        },
        {
          "internalType": "address",
          "name": "_DCNT4907AImplementation",
          "type": "address"
        },
        {
          "internalType": "address",
          "name": "_DCNTSeriesImplementation",
          "type": "address"
        },
        {
          "internalType": "address",
          "name": "_DCNTCrescendoImplementation",
          "type": "address"
        },
        {
          "internalType": "address",
          "name": "_DCNTVaultImplementation",
          "type": "address"
        },
        {
          "internalType": "address",
          "name": "_DCNTStakingImplementation",
          "type": "address"
        },
        {
          "internalType": "address",
          "name": "_metadataRenderer",
          "type": "address"
        },
        {
          "internalType": "address",
          "name": "_contractRegistry",
          "type": "address"
        },
        {
          "internalType": "address",
          "name": "_ZKEditionImplementation",
          "type": "address"
        }
      ],
      "stateMutability": "nonpayable",
      "type": "constructor"
    },
    {
      "anonymous": false,
      "inputs": [
        {
          "indexed": false,
          "internalType": "address",
          "name": "DCNT4907A",
          "type": "address"
        }
      ],
      "name": "DeployDCNT4907A",
      "type": "event"
    },
    {
      "anonymous": false,
      "inputs": [
        {
          "indexed": false,
          "internalType": "address",
          "name": "DCNT721A",
          "type": "address"
        }
      ],
      "name": "DeployDCNT721A",
      "type": "event"
    },
    {
      "anonymous": false,
      "inputs": [
        {
          "indexed": false,
          "internalType": "address",
          "name": "DCNTCrescendo",
          "type": "address"
        }
      ],
      "name": "DeployDCNTCrescendo",
      "type": "event"
    },
    {
      "anonymous": false,
      "inputs": [
        {
          "indexed": false,
          "internalType": "address",
          "name": "DCNTSeries",
          "type": "address"
        }
      ],
      "name": "DeployDCNTSeries",
      "type": "event"
    },
    {
      "anonymous": false,
      "inputs": [
        {
          "indexed": false,
          "internalType": "address",
          "name": "DCNTStaking",
          "type": "address"
        }
      ],
      "name": "DeployDCNTStaking",
      "type": "event"
    },
    {
      "anonymous": false,
      "inputs": [
        {
          "indexed": false,
          "internalType": "address",
          "name": "DCNTVault",
          "type": "address"
        }
      ],
      "name": "DeployDCNTVault",
      "type": "event"
    },
    {
      "anonymous": false,
      "inputs": [
        {
          "indexed": false,
          "internalType": "address",
          "name": "ZKEdition",
          "type": "address"
        }
      ],
      "name": "DeployZKEdition",
      "type": "event"
    },
    {
      "anonymous": false,
      "inputs": [
        {
          "indexed": true,
          "internalType": "address",
          "name": "previousOwner",
          "type": "address"
        },
        {
          "indexed": true,
          "internalType": "address",
          "name": "newOwner",
          "type": "address"
        }
      ],
      "name": "OwnershipTransferred",
      "type": "event"
    },
    {
      "inputs": [],
      "name": "DCNT4907AImplementation",
      "outputs": [
        {
          "internalType": "address",
          "name": "",
          "type": "address"
        }
      ],
      "stateMutability": "view",
      "type": "function"
    },
    {
      "inputs": [],
      "name": "DCNT721AImplementation",
      "outputs": [
        {
          "internalType": "address",
          "name": "",
          "type": "address"
        }
      ],
      "stateMutability": "view",
      "type": "function"
    },
    {
      "inputs": [],
      "name": "DCNTCrescendoImplementation",
      "outputs": [
        {
          "internalType": "address",
          "name": "",
          "type": "address"
        }
      ],
      "stateMutability": "view",
      "type": "function"
    },
    {
      "inputs": [],
      "name": "DCNTSeriesImplementation",
      "outputs": [
        {
          "internalType": "address",
          "name": "",
          "type": "address"
        }
      ],
      "stateMutability": "view",
      "type": "function"
    },
    {
      "inputs": [],
      "name": "DCNTStakingImplementation",
      "outputs": [
        {
          "internalType": "address",
          "name": "",
          "type": "address"
        }
      ],
      "stateMutability": "view",
      "type": "function"
    },
    {
      "inputs": [],
      "name": "DCNTVaultImplementation",
      "outputs": [
        {
          "internalType": "address",
          "name": "",
          "type": "address"
        }
      ],
      "stateMutability": "view",
      "type": "function"
    },
    {
      "inputs": [],
      "name": "ZKEditionImplementation",
      "outputs": [
        {
          "internalType": "address",
          "name": "",
          "type": "address"
        }
      ],
      "stateMutability": "view",
      "type": "function"
    },
    {
      "inputs": [],
      "name": "contractRegistry",
      "outputs": [
        {
          "internalType": "address",
          "name": "",
          "type": "address"
        }
      ],
      "stateMutability": "view",
      "type": "function"
    },
    {
      "inputs": [
        {
          "components": [
            {
              "internalType": "string",
              "name": "name",
              "type": "string"
            },
            {
              "internalType": "string",
              "name": "symbol",
              "type": "string"
            },
            {
              "internalType": "bool",
              "name": "hasAdjustableCap",
              "type": "bool"
            },
            {
              "internalType": "bool",
              "name": "isSoulbound",
              "type": "bool"
            },
            {
              "internalType": "uint32",
              "name": "maxTokens",
              "type": "uint32"
            },
            {
              "internalType": "uint32",
              "name": "maxTokenPurchase",
              "type": "uint32"
            },
            {
              "internalType": "uint32",
              "name": "presaleStart",
              "type": "uint32"
            },
            {
              "internalType": "uint32",
              "name": "presaleEnd",
              "type": "uint32"
            },
            {
              "internalType": "uint32",
              "name": "saleStart",
              "type": "uint32"
            },
            {
              "internalType": "uint32",
              "name": "saleEnd",
              "type": "uint32"
            },
            {
              "internalType": "uint16",
              "name": "royaltyBPS",
              "type": "uint16"
            },
            {
              "internalType": "uint96",
              "name": "tokenPrice",
              "type": "uint96"
            },
            {
              "internalType": "address",
              "name": "payoutAddress",
              "type": "address"
            },
            {
              "internalType": "bytes32",
              "name": "presaleMerkleRoot",
              "type": "bytes32"
            }
          ],
          "internalType": "struct EditionConfig",
          "name": "_editionConfig",
          "type": "tuple"
        },
        {
          "components": [
            {
              "internalType": "string",
              "name": "contractURI",
              "type": "string"
            },
            {
              "internalType": "string",
              "name": "metadataURI",
              "type": "string"
            },
            {
              "internalType": "bytes",
              "name": "metadataRendererInit",
              "type": "bytes"
            },
            {
              "internalType": "address",
              "name": "parentIP",
              "type": "address"
            }
          ],
          "internalType": "struct MetadataConfig",
          "name": "_metadataConfig",
          "type": "tuple"
        },
        {
          "components": [
            {
              "internalType": "address",
              "name": "tokenAddress",
              "type": "address"
            },
            {
              "internalType": "uint88",
              "name": "minBalance",
              "type": "uint88"
            },
            {
              "internalType": "enum SaleType",
              "name": "saleType",
              "type": "uint8"
            }
          ],
          "internalType": "struct TokenGateConfig",
          "name": "_tokenGateConfig",
          "type": "tuple"
        }
      ],
      "name": "deployDCNT4907A",
      "outputs": [
        {
          "internalType": "address",
          "name": "clone",
          "type": "address"
        }
      ],
      "stateMutability": "nonpayable",
      "type": "function"
    },
    {
      "inputs": [
        {
          "components": [
            {
              "internalType": "string",
              "name": "name",
              "type": "string"
            },
            {
              "internalType": "string",
              "name": "symbol",
              "type": "string"
            },
            {
              "internalType": "bool",
              "name": "hasAdjustableCap",
              "type": "bool"
            },
            {
              "internalType": "bool",
              "name": "isSoulbound",
              "type": "bool"
            },
            {
              "internalType": "uint32",
              "name": "maxTokens",
              "type": "uint32"
            },
            {
              "internalType": "uint32",
              "name": "maxTokenPurchase",
              "type": "uint32"
            },
            {
              "internalType": "uint32",
              "name": "presaleStart",
              "type": "uint32"
            },
            {
              "internalType": "uint32",
              "name": "presaleEnd",
              "type": "uint32"
            },
            {
              "internalType": "uint32",
              "name": "saleStart",
              "type": "uint32"
            },
            {
              "internalType": "uint32",
              "name": "saleEnd",
              "type": "uint32"
            },
            {
              "internalType": "uint16",
              "name": "royaltyBPS",
              "type": "uint16"
            },
            {
              "internalType": "uint96",
              "name": "tokenPrice",
              "type": "uint96"
            },
            {
              "internalType": "address",
              "name": "payoutAddress",
              "type": "address"
            },
            {
              "internalType": "bytes32",
              "name": "presaleMerkleRoot",
              "type": "bytes32"
            }
          ],
          "internalType": "struct EditionConfig",
          "name": "_editionConfig",
          "type": "tuple"
        },
        {
          "components": [
            {
              "internalType": "string",
              "name": "contractURI",
              "type": "string"
            },
            {
              "internalType": "string",
              "name": "metadataURI",
              "type": "string"
            },
            {
              "internalType": "bytes",
              "name": "metadataRendererInit",
              "type": "bytes"
            },
            {
              "internalType": "address",
              "name": "parentIP",
              "type": "address"
            }
          ],
          "internalType": "struct MetadataConfig",
          "name": "_metadataConfig",
          "type": "tuple"
        },
        {
          "components": [
            {
              "internalType": "address",
              "name": "tokenAddress",
              "type": "address"
            },
            {
              "internalType": "uint88",
              "name": "minBalance",
              "type": "uint88"
            },
            {
              "internalType": "enum SaleType",
              "name": "saleType",
              "type": "uint8"
            }
          ],
          "internalType": "struct TokenGateConfig",
          "name": "_tokenGateConfig",
          "type": "tuple"
        }
      ],
      "name": "deployDCNT721A",
      "outputs": [
        {
          "internalType": "address",
          "name": "clone",
          "type": "address"
        }
      ],
      "stateMutability": "nonpayable",
      "type": "function"
    },
    {
      "inputs": [
        {
          "components": [
            {
              "internalType": "string",
              "name": "name",
              "type": "string"
            },
            {
              "internalType": "string",
              "name": "symbol",
              "type": "string"
            },
            {
              "internalType": "uint256",
              "name": "initialPrice",
              "type": "uint256"
            },
            {
              "internalType": "uint256",
              "name": "step1",
              "type": "uint256"
            },
            {
              "internalType": "uint256",
              "name": "step2",
              "type": "uint256"
            },
            {
              "internalType": "uint256",
              "name": "hitch",
              "type": "uint256"
            },
            {
              "internalType": "uint256",
              "name": "takeRateBPS",
              "type": "uint256"
            },
            {
              "internalType": "uint256",
              "name": "unlockDate",
              "type": "uint256"
            },
            {
              "internalType": "uint256",
              "name": "saleStart",
              "type": "uint256"
            },
            {
              "internalType": "uint256",
              "name": "royaltyBPS",
              "type": "uint256"
            }
          ],
          "internalType": "struct CrescendoConfig",
          "name": "_config",
          "type": "tuple"
        },
        {
          "components": [
            {
              "internalType": "string",
              "name": "contractURI",
              "type": "string"
            },
            {
              "internalType": "string",
              "name": "metadataURI",
              "type": "string"
            },
            {
              "internalType": "bytes",
              "name": "metadataRendererInit",
              "type": "bytes"
            },
            {
              "internalType": "address",
              "name": "parentIP",
              "type": "address"
            }
          ],
          "internalType": "struct MetadataConfig",
          "name": "_metadataConfig",
          "type": "tuple"
        }
      ],
      "name": "deployDCNTCrescendo",
      "outputs": [
        {
          "internalType": "address",
          "name": "clone",
          "type": "address"
        }
      ],
      "stateMutability": "nonpayable",
      "type": "function"
    },
    {
      "inputs": [
        {
          "components": [
            {
              "internalType": "string",
              "name": "name",
              "type": "string"
            },
            {
              "internalType": "string",
              "name": "symbol",
              "type": "string"
            },
            {
              "internalType": "string",
              "name": "contractURI",
              "type": "string"
            },
            {
              "internalType": "string",
              "name": "metadataURI",
              "type": "string"
            },
            {
              "internalType": "uint128",
              "name": "startTokenId",
              "type": "uint128"
            },
            {
              "internalType": "uint128",
              "name": "endTokenId",
              "type": "uint128"
            },
            {
              "internalType": "uint16",
              "name": "royaltyBPS",
              "type": "uint16"
            },
            {
              "internalType": "address",
              "name": "feeManager",
              "type": "address"
            },
            {
              "internalType": "address",
              "name": "payoutAddress",
              "type": "address"
            },
            {
              "internalType": "address",
              "name": "currencyOracle",
              "type": "address"
            },
            {
              "internalType": "bool",
              "name": "isSoulbound",
              "type": "bool"
            },
            {
              "internalType": "bool",
              "name": "hasAdjustableCaps",
              "type": "bool"
            }
          ],
          "internalType": "struct IDCNTSeries.SeriesConfig",
          "name": "_config",
          "type": "tuple"
        },
        {
          "components": [
            {
              "internalType": "uint32",
              "name": "maxTokens",
              "type": "uint32"
            },
            {
              "internalType": "uint32",
              "name": "maxTokensPerOwner",
              "type": "uint32"
            },
            {
              "internalType": "uint32",
              "name": "presaleStart",
              "type": "uint32"
            },
            {
              "internalType": "uint32",
              "name": "presaleEnd",
              "type": "uint32"
            },
            {
              "internalType": "uint32",
              "name": "saleStart",
              "type": "uint32"
            },
            {
              "internalType": "uint32",
              "name": "saleEnd",
              "type": "uint32"
            },
            {
              "internalType": "uint96",
              "name": "tokenPrice",
              "type": "uint96"
            },
            {
              "internalType": "bytes32",
              "name": "presaleMerkleRoot",
              "type": "bytes32"
            },
            {
              "components": [
                {
                  "internalType": "address",
                  "name": "tokenAddress",
                  "type": "address"
                },
                {
                  "internalType": "uint88",
                  "name": "minBalance",
                  "type": "uint88"
                },
                {
                  "internalType": "enum SaleType",
                  "name": "saleType",
                  "type": "uint8"
                }
              ],
              "internalType": "struct TokenGateConfig",
              "name": "tokenGate",
              "type": "tuple"
            }
          ],
          "internalType": "struct IDCNTSeries.Drop",
          "name": "_defaultDrop",
          "type": "tuple"
        },
        {
          "components": [
            {
              "internalType": "uint256[]",
              "name": "tokenIds",
              "type": "uint256[]"
            },
            {
              "internalType": "uint256[]",
              "name": "tokenIdDropIds",
              "type": "uint256[]"
            },
            {
              "internalType": "uint256[]",
              "name": "dropIds",
              "type": "uint256[]"
            },
            {
              "components": [
                {
                  "internalType": "uint32",
                  "name": "maxTokens",
                  "type": "uint32"
                },
                {
                  "internalType": "uint32",
                  "name": "maxTokensPerOwner",
                  "type": "uint32"
                },
                {
                  "internalType": "uint32",
                  "name": "presaleStart",
                  "type": "uint32"
                },
                {
                  "internalType": "uint32",
                  "name": "presaleEnd",
                  "type": "uint32"
                },
                {
                  "internalType": "uint32",
                  "name": "saleStart",
                  "type": "uint32"
                },
                {
                  "internalType": "uint32",
                  "name": "saleEnd",
                  "type": "uint32"
                },
                {
                  "internalType": "uint96",
                  "name": "tokenPrice",
                  "type": "uint96"
                },
                {
                  "internalType": "bytes32",
                  "name": "presaleMerkleRoot",
                  "type": "bytes32"
                },
                {
                  "components": [
                    {
                      "internalType": "address",
                      "name": "tokenAddress",
                      "type": "address"
                    },
                    {
                      "internalType": "uint88",
                      "name": "minBalance",
                      "type": "uint88"
                    },
                    {
                      "internalType": "enum SaleType",
                      "name": "saleType",
                      "type": "uint8"
                    }
                  ],
                  "internalType": "struct TokenGateConfig",
                  "name": "tokenGate",
                  "type": "tuple"
                }
              ],
              "internalType": "struct IDCNTSeries.Drop[]",
              "name": "drops",
              "type": "tuple[]"
            }
          ],
          "internalType": "struct IDCNTSeries.DropMap",
          "name": "_dropOverrides",
          "type": "tuple"
        }
      ],
      "name": "deployDCNTSeries",
      "outputs": [
        {
          "internalType": "address",
          "name": "clone",
          "type": "address"
        }
      ],
      "stateMutability": "nonpayable",
      "type": "function"
    },
    {
      "inputs": [
        {
          "internalType": "address",
          "name": "_nft",
          "type": "address"
        },
        {
          "internalType": "address",
          "name": "_token",
          "type": "address"
        },
        {
          "internalType": "uint256",
          "name": "_vaultDuration",
          "type": "uint256"
        },
        {
          "internalType": "uint256",
          "name": "_totalSupply",
          "type": "uint256"
        }
      ],
      "name": "deployDCNTStaking",
      "outputs": [
        {
          "internalType": "address",
          "name": "clone",
          "type": "address"
        }
      ],
      "stateMutability": "nonpayable",
      "type": "function"
    },
    {
      "inputs": [
        {
          "internalType": "address",
          "name": "_vaultDistributionTokenAddress",
          "type": "address"
        },
        {
          "internalType": "address",
          "name": "_nftVaultKeyAddress",
          "type": "address"
        },
        {
          "internalType": "uint256",
          "name": "_nftTotalSupply",
          "type": "uint256"
        },
        {
          "internalType": "uint256",
          "name": "_unlockDate",
          "type": "uint256"
        }
      ],
      "name": "deployDCNTVault",
      "outputs": [
        {
          "internalType": "address",
          "name": "clone",
          "type": "address"
        }
      ],
      "stateMutability": "nonpayable",
      "type": "function"
    },
    {
      "inputs": [
        {
          "components": [
            {
              "internalType": "string",
              "name": "name",
              "type": "string"
            },
            {
              "internalType": "string",
              "name": "symbol",
              "type": "string"
            },
            {
              "internalType": "bool",
              "name": "hasAdjustableCap",
              "type": "bool"
            },
            {
              "internalType": "bool",
              "name": "isSoulbound",
              "type": "bool"
            },
            {
              "internalType": "uint32",
              "name": "maxTokens",
              "type": "uint32"
            },
            {
              "internalType": "uint32",
              "name": "maxTokenPurchase",
              "type": "uint32"
            },
            {
              "internalType": "uint32",
              "name": "presaleStart",
              "type": "uint32"
            },
            {
              "internalType": "uint32",
              "name": "presaleEnd",
              "type": "uint32"
            },
            {
              "internalType": "uint32",
              "name": "saleStart",
              "type": "uint32"
            },
            {
              "internalType": "uint32",
              "name": "saleEnd",
              "type": "uint32"
            },
            {
              "internalType": "uint16",
              "name": "royaltyBPS",
              "type": "uint16"
            },
            {
              "internalType": "uint96",
              "name": "tokenPrice",
              "type": "uint96"
            },
            {
              "internalType": "address",
              "name": "payoutAddress",
              "type": "address"
            },
            {
              "internalType": "bytes32",
              "name": "presaleMerkleRoot",
              "type": "bytes32"
            }
          ],
          "internalType": "struct EditionConfig",
          "name": "_editionConfig",
          "type": "tuple"
        },
        {
          "components": [
            {
              "internalType": "string",
              "name": "contractURI",
              "type": "string"
            },
            {
              "internalType": "string",
              "name": "metadataURI",
              "type": "string"
            },
            {
              "internalType": "bytes",
              "name": "metadataRendererInit",
              "type": "bytes"
            },
            {
              "internalType": "address",
              "name": "parentIP",
              "type": "address"
            }
          ],
          "internalType": "struct MetadataConfig",
          "name": "_metadataConfig",
          "type": "tuple"
        },
        {
          "components": [
            {
              "internalType": "address",
              "name": "tokenAddress",
              "type": "address"
            },
            {
              "internalType": "uint88",
              "name": "minBalance",
              "type": "uint88"
            },
            {
              "internalType": "enum SaleType",
              "name": "saleType",
              "type": "uint8"
            }
          ],
          "internalType": "struct TokenGateConfig",
          "name": "_tokenGateConfig",
          "type": "tuple"
        },
        {
          "internalType": "address",
          "name": "zkVerifier",
          "type": "address"
        }
      ],
      "name": "deployZKEdition",
      "outputs": [
        {
          "internalType": "address",
          "name": "clone",
          "type": "address"
        }
      ],
      "stateMutability": "nonpayable",
      "type": "function"
    },
    {
      "inputs": [],
      "name": "metadataRenderer",
      "outputs": [
        {
          "internalType": "address",
          "name": "",
          "type": "address"
        }
      ],
      "stateMutability": "view",
      "type": "function"
    },
    {
      "inputs": [],
      "name": "owner",
      "outputs": [
        {
          "internalType": "address",
          "name": "",
          "type": "address"
        }
      ],
      "stateMutability": "view",
      "type": "function"
    },
    {
      "inputs": [],
      "name": "renounceOwnership",
      "outputs": [],
      "stateMutability": "nonpayable",
      "type": "function"
    },
    {
      "inputs": [
        {
          "internalType": "address",
          "name": "newOwner",
          "type": "address"
        }
      ],
      "name": "transferOwnership",
      "outputs": [],
      "stateMutability": "nonpayable",
      "type": "function"
    }
  ],
  "bytecode": "0x60806040523480156200001157600080fd5b5060405162001d5538038062001d5583398101604081905262000034916200014d565b6200003f33620000e0565b600180546001600160a01b03199081166001600160a01b039b8c1617909155600280548216998b1699909917909855600380548916978a1697909717909655600480548816958916959095179094556005805487169388169390931790925560068054861691871691909117905560088054851691861691909117905560098054841691851691909117905560078054909216921691909117905562000208565b600080546001600160a01b038381166001600160a01b0319831681178455604051919092169283917f8be0079c531659141344cd1fd0a4f28419497f9722a3daafe3b4186f6b6457e09190a35050565b80516001600160a01b03811681146200014857600080fd5b919050565b60008060008060008060008060006101208a8c0312156200016d57600080fd5b620001788a62000130565b98506200018860208b0162000130565b97506200019860408b0162000130565b9650620001a860608b0162000130565b9550620001b860808b0162000130565b9450620001c860a08b0162000130565b9350620001d860c08b0162000130565b9250620001e860e08b0162000130565b9150620001f96101008b0162000130565b90509295985092959850929598565b611b3d80620002186000396000f3fe608060405234801561001057600080fd5b50600436106101215760003560e01c80638da5cb5b116100ad578063ca825bb511610071578063ca825bb514610241578063d0ae315a14610254578063f2fde38b14610267578063f67555901461027a578063f866421c1461028d57600080fd5b80638da5cb5b146101e45780639f61dfec146101f5578063abf410e514610208578063bc10a4fa1461021b578063bce7a9801461022e57600080fd5b80634285656b116100f45780634285656b1461018e5780636572e5f1146101a157806370319970146101b4578063715018a6146101c757806373d622f8146101d157600080fd5b806310a08913146101265780632d11e65e1461015557806338905898146101685780633c3b370b1461017b575b600080fd5b600154610139906001600160a01b031681565b6040516001600160a01b03909116815260200160405180910390f35b600354610139906001600160a01b031681565b610139610176366004610f98565b6102a0565b600654610139906001600160a01b031681565b600254610139906001600160a01b031681565b6101396101af366004611005565b610437565b600854610139906001600160a01b031681565b6101cf6105c5565b005b6101396101df3660046110a8565b6105d9565b6000546001600160a01b0316610139565b600554610139906001600160a01b031681565b600954610139906001600160a01b031681565b6101396102293660046110a8565b61077e565b61013961023c36600461110f565b610917565b600454610139906001600160a01b031681565b600754610139906001600160a01b031681565b6101cf610275366004611184565b610aa4565b61013961028836600461110f565b610b22565b61013961029b3660046111a6565b610cad565b6004546000906102b8906001600160a01b0316610e3c565b6008546040519192506000916001600160a01b03808516926102e592339289928992911690602401611331565b60408051601f198184030181529181526020820180516001600160e01b0316636a276a6360e11b1790525161031a919061141f565b6000604051808303816000865af19150503d8060008114610357576040519150601f19603f3d011682016040523d82523d6000602084013e61035c565b606091505b505090508061036a57600080fd5b60095460405163ede4973960e01b81523360048201526001600160a01b03848116602483015260606044830152600d60648301526c44434e544372657363656e646f60981b60848301529091169063ede497399060a401600060405180830381600087803b1580156103db57600080fd5b505af11580156103ef573d6000803e3d6000fd5b50506040516001600160a01b03851681527f2c14c8ffafc8bfdf42e6469d6c292eeaebf445beafb817fb0bc9df3ebd89f0069250602001905060405180910390a15092915050565b60035460009061044f906001600160a01b0316610e3c565b90506000816001600160a01b0316338686866040516024016104749493929190611743565b60408051601f198184030181529181526020820180516001600160e01b031663747ae48760e11b179052516104a9919061141f565b6000604051808303816000865af19150503d80600081146104e6576040519150601f19603f3d011682016040523d82523d6000602084013e6104eb565b606091505b50509050806104f957600080fd5b60095460405163ede4973960e01b81523360048201526001600160a01b03848116602483015260606044830152600a60648301526944434e5453657269657360b01b60848301529091169063ede497399060a401600060405180830381600087803b15801561056757600080fd5b505af115801561057b573d6000803e3d6000fd5b50506040516001600160a01b03851681527f1110b9d4e98ce9495365b594b3a8b9eba38d4c31da9dbacffb3c1f23ee408437925060200190505b60405180910390a1509392505050565b6105cd610ed6565b6105d76000610f30565b565b6005546000906105f1906001600160a01b0316610e3c565b6040513360248201526001600160a01b03878116604483015286811660648301526084820186905260a4820185905291925060009183169060c40160408051601f198184030181529181526020820180516001600160e01b03166314d6c7d760e31b17905251610661919061141f565b6000604051808303816000865af19150503d806000811461069e576040519150601f19603f3d011682016040523d82523d6000602084013e6106a3565b606091505b50509050806106b157600080fd5b6009805460405163ede4973960e01b81523360048201526001600160a01b038581166024830152606060448301526064820193909352681110d39515985d5b1d60ba1b608482015291169063ede497399060a401600060405180830381600087803b15801561071f57600080fd5b505af1158015610733573d6000803e3d6000fd5b50506040516001600160a01b03851681527ff12b488daa6140ffee78fe266c37addbbaea912b09ce36e613a17844dac4255b925060200190505b60405180910390a150949350505050565b600654600090610796906001600160a01b0316610e3c565b6040513360248201526001600160a01b03878116604483015286811660648301526084820186905260a4820185905291925060009183169060c40160408051601f198184030181529181526020820180516001600160e01b03166314d6c7d760e31b17905251610806919061141f565b6000604051808303816000865af19150503d8060008114610843576040519150601f19603f3d011682016040523d82523d6000602084013e610848565b606091505b505090508061085657600080fd5b60095460405163ede4973960e01b81523360048201526001600160a01b03848116602483015260606044830152600b60648301526a44434e545374616b696e6760a81b60848301529091169063ede497399060a401600060405180830381600087803b1580156108c557600080fd5b505af11580156108d9573d6000803e3d6000fd5b50506040516001600160a01b03851681527fe9eeb18af71a650338802cfcb86b39b211ed34fd8a37cacc5a16514a183e8d669250602001905061076d565b60025460009061092f906001600160a01b0316610e3c565b6008546040519192506000916001600160a01b038085169261095f9233928a928a928a9290911690602401611a4a565b60408051601f198184030181529181526020820180516001600160e01b0316632b8775b160e21b17905251610994919061141f565b6000604051808303816000865af19150503d80600081146109d1576040519150601f19603f3d011682016040523d82523d6000602084013e6109d6565b606091505b50509050806109e457600080fd5b6009805460405163ede4973960e01b81523360048201526001600160a01b0385811660248301526060604483015260648201939093526844434e54343930374160b81b608482015291169063ede497399060a401600060405180830381600087803b158015610a5257600080fd5b505af1158015610a66573d6000803e3d6000fd5b50506040516001600160a01b03851681527f3758a9cde202b40b236c1867c2734461fd598d835ad020bda26ca4f85838f2c4925060200190506105b5565b610aac610ed6565b6001600160a01b038116610b165760405162461bcd60e51b815260206004820152602660248201527f4f776e61626c653a206e6577206f776e657220697320746865207a65726f206160448201526564647265737360d01b60648201526084015b60405180910390fd5b610b1f81610f30565b50565b600154600090610b3a906001600160a01b0316610e3c565b6008546040519192506000916001600160a01b0380851692610b6a9233928a928a928a9290911690602401611a4a565b60408051601f198184030181529181526020820180516001600160e01b0316632b8775b160e21b17905251610b9f919061141f565b6000604051808303816000865af19150503d8060008114610bdc576040519150601f19603f3d011682016040523d82523d6000602084013e610be1565b606091505b5050905080610bef57600080fd5b60095460405163ede4973960e01b81523360048201526001600160a01b03848116602483015260606044830152600860648301526744434e543732314160c01b60848301529091169063ede497399060a401600060405180830381600087803b158015610c5b57600080fd5b505af1158015610c6f573d6000803e3d6000fd5b50506040516001600160a01b03851681527f149ce80ffd882db4157fb46dd05201336d87f52ace89212615557e5455b8a0df925060200190506105b5565b600754600090610cc5906001600160a01b0316610e3c565b6008546040519192506000916001600160a01b0380851692610cf79233928b928b928b92909116908a90602401611aa1565b60408051601f198184030181529181526020820180516001600160e01b031663799f5a8b60e01b17905251610d2c919061141f565b6000604051808303816000865af19150503d8060008114610d69576040519150601f19603f3d011682016040523d82523d6000602084013e610d6e565b606091505b5050905080610d7c57600080fd5b6009805460405163ede4973960e01b81523360048201526001600160a01b038581166024830152606060448301526064820193909352682d25a2b234ba34b7b760b91b608482015291169063ede497399060a401600060405180830381600087803b158015610dea57600080fd5b505af1158015610dfe573d6000803e3d6000fd5b50506040516001600160a01b03851681527f49451ac6869c0fa590f484823265bd786e5c483c78431c2fc0cc2f7f939678e49250602001905061076d565b6000763d602d80600a3d3981f3363d3d373d3d3d363d730000008260601b60e81c176000526e5af43d82803e903d91602b57fd5bf38260781b17602052603760096000f090506001600160a01b038116610ed15760405162461bcd60e51b8152602060048201526016602482015275115490cc4c4d8dce8818dc99585d194819985a5b195960521b6044820152606401610b0d565b919050565b6000546001600160a01b031633146105d75760405162461bcd60e51b815260206004820181905260248201527f4f776e61626c653a2063616c6c6572206973206e6f7420746865206f776e65726044820152606401610b0d565b600080546001600160a01b038381166001600160a01b0319831681178455604051919092169283917f8be0079c531659141344cd1fd0a4f28419497f9722a3daafe3b4186f6b6457e09190a35050565b600060808284031215610f9257600080fd5b50919050565b60008060408385031215610fab57600080fd5b823567ffffffffffffffff80821115610fc357600080fd5b908401906101408287031215610fd857600080fd5b90925060208401359080821115610fee57600080fd5b50610ffb85828601610f80565b9150509250929050565b60008060008385036101a081121561101c57600080fd5b843567ffffffffffffffff8082111561103457600080fd5b818701915061018080838a03121561104b57600080fd5b829650610160601f198501121561106157600080fd5b60208801955087013592508083111561107957600080fd5b505061108786828701610f80565b9150509250925092565b80356001600160a01b0381168114610ed157600080fd5b600080600080608085870312156110be57600080fd5b6110c785611091565b93506110d560208601611091565b93969395505050506040820135916060013590565b60006101c08284031215610f9257600080fd5b600060608284031215610f9257600080fd5b600080600060a0848603121561112457600080fd5b833567ffffffffffffffff8082111561113c57600080fd5b611148878388016110ea565b9450602086013591508082111561115e57600080fd5b5061116b86828701610f80565b92505061117b85604086016110fd565b90509250925092565b60006020828403121561119657600080fd5b61119f82611091565b9392505050565b60008060008060c085870312156111bc57600080fd5b843567ffffffffffffffff808211156111d457600080fd5b6111e0888389016110ea565b955060208701359150808211156111f657600080fd5b5061120387828801610f80565b93505061121386604087016110fd565b915061122160a08601611091565b905092959194509250565b6000808335601e1984360301811261124357600080fd5b830160208101925035905067ffffffffffffffff81111561126357600080fd5b80360382131561127257600080fd5b9250929050565b81835281816020850137506000828201602090810191909152601f909101601f19169091010190565b60006112ae828361122c565b608085526112c0608086018284611279565b9150506112d0602084018461122c565b85830360208701526112e3838284611279565b925050506112f4604084018461122c565b8583036040870152611307838284611279565b92506001600160a01b039150611321905060608501611091565b1660608501528091505092915050565b6001600160a01b0385168152608060208201526000611350858061122c565b6101408060808601526113686101c086018385611279565b9250611377602089018961122c565b868503607f190160a08801529250611390848483611279565b935050604088013560c0860152606088013560e0860152610100915060808801358286015261012060a08901358187015260c08901358287015260e089013561016087015282890135610180870152808901356101a087015250505082810360408401526113fe81866112a2565b91505061141660608301846001600160a01b03169052565b95945050505050565b6000825160005b818110156114405760208186018101518583015201611426565b506000920191825250919050565b80356001600160801b0381168114610ed157600080fd5b803561ffff81168114610ed157600080fd5b80358015158114610ed157600080fd5b803563ffffffff81168114610ed157600080fd5b80356001600160601b0381168114610ed157600080fd5b6001600160a01b036114c382611091565b16825260208101356affffffffffffffffffffff81168082146114e557600080fd5b6020840152506040810135600381106114fd57600080fd5b806040840152505050565b63ffffffff8061151783611487565b1683528061152760208401611487565b1660208401528061153a60408401611487565b1660408401528061154d60608401611487565b1660608401525061156060808201611487565b63ffffffff16608083015261157760a08201611487565b63ffffffff1660a083015261158e60c0820161149b565b6001600160601b031660c083015260e081810135908301526101006115b78184018284016114b2565b505050565b6000808335601e198436030181126115d357600080fd5b830160208101925035905067ffffffffffffffff8111156115f357600080fd5b8060051b360382131561127257600080fd5b81835260006001600160fb1b0383111561161e57600080fd5b8260051b80836020870137939093016020019392505050565b81835260208301925060008160005b8481101561166c576116588683611508565b610160958601959190910190600101611646565b5093949350505050565b600061168282836115bc565b60808552611694608086018284611605565b9150506116a460208401846115bc565b85830360208701526116b7838284611605565b925050506116c860408401846115bc565b85830360408701526116db838284611605565b925050506060830135601e198436030181126116f657600080fd5b830160208101903567ffffffffffffffff81111561171357600080fd5b6101608102360382131561172657600080fd5b8583036060870152611739838284611637565b9695505050505050565b6001600160a01b03851681526101c060208201819052600090611766868061122c565b6101808386015261177c61034086018284611279565b9250505061178d602087018761122c565b6101bf1980868503016101e08701526117a7848385611279565b93506117b660408a018a61122c565b9350915080868503016102008701526117d0848484611279565b93506117df60608a018a61122c565b935091508086850301610220870152506117fa838383611279565b9250505061180a6080870161144e565b6001600160801b031661024084015261182560a0870161144e565b6001600160801b031661026084015261184060c08701611465565b61ffff1661028084015261185660e08701611091565b6001600160a01b03166102a08401526118726101008701611091565b6001600160a01b03166102c084015261188e6101208701611091565b6001600160a01b03166102e08401526118aa6101408701611477565b15156103008401526118bf6101608701611477565b15156103208401526118d46040840186611508565b8281036101a08401526118e78185611676565b979650505050505050565b60006101c0611901838461122c565b8286526119118387018284611279565b92505050611922602084018461122c565b8583036020870152611935838284611279565b9250505061194560408401611477565b1515604085015261195860608401611477565b1515606085015261196b60808401611487565b63ffffffff16608085015261198260a08401611487565b63ffffffff1660a085015261199960c08401611487565b63ffffffff1660c08501526119b060e08401611487565b63ffffffff1660e08501526101006119c9848201611487565b63ffffffff16908501526101206119e1848201611487565b63ffffffff16908501526101406119f9848201611465565b61ffff1690850152610160611a0f84820161149b565b6001600160601b031690850152610180611a2a848201611091565b6001600160a01b0316908501526101a09283013592909301919091525090565b600060018060a01b03808816835260e06020840152611a6c60e08401886118f2565b8381036040850152611a7e81886112a2565b925050611a8e60608401866114b2565b80841660c0840152509695505050505050565b6001600160a01b03878116825261010060208301819052600091611ac78483018a6118f2565b91508382036040850152611adb82896112a2565b9250611aea60608501886114b2565b80861660c085015280851660e0850152505097965050505050505056fea264697066735822122087f348b533b1a102fa57f4cff76b4569c2cd842d091dc7b003694a717f4c709364736f6c63430008110033",
  "linkReferences": {},
  "deployedLinkReferences": {}
}