{
  "_format": "hh-sol-artifact-1",
  "contractName": "DCNT4907A",
  "sourceName": "contracts/DCNT4907A.sol",
  "abi": [
    {
      "inputs": [],
      "name": "ApprovalCallerNotOwnerNorApproved",
      "type": "error"
    },
    {
      "inputs": [],
      "name": "ApprovalQueryForNonexistentToken",
      "type": "error"
    },
    {
      "inputs": [],
      "name": "ApproveToCaller",
      "type": "error"
    },
    {
      "inputs": [],
      "name": "BalanceQueryForZeroAddress",
      "type": "error"
    },
    {
      "inputs": [],
      "name": "FeeTransferFailed",
      "type": "error"
    },
    {
      "inputs": [],
      "name": "MintERC2309QuantityExceedsLimit",
      "type": "error"
    },
    {
      "inputs": [],
      "name": "MintToZeroAddress",
      "type": "error"
    },
    {
      "inputs": [],
      "name": "MintZeroQuantity",
      "type": "error"
    },
    {
      "inputs": [
        {
          "internalType": "address",
          "name": "operator",
          "type": "address"
        }
      ],
      "name": "OperatorNotAllowed",
      "type": "error"
    },
    {
      "inputs": [],
      "name": "OwnerQueryForNonexistentToken",
      "type": "error"
    },
    {
      "inputs": [],
      "name": "OwnershipNotInitializedForExtraData",
      "type": "error"
    },
    {
      "inputs": [],
      "name": "SetUserCallerNotOwnerNorApproved",
      "type": "error"
    },
    {
      "inputs": [],
      "name": "TransferCallerNotOwnerNorApproved",
      "type": "error"
    },
    {
      "inputs": [],
      "name": "TransferFromIncorrectOwner",
      "type": "error"
    },
    {
      "inputs": [],
      "name": "TransferToNonERC721ReceiverImplementer",
      "type": "error"
    },
    {
      "inputs": [],
      "name": "TransferToZeroAddress",
      "type": "error"
    },
    {
      "inputs": [],
      "name": "URIQueryForNonexistentToken",
      "type": "error"
    },
    {
      "anonymous": false,
      "inputs": [
        {
          "indexed": true,
          "internalType": "address",
          "name": "owner",
          "type": "address"
        },
        {
          "indexed": true,
          "internalType": "address",
          "name": "approved",
          "type": "address"
        },
        {
          "indexed": true,
          "internalType": "uint256",
          "name": "tokenId",
          "type": "uint256"
        }
      ],
      "name": "Approval",
      "type": "event"
    },
    {
      "anonymous": false,
      "inputs": [
        {
          "indexed": true,
          "internalType": "address",
          "name": "owner",
          "type": "address"
        },
        {
          "indexed": true,
          "internalType": "address",
          "name": "operator",
          "type": "address"
        },
        {
          "indexed": false,
          "internalType": "bool",
          "name": "approved",
          "type": "bool"
        }
      ],
      "name": "ApprovalForAll",
      "type": "event"
    },
    {
      "anonymous": false,
      "inputs": [
        {
          "indexed": true,
          "internalType": "uint256",
          "name": "fromTokenId",
          "type": "uint256"
        },
        {
          "indexed": false,
          "internalType": "uint256",
          "name": "toTokenId",
          "type": "uint256"
        },
        {
          "indexed": true,
          "internalType": "address",
          "name": "from",
          "type": "address"
        },
        {
          "indexed": true,
          "internalType": "address",
          "name": "to",
          "type": "address"
        }
      ],
      "name": "ConsecutiveTransfer",
      "type": "event"
    },
    {
      "anonymous": false,
      "inputs": [
        {
          "indexed": false,
          "internalType": "uint8",
          "name": "version",
          "type": "uint8"
        }
      ],
      "name": "Initialized",
      "type": "event"
    },
    {
      "anonymous": false,
      "inputs": [
        {
          "indexed": false,
          "internalType": "address",
          "name": "sender",
          "type": "address"
        },
        {
          "indexed": false,
          "internalType": "uint256",
          "name": "tokenId_",
          "type": "uint256"
        }
      ],
      "name": "Minted",
      "type": "event"
    },
    {
      "anonymous": false,
      "inputs": [
        {
          "indexed": true,
          "internalType": "address",
          "name": "previousOwner",
          "type": "address"
        },
        {
          "indexed": true,
          "internalType": "address",
          "name": "newOwner",
          "type": "address"
        }
      ],
      "name": "OwnershipTransferred",
      "type": "event"
    },
    {
      "anonymous": false,
      "inputs": [
        {
          "indexed": true,
          "internalType": "bytes32",
          "name": "role",
          "type": "bytes32"
        },
        {
          "indexed": true,
          "internalType": "bytes32",
          "name": "previousAdminRole",
          "type": "bytes32"
        },
        {
          "indexed": true,
          "internalType": "bytes32",
          "name": "newAdminRole",
          "type": "bytes32"
        }
      ],
      "name": "RoleAdminChanged",
      "type": "event"
    },
    {
      "anonymous": false,
      "inputs": [
        {
          "indexed": true,
          "internalType": "bytes32",
          "name": "role",
          "type": "bytes32"
        },
        {
          "indexed": true,
          "internalType": "address",
          "name": "account",
          "type": "address"
        },
        {
          "indexed": true,
          "internalType": "address",
          "name": "sender",
          "type": "address"
        }
      ],
      "name": "RoleGranted",
      "type": "event"
    },
    {
      "anonymous": false,
      "inputs": [
        {
          "indexed": true,
          "internalType": "bytes32",
          "name": "role",
          "type": "bytes32"
        },
        {
          "indexed": true,
          "internalType": "address",
          "name": "account",
          "type": "address"
        },
        {
          "indexed": true,
          "internalType": "address",
          "name": "sender",
          "type": "address"
        }
      ],
      "name": "RoleRevoked",
      "type": "event"
    },
    {
      "anonymous": false,
      "inputs": [
        {
          "indexed": true,
          "internalType": "address",
          "name": "from",
          "type": "address"
        },
        {
          "indexed": true,
          "internalType": "address",
          "name": "to",
          "type": "address"
        },
        {
          "indexed": true,
          "internalType": "uint256",
          "name": "tokenId",
          "type": "uint256"
        }
      ],
      "name": "Transfer",
      "type": "event"
    },
    {
      "anonymous": false,
      "inputs": [
        {
          "indexed": true,
          "internalType": "uint256",
          "name": "tokenId",
          "type": "uint256"
        },
        {
          "indexed": true,
          "internalType": "address",
          "name": "user",
          "type": "address"
        },
        {
          "indexed": false,
          "internalType": "uint64",
          "name": "expires",
          "type": "uint64"
        }
      ],
      "name": "UpdateUser",
      "type": "event"
    },
    {
      "inputs": [],
      "name": "DEFAULT_ADMIN_ROLE",
      "outputs": [
        {
          "internalType": "bytes32",
          "name": "",
          "type": "bytes32"
        }
      ],
      "stateMutability": "view",
      "type": "function"
    },
    {
      "inputs": [],
      "name": "MAX_TOKENS",
      "outputs": [
        {
          "internalType": "uint32",
          "name": "",
          "type": "uint32"
        }
      ],
      "stateMutability": "view",
      "type": "function"
    },
    {
      "inputs": [
        {
          "internalType": "uint32",
          "name": "newCap",
          "type": "uint32"
        }
      ],
      "name": "adjustCap",
      "outputs": [],
      "stateMutability": "nonpayable",
      "type": "function"
    },
    {
      "inputs": [
        {
          "internalType": "address",
          "name": "operator",
          "type": "address"
        },
        {
          "internalType": "uint256",
          "name": "tokenId",
          "type": "uint256"
        }
      ],
      "name": "approve",
      "outputs": [],
      "stateMutability": "nonpayable",
      "type": "function"
    },
    {
      "inputs": [
        {
          "internalType": "address",
          "name": "owner",
          "type": "address"
        }
      ],
      "name": "balanceOf",
      "outputs": [
        {
          "internalType": "uint256",
          "name": "",
          "type": "uint256"
        }
      ],
      "stateMutability": "view",
      "type": "function"
    },
    {
      "inputs": [],
      "name": "baseURI",
      "outputs": [
        {
          "internalType": "string",
          "name": "",
          "type": "string"
        }
      ],
      "stateMutability": "view",
      "type": "function"
    },
    {
      "inputs": [],
      "name": "contractURI",
      "outputs": [
        {
          "internalType": "string",
          "name": "",
          "type": "string"
        }
      ],
      "stateMutability": "view",
      "type": "function"
    },
    {
      "inputs": [],
      "name": "contractVersion",
      "outputs": [
        {
          "internalType": "uint32",
          "name": "",
          "type": "uint32"
        }
      ],
      "stateMutability": "view",
      "type": "function"
    },
    {
      "inputs": [
        {
          "internalType": "address",
          "name": "_splitMain",
          "type": "address"
        },
        {
          "internalType": "address[]",
          "name": "accounts",
          "type": "address[]"
        },
        {
          "internalType": "uint32[]",
          "name": "percentAllocations",
          "type": "uint32[]"
        },
        {
          "internalType": "uint32",
          "name": "distributorFee",
          "type": "uint32"
        }
      ],
      "name": "createSplit",
      "outputs": [],
      "stateMutability": "nonpayable",
      "type": "function"
    },
    {
      "inputs": [
        {
          "internalType": "address",
          "name": "account",
          "type": "address"
        },
        {
          "internalType": "uint256",
          "name": "withdrawETH",
          "type": "uint256"
        },
        {
          "internalType": "contract ERC20[]",
          "name": "tokens",
          "type": "address[]"
        },
        {
          "internalType": "address[]",
          "name": "accounts",
          "type": "address[]"
        },
        {
          "internalType": "uint32[]",
          "name": "percentAllocations",
          "type": "uint32[]"
        },
        {
          "internalType": "uint32",
          "name": "distributorFee",
          "type": "uint32"
        },
        {
          "internalType": "address",
          "name": "distributorAddress",
          "type": "address"
        }
      ],
      "name": "distributeAndWithdraw",
      "outputs": [],
      "stateMutability": "nonpayable",
      "type": "function"
    },
    {
      "inputs": [
        {
          "internalType": "contract ERC20",
          "name": "token",
          "type": "address"
        },
        {
          "internalType": "address[]",
          "name": "accounts",
          "type": "address[]"
        },
        {
          "internalType": "uint32[]",
          "name": "percentAllocations",
          "type": "uint32[]"
        },
        {
          "internalType": "uint32",
          "name": "distributorFee",
          "type": "uint32"
        },
        {
          "internalType": "address",
          "name": "distributorAddress",
          "type": "address"
        }
      ],
      "name": "distributeERC20",
      "outputs": [],
      "stateMutability": "nonpayable",
      "type": "function"
    },
    {
      "inputs": [
        {
          "internalType": "address[]",
          "name": "accounts",
          "type": "address[]"
        },
        {
          "internalType": "uint32[]",
          "name": "percentAllocations",
          "type": "uint32[]"
        },
        {
          "internalType": "uint32",
          "name": "distributorFee",
          "type": "uint32"
        },
        {
          "internalType": "address",
          "name": "distributorAddress",
          "type": "address"
        }
      ],
      "name": "distributeETH",
      "outputs": [],
      "stateMutability": "nonpayable",
      "type": "function"
    },
    {
      "inputs": [],
      "name": "edition",
      "outputs": [
        {
          "internalType": "bool",
          "name": "hasAdjustableCap",
          "type": "bool"
        },
        {
          "internalType": "bool",
          "name": "isSoulbound",
          "type": "bool"
        },
        {
          "internalType": "uint32",
          "name": "maxTokens",
          "type": "uint32"
        },
        {
          "internalType": "uint32",
          "name": "maxTokenPurchase",
          "type": "uint32"
        },
        {
          "internalType": "uint32",
          "name": "presaleStart",
          "type": "uint32"
        },
        {
          "internalType": "uint32",
          "name": "presaleEnd",
          "type": "uint32"
        },
        {
          "internalType": "uint32",
          "name": "saleStart",
          "type": "uint32"
        },
        {
          "internalType": "uint32",
          "name": "saleEnd",
          "type": "uint32"
        },
        {
          "internalType": "uint16",
          "name": "royaltyBPS",
          "type": "uint16"
        },
        {
          "internalType": "uint96",
          "name": "tokenPrice",
          "type": "uint96"
        },
        {
          "internalType": "address",
          "name": "payoutAddress",
          "type": "address"
        },
        {
          "internalType": "bytes32",
          "name": "presaleMerkleRoot",
          "type": "bytes32"
        }
      ],
      "stateMutability": "view",
      "type": "function"
    },
    {
      "inputs": [],
      "name": "feeManager",
      "outputs": [
        {
          "internalType": "address",
          "name": "",
          "type": "address"
        }
      ],
      "stateMutability": "view",
      "type": "function"
    },
    {
      "inputs": [],
      "name": "flipSaleState",
      "outputs": [],
      "stateMutability": "nonpayable",
      "type": "function"
    },
    {
      "inputs": [
        {
          "internalType": "uint256",
          "name": "tokenId",
          "type": "uint256"
        }
      ],
      "name": "getApproved",
      "outputs": [
        {
          "internalType": "address",
          "name": "",
          "type": "address"
        }
      ],
      "stateMutability": "view",
      "type": "function"
    },
    {
      "inputs": [
        {
          "internalType": "bytes32",
          "name": "role",
          "type": "bytes32"
        }
      ],
      "name": "getRoleAdmin",
      "outputs": [
        {
          "internalType": "bytes32",
          "name": "",
          "type": "bytes32"
        }
      ],
      "stateMutability": "view",
      "type": "function"
    },
    {
      "inputs": [
        {
          "internalType": "bytes32",
          "name": "role",
          "type": "bytes32"
        },
        {
          "internalType": "address",
          "name": "account",
          "type": "address"
        }
      ],
      "name": "grantRole",
      "outputs": [],
      "stateMutability": "nonpayable",
      "type": "function"
    },
    {
      "inputs": [],
      "name": "hasAdjustableCap",
      "outputs": [
        {
          "internalType": "bool",
          "name": "",
          "type": "bool"
        }
      ],
      "stateMutability": "view",
      "type": "function"
    },
    {
      "inputs": [
        {
          "internalType": "bytes32",
          "name": "role",
          "type": "bytes32"
        },
        {
          "internalType": "address",
          "name": "account",
          "type": "address"
        }
      ],
      "name": "hasRole",
      "outputs": [
        {
          "internalType": "bool",
          "name": "",
          "type": "bool"
        }
      ],
      "stateMutability": "view",
      "type": "function"
    },
    {
      "inputs": [
        {
          "internalType": "address",
          "name": "_owner",
          "type": "address"
        },
        {
          "components": [
            {
              "internalType": "string",
              "name": "name",
              "type": "string"
            },
            {
              "internalType": "string",
              "name": "symbol",
              "type": "string"
            },
            {
              "internalType": "bool",
              "name": "hasAdjustableCap",
              "type": "bool"
            },
            {
              "internalType": "bool",
              "name": "isSoulbound",
              "type": "bool"
            },
            {
              "internalType": "uint32",
              "name": "maxTokens",
              "type": "uint32"
            },
            {
              "internalType": "uint32",
              "name": "maxTokenPurchase",
              "type": "uint32"
            },
            {
              "internalType": "uint32",
              "name": "presaleStart",
              "type": "uint32"
            },
            {
              "internalType": "uint32",
              "name": "presaleEnd",
              "type": "uint32"
            },
            {
              "internalType": "uint32",
              "name": "saleStart",
              "type": "uint32"
            },
            {
              "internalType": "uint32",
              "name": "saleEnd",
              "type": "uint32"
            },
            {
              "internalType": "uint16",
              "name": "royaltyBPS",
              "type": "uint16"
            },
            {
              "internalType": "uint96",
              "name": "tokenPrice",
              "type": "uint96"
            },
            {
              "internalType": "address",
              "name": "feeManager",
              "type": "address"
            },
            {
              "internalType": "address",
              "name": "payoutAddress",
              "type": "address"
            },
            {
              "internalType": "bytes32",
              "name": "presaleMerkleRoot",
              "type": "bytes32"
            }
          ],
          "internalType": "struct EditionConfig",
          "name": "_editionConfig",
          "type": "tuple"
        },
        {
          "components": [
            {
              "internalType": "string",
              "name": "contractURI",
              "type": "string"
            },
            {
              "internalType": "string",
              "name": "metadataURI",
              "type": "string"
            },
            {
              "internalType": "bytes",
              "name": "metadataRendererInit",
              "type": "bytes"
            },
            {
              "internalType": "address",
              "name": "parentIP",
              "type": "address"
            }
          ],
          "internalType": "struct MetadataConfig",
          "name": "_metadataConfig",
          "type": "tuple"
        },
        {
          "components": [
            {
              "internalType": "address",
              "name": "tokenAddress",
              "type": "address"
            },
            {
              "internalType": "uint88",
              "name": "minBalance",
              "type": "uint88"
            },
            {
              "internalType": "enum SaleType",
              "name": "saleType",
              "type": "uint8"
            }
          ],
          "internalType": "struct TokenGateConfig",
          "name": "_tokenGateConfig",
          "type": "tuple"
        },
        {
          "internalType": "address",
          "name": "_metadataRenderer",
          "type": "address"
        }
      ],
      "name": "initialize",
      "outputs": [],
      "stateMutability": "nonpayable",
      "type": "function"
    },
    {
      "inputs": [
        {
          "internalType": "address",
          "name": "owner",
          "type": "address"
        },
        {
          "internalType": "address",
          "name": "operator",
          "type": "address"
        }
      ],
      "name": "isApprovedForAll",
      "outputs": [
        {
          "internalType": "bool",
          "name": "",
          "type": "bool"
        }
      ],
      "stateMutability": "view",
      "type": "function"
    },
    {
      "inputs": [],
      "name": "isSoulbound",
      "outputs": [
        {
          "internalType": "bool",
          "name": "",
          "type": "bool"
        }
      ],
      "stateMutability": "view",
      "type": "function"
    },
    {
      "inputs": [],
      "name": "maxTokenPurchase",
      "outputs": [
        {
          "internalType": "uint32",
          "name": "",
          "type": "uint32"
        }
      ],
      "stateMutability": "view",
      "type": "function"
    },
    {
      "inputs": [],
      "name": "metadataRenderer",
      "outputs": [
        {
          "internalType": "address",
          "name": "",
          "type": "address"
        }
      ],
      "stateMutability": "view",
      "type": "function"
    },
    {
      "inputs": [
        {
          "internalType": "address",
          "name": "to",
          "type": "address"
        },
        {
          "internalType": "uint256",
          "name": "numberOfTokens",
          "type": "uint256"
        }
      ],
      "name": "mint",
      "outputs": [],
      "stateMutability": "payable",
      "type": "function"
    },
    {
      "inputs": [
        {
          "internalType": "address[]",
          "name": "recipients",
          "type": "address[]"
        }
      ],
      "name": "mintAirdrop",
      "outputs": [],
      "stateMutability": "nonpayable",
      "type": "function"
    },
    {
      "inputs": [
        {
          "internalType": "uint256",
          "name": "quantity",
          "type": "uint256"
        }
      ],
      "name": "mintFee",
      "outputs": [
        {
          "internalType": "uint256",
          "name": "fee",
          "type": "uint256"
        }
      ],
      "stateMutability": "view",
      "type": "function"
    },
    {
      "inputs": [
        {
          "internalType": "address",
          "name": "to",
          "type": "address"
        },
        {
          "internalType": "uint256",
          "name": "quantity",
          "type": "uint256"
        },
        {
          "internalType": "uint256",
          "name": "maxQuantity",
          "type": "uint256"
        },
        {
          "internalType": "uint256",
          "name": "pricePerToken",
          "type": "uint256"
        },
        {
          "internalType": "bytes32[]",
          "name": "merkleProof",
          "type": "bytes32[]"
        }
      ],
      "name": "mintPresale",
      "outputs": [],
      "stateMutability": "payable",
      "type": "function"
    },
    {
      "inputs": [],
      "name": "name",
      "outputs": [
        {
          "internalType": "string",
          "name": "",
          "type": "string"
        }
      ],
      "stateMutability": "view",
      "type": "function"
    },
    {
      "inputs": [],
      "name": "operatorFilterRegistry",
      "outputs": [
        {
          "internalType": "contract IOperatorFilterRegistry",
          "name": "",
          "type": "address"
        }
      ],
      "stateMutability": "view",
      "type": "function"
    },
    {
      "inputs": [],
      "name": "owner",
      "outputs": [
        {
          "internalType": "address",
          "name": "",
          "type": "address"
        }
      ],
      "stateMutability": "view",
      "type": "function"
    },
    {
      "inputs": [
        {
          "internalType": "uint256",
          "name": "tokenId",
          "type": "uint256"
        }
      ],
      "name": "ownerOf",
      "outputs": [
        {
          "internalType": "address",
          "name": "",
          "type": "address"
        }
      ],
      "stateMutability": "view",
      "type": "function"
    },
    {
      "inputs": [],
      "name": "parentIP",
      "outputs": [
        {
          "internalType": "address",
          "name": "",
          "type": "address"
        }
      ],
      "stateMutability": "view",
      "type": "function"
    },
    {
      "inputs": [],
      "name": "payoutAddress",
      "outputs": [
        {
          "internalType": "address",
          "name": "",
          "type": "address"
        }
      ],
      "stateMutability": "view",
      "type": "function"
    },
    {
      "inputs": [],
      "name": "presaleEnd",
      "outputs": [
        {
          "internalType": "uint32",
          "name": "",
          "type": "uint32"
        }
      ],
      "stateMutability": "view",
      "type": "function"
    },
    {
      "inputs": [],
      "name": "presaleMerkleRoot",
      "outputs": [
        {
          "internalType": "bytes32",
          "name": "",
          "type": "bytes32"
        }
      ],
      "stateMutability": "view",
      "type": "function"
    },
    {
      "inputs": [],
      "name": "presaleStart",
      "outputs": [
        {
          "internalType": "uint32",
          "name": "",
          "type": "uint32"
        }
      ],
      "stateMutability": "view",
      "type": "function"
    },
    {
      "inputs": [],
      "name": "renounceOwnership",
      "outputs": [],
      "stateMutability": "nonpayable",
      "type": "function"
    },
    {
      "inputs": [
        {
          "internalType": "bytes32",
          "name": "role",
          "type": "bytes32"
        },
        {
          "internalType": "address",
          "name": "account",
          "type": "address"
        }
      ],
      "name": "renounceRole",
      "outputs": [],
      "stateMutability": "nonpayable",
      "type": "function"
    },
    {
      "inputs": [
        {
          "internalType": "uint256",
          "name": "numReserved",
          "type": "uint256"
        }
      ],
      "name": "reserveDCNT",
      "outputs": [],
      "stateMutability": "nonpayable",
      "type": "function"
    },
    {
      "inputs": [
        {
          "internalType": "bytes32",
          "name": "role",
          "type": "bytes32"
        },
        {
          "internalType": "address",
          "name": "account",
          "type": "address"
        }
      ],
      "name": "revokeRole",
      "outputs": [],
      "stateMutability": "nonpayable",
      "type": "function"
    },
    {
      "inputs": [],
      "name": "royaltyBPS",
      "outputs": [
        {
          "internalType": "uint16",
          "name": "",
          "type": "uint16"
        }
      ],
      "stateMutability": "view",
      "type": "function"
    },
    {
      "inputs": [
        {
          "internalType": "uint256",
          "name": "tokenId",
          "type": "uint256"
        },
        {
          "internalType": "uint256",
          "name": "salePrice",
          "type": "uint256"
        }
      ],
      "name": "royaltyInfo",
      "outputs": [
        {
          "internalType": "address",
          "name": "receiver",
          "type": "address"
        },
        {
          "internalType": "uint256",
          "name": "royaltyAmount",
          "type": "uint256"
        }
      ],
      "stateMutability": "view",
      "type": "function"
    },
    {
      "inputs": [
        {
          "internalType": "address",
          "name": "from",
          "type": "address"
        },
        {
          "internalType": "address",
          "name": "to",
          "type": "address"
        },
        {
          "internalType": "uint256",
          "name": "tokenId",
          "type": "uint256"
        }
      ],
      "name": "safeTransferFrom",
      "outputs": [],
      "stateMutability": "nonpayable",
      "type": "function"
    },
    {
      "inputs": [
        {
          "internalType": "address",
          "name": "from",
          "type": "address"
        },
        {
          "internalType": "address",
          "name": "to",
          "type": "address"
        },
        {
          "internalType": "uint256",
          "name": "tokenId",
          "type": "uint256"
        },
        {
          "internalType": "bytes",
          "name": "_data",
          "type": "bytes"
        }
      ],
      "name": "safeTransferFrom",
      "outputs": [],
      "stateMutability": "nonpayable",
      "type": "function"
    },
    {
      "inputs": [],
      "name": "saleEnd",
      "outputs": [
        {
          "internalType": "uint32",
          "name": "",
          "type": "uint32"
        }
      ],
      "stateMutability": "view",
      "type": "function"
    },
    {
      "inputs": [],
      "name": "saleIsActive",
      "outputs": [
        {
          "internalType": "bool",
          "name": "_saleIsActive",
          "type": "bool"
        }
      ],
      "stateMutability": "view",
      "type": "function"
    },
    {
      "inputs": [],
      "name": "saleIsPaused",
      "outputs": [
        {
          "internalType": "bool",
          "name": "",
          "type": "bool"
        }
      ],
      "stateMutability": "view",
      "type": "function"
    },
    {
      "inputs": [],
      "name": "saleStart",
      "outputs": [
        {
          "internalType": "uint32",
          "name": "",
          "type": "uint32"
        }
      ],
      "stateMutability": "view",
      "type": "function"
    },
    {
      "inputs": [
        {
          "internalType": "address",
          "name": "operator",
          "type": "address"
        },
        {
          "internalType": "bool",
          "name": "approved",
          "type": "bool"
        }
      ],
      "name": "setApprovalForAll",
      "outputs": [],
      "stateMutability": "nonpayable",
      "type": "function"
    },
    {
      "inputs": [
        {
          "internalType": "string",
          "name": "uri",
          "type": "string"
        }
      ],
      "name": "setBaseURI",
      "outputs": [],
      "stateMutability": "nonpayable",
      "type": "function"
    },
    {
      "inputs": [
        {
          "internalType": "string",
          "name": "uri",
          "type": "string"
        }
      ],
      "name": "setContractURI",
      "outputs": [],
      "stateMutability": "nonpayable",
      "type": "function"
    },
    {
      "inputs": [
        {
          "internalType": "address",
          "name": "_metadataRenderer",
          "type": "address"
        }
      ],
      "name": "setMetadataRenderer",
      "outputs": [],
      "stateMutability": "nonpayable",
      "type": "function"
    },
    {
      "inputs": [
        {
          "internalType": "address",
          "name": "_payoutAddress",
          "type": "address"
        }
      ],
      "name": "setPayoutAddress",
      "outputs": [],
      "stateMutability": "nonpayable",
      "type": "function"
    },
    {
      "inputs": [
        {
          "internalType": "bytes32",
          "name": "_presaleMerkleRoot",
          "type": "bytes32"
        }
      ],
      "name": "setPresaleMerkleRoot",
      "outputs": [],
      "stateMutability": "nonpayable",
      "type": "function"
    },
    {
      "inputs": [
        {
          "components": [
            {
              "internalType": "address",
              "name": "tokenAddress",
              "type": "address"
            },
            {
              "internalType": "uint88",
              "name": "minBalance",
              "type": "uint88"
            },
            {
              "internalType": "enum SaleType",
              "name": "saleType",
              "type": "uint8"
            }
          ],
          "internalType": "struct TokenGateConfig",
          "name": "_tokenGateConfig",
          "type": "tuple"
        }
      ],
      "name": "setTokenGate",
      "outputs": [],
      "stateMutability": "nonpayable",
      "type": "function"
    },
    {
      "inputs": [
        {
          "internalType": "uint256",
          "name": "tokenId",
          "type": "uint256"
        },
        {
          "internalType": "address",
          "name": "user",
          "type": "address"
        },
        {
          "internalType": "uint64",
          "name": "expires",
          "type": "uint64"
        }
      ],
      "name": "setUser",
      "outputs": [],
      "stateMutability": "nonpayable",
      "type": "function"
    },
    {
      "inputs": [],
      "name": "splitMain",
      "outputs": [
        {
          "internalType": "address",
          "name": "",
          "type": "address"
        }
      ],
      "stateMutability": "view",
      "type": "function"
    },
    {
      "inputs": [],
      "name": "splitWallet",
      "outputs": [
        {
          "internalType": "address",
          "name": "",
          "type": "address"
        }
      ],
      "stateMutability": "view",
      "type": "function"
    },
    {
      "inputs": [
        {
          "internalType": "bytes4",
          "name": "interfaceId",
          "type": "bytes4"
        }
      ],
      "name": "supportsInterface",
      "outputs": [
        {
          "internalType": "bool",
          "name": "",
          "type": "bool"
        }
      ],
      "stateMutability": "view",
      "type": "function"
    },
    {
      "inputs": [],
      "name": "symbol",
      "outputs": [
        {
          "internalType": "string",
          "name": "",
          "type": "string"
        }
      ],
      "stateMutability": "view",
      "type": "function"
    },
    {
      "inputs": [],
      "name": "tokenGateConfig",
      "outputs": [
        {
          "internalType": "address",
          "name": "tokenAddress",
          "type": "address"
        },
        {
          "internalType": "uint88",
          "name": "minBalance",
          "type": "uint88"
        },
        {
          "internalType": "enum SaleType",
          "name": "saleType",
          "type": "uint8"
        }
      ],
      "stateMutability": "view",
      "type": "function"
    },
    {
      "inputs": [],
      "name": "tokenPrice",
      "outputs": [
        {
          "internalType": "uint96",
          "name": "",
          "type": "uint96"
        }
      ],
      "stateMutability": "view",
      "type": "function"
    },
    {
      "inputs": [
        {
          "internalType": "uint256",
          "name": "tokenId",
          "type": "uint256"
        }
      ],
      "name": "tokenURI",
      "outputs": [
        {
          "internalType": "string",
          "name": "",
          "type": "string"
        }
      ],
      "stateMutability": "view",
      "type": "function"
    },
    {
      "inputs": [],
      "name": "totalSupply",
      "outputs": [
        {
          "internalType": "uint256",
          "name": "",
          "type": "uint256"
        }
      ],
      "stateMutability": "view",
      "type": "function"
    },
    {
      "inputs": [
        {
          "internalType": "address",
          "name": "from",
          "type": "address"
        },
        {
          "internalType": "address",
          "name": "to",
          "type": "address"
        },
        {
          "internalType": "uint256",
          "name": "tokenId",
          "type": "uint256"
        }
      ],
      "name": "transferFrom",
      "outputs": [],
      "stateMutability": "nonpayable",
      "type": "function"
    },
    {
      "inputs": [
        {
          "internalType": "address",
          "name": "newOwner",
          "type": "address"
        }
      ],
      "name": "transferOwnership",
      "outputs": [],
      "stateMutability": "nonpayable",
      "type": "function"
    },
    {
      "inputs": [
        {
          "internalType": "uint256",
          "name": "transferETH",
          "type": "uint256"
        },
        {
          "internalType": "contract ERC20[]",
          "name": "tokens",
          "type": "address[]"
        }
      ],
      "name": "transferToSplit",
      "outputs": [],
      "stateMutability": "nonpayable",
      "type": "function"
    },
    {
      "inputs": [
        {
          "internalType": "bool",
          "name": "enable",
          "type": "bool"
        },
        {
          "internalType": "address",
          "name": "operatorFilter",
          "type": "address"
        }
      ],
      "name": "updateOperatorFilter",
      "outputs": [],
      "stateMutability": "nonpayable",
      "type": "function"
    },
    {
      "inputs": [
        {
          "internalType": "uint32",
          "name": "newStart",
          "type": "uint32"
        },
        {
          "internalType": "uint32",
          "name": "newEnd",
          "type": "uint32"
        }
      ],
      "name": "updatePresaleStartEnd",
      "outputs": [],
      "stateMutability": "nonpayable",
      "type": "function"
    },
    {
      "inputs": [
        {
          "internalType": "uint32",
          "name": "newStart",
          "type": "uint32"
        },
        {
          "internalType": "uint32",
          "name": "newEnd",
          "type": "uint32"
        }
      ],
      "name": "updateSaleStartEnd",
      "outputs": [],
      "stateMutability": "nonpayable",
      "type": "function"
    },
    {
      "inputs": [
        {
          "internalType": "uint256",
          "name": "tokenId",
          "type": "uint256"
        }
      ],
      "name": "userExpires",
      "outputs": [
        {
          "internalType": "uint256",
          "name": "",
          "type": "uint256"
        }
      ],
      "stateMutability": "view",
      "type": "function"
    },
    {
      "inputs": [
        {
          "internalType": "uint256",
          "name": "tokenId",
          "type": "uint256"
        }
      ],
      "name": "userOf",
      "outputs": [
        {
          "internalType": "address",
          "name": "",
          "type": "address"
        }
      ],
      "stateMutability": "view",
      "type": "function"
    },
    {
      "inputs": [],
      "name": "withdraw",
      "outputs": [],
      "stateMutability": "nonpayable",
      "type": "function"
    }
  ],
  "bytecode": "0x60a06040523480156200001157600080fd5b5060086200001f336200002e565b63ffffffff166080526200008a565b600a80546001600160a01b038381166201000081810262010000600160b01b031985161790945560405193909204169182907f8be0079c531659141344cd1fd0a4f28419497f9722a3daafe3b4186f6b6457e090600090a35050565b608051615588620000a66000396000610b8a01526155886000f3fe60806040526004361061043b5760003560e01c806379ab7c8e11610234578063c2f1f14a1161012e578063e8a3d485116100b6578063f2fde38b1161007a578063f2fde38b14610ea1578063f47c84c514610ec1578063f7eca6d014610ee2578063fd4fe8a814610eff578063ff45640d14610f1f57600080fd5b8063e8a3d48514610dee578063e985e9c514610e03578063eb8d244414610e4c578063ed1f24ad14610e61578063f0cc8b6214610e8157600080fd5b8063d0fb0203116100fd578063d0fb020314610d4b578063d547741f14610d6b578063de8801e514610d8b578063e030565e14610dad578063e6c350c114610dcd57600080fd5b8063c2f1f14a14610cb7578063c4559d5a14610ceb578063c595317014610d0b578063c87b56dd14610d2b57600080fd5b806395d89b41116101bc578063b0ccc31e11610180578063b0ccc31e14610c05578063b80476d014610c27578063b88d4fde14610c47578063b9c9d93a14610c67578063c10b935814610c9557600080fd5b806395d89b4114610b66578063a0a8e46014610b7b578063a217fddf14610bae578063a22cb46514610bc3578063ab0bcc4114610be357600080fd5b80638e98f86a116102035780638e98f86a146109c45780638fc88c4814610ade57806391d1485414610b0e578063931cf0f414610b2e578063938e3d7b14610b4657600080fd5b806379ab7c8e146109385780637ff9b596146109585780638a35ace3146109805780638da5cb5b146109a057600080fd5b80632d75fea61161034557806355f804b3116102cd5780636c1951ae116102915780636c1951ae146108a357806370319970146108c357806370a08231146108e3578063713b978714610903578063715018a61461092357600080fd5b806355f804b314610809578063569c66c5146108295780635b8d02d7146108495780636352211e1461086e5780636c0360eb1461088e57600080fd5b806334918dfd1161031457806334918dfd1461078c57806336568abe146107a15780633ccfd60b146107c157806340c10f19146107d657806342842e0e146107e957600080fd5b80632d75fea61461070c5780632f2ff15d1461072c57806333ea3e6d1461074c57806333ea51a81461076c57600080fd5b806318160ddd116103c857806323b872dd1161039757806323b872dd1461063d578063248a9ca31461065d578063284a44a81461068d57806328d7b276146106ad5780632a55205a146106cd57600080fd5b806318160ddd146105975780631dbdedbd146105ba57806322212e2b14610606578063229f3e291461061b57600080fd5b8063095ea7b31161040f578063095ea7b3146104f157806309aa3dcf146105115780630ad6c616146105445780630b8999f3146105645780630e769b2b1461057757600080fd5b80625f16fb1461044057806301ffc9a71461046257806306fdde0314610497578063081812fc146104b9575b600080fd5b34801561044c57600080fd5b5061046061045b366004614250565b610f3f565b005b34801561046e57600080fd5b5061048261047d36600461430d565b610ff6565b60405190151581526020015b60405180910390f35b3480156104a357600080fd5b506104ac611007565b60405161048e919061437a565b3480156104c557600080fd5b506104d96104d436600461438d565b611099565b6040516001600160a01b03909116815260200161048e565b3480156104fd57600080fd5b5061046061050c3660046143a6565b6110dd565b34801561051d57600080fd5b50600d54600160301b900463ffffffff165b60405163ffffffff909116815260200161048e565b34801561055057600080fd5b5061046061055f3660046143d2565b6110eb565b610460610572366004614405565b611152565b34801561058357600080fd5b50600b546104d9906001600160a01b031681565b3480156105a357600080fd5b50600154600054035b60405190815260200161048e565b3480156105c657600080fd5b506009546105f7906001600160a01b03811690600160a01b81046001600160581b031690600160f81b900460ff1683565b60405161048e9392919061448d565b34801561061257600080fd5b50600f546105ac565b34801561062757600080fd5b50600d54600160701b900463ffffffff1661052f565b34801561064957600080fd5b506104606106583660046144d8565b61163a565b34801561066957600080fd5b506105ac61067836600461438d565b60009081526008602052604090206001015490565b34801561069957600080fd5b506104606106a8366004614610565b6117e0565b3480156106b957600080fd5b506104606106c836600461438d565b611877565b3480156106d957600080fd5b506106ed6106e83660046146e4565b6118a3565b604080516001600160a01b03909316835260208301919091520161048e565b34801561071857600080fd5b5061046061072736600461471f565b61198e565b34801561073857600080fd5b50610460610747366004614758565b611bb5565b34801561075857600080fd5b5061046061076736600461477d565b611bda565b34801561077857600080fd5b5061046061078736600461480e565b611ce7565b34801561079857600080fd5b50610460611d36565b3480156107ad57600080fd5b506104606107bc366004614758565b611d7e565b3480156107cd57600080fd5b50610460611df8565b6104606107e43660046143a6565b611f3c565b3480156107f557600080fd5b506104606108043660046144d8565b6123e0565b34801561081557600080fd5b506104606108243660046148a8565b6123fb565b34801561083557600080fd5b50610460610844366004614a5e565b61242e565b34801561085557600080fd5b50600e54600160601b90046001600160a01b03166104d9565b34801561087a57600080fd5b506104d961088936600461438d565b61295f565b34801561089a57600080fd5b506104ac61296a565b3480156108af57600080fd5b506104606108be36600461438d565b6129f8565b3480156108cf57600080fd5b506012546104d9906001600160a01b031681565b3480156108ef57600080fd5b506105ac6108fe36600461480e565b612a93565b34801561090f57600080fd5b50600c546104d9906001600160a01b031681565b34801561092f57600080fd5b50610460612ae1565b34801561094457600080fd5b50610460610953366004614c29565b612af5565b34801561096457600080fd5b50600e546040516001600160601b03909116815260200161048e565b34801561098c57600080fd5b506105ac61099b36600461438d565b612b69565b3480156109ac57600080fd5b50600a546201000090046001600160a01b03166104d9565b3480156109d057600080fd5b50600d54600e54600f54610a5b9260ff8082169361010083049091169262010000830463ffffffff90811693600160301b8104821693600160501b8204831693600160701b8304841693600160901b8404811693600160b01b810490911692600160d01b90910461ffff16916001600160601b03821691600160601b90046001600160a01b0316908c565b604080519c15158d529a151560208d015263ffffffff998a169a8c019a909a5296881660608b015294871660808a015292861660a089015290851660c088015290931660e086015261ffff9092166101008501526001600160601b039091166101208401526001600160a01b03166101408301526101608201526101800161048e565b348015610aea57600080fd5b506105ac610af936600461438d565b60009081526015602052604090205460a01c90565b348015610b1a57600080fd5b50610482610b29366004614758565b612c05565b348015610b3a57600080fd5b50600d5460ff16610482565b348015610b5257600080fd5b50610460610b613660046148a8565b612c30565b348015610b7257600080fd5b506104ac612c63565b348015610b8757600080fd5b507f000000000000000000000000000000000000000000000000000000000000000061052f565b348015610bba57600080fd5b506105ac600081565b348015610bcf57600080fd5b50610460610bde366004614c65565b612c72565b348015610bef57600080fd5b50600d54600160901b900463ffffffff1661052f565b348015610c1157600080fd5b506104d96daaeb6d7670e522a718067333cd4e81565b348015610c3357600080fd5b50610460610c42366004614c93565b612c7c565b348015610c5357600080fd5b50610460610c62366004614cae565b612d7b565b348015610c7357600080fd5b50600d54600160d01b900461ffff1660405161ffff909116815260200161048e565b348015610ca157600080fd5b50600d54600160b01b900463ffffffff1661052f565b348015610cc357600080fd5b506104d9610cd236600461438d565b6000908152601560205260409020544260a01b81110290565b348015610cf757600080fd5b50610460610d06366004614d19565b612dc5565b348015610d1757600080fd5b50610460610d26366004614dac565b612e6f565b348015610d3757600080fd5b506104ac610d4636600461438d565b612f8e565b348015610d5757600080fd5b506014546104d9906001600160a01b031681565b348015610d7757600080fd5b50610460610d86366004614758565b612f99565b348015610d9757600080fd5b50600d54600160501b900463ffffffff1661052f565b348015610db957600080fd5b50610460610dc8366004614ded565b612fbe565b348015610dd957600080fd5b5060125461048290600160a01b900460ff1681565b348015610dfa57600080fd5b506104ac61308e565b348015610e0f57600080fd5b50610482610e1e366004614e3b565b6001600160a01b03918216600090815260076020908152604080832093909416825291909152205460ff1690565b348015610e5857600080fd5b5061048261312e565b348015610e6d57600080fd5b50610460610e7c3660046143d2565b613178565b348015610e8d57600080fd5b506013546104d9906001600160a01b031681565b348015610ead57600080fd5b50610460610ebc36600461480e565b6131df565b348015610ecd57600080fd5b50600d5462010000900463ffffffff1661052f565b348015610eee57600080fd5b50600d54610100900460ff16610482565b348015610f0b57600080fd5b50610460610f1a36600461480e565b613258565b348015610f2b57600080fd5b50610460610f3a366004614e59565b6132a1565b600c546001600160a01b0316610f705760405162461bcd60e51b8152600401610f6790614e71565b60405180910390fd5b610f79876132d5565b600b54600c54604051630ac0898160e11b81526001600160a01b0392831692631581130292610fbb929116908b908b908b908b908b908b908b90600401614f22565b600060405180830381600087803b158015610fd557600080fd5b505af1158015610fe9573d6000803e3d6000fd5b5050505050505050505050565b6000611001826133b9565b92915050565b60606002805461101690614f84565b80601f016020809104026020016040519081016040528092919081815260200182805461104290614f84565b801561108f5780601f106110645761010080835404028352916020019161108f565b820191906000526020600020905b81548152906001019060200180831161107257829003601f168201915b5050505050905090565b60006110a4826133e1565b6110c1576040516333d1c03960e21b815260040160405180910390fd5b506000908152600660205260409020546001600160a01b031690565b6110e78282613408565b5050565b6110f6600033612c05565b6111125760405162461bcd60e51b8152600401610f6790614fb8565b600d805467ffffffffffffffff60901b1916600160901b63ffffffff9485160263ffffffff60b01b191617600160b01b9290931691909102919091179055565b6009546001906001600160a01b0316158015906111bb57506000600954600160f81b900460ff16600281111561118a5761118a614477565b14806111bb57508080156111bb57506001600954600160f81b900460ff1660028111156111b9576111b9614477565b145b806111ec5750801580156111ec57506002600954600160f81b900460ff1660028111156111ea576111ea614477565b145b156112b8576009546040516370a0823160e01b8152336004820152600160a01b82046001600160581b0316916001600160a01b0316906370a08231906024016020604051808303816000875af115801561124a573d6000803e3d6000fd5b505050506040513d601f19601f8201168201806040525081019061126e9190614fdb565b10156112b85760405162461bcd60e51b81526020600482015260196024820152783237903737ba1037bbb7103932b8bab4b932b2103a37b5b2b760391b6044820152606401610f67565b600d54600160501b900463ffffffff1642108015906112e65750600d54600160701b900463ffffffff164211155b6113205760405162461bcd60e51b815260206004820152600b60248201526a6e6f742070726573616c6560a81b6044820152606401610f67565b600054601254600160a01b900460ff161561137d5760405162461bcd60e51b815260206004820152601b60248201527f53616c65206d7573742062652061637469766520746f206d696e7400000000006044820152606401610f67565b600d5462010000900463ffffffff16611396888361500a565b11156113b45760405162461bcd60e51b8152600401610f679061501d565b61143884848080602002602001604051908101604052809392919081815260200183836020028082843760009201919091525050600f546040516bffffffffffffffffffffffff1960608f901b166020820152603481018c9052605481018b905290925060740190506040516020818303038152906040528051906020012061341c565b6114735760405162461bcd60e51b815260206004820152600c60248201526b1b9bdd08185c1c1c9bdd995960a21b6044820152606401610f67565b60145460009081906001600160a01b03161561150257601454604051637096335b60e01b815260048101899052602481018b90526001600160a01b0390911690637096335b906044016040805180830381865afa1580156114d8573d6000803e3d6000fd5b505050506040513d601f19601f820116820180604052508101906114fc9190615052565b90925090505b60008261150f8b8a615076565b611519919061500a565b9050803410156115605760405162461bcd60e51b8152602060048201526012602482015271496e73756666696369656e742066756e647360701b6044820152606401610f67565b888a61156b8d612a93565b611575919061500a565b11156115b55760405162461bcd60e51b815260206004820152600f60248201526e6d696e74656420746f6f206d616e7960881b6044820152606401610f67565b6115bf8b8b613432565b6115d16115cc838561500a565b61344c565b60005b8a81101561162c57604080516001600160a01b038e168152602081018790526001909601957f30385c845b448a36257a6a1716e6ad2e1bc2cbe333cde1e69fe849ad6511adfe910160405180910390a16001016115d4565b505050505050505050505050565b600061164582613531565b9050836001600160a01b0316816001600160a01b0316146116785760405162a1148160e81b815260040160405180910390fd5b60008281526006602052604090208054338082146001600160a01b038816909114176116c5576116a88633610e1e565b6116c557604051632ce44b5f60e11b815260040160405180910390fd5b6001600160a01b0385166116ec57604051633a954ecd60e21b815260040160405180910390fd5b6116f9868686600161359f565b801561170457600082555b6001600160a01b038681166000908152600560205260408082208054600019019055918716808252919020805460010190554260a01b17600160e11b17600085815260046020526040812091909155600160e11b84169003611796576001840160008181526004602052604081205490036117945760005481146117945760008181526004602052604090208490555b505b83856001600160a01b0316876001600160a01b03167fddf252ad1be2c89b69c2b068fc378daa952ba7f163c4a11628f55a4df523b3ef60405160405180910390a45b505050505050565b600c546001600160a01b03166118085760405162461bcd60e51b8152600401610f6790614e71565b871561181c5761181c868686868686612dc5565b60005b87518110156118605761185088828151811061183d5761183d61508d565b6020026020010151888888888888610f3f565b611859816150a3565b905061181f565b5061186c8989896135ab565b505050505050505050565b611882600033612c05565b61189e5760405162461bcd60e51b8152600401610f6790614fb8565b600f55565b6000806118af846133e1565b6118ef5760405162461bcd60e51b81526020600482015260116024820152702737b732bc34b9ba32b73a103a37b5b2b760791b6044820152606401610f67565b600c546001600160a01b03161561191357600c546001600160a01b0316915061195a565b600e54600160601b90046001600160a01b03161561194557600e54600160601b90046001600160a01b0316915061195a565b600a546201000090046001600160a01b031691505b600d546000906127109061197990600160d01b900461ffff1686615076565b61198391906150bc565b9150505b9250929050565b611999600033612c05565b6119b55760405162461bcd60e51b8152600401610f6790614fb8565b60405163c3c5a54760e01b81523060048201819052906daaeb6d7670e522a718067333cd4e9063c3c5a547906024016020604051808303816000875af1158015611a03573d6000803e3d6000fd5b505050506040513d601f19601f82011682018060405250810190611a2791906150de565b158015611a315750825b15611aab57604051633e9f1edf60e11b81526001600160a01b038083166004830152831660248201526daaeb6d7670e522a718067333cd4e90637d3e3dbe906044015b600060405180830381600087803b158015611a8e57600080fd5b505af1158015611aa2573d6000803e3d6000fd5b50505050505050565b8215611af357604051632cc5350560e21b81526001600160a01b038083166004830152831660248201526daaeb6d7670e522a718067333cd4e9063b314d41490604401611a74565b60405163034a0dc160e41b81526001600160a01b0382166004820152600060248201526daaeb6d7670e522a718067333cd4e906334a0dc1090604401600060405180830381600087803b158015611b4957600080fd5b505af1158015611b5d573d6000803e3d6000fd5b5050604051631761612360e11b81526001600160a01b03841660048201526daaeb6d7670e522a718067333cd4e9250632ec2c2469150602401600060405180830381600087803b158015611a8e57600080fd5b505050565b600082815260086020526040902060010154611bd0816135df565b611bb083836135e9565b611be261366f565b600c546001600160a01b031615611c335760405162461bcd60e51b815260206004820152601560248201527414dc1b1a5d08185b1c9958591e4818dc99585d1959605a1b6044820152606401610f67565b600b80546001600160a01b0319166001600160a01b038816908117909155604051633b00fbc160e11b8152637601f78290611c7c908890889088908890889033906004016150fb565b6020604051808303816000875af1158015611c9b573d6000803e3d6000fd5b505050506040513d601f19601f82011682018060405250810190611cbf919061514c565b600c80546001600160a01b0319166001600160a01b0392909216919091179055505050505050565b611cf2600033612c05565b611d0e5760405162461bcd60e51b8152600401610f6790614fb8565b600e80546001600160a01b03909216600160601b026001600160601b03909216919091179055565b611d41600033612c05565b611d5d5760405162461bcd60e51b8152600401610f6790614fb8565b6012805460ff60a01b198116600160a01b9182900460ff1615909102179055565b6001600160a01b0381163314611dee5760405162461bcd60e51b815260206004820152602f60248201527f416363657373436f6e74726f6c3a2063616e206f6e6c792072656e6f756e636560448201526e103937b632b9903337b91039b2b63360891b6064820152608401610f67565b6110e782826136d0565b600c546001600160a01b031615611e5d5760405162461bcd60e51b8152602060048201526024808201527f43616e6e6f74207769746864726177207769746820616e2061637469766520736044820152631c1b1a5d60e21b6064820152608401610f67565b600e54600090600160601b90046001600160a01b0316611e8e57600a546201000090046001600160a01b0316611ea2565b600e54600160601b90046001600160a01b03165b90506000816001600160a01b03164760405160006040518083038185875af1925050503d8060008114611ef1576040519150601f19603f3d011682016040523d82523d6000602084013e611ef6565b606091505b50509050806110e75760405162461bcd60e51b8152602060048201526012602482015271436f756c64206e6f7420776974686472617760701b6044820152606401610f67565b6009546000906001600160a01b031615801590611fa557506000600954600160f81b900460ff166002811115611f7457611f74614477565b1480611fa55750808015611fa557506001600954600160f81b900460ff166002811115611fa357611fa3614477565b145b80611fd6575080158015611fd657506002600954600160f81b900460ff166002811115611fd457611fd4614477565b145b156120a2576009546040516370a0823160e01b8152336004820152600160a01b82046001600160581b0316916001600160a01b0316906370a08231906024016020604051808303816000875af1158015612034573d6000803e3d6000fd5b505050506040513d601f19601f820116820180604052508101906120589190614fdb565b10156120a25760405162461bcd60e51b81526020600482015260196024820152783237903737ba1037bbb7103932b8bab4b932b2103a37b5b2b760391b6044820152606401610f67565b600054600d54600160901b900463ffffffff1642108015906120d35750600d54600160b01b900463ffffffff164211155b6121175760405162461bcd60e51b815260206004820152601560248201527429b0b632b99030b932903737ba1030b1ba34bb329760591b6044820152606401610f67565b601254600160a01b900460ff16156121715760405162461bcd60e51b815260206004820152601b60248201527f53616c65206d7573742062652061637469766520746f206d696e7400000000006044820152606401610f67565b600d5462010000900463ffffffff1661218a848361500a565b11156121a85760405162461bcd60e51b8152600401610f679061501d565b600d5462010000900463ffffffff168111156121f15760405162461bcd60e51b815260206004820152600860248201526714d3d3110813d55560c21b6044820152606401610f67565b60145460009081906001600160a01b03161561228c57601454600e54604051637096335b60e01b81526001600160601b039091166004820152602481018790526001600160a01b0390911690637096335b906044016040805180830381865afa158015612262573d6000803e3d6000fd5b505050506040513d601f19601f820116820180604052508101906122869190615052565b90925090505b600e5460009083906122a89088906001600160601b0316615076565b6122b2919061500a565b9050803410156122f95760405162461bcd60e51b8152602060048201526012602482015271496e73756666696369656e742066756e647360701b6044820152606401610f67565b600d54600160301b900463ffffffff161561236d57600d54600160301b900463ffffffff1686111561236d5760405162461bcd60e51b815260206004820152601c60248201527f4578636565646564206d6178206e756d62657220706572206d696e74000000006044820152606401610f67565b6123778787613432565b60005b868110156123d257604080516001600160a01b038a168152602081018790526001909601957f30385c845b448a36257a6a1716e6ad2e1bc2cbe333cde1e69fe849ad6511adfe910160405180910390a160010161237a565b50611aa26115cc838561500a565b611bb083838360405180602001604052806000815250612d7b565b612406600033612c05565b6124225760405162461bcd60e51b8152600401610f6790614fb8565b60106110e782826151af565b600a54610100900460ff161580801561244e5750600a54600160ff909116105b806124685750303b1580156124685750600a5460ff166001145b6124cb5760405162461bcd60e51b815260206004820152602e60248201527f496e697469616c697a61626c653a20636f6e747261637420697320616c72656160448201526d191e481a5b9a5d1a585b1a5e995960921b6064820152608401610f67565b600a805460ff1916600117905580156124ee57600a805461ff0019166101001790555b6124f786613737565b6125026000876135e9565b845160029061251190826151af565b50602085015160039061252490826151af565b5060008055610180850151601480546001600160a01b039283166001600160a01b0319918216179091556060860151601380549184169190921617905583516009805460208701516001600160581b0316600160a01b026001600160f81b0319909116929093169190911791909117808255604085015185929182906001600160f81b0316600160f81b8360028111156125c0576125c0614477565b0217905550905050604051806101800160405280866040015115158152602001866060015115158152602001866080015163ffffffff1681526020018660a0015163ffffffff1681526020018660c0015163ffffffff1681526020018660e0015163ffffffff16815260200186610100015163ffffffff16815260200186610120015163ffffffff16815260200186610140015161ffff1681526020018661016001516001600160601b03168152602001866101a001516001600160a01b03168152602001866101c00151815250600d60008201518160000160006101000a81548160ff02191690831515021790555060208201518160000160016101000a81548160ff02191690831515021790555060408201518160000160026101000a81548163ffffffff021916908363ffffffff16021790555060608201518160000160066101000a81548163ffffffff021916908363ffffffff160217905550608082015181600001600a6101000a81548163ffffffff021916908363ffffffff16021790555060a082015181600001600e6101000a81548163ffffffff021916908363ffffffff16021790555060c08201518160000160126101000a81548163ffffffff021916908363ffffffff16021790555060e08201518160000160166101000a81548163ffffffff021916908363ffffffff16021790555061010082015181600001601a6101000a81548161ffff021916908361ffff1602179055506101208201518160010160006101000a8154816001600160601b0302191690836001600160601b0316021790555061014082015181600101600c6101000a8154816001600160a01b0302191690836001600160a01b03160217905550610160820151816002015590505060006001600160a01b0316826001600160a01b03161415801561287057506000846040015151115b156128ee57601280546001600160a01b0319166001600160a01b03841690811790915560408581015190516342b53ffd60e11b815263856a7ffa916128b79160040161437a565b600060405180830381600087803b1580156128d157600080fd5b505af11580156128e5573d6000803e3d6000fd5b50505050612912565b83516011906128fd90826151af565b50602084015160109061291090826151af565b505b80156117d857600a805461ff0019169055604051600181527f7f26b83ff96e1f2b6a682f133852f6798a09c465da95921460cefb38474024989060200160405180910390a1505050505050565b600061100182613531565b6010805461297790614f84565b80601f01602080910402602001604051908101604052809291908181526020018280546129a390614f84565b80156129f05780601f106129c5576101008083540402835291602001916129f0565b820191906000526020600020905b8154815290600101906020018083116129d357829003601f168201915b505050505081565b612a03600033612c05565b612a1f5760405162461bcd60e51b8152600401610f6790614fb8565b600054600d5462010000900463ffffffff16612a3b838361500a565b10612a585760405162461bcd60e51b8152600401610f679061501d565b60005b82811015611bb057612a8133612a71838561500a565b612a7c90600161500a565b613432565b80612a8b816150a3565b915050612a5b565b60006001600160a01b038216612abc576040516323d3ad8160e21b815260040160405180910390fd5b506001600160a01b03166000908152600560205260409020546001600160401b031690565b612ae961366f565b612af36000613737565b565b600c546001600160a01b0316612b1d5760405162461bcd60e51b8152600401610f6790614e71565b8115612b2b57612b2b613793565b60005b8151811015611bb057612b59828281518110612b4c57612b4c61508d565b60200260200101516132d5565b612b62816150a3565b9050612b2e565b6014546000906001600160a01b031615612c0057601454600e54604051637096335b60e01b81526001600160601b039091166004820152602481018490526001600160a01b0390911690637096335b906044016040805180830381865afa158015612bd8573d6000803e3d6000fd5b505050506040513d601f19601f82011682018060405250810190612bfc9190615052565b5090505b919050565b60009182526008602090815260408084206001600160a01b0393909316845291905290205460ff1690565b612c3b600033612c05565b612c575760405162461bcd60e51b8152600401610f6790614fb8565b60116110e782826151af565b60606003805461101690614f84565b6110e78282613836565b612c87600033612c05565b612ca35760405162461bcd60e51b8152600401610f6790614fb8565b600d5460ff16612d035760405162461bcd60e51b815260206004820152602560248201527f63616e6e6f742061646a7573742073697a65206f66207468697320636f6c6c6560448201526431ba34b7b760d91b6064820152608401610f67565b8063ffffffff16612d1360005490565b1115612d575760405162461bcd60e51b8152602060048201526013602482015272063616e6e6f742064656372656173652063617606c1b6044820152606401610f67565b600d805463ffffffff909216620100000265ffffffff000019909216919091179055565b612d8684848461163a565b6001600160a01b0383163b15612dbf57612da28484848461384a565b612dbf576040516368d2bf6b60e11b815260040160405180910390fd5b50505050565b600c546001600160a01b0316612ded5760405162461bcd60e51b8152600401610f6790614e71565b612df5613793565b600b54600c5460405163730e582f60e11b81526001600160a01b039283169263e61cb05e92612e35929116908a908a908a908a908a908a9060040161526e565b600060405180830381600087803b158015612e4f57600080fd5b505af1158015612e63573d6000803e3d6000fd5b50505050505050505050565b612e7a600033612c05565b612e965760405162461bcd60e51b8152600401610f6790614fb8565b600054600d54819062010000900463ffffffff16612eb4848361500a565b1115612ed25760405162461bcd60e51b8152600401610f679061501d565b8183015b80831015612f8757612f118585848603818110612ef557612ef561508d565b9050602002016020810190612f0a919061480e565b6001613432565b7f30385c845b448a36257a6a1716e6ad2e1bc2cbe333cde1e69fe849ad6511adfe8585848603818110612f4657612f4661508d565b9050602002016020810190612f5b919061480e565b604080516001600160a01b039092168252602082018690520160405180910390a1600190920191612ed6565b5050505050565b606061100182613936565b600082815260086020526040902060010154612fb4816135df565b611bb083836136d0565b6000612fc98461295f565b9050336001600160a01b0382161461301a57612fe58133610e1e565b61301a5733612ff385611099565b6001600160a01b03161461301a576040516309e3bb1d60e31b815260040160405180910390fd5b6000848152601560209081526040918290206001600160a01b03861660a086901b67ffffffffffffffff60a01b16811790915591516001600160401b038516815286917f4e06b4e7000e659094299b3533b47b6aa8ad048e95e872d23d1f4ee55af89cfe910160405180910390a350505050565b6012546060906001600160a01b03166130ae576011805461101690614f84565b601260009054906101000a90046001600160a01b03166001600160a01b031663e8a3d4856040518163ffffffff1660e01b8152600401600060405180830381865afa158015613101573d6000803e3d6000fd5b505050506040513d6000823e601f3d908101601f1916820160405261312991908101906152c7565b905090565b600d54600090600160901b900463ffffffff16421080159061315f5750600d54600160b01b900463ffffffff164211155b8015613129575050601254600160a01b900460ff161590565b613183600033612c05565b61319f5760405162461bcd60e51b8152600401610f6790614fb8565b600d805467ffffffffffffffff60501b1916600160501b63ffffffff9485160263ffffffff60701b191617600160701b9290931691909102919091179055565b6131e761366f565b6001600160a01b03811661324c5760405162461bcd60e51b815260206004820152602660248201527f4f776e61626c653a206e6577206f776e657220697320746865207a65726f206160448201526564647265737360d01b6064820152608401610f67565b61325581613737565b50565b613263600033612c05565b61327f5760405162461bcd60e51b8152600401610f6790614fb8565b601280546001600160a01b0319166001600160a01b0392909216919091179055565b6132ac600033612c05565b6132c85760405162461bcd60e51b8152600401610f6790614fb8565b806009611bb0828261533d565b6040516370a0823160e01b81523060048201526000906001600160a01b038316906370a0823190602401602060405180830381865afa15801561331c573d6000803e3d6000fd5b505050506040513d601f19601f820116820180604052508101906133409190614fdb565b600c5460405163a9059cbb60e01b81526001600160a01b0391821660048201526024810183905291925083169063a9059cbb906044016020604051808303816000875af1158015613395573d6000803e3d6000fd5b505050506040513d601f19601f82011682018060405250810190611bb091906150de565b60006133c4826139e9565b806110015750506001600160e01b031916632b424ad760e21b1490565b6000805482108015611001575050600090815260046020526040902054600160e01b161590565b8161341281613a2c565b611bb08383613ae5565b6000826134298584613b85565b14949350505050565b6110e7828260405180602001604052806000815250613bd2565b801561325557601454604080516319b400eb60e21b815290516000926001600160a01b0316916366d003ac9160048083019260209291908290030181865afa15801561349c573d6000803e3d6000fd5b505050506040513d601f19601f820116820180604052508101906134c0919061514c565b6001600160a01b03168260405160006040518083038185875af1925050503d806000811461350a576040519150601f19603f3d011682016040523d82523d6000602084013e61350f565b606091505b50509050806110e757604051634033e4e360e01b815260040160405180910390fd5b6000816000548110156135865760008181526004602052604081205490600160e01b82169003613584575b8060000361357d57506000190160008181526004602052604090205461355c565b9392505050565b505b604051636f96cda160e11b815260040160405180910390fd5b612dbf84848484613c38565b600b54604051636e5f691960e01b81526001600160a01b0390911690636e5f691990611a74908690869086906004016153da565b6132558133613cb9565b6135f38282612c05565b6110e75760008281526008602090815260408083206001600160a01b03851684529091529020805460ff1916600117905561362b3390565b6001600160a01b0316816001600160a01b0316837f2f8788117e7eff1d82e926ec794901d17c78024a50270940304540a733656f0d60405160405180910390a45050565b600a546001600160a01b0362010000909104163314612af35760405162461bcd60e51b815260206004820181905260248201527f4f776e61626c653a2063616c6c6572206973206e6f7420746865206f776e65726044820152606401610f67565b6136da8282612c05565b156110e75760008281526008602090815260408083206001600160a01b0385168085529252808320805460ff1916905551339285917ff6391f5c32d9c69d2a47ea670b442974b53935d1edc7fd64eb21e047a839171b9190a45050565b600a80546001600160a01b038381166201000081810262010000600160b01b031985161790945560405193909204169182907f8be0079c531659141344cd1fd0a4f28419497f9722a3daafe3b4186f6b6457e090600090a35050565b600c546040516000916001600160a01b03169047908381818185875af1925050503d80600081146137e0576040519150601f19603f3d011682016040523d82523d6000602084013e6137e5565b606091505b50509050806132555760405162461bcd60e51b815260206004820152601f60248201527f436f756c64206e6f74207472616e736665722045544820746f2073706c6974006044820152606401610f67565b8161384081613a2c565b611bb08383613d12565b604051630a85bd0160e11b81526000906001600160a01b0385169063150b7a029061387f90339089908890889060040161543d565b6020604051808303816000875af19250505080156138ba575060408051601f3d908101601f191682019092526138b79181019061547a565b60015b613918573d8080156138e8576040519150601f19603f3d011682016040523d82523d6000602084013e6138ed565b606091505b508051600003613910576040516368d2bf6b60e11b815260040160405180910390fd5b805181602001fd5b6001600160e01b031916630a85bd0160e11b1490505b949350505050565b6060613941826133e1565b61395e57604051630a14c4b560e41b815260040160405180910390fd5b6012546001600160a01b0316156139e05760125460405163c87b56dd60e01b8152600481018490526001600160a01b039091169063c87b56dd90602401600060405180830381865afa1580156139b8573d6000803e3d6000fd5b505050506040513d6000823e601f3d908101601f1916820160405261100191908101906152c7565b61100182613da7565b600063152a902d60e11b6001600160e01b031983161480613a0e5750613a0e82613e2a565b80613a1d5750613a1d82613e5f565b80611001575061100182613e2a565b6daaeb6d7670e522a718067333cd4e3b1561325557604051633185c44d60e21b81523060048201526001600160a01b03821660248201526daaeb6d7670e522a718067333cd4e9063c617113490604401602060405180830381865afa158015613a99573d6000803e3d6000fd5b505050506040513d601f19601f82011682018060405250810190613abd91906150de565b61325557604051633b79c77360e21b81526001600160a01b0382166004820152602401610f67565b6000613af08261295f565b9050336001600160a01b03821614613b2957613b0c8133610e1e565b613b29576040516367d9dca160e11b815260040160405180910390fd5b60008281526006602052604080822080546001600160a01b0319166001600160a01b0387811691821790925591518593918516917f8c5be1e5ebec7d5bd14f71427d1e84f3dd0314c0f7b2291e5b200ac8c7c3b92591a4505050565b600081815b8451811015613bca57613bb682868381518110613ba957613ba961508d565b6020026020010151613ead565b915080613bc2816150a3565b915050613b8a565b509392505050565b613bdc8383613ed9565b6001600160a01b0383163b15611bb0576000548281035b613c06600086838060010194508661384a565b613c23576040516368d2bf6b60e11b815260040160405180910390fd5b818110613bf3578160005414612f8757600080fd5b836001600160a01b0381163314613c5257613c5233613a2c565b600d54610100900460ff161580613c8157506001600160a01b0385161580613c8157506001600160a01b038416155b612f875760405162461bcd60e51b81526020600482015260096024820152681cdbdd5b189bdd5b9960ba1b6044820152606401610f67565b613cc38282612c05565b6110e757613cd081613fe4565b613cdb836020613ff6565b604051602001613cec929190615497565b60408051601f198184030181529082905262461bcd60e51b8252610f679160040161437a565b336001600160a01b03831603613d3b5760405163b06307db60e01b815260040160405180910390fd5b3360008181526007602090815260408083206001600160a01b03871680855290835292819020805460ff191686151590811790915590519081529192917f17307eab39ab6107e8899845ad3d59bd9653f200f220920489ca2b5937696c31910160405180910390a35050565b6060613db2826133e1565b613dcf57604051630a14c4b560e41b815260040160405180910390fd5b6000613dd9614191565b90508051600003613df9576040518060200160405280600081525061357d565b80613e03846141a0565b604051602001613e1492919061550c565b6040516020818303038152906040529392505050565b60006001600160e01b03198216637965db0b60e01b148061100157506301ffc9a760e01b6001600160e01b0319831614611001565b60006301ffc9a760e01b6001600160e01b031983161480613e9057506380ac58cd60e01b6001600160e01b03198316145b806110015750506001600160e01b031916635b5e139f60e01b1490565b6000818310613ec957600082815260208490526040902061357d565b5060009182526020526040902090565b6000805490829003613efe5760405163b562e8dd60e01b815260040160405180910390fd5b613f0b600084838561359f565b6001600160a01b03831660008181526005602090815260408083208054680100000000000000018802019055848352600490915281206001851460e11b4260a01b178317905582840190839083907fddf252ad1be2c89b69c2b068fc378daa952ba7f163c4a11628f55a4df523b3ef8180a4600183015b818114613fba57808360007fddf252ad1be2c89b69c2b068fc378daa952ba7f163c4a11628f55a4df523b3ef600080a4600101613f82565b5081600003613fdb57604051622e076360e81b815260040160405180910390fd5b60005550505050565b60606110016001600160a01b03831660145b60606000614005836002615076565b61401090600261500a565b6001600160401b0381111561402757614027614519565b6040519080825280601f01601f191660200182016040528015614051576020820181803683370190505b509050600360fc1b8160008151811061406c5761406c61508d565b60200101906001600160f81b031916908160001a905350600f60fb1b8160018151811061409b5761409b61508d565b60200101906001600160f81b031916908160001a90535060006140bf846002615076565b6140ca90600161500a565b90505b6001811115614142576f181899199a1a9b1b9c1cb0b131b232b360811b85600f16601081106140fe576140fe61508d565b1a60f81b8282815181106141145761411461508d565b60200101906001600160f81b031916908160001a90535060049490941c9361413b8161553b565b90506140cd565b50831561357d5760405162461bcd60e51b815260206004820181905260248201527f537472696e67733a20686578206c656e67746820696e73756666696369656e746044820152606401610f67565b60606010805461101690614f84565b604080516080019081905280825b600183039250600a81066030018353600a9004806141ae5750819003601f19909101908152919050565b6001600160a01b038116811461325557600080fd5b60008083601f8401126141ff57600080fd5b5081356001600160401b0381111561421657600080fd5b6020830191508360208260051b850101111561198757600080fd5b803563ffffffff81168114612c0057600080fd5b8035612c00816141d8565b600080600080600080600060a0888a03121561426b57600080fd5b8735614276816141d8565b965060208801356001600160401b038082111561429257600080fd5b61429e8b838c016141ed565b909850965060408a01359150808211156142b757600080fd5b506142c48a828b016141ed565b90955093506142d7905060608901614231565b915060808801356142e7816141d8565b8091505092959891949750929550565b6001600160e01b03198116811461325557600080fd5b60006020828403121561431f57600080fd5b813561357d816142f7565b60005b8381101561434557818101518382015260200161432d565b50506000910152565b6000815180845261436681602086016020860161432a565b601f01601f19169290920160200192915050565b60208152600061357d602083018461434e565b60006020828403121561439f57600080fd5b5035919050565b600080604083850312156143b957600080fd5b82356143c4816141d8565b946020939093013593505050565b600080604083850312156143e557600080fd5b6143ee83614231565b91506143fc60208401614231565b90509250929050565b60008060008060008060a0878903121561441e57600080fd5b8635614429816141d8565b955060208701359450604087013593506060870135925060808701356001600160401b0381111561445957600080fd5b61446589828a016141ed565b979a9699509497509295939492505050565b634e487b7160e01b600052602160045260246000fd5b6001600160a01b03841681526001600160581b038316602082015260608101600383106144ca57634e487b7160e01b600052602160045260246000fd5b826040830152949350505050565b6000806000606084860312156144ed57600080fd5b83356144f8816141d8565b92506020840135614508816141d8565b929592945050506040919091013590565b634e487b7160e01b600052604160045260246000fd5b6040516101e081016001600160401b038111828210171561455257614552614519565b60405290565b604051601f8201601f191681016001600160401b038111828210171561458057614580614519565b604052919050565b600082601f83011261459957600080fd5b813560206001600160401b038211156145b4576145b4614519565b8160051b6145c3828201614558565b92835284810182019282810190878511156145dd57600080fd5b83870192505b848310156146055782356145f6816141d8565b825291830191908301906145e3565b979650505050505050565b600080600080600080600080600060e08a8c03121561462e57600080fd5b8935614639816141d8565b985060208a0135975060408a01356001600160401b038082111561465c57600080fd5b6146688d838e01614588565b985060608c013591508082111561467e57600080fd5b61468a8d838e016141ed565b909850965060808c01359150808211156146a357600080fd5b506146b08c828d016141ed565b90955093506146c3905060a08b01614231565b915060c08a01356146d3816141d8565b809150509295985092959850929598565b600080604083850312156146f757600080fd5b50508035926020909101359150565b801515811461325557600080fd5b8035612c0081614706565b6000806040838503121561473257600080fd5b823561473d81614706565b9150602083013561474d816141d8565b809150509250929050565b6000806040838503121561476b57600080fd5b82359150602083013561474d816141d8565b6000806000806000806080878903121561479657600080fd5b86356147a1816141d8565b955060208701356001600160401b03808211156147bd57600080fd5b6147c98a838b016141ed565b909750955060408901359150808211156147e257600080fd5b506147ef89828a016141ed565b9094509250614802905060608801614231565b90509295509295509295565b60006020828403121561482057600080fd5b813561357d816141d8565b60006001600160401b0382111561484457614844614519565b50601f01601f191660200190565b600082601f83011261486357600080fd5b81356148766148718261482b565b614558565b81815284602083860101111561488b57600080fd5b816020850160208301376000918101602001919091529392505050565b6000602082840312156148ba57600080fd5b81356001600160401b038111156148d057600080fd5b61392e84828501614852565b803561ffff81168114612c0057600080fd5b80356001600160601b0381168114612c0057600080fd5b60006080828403121561491757600080fd5b604051608081016001600160401b03828210818311171561493a5761493a614519565b81604052829350843591508082111561495257600080fd5b61495e86838701614852565b8352602085013591508082111561497457600080fd5b61498086838701614852565b6020840152604085013591508082111561499957600080fd5b506149a685828601614852565b60408301525060608301356149ba816141d8565b6060919091015292915050565b6001600160581b038116811461325557600080fd5b6003811061325557600080fd5b6000606082840312156149fb57600080fd5b604051606081018181106001600160401b0382111715614a1d57614a1d614519565b6040529050808235614a2e816141d8565b81526020830135614a3e816149c7565b60208201526040830135614a51816149dc565b6040919091015292915050565b600080600080600060e08688031215614a7657600080fd5b8535614a81816141d8565b945060208601356001600160401b0380821115614a9d57600080fd5b908701906101e0828a031215614ab257600080fd5b614aba61452f565b823582811115614ac957600080fd5b614ad58b828601614852565b825250602083013582811115614aea57600080fd5b614af68b828601614852565b602083015250614b0860408401614714565b6040820152614b1960608401614714565b6060820152614b2a60808401614231565b6080820152614b3b60a08401614231565b60a0820152614b4c60c08401614231565b60c0820152614b5d60e08401614231565b60e0820152610100614b70818501614231565b90820152610120614b82848201614231565b90820152610140614b948482016148dc565b90820152610160614ba68482016148ee565b90820152610180614bb8848201614245565b908201526101a0614bca848201614245565b908201526101c0928301359281019290925290945060408701359080821115614bf257600080fd5b50614bff88828901614905565b935050614c0f87606088016149e9565b9150614c1d60c08701614245565b90509295509295909350565b60008060408385031215614c3c57600080fd5b8235915060208301356001600160401b03811115614c5957600080fd5b61198385828601614588565b60008060408385031215614c7857600080fd5b8235614c83816141d8565b9150602083013561474d81614706565b600060208284031215614ca557600080fd5b61357d82614231565b60008060008060808587031215614cc457600080fd5b8435614ccf816141d8565b93506020850135614cdf816141d8565b92506040850135915060608501356001600160401b03811115614d0157600080fd5b614d0d87828801614852565b91505092959194509250565b60008060008060008060808789031215614d3257600080fd5b86356001600160401b0380821115614d4957600080fd5b614d558a838b016141ed565b90985096506020890135915080821115614d6e57600080fd5b50614d7b89828a016141ed565b9095509350614d8e905060408801614231565b91506060870135614d9e816141d8565b809150509295509295509295565b60008060208385031215614dbf57600080fd5b82356001600160401b03811115614dd557600080fd5b614de1858286016141ed565b90969095509350505050565b600080600060608486031215614e0257600080fd5b833592506020840135614e14816141d8565b915060408401356001600160401b0381168114614e3057600080fd5b809150509250925092565b60008060408385031215614e4e57600080fd5b823561473d816141d8565b600060608284031215614e6b57600080fd5b50919050565b60208082526015908201527414dc1b1a5d081b9bdd0818dc99585d1959081e595d605a1b604082015260600190565b8183526000602080850194508260005b85811015614ede578135614ec3816141d8565b6001600160a01b031687529582019590820190600101614eb0565b509495945050505050565b8183526000602080850194508260005b85811015614ede5763ffffffff614f0f83614231565b1687529582019590820190600101614ef9565b600060018060a01b03808b168352808a16602084015260c06040840152614f4d60c08401898b614ea0565b8381036060850152614f6081888a614ee9565b63ffffffff969096166080850152509290921660a090910152509695505050505050565b600181811c90821680614f9857607f821691505b602082108103614e6b57634e487b7160e01b600052602260045260246000fd5b60208082526009908201526837b7363ca0b236b4b760b91b604082015260600190565b600060208284031215614fed57600080fd5b5051919050565b634e487b7160e01b600052601160045260246000fd5b8082018082111561100157611001614ff4565b6020808252818101527f507572636861736520776f756c6420657863656564206d617820737570706c79604082015260600190565b6000806040838503121561506557600080fd5b505080516020909101519092909150565b808202811582820484141761100157611001614ff4565b634e487b7160e01b600052603260045260246000fd5b6000600182016150b5576150b5614ff4565b5060010190565b6000826150d957634e487b7160e01b600052601260045260246000fd5b500490565b6000602082840312156150f057600080fd5b815161357d81614706565b60808152600061510f60808301888a614ea0565b8281036020840152615122818789614ee9565b63ffffffff95909516604084015250506001600160a01b0391909116606090910152949350505050565b60006020828403121561515e57600080fd5b815161357d816141d8565b601f821115611bb057600081815260208120601f850160051c810160208610156151905750805b601f850160051c820191505b818110156117d85782815560010161519c565b81516001600160401b038111156151c8576151c8614519565b6151dc816151d68454614f84565b84615169565b602080601f83116001811461521157600084156151f95750858301515b600019600386901b1c1916600185901b1785556117d8565b600085815260208120601f198616915b8281101561524057888601518255948401946001909101908401615221565b508582101561525e5787850151600019600388901b60f8161c191681555b5050505050600190811b01905550565b600060018060a01b03808a16835260a0602084015261529160a08401898b614ea0565b83810360408501526152a481888a614ee9565b63ffffffff96909616606085015250929092166080909101525095945050505050565b6000602082840312156152d957600080fd5b81516001600160401b038111156152ef57600080fd5b8201601f8101841361530057600080fd5b805161530e6148718261482b565b81815285602083850101111561532357600080fd5b61533482602083016020860161432a565b95945050505050565b8135615348816141d8565b81546001600160a01b031981166001600160a01b039290921691821783556020840135615374816149c7565b6affffffffffffffffffffff60a01b60a09190911b166001600160f81b03199182168317811784556040850135916153ab836149dc565b600383106153c957634e487b7160e01b600052602160045260246000fd5b921760f89190911b90911617905550565b6001600160a01b038481168252602080830185905260606040840181905284519084018190526000928583019290916080860190855b8181101561542e578551851683529483019491830191600101615410565b50909998505050505050505050565b6001600160a01b03858116825284166020820152604081018390526080606082018190526000906154709083018461434e565b9695505050505050565b60006020828403121561548c57600080fd5b815161357d816142f7565b7f416363657373436f6e74726f6c3a206163636f756e74200000000000000000008152600083516154cf81601785016020880161432a565b7001034b99036b4b9b9b4b733903937b6329607d1b601791840191820152835161550081602884016020880161432a565b01602801949350505050565b6000835161551e81846020880161432a565b83519083019061553281836020880161432a565b01949350505050565b60008161554a5761554a614ff4565b50600019019056fea2646970667358221220804dccc3fc9d59dbcadf788effae1391bb59115938ef7dd6113d49c980c5f83964736f6c63430008110033",
  "linkReferences": {},
  "deployedLinkReferences": {}
}