{
  "_format": "hh-sol-artifact-1",
  "contractName": "DCNTVaultNFT",
  "sourceName": "contracts/DCNTVaultNFT.sol",
  "abi": [
    {
      "inputs": [
        {
          "internalType": "address",
          "name": "_DCNTSDK",
          "type": "address"
        }
      ],
      "stateMutability": "nonpayable",
      "type": "constructor"
    },
    {
      "anonymous": false,
      "inputs": [
        {
          "indexed": false,
          "internalType": "address",
          "name": "nft",
          "type": "address"
        },
        {
          "indexed": false,
          "internalType": "address",
          "name": "vault",
          "type": "address"
        }
      ],
      "name": "Create",
      "type": "event"
    },
    {
      "anonymous": false,
      "inputs": [
        {
          "indexed": true,
          "internalType": "address",
          "name": "previousOwner",
          "type": "address"
        },
        {
          "indexed": true,
          "internalType": "address",
          "name": "newOwner",
          "type": "address"
        }
      ],
      "name": "OwnershipTransferred",
      "type": "event"
    },
    {
      "inputs": [],
      "name": "DCNT4907AImplementation",
      "outputs": [
        {
          "internalType": "address",
          "name": "",
          "type": "address"
        }
      ],
      "stateMutability": "view",
      "type": "function"
    },
    {
      "inputs": [],
      "name": "DCNT721AImplementation",
      "outputs": [
        {
          "internalType": "address",
          "name": "",
          "type": "address"
        }
      ],
      "stateMutability": "view",
      "type": "function"
    },
    {
      "inputs": [],
      "name": "DCNTCrescendoImplementation",
      "outputs": [
        {
          "internalType": "address",
          "name": "",
          "type": "address"
        }
      ],
      "stateMutability": "view",
      "type": "function"
    },
    {
      "inputs": [],
      "name": "DCNTStakingImplementation",
      "outputs": [
        {
          "internalType": "address",
          "name": "",
          "type": "address"
        }
      ],
      "stateMutability": "view",
      "type": "function"
    },
    {
      "inputs": [],
      "name": "DCNTVaultImplementation",
      "outputs": [
        {
          "internalType": "address",
          "name": "",
          "type": "address"
        }
      ],
      "stateMutability": "view",
      "type": "function"
    },
    {
      "inputs": [],
      "name": "SplitMain",
      "outputs": [
        {
          "internalType": "address",
          "name": "",
          "type": "address"
        }
      ],
      "stateMutability": "view",
      "type": "function"
    },
    {
      "inputs": [],
      "name": "contractRegistry",
      "outputs": [
        {
          "internalType": "address",
          "name": "",
          "type": "address"
        }
      ],
      "stateMutability": "view",
      "type": "function"
    },
    {
      "inputs": [
        {
          "internalType": "address",
          "name": "_DCNTSDK",
          "type": "address"
        },
        {
          "components": [
            {
              "internalType": "string",
              "name": "name",
              "type": "string"
            },
            {
              "internalType": "string",
              "name": "symbol",
              "type": "string"
            },
            {
              "internalType": "uint256",
              "name": "maxTokens",
              "type": "uint256"
            },
            {
              "internalType": "uint256",
              "name": "tokenPrice",
              "type": "uint256"
            },
            {
              "internalType": "uint256",
              "name": "maxTokenPurchase",
              "type": "uint256"
            },
            {
              "internalType": "uint256",
              "name": "saleStart",
              "type": "uint256"
            },
            {
              "internalType": "uint256",
              "name": "royaltyBPS",
              "type": "uint256"
            }
          ],
          "internalType": "struct EditionConfig",
          "name": "_editionConfig",
          "type": "tuple"
        },
        {
          "components": [
            {
              "internalType": "string",
              "name": "metadataURI",
              "type": "string"
            },
            {
              "internalType": "bytes",
              "name": "metadataRendererInit",
              "type": "bytes"
            }
          ],
          "internalType": "struct MetadataConfig",
          "name": "_metadataConfig",
          "type": "tuple"
        },
        {
          "internalType": "address",
          "name": "_vaultDistributionTokenAddress",
          "type": "address"
        },
        {
          "internalType": "uint256",
          "name": "_unlockDate",
          "type": "uint256"
        },
        {
          "internalType": "bool",
          "name": "_supports4907",
          "type": "bool"
        }
      ],
      "name": "create",
      "outputs": [
        {
          "internalType": "address",
          "name": "nft",
          "type": "address"
        },
        {
          "internalType": "address",
          "name": "vault",
          "type": "address"
        }
      ],
      "stateMutability": "nonpayable",
      "type": "function"
    },
    {
      "inputs": [],
      "name": "metadataRenderer",
      "outputs": [
        {
          "internalType": "address",
          "name": "",
          "type": "address"
        }
      ],
      "stateMutability": "view",
      "type": "function"
    },
    {
      "inputs": [],
      "name": "owner",
      "outputs": [
        {
          "internalType": "address",
          "name": "",
          "type": "address"
        }
      ],
      "stateMutability": "view",
      "type": "function"
    },
    {
      "inputs": [],
      "name": "renounceOwnership",
      "outputs": [],
      "stateMutability": "nonpayable",
      "type": "function"
    },
    {
      "inputs": [
        {
          "internalType": "address",
          "name": "newOwner",
          "type": "address"
        }
      ],
      "name": "transferOwnership",
      "outputs": [],
      "stateMutability": "nonpayable",
      "type": "function"
    }
  ],
  "bytecode": "0x60806040523480156200001157600080fd5b506040516200197938038062001979833981810160405281019062000037919062000632565b620000576200004b620004fc60201b60201c565b6200050460201b60201c565b60008190508073ffffffffffffffffffffffffffffffffffffffff166310a089136040518163ffffffff1660e01b8152600401602060405180830381600087803b158015620000a557600080fd5b505af1158015620000ba573d6000803e3d6000fd5b505050506040513d601f19601f82011682018060405250810190620000e0919062000632565b600160006101000a81548173ffffffffffffffffffffffffffffffffffffffff021916908373ffffffffffffffffffffffffffffffffffffffff1602179055508073ffffffffffffffffffffffffffffffffffffffff16634285656b6040518163ffffffff1660e01b8152600401602060405180830381600087803b1580156200016957600080fd5b505af11580156200017e573d6000803e3d6000fd5b505050506040513d601f19601f82011682018060405250810190620001a4919062000632565b600260006101000a81548173ffffffffffffffffffffffffffffffffffffffff021916908373ffffffffffffffffffffffffffffffffffffffff1602179055508073ffffffffffffffffffffffffffffffffffffffff16639f61dfec6040518163ffffffff1660e01b8152600401602060405180830381600087803b1580156200022d57600080fd5b505af115801562000242573d6000803e3d6000fd5b505050506040513d601f19601f8201168201806040525081019062000268919062000632565b600460006101000a81548173ffffffffffffffffffffffffffffffffffffffff021916908373ffffffffffffffffffffffffffffffffffffffff1602179055508073ffffffffffffffffffffffffffffffffffffffff1663703199706040518163ffffffff1660e01b8152600401602060405180830381600087803b158015620002f157600080fd5b505af115801562000306573d6000803e3d6000fd5b505050506040513d601f19601f820116820180604052508101906200032c919062000632565b600660006101000a81548173ffffffffffffffffffffffffffffffffffffffff021916908373ffffffffffffffffffffffffffffffffffffffff1602179055508073ffffffffffffffffffffffffffffffffffffffff1663abf410e56040518163ffffffff1660e01b8152600401602060405180830381600087803b158015620003b557600080fd5b505af1158015620003ca573d6000803e3d6000fd5b505050506040513d601f19601f82011682018060405250810190620003f0919062000632565b600760006101000a81548173ffffffffffffffffffffffffffffffffffffffff021916908373ffffffffffffffffffffffffffffffffffffffff1602179055508073ffffffffffffffffffffffffffffffffffffffff1663eef702e96040518163ffffffff1660e01b8152600401602060405180830381600087803b1580156200047957600080fd5b505af11580156200048e573d6000803e3d6000fd5b505050506040513d601f19601f82011682018060405250810190620004b4919062000632565b600860006101000a81548173ffffffffffffffffffffffffffffffffffffffff021916908373ffffffffffffffffffffffffffffffffffffffff160217905550505062000664565b600033905090565b60008060009054906101000a900473ffffffffffffffffffffffffffffffffffffffff169050816000806101000a81548173ffffffffffffffffffffffffffffffffffffffff021916908373ffffffffffffffffffffffffffffffffffffffff1602179055508173ffffffffffffffffffffffffffffffffffffffff168173ffffffffffffffffffffffffffffffffffffffff167f8be0079c531659141344cd1fd0a4f28419497f9722a3daafe3b4186f6b6457e060405160405180910390a35050565b600080fd5b600073ffffffffffffffffffffffffffffffffffffffff82169050919050565b6000620005fa82620005cd565b9050919050565b6200060c81620005ed565b81146200061857600080fd5b50565b6000815190506200062c8162000601565b92915050565b6000602082840312156200064b576200064a620005c8565b5b60006200065b848285016200061b565b91505092915050565b61130580620006746000396000f3fe608060405234801561001057600080fd5b50600436106100b45760003560e01c80638da5cb5b116100715780638da5cb5b1461016c5780639f61dfec1461018a578063abf410e5146101a8578063ca825bb5146101c6578063eef702e9146101e4578063f2fde38b14610202576100b4565b806310a08913146100b95780633c3b370b146100d75780634285656b146100f5578063698db169146101135780637031997014610144578063715018a614610162575b600080fd5b6100c161021e565b6040516100ce919061095b565b60405180910390f35b6100df610244565b6040516100ec919061095b565b60405180910390f35b6100fd61026a565b60405161010a919061095b565b60405180910390f35b61012d60048036038101906101289190610d89565b610290565b60405161013b929190610e4e565b60405180910390f35b61014c610651565b604051610159919061095b565b60405180910390f35b61016a610677565b005b61017461068b565b604051610181919061095b565b60405180910390f35b6101926106b4565b60405161019f919061095b565b60405180910390f35b6101b06106da565b6040516101bd919061095b565b60405180910390f35b6101ce610700565b6040516101db919061095b565b60405180910390f35b6101ec610726565b6040516101f9919061095b565b60405180910390f35b61021c60048036038101906102179190610e77565b61074c565b005b600160009054906101000a900473ffffffffffffffffffffffffffffffffffffffff1681565b600560009054906101000a900473ffffffffffffffffffffffffffffffffffffffff1681565b600260009054906101000a900473ffffffffffffffffffffffffffffffffffffffff1681565b600080600083156103be576000808a73ffffffffffffffffffffffffffffffffffffffff168a8a6040516024016102c8929190611077565b6040516020818303038152906040527f68784b8c000000000000000000000000000000000000000000000000000000007bffffffffffffffffffffffffffffffffffffffffffffffffffffffff19166020820180517bffffffffffffffffffffffffffffffffffffffffffffffffffffffff838183161783525050505060405161035291906110ea565b600060405180830381855af49150503d806000811461038d576040519150601f19603f3d011682016040523d82523d6000602084013e610392565b606091505b5091509150816103a157600080fd5b808060200190518101906103b5919061113f565b925050506104dd565b6000808a73ffffffffffffffffffffffffffffffffffffffff168a8a6040516024016103eb929190611077565b6040516020818303038152906040527fa53c971d000000000000000000000000000000000000000000000000000000007bffffffffffffffffffffffffffffffffffffffffffffffffffffffff19166020820180517bffffffffffffffffffffffffffffffffffffffffffffffffffffffff838183161783525050505060405161047591906110ea565b600060405180830381855af49150503d80600081146104b0576040519150601f19603f3d011682016040523d82523d6000602084013e6104b5565b606091505b5091509150816104c457600080fd5b808060200190518101906104d8919061113f565b925050505b6000808a73ffffffffffffffffffffffffffffffffffffffff1688848c604001518a604051602401610512949392919061117b565b6040516020818303038152906040527f73d622f8000000000000000000000000000000000000000000000000000000007bffffffffffffffffffffffffffffffffffffffffffffffffffffffff19166020820180517bffffffffffffffffffffffffffffffffffffffffffffffffffffffff838183161783525050505060405161059c91906110ea565b600060405180830381855af49150503d80600081146105d7576040519150601f19603f3d011682016040523d82523d6000602084013e6105dc565b606091505b5091509150816105eb57600080fd5b600081806020019051810190610601919061113f565b90507f96b5b9b8a7193304150caccf9b80d150675fa3d6af57761d8d8ef1d6f9a1a9098482604051610634929190610e4e565b60405180910390a183819550955050505050965096945050505050565b600660009054906101000a900473ffffffffffffffffffffffffffffffffffffffff1681565b61067f6107d0565b610689600061084e565b565b60008060009054906101000a900473ffffffffffffffffffffffffffffffffffffffff16905090565b600460009054906101000a900473ffffffffffffffffffffffffffffffffffffffff1681565b600760009054906101000a900473ffffffffffffffffffffffffffffffffffffffff1681565b600360009054906101000a900473ffffffffffffffffffffffffffffffffffffffff1681565b600860009054906101000a900473ffffffffffffffffffffffffffffffffffffffff1681565b6107546107d0565b600073ffffffffffffffffffffffffffffffffffffffff168173ffffffffffffffffffffffffffffffffffffffff1614156107c4576040517f08c379a00000000000000000000000000000000000000000000000000000000081526004016107bb90611243565b60405180910390fd5b6107cd8161084e565b50565b6107d8610912565b73ffffffffffffffffffffffffffffffffffffffff166107f661068b565b73ffffffffffffffffffffffffffffffffffffffff161461084c576040517f08c379a0000000000000000000000000000000000000000000000000000000008152600401610843906112af565b60405180910390fd5b565b60008060009054906101000a900473ffffffffffffffffffffffffffffffffffffffff169050816000806101000a81548173ffffffffffffffffffffffffffffffffffffffff021916908373ffffffffffffffffffffffffffffffffffffffff1602179055508173ffffffffffffffffffffffffffffffffffffffff168173ffffffffffffffffffffffffffffffffffffffff167f8be0079c531659141344cd1fd0a4f28419497f9722a3daafe3b4186f6b6457e060405160405180910390a35050565b600033905090565b600073ffffffffffffffffffffffffffffffffffffffff82169050919050565b60006109458261091a565b9050919050565b6109558161093a565b82525050565b6000602082019050610970600083018461094c565b92915050565b6000604051905090565b600080fd5b600080fd5b6109938161093a565b811461099e57600080fd5b50565b6000813590506109b08161098a565b92915050565b600080fd5b6000601f19601f8301169050919050565b7f4e487b7100000000000000000000000000000000000000000000000000000000600052604160045260246000fd5b610a04826109bb565b810181811067ffffffffffffffff82111715610a2357610a226109cc565b5b80604052505050565b6000610a36610976565b9050610a4282826109fb565b919050565b600080fd5b600080fd5b600080fd5b600067ffffffffffffffff821115610a7157610a706109cc565b5b610a7a826109bb565b9050602081019050919050565b82818337600083830152505050565b6000610aa9610aa484610a56565b610a2c565b905082815260208101848484011115610ac557610ac4610a51565b5b610ad0848285610a87565b509392505050565b600082601f830112610aed57610aec610a4c565b5b8135610afd848260208601610a96565b91505092915050565b6000819050919050565b610b1981610b06565b8114610b2457600080fd5b50565b600081359050610b3681610b10565b92915050565b600060e08284031215610b5257610b516109b6565b5b610b5c60e0610a2c565b9050600082013567ffffffffffffffff811115610b7c57610b7b610a47565b5b610b8884828501610ad8565b600083015250602082013567ffffffffffffffff811115610bac57610bab610a47565b5b610bb884828501610ad8565b6020830152506040610bcc84828501610b27565b6040830152506060610be084828501610b27565b6060830152506080610bf484828501610b27565b60808301525060a0610c0884828501610b27565b60a08301525060c0610c1c84828501610b27565b60c08301525092915050565b600067ffffffffffffffff821115610c4357610c426109cc565b5b610c4c826109bb565b9050602081019050919050565b6000610c6c610c6784610c28565b610a2c565b905082815260208101848484011115610c8857610c87610a51565b5b610c93848285610a87565b509392505050565b600082601f830112610cb057610caf610a4c565b5b8135610cc0848260208601610c59565b91505092915050565b600060408284031215610cdf57610cde6109b6565b5b610ce96040610a2c565b9050600082013567ffffffffffffffff811115610d0957610d08610a47565b5b610d1584828501610ad8565b600083015250602082013567ffffffffffffffff811115610d3957610d38610a47565b5b610d4584828501610c9b565b60208301525092915050565b60008115159050919050565b610d6681610d51565b8114610d7157600080fd5b50565b600081359050610d8381610d5d565b92915050565b60008060008060008060c08789031215610da657610da5610980565b5b6000610db489828a016109a1565b965050602087013567ffffffffffffffff811115610dd557610dd4610985565b5b610de189828a01610b3c565b955050604087013567ffffffffffffffff811115610e0257610e01610985565b5b610e0e89828a01610cc9565b9450506060610e1f89828a016109a1565b9350506080610e3089828a01610b27565b92505060a0610e4189828a01610d74565b9150509295509295509295565b6000604082019050610e63600083018561094c565b610e70602083018461094c565b9392505050565b600060208284031215610e8d57610e8c610980565b5b6000610e9b848285016109a1565b91505092915050565b600081519050919050565b600082825260208201905092915050565b60005b83811015610ede578082015181840152602081019050610ec3565b83811115610eed576000848401525b50505050565b6000610efe82610ea4565b610f088185610eaf565b9350610f18818560208601610ec0565b610f21816109bb565b840191505092915050565b610f3581610b06565b82525050565b600060e0830160008301518482036000860152610f588282610ef3565b91505060208301518482036020860152610f728282610ef3565b9150506040830151610f876040860182610f2c565b506060830151610f9a6060860182610f2c565b506080830151610fad6080860182610f2c565b5060a0830151610fc060a0860182610f2c565b5060c0830151610fd360c0860182610f2c565b508091505092915050565b600081519050919050565b600082825260208201905092915050565b600061100582610fde565b61100f8185610fe9565b935061101f818560208601610ec0565b611028816109bb565b840191505092915050565b600060408301600083015184820360008601526110508282610ef3565b9150506020830151848203602086015261106a8282610ffa565b9150508091505092915050565b600060408201905081810360008301526110918185610f3b565b905081810360208301526110a58184611033565b90509392505050565b600081905092915050565b60006110c482610fde565b6110ce81856110ae565b93506110de818560208601610ec0565b80840191505092915050565b60006110f682846110b9565b915081905092915050565b600061110c8261091a565b9050919050565b61111c81611101565b811461112757600080fd5b50565b60008151905061113981611113565b92915050565b60006020828403121561115557611154610980565b5b60006111638482850161112a565b91505092915050565b61117581610b06565b82525050565b6000608082019050611190600083018761094c565b61119d602083018661094c565b6111aa604083018561116c565b6111b7606083018461116c565b95945050505050565b600082825260208201905092915050565b7f4f776e61626c653a206e6577206f776e657220697320746865207a65726f206160008201527f6464726573730000000000000000000000000000000000000000000000000000602082015250565b600061122d6026836111c0565b9150611238826111d1565b604082019050919050565b6000602082019050818103600083015261125c81611220565b9050919050565b7f4f776e61626c653a2063616c6c6572206973206e6f7420746865206f776e6572600082015250565b60006112996020836111c0565b91506112a482611263565b602082019050919050565b600060208201905081810360008301526112c88161128c565b905091905056fea2646970667358221220401dcd57d53b953ecda13c81f869c04a554d25db3b051e20cd443a09d93dd20364736f6c63430008090033",
  "linkReferences": {},
  "deployedLinkReferences": {}
}