{
  "_format": "hh-sol-artifact-1",
  "contractName": "DCNTCrescendo",
  "sourceName": "contracts/DCNTCrescendo.sol",
  "abi": [
    {
      "anonymous": false,
      "inputs": [
        {
          "indexed": true,
          "internalType": "address",
          "name": "owner",
          "type": "address"
        },
        {
          "indexed": true,
          "internalType": "address",
          "name": "operator",
          "type": "address"
        },
        {
          "indexed": false,
          "internalType": "bool",
          "name": "approved",
          "type": "bool"
        }
      ],
      "name": "ApprovalForAll",
      "type": "event"
    },
    {
      "anonymous": false,
      "inputs": [
        {
          "indexed": true,
          "internalType": "address",
          "name": "sender",
          "type": "address"
        },
        {
          "indexed": false,
          "internalType": "uint256",
          "name": "amount",
          "type": "uint256"
        },
        {
          "indexed": false,
          "internalType": "uint256",
          "name": "id",
          "type": "uint256"
        },
        {
          "indexed": false,
          "internalType": "uint256",
          "name": "reimbursement",
          "type": "uint256"
        }
      ],
      "name": "CurvedBurn",
      "type": "event"
    },
    {
      "anonymous": false,
      "inputs": [
        {
          "indexed": true,
          "internalType": "address",
          "name": "sender",
          "type": "address"
        },
        {
          "indexed": false,
          "internalType": "uint256",
          "name": "amount",
          "type": "uint256"
        },
        {
          "indexed": false,
          "internalType": "uint256",
          "name": "id",
          "type": "uint256"
        },
        {
          "indexed": false,
          "internalType": "uint256",
          "name": "deposit",
          "type": "uint256"
        }
      ],
      "name": "CurvedMint",
      "type": "event"
    },
    {
      "anonymous": false,
      "inputs": [
        {
          "indexed": false,
          "internalType": "uint8",
          "name": "version",
          "type": "uint8"
        }
      ],
      "name": "Initialized",
      "type": "event"
    },
    {
      "anonymous": false,
      "inputs": [
        {
          "indexed": true,
          "internalType": "address",
          "name": "previousOwner",
          "type": "address"
        },
        {
          "indexed": true,
          "internalType": "address",
          "name": "newOwner",
          "type": "address"
        }
      ],
      "name": "OwnershipTransferred",
      "type": "event"
    },
    {
      "anonymous": false,
      "inputs": [
        {
          "indexed": true,
          "internalType": "address",
          "name": "operator",
          "type": "address"
        },
        {
          "indexed": true,
          "internalType": "address",
          "name": "from",
          "type": "address"
        },
        {
          "indexed": true,
          "internalType": "address",
          "name": "to",
          "type": "address"
        },
        {
          "indexed": false,
          "internalType": "uint256[]",
          "name": "ids",
          "type": "uint256[]"
        },
        {
          "indexed": false,
          "internalType": "uint256[]",
          "name": "amounts",
          "type": "uint256[]"
        }
      ],
      "name": "TransferBatch",
      "type": "event"
    },
    {
      "anonymous": false,
      "inputs": [
        {
          "indexed": true,
          "internalType": "address",
          "name": "operator",
          "type": "address"
        },
        {
          "indexed": true,
          "internalType": "address",
          "name": "from",
          "type": "address"
        },
        {
          "indexed": true,
          "internalType": "address",
          "name": "to",
          "type": "address"
        },
        {
          "indexed": false,
          "internalType": "uint256",
          "name": "id",
          "type": "uint256"
        },
        {
          "indexed": false,
          "internalType": "uint256",
          "name": "amount",
          "type": "uint256"
        }
      ],
      "name": "TransferSingle",
      "type": "event"
    },
    {
      "anonymous": false,
      "inputs": [
        {
          "indexed": false,
          "internalType": "string",
          "name": "value",
          "type": "string"
        },
        {
          "indexed": true,
          "internalType": "uint256",
          "name": "id",
          "type": "uint256"
        }
      ],
      "name": "URI",
      "type": "event"
    },
    {
      "inputs": [
        {
          "internalType": "address",
          "name": "",
          "type": "address"
        },
        {
          "internalType": "uint256",
          "name": "",
          "type": "uint256"
        }
      ],
      "name": "balanceOf",
      "outputs": [
        {
          "internalType": "uint256",
          "name": "",
          "type": "uint256"
        }
      ],
      "stateMutability": "view",
      "type": "function"
    },
    {
      "inputs": [
        {
          "internalType": "address[]",
          "name": "owners",
          "type": "address[]"
        },
        {
          "internalType": "uint256[]",
          "name": "ids",
          "type": "uint256[]"
        }
      ],
      "name": "balanceOfBatch",
      "outputs": [
        {
          "internalType": "uint256[]",
          "name": "balances",
          "type": "uint256[]"
        }
      ],
      "stateMutability": "view",
      "type": "function"
    },
    {
      "inputs": [
        {
          "internalType": "uint256",
          "name": "id",
          "type": "uint256"
        }
      ],
      "name": "buy",
      "outputs": [],
      "stateMutability": "payable",
      "type": "function"
    },
    {
      "inputs": [
        {
          "internalType": "uint256",
          "name": "amount",
          "type": "uint256"
        },
        {
          "internalType": "uint256",
          "name": "id",
          "type": "uint256"
        }
      ],
      "name": "calculateCurvedBurnReturn",
      "outputs": [
        {
          "internalType": "uint256",
          "name": "",
          "type": "uint256"
        }
      ],
      "stateMutability": "view",
      "type": "function"
    },
    {
      "inputs": [
        {
          "internalType": "uint256",
          "name": "amount",
          "type": "uint256"
        },
        {
          "internalType": "uint256",
          "name": "id",
          "type": "uint256"
        }
      ],
      "name": "calculateCurvedMintReturn",
      "outputs": [
        {
          "internalType": "uint256",
          "name": "",
          "type": "uint256"
        }
      ],
      "stateMutability": "view",
      "type": "function"
    },
    {
      "inputs": [
        {
          "internalType": "address[]",
          "name": "accounts",
          "type": "address[]"
        },
        {
          "internalType": "uint32[]",
          "name": "percentAllocations",
          "type": "uint32[]"
        },
        {
          "internalType": "uint32",
          "name": "distributorFee",
          "type": "uint32"
        }
      ],
      "name": "createSplit",
      "outputs": [],
      "stateMutability": "nonpayable",
      "type": "function"
    },
    {
      "inputs": [
        {
          "internalType": "address",
          "name": "account",
          "type": "address"
        },
        {
          "internalType": "uint256",
          "name": "withdrawETH",
          "type": "uint256"
        },
        {
          "internalType": "contract ERC20[]",
          "name": "tokens",
          "type": "address[]"
        },
        {
          "internalType": "address[]",
          "name": "accounts",
          "type": "address[]"
        },
        {
          "internalType": "uint32[]",
          "name": "percentAllocations",
          "type": "uint32[]"
        },
        {
          "internalType": "uint32",
          "name": "distributorFee",
          "type": "uint32"
        },
        {
          "internalType": "address",
          "name": "distributorAddress",
          "type": "address"
        }
      ],
      "name": "distributeAndWithdraw",
      "outputs": [],
      "stateMutability": "nonpayable",
      "type": "function"
    },
    {
      "inputs": [
        {
          "internalType": "address",
          "name": "account",
          "type": "address"
        },
        {
          "internalType": "uint256",
          "name": "withdrawETH",
          "type": "uint256"
        },
        {
          "internalType": "contract ERC20[]",
          "name": "tokens",
          "type": "address[]"
        },
        {
          "internalType": "address[]",
          "name": "accounts",
          "type": "address[]"
        },
        {
          "internalType": "uint32[]",
          "name": "percentAllocations",
          "type": "uint32[]"
        },
        {
          "internalType": "uint32",
          "name": "distributorFee",
          "type": "uint32"
        },
        {
          "internalType": "address",
          "name": "distributorAddress",
          "type": "address"
        }
      ],
      "name": "distributeAndWithdrawFund",
      "outputs": [],
      "stateMutability": "nonpayable",
      "type": "function"
    },
    {
      "inputs": [
        {
          "internalType": "contract ERC20",
          "name": "token",
          "type": "address"
        },
        {
          "internalType": "address[]",
          "name": "accounts",
          "type": "address[]"
        },
        {
          "internalType": "uint32[]",
          "name": "percentAllocations",
          "type": "uint32[]"
        },
        {
          "internalType": "uint32",
          "name": "distributorFee",
          "type": "uint32"
        },
        {
          "internalType": "address",
          "name": "distributorAddress",
          "type": "address"
        }
      ],
      "name": "distributeERC20",
      "outputs": [],
      "stateMutability": "nonpayable",
      "type": "function"
    },
    {
      "inputs": [
        {
          "internalType": "address[]",
          "name": "accounts",
          "type": "address[]"
        },
        {
          "internalType": "uint32[]",
          "name": "percentAllocations",
          "type": "uint32[]"
        },
        {
          "internalType": "uint32",
          "name": "distributorFee",
          "type": "uint32"
        },
        {
          "internalType": "address",
          "name": "distributorAddress",
          "type": "address"
        }
      ],
      "name": "distributeETH",
      "outputs": [],
      "stateMutability": "nonpayable",
      "type": "function"
    },
    {
      "inputs": [],
      "name": "flipSaleState",
      "outputs": [],
      "stateMutability": "nonpayable",
      "type": "function"
    },
    {
      "inputs": [
        {
          "internalType": "address",
          "name": "_owner",
          "type": "address"
        },
        {
          "components": [
            {
              "internalType": "string",
              "name": "name",
              "type": "string"
            },
            {
              "internalType": "string",
              "name": "symbol",
              "type": "string"
            },
            {
              "internalType": "uint256",
              "name": "initialPrice",
              "type": "uint256"
            },
            {
              "internalType": "uint256",
              "name": "step1",
              "type": "uint256"
            },
            {
              "internalType": "uint256",
              "name": "step2",
              "type": "uint256"
            },
            {
              "internalType": "uint256",
              "name": "hitch",
              "type": "uint256"
            },
            {
              "internalType": "uint256",
              "name": "takeRateBPS",
              "type": "uint256"
            },
            {
              "internalType": "uint256",
              "name": "unlockDate",
              "type": "uint256"
            },
            {
              "internalType": "uint256",
              "name": "royaltyBPS",
              "type": "uint256"
            }
          ],
          "internalType": "struct CrescendoConfig",
          "name": "_config",
          "type": "tuple"
        },
        {
          "components": [
            {
              "internalType": "string",
              "name": "metadataURI",
              "type": "string"
            },
            {
              "internalType": "bytes",
              "name": "metadataRendererInit",
              "type": "bytes"
            }
          ],
          "internalType": "struct MetadataConfig",
          "name": "_metadataConfig",
          "type": "tuple"
        },
        {
          "internalType": "address",
          "name": "_metadataRenderer",
          "type": "address"
        },
        {
          "internalType": "address",
          "name": "_splitMain",
          "type": "address"
        }
      ],
      "name": "initialize",
      "outputs": [],
      "stateMutability": "nonpayable",
      "type": "function"
    },
    {
      "inputs": [
        {
          "internalType": "address",
          "name": "",
          "type": "address"
        },
        {
          "internalType": "address",
          "name": "",
          "type": "address"
        }
      ],
      "name": "isApprovedForAll",
      "outputs": [
        {
          "internalType": "bool",
          "name": "",
          "type": "bool"
        }
      ],
      "stateMutability": "view",
      "type": "function"
    },
    {
      "inputs": [],
      "name": "liquidity",
      "outputs": [
        {
          "internalType": "uint256",
          "name": "",
          "type": "uint256"
        }
      ],
      "stateMutability": "view",
      "type": "function"
    },
    {
      "inputs": [],
      "name": "metadataRenderer",
      "outputs": [
        {
          "internalType": "address",
          "name": "",
          "type": "address"
        }
      ],
      "stateMutability": "view",
      "type": "function"
    },
    {
      "inputs": [],
      "name": "name",
      "outputs": [
        {
          "internalType": "string",
          "name": "",
          "type": "string"
        }
      ],
      "stateMutability": "view",
      "type": "function"
    },
    {
      "inputs": [],
      "name": "owner",
      "outputs": [
        {
          "internalType": "address",
          "name": "",
          "type": "address"
        }
      ],
      "stateMutability": "view",
      "type": "function"
    },
    {
      "inputs": [],
      "name": "renounceOwnership",
      "outputs": [],
      "stateMutability": "nonpayable",
      "type": "function"
    },
    {
      "inputs": [],
      "name": "reserveAmt",
      "outputs": [
        {
          "internalType": "uint256",
          "name": "",
          "type": "uint256"
        }
      ],
      "stateMutability": "view",
      "type": "function"
    },
    {
      "inputs": [],
      "name": "royaltyBPS",
      "outputs": [
        {
          "internalType": "uint256",
          "name": "",
          "type": "uint256"
        }
      ],
      "stateMutability": "view",
      "type": "function"
    },
    {
      "inputs": [
        {
          "internalType": "uint256",
          "name": "tokenId",
          "type": "uint256"
        },
        {
          "internalType": "uint256",
          "name": "salePrice",
          "type": "uint256"
        }
      ],
      "name": "royaltyInfo",
      "outputs": [
        {
          "internalType": "address",
          "name": "receiver",
          "type": "address"
        },
        {
          "internalType": "uint256",
          "name": "royaltyAmount",
          "type": "uint256"
        }
      ],
      "stateMutability": "view",
      "type": "function"
    },
    {
      "inputs": [
        {
          "internalType": "address",
          "name": "from",
          "type": "address"
        },
        {
          "internalType": "address",
          "name": "to",
          "type": "address"
        },
        {
          "internalType": "uint256[]",
          "name": "ids",
          "type": "uint256[]"
        },
        {
          "internalType": "uint256[]",
          "name": "amounts",
          "type": "uint256[]"
        },
        {
          "internalType": "bytes",
          "name": "data",
          "type": "bytes"
        }
      ],
      "name": "safeBatchTransferFrom",
      "outputs": [],
      "stateMutability": "nonpayable",
      "type": "function"
    },
    {
      "inputs": [
        {
          "internalType": "address",
          "name": "from",
          "type": "address"
        },
        {
          "internalType": "address",
          "name": "to",
          "type": "address"
        },
        {
          "internalType": "uint256",
          "name": "id",
          "type": "uint256"
        },
        {
          "internalType": "uint256",
          "name": "amount",
          "type": "uint256"
        },
        {
          "internalType": "bytes",
          "name": "data",
          "type": "bytes"
        }
      ],
      "name": "safeTransferFrom",
      "outputs": [],
      "stateMutability": "nonpayable",
      "type": "function"
    },
    {
      "inputs": [],
      "name": "saleIsActive",
      "outputs": [
        {
          "internalType": "bool",
          "name": "",
          "type": "bool"
        }
      ],
      "stateMutability": "view",
      "type": "function"
    },
    {
      "inputs": [
        {
          "internalType": "uint256",
          "name": "id",
          "type": "uint256"
        }
      ],
      "name": "sell",
      "outputs": [],
      "stateMutability": "nonpayable",
      "type": "function"
    },
    {
      "inputs": [
        {
          "internalType": "address",
          "name": "operator",
          "type": "address"
        },
        {
          "internalType": "bool",
          "name": "approved",
          "type": "bool"
        }
      ],
      "name": "setApprovalForAll",
      "outputs": [],
      "stateMutability": "nonpayable",
      "type": "function"
    },
    {
      "inputs": [
        {
          "internalType": "address",
          "name": "_metadataRenderer",
          "type": "address"
        }
      ],
      "name": "setMetadataRenderer",
      "outputs": [],
      "stateMutability": "nonpayable",
      "type": "function"
    },
    {
      "inputs": [],
      "name": "splitMain",
      "outputs": [
        {
          "internalType": "address",
          "name": "",
          "type": "address"
        }
      ],
      "stateMutability": "view",
      "type": "function"
    },
    {
      "inputs": [],
      "name": "splitWallet",
      "outputs": [
        {
          "internalType": "address",
          "name": "",
          "type": "address"
        }
      ],
      "stateMutability": "view",
      "type": "function"
    },
    {
      "inputs": [
        {
          "internalType": "bytes4",
          "name": "interfaceId",
          "type": "bytes4"
        }
      ],
      "name": "supportsInterface",
      "outputs": [
        {
          "internalType": "bool",
          "name": "",
          "type": "bool"
        }
      ],
      "stateMutability": "view",
      "type": "function"
    },
    {
      "inputs": [],
      "name": "symbol",
      "outputs": [
        {
          "internalType": "string",
          "name": "",
          "type": "string"
        }
      ],
      "stateMutability": "view",
      "type": "function"
    },
    {
      "inputs": [
        {
          "internalType": "uint256",
          "name": "id",
          "type": "uint256"
        }
      ],
      "name": "totalSupply",
      "outputs": [
        {
          "internalType": "uint256",
          "name": "",
          "type": "uint256"
        }
      ],
      "stateMutability": "view",
      "type": "function"
    },
    {
      "inputs": [
        {
          "internalType": "uint256",
          "name": "transferETH",
          "type": "uint256"
        },
        {
          "internalType": "contract ERC20[]",
          "name": "tokens",
          "type": "address[]"
        }
      ],
      "name": "transferFundToSplit",
      "outputs": [],
      "stateMutability": "nonpayable",
      "type": "function"
    },
    {
      "inputs": [
        {
          "internalType": "address",
          "name": "newOwner",
          "type": "address"
        }
      ],
      "name": "transferOwnership",
      "outputs": [],
      "stateMutability": "nonpayable",
      "type": "function"
    },
    {
      "inputs": [
        {
          "internalType": "uint256",
          "name": "transferETH",
          "type": "uint256"
        },
        {
          "internalType": "contract ERC20[]",
          "name": "tokens",
          "type": "address[]"
        }
      ],
      "name": "transferToSplit",
      "outputs": [],
      "stateMutability": "nonpayable",
      "type": "function"
    },
    {
      "inputs": [],
      "name": "unlockDate",
      "outputs": [
        {
          "internalType": "uint256",
          "name": "",
          "type": "uint256"
        }
      ],
      "stateMutability": "view",
      "type": "function"
    },
    {
      "inputs": [
        {
          "internalType": "string",
          "name": "uri_",
          "type": "string"
        }
      ],
      "name": "updateUri",
      "outputs": [],
      "stateMutability": "nonpayable",
      "type": "function"
    },
    {
      "inputs": [
        {
          "internalType": "uint256",
          "name": "",
          "type": "uint256"
        }
      ],
      "name": "uri",
      "outputs": [
        {
          "internalType": "string",
          "name": "",
          "type": "string"
        }
      ],
      "stateMutability": "view",
      "type": "function"
    },
    {
      "inputs": [],
      "name": "withdraw",
      "outputs": [],
      "stateMutability": "nonpayable",
      "type": "function"
    },
    {
      "inputs": [],
      "name": "withdrawFund",
      "outputs": [],
      "stateMutability": "nonpayable",
      "type": "function"
    }
  ],
  "bytecode": "0x60806040526000600d556000600e60006101000a81548160ff0219169083151502179055503480156200003157600080fd5b5062000052620000466200005860201b60201c565b6200006060201b60201c565b62000123565b600033905090565b600060028054906101000a900473ffffffffffffffffffffffffffffffffffffffff169050816002806101000a81548173ffffffffffffffffffffffffffffffffffffffff021916908373ffffffffffffffffffffffffffffffffffffffff1602179055508173ffffffffffffffffffffffffffffffffffffffff168173ffffffffffffffffffffffffffffffffffffffff167f8be0079c531659141344cd1fd0a4f28419497f9722a3daafe3b4186f6b6457e060405160405180910390a35050565b615f3b80620001336000396000f3fe6080604052600436106102395760003560e01c806379ab7c8e1161012e578063c4559d5a116100ab578063eb8d24441161006f578063eb8d244414610839578063ee37778d14610864578063f242432a146108a1578063f2fde38b146108ca578063fd4fe8a8146108f357610239565b8063c4559d5a14610777578063d96a094a146107a0578063e07fa3c1146107bc578063e4849b32146107d3578063e985e9c5146107fc57610239565b8063a22cb465116100f2578063a22cb4651461067e578063a3111abd146106a7578063af548ffb146106e4578063b9c9d93a1461070f578063bd85b0391461073a57610239565b806379ab7c8e146105ad5780638da5cb5b146105d657806390619fa81461060157806394a11aea1461062a57806395d89b411461065357610239565b80632a55205a116101bc578063570b3c6a11610180578063570b3c6a146104ec57806369ac5721146105155780637031997014610540578063713b97871461056b578063715018a61461059657610239565b80632a55205a1461041a5780632eb2c2d61461045857806334918dfd146104815780633ccfd60b146104985780634e1273f4146104af57610239565b80630e769b2b116102035780630e769b2b146103355780630e89341c146103605780631a6865021461039d5780632586ed89146103c8578063284a44a8146103f157610239565b80625f16fb1461023e578062fdd58e14610267578063015893c5146102a457806301ffc9a7146102cd57806306fdde031461030a575b600080fd5b34801561024a57600080fd5b5061026560048036038101906102609190613a91565b61091c565b005b34801561027357600080fd5b5061028e60048036038101906102899190613b83565b610a2c565b60405161029b9190613bd2565b60405180910390f35b3480156102b057600080fd5b506102cb60048036038101906102c69190613bed565b610a51565b005b3480156102d957600080fd5b506102f460048036038101906102ef9190613cda565b610bf7565b6040516103019190613d22565b60405180910390f35b34801561031657600080fd5b5061031f610c39565b60405161032c9190613dd6565b60405180910390f35b34801561034157600080fd5b5061034a610ccb565b6040516103579190613e07565b60405180910390f35b34801561036c57600080fd5b5061038760048036038101906103829190613e22565b610cf1565b6040516103949190613dd6565b60405180910390f35b3480156103a957600080fd5b506103b2610e94565b6040516103bf9190613bd2565b60405180910390f35b3480156103d457600080fd5b506103ef60048036038101906103ea91906141ca565b610ec3565b005b3480156103fd57600080fd5b5061041860048036038101906104139190614340565b6111ee565b005b34801561042657600080fd5b50610441600480360381019061043c919061443e565b6112d9565b60405161044f92919061447e565b60405180910390f35b34801561046457600080fd5b5061047f600480360381019061047a9190614553565b6113d7565b005b34801561048d57600080fd5b50610496611842565b005b3480156104a457600080fd5b506104ad611876565b005b3480156104bb57600080fd5b506104d660048036038101906104d1919061462f565b6119d6565b6040516104e3919061476e565b60405180910390f35b3480156104f857600080fd5b50610513600480360381019061050e9190614790565b611b3f565b005b34801561052157600080fd5b5061052a611b53565b6040516105379190613bd2565b60405180910390f35b34801561054c57600080fd5b50610555611b59565b6040516105629190613e07565b60405180910390f35b34801561057757600080fd5b50610580611b7f565b60405161058d9190613e07565b60405180910390f35b3480156105a257600080fd5b506105ab611ba5565b005b3480156105b957600080fd5b506105d460048036038101906105cf91906147d9565b611bb9565b005b3480156105e257600080fd5b506105eb611c86565b6040516105f89190613e07565b60405180910390f35b34801561060d57600080fd5b50610628600480360381019061062391906147d9565b611cae565b005b34801561063657600080fd5b50610651600480360381019061064c9190614340565b611dc0565b005b34801561065f57600080fd5b50610668611f6f565b6040516106759190613dd6565b60405180910390f35b34801561068a57600080fd5b506106a560048036038101906106a09190614861565b612001565b005b3480156106b357600080fd5b506106ce60048036038101906106c9919061443e565b6120fe565b6040516106db9190613bd2565b60405180910390f35b3480156106f057600080fd5b506106f961215f565b6040516107069190613bd2565b60405180910390f35b34801561071b57600080fd5b5061072461219b565b6040516107319190613bd2565b60405180910390f35b34801561074657600080fd5b50610761600480360381019061075c9190613e22565b6121a1565b60405161076e9190613bd2565b60405180910390f35b34801561078357600080fd5b5061079e600480360381019061079991906148a1565b6121be565b005b6107ba60048036038101906107b59190613e22565b6122ca565b005b3480156107c857600080fd5b506107d1612589565b005b3480156107df57600080fd5b506107fa60048036038101906107f59190613e22565b612695565b005b34801561080857600080fd5b50610823600480360381019061081e9190614948565b6129b6565b6040516108309190613d22565b60405180910390f35b34801561084557600080fd5b5061084e6129e5565b60405161085b9190613d22565b60405180910390f35b34801561087057600080fd5b5061088b6004803603810190610886919061443e565b6129f8565b6040516108989190613bd2565b60405180910390f35b3480156108ad57600080fd5b506108c860048036038101906108c39190614988565b612a80565b005b3480156108d657600080fd5b506108f160048036038101906108ec9190614a22565b612e42565b005b3480156108ff57600080fd5b5061091a60048036038101906109159190614a22565b612ec6565b005b600073ffffffffffffffffffffffffffffffffffffffff1661093c612f12565b73ffffffffffffffffffffffffffffffffffffffff161415610993576040517f08c379a000000000000000000000000000000000000000000000000000000000815260040161098a90614a9b565b60405180910390fd5b61099c87612f3c565b6109a4613062565b73ffffffffffffffffffffffffffffffffffffffff1663158113026109c7612f12565b898989898989896040518963ffffffff1660e01b81526004016109f1989796959493929190614caf565b600060405180830381600087803b158015610a0b57600080fd5b505af1158015610a1f573d6000803e3d6000fd5b5050505050505050505050565b6000602052816000526040600020602052806000526040600020600091509150505481565b610a5961308c565b600073ffffffffffffffffffffffffffffffffffffffff16610a79613062565b73ffffffffffffffffffffffffffffffffffffffff161415610ad0576040517f08c379a0000000000000000000000000000000000000000000000000000000008152600401610ac790614d6e565b60405180910390fd5b600073ffffffffffffffffffffffffffffffffffffffff16610af0612f12565b73ffffffffffffffffffffffffffffffffffffffff1614610b46576040517f08c379a0000000000000000000000000000000000000000000000000000000008152600401610b3d90614dda565b60405180910390fd5b6000610b50613062565b73ffffffffffffffffffffffffffffffffffffffff16637601f7828787878787336040518763ffffffff1660e01b8152600401610b9296959493929190614dfa565b602060405180830381600087803b158015610bac57600080fd5b505af1158015610bc0573d6000803e3d6000fd5b505050506040513d601f19601f82011682018060405250810190610be49190614e66565b9050610bef8161310a565b505050505050565b6000632a55205a60e01b827bffffffffffffffffffffffffffffffffffffffffffffffffffffffff19161480610c325750610c318261314e565b5b9050919050565b606060038054610c4890614ec2565b80601f0160208091040260200160405190810160405280929190818152602001828054610c7490614ec2565b8015610cc15780601f10610c9657610100808354040283529160200191610cc1565b820191906000526020600020905b815481529060010190602001808311610ca457829003601f168201915b5050505050905090565b601060009054906101000a900473ffffffffffffffffffffffffffffffffffffffff1681565b6060600073ffffffffffffffffffffffffffffffffffffffff16601260009054906101000a900473ffffffffffffffffffffffffffffffffffffffff1673ffffffffffffffffffffffffffffffffffffffff1614610e0157601260009054906101000a900473ffffffffffffffffffffffffffffffffffffffff1673ffffffffffffffffffffffffffffffffffffffff1663c87b56dd60016040518263ffffffff1660e01b8152600401610da59190614f2f565b60006040518083038186803b158015610dbd57600080fd5b505afa158015610dd1573d6000803e3d6000fd5b505050506040513d6000823e3d601f19601f82011682018060405250810190610dfa9190614fba565b9050610e8f565b60058054610e0e90614ec2565b80601f0160208091040260200160405190810160405280929190818152602001828054610e3a90614ec2565b8015610e875780601f10610e5c57610100808354040283529160200191610e87565b820191906000526020600020905b815481529060010190602001808311610e6a57829003601f168201915b505050505090505b919050565b6000612710600d5447610ea79190615032565b600954610eb49190615088565b610ebe9190615111565b905090565b6000600260019054906101000a900460ff16159050808015610ef757506001600260009054906101000a900460ff1660ff16105b80610f265750610f06306131e0565b158015610f2557506001600260009054906101000a900460ff1660ff16145b5b610f65576040517f08c379a0000000000000000000000000000000000000000000000000000000008152600401610f5c906151b4565b60405180910390fd5b6001600260006101000a81548160ff021916908360ff1602179055508015610fa3576001600260016101000a81548160ff0219169083151502179055505b610fac86613203565b8460400151600c600080815260200190815260200160002081905550846060015160068190555084608001516007819055508460a001516008819055508460c001516009819055508460e00151600f81905550846000015160039080519060200190611019929190613847565b50846020015160049080519060200190611034929190613847565b50846101000151600a8190555081601060006101000a81548173ffffffffffffffffffffffffffffffffffffffff021916908373ffffffffffffffffffffffffffffffffffffffff160217905550600073ffffffffffffffffffffffffffffffffffffffff168373ffffffffffffffffffffffffffffffffffffffff16141580156110c457506000846020015151115b1561117e5782601260006101000a81548173ffffffffffffffffffffffffffffffffffffffff021916908373ffffffffffffffffffffffffffffffffffffffff1602179055508273ffffffffffffffffffffffffffffffffffffffff1663856a7ffa85602001516040518263ffffffff1660e01b81526004016111479190615229565b600060405180830381600087803b15801561116157600080fd5b505af1158015611175573d6000803e3d6000fd5b5050505061118c565b61118b84600001516132c6565b5b80156111e6576000600260016101000a81548160ff0219169083151502179055507f7f26b83ff96e1f2b6a682f133852f6798a09c465da95921460cefb384740249860016040516111dd9190615289565b60405180910390a15b505050505050565b600073ffffffffffffffffffffffffffffffffffffffff1661120e612f12565b73ffffffffffffffffffffffffffffffffffffffff161415611265576040517f08c379a000000000000000000000000000000000000000000000000000000000815260040161125c90614a9b565b60405180910390fd5b6000881461127c5761127b8686868686866121be565b5b60005b87518110156112c2576112b188828151811061129e5761129d6152a4565b5b602002602001015188888888888861091c565b806112bb906152d3565b905061127f565b506112ce8989896132e0565b505050505050505050565b6000806000841461131f576040517f08c379a000000000000000000000000000000000000000000000000000000000815260040161131690615368565b60405180910390fd5b600073ffffffffffffffffffffffffffffffffffffffff16601160009054906101000a900473ffffffffffffffffffffffffffffffffffffffff1673ffffffffffffffffffffffffffffffffffffffff161461139f57601160009054906101000a900473ffffffffffffffffffffffffffffffffffffffff1691506113aa565b6113a7611c86565b91505b6000612710600a54856113bd9190615088565b6113c79190615111565b9050828192509250509250929050565b83839050868690501461141f576040517f08c379a0000000000000000000000000000000000000000000000000000000008152600401611416906153d4565b60405180910390fd5b8773ffffffffffffffffffffffffffffffffffffffff163373ffffffffffffffffffffffffffffffffffffffff1614806114df5750600160008973ffffffffffffffffffffffffffffffffffffffff1673ffffffffffffffffffffffffffffffffffffffff16815260200190815260200160002060003373ffffffffffffffffffffffffffffffffffffffff1673ffffffffffffffffffffffffffffffffffffffff16815260200190815260200160002060009054906101000a900460ff165b61151e576040517f08c379a000000000000000000000000000000000000000000000000000000000815260040161151590615440565b60405180910390fd5b60008060005b8888905081101561163e57888882818110611542576115416152a4565b5b90506020020135925086868281811061155e5761155d6152a4565b5b905060200201359150816000808d73ffffffffffffffffffffffffffffffffffffffff1673ffffffffffffffffffffffffffffffffffffffff168152602001908152602001600020600085815260200190815260200160002060008282546115c69190615460565b92505081905550816000808c73ffffffffffffffffffffffffffffffffffffffff1673ffffffffffffffffffffffffffffffffffffffff1681526020019081526020016000206000858152602001908152602001600020600082825461162c9190615032565b92505081905550806001019050611524565b508873ffffffffffffffffffffffffffffffffffffffff168a73ffffffffffffffffffffffffffffffffffffffff163373ffffffffffffffffffffffffffffffffffffffff167f4a39dc06d4c0dbc64b70af90fd698a233a518aa5d07e595d983b8c0526c8f7fb8b8b8b8b6040516116b994939291906154f5565b60405180910390a460008973ffffffffffffffffffffffffffffffffffffffff163b146117c55763bc197c8160e01b7bffffffffffffffffffffffffffffffffffffffffffffffffffffffff19168973ffffffffffffffffffffffffffffffffffffffff1663bc197c81338d8c8c8c8c8c8c6040518963ffffffff1660e01b815260040161174e98979695949392919061555d565b602060405180830381600087803b15801561176857600080fd5b505af115801561177c573d6000803e3d6000fd5b505050506040513d601f19601f820116820180604052508101906117a091906155e0565b7bffffffffffffffffffffffffffffffffffffffffffffffffffffffff1916146117f7565b600073ffffffffffffffffffffffffffffffffffffffff168973ffffffffffffffffffffffffffffffffffffffff1614155b611836576040517f08c379a000000000000000000000000000000000000000000000000000000000815260040161182d90615659565b60405180910390fd5b50505050505050505050565b61184a61308c565b600e60009054906101000a900460ff1615600e60006101000a81548160ff021916908315150217905550565b61187e61308c565b600073ffffffffffffffffffffffffffffffffffffffff1661189e612f12565b73ffffffffffffffffffffffffffffffffffffffff16146118f4576040517f08c379a00000000000000000000000000000000000000000000000000000000081526004016118eb906156eb565b60405180910390fd5b6000600d54611901610e94565b61190b9190615460565b905080600d600082825461191f9190615032565b9250508190555060003373ffffffffffffffffffffffffffffffffffffffff168260405161194c9061573c565b60006040518083038185875af1925050503d8060008114611989576040519150601f19603f3d011682016040523d82523d6000602084013e61198e565b606091505b50509050806119d2576040517f08c379a00000000000000000000000000000000000000000000000000000000081526004016119c99061579d565b60405180910390fd5b5050565b6060828290508585905014611a20576040517f08c379a0000000000000000000000000000000000000000000000000000000008152600401611a17906153d4565b60405180910390fd5b8484905067ffffffffffffffff811115611a3d57611a3c613e54565b5b604051908082528060200260200182016040528015611a6b5781602001602082028036833780820191505090505b50905060005b85859050811015611b3657600080878784818110611a9257611a916152a4565b5b9050602002016020810190611aa79190614a22565b73ffffffffffffffffffffffffffffffffffffffff1673ffffffffffffffffffffffffffffffffffffffff1681526020019081526020016000206000858584818110611af657611af56152a4565b5b90506020020135815260200190815260200160002054828281518110611b1f57611b1e6152a4565b5b602002602001018181525050806001019050611a71565b50949350505050565b611b4761308c565b611b50816132c6565b50565b600f5481565b601260009054906101000a900473ffffffffffffffffffffffffffffffffffffffff1681565b601160009054906101000a900473ffffffffffffffffffffffffffffffffffffffff1681565b611bad61308c565b611bb76000613203565b565b600073ffffffffffffffffffffffffffffffffffffffff16611bd9612f12565b73ffffffffffffffffffffffffffffffffffffffff161415611c30576040517f08c379a0000000000000000000000000000000000000000000000000000000008152600401611c2790614a9b565b60405180910390fd5b60008214611c4157611c4061335b565b5b60005b8151811015611c8157611c70828281518110611c6357611c626152a4565b5b6020026020010151612f3c565b80611c7a906152d3565b9050611c44565b505050565b600060028054906101000a900473ffffffffffffffffffffffffffffffffffffffff16905090565b600073ffffffffffffffffffffffffffffffffffffffff16611cce612f12565b73ffffffffffffffffffffffffffffffffffffffff161415611d25576040517f08c379a0000000000000000000000000000000000000000000000000000000008152600401611d1c90614a9b565b60405180910390fd5b600f54421015611d6a576040517f08c379a0000000000000000000000000000000000000000000000000000000008152600401611d6190615809565b60405180910390fd5b60008214611d7b57611d7a613444565b5b60005b8151811015611dbb57611daa828281518110611d9d57611d9c6152a4565b5b6020026020010151612f3c565b80611db4906152d3565b9050611d7e565b505050565b600073ffffffffffffffffffffffffffffffffffffffff16611de0612f12565b73ffffffffffffffffffffffffffffffffffffffff161415611e37576040517f08c379a0000000000000000000000000000000000000000000000000000000008152600401611e2e90614a9b565b60405180910390fd5b600f54421015611e7c576040517f08c379a0000000000000000000000000000000000000000000000000000000008152600401611e7390615809565b60405180910390fd5b60008814611f1257611e8c613444565b611e94613062565b73ffffffffffffffffffffffffffffffffffffffff1663e61cb05e611eb7612f12565b8888888888886040518863ffffffff1660e01b8152600401611edf9796959493929190615829565b600060405180830381600087803b158015611ef957600080fd5b505af1158015611f0d573d6000803e3d6000fd5b505050505b60005b8751811015611f5857611f47888281518110611f3457611f336152a4565b5b602002602001015188888888888861091c565b80611f51906152d3565b9050611f15565b50611f648989896132e0565b505050505050505050565b606060048054611f7e90614ec2565b80601f0160208091040260200160405190810160405280929190818152602001828054611faa90614ec2565b8015611ff75780601f10611fcc57610100808354040283529160200191611ff7565b820191906000526020600020905b815481529060010190602001808311611fda57829003601f168201915b5050505050905090565b80600160003373ffffffffffffffffffffffffffffffffffffffff1673ffffffffffffffffffffffffffffffffffffffff16815260200190815260200160002060008473ffffffffffffffffffffffffffffffffffffffff1673ffffffffffffffffffffffffffffffffffffffff16815260200190815260200160002060006101000a81548160ff0219169083151502179055508173ffffffffffffffffffffffffffffffffffffffff163373ffffffffffffffffffffffffffffffffffffffff167f17307eab39ab6107e8899845ad3d59bd9653f200f220920489ca2b5937696c31836040516120f29190613d22565b60405180910390a35050565b600060018314612143576040517f08c379a000000000000000000000000000000000000000000000000000000000815260040161213a906158da565b60405180910390fd5b600c600083815260200190815260200160002054905092915050565b6000612710600d54476121729190615032565b6009546127106121829190615460565b61218c9190615088565b6121969190615111565b905090565b600a5481565b6000600b6000838152602001908152602001600020549050919050565b600073ffffffffffffffffffffffffffffffffffffffff166121de612f12565b73ffffffffffffffffffffffffffffffffffffffff161415612235576040517f08c379a000000000000000000000000000000000000000000000000000000000815260040161222c90614a9b565b60405180910390fd5b61223d61335b565b612245613062565b73ffffffffffffffffffffffffffffffffffffffff1663e61cb05e612268612f12565b8888888888886040518863ffffffff1660e01b81526004016122909796959493929190615829565b600060405180830381600087803b1580156122aa57600080fd5b505af11580156122be573d6000803e3d6000fd5b50505050505050505050565b600e60009054906101000a900460ff16612319576040517f08c379a000000000000000000000000000000000000000000000000000000000815260040161231090615946565b60405180910390fd5b60006123266001836120fe565b90508034101561236b576040517f08c379a0000000000000000000000000000000000000000000000000000000008152600401612362906159b2565b60405180910390fd5b600082146123ae576040517f08c379a00000000000000000000000000000000000000000000000000000000081526004016123a590615368565b60405180910390fd5b600081346123bc9190615460565b111561247b5760003373ffffffffffffffffffffffffffffffffffffffff1682346123e79190615460565b6040516123f39061573c565b60006040518083038185875af1925050503d8060008114612430576040519150601f19603f3d011682016040523d82523d6000602084013e612435565b606091505b5050905080612479576040517f08c379a00000000000000000000000000000000000000000000000000000000081526004016124709061579d565b60405180910390fd5b505b61249733836001604051806020016040528060008152506134fa565b6001600b600084815260200190815260200160002060008282546124bb9190615032565b925050819055503373ffffffffffffffffffffffffffffffffffffffff167f25ba90957e661d6984db35cb313f752c45b1b67a3252e45d3f260a00fff0d7196001848460405161250d939291906159d2565b60405180910390a2600854612521836121a1565b101561255857600654600c6000848152602001908152602001600020600082825461254c9190615032565b92505081905550612585565b600754600c6000848152602001908152602001600020600082825461257d9190615032565b925050819055505b5050565b61259161308c565b600f544210156125d6576040517f08c379a00000000000000000000000000000000000000000000000000000000081526004016125cd90615809565b60405180910390fd5b600073ffffffffffffffffffffffffffffffffffffffff166125f6612f12565b73ffffffffffffffffffffffffffffffffffffffff161461264c576040517f08c379a0000000000000000000000000000000000000000000000000000000008152600401612643906156eb565b60405180910390fd5b3373ffffffffffffffffffffffffffffffffffffffff166108fc479081150290604051600060405180830381858888f19350505050158015612692573d6000803e3d6000fd5b50565b600e60009054906101000a900460ff166126e4576040517f08c379a00000000000000000000000000000000000000000000000000000000081526004016126db90615a55565b60405180910390fd5b60008114612727576040517f08c379a000000000000000000000000000000000000000000000000000000000815260040161271e90615368565b60405180910390fd5b60006127346001836129f8565b905060008060003373ffffffffffffffffffffffffffffffffffffffff1673ffffffffffffffffffffffffffffffffffffffff168152602001908152602001600020600084815260200190815260200160002054116127c8576040517f08c379a00000000000000000000000000000000000000000000000000000000081526004016127bf90615ac1565b60405180910390fd5b8047101561280b576040517f08c379a000000000000000000000000000000000000000000000000000000000815260040161280290615b2d565b60405180910390fd5b61281733836001613755565b6001600b6000848152602001908152602001600020600082825461283b9190615460565b9250508190555060003373ffffffffffffffffffffffffffffffffffffffff16826040516128689061573c565b60006040518083038185875af1925050503d80600081146128a5576040519150601f19603f3d011682016040523d82523d6000602084013e6128aa565b606091505b50509050806128ee576040517f08c379a00000000000000000000000000000000000000000000000000000000081526004016128e59061579d565b60405180910390fd5b3373ffffffffffffffffffffffffffffffffffffffff167f68294b5fb4234239b694f5ef768a13b93132c838ecd88673e56a4caa8089b91960018585604051612939939291906159d2565b60405180910390a260085461294d846121a1565b101561298457600654600c600085815260200190815260200160002060008282546129789190615460565b925050819055506129b1565b600754600c600085815260200190815260200160002060008282546129a99190615460565b925050819055505b505050565b60016020528160005260406000206020528060005260406000206000915091509054906101000a900460ff1681565b600e60009054906101000a900460ff1681565b600060018314612a3d576040517f08c379a0000000000000000000000000000000000000000000000000000000008152600401612a34906158da565b60405180910390fd5b612710600c600084815260200190815260200160002054600954612710612a649190615460565b612a6e9190615088565b612a789190615111565b905092915050565b8573ffffffffffffffffffffffffffffffffffffffff163373ffffffffffffffffffffffffffffffffffffffff161480612b405750600160008773ffffffffffffffffffffffffffffffffffffffff1673ffffffffffffffffffffffffffffffffffffffff16815260200190815260200160002060003373ffffffffffffffffffffffffffffffffffffffff1673ffffffffffffffffffffffffffffffffffffffff16815260200190815260200160002060009054906101000a900460ff165b612b7f576040517f08c379a0000000000000000000000000000000000000000000000000000000008152600401612b7690615440565b60405180910390fd5b826000808873ffffffffffffffffffffffffffffffffffffffff1673ffffffffffffffffffffffffffffffffffffffff16815260200190815260200160002060008681526020019081526020016000206000828254612bde9190615460565b92505081905550826000808773ffffffffffffffffffffffffffffffffffffffff1673ffffffffffffffffffffffffffffffffffffffff16815260200190815260200160002060008681526020019081526020016000206000828254612c449190615032565b925050819055508473ffffffffffffffffffffffffffffffffffffffff168673ffffffffffffffffffffffffffffffffffffffff163373ffffffffffffffffffffffffffffffffffffffff167fc3d58168c5ae7397731d063d5bbf3d657854427343f4c083240f7aacaa2d0f628787604051612cc1929190615b4d565b60405180910390a460008573ffffffffffffffffffffffffffffffffffffffff163b14612dc95763f23a6e6160e01b7bffffffffffffffffffffffffffffffffffffffffffffffffffffffff19168573ffffffffffffffffffffffffffffffffffffffff1663f23a6e613389888888886040518763ffffffff1660e01b8152600401612d5296959493929190615b76565b602060405180830381600087803b158015612d6c57600080fd5b505af1158015612d80573d6000803e3d6000fd5b505050506040513d601f19601f82011682018060405250810190612da491906155e0565b7bffffffffffffffffffffffffffffffffffffffffffffffffffffffff191614612dfb565b600073ffffffffffffffffffffffffffffffffffffffff168573ffffffffffffffffffffffffffffffffffffffff1614155b612e3a576040517f08c379a0000000000000000000000000000000000000000000000000000000008152600401612e3190615659565b60405180910390fd5b505050505050565b612e4a61308c565b600073ffffffffffffffffffffffffffffffffffffffff168173ffffffffffffffffffffffffffffffffffffffff161415612eba576040517f08c379a0000000000000000000000000000000000000000000000000000000008152600401612eb190615c44565b60405180910390fd5b612ec381613203565b50565b612ece61308c565b80601260006101000a81548173ffffffffffffffffffffffffffffffffffffffff021916908373ffffffffffffffffffffffffffffffffffffffff16021790555050565b6000601160009054906101000a900473ffffffffffffffffffffffffffffffffffffffff16905090565b60008173ffffffffffffffffffffffffffffffffffffffff166370a08231306040518263ffffffff1660e01b8152600401612f779190613e07565b60206040518083038186803b158015612f8f57600080fd5b505afa158015612fa3573d6000803e3d6000fd5b505050506040513d601f19601f82011682018060405250810190612fc79190615c79565b90508173ffffffffffffffffffffffffffffffffffffffff1663a9059cbb612fed612f12565b836040518363ffffffff1660e01b815260040161300b92919061447e565b602060405180830381600087803b15801561302557600080fd5b505af1158015613039573d6000803e3d6000fd5b505050506040513d601f19601f8201168201806040525081019061305d9190615cbb565b505050565b6000601060009054906101000a900473ffffffffffffffffffffffffffffffffffffffff16905090565b61309461383f565b73ffffffffffffffffffffffffffffffffffffffff166130b2611c86565b73ffffffffffffffffffffffffffffffffffffffff1614613108576040517f08c379a00000000000000000000000000000000000000000000000000000000081526004016130ff90615d34565b60405180910390fd5b565b80601160006101000a81548173ffffffffffffffffffffffffffffffffffffffff021916908373ffffffffffffffffffffffffffffffffffffffff16021790555050565b60006301ffc9a760e01b827bffffffffffffffffffffffffffffffffffffffffffffffffffffffff191614806131a9575063d9b67a2660e01b827bffffffffffffffffffffffffffffffffffffffffffffffffffffffff1916145b806131d95750630e89341c60e01b827bffffffffffffffffffffffffffffffffffffffffffffffffffffffff1916145b9050919050565b6000808273ffffffffffffffffffffffffffffffffffffffff163b119050919050565b600060028054906101000a900473ffffffffffffffffffffffffffffffffffffffff169050816002806101000a81548173ffffffffffffffffffffffffffffffffffffffff021916908373ffffffffffffffffffffffffffffffffffffffff1602179055508173ffffffffffffffffffffffffffffffffffffffff168173ffffffffffffffffffffffffffffffffffffffff167f8be0079c531659141344cd1fd0a4f28419497f9722a3daafe3b4186f6b6457e060405160405180910390a35050565b80600590805190602001906132dc929190613847565b5050565b6132e8613062565b73ffffffffffffffffffffffffffffffffffffffff16636e5f69198484846040518463ffffffff1660e01b815260040161332493929190615e01565b600060405180830381600087803b15801561333e57600080fd5b505af1158015613352573d6000803e3d6000fd5b50505050505050565b6000600d54613368610e94565b6133729190615460565b905080600d60008282546133869190615032565b925050819055506000613397612f12565b73ffffffffffffffffffffffffffffffffffffffff16826040516133ba9061573c565b60006040518083038185875af1925050503d80600081146133f7576040519150601f19603f3d011682016040523d82523d6000602084013e6133fc565b606091505b5050905080613440576040517f08c379a000000000000000000000000000000000000000000000000000000000815260040161343790615e8b565b60405180910390fd5b5050565b600061344e612f12565b73ffffffffffffffffffffffffffffffffffffffff16476040516134719061573c565b60006040518083038185875af1925050503d80600081146134ae576040519150601f19603f3d011682016040523d82523d6000602084013e6134b3565b606091505b50509050806134f7576040517f08c379a00000000000000000000000000000000000000000000000000000000081526004016134ee90615e8b565b60405180910390fd5b50565b816000808673ffffffffffffffffffffffffffffffffffffffff1673ffffffffffffffffffffffffffffffffffffffff168152602001908152602001600020600085815260200190815260200160002060008282546135599190615032565b925050819055508373ffffffffffffffffffffffffffffffffffffffff16600073ffffffffffffffffffffffffffffffffffffffff163373ffffffffffffffffffffffffffffffffffffffff167fc3d58168c5ae7397731d063d5bbf3d657854427343f4c083240f7aacaa2d0f6286866040516135d7929190615b4d565b60405180910390a460008473ffffffffffffffffffffffffffffffffffffffff163b146136de5763f23a6e6160e01b7bffffffffffffffffffffffffffffffffffffffffffffffffffffffff19168473ffffffffffffffffffffffffffffffffffffffff1663f23a6e613360008787876040518663ffffffff1660e01b8152600401613667959493929190615eab565b602060405180830381600087803b15801561368157600080fd5b505af1158015613695573d6000803e3d6000fd5b505050506040513d601f19601f820116820180604052508101906136b991906155e0565b7bffffffffffffffffffffffffffffffffffffffffffffffffffffffff191614613710565b600073ffffffffffffffffffffffffffffffffffffffff168473ffffffffffffffffffffffffffffffffffffffff1614155b61374f576040517f08c379a000000000000000000000000000000000000000000000000000000000815260040161374690615659565b60405180910390fd5b50505050565b806000808573ffffffffffffffffffffffffffffffffffffffff1673ffffffffffffffffffffffffffffffffffffffff168152602001908152602001600020600084815260200190815260200160002060008282546137b49190615460565b92505081905550600073ffffffffffffffffffffffffffffffffffffffff168373ffffffffffffffffffffffffffffffffffffffff163373ffffffffffffffffffffffffffffffffffffffff167fc3d58168c5ae7397731d063d5bbf3d657854427343f4c083240f7aacaa2d0f628585604051613832929190615b4d565b60405180910390a4505050565b600033905090565b82805461385390614ec2565b90600052602060002090601f01602090048101928261387557600085556138bc565b82601f1061388e57805160ff19168380011785556138bc565b828001600101855582156138bc579182015b828111156138bb5782518255916020019190600101906138a0565b5b5090506138c991906138cd565b5090565b5b808211156138e65760008160009055506001016138ce565b5090565b6000604051905090565b600080fd5b600080fd5b600073ffffffffffffffffffffffffffffffffffffffff82169050919050565b6000613929826138fe565b9050919050565b600061393b8261391e565b9050919050565b61394b81613930565b811461395657600080fd5b50565b60008135905061396881613942565b92915050565b600080fd5b600080fd5b600080fd5b60008083601f8401126139935761399261396e565b5b8235905067ffffffffffffffff8111156139b0576139af613973565b5b6020830191508360208202830111156139cc576139cb613978565b5b9250929050565b60008083601f8401126139e9576139e861396e565b5b8235905067ffffffffffffffff811115613a0657613a05613973565b5b602083019150836020820283011115613a2257613a21613978565b5b9250929050565b600063ffffffff82169050919050565b613a4281613a29565b8114613a4d57600080fd5b50565b600081359050613a5f81613a39565b92915050565b613a6e8161391e565b8114613a7957600080fd5b50565b600081359050613a8b81613a65565b92915050565b600080600080600080600060a0888a031215613ab057613aaf6138f4565b5b6000613abe8a828b01613959565b975050602088013567ffffffffffffffff811115613adf57613ade6138f9565b5b613aeb8a828b0161397d565b9650965050604088013567ffffffffffffffff811115613b0e57613b0d6138f9565b5b613b1a8a828b016139d3565b94509450506060613b2d8a828b01613a50565b9250506080613b3e8a828b01613a7c565b91505092959891949750929550565b6000819050919050565b613b6081613b4d565b8114613b6b57600080fd5b50565b600081359050613b7d81613b57565b92915050565b60008060408385031215613b9a57613b996138f4565b5b6000613ba885828601613a7c565b9250506020613bb985828601613b6e565b9150509250929050565b613bcc81613b4d565b82525050565b6000602082019050613be76000830184613bc3565b92915050565b600080600080600060608688031215613c0957613c086138f4565b5b600086013567ffffffffffffffff811115613c2757613c266138f9565b5b613c338882890161397d565b9550955050602086013567ffffffffffffffff811115613c5657613c556138f9565b5b613c62888289016139d3565b93509350506040613c7588828901613a50565b9150509295509295909350565b60007fffffffff0000000000000000000000000000000000000000000000000000000082169050919050565b613cb781613c82565b8114613cc257600080fd5b50565b600081359050613cd481613cae565b92915050565b600060208284031215613cf057613cef6138f4565b5b6000613cfe84828501613cc5565b91505092915050565b60008115159050919050565b613d1c81613d07565b82525050565b6000602082019050613d376000830184613d13565b92915050565b600081519050919050565b600082825260208201905092915050565b60005b83811015613d77578082015181840152602081019050613d5c565b83811115613d86576000848401525b50505050565b6000601f19601f8301169050919050565b6000613da882613d3d565b613db28185613d48565b9350613dc2818560208601613d59565b613dcb81613d8c565b840191505092915050565b60006020820190508181036000830152613df08184613d9d565b905092915050565b613e018161391e565b82525050565b6000602082019050613e1c6000830184613df8565b92915050565b600060208284031215613e3857613e376138f4565b5b6000613e4684828501613b6e565b91505092915050565b600080fd5b7f4e487b7100000000000000000000000000000000000000000000000000000000600052604160045260246000fd5b613e8c82613d8c565b810181811067ffffffffffffffff82111715613eab57613eaa613e54565b5b80604052505050565b6000613ebe6138ea565b9050613eca8282613e83565b919050565b600080fd5b600080fd5b600067ffffffffffffffff821115613ef457613ef3613e54565b5b613efd82613d8c565b9050602081019050919050565b82818337600083830152505050565b6000613f2c613f2784613ed9565b613eb4565b905082815260208101848484011115613f4857613f47613ed4565b5b613f53848285613f0a565b509392505050565b600082601f830112613f7057613f6f61396e565b5b8135613f80848260208601613f19565b91505092915050565b60006101208284031215613fa057613f9f613e4f565b5b613fab610120613eb4565b9050600082013567ffffffffffffffff811115613fcb57613fca613ecf565b5b613fd784828501613f5b565b600083015250602082013567ffffffffffffffff811115613ffb57613ffa613ecf565b5b61400784828501613f5b565b602083015250604061401b84828501613b6e565b604083015250606061402f84828501613b6e565b606083015250608061404384828501613b6e565b60808301525060a061405784828501613b6e565b60a08301525060c061406b84828501613b6e565b60c08301525060e061407f84828501613b6e565b60e08301525061010061409484828501613b6e565b6101008301525092915050565b600067ffffffffffffffff8211156140bc576140bb613e54565b5b6140c582613d8c565b9050602081019050919050565b60006140e56140e0846140a1565b613eb4565b90508281526020810184848401111561410157614100613ed4565b5b61410c848285613f0a565b509392505050565b600082601f8301126141295761412861396e565b5b81356141398482602086016140d2565b91505092915050565b60006040828403121561415857614157613e4f565b5b6141626040613eb4565b9050600082013567ffffffffffffffff81111561418257614181613ecf565b5b61418e84828501613f5b565b600083015250602082013567ffffffffffffffff8111156141b2576141b1613ecf565b5b6141be84828501614114565b60208301525092915050565b600080600080600060a086880312156141e6576141e56138f4565b5b60006141f488828901613a7c565b955050602086013567ffffffffffffffff811115614215576142146138f9565b5b61422188828901613f89565b945050604086013567ffffffffffffffff811115614242576142416138f9565b5b61424e88828901614142565b935050606061425f88828901613a7c565b925050608061427088828901613a7c565b9150509295509295909350565b600067ffffffffffffffff82111561429857614297613e54565b5b602082029050602081019050919050565b60006142bc6142b78461427d565b613eb4565b905080838252602082019050602084028301858111156142df576142de613978565b5b835b8181101561430857806142f48882613959565b8452602084019350506020810190506142e1565b5050509392505050565b600082601f8301126143275761432661396e565b5b81356143378482602086016142a9565b91505092915050565b600080600080600080600080600060e08a8c031215614362576143616138f4565b5b60006143708c828d01613a7c565b99505060206143818c828d01613b6e565b98505060408a013567ffffffffffffffff8111156143a2576143a16138f9565b5b6143ae8c828d01614312565b97505060608a013567ffffffffffffffff8111156143cf576143ce6138f9565b5b6143db8c828d0161397d565b965096505060808a013567ffffffffffffffff8111156143fe576143fd6138f9565b5b61440a8c828d016139d3565b945094505060a061441d8c828d01613a50565b92505060c061442e8c828d01613a7c565b9150509295985092959850929598565b60008060408385031215614455576144546138f4565b5b600061446385828601613b6e565b925050602061447485828601613b6e565b9150509250929050565b60006040820190506144936000830185613df8565b6144a06020830184613bc3565b9392505050565b60008083601f8401126144bd576144bc61396e565b5b8235905067ffffffffffffffff8111156144da576144d9613973565b5b6020830191508360208202830111156144f6576144f5613978565b5b9250929050565b60008083601f8401126145135761451261396e565b5b8235905067ffffffffffffffff8111156145305761452f613973565b5b60208301915083600182028301111561454c5761454b613978565b5b9250929050565b60008060008060008060008060a0898b031215614573576145726138f4565b5b60006145818b828c01613a7c565b98505060206145928b828c01613a7c565b975050604089013567ffffffffffffffff8111156145b3576145b26138f9565b5b6145bf8b828c016144a7565b9650965050606089013567ffffffffffffffff8111156145e2576145e16138f9565b5b6145ee8b828c016144a7565b9450945050608089013567ffffffffffffffff811115614611576146106138f9565b5b61461d8b828c016144fd565b92509250509295985092959890939650565b60008060008060408587031215614649576146486138f4565b5b600085013567ffffffffffffffff811115614667576146666138f9565b5b6146738782880161397d565b9450945050602085013567ffffffffffffffff811115614696576146956138f9565b5b6146a2878288016144a7565b925092505092959194509250565b600081519050919050565b600082825260208201905092915050565b6000819050602082019050919050565b6146e581613b4d565b82525050565b60006146f783836146dc565b60208301905092915050565b6000602082019050919050565b600061471b826146b0565b61472581856146bb565b9350614730836146cc565b8060005b8381101561476157815161474888826146eb565b975061475383614703565b925050600181019050614734565b5085935050505092915050565b600060208201905081810360008301526147888184614710565b905092915050565b6000602082840312156147a6576147a56138f4565b5b600082013567ffffffffffffffff8111156147c4576147c36138f9565b5b6147d084828501613f5b565b91505092915050565b600080604083850312156147f0576147ef6138f4565b5b60006147fe85828601613b6e565b925050602083013567ffffffffffffffff81111561481f5761481e6138f9565b5b61482b85828601614312565b9150509250929050565b61483e81613d07565b811461484957600080fd5b50565b60008135905061485b81614835565b92915050565b60008060408385031215614878576148776138f4565b5b600061488685828601613a7c565b92505060206148978582860161484c565b9150509250929050565b600080600080600080608087890312156148be576148bd6138f4565b5b600087013567ffffffffffffffff8111156148dc576148db6138f9565b5b6148e889828a0161397d565b9650965050602087013567ffffffffffffffff81111561490b5761490a6138f9565b5b61491789828a016139d3565b9450945050604061492a89828a01613a50565b925050606061493b89828a01613a7c565b9150509295509295509295565b6000806040838503121561495f5761495e6138f4565b5b600061496d85828601613a7c565b925050602061497e85828601613a7c565b9150509250929050565b60008060008060008060a087890312156149a5576149a46138f4565b5b60006149b389828a01613a7c565b96505060206149c489828a01613a7c565b95505060406149d589828a01613b6e565b94505060606149e689828a01613b6e565b935050608087013567ffffffffffffffff811115614a0757614a066138f9565b5b614a1389828a016144fd565b92509250509295509295509295565b600060208284031215614a3857614a376138f4565b5b6000614a4684828501613a7c565b91505092915050565b7f53706c6974206e6f742063726561746564207965740000000000000000000000600082015250565b6000614a85601583613d48565b9150614a9082614a4f565b602082019050919050565b60006020820190508181036000830152614ab481614a78565b9050919050565b6000819050919050565b6000614ae0614adb614ad6846138fe565b614abb565b6138fe565b9050919050565b6000614af282614ac5565b9050919050565b6000614b0482614ae7565b9050919050565b614b1481614af9565b82525050565b600082825260208201905092915050565b6000819050919050565b614b3e8161391e565b82525050565b6000614b508383614b35565b60208301905092915050565b6000614b6b6020840184613a7c565b905092915050565b6000602082019050919050565b6000614b8c8385614b1a565b9350614b9782614b2b565b8060005b85811015614bd057614bad8284614b5c565b614bb78882614b44565b9750614bc283614b73565b925050600181019050614b9b565b5085925050509392505050565b600082825260208201905092915050565b6000819050919050565b614c0181613a29565b82525050565b6000614c138383614bf8565b60208301905092915050565b6000614c2e6020840184613a50565b905092915050565b6000602082019050919050565b6000614c4f8385614bdd565b9350614c5a82614bee565b8060005b85811015614c9357614c708284614c1f565b614c7a8882614c07565b9750614c8583614c36565b925050600181019050614c5e565b5085925050509392505050565b614ca981613a29565b82525050565b600060c082019050614cc4600083018b613df8565b614cd1602083018a614b0b565b8181036040830152614ce481888a614b80565b90508181036060830152614cf9818688614c43565b9050614d086080830185614ca0565b614d1560a0830184613df8565b9998505050505050505050565b7f53706c69744d61696e206e6f7420736574000000000000000000000000000000600082015250565b6000614d58601183613d48565b9150614d6382614d22565b602082019050919050565b60006020820190508181036000830152614d8781614d4b565b9050919050565b7f53706c697420616c726561647920637265617465640000000000000000000000600082015250565b6000614dc4601583613d48565b9150614dcf82614d8e565b602082019050919050565b60006020820190508181036000830152614df381614db7565b9050919050565b60006080820190508181036000830152614e1581888a614b80565b90508181036020830152614e2a818688614c43565b9050614e396040830185614ca0565b614e466060830184613df8565b979650505050505050565b600081519050614e6081613a65565b92915050565b600060208284031215614e7c57614e7b6138f4565b5b6000614e8a84828501614e51565b91505092915050565b7f4e487b7100000000000000000000000000000000000000000000000000000000600052602260045260246000fd5b60006002820490506001821680614eda57607f821691505b60208210811415614eee57614eed614e93565b5b50919050565b6000819050919050565b6000614f19614f14614f0f84614ef4565b614abb565b613b4d565b9050919050565b614f2981614efe565b82525050565b6000602082019050614f446000830184614f20565b92915050565b6000614f5d614f5884613ed9565b613eb4565b905082815260208101848484011115614f7957614f78613ed4565b5b614f84848285613d59565b509392505050565b600082601f830112614fa157614fa061396e565b5b8151614fb1848260208601614f4a565b91505092915050565b600060208284031215614fd057614fcf6138f4565b5b600082015167ffffffffffffffff811115614fee57614fed6138f9565b5b614ffa84828501614f8c565b91505092915050565b7f4e487b7100000000000000000000000000000000000000000000000000000000600052601160045260246000fd5b600061503d82613b4d565b915061504883613b4d565b9250827fffffffffffffffffffffffffffffffffffffffffffffffffffffffffffffffff0382111561507d5761507c615003565b5b828201905092915050565b600061509382613b4d565b915061509e83613b4d565b9250817fffffffffffffffffffffffffffffffffffffffffffffffffffffffffffffffff04831182151516156150d7576150d6615003565b5b828202905092915050565b7f4e487b7100000000000000000000000000000000000000000000000000000000600052601260045260246000fd5b600061511c82613b4d565b915061512783613b4d565b925082615137576151366150e2565b5b828204905092915050565b7f496e697469616c697a61626c653a20636f6e747261637420697320616c72656160008201527f647920696e697469616c697a6564000000000000000000000000000000000000602082015250565b600061519e602e83613d48565b91506151a982615142565b604082019050919050565b600060208201905081810360008301526151cd81615191565b9050919050565b600081519050919050565b600082825260208201905092915050565b60006151fb826151d4565b61520581856151df565b9350615215818560208601613d59565b61521e81613d8c565b840191505092915050565b6000602082019050818103600083015261524381846151f0565b905092915050565b600060ff82169050919050565b600061527361526e61526984614ef4565b614abb565b61524b565b9050919050565b61528381615258565b82525050565b600060208201905061529e600083018461527a565b92915050565b7f4e487b7100000000000000000000000000000000000000000000000000000000600052603260045260246000fd5b60006152de82613b4d565b91507fffffffffffffffffffffffffffffffffffffffffffffffffffffffffffffffff82141561531157615310615003565b5b600182019050919050565b7f63757272656e746c79206f6e6c79206f6e652065646974696f6e000000000000600082015250565b6000615352601a83613d48565b915061535d8261531c565b602082019050919050565b6000602082019050818103600083015261538181615345565b9050919050565b7f4c454e4754485f4d49534d415443480000000000000000000000000000000000600082015250565b60006153be600f83613d48565b91506153c982615388565b602082019050919050565b600060208201905081810360008301526153ed816153b1565b9050919050565b7f4e4f545f415554484f52495a4544000000000000000000000000000000000000600082015250565b600061542a600e83613d48565b9150615435826153f4565b602082019050919050565b600060208201905081810360008301526154598161541d565b9050919050565b600061546b82613b4d565b915061547683613b4d565b92508282101561548957615488615003565b5b828203905092915050565b600080fd5b60006154a583856146bb565b93507f07ffffffffffffffffffffffffffffffffffffffffffffffffffffffffffffff8311156154d8576154d7615494565b5b6020830292506154e9838584613f0a565b82840190509392505050565b60006040820190508181036000830152615510818688615499565b90508181036020830152615525818486615499565b905095945050505050565b600061553c83856151df565b9350615549838584613f0a565b61555283613d8c565b840190509392505050565b600060a082019050615572600083018b613df8565b61557f602083018a613df8565b818103604083015261559281888a615499565b905081810360608301526155a7818688615499565b905081810360808301526155bc818486615530565b90509998505050505050505050565b6000815190506155da81613cae565b92915050565b6000602082840312156155f6576155f56138f4565b5b6000615604848285016155cb565b91505092915050565b7f554e534146455f524543495049454e5400000000000000000000000000000000600082015250565b6000615643601083613d48565b915061564e8261560d565b602082019050919050565b6000602082019050818103600083015261567281615636565b9050919050565b7f43616e6e6f74207769746864726177207769746820616e20616374697665207360008201527f706c697400000000000000000000000000000000000000000000000000000000602082015250565b60006156d5602483613d48565b91506156e082615679565b604082019050919050565b60006020820190508181036000830152615704816156c8565b9050919050565b600081905092915050565b50565b600061572660008361570b565b915061573182615716565b600082019050919050565b600061574782615719565b9150819050919050565b7f4661696c656420746f2073656e64206574686572000000000000000000000000600082015250565b6000615787601483613d48565b915061579282615751565b602082019050919050565b600060208201905081810360008301526157b68161577a565b9050919050565b7f4372657363656e646f206973207374696c6c206c6f636b656400000000000000600082015250565b60006157f3601983613d48565b91506157fe826157bd565b602082019050919050565b60006020820190508181036000830152615822816157e6565b9050919050565b600060a08201905061583e600083018a613df8565b818103602083015261585181888a614b80565b90508181036040830152615866818688614c43565b90506158756060830185614ca0565b6158826080830184613df8565b98975050505050505050565b7f6d617820616d6f756e7420697320310000000000000000000000000000000000600082015250565b60006158c4600f83613d48565b91506158cf8261588e565b602082019050919050565b600060208201905081810360008301526158f3816158b7565b9050919050565b7f53616c65206d7573742062652061637469766520746f20627579000000000000600082015250565b6000615930601a83613d48565b915061593b826158fa565b602082019050919050565b6000602082019050818103600083015261595f81615923565b9050919050565b7f496e73756666696369656e742066756e64730000000000000000000000000000600082015250565b600061599c601283613d48565b91506159a782615966565b602082019050919050565b600060208201905081810360008301526159cb8161598f565b9050919050565b60006060820190506159e76000830186614f20565b6159f46020830185613bc3565b615a016040830184613bc3565b949350505050565b7f53616c65206d7573742062652061637469766520746f2073656c6c0000000000600082015250565b6000615a3f601b83613d48565b9150615a4a82615a09565b602082019050919050565b60006020820190508181036000830152615a6e81615a32565b9050919050565b7f6d757374206f776e206e667420746f2073656c6c000000000000000000000000600082015250565b6000615aab601483613d48565b9150615ab682615a75565b602082019050919050565b60006020820190508181036000830152615ada81615a9e565b9050919050565b7f696e73756666696369656e74206c697175696469747920746f2073656c6c0000600082015250565b6000615b17601e83613d48565b9150615b2282615ae1565b602082019050919050565b60006020820190508181036000830152615b4681615b0a565b9050919050565b6000604082019050615b626000830185613bc3565b615b6f6020830184613bc3565b9392505050565b600060a082019050615b8b6000830189613df8565b615b986020830188613df8565b615ba56040830187613bc3565b615bb26060830186613bc3565b8181036080830152615bc5818486615530565b9050979650505050505050565b7f4f776e61626c653a206e6577206f776e657220697320746865207a65726f206160008201527f6464726573730000000000000000000000000000000000000000000000000000602082015250565b6000615c2e602683613d48565b9150615c3982615bd2565b604082019050919050565b60006020820190508181036000830152615c5d81615c21565b9050919050565b600081519050615c7381613b57565b92915050565b600060208284031215615c8f57615c8e6138f4565b5b6000615c9d84828501615c64565b91505092915050565b600081519050615cb581614835565b92915050565b600060208284031215615cd157615cd06138f4565b5b6000615cdf84828501615ca6565b91505092915050565b7f4f776e61626c653a2063616c6c6572206973206e6f7420746865206f776e6572600082015250565b6000615d1e602083613d48565b9150615d2982615ce8565b602082019050919050565b60006020820190508181036000830152615d4d81615d11565b9050919050565b600081519050919050565b6000819050602082019050919050565b615d7881614af9565b82525050565b6000615d8a8383615d6f565b60208301905092915050565b6000602082019050919050565b6000615dae82615d54565b615db88185614b1a565b9350615dc383615d5f565b8060005b83811015615df4578151615ddb8882615d7e565b9750615de683615d96565b925050600181019050615dc7565b5085935050505092915050565b6000606082019050615e166000830186613df8565b615e236020830185613bc3565b8181036040830152615e358184615da3565b9050949350505050565b7f436f756c64206e6f74207472616e736665722045544820746f2073706c697400600082015250565b6000615e75601f83613d48565b9150615e8082615e3f565b602082019050919050565b60006020820190508181036000830152615ea481615e68565b9050919050565b600060a082019050615ec06000830188613df8565b615ecd6020830187613df8565b615eda6040830186613bc3565b615ee76060830185613bc3565b8181036080830152615ef981846151f0565b9050969550505050505056fea264697066735822122021a29296f8d7e6be583e109a6c2518c3134be152e5d0b3a75cacd51e1f50d32f64736f6c63430008090033",
  "linkReferences": {},
  "deployedLinkReferences": {}
}