{
  "_format": "hh-sol-artifact-1",
  "contractName": "DCNTRentalMarket",
  "sourceName": "contracts/DCNTRentalMarket.sol",
  "abi": [
    {
      "inputs": [],
      "stateMutability": "nonpayable",
      "type": "constructor"
    },
    {
      "anonymous": false,
      "inputs": [
        {
          "indexed": true,
          "internalType": "address",
          "name": "nft",
          "type": "address"
        },
        {
          "indexed": true,
          "internalType": "uint256",
          "name": "tokenId",
          "type": "uint256"
        },
        {
          "indexed": true,
          "internalType": "address",
          "name": "user",
          "type": "address"
        },
        {
          "indexed": false,
          "internalType": "uint64",
          "name": "expires",
          "type": "uint64"
        }
      ],
      "name": "Rent",
      "type": "event"
    },
    {
      "anonymous": false,
      "inputs": [
        {
          "indexed": true,
          "internalType": "address",
          "name": "nft",
          "type": "address"
        },
        {
          "indexed": true,
          "internalType": "uint256",
          "name": "tokenId",
          "type": "uint256"
        },
        {
          "components": [
            {
              "internalType": "bool",
              "name": "isListed",
              "type": "bool"
            },
            {
              "internalType": "uint16",
              "name": "minDays",
              "type": "uint16"
            },
            {
              "internalType": "uint16",
              "name": "maxDays",
              "type": "uint16"
            },
            {
              "internalType": "uint256",
              "name": "pricePerDay",
              "type": "uint256"
            }
          ],
          "indexed": false,
          "internalType": "struct DCNTRentalMarket.Rentable",
          "name": "rentable",
          "type": "tuple"
        }
      ],
      "name": "SetRentable",
      "type": "event"
    },
    {
      "inputs": [
        {
          "internalType": "address",
          "name": "_nft",
          "type": "address"
        },
        {
          "internalType": "uint256",
          "name": "_tokenId",
          "type": "uint256"
        }
      ],
      "name": "getRentable",
      "outputs": [
        {
          "components": [
            {
              "internalType": "bool",
              "name": "isListed",
              "type": "bool"
            },
            {
              "internalType": "uint16",
              "name": "minDays",
              "type": "uint16"
            },
            {
              "internalType": "uint16",
              "name": "maxDays",
              "type": "uint16"
            },
            {
              "internalType": "uint256",
              "name": "pricePerDay",
              "type": "uint256"
            }
          ],
          "internalType": "struct DCNTRentalMarket.Rentable",
          "name": "",
          "type": "tuple"
        }
      ],
      "stateMutability": "view",
      "type": "function"
    },
    {
      "inputs": [
        {
          "internalType": "address",
          "name": "_nft",
          "type": "address"
        },
        {
          "internalType": "uint256[]",
          "name": "_tokenIds",
          "type": "uint256[]"
        }
      ],
      "name": "getRentables",
      "outputs": [
        {
          "components": [
            {
              "internalType": "bool",
              "name": "isListed",
              "type": "bool"
            },
            {
              "internalType": "uint16",
              "name": "minDays",
              "type": "uint16"
            },
            {
              "internalType": "uint16",
              "name": "maxDays",
              "type": "uint16"
            },
            {
              "internalType": "uint256",
              "name": "pricePerDay",
              "type": "uint256"
            }
          ],
          "internalType": "struct DCNTRentalMarket.Rentable[]",
          "name": "",
          "type": "tuple[]"
        }
      ],
      "stateMutability": "view",
      "type": "function"
    },
    {
      "inputs": [
        {
          "internalType": "address",
          "name": "_nft",
          "type": "address"
        },
        {
          "internalType": "uint256",
          "name": "_tokenId",
          "type": "uint256"
        },
        {
          "internalType": "uint16",
          "name": "_days",
          "type": "uint16"
        }
      ],
      "name": "rent",
      "outputs": [],
      "stateMutability": "payable",
      "type": "function"
    },
    {
      "inputs": [
        {
          "internalType": "address",
          "name": "",
          "type": "address"
        },
        {
          "internalType": "uint256",
          "name": "",
          "type": "uint256"
        }
      ],
      "name": "rentables",
      "outputs": [
        {
          "internalType": "bool",
          "name": "isListed",
          "type": "bool"
        },
        {
          "internalType": "uint16",
          "name": "minDays",
          "type": "uint16"
        },
        {
          "internalType": "uint16",
          "name": "maxDays",
          "type": "uint16"
        },
        {
          "internalType": "uint256",
          "name": "pricePerDay",
          "type": "uint256"
        }
      ],
      "stateMutability": "view",
      "type": "function"
    },
    {
      "inputs": [
        {
          "internalType": "address",
          "name": "_nft",
          "type": "address"
        },
        {
          "internalType": "uint256",
          "name": "_tokenId",
          "type": "uint256"
        },
        {
          "internalType": "bool",
          "name": "_isListed",
          "type": "bool"
        }
      ],
      "name": "setListed",
      "outputs": [],
      "stateMutability": "nonpayable",
      "type": "function"
    },
    {
      "inputs": [
        {
          "internalType": "address",
          "name": "_nft",
          "type": "address"
        },
        {
          "internalType": "uint256[]",
          "name": "_tokenIds",
          "type": "uint256[]"
        },
        {
          "internalType": "bool",
          "name": "_isListed",
          "type": "bool"
        }
      ],
      "name": "setListedBatch",
      "outputs": [],
      "stateMutability": "nonpayable",
      "type": "function"
    },
    {
      "inputs": [
        {
          "internalType": "address",
          "name": "_nft",
          "type": "address"
        },
        {
          "internalType": "uint256",
          "name": "_tokenId",
          "type": "uint256"
        },
        {
          "internalType": "bool",
          "name": "_isListed",
          "type": "bool"
        },
        {
          "internalType": "uint256",
          "name": "_pricePerDay",
          "type": "uint256"
        },
        {
          "internalType": "uint16",
          "name": "_minDays",
          "type": "uint16"
        },
        {
          "internalType": "uint16",
          "name": "_maxDays",
          "type": "uint16"
        }
      ],
      "name": "setRentable",
      "outputs": [],
      "stateMutability": "nonpayable",
      "type": "function"
    },
    {
      "inputs": [
        {
          "components": [
            {
              "internalType": "address",
              "name": "nft",
              "type": "address"
            },
            {
              "internalType": "uint256",
              "name": "tokenId",
              "type": "uint256"
            },
            {
              "internalType": "bool",
              "name": "isListed",
              "type": "bool"
            },
            {
              "internalType": "uint256",
              "name": "pricePerDay",
              "type": "uint256"
            },
            {
              "internalType": "uint16",
              "name": "minDays",
              "type": "uint16"
            },
            {
              "internalType": "uint16",
              "name": "maxDays",
              "type": "uint16"
            }
          ],
          "internalType": "struct DCNTRentalMarket.RentableConfig[]",
          "name": "_rentableConfigs",
          "type": "tuple[]"
        }
      ],
      "name": "setRentables",
      "outputs": [],
      "stateMutability": "nonpayable",
      "type": "function"
    }
  ],
  "bytecode": "0x608060405234801561001057600080fd5b506116cd806100206000396000f3fe60806040526004361061007b5760003560e01c806332d45dcb1161004e57806332d45dcb1461017b578063461ed9571461019b5780639b84acf9146101c8578063e800af0e146101e857600080fd5b806301240020146100805780630bb07b2d1461010c5780630d07df4c1461012e5780631fa306771461015b575b600080fd5b34801561008c57600080fd5b506100d661009b3660046110dc565b60006020818152928152604080822090935290815220805460019091015460ff82169161ffff61010082048116926301000000909204169084565b6040516101039493929190931515845261ffff928316602085015291166040830152606082015260800190565b60405180910390f35b34801561011857600080fd5b5061012c610127366004611133565b6101fb565b005b34801561013a57600080fd5b5061014e6101493660046111e9565b610211565b604051610103919061123e565b34801561016757600080fd5b5061012c6101763660046112b9565b61034f565b34801561018757600080fd5b5061012c610196366004611321565b610390565b3480156101a757600080fd5b506101bb6101b63660046110dc565b6103a0565b6040516101039190611363565b3480156101d457600080fd5b5061012c6101e336600461139e565b610425565b61012c6101f6366004611413565b61049c565b610209868686868686610b62565b505050505050565b60608160008167ffffffffffffffff81111561022f5761022f611451565b60405190808252806020026020018201604052801561028157816020015b60408051608081018252600080825260208083018290529282018190526060820152825260001990920191018161024d5790505b50905060005b82811015610345576001600160a01b0387166000908152602081905260408120908787848181106102ba576102ba611467565b602090810292909201358352508181019290925260409081016000208151608081018352815460ff81161515825261ffff61010082048116958301959095526301000000900490931691830191909152600101546060820152825183908390811061032757610327611467565b6020026020010181905250808061033d90611493565b915050610287565b5095945050505050565b8160005b818110156102095761037e8686868481811061037157610371611467565b9050602002013585610e56565b8061038881611493565b915050610353565b61039b838383610e56565b505050565b60408051608080820183526000808352602080840182905283850182905260609384018290526001600160a01b038716825281815284822086835281529084902084519283018552805460ff81161515845261ffff61010082048116938501939093526301000000900490911693820193909352600190920154908201525b92915050565b8060005b8181101561049657600084848381811061044557610445611467565b905060c0020180360381019061045b91906114ac565b9050610483816000015182602001518360400151846060015185608001518660a00151610b62565b508061048e81611493565b915050610429565b50505050565b6001600160a01b03831660008181526020818152604080832086845282528083208151608081018352815460ff81161515825261ffff61010082048116958301959095526301000000900490931683830152600101546060830152516331a9108f60e11b815260048101869052909290636352211e90602401602060405180830381865afa158015610532573d6000803e3d6000fd5b505050506040513d601f19601f82011682018060405250810190610556919061154b565b9050610563858583610fbe565b6105885760405162461bcd60e51b815260040161057f9061156f565b60405180910390fd5b81516105e45760405162461bcd60e51b815260206004820152602560248201527f52656e74616c7320617265206e6f742061637469766520666f722074686973206044820152643a37b5b2b760d91b606482015260840161057f565b604051636178f8a560e11b8152600481018590526000906001600160a01b0387169063c2f1f14a90602401602060405180830381865afa15801561062c573d6000803e3d6000fd5b505050506040513d601f19601f82011682018060405250810190610650919061154b565b6001600160a01b0316146106a65760405162461bcd60e51b815260206004820152601760248201527f546f6b656e20697320616c72656164792072656e746564000000000000000000604482015260640161057f565b816020015161ffff168361ffff16101580156106ce5750816040015161ffff168361ffff1611155b61071a5760405162461bcd60e51b815260206004820152601760248201527f496e76616c69642072656e74616c206475726174696f6e000000000000000000604482015260640161057f565b6001600160a01b0385166000908152602081815260408083208784529091529020600101548061078c5760405162461bcd60e51b815260206004820152601b60248201527f52656e74616c2066656520686173206e6f74206265656e207365740000000000604482015260640161057f565b600061079c61ffff8616836115b0565b905034818110156107ef5760405162461bcd60e51b815260206004820181905260248201527f4e6f7420656e6f7567682066756e64732073656e7420666f722072656e74616c604482015260640161057f565b6040516301ffc9a760e01b815263152a902d60e11b60048201526001600160a01b038916906301ffc9a790602401602060405180830381865afa15801561083a573d6000803e3d6000fd5b505050506040513d601f19601f8201168201806040525081019061085e91906115c7565b156109c15760405163152a902d60e11b8152600481018890526024810183905260009081906001600160a01b038b1690632a55205a906044016040805180830381865afa1580156108b3573d6000803e3d6000fd5b505050506040513d601f19601f820116820180604052508101906108d791906115e4565b90925090506001600160a01b038216158015906108f45750600081115b156109be576000826001600160a01b03168260405160006040518083038185875af1925050503d8060008114610946576040519150601f19603f3d011682016040523d82523d6000602084013e61094b565b606091505b50509050806109b05760405162461bcd60e51b815260206004820152602b60248201527f4661696c656420746f2073656e6420726f79616c747920746f20726f79616c7460448201526a1e481c9958da5c1a595b9d60aa1b606482015260840161057f565b6109ba8285611612565b9350505b50505b6000846001600160a01b03168260405160006040518083038185875af1925050503d8060008114610a0e576040519150601f19603f3d011682016040523d82523d6000602084013e610a13565b606091505b5050905080610a755760405162461bcd60e51b815260206004820152602860248201527f4661696c656420746f2073656e642072656e74616c2066656520746f20746f6b60448201526732b71037bbb732b960c11b606482015260840161057f565b6000610a8861ffff891662015180611625565b610a979062ffffff164261164c565b6040516370182b2f60e11b8152600481018b905233602482015267ffffffffffffffff821660448201529091506001600160a01b038b169063e030565e90606401600060405180830381600087803b158015610af257600080fd5b505af1158015610b06573d6000803e3d6000fd5b505060405167ffffffffffffffff841681523392508b91506001600160a01b038d16907fba36d6be14be4f2010b3fd28baa5330fa1f5b30f4f5a9c167b8e60918c3aff969060200160405180910390a450505050505050505050565b6040516331a9108f60e11b8152600481018690526000906001600160a01b03881690636352211e90602401602060405180830381865afa158015610baa573d6000803e3d6000fd5b505050506040513d601f19601f82011682018060405250810190610bce919061154b565b6040516301ffc9a760e01b8152632b424ad760e21b60048201529091506001600160a01b038816906301ffc9a790602401602060405180830381865afa158015610c1c573d6000803e3d6000fd5b505050506040513d601f19601f82011682018060405250810190610c4091906115c7565b610c8c5760405162461bcd60e51b815260206004820152601c60248201527f4e465420646f6573206e6f7420737570706f7274204552433439303700000000604482015260640161057f565b610c97878783610fbe565b610cb35760405162461bcd60e51b815260040161057f9061156f565b6040516331a9108f60e11b81526004810187905233906001600160a01b03891690636352211e90602401602060405180830381865afa158015610cfa573d6000803e3d6000fd5b505050506040513d601f19601f82011682018060405250810190610d1e919061154b565b6001600160a01b031614610d805760405162461bcd60e51b815260206004820152602360248201527f4d75737420626520746f6b656e206f776e657220746f207365742072656e7461604482015262626c6560e81b606482015260840161057f565b60408051608081018252861515815261ffff8581166020808401918252868316848601908152606085018a81526001600160a01b038e1660008181528085528881208f8252909452928790209551865494519251861663010000000264ffff00000019939096166101000262ffff00199115159190911662ffffff1990951694909417939093171692909217835551600183015591518892917ff022e687aa8519944d2936041d653da9c7fc850d4dcb6e37bf2b691f1813639491610e45919061165f565b60405180910390a350505050505050565b6040516331a9108f60e11b8152600481018390526000906001600160a01b03851690636352211e90602401602060405180830381865afa158015610e9e573d6000803e3d6000fd5b505050506040513d601f19601f82011682018060405250810190610ec2919061154b565b9050610ecf848483610fbe565b610eeb5760405162461bcd60e51b815260040161057f9061156f565b6001600160a01b0381163314610f4d5760405162461bcd60e51b815260206004820152602160248201527f4d75737420626520746f6b656e206f776e657220746f20736574206c697374656044820152601960fa1b606482015260840161057f565b6001600160a01b03841660008181526020818152604080832087845290915290819020805460ff19168515151781559051909185917ff022e687aa8519944d2936041d653da9c7fc850d4dcb6e37bf2b691f1813639490610faf90859061165f565b60405180910390a35050505050565b60405163020604bf60e21b81526004810183905260009030906001600160a01b0386169063081812fc90602401602060405180830381865afa158015611008573d6000803e3d6000fd5b505050506040513d601f19601f8201168201806040525081019061102c919061154b565b6001600160a01b031614806110ac575060405163e985e9c560e01b81526001600160a01b03838116600483015230602483015285169063e985e9c590604401602060405180830381865afa158015611088573d6000803e3d6000fd5b505050506040513d601f19601f820116820180604052508101906110ac91906115c7565b949350505050565b6001600160a01b03811681146110c957600080fd5b50565b80356110d7816110b4565b919050565b600080604083850312156110ef57600080fd5b82356110fa816110b4565b946020939093013593505050565b80151581146110c957600080fd5b80356110d781611108565b803561ffff811681146110d757600080fd5b60008060008060008060c0878903121561114c57600080fd5b8635611157816110b4565b955060208701359450604087013561116e81611108565b93506060870135925061118360808801611121565b915061119160a08801611121565b90509295509295509295565b60008083601f8401126111af57600080fd5b50813567ffffffffffffffff8111156111c757600080fd5b6020830191508360208260051b85010111156111e257600080fd5b9250929050565b6000806000604084860312156111fe57600080fd5b8335611209816110b4565b9250602084013567ffffffffffffffff81111561122557600080fd5b6112318682870161119d565b9497909650939450505050565b6020808252825182820181905260009190848201906040850190845b818110156112ad5761129a838551805115158252602081015161ffff80821660208501528060408401511660408501525050606081015160608301525050565b928401926080929092019160010161125a565b50909695505050505050565b600080600080606085870312156112cf57600080fd5b84356112da816110b4565b9350602085013567ffffffffffffffff8111156112f657600080fd5b6113028782880161119d565b909450925050604085013561131681611108565b939692955090935050565b60008060006060848603121561133657600080fd5b8335611341816110b4565b925060208401359150604084013561135881611108565b809150509250925092565b6080810161041f8284805115158252602081015161ffff80821660208501528060408401511660408501525050606081015160608301525050565b600080602083850312156113b157600080fd5b823567ffffffffffffffff808211156113c957600080fd5b818501915085601f8301126113dd57600080fd5b8135818111156113ec57600080fd5b86602060c08302850101111561140157600080fd5b60209290920196919550909350505050565b60008060006060848603121561142857600080fd5b8335611433816110b4565b92506020840135915061144860408501611121565b90509250925092565b634e487b7160e01b600052604160045260246000fd5b634e487b7160e01b600052603260045260246000fd5b634e487b7160e01b600052601160045260246000fd5b6000600182016114a5576114a561147d565b5060010190565b600060c082840312156114be57600080fd5b60405160c0810181811067ffffffffffffffff821117156114ef57634e487b7160e01b600052604160045260246000fd5b6040526114fb836110cc565b81526020830135602082015261151360408401611116565b60408201526060830135606082015261152e60808401611121565b608082015261153f60a08401611121565b60a08201529392505050565b60006020828403121561155d57600080fd5b8151611568816110b4565b9392505050565b60208082526021908201527f546f6b656e206973206e6f7420617070726f76656420666f722072656e74616c6040820152607360f81b606082015260800190565b808202811582820484141761041f5761041f61147d565b6000602082840312156115d957600080fd5b815161156881611108565b600080604083850312156115f757600080fd5b8251611602816110b4565b6020939093015192949293505050565b8181038181111561041f5761041f61147d565b62ffffff8181168382160280821691908281146116445761164461147d565b505092915050565b8082018082111561041f5761041f61147d565b815460ff81161515825261ffff600882901c8116602084015260189190911c166040820152600182015460608201526080810161041f56fea26469706673582212209e588a02a6847498478aadc015d68f317f23387e618c4aa73f18ccb5fc85baad64736f6c63430008110033",
  "linkReferences": {},
  "deployedLinkReferences": {}
}