{
  "_format": "hh-sol-artifact-1",
  "contractName": "DCNTSDK",
  "sourceName": "contracts/DCNTSDK.sol",
  "abi": [
    {
      "inputs": [
        {
          "internalType": "address",
          "name": "_DCNT721AImplementation",
          "type": "address"
        },
        {
          "internalType": "address",
          "name": "_DCNT4907AImplementation",
          "type": "address"
        },
        {
          "internalType": "address",
          "name": "_DCNTCrescendoImplementation",
          "type": "address"
        },
        {
          "internalType": "address",
          "name": "_DCNTVaultImplementation",
          "type": "address"
        },
        {
          "internalType": "address",
          "name": "_DCNTStakingImplementation",
          "type": "address"
        },
        {
          "internalType": "address",
          "name": "_metadataRenderer",
          "type": "address"
        },
        {
          "internalType": "address",
          "name": "_contractRegistry",
          "type": "address"
        },
        {
          "internalType": "address",
          "name": "_SplitMain",
          "type": "address"
        }
      ],
      "stateMutability": "nonpayable",
      "type": "constructor"
    },
    {
      "anonymous": false,
      "inputs": [
        {
          "indexed": false,
          "internalType": "address",
          "name": "DCNT4907A",
          "type": "address"
        }
      ],
      "name": "DeployDCNT4907A",
      "type": "event"
    },
    {
      "anonymous": false,
      "inputs": [
        {
          "indexed": false,
          "internalType": "address",
          "name": "DCNT721A",
          "type": "address"
        }
      ],
      "name": "DeployDCNT721A",
      "type": "event"
    },
    {
      "anonymous": false,
      "inputs": [
        {
          "indexed": false,
          "internalType": "address",
          "name": "DCNTCrescendo",
          "type": "address"
        }
      ],
      "name": "DeployDCNTCrescendo",
      "type": "event"
    },
    {
      "anonymous": false,
      "inputs": [
        {
          "indexed": false,
          "internalType": "address",
          "name": "DCNTStaking",
          "type": "address"
        }
      ],
      "name": "DeployDCNTStaking",
      "type": "event"
    },
    {
      "anonymous": false,
      "inputs": [
        {
          "indexed": false,
          "internalType": "address",
          "name": "DCNTVault",
          "type": "address"
        }
      ],
      "name": "DeployDCNTVault",
      "type": "event"
    },
    {
      "anonymous": false,
      "inputs": [
        {
          "indexed": true,
          "internalType": "address",
          "name": "previousOwner",
          "type": "address"
        },
        {
          "indexed": true,
          "internalType": "address",
          "name": "newOwner",
          "type": "address"
        }
      ],
      "name": "OwnershipTransferred",
      "type": "event"
    },
    {
      "inputs": [],
      "name": "DCNT4907AImplementation",
      "outputs": [
        {
          "internalType": "address",
          "name": "",
          "type": "address"
        }
      ],
      "stateMutability": "view",
      "type": "function"
    },
    {
      "inputs": [],
      "name": "DCNT721AImplementation",
      "outputs": [
        {
          "internalType": "address",
          "name": "",
          "type": "address"
        }
      ],
      "stateMutability": "view",
      "type": "function"
    },
    {
      "inputs": [],
      "name": "DCNTCrescendoImplementation",
      "outputs": [
        {
          "internalType": "address",
          "name": "",
          "type": "address"
        }
      ],
      "stateMutability": "view",
      "type": "function"
    },
    {
      "inputs": [],
      "name": "DCNTStakingImplementation",
      "outputs": [
        {
          "internalType": "address",
          "name": "",
          "type": "address"
        }
      ],
      "stateMutability": "view",
      "type": "function"
    },
    {
      "inputs": [],
      "name": "DCNTVaultImplementation",
      "outputs": [
        {
          "internalType": "address",
          "name": "",
          "type": "address"
        }
      ],
      "stateMutability": "view",
      "type": "function"
    },
    {
      "inputs": [],
      "name": "SplitMain",
      "outputs": [
        {
          "internalType": "address",
          "name": "",
          "type": "address"
        }
      ],
      "stateMutability": "view",
      "type": "function"
    },
    {
      "inputs": [],
      "name": "contractRegistry",
      "outputs": [
        {
          "internalType": "address",
          "name": "",
          "type": "address"
        }
      ],
      "stateMutability": "view",
      "type": "function"
    },
    {
      "inputs": [
        {
          "components": [
            {
              "internalType": "string",
              "name": "name",
              "type": "string"
            },
            {
              "internalType": "string",
              "name": "symbol",
              "type": "string"
            },
            {
              "internalType": "bool",
              "name": "adjustableCap",
              "type": "bool"
            },
            {
              "internalType": "uint256",
              "name": "maxTokens",
              "type": "uint256"
            },
            {
              "internalType": "uint256",
              "name": "tokenPrice",
              "type": "uint256"
            },
            {
              "internalType": "uint256",
              "name": "maxTokenPurchase",
              "type": "uint256"
            },
            {
              "internalType": "uint256",
              "name": "presaleStart",
              "type": "uint256"
            },
            {
              "internalType": "uint256",
              "name": "presaleEnd",
              "type": "uint256"
            },
            {
              "internalType": "uint256",
              "name": "saleStart",
              "type": "uint256"
            },
            {
              "internalType": "uint256",
              "name": "royaltyBPS",
              "type": "uint256"
            }
          ],
          "internalType": "struct EditionConfig",
          "name": "_editionConfig",
          "type": "tuple"
        },
        {
          "components": [
            {
              "internalType": "string",
              "name": "contractURI",
              "type": "string"
            },
            {
              "internalType": "string",
              "name": "metadataURI",
              "type": "string"
            },
            {
              "internalType": "bytes",
              "name": "metadataRendererInit",
              "type": "bytes"
            },
            {
              "internalType": "address",
              "name": "parentIP",
              "type": "address"
            }
          ],
          "internalType": "struct MetadataConfig",
          "name": "_metadataConfig",
          "type": "tuple"
        },
        {
          "components": [
            {
              "internalType": "address",
              "name": "tokenAddress",
              "type": "address"
            },
            {
              "internalType": "uint88",
              "name": "minBalance",
              "type": "uint88"
            },
            {
              "internalType": "enum SaleType",
              "name": "saleType",
              "type": "uint8"
            }
          ],
          "internalType": "struct TokenGateConfig",
          "name": "_tokenGateConfig",
          "type": "tuple"
        }
      ],
      "name": "deployDCNT4907A",
      "outputs": [
        {
          "internalType": "address",
          "name": "clone",
          "type": "address"
        }
      ],
      "stateMutability": "nonpayable",
      "type": "function"
    },
    {
      "inputs": [
        {
          "components": [
            {
              "internalType": "string",
              "name": "name",
              "type": "string"
            },
            {
              "internalType": "string",
              "name": "symbol",
              "type": "string"
            },
            {
              "internalType": "bool",
              "name": "adjustableCap",
              "type": "bool"
            },
            {
              "internalType": "uint256",
              "name": "maxTokens",
              "type": "uint256"
            },
            {
              "internalType": "uint256",
              "name": "tokenPrice",
              "type": "uint256"
            },
            {
              "internalType": "uint256",
              "name": "maxTokenPurchase",
              "type": "uint256"
            },
            {
              "internalType": "uint256",
              "name": "presaleStart",
              "type": "uint256"
            },
            {
              "internalType": "uint256",
              "name": "presaleEnd",
              "type": "uint256"
            },
            {
              "internalType": "uint256",
              "name": "saleStart",
              "type": "uint256"
            },
            {
              "internalType": "uint256",
              "name": "royaltyBPS",
              "type": "uint256"
            }
          ],
          "internalType": "struct EditionConfig",
          "name": "_editionConfig",
          "type": "tuple"
        },
        {
          "components": [
            {
              "internalType": "string",
              "name": "contractURI",
              "type": "string"
            },
            {
              "internalType": "string",
              "name": "metadataURI",
              "type": "string"
            },
            {
              "internalType": "bytes",
              "name": "metadataRendererInit",
              "type": "bytes"
            },
            {
              "internalType": "address",
              "name": "parentIP",
              "type": "address"
            }
          ],
          "internalType": "struct MetadataConfig",
          "name": "_metadataConfig",
          "type": "tuple"
        },
        {
          "components": [
            {
              "internalType": "address",
              "name": "tokenAddress",
              "type": "address"
            },
            {
              "internalType": "uint88",
              "name": "minBalance",
              "type": "uint88"
            },
            {
              "internalType": "enum SaleType",
              "name": "saleType",
              "type": "uint8"
            }
          ],
          "internalType": "struct TokenGateConfig",
          "name": "_tokenGateConfig",
          "type": "tuple"
        }
      ],
      "name": "deployDCNT721A",
      "outputs": [
        {
          "internalType": "address",
          "name": "clone",
          "type": "address"
        }
      ],
      "stateMutability": "nonpayable",
      "type": "function"
    },
    {
      "inputs": [
        {
          "components": [
            {
              "internalType": "string",
              "name": "name",
              "type": "string"
            },
            {
              "internalType": "string",
              "name": "symbol",
              "type": "string"
            },
            {
              "internalType": "uint256",
              "name": "initialPrice",
              "type": "uint256"
            },
            {
              "internalType": "uint256",
              "name": "step1",
              "type": "uint256"
            },
            {
              "internalType": "uint256",
              "name": "step2",
              "type": "uint256"
            },
            {
              "internalType": "uint256",
              "name": "hitch",
              "type": "uint256"
            },
            {
              "internalType": "uint256",
              "name": "takeRateBPS",
              "type": "uint256"
            },
            {
              "internalType": "uint256",
              "name": "unlockDate",
              "type": "uint256"
            },
            {
              "internalType": "uint256",
              "name": "saleStart",
              "type": "uint256"
            },
            {
              "internalType": "uint256",
              "name": "royaltyBPS",
              "type": "uint256"
            }
          ],
          "internalType": "struct CrescendoConfig",
          "name": "_config",
          "type": "tuple"
        },
        {
          "components": [
            {
              "internalType": "string",
              "name": "contractURI",
              "type": "string"
            },
            {
              "internalType": "string",
              "name": "metadataURI",
              "type": "string"
            },
            {
              "internalType": "bytes",
              "name": "metadataRendererInit",
              "type": "bytes"
            },
            {
              "internalType": "address",
              "name": "parentIP",
              "type": "address"
            }
          ],
          "internalType": "struct MetadataConfig",
          "name": "_metadataConfig",
          "type": "tuple"
        }
      ],
      "name": "deployDCNTCrescendo",
      "outputs": [
        {
          "internalType": "address",
          "name": "clone",
          "type": "address"
        }
      ],
      "stateMutability": "nonpayable",
      "type": "function"
    },
    {
      "inputs": [
        {
          "internalType": "address",
          "name": "_nft",
          "type": "address"
        },
        {
          "internalType": "address",
          "name": "_token",
          "type": "address"
        },
        {
          "internalType": "uint256",
          "name": "_vaultDuration",
          "type": "uint256"
        },
        {
          "internalType": "uint256",
          "name": "_totalSupply",
          "type": "uint256"
        }
      ],
      "name": "deployDCNTStaking",
      "outputs": [
        {
          "internalType": "address",
          "name": "clone",
          "type": "address"
        }
      ],
      "stateMutability": "nonpayable",
      "type": "function"
    },
    {
      "inputs": [
        {
          "internalType": "address",
          "name": "_vaultDistributionTokenAddress",
          "type": "address"
        },
        {
          "internalType": "address",
          "name": "_nftVaultKeyAddress",
          "type": "address"
        },
        {
          "internalType": "uint256",
          "name": "_nftTotalSupply",
          "type": "uint256"
        },
        {
          "internalType": "uint256",
          "name": "_unlockDate",
          "type": "uint256"
        }
      ],
      "name": "deployDCNTVault",
      "outputs": [
        {
          "internalType": "address",
          "name": "clone",
          "type": "address"
        }
      ],
      "stateMutability": "nonpayable",
      "type": "function"
    },
    {
      "inputs": [],
      "name": "metadataRenderer",
      "outputs": [
        {
          "internalType": "address",
          "name": "",
          "type": "address"
        }
      ],
      "stateMutability": "view",
      "type": "function"
    },
    {
      "inputs": [],
      "name": "owner",
      "outputs": [
        {
          "internalType": "address",
          "name": "",
          "type": "address"
        }
      ],
      "stateMutability": "view",
      "type": "function"
    },
    {
      "inputs": [],
      "name": "renounceOwnership",
      "outputs": [],
      "stateMutability": "nonpayable",
      "type": "function"
    },
    {
      "inputs": [
        {
          "internalType": "address",
          "name": "newOwner",
          "type": "address"
        }
      ],
      "name": "transferOwnership",
      "outputs": [],
      "stateMutability": "nonpayable",
      "type": "function"
    }
  ],
  "bytecode": "0x60806040523480156200001157600080fd5b50604051620016623803806200166283398101604081905262000034916200013e565b6200003f33620000d1565b600180546001600160a01b03199081166001600160a01b039a8b1617909155600280548216988a1698909817909755600380548816968916969096179095556004805487169488169490941790935560058054861692871692909217909155600680548516918616919091179055600780548416918516919091179055600880549092169216919091179055620001e6565b600080546001600160a01b038381166001600160a01b0319831681178455604051919092169283917f8be0079c531659141344cd1fd0a4f28419497f9722a3daafe3b4186f6b6457e09190a35050565b80516001600160a01b03811681146200013957600080fd5b919050565b600080600080600080600080610100898b0312156200015c57600080fd5b620001678962000121565b97506200017760208a0162000121565b96506200018760408a0162000121565b95506200019760608a0162000121565b9450620001a760808a0162000121565b9350620001b760a08a0162000121565b9250620001c760c08a0162000121565b9150620001d760e08a0162000121565b90509295985092959890939650565b61146c80620001f66000396000f3fe608060405234801561001057600080fd5b50600436106101005760003560e01c80638da5cb5b11610097578063ca825bb511610066578063ca825bb5146101fa578063e48d0db31461020d578063eef702e914610220578063f2fde38b1461023357600080fd5b80638da5cb5b146101b05780639f61dfec146101c1578063abf410e5146101d4578063bc10a4fa146101e757600080fd5b806370319970116100d3578063703199701461016d578063715018a61461018057806373d622f81461018a578063899209bb1461019d57600080fd5b806310a089131461010557806338905898146101345780633c3b370b146101475780634285656b1461015a575b600080fd5b600154610118906001600160a01b031681565b6040516001600160a01b03909116815260200160405180910390f35b610118610142366004610df6565b610246565b600554610118906001600160a01b031681565b600254610118906001600160a01b031681565b600654610118906001600160a01b031681565b6101886103e1565b005b610118610198366004610f03565b6103f5565b6101186101ab366004610fdd565b610599565b6000546001600160a01b0316610118565b600454610118906001600160a01b031681565b600754610118906001600160a01b031681565b6101186101f5366004610f03565b610737565b600354610118906001600160a01b031681565b61011861021b366004610fdd565b6108d0565b600854610118906001600160a01b031681565b610188610241366004611102565b610a61565b60035460009061025e906001600160a01b0316610adf565b6006546008546040519293506000926001600160a01b03808616936102909333938a938a9381169216906024016111e0565b60408051601f198184030181529181526020820180516001600160e01b0316624ee2bb60e71b179052516102c491906112cd565b6000604051808303816000865af19150503d8060008114610301576040519150601f19603f3d011682016040523d82523d6000602084013e610306565b606091505b505090508061031457600080fd5b60075460405163ede4973960e01b81523360048201526001600160a01b03848116602483015260606044830152600d60648301526c44434e544372657363656e646f60981b60848301529091169063ede497399060a401600060405180830381600087803b15801561038557600080fd5b505af1158015610399573d6000803e3d6000fd5b50506040516001600160a01b03851681527f2c14c8ffafc8bfdf42e6469d6c292eeaebf445beafb817fb0bc9df3ebd89f0069250602001905060405180910390a15092915050565b6103e9610b7c565b6103f36000610bd6565b565b60045460009061040d906001600160a01b0316610adf565b6040513360248201526001600160a01b03878116604483015286811660648301526084820186905260a4820185905291925060009183169060c40160408051601f198184030181529181526020820180516001600160e01b03166314d6c7d760e31b1790525161047d91906112cd565b6000604051808303816000865af19150503d80600081146104ba576040519150601f19603f3d011682016040523d82523d6000602084013e6104bf565b606091505b50509050806104cd57600080fd5b60075460405163ede4973960e01b81523360048201526001600160a01b0384811660248301526060604483015260096064830152681110d39515985d5b1d60ba1b60848301529091169063ede497399060a401600060405180830381600087803b15801561053a57600080fd5b505af115801561054e573d6000803e3d6000fd5b50506040516001600160a01b03851681527ff12b488daa6140ffee78fe266c37addbbaea912b09ce36e613a17844dac4255b925060200190505b60405180910390a150949350505050565b6002546000906105b1906001600160a01b0316610adf565b6006546008546040519293506000926001600160a01b03808616936105e79333938b938b938b939082169291169060240161133b565b60408051601f198184030181529181526020820180516001600160e01b0316638dbff58b60e01b1790525161061c91906112cd565b6000604051808303816000865af19150503d8060008114610659576040519150601f19603f3d011682016040523d82523d6000602084013e61065e565b606091505b505090508061066c57600080fd5b60075460405163ede4973960e01b81523360048201526001600160a01b03848116602483015260606044830152600960648301526844434e54343930374160b81b60848301529091169063ede497399060a401600060405180830381600087803b1580156106d957600080fd5b505af11580156106ed573d6000803e3d6000fd5b50506040516001600160a01b03851681527f3758a9cde202b40b236c1867c2734461fd598d835ad020bda26ca4f85838f2c4925060200190505b60405180910390a1509392505050565b60055460009061074f906001600160a01b0316610adf565b6040513360248201526001600160a01b03878116604483015286811660648301526084820186905260a4820185905291925060009183169060c40160408051601f198184030181529181526020820180516001600160e01b03166314d6c7d760e31b179052516107bf91906112cd565b6000604051808303816000865af19150503d80600081146107fc576040519150601f19603f3d011682016040523d82523d6000602084013e610801565b606091505b505090508061080f57600080fd5b60075460405163ede4973960e01b81523360048201526001600160a01b03848116602483015260606044830152600b60648301526a44434e545374616b696e6760a81b60848301529091169063ede497399060a401600060405180830381600087803b15801561087e57600080fd5b505af1158015610892573d6000803e3d6000fd5b50506040516001600160a01b03851681527fe9eeb18af71a650338802cfcb86b39b211ed34fd8a37cacc5a16514a183e8d6692506020019050610588565b6001546000906108e8906001600160a01b0316610adf565b6006546008546040519293506000926001600160a01b038086169361091e9333938b938b938b939082169291169060240161133b565b60408051601f198184030181529181526020820180516001600160e01b0316638dbff58b60e01b1790525161095391906112cd565b6000604051808303816000865af19150503d8060008114610990576040519150601f19603f3d011682016040523d82523d6000602084013e610995565b606091505b50509050806109a357600080fd5b60075460405163ede4973960e01b81523360048201526001600160a01b03848116602483015260606044830152600860648301526744434e543732314160c01b60848301529091169063ede497399060a401600060405180830381600087803b158015610a0f57600080fd5b505af1158015610a23573d6000803e3d6000fd5b50506040516001600160a01b03851681527f149ce80ffd882db4157fb46dd05201336d87f52ace89212615557e5455b8a0df92506020019050610727565b610a69610b7c565b6001600160a01b038116610ad35760405162461bcd60e51b815260206004820152602660248201527f4f776e61626c653a206e6577206f776e657220697320746865207a65726f206160448201526564647265737360d01b60648201526084015b60405180910390fd5b610adc81610bd6565b50565b6000604051733d602d80600a3d3981f3363d3d373d3d3d363d7360601b81528260601b60148201526e5af43d82803e903d91602b57fd5bf360881b60288201526037816000f09150506001600160a01b038116610b775760405162461bcd60e51b8152602060048201526016602482015275115490cc4c4d8dce8818dc99585d194819985a5b195960521b6044820152606401610aca565b919050565b6000546001600160a01b031633146103f35760405162461bcd60e51b815260206004820181905260248201527f4f776e61626c653a2063616c6c6572206973206e6f7420746865206f776e65726044820152606401610aca565b600080546001600160a01b038381166001600160a01b0319831681178455604051919092169283917f8be0079c531659141344cd1fd0a4f28419497f9722a3daafe3b4186f6b6457e09190a35050565b634e487b7160e01b600052604160045260246000fd5b6040516080810167ffffffffffffffff81118282101715610c5f57610c5f610c26565b60405290565b604051610140810167ffffffffffffffff81118282101715610c5f57610c5f610c26565b600067ffffffffffffffff80841115610ca457610ca4610c26565b604051601f8501601f19908116603f01168101908282118183101715610ccc57610ccc610c26565b81604052809350858152868686011115610ce557600080fd5b858560208301376000602087830101525050509392505050565b600082601f830112610d1057600080fd5b610d1f83833560208501610c89565b9392505050565b80356001600160a01b0381168114610b7757600080fd5b600060808284031215610d4f57600080fd5b610d57610c3c565b9050813567ffffffffffffffff80821115610d7157600080fd5b610d7d85838601610cff565b83526020840135915080821115610d9357600080fd5b610d9f85838601610cff565b60208401526040840135915080821115610db857600080fd5b508201601f81018413610dca57600080fd5b610dd984823560208401610c89565b604083015250610deb60608301610d26565b606082015292915050565b60008060408385031215610e0957600080fd5b823567ffffffffffffffff80821115610e2157600080fd5b908401906101408287031215610e3657600080fd5b610e3e610c65565b823582811115610e4d57600080fd5b610e5988828601610cff565b825250602083013582811115610e6e57600080fd5b610e7a88828601610cff565b60208301525060408301356040820152606083013560608201526080830135608082015260a083013560a082015260c083013560c082015260e083013560e0820152610100808401358183015250610120808401358183015250809450506020850135915080821115610eec57600080fd5b50610ef985828601610d3d565b9150509250929050565b60008060008060808587031215610f1957600080fd5b610f2285610d26565b9350610f3060208601610d26565b93969395505050506040820135916060013590565b80358015158114610b7757600080fd5b600060608284031215610f6757600080fd5b6040516060810181811067ffffffffffffffff82111715610f8a57610f8a610c26565b604052905080610f9983610d26565b815260208301356affffffffffffffffffffff81168114610fb957600080fd5b6020820152604083013560038110610fd057600080fd5b6040919091015292915050565b600080600060a08486031215610ff257600080fd5b833567ffffffffffffffff8082111561100a57600080fd5b90850190610140828803121561101f57600080fd5b611027610c65565b82358281111561103657600080fd5b61104289828601610cff565b82525060208301358281111561105757600080fd5b61106389828601610cff565b60208301525061107560408401610f45565b6040820152606083013560608201526080830135608082015260a083013560a082015260c083013560c082015260e083013560e08201526101008084013581830152506101208084013581830152508095505060208601359150808211156110dc57600080fd5b506110e986828701610d3d565b9250506110f98560408601610f55565b90509250925092565b60006020828403121561111457600080fd5b610d1f82610d26565b60005b83811015611138578181015183820152602001611120565b83811115611147576000848401525b50505050565b6000815180845261116581602086016020860161111d565b601f01601f19169290920160200192915050565b600081516080845261118e608085018261114d565b9050602083015184820360208601526111a7828261114d565b915050604083015184820360408601526111c1828261114d565b6060948501516001600160a01b03169590940194909452509092915050565b60018060a01b038616815260a06020820152600085516101408060a085015261120d6101e085018361114d565b91506020880151609f198584030160c086015261122a838261114d565b925050604088015160e08501526060880151610100818187015260808a01519150610120828188015260a08b01518488015260c08b015161016088015260e08b0151610180880152818b01516101a0880152808b01516101c088015250505050828103604084015261129c8187611179565b9150506112b460608301856001600160a01b03169052565b6001600160a01b03831660808301529695505050505050565b600082516112df81846020870161111d565b9190910192915050565b80516001600160a01b031682526020808201516affffffffffffffffffffff169083015260408101516003811061133057634e487b7160e01b600052602160045260246000fd5b806040840152505050565b600061010060018060a01b03891683528060208401528751610140808386015261136961024086018361114d565b915060208a015161012060ff198785030181880152611388848361114d565b935060408c0151915061139e8388018315159052565b60608c015161016088015260808c015161018088015260a08c01516101a088015260c08c01516101c088015260e08c01516101e0880152848c01516102008801528b0151610220870152505083810360408501526113fc8189611179565b9250505061140d60608301866112e9565b6001600160a01b03841660c08301526001600160a01b03831660e083015297965050505050505056fea26469706673582212209c16bdcaaee7063de2eb34cf430539412c37c2d5cd6fe22579e83064fea05e4764736f6c63430008090033",
  "linkReferences": {},
  "deployedLinkReferences": {}
}