{
  "_format": "hh-sol-artifact-1",
  "contractName": "DCNT4907A",
  "sourceName": "contracts/DCNT4907A.sol",
  "abi": [
    {
      "inputs": [],
      "name": "ApprovalCallerNotOwnerNorApproved",
      "type": "error"
    },
    {
      "inputs": [],
      "name": "ApprovalQueryForNonexistentToken",
      "type": "error"
    },
    {
      "inputs": [],
      "name": "ApproveToCaller",
      "type": "error"
    },
    {
      "inputs": [],
      "name": "BalanceQueryForZeroAddress",
      "type": "error"
    },
    {
      "inputs": [],
      "name": "MintERC2309QuantityExceedsLimit",
      "type": "error"
    },
    {
      "inputs": [],
      "name": "MintToZeroAddress",
      "type": "error"
    },
    {
      "inputs": [],
      "name": "MintZeroQuantity",
      "type": "error"
    },
    {
      "inputs": [],
      "name": "OwnerQueryForNonexistentToken",
      "type": "error"
    },
    {
      "inputs": [],
      "name": "OwnershipNotInitializedForExtraData",
      "type": "error"
    },
    {
      "inputs": [],
      "name": "SetUserCallerNotOwnerNorApproved",
      "type": "error"
    },
    {
      "inputs": [],
      "name": "TransferCallerNotOwnerNorApproved",
      "type": "error"
    },
    {
      "inputs": [],
      "name": "TransferFromIncorrectOwner",
      "type": "error"
    },
    {
      "inputs": [],
      "name": "TransferToNonERC721ReceiverImplementer",
      "type": "error"
    },
    {
      "inputs": [],
      "name": "TransferToZeroAddress",
      "type": "error"
    },
    {
      "inputs": [],
      "name": "URIQueryForNonexistentToken",
      "type": "error"
    },
    {
      "anonymous": false,
      "inputs": [
        {
          "indexed": true,
          "internalType": "address",
          "name": "owner",
          "type": "address"
        },
        {
          "indexed": true,
          "internalType": "address",
          "name": "approved",
          "type": "address"
        },
        {
          "indexed": true,
          "internalType": "uint256",
          "name": "tokenId",
          "type": "uint256"
        }
      ],
      "name": "Approval",
      "type": "event"
    },
    {
      "anonymous": false,
      "inputs": [
        {
          "indexed": true,
          "internalType": "address",
          "name": "owner",
          "type": "address"
        },
        {
          "indexed": true,
          "internalType": "address",
          "name": "operator",
          "type": "address"
        },
        {
          "indexed": false,
          "internalType": "bool",
          "name": "approved",
          "type": "bool"
        }
      ],
      "name": "ApprovalForAll",
      "type": "event"
    },
    {
      "anonymous": false,
      "inputs": [
        {
          "indexed": true,
          "internalType": "uint256",
          "name": "fromTokenId",
          "type": "uint256"
        },
        {
          "indexed": false,
          "internalType": "uint256",
          "name": "toTokenId",
          "type": "uint256"
        },
        {
          "indexed": true,
          "internalType": "address",
          "name": "from",
          "type": "address"
        },
        {
          "indexed": true,
          "internalType": "address",
          "name": "to",
          "type": "address"
        }
      ],
      "name": "ConsecutiveTransfer",
      "type": "event"
    },
    {
      "anonymous": false,
      "inputs": [
        {
          "indexed": false,
          "internalType": "uint8",
          "name": "version",
          "type": "uint8"
        }
      ],
      "name": "Initialized",
      "type": "event"
    },
    {
      "anonymous": false,
      "inputs": [
        {
          "indexed": false,
          "internalType": "address",
          "name": "sender",
          "type": "address"
        },
        {
          "indexed": false,
          "internalType": "uint256",
          "name": "tokenId_",
          "type": "uint256"
        }
      ],
      "name": "Minted",
      "type": "event"
    },
    {
      "anonymous": false,
      "inputs": [
        {
          "indexed": true,
          "internalType": "address",
          "name": "previousOwner",
          "type": "address"
        },
        {
          "indexed": true,
          "internalType": "address",
          "name": "newOwner",
          "type": "address"
        }
      ],
      "name": "OwnershipTransferred",
      "type": "event"
    },
    {
      "anonymous": false,
      "inputs": [
        {
          "indexed": true,
          "internalType": "address",
          "name": "from",
          "type": "address"
        },
        {
          "indexed": true,
          "internalType": "address",
          "name": "to",
          "type": "address"
        },
        {
          "indexed": true,
          "internalType": "uint256",
          "name": "tokenId",
          "type": "uint256"
        }
      ],
      "name": "Transfer",
      "type": "event"
    },
    {
      "anonymous": false,
      "inputs": [
        {
          "indexed": true,
          "internalType": "uint256",
          "name": "tokenId",
          "type": "uint256"
        },
        {
          "indexed": true,
          "internalType": "address",
          "name": "user",
          "type": "address"
        },
        {
          "indexed": false,
          "internalType": "uint64",
          "name": "expires",
          "type": "uint64"
        }
      ],
      "name": "UpdateUser",
      "type": "event"
    },
    {
      "inputs": [],
      "name": "MAX_TOKENS",
      "outputs": [
        {
          "internalType": "uint256",
          "name": "",
          "type": "uint256"
        }
      ],
      "stateMutability": "view",
      "type": "function"
    },
    {
      "inputs": [
        {
          "internalType": "address",
          "name": "to",
          "type": "address"
        },
        {
          "internalType": "uint256",
          "name": "tokenId",
          "type": "uint256"
        }
      ],
      "name": "approve",
      "outputs": [],
      "stateMutability": "nonpayable",
      "type": "function"
    },
    {
      "inputs": [
        {
          "internalType": "address",
          "name": "owner",
          "type": "address"
        }
      ],
      "name": "balanceOf",
      "outputs": [
        {
          "internalType": "uint256",
          "name": "",
          "type": "uint256"
        }
      ],
      "stateMutability": "view",
      "type": "function"
    },
    {
      "inputs": [],
      "name": "baseURI",
      "outputs": [
        {
          "internalType": "string",
          "name": "",
          "type": "string"
        }
      ],
      "stateMutability": "view",
      "type": "function"
    },
    {
      "inputs": [
        {
          "internalType": "address[]",
          "name": "accounts",
          "type": "address[]"
        },
        {
          "internalType": "uint32[]",
          "name": "percentAllocations",
          "type": "uint32[]"
        },
        {
          "internalType": "uint32",
          "name": "distributorFee",
          "type": "uint32"
        }
      ],
      "name": "createSplit",
      "outputs": [],
      "stateMutability": "nonpayable",
      "type": "function"
    },
    {
      "inputs": [
        {
          "internalType": "address",
          "name": "account",
          "type": "address"
        },
        {
          "internalType": "uint256",
          "name": "withdrawETH",
          "type": "uint256"
        },
        {
          "internalType": "contract ERC20[]",
          "name": "tokens",
          "type": "address[]"
        },
        {
          "internalType": "address[]",
          "name": "accounts",
          "type": "address[]"
        },
        {
          "internalType": "uint32[]",
          "name": "percentAllocations",
          "type": "uint32[]"
        },
        {
          "internalType": "uint32",
          "name": "distributorFee",
          "type": "uint32"
        },
        {
          "internalType": "address",
          "name": "distributorAddress",
          "type": "address"
        }
      ],
      "name": "distributeAndWithdraw",
      "outputs": [],
      "stateMutability": "nonpayable",
      "type": "function"
    },
    {
      "inputs": [
        {
          "internalType": "contract ERC20",
          "name": "token",
          "type": "address"
        },
        {
          "internalType": "address[]",
          "name": "accounts",
          "type": "address[]"
        },
        {
          "internalType": "uint32[]",
          "name": "percentAllocations",
          "type": "uint32[]"
        },
        {
          "internalType": "uint32",
          "name": "distributorFee",
          "type": "uint32"
        },
        {
          "internalType": "address",
          "name": "distributorAddress",
          "type": "address"
        }
      ],
      "name": "distributeERC20",
      "outputs": [],
      "stateMutability": "nonpayable",
      "type": "function"
    },
    {
      "inputs": [
        {
          "internalType": "address[]",
          "name": "accounts",
          "type": "address[]"
        },
        {
          "internalType": "uint32[]",
          "name": "percentAllocations",
          "type": "uint32[]"
        },
        {
          "internalType": "uint32",
          "name": "distributorFee",
          "type": "uint32"
        },
        {
          "internalType": "address",
          "name": "distributorAddress",
          "type": "address"
        }
      ],
      "name": "distributeETH",
      "outputs": [],
      "stateMutability": "nonpayable",
      "type": "function"
    },
    {
      "inputs": [],
      "name": "flipSaleState",
      "outputs": [],
      "stateMutability": "nonpayable",
      "type": "function"
    },
    {
      "inputs": [
        {
          "internalType": "uint256",
          "name": "tokenId",
          "type": "uint256"
        }
      ],
      "name": "getApproved",
      "outputs": [
        {
          "internalType": "address",
          "name": "",
          "type": "address"
        }
      ],
      "stateMutability": "view",
      "type": "function"
    },
    {
      "inputs": [
        {
          "internalType": "address",
          "name": "_owner",
          "type": "address"
        },
        {
          "components": [
            {
              "internalType": "string",
              "name": "name",
              "type": "string"
            },
            {
              "internalType": "string",
              "name": "symbol",
              "type": "string"
            },
            {
              "internalType": "uint256",
              "name": "maxTokens",
              "type": "uint256"
            },
            {
              "internalType": "uint256",
              "name": "tokenPrice",
              "type": "uint256"
            },
            {
              "internalType": "uint256",
              "name": "maxTokenPurchase",
              "type": "uint256"
            },
            {
              "internalType": "uint256",
              "name": "saleStart",
              "type": "uint256"
            },
            {
              "internalType": "uint256",
              "name": "royaltyBPS",
              "type": "uint256"
            }
          ],
          "internalType": "struct EditionConfig",
          "name": "_editionConfig",
          "type": "tuple"
        },
        {
          "components": [
            {
              "internalType": "string",
              "name": "metadataURI",
              "type": "string"
            },
            {
              "internalType": "bytes",
              "name": "metadataRendererInit",
              "type": "bytes"
            }
          ],
          "internalType": "struct MetadataConfig",
          "name": "_metadataConfig",
          "type": "tuple"
        },
        {
          "internalType": "address",
          "name": "_metadataRenderer",
          "type": "address"
        },
        {
          "internalType": "address",
          "name": "_splitMain",
          "type": "address"
        }
      ],
      "name": "initialize",
      "outputs": [],
      "stateMutability": "nonpayable",
      "type": "function"
    },
    {
      "inputs": [
        {
          "internalType": "address",
          "name": "owner",
          "type": "address"
        },
        {
          "internalType": "address",
          "name": "operator",
          "type": "address"
        }
      ],
      "name": "isApprovedForAll",
      "outputs": [
        {
          "internalType": "bool",
          "name": "",
          "type": "bool"
        }
      ],
      "stateMutability": "view",
      "type": "function"
    },
    {
      "inputs": [],
      "name": "maxTokenPurchase",
      "outputs": [
        {
          "internalType": "uint256",
          "name": "",
          "type": "uint256"
        }
      ],
      "stateMutability": "view",
      "type": "function"
    },
    {
      "inputs": [],
      "name": "metadataRenderer",
      "outputs": [
        {
          "internalType": "address",
          "name": "",
          "type": "address"
        }
      ],
      "stateMutability": "view",
      "type": "function"
    },
    {
      "inputs": [
        {
          "internalType": "uint256",
          "name": "numberOfTokens",
          "type": "uint256"
        }
      ],
      "name": "mint",
      "outputs": [],
      "stateMutability": "payable",
      "type": "function"
    },
    {
      "inputs": [],
      "name": "name",
      "outputs": [
        {
          "internalType": "string",
          "name": "",
          "type": "string"
        }
      ],
      "stateMutability": "view",
      "type": "function"
    },
    {
      "inputs": [],
      "name": "owner",
      "outputs": [
        {
          "internalType": "address",
          "name": "",
          "type": "address"
        }
      ],
      "stateMutability": "view",
      "type": "function"
    },
    {
      "inputs": [
        {
          "internalType": "uint256",
          "name": "tokenId",
          "type": "uint256"
        }
      ],
      "name": "ownerOf",
      "outputs": [
        {
          "internalType": "address",
          "name": "",
          "type": "address"
        }
      ],
      "stateMutability": "view",
      "type": "function"
    },
    {
      "inputs": [],
      "name": "renounceOwnership",
      "outputs": [],
      "stateMutability": "nonpayable",
      "type": "function"
    },
    {
      "inputs": [
        {
          "internalType": "uint256",
          "name": "numReserved",
          "type": "uint256"
        }
      ],
      "name": "reserveDCNT",
      "outputs": [],
      "stateMutability": "nonpayable",
      "type": "function"
    },
    {
      "inputs": [],
      "name": "royaltyBPS",
      "outputs": [
        {
          "internalType": "uint256",
          "name": "",
          "type": "uint256"
        }
      ],
      "stateMutability": "view",
      "type": "function"
    },
    {
      "inputs": [
        {
          "internalType": "uint256",
          "name": "tokenId",
          "type": "uint256"
        },
        {
          "internalType": "uint256",
          "name": "salePrice",
          "type": "uint256"
        }
      ],
      "name": "royaltyInfo",
      "outputs": [
        {
          "internalType": "address",
          "name": "receiver",
          "type": "address"
        },
        {
          "internalType": "uint256",
          "name": "royaltyAmount",
          "type": "uint256"
        }
      ],
      "stateMutability": "view",
      "type": "function"
    },
    {
      "inputs": [
        {
          "internalType": "address",
          "name": "from",
          "type": "address"
        },
        {
          "internalType": "address",
          "name": "to",
          "type": "address"
        },
        {
          "internalType": "uint256",
          "name": "tokenId",
          "type": "uint256"
        }
      ],
      "name": "safeTransferFrom",
      "outputs": [],
      "stateMutability": "nonpayable",
      "type": "function"
    },
    {
      "inputs": [
        {
          "internalType": "address",
          "name": "from",
          "type": "address"
        },
        {
          "internalType": "address",
          "name": "to",
          "type": "address"
        },
        {
          "internalType": "uint256",
          "name": "tokenId",
          "type": "uint256"
        },
        {
          "internalType": "bytes",
          "name": "_data",
          "type": "bytes"
        }
      ],
      "name": "safeTransferFrom",
      "outputs": [],
      "stateMutability": "nonpayable",
      "type": "function"
    },
    {
      "inputs": [],
      "name": "saleIsActive",
      "outputs": [
        {
          "internalType": "bool",
          "name": "_saleIsActive",
          "type": "bool"
        }
      ],
      "stateMutability": "view",
      "type": "function"
    },
    {
      "inputs": [],
      "name": "saleIsPaused",
      "outputs": [
        {
          "internalType": "bool",
          "name": "",
          "type": "bool"
        }
      ],
      "stateMutability": "view",
      "type": "function"
    },
    {
      "inputs": [],
      "name": "saleStart",
      "outputs": [
        {
          "internalType": "uint256",
          "name": "",
          "type": "uint256"
        }
      ],
      "stateMutability": "view",
      "type": "function"
    },
    {
      "inputs": [
        {
          "internalType": "address",
          "name": "operator",
          "type": "address"
        },
        {
          "internalType": "bool",
          "name": "approved",
          "type": "bool"
        }
      ],
      "name": "setApprovalForAll",
      "outputs": [],
      "stateMutability": "nonpayable",
      "type": "function"
    },
    {
      "inputs": [
        {
          "internalType": "string",
          "name": "uri",
          "type": "string"
        }
      ],
      "name": "setBaseURI",
      "outputs": [],
      "stateMutability": "nonpayable",
      "type": "function"
    },
    {
      "inputs": [
        {
          "internalType": "address",
          "name": "_metadataRenderer",
          "type": "address"
        }
      ],
      "name": "setMetadataRenderer",
      "outputs": [],
      "stateMutability": "nonpayable",
      "type": "function"
    },
    {
      "inputs": [
        {
          "internalType": "uint256",
          "name": "tokenId",
          "type": "uint256"
        },
        {
          "internalType": "address",
          "name": "user",
          "type": "address"
        },
        {
          "internalType": "uint64",
          "name": "expires",
          "type": "uint64"
        }
      ],
      "name": "setUser",
      "outputs": [],
      "stateMutability": "nonpayable",
      "type": "function"
    },
    {
      "inputs": [],
      "name": "splitMain",
      "outputs": [
        {
          "internalType": "address",
          "name": "",
          "type": "address"
        }
      ],
      "stateMutability": "view",
      "type": "function"
    },
    {
      "inputs": [],
      "name": "splitWallet",
      "outputs": [
        {
          "internalType": "address",
          "name": "",
          "type": "address"
        }
      ],
      "stateMutability": "view",
      "type": "function"
    },
    {
      "inputs": [
        {
          "internalType": "bytes4",
          "name": "interfaceId",
          "type": "bytes4"
        }
      ],
      "name": "supportsInterface",
      "outputs": [
        {
          "internalType": "bool",
          "name": "",
          "type": "bool"
        }
      ],
      "stateMutability": "view",
      "type": "function"
    },
    {
      "inputs": [],
      "name": "symbol",
      "outputs": [
        {
          "internalType": "string",
          "name": "",
          "type": "string"
        }
      ],
      "stateMutability": "view",
      "type": "function"
    },
    {
      "inputs": [],
      "name": "tokenPrice",
      "outputs": [
        {
          "internalType": "uint256",
          "name": "",
          "type": "uint256"
        }
      ],
      "stateMutability": "view",
      "type": "function"
    },
    {
      "inputs": [
        {
          "internalType": "uint256",
          "name": "tokenId",
          "type": "uint256"
        }
      ],
      "name": "tokenURI",
      "outputs": [
        {
          "internalType": "string",
          "name": "",
          "type": "string"
        }
      ],
      "stateMutability": "view",
      "type": "function"
    },
    {
      "inputs": [],
      "name": "totalSupply",
      "outputs": [
        {
          "internalType": "uint256",
          "name": "",
          "type": "uint256"
        }
      ],
      "stateMutability": "view",
      "type": "function"
    },
    {
      "inputs": [
        {
          "internalType": "address",
          "name": "from",
          "type": "address"
        },
        {
          "internalType": "address",
          "name": "to",
          "type": "address"
        },
        {
          "internalType": "uint256",
          "name": "tokenId",
          "type": "uint256"
        }
      ],
      "name": "transferFrom",
      "outputs": [],
      "stateMutability": "nonpayable",
      "type": "function"
    },
    {
      "inputs": [
        {
          "internalType": "address",
          "name": "newOwner",
          "type": "address"
        }
      ],
      "name": "transferOwnership",
      "outputs": [],
      "stateMutability": "nonpayable",
      "type": "function"
    },
    {
      "inputs": [
        {
          "internalType": "uint256",
          "name": "transferETH",
          "type": "uint256"
        },
        {
          "internalType": "contract ERC20[]",
          "name": "tokens",
          "type": "address[]"
        }
      ],
      "name": "transferToSplit",
      "outputs": [],
      "stateMutability": "nonpayable",
      "type": "function"
    },
    {
      "inputs": [
        {
          "internalType": "uint256",
          "name": "tokenId",
          "type": "uint256"
        }
      ],
      "name": "userExpires",
      "outputs": [
        {
          "internalType": "uint256",
          "name": "",
          "type": "uint256"
        }
      ],
      "stateMutability": "view",
      "type": "function"
    },
    {
      "inputs": [
        {
          "internalType": "uint256",
          "name": "tokenId",
          "type": "uint256"
        }
      ],
      "name": "userOf",
      "outputs": [
        {
          "internalType": "address",
          "name": "",
          "type": "address"
        }
      ],
      "stateMutability": "view",
      "type": "function"
    },
    {
      "inputs": [],
      "name": "withdraw",
      "outputs": [],
      "stateMutability": "nonpayable",
      "type": "function"
    }
  ],
  "bytecode": "0x60806040523480156200001157600080fd5b5062000032620000266200003860201b60201c565b6200004060201b60201c565b62000106565b600033905090565b6000600860029054906101000a900473ffffffffffffffffffffffffffffffffffffffff16905081600860026101000a81548173ffffffffffffffffffffffffffffffffffffffff021916908373ffffffffffffffffffffffffffffffffffffffff1602179055508173ffffffffffffffffffffffffffffffffffffffff168173ffffffffffffffffffffffffffffffffffffffff167f8be0079c531659141344cd1fd0a4f28419497f9722a3daafe3b4186f6b6457e060405160405180910390a35050565b61545b80620001166000396000f3fe6080604052600436106102665760003560e01c8063715018a611610144578063b9c9d93a116100b6578063e6c350c11161007a578063e6c350c1146108f7578063e985e9c514610922578063eb8d24441461095f578063f2fde38b1461098a578063f47c84c5146109b3578063fd4fe8a8146109de57610266565b8063b9c9d93a14610800578063c2f1f14a1461082b578063c4559d5a14610868578063c87b56dd14610891578063e030565e146108ce57610266565b806395d89b411161010857806395d89b4114610713578063a0712d681461073e578063a22cb4651461075a578063aa3de3cd14610783578063ab0bcc41146107ac578063b88d4fde146107d757610266565b8063715018a61461064057806379ab7c8e146106575780637ff9b596146106805780638da5cb5b146106ab5780638fc88c48146106d657610266565b80632a55205a116101dd5780636352211e116101a15780636352211e1461051c5780636c0360eb146105595780636c1951ae1461058457806370319970146105ad57806370a08231146105d8578063713b97871461061557610266565b80632a55205a1461045e57806334918dfd1461049c5780633ccfd60b146104b357806342842e0e146104ca57806355f804b3146104f357610266565b8063095ea7b31161022f578063095ea7b31461036257806309aa3dcf1461038b5780630e769b2b146103b657806318160ddd146103e157806323b872dd1461040c578063284a44a81461043557610266565b80625f16fb1461026b578063015893c51461029457806301ffc9a7146102bd57806306fdde03146102fa578063081812fc14610325575b600080fd5b34801561027757600080fd5b50610292600480360381019061028d919061360a565b610a07565b005b3480156102a057600080fd5b506102bb60048036038101906102b691906136c6565b610b17565b005b3480156102c957600080fd5b506102e460048036038101906102df91906137b3565b610cbd565b6040516102f191906137fb565b60405180910390f35b34801561030657600080fd5b5061030f610ccf565b60405161031c91906138af565b60405180910390f35b34801561033157600080fd5b5061034c60048036038101906103479190613907565b610d61565b6040516103599190613943565b60405180910390f35b34801561036e57600080fd5b506103896004803603810190610384919061395e565b610de0565b005b34801561039757600080fd5b506103a0610f24565b6040516103ad91906139ad565b60405180910390f35b3480156103c257600080fd5b506103cb610f2a565b6040516103d89190613943565b60405180910390f35b3480156103ed57600080fd5b506103f6610f50565b60405161040391906139ad565b60405180910390f35b34801561041857600080fd5b50610433600480360381019061042e91906139c8565b610f67565b005b34801561044157600080fd5b5061045c60048036038101906104579190613b59565b61128c565b005b34801561046a57600080fd5b5061048560048036038101906104809190613c57565b611377565b604051610493929190613c97565b60405180910390f35b3480156104a857600080fd5b506104b161147a565b005b3480156104bf57600080fd5b506104c86114ae565b005b3480156104d657600080fd5b506104f160048036038101906104ec91906139c8565b611575565b005b3480156104ff57600080fd5b5061051a60048036038101906105159190613d75565b611595565b005b34801561052857600080fd5b50610543600480360381019061053e9190613907565b6115b7565b6040516105509190613943565b60405180910390f35b34801561056557600080fd5b5061056e6115c9565b60405161057b91906138af565b60405180910390f35b34801561059057600080fd5b506105ab60048036038101906105a69190613907565b611657565b005b3480156105b957600080fd5b506105c26116fe565b6040516105cf9190613943565b60405180910390f35b3480156105e457600080fd5b506105ff60048036038101906105fa9190613dbe565b611724565b60405161060c91906139ad565b60405180910390f35b34801561062157600080fd5b5061062a6117dd565b6040516106379190613943565b60405180910390f35b34801561064c57600080fd5b50610655611803565b005b34801561066357600080fd5b5061067e60048036038101906106799190613deb565b611817565b005b34801561068c57600080fd5b506106956118e4565b6040516106a291906139ad565b60405180910390f35b3480156106b757600080fd5b506106c06118ea565b6040516106cd9190613943565b60405180910390f35b3480156106e257600080fd5b506106fd60048036038101906106f89190613907565b611914565b60405161070a91906139ad565b60405180910390f35b34801561071f57600080fd5b50610728611935565b60405161073591906138af565b60405180910390f35b61075860048036038101906107539190613907565b6119c7565b005b34801561076657600080fd5b50610781600480360381019061077c9190613e73565b611c0f565b005b34801561078f57600080fd5b506107aa60048036038101906107a591906140d2565b611d87565b005b3480156107b857600080fd5b506107c16120a6565b6040516107ce91906139ad565b60405180910390f35b3480156107e357600080fd5b506107fe60048036038101906107f99190614185565b6120ac565b005b34801561080c57600080fd5b5061081561211f565b60405161082291906139ad565b60405180910390f35b34801561083757600080fd5b50610852600480360381019061084d9190613907565b612125565b60405161085f9190613943565b60405180910390f35b34801561087457600080fd5b5061088f600480360381019061088a9190614208565b612151565b005b34801561089d57600080fd5b506108b860048036038101906108b39190613907565b61225d565b6040516108c591906138af565b60405180910390f35b3480156108da57600080fd5b506108f560048036038101906108f091906142ef565b61226f565b005b34801561090357600080fd5b5061090c6123d4565b60405161091991906137fb565b60405180910390f35b34801561092e57600080fd5b5061094960048036038101906109449190614342565b6123e7565b60405161095691906137fb565b60405180910390f35b34801561096b57600080fd5b5061097461247b565b60405161098191906137fb565b60405180910390f35b34801561099657600080fd5b506109b160048036038101906109ac9190613dbe565b6124a1565b005b3480156109bf57600080fd5b506109c8612525565b6040516109d591906139ad565b60405180910390f35b3480156109ea57600080fd5b50610a056004803603810190610a009190613dbe565b61252b565b005b600073ffffffffffffffffffffffffffffffffffffffff16610a27612577565b73ffffffffffffffffffffffffffffffffffffffff161415610a7e576040517f08c379a0000000000000000000000000000000000000000000000000000000008152600401610a75906143ce565b60405180910390fd5b610a87876125a1565b610a8f6126c7565b73ffffffffffffffffffffffffffffffffffffffff166315811302610ab2612577565b898989898989896040518963ffffffff1660e01b8152600401610adc9897969594939291906145e2565b600060405180830381600087803b158015610af657600080fd5b505af1158015610b0a573d6000803e3d6000fd5b5050505050505050505050565b610b1f6126f1565b600073ffffffffffffffffffffffffffffffffffffffff16610b3f6126c7565b73ffffffffffffffffffffffffffffffffffffffff161415610b96576040517f08c379a0000000000000000000000000000000000000000000000000000000008152600401610b8d906146a1565b60405180910390fd5b600073ffffffffffffffffffffffffffffffffffffffff16610bb6612577565b73ffffffffffffffffffffffffffffffffffffffff1614610c0c576040517f08c379a0000000000000000000000000000000000000000000000000000000008152600401610c039061470d565b60405180910390fd5b6000610c166126c7565b73ffffffffffffffffffffffffffffffffffffffff16637601f7828787878787336040518763ffffffff1660e01b8152600401610c589695949392919061472d565b602060405180830381600087803b158015610c7257600080fd5b505af1158015610c86573d6000803e3d6000fd5b505050506040513d601f19601f82011682018060405250810190610caa9190614799565b9050610cb58161276f565b505050505050565b6000610cc8826127b3565b9050919050565b606060028054610cde906147f5565b80601f0160208091040260200160405190810160405280929190818152602001828054610d0a906147f5565b8015610d575780601f10610d2c57610100808354040283529160200191610d57565b820191906000526020600020905b815481529060010190602001808311610d3a57829003601f168201915b5050505050905090565b6000610d6c826127f5565b610da2576040517fcf4700e400000000000000000000000000000000000000000000000000000000815260040160405180910390fd5b6006600083815260200190815260200160002060000160009054906101000a900473ffffffffffffffffffffffffffffffffffffffff169050919050565b6000610deb826115b7565b90508073ffffffffffffffffffffffffffffffffffffffff16610e0c612854565b73ffffffffffffffffffffffffffffffffffffffff1614610e6f57610e3881610e33612854565b6123e7565b610e6e576040517fcfb3b94200000000000000000000000000000000000000000000000000000000815260040160405180910390fd5b5b826006600084815260200190815260200160002060000160006101000a81548173ffffffffffffffffffffffffffffffffffffffff021916908373ffffffffffffffffffffffffffffffffffffffff160217905550818373ffffffffffffffffffffffffffffffffffffffff168273ffffffffffffffffffffffffffffffffffffffff167f8c5be1e5ebec7d5bd14f71427d1e84f3dd0314c0f7b2291e5b200ac8c7c3b92560405160405180910390a4505050565b600b5481565b601160009054906101000a900473ffffffffffffffffffffffffffffffffffffffff1681565b6000610f5a61285c565b6001546000540303905090565b6000610f7282612861565b90508373ffffffffffffffffffffffffffffffffffffffff168173ffffffffffffffffffffffffffffffffffffffff1614610fd9576040517fa114810000000000000000000000000000000000000000000000000000000000815260040160405180910390fd5b600080610fe58461292f565b91509150610ffb8187610ff6612854565b612956565b611047576110108661100b612854565b6123e7565b611046576040517f59c896be00000000000000000000000000000000000000000000000000000000815260040160405180910390fd5b5b600073ffffffffffffffffffffffffffffffffffffffff168573ffffffffffffffffffffffffffffffffffffffff1614156110ae576040517fea553b3400000000000000000000000000000000000000000000000000000000815260040160405180910390fd5b6110bb868686600161299a565b80156110c657600082555b600560008773ffffffffffffffffffffffffffffffffffffffff1673ffffffffffffffffffffffffffffffffffffffff168152602001908152602001600020600081546001900391905081905550600560008673ffffffffffffffffffffffffffffffffffffffff1673ffffffffffffffffffffffffffffffffffffffff1681526020019081526020016000206000815460010191905081905550611194856111708888876129a0565b7c0200000000000000000000000000000000000000000000000000000000176129c8565b600460008681526020019081526020016000208190555060007c02000000000000000000000000000000000000000000000000000000008416141561121c57600060018501905060006004600083815260200190815260200160002054141561121a576000548114611219578360046000838152602001908152602001600020819055505b5b505b838573ffffffffffffffffffffffffffffffffffffffff168773ffffffffffffffffffffffffffffffffffffffff167fddf252ad1be2c89b69c2b068fc378daa952ba7f163c4a11628f55a4df523b3ef60405160405180910390a461128486868660016129f3565b505050505050565b600073ffffffffffffffffffffffffffffffffffffffff166112ac612577565b73ffffffffffffffffffffffffffffffffffffffff161415611303576040517f08c379a00000000000000000000000000000000000000000000000000000000081526004016112fa906143ce565b60405180910390fd5b6000881461131a57611319868686868686612151565b5b60005b87518110156113605761134f88828151811061133c5761133b614827565b5b6020026020010151888888888888610a07565b8061135990614885565b905061131d565b5061136c8989896129f9565b505050505050505050565b600080611383846127f5565b6113c2576040517f08c379a00000000000000000000000000000000000000000000000000000000081526004016113b99061491a565b60405180910390fd5b600073ffffffffffffffffffffffffffffffffffffffff16601260009054906101000a900473ffffffffffffffffffffffffffffffffffffffff1673ffffffffffffffffffffffffffffffffffffffff161461144257601260009054906101000a900473ffffffffffffffffffffffffffffffffffffffff16915061144d565b61144a6118ea565b91505b600061271060105485611460919061493a565b61146a91906149c3565b9050828192509250509250929050565b6114826126f1565b600d60009054906101000a900460ff1615600d60006101000a81548160ff021916908315150217905550565b6114b66126f1565b600073ffffffffffffffffffffffffffffffffffffffff166114d6612577565b73ffffffffffffffffffffffffffffffffffffffff161461152c576040517f08c379a000000000000000000000000000000000000000000000000000000000815260040161152390614a66565b60405180910390fd5b3373ffffffffffffffffffffffffffffffffffffffff166108fc479081150290604051600060405180830381858888f19350505050158015611572573d6000803e3d6000fd5b50565b611590838383604051806020016040528060008152506120ac565b505050565b61159d6126f1565b80600e90805190602001906115b39291906133c0565b5050565b60006115c282612861565b9050919050565b600e80546115d6906147f5565b80601f0160208091040260200160405190810160405280929190818152602001828054611602906147f5565b801561164f5780601f106116245761010080835404028352916020019161164f565b820191906000526020600020905b81548152906001019060200180831161163257829003601f168201915b505050505081565b61165f6126f1565b6000611669610f50565b9050600954828261167a9190614a86565b106116ba576040517f08c379a00000000000000000000000000000000000000000000000000000000081526004016116b190614b28565b60405180910390fd5b60005b828110156116f9576116e633600183856116d79190614a86565b6116e19190614a86565b612a74565b80806116f190614885565b9150506116bd565b505050565b600f60009054906101000a900473ffffffffffffffffffffffffffffffffffffffff1681565b60008073ffffffffffffffffffffffffffffffffffffffff168273ffffffffffffffffffffffffffffffffffffffff16141561178c576040517f8f4eb60400000000000000000000000000000000000000000000000000000000815260040160405180910390fd5b67ffffffffffffffff600560008473ffffffffffffffffffffffffffffffffffffffff1673ffffffffffffffffffffffffffffffffffffffff16815260200190815260200160002054169050919050565b601260009054906101000a900473ffffffffffffffffffffffffffffffffffffffff1681565b61180b6126f1565b6118156000612a92565b565b600073ffffffffffffffffffffffffffffffffffffffff16611837612577565b73ffffffffffffffffffffffffffffffffffffffff16141561188e576040517f08c379a0000000000000000000000000000000000000000000000000000000008152600401611885906143ce565b60405180910390fd5b6000821461189f5761189e612b58565b5b60005b81518110156118df576118ce8282815181106118c1576118c0614827565b5b60200260200101516125a1565b806118d890614885565b90506118a2565b505050565b600a5481565b6000600860029054906101000a900473ffffffffffffffffffffffffffffffffffffffff16905090565b600060a06013600084815260200190815260200160002054901c9050919050565b606060038054611944906147f5565b80601f0160208091040260200160405190810160405280929190818152602001828054611970906147f5565b80156119bd5780601f10611992576101008083540402835291602001916119bd565b820191906000526020600020905b8154815290600101906020018083116119a057829003601f168201915b5050505050905090565b60006119d1610f50565b9050600c54421015611a18576040517f08c379a0000000000000000000000000000000000000000000000000000000008152600401611a0f90614b94565b60405180910390fd5b600d60009054906101000a900460ff1615611a68576040517f08c379a0000000000000000000000000000000000000000000000000000000008152600401611a5f90614c00565b60405180910390fd5b6009548282611a779190614a86565b1115611ab8576040517f08c379a0000000000000000000000000000000000000000000000000000000008152600401611aaf90614b28565b60405180910390fd5b600954811115611afd576040517f08c379a0000000000000000000000000000000000000000000000000000000008152600401611af490614c6c565b60405180910390fd5b81600a54611b0b919061493a565b341015611b4d576040517f08c379a0000000000000000000000000000000000000000000000000000000008152600401611b4490614cd8565b60405180910390fd5b6000600b5414611b9d57600b54821115611b9c576040517f08c379a0000000000000000000000000000000000000000000000000000000008152600401611b9390614d44565b60405180910390fd5b5b611ba73383612a74565b60005b82811015611c0a577f30385c845b448a36257a6a1716e6ad2e1bc2cbe333cde1e69fe849ad6511adfe338380611bdf90614885565b9450604051611bef929190613c97565b60405180910390a18080611c0290614885565b915050611baa565b505050565b611c17612854565b73ffffffffffffffffffffffffffffffffffffffff168273ffffffffffffffffffffffffffffffffffffffff161415611c7c576040517fb06307db00000000000000000000000000000000000000000000000000000000815260040160405180910390fd5b8060076000611c89612854565b73ffffffffffffffffffffffffffffffffffffffff1673ffffffffffffffffffffffffffffffffffffffff16815260200190815260200160002060008473ffffffffffffffffffffffffffffffffffffffff1673ffffffffffffffffffffffffffffffffffffffff16815260200190815260200160002060006101000a81548160ff0219169083151502179055508173ffffffffffffffffffffffffffffffffffffffff16611d36612854565b73ffffffffffffffffffffffffffffffffffffffff167f17307eab39ab6107e8899845ad3d59bd9653f200f220920489ca2b5937696c3183604051611d7b91906137fb565b60405180910390a35050565b6000600860019054906101000a900460ff16159050808015611dbb57506001600860009054906101000a900460ff1660ff16105b80611dea5750611dca30612c0e565b158015611de957506001600860009054906101000a900460ff1660ff16145b5b611e29576040517f08c379a0000000000000000000000000000000000000000000000000000000008152600401611e2090614dd6565b60405180910390fd5b6001600860006101000a81548160ff021916908360ff1602179055508015611e67576001600860016101000a81548160ff0219169083151502179055505b611e7086612a92565b846000015160029080519060200190611e8a9291906133c0565b50846020015160039080519060200190611ea59291906133c0565b50611eae61285c565b60008190555084604001516009819055508460600151600a819055508460800151600b819055508460a00151600c819055508460c0015160108190555081601160006101000a81548173ffffffffffffffffffffffffffffffffffffffff021916908373ffffffffffffffffffffffffffffffffffffffff160217905550600073ffffffffffffffffffffffffffffffffffffffff168373ffffffffffffffffffffffffffffffffffffffff1614158015611f6e57506000846020015151115b156120285782600f60006101000a81548173ffffffffffffffffffffffffffffffffffffffff021916908373ffffffffffffffffffffffffffffffffffffffff1602179055508273ffffffffffffffffffffffffffffffffffffffff1663856a7ffa85602001516040518263ffffffff1660e01b8152600401611ff19190614e4b565b600060405180830381600087803b15801561200b57600080fd5b505af115801561201f573d6000803e3d6000fd5b50505050612044565b8360000151600e90805190602001906120429291906133c0565b505b801561209e576000600860016101000a81548160ff0219169083151502179055507f7f26b83ff96e1f2b6a682f133852f6798a09c465da95921460cefb384740249860016040516120959190614eb5565b60405180910390a15b505050505050565b600c5481565b6120b7848484610f67565b60008373ffffffffffffffffffffffffffffffffffffffff163b14612119576120e284848484612c31565b612118576040517fd1a57ed600000000000000000000000000000000000000000000000000000000815260040160405180910390fd5b5b50505050565b60105481565b60008060136000848152602001908152602001600020549050804260a01b108102905080915050919050565b600073ffffffffffffffffffffffffffffffffffffffff16612171612577565b73ffffffffffffffffffffffffffffffffffffffff1614156121c8576040517f08c379a00000000000000000000000000000000000000000000000000000000081526004016121bf906143ce565b60405180910390fd5b6121d0612b58565b6121d86126c7565b73ffffffffffffffffffffffffffffffffffffffff1663e61cb05e6121fb612577565b8888888888886040518863ffffffff1660e01b81526004016122239796959493929190614ed0565b600060405180830381600087803b15801561223d57600080fd5b505af1158015612251573d6000803e3d6000fd5b50505050505050505050565b606061226882612d91565b9050919050565b600061227a846115b7565b90508073ffffffffffffffffffffffffffffffffffffffff1661229b612854565b73ffffffffffffffffffffffffffffffffffffffff1614612341576122c7816122c2612854565b6123e7565b612340576122d3612854565b73ffffffffffffffffffffffffffffffffffffffff166122f285610d61565b73ffffffffffffffffffffffffffffffffffffffff161461233f576040517f4f1dd8e800000000000000000000000000000000000000000000000000000000815260040160405180910390fd5b5b5b8273ffffffffffffffffffffffffffffffffffffffff1660a08367ffffffffffffffff16901b1760136000868152602001908152602001600020819055508273ffffffffffffffffffffffffffffffffffffffff16847f4e06b4e7000e659094299b3533b47b6aa8ad048e95e872d23d1f4ee55af89cfe846040516123c69190614f44565b60405180910390a350505050565b600d60009054906101000a900460ff1681565b6000600760008473ffffffffffffffffffffffffffffffffffffffff1673ffffffffffffffffffffffffffffffffffffffff16815260200190815260200160002060008373ffffffffffffffffffffffffffffffffffffffff1673ffffffffffffffffffffffffffffffffffffffff16815260200190815260200160002060009054906101000a900460ff16905092915050565b6000600c54421015801561249c5750600d60009054906101000a900460ff16155b905090565b6124a96126f1565b600073ffffffffffffffffffffffffffffffffffffffff168173ffffffffffffffffffffffffffffffffffffffff161415612519576040517f08c379a000000000000000000000000000000000000000000000000000000000815260040161251090614fd1565b60405180910390fd5b61252281612a92565b50565b60095481565b6125336126f1565b80600f60006101000a81548173ffffffffffffffffffffffffffffffffffffffff021916908373ffffffffffffffffffffffffffffffffffffffff16021790555050565b6000601260009054906101000a900473ffffffffffffffffffffffffffffffffffffffff16905090565b60008173ffffffffffffffffffffffffffffffffffffffff166370a08231306040518263ffffffff1660e01b81526004016125dc9190613943565b60206040518083038186803b1580156125f457600080fd5b505afa158015612608573d6000803e3d6000fd5b505050506040513d601f19601f8201168201806040525081019061262c9190615006565b90508173ffffffffffffffffffffffffffffffffffffffff1663a9059cbb612652612577565b836040518363ffffffff1660e01b8152600401612670929190613c97565b602060405180830381600087803b15801561268a57600080fd5b505af115801561269e573d6000803e3d6000fd5b505050506040513d601f19601f820116820180604052508101906126c29190615048565b505050565b6000601160009054906101000a900473ffffffffffffffffffffffffffffffffffffffff16905090565b6126f9612ef0565b73ffffffffffffffffffffffffffffffffffffffff166127176118ea565b73ffffffffffffffffffffffffffffffffffffffff161461276d576040517f08c379a0000000000000000000000000000000000000000000000000000000008152600401612764906150c1565b60405180910390fd5b565b80601260006101000a81548173ffffffffffffffffffffffffffffffffffffffff021916908373ffffffffffffffffffffffffffffffffffffffff16021790555050565b60006127be82612ef8565b806127ee575063ad092b5c60e01b827bffffffffffffffffffffffffffffffffffffffffffffffffffffffff1916145b9050919050565b60008161280061285c565b1115801561280f575060005482105b801561284d575060007c0100000000000000000000000000000000000000000000000000000000600460008581526020019081526020016000205416145b9050919050565b600033905090565b600090565b6000808290508061287061285c565b116128f8576000548110156128f75760006004600083815260200190815260200160002054905060007c0100000000000000000000000000000000000000000000000000000000821614156128f5575b60008114156128eb5760046000836001900393508381526020019081526020016000205490506128c0565b809250505061292a565b505b5b6040517fdf2d9b4200000000000000000000000000000000000000000000000000000000815260040160405180910390fd5b919050565b60008060006006600085815260200190815260200160002090508092508254915050915091565b600073ffffffffffffffffffffffffffffffffffffffff8316925073ffffffffffffffffffffffffffffffffffffffff821691508382148383141790509392505050565b50505050565b60008060e883901c905060e86129b7868684612f3a565b62ffffff16901b9150509392505050565b600073ffffffffffffffffffffffffffffffffffffffff83169250814260a01b178317905092915050565b50505050565b612a016126c7565b73ffffffffffffffffffffffffffffffffffffffff16636e5f69198484846040518463ffffffff1660e01b8152600401612a3d9392919061518e565b600060405180830381600087803b158015612a5757600080fd5b505af1158015612a6b573d6000803e3d6000fd5b50505050505050565b612a8e828260405180602001604052806000815250612f43565b5050565b6000600860029054906101000a900473ffffffffffffffffffffffffffffffffffffffff16905081600860026101000a81548173ffffffffffffffffffffffffffffffffffffffff021916908373ffffffffffffffffffffffffffffffffffffffff1602179055508173ffffffffffffffffffffffffffffffffffffffff168173ffffffffffffffffffffffffffffffffffffffff167f8be0079c531659141344cd1fd0a4f28419497f9722a3daafe3b4186f6b6457e060405160405180910390a35050565b6000612b62612577565b73ffffffffffffffffffffffffffffffffffffffff1647604051612b85906151fd565b60006040518083038185875af1925050503d8060008114612bc2576040519150601f19603f3d011682016040523d82523d6000602084013e612bc7565b606091505b5050905080612c0b576040517f08c379a0000000000000000000000000000000000000000000000000000000008152600401612c029061525e565b60405180910390fd5b50565b6000808273ffffffffffffffffffffffffffffffffffffffff163b119050919050565b60008373ffffffffffffffffffffffffffffffffffffffff1663150b7a02612c57612854565b8786866040518563ffffffff1660e01b8152600401612c79949392919061527e565b602060405180830381600087803b158015612c9357600080fd5b505af1925050508015612cc457506040513d601f19601f82011682018060405250810190612cc191906152df565b60015b612d3e573d8060008114612cf4576040519150601f19603f3d011682016040523d82523d6000602084013e612cf9565b606091505b50600081511415612d36576040517fd1a57ed600000000000000000000000000000000000000000000000000000000815260040160405180910390fd5b805181602001fd5b63150b7a0260e01b7bffffffffffffffffffffffffffffffffffffffffffffffffffffffff1916817bffffffffffffffffffffffffffffffffffffffffffffffffffffffff191614915050949350505050565b6060612d9c826127f5565b612dd2576040517fa14c4b5000000000000000000000000000000000000000000000000000000000815260040160405180910390fd5b600073ffffffffffffffffffffffffffffffffffffffff16600f60009054906101000a900473ffffffffffffffffffffffffffffffffffffffff1673ffffffffffffffffffffffffffffffffffffffff1614612edf57600f60009054906101000a900473ffffffffffffffffffffffffffffffffffffffff1673ffffffffffffffffffffffffffffffffffffffff1663c87b56dd836040518263ffffffff1660e01b8152600401612e8391906139ad565b60006040518083038186803b158015612e9b57600080fd5b505afa158015612eaf573d6000803e3d6000fd5b505050506040513d6000823e3d601f19601f82011682018060405250810190612ed8919061537c565b9050612eeb565b612ee882612fe0565b90505b919050565b600033905090565b6000632a55205a60e01b827bffffffffffffffffffffffffffffffffffffffffffffffffffffffff19161480612f335750612f328261307f565b5b9050919050565b60009392505050565b612f4d8383613111565b60008373ffffffffffffffffffffffffffffffffffffffff163b14612fdb57600080549050600083820390505b612f8d6000868380600101945086612c31565b612fc3576040517fd1a57ed600000000000000000000000000000000000000000000000000000000815260040160405180910390fd5b818110612f7a578160005414612fd857600080fd5b50505b505050565b6060612feb826127f5565b613021576040517fa14c4b5000000000000000000000000000000000000000000000000000000000815260040160405180910390fd5b600061302b6132ce565b905060008151141561304c5760405180602001604052806000815250613077565b8061305684613360565b604051602001613067929190615401565b6040516020818303038152906040525b915050919050565b60006301ffc9a760e01b827bffffffffffffffffffffffffffffffffffffffffffffffffffffffff191614806130da57506380ac58cd60e01b827bffffffffffffffffffffffffffffffffffffffffffffffffffffffff1916145b8061310a5750635b5e139f60e01b827bffffffffffffffffffffffffffffffffffffffffffffffffffffffff1916145b9050919050565b6000805490506000821415613152576040517fb562e8dd00000000000000000000000000000000000000000000000000000000815260040160405180910390fd5b61315f600084838561299a565b600160406001901b178202600560008573ffffffffffffffffffffffffffffffffffffffff1673ffffffffffffffffffffffffffffffffffffffff168152602001908152602001600020600082825401925050819055506131d6836131c760008660006129a0565b6131d0856133b0565b176129c8565b6004600083815260200190815260200160002081905550600080838301905073ffffffffffffffffffffffffffffffffffffffff85169150828260007fddf252ad1be2c89b69c2b068fc378daa952ba7f163c4a11628f55a4df523b3ef600080a4600183015b81811461327757808360007fddf252ad1be2c89b69c2b068fc378daa952ba7f163c4a11628f55a4df523b3ef600080a460018101905061323c565b5060008214156132b3576040517f2e07630000000000000000000000000000000000000000000000000000000000815260040160405180910390fd5b8060008190555050506132c960008483856129f3565b505050565b6060600e80546132dd906147f5565b80601f0160208091040260200160405190810160405280929190818152602001828054613309906147f5565b80156133565780601f1061332b57610100808354040283529160200191613356565b820191906000526020600020905b81548152906001019060200180831161333957829003601f168201915b5050505050905090565b606060806040510190508060405280825b60011561339c57600183039250600a81066030018353600a81049050806133975761339c565b613371565b508181036020830392508083525050919050565b60006001821460e11b9050919050565b8280546133cc906147f5565b90600052602060002090601f0160209004810192826133ee5760008555613435565b82601f1061340757805160ff1916838001178555613435565b82800160010185558215613435579182015b82811115613434578251825591602001919060010190613419565b5b5090506134429190613446565b5090565b5b8082111561345f576000816000905550600101613447565b5090565b6000604051905090565b600080fd5b600080fd5b600073ffffffffffffffffffffffffffffffffffffffff82169050919050565b60006134a282613477565b9050919050565b60006134b482613497565b9050919050565b6134c4816134a9565b81146134cf57600080fd5b50565b6000813590506134e1816134bb565b92915050565b600080fd5b600080fd5b600080fd5b60008083601f84011261350c5761350b6134e7565b5b8235905067ffffffffffffffff811115613529576135286134ec565b5b602083019150836020820283011115613545576135446134f1565b5b9250929050565b60008083601f840112613562576135616134e7565b5b8235905067ffffffffffffffff81111561357f5761357e6134ec565b5b60208301915083602082028301111561359b5761359a6134f1565b5b9250929050565b600063ffffffff82169050919050565b6135bb816135a2565b81146135c657600080fd5b50565b6000813590506135d8816135b2565b92915050565b6135e781613497565b81146135f257600080fd5b50565b600081359050613604816135de565b92915050565b600080600080600080600060a0888a0312156136295761362861346d565b5b60006136378a828b016134d2565b975050602088013567ffffffffffffffff81111561365857613657613472565b5b6136648a828b016134f6565b9650965050604088013567ffffffffffffffff81111561368757613686613472565b5b6136938a828b0161354c565b945094505060606136a68a828b016135c9565b92505060806136b78a828b016135f5565b91505092959891949750929550565b6000806000806000606086880312156136e2576136e161346d565b5b600086013567ffffffffffffffff811115613700576136ff613472565b5b61370c888289016134f6565b9550955050602086013567ffffffffffffffff81111561372f5761372e613472565b5b61373b8882890161354c565b9350935050604061374e888289016135c9565b9150509295509295909350565b60007fffffffff0000000000000000000000000000000000000000000000000000000082169050919050565b6137908161375b565b811461379b57600080fd5b50565b6000813590506137ad81613787565b92915050565b6000602082840312156137c9576137c861346d565b5b60006137d78482850161379e565b91505092915050565b60008115159050919050565b6137f5816137e0565b82525050565b600060208201905061381060008301846137ec565b92915050565b600081519050919050565b600082825260208201905092915050565b60005b83811015613850578082015181840152602081019050613835565b8381111561385f576000848401525b50505050565b6000601f19601f8301169050919050565b600061388182613816565b61388b8185613821565b935061389b818560208601613832565b6138a481613865565b840191505092915050565b600060208201905081810360008301526138c98184613876565b905092915050565b6000819050919050565b6138e4816138d1565b81146138ef57600080fd5b50565b600081359050613901816138db565b92915050565b60006020828403121561391d5761391c61346d565b5b600061392b848285016138f2565b91505092915050565b61393d81613497565b82525050565b60006020820190506139586000830184613934565b92915050565b600080604083850312156139755761397461346d565b5b6000613983858286016135f5565b9250506020613994858286016138f2565b9150509250929050565b6139a7816138d1565b82525050565b60006020820190506139c2600083018461399e565b92915050565b6000806000606084860312156139e1576139e061346d565b5b60006139ef868287016135f5565b9350506020613a00868287016135f5565b9250506040613a11868287016138f2565b9150509250925092565b7f4e487b7100000000000000000000000000000000000000000000000000000000600052604160045260246000fd5b613a5382613865565b810181811067ffffffffffffffff82111715613a7257613a71613a1b565b5b80604052505050565b6000613a85613463565b9050613a918282613a4a565b919050565b600067ffffffffffffffff821115613ab157613ab0613a1b565b5b602082029050602081019050919050565b6000613ad5613ad084613a96565b613a7b565b90508083825260208201905060208402830185811115613af857613af76134f1565b5b835b81811015613b215780613b0d88826134d2565b845260208401935050602081019050613afa565b5050509392505050565b600082601f830112613b4057613b3f6134e7565b5b8135613b50848260208601613ac2565b91505092915050565b600080600080600080600080600060e08a8c031215613b7b57613b7a61346d565b5b6000613b898c828d016135f5565b9950506020613b9a8c828d016138f2565b98505060408a013567ffffffffffffffff811115613bbb57613bba613472565b5b613bc78c828d01613b2b565b97505060608a013567ffffffffffffffff811115613be857613be7613472565b5b613bf48c828d016134f6565b965096505060808a013567ffffffffffffffff811115613c1757613c16613472565b5b613c238c828d0161354c565b945094505060a0613c368c828d016135c9565b92505060c0613c478c828d016135f5565b9150509295985092959850929598565b60008060408385031215613c6e57613c6d61346d565b5b6000613c7c858286016138f2565b9250506020613c8d858286016138f2565b9150509250929050565b6000604082019050613cac6000830185613934565b613cb9602083018461399e565b9392505050565b600080fd5b600067ffffffffffffffff821115613ce057613cdf613a1b565b5b613ce982613865565b9050602081019050919050565b82818337600083830152505050565b6000613d18613d1384613cc5565b613a7b565b905082815260208101848484011115613d3457613d33613cc0565b5b613d3f848285613cf6565b509392505050565b600082601f830112613d5c57613d5b6134e7565b5b8135613d6c848260208601613d05565b91505092915050565b600060208284031215613d8b57613d8a61346d565b5b600082013567ffffffffffffffff811115613da957613da8613472565b5b613db584828501613d47565b91505092915050565b600060208284031215613dd457613dd361346d565b5b6000613de2848285016135f5565b91505092915050565b60008060408385031215613e0257613e0161346d565b5b6000613e10858286016138f2565b925050602083013567ffffffffffffffff811115613e3157613e30613472565b5b613e3d85828601613b2b565b9150509250929050565b613e50816137e0565b8114613e5b57600080fd5b50565b600081359050613e6d81613e47565b92915050565b60008060408385031215613e8a57613e8961346d565b5b6000613e98858286016135f5565b9250506020613ea985828601613e5e565b9150509250929050565b600080fd5b600080fd5b600060e08284031215613ed357613ed2613eb3565b5b613edd60e0613a7b565b9050600082013567ffffffffffffffff811115613efd57613efc613eb8565b5b613f0984828501613d47565b600083015250602082013567ffffffffffffffff811115613f2d57613f2c613eb8565b5b613f3984828501613d47565b6020830152506040613f4d848285016138f2565b6040830152506060613f61848285016138f2565b6060830152506080613f75848285016138f2565b60808301525060a0613f89848285016138f2565b60a08301525060c0613f9d848285016138f2565b60c08301525092915050565b600067ffffffffffffffff821115613fc457613fc3613a1b565b5b613fcd82613865565b9050602081019050919050565b6000613fed613fe884613fa9565b613a7b565b90508281526020810184848401111561400957614008613cc0565b5b614014848285613cf6565b509392505050565b600082601f830112614031576140306134e7565b5b8135614041848260208601613fda565b91505092915050565b6000604082840312156140605761405f613eb3565b5b61406a6040613a7b565b9050600082013567ffffffffffffffff81111561408a57614089613eb8565b5b61409684828501613d47565b600083015250602082013567ffffffffffffffff8111156140ba576140b9613eb8565b5b6140c68482850161401c565b60208301525092915050565b600080600080600060a086880312156140ee576140ed61346d565b5b60006140fc888289016135f5565b955050602086013567ffffffffffffffff81111561411d5761411c613472565b5b61412988828901613ebd565b945050604086013567ffffffffffffffff81111561414a57614149613472565b5b6141568882890161404a565b9350506060614167888289016135f5565b9250506080614178888289016135f5565b9150509295509295909350565b6000806000806080858703121561419f5761419e61346d565b5b60006141ad878288016135f5565b94505060206141be878288016135f5565b93505060406141cf878288016138f2565b925050606085013567ffffffffffffffff8111156141f0576141ef613472565b5b6141fc8782880161401c565b91505092959194509250565b600080600080600080608087890312156142255761422461346d565b5b600087013567ffffffffffffffff81111561424357614242613472565b5b61424f89828a016134f6565b9650965050602087013567ffffffffffffffff81111561427257614271613472565b5b61427e89828a0161354c565b9450945050604061429189828a016135c9565b92505060606142a289828a016135f5565b9150509295509295509295565b600067ffffffffffffffff82169050919050565b6142cc816142af565b81146142d757600080fd5b50565b6000813590506142e9816142c3565b92915050565b6000806000606084860312156143085761430761346d565b5b6000614316868287016138f2565b9350506020614327868287016135f5565b9250506040614338868287016142da565b9150509250925092565b600080604083850312156143595761435861346d565b5b6000614367858286016135f5565b9250506020614378858286016135f5565b9150509250929050565b7f53706c6974206e6f742063726561746564207965740000000000000000000000600082015250565b60006143b8601583613821565b91506143c382614382565b602082019050919050565b600060208201905081810360008301526143e7816143ab565b9050919050565b6000819050919050565b600061441361440e61440984613477565b6143ee565b613477565b9050919050565b6000614425826143f8565b9050919050565b60006144378261441a565b9050919050565b6144478161442c565b82525050565b600082825260208201905092915050565b6000819050919050565b61447181613497565b82525050565b60006144838383614468565b60208301905092915050565b600061449e60208401846135f5565b905092915050565b6000602082019050919050565b60006144bf838561444d565b93506144ca8261445e565b8060005b85811015614503576144e0828461448f565b6144ea8882614477565b97506144f5836144a6565b9250506001810190506144ce565b5085925050509392505050565b600082825260208201905092915050565b6000819050919050565b614534816135a2565b82525050565b6000614546838361452b565b60208301905092915050565b600061456160208401846135c9565b905092915050565b6000602082019050919050565b60006145828385614510565b935061458d82614521565b8060005b858110156145c6576145a38284614552565b6145ad888261453a565b97506145b883614569565b925050600181019050614591565b5085925050509392505050565b6145dc816135a2565b82525050565b600060c0820190506145f7600083018b613934565b614604602083018a61443e565b818103604083015261461781888a6144b3565b9050818103606083015261462c818688614576565b905061463b60808301856145d3565b61464860a0830184613934565b9998505050505050505050565b7f53706c69744d61696e206e6f7420736574000000000000000000000000000000600082015250565b600061468b601183613821565b915061469682614655565b602082019050919050565b600060208201905081810360008301526146ba8161467e565b9050919050565b7f53706c697420616c726561647920637265617465640000000000000000000000600082015250565b60006146f7601583613821565b9150614702826146c1565b602082019050919050565b60006020820190508181036000830152614726816146ea565b9050919050565b6000608082019050818103600083015261474881888a6144b3565b9050818103602083015261475d818688614576565b905061476c60408301856145d3565b6147796060830184613934565b979650505050505050565b600081519050614793816135de565b92915050565b6000602082840312156147af576147ae61346d565b5b60006147bd84828501614784565b91505092915050565b7f4e487b7100000000000000000000000000000000000000000000000000000000600052602260045260246000fd5b6000600282049050600182168061480d57607f821691505b60208210811415614821576148206147c6565b5b50919050565b7f4e487b7100000000000000000000000000000000000000000000000000000000600052603260045260246000fd5b7f4e487b7100000000000000000000000000000000000000000000000000000000600052601160045260246000fd5b6000614890826138d1565b91507fffffffffffffffffffffffffffffffffffffffffffffffffffffffffffffffff8214156148c3576148c2614856565b5b600182019050919050565b7f4e6f6e6578697374656e7420746f6b656e000000000000000000000000000000600082015250565b6000614904601183613821565b915061490f826148ce565b602082019050919050565b60006020820190508181036000830152614933816148f7565b9050919050565b6000614945826138d1565b9150614950836138d1565b9250817fffffffffffffffffffffffffffffffffffffffffffffffffffffffffffffffff048311821515161561498957614988614856565b5b828202905092915050565b7f4e487b7100000000000000000000000000000000000000000000000000000000600052601260045260246000fd5b60006149ce826138d1565b91506149d9836138d1565b9250826149e9576149e8614994565b5b828204905092915050565b7f43616e6e6f74207769746864726177207769746820616e20616374697665207360008201527f706c697400000000000000000000000000000000000000000000000000000000602082015250565b6000614a50602483613821565b9150614a5b826149f4565b604082019050919050565b60006020820190508181036000830152614a7f81614a43565b9050919050565b6000614a91826138d1565b9150614a9c836138d1565b9250827fffffffffffffffffffffffffffffffffffffffffffffffffffffffffffffffff03821115614ad157614ad0614856565b5b828201905092915050565b7f507572636861736520776f756c6420657863656564206d617820737570706c79600082015250565b6000614b12602083613821565b9150614b1d82614adc565b602082019050919050565b60006020820190508181036000830152614b4181614b05565b9050919050565b7f53616c657320617265206e6f7420616374697665207965742e00000000000000600082015250565b6000614b7e601983613821565b9150614b8982614b48565b602082019050919050565b60006020820190508181036000830152614bad81614b71565b9050919050565b7f53616c65206d7573742062652061637469766520746f206d696e740000000000600082015250565b6000614bea601b83613821565b9150614bf582614bb4565b602082019050919050565b60006020820190508181036000830152614c1981614bdd565b9050919050565b7f534f4c44204f5554000000000000000000000000000000000000000000000000600082015250565b6000614c56600883613821565b9150614c6182614c20565b602082019050919050565b60006020820190508181036000830152614c8581614c49565b9050919050565b7f496e73756666696369656e742066756e64730000000000000000000000000000600082015250565b6000614cc2601283613821565b9150614ccd82614c8c565b602082019050919050565b60006020820190508181036000830152614cf181614cb5565b9050919050565b7f4578636565646564206d6178206e756d62657220706572206d696e7400000000600082015250565b6000614d2e601c83613821565b9150614d3982614cf8565b602082019050919050565b60006020820190508181036000830152614d5d81614d21565b9050919050565b7f496e697469616c697a61626c653a20636f6e747261637420697320616c72656160008201527f647920696e697469616c697a6564000000000000000000000000000000000000602082015250565b6000614dc0602e83613821565b9150614dcb82614d64565b604082019050919050565b60006020820190508181036000830152614def81614db3565b9050919050565b600081519050919050565b600082825260208201905092915050565b6000614e1d82614df6565b614e278185614e01565b9350614e37818560208601613832565b614e4081613865565b840191505092915050565b60006020820190508181036000830152614e658184614e12565b905092915050565b6000819050919050565b600060ff82169050919050565b6000614e9f614e9a614e9584614e6d565b6143ee565b614e77565b9050919050565b614eaf81614e84565b82525050565b6000602082019050614eca6000830184614ea6565b92915050565b600060a082019050614ee5600083018a613934565b8181036020830152614ef881888a6144b3565b90508181036040830152614f0d818688614576565b9050614f1c60608301856145d3565b614f296080830184613934565b98975050505050505050565b614f3e816142af565b82525050565b6000602082019050614f596000830184614f35565b92915050565b7f4f776e61626c653a206e6577206f776e657220697320746865207a65726f206160008201527f6464726573730000000000000000000000000000000000000000000000000000602082015250565b6000614fbb602683613821565b9150614fc682614f5f565b604082019050919050565b60006020820190508181036000830152614fea81614fae565b9050919050565b600081519050615000816138db565b92915050565b60006020828403121561501c5761501b61346d565b5b600061502a84828501614ff1565b91505092915050565b60008151905061504281613e47565b92915050565b60006020828403121561505e5761505d61346d565b5b600061506c84828501615033565b91505092915050565b7f4f776e61626c653a2063616c6c6572206973206e6f7420746865206f776e6572600082015250565b60006150ab602083613821565b91506150b682615075565b602082019050919050565b600060208201905081810360008301526150da8161509e565b9050919050565b600081519050919050565b6000819050602082019050919050565b6151058161442c565b82525050565b600061511783836150fc565b60208301905092915050565b6000602082019050919050565b600061513b826150e1565b615145818561444d565b9350615150836150ec565b8060005b83811015615181578151615168888261510b565b975061517383615123565b925050600181019050615154565b5085935050505092915050565b60006060820190506151a36000830186613934565b6151b0602083018561399e565b81810360408301526151c28184615130565b9050949350505050565b600081905092915050565b50565b60006151e76000836151cc565b91506151f2826151d7565b600082019050919050565b6000615208826151da565b9150819050919050565b7f436f756c64206e6f74207472616e736665722045544820746f2073706c697400600082015250565b6000615248601f83613821565b915061525382615212565b602082019050919050565b600060208201905081810360008301526152778161523b565b9050919050565b60006080820190506152936000830187613934565b6152a06020830186613934565b6152ad604083018561399e565b81810360608301526152bf8184614e12565b905095945050505050565b6000815190506152d981613787565b92915050565b6000602082840312156152f5576152f461346d565b5b6000615303848285016152ca565b91505092915050565b600061531f61531a84613cc5565b613a7b565b90508281526020810184848401111561533b5761533a613cc0565b5b615346848285613832565b509392505050565b600082601f830112615363576153626134e7565b5b815161537384826020860161530c565b91505092915050565b6000602082840312156153925761539161346d565b5b600082015167ffffffffffffffff8111156153b0576153af613472565b5b6153bc8482850161534e565b91505092915050565b600081905092915050565b60006153db82613816565b6153e581856153c5565b93506153f5818560208601613832565b80840191505092915050565b600061540d82856153d0565b915061541982846153d0565b9150819050939250505056fea264697066735822122092ba0e5c1336d331731c4408945457cfa1a87aeed3042e615b0603df2c0a1e4f64736f6c63430008090033",
  "linkReferences": {},
  "deployedLinkReferences": {}
}