{
  "_format": "hh-sol-artifact-1",
  "contractName": "DCNTSDK",
  "sourceName": "contracts/DCNTSDK.sol",
  "abi": [
    {
      "inputs": [
        {
          "internalType": "address",
          "name": "_DCNT721AImplementation",
          "type": "address"
        },
        {
          "internalType": "address",
          "name": "_DCNT4907AImplementation",
          "type": "address"
        },
        {
          "internalType": "address",
          "name": "_DCNTCrescendoImplementation",
          "type": "address"
        },
        {
          "internalType": "address",
          "name": "_DCNTVaultImplementation",
          "type": "address"
        },
        {
          "internalType": "address",
          "name": "_DCNTStakingImplementation",
          "type": "address"
        },
        {
          "internalType": "address",
          "name": "_metadataRenderer",
          "type": "address"
        },
        {
          "internalType": "address",
          "name": "_contractRegistry",
          "type": "address"
        },
        {
          "internalType": "address",
          "name": "_SplitMain",
          "type": "address"
        },
        {
          "internalType": "address",
          "name": "_ZKEditionImplementation",
          "type": "address"
        }
      ],
      "stateMutability": "nonpayable",
      "type": "constructor"
    },
    {
      "anonymous": false,
      "inputs": [
        {
          "indexed": false,
          "internalType": "address",
          "name": "DCNT4907A",
          "type": "address"
        }
      ],
      "name": "DeployDCNT4907A",
      "type": "event"
    },
    {
      "anonymous": false,
      "inputs": [
        {
          "indexed": false,
          "internalType": "address",
          "name": "DCNT721A",
          "type": "address"
        }
      ],
      "name": "DeployDCNT721A",
      "type": "event"
    },
    {
      "anonymous": false,
      "inputs": [
        {
          "indexed": false,
          "internalType": "address",
          "name": "DCNTCrescendo",
          "type": "address"
        }
      ],
      "name": "DeployDCNTCrescendo",
      "type": "event"
    },
    {
      "anonymous": false,
      "inputs": [
        {
          "indexed": false,
          "internalType": "address",
          "name": "DCNTStaking",
          "type": "address"
        }
      ],
      "name": "DeployDCNTStaking",
      "type": "event"
    },
    {
      "anonymous": false,
      "inputs": [
        {
          "indexed": false,
          "internalType": "address",
          "name": "DCNTVault",
          "type": "address"
        }
      ],
      "name": "DeployDCNTVault",
      "type": "event"
    },
    {
      "anonymous": false,
      "inputs": [
        {
          "indexed": false,
          "internalType": "address",
          "name": "ZKEdition",
          "type": "address"
        }
      ],
      "name": "DeployZKEdition",
      "type": "event"
    },
    {
      "anonymous": false,
      "inputs": [
        {
          "indexed": true,
          "internalType": "address",
          "name": "previousOwner",
          "type": "address"
        },
        {
          "indexed": true,
          "internalType": "address",
          "name": "newOwner",
          "type": "address"
        }
      ],
      "name": "OwnershipTransferred",
      "type": "event"
    },
    {
      "inputs": [],
      "name": "DCNT4907AImplementation",
      "outputs": [
        {
          "internalType": "address",
          "name": "",
          "type": "address"
        }
      ],
      "stateMutability": "view",
      "type": "function"
    },
    {
      "inputs": [],
      "name": "DCNT721AImplementation",
      "outputs": [
        {
          "internalType": "address",
          "name": "",
          "type": "address"
        }
      ],
      "stateMutability": "view",
      "type": "function"
    },
    {
      "inputs": [],
      "name": "DCNTCrescendoImplementation",
      "outputs": [
        {
          "internalType": "address",
          "name": "",
          "type": "address"
        }
      ],
      "stateMutability": "view",
      "type": "function"
    },
    {
      "inputs": [],
      "name": "DCNTStakingImplementation",
      "outputs": [
        {
          "internalType": "address",
          "name": "",
          "type": "address"
        }
      ],
      "stateMutability": "view",
      "type": "function"
    },
    {
      "inputs": [],
      "name": "DCNTVaultImplementation",
      "outputs": [
        {
          "internalType": "address",
          "name": "",
          "type": "address"
        }
      ],
      "stateMutability": "view",
      "type": "function"
    },
    {
      "inputs": [],
      "name": "SplitMain",
      "outputs": [
        {
          "internalType": "address",
          "name": "",
          "type": "address"
        }
      ],
      "stateMutability": "view",
      "type": "function"
    },
    {
      "inputs": [],
      "name": "ZKEditionImplementation",
      "outputs": [
        {
          "internalType": "address",
          "name": "",
          "type": "address"
        }
      ],
      "stateMutability": "view",
      "type": "function"
    },
    {
      "inputs": [],
      "name": "contractRegistry",
      "outputs": [
        {
          "internalType": "address",
          "name": "",
          "type": "address"
        }
      ],
      "stateMutability": "view",
      "type": "function"
    },
    {
      "inputs": [
        {
          "components": [
            {
              "internalType": "string",
              "name": "name",
              "type": "string"
            },
            {
              "internalType": "string",
              "name": "symbol",
              "type": "string"
            },
            {
              "internalType": "bool",
              "name": "hasAdjustableCap",
              "type": "bool"
            },
            {
              "internalType": "uint256",
              "name": "maxTokens",
              "type": "uint256"
            },
            {
              "internalType": "uint256",
              "name": "tokenPrice",
              "type": "uint256"
            },
            {
              "internalType": "uint256",
              "name": "maxTokenPurchase",
              "type": "uint256"
            },
            {
              "internalType": "bytes32",
              "name": "presaleMerkleRoot",
              "type": "bytes32"
            },
            {
              "internalType": "uint256",
              "name": "presaleStart",
              "type": "uint256"
            },
            {
              "internalType": "uint256",
              "name": "presaleEnd",
              "type": "uint256"
            },
            {
              "internalType": "uint256",
              "name": "saleStart",
              "type": "uint256"
            },
            {
              "internalType": "uint256",
              "name": "saleEnd",
              "type": "uint256"
            },
            {
              "internalType": "uint256",
              "name": "royaltyBPS",
              "type": "uint256"
            }
          ],
          "internalType": "struct EditionConfig",
          "name": "_editionConfig",
          "type": "tuple"
        },
        {
          "components": [
            {
              "internalType": "string",
              "name": "contractURI",
              "type": "string"
            },
            {
              "internalType": "string",
              "name": "metadataURI",
              "type": "string"
            },
            {
              "internalType": "bytes",
              "name": "metadataRendererInit",
              "type": "bytes"
            },
            {
              "internalType": "address",
              "name": "parentIP",
              "type": "address"
            }
          ],
          "internalType": "struct MetadataConfig",
          "name": "_metadataConfig",
          "type": "tuple"
        },
        {
          "components": [
            {
              "internalType": "address",
              "name": "tokenAddress",
              "type": "address"
            },
            {
              "internalType": "uint88",
              "name": "minBalance",
              "type": "uint88"
            },
            {
              "internalType": "enum SaleType",
              "name": "saleType",
              "type": "uint8"
            }
          ],
          "internalType": "struct TokenGateConfig",
          "name": "_tokenGateConfig",
          "type": "tuple"
        }
      ],
      "name": "deployDCNT4907A",
      "outputs": [
        {
          "internalType": "address",
          "name": "clone",
          "type": "address"
        }
      ],
      "stateMutability": "nonpayable",
      "type": "function"
    },
    {
      "inputs": [
        {
          "components": [
            {
              "internalType": "string",
              "name": "name",
              "type": "string"
            },
            {
              "internalType": "string",
              "name": "symbol",
              "type": "string"
            },
            {
              "internalType": "bool",
              "name": "hasAdjustableCap",
              "type": "bool"
            },
            {
              "internalType": "uint256",
              "name": "maxTokens",
              "type": "uint256"
            },
            {
              "internalType": "uint256",
              "name": "tokenPrice",
              "type": "uint256"
            },
            {
              "internalType": "uint256",
              "name": "maxTokenPurchase",
              "type": "uint256"
            },
            {
              "internalType": "bytes32",
              "name": "presaleMerkleRoot",
              "type": "bytes32"
            },
            {
              "internalType": "uint256",
              "name": "presaleStart",
              "type": "uint256"
            },
            {
              "internalType": "uint256",
              "name": "presaleEnd",
              "type": "uint256"
            },
            {
              "internalType": "uint256",
              "name": "saleStart",
              "type": "uint256"
            },
            {
              "internalType": "uint256",
              "name": "saleEnd",
              "type": "uint256"
            },
            {
              "internalType": "uint256",
              "name": "royaltyBPS",
              "type": "uint256"
            }
          ],
          "internalType": "struct EditionConfig",
          "name": "_editionConfig",
          "type": "tuple"
        },
        {
          "components": [
            {
              "internalType": "string",
              "name": "contractURI",
              "type": "string"
            },
            {
              "internalType": "string",
              "name": "metadataURI",
              "type": "string"
            },
            {
              "internalType": "bytes",
              "name": "metadataRendererInit",
              "type": "bytes"
            },
            {
              "internalType": "address",
              "name": "parentIP",
              "type": "address"
            }
          ],
          "internalType": "struct MetadataConfig",
          "name": "_metadataConfig",
          "type": "tuple"
        },
        {
          "components": [
            {
              "internalType": "address",
              "name": "tokenAddress",
              "type": "address"
            },
            {
              "internalType": "uint88",
              "name": "minBalance",
              "type": "uint88"
            },
            {
              "internalType": "enum SaleType",
              "name": "saleType",
              "type": "uint8"
            }
          ],
          "internalType": "struct TokenGateConfig",
          "name": "_tokenGateConfig",
          "type": "tuple"
        }
      ],
      "name": "deployDCNT721A",
      "outputs": [
        {
          "internalType": "address",
          "name": "clone",
          "type": "address"
        }
      ],
      "stateMutability": "nonpayable",
      "type": "function"
    },
    {
      "inputs": [
        {
          "components": [
            {
              "internalType": "string",
              "name": "name",
              "type": "string"
            },
            {
              "internalType": "string",
              "name": "symbol",
              "type": "string"
            },
            {
              "internalType": "uint256",
              "name": "initialPrice",
              "type": "uint256"
            },
            {
              "internalType": "uint256",
              "name": "step1",
              "type": "uint256"
            },
            {
              "internalType": "uint256",
              "name": "step2",
              "type": "uint256"
            },
            {
              "internalType": "uint256",
              "name": "hitch",
              "type": "uint256"
            },
            {
              "internalType": "uint256",
              "name": "takeRateBPS",
              "type": "uint256"
            },
            {
              "internalType": "uint256",
              "name": "unlockDate",
              "type": "uint256"
            },
            {
              "internalType": "uint256",
              "name": "saleStart",
              "type": "uint256"
            },
            {
              "internalType": "uint256",
              "name": "royaltyBPS",
              "type": "uint256"
            }
          ],
          "internalType": "struct CrescendoConfig",
          "name": "_config",
          "type": "tuple"
        },
        {
          "components": [
            {
              "internalType": "string",
              "name": "contractURI",
              "type": "string"
            },
            {
              "internalType": "string",
              "name": "metadataURI",
              "type": "string"
            },
            {
              "internalType": "bytes",
              "name": "metadataRendererInit",
              "type": "bytes"
            },
            {
              "internalType": "address",
              "name": "parentIP",
              "type": "address"
            }
          ],
          "internalType": "struct MetadataConfig",
          "name": "_metadataConfig",
          "type": "tuple"
        }
      ],
      "name": "deployDCNTCrescendo",
      "outputs": [
        {
          "internalType": "address",
          "name": "clone",
          "type": "address"
        }
      ],
      "stateMutability": "nonpayable",
      "type": "function"
    },
    {
      "inputs": [
        {
          "internalType": "address",
          "name": "_nft",
          "type": "address"
        },
        {
          "internalType": "address",
          "name": "_token",
          "type": "address"
        },
        {
          "internalType": "uint256",
          "name": "_vaultDuration",
          "type": "uint256"
        },
        {
          "internalType": "uint256",
          "name": "_totalSupply",
          "type": "uint256"
        }
      ],
      "name": "deployDCNTStaking",
      "outputs": [
        {
          "internalType": "address",
          "name": "clone",
          "type": "address"
        }
      ],
      "stateMutability": "nonpayable",
      "type": "function"
    },
    {
      "inputs": [
        {
          "internalType": "address",
          "name": "_vaultDistributionTokenAddress",
          "type": "address"
        },
        {
          "internalType": "address",
          "name": "_nftVaultKeyAddress",
          "type": "address"
        },
        {
          "internalType": "uint256",
          "name": "_nftTotalSupply",
          "type": "uint256"
        },
        {
          "internalType": "uint256",
          "name": "_unlockDate",
          "type": "uint256"
        }
      ],
      "name": "deployDCNTVault",
      "outputs": [
        {
          "internalType": "address",
          "name": "clone",
          "type": "address"
        }
      ],
      "stateMutability": "nonpayable",
      "type": "function"
    },
    {
      "inputs": [
        {
          "components": [
            {
              "internalType": "string",
              "name": "name",
              "type": "string"
            },
            {
              "internalType": "string",
              "name": "symbol",
              "type": "string"
            },
            {
              "internalType": "bool",
              "name": "hasAdjustableCap",
              "type": "bool"
            },
            {
              "internalType": "uint256",
              "name": "maxTokens",
              "type": "uint256"
            },
            {
              "internalType": "uint256",
              "name": "tokenPrice",
              "type": "uint256"
            },
            {
              "internalType": "uint256",
              "name": "maxTokenPurchase",
              "type": "uint256"
            },
            {
              "internalType": "bytes32",
              "name": "presaleMerkleRoot",
              "type": "bytes32"
            },
            {
              "internalType": "uint256",
              "name": "presaleStart",
              "type": "uint256"
            },
            {
              "internalType": "uint256",
              "name": "presaleEnd",
              "type": "uint256"
            },
            {
              "internalType": "uint256",
              "name": "saleStart",
              "type": "uint256"
            },
            {
              "internalType": "uint256",
              "name": "saleEnd",
              "type": "uint256"
            },
            {
              "internalType": "uint256",
              "name": "royaltyBPS",
              "type": "uint256"
            }
          ],
          "internalType": "struct EditionConfig",
          "name": "_editionConfig",
          "type": "tuple"
        },
        {
          "components": [
            {
              "internalType": "string",
              "name": "contractURI",
              "type": "string"
            },
            {
              "internalType": "string",
              "name": "metadataURI",
              "type": "string"
            },
            {
              "internalType": "bytes",
              "name": "metadataRendererInit",
              "type": "bytes"
            },
            {
              "internalType": "address",
              "name": "parentIP",
              "type": "address"
            }
          ],
          "internalType": "struct MetadataConfig",
          "name": "_metadataConfig",
          "type": "tuple"
        },
        {
          "components": [
            {
              "internalType": "address",
              "name": "tokenAddress",
              "type": "address"
            },
            {
              "internalType": "uint88",
              "name": "minBalance",
              "type": "uint88"
            },
            {
              "internalType": "enum SaleType",
              "name": "saleType",
              "type": "uint8"
            }
          ],
          "internalType": "struct TokenGateConfig",
          "name": "_tokenGateConfig",
          "type": "tuple"
        },
        {
          "internalType": "address",
          "name": "zkVerifier",
          "type": "address"
        }
      ],
      "name": "deployZKEdition",
      "outputs": [
        {
          "internalType": "address",
          "name": "clone",
          "type": "address"
        }
      ],
      "stateMutability": "nonpayable",
      "type": "function"
    },
    {
      "inputs": [],
      "name": "metadataRenderer",
      "outputs": [
        {
          "internalType": "address",
          "name": "",
          "type": "address"
        }
      ],
      "stateMutability": "view",
      "type": "function"
    },
    {
      "inputs": [],
      "name": "owner",
      "outputs": [
        {
          "internalType": "address",
          "name": "",
          "type": "address"
        }
      ],
      "stateMutability": "view",
      "type": "function"
    },
    {
      "inputs": [],
      "name": "renounceOwnership",
      "outputs": [],
      "stateMutability": "nonpayable",
      "type": "function"
    },
    {
      "inputs": [
        {
          "internalType": "address",
          "name": "newOwner",
          "type": "address"
        }
      ],
      "name": "transferOwnership",
      "outputs": [],
      "stateMutability": "nonpayable",
      "type": "function"
    }
  ],
  "bytecode": "0x60806040523480156200001157600080fd5b50604051620019a9380380620019a983398101604081905262000034916200014d565b6200003f33620000e0565b600180546001600160a01b03199081166001600160a01b039b8c1617909155600280548216998b1699909917909855600380548916978a1697909717909655600480548816958916959095179094556005805487169388169390931790925560078054861691871691909117905560088054851691861691909117905560098054841691851691909117905560068054909216921691909117905562000208565b600080546001600160a01b038381166001600160a01b0319831681178455604051919092169283917f8be0079c531659141344cd1fd0a4f28419497f9722a3daafe3b4186f6b6457e09190a35050565b80516001600160a01b03811681146200014857600080fd5b919050565b60008060008060008060008060006101208a8c0312156200016d57600080fd5b620001788a62000130565b98506200018860208b0162000130565b97506200019860408b0162000130565b9650620001a860608b0162000130565b9550620001b860808b0162000130565b9450620001c860a08b0162000130565b9350620001d860c08b0162000130565b9250620001e860e08b0162000130565b9150620001f96101008b0162000130565b90509295985092959850929598565b61179180620002186000396000f3fe608060405234801561001057600080fd5b50600436106101165760003560e01c80639f61dfec116100a2578063ca825bb511610071578063ca825bb514610223578063d0ae315a14610236578063e295877c14610249578063eef702e91461025c578063f2fde38b1461026f57600080fd5b80639f61dfec146101d7578063abf410e5146101ea578063b4675ed6146101fd578063bc10a4fa1461021057600080fd5b806370319970116100e95780637031997014610183578063715018a61461019657806373d622f8146101a057806380fab9ee146101b35780638da5cb5b146101c657600080fd5b806310a089131461011b578063389058981461014a5780633c3b370b1461015d5780634285656b14610170575b600080fd5b60015461012e906001600160a01b031681565b6040516001600160a01b03909116815260200160405180910390f35b61012e610158366004610fe8565b610282565b60055461012e906001600160a01b031681565b60025461012e906001600160a01b031681565b60075461012e906001600160a01b031681565b61019e61041d565b005b61012e6101ae3660046110f5565b610431565b61012e6101c13660046112b2565b6105d5565b6000546001600160a01b031661012e565b60045461012e906001600160a01b031681565b60085461012e906001600160a01b031681565b61012e61020b3660046112b2565b610773565b61012e61021e3660046110f5565b610905565b60035461012e906001600160a01b031681565b60065461012e906001600160a01b031681565b61012e610257366004611327565b610a9e565b60095461012e906001600160a01b031681565b61019e61027d3660046113ad565b610c32565b60035460009061029a906001600160a01b0316610cb0565b6007546009546040519293506000926001600160a01b03808616936102cc9333938a938a93811692169060240161147f565b60408051601f198184030181529181526020820180516001600160e01b0316624ee2bb60e71b17905251610300919061156c565b6000604051808303816000865af19150503d806000811461033d576040519150601f19603f3d011682016040523d82523d6000602084013e610342565b606091505b505090508061035057600080fd5b60085460405163ede4973960e01b81523360048201526001600160a01b03848116602483015260606044830152600d60648301526c44434e544372657363656e646f60981b60848301529091169063ede497399060a401600060405180830381600087803b1580156103c157600080fd5b505af11580156103d5573d6000803e3d6000fd5b50506040516001600160a01b03851681527f2c14c8ffafc8bfdf42e6469d6c292eeaebf445beafb817fb0bc9df3ebd89f0069250602001905060405180910390a15092915050565b610425610d4a565b61042f6000610da4565b565b600454600090610449906001600160a01b0316610cb0565b6040513360248201526001600160a01b03878116604483015286811660648301526084820186905260a4820185905291925060009183169060c40160408051601f198184030181529181526020820180516001600160e01b03166314d6c7d760e31b179052516104b9919061156c565b6000604051808303816000865af19150503d80600081146104f6576040519150601f19603f3d011682016040523d82523d6000602084013e6104fb565b606091505b505090508061050957600080fd5b60085460405163ede4973960e01b81523360048201526001600160a01b0384811660248301526060604483015260096064830152681110d39515985d5b1d60ba1b60848301529091169063ede497399060a401600060405180830381600087803b15801561057657600080fd5b505af115801561058a573d6000803e3d6000fd5b50506040516001600160a01b03851681527ff12b488daa6140ffee78fe266c37addbbaea912b09ce36e613a17844dac4255b925060200190505b60405180910390a150949350505050565b6001546000906105ed906001600160a01b0316610cb0565b6007546009546040519293506000926001600160a01b03808616936106239333938b938b938b9390821692911690602401611687565b60408051601f198184030181529181526020820180516001600160e01b03166364f7af7760e11b17905251610658919061156c565b6000604051808303816000865af19150503d8060008114610695576040519150601f19603f3d011682016040523d82523d6000602084013e61069a565b606091505b50509050806106a857600080fd5b6008805460405163ede4973960e01b81523360048201526001600160a01b0385811660248301526060604483015260648201939093526744434e543732314160c01b608482015291169063ede497399060a401600060405180830381600087803b15801561071557600080fd5b505af1158015610729573d6000803e3d6000fd5b50506040516001600160a01b03851681527f149ce80ffd882db4157fb46dd05201336d87f52ace89212615557e5455b8a0df925060200190505b60405180910390a1509392505050565b60025460009061078b906001600160a01b0316610cb0565b6007546009546040519293506000926001600160a01b03808616936107c19333938b938b938b9390821692911690602401611687565b60408051601f198184030181529181526020820180516001600160e01b03166364f7af7760e11b179052516107f6919061156c565b6000604051808303816000865af19150503d8060008114610833576040519150601f19603f3d011682016040523d82523d6000602084013e610838565b606091505b505090508061084657600080fd5b60085460405163ede4973960e01b81523360048201526001600160a01b03848116602483015260606044830152600960648301526844434e54343930374160b81b60848301529091169063ede497399060a401600060405180830381600087803b1580156108b357600080fd5b505af11580156108c7573d6000803e3d6000fd5b50506040516001600160a01b03851681527f3758a9cde202b40b236c1867c2734461fd598d835ad020bda26ca4f85838f2c492506020019050610763565b60055460009061091d906001600160a01b0316610cb0565b6040513360248201526001600160a01b03878116604483015286811660648301526084820186905260a4820185905291925060009183169060c40160408051601f198184030181529181526020820180516001600160e01b03166314d6c7d760e31b1790525161098d919061156c565b6000604051808303816000865af19150503d80600081146109ca576040519150601f19603f3d011682016040523d82523d6000602084013e6109cf565b606091505b50509050806109dd57600080fd5b60085460405163ede4973960e01b81523360048201526001600160a01b03848116602483015260606044830152600b60648301526a44434e545374616b696e6760a81b60848301529091169063ede497399060a401600060405180830381600087803b158015610a4c57600080fd5b505af1158015610a60573d6000803e3d6000fd5b50506040516001600160a01b03851681527fe9eeb18af71a650338802cfcb86b39b211ed34fd8a37cacc5a16514a183e8d66925060200190506105c4565b600654600090610ab6906001600160a01b0316610cb0565b6007546009546040519293506000926001600160a01b0380861693610aee9333938c938c938c93908216929116908b906024016116ed565b60408051601f198184030181529181526020820180516001600160e01b0316637385777f60e11b17905251610b23919061156c565b6000604051808303816000865af19150503d8060008114610b60576040519150601f19603f3d011682016040523d82523d6000602084013e610b65565b606091505b5050905080610b7357600080fd5b60085460405163ede4973960e01b81523360048201526001600160a01b0384811660248301526060604483015260096064830152682d25a2b234ba34b7b760b91b60848301529091169063ede497399060a401600060405180830381600087803b158015610be057600080fd5b505af1158015610bf4573d6000803e3d6000fd5b50506040516001600160a01b03851681527f49451ac6869c0fa590f484823265bd786e5c483c78431c2fc0cc2f7f939678e4925060200190506105c4565b610c3a610d4a565b6001600160a01b038116610ca45760405162461bcd60e51b815260206004820152602660248201527f4f776e61626c653a206e6577206f776e657220697320746865207a65726f206160448201526564647265737360d01b60648201526084015b60405180910390fd5b610cad81610da4565b50565b6000763d602d80600a3d3981f3363d3d373d3d3d363d730000008260601b60e81c176000526e5af43d82803e903d91602b57fd5bf38260781b17602052603760096000f090506001600160a01b038116610d455760405162461bcd60e51b8152602060048201526016602482015275115490cc4c4d8dce8818dc99585d194819985a5b195960521b6044820152606401610c9b565b919050565b6000546001600160a01b0316331461042f5760405162461bcd60e51b815260206004820181905260248201527f4f776e61626c653a2063616c6c6572206973206e6f7420746865206f776e65726044820152606401610c9b565b600080546001600160a01b038381166001600160a01b0319831681178455604051919092169283917f8be0079c531659141344cd1fd0a4f28419497f9722a3daafe3b4186f6b6457e09190a35050565b634e487b7160e01b600052604160045260246000fd5b6040516080810167ffffffffffffffff81118282101715610e2d57610e2d610df4565b60405290565b604051610140810167ffffffffffffffff81118282101715610e2d57610e2d610df4565b604051610180810167ffffffffffffffff81118282101715610e2d57610e2d610df4565b600067ffffffffffffffff80841115610e9657610e96610df4565b604051601f8501601f19908116603f01168101908282118183101715610ebe57610ebe610df4565b81604052809350858152868686011115610ed757600080fd5b858560208301376000602087830101525050509392505050565b600082601f830112610f0257600080fd5b610f1183833560208501610e7b565b9392505050565b80356001600160a01b0381168114610d4557600080fd5b600060808284031215610f4157600080fd5b610f49610e0a565b9050813567ffffffffffffffff80821115610f6357600080fd5b610f6f85838601610ef1565b83526020840135915080821115610f8557600080fd5b610f9185838601610ef1565b60208401526040840135915080821115610faa57600080fd5b508201601f81018413610fbc57600080fd5b610fcb84823560208401610e7b565b604083015250610fdd60608301610f18565b606082015292915050565b60008060408385031215610ffb57600080fd5b823567ffffffffffffffff8082111561101357600080fd5b90840190610140828703121561102857600080fd5b611030610e33565b82358281111561103f57600080fd5b61104b88828601610ef1565b82525060208301358281111561106057600080fd5b61106c88828601610ef1565b60208301525060408301356040820152606083013560608201526080830135608082015260a083013560a082015260c083013560c082015260e083013560e08201526101008084013581830152506101208084013581830152508094505060208501359150808211156110de57600080fd5b506110eb85828601610f2f565b9150509250929050565b6000806000806080858703121561110b57600080fd5b61111485610f18565b935061112260208601610f18565b93969395505050506040820135916060013590565b80358015158114610d4557600080fd5b6000610180828403121561115a57600080fd5b611162610e57565b9050813567ffffffffffffffff8082111561117c57600080fd5b61118885838601610ef1565b8352602084013591508082111561119e57600080fd5b506111ab84828501610ef1565b6020830152506111bd60408301611137565b6040820152606082013560608201526080820135608082015260a082013560a082015260c082013560c082015260e082013560e082015261010080830135818301525061012080830135818301525061014080830135818301525061016080830135818301525092915050565b60006060828403121561123c57600080fd5b6040516060810181811067ffffffffffffffff8211171561125f5761125f610df4565b60405290508061126e83610f18565b815260208301356affffffffffffffffffffff8116811461128e57600080fd5b60208201526040830135600381106112a557600080fd5b6040919091015292915050565b600080600060a084860312156112c757600080fd5b833567ffffffffffffffff808211156112df57600080fd5b6112eb87838801611147565b9450602086013591508082111561130157600080fd5b5061130e86828701610f2f565b92505061131e856040860161122a565b90509250925092565b60008060008060c0858703121561133d57600080fd5b843567ffffffffffffffff8082111561135557600080fd5b61136188838901611147565b9550602087013591508082111561137757600080fd5b5061138487828801610f2f565b935050611394866040870161122a565b91506113a260a08601610f18565b905092959194509250565b6000602082840312156113bf57600080fd5b610f1182610f18565b60005b838110156113e35781810151838201526020016113cb565b50506000910152565b600081518084526114048160208601602086016113c8565b601f01601f19169290920160200192915050565b600081516080845261142d60808501826113ec565b90506020830151848203602086015261144682826113ec565b9150506040830151848203604086015261146082826113ec565b6060948501516001600160a01b03169590940194909452509092915050565b60018060a01b038616815260a06020820152600085516101408060a08501526114ac6101e08501836113ec565b91506020880151609f198584030160c08601526114c983826113ec565b925050604088015160e08501526060880151610100818187015260808a01519150610120828188015260a08b01518488015260c08b015161016088015260e08b0151610180880152818b01516101a0880152808b01516101c088015250505050828103604084015261153b8187611418565b91505061155360608301856001600160a01b03169052565b6001600160a01b03831660808301529695505050505050565b6000825161157e8184602087016113c8565b9190910192915050565b6000610180825181855261159e828601826113ec565b915050602083015184820360208601526115b882826113ec565b91505060408301516115ce604086018215159052565b50606083810151908501526080808401519085015260a0808401519085015260c0808401519085015260e080840151908501526101008084015190850152610120808401519085015261014080840151908501526101609283015192909301919091525090565b80516001600160a01b031682526020808201516affffffffffffffffffffff169083015260408101516003811061167c57634e487b7160e01b600052602160045260246000fd5b806040840152505050565b6001600160a01b038781168252610100602083018190526000916116ad8483018a611588565b915083820360408501526116c18289611418565b92506116d06060850188611635565b80861660c085015280851660e08501525050979650505050505050565b6001600160a01b038881168252610120602083018190526000916117138483018b611588565b91508382036040850152611727828a611418565b92506117366060850189611635565b95861660c08401525092841660e082015292166101009092019190915294935050505056fea2646970667358221220b1a762e510db2551afcc2f6cf716511c8279bb06300ebcfe5a154c239dbf206264736f6c63430008110033",
  "linkReferences": {},
  "deployedLinkReferences": {}
}