{
  "_format": "hh-sol-artifact-1",
  "contractName": "DCNTSDK",
  "sourceName": "contracts/DCNTSDK.sol",
  "abi": [
    {
      "inputs": [
        {
          "internalType": "address",
          "name": "_DCNT721AImplementation",
          "type": "address"
        },
        {
          "internalType": "address",
          "name": "_DCNT4907AImplementation",
          "type": "address"
        },
        {
          "internalType": "address",
          "name": "_DCNTCrescendoImplementation",
          "type": "address"
        },
        {
          "internalType": "address",
          "name": "_DCNTVaultImplementation",
          "type": "address"
        },
        {
          "internalType": "address",
          "name": "_DCNTStakingImplementation",
          "type": "address"
        },
        {
          "internalType": "address",
          "name": "_metadataRenderer",
          "type": "address"
        },
        {
          "internalType": "address",
          "name": "_contractRegistry",
          "type": "address"
        },
        {
          "internalType": "address",
          "name": "_SplitMain",
          "type": "address"
        }
      ],
      "stateMutability": "nonpayable",
      "type": "constructor"
    },
    {
      "anonymous": false,
      "inputs": [
        {
          "indexed": false,
          "internalType": "address",
          "name": "DCNT4907A",
          "type": "address"
        }
      ],
      "name": "DeployDCNT4907A",
      "type": "event"
    },
    {
      "anonymous": false,
      "inputs": [
        {
          "indexed": false,
          "internalType": "address",
          "name": "DCNT721A",
          "type": "address"
        }
      ],
      "name": "DeployDCNT721A",
      "type": "event"
    },
    {
      "anonymous": false,
      "inputs": [
        {
          "indexed": false,
          "internalType": "address",
          "name": "DCNTCrescendo",
          "type": "address"
        }
      ],
      "name": "DeployDCNTCrescendo",
      "type": "event"
    },
    {
      "anonymous": false,
      "inputs": [
        {
          "indexed": false,
          "internalType": "address",
          "name": "DCNTStaking",
          "type": "address"
        }
      ],
      "name": "DeployDCNTStaking",
      "type": "event"
    },
    {
      "anonymous": false,
      "inputs": [
        {
          "indexed": false,
          "internalType": "address",
          "name": "DCNTVault",
          "type": "address"
        }
      ],
      "name": "DeployDCNTVault",
      "type": "event"
    },
    {
      "anonymous": false,
      "inputs": [
        {
          "indexed": true,
          "internalType": "address",
          "name": "previousOwner",
          "type": "address"
        },
        {
          "indexed": true,
          "internalType": "address",
          "name": "newOwner",
          "type": "address"
        }
      ],
      "name": "OwnershipTransferred",
      "type": "event"
    },
    {
      "inputs": [],
      "name": "DCNT4907AImplementation",
      "outputs": [
        {
          "internalType": "address",
          "name": "",
          "type": "address"
        }
      ],
      "stateMutability": "view",
      "type": "function"
    },
    {
      "inputs": [],
      "name": "DCNT721AImplementation",
      "outputs": [
        {
          "internalType": "address",
          "name": "",
          "type": "address"
        }
      ],
      "stateMutability": "view",
      "type": "function"
    },
    {
      "inputs": [],
      "name": "DCNTCrescendoImplementation",
      "outputs": [
        {
          "internalType": "address",
          "name": "",
          "type": "address"
        }
      ],
      "stateMutability": "view",
      "type": "function"
    },
    {
      "inputs": [],
      "name": "DCNTStakingImplementation",
      "outputs": [
        {
          "internalType": "address",
          "name": "",
          "type": "address"
        }
      ],
      "stateMutability": "view",
      "type": "function"
    },
    {
      "inputs": [],
      "name": "DCNTVaultImplementation",
      "outputs": [
        {
          "internalType": "address",
          "name": "",
          "type": "address"
        }
      ],
      "stateMutability": "view",
      "type": "function"
    },
    {
      "inputs": [],
      "name": "SplitMain",
      "outputs": [
        {
          "internalType": "address",
          "name": "",
          "type": "address"
        }
      ],
      "stateMutability": "view",
      "type": "function"
    },
    {
      "inputs": [],
      "name": "contractRegistry",
      "outputs": [
        {
          "internalType": "address",
          "name": "",
          "type": "address"
        }
      ],
      "stateMutability": "view",
      "type": "function"
    },
    {
      "inputs": [
        {
          "components": [
            {
              "internalType": "string",
              "name": "name",
              "type": "string"
            },
            {
              "internalType": "string",
              "name": "symbol",
              "type": "string"
            },
            {
              "internalType": "uint256",
              "name": "maxTokens",
              "type": "uint256"
            },
            {
              "internalType": "uint256",
              "name": "tokenPrice",
              "type": "uint256"
            },
            {
              "internalType": "uint256",
              "name": "maxTokenPurchase",
              "type": "uint256"
            },
            {
              "internalType": "uint256",
              "name": "royaltyBPS",
              "type": "uint256"
            }
          ],
          "internalType": "struct EditionConfig",
          "name": "_editionConfig",
          "type": "tuple"
        },
        {
          "components": [
            {
              "internalType": "string",
              "name": "metadataURI",
              "type": "string"
            },
            {
              "internalType": "bytes",
              "name": "metadataRendererInit",
              "type": "bytes"
            }
          ],
          "internalType": "struct MetadataConfig",
          "name": "_metadataConfig",
          "type": "tuple"
        }
      ],
      "name": "deployDCNT4907A",
      "outputs": [
        {
          "internalType": "address",
          "name": "clone",
          "type": "address"
        }
      ],
      "stateMutability": "nonpayable",
      "type": "function"
    },
    {
      "inputs": [
        {
          "components": [
            {
              "internalType": "string",
              "name": "name",
              "type": "string"
            },
            {
              "internalType": "string",
              "name": "symbol",
              "type": "string"
            },
            {
              "internalType": "uint256",
              "name": "maxTokens",
              "type": "uint256"
            },
            {
              "internalType": "uint256",
              "name": "tokenPrice",
              "type": "uint256"
            },
            {
              "internalType": "uint256",
              "name": "maxTokenPurchase",
              "type": "uint256"
            },
            {
              "internalType": "uint256",
              "name": "royaltyBPS",
              "type": "uint256"
            }
          ],
          "internalType": "struct EditionConfig",
          "name": "_editionConfig",
          "type": "tuple"
        },
        {
          "components": [
            {
              "internalType": "string",
              "name": "metadataURI",
              "type": "string"
            },
            {
              "internalType": "bytes",
              "name": "metadataRendererInit",
              "type": "bytes"
            }
          ],
          "internalType": "struct MetadataConfig",
          "name": "_metadataConfig",
          "type": "tuple"
        }
      ],
      "name": "deployDCNT721A",
      "outputs": [
        {
          "internalType": "address",
          "name": "clone",
          "type": "address"
        }
      ],
      "stateMutability": "nonpayable",
      "type": "function"
    },
    {
      "inputs": [
        {
          "components": [
            {
              "internalType": "string",
              "name": "name",
              "type": "string"
            },
            {
              "internalType": "string",
              "name": "symbol",
              "type": "string"
            },
            {
              "internalType": "uint256",
              "name": "initialPrice",
              "type": "uint256"
            },
            {
              "internalType": "uint256",
              "name": "step1",
              "type": "uint256"
            },
            {
              "internalType": "uint256",
              "name": "step2",
              "type": "uint256"
            },
            {
              "internalType": "uint256",
              "name": "hitch",
              "type": "uint256"
            },
            {
              "internalType": "uint256",
              "name": "takeRateBPS",
              "type": "uint256"
            },
            {
              "internalType": "uint256",
              "name": "unlockDate",
              "type": "uint256"
            },
            {
              "internalType": "uint256",
              "name": "royaltyBPS",
              "type": "uint256"
            }
          ],
          "internalType": "struct CrescendoConfig",
          "name": "_config",
          "type": "tuple"
        },
        {
          "components": [
            {
              "internalType": "string",
              "name": "metadataURI",
              "type": "string"
            },
            {
              "internalType": "bytes",
              "name": "metadataRendererInit",
              "type": "bytes"
            }
          ],
          "internalType": "struct MetadataConfig",
          "name": "_metadataConfig",
          "type": "tuple"
        }
      ],
      "name": "deployDCNTCrescendo",
      "outputs": [
        {
          "internalType": "address",
          "name": "clone",
          "type": "address"
        }
      ],
      "stateMutability": "nonpayable",
      "type": "function"
    },
    {
      "inputs": [
        {
          "internalType": "address",
          "name": "_nft",
          "type": "address"
        },
        {
          "internalType": "address",
          "name": "_token",
          "type": "address"
        },
        {
          "internalType": "uint256",
          "name": "_vaultDuration",
          "type": "uint256"
        },
        {
          "internalType": "uint256",
          "name": "_totalSupply",
          "type": "uint256"
        }
      ],
      "name": "deployDCNTStaking",
      "outputs": [
        {
          "internalType": "address",
          "name": "clone",
          "type": "address"
        }
      ],
      "stateMutability": "nonpayable",
      "type": "function"
    },
    {
      "inputs": [
        {
          "internalType": "address",
          "name": "_vaultDistributionTokenAddress",
          "type": "address"
        },
        {
          "internalType": "address",
          "name": "_nftVaultKeyAddress",
          "type": "address"
        },
        {
          "internalType": "uint256",
          "name": "_nftTotalSupply",
          "type": "uint256"
        },
        {
          "internalType": "uint256",
          "name": "_unlockDate",
          "type": "uint256"
        }
      ],
      "name": "deployDCNTVault",
      "outputs": [
        {
          "internalType": "address",
          "name": "clone",
          "type": "address"
        }
      ],
      "stateMutability": "nonpayable",
      "type": "function"
    },
    {
      "inputs": [],
      "name": "metadataRenderer",
      "outputs": [
        {
          "internalType": "address",
          "name": "",
          "type": "address"
        }
      ],
      "stateMutability": "view",
      "type": "function"
    },
    {
      "inputs": [],
      "name": "owner",
      "outputs": [
        {
          "internalType": "address",
          "name": "",
          "type": "address"
        }
      ],
      "stateMutability": "view",
      "type": "function"
    },
    {
      "inputs": [],
      "name": "renounceOwnership",
      "outputs": [],
      "stateMutability": "nonpayable",
      "type": "function"
    },
    {
      "inputs": [
        {
          "internalType": "address",
          "name": "newOwner",
          "type": "address"
        }
      ],
      "name": "transferOwnership",
      "outputs": [],
      "stateMutability": "nonpayable",
      "type": "function"
    }
  ],
  "bytecode": "0x60806040523480156200001157600080fd5b50604051620025c8380380620025c88339818101604052810190620000379190620003a3565b620000576200004b6200026d60201b60201c565b6200027560201b60201c565b87600160006101000a81548173ffffffffffffffffffffffffffffffffffffffff021916908373ffffffffffffffffffffffffffffffffffffffff16021790555086600260006101000a81548173ffffffffffffffffffffffffffffffffffffffff021916908373ffffffffffffffffffffffffffffffffffffffff16021790555085600360006101000a81548173ffffffffffffffffffffffffffffffffffffffff021916908373ffffffffffffffffffffffffffffffffffffffff16021790555084600460006101000a81548173ffffffffffffffffffffffffffffffffffffffff021916908373ffffffffffffffffffffffffffffffffffffffff16021790555083600560006101000a81548173ffffffffffffffffffffffffffffffffffffffff021916908373ffffffffffffffffffffffffffffffffffffffff16021790555082600660006101000a81548173ffffffffffffffffffffffffffffffffffffffff021916908373ffffffffffffffffffffffffffffffffffffffff16021790555081600760006101000a81548173ffffffffffffffffffffffffffffffffffffffff021916908373ffffffffffffffffffffffffffffffffffffffff16021790555080600860006101000a81548173ffffffffffffffffffffffffffffffffffffffff021916908373ffffffffffffffffffffffffffffffffffffffff16021790555050505050505050506200046c565b600033905090565b60008060009054906101000a900473ffffffffffffffffffffffffffffffffffffffff169050816000806101000a81548173ffffffffffffffffffffffffffffffffffffffff021916908373ffffffffffffffffffffffffffffffffffffffff1602179055508173ffffffffffffffffffffffffffffffffffffffff168173ffffffffffffffffffffffffffffffffffffffff167f8be0079c531659141344cd1fd0a4f28419497f9722a3daafe3b4186f6b6457e060405160405180910390a35050565b600080fd5b600073ffffffffffffffffffffffffffffffffffffffff82169050919050565b60006200036b826200033e565b9050919050565b6200037d816200035e565b81146200038957600080fd5b50565b6000815190506200039d8162000372565b92915050565b600080600080600080600080610100898b031215620003c757620003c662000339565b5b6000620003d78b828c016200038c565b9850506020620003ea8b828c016200038c565b9750506040620003fd8b828c016200038c565b9650506060620004108b828c016200038c565b9550506080620004238b828c016200038c565b94505060a0620004368b828c016200038c565b93505060c0620004498b828c016200038c565b92505060e06200045c8b828c016200038c565b9150509295985092959890939650565b61214c806200047c6000396000f3fe608060405234801561001057600080fd5b50600436106101005760003560e01c806373d622f811610097578063bc10a4fa11610066578063bc10a4fa146102a1578063ca825bb5146102d1578063eef702e9146102ef578063f2fde38b1461030d57610100565b806373d622f8146102175780638da5cb5b146102475780639f61dfec14610265578063abf410e51461028357610100565b80633c3b370b116100d35780633c3b370b146101b35780634285656b146101d157806370319970146101ef578063715018a61461020d57610100565b806310a089131461010557806319bf8c651461012357806331eb0ece1461015357806334a4cb6114610183575b600080fd5b61010d610329565b60405161011a9190611272565b60405180910390f35b61013d60048036038101906101389190611628565b61034f565b60405161014a9190611272565b60405180910390f35b61016d60048036038101906101689190611628565b61059b565b60405161017a9190611272565b60405180910390f35b61019d600480360381019061019891906117b8565b6107e7565b6040516101aa9190611272565b60405180910390f35b6101bb610a33565b6040516101c89190611272565b60405180910390f35b6101d9610a59565b6040516101e69190611272565b60405180910390f35b6101f7610a7f565b6040516102049190611272565b60405180910390f35b610215610aa5565b005b610231600480360381019061022c919061185c565b610ab9565b60405161023e9190611272565b60405180910390f35b61024f610cc3565b60405161025c9190611272565b60405180910390f35b61026d610cec565b60405161027a9190611272565b60405180910390f35b61028b610d12565b6040516102989190611272565b60405180910390f35b6102bb60048036038101906102b6919061185c565b610d38565b6040516102c89190611272565b60405180910390f35b6102d9610f42565b6040516102e69190611272565b60405180910390f35b6102f7610f68565b6040516103049190611272565b60405180910390f35b610327600480360381019061032291906118c3565b610f8e565b005b600160009054906101000a900473ffffffffffffffffffffffffffffffffffffffff1681565b600061037c600160009054906101000a900473ffffffffffffffffffffffffffffffffffffffff16611012565b905060008173ffffffffffffffffffffffffffffffffffffffff16338585600660009054906101000a900473ffffffffffffffffffffffffffffffffffffffff16600860009054906101000a900473ffffffffffffffffffffffffffffffffffffffff166040516024016103f4959493929190611ab0565b6040516020818303038152906040527f9b90c9c3000000000000000000000000000000000000000000000000000000007bffffffffffffffffffffffffffffffffffffffffffffffffffffffff19166020820180517bffffffffffffffffffffffffffffffffffffffffffffffffffffffff838183161783525050505060405161047e9190611b4d565b6000604051808303816000865af19150503d80600081146104bb576040519150601f19603f3d011682016040523d82523d6000602084013e6104c0565b606091505b50509050806104ce57600080fd5b600760009054906101000a900473ffffffffffffffffffffffffffffffffffffffff1673ffffffffffffffffffffffffffffffffffffffff1663ede4973933846040518363ffffffff1660e01b815260040161052b929190611bc1565b600060405180830381600087803b15801561054557600080fd5b505af1158015610559573d6000803e3d6000fd5b505050507f149ce80ffd882db4157fb46dd05201336d87f52ace89212615557e5455b8a0df8260405161058c9190611272565b60405180910390a15092915050565b60006105c8600260009054906101000a900473ffffffffffffffffffffffffffffffffffffffff16611012565b905060008173ffffffffffffffffffffffffffffffffffffffff16338585600660009054906101000a900473ffffffffffffffffffffffffffffffffffffffff16600860009054906101000a900473ffffffffffffffffffffffffffffffffffffffff16604051602401610640959493929190611ab0565b6040516020818303038152906040527f9b90c9c3000000000000000000000000000000000000000000000000000000007bffffffffffffffffffffffffffffffffffffffffffffffffffffffff19166020820180517bffffffffffffffffffffffffffffffffffffffffffffffffffffffff83818316178352505050506040516106ca9190611b4d565b6000604051808303816000865af19150503d8060008114610707576040519150601f19603f3d011682016040523d82523d6000602084013e61070c565b606091505b505090508061071a57600080fd5b600760009054906101000a900473ffffffffffffffffffffffffffffffffffffffff1673ffffffffffffffffffffffffffffffffffffffff1663ede4973933846040518363ffffffff1660e01b8152600401610777929190611c49565b600060405180830381600087803b15801561079157600080fd5b505af11580156107a5573d6000803e3d6000fd5b505050507f3758a9cde202b40b236c1867c2734461fd598d835ad020bda26ca4f85838f2c4826040516107d89190611272565b60405180910390a15092915050565b6000610814600360009054906101000a900473ffffffffffffffffffffffffffffffffffffffff16611012565b905060008173ffffffffffffffffffffffffffffffffffffffff16338585600660009054906101000a900473ffffffffffffffffffffffffffffffffffffffff16600860009054906101000a900473ffffffffffffffffffffffffffffffffffffffff1660405160240161088c959493929190611d51565b6040516020818303038152906040527f2586ed89000000000000000000000000000000000000000000000000000000007bffffffffffffffffffffffffffffffffffffffffffffffffffffffff19166020820180517bffffffffffffffffffffffffffffffffffffffffffffffffffffffff83818316178352505050506040516109169190611b4d565b6000604051808303816000865af19150503d8060008114610953576040519150601f19603f3d011682016040523d82523d6000602084013e610958565b606091505b505090508061096657600080fd5b600760009054906101000a900473ffffffffffffffffffffffffffffffffffffffff1673ffffffffffffffffffffffffffffffffffffffff1663ede4973933846040518363ffffffff1660e01b81526004016109c3929190611dfe565b600060405180830381600087803b1580156109dd57600080fd5b505af11580156109f1573d6000803e3d6000fd5b505050507f2c14c8ffafc8bfdf42e6469d6c292eeaebf445beafb817fb0bc9df3ebd89f00682604051610a249190611272565b60405180910390a15092915050565b600560009054906101000a900473ffffffffffffffffffffffffffffffffffffffff1681565b600260009054906101000a900473ffffffffffffffffffffffffffffffffffffffff1681565b600660009054906101000a900473ffffffffffffffffffffffffffffffffffffffff1681565b610aad6110e7565b610ab76000611165565b565b6000610ae6600460009054906101000a900473ffffffffffffffffffffffffffffffffffffffff16611012565b905060008173ffffffffffffffffffffffffffffffffffffffff163387878787604051602401610b1a959493929190611e49565b6040516020818303038152906040527fa6b63eb8000000000000000000000000000000000000000000000000000000007bffffffffffffffffffffffffffffffffffffffffffffffffffffffff19166020820180517bffffffffffffffffffffffffffffffffffffffffffffffffffffffff8381831617835250505050604051610ba49190611b4d565b6000604051808303816000865af19150503d8060008114610be1576040519150601f19603f3d011682016040523d82523d6000602084013e610be6565b606091505b5050905080610bf457600080fd5b600760009054906101000a900473ffffffffffffffffffffffffffffffffffffffff1673ffffffffffffffffffffffffffffffffffffffff1663ede4973933846040518363ffffffff1660e01b8152600401610c51929190611ee8565b600060405180830381600087803b158015610c6b57600080fd5b505af1158015610c7f573d6000803e3d6000fd5b505050507ff12b488daa6140ffee78fe266c37addbbaea912b09ce36e613a17844dac4255b82604051610cb29190611272565b60405180910390a150949350505050565b60008060009054906101000a900473ffffffffffffffffffffffffffffffffffffffff16905090565b600460009054906101000a900473ffffffffffffffffffffffffffffffffffffffff1681565b600760009054906101000a900473ffffffffffffffffffffffffffffffffffffffff1681565b6000610d65600560009054906101000a900473ffffffffffffffffffffffffffffffffffffffff16611012565b905060008173ffffffffffffffffffffffffffffffffffffffff163387878787604051602401610d99959493929190611e49565b6040516020818303038152906040527fa6b63eb8000000000000000000000000000000000000000000000000000000007bffffffffffffffffffffffffffffffffffffffffffffffffffffffff19166020820180517bffffffffffffffffffffffffffffffffffffffffffffffffffffffff8381831617835250505050604051610e239190611b4d565b6000604051808303816000865af19150503d8060008114610e60576040519150601f19603f3d011682016040523d82523d6000602084013e610e65565b606091505b5050905080610e7357600080fd5b600760009054906101000a900473ffffffffffffffffffffffffffffffffffffffff1673ffffffffffffffffffffffffffffffffffffffff1663ede4973933846040518363ffffffff1660e01b8152600401610ed0929190611f70565b600060405180830381600087803b158015610eea57600080fd5b505af1158015610efe573d6000803e3d6000fd5b505050507fe9eeb18af71a650338802cfcb86b39b211ed34fd8a37cacc5a16514a183e8d6682604051610f319190611272565b60405180910390a150949350505050565b600360009054906101000a900473ffffffffffffffffffffffffffffffffffffffff1681565b600860009054906101000a900473ffffffffffffffffffffffffffffffffffffffff1681565b610f966110e7565b600073ffffffffffffffffffffffffffffffffffffffff168173ffffffffffffffffffffffffffffffffffffffff161415611006576040517f08c379a0000000000000000000000000000000000000000000000000000000008152600401610ffd9061201e565b60405180910390fd5b61100f81611165565b50565b60006040517f3d602d80600a3d3981f3363d3d373d3d3d363d7300000000000000000000000081528260601b60148201527f5af43d82803e903d91602b57fd5bf3000000000000000000000000000000000060288201526037816000f0915050600073ffffffffffffffffffffffffffffffffffffffff168173ffffffffffffffffffffffffffffffffffffffff1614156110e2576040517f08c379a00000000000000000000000000000000000000000000000000000000081526004016110d99061208a565b60405180910390fd5b919050565b6110ef611229565b73ffffffffffffffffffffffffffffffffffffffff1661110d610cc3565b73ffffffffffffffffffffffffffffffffffffffff1614611163576040517f08c379a000000000000000000000000000000000000000000000000000000000815260040161115a906120f6565b60405180910390fd5b565b60008060009054906101000a900473ffffffffffffffffffffffffffffffffffffffff169050816000806101000a81548173ffffffffffffffffffffffffffffffffffffffff021916908373ffffffffffffffffffffffffffffffffffffffff1602179055508173ffffffffffffffffffffffffffffffffffffffff168173ffffffffffffffffffffffffffffffffffffffff167f8be0079c531659141344cd1fd0a4f28419497f9722a3daafe3b4186f6b6457e060405160405180910390a35050565b600033905090565b600073ffffffffffffffffffffffffffffffffffffffff82169050919050565b600061125c82611231565b9050919050565b61126c81611251565b82525050565b60006020820190506112876000830184611263565b92915050565b6000604051905090565b600080fd5b600080fd5b600080fd5b6000601f19601f8301169050919050565b7f4e487b7100000000000000000000000000000000000000000000000000000000600052604160045260246000fd5b6112ef826112a6565b810181811067ffffffffffffffff8211171561130e5761130d6112b7565b5b80604052505050565b600061132161128d565b905061132d82826112e6565b919050565b600080fd5b600080fd5b600080fd5b600067ffffffffffffffff82111561135c5761135b6112b7565b5b611365826112a6565b9050602081019050919050565b82818337600083830152505050565b600061139461138f84611341565b611317565b9050828152602081018484840111156113b0576113af61133c565b5b6113bb848285611372565b509392505050565b600082601f8301126113d8576113d7611337565b5b81356113e8848260208601611381565b91505092915050565b6000819050919050565b611404816113f1565b811461140f57600080fd5b50565b600081359050611421816113fb565b92915050565b600060c0828403121561143d5761143c6112a1565b5b61144760c0611317565b9050600082013567ffffffffffffffff81111561146757611466611332565b5b611473848285016113c3565b600083015250602082013567ffffffffffffffff81111561149757611496611332565b5b6114a3848285016113c3565b60208301525060406114b784828501611412565b60408301525060606114cb84828501611412565b60608301525060806114df84828501611412565b60808301525060a06114f384828501611412565b60a08301525092915050565b600067ffffffffffffffff82111561151a576115196112b7565b5b611523826112a6565b9050602081019050919050565b600061154361153e846114ff565b611317565b90508281526020810184848401111561155f5761155e61133c565b5b61156a848285611372565b509392505050565b600082601f83011261158757611586611337565b5b8135611597848260208601611530565b91505092915050565b6000604082840312156115b6576115b56112a1565b5b6115c06040611317565b9050600082013567ffffffffffffffff8111156115e0576115df611332565b5b6115ec848285016113c3565b600083015250602082013567ffffffffffffffff8111156116105761160f611332565b5b61161c84828501611572565b60208301525092915050565b6000806040838503121561163f5761163e611297565b5b600083013567ffffffffffffffff81111561165d5761165c61129c565b5b61166985828601611427565b925050602083013567ffffffffffffffff81111561168a5761168961129c565b5b611696858286016115a0565b9150509250929050565b600061012082840312156116b7576116b66112a1565b5b6116c2610120611317565b9050600082013567ffffffffffffffff8111156116e2576116e1611332565b5b6116ee848285016113c3565b600083015250602082013567ffffffffffffffff81111561171257611711611332565b5b61171e848285016113c3565b602083015250604061173284828501611412565b604083015250606061174684828501611412565b606083015250608061175a84828501611412565b60808301525060a061176e84828501611412565b60a08301525060c061178284828501611412565b60c08301525060e061179684828501611412565b60e0830152506101006117ab84828501611412565b6101008301525092915050565b600080604083850312156117cf576117ce611297565b5b600083013567ffffffffffffffff8111156117ed576117ec61129c565b5b6117f9858286016116a0565b925050602083013567ffffffffffffffff81111561181a5761181961129c565b5b611826858286016115a0565b9150509250929050565b61183981611251565b811461184457600080fd5b50565b60008135905061185681611830565b92915050565b6000806000806080858703121561187657611875611297565b5b600061188487828801611847565b945050602061189587828801611847565b93505060406118a687828801611412565b92505060606118b787828801611412565b91505092959194509250565b6000602082840312156118d9576118d8611297565b5b60006118e784828501611847565b91505092915050565b600081519050919050565b600082825260208201905092915050565b60005b8381101561192a57808201518184015260208101905061190f565b83811115611939576000848401525b50505050565b600061194a826118f0565b61195481856118fb565b935061196481856020860161190c565b61196d816112a6565b840191505092915050565b611981816113f1565b82525050565b600060c08301600083015184820360008601526119a4828261193f565b915050602083015184820360208601526119be828261193f565b91505060408301516119d36040860182611978565b5060608301516119e66060860182611978565b5060808301516119f96080860182611978565b5060a0830151611a0c60a0860182611978565b508091505092915050565b600081519050919050565b600082825260208201905092915050565b6000611a3e82611a17565b611a488185611a22565b9350611a5881856020860161190c565b611a61816112a6565b840191505092915050565b60006040830160008301518482036000860152611a89828261193f565b91505060208301518482036020860152611aa38282611a33565b9150508091505092915050565b600060a082019050611ac56000830188611263565b8181036020830152611ad78187611987565b90508181036040830152611aeb8186611a6c565b9050611afa6060830185611263565b611b076080830184611263565b9695505050505050565b600081905092915050565b6000611b2782611a17565b611b318185611b11565b9350611b4181856020860161190c565b80840191505092915050565b6000611b598284611b1c565b915081905092915050565b600082825260208201905092915050565b7f44434e5437323141000000000000000000000000000000000000000000000000600082015250565b6000611bab600883611b64565b9150611bb682611b75565b602082019050919050565b6000606082019050611bd66000830185611263565b611be36020830184611263565b8181036040830152611bf481611b9e565b90509392505050565b7f44434e5434393037410000000000000000000000000000000000000000000000600082015250565b6000611c33600983611b64565b9150611c3e82611bfd565b602082019050919050565b6000606082019050611c5e6000830185611263565b611c6b6020830184611263565b8181036040830152611c7c81611c26565b90509392505050565b6000610120830160008301518482036000860152611ca3828261193f565b91505060208301518482036020860152611cbd828261193f565b9150506040830151611cd26040860182611978565b506060830151611ce56060860182611978565b506080830151611cf86080860182611978565b5060a0830151611d0b60a0860182611978565b5060c0830151611d1e60c0860182611978565b5060e0830151611d3160e0860182611978565b50610100830151611d46610100860182611978565b508091505092915050565b600060a082019050611d666000830188611263565b8181036020830152611d788187611c85565b90508181036040830152611d8c8186611a6c565b9050611d9b6060830185611263565b611da86080830184611263565b9695505050505050565b7f44434e544372657363656e646f00000000000000000000000000000000000000600082015250565b6000611de8600d83611b64565b9150611df382611db2565b602082019050919050565b6000606082019050611e136000830185611263565b611e206020830184611263565b8181036040830152611e3181611ddb565b90509392505050565b611e43816113f1565b82525050565b600060a082019050611e5e6000830188611263565b611e6b6020830187611263565b611e786040830186611263565b611e856060830185611e3a565b611e926080830184611e3a565b9695505050505050565b7f44434e545661756c740000000000000000000000000000000000000000000000600082015250565b6000611ed2600983611b64565b9150611edd82611e9c565b602082019050919050565b6000606082019050611efd6000830185611263565b611f0a6020830184611263565b8181036040830152611f1b81611ec5565b90509392505050565b7f44434e545374616b696e67000000000000000000000000000000000000000000600082015250565b6000611f5a600b83611b64565b9150611f6582611f24565b602082019050919050565b6000606082019050611f856000830185611263565b611f926020830184611263565b8181036040830152611fa381611f4d565b90509392505050565b7f4f776e61626c653a206e6577206f776e657220697320746865207a65726f206160008201527f6464726573730000000000000000000000000000000000000000000000000000602082015250565b6000612008602683611b64565b915061201382611fac565b604082019050919050565b6000602082019050818103600083015261203781611ffb565b9050919050565b7f455243313136373a20637265617465206661696c656400000000000000000000600082015250565b6000612074601683611b64565b915061207f8261203e565b602082019050919050565b600060208201905081810360008301526120a381612067565b9050919050565b7f4f776e61626c653a2063616c6c6572206973206e6f7420746865206f776e6572600082015250565b60006120e0602083611b64565b91506120eb826120aa565b602082019050919050565b6000602082019050818103600083015261210f816120d3565b905091905056fea264697066735822122088fd4524f4c2a443fea96b5e290fdc1435638ae4d4ab4119900d870f2e2a217464736f6c63430008090033",
  "linkReferences": {},
  "deployedLinkReferences": {}
}