{
  "_format": "hh-sol-artifact-1",
  "contractName": "DCNTVaultNFT",
  "sourceName": "contracts/DCNTVaultNFT.sol",
  "abi": [
    {
      "inputs": [
        {
          "internalType": "address",
          "name": "_DCNTSDK",
          "type": "address"
        }
      ],
      "stateMutability": "nonpayable",
      "type": "constructor"
    },
    {
      "anonymous": false,
      "inputs": [
        {
          "indexed": false,
          "internalType": "address",
          "name": "nft",
          "type": "address"
        },
        {
          "indexed": false,
          "internalType": "address",
          "name": "vault",
          "type": "address"
        }
      ],
      "name": "Create",
      "type": "event"
    },
    {
      "anonymous": false,
      "inputs": [
        {
          "indexed": true,
          "internalType": "address",
          "name": "previousOwner",
          "type": "address"
        },
        {
          "indexed": true,
          "internalType": "address",
          "name": "newOwner",
          "type": "address"
        }
      ],
      "name": "OwnershipTransferred",
      "type": "event"
    },
    {
      "inputs": [],
      "name": "DCNT4907AImplementation",
      "outputs": [
        {
          "internalType": "address",
          "name": "",
          "type": "address"
        }
      ],
      "stateMutability": "view",
      "type": "function"
    },
    {
      "inputs": [],
      "name": "DCNT721AImplementation",
      "outputs": [
        {
          "internalType": "address",
          "name": "",
          "type": "address"
        }
      ],
      "stateMutability": "view",
      "type": "function"
    },
    {
      "inputs": [],
      "name": "DCNTCrescendoImplementation",
      "outputs": [
        {
          "internalType": "address",
          "name": "",
          "type": "address"
        }
      ],
      "stateMutability": "view",
      "type": "function"
    },
    {
      "inputs": [],
      "name": "DCNTStakingImplementation",
      "outputs": [
        {
          "internalType": "address",
          "name": "",
          "type": "address"
        }
      ],
      "stateMutability": "view",
      "type": "function"
    },
    {
      "inputs": [],
      "name": "DCNTVaultImplementation",
      "outputs": [
        {
          "internalType": "address",
          "name": "",
          "type": "address"
        }
      ],
      "stateMutability": "view",
      "type": "function"
    },
    {
      "inputs": [],
      "name": "SplitMain",
      "outputs": [
        {
          "internalType": "address",
          "name": "",
          "type": "address"
        }
      ],
      "stateMutability": "view",
      "type": "function"
    },
    {
      "inputs": [],
      "name": "contractRegistry",
      "outputs": [
        {
          "internalType": "address",
          "name": "",
          "type": "address"
        }
      ],
      "stateMutability": "view",
      "type": "function"
    },
    {
      "inputs": [
        {
          "internalType": "address",
          "name": "_DCNTSDK",
          "type": "address"
        },
        {
          "components": [
            {
              "internalType": "string",
              "name": "name",
              "type": "string"
            },
            {
              "internalType": "string",
              "name": "symbol",
              "type": "string"
            },
            {
              "internalType": "bool",
              "name": "adjustableCap",
              "type": "bool"
            },
            {
              "internalType": "uint256",
              "name": "maxTokens",
              "type": "uint256"
            },
            {
              "internalType": "uint256",
              "name": "tokenPrice",
              "type": "uint256"
            },
            {
              "internalType": "uint256",
              "name": "maxTokenPurchase",
              "type": "uint256"
            },
            {
              "internalType": "uint256",
              "name": "presaleStart",
              "type": "uint256"
            },
            {
              "internalType": "uint256",
              "name": "presaleEnd",
              "type": "uint256"
            },
            {
              "internalType": "uint256",
              "name": "saleStart",
              "type": "uint256"
            },
            {
              "internalType": "uint256",
              "name": "royaltyBPS",
              "type": "uint256"
            }
          ],
          "internalType": "struct EditionConfig",
          "name": "_editionConfig",
          "type": "tuple"
        },
        {
          "components": [
            {
              "internalType": "string",
              "name": "contractURI",
              "type": "string"
            },
            {
              "internalType": "string",
              "name": "metadataURI",
              "type": "string"
            },
            {
              "internalType": "bytes",
              "name": "metadataRendererInit",
              "type": "bytes"
            },
            {
              "internalType": "address",
              "name": "parentIP",
              "type": "address"
            }
          ],
          "internalType": "struct MetadataConfig",
          "name": "_metadataConfig",
          "type": "tuple"
        },
        {
          "components": [
            {
              "internalType": "address",
              "name": "tokenAddress",
              "type": "address"
            },
            {
              "internalType": "uint88",
              "name": "minBalance",
              "type": "uint88"
            },
            {
              "internalType": "enum SaleType",
              "name": "saleType",
              "type": "uint8"
            }
          ],
          "internalType": "struct TokenGateConfig",
          "name": "_tokenGateConfig",
          "type": "tuple"
        },
        {
          "internalType": "address",
          "name": "_vaultDistributionTokenAddress",
          "type": "address"
        },
        {
          "internalType": "uint256",
          "name": "_unlockDate",
          "type": "uint256"
        },
        {
          "internalType": "bool",
          "name": "_supports4907",
          "type": "bool"
        }
      ],
      "name": "create",
      "outputs": [
        {
          "internalType": "address",
          "name": "nft",
          "type": "address"
        },
        {
          "internalType": "address",
          "name": "vault",
          "type": "address"
        }
      ],
      "stateMutability": "nonpayable",
      "type": "function"
    },
    {
      "inputs": [],
      "name": "metadataRenderer",
      "outputs": [
        {
          "internalType": "address",
          "name": "",
          "type": "address"
        }
      ],
      "stateMutability": "view",
      "type": "function"
    },
    {
      "inputs": [],
      "name": "owner",
      "outputs": [
        {
          "internalType": "address",
          "name": "",
          "type": "address"
        }
      ],
      "stateMutability": "view",
      "type": "function"
    },
    {
      "inputs": [],
      "name": "renounceOwnership",
      "outputs": [],
      "stateMutability": "nonpayable",
      "type": "function"
    },
    {
      "inputs": [
        {
          "internalType": "address",
          "name": "newOwner",
          "type": "address"
        }
      ],
      "name": "transferOwnership",
      "outputs": [],
      "stateMutability": "nonpayable",
      "type": "function"
    }
  ],
  "bytecode": "0x60806040523480156200001157600080fd5b506040516200108a3803806200108a833981016040819052620000349162000439565b6200003f33620003e9565b6000819050806001600160a01b03166310a089136040518163ffffffff1660e01b8152600401602060405180830381600087803b1580156200008057600080fd5b505af115801562000095573d6000803e3d6000fd5b505050506040513d601f19601f82011682018060405250810190620000bb919062000439565b600160006101000a8154816001600160a01b0302191690836001600160a01b03160217905550806001600160a01b0316634285656b6040518163ffffffff1660e01b8152600401602060405180830381600087803b1580156200011d57600080fd5b505af115801562000132573d6000803e3d6000fd5b505050506040513d601f19601f8201168201806040525081019062000158919062000439565b600260006101000a8154816001600160a01b0302191690836001600160a01b03160217905550806001600160a01b0316639f61dfec6040518163ffffffff1660e01b8152600401602060405180830381600087803b158015620001ba57600080fd5b505af1158015620001cf573d6000803e3d6000fd5b505050506040513d601f19601f82011682018060405250810190620001f5919062000439565b600480546001600160a01b0319166001600160a01b0392831617815560408051630703199760e41b81529051928416926370319970928281019260209291908290030181600087803b1580156200024b57600080fd5b505af115801562000260573d6000803e3d6000fd5b505050506040513d601f19601f8201168201806040525081019062000286919062000439565b600660006101000a8154816001600160a01b0302191690836001600160a01b03160217905550806001600160a01b031663abf410e56040518163ffffffff1660e01b8152600401602060405180830381600087803b158015620002e857600080fd5b505af1158015620002fd573d6000803e3d6000fd5b505050506040513d601f19601f8201168201806040525081019062000323919062000439565b600760006101000a8154816001600160a01b0302191690836001600160a01b03160217905550806001600160a01b031663eef702e96040518163ffffffff1660e01b8152600401602060405180830381600087803b1580156200038557600080fd5b505af11580156200039a573d6000803e3d6000fd5b505050506040513d601f19601f82011682018060405250810190620003c0919062000439565b600880546001600160a01b0319166001600160a01b0392909216919091179055506200046b9050565b600080546001600160a01b038381166001600160a01b0319831681178455604051919092169283917f8be0079c531659141344cd1fd0a4f28419497f9722a3daafe3b4186f6b6457e09190a35050565b6000602082840312156200044c57600080fd5b81516001600160a01b03811681146200046457600080fd5b9392505050565b610c0f806200047b6000396000f3fe608060405234801561001057600080fd5b50600436106100b45760003560e01c80638da5cb5b116100715780638da5cb5b1461015f5780639f61dfec14610170578063abf410e514610183578063ca825bb514610196578063eef702e9146101a9578063f2fde38b146101bc57600080fd5b80630578df97146100b957806310a08913146100f15780633c3b370b1461011c5780634285656b1461012f5780637031997014610142578063715018a614610155575b600080fd5b6100cc6100c736600461083e565b6101cf565b604080516001600160a01b039384168152929091166020830152015b60405180910390f35b600154610104906001600160a01b031681565b6040516001600160a01b0390911681526020016100e8565b600554610104906001600160a01b031681565b600254610104906001600160a01b031681565b600654610104906001600160a01b031681565b61015d61048a565b005b6000546001600160a01b0316610104565b600454610104906001600160a01b031681565b600754610104906001600160a01b031681565b600354610104906001600160a01b031681565b600854610104906001600160a01b031681565b61015d6101ca36600461099f565b61049e565b6000806000831561029d576000808b6001600160a01b03168b8b8b6040516024016101fc93929190610ad1565b60408051601f198184030181529181526020820180516001600160e01b031663899209bb60e01b179052516102319190610ba0565b600060405180830381855af49150503d806000811461026c576040519150601f19603f3d011682016040523d82523d6000602084013e610271565b606091505b50915091508161028057600080fd5b808060200190518101906102949190610bbc565b9250505061035c565b6000808b6001600160a01b03168b8b8b6040516024016102bf93929190610ad1565b60408051601f198184030181529181526020820180516001600160e01b031663e48d0db360e01b179052516102f49190610ba0565b600060405180830381855af49150503d806000811461032f576040519150601f19603f3d011682016040523d82523d6000602084013e610334565b606091505b50915091508161034357600080fd5b808060200190518101906103579190610bbc565b925050505b60608901516040516001600160a01b03888116602483015283811660448301526064820192909252608481018790526000918291908d169060a40160408051601f198184030181529181526020820180516001600160e01b0316630e7ac45f60e31b179052516103cc9190610ba0565b600060405180830381855af49150503d8060008114610407576040519150601f19603f3d011682016040523d82523d6000602084013e61040c565b606091505b50915091508161041b57600080fd5b6000818060200190518101906104319190610bbc565b604080516001600160a01b038088168252831660208201529192507f96b5b9b8a7193304150caccf9b80d150675fa3d6af57761d8d8ef1d6f9a1a909910160405180910390a1929c929b50919950505050505050505050565b61049261051c565b61049c6000610576565b565b6104a661051c565b6001600160a01b0381166105105760405162461bcd60e51b815260206004820152602660248201527f4f776e61626c653a206e6577206f776e657220697320746865207a65726f206160448201526564647265737360d01b60648201526084015b60405180910390fd5b61051981610576565b50565b6000546001600160a01b0316331461049c5760405162461bcd60e51b815260206004820181905260248201527f4f776e61626c653a2063616c6c6572206973206e6f7420746865206f776e65726044820152606401610507565b600080546001600160a01b038381166001600160a01b0319831681178455604051919092169283917f8be0079c531659141344cd1fd0a4f28419497f9722a3daafe3b4186f6b6457e09190a35050565b6001600160a01b038116811461051957600080fd5b80356105e6816105c6565b919050565b634e487b7160e01b600052604160045260246000fd5b6040516080810167ffffffffffffffff81118282101715610624576106246105eb565b60405290565b604051610140810167ffffffffffffffff81118282101715610624576106246105eb565b600067ffffffffffffffff80841115610669576106696105eb565b604051601f8501601f19908116603f01168101908282118183101715610691576106916105eb565b816040528093508581528686860111156106aa57600080fd5b858560208301376000602087830101525050509392505050565b600082601f8301126106d557600080fd5b6106e48383356020850161064e565b9392505050565b803580151581146105e657600080fd5b60006080828403121561070d57600080fd5b610715610601565b9050813567ffffffffffffffff8082111561072f57600080fd5b61073b858386016106c4565b8352602084013591508082111561075157600080fd5b61075d858386016106c4565b6020840152604084013591508082111561077657600080fd5b508201601f8101841361078857600080fd5b6107978482356020840161064e565b6040830152506107a9606083016105db565b606082015292915050565b6000606082840312156107c657600080fd5b6040516060810181811067ffffffffffffffff821117156107e9576107e96105eb565b60405290508082356107fa816105c6565b815260208301356affffffffffffffffffffff8116811461081a57600080fd5b602082015260408301356003811061083157600080fd5b6040919091015292915050565b600080600080600080600061012080898b03121561085b57600080fd5b8835610866816105c6565b9750602089013567ffffffffffffffff8082111561088357600080fd5b908a0190610140828d03121561089857600080fd5b6108a061062a565b8235828111156108af57600080fd5b6108bb8e8286016106c4565b8252506020830135828111156108d057600080fd5b6108dc8e8286016106c4565b6020830152506108ee604084016106eb565b6040820152606083013560608201526080830135608082015260a083013560a082015260c083013560c082015260e083013560e082015261010080840135818301528484013585830152819a5060408d013594508285111561094f57600080fd5b61095b8e868f016106fb565b995061096a8e60608f016107b4565b985061097860c08e016105db565b975060e08d0135965061098c818e016106eb565b9550505050505092959891949750929550565b6000602082840312156109b157600080fd5b81356106e4816105c6565b60005b838110156109d75781810151838201526020016109bf565b838111156109e6576000848401525b50505050565b60008151808452610a048160208601602086016109bc565b601f01601f19169290920160200192915050565b6000815160808452610a2d60808501826109ec565b905060208301518482036020860152610a4682826109ec565b91505060408301518482036040860152610a6082826109ec565b6060948501516001600160a01b03169590940194909452509092915050565b80516001600160a01b031682526020808201516affffffffffffffffffffff1690830152604081015160038110610ac657634e487b7160e01b600052602160045260246000fd5b806040840152505050565b60a08152600084516101408060a0850152610af06101e08501836109ec565b91506020870151609f198584030160c0860152610b0d83826109ec565b9250506040870151610b2360e086018215159052565b5060608701516101008581019190915260808801516101208087019190915260a08901519286019290925260c088015161016086015260e08801516101808601528701516101a08501528601516101c08401528281036020840152610b888186610a18565b915050610b986040830184610a7f565b949350505050565b60008251610bb28184602087016109bc565b9190910192915050565b600060208284031215610bce57600080fd5b81516106e4816105c656fea2646970667358221220b3f1ad024ef05faac4e2aa8d46c62c248e71dd2ccc46885cb4a1b6aae5f01ceb64736f6c63430008090033",
  "linkReferences": {},
  "deployedLinkReferences": {}
}