{
  "_format": "hh-sol-artifact-1",
  "contractName": "DCNTRentalMarket",
  "sourceName": "contracts/DCNTRentalMarket.sol",
  "abi": [
    {
      "inputs": [],
      "stateMutability": "nonpayable",
      "type": "constructor"
    },
    {
      "anonymous": false,
      "inputs": [
        {
          "indexed": true,
          "internalType": "address",
          "name": "nft",
          "type": "address"
        },
        {
          "indexed": true,
          "internalType": "uint256",
          "name": "tokenId",
          "type": "uint256"
        },
        {
          "indexed": true,
          "internalType": "address",
          "name": "user",
          "type": "address"
        },
        {
          "indexed": false,
          "internalType": "uint64",
          "name": "expires",
          "type": "uint64"
        }
      ],
      "name": "Rent",
      "type": "event"
    },
    {
      "anonymous": false,
      "inputs": [
        {
          "indexed": true,
          "internalType": "address",
          "name": "nft",
          "type": "address"
        },
        {
          "indexed": true,
          "internalType": "uint256",
          "name": "tokenId",
          "type": "uint256"
        },
        {
          "components": [
            {
              "internalType": "bool",
              "name": "isListed",
              "type": "bool"
            },
            {
              "internalType": "uint256",
              "name": "pricePerDay",
              "type": "uint256"
            },
            {
              "internalType": "uint16",
              "name": "minDays",
              "type": "uint16"
            },
            {
              "internalType": "uint16",
              "name": "maxDays",
              "type": "uint16"
            }
          ],
          "indexed": false,
          "internalType": "struct DCNTRentalMarket.Rentable",
          "name": "rentable",
          "type": "tuple"
        }
      ],
      "name": "SetRentable",
      "type": "event"
    },
    {
      "inputs": [
        {
          "internalType": "address",
          "name": "_nft",
          "type": "address"
        },
        {
          "internalType": "uint256",
          "name": "_tokenId",
          "type": "uint256"
        }
      ],
      "name": "getRentable",
      "outputs": [
        {
          "components": [
            {
              "internalType": "bool",
              "name": "isListed",
              "type": "bool"
            },
            {
              "internalType": "uint256",
              "name": "pricePerDay",
              "type": "uint256"
            },
            {
              "internalType": "uint16",
              "name": "minDays",
              "type": "uint16"
            },
            {
              "internalType": "uint16",
              "name": "maxDays",
              "type": "uint16"
            }
          ],
          "internalType": "struct DCNTRentalMarket.Rentable",
          "name": "",
          "type": "tuple"
        }
      ],
      "stateMutability": "view",
      "type": "function"
    },
    {
      "inputs": [
        {
          "internalType": "address",
          "name": "_nft",
          "type": "address"
        },
        {
          "internalType": "uint256",
          "name": "_tokenId",
          "type": "uint256"
        },
        {
          "internalType": "uint16",
          "name": "_days",
          "type": "uint16"
        }
      ],
      "name": "rent",
      "outputs": [],
      "stateMutability": "payable",
      "type": "function"
    },
    {
      "inputs": [
        {
          "internalType": "address",
          "name": "",
          "type": "address"
        },
        {
          "internalType": "uint256",
          "name": "",
          "type": "uint256"
        }
      ],
      "name": "rentables",
      "outputs": [
        {
          "internalType": "bool",
          "name": "isListed",
          "type": "bool"
        },
        {
          "internalType": "uint256",
          "name": "pricePerDay",
          "type": "uint256"
        },
        {
          "internalType": "uint16",
          "name": "minDays",
          "type": "uint16"
        },
        {
          "internalType": "uint16",
          "name": "maxDays",
          "type": "uint16"
        }
      ],
      "stateMutability": "view",
      "type": "function"
    },
    {
      "inputs": [
        {
          "internalType": "address",
          "name": "_nft",
          "type": "address"
        },
        {
          "internalType": "uint256",
          "name": "_tokenId",
          "type": "uint256"
        },
        {
          "internalType": "bool",
          "name": "_isListed",
          "type": "bool"
        },
        {
          "internalType": "uint256",
          "name": "_pricePerDay",
          "type": "uint256"
        },
        {
          "internalType": "uint16",
          "name": "_minDays",
          "type": "uint16"
        },
        {
          "internalType": "uint16",
          "name": "_maxDays",
          "type": "uint16"
        }
      ],
      "name": "setRentable",
      "outputs": [],
      "stateMutability": "nonpayable",
      "type": "function"
    },
    {
      "inputs": [
        {
          "internalType": "address",
          "name": "_nft",
          "type": "address"
        },
        {
          "internalType": "uint256",
          "name": "_tokenId",
          "type": "uint256"
        }
      ],
      "name": "toggleListed",
      "outputs": [],
      "stateMutability": "nonpayable",
      "type": "function"
    }
  ],
  "bytecode": "0x608060405234801561001057600080fd5b50612054806100206000396000f3fe60806040526004361061004a5760003560e01c8063012400201461004f5780630bb07b2d1461008f57806318da9a76146100b8578063461ed957146100e1578063e800af0e1461011e575b600080fd5b34801561005b57600080fd5b506100766004803603810190610071919061127b565b61013a565b6040516100869493929190611302565b60405180910390f35b34801561009b57600080fd5b506100b660048036038101906100b1919061139f565b6101a0565b005b3480156100c457600080fd5b506100df60048036038101906100da919061127b565b610566565b005b3480156100ed57600080fd5b506101086004803603810190610103919061127b565b610827565b60405161011591906114ae565b60405180910390f35b610138600480360381019061013391906114c9565b6108f6565b005b6000602052816000526040600020602052806000526040600020600091509150508060000160009054906101000a900460ff16908060010154908060020160009054906101000a900461ffff16908060020160029054906101000a900461ffff16905084565b8573ffffffffffffffffffffffffffffffffffffffff166301ffc9a763ad092b5c6040518263ffffffff1660e01b81526004016101dd9190611590565b60206040518083038186803b1580156101f557600080fd5b505afa158015610209573d6000803e3d6000fd5b505050506040513d601f19601f8201168201806040525081019061022d91906115c0565b61026c576040517f08c379a00000000000000000000000000000000000000000000000000000000081526004016102639061164a565b60405180910390fd5b3073ffffffffffffffffffffffffffffffffffffffff168673ffffffffffffffffffffffffffffffffffffffff1663081812fc876040518263ffffffff1660e01b81526004016102bc919061166a565b60206040518083038186803b1580156102d457600080fd5b505afa1580156102e8573d6000803e3d6000fd5b505050506040513d601f19601f8201168201806040525081019061030c919061169a565b73ffffffffffffffffffffffffffffffffffffffff1614610362576040517f08c379a000000000000000000000000000000000000000000000000000000000815260040161035990611739565b60405180910390fd5b3373ffffffffffffffffffffffffffffffffffffffff168673ffffffffffffffffffffffffffffffffffffffff16636352211e876040518263ffffffff1660e01b81526004016103b2919061166a565b60206040518083038186803b1580156103ca57600080fd5b505afa1580156103de573d6000803e3d6000fd5b505050506040513d601f19601f82011682018060405250810190610402919061169a565b73ffffffffffffffffffffffffffffffffffffffff1614610458576040517f08c379a000000000000000000000000000000000000000000000000000000000815260040161044f906117cb565b60405180910390fd5b60008060008873ffffffffffffffffffffffffffffffffffffffff1673ffffffffffffffffffffffffffffffffffffffff16815260200190815260200160002060008781526020019081526020016000209050848160000160006101000a81548160ff021916908315150217905550838160010181905550828160020160006101000a81548161ffff021916908361ffff160217905550818160020160026101000a81548161ffff021916908361ffff160217905550858773ffffffffffffffffffffffffffffffffffffffff167fbdc1ced66ad0d34286214b879e9c2d5fdd2b0df3867772e916f95c1a276530fb83604051610555919061190e565b60405180910390a350505050505050565b3073ffffffffffffffffffffffffffffffffffffffff168273ffffffffffffffffffffffffffffffffffffffff1663081812fc836040518263ffffffff1660e01b81526004016105b6919061166a565b60206040518083038186803b1580156105ce57600080fd5b505afa1580156105e2573d6000803e3d6000fd5b505050506040513d601f19601f82011682018060405250810190610606919061169a565b73ffffffffffffffffffffffffffffffffffffffff161461065c576040517f08c379a000000000000000000000000000000000000000000000000000000000815260040161065390611739565b60405180910390fd5b3373ffffffffffffffffffffffffffffffffffffffff168273ffffffffffffffffffffffffffffffffffffffff16636352211e836040518263ffffffff1660e01b81526004016106ac919061166a565b60206040518083038186803b1580156106c457600080fd5b505afa1580156106d8573d6000803e3d6000fd5b505050506040513d601f19601f820116820180604052508101906106fc919061169a565b73ffffffffffffffffffffffffffffffffffffffff1614610752576040517f08c379a00000000000000000000000000000000000000000000000000000000081526004016107499061199b565b60405180910390fd5b60008060008473ffffffffffffffffffffffffffffffffffffffff1673ffffffffffffffffffffffffffffffffffffffff168152602001908152602001600020600083815260200190815260200160002090508060000160009054906101000a900460ff16158160000160006101000a81548160ff021916908315150217905550818373ffffffffffffffffffffffffffffffffffffffff167fbdc1ced66ad0d34286214b879e9c2d5fdd2b0df3867772e916f95c1a276530fb8360405161081a919061190e565b60405180910390a3505050565b61082f6111b0565b6000808473ffffffffffffffffffffffffffffffffffffffff1673ffffffffffffffffffffffffffffffffffffffff16815260200190815260200160002060008381526020019081526020016000206040518060800160405290816000820160009054906101000a900460ff16151515158152602001600182015481526020016002820160009054906101000a900461ffff1661ffff1661ffff1681526020016002820160029054906101000a900461ffff1661ffff1661ffff1681525050905092915050565b60008060008573ffffffffffffffffffffffffffffffffffffffff1673ffffffffffffffffffffffffffffffffffffffff16815260200190815260200160002060008481526020019081526020016000206040518060800160405290816000820160009054906101000a900460ff16151515158152602001600182015481526020016002820160009054906101000a900461ffff1661ffff1661ffff1681526020016002820160029054906101000a900461ffff1661ffff1661ffff168152505090503073ffffffffffffffffffffffffffffffffffffffff168473ffffffffffffffffffffffffffffffffffffffff1663081812fc856040518263ffffffff1660e01b8152600401610a09919061166a565b60206040518083038186803b158015610a2157600080fd5b505afa158015610a35573d6000803e3d6000fd5b505050506040513d601f19601f82011682018060405250810190610a59919061169a565b73ffffffffffffffffffffffffffffffffffffffff1614610aaf576040517f08c379a0000000000000000000000000000000000000000000000000000000008152600401610aa690611739565b60405180910390fd5b8060000151610af3576040517f08c379a0000000000000000000000000000000000000000000000000000000008152600401610aea90611a2d565b60405180910390fd5b600073ffffffffffffffffffffffffffffffffffffffff168473ffffffffffffffffffffffffffffffffffffffff1663c2f1f14a856040518263ffffffff1660e01b8152600401610b44919061166a565b60206040518083038186803b158015610b5c57600080fd5b505afa158015610b70573d6000803e3d6000fd5b505050506040513d601f19601f82011682018060405250810190610b94919061169a565b73ffffffffffffffffffffffffffffffffffffffff1614610bea576040517f08c379a0000000000000000000000000000000000000000000000000000000008152600401610be190611a99565b60405180910390fd5b806040015161ffff168261ffff1610158015610c125750806060015161ffff168261ffff1611155b610c51576040517f08c379a0000000000000000000000000000000000000000000000000000000008152600401610c4890611b05565b60405180910390fd5b60008060008673ffffffffffffffffffffffffffffffffffffffff1673ffffffffffffffffffffffffffffffffffffffff168152602001908152602001600020600085815260200190815260200160002060010154905060008111610ceb576040517f08c379a0000000000000000000000000000000000000000000000000000000008152600401610ce290611b71565b60405180910390fd5b60008361ffff1682610cfd9190611bc0565b9050600034905081811015610d47576040517f08c379a0000000000000000000000000000000000000000000000000000000008152600401610d3e90611c66565b60405180910390fd5b8673ffffffffffffffffffffffffffffffffffffffff166301ffc9a7632a55205a6040518263ffffffff1660e01b8152600401610d849190611cc1565b60206040518083038186803b158015610d9c57600080fd5b505afa158015610db0573d6000803e3d6000fd5b505050506040513d601f19601f82011682018060405250810190610dd491906115c0565b15610f6f576000808873ffffffffffffffffffffffffffffffffffffffff16632a55205a89866040518363ffffffff1660e01b8152600401610e17929190611cdc565b604080518083038186803b158015610e2e57600080fd5b505afa158015610e42573d6000803e3d6000fd5b505050506040513d601f19601f82011682018060405250810190610e669190611d1a565b8092508193505050600073ffffffffffffffffffffffffffffffffffffffff168273ffffffffffffffffffffffffffffffffffffffff1614158015610eab5750600081115b15610f6c5760008273ffffffffffffffffffffffffffffffffffffffff1682604051610ed690611d8b565b60006040518083038185875af1925050503d8060008114610f13576040519150601f19603f3d011682016040523d82523d6000602084013e610f18565b606091505b5050905080610f5c576040517f08c379a0000000000000000000000000000000000000000000000000000000008152600401610f5390611e12565b60405180910390fd5b8184610f689190611e32565b9350505b50505b60008773ffffffffffffffffffffffffffffffffffffffff16636352211e886040518263ffffffff1660e01b8152600401610faa919061166a565b60206040518083038186803b158015610fc257600080fd5b505afa158015610fd6573d6000803e3d6000fd5b505050506040513d601f19601f82011682018060405250810190610ffa919061169a565b905060008173ffffffffffffffffffffffffffffffffffffffff168360405161102290611d8b565b60006040518083038185875af1925050503d806000811461105f576040519150601f19603f3d011682016040523d82523d6000602084013e611064565b606091505b50509050806110a8576040517f08c379a000000000000000000000000000000000000000000000000000000000815260040161109f90611ed8565b60405180910390fd5b6000620151808861ffff166110bd9190611f07565b62ffffff16426110cd9190611f44565b90508973ffffffffffffffffffffffffffffffffffffffff1663e030565e8a33846040518463ffffffff1660e01b815260040161110c93929190611fcc565b600060405180830381600087803b15801561112657600080fd5b505af115801561113a573d6000803e3d6000fd5b505050503373ffffffffffffffffffffffffffffffffffffffff16898b73ffffffffffffffffffffffffffffffffffffffff167fba36d6be14be4f2010b3fd28baa5330fa1f5b30f4f5a9c167b8e60918c3aff968460405161119c9190612003565b60405180910390a450505050505050505050565b604051806080016040528060001515815260200160008152602001600061ffff168152602001600061ffff1681525090565b600080fd5b600073ffffffffffffffffffffffffffffffffffffffff82169050919050565b6000611212826111e7565b9050919050565b61122281611207565b811461122d57600080fd5b50565b60008135905061123f81611219565b92915050565b6000819050919050565b61125881611245565b811461126357600080fd5b50565b6000813590506112758161124f565b92915050565b60008060408385031215611292576112916111e2565b5b60006112a085828601611230565b92505060206112b185828601611266565b9150509250929050565b60008115159050919050565b6112d0816112bb565b82525050565b6112df81611245565b82525050565b600061ffff82169050919050565b6112fc816112e5565b82525050565b600060808201905061131760008301876112c7565b61132460208301866112d6565b61133160408301856112f3565b61133e60608301846112f3565b95945050505050565b611350816112bb565b811461135b57600080fd5b50565b60008135905061136d81611347565b92915050565b61137c816112e5565b811461138757600080fd5b50565b60008135905061139981611373565b92915050565b60008060008060008060c087890312156113bc576113bb6111e2565b5b60006113ca89828a01611230565b96505060206113db89828a01611266565b95505060406113ec89828a0161135e565b94505060606113fd89828a01611266565b935050608061140e89828a0161138a565b92505060a061141f89828a0161138a565b9150509295509295509295565b611435816112bb565b82525050565b61144481611245565b82525050565b611453816112e5565b82525050565b60808201600082015161146f600085018261142c565b506020820151611482602085018261143b565b506040820151611495604085018261144a565b5060608201516114a8606085018261144a565b50505050565b60006080820190506114c36000830184611459565b92915050565b6000806000606084860312156114e2576114e16111e2565b5b60006114f086828701611230565b935050602061150186828701611266565b92505060406115128682870161138a565b9150509250925092565b6000819050919050565b60007fffffffff0000000000000000000000000000000000000000000000000000000082169050919050565b60008160e01b9050919050565b600061157a6115756115708461151c565b611552565b611526565b9050919050565b61158a8161155f565b82525050565b60006020820190506115a56000830184611581565b92915050565b6000815190506115ba81611347565b92915050565b6000602082840312156115d6576115d56111e2565b5b60006115e4848285016115ab565b91505092915050565b600082825260208201905092915050565b7f4e465420646f6573206e6f7420737570706f7274204552433439303700000000600082015250565b6000611634601c836115ed565b915061163f826115fe565b602082019050919050565b6000602082019050818103600083015261166381611627565b9050919050565b600060208201905061167f60008301846112d6565b92915050565b60008151905061169481611219565b92915050565b6000602082840312156116b0576116af6111e2565b5b60006116be84828501611685565b91505092915050565b7f546f6b656e206973206e6f7420617070726f76656420666f722072656e74616c60008201527f7300000000000000000000000000000000000000000000000000000000000000602082015250565b60006117236021836115ed565b915061172e826116c7565b604082019050919050565b6000602082019050818103600083015261175281611716565b9050919050565b7f4d75737420626520746f6b656e206f776e657220746f207365742072656e746160008201527f626c650000000000000000000000000000000000000000000000000000000000602082015250565b60006117b56023836115ed565b91506117c082611759565b604082019050919050565b600060208201905081810360008301526117e4816117a8565b9050919050565b60008160001c9050919050565b600060ff82169050919050565b6000611818611813836117eb565b6117f8565b9050919050565b6000819050919050565b600061183c611837836117eb565b61181f565b9050919050565b600061ffff82169050919050565b600061186461185f836117eb565b611843565b9050919050565b60008160101c9050919050565b600061188b6118868361186b565b611843565b9050919050565b6080820160008083015490506118a781611805565b6118b4600086018261142c565b50600183015490506118c581611829565b6118d2602086018261143b565b50600283015490506118e381611851565b6118f0604086018261144a565b506118fa81611878565b611907606086018261144a565b5050505050565b60006080820190506119236000830184611892565b92915050565b7f4d75737420626520746f6b656e206f776e657220746f20736574206c6973746560008201527f6400000000000000000000000000000000000000000000000000000000000000602082015250565b60006119856021836115ed565b915061199082611929565b604082019050919050565b600060208201905081810360008301526119b481611978565b9050919050565b7f52656e74616c7320617265206e6f742061637469766520666f7220746869732060008201527f746f6b656e000000000000000000000000000000000000000000000000000000602082015250565b6000611a176025836115ed565b9150611a22826119bb565b604082019050919050565b60006020820190508181036000830152611a4681611a0a565b9050919050565b7f546f6b656e20697320616c72656164792072656e746564000000000000000000600082015250565b6000611a836017836115ed565b9150611a8e82611a4d565b602082019050919050565b60006020820190508181036000830152611ab281611a76565b9050919050565b7f496e76616c69642072656e74616c206475726174696f6e000000000000000000600082015250565b6000611aef6017836115ed565b9150611afa82611ab9565b602082019050919050565b60006020820190508181036000830152611b1e81611ae2565b9050919050565b7f52656e74616c2066656520686173206e6f74206265656e207365740000000000600082015250565b6000611b5b601b836115ed565b9150611b6682611b25565b602082019050919050565b60006020820190508181036000830152611b8a81611b4e565b9050919050565b7f4e487b7100000000000000000000000000000000000000000000000000000000600052601160045260246000fd5b6000611bcb82611245565b9150611bd683611245565b9250817fffffffffffffffffffffffffffffffffffffffffffffffffffffffffffffffff0483118215151615611c0f57611c0e611b91565b5b828202905092915050565b7f4e6f7420656e6f7567682066756e64732073656e7420666f722072656e74616c600082015250565b6000611c506020836115ed565b9150611c5b82611c1a565b602082019050919050565b60006020820190508181036000830152611c7f81611c43565b9050919050565b6000819050919050565b6000611cab611ca6611ca184611c86565b611552565b611526565b9050919050565b611cbb81611c90565b82525050565b6000602082019050611cd66000830184611cb2565b92915050565b6000604082019050611cf160008301856112d6565b611cfe60208301846112d6565b9392505050565b600081519050611d148161124f565b92915050565b60008060408385031215611d3157611d306111e2565b5b6000611d3f85828601611685565b9250506020611d5085828601611d05565b9150509250929050565b600081905092915050565b50565b6000611d75600083611d5a565b9150611d8082611d65565b600082019050919050565b6000611d9682611d68565b9150819050919050565b7f4661696c656420746f2073656e6420726f79616c747920746f20726f79616c7460008201527f7920726563697069656e74000000000000000000000000000000000000000000602082015250565b6000611dfc602b836115ed565b9150611e0782611da0565b604082019050919050565b60006020820190508181036000830152611e2b81611def565b9050919050565b6000611e3d82611245565b9150611e4883611245565b925082821015611e5b57611e5a611b91565b5b828203905092915050565b7f4661696c656420746f2073656e642072656e74616c2066656520746f20746f6b60008201527f656e206f776e6572000000000000000000000000000000000000000000000000602082015250565b6000611ec26028836115ed565b9150611ecd82611e66565b604082019050919050565b60006020820190508181036000830152611ef181611eb5565b9050919050565b600062ffffff82169050919050565b6000611f1282611ef8565b9150611f1d83611ef8565b92508162ffffff0483118215151615611f3957611f38611b91565b5b828202905092915050565b6000611f4f82611245565b9150611f5a83611245565b9250827fffffffffffffffffffffffffffffffffffffffffffffffffffffffffffffffff03821115611f8f57611f8e611b91565b5b828201905092915050565b611fa381611207565b82525050565b600067ffffffffffffffff82169050919050565b611fc681611fa9565b82525050565b6000606082019050611fe160008301866112d6565b611fee6020830185611f9a565b611ffb6040830184611fbd565b949350505050565b60006020820190506120186000830184611fbd565b9291505056fea2646970667358221220a375d5ef3285460df0c1f61bebec04f12b7730421b26ba1a150395b84e3f02f364736f6c63430008090033",
  "linkReferences": {},
  "deployedLinkReferences": {}
}