{
  "_format": "hh-sol-artifact-1",
  "contractName": "DCNTCrescendo",
  "sourceName": "contracts/DCNTCrescendo.sol",
  "abi": [
    {
      "anonymous": false,
      "inputs": [
        {
          "indexed": true,
          "internalType": "address",
          "name": "owner",
          "type": "address"
        },
        {
          "indexed": true,
          "internalType": "address",
          "name": "operator",
          "type": "address"
        },
        {
          "indexed": false,
          "internalType": "bool",
          "name": "approved",
          "type": "bool"
        }
      ],
      "name": "ApprovalForAll",
      "type": "event"
    },
    {
      "anonymous": false,
      "inputs": [
        {
          "indexed": true,
          "internalType": "address",
          "name": "sender",
          "type": "address"
        },
        {
          "indexed": false,
          "internalType": "uint256",
          "name": "amount",
          "type": "uint256"
        },
        {
          "indexed": false,
          "internalType": "uint256",
          "name": "id",
          "type": "uint256"
        },
        {
          "indexed": false,
          "internalType": "uint256",
          "name": "reimbursement",
          "type": "uint256"
        }
      ],
      "name": "CurvedBurn",
      "type": "event"
    },
    {
      "anonymous": false,
      "inputs": [
        {
          "indexed": true,
          "internalType": "address",
          "name": "sender",
          "type": "address"
        },
        {
          "indexed": false,
          "internalType": "uint256",
          "name": "amount",
          "type": "uint256"
        },
        {
          "indexed": false,
          "internalType": "uint256",
          "name": "id",
          "type": "uint256"
        },
        {
          "indexed": false,
          "internalType": "uint256",
          "name": "deposit",
          "type": "uint256"
        }
      ],
      "name": "CurvedMint",
      "type": "event"
    },
    {
      "anonymous": false,
      "inputs": [
        {
          "indexed": false,
          "internalType": "uint8",
          "name": "version",
          "type": "uint8"
        }
      ],
      "name": "Initialized",
      "type": "event"
    },
    {
      "anonymous": false,
      "inputs": [
        {
          "indexed": true,
          "internalType": "address",
          "name": "previousOwner",
          "type": "address"
        },
        {
          "indexed": true,
          "internalType": "address",
          "name": "newOwner",
          "type": "address"
        }
      ],
      "name": "OwnershipTransferred",
      "type": "event"
    },
    {
      "anonymous": false,
      "inputs": [
        {
          "indexed": true,
          "internalType": "address",
          "name": "operator",
          "type": "address"
        },
        {
          "indexed": true,
          "internalType": "address",
          "name": "from",
          "type": "address"
        },
        {
          "indexed": true,
          "internalType": "address",
          "name": "to",
          "type": "address"
        },
        {
          "indexed": false,
          "internalType": "uint256[]",
          "name": "ids",
          "type": "uint256[]"
        },
        {
          "indexed": false,
          "internalType": "uint256[]",
          "name": "amounts",
          "type": "uint256[]"
        }
      ],
      "name": "TransferBatch",
      "type": "event"
    },
    {
      "anonymous": false,
      "inputs": [
        {
          "indexed": true,
          "internalType": "address",
          "name": "operator",
          "type": "address"
        },
        {
          "indexed": true,
          "internalType": "address",
          "name": "from",
          "type": "address"
        },
        {
          "indexed": true,
          "internalType": "address",
          "name": "to",
          "type": "address"
        },
        {
          "indexed": false,
          "internalType": "uint256",
          "name": "id",
          "type": "uint256"
        },
        {
          "indexed": false,
          "internalType": "uint256",
          "name": "amount",
          "type": "uint256"
        }
      ],
      "name": "TransferSingle",
      "type": "event"
    },
    {
      "anonymous": false,
      "inputs": [
        {
          "indexed": false,
          "internalType": "string",
          "name": "value",
          "type": "string"
        },
        {
          "indexed": true,
          "internalType": "uint256",
          "name": "id",
          "type": "uint256"
        }
      ],
      "name": "URI",
      "type": "event"
    },
    {
      "inputs": [
        {
          "internalType": "address",
          "name": "",
          "type": "address"
        },
        {
          "internalType": "uint256",
          "name": "",
          "type": "uint256"
        }
      ],
      "name": "balanceOf",
      "outputs": [
        {
          "internalType": "uint256",
          "name": "",
          "type": "uint256"
        }
      ],
      "stateMutability": "view",
      "type": "function"
    },
    {
      "inputs": [
        {
          "internalType": "address[]",
          "name": "owners",
          "type": "address[]"
        },
        {
          "internalType": "uint256[]",
          "name": "ids",
          "type": "uint256[]"
        }
      ],
      "name": "balanceOfBatch",
      "outputs": [
        {
          "internalType": "uint256[]",
          "name": "balances",
          "type": "uint256[]"
        }
      ],
      "stateMutability": "view",
      "type": "function"
    },
    {
      "inputs": [
        {
          "internalType": "uint256",
          "name": "id",
          "type": "uint256"
        }
      ],
      "name": "buy",
      "outputs": [],
      "stateMutability": "payable",
      "type": "function"
    },
    {
      "inputs": [
        {
          "internalType": "uint256",
          "name": "amount",
          "type": "uint256"
        },
        {
          "internalType": "uint256",
          "name": "id",
          "type": "uint256"
        }
      ],
      "name": "calculateCurvedBurnReturn",
      "outputs": [
        {
          "internalType": "uint256",
          "name": "",
          "type": "uint256"
        }
      ],
      "stateMutability": "view",
      "type": "function"
    },
    {
      "inputs": [
        {
          "internalType": "uint256",
          "name": "amount",
          "type": "uint256"
        },
        {
          "internalType": "uint256",
          "name": "id",
          "type": "uint256"
        }
      ],
      "name": "calculateCurvedMintReturn",
      "outputs": [
        {
          "internalType": "uint256",
          "name": "",
          "type": "uint256"
        }
      ],
      "stateMutability": "view",
      "type": "function"
    },
    {
      "inputs": [
        {
          "internalType": "address[]",
          "name": "accounts",
          "type": "address[]"
        },
        {
          "internalType": "uint32[]",
          "name": "percentAllocations",
          "type": "uint32[]"
        },
        {
          "internalType": "uint32",
          "name": "distributorFee",
          "type": "uint32"
        }
      ],
      "name": "createSplit",
      "outputs": [],
      "stateMutability": "nonpayable",
      "type": "function"
    },
    {
      "inputs": [
        {
          "internalType": "address",
          "name": "account",
          "type": "address"
        },
        {
          "internalType": "uint256",
          "name": "withdrawETH",
          "type": "uint256"
        },
        {
          "internalType": "contract ERC20[]",
          "name": "tokens",
          "type": "address[]"
        },
        {
          "internalType": "address[]",
          "name": "accounts",
          "type": "address[]"
        },
        {
          "internalType": "uint32[]",
          "name": "percentAllocations",
          "type": "uint32[]"
        },
        {
          "internalType": "uint32",
          "name": "distributorFee",
          "type": "uint32"
        },
        {
          "internalType": "address",
          "name": "distributorAddress",
          "type": "address"
        }
      ],
      "name": "distributeAndWithdraw",
      "outputs": [],
      "stateMutability": "nonpayable",
      "type": "function"
    },
    {
      "inputs": [
        {
          "internalType": "address",
          "name": "account",
          "type": "address"
        },
        {
          "internalType": "uint256",
          "name": "withdrawETH",
          "type": "uint256"
        },
        {
          "internalType": "contract ERC20[]",
          "name": "tokens",
          "type": "address[]"
        },
        {
          "internalType": "address[]",
          "name": "accounts",
          "type": "address[]"
        },
        {
          "internalType": "uint32[]",
          "name": "percentAllocations",
          "type": "uint32[]"
        },
        {
          "internalType": "uint32",
          "name": "distributorFee",
          "type": "uint32"
        },
        {
          "internalType": "address",
          "name": "distributorAddress",
          "type": "address"
        }
      ],
      "name": "distributeAndWithdrawFund",
      "outputs": [],
      "stateMutability": "nonpayable",
      "type": "function"
    },
    {
      "inputs": [
        {
          "internalType": "contract ERC20",
          "name": "token",
          "type": "address"
        },
        {
          "internalType": "address[]",
          "name": "accounts",
          "type": "address[]"
        },
        {
          "internalType": "uint32[]",
          "name": "percentAllocations",
          "type": "uint32[]"
        },
        {
          "internalType": "uint32",
          "name": "distributorFee",
          "type": "uint32"
        },
        {
          "internalType": "address",
          "name": "distributorAddress",
          "type": "address"
        }
      ],
      "name": "distributeERC20",
      "outputs": [],
      "stateMutability": "nonpayable",
      "type": "function"
    },
    {
      "inputs": [
        {
          "internalType": "address[]",
          "name": "accounts",
          "type": "address[]"
        },
        {
          "internalType": "uint32[]",
          "name": "percentAllocations",
          "type": "uint32[]"
        },
        {
          "internalType": "uint32",
          "name": "distributorFee",
          "type": "uint32"
        },
        {
          "internalType": "address",
          "name": "distributorAddress",
          "type": "address"
        }
      ],
      "name": "distributeETH",
      "outputs": [],
      "stateMutability": "nonpayable",
      "type": "function"
    },
    {
      "inputs": [],
      "name": "flipSaleState",
      "outputs": [],
      "stateMutability": "nonpayable",
      "type": "function"
    },
    {
      "inputs": [
        {
          "internalType": "address",
          "name": "_owner",
          "type": "address"
        },
        {
          "components": [
            {
              "internalType": "string",
              "name": "name",
              "type": "string"
            },
            {
              "internalType": "string",
              "name": "symbol",
              "type": "string"
            },
            {
              "internalType": "uint256",
              "name": "initialPrice",
              "type": "uint256"
            },
            {
              "internalType": "uint256",
              "name": "step1",
              "type": "uint256"
            },
            {
              "internalType": "uint256",
              "name": "step2",
              "type": "uint256"
            },
            {
              "internalType": "uint256",
              "name": "hitch",
              "type": "uint256"
            },
            {
              "internalType": "uint256",
              "name": "takeRateBPS",
              "type": "uint256"
            },
            {
              "internalType": "uint256",
              "name": "unlockDate",
              "type": "uint256"
            },
            {
              "internalType": "uint256",
              "name": "saleStart",
              "type": "uint256"
            },
            {
              "internalType": "uint256",
              "name": "royaltyBPS",
              "type": "uint256"
            }
          ],
          "internalType": "struct CrescendoConfig",
          "name": "_config",
          "type": "tuple"
        },
        {
          "components": [
            {
              "internalType": "string",
              "name": "metadataURI",
              "type": "string"
            },
            {
              "internalType": "bytes",
              "name": "metadataRendererInit",
              "type": "bytes"
            }
          ],
          "internalType": "struct MetadataConfig",
          "name": "_metadataConfig",
          "type": "tuple"
        },
        {
          "internalType": "address",
          "name": "_metadataRenderer",
          "type": "address"
        },
        {
          "internalType": "address",
          "name": "_splitMain",
          "type": "address"
        }
      ],
      "name": "initialize",
      "outputs": [],
      "stateMutability": "nonpayable",
      "type": "function"
    },
    {
      "inputs": [
        {
          "internalType": "address",
          "name": "",
          "type": "address"
        },
        {
          "internalType": "address",
          "name": "",
          "type": "address"
        }
      ],
      "name": "isApprovedForAll",
      "outputs": [
        {
          "internalType": "bool",
          "name": "",
          "type": "bool"
        }
      ],
      "stateMutability": "view",
      "type": "function"
    },
    {
      "inputs": [],
      "name": "liquidity",
      "outputs": [
        {
          "internalType": "uint256",
          "name": "",
          "type": "uint256"
        }
      ],
      "stateMutability": "view",
      "type": "function"
    },
    {
      "inputs": [],
      "name": "metadataRenderer",
      "outputs": [
        {
          "internalType": "address",
          "name": "",
          "type": "address"
        }
      ],
      "stateMutability": "view",
      "type": "function"
    },
    {
      "inputs": [],
      "name": "name",
      "outputs": [
        {
          "internalType": "string",
          "name": "",
          "type": "string"
        }
      ],
      "stateMutability": "view",
      "type": "function"
    },
    {
      "inputs": [],
      "name": "owner",
      "outputs": [
        {
          "internalType": "address",
          "name": "",
          "type": "address"
        }
      ],
      "stateMutability": "view",
      "type": "function"
    },
    {
      "inputs": [],
      "name": "renounceOwnership",
      "outputs": [],
      "stateMutability": "nonpayable",
      "type": "function"
    },
    {
      "inputs": [],
      "name": "reserveAmt",
      "outputs": [
        {
          "internalType": "uint256",
          "name": "",
          "type": "uint256"
        }
      ],
      "stateMutability": "view",
      "type": "function"
    },
    {
      "inputs": [],
      "name": "royaltyBPS",
      "outputs": [
        {
          "internalType": "uint256",
          "name": "",
          "type": "uint256"
        }
      ],
      "stateMutability": "view",
      "type": "function"
    },
    {
      "inputs": [
        {
          "internalType": "uint256",
          "name": "tokenId",
          "type": "uint256"
        },
        {
          "internalType": "uint256",
          "name": "salePrice",
          "type": "uint256"
        }
      ],
      "name": "royaltyInfo",
      "outputs": [
        {
          "internalType": "address",
          "name": "receiver",
          "type": "address"
        },
        {
          "internalType": "uint256",
          "name": "royaltyAmount",
          "type": "uint256"
        }
      ],
      "stateMutability": "view",
      "type": "function"
    },
    {
      "inputs": [
        {
          "internalType": "address",
          "name": "from",
          "type": "address"
        },
        {
          "internalType": "address",
          "name": "to",
          "type": "address"
        },
        {
          "internalType": "uint256[]",
          "name": "ids",
          "type": "uint256[]"
        },
        {
          "internalType": "uint256[]",
          "name": "amounts",
          "type": "uint256[]"
        },
        {
          "internalType": "bytes",
          "name": "data",
          "type": "bytes"
        }
      ],
      "name": "safeBatchTransferFrom",
      "outputs": [],
      "stateMutability": "nonpayable",
      "type": "function"
    },
    {
      "inputs": [
        {
          "internalType": "address",
          "name": "from",
          "type": "address"
        },
        {
          "internalType": "address",
          "name": "to",
          "type": "address"
        },
        {
          "internalType": "uint256",
          "name": "id",
          "type": "uint256"
        },
        {
          "internalType": "uint256",
          "name": "amount",
          "type": "uint256"
        },
        {
          "internalType": "bytes",
          "name": "data",
          "type": "bytes"
        }
      ],
      "name": "safeTransferFrom",
      "outputs": [],
      "stateMutability": "nonpayable",
      "type": "function"
    },
    {
      "inputs": [],
      "name": "saleIsActive",
      "outputs": [
        {
          "internalType": "bool",
          "name": "_saleIsActive",
          "type": "bool"
        }
      ],
      "stateMutability": "view",
      "type": "function"
    },
    {
      "inputs": [],
      "name": "saleIsPaused",
      "outputs": [
        {
          "internalType": "bool",
          "name": "",
          "type": "bool"
        }
      ],
      "stateMutability": "view",
      "type": "function"
    },
    {
      "inputs": [],
      "name": "saleStart",
      "outputs": [
        {
          "internalType": "uint256",
          "name": "",
          "type": "uint256"
        }
      ],
      "stateMutability": "view",
      "type": "function"
    },
    {
      "inputs": [
        {
          "internalType": "uint256",
          "name": "id",
          "type": "uint256"
        }
      ],
      "name": "sell",
      "outputs": [],
      "stateMutability": "nonpayable",
      "type": "function"
    },
    {
      "inputs": [
        {
          "internalType": "address",
          "name": "operator",
          "type": "address"
        },
        {
          "internalType": "bool",
          "name": "approved",
          "type": "bool"
        }
      ],
      "name": "setApprovalForAll",
      "outputs": [],
      "stateMutability": "nonpayable",
      "type": "function"
    },
    {
      "inputs": [
        {
          "internalType": "address",
          "name": "_metadataRenderer",
          "type": "address"
        }
      ],
      "name": "setMetadataRenderer",
      "outputs": [],
      "stateMutability": "nonpayable",
      "type": "function"
    },
    {
      "inputs": [],
      "name": "splitMain",
      "outputs": [
        {
          "internalType": "address",
          "name": "",
          "type": "address"
        }
      ],
      "stateMutability": "view",
      "type": "function"
    },
    {
      "inputs": [],
      "name": "splitWallet",
      "outputs": [
        {
          "internalType": "address",
          "name": "",
          "type": "address"
        }
      ],
      "stateMutability": "view",
      "type": "function"
    },
    {
      "inputs": [
        {
          "internalType": "bytes4",
          "name": "interfaceId",
          "type": "bytes4"
        }
      ],
      "name": "supportsInterface",
      "outputs": [
        {
          "internalType": "bool",
          "name": "",
          "type": "bool"
        }
      ],
      "stateMutability": "view",
      "type": "function"
    },
    {
      "inputs": [],
      "name": "symbol",
      "outputs": [
        {
          "internalType": "string",
          "name": "",
          "type": "string"
        }
      ],
      "stateMutability": "view",
      "type": "function"
    },
    {
      "inputs": [
        {
          "internalType": "uint256",
          "name": "id",
          "type": "uint256"
        }
      ],
      "name": "totalSupply",
      "outputs": [
        {
          "internalType": "uint256",
          "name": "",
          "type": "uint256"
        }
      ],
      "stateMutability": "view",
      "type": "function"
    },
    {
      "inputs": [
        {
          "internalType": "uint256",
          "name": "transferETH",
          "type": "uint256"
        },
        {
          "internalType": "contract ERC20[]",
          "name": "tokens",
          "type": "address[]"
        }
      ],
      "name": "transferFundToSplit",
      "outputs": [],
      "stateMutability": "nonpayable",
      "type": "function"
    },
    {
      "inputs": [
        {
          "internalType": "address",
          "name": "newOwner",
          "type": "address"
        }
      ],
      "name": "transferOwnership",
      "outputs": [],
      "stateMutability": "nonpayable",
      "type": "function"
    },
    {
      "inputs": [
        {
          "internalType": "uint256",
          "name": "transferETH",
          "type": "uint256"
        },
        {
          "internalType": "contract ERC20[]",
          "name": "tokens",
          "type": "address[]"
        }
      ],
      "name": "transferToSplit",
      "outputs": [],
      "stateMutability": "nonpayable",
      "type": "function"
    },
    {
      "inputs": [],
      "name": "unlockDate",
      "outputs": [
        {
          "internalType": "uint256",
          "name": "",
          "type": "uint256"
        }
      ],
      "stateMutability": "view",
      "type": "function"
    },
    {
      "inputs": [
        {
          "internalType": "string",
          "name": "uri_",
          "type": "string"
        }
      ],
      "name": "updateUri",
      "outputs": [],
      "stateMutability": "nonpayable",
      "type": "function"
    },
    {
      "inputs": [
        {
          "internalType": "uint256",
          "name": "",
          "type": "uint256"
        }
      ],
      "name": "uri",
      "outputs": [
        {
          "internalType": "string",
          "name": "",
          "type": "string"
        }
      ],
      "stateMutability": "view",
      "type": "function"
    },
    {
      "inputs": [],
      "name": "withdraw",
      "outputs": [],
      "stateMutability": "nonpayable",
      "type": "function"
    },
    {
      "inputs": [],
      "name": "withdrawFund",
      "outputs": [],
      "stateMutability": "nonpayable",
      "type": "function"
    }
  ],
  "bytecode": "0x60806040526000600d553480156200001657600080fd5b50620000376200002b6200003d60201b60201c565b6200004560201b60201c565b62000108565b600033905090565b600060028054906101000a900473ffffffffffffffffffffffffffffffffffffffff169050816002806101000a81548173ffffffffffffffffffffffffffffffffffffffff021916908373ffffffffffffffffffffffffffffffffffffffff1602179055508173ffffffffffffffffffffffffffffffffffffffff168173ffffffffffffffffffffffffffffffffffffffff167f8be0079c531659141344cd1fd0a4f28419497f9722a3daafe3b4186f6b6457e060405160405180910390a35050565b615ff880620001186000396000f3fe60806040526004361061024f5760003560e01c806390619fa811610139578063c4559d5a116100b6578063e985e9c51161007a578063e985e9c514610868578063eb8d2444146108a5578063ee37778d146108d0578063f242432a1461090d578063f2fde38b14610936578063fd4fe8a81461095f5761024f565b8063c4559d5a146107b8578063d96a094a146107e1578063e07fa3c1146107fd578063e4849b3214610814578063e6c350c11461083d5761024f565b8063a3111abd116100fd578063a3111abd146106bd578063ab0bcc41146106fa578063af548ffb14610725578063b9c9d93a14610750578063bd85b0391461077b5761024f565b806390619fa8146105ee57806393b93f3e1461061757806394a11aea1461064057806395d89b4114610669578063a22cb465146106945761024f565b80632eb2c2d6116101d257806369ac57211161019657806369ac572114610502578063703199701461052d578063713b978714610558578063715018a61461058357806379ab7c8e1461059a5780638da5cb5b146105c35761024f565b80632eb2c2d61461044557806334918dfd1461046e5780633ccfd60b146104855780634e1273f41461049c578063570b3c6a146104d95761024f565b80630e769b2b116102195780630e769b2b1461034b5780630e89341c146103765780631a686502146103b3578063284a44a8146103de5780632a55205a146104075761024f565b80625f16fb14610254578062fdd58e1461027d578063015893c5146102ba57806301ffc9a7146102e357806306fdde0314610320575b600080fd5b34801561026057600080fd5b5061027b60048036038101906102769190613b7e565b610988565b005b34801561028957600080fd5b506102a4600480360381019061029f9190613c70565b610a98565b6040516102b19190613cbf565b60405180910390f35b3480156102c657600080fd5b506102e160048036038101906102dc9190613cda565b610abd565b005b3480156102ef57600080fd5b5061030a60048036038101906103059190613dc7565b610c63565b6040516103179190613e0f565b60405180910390f35b34801561032c57600080fd5b50610335610ca5565b6040516103429190613ec3565b60405180910390f35b34801561035757600080fd5b50610360610d37565b60405161036d9190613ef4565b60405180910390f35b34801561038257600080fd5b5061039d60048036038101906103989190613f0f565b610d5d565b6040516103aa9190613ec3565b60405180910390f35b3480156103bf57600080fd5b506103c8610f00565b6040516103d59190613cbf565b60405180910390f35b3480156103ea57600080fd5b506104056004803603810190610400919061407a565b610f2f565b005b34801561041357600080fd5b5061042e60048036038101906104299190614178565b61101a565b60405161043c9291906141b8565b60405180910390f35b34801561045157600080fd5b5061046c6004803603810190610467919061428d565b611118565b005b34801561047a57600080fd5b50610483611583565b005b34801561049157600080fd5b5061049a6115b7565b005b3480156104a857600080fd5b506104c360048036038101906104be9190614369565b611717565b6040516104d091906144a8565b60405180910390f35b3480156104e557600080fd5b5061050060048036038101906104fb919061457f565b611880565b005b34801561050e57600080fd5b50610517611894565b6040516105249190613cbf565b60405180910390f35b34801561053957600080fd5b5061054261189a565b60405161054f9190613ef4565b60405180910390f35b34801561056457600080fd5b5061056d6118c0565b60405161057a9190613ef4565b60405180910390f35b34801561058f57600080fd5b506105986118e6565b005b3480156105a657600080fd5b506105c160048036038101906105bc91906145c8565b6118fa565b005b3480156105cf57600080fd5b506105d86119c7565b6040516105e59190613ef4565b60405180910390f35b3480156105fa57600080fd5b50610615600480360381019061061091906145c8565b6119ef565b005b34801561062357600080fd5b5061063e60048036038101906106399190614885565b611b01565b005b34801561064c57600080fd5b506106676004803603810190610662919061407a565b611e38565b005b34801561067557600080fd5b5061067e611fe7565b60405161068b9190613ec3565b60405180910390f35b3480156106a057600080fd5b506106bb60048036038101906106b69190614964565b612079565b005b3480156106c957600080fd5b506106e460048036038101906106df9190614178565b612176565b6040516106f19190613cbf565b60405180910390f35b34801561070657600080fd5b5061070f6121d7565b60405161071c9190613cbf565b60405180910390f35b34801561073157600080fd5b5061073a6121dd565b6040516107479190613cbf565b60405180910390f35b34801561075c57600080fd5b50610765612219565b6040516107729190613cbf565b60405180910390f35b34801561078757600080fd5b506107a2600480360381019061079d9190613f0f565b61221f565b6040516107af9190613cbf565b60405180910390f35b3480156107c457600080fd5b506107df60048036038101906107da91906149a4565b61223c565b005b6107fb60048036038101906107f69190613f0f565b612348565b005b34801561080957600080fd5b5061081261264d565b005b34801561082057600080fd5b5061083b60048036038101906108369190613f0f565b612759565b005b34801561084957600080fd5b50610852612a7d565b60405161085f9190613e0f565b60405180910390f35b34801561087457600080fd5b5061088f600480360381019061088a9190614a4b565b612a90565b60405161089c9190613e0f565b60405180910390f35b3480156108b157600080fd5b506108ba612abf565b6040516108c79190613e0f565b60405180910390f35b3480156108dc57600080fd5b506108f760048036038101906108f29190614178565b612ae5565b6040516109049190613cbf565b60405180910390f35b34801561091957600080fd5b50610934600480360381019061092f9190614a8b565b612b6d565b005b34801561094257600080fd5b5061095d60048036038101906109589190614b25565b612f2f565b005b34801561096b57600080fd5b5061098660048036038101906109819190614b25565b612fb3565b005b600073ffffffffffffffffffffffffffffffffffffffff166109a8612fff565b73ffffffffffffffffffffffffffffffffffffffff1614156109ff576040517f08c379a00000000000000000000000000000000000000000000000000000000081526004016109f690614b9e565b60405180910390fd5b610a0887613029565b610a1061314f565b73ffffffffffffffffffffffffffffffffffffffff166315811302610a33612fff565b898989898989896040518963ffffffff1660e01b8152600401610a5d989796959493929190614db2565b600060405180830381600087803b158015610a7757600080fd5b505af1158015610a8b573d6000803e3d6000fd5b5050505050505050505050565b6000602052816000526040600020602052806000526040600020600091509150505481565b610ac5613179565b600073ffffffffffffffffffffffffffffffffffffffff16610ae561314f565b73ffffffffffffffffffffffffffffffffffffffff161415610b3c576040517f08c379a0000000000000000000000000000000000000000000000000000000008152600401610b3390614e71565b60405180910390fd5b600073ffffffffffffffffffffffffffffffffffffffff16610b5c612fff565b73ffffffffffffffffffffffffffffffffffffffff1614610bb2576040517f08c379a0000000000000000000000000000000000000000000000000000000008152600401610ba990614edd565b60405180910390fd5b6000610bbc61314f565b73ffffffffffffffffffffffffffffffffffffffff16637601f7828787878787336040518763ffffffff1660e01b8152600401610bfe96959493929190614efd565b602060405180830381600087803b158015610c1857600080fd5b505af1158015610c2c573d6000803e3d6000fd5b505050506040513d601f19601f82011682018060405250810190610c509190614f69565b9050610c5b816131f7565b505050505050565b6000632a55205a60e01b827bffffffffffffffffffffffffffffffffffffffffffffffffffffffff19161480610c9e5750610c9d8261323b565b5b9050919050565b606060038054610cb490614fc5565b80601f0160208091040260200160405190810160405280929190818152602001828054610ce090614fc5565b8015610d2d5780601f10610d0257610100808354040283529160200191610d2d565b820191906000526020600020905b815481529060010190602001808311610d1057829003601f168201915b5050505050905090565b601160009054906101000a900473ffffffffffffffffffffffffffffffffffffffff1681565b6060600073ffffffffffffffffffffffffffffffffffffffff16601360009054906101000a900473ffffffffffffffffffffffffffffffffffffffff1673ffffffffffffffffffffffffffffffffffffffff1614610e6d57601360009054906101000a900473ffffffffffffffffffffffffffffffffffffffff1673ffffffffffffffffffffffffffffffffffffffff1663c87b56dd60016040518263ffffffff1660e01b8152600401610e119190615032565b60006040518083038186803b158015610e2957600080fd5b505afa158015610e3d573d6000803e3d6000fd5b505050506040513d6000823e3d601f19601f82011682018060405250810190610e6691906150bd565b9050610efb565b60058054610e7a90614fc5565b80601f0160208091040260200160405190810160405280929190818152602001828054610ea690614fc5565b8015610ef35780601f10610ec857610100808354040283529160200191610ef3565b820191906000526020600020905b815481529060010190602001808311610ed657829003601f168201915b505050505090505b919050565b6000612710600d5447610f139190615135565b600954610f20919061518b565b610f2a9190615214565b905090565b600073ffffffffffffffffffffffffffffffffffffffff16610f4f612fff565b73ffffffffffffffffffffffffffffffffffffffff161415610fa6576040517f08c379a0000000000000000000000000000000000000000000000000000000008152600401610f9d90614b9e565b60405180910390fd5b60008814610fbd57610fbc86868686868661223c565b5b60005b875181101561100357610ff2888281518110610fdf57610fde615245565b5b6020026020010151888888888888610988565b80610ffc90615274565b9050610fc0565b5061100f8989896132cd565b505050505050505050565b60008060008414611060576040517f08c379a000000000000000000000000000000000000000000000000000000000815260040161105790615309565b60405180910390fd5b600073ffffffffffffffffffffffffffffffffffffffff16601260009054906101000a900473ffffffffffffffffffffffffffffffffffffffff1673ffffffffffffffffffffffffffffffffffffffff16146110e057601260009054906101000a900473ffffffffffffffffffffffffffffffffffffffff1691506110eb565b6110e86119c7565b91505b6000612710600a54856110fe919061518b565b6111089190615214565b9050828192509250509250929050565b838390508686905014611160576040517f08c379a000000000000000000000000000000000000000000000000000000000815260040161115790615375565b60405180910390fd5b8773ffffffffffffffffffffffffffffffffffffffff163373ffffffffffffffffffffffffffffffffffffffff1614806112205750600160008973ffffffffffffffffffffffffffffffffffffffff1673ffffffffffffffffffffffffffffffffffffffff16815260200190815260200160002060003373ffffffffffffffffffffffffffffffffffffffff1673ffffffffffffffffffffffffffffffffffffffff16815260200190815260200160002060009054906101000a900460ff165b61125f576040517f08c379a0000000000000000000000000000000000000000000000000000000008152600401611256906153e1565b60405180910390fd5b60008060005b8888905081101561137f5788888281811061128357611282615245565b5b90506020020135925086868281811061129f5761129e615245565b5b905060200201359150816000808d73ffffffffffffffffffffffffffffffffffffffff1673ffffffffffffffffffffffffffffffffffffffff168152602001908152602001600020600085815260200190815260200160002060008282546113079190615401565b92505081905550816000808c73ffffffffffffffffffffffffffffffffffffffff1673ffffffffffffffffffffffffffffffffffffffff1681526020019081526020016000206000858152602001908152602001600020600082825461136d9190615135565b92505081905550806001019050611265565b508873ffffffffffffffffffffffffffffffffffffffff168a73ffffffffffffffffffffffffffffffffffffffff163373ffffffffffffffffffffffffffffffffffffffff167f4a39dc06d4c0dbc64b70af90fd698a233a518aa5d07e595d983b8c0526c8f7fb8b8b8b8b6040516113fa9493929190615496565b60405180910390a460008973ffffffffffffffffffffffffffffffffffffffff163b146115065763bc197c8160e01b7bffffffffffffffffffffffffffffffffffffffffffffffffffffffff19168973ffffffffffffffffffffffffffffffffffffffff1663bc197c81338d8c8c8c8c8c8c6040518963ffffffff1660e01b815260040161148f98979695949392919061550f565b602060405180830381600087803b1580156114a957600080fd5b505af11580156114bd573d6000803e3d6000fd5b505050506040513d601f19601f820116820180604052508101906114e19190615592565b7bffffffffffffffffffffffffffffffffffffffffffffffffffffffff191614611538565b600073ffffffffffffffffffffffffffffffffffffffff168973ffffffffffffffffffffffffffffffffffffffff1614155b611577576040517f08c379a000000000000000000000000000000000000000000000000000000000815260040161156e9061560b565b60405180910390fd5b50505050505050505050565b61158b613179565b600f60009054906101000a900460ff1615600f60006101000a81548160ff021916908315150217905550565b6115bf613179565b600073ffffffffffffffffffffffffffffffffffffffff166115df612fff565b73ffffffffffffffffffffffffffffffffffffffff1614611635576040517f08c379a000000000000000000000000000000000000000000000000000000000815260040161162c9061569d565b60405180910390fd5b6000600d54611642610f00565b61164c9190615401565b905080600d60008282546116609190615135565b9250508190555060003373ffffffffffffffffffffffffffffffffffffffff168260405161168d906156ee565b60006040518083038185875af1925050503d80600081146116ca576040519150601f19603f3d011682016040523d82523d6000602084013e6116cf565b606091505b5050905080611713576040517f08c379a000000000000000000000000000000000000000000000000000000000815260040161170a9061574f565b60405180910390fd5b5050565b6060828290508585905014611761576040517f08c379a000000000000000000000000000000000000000000000000000000000815260040161175890615375565b60405180910390fd5b8484905067ffffffffffffffff81111561177e5761177d613f3c565b5b6040519080825280602002602001820160405280156117ac5781602001602082028036833780820191505090505b50905060005b85859050811015611877576000808787848181106117d3576117d2615245565b5b90506020020160208101906117e89190614b25565b73ffffffffffffffffffffffffffffffffffffffff1673ffffffffffffffffffffffffffffffffffffffff168152602001908152602001600020600085858481811061183757611836615245565b5b905060200201358152602001908152602001600020548282815181106118605761185f615245565b5b6020026020010181815250508060010190506117b2565b50949350505050565b611888613179565b61189181613348565b50565b60105481565b601360009054906101000a900473ffffffffffffffffffffffffffffffffffffffff1681565b601260009054906101000a900473ffffffffffffffffffffffffffffffffffffffff1681565b6118ee613179565b6118f86000613362565b565b600073ffffffffffffffffffffffffffffffffffffffff1661191a612fff565b73ffffffffffffffffffffffffffffffffffffffff161415611971576040517f08c379a000000000000000000000000000000000000000000000000000000000815260040161196890614b9e565b60405180910390fd5b6000821461198257611981613425565b5b60005b81518110156119c2576119b18282815181106119a4576119a3615245565b5b6020026020010151613029565b806119bb90615274565b9050611985565b505050565b600060028054906101000a900473ffffffffffffffffffffffffffffffffffffffff16905090565b600073ffffffffffffffffffffffffffffffffffffffff16611a0f612fff565b73ffffffffffffffffffffffffffffffffffffffff161415611a66576040517f08c379a0000000000000000000000000000000000000000000000000000000008152600401611a5d90614b9e565b60405180910390fd5b601054421015611aab576040517f08c379a0000000000000000000000000000000000000000000000000000000008152600401611aa2906157bb565b60405180910390fd5b60008214611abc57611abb61350e565b5b60005b8151811015611afc57611aeb828281518110611ade57611add615245565b5b6020026020010151613029565b80611af590615274565b9050611abf565b505050565b6000600260019054906101000a900460ff16159050808015611b3557506001600260009054906101000a900460ff1660ff16105b80611b645750611b44306135c4565b158015611b6357506001600260009054906101000a900460ff1660ff16145b5b611ba3576040517f08c379a0000000000000000000000000000000000000000000000000000000008152600401611b9a9061584d565b60405180910390fd5b6001600260006101000a81548160ff021916908360ff1602179055508015611be1576001600260016101000a81548160ff0219169083151502179055505b611bea86613362565b8460400151600c600080815260200190815260200160002081905550846060015160068190555084608001516007819055508460a001516008819055508460c001516009819055508460e00151601081905550846000015160039080519060200190611c57929190613934565b50846020015160049080519060200190611c72929190613934565b50846101000151600e81905550846101200151600a8190555081601160006101000a81548173ffffffffffffffffffffffffffffffffffffffff021916908373ffffffffffffffffffffffffffffffffffffffff160217905550600073ffffffffffffffffffffffffffffffffffffffff168373ffffffffffffffffffffffffffffffffffffffff1614158015611d0e57506000846020015151115b15611dc85782601360006101000a81548173ffffffffffffffffffffffffffffffffffffffff021916908373ffffffffffffffffffffffffffffffffffffffff1602179055508273ffffffffffffffffffffffffffffffffffffffff1663856a7ffa85602001516040518263ffffffff1660e01b8152600401611d9191906158b1565b600060405180830381600087803b158015611dab57600080fd5b505af1158015611dbf573d6000803e3d6000fd5b50505050611dd6565b611dd58460000151613348565b5b8015611e30576000600260016101000a81548160ff0219169083151502179055507f7f26b83ff96e1f2b6a682f133852f6798a09c465da95921460cefb38474024986001604051611e279190615911565b60405180910390a15b505050505050565b600073ffffffffffffffffffffffffffffffffffffffff16611e58612fff565b73ffffffffffffffffffffffffffffffffffffffff161415611eaf576040517f08c379a0000000000000000000000000000000000000000000000000000000008152600401611ea690614b9e565b60405180910390fd5b601054421015611ef4576040517f08c379a0000000000000000000000000000000000000000000000000000000008152600401611eeb906157bb565b60405180910390fd5b60008814611f8a57611f0461350e565b611f0c61314f565b73ffffffffffffffffffffffffffffffffffffffff1663e61cb05e611f2f612fff565b8888888888886040518863ffffffff1660e01b8152600401611f57979695949392919061592c565b600060405180830381600087803b158015611f7157600080fd5b505af1158015611f85573d6000803e3d6000fd5b505050505b60005b8751811015611fd057611fbf888281518110611fac57611fab615245565b5b6020026020010151888888888888610988565b80611fc990615274565b9050611f8d565b50611fdc8989896132cd565b505050505050505050565b606060048054611ff690614fc5565b80601f016020809104026020016040519081016040528092919081815260200182805461202290614fc5565b801561206f5780601f106120445761010080835404028352916020019161206f565b820191906000526020600020905b81548152906001019060200180831161205257829003601f168201915b5050505050905090565b80600160003373ffffffffffffffffffffffffffffffffffffffff1673ffffffffffffffffffffffffffffffffffffffff16815260200190815260200160002060008473ffffffffffffffffffffffffffffffffffffffff1673ffffffffffffffffffffffffffffffffffffffff16815260200190815260200160002060006101000a81548160ff0219169083151502179055508173ffffffffffffffffffffffffffffffffffffffff163373ffffffffffffffffffffffffffffffffffffffff167f17307eab39ab6107e8899845ad3d59bd9653f200f220920489ca2b5937696c318360405161216a9190613e0f565b60405180910390a35050565b6000600183146121bb576040517f08c379a00000000000000000000000000000000000000000000000000000000081526004016121b2906159dd565b60405180910390fd5b600c600083815260200190815260200160002054905092915050565b600e5481565b6000612710600d54476121f09190615135565b6009546127106122009190615401565b61220a919061518b565b6122149190615214565b905090565b600a5481565b6000600b6000838152602001908152602001600020549050919050565b600073ffffffffffffffffffffffffffffffffffffffff1661225c612fff565b73ffffffffffffffffffffffffffffffffffffffff1614156122b3576040517f08c379a00000000000000000000000000000000000000000000000000000000081526004016122aa90614b9e565b60405180910390fd5b6122bb613425565b6122c361314f565b73ffffffffffffffffffffffffffffffffffffffff1663e61cb05e6122e6612fff565b8888888888886040518863ffffffff1660e01b815260040161230e979695949392919061592c565b600060405180830381600087803b15801561232857600080fd5b505af115801561233c573d6000803e3d6000fd5b50505050505050505050565b600e5442101561238d576040517f08c379a000000000000000000000000000000000000000000000000000000000815260040161238490615a49565b60405180910390fd5b600f60009054906101000a900460ff16156123dd576040517f08c379a00000000000000000000000000000000000000000000000000000000081526004016123d490615adb565b60405180910390fd5b60006123ea600183612176565b90508034101561242f576040517f08c379a000000000000000000000000000000000000000000000000000000000815260040161242690615b47565b60405180910390fd5b60008214612472576040517f08c379a000000000000000000000000000000000000000000000000000000000815260040161246990615309565b60405180910390fd5b600081346124809190615401565b111561253f5760003373ffffffffffffffffffffffffffffffffffffffff1682346124ab9190615401565b6040516124b7906156ee565b60006040518083038185875af1925050503d80600081146124f4576040519150601f19603f3d011682016040523d82523d6000602084013e6124f9565b606091505b505090508061253d576040517f08c379a00000000000000000000000000000000000000000000000000000000081526004016125349061574f565b60405180910390fd5b505b61255b33836001604051806020016040528060008152506135e7565b6001600b6000848152602001908152602001600020600082825461257f9190615135565b925050819055503373ffffffffffffffffffffffffffffffffffffffff167f25ba90957e661d6984db35cb313f752c45b1b67a3252e45d3f260a00fff0d719600184846040516125d193929190615b67565b60405180910390a26008546125e58361221f565b101561261c57600654600c600084815260200190815260200160002060008282546126109190615135565b92505081905550612649565b600754600c600084815260200190815260200160002060008282546126419190615135565b925050819055505b5050565b612655613179565b60105442101561269a576040517f08c379a0000000000000000000000000000000000000000000000000000000008152600401612691906157bb565b60405180910390fd5b600073ffffffffffffffffffffffffffffffffffffffff166126ba612fff565b73ffffffffffffffffffffffffffffffffffffffff1614612710576040517f08c379a00000000000000000000000000000000000000000000000000000000081526004016127079061569d565b60405180910390fd5b3373ffffffffffffffffffffffffffffffffffffffff166108fc479081150290604051600060405180830381858888f19350505050158015612756573d6000803e3d6000fd5b50565b600e5442101561279e576040517f08c379a000000000000000000000000000000000000000000000000000000000815260040161279590615a49565b60405180910390fd5b600f60009054906101000a900460ff16156127ee576040517f08c379a00000000000000000000000000000000000000000000000000000000081526004016127e590615adb565b60405180910390fd5b60008114612831576040517f08c379a000000000000000000000000000000000000000000000000000000000815260040161282890615309565b60405180910390fd5b600061283e600183612ae5565b905060008060003373ffffffffffffffffffffffffffffffffffffffff1673ffffffffffffffffffffffffffffffffffffffff168152602001908152602001600020600084815260200190815260200160002054116128d2576040517f08c379a00000000000000000000000000000000000000000000000000000000081526004016128c990615bea565b60405180910390fd5b6128de33836001613842565b6001600b600084815260200190815260200160002060008282546129029190615401565b9250508190555060003373ffffffffffffffffffffffffffffffffffffffff168260405161292f906156ee565b60006040518083038185875af1925050503d806000811461296c576040519150601f19603f3d011682016040523d82523d6000602084013e612971565b606091505b50509050806129b5576040517f08c379a00000000000000000000000000000000000000000000000000000000081526004016129ac9061574f565b60405180910390fd5b3373ffffffffffffffffffffffffffffffffffffffff167f68294b5fb4234239b694f5ef768a13b93132c838ecd88673e56a4caa8089b91960018585604051612a0093929190615b67565b60405180910390a2600854612a148461221f565b1015612a4b57600654600c60008581526020019081526020016000206000828254612a3f9190615401565b92505081905550612a78565b600754600c60008581526020019081526020016000206000828254612a709190615401565b925050819055505b505050565b600f60009054906101000a900460ff1681565b60016020528160005260406000206020528060005260406000206000915091509054906101000a900460ff1681565b6000600e544210158015612ae05750600f60009054906101000a900460ff16155b905090565b600060018314612b2a576040517f08c379a0000000000000000000000000000000000000000000000000000000008152600401612b21906159dd565b60405180910390fd5b612710600c600084815260200190815260200160002054600954612710612b519190615401565b612b5b919061518b565b612b659190615214565b905092915050565b8573ffffffffffffffffffffffffffffffffffffffff163373ffffffffffffffffffffffffffffffffffffffff161480612c2d5750600160008773ffffffffffffffffffffffffffffffffffffffff1673ffffffffffffffffffffffffffffffffffffffff16815260200190815260200160002060003373ffffffffffffffffffffffffffffffffffffffff1673ffffffffffffffffffffffffffffffffffffffff16815260200190815260200160002060009054906101000a900460ff165b612c6c576040517f08c379a0000000000000000000000000000000000000000000000000000000008152600401612c63906153e1565b60405180910390fd5b826000808873ffffffffffffffffffffffffffffffffffffffff1673ffffffffffffffffffffffffffffffffffffffff16815260200190815260200160002060008681526020019081526020016000206000828254612ccb9190615401565b92505081905550826000808773ffffffffffffffffffffffffffffffffffffffff1673ffffffffffffffffffffffffffffffffffffffff16815260200190815260200160002060008681526020019081526020016000206000828254612d319190615135565b925050819055508473ffffffffffffffffffffffffffffffffffffffff168673ffffffffffffffffffffffffffffffffffffffff163373ffffffffffffffffffffffffffffffffffffffff167fc3d58168c5ae7397731d063d5bbf3d657854427343f4c083240f7aacaa2d0f628787604051612dae929190615c0a565b60405180910390a460008573ffffffffffffffffffffffffffffffffffffffff163b14612eb65763f23a6e6160e01b7bffffffffffffffffffffffffffffffffffffffffffffffffffffffff19168573ffffffffffffffffffffffffffffffffffffffff1663f23a6e613389888888886040518763ffffffff1660e01b8152600401612e3f96959493929190615c33565b602060405180830381600087803b158015612e5957600080fd5b505af1158015612e6d573d6000803e3d6000fd5b505050506040513d601f19601f82011682018060405250810190612e919190615592565b7bffffffffffffffffffffffffffffffffffffffffffffffffffffffff191614612ee8565b600073ffffffffffffffffffffffffffffffffffffffff168573ffffffffffffffffffffffffffffffffffffffff1614155b612f27576040517f08c379a0000000000000000000000000000000000000000000000000000000008152600401612f1e9061560b565b60405180910390fd5b505050505050565b612f37613179565b600073ffffffffffffffffffffffffffffffffffffffff168173ffffffffffffffffffffffffffffffffffffffff161415612fa7576040517f08c379a0000000000000000000000000000000000000000000000000000000008152600401612f9e90615d01565b60405180910390fd5b612fb081613362565b50565b612fbb613179565b80601360006101000a81548173ffffffffffffffffffffffffffffffffffffffff021916908373ffffffffffffffffffffffffffffffffffffffff16021790555050565b6000601260009054906101000a900473ffffffffffffffffffffffffffffffffffffffff16905090565b60008173ffffffffffffffffffffffffffffffffffffffff166370a08231306040518263ffffffff1660e01b81526004016130649190613ef4565b60206040518083038186803b15801561307c57600080fd5b505afa158015613090573d6000803e3d6000fd5b505050506040513d601f19601f820116820180604052508101906130b49190615d36565b90508173ffffffffffffffffffffffffffffffffffffffff1663a9059cbb6130da612fff565b836040518363ffffffff1660e01b81526004016130f89291906141b8565b602060405180830381600087803b15801561311257600080fd5b505af1158015613126573d6000803e3d6000fd5b505050506040513d601f19601f8201168201806040525081019061314a9190615d78565b505050565b6000601160009054906101000a900473ffffffffffffffffffffffffffffffffffffffff16905090565b61318161392c565b73ffffffffffffffffffffffffffffffffffffffff1661319f6119c7565b73ffffffffffffffffffffffffffffffffffffffff16146131f5576040517f08c379a00000000000000000000000000000000000000000000000000000000081526004016131ec90615df1565b60405180910390fd5b565b80601260006101000a81548173ffffffffffffffffffffffffffffffffffffffff021916908373ffffffffffffffffffffffffffffffffffffffff16021790555050565b60006301ffc9a760e01b827bffffffffffffffffffffffffffffffffffffffffffffffffffffffff19161480613296575063d9b67a2660e01b827bffffffffffffffffffffffffffffffffffffffffffffffffffffffff1916145b806132c65750630e89341c60e01b827bffffffffffffffffffffffffffffffffffffffffffffffffffffffff1916145b9050919050565b6132d561314f565b73ffffffffffffffffffffffffffffffffffffffff16636e5f69198484846040518463ffffffff1660e01b815260040161331193929190615ebe565b600060405180830381600087803b15801561332b57600080fd5b505af115801561333f573d6000803e3d6000fd5b50505050505050565b806005908051906020019061335e929190613934565b5050565b600060028054906101000a900473ffffffffffffffffffffffffffffffffffffffff169050816002806101000a81548173ffffffffffffffffffffffffffffffffffffffff021916908373ffffffffffffffffffffffffffffffffffffffff1602179055508173ffffffffffffffffffffffffffffffffffffffff168173ffffffffffffffffffffffffffffffffffffffff167f8be0079c531659141344cd1fd0a4f28419497f9722a3daafe3b4186f6b6457e060405160405180910390a35050565b6000600d54613432610f00565b61343c9190615401565b905080600d60008282546134509190615135565b925050819055506000613461612fff565b73ffffffffffffffffffffffffffffffffffffffff1682604051613484906156ee565b60006040518083038185875af1925050503d80600081146134c1576040519150601f19603f3d011682016040523d82523d6000602084013e6134c6565b606091505b505090508061350a576040517f08c379a000000000000000000000000000000000000000000000000000000000815260040161350190615f48565b60405180910390fd5b5050565b6000613518612fff565b73ffffffffffffffffffffffffffffffffffffffff164760405161353b906156ee565b60006040518083038185875af1925050503d8060008114613578576040519150601f19603f3d011682016040523d82523d6000602084013e61357d565b606091505b50509050806135c1576040517f08c379a00000000000000000000000000000000000000000000000000000000081526004016135b890615f48565b60405180910390fd5b50565b6000808273ffffffffffffffffffffffffffffffffffffffff163b119050919050565b816000808673ffffffffffffffffffffffffffffffffffffffff1673ffffffffffffffffffffffffffffffffffffffff168152602001908152602001600020600085815260200190815260200160002060008282546136469190615135565b925050819055508373ffffffffffffffffffffffffffffffffffffffff16600073ffffffffffffffffffffffffffffffffffffffff163373ffffffffffffffffffffffffffffffffffffffff167fc3d58168c5ae7397731d063d5bbf3d657854427343f4c083240f7aacaa2d0f6286866040516136c4929190615c0a565b60405180910390a460008473ffffffffffffffffffffffffffffffffffffffff163b146137cb5763f23a6e6160e01b7bffffffffffffffffffffffffffffffffffffffffffffffffffffffff19168473ffffffffffffffffffffffffffffffffffffffff1663f23a6e613360008787876040518663ffffffff1660e01b8152600401613754959493929190615f68565b602060405180830381600087803b15801561376e57600080fd5b505af1158015613782573d6000803e3d6000fd5b505050506040513d601f19601f820116820180604052508101906137a69190615592565b7bffffffffffffffffffffffffffffffffffffffffffffffffffffffff1916146137fd565b600073ffffffffffffffffffffffffffffffffffffffff168473ffffffffffffffffffffffffffffffffffffffff1614155b61383c576040517f08c379a00000000000000000000000000000000000000000000000000000000081526004016138339061560b565b60405180910390fd5b50505050565b806000808573ffffffffffffffffffffffffffffffffffffffff1673ffffffffffffffffffffffffffffffffffffffff168152602001908152602001600020600084815260200190815260200160002060008282546138a19190615401565b92505081905550600073ffffffffffffffffffffffffffffffffffffffff168373ffffffffffffffffffffffffffffffffffffffff163373ffffffffffffffffffffffffffffffffffffffff167fc3d58168c5ae7397731d063d5bbf3d657854427343f4c083240f7aacaa2d0f62858560405161391f929190615c0a565b60405180910390a4505050565b600033905090565b82805461394090614fc5565b90600052602060002090601f01602090048101928261396257600085556139a9565b82601f1061397b57805160ff19168380011785556139a9565b828001600101855582156139a9579182015b828111156139a857825182559160200191906001019061398d565b5b5090506139b691906139ba565b5090565b5b808211156139d35760008160009055506001016139bb565b5090565b6000604051905090565b600080fd5b600080fd5b600073ffffffffffffffffffffffffffffffffffffffff82169050919050565b6000613a16826139eb565b9050919050565b6000613a2882613a0b565b9050919050565b613a3881613a1d565b8114613a4357600080fd5b50565b600081359050613a5581613a2f565b92915050565b600080fd5b600080fd5b600080fd5b60008083601f840112613a8057613a7f613a5b565b5b8235905067ffffffffffffffff811115613a9d57613a9c613a60565b5b602083019150836020820283011115613ab957613ab8613a65565b5b9250929050565b60008083601f840112613ad657613ad5613a5b565b5b8235905067ffffffffffffffff811115613af357613af2613a60565b5b602083019150836020820283011115613b0f57613b0e613a65565b5b9250929050565b600063ffffffff82169050919050565b613b2f81613b16565b8114613b3a57600080fd5b50565b600081359050613b4c81613b26565b92915050565b613b5b81613a0b565b8114613b6657600080fd5b50565b600081359050613b7881613b52565b92915050565b600080600080600080600060a0888a031215613b9d57613b9c6139e1565b5b6000613bab8a828b01613a46565b975050602088013567ffffffffffffffff811115613bcc57613bcb6139e6565b5b613bd88a828b01613a6a565b9650965050604088013567ffffffffffffffff811115613bfb57613bfa6139e6565b5b613c078a828b01613ac0565b94509450506060613c1a8a828b01613b3d565b9250506080613c2b8a828b01613b69565b91505092959891949750929550565b6000819050919050565b613c4d81613c3a565b8114613c5857600080fd5b50565b600081359050613c6a81613c44565b92915050565b60008060408385031215613c8757613c866139e1565b5b6000613c9585828601613b69565b9250506020613ca685828601613c5b565b9150509250929050565b613cb981613c3a565b82525050565b6000602082019050613cd46000830184613cb0565b92915050565b600080600080600060608688031215613cf657613cf56139e1565b5b600086013567ffffffffffffffff811115613d1457613d136139e6565b5b613d2088828901613a6a565b9550955050602086013567ffffffffffffffff811115613d4357613d426139e6565b5b613d4f88828901613ac0565b93509350506040613d6288828901613b3d565b9150509295509295909350565b60007fffffffff0000000000000000000000000000000000000000000000000000000082169050919050565b613da481613d6f565b8114613daf57600080fd5b50565b600081359050613dc181613d9b565b92915050565b600060208284031215613ddd57613ddc6139e1565b5b6000613deb84828501613db2565b91505092915050565b60008115159050919050565b613e0981613df4565b82525050565b6000602082019050613e246000830184613e00565b92915050565b600081519050919050565b600082825260208201905092915050565b60005b83811015613e64578082015181840152602081019050613e49565b83811115613e73576000848401525b50505050565b6000601f19601f8301169050919050565b6000613e9582613e2a565b613e9f8185613e35565b9350613eaf818560208601613e46565b613eb881613e79565b840191505092915050565b60006020820190508181036000830152613edd8184613e8a565b905092915050565b613eee81613a0b565b82525050565b6000602082019050613f096000830184613ee5565b92915050565b600060208284031215613f2557613f246139e1565b5b6000613f3384828501613c5b565b91505092915050565b7f4e487b7100000000000000000000000000000000000000000000000000000000600052604160045260246000fd5b613f7482613e79565b810181811067ffffffffffffffff82111715613f9357613f92613f3c565b5b80604052505050565b6000613fa66139d7565b9050613fb28282613f6b565b919050565b600067ffffffffffffffff821115613fd257613fd1613f3c565b5b602082029050602081019050919050565b6000613ff6613ff184613fb7565b613f9c565b9050808382526020820190506020840283018581111561401957614018613a65565b5b835b81811015614042578061402e8882613a46565b84526020840193505060208101905061401b565b5050509392505050565b600082601f83011261406157614060613a5b565b5b8135614071848260208601613fe3565b91505092915050565b600080600080600080600080600060e08a8c03121561409c5761409b6139e1565b5b60006140aa8c828d01613b69565b99505060206140bb8c828d01613c5b565b98505060408a013567ffffffffffffffff8111156140dc576140db6139e6565b5b6140e88c828d0161404c565b97505060608a013567ffffffffffffffff811115614109576141086139e6565b5b6141158c828d01613a6a565b965096505060808a013567ffffffffffffffff811115614138576141376139e6565b5b6141448c828d01613ac0565b945094505060a06141578c828d01613b3d565b92505060c06141688c828d01613b69565b9150509295985092959850929598565b6000806040838503121561418f5761418e6139e1565b5b600061419d85828601613c5b565b92505060206141ae85828601613c5b565b9150509250929050565b60006040820190506141cd6000830185613ee5565b6141da6020830184613cb0565b9392505050565b60008083601f8401126141f7576141f6613a5b565b5b8235905067ffffffffffffffff81111561421457614213613a60565b5b6020830191508360208202830111156142305761422f613a65565b5b9250929050565b60008083601f84011261424d5761424c613a5b565b5b8235905067ffffffffffffffff81111561426a57614269613a60565b5b60208301915083600182028301111561428657614285613a65565b5b9250929050565b60008060008060008060008060a0898b0312156142ad576142ac6139e1565b5b60006142bb8b828c01613b69565b98505060206142cc8b828c01613b69565b975050604089013567ffffffffffffffff8111156142ed576142ec6139e6565b5b6142f98b828c016141e1565b9650965050606089013567ffffffffffffffff81111561431c5761431b6139e6565b5b6143288b828c016141e1565b9450945050608089013567ffffffffffffffff81111561434b5761434a6139e6565b5b6143578b828c01614237565b92509250509295985092959890939650565b60008060008060408587031215614383576143826139e1565b5b600085013567ffffffffffffffff8111156143a1576143a06139e6565b5b6143ad87828801613a6a565b9450945050602085013567ffffffffffffffff8111156143d0576143cf6139e6565b5b6143dc878288016141e1565b925092505092959194509250565b600081519050919050565b600082825260208201905092915050565b6000819050602082019050919050565b61441f81613c3a565b82525050565b60006144318383614416565b60208301905092915050565b6000602082019050919050565b6000614455826143ea565b61445f81856143f5565b935061446a83614406565b8060005b8381101561449b5781516144828882614425565b975061448d8361443d565b92505060018101905061446e565b5085935050505092915050565b600060208201905081810360008301526144c2818461444a565b905092915050565b600080fd5b600067ffffffffffffffff8211156144ea576144e9613f3c565b5b6144f382613e79565b9050602081019050919050565b82818337600083830152505050565b600061452261451d846144cf565b613f9c565b90508281526020810184848401111561453e5761453d6144ca565b5b614549848285614500565b509392505050565b600082601f83011261456657614565613a5b565b5b813561457684826020860161450f565b91505092915050565b600060208284031215614595576145946139e1565b5b600082013567ffffffffffffffff8111156145b3576145b26139e6565b5b6145bf84828501614551565b91505092915050565b600080604083850312156145df576145de6139e1565b5b60006145ed85828601613c5b565b925050602083013567ffffffffffffffff81111561460e5761460d6139e6565b5b61461a8582860161404c565b9150509250929050565b600080fd5b600080fd5b6000610140828403121561464557614644614624565b5b614650610140613f9c565b9050600082013567ffffffffffffffff8111156146705761466f614629565b5b61467c84828501614551565b600083015250602082013567ffffffffffffffff8111156146a05761469f614629565b5b6146ac84828501614551565b60208301525060406146c084828501613c5b565b60408301525060606146d484828501613c5b565b60608301525060806146e884828501613c5b565b60808301525060a06146fc84828501613c5b565b60a08301525060c061471084828501613c5b565b60c08301525060e061472484828501613c5b565b60e08301525061010061473984828501613c5b565b6101008301525061012061474f84828501613c5b565b6101208301525092915050565b600067ffffffffffffffff82111561477757614776613f3c565b5b61478082613e79565b9050602081019050919050565b60006147a061479b8461475c565b613f9c565b9050828152602081018484840111156147bc576147bb6144ca565b5b6147c7848285614500565b509392505050565b600082601f8301126147e4576147e3613a5b565b5b81356147f484826020860161478d565b91505092915050565b60006040828403121561481357614812614624565b5b61481d6040613f9c565b9050600082013567ffffffffffffffff81111561483d5761483c614629565b5b61484984828501614551565b600083015250602082013567ffffffffffffffff81111561486d5761486c614629565b5b614879848285016147cf565b60208301525092915050565b600080600080600060a086880312156148a1576148a06139e1565b5b60006148af88828901613b69565b955050602086013567ffffffffffffffff8111156148d0576148cf6139e6565b5b6148dc8882890161462e565b945050604086013567ffffffffffffffff8111156148fd576148fc6139e6565b5b614909888289016147fd565b935050606061491a88828901613b69565b925050608061492b88828901613b69565b9150509295509295909350565b61494181613df4565b811461494c57600080fd5b50565b60008135905061495e81614938565b92915050565b6000806040838503121561497b5761497a6139e1565b5b600061498985828601613b69565b925050602061499a8582860161494f565b9150509250929050565b600080600080600080608087890312156149c1576149c06139e1565b5b600087013567ffffffffffffffff8111156149df576149de6139e6565b5b6149eb89828a01613a6a565b9650965050602087013567ffffffffffffffff811115614a0e57614a0d6139e6565b5b614a1a89828a01613ac0565b94509450506040614a2d89828a01613b3d565b9250506060614a3e89828a01613b69565b9150509295509295509295565b60008060408385031215614a6257614a616139e1565b5b6000614a7085828601613b69565b9250506020614a8185828601613b69565b9150509250929050565b60008060008060008060a08789031215614aa857614aa76139e1565b5b6000614ab689828a01613b69565b9650506020614ac789828a01613b69565b9550506040614ad889828a01613c5b565b9450506060614ae989828a01613c5b565b935050608087013567ffffffffffffffff811115614b0a57614b096139e6565b5b614b1689828a01614237565b92509250509295509295509295565b600060208284031215614b3b57614b3a6139e1565b5b6000614b4984828501613b69565b91505092915050565b7f53706c6974206e6f742063726561746564207965740000000000000000000000600082015250565b6000614b88601583613e35565b9150614b9382614b52565b602082019050919050565b60006020820190508181036000830152614bb781614b7b565b9050919050565b6000819050919050565b6000614be3614bde614bd9846139eb565b614bbe565b6139eb565b9050919050565b6000614bf582614bc8565b9050919050565b6000614c0782614bea565b9050919050565b614c1781614bfc565b82525050565b600082825260208201905092915050565b6000819050919050565b614c4181613a0b565b82525050565b6000614c538383614c38565b60208301905092915050565b6000614c6e6020840184613b69565b905092915050565b6000602082019050919050565b6000614c8f8385614c1d565b9350614c9a82614c2e565b8060005b85811015614cd357614cb08284614c5f565b614cba8882614c47565b9750614cc583614c76565b925050600181019050614c9e565b5085925050509392505050565b600082825260208201905092915050565b6000819050919050565b614d0481613b16565b82525050565b6000614d168383614cfb565b60208301905092915050565b6000614d316020840184613b3d565b905092915050565b6000602082019050919050565b6000614d528385614ce0565b9350614d5d82614cf1565b8060005b85811015614d9657614d738284614d22565b614d7d8882614d0a565b9750614d8883614d39565b925050600181019050614d61565b5085925050509392505050565b614dac81613b16565b82525050565b600060c082019050614dc7600083018b613ee5565b614dd4602083018a614c0e565b8181036040830152614de781888a614c83565b90508181036060830152614dfc818688614d46565b9050614e0b6080830185614da3565b614e1860a0830184613ee5565b9998505050505050505050565b7f53706c69744d61696e206e6f7420736574000000000000000000000000000000600082015250565b6000614e5b601183613e35565b9150614e6682614e25565b602082019050919050565b60006020820190508181036000830152614e8a81614e4e565b9050919050565b7f53706c697420616c726561647920637265617465640000000000000000000000600082015250565b6000614ec7601583613e35565b9150614ed282614e91565b602082019050919050565b60006020820190508181036000830152614ef681614eba565b9050919050565b60006080820190508181036000830152614f1881888a614c83565b90508181036020830152614f2d818688614d46565b9050614f3c6040830185614da3565b614f496060830184613ee5565b979650505050505050565b600081519050614f6381613b52565b92915050565b600060208284031215614f7f57614f7e6139e1565b5b6000614f8d84828501614f54565b91505092915050565b7f4e487b7100000000000000000000000000000000000000000000000000000000600052602260045260246000fd5b60006002820490506001821680614fdd57607f821691505b60208210811415614ff157614ff0614f96565b5b50919050565b6000819050919050565b600061501c61501761501284614ff7565b614bbe565b613c3a565b9050919050565b61502c81615001565b82525050565b60006020820190506150476000830184615023565b92915050565b600061506061505b846144cf565b613f9c565b90508281526020810184848401111561507c5761507b6144ca565b5b615087848285613e46565b509392505050565b600082601f8301126150a4576150a3613a5b565b5b81516150b484826020860161504d565b91505092915050565b6000602082840312156150d3576150d26139e1565b5b600082015167ffffffffffffffff8111156150f1576150f06139e6565b5b6150fd8482850161508f565b91505092915050565b7f4e487b7100000000000000000000000000000000000000000000000000000000600052601160045260246000fd5b600061514082613c3a565b915061514b83613c3a565b9250827fffffffffffffffffffffffffffffffffffffffffffffffffffffffffffffffff038211156151805761517f615106565b5b828201905092915050565b600061519682613c3a565b91506151a183613c3a565b9250817fffffffffffffffffffffffffffffffffffffffffffffffffffffffffffffffff04831182151516156151da576151d9615106565b5b828202905092915050565b7f4e487b7100000000000000000000000000000000000000000000000000000000600052601260045260246000fd5b600061521f82613c3a565b915061522a83613c3a565b92508261523a576152396151e5565b5b828204905092915050565b7f4e487b7100000000000000000000000000000000000000000000000000000000600052603260045260246000fd5b600061527f82613c3a565b91507fffffffffffffffffffffffffffffffffffffffffffffffffffffffffffffffff8214156152b2576152b1615106565b5b600182019050919050565b7f63757272656e746c79206f6e6c79206f6e652065646974696f6e000000000000600082015250565b60006152f3601a83613e35565b91506152fe826152bd565b602082019050919050565b60006020820190508181036000830152615322816152e6565b9050919050565b7f4c454e4754485f4d49534d415443480000000000000000000000000000000000600082015250565b600061535f600f83613e35565b915061536a82615329565b602082019050919050565b6000602082019050818103600083015261538e81615352565b9050919050565b7f4e4f545f415554484f52495a4544000000000000000000000000000000000000600082015250565b60006153cb600e83613e35565b91506153d682615395565b602082019050919050565b600060208201905081810360008301526153fa816153be565b9050919050565b600061540c82613c3a565b915061541783613c3a565b92508282101561542a57615429615106565b5b828203905092915050565b600080fd5b600061544683856143f5565b93507f07ffffffffffffffffffffffffffffffffffffffffffffffffffffffffffffff83111561547957615478615435565b5b60208302925061548a838584614500565b82840190509392505050565b600060408201905081810360008301526154b181868861543a565b905081810360208301526154c681848661543a565b905095945050505050565b600082825260208201905092915050565b60006154ee83856154d1565b93506154fb838584614500565b61550483613e79565b840190509392505050565b600060a082019050615524600083018b613ee5565b615531602083018a613ee5565b818103604083015261554481888a61543a565b9050818103606083015261555981868861543a565b9050818103608083015261556e8184866154e2565b90509998505050505050505050565b60008151905061558c81613d9b565b92915050565b6000602082840312156155a8576155a76139e1565b5b60006155b68482850161557d565b91505092915050565b7f554e534146455f524543495049454e5400000000000000000000000000000000600082015250565b60006155f5601083613e35565b9150615600826155bf565b602082019050919050565b60006020820190508181036000830152615624816155e8565b9050919050565b7f43616e6e6f74207769746864726177207769746820616e20616374697665207360008201527f706c697400000000000000000000000000000000000000000000000000000000602082015250565b6000615687602483613e35565b91506156928261562b565b604082019050919050565b600060208201905081810360008301526156b68161567a565b9050919050565b600081905092915050565b50565b60006156d86000836156bd565b91506156e3826156c8565b600082019050919050565b60006156f9826156cb565b9150819050919050565b7f4661696c656420746f2073656e64206574686572000000000000000000000000600082015250565b6000615739601483613e35565b915061574482615703565b602082019050919050565b600060208201905081810360008301526157688161572c565b9050919050565b7f4372657363656e646f206973207374696c6c206c6f636b656400000000000000600082015250565b60006157a5601983613e35565b91506157b08261576f565b602082019050919050565b600060208201905081810360008301526157d481615798565b9050919050565b7f496e697469616c697a61626c653a20636f6e747261637420697320616c72656160008201527f647920696e697469616c697a6564000000000000000000000000000000000000602082015250565b6000615837602e83613e35565b9150615842826157db565b604082019050919050565b600060208201905081810360008301526158668161582a565b9050919050565b600081519050919050565b60006158838261586d565b61588d81856154d1565b935061589d818560208601613e46565b6158a681613e79565b840191505092915050565b600060208201905081810360008301526158cb8184615878565b905092915050565b600060ff82169050919050565b60006158fb6158f66158f184614ff7565b614bbe565b6158d3565b9050919050565b61590b816158e0565b82525050565b60006020820190506159266000830184615902565b92915050565b600060a082019050615941600083018a613ee5565b818103602083015261595481888a614c83565b90508181036040830152615969818688614d46565b90506159786060830185614da3565b6159856080830184613ee5565b98975050505050505050565b7f6d617820616d6f756e7420697320310000000000000000000000000000000000600082015250565b60006159c7600f83613e35565b91506159d282615991565b602082019050919050565b600060208201905081810360008301526159f6816159ba565b9050919050565b7f53616c657320617265206e6f7420616374697665207965742e00000000000000600082015250565b6000615a33601983613e35565b9150615a3e826159fd565b602082019050919050565b60006020820190508181036000830152615a6281615a26565b9050919050565b7f53616c65206d7573742062652061637469766520746f20627579206f7220736560008201527f6c6c000000000000000000000000000000000000000000000000000000000000602082015250565b6000615ac5602283613e35565b9150615ad082615a69565b604082019050919050565b60006020820190508181036000830152615af481615ab8565b9050919050565b7f496e73756666696369656e742066756e64730000000000000000000000000000600082015250565b6000615b31601283613e35565b9150615b3c82615afb565b602082019050919050565b60006020820190508181036000830152615b6081615b24565b9050919050565b6000606082019050615b7c6000830186615023565b615b896020830185613cb0565b615b966040830184613cb0565b949350505050565b7f6d757374206f776e206e667420746f2073656c6c000000000000000000000000600082015250565b6000615bd4601483613e35565b9150615bdf82615b9e565b602082019050919050565b60006020820190508181036000830152615c0381615bc7565b9050919050565b6000604082019050615c1f6000830185613cb0565b615c2c6020830184613cb0565b9392505050565b600060a082019050615c486000830189613ee5565b615c556020830188613ee5565b615c626040830187613cb0565b615c6f6060830186613cb0565b8181036080830152615c828184866154e2565b9050979650505050505050565b7f4f776e61626c653a206e6577206f776e657220697320746865207a65726f206160008201527f6464726573730000000000000000000000000000000000000000000000000000602082015250565b6000615ceb602683613e35565b9150615cf682615c8f565b604082019050919050565b60006020820190508181036000830152615d1a81615cde565b9050919050565b600081519050615d3081613c44565b92915050565b600060208284031215615d4c57615d4b6139e1565b5b6000615d5a84828501615d21565b91505092915050565b600081519050615d7281614938565b92915050565b600060208284031215615d8e57615d8d6139e1565b5b6000615d9c84828501615d63565b91505092915050565b7f4f776e61626c653a2063616c6c6572206973206e6f7420746865206f776e6572600082015250565b6000615ddb602083613e35565b9150615de682615da5565b602082019050919050565b60006020820190508181036000830152615e0a81615dce565b9050919050565b600081519050919050565b6000819050602082019050919050565b615e3581614bfc565b82525050565b6000615e478383615e2c565b60208301905092915050565b6000602082019050919050565b6000615e6b82615e11565b615e758185614c1d565b9350615e8083615e1c565b8060005b83811015615eb1578151615e988882615e3b565b9750615ea383615e53565b925050600181019050615e84565b5085935050505092915050565b6000606082019050615ed36000830186613ee5565b615ee06020830185613cb0565b8181036040830152615ef28184615e60565b9050949350505050565b7f436f756c64206e6f74207472616e736665722045544820746f2073706c697400600082015250565b6000615f32601f83613e35565b9150615f3d82615efc565b602082019050919050565b60006020820190508181036000830152615f6181615f25565b9050919050565b600060a082019050615f7d6000830188613ee5565b615f8a6020830187613ee5565b615f976040830186613cb0565b615fa46060830185613cb0565b8181036080830152615fb68184615878565b9050969550505050505056fea2646970667358221220ba014340931245fc794b3edd86f6040853f145610608693f297502fc96c7768464736f6c63430008090033",
  "linkReferences": {},
  "deployedLinkReferences": {}
}