{
  "_format": "hh-sol-artifact-1",
  "contractName": "DCNTSDK",
  "sourceName": "contracts/DCNTSDK.sol",
  "abi": [
    {
      "inputs": [
        {
          "internalType": "address",
          "name": "_DCNT721AImplementation",
          "type": "address"
        },
        {
          "internalType": "address",
          "name": "_DCNT4907AImplementation",
          "type": "address"
        },
        {
          "internalType": "address",
          "name": "_DCNTCrescendoImplementation",
          "type": "address"
        },
        {
          "internalType": "address",
          "name": "_DCNTVaultImplementation",
          "type": "address"
        },
        {
          "internalType": "address",
          "name": "_DCNTStakingImplementation",
          "type": "address"
        },
        {
          "internalType": "address",
          "name": "_metadataRenderer",
          "type": "address"
        },
        {
          "internalType": "address",
          "name": "_contractRegistry",
          "type": "address"
        },
        {
          "internalType": "address",
          "name": "_SplitMain",
          "type": "address"
        },
        {
          "internalType": "address",
          "name": "_ZKEditionImplementation",
          "type": "address"
        }
      ],
      "stateMutability": "nonpayable",
      "type": "constructor"
    },
    {
      "anonymous": false,
      "inputs": [
        {
          "indexed": false,
          "internalType": "address",
          "name": "DCNT4907A",
          "type": "address"
        }
      ],
      "name": "DeployDCNT4907A",
      "type": "event"
    },
    {
      "anonymous": false,
      "inputs": [
        {
          "indexed": false,
          "internalType": "address",
          "name": "DCNT721A",
          "type": "address"
        }
      ],
      "name": "DeployDCNT721A",
      "type": "event"
    },
    {
      "anonymous": false,
      "inputs": [
        {
          "indexed": false,
          "internalType": "address",
          "name": "DCNTCrescendo",
          "type": "address"
        }
      ],
      "name": "DeployDCNTCrescendo",
      "type": "event"
    },
    {
      "anonymous": false,
      "inputs": [
        {
          "indexed": false,
          "internalType": "address",
          "name": "DCNTStaking",
          "type": "address"
        }
      ],
      "name": "DeployDCNTStaking",
      "type": "event"
    },
    {
      "anonymous": false,
      "inputs": [
        {
          "indexed": false,
          "internalType": "address",
          "name": "DCNTVault",
          "type": "address"
        }
      ],
      "name": "DeployDCNTVault",
      "type": "event"
    },
    {
      "anonymous": false,
      "inputs": [
        {
          "indexed": false,
          "internalType": "address",
          "name": "ZKEdition",
          "type": "address"
        }
      ],
      "name": "DeployZKEdition",
      "type": "event"
    },
    {
      "anonymous": false,
      "inputs": [
        {
          "indexed": true,
          "internalType": "address",
          "name": "previousOwner",
          "type": "address"
        },
        {
          "indexed": true,
          "internalType": "address",
          "name": "newOwner",
          "type": "address"
        }
      ],
      "name": "OwnershipTransferred",
      "type": "event"
    },
    {
      "inputs": [],
      "name": "DCNT4907AImplementation",
      "outputs": [
        {
          "internalType": "address",
          "name": "",
          "type": "address"
        }
      ],
      "stateMutability": "view",
      "type": "function"
    },
    {
      "inputs": [],
      "name": "DCNT721AImplementation",
      "outputs": [
        {
          "internalType": "address",
          "name": "",
          "type": "address"
        }
      ],
      "stateMutability": "view",
      "type": "function"
    },
    {
      "inputs": [],
      "name": "DCNTCrescendoImplementation",
      "outputs": [
        {
          "internalType": "address",
          "name": "",
          "type": "address"
        }
      ],
      "stateMutability": "view",
      "type": "function"
    },
    {
      "inputs": [],
      "name": "DCNTStakingImplementation",
      "outputs": [
        {
          "internalType": "address",
          "name": "",
          "type": "address"
        }
      ],
      "stateMutability": "view",
      "type": "function"
    },
    {
      "inputs": [],
      "name": "DCNTVaultImplementation",
      "outputs": [
        {
          "internalType": "address",
          "name": "",
          "type": "address"
        }
      ],
      "stateMutability": "view",
      "type": "function"
    },
    {
      "inputs": [],
      "name": "SplitMain",
      "outputs": [
        {
          "internalType": "address",
          "name": "",
          "type": "address"
        }
      ],
      "stateMutability": "view",
      "type": "function"
    },
    {
      "inputs": [],
      "name": "ZKEditionImplementation",
      "outputs": [
        {
          "internalType": "address",
          "name": "",
          "type": "address"
        }
      ],
      "stateMutability": "view",
      "type": "function"
    },
    {
      "inputs": [],
      "name": "contractRegistry",
      "outputs": [
        {
          "internalType": "address",
          "name": "",
          "type": "address"
        }
      ],
      "stateMutability": "view",
      "type": "function"
    },
    {
      "inputs": [
        {
          "components": [
            {
              "internalType": "string",
              "name": "name",
              "type": "string"
            },
            {
              "internalType": "string",
              "name": "symbol",
              "type": "string"
            },
            {
              "internalType": "bool",
              "name": "hasAdjustableCap",
              "type": "bool"
            },
            {
              "internalType": "bool",
              "name": "isSoulbound",
              "type": "bool"
            },
            {
              "internalType": "uint256",
              "name": "maxTokens",
              "type": "uint256"
            },
            {
              "internalType": "uint256",
              "name": "tokenPrice",
              "type": "uint256"
            },
            {
              "internalType": "uint256",
              "name": "maxTokenPurchase",
              "type": "uint256"
            },
            {
              "internalType": "bytes32",
              "name": "presaleMerkleRoot",
              "type": "bytes32"
            },
            {
              "internalType": "uint256",
              "name": "presaleStart",
              "type": "uint256"
            },
            {
              "internalType": "uint256",
              "name": "presaleEnd",
              "type": "uint256"
            },
            {
              "internalType": "uint256",
              "name": "saleStart",
              "type": "uint256"
            },
            {
              "internalType": "uint256",
              "name": "saleEnd",
              "type": "uint256"
            },
            {
              "internalType": "uint256",
              "name": "royaltyBPS",
              "type": "uint256"
            },
            {
              "internalType": "address",
              "name": "payoutAddress",
              "type": "address"
            }
          ],
          "internalType": "struct EditionConfig",
          "name": "_editionConfig",
          "type": "tuple"
        },
        {
          "components": [
            {
              "internalType": "string",
              "name": "contractURI",
              "type": "string"
            },
            {
              "internalType": "string",
              "name": "metadataURI",
              "type": "string"
            },
            {
              "internalType": "bytes",
              "name": "metadataRendererInit",
              "type": "bytes"
            },
            {
              "internalType": "address",
              "name": "parentIP",
              "type": "address"
            }
          ],
          "internalType": "struct MetadataConfig",
          "name": "_metadataConfig",
          "type": "tuple"
        },
        {
          "components": [
            {
              "internalType": "address",
              "name": "tokenAddress",
              "type": "address"
            },
            {
              "internalType": "uint88",
              "name": "minBalance",
              "type": "uint88"
            },
            {
              "internalType": "enum SaleType",
              "name": "saleType",
              "type": "uint8"
            }
          ],
          "internalType": "struct TokenGateConfig",
          "name": "_tokenGateConfig",
          "type": "tuple"
        }
      ],
      "name": "deployDCNT4907A",
      "outputs": [
        {
          "internalType": "address",
          "name": "clone",
          "type": "address"
        }
      ],
      "stateMutability": "nonpayable",
      "type": "function"
    },
    {
      "inputs": [
        {
          "components": [
            {
              "internalType": "string",
              "name": "name",
              "type": "string"
            },
            {
              "internalType": "string",
              "name": "symbol",
              "type": "string"
            },
            {
              "internalType": "bool",
              "name": "hasAdjustableCap",
              "type": "bool"
            },
            {
              "internalType": "bool",
              "name": "isSoulbound",
              "type": "bool"
            },
            {
              "internalType": "uint256",
              "name": "maxTokens",
              "type": "uint256"
            },
            {
              "internalType": "uint256",
              "name": "tokenPrice",
              "type": "uint256"
            },
            {
              "internalType": "uint256",
              "name": "maxTokenPurchase",
              "type": "uint256"
            },
            {
              "internalType": "bytes32",
              "name": "presaleMerkleRoot",
              "type": "bytes32"
            },
            {
              "internalType": "uint256",
              "name": "presaleStart",
              "type": "uint256"
            },
            {
              "internalType": "uint256",
              "name": "presaleEnd",
              "type": "uint256"
            },
            {
              "internalType": "uint256",
              "name": "saleStart",
              "type": "uint256"
            },
            {
              "internalType": "uint256",
              "name": "saleEnd",
              "type": "uint256"
            },
            {
              "internalType": "uint256",
              "name": "royaltyBPS",
              "type": "uint256"
            },
            {
              "internalType": "address",
              "name": "payoutAddress",
              "type": "address"
            }
          ],
          "internalType": "struct EditionConfig",
          "name": "_editionConfig",
          "type": "tuple"
        },
        {
          "components": [
            {
              "internalType": "string",
              "name": "contractURI",
              "type": "string"
            },
            {
              "internalType": "string",
              "name": "metadataURI",
              "type": "string"
            },
            {
              "internalType": "bytes",
              "name": "metadataRendererInit",
              "type": "bytes"
            },
            {
              "internalType": "address",
              "name": "parentIP",
              "type": "address"
            }
          ],
          "internalType": "struct MetadataConfig",
          "name": "_metadataConfig",
          "type": "tuple"
        },
        {
          "components": [
            {
              "internalType": "address",
              "name": "tokenAddress",
              "type": "address"
            },
            {
              "internalType": "uint88",
              "name": "minBalance",
              "type": "uint88"
            },
            {
              "internalType": "enum SaleType",
              "name": "saleType",
              "type": "uint8"
            }
          ],
          "internalType": "struct TokenGateConfig",
          "name": "_tokenGateConfig",
          "type": "tuple"
        }
      ],
      "name": "deployDCNT721A",
      "outputs": [
        {
          "internalType": "address",
          "name": "clone",
          "type": "address"
        }
      ],
      "stateMutability": "nonpayable",
      "type": "function"
    },
    {
      "inputs": [
        {
          "components": [
            {
              "internalType": "string",
              "name": "name",
              "type": "string"
            },
            {
              "internalType": "string",
              "name": "symbol",
              "type": "string"
            },
            {
              "internalType": "uint256",
              "name": "initialPrice",
              "type": "uint256"
            },
            {
              "internalType": "uint256",
              "name": "step1",
              "type": "uint256"
            },
            {
              "internalType": "uint256",
              "name": "step2",
              "type": "uint256"
            },
            {
              "internalType": "uint256",
              "name": "hitch",
              "type": "uint256"
            },
            {
              "internalType": "uint256",
              "name": "takeRateBPS",
              "type": "uint256"
            },
            {
              "internalType": "uint256",
              "name": "unlockDate",
              "type": "uint256"
            },
            {
              "internalType": "uint256",
              "name": "saleStart",
              "type": "uint256"
            },
            {
              "internalType": "uint256",
              "name": "royaltyBPS",
              "type": "uint256"
            }
          ],
          "internalType": "struct CrescendoConfig",
          "name": "_config",
          "type": "tuple"
        },
        {
          "components": [
            {
              "internalType": "string",
              "name": "contractURI",
              "type": "string"
            },
            {
              "internalType": "string",
              "name": "metadataURI",
              "type": "string"
            },
            {
              "internalType": "bytes",
              "name": "metadataRendererInit",
              "type": "bytes"
            },
            {
              "internalType": "address",
              "name": "parentIP",
              "type": "address"
            }
          ],
          "internalType": "struct MetadataConfig",
          "name": "_metadataConfig",
          "type": "tuple"
        }
      ],
      "name": "deployDCNTCrescendo",
      "outputs": [
        {
          "internalType": "address",
          "name": "clone",
          "type": "address"
        }
      ],
      "stateMutability": "nonpayable",
      "type": "function"
    },
    {
      "inputs": [
        {
          "internalType": "address",
          "name": "_nft",
          "type": "address"
        },
        {
          "internalType": "address",
          "name": "_token",
          "type": "address"
        },
        {
          "internalType": "uint256",
          "name": "_vaultDuration",
          "type": "uint256"
        },
        {
          "internalType": "uint256",
          "name": "_totalSupply",
          "type": "uint256"
        }
      ],
      "name": "deployDCNTStaking",
      "outputs": [
        {
          "internalType": "address",
          "name": "clone",
          "type": "address"
        }
      ],
      "stateMutability": "nonpayable",
      "type": "function"
    },
    {
      "inputs": [
        {
          "internalType": "address",
          "name": "_vaultDistributionTokenAddress",
          "type": "address"
        },
        {
          "internalType": "address",
          "name": "_nftVaultKeyAddress",
          "type": "address"
        },
        {
          "internalType": "uint256",
          "name": "_nftTotalSupply",
          "type": "uint256"
        },
        {
          "internalType": "uint256",
          "name": "_unlockDate",
          "type": "uint256"
        }
      ],
      "name": "deployDCNTVault",
      "outputs": [
        {
          "internalType": "address",
          "name": "clone",
          "type": "address"
        }
      ],
      "stateMutability": "nonpayable",
      "type": "function"
    },
    {
      "inputs": [
        {
          "components": [
            {
              "internalType": "string",
              "name": "name",
              "type": "string"
            },
            {
              "internalType": "string",
              "name": "symbol",
              "type": "string"
            },
            {
              "internalType": "bool",
              "name": "hasAdjustableCap",
              "type": "bool"
            },
            {
              "internalType": "bool",
              "name": "isSoulbound",
              "type": "bool"
            },
            {
              "internalType": "uint256",
              "name": "maxTokens",
              "type": "uint256"
            },
            {
              "internalType": "uint256",
              "name": "tokenPrice",
              "type": "uint256"
            },
            {
              "internalType": "uint256",
              "name": "maxTokenPurchase",
              "type": "uint256"
            },
            {
              "internalType": "bytes32",
              "name": "presaleMerkleRoot",
              "type": "bytes32"
            },
            {
              "internalType": "uint256",
              "name": "presaleStart",
              "type": "uint256"
            },
            {
              "internalType": "uint256",
              "name": "presaleEnd",
              "type": "uint256"
            },
            {
              "internalType": "uint256",
              "name": "saleStart",
              "type": "uint256"
            },
            {
              "internalType": "uint256",
              "name": "saleEnd",
              "type": "uint256"
            },
            {
              "internalType": "uint256",
              "name": "royaltyBPS",
              "type": "uint256"
            },
            {
              "internalType": "address",
              "name": "payoutAddress",
              "type": "address"
            }
          ],
          "internalType": "struct EditionConfig",
          "name": "_editionConfig",
          "type": "tuple"
        },
        {
          "components": [
            {
              "internalType": "string",
              "name": "contractURI",
              "type": "string"
            },
            {
              "internalType": "string",
              "name": "metadataURI",
              "type": "string"
            },
            {
              "internalType": "bytes",
              "name": "metadataRendererInit",
              "type": "bytes"
            },
            {
              "internalType": "address",
              "name": "parentIP",
              "type": "address"
            }
          ],
          "internalType": "struct MetadataConfig",
          "name": "_metadataConfig",
          "type": "tuple"
        },
        {
          "components": [
            {
              "internalType": "address",
              "name": "tokenAddress",
              "type": "address"
            },
            {
              "internalType": "uint88",
              "name": "minBalance",
              "type": "uint88"
            },
            {
              "internalType": "enum SaleType",
              "name": "saleType",
              "type": "uint8"
            }
          ],
          "internalType": "struct TokenGateConfig",
          "name": "_tokenGateConfig",
          "type": "tuple"
        },
        {
          "internalType": "address",
          "name": "zkVerifier",
          "type": "address"
        }
      ],
      "name": "deployZKEdition",
      "outputs": [
        {
          "internalType": "address",
          "name": "clone",
          "type": "address"
        }
      ],
      "stateMutability": "nonpayable",
      "type": "function"
    },
    {
      "inputs": [],
      "name": "metadataRenderer",
      "outputs": [
        {
          "internalType": "address",
          "name": "",
          "type": "address"
        }
      ],
      "stateMutability": "view",
      "type": "function"
    },
    {
      "inputs": [],
      "name": "owner",
      "outputs": [
        {
          "internalType": "address",
          "name": "",
          "type": "address"
        }
      ],
      "stateMutability": "view",
      "type": "function"
    },
    {
      "inputs": [],
      "name": "renounceOwnership",
      "outputs": [],
      "stateMutability": "nonpayable",
      "type": "function"
    },
    {
      "inputs": [
        {
          "internalType": "address",
          "name": "newOwner",
          "type": "address"
        }
      ],
      "name": "transferOwnership",
      "outputs": [],
      "stateMutability": "nonpayable",
      "type": "function"
    }
  ],
  "bytecode": "0x60806040523480156200001157600080fd5b50604051620019f2380380620019f283398101604081905262000034916200014d565b6200003f33620000e0565b600180546001600160a01b03199081166001600160a01b039b8c1617909155600280548216998b1699909917909855600380548916978a1697909717909655600480548816958916959095179094556005805487169388169390931790925560078054861691871691909117905560088054851691861691909117905560098054841691851691909117905560068054909216921691909117905562000208565b600080546001600160a01b038381166001600160a01b0319831681178455604051919092169283917f8be0079c531659141344cd1fd0a4f28419497f9722a3daafe3b4186f6b6457e09190a35050565b80516001600160a01b03811681146200014857600080fd5b919050565b60008060008060008060008060006101208a8c0312156200016d57600080fd5b620001788a62000130565b98506200018860208b0162000130565b97506200019860408b0162000130565b9650620001a860608b0162000130565b9550620001b860808b0162000130565b9450620001c860a08b0162000130565b9350620001d860c08b0162000130565b9250620001e860e08b0162000130565b9150620001f96101008b0162000130565b90509295985092959850929598565b6117da80620002186000396000f3fe608060405234801561001057600080fd5b50600436106101165760003560e01c80639e5d4c6f116100a2578063ca825bb511610071578063ca825bb514610223578063d0ae315a14610236578063eef702e914610249578063f130df961461025c578063f2fde38b1461026f57600080fd5b80639e5d4c6f146101d75780639f61dfec146101ea578063abf410e5146101fd578063bc10a4fa1461021057600080fd5b80634285656b116100e95780634285656b146101835780637031997014610196578063715018a6146101a957806373d622f8146101b35780638da5cb5b146101c657600080fd5b806306b3ef651461011b57806310a089131461014a578063389058981461015d5780633c3b370b14610170575b600080fd5b61012e610129366004611183565b610282565b6040516001600160a01b03909116815260200160405180910390f35b60015461012e906001600160a01b031681565b61012e61016b3660046111f8565b610420565b60055461012e906001600160a01b031681565b60025461012e906001600160a01b031681565b60075461012e906001600160a01b031681565b6101b16105bb565b005b61012e6101c1366004611305565b6105cf565b6000546001600160a01b031661012e565b61012e6101e5366004611347565b610773565b60045461012e906001600160a01b031681565b60085461012e906001600160a01b031681565b61012e61021e366004611305565b610907565b60035461012e906001600160a01b031681565b60065461012e906001600160a01b031681565b60095461012e906001600160a01b031681565b61012e61026a366004611183565b610aa0565b6101b161027d3660046113cd565b610c32565b60025460009061029a906001600160a01b0316610cb0565b6007546009546040519293506000926001600160a01b03808616936102d09333938b938b938b93908216929116906024016115c7565b60408051601f198184030181529181526020820180516001600160e01b03166305881b4b60e41b17905251610305919061162d565b6000604051808303816000865af19150503d8060008114610342576040519150601f19603f3d011682016040523d82523d6000602084013e610347565b606091505b505090508061035557600080fd5b60085460405163ede4973960e01b81523360048201526001600160a01b03848116602483015260606044830152600960648301526844434e54343930374160b81b60848301529091169063ede497399060a401600060405180830381600087803b1580156103c257600080fd5b505af11580156103d6573d6000803e3d6000fd5b50506040516001600160a01b03851681527f3758a9cde202b40b236c1867c2734461fd598d835ad020bda26ca4f85838f2c4925060200190505b60405180910390a1509392505050565b600354600090610438906001600160a01b0316610cb0565b6007546009546040519293506000926001600160a01b038086169361046a9333938a938a938116921690602401611649565b60408051601f198184030181529181526020820180516001600160e01b0316624ee2bb60e71b1790525161049e919061162d565b6000604051808303816000865af19150503d80600081146104db576040519150601f19603f3d011682016040523d82523d6000602084013e6104e0565b606091505b50509050806104ee57600080fd5b60085460405163ede4973960e01b81523360048201526001600160a01b03848116602483015260606044830152600d60648301526c44434e544372657363656e646f60981b60848301529091169063ede497399060a401600060405180830381600087803b15801561055f57600080fd5b505af1158015610573573d6000803e3d6000fd5b50506040516001600160a01b03851681527f2c14c8ffafc8bfdf42e6469d6c292eeaebf445beafb817fb0bc9df3ebd89f0069250602001905060405180910390a15092915050565b6105c3610d4a565b6105cd6000610da4565b565b6004546000906105e7906001600160a01b0316610cb0565b6040513360248201526001600160a01b03878116604483015286811660648301526084820186905260a4820185905291925060009183169060c40160408051601f198184030181529181526020820180516001600160e01b03166314d6c7d760e31b17905251610657919061162d565b6000604051808303816000865af19150503d8060008114610694576040519150601f19603f3d011682016040523d82523d6000602084013e610699565b606091505b50509050806106a757600080fd5b60085460405163ede4973960e01b81523360048201526001600160a01b0384811660248301526060604483015260096064830152681110d39515985d5b1d60ba1b60848301529091169063ede497399060a401600060405180830381600087803b15801561071457600080fd5b505af1158015610728573d6000803e3d6000fd5b50506040516001600160a01b03851681527ff12b488daa6140ffee78fe266c37addbbaea912b09ce36e613a17844dac4255b925060200190505b60405180910390a150949350505050565b60065460009061078b906001600160a01b0316610cb0565b6007546009546040519293506000926001600160a01b03808616936107c39333938c938c938c93908216929116908b90602401611736565b60408051601f198184030181529181526020820180516001600160e01b031663e24c424d60e01b179052516107f8919061162d565b6000604051808303816000865af19150503d8060008114610835576040519150601f19603f3d011682016040523d82523d6000602084013e61083a565b606091505b505090508061084857600080fd5b60085460405163ede4973960e01b81523360048201526001600160a01b0384811660248301526060604483015260096064830152682d25a2b234ba34b7b760b91b60848301529091169063ede497399060a401600060405180830381600087803b1580156108b557600080fd5b505af11580156108c9573d6000803e3d6000fd5b50506040516001600160a01b03851681527f49451ac6869c0fa590f484823265bd786e5c483c78431c2fc0cc2f7f939678e492506020019050610762565b60055460009061091f906001600160a01b0316610cb0565b6040513360248201526001600160a01b03878116604483015286811660648301526084820186905260a4820185905291925060009183169060c40160408051601f198184030181529181526020820180516001600160e01b03166314d6c7d760e31b1790525161098f919061162d565b6000604051808303816000865af19150503d80600081146109cc576040519150601f19603f3d011682016040523d82523d6000602084013e6109d1565b606091505b50509050806109df57600080fd5b60085460405163ede4973960e01b81523360048201526001600160a01b03848116602483015260606044830152600b60648301526a44434e545374616b696e6760a81b60848301529091169063ede497399060a401600060405180830381600087803b158015610a4e57600080fd5b505af1158015610a62573d6000803e3d6000fd5b50506040516001600160a01b03851681527fe9eeb18af71a650338802cfcb86b39b211ed34fd8a37cacc5a16514a183e8d6692506020019050610762565b600154600090610ab8906001600160a01b0316610cb0565b6007546009546040519293506000926001600160a01b0380861693610aee9333938b938b938b93908216929116906024016115c7565b60408051601f198184030181529181526020820180516001600160e01b03166305881b4b60e41b17905251610b23919061162d565b6000604051808303816000865af19150503d8060008114610b60576040519150601f19603f3d011682016040523d82523d6000602084013e610b65565b606091505b5050905080610b7357600080fd5b6008805460405163ede4973960e01b81523360048201526001600160a01b0385811660248301526060604483015260648201939093526744434e543732314160c01b608482015291169063ede497399060a401600060405180830381600087803b158015610be057600080fd5b505af1158015610bf4573d6000803e3d6000fd5b50506040516001600160a01b03851681527f149ce80ffd882db4157fb46dd05201336d87f52ace89212615557e5455b8a0df92506020019050610410565b610c3a610d4a565b6001600160a01b038116610ca45760405162461bcd60e51b815260206004820152602660248201527f4f776e61626c653a206e6577206f776e657220697320746865207a65726f206160448201526564647265737360d01b60648201526084015b60405180910390fd5b610cad81610da4565b50565b6000763d602d80600a3d3981f3363d3d373d3d3d363d730000008260601b60e81c176000526e5af43d82803e903d91602b57fd5bf38260781b17602052603760096000f090506001600160a01b038116610d455760405162461bcd60e51b8152602060048201526016602482015275115490cc4c4d8dce8818dc99585d194819985a5b195960521b6044820152606401610c9b565b919050565b6000546001600160a01b031633146105cd5760405162461bcd60e51b815260206004820181905260248201527f4f776e61626c653a2063616c6c6572206973206e6f7420746865206f776e65726044820152606401610c9b565b600080546001600160a01b038381166001600160a01b0319831681178455604051919092169283917f8be0079c531659141344cd1fd0a4f28419497f9722a3daafe3b4186f6b6457e09190a35050565b634e487b7160e01b600052604160045260246000fd5b6040516101c0810167ffffffffffffffff81118282101715610e2e57610e2e610df4565b60405290565b6040516080810167ffffffffffffffff81118282101715610e2e57610e2e610df4565b604051610140810167ffffffffffffffff81118282101715610e2e57610e2e610df4565b600067ffffffffffffffff80841115610e9657610e96610df4565b604051601f8501601f19908116603f01168101908282118183101715610ebe57610ebe610df4565b81604052809350858152868686011115610ed757600080fd5b858560208301376000602087830101525050509392505050565b600082601f830112610f0257600080fd5b610f1183833560208501610e7b565b9392505050565b80358015158114610d4557600080fd5b80356001600160a01b0381168114610d4557600080fd5b60006101c08284031215610f5257600080fd5b610f5a610e0a565b9050813567ffffffffffffffff80821115610f7457600080fd5b610f8085838601610ef1565b83526020840135915080821115610f9657600080fd5b50610fa384828501610ef1565b602083015250610fb560408301610f18565b6040820152610fc660608301610f18565b60608201526080828101359082015260a0808301359082015260c0808301359082015260e08083013590820152610100808301359082015261012080830135908201526101408083013590820152610160808301359082015261018080830135908201526101a0611038818401610f28565b9082015292915050565b60006080828403121561105457600080fd5b61105c610e34565b9050813567ffffffffffffffff8082111561107657600080fd5b61108285838601610ef1565b8352602084013591508082111561109857600080fd5b6110a485838601610ef1565b602084015260408401359150808211156110bd57600080fd5b508201601f810184136110cf57600080fd5b6110de84823560208401610e7b565b6040830152506110f060608301610f28565b606082015292915050565b60006060828403121561110d57600080fd5b6040516060810181811067ffffffffffffffff8211171561113057611130610df4565b60405290508061113f83610f28565b815260208301356affffffffffffffffffffff8116811461115f57600080fd5b602082015260408301356003811061117657600080fd5b6040919091015292915050565b600080600060a0848603121561119857600080fd5b833567ffffffffffffffff808211156111b057600080fd5b6111bc87838801610f3f565b945060208601359150808211156111d257600080fd5b506111df86828701611042565b9250506111ef85604086016110fb565b90509250925092565b6000806040838503121561120b57600080fd5b823567ffffffffffffffff8082111561122357600080fd5b90840190610140828703121561123857600080fd5b611240610e57565b82358281111561124f57600080fd5b61125b88828601610ef1565b82525060208301358281111561127057600080fd5b61127c88828601610ef1565b60208301525060408301356040820152606083013560608201526080830135608082015260a083013560a082015260c083013560c082015260e083013560e08201526101008084013581830152506101208084013581830152508094505060208501359150808211156112ee57600080fd5b506112fb85828601611042565b9150509250929050565b6000806000806080858703121561131b57600080fd5b61132485610f28565b935061133260208601610f28565b93969395505050506040820135916060013590565b60008060008060c0858703121561135d57600080fd5b843567ffffffffffffffff8082111561137557600080fd5b61138188838901610f3f565b9550602087013591508082111561139757600080fd5b506113a487828801611042565b9350506113b486604087016110fb565b91506113c260a08601610f28565b905092959194509250565b6000602082840312156113df57600080fd5b610f1182610f28565b60005b838110156114035781810151838201526020016113eb565b50506000910152565b600081518084526114248160208601602086016113e8565b601f01601f19169290920160200192915050565b60006101c0825181855261144e8286018261140c565b91505060208301518482036020860152611468828261140c565b915050604083015161147e604086018215159052565b506060830151611492606086018215159052565b506080838101519085015260a0808401519085015260c0808401519085015260e08084015190850152610100808401519085015261012080840151908501526101408084015190850152610160808401519085015261018080840151908501526101a0928301516001600160a01b031692909301919091525090565b6000815160808452611523608085018261140c565b90506020830151848203602086015261153c828261140c565b91505060408301518482036040860152611556828261140c565b6060948501516001600160a01b03169590940194909452509092915050565b80516001600160a01b031682526020808201516affffffffffffffffffffff16908301526040810151600381106115bc57634e487b7160e01b600052602160045260246000fd5b806040840152505050565b6001600160a01b038781168252610100602083018190526000916115ed8483018a611438565b91508382036040850152611601828961150e565b92506116106060850188611575565b80861660c085015280851660e08501525050979650505050505050565b6000825161163f8184602087016113e8565b9190910192915050565b60018060a01b038616815260a06020820152600085516101408060a08501526116766101e085018361140c565b91506020880151609f198584030160c0860152611693838261140c565b925050604088015160e08501526060880151610100818187015260808a01519150610120828188015260a08b01518488015260c08b015161016088015260e08b0151610180880152818b01516101a0880152808b01516101c0880152505050508281036040840152611705818761150e565b91505061171d60608301856001600160a01b03169052565b6001600160a01b03831660808301529695505050505050565b6001600160a01b0388811682526101206020830181905260009161175c8483018b611438565b91508382036040850152611770828a61150e565b925061177f6060850189611575565b95861660c08401525092841660e082015292166101009092019190915294935050505056fea2646970667358221220d3d077f7d179bc0a7bf391c010f617eb6ef825dbcfde6d625f63f8105f60facf64736f6c63430008110033",
  "linkReferences": {},
  "deployedLinkReferences": {}
}