{
  "_format": "hh-sol-artifact-1",
  "contractName": "DCNT721A",
  "sourceName": "contracts/DCNT721A.sol",
  "abi": [
    {
      "inputs": [],
      "name": "ApprovalCallerNotOwnerNorApproved",
      "type": "error"
    },
    {
      "inputs": [],
      "name": "ApprovalQueryForNonexistentToken",
      "type": "error"
    },
    {
      "inputs": [],
      "name": "ApproveToCaller",
      "type": "error"
    },
    {
      "inputs": [],
      "name": "BalanceQueryForZeroAddress",
      "type": "error"
    },
    {
      "inputs": [],
      "name": "MintERC2309QuantityExceedsLimit",
      "type": "error"
    },
    {
      "inputs": [],
      "name": "MintToZeroAddress",
      "type": "error"
    },
    {
      "inputs": [],
      "name": "MintZeroQuantity",
      "type": "error"
    },
    {
      "inputs": [],
      "name": "OwnerQueryForNonexistentToken",
      "type": "error"
    },
    {
      "inputs": [],
      "name": "OwnershipNotInitializedForExtraData",
      "type": "error"
    },
    {
      "inputs": [],
      "name": "TransferCallerNotOwnerNorApproved",
      "type": "error"
    },
    {
      "inputs": [],
      "name": "TransferFromIncorrectOwner",
      "type": "error"
    },
    {
      "inputs": [],
      "name": "TransferToNonERC721ReceiverImplementer",
      "type": "error"
    },
    {
      "inputs": [],
      "name": "TransferToZeroAddress",
      "type": "error"
    },
    {
      "inputs": [],
      "name": "URIQueryForNonexistentToken",
      "type": "error"
    },
    {
      "anonymous": false,
      "inputs": [
        {
          "indexed": true,
          "internalType": "address",
          "name": "owner",
          "type": "address"
        },
        {
          "indexed": true,
          "internalType": "address",
          "name": "approved",
          "type": "address"
        },
        {
          "indexed": true,
          "internalType": "uint256",
          "name": "tokenId",
          "type": "uint256"
        }
      ],
      "name": "Approval",
      "type": "event"
    },
    {
      "anonymous": false,
      "inputs": [
        {
          "indexed": true,
          "internalType": "address",
          "name": "owner",
          "type": "address"
        },
        {
          "indexed": true,
          "internalType": "address",
          "name": "operator",
          "type": "address"
        },
        {
          "indexed": false,
          "internalType": "bool",
          "name": "approved",
          "type": "bool"
        }
      ],
      "name": "ApprovalForAll",
      "type": "event"
    },
    {
      "anonymous": false,
      "inputs": [
        {
          "indexed": true,
          "internalType": "uint256",
          "name": "fromTokenId",
          "type": "uint256"
        },
        {
          "indexed": false,
          "internalType": "uint256",
          "name": "toTokenId",
          "type": "uint256"
        },
        {
          "indexed": true,
          "internalType": "address",
          "name": "from",
          "type": "address"
        },
        {
          "indexed": true,
          "internalType": "address",
          "name": "to",
          "type": "address"
        }
      ],
      "name": "ConsecutiveTransfer",
      "type": "event"
    },
    {
      "anonymous": false,
      "inputs": [
        {
          "indexed": false,
          "internalType": "uint8",
          "name": "version",
          "type": "uint8"
        }
      ],
      "name": "Initialized",
      "type": "event"
    },
    {
      "anonymous": false,
      "inputs": [
        {
          "indexed": false,
          "internalType": "address",
          "name": "sender",
          "type": "address"
        },
        {
          "indexed": false,
          "internalType": "uint256",
          "name": "tokenId_",
          "type": "uint256"
        }
      ],
      "name": "Minted",
      "type": "event"
    },
    {
      "anonymous": false,
      "inputs": [
        {
          "indexed": true,
          "internalType": "address",
          "name": "previousOwner",
          "type": "address"
        },
        {
          "indexed": true,
          "internalType": "address",
          "name": "newOwner",
          "type": "address"
        }
      ],
      "name": "OwnershipTransferred",
      "type": "event"
    },
    {
      "anonymous": false,
      "inputs": [
        {
          "indexed": true,
          "internalType": "address",
          "name": "from",
          "type": "address"
        },
        {
          "indexed": true,
          "internalType": "address",
          "name": "to",
          "type": "address"
        },
        {
          "indexed": true,
          "internalType": "uint256",
          "name": "tokenId",
          "type": "uint256"
        }
      ],
      "name": "Transfer",
      "type": "event"
    },
    {
      "inputs": [],
      "name": "MAX_TOKENS",
      "outputs": [
        {
          "internalType": "uint256",
          "name": "",
          "type": "uint256"
        }
      ],
      "stateMutability": "view",
      "type": "function"
    },
    {
      "inputs": [
        {
          "internalType": "uint256",
          "name": "newCap",
          "type": "uint256"
        }
      ],
      "name": "adjustCap",
      "outputs": [],
      "stateMutability": "nonpayable",
      "type": "function"
    },
    {
      "inputs": [],
      "name": "adjustableCap",
      "outputs": [
        {
          "internalType": "bool",
          "name": "",
          "type": "bool"
        }
      ],
      "stateMutability": "view",
      "type": "function"
    },
    {
      "inputs": [
        {
          "internalType": "address",
          "name": "to",
          "type": "address"
        },
        {
          "internalType": "uint256",
          "name": "tokenId",
          "type": "uint256"
        }
      ],
      "name": "approve",
      "outputs": [],
      "stateMutability": "nonpayable",
      "type": "function"
    },
    {
      "inputs": [
        {
          "internalType": "address",
          "name": "owner",
          "type": "address"
        }
      ],
      "name": "balanceOf",
      "outputs": [
        {
          "internalType": "uint256",
          "name": "",
          "type": "uint256"
        }
      ],
      "stateMutability": "view",
      "type": "function"
    },
    {
      "inputs": [],
      "name": "baseURI",
      "outputs": [
        {
          "internalType": "string",
          "name": "",
          "type": "string"
        }
      ],
      "stateMutability": "view",
      "type": "function"
    },
    {
      "inputs": [],
      "name": "contractURI",
      "outputs": [
        {
          "internalType": "string",
          "name": "",
          "type": "string"
        }
      ],
      "stateMutability": "view",
      "type": "function"
    },
    {
      "inputs": [
        {
          "internalType": "address[]",
          "name": "accounts",
          "type": "address[]"
        },
        {
          "internalType": "uint32[]",
          "name": "percentAllocations",
          "type": "uint32[]"
        },
        {
          "internalType": "uint32",
          "name": "distributorFee",
          "type": "uint32"
        }
      ],
      "name": "createSplit",
      "outputs": [],
      "stateMutability": "nonpayable",
      "type": "function"
    },
    {
      "inputs": [
        {
          "internalType": "address",
          "name": "account",
          "type": "address"
        },
        {
          "internalType": "uint256",
          "name": "withdrawETH",
          "type": "uint256"
        },
        {
          "internalType": "contract ERC20[]",
          "name": "tokens",
          "type": "address[]"
        },
        {
          "internalType": "address[]",
          "name": "accounts",
          "type": "address[]"
        },
        {
          "internalType": "uint32[]",
          "name": "percentAllocations",
          "type": "uint32[]"
        },
        {
          "internalType": "uint32",
          "name": "distributorFee",
          "type": "uint32"
        },
        {
          "internalType": "address",
          "name": "distributorAddress",
          "type": "address"
        }
      ],
      "name": "distributeAndWithdraw",
      "outputs": [],
      "stateMutability": "nonpayable",
      "type": "function"
    },
    {
      "inputs": [
        {
          "internalType": "contract ERC20",
          "name": "token",
          "type": "address"
        },
        {
          "internalType": "address[]",
          "name": "accounts",
          "type": "address[]"
        },
        {
          "internalType": "uint32[]",
          "name": "percentAllocations",
          "type": "uint32[]"
        },
        {
          "internalType": "uint32",
          "name": "distributorFee",
          "type": "uint32"
        },
        {
          "internalType": "address",
          "name": "distributorAddress",
          "type": "address"
        }
      ],
      "name": "distributeERC20",
      "outputs": [],
      "stateMutability": "nonpayable",
      "type": "function"
    },
    {
      "inputs": [
        {
          "internalType": "address[]",
          "name": "accounts",
          "type": "address[]"
        },
        {
          "internalType": "uint32[]",
          "name": "percentAllocations",
          "type": "uint32[]"
        },
        {
          "internalType": "uint32",
          "name": "distributorFee",
          "type": "uint32"
        },
        {
          "internalType": "address",
          "name": "distributorAddress",
          "type": "address"
        }
      ],
      "name": "distributeETH",
      "outputs": [],
      "stateMutability": "nonpayable",
      "type": "function"
    },
    {
      "inputs": [],
      "name": "flipSaleState",
      "outputs": [],
      "stateMutability": "nonpayable",
      "type": "function"
    },
    {
      "inputs": [
        {
          "internalType": "uint256",
          "name": "tokenId",
          "type": "uint256"
        }
      ],
      "name": "getApproved",
      "outputs": [
        {
          "internalType": "address",
          "name": "",
          "type": "address"
        }
      ],
      "stateMutability": "view",
      "type": "function"
    },
    {
      "inputs": [
        {
          "internalType": "address",
          "name": "_owner",
          "type": "address"
        },
        {
          "components": [
            {
              "internalType": "string",
              "name": "name",
              "type": "string"
            },
            {
              "internalType": "string",
              "name": "symbol",
              "type": "string"
            },
            {
              "internalType": "bool",
              "name": "adjustableCap",
              "type": "bool"
            },
            {
              "internalType": "uint256",
              "name": "maxTokens",
              "type": "uint256"
            },
            {
              "internalType": "uint256",
              "name": "tokenPrice",
              "type": "uint256"
            },
            {
              "internalType": "uint256",
              "name": "maxTokenPurchase",
              "type": "uint256"
            },
            {
              "internalType": "uint256",
              "name": "presaleStart",
              "type": "uint256"
            },
            {
              "internalType": "uint256",
              "name": "presaleEnd",
              "type": "uint256"
            },
            {
              "internalType": "uint256",
              "name": "saleStart",
              "type": "uint256"
            },
            {
              "internalType": "uint256",
              "name": "royaltyBPS",
              "type": "uint256"
            }
          ],
          "internalType": "struct EditionConfig",
          "name": "_editionConfig",
          "type": "tuple"
        },
        {
          "components": [
            {
              "internalType": "string",
              "name": "contractURI",
              "type": "string"
            },
            {
              "internalType": "string",
              "name": "metadataURI",
              "type": "string"
            },
            {
              "internalType": "bytes",
              "name": "metadataRendererInit",
              "type": "bytes"
            },
            {
              "internalType": "address",
              "name": "parentIP",
              "type": "address"
            }
          ],
          "internalType": "struct MetadataConfig",
          "name": "_metadataConfig",
          "type": "tuple"
        },
        {
          "components": [
            {
              "internalType": "address",
              "name": "tokenAddress",
              "type": "address"
            },
            {
              "internalType": "uint88",
              "name": "minBalance",
              "type": "uint88"
            },
            {
              "internalType": "enum SaleType",
              "name": "saleType",
              "type": "uint8"
            }
          ],
          "internalType": "struct TokenGateConfig",
          "name": "_tokenGateConfig",
          "type": "tuple"
        },
        {
          "internalType": "address",
          "name": "_metadataRenderer",
          "type": "address"
        },
        {
          "internalType": "address",
          "name": "_splitMain",
          "type": "address"
        }
      ],
      "name": "initialize",
      "outputs": [],
      "stateMutability": "nonpayable",
      "type": "function"
    },
    {
      "inputs": [
        {
          "internalType": "address",
          "name": "owner",
          "type": "address"
        },
        {
          "internalType": "address",
          "name": "operator",
          "type": "address"
        }
      ],
      "name": "isApprovedForAll",
      "outputs": [
        {
          "internalType": "bool",
          "name": "",
          "type": "bool"
        }
      ],
      "stateMutability": "view",
      "type": "function"
    },
    {
      "inputs": [],
      "name": "maxTokenPurchase",
      "outputs": [
        {
          "internalType": "uint256",
          "name": "",
          "type": "uint256"
        }
      ],
      "stateMutability": "view",
      "type": "function"
    },
    {
      "inputs": [],
      "name": "metadataRenderer",
      "outputs": [
        {
          "internalType": "address",
          "name": "",
          "type": "address"
        }
      ],
      "stateMutability": "view",
      "type": "function"
    },
    {
      "inputs": [
        {
          "internalType": "uint256",
          "name": "numberOfTokens",
          "type": "uint256"
        }
      ],
      "name": "mint",
      "outputs": [],
      "stateMutability": "payable",
      "type": "function"
    },
    {
      "inputs": [
        {
          "internalType": "address[]",
          "name": "recipients",
          "type": "address[]"
        }
      ],
      "name": "mintAirdrop",
      "outputs": [],
      "stateMutability": "nonpayable",
      "type": "function"
    },
    {
      "inputs": [
        {
          "internalType": "uint256",
          "name": "quantity",
          "type": "uint256"
        },
        {
          "internalType": "uint256",
          "name": "maxQuantity",
          "type": "uint256"
        },
        {
          "internalType": "uint256",
          "name": "pricePerToken",
          "type": "uint256"
        },
        {
          "internalType": "bytes32[]",
          "name": "merkleProof",
          "type": "bytes32[]"
        }
      ],
      "name": "mintPresale",
      "outputs": [],
      "stateMutability": "payable",
      "type": "function"
    },
    {
      "inputs": [],
      "name": "name",
      "outputs": [
        {
          "internalType": "string",
          "name": "",
          "type": "string"
        }
      ],
      "stateMutability": "view",
      "type": "function"
    },
    {
      "inputs": [],
      "name": "owner",
      "outputs": [
        {
          "internalType": "address",
          "name": "",
          "type": "address"
        }
      ],
      "stateMutability": "view",
      "type": "function"
    },
    {
      "inputs": [
        {
          "internalType": "uint256",
          "name": "tokenId",
          "type": "uint256"
        }
      ],
      "name": "ownerOf",
      "outputs": [
        {
          "internalType": "address",
          "name": "",
          "type": "address"
        }
      ],
      "stateMutability": "view",
      "type": "function"
    },
    {
      "inputs": [],
      "name": "parentIP",
      "outputs": [
        {
          "internalType": "address",
          "name": "",
          "type": "address"
        }
      ],
      "stateMutability": "view",
      "type": "function"
    },
    {
      "inputs": [],
      "name": "presaleEnd",
      "outputs": [
        {
          "internalType": "uint256",
          "name": "",
          "type": "uint256"
        }
      ],
      "stateMutability": "view",
      "type": "function"
    },
    {
      "inputs": [],
      "name": "presaleStart",
      "outputs": [
        {
          "internalType": "uint256",
          "name": "",
          "type": "uint256"
        }
      ],
      "stateMutability": "view",
      "type": "function"
    },
    {
      "inputs": [],
      "name": "renounceOwnership",
      "outputs": [],
      "stateMutability": "nonpayable",
      "type": "function"
    },
    {
      "inputs": [
        {
          "internalType": "uint256",
          "name": "numReserved",
          "type": "uint256"
        }
      ],
      "name": "reserveDCNT",
      "outputs": [],
      "stateMutability": "nonpayable",
      "type": "function"
    },
    {
      "inputs": [],
      "name": "royaltyBPS",
      "outputs": [
        {
          "internalType": "uint256",
          "name": "",
          "type": "uint256"
        }
      ],
      "stateMutability": "view",
      "type": "function"
    },
    {
      "inputs": [
        {
          "internalType": "uint256",
          "name": "tokenId",
          "type": "uint256"
        },
        {
          "internalType": "uint256",
          "name": "salePrice",
          "type": "uint256"
        }
      ],
      "name": "royaltyInfo",
      "outputs": [
        {
          "internalType": "address",
          "name": "receiver",
          "type": "address"
        },
        {
          "internalType": "uint256",
          "name": "royaltyAmount",
          "type": "uint256"
        }
      ],
      "stateMutability": "view",
      "type": "function"
    },
    {
      "inputs": [
        {
          "internalType": "address",
          "name": "from",
          "type": "address"
        },
        {
          "internalType": "address",
          "name": "to",
          "type": "address"
        },
        {
          "internalType": "uint256",
          "name": "tokenId",
          "type": "uint256"
        }
      ],
      "name": "safeTransferFrom",
      "outputs": [],
      "stateMutability": "nonpayable",
      "type": "function"
    },
    {
      "inputs": [
        {
          "internalType": "address",
          "name": "from",
          "type": "address"
        },
        {
          "internalType": "address",
          "name": "to",
          "type": "address"
        },
        {
          "internalType": "uint256",
          "name": "tokenId",
          "type": "uint256"
        },
        {
          "internalType": "bytes",
          "name": "_data",
          "type": "bytes"
        }
      ],
      "name": "safeTransferFrom",
      "outputs": [],
      "stateMutability": "nonpayable",
      "type": "function"
    },
    {
      "inputs": [],
      "name": "saleIsActive",
      "outputs": [
        {
          "internalType": "bool",
          "name": "_saleIsActive",
          "type": "bool"
        }
      ],
      "stateMutability": "view",
      "type": "function"
    },
    {
      "inputs": [],
      "name": "saleIsPaused",
      "outputs": [
        {
          "internalType": "bool",
          "name": "",
          "type": "bool"
        }
      ],
      "stateMutability": "view",
      "type": "function"
    },
    {
      "inputs": [],
      "name": "saleStart",
      "outputs": [
        {
          "internalType": "uint256",
          "name": "",
          "type": "uint256"
        }
      ],
      "stateMutability": "view",
      "type": "function"
    },
    {
      "inputs": [
        {
          "internalType": "address",
          "name": "operator",
          "type": "address"
        },
        {
          "internalType": "bool",
          "name": "approved",
          "type": "bool"
        }
      ],
      "name": "setApprovalForAll",
      "outputs": [],
      "stateMutability": "nonpayable",
      "type": "function"
    },
    {
      "inputs": [
        {
          "internalType": "string",
          "name": "uri",
          "type": "string"
        }
      ],
      "name": "setBaseURI",
      "outputs": [],
      "stateMutability": "nonpayable",
      "type": "function"
    },
    {
      "inputs": [
        {
          "internalType": "string",
          "name": "uri",
          "type": "string"
        }
      ],
      "name": "setContractURI",
      "outputs": [],
      "stateMutability": "nonpayable",
      "type": "function"
    },
    {
      "inputs": [
        {
          "internalType": "address",
          "name": "_metadataRenderer",
          "type": "address"
        }
      ],
      "name": "setMetadataRenderer",
      "outputs": [],
      "stateMutability": "nonpayable",
      "type": "function"
    },
    {
      "inputs": [
        {
          "internalType": "bytes32",
          "name": "_presaleMerkleRoot",
          "type": "bytes32"
        }
      ],
      "name": "setPresaleMerkleRoot",
      "outputs": [],
      "stateMutability": "nonpayable",
      "type": "function"
    },
    {
      "inputs": [],
      "name": "splitMain",
      "outputs": [
        {
          "internalType": "address",
          "name": "",
          "type": "address"
        }
      ],
      "stateMutability": "view",
      "type": "function"
    },
    {
      "inputs": [],
      "name": "splitWallet",
      "outputs": [
        {
          "internalType": "address",
          "name": "",
          "type": "address"
        }
      ],
      "stateMutability": "view",
      "type": "function"
    },
    {
      "inputs": [
        {
          "internalType": "bytes4",
          "name": "interfaceId",
          "type": "bytes4"
        }
      ],
      "name": "supportsInterface",
      "outputs": [
        {
          "internalType": "bool",
          "name": "",
          "type": "bool"
        }
      ],
      "stateMutability": "view",
      "type": "function"
    },
    {
      "inputs": [],
      "name": "symbol",
      "outputs": [
        {
          "internalType": "string",
          "name": "",
          "type": "string"
        }
      ],
      "stateMutability": "view",
      "type": "function"
    },
    {
      "inputs": [],
      "name": "tokenGateConfig",
      "outputs": [
        {
          "internalType": "address",
          "name": "tokenAddress",
          "type": "address"
        },
        {
          "internalType": "uint88",
          "name": "minBalance",
          "type": "uint88"
        },
        {
          "internalType": "enum SaleType",
          "name": "saleType",
          "type": "uint8"
        }
      ],
      "stateMutability": "view",
      "type": "function"
    },
    {
      "inputs": [],
      "name": "tokenPrice",
      "outputs": [
        {
          "internalType": "uint256",
          "name": "",
          "type": "uint256"
        }
      ],
      "stateMutability": "view",
      "type": "function"
    },
    {
      "inputs": [
        {
          "internalType": "uint256",
          "name": "tokenId",
          "type": "uint256"
        }
      ],
      "name": "tokenURI",
      "outputs": [
        {
          "internalType": "string",
          "name": "",
          "type": "string"
        }
      ],
      "stateMutability": "view",
      "type": "function"
    },
    {
      "inputs": [],
      "name": "totalSupply",
      "outputs": [
        {
          "internalType": "uint256",
          "name": "",
          "type": "uint256"
        }
      ],
      "stateMutability": "view",
      "type": "function"
    },
    {
      "inputs": [
        {
          "internalType": "address",
          "name": "from",
          "type": "address"
        },
        {
          "internalType": "address",
          "name": "to",
          "type": "address"
        },
        {
          "internalType": "uint256",
          "name": "tokenId",
          "type": "uint256"
        }
      ],
      "name": "transferFrom",
      "outputs": [],
      "stateMutability": "nonpayable",
      "type": "function"
    },
    {
      "inputs": [
        {
          "internalType": "address",
          "name": "newOwner",
          "type": "address"
        }
      ],
      "name": "transferOwnership",
      "outputs": [],
      "stateMutability": "nonpayable",
      "type": "function"
    },
    {
      "inputs": [
        {
          "internalType": "uint256",
          "name": "transferETH",
          "type": "uint256"
        },
        {
          "internalType": "contract ERC20[]",
          "name": "tokens",
          "type": "address[]"
        }
      ],
      "name": "transferToSplit",
      "outputs": [],
      "stateMutability": "nonpayable",
      "type": "function"
    },
    {
      "inputs": [
        {
          "internalType": "uint256",
          "name": "newStart",
          "type": "uint256"
        }
      ],
      "name": "updateSaleStart",
      "outputs": [],
      "stateMutability": "nonpayable",
      "type": "function"
    },
    {
      "inputs": [],
      "name": "withdraw",
      "outputs": [],
      "stateMutability": "nonpayable",
      "type": "function"
    }
  ],
  "bytecode": "0x60806040523480156200001157600080fd5b506200001d3362000023565b6200007f565b600980546001600160a01b038381166201000081810262010000600160b01b031985161790945560405193909204169182907f8be0079c531659141344cd1fd0a4f28419497f9722a3daafe3b4186f6b6457e090600090a35050565b613be7806200008f6000396000f3fe6080604052600436106103195760003560e01c8063715018a6116101ab578063b9c9d93a116100f7578063e8a3d48511610095578063f0cc8b621161006f578063f0cc8b6214610946578063f2fde38b14610966578063f47c84c514610986578063fd4fe8a81461099c57600080fd5b8063e8a3d485146108d3578063e985e9c5146108e8578063eb8d24441461093157600080fd5b8063c87b56dd116100d1578063c87b56dd14610863578063d58d458a14610883578063de8801e5146108a3578063e6c350c1146108b957600080fd5b8063b9c9d93a1461080d578063c4559d5a14610823578063c59531701461084357600080fd5b8063938e3d7b11610164578063a18db1131161013e578063a18db11314610796578063a22cb465146107b7578063ab0bcc41146107d7578063b88d4fde146107ed57600080fd5b8063938e3d7b1461074e57806395d89b411461076e578063a0712d681461078357600080fd5b8063715018a6146106ac578063727a612e146106c157806379ab7c8e146106d45780637ff9b596146106f45780638da5cb5b1461070a5780638dbff58b1461072e57600080fd5b806328d7b2761161026a57806355f804b3116102235780636c1951ae116101fd5780636c1951ae1461062c578063703199701461064c57806370a082311461066c578063713b97871461068c57600080fd5b806355f804b3146105d75780636352211e146105f75780636c0360eb1461061757600080fd5b806328d7b2761461050e5780632a55205a1461052e57806334918dfd1461056d5780633ccfd60b1461058257806342842e0e14610597578063435fe1b5146105b757600080fd5b806309aa3dcf116102d75780631dbdedbd116102b15780631dbdedbd1461046c578063229f3e29146104b857806323b872dd146104ce578063284a44a8146104ee57600080fd5b806309aa3dcf1461040f5780630e769b2b1461043357806318160ddd1461045357600080fd5b80625f16fb1461031e578063015893c51461034057806301ffc9a71461036057806306fdde0314610395578063081812fc146103b7578063095ea7b3146103ef575b600080fd5b34801561032a57600080fd5b5061033e610339366004612ccf565b6109bc565b005b34801561034c57600080fd5b5061033e61035b366004612d76565b610a9a565b34801561036c57600080fd5b5061038061037b366004612e0c565b610c24565b60405190151581526020015b60405180910390f35b3480156103a157600080fd5b506103aa610c4f565b60405161038c9190612e81565b3480156103c357600080fd5b506103d76103d2366004612e94565b610ce1565b6040516001600160a01b03909116815260200161038c565b3480156103fb57600080fd5b5061033e61040a366004612ead565b610d25565b34801561041b57600080fd5b50610425600c5481565b60405190815260200161038c565b34801561043f57600080fd5b506016546103d7906001600160a01b031681565b34801561045f57600080fd5b5060015460005403610425565b34801561047857600080fd5b506008546104a9906001600160a01b03811690600160a01b81046001600160581b031690600160f81b900460ff1683565b60405161038c93929190612eef565b3480156104c457600080fd5b5061042560145481565b3480156104da57600080fd5b5061033e6104e9366004612f3a565b610dc5565b3480156104fa57600080fd5b5061033e610509366004613072565b610f53565b34801561051a57600080fd5b5061033e610529366004612e94565b610ffd565b34801561053a57600080fd5b5061054e610549366004613146565b61100a565b604080516001600160a01b03909316835260208301919091520161038c565b34801561057957600080fd5b5061033e6110b7565b34801561058e57600080fd5b5061033e6110d3565b3480156105a357600080fd5b5061033e6105b2366004612f3a565b611180565b3480156105c357600080fd5b5061033e6105d2366004612e94565b6111a0565b3480156105e357600080fd5b5061033e6105f23660046131e5565b6111ad565b34801561060357600080fd5b506103d7610612366004612e94565b6111cc565b34801561062357600080fd5b506103aa6111d7565b34801561063857600080fd5b5061033e610647366004612e94565b611265565b34801561065857600080fd5b506011546103d7906001600160a01b031681565b34801561067857600080fd5b50610425610687366004613219565b6112d5565b34801561069857600080fd5b506017546103d7906001600160a01b031681565b3480156106b857600080fd5b5061033e611323565b61033e6106cf366004613236565b611337565b3480156106e057600080fd5b5061033e6106ef366004613296565b611742565b34801561070057600080fd5b50610425600b5481565b34801561071657600080fd5b506009546201000090046001600160a01b03166103d7565b34801561073a57600080fd5b5061033e610749366004613432565b6117c9565b34801561075a57600080fd5b5061033e6107693660046131e5565b611ad0565b34801561077a57600080fd5b506103aa611aeb565b61033e610791366004612e94565b611afa565b3480156107a257600080fd5b5060095461038090600160b01b900460ff1681565b3480156107c357600080fd5b5061033e6107d2366004613589565b611e8d565b3480156107e357600080fd5b50610425600d5481565b3480156107f957600080fd5b5061033e6108083660046135c2565b611f23565b34801561081957600080fd5b5061042560125481565b34801561082f57600080fd5b5061033e61083e36600461362d565b611f67565b34801561084f57600080fd5b5061033e61085e3660046136c0565b612038565b34801561086f57600080fd5b506103aa61087e366004612e94565b61212c565b34801561088f57600080fd5b5061033e61089e366004612e94565b6121ee565b3480156108af57600080fd5b5061042560135481565b3480156108c557600080fd5b50600e546103809060ff1681565b3480156108df57600080fd5b506103aa6122b0565b3480156108f457600080fd5b50610380610903366004613701565b6001600160a01b03918216600090815260076020908152604080832093909416825291909152205460ff1690565b34801561093d57600080fd5b5061038061235f565b34801561095257600080fd5b506018546103d7906001600160a01b031681565b34801561097257600080fd5b5061033e610981366004613219565b612379565b34801561099257600080fd5b50610425600a5481565b3480156109a857600080fd5b5061033e6109b7366004613219565b6123ef565b60006109d06017546001600160a01b031690565b6001600160a01b03161415610a005760405162461bcd60e51b81526004016109f79061372f565b60405180910390fd5b610a0987612419565b6016546001600160a01b03166001600160a01b03166315811302610a356017546001600160a01b031690565b898989898989896040518963ffffffff1660e01b8152600401610a5f9897969594939291906137e0565b600060405180830381600087803b158015610a7957600080fd5b505af1158015610a8d573d6000803e3d6000fd5b5050505050505050505050565b610aa2612536565b6000610ab66016546001600160a01b031690565b6001600160a01b03161415610b015760405162461bcd60e51b815260206004820152601160248201527014dc1b1a5d13585a5b881b9bdd081cd95d607a1b60448201526064016109f7565b6000610b156017546001600160a01b031690565b6001600160a01b031614610b635760405162461bcd60e51b815260206004820152601560248201527414dc1b1a5d08185b1c9958591e4818dc99585d1959605a1b60448201526064016109f7565b6000610b776016546001600160a01b031690565b6001600160a01b0316637601f7828787878787336040518763ffffffff1660e01b8152600401610bac96959493929190613842565b602060405180830381600087803b158015610bc657600080fd5b505af1158015610bda573d6000803e3d6000fd5b505050506040513d601f19601f82011682018060405250810190610bfe9190613893565b601780546001600160a01b0319166001600160a01b03831617905590505b505050505050565b600063152a902d60e11b6001600160e01b031983161480610c495750610c4982612597565b92915050565b606060028054610c5e906138b0565b80601f0160208091040260200160405190810160405280929190818152602001828054610c8a906138b0565b8015610cd75780601f10610cac57610100808354040283529160200191610cd7565b820191906000526020600020905b815481529060010190602001808311610cba57829003601f168201915b5050505050905090565b6000610cec826125e5565b610d09576040516333d1c03960e21b815260040160405180910390fd5b506000908152600660205260409020546001600160a01b031690565b6000610d30826111cc565b9050336001600160a01b03821614610d6957610d4c8133610903565b610d69576040516367d9dca160e11b815260040160405180910390fd5b60008281526006602052604080822080546001600160a01b0319166001600160a01b0387811691821790925591518593918516917f8c5be1e5ebec7d5bd14f71427d1e84f3dd0314c0f7b2291e5b200ac8c7c3b92591a4505050565b6000610dd08261260c565b9050836001600160a01b0316816001600160a01b031614610e035760405162a1148160e81b815260040160405180910390fd5b60008281526006602052604090208054338082146001600160a01b03881690911417610e5057610e338633610903565b610e5057604051632ce44b5f60e11b815260040160405180910390fd5b6001600160a01b038516610e7757604051633a954ecd60e21b815260040160405180910390fd5b8015610e8257600082555b6001600160a01b038681166000908152600560205260408082208054600019019055918716808252919020805460010190554260a01b17600160e11b17600085815260046020526040902055600160e11b8316610f0d5760018401600081815260046020526040902054610f0b576000548114610f0b5760008181526004602052604090208490555b505b83856001600160a01b0316876001600160a01b03167fddf252ad1be2c89b69c2b068fc378daa952ba7f163c4a11628f55a4df523b3ef60405160405180910390a4610c1c565b6000610f676017546001600160a01b031690565b6001600160a01b03161415610f8e5760405162461bcd60e51b81526004016109f79061372f565b8715610fa257610fa2868686868686611f67565b60005b8751811015610fe657610fd6888281518110610fc357610fc36138eb565b60200260200101518888888888886109bc565b610fdf81613917565b9050610fa5565b50610ff2898989612674565b505050505050505050565b611005612536565b601555565b600080611016846125e5565b6110565760405162461bcd60e51b81526020600482015260116024820152702737b732bc34b9ba32b73a103a37b5b2b760791b60448201526064016109f7565b6017546001600160a01b03161561107a576017546001600160a01b0316915061108f565b6009546201000090046001600160a01b031691505b6000612710601254856110a29190613932565b6110ac9190613951565b9150505b9250929050565b6110bf612536565b600e805460ff19811660ff90911615179055565b6110db612536565b60006110ef6017546001600160a01b031690565b6001600160a01b0316146111515760405162461bcd60e51b8152602060048201526024808201527f43616e6e6f74207769746864726177207769746820616e2061637469766520736044820152631c1b1a5d60e21b60648201526084016109f7565b60405133904780156108fc02916000818181858888f1935050505015801561117d573d6000803e3d6000fd5b50565b61119b83838360405180602001604052806000815250611f23565b505050565b6111a8612536565b600d55565b6111b5612536565b80516111c890600f906020840190612bb9565b5050565b6000610c498261260c565b600f80546111e4906138b0565b80601f0160208091040260200160405190810160405280929190818152602001828054611210906138b0565b801561125d5780601f106112325761010080835404028352916020019161125d565b820191906000526020600020905b81548152906001019060200180831161124057829003601f168201915b505050505081565b61126d612536565b600054600a5461127d8383613973565b1061129a5760405162461bcd60e51b81526004016109f79061398b565b60005b8281101561119b576112c3336112b38385613973565b6112be906001613973565b6126d6565b806112cd81613917565b91505061129d565b60006001600160a01b0382166112fe576040516323d3ad8160e21b815260040160405180910390fd5b506001600160a01b03166000908152600560205260409020546001600160401b031690565b61132b612536565b61133560006126f0565b565b6008546001906001600160a01b0316158015906113a057506000600854600160f81b900460ff16600281111561136f5761136f612ed9565b14806113a057508080156113a057506001600854600160f81b900460ff16600281111561139e5761139e612ed9565b145b806113d15750801580156113d157506002600854600160f81b900460ff1660028111156113cf576113cf612ed9565b145b156114ac576008546040516370a0823160e01b8152336004820152600160a01b82046001600160581b0316916001600160a01b0316906370a0823190602401602060405180830381600087803b15801561142a57600080fd5b505af115801561143e573d6000803e3d6000fd5b505050506040513d601f19601f8201168201806040525081019061146291906139c0565b10156114ac5760405162461bcd60e51b81526020600482015260196024820152783237903737ba1037bbb7103932b8bab4b932b2103a37b5b2b760391b60448201526064016109f7565b60135442101580156114c057506014544211155b6114fa5760405162461bcd60e51b815260206004820152600b60248201526a6e6f742070726573616c6560a81b60448201526064016109f7565b600054600e5460ff16156115505760405162461bcd60e51b815260206004820152601b60248201527f53616c65206d7573742062652061637469766520746f206d696e74000000000060448201526064016109f7565b600a5461155d8883613973565b111561157b5760405162461bcd60e51b81526004016109f79061398b565b6115fe848480806020026020016040519081016040528093929190818152602001838360200280828437600092019190915250506015546040516bffffffffffffffffffffffff193360601b166020820152603481018c9052605481018b905290925060740190506040516020818303038152906040528051906020012061274c565b6116395760405162461bcd60e51b815260206004820152600c60248201526b1b9bdd08185c1c1c9bdd995960a21b60448201526064016109f7565b6116438786613932565b3410156116875760405162461bcd60e51b8152602060048201526012602482015271496e73756666696369656e742066756e647360701b60448201526064016109f7565b8587611692336112d5565b61169c9190613973565b11156116dc5760405162461bcd60e51b815260206004820152600f60248201526e6d696e74656420746f6f206d616e7960881b60448201526064016109f7565b6116e633886126d6565b60005b878110156117385760408051338152602081018490526001909301927f30385c845b448a36257a6a1716e6ad2e1bc2cbe333cde1e69fe849ad6511adfe910160405180910390a16001016116e9565b5050505050505050565b60006117566017546001600160a01b031690565b6001600160a01b0316141561177d5760405162461bcd60e51b81526004016109f79061372f565b811561178b5761178b612762565b60005b815181101561119b576117b98282815181106117ac576117ac6138eb565b6020026020010151612419565b6117c281613917565b905061178e565b600954610100900460ff16158080156117e95750600954600160ff909116105b806118035750303b158015611803575060095460ff166001145b6118665760405162461bcd60e51b815260206004820152602e60248201527f496e697469616c697a61626c653a20636f6e747261637420697320616c72656160448201526d191e481a5b9a5d1a585b1a5e995960921b60648201526084016109f7565b6009805460ff191660011790558015611889576009805461ff0019166101001790555b611892876126f0565b855180516118a891600291602090910190612bb9565b5060208087015180516118bf926003920190612bb9565b5060008055606080870151600a556080870151600b5560a0870151600c55610100870151600d5561012087015160125560408088015160098054911515600160b01b0260ff60b01b1990921691909117905590860151601880546001600160a01b039283166001600160a01b03199182161790915560168054868416921691909117905585516008805460208901516001600160581b0316600160a01b026001600160f81b031990911692909316919091179190911780825591860151869282906001600160f81b0316600160f81b8360028111156119a0576119a0612ed9565b0217905550505060c086015160135560e08601516014556001600160a01b038316158015906119d457506000856040015151115b15611a5257601180546001600160a01b0319166001600160a01b03851690811790915560408681015190516342b53ffd60e11b815263856a7ffa91611a1b91600401612e81565b600060405180830381600087803b158015611a3557600080fd5b505af1158015611a49573d6000803e3d6000fd5b50505050611a81565b84518051611a6891601091602090910190612bb9565b506020808601518051611a7f92600f920190612bb9565b505b8015611ac7576009805461ff0019169055604051600181527f7f26b83ff96e1f2b6a682f133852f6798a09c465da95921460cefb38474024989060200160405180910390a15b50505050505050565b611ad8612536565b80516111c8906010906020840190612bb9565b606060038054610c5e906138b0565b6008546000906001600160a01b031615801590611b6357506000600854600160f81b900460ff166002811115611b3257611b32612ed9565b1480611b635750808015611b6357506001600854600160f81b900460ff166002811115611b6157611b61612ed9565b145b80611b94575080158015611b9457506002600854600160f81b900460ff166002811115611b9257611b92612ed9565b145b15611c6f576008546040516370a0823160e01b8152336004820152600160a01b82046001600160581b0316916001600160a01b0316906370a0823190602401602060405180830381600087803b158015611bed57600080fd5b505af1158015611c01573d6000803e3d6000fd5b505050506040513d601f19601f82011682018060405250810190611c2591906139c0565b1015611c6f5760405162461bcd60e51b81526020600482015260196024820152783237903737ba1037bbb7103932b8bab4b932b2103a37b5b2b760391b60448201526064016109f7565b600054600d54421015611cc45760405162461bcd60e51b815260206004820152601960248201527f53616c657320617265206e6f7420616374697665207965742e0000000000000060448201526064016109f7565b600e5460ff1615611d175760405162461bcd60e51b815260206004820152601b60248201527f53616c65206d7573742062652061637469766520746f206d696e74000000000060448201526064016109f7565b600a54611d248483613973565b1115611d425760405162461bcd60e51b81526004016109f79061398b565b600a54811115611d7f5760405162461bcd60e51b815260206004820152600860248201526714d3d3110813d55560c21b60448201526064016109f7565b82600b54611d8d9190613932565b341015611dd15760405162461bcd60e51b8152602060048201526012602482015271496e73756666696369656e742066756e647360701b60448201526064016109f7565b600c5415611e2b57600c54831115611e2b5760405162461bcd60e51b815260206004820152601c60248201527f4578636565646564206d6178206e756d62657220706572206d696e740000000060448201526064016109f7565b611e3533846126d6565b60005b83811015611e875760408051338152602081018490526001909301927f30385c845b448a36257a6a1716e6ad2e1bc2cbe333cde1e69fe849ad6511adfe910160405180910390a1600101611e38565b50505050565b6001600160a01b038216331415611eb75760405163b06307db60e01b815260040160405180910390fd5b3360008181526007602090815260408083206001600160a01b03871680855290835292819020805460ff191686151590811790915590519081529192917f17307eab39ab6107e8899845ad3d59bd9653f200f220920489ca2b5937696c31910160405180910390a35050565b611f2e848484610dc5565b6001600160a01b0383163b15611e8757611f4a84848484612816565b611e87576040516368d2bf6b60e11b815260040160405180910390fd5b6000611f7b6017546001600160a01b031690565b6001600160a01b03161415611fa25760405162461bcd60e51b81526004016109f79061372f565b611faa612762565b6016546001600160a01b03166001600160a01b031663e61cb05e611fd66017546001600160a01b031690565b8888888888886040518863ffffffff1660e01b8152600401611ffe97969594939291906139d9565b600060405180830381600087803b15801561201857600080fd5b505af115801561202c573d6000803e3d6000fd5b50505050505050505050565b612040612536565b600054600a5481906120528483613973565b11156120705760405162461bcd60e51b81526004016109f79061398b565b8183015b80831015612125576120af8585848603818110612093576120936138eb565b90506020020160208101906120a89190613219565b60016126d6565b7f30385c845b448a36257a6a1716e6ad2e1bc2cbe333cde1e69fe849ad6511adfe85858486038181106120e4576120e46138eb565b90506020020160208101906120f99190613219565b604080516001600160a01b039092168252602082018690520160405180910390a1600190920191612074565b5050505050565b6060612137826125e5565b61215457604051630a14c4b560e41b815260040160405180910390fd5b6011546001600160a01b0316156121e55760115460405163c87b56dd60e01b8152600481018490526001600160a01b039091169063c87b56dd9060240160006040518083038186803b1580156121a957600080fd5b505afa1580156121bd573d6000803e3d6000fd5b505050506040513d6000823e601f3d908101601f19168201604052610c499190810190613a32565b610c498261290e565b6121f6612536565b600954600160b01b900460ff1661225d5760405162461bcd60e51b815260206004820152602560248201527f63616e6e6f742061646a7573742073697a65206f66207468697320636f6c6c6560448201526431ba34b7b760d91b60648201526084016109f7565b8061226760005490565b11156122ab5760405162461bcd60e51b8152602060048201526013602482015272063616e6e6f742064656372656173652063617606c1b60448201526064016109f7565b600a55565b6011546060906001600160a01b03166122d05760108054610c5e906138b0565b601160009054906101000a90046001600160a01b03166001600160a01b031663e8a3d4856040518163ffffffff1660e01b815260040160006040518083038186803b15801561231e57600080fd5b505afa158015612332573d6000803e3d6000fd5b505050506040513d6000823e601f3d908101601f1916820160405261235a9190810190613a32565b905090565b6000600d54421015801561235a575050600e5460ff161590565b612381612536565b6001600160a01b0381166123e65760405162461bcd60e51b815260206004820152602660248201527f4f776e61626c653a206e6577206f776e657220697320746865207a65726f206160448201526564647265737360d01b60648201526084016109f7565b61117d816126f0565b6123f7612536565b601180546001600160a01b0319166001600160a01b0392909216919091179055565b6040516370a0823160e01b81523060048201526000906001600160a01b038316906370a082319060240160206040518083038186803b15801561245b57600080fd5b505afa15801561246f573d6000803e3d6000fd5b505050506040513d601f19601f8201168201806040525081019061249391906139c0565b9050816001600160a01b031663a9059cbb6124b66017546001600160a01b031690565b6040516001600160e01b031960e084901b1681526001600160a01b03909116600482015260248101849052604401602060405180830381600087803b1580156124fe57600080fd5b505af1158015612512573d6000803e3d6000fd5b505050506040513d601f19601f8201168201806040525081019061119b9190613aa8565b6009546001600160a01b03620100009091041633146113355760405162461bcd60e51b815260206004820181905260248201527f4f776e61626c653a2063616c6c6572206973206e6f7420746865206f776e657260448201526064016109f7565b60006301ffc9a760e01b6001600160e01b0319831614806125c857506380ac58cd60e01b6001600160e01b03198316145b80610c495750506001600160e01b031916635b5e139f60e01b1490565b6000805482108015610c49575050600090815260046020526040902054600160e01b161590565b60008160005481101561265b57600081815260046020526040902054600160e01b8116612659575b80612652575060001901600081815260046020526040902054612634565b9392505050565b505b604051636f96cda160e11b815260040160405180910390fd5b601654604051636e5f691960e01b81526001600160a01b0390911690636e5f6919906126a890869086908690600401613ac5565b600060405180830381600087803b1580156126c257600080fd5b505af1158015611ac7573d6000803e3d6000fd5b6111c8828260405180602001604052806000815250612992565b600980546001600160a01b038381166201000081810262010000600160b01b031985161790945560405193909204169182907f8be0079c531659141344cd1fd0a4f28419497f9722a3daafe3b4186f6b6457e090600090a35050565b60008261275985846129f8565b14949350505050565b60006127766017546001600160a01b031690565b6001600160a01b03164760405160006040518083038185875af1925050503d80600081146127c0576040519150601f19603f3d011682016040523d82523d6000602084013e6127c5565b606091505b505090508061117d5760405162461bcd60e51b815260206004820152601f60248201527f436f756c64206e6f74207472616e736665722045544820746f2073706c69740060448201526064016109f7565b604051630a85bd0160e11b81526000906001600160a01b0385169063150b7a029061284b903390899088908890600401613b28565b602060405180830381600087803b15801561286557600080fd5b505af1925050508015612895575060408051601f3d908101601f1916820190925261289291810190613b65565b60015b6128f0573d8080156128c3576040519150601f19603f3d011682016040523d82523d6000602084013e6128c8565b606091505b5080516128e8576040516368d2bf6b60e11b815260040160405180910390fd5b805181602001fd5b6001600160e01b031916630a85bd0160e11b1490505b949350505050565b6060612919826125e5565b61293657604051630a14c4b560e41b815260040160405180910390fd5b6000612940612a45565b90508051600014156129615760405180602001604052806000815250612652565b8061296b84612a54565b60405160200161297c929190613b82565b6040516020818303038152906040529392505050565b61299c8383612a96565b6001600160a01b0383163b1561119b576000548281035b6129c66000868380600101945086612816565b6129e3576040516368d2bf6b60e11b815260040160405180910390fd5b8181106129b357816000541461212557600080fd5b600081815b8451811015612a3d57612a2982868381518110612a1c57612a1c6138eb565b6020026020010151612b8d565b915080612a3581613917565b9150506129fd565b509392505050565b6060600f8054610c5e906138b0565b604080516080019081905280825b600183039250600a81066030018353600a900480612a7f57612a84565b612a62565b50819003601f19909101908152919050565b60005481612ab75760405163b562e8dd60e01b815260040160405180910390fd5b6001600160a01b03831660008181526005602090815260408083208054680100000000000000018802019055848352600490915281206001851460e11b4260a01b178317905582840190839083907fddf252ad1be2c89b69c2b068fc378daa952ba7f163c4a11628f55a4df523b3ef8180a4600183015b818114612b6657808360007fddf252ad1be2c89b69c2b068fc378daa952ba7f163c4a11628f55a4df523b3ef600080a4600101612b2e565b5081612b8457604051622e076360e81b815260040160405180910390fd5b60005550505050565b6000818310612ba9576000828152602084905260409020612652565b5060009182526020526040902090565b828054612bc5906138b0565b90600052602060002090601f016020900481019282612be75760008555612c2d565b82601f10612c0057805160ff1916838001178555612c2d565b82800160010185558215612c2d579182015b82811115612c2d578251825591602001919060010190612c12565b50612c39929150612c3d565b5090565b5b80821115612c395760008155600101612c3e565b6001600160a01b038116811461117d57600080fd5b60008083601f840112612c7957600080fd5b5081356001600160401b03811115612c9057600080fd5b6020830191508360208260051b85010111156110b057600080fd5b803563ffffffff81168114612cbf57600080fd5b919050565b8035612cbf81612c52565b600080600080600080600060a0888a031215612cea57600080fd5b8735612cf581612c52565b965060208801356001600160401b0380821115612d1157600080fd5b612d1d8b838c01612c67565b909850965060408a0135915080821115612d3657600080fd5b50612d438a828b01612c67565b9095509350612d56905060608901612cab565b91506080880135612d6681612c52565b8091505092959891949750929550565b600080600080600060608688031215612d8e57600080fd5b85356001600160401b0380821115612da557600080fd5b612db189838a01612c67565b90975095506020880135915080821115612dca57600080fd5b50612dd788828901612c67565b9094509250612dea905060408701612cab565b90509295509295909350565b6001600160e01b03198116811461117d57600080fd5b600060208284031215612e1e57600080fd5b813561265281612df6565b60005b83811015612e44578181015183820152602001612e2c565b83811115611e875750506000910152565b60008151808452612e6d816020860160208601612e29565b601f01601f19169290920160200192915050565b6020815260006126526020830184612e55565b600060208284031215612ea657600080fd5b5035919050565b60008060408385031215612ec057600080fd5b8235612ecb81612c52565b946020939093013593505050565b634e487b7160e01b600052602160045260246000fd5b6001600160a01b03841681526001600160581b03831660208201526060810160038310612f2c57634e487b7160e01b600052602160045260246000fd5b826040830152949350505050565b600080600060608486031215612f4f57600080fd5b8335612f5a81612c52565b92506020840135612f6a81612c52565b929592945050506040919091013590565b634e487b7160e01b600052604160045260246000fd5b60405161014081016001600160401b0381118282101715612fb457612fb4612f7b565b60405290565b604051601f8201601f191681016001600160401b0381118282101715612fe257612fe2612f7b565b604052919050565b600082601f830112612ffb57600080fd5b813560206001600160401b0382111561301657613016612f7b565b8160051b613025828201612fba565b928352848101820192828101908785111561303f57600080fd5b83870192505b8483101561306757823561305881612c52565b82529183019190830190613045565b979650505050505050565b600080600080600080600080600060e08a8c03121561309057600080fd5b893561309b81612c52565b985060208a0135975060408a01356001600160401b03808211156130be57600080fd5b6130ca8d838e01612fea565b985060608c01359150808211156130e057600080fd5b6130ec8d838e01612c67565b909850965060808c013591508082111561310557600080fd5b506131128c828d01612c67565b9095509350613125905060a08b01612cab565b915060c08a013561313581612c52565b809150509295985092959850929598565b6000806040838503121561315957600080fd5b50508035926020909101359150565b60006001600160401b0382111561318157613181612f7b565b50601f01601f191660200190565b600082601f8301126131a057600080fd5b81356131b36131ae82613168565b612fba565b8181528460208386010111156131c857600080fd5b816020850160208301376000918101602001919091529392505050565b6000602082840312156131f757600080fd5b81356001600160401b0381111561320d57600080fd5b6129068482850161318f565b60006020828403121561322b57600080fd5b813561265281612c52565b60008060008060006080868803121561324e57600080fd5b85359450602086013593506040860135925060608601356001600160401b0381111561327957600080fd5b61328588828901612c67565b969995985093965092949392505050565b600080604083850312156132a957600080fd5b8235915060208301356001600160401b038111156132c657600080fd5b6110ac85828601612fea565b801515811461117d57600080fd5b8035612cbf816132d2565b6000608082840312156132fd57600080fd5b604051608081016001600160401b03828210818311171561332057613320612f7b565b81604052829350843591508082111561333857600080fd5b6133448683870161318f565b8352602085013591508082111561335a57600080fd5b6133668683870161318f565b6020840152604085013591508082111561337f57600080fd5b5061338c8582860161318f565b60408301525060608301356133a081612c52565b6060919091015292915050565b6000606082840312156133bf57600080fd5b604051606081018181106001600160401b03821117156133e1576133e1612f7b565b60405290508082356133f281612c52565b815260208301356001600160581b038116811461340e57600080fd5b602082015260408301356003811061342557600080fd5b6040919091015292915050565b60008060008060008061010080888a03121561344d57600080fd5b873561345881612c52565b965060208801356001600160401b038082111561347457600080fd5b90890190610140828c03121561348957600080fd5b613491612f91565b8235828111156134a057600080fd5b6134ac8d82860161318f565b8252506020830135828111156134c157600080fd5b6134cd8d82860161318f565b6020830152506134df604084016132e0565b6040820152606083013560608201526080830135608082015260a083013560a082015260c083013560c082015260e083013560e08201528383013584820152610120935083830135848201528098505060408a013592508083111561354357600080fd5b505061355189828a016132eb565b94505061356188606089016133ad565b925061356f60c08801612cc4565b915061357d60e08801612cc4565b90509295509295509295565b6000806040838503121561359c57600080fd5b82356135a781612c52565b915060208301356135b7816132d2565b809150509250929050565b600080600080608085870312156135d857600080fd5b84356135e381612c52565b935060208501356135f381612c52565b92506040850135915060608501356001600160401b0381111561361557600080fd5b6136218782880161318f565b91505092959194509250565b6000806000806000806080878903121561364657600080fd5b86356001600160401b038082111561365d57600080fd5b6136698a838b01612c67565b9098509650602089013591508082111561368257600080fd5b5061368f89828a01612c67565b90955093506136a2905060408801612cab565b915060608701356136b281612c52565b809150509295509295509295565b600080602083850312156136d357600080fd5b82356001600160401b038111156136e957600080fd5b6136f585828601612c67565b90969095509350505050565b6000806040838503121561371457600080fd5b823561371f81612c52565b915060208301356135b781612c52565b60208082526015908201527414dc1b1a5d081b9bdd0818dc99585d1959081e595d605a1b604082015260600190565b8183526000602080850194508260005b8581101561379c57813561378181612c52565b6001600160a01b03168752958201959082019060010161376e565b509495945050505050565b8183526000602080850194508260005b8581101561379c5763ffffffff6137cd83612cab565b16875295820195908201906001016137b7565b600060018060a01b03808b168352808a16602084015260c0604084015261380b60c08401898b61375e565b838103606085015261381e81888a6137a7565b63ffffffff969096166080850152509290921660a090910152509695505050505050565b60808152600061385660808301888a61375e565b82810360208401526138698187896137a7565b63ffffffff95909516604084015250506001600160a01b0391909116606090910152949350505050565b6000602082840312156138a557600080fd5b815161265281612c52565b600181811c908216806138c457607f821691505b602082108114156138e557634e487b7160e01b600052602260045260246000fd5b50919050565b634e487b7160e01b600052603260045260246000fd5b634e487b7160e01b600052601160045260246000fd5b600060001982141561392b5761392b613901565b5060010190565b600081600019048311821515161561394c5761394c613901565b500290565b60008261396e57634e487b7160e01b600052601260045260246000fd5b500490565b6000821982111561398657613986613901565b500190565b6020808252818101527f507572636861736520776f756c6420657863656564206d617820737570706c79604082015260600190565b6000602082840312156139d257600080fd5b5051919050565b600060018060a01b03808a16835260a060208401526139fc60a08401898b61375e565b8381036040850152613a0f81888a6137a7565b63ffffffff96909616606085015250929092166080909101525095945050505050565b600060208284031215613a4457600080fd5b81516001600160401b03811115613a5a57600080fd5b8201601f81018413613a6b57600080fd5b8051613a796131ae82613168565b818152856020838501011115613a8e57600080fd5b613a9f826020830160208601612e29565b95945050505050565b600060208284031215613aba57600080fd5b8151612652816132d2565b6001600160a01b038481168252602080830185905260606040840181905284519084018190526000928583019290916080860190855b81811015613b19578551851683529483019491830191600101613afb565b50909998505050505050505050565b6001600160a01b0385811682528416602082015260408101839052608060608201819052600090613b5b90830184612e55565b9695505050505050565b600060208284031215613b7757600080fd5b815161265281612df6565b60008351613b94818460208801612e29565b835190830190613ba8818360208801612e29565b0194935050505056fea2646970667358221220463fefc9b085a6be861b47be6dbb91eec0779e02f132a4c4262ad7922463323764736f6c63430008090033",
  "linkReferences": {},
  "deployedLinkReferences": {}
}