{
  "_format": "hh-sol-artifact-1",
  "contractName": "DCNT721A",
  "sourceName": "contracts/DCNT721A.sol",
  "abi": [
    {
      "inputs": [],
      "name": "ApprovalCallerNotOwnerNorApproved",
      "type": "error"
    },
    {
      "inputs": [],
      "name": "ApprovalQueryForNonexistentToken",
      "type": "error"
    },
    {
      "inputs": [],
      "name": "ApproveToCaller",
      "type": "error"
    },
    {
      "inputs": [],
      "name": "BalanceQueryForZeroAddress",
      "type": "error"
    },
    {
      "inputs": [],
      "name": "MintERC2309QuantityExceedsLimit",
      "type": "error"
    },
    {
      "inputs": [],
      "name": "MintToZeroAddress",
      "type": "error"
    },
    {
      "inputs": [],
      "name": "MintZeroQuantity",
      "type": "error"
    },
    {
      "inputs": [
        {
          "internalType": "address",
          "name": "operator",
          "type": "address"
        }
      ],
      "name": "OperatorNotAllowed",
      "type": "error"
    },
    {
      "inputs": [],
      "name": "OwnerQueryForNonexistentToken",
      "type": "error"
    },
    {
      "inputs": [],
      "name": "OwnershipNotInitializedForExtraData",
      "type": "error"
    },
    {
      "inputs": [],
      "name": "TransferCallerNotOwnerNorApproved",
      "type": "error"
    },
    {
      "inputs": [],
      "name": "TransferFromIncorrectOwner",
      "type": "error"
    },
    {
      "inputs": [],
      "name": "TransferToNonERC721ReceiverImplementer",
      "type": "error"
    },
    {
      "inputs": [],
      "name": "TransferToZeroAddress",
      "type": "error"
    },
    {
      "inputs": [],
      "name": "URIQueryForNonexistentToken",
      "type": "error"
    },
    {
      "anonymous": false,
      "inputs": [
        {
          "indexed": true,
          "internalType": "address",
          "name": "owner",
          "type": "address"
        },
        {
          "indexed": true,
          "internalType": "address",
          "name": "approved",
          "type": "address"
        },
        {
          "indexed": true,
          "internalType": "uint256",
          "name": "tokenId",
          "type": "uint256"
        }
      ],
      "name": "Approval",
      "type": "event"
    },
    {
      "anonymous": false,
      "inputs": [
        {
          "indexed": true,
          "internalType": "address",
          "name": "owner",
          "type": "address"
        },
        {
          "indexed": true,
          "internalType": "address",
          "name": "operator",
          "type": "address"
        },
        {
          "indexed": false,
          "internalType": "bool",
          "name": "approved",
          "type": "bool"
        }
      ],
      "name": "ApprovalForAll",
      "type": "event"
    },
    {
      "anonymous": false,
      "inputs": [
        {
          "indexed": true,
          "internalType": "uint256",
          "name": "fromTokenId",
          "type": "uint256"
        },
        {
          "indexed": false,
          "internalType": "uint256",
          "name": "toTokenId",
          "type": "uint256"
        },
        {
          "indexed": true,
          "internalType": "address",
          "name": "from",
          "type": "address"
        },
        {
          "indexed": true,
          "internalType": "address",
          "name": "to",
          "type": "address"
        }
      ],
      "name": "ConsecutiveTransfer",
      "type": "event"
    },
    {
      "anonymous": false,
      "inputs": [
        {
          "indexed": false,
          "internalType": "uint8",
          "name": "version",
          "type": "uint8"
        }
      ],
      "name": "Initialized",
      "type": "event"
    },
    {
      "anonymous": false,
      "inputs": [
        {
          "indexed": false,
          "internalType": "address",
          "name": "sender",
          "type": "address"
        },
        {
          "indexed": false,
          "internalType": "uint256",
          "name": "tokenId_",
          "type": "uint256"
        }
      ],
      "name": "Minted",
      "type": "event"
    },
    {
      "anonymous": false,
      "inputs": [
        {
          "indexed": true,
          "internalType": "address",
          "name": "previousOwner",
          "type": "address"
        },
        {
          "indexed": true,
          "internalType": "address",
          "name": "newOwner",
          "type": "address"
        }
      ],
      "name": "OwnershipTransferred",
      "type": "event"
    },
    {
      "anonymous": false,
      "inputs": [
        {
          "indexed": true,
          "internalType": "bytes32",
          "name": "role",
          "type": "bytes32"
        },
        {
          "indexed": true,
          "internalType": "bytes32",
          "name": "previousAdminRole",
          "type": "bytes32"
        },
        {
          "indexed": true,
          "internalType": "bytes32",
          "name": "newAdminRole",
          "type": "bytes32"
        }
      ],
      "name": "RoleAdminChanged",
      "type": "event"
    },
    {
      "anonymous": false,
      "inputs": [
        {
          "indexed": true,
          "internalType": "bytes32",
          "name": "role",
          "type": "bytes32"
        },
        {
          "indexed": true,
          "internalType": "address",
          "name": "account",
          "type": "address"
        },
        {
          "indexed": true,
          "internalType": "address",
          "name": "sender",
          "type": "address"
        }
      ],
      "name": "RoleGranted",
      "type": "event"
    },
    {
      "anonymous": false,
      "inputs": [
        {
          "indexed": true,
          "internalType": "bytes32",
          "name": "role",
          "type": "bytes32"
        },
        {
          "indexed": true,
          "internalType": "address",
          "name": "account",
          "type": "address"
        },
        {
          "indexed": true,
          "internalType": "address",
          "name": "sender",
          "type": "address"
        }
      ],
      "name": "RoleRevoked",
      "type": "event"
    },
    {
      "anonymous": false,
      "inputs": [
        {
          "indexed": true,
          "internalType": "address",
          "name": "from",
          "type": "address"
        },
        {
          "indexed": true,
          "internalType": "address",
          "name": "to",
          "type": "address"
        },
        {
          "indexed": true,
          "internalType": "uint256",
          "name": "tokenId",
          "type": "uint256"
        }
      ],
      "name": "Transfer",
      "type": "event"
    },
    {
      "inputs": [],
      "name": "DEFAULT_ADMIN_ROLE",
      "outputs": [
        {
          "internalType": "bytes32",
          "name": "",
          "type": "bytes32"
        }
      ],
      "stateMutability": "view",
      "type": "function"
    },
    {
      "inputs": [],
      "name": "MAX_TOKENS",
      "outputs": [
        {
          "internalType": "uint256",
          "name": "",
          "type": "uint256"
        }
      ],
      "stateMutability": "view",
      "type": "function"
    },
    {
      "inputs": [
        {
          "internalType": "uint256",
          "name": "newCap",
          "type": "uint256"
        }
      ],
      "name": "adjustCap",
      "outputs": [],
      "stateMutability": "nonpayable",
      "type": "function"
    },
    {
      "inputs": [
        {
          "internalType": "address",
          "name": "operator",
          "type": "address"
        },
        {
          "internalType": "uint256",
          "name": "tokenId",
          "type": "uint256"
        }
      ],
      "name": "approve",
      "outputs": [],
      "stateMutability": "nonpayable",
      "type": "function"
    },
    {
      "inputs": [
        {
          "internalType": "address",
          "name": "owner",
          "type": "address"
        }
      ],
      "name": "balanceOf",
      "outputs": [
        {
          "internalType": "uint256",
          "name": "",
          "type": "uint256"
        }
      ],
      "stateMutability": "view",
      "type": "function"
    },
    {
      "inputs": [],
      "name": "baseURI",
      "outputs": [
        {
          "internalType": "string",
          "name": "",
          "type": "string"
        }
      ],
      "stateMutability": "view",
      "type": "function"
    },
    {
      "inputs": [],
      "name": "contractURI",
      "outputs": [
        {
          "internalType": "string",
          "name": "",
          "type": "string"
        }
      ],
      "stateMutability": "view",
      "type": "function"
    },
    {
      "inputs": [],
      "name": "contractVersion",
      "outputs": [
        {
          "internalType": "uint32",
          "name": "",
          "type": "uint32"
        }
      ],
      "stateMutability": "view",
      "type": "function"
    },
    {
      "inputs": [
        {
          "internalType": "address[]",
          "name": "accounts",
          "type": "address[]"
        },
        {
          "internalType": "uint32[]",
          "name": "percentAllocations",
          "type": "uint32[]"
        },
        {
          "internalType": "uint32",
          "name": "distributorFee",
          "type": "uint32"
        }
      ],
      "name": "createSplit",
      "outputs": [],
      "stateMutability": "nonpayable",
      "type": "function"
    },
    {
      "inputs": [
        {
          "internalType": "address",
          "name": "account",
          "type": "address"
        },
        {
          "internalType": "uint256",
          "name": "withdrawETH",
          "type": "uint256"
        },
        {
          "internalType": "contract ERC20[]",
          "name": "tokens",
          "type": "address[]"
        },
        {
          "internalType": "address[]",
          "name": "accounts",
          "type": "address[]"
        },
        {
          "internalType": "uint32[]",
          "name": "percentAllocations",
          "type": "uint32[]"
        },
        {
          "internalType": "uint32",
          "name": "distributorFee",
          "type": "uint32"
        },
        {
          "internalType": "address",
          "name": "distributorAddress",
          "type": "address"
        }
      ],
      "name": "distributeAndWithdraw",
      "outputs": [],
      "stateMutability": "nonpayable",
      "type": "function"
    },
    {
      "inputs": [
        {
          "internalType": "contract ERC20",
          "name": "token",
          "type": "address"
        },
        {
          "internalType": "address[]",
          "name": "accounts",
          "type": "address[]"
        },
        {
          "internalType": "uint32[]",
          "name": "percentAllocations",
          "type": "uint32[]"
        },
        {
          "internalType": "uint32",
          "name": "distributorFee",
          "type": "uint32"
        },
        {
          "internalType": "address",
          "name": "distributorAddress",
          "type": "address"
        }
      ],
      "name": "distributeERC20",
      "outputs": [],
      "stateMutability": "nonpayable",
      "type": "function"
    },
    {
      "inputs": [
        {
          "internalType": "address[]",
          "name": "accounts",
          "type": "address[]"
        },
        {
          "internalType": "uint32[]",
          "name": "percentAllocations",
          "type": "uint32[]"
        },
        {
          "internalType": "uint32",
          "name": "distributorFee",
          "type": "uint32"
        },
        {
          "internalType": "address",
          "name": "distributorAddress",
          "type": "address"
        }
      ],
      "name": "distributeETH",
      "outputs": [],
      "stateMutability": "nonpayable",
      "type": "function"
    },
    {
      "inputs": [],
      "name": "flipSaleState",
      "outputs": [],
      "stateMutability": "nonpayable",
      "type": "function"
    },
    {
      "inputs": [
        {
          "internalType": "uint256",
          "name": "tokenId",
          "type": "uint256"
        }
      ],
      "name": "getApproved",
      "outputs": [
        {
          "internalType": "address",
          "name": "",
          "type": "address"
        }
      ],
      "stateMutability": "view",
      "type": "function"
    },
    {
      "inputs": [
        {
          "internalType": "bytes32",
          "name": "role",
          "type": "bytes32"
        }
      ],
      "name": "getRoleAdmin",
      "outputs": [
        {
          "internalType": "bytes32",
          "name": "",
          "type": "bytes32"
        }
      ],
      "stateMutability": "view",
      "type": "function"
    },
    {
      "inputs": [
        {
          "internalType": "bytes32",
          "name": "role",
          "type": "bytes32"
        },
        {
          "internalType": "address",
          "name": "account",
          "type": "address"
        }
      ],
      "name": "grantRole",
      "outputs": [],
      "stateMutability": "nonpayable",
      "type": "function"
    },
    {
      "inputs": [],
      "name": "hasAdjustableCap",
      "outputs": [
        {
          "internalType": "bool",
          "name": "",
          "type": "bool"
        }
      ],
      "stateMutability": "view",
      "type": "function"
    },
    {
      "inputs": [
        {
          "internalType": "bytes32",
          "name": "role",
          "type": "bytes32"
        },
        {
          "internalType": "address",
          "name": "account",
          "type": "address"
        }
      ],
      "name": "hasRole",
      "outputs": [
        {
          "internalType": "bool",
          "name": "",
          "type": "bool"
        }
      ],
      "stateMutability": "view",
      "type": "function"
    },
    {
      "inputs": [
        {
          "internalType": "address",
          "name": "_owner",
          "type": "address"
        },
        {
          "components": [
            {
              "internalType": "string",
              "name": "name",
              "type": "string"
            },
            {
              "internalType": "string",
              "name": "symbol",
              "type": "string"
            },
            {
              "internalType": "bool",
              "name": "hasAdjustableCap",
              "type": "bool"
            },
            {
              "internalType": "bool",
              "name": "isSoulbound",
              "type": "bool"
            },
            {
              "internalType": "uint256",
              "name": "maxTokens",
              "type": "uint256"
            },
            {
              "internalType": "uint256",
              "name": "tokenPrice",
              "type": "uint256"
            },
            {
              "internalType": "uint256",
              "name": "maxTokenPurchase",
              "type": "uint256"
            },
            {
              "internalType": "bytes32",
              "name": "presaleMerkleRoot",
              "type": "bytes32"
            },
            {
              "internalType": "uint256",
              "name": "presaleStart",
              "type": "uint256"
            },
            {
              "internalType": "uint256",
              "name": "presaleEnd",
              "type": "uint256"
            },
            {
              "internalType": "uint256",
              "name": "saleStart",
              "type": "uint256"
            },
            {
              "internalType": "uint256",
              "name": "saleEnd",
              "type": "uint256"
            },
            {
              "internalType": "uint256",
              "name": "royaltyBPS",
              "type": "uint256"
            },
            {
              "internalType": "address",
              "name": "payoutAddress",
              "type": "address"
            }
          ],
          "internalType": "struct EditionConfig",
          "name": "_editionConfig",
          "type": "tuple"
        },
        {
          "components": [
            {
              "internalType": "string",
              "name": "contractURI",
              "type": "string"
            },
            {
              "internalType": "string",
              "name": "metadataURI",
              "type": "string"
            },
            {
              "internalType": "bytes",
              "name": "metadataRendererInit",
              "type": "bytes"
            },
            {
              "internalType": "address",
              "name": "parentIP",
              "type": "address"
            }
          ],
          "internalType": "struct MetadataConfig",
          "name": "_metadataConfig",
          "type": "tuple"
        },
        {
          "components": [
            {
              "internalType": "address",
              "name": "tokenAddress",
              "type": "address"
            },
            {
              "internalType": "uint88",
              "name": "minBalance",
              "type": "uint88"
            },
            {
              "internalType": "enum SaleType",
              "name": "saleType",
              "type": "uint8"
            }
          ],
          "internalType": "struct TokenGateConfig",
          "name": "_tokenGateConfig",
          "type": "tuple"
        },
        {
          "internalType": "address",
          "name": "_metadataRenderer",
          "type": "address"
        },
        {
          "internalType": "address",
          "name": "_splitMain",
          "type": "address"
        }
      ],
      "name": "initialize",
      "outputs": [],
      "stateMutability": "nonpayable",
      "type": "function"
    },
    {
      "inputs": [
        {
          "internalType": "address",
          "name": "owner",
          "type": "address"
        },
        {
          "internalType": "address",
          "name": "operator",
          "type": "address"
        }
      ],
      "name": "isApprovedForAll",
      "outputs": [
        {
          "internalType": "bool",
          "name": "",
          "type": "bool"
        }
      ],
      "stateMutability": "view",
      "type": "function"
    },
    {
      "inputs": [],
      "name": "isSoulbound",
      "outputs": [
        {
          "internalType": "bool",
          "name": "",
          "type": "bool"
        }
      ],
      "stateMutability": "view",
      "type": "function"
    },
    {
      "inputs": [],
      "name": "maxTokenPurchase",
      "outputs": [
        {
          "internalType": "uint256",
          "name": "",
          "type": "uint256"
        }
      ],
      "stateMutability": "view",
      "type": "function"
    },
    {
      "inputs": [],
      "name": "metadataRenderer",
      "outputs": [
        {
          "internalType": "address",
          "name": "",
          "type": "address"
        }
      ],
      "stateMutability": "view",
      "type": "function"
    },
    {
      "inputs": [
        {
          "internalType": "address",
          "name": "to",
          "type": "address"
        },
        {
          "internalType": "uint256",
          "name": "numberOfTokens",
          "type": "uint256"
        }
      ],
      "name": "mint",
      "outputs": [],
      "stateMutability": "payable",
      "type": "function"
    },
    {
      "inputs": [
        {
          "internalType": "address[]",
          "name": "recipients",
          "type": "address[]"
        }
      ],
      "name": "mintAirdrop",
      "outputs": [],
      "stateMutability": "nonpayable",
      "type": "function"
    },
    {
      "inputs": [
        {
          "internalType": "uint256",
          "name": "quantity",
          "type": "uint256"
        },
        {
          "internalType": "uint256",
          "name": "maxQuantity",
          "type": "uint256"
        },
        {
          "internalType": "uint256",
          "name": "pricePerToken",
          "type": "uint256"
        },
        {
          "internalType": "bytes32[]",
          "name": "merkleProof",
          "type": "bytes32[]"
        }
      ],
      "name": "mintPresale",
      "outputs": [],
      "stateMutability": "payable",
      "type": "function"
    },
    {
      "inputs": [],
      "name": "name",
      "outputs": [
        {
          "internalType": "string",
          "name": "",
          "type": "string"
        }
      ],
      "stateMutability": "view",
      "type": "function"
    },
    {
      "inputs": [],
      "name": "operatorFilterRegistry",
      "outputs": [
        {
          "internalType": "contract IOperatorFilterRegistry",
          "name": "",
          "type": "address"
        }
      ],
      "stateMutability": "view",
      "type": "function"
    },
    {
      "inputs": [],
      "name": "owner",
      "outputs": [
        {
          "internalType": "address",
          "name": "",
          "type": "address"
        }
      ],
      "stateMutability": "view",
      "type": "function"
    },
    {
      "inputs": [
        {
          "internalType": "uint256",
          "name": "tokenId",
          "type": "uint256"
        }
      ],
      "name": "ownerOf",
      "outputs": [
        {
          "internalType": "address",
          "name": "",
          "type": "address"
        }
      ],
      "stateMutability": "view",
      "type": "function"
    },
    {
      "inputs": [],
      "name": "parentIP",
      "outputs": [
        {
          "internalType": "address",
          "name": "",
          "type": "address"
        }
      ],
      "stateMutability": "view",
      "type": "function"
    },
    {
      "inputs": [],
      "name": "payoutAddress",
      "outputs": [
        {
          "internalType": "address",
          "name": "",
          "type": "address"
        }
      ],
      "stateMutability": "view",
      "type": "function"
    },
    {
      "inputs": [],
      "name": "presaleEnd",
      "outputs": [
        {
          "internalType": "uint256",
          "name": "",
          "type": "uint256"
        }
      ],
      "stateMutability": "view",
      "type": "function"
    },
    {
      "inputs": [],
      "name": "presaleMerkleRoot",
      "outputs": [
        {
          "internalType": "bytes32",
          "name": "",
          "type": "bytes32"
        }
      ],
      "stateMutability": "view",
      "type": "function"
    },
    {
      "inputs": [],
      "name": "presaleStart",
      "outputs": [
        {
          "internalType": "uint256",
          "name": "",
          "type": "uint256"
        }
      ],
      "stateMutability": "view",
      "type": "function"
    },
    {
      "inputs": [],
      "name": "renounceOwnership",
      "outputs": [],
      "stateMutability": "nonpayable",
      "type": "function"
    },
    {
      "inputs": [
        {
          "internalType": "bytes32",
          "name": "role",
          "type": "bytes32"
        },
        {
          "internalType": "address",
          "name": "account",
          "type": "address"
        }
      ],
      "name": "renounceRole",
      "outputs": [],
      "stateMutability": "nonpayable",
      "type": "function"
    },
    {
      "inputs": [
        {
          "internalType": "uint256",
          "name": "numReserved",
          "type": "uint256"
        }
      ],
      "name": "reserveDCNT",
      "outputs": [],
      "stateMutability": "nonpayable",
      "type": "function"
    },
    {
      "inputs": [
        {
          "internalType": "bytes32",
          "name": "role",
          "type": "bytes32"
        },
        {
          "internalType": "address",
          "name": "account",
          "type": "address"
        }
      ],
      "name": "revokeRole",
      "outputs": [],
      "stateMutability": "nonpayable",
      "type": "function"
    },
    {
      "inputs": [],
      "name": "royaltyBPS",
      "outputs": [
        {
          "internalType": "uint256",
          "name": "",
          "type": "uint256"
        }
      ],
      "stateMutability": "view",
      "type": "function"
    },
    {
      "inputs": [
        {
          "internalType": "uint256",
          "name": "tokenId",
          "type": "uint256"
        },
        {
          "internalType": "uint256",
          "name": "salePrice",
          "type": "uint256"
        }
      ],
      "name": "royaltyInfo",
      "outputs": [
        {
          "internalType": "address",
          "name": "receiver",
          "type": "address"
        },
        {
          "internalType": "uint256",
          "name": "royaltyAmount",
          "type": "uint256"
        }
      ],
      "stateMutability": "view",
      "type": "function"
    },
    {
      "inputs": [
        {
          "internalType": "address",
          "name": "from",
          "type": "address"
        },
        {
          "internalType": "address",
          "name": "to",
          "type": "address"
        },
        {
          "internalType": "uint256",
          "name": "tokenId",
          "type": "uint256"
        }
      ],
      "name": "safeTransferFrom",
      "outputs": [],
      "stateMutability": "nonpayable",
      "type": "function"
    },
    {
      "inputs": [
        {
          "internalType": "address",
          "name": "from",
          "type": "address"
        },
        {
          "internalType": "address",
          "name": "to",
          "type": "address"
        },
        {
          "internalType": "uint256",
          "name": "tokenId",
          "type": "uint256"
        },
        {
          "internalType": "bytes",
          "name": "_data",
          "type": "bytes"
        }
      ],
      "name": "safeTransferFrom",
      "outputs": [],
      "stateMutability": "nonpayable",
      "type": "function"
    },
    {
      "inputs": [],
      "name": "saleEnd",
      "outputs": [
        {
          "internalType": "uint256",
          "name": "",
          "type": "uint256"
        }
      ],
      "stateMutability": "view",
      "type": "function"
    },
    {
      "inputs": [],
      "name": "saleIsActive",
      "outputs": [
        {
          "internalType": "bool",
          "name": "_saleIsActive",
          "type": "bool"
        }
      ],
      "stateMutability": "view",
      "type": "function"
    },
    {
      "inputs": [],
      "name": "saleIsPaused",
      "outputs": [
        {
          "internalType": "bool",
          "name": "",
          "type": "bool"
        }
      ],
      "stateMutability": "view",
      "type": "function"
    },
    {
      "inputs": [],
      "name": "saleStart",
      "outputs": [
        {
          "internalType": "uint256",
          "name": "",
          "type": "uint256"
        }
      ],
      "stateMutability": "view",
      "type": "function"
    },
    {
      "inputs": [
        {
          "internalType": "address",
          "name": "operator",
          "type": "address"
        },
        {
          "internalType": "bool",
          "name": "approved",
          "type": "bool"
        }
      ],
      "name": "setApprovalForAll",
      "outputs": [],
      "stateMutability": "nonpayable",
      "type": "function"
    },
    {
      "inputs": [
        {
          "internalType": "string",
          "name": "uri",
          "type": "string"
        }
      ],
      "name": "setBaseURI",
      "outputs": [],
      "stateMutability": "nonpayable",
      "type": "function"
    },
    {
      "inputs": [
        {
          "internalType": "string",
          "name": "uri",
          "type": "string"
        }
      ],
      "name": "setContractURI",
      "outputs": [],
      "stateMutability": "nonpayable",
      "type": "function"
    },
    {
      "inputs": [
        {
          "internalType": "address",
          "name": "_metadataRenderer",
          "type": "address"
        }
      ],
      "name": "setMetadataRenderer",
      "outputs": [],
      "stateMutability": "nonpayable",
      "type": "function"
    },
    {
      "inputs": [
        {
          "internalType": "address",
          "name": "_payoutAddress",
          "type": "address"
        }
      ],
      "name": "setPayoutAddress",
      "outputs": [],
      "stateMutability": "nonpayable",
      "type": "function"
    },
    {
      "inputs": [
        {
          "internalType": "bytes32",
          "name": "_presaleMerkleRoot",
          "type": "bytes32"
        }
      ],
      "name": "setPresaleMerkleRoot",
      "outputs": [],
      "stateMutability": "nonpayable",
      "type": "function"
    },
    {
      "inputs": [],
      "name": "splitMain",
      "outputs": [
        {
          "internalType": "address",
          "name": "",
          "type": "address"
        }
      ],
      "stateMutability": "view",
      "type": "function"
    },
    {
      "inputs": [],
      "name": "splitWallet",
      "outputs": [
        {
          "internalType": "address",
          "name": "",
          "type": "address"
        }
      ],
      "stateMutability": "view",
      "type": "function"
    },
    {
      "inputs": [
        {
          "internalType": "bytes4",
          "name": "interfaceId",
          "type": "bytes4"
        }
      ],
      "name": "supportsInterface",
      "outputs": [
        {
          "internalType": "bool",
          "name": "",
          "type": "bool"
        }
      ],
      "stateMutability": "view",
      "type": "function"
    },
    {
      "inputs": [],
      "name": "symbol",
      "outputs": [
        {
          "internalType": "string",
          "name": "",
          "type": "string"
        }
      ],
      "stateMutability": "view",
      "type": "function"
    },
    {
      "inputs": [],
      "name": "tokenGateConfig",
      "outputs": [
        {
          "internalType": "address",
          "name": "tokenAddress",
          "type": "address"
        },
        {
          "internalType": "uint88",
          "name": "minBalance",
          "type": "uint88"
        },
        {
          "internalType": "enum SaleType",
          "name": "saleType",
          "type": "uint8"
        }
      ],
      "stateMutability": "view",
      "type": "function"
    },
    {
      "inputs": [],
      "name": "tokenPrice",
      "outputs": [
        {
          "internalType": "uint256",
          "name": "",
          "type": "uint256"
        }
      ],
      "stateMutability": "view",
      "type": "function"
    },
    {
      "inputs": [
        {
          "internalType": "uint256",
          "name": "tokenId",
          "type": "uint256"
        }
      ],
      "name": "tokenURI",
      "outputs": [
        {
          "internalType": "string",
          "name": "",
          "type": "string"
        }
      ],
      "stateMutability": "view",
      "type": "function"
    },
    {
      "inputs": [],
      "name": "totalSupply",
      "outputs": [
        {
          "internalType": "uint256",
          "name": "",
          "type": "uint256"
        }
      ],
      "stateMutability": "view",
      "type": "function"
    },
    {
      "inputs": [
        {
          "internalType": "address",
          "name": "from",
          "type": "address"
        },
        {
          "internalType": "address",
          "name": "to",
          "type": "address"
        },
        {
          "internalType": "uint256",
          "name": "tokenId",
          "type": "uint256"
        }
      ],
      "name": "transferFrom",
      "outputs": [],
      "stateMutability": "nonpayable",
      "type": "function"
    },
    {
      "inputs": [
        {
          "internalType": "address",
          "name": "newOwner",
          "type": "address"
        }
      ],
      "name": "transferOwnership",
      "outputs": [],
      "stateMutability": "nonpayable",
      "type": "function"
    },
    {
      "inputs": [
        {
          "internalType": "uint256",
          "name": "transferETH",
          "type": "uint256"
        },
        {
          "internalType": "contract ERC20[]",
          "name": "tokens",
          "type": "address[]"
        }
      ],
      "name": "transferToSplit",
      "outputs": [],
      "stateMutability": "nonpayable",
      "type": "function"
    },
    {
      "inputs": [
        {
          "internalType": "bool",
          "name": "enable",
          "type": "bool"
        },
        {
          "internalType": "address",
          "name": "operatorFilter",
          "type": "address"
        }
      ],
      "name": "updateOperatorFilter",
      "outputs": [],
      "stateMutability": "nonpayable",
      "type": "function"
    },
    {
      "inputs": [
        {
          "internalType": "uint256",
          "name": "newStart",
          "type": "uint256"
        },
        {
          "internalType": "uint256",
          "name": "newEnd",
          "type": "uint256"
        }
      ],
      "name": "updatePresaleStartEnd",
      "outputs": [],
      "stateMutability": "nonpayable",
      "type": "function"
    },
    {
      "inputs": [
        {
          "internalType": "uint256",
          "name": "newStart",
          "type": "uint256"
        },
        {
          "internalType": "uint256",
          "name": "newEnd",
          "type": "uint256"
        }
      ],
      "name": "updateSaleStartEnd",
      "outputs": [],
      "stateMutability": "nonpayable",
      "type": "function"
    },
    {
      "inputs": [],
      "name": "withdraw",
      "outputs": [],
      "stateMutability": "nonpayable",
      "type": "function"
    }
  ],
  "bytecode": "0x60a06040523480156200001157600080fd5b5060066200001f336200002e565b63ffffffff166080526200008a565b600a80546001600160a01b038381166201000081810262010000600160b01b031985161790945560405193909204169182907f8be0079c531659141344cd1fd0a4f28419497f9722a3daafe3b4186f6b6457e090600090a35050565b6080516149e0620000a660003960006109c201526149e06000f3fe6080604052600436106103ee5760003560e01c806370a0823111610208578063b9c9d93a11610118578063e6c350c1116100ab578063f0cc8b621161007a578063f0cc8b6214610be8578063f2fde38b14610c08578063f47c84c514610c28578063f7eca6d014610c3e578063fd4fe8a814610c5d57600080fd5b8063e6c350c114610b5b578063e8a3d48514610b75578063e985e9c514610b8a578063eb8d244414610bd357600080fd5b8063c87b56dd116100e7578063c87b56dd14610ae5578063d547741f14610b05578063d58d458a14610b25578063de8801e514610b4557600080fd5b8063b9c9d93a14610a79578063c10b935814610a8f578063c4559d5a14610aa5578063c595317014610ac557600080fd5b8063931cf0f41161019b578063a217fddf1161016a578063a217fddf146109ec578063a22cb46514610a01578063ab0bcc4114610a21578063b0ccc31e14610a37578063b88d4fde14610a5957600080fd5b8063931cf0f41461095c578063938e3d7b1461097657806395d89b4114610996578063a0a8e460146109ab57600080fd5b806379ab7c8e116101d757806379ab7c8e146108e25780637ff9b596146109025780638da5cb5b1461091857806391d148541461093c57600080fd5b806370a082311461087a578063713b97871461089a578063715018a6146108ba578063727a612e146108cf57600080fd5b80632a55205a1161030357806342842e0e116102965780635b8d02d7116102655780635b8d02d7146107e55780636352211e146108055780636c0360eb146108255780636c1951ae1461083a578063703199701461085a57600080fd5b806342842e0e1461076557806355f804b3146107855780635799dbdd146107a55780635881b4b0146107c557600080fd5b806334918dfd116102d257806334918dfd1461070857806336568abe1461071d5780633ccfd60b1461073d57806340c10f191461075257600080fd5b80632a55205a146106695780632d75fea6146106a85780632f2ff15d146106c857806333ea51a8146106e857600080fd5b806317dc258711610386578063229f3e2911610355578063229f3e29146105c357806323b872dd146105d9578063248a9ca3146105f9578063284a44a81461062957806328d7b2761461064957600080fd5b806317dc25871461052857806318160ddd146105485780631dbdedbd1461056157806322212e2b146105ad57600080fd5b8063081812fc116103c2578063081812fc1461048c578063095ea7b3146104c457806309aa3dcf146104e45780630e769b2b1461050857600080fd5b80625f16fb146103f3578063015893c51461041557806301ffc9a71461043557806306fdde031461046a575b600080fd5b3480156103ff57600080fd5b5061041361040e3660046138ad565b610c7d565b005b34801561042157600080fd5b50610413610430366004613954565b610d5a565b34801561044157600080fd5b506104556104503660046139ea565b610ed4565b60405190151581526020015b60405180910390f35b34801561047657600080fd5b5061047f610f1d565b6040516104619190613a57565b34801561049857600080fd5b506104ac6104a7366004613a6a565b610faf565b6040516001600160a01b039091168152602001610461565b3480156104d057600080fd5b506104136104df366004613a83565b610ff3565b3480156104f057600080fd5b506104fa600d5481565b604051908152602001610461565b34801561051457600080fd5b50601a546104ac906001600160a01b031681565b34801561053457600080fd5b50610413610543366004613aaf565b61100c565b34801561055457600080fd5b50600154600054036104fa565b34801561056d57600080fd5b5060095461059e906001600160a01b03811690600160a01b81046001600160581b031690600160f81b900460ff1683565b60405161046193929190613ae7565b3480156105b957600080fd5b506104fa60195481565b3480156105cf57600080fd5b506104fa60185481565b3480156105e557600080fd5b506104136105f4366004613b32565b61103e565b34801561060557600080fd5b506104fa610614366004613a6a565b60009081526008602052604090206001015490565b34801561063557600080fd5b50610413610644366004613c6a565b6111e0565b34801561065557600080fd5b50610413610664366004613a6a565b611289565b34801561067557600080fd5b50610689610684366004613aaf565b6112b5565b604080516001600160a01b039093168352602083019190915201610461565b3480156106b457600080fd5b506104136106c3366004613d57565b611386565b3480156106d457600080fd5b506104136106e3366004613d90565b611593565b3480156106f457600080fd5b50610413610703366004613db5565b6115b8565b34801561071457600080fd5b50610413611601565b34801561072957600080fd5b50610413610738366004613d90565b61163c565b34801561074957600080fd5b506104136116ba565b610413610760366004613a83565b611801565b34801561077157600080fd5b50610413610780366004613b32565b611b95565b34801561079157600080fd5b506104136107a0366004613e4f565b611bb0565b3480156107b157600080fd5b506104136107c0366004613aaf565b611be3565b3480156107d157600080fd5b506104136107e0366004613fca565b611c15565b3480156107f157600080fd5b506016546104ac906001600160a01b031681565b34801561081157600080fd5b506104ac610820366004613a6a565b611f46565b34801561083157600080fd5b5061047f611f51565b34801561084657600080fd5b50610413610855366004613a6a565b611fdf565b34801561086657600080fd5b506014546104ac906001600160a01b031681565b34801561088657600080fd5b506104fa610895366004613db5565b61206e565b3480156108a657600080fd5b50601b546104ac906001600160a01b031681565b3480156108c657600080fd5b506104136120bc565b6104136108dd36600461415d565b6120d0565b3480156108ee57600080fd5b506104136108fd3660046141bd565b6124cc565b34801561090e57600080fd5b506104fa600c5481565b34801561092457600080fd5b50600a546201000090046001600160a01b03166104ac565b34801561094857600080fd5b50610455610957366004613d90565b612552565b34801561096857600080fd5b50600e546104559060ff1681565b34801561098257600080fd5b50610413610991366004613e4f565b61257d565b3480156109a257600080fd5b5061047f6125b0565b3480156109b757600080fd5b5060405163ffffffff7f0000000000000000000000000000000000000000000000000000000000000000168152602001610461565b3480156109f857600080fd5b506104fa600081565b348015610a0d57600080fd5b50610413610a1c3660046141f9565b6125bf565b348015610a2d57600080fd5b506104fa600f5481565b348015610a4357600080fd5b506104ac6daaeb6d7670e522a718067333cd4e81565b348015610a6557600080fd5b50610413610a74366004614227565b6125d3565b348015610a8557600080fd5b506104fa60155481565b348015610a9b57600080fd5b506104fa60105481565b348015610ab157600080fd5b50610413610ac0366004614292565b61261d565b348015610ad157600080fd5b50610413610ae0366004614325565b6126ed565b348015610af157600080fd5b5061047f610b00366004613a6a565b6127f9565b348015610b1157600080fd5b50610413610b20366004613d90565b6128ac565b348015610b3157600080fd5b50610413610b40366004613a6a565b6128d1565b348015610b5157600080fd5b506104fa60175481565b348015610b6757600080fd5b506011546104559060ff1681565b348015610b8157600080fd5b5061047f6129ab565b348015610b9657600080fd5b50610455610ba5366004614366565b6001600160a01b03918216600090815260076020908152604080832093909416825291909152205460ff1690565b348015610bdf57600080fd5b50610455612a4b565b348015610bf457600080fd5b50601c546104ac906001600160a01b031681565b348015610c1457600080fd5b50610413610c23366004613db5565b612a73565b348015610c3457600080fd5b506104fa600b5481565b348015610c4a57600080fd5b50600e5461045590610100900460ff1681565b348015610c6957600080fd5b50610413610c78366004613db5565b612aec565b6000610c91601b546001600160a01b031690565b6001600160a01b031603610cc05760405162461bcd60e51b8152600401610cb790614384565b60405180910390fd5b610cc987612b35565b601a546001600160a01b03166001600160a01b03166315811302610cf5601b546001600160a01b031690565b898989898989896040518963ffffffff1660e01b8152600401610d1f989796959493929190614435565b600060405180830381600087803b158015610d3957600080fd5b505af1158015610d4d573d6000803e3d6000fd5b5050505050505050505050565b610d62612c34565b6000610d76601a546001600160a01b031690565b6001600160a01b031603610dc05760405162461bcd60e51b815260206004820152601160248201527014dc1b1a5d13585a5b881b9bdd081cd95d607a1b6044820152606401610cb7565b6000610dd4601b546001600160a01b031690565b6001600160a01b031614610e225760405162461bcd60e51b815260206004820152601560248201527414dc1b1a5d08185b1c9958591e4818dc99585d1959605a1b6044820152606401610cb7565b6000610e36601a546001600160a01b031690565b6001600160a01b0316637601f7828787878787336040518763ffffffff1660e01b8152600401610e6b96959493929190614497565b6020604051808303816000875af1158015610e8a573d6000803e3d6000fd5b505050506040513d601f19601f82011682018060405250810190610eae91906144e8565b601b80546001600160a01b0319166001600160a01b03831617905590505b505050505050565b600063152a902d60e11b6001600160e01b031983161480610ef95750610ef982612c95565b80610f085750610f0882612cca565b80610f175750610f1782612c95565b92915050565b606060028054610f2c90614505565b80601f0160208091040260200160405190810160405280929190818152602001828054610f5890614505565b8015610fa55780601f10610f7a57610100808354040283529160200191610fa5565b820191906000526020600020905b815481529060010190602001808311610f8857829003601f168201915b5050505050905090565b6000610fba82612d18565b610fd7576040516333d1c03960e21b815260040160405180910390fd5b506000908152600660205260409020546001600160a01b031690565b81610ffd81612d3f565b6110078383612df8565b505050565b611017600033612552565b6110335760405162461bcd60e51b8152600401610cb79061453f565b600f91909155601055565b600061104982612e98565b9050836001600160a01b0316816001600160a01b03161461107c5760405162a1148160e81b815260040160405180910390fd5b60008281526006602052604090208054338082146001600160a01b038816909114176110c9576110ac8633610ba5565b6110c957604051632ce44b5f60e11b815260040160405180910390fd5b6001600160a01b0385166110f057604051633a954ecd60e21b815260040160405180910390fd5b6110fd8686866001612f06565b801561110857600082555b6001600160a01b038681166000908152600560205260408082208054600019019055918716808252919020805460010190554260a01b17600160e11b17600085815260046020526040812091909155600160e11b8416900361119a576001840160008181526004602052604081205490036111985760005481146111985760008181526004602052604090208490555b505b83856001600160a01b0316876001600160a01b03167fddf252ad1be2c89b69c2b068fc378daa952ba7f163c4a11628f55a4df523b3ef60405160405180910390a4610ecc565b60006111f4601b546001600160a01b031690565b6001600160a01b03160361121a5760405162461bcd60e51b8152600401610cb790614384565b871561122e5761122e86868686868661261d565b60005b87518110156112725761126288828151811061124f5761124f614562565b6020026020010151888888888888610c7d565b61126b8161458e565b9050611231565b5061127e898989612f87565b505050505050505050565b611294600033612552565b6112b05760405162461bcd60e51b8152600401610cb79061453f565b601955565b6000806112c184612d18565b6113015760405162461bcd60e51b81526020600482015260116024820152702737b732bc34b9ba32b73a103a37b5b2b760791b6044820152606401610cb7565b601b546001600160a01b03161561132557601b546001600160a01b0316915061135e565b6016546001600160a01b031615611349576016546001600160a01b0316915061135e565b600a546201000090046001600160a01b031691505b60006127106015548561137191906145a7565b61137b91906145be565b9150505b9250929050565b611391600033612552565b6113ad5760405162461bcd60e51b8152600401610cb79061453f565b60405163c3c5a54760e01b81523060048201819052906daaeb6d7670e522a718067333cd4e9063c3c5a547906024016020604051808303816000875af11580156113fb573d6000803e3d6000fd5b505050506040513d601f19601f8201168201806040525081019061141f91906145e0565b1580156114295750825b156114a357604051633e9f1edf60e11b81526001600160a01b038083166004830152831660248201526daaeb6d7670e522a718067333cd4e90637d3e3dbe906044015b600060405180830381600087803b15801561148657600080fd5b505af115801561149a573d6000803e3d6000fd5b50505050505050565b82156114eb57604051632cc5350560e21b81526001600160a01b038083166004830152831660248201526daaeb6d7670e522a718067333cd4e9063b314d4149060440161146c565b60405163034a0dc160e41b81526001600160a01b0382166004820152600060248201526daaeb6d7670e522a718067333cd4e906334a0dc1090604401600060405180830381600087803b15801561154157600080fd5b505af1158015611555573d6000803e3d6000fd5b5050604051631761612360e11b81526001600160a01b03841660048201526daaeb6d7670e522a718067333cd4e9250632ec2c246915060240161146c565b6000828152600860205260409020600101546115ae81612fbb565b6110078383612fc5565b6115c3600033612552565b6115df5760405162461bcd60e51b8152600401610cb79061453f565b601680546001600160a01b0319166001600160a01b0392909216919091179055565b61160c600033612552565b6116285760405162461bcd60e51b8152600401610cb79061453f565b6011805460ff19811660ff90911615179055565b6001600160a01b03811633146116ac5760405162461bcd60e51b815260206004820152602f60248201527f416363657373436f6e74726f6c3a2063616e206f6e6c792072656e6f756e636560448201526e103937b632b9903337b91039b2b63360891b6064820152608401610cb7565b6116b6828261304b565b5050565b60006116ce601b546001600160a01b031690565b6001600160a01b0316146117305760405162461bcd60e51b8152602060048201526024808201527f43616e6e6f74207769746864726177207769746820616e2061637469766520736044820152631c1b1a5d60e21b6064820152608401610cb7565b6016546000906001600160a01b031661175a57600a546201000090046001600160a01b0316611767565b6016546001600160a01b03165b90506000816001600160a01b03164760405160006040518083038185875af1925050503d80600081146117b6576040519150601f19603f3d011682016040523d82523d6000602084013e6117bb565b606091505b50509050806116b65760405162461bcd60e51b8152602060048201526012602482015271436f756c64206e6f7420776974686472617760701b6044820152606401610cb7565b6009546000906001600160a01b03161580159061186a57506000600954600160f81b900460ff16600281111561183957611839613ad1565b148061186a575080801561186a57506001600954600160f81b900460ff16600281111561186857611868613ad1565b145b8061189b57508015801561189b57506002600954600160f81b900460ff16600281111561189957611899613ad1565b145b15611967576009546040516370a0823160e01b8152336004820152600160a01b82046001600160581b0316916001600160a01b0316906370a08231906024016020604051808303816000875af11580156118f9573d6000803e3d6000fd5b505050506040513d601f19601f8201168201806040525081019061191d91906145fd565b10156119675760405162461bcd60e51b81526020600482015260196024820152783237903737ba1037bbb7103932b8bab4b932b2103a37b5b2b760391b6044820152606401610cb7565b600054600f54421080159061197e57506010544211155b6119c25760405162461bcd60e51b815260206004820152601560248201527429b0b632b99030b932903737ba1030b1ba34bb329760591b6044820152606401610cb7565b60115460ff1615611a155760405162461bcd60e51b815260206004820152601b60248201527f53616c65206d7573742062652061637469766520746f206d696e7400000000006044820152606401610cb7565b600b54611a228483614616565b1115611a405760405162461bcd60e51b8152600401610cb790614629565b600b54811115611a7d5760405162461bcd60e51b815260206004820152600860248201526714d3d3110813d55560c21b6044820152606401610cb7565b82600c54611a8b91906145a7565b341015611acf5760405162461bcd60e51b8152602060048201526012602482015271496e73756666696369656e742066756e647360701b6044820152606401610cb7565b600d5415611b2957600d54831115611b295760405162461bcd60e51b815260206004820152601c60248201527f4578636565646564206d6178206e756d62657220706572206d696e74000000006044820152606401610cb7565b611b3384846130b2565b60005b83811015611b8e57604080516001600160a01b0387168152602081018490526001909301927f30385c845b448a36257a6a1716e6ad2e1bc2cbe333cde1e69fe849ad6511adfe910160405180910390a1600101611b36565b5050505050565b611007838383604051806020016040528060008152506125d3565b611bbb600033612552565b611bd75760405162461bcd60e51b8152600401610cb79061453f565b60126116b682826146a4565b611bee600033612552565b611c0a5760405162461bcd60e51b8152600401610cb79061453f565b601791909155601855565b600a54610100900460ff1615808015611c355750600a54600160ff909116105b80611c4f5750303b158015611c4f5750600a5460ff166001145b611cb25760405162461bcd60e51b815260206004820152602e60248201527f496e697469616c697a61626c653a20636f6e747261637420697320616c72656160448201526d191e481a5b9a5d1a585b1a5e995960921b6064820152608401610cb7565b600a805460ff191660011790558015611cd557600a805461ff0019166101001790555b611cde876130cc565b611ce9600088612fc5565b8551600290611cf890826146a4565b506020860151600390611d0b90826146a4565b50600080556080860151600b5560a0860151600c5560c0860151600d55610140860151600f556101608601516010556101808601516015556101a0860151601680546001600160a01b03199081166001600160a01b0393841617909155604080890151600e80546060808d015161ffff1990921693151561ff0019169390931761010091151591909102179055880151601c80548416918516919091179055601a8054909216858416179091558551600980546020890151929094166001600160f81b031990941693909317600160a01b6001600160581b0390921691909102178083559086015186929182906001600160f81b0316600160f81b836002811115611e1857611e18613ad1565b0217905550505060e08601516019556101008601516017556101208601516018556001600160a01b03831615801590611e5657506000856040015151115b15611ed457601480546001600160a01b0319166001600160a01b03851690811790915560408681015190516342b53ffd60e11b815263856a7ffa91611e9d91600401613a57565b600060405180830381600087803b158015611eb757600080fd5b505af1158015611ecb573d6000803e3d6000fd5b50505050611ef8565b8451601390611ee390826146a4565b506020850151601290611ef690826146a4565b505b801561149a57600a805461ff0019169055604051600181527f7f26b83ff96e1f2b6a682f133852f6798a09c465da95921460cefb38474024989060200160405180910390a150505050505050565b6000610f1782612e98565b60128054611f5e90614505565b80601f0160208091040260200160405190810160405280929190818152602001828054611f8a90614505565b8015611fd75780601f10611fac57610100808354040283529160200191611fd7565b820191906000526020600020905b815481529060010190602001808311611fba57829003601f168201915b505050505081565b611fea600033612552565b6120065760405162461bcd60e51b8152600401610cb79061453f565b600054600b546120168383614616565b106120335760405162461bcd60e51b8152600401610cb790614629565b60005b828110156110075761205c3361204c8385614616565b612057906001614616565b6130b2565b806120668161458e565b915050612036565b60006001600160a01b038216612097576040516323d3ad8160e21b815260040160405180910390fd5b506001600160a01b03166000908152600560205260409020546001600160401b031690565b6120c4612c34565b6120ce60006130cc565b565b6009546001906001600160a01b03161580159061213957506000600954600160f81b900460ff16600281111561210857612108613ad1565b1480612139575080801561213957506001600954600160f81b900460ff16600281111561213757612137613ad1565b145b8061216a57508015801561216a57506002600954600160f81b900460ff16600281111561216857612168613ad1565b145b15612236576009546040516370a0823160e01b8152336004820152600160a01b82046001600160581b0316916001600160a01b0316906370a08231906024016020604051808303816000875af11580156121c8573d6000803e3d6000fd5b505050506040513d601f19601f820116820180604052508101906121ec91906145fd565b10156122365760405162461bcd60e51b81526020600482015260196024820152783237903737ba1037bbb7103932b8bab4b932b2103a37b5b2b760391b6044820152606401610cb7565b601754421015801561224a57506018544211155b6122845760405162461bcd60e51b815260206004820152600b60248201526a6e6f742070726573616c6560a81b6044820152606401610cb7565b60005460115460ff16156122da5760405162461bcd60e51b815260206004820152601b60248201527f53616c65206d7573742062652061637469766520746f206d696e7400000000006044820152606401610cb7565b600b546122e78883614616565b11156123055760405162461bcd60e51b8152600401610cb790614629565b612388848480806020026020016040519081016040528093929190818152602001838360200280828437600092019190915250506019546040516bffffffffffffffffffffffff193360601b166020820152603481018c9052605481018b9052909250607401905060405160208183030381529060405280519060200120613128565b6123c35760405162461bcd60e51b815260206004820152600c60248201526b1b9bdd08185c1c1c9bdd995960a21b6044820152606401610cb7565b6123cd87866145a7565b3410156124115760405162461bcd60e51b8152602060048201526012602482015271496e73756666696369656e742066756e647360701b6044820152606401610cb7565b858761241c3361206e565b6124269190614616565b11156124665760405162461bcd60e51b815260206004820152600f60248201526e6d696e74656420746f6f206d616e7960881b6044820152606401610cb7565b61247033886130b2565b60005b878110156124c25760408051338152602081018490526001909301927f30385c845b448a36257a6a1716e6ad2e1bc2cbe333cde1e69fe849ad6511adfe910160405180910390a1600101612473565b5050505050505050565b60006124e0601b546001600160a01b031690565b6001600160a01b0316036125065760405162461bcd60e51b8152600401610cb790614384565b81156125145761251461313e565b60005b81518110156110075761254282828151811061253557612535614562565b6020026020010151612b35565b61254b8161458e565b9050612517565b60009182526008602090815260408084206001600160a01b0393909316845291905290205460ff1690565b612588600033612552565b6125a45760405162461bcd60e51b8152600401610cb79061453f565b60136116b682826146a4565b606060038054610f2c90614505565b816125c981612d3f565b61100783836131f2565b6125de84848461103e565b6001600160a01b0383163b15612617576125fa84848484613287565b612617576040516368d2bf6b60e11b815260040160405180910390fd5b50505050565b6000612631601b546001600160a01b031690565b6001600160a01b0316036126575760405162461bcd60e51b8152600401610cb790614384565b61265f61313e565b601a546001600160a01b03166001600160a01b031663e61cb05e61268b601b546001600160a01b031690565b8888888888886040518863ffffffff1660e01b81526004016126b39796959493929190614763565b600060405180830381600087803b1580156126cd57600080fd5b505af11580156126e1573d6000803e3d6000fd5b50505050505050505050565b6126f8600033612552565b6127145760405162461bcd60e51b8152600401610cb79061453f565b600054600b5481906127268483614616565b11156127445760405162461bcd60e51b8152600401610cb790614629565b8183015b80831015611b8e57612783858584860381811061276757612767614562565b905060200201602081019061277c9190613db5565b60016130b2565b7f30385c845b448a36257a6a1716e6ad2e1bc2cbe333cde1e69fe849ad6511adfe85858486038181106127b8576127b8614562565b90506020020160208101906127cd9190613db5565b604080516001600160a01b039092168252602082018690520160405180910390a1600190920191612748565b606061280482612d18565b61282157604051630a14c4b560e41b815260040160405180910390fd5b6014546001600160a01b0316156128a35760145460405163c87b56dd60e01b8152600481018490526001600160a01b039091169063c87b56dd90602401600060405180830381865afa15801561287b573d6000803e3d6000fd5b505050506040513d6000823e601f3d908101601f19168201604052610f1791908101906147bc565b610f1782613373565b6000828152600860205260409020600101546128c781612fbb565b611007838361304b565b6128dc600033612552565b6128f85760405162461bcd60e51b8152600401610cb79061453f565b600e5460ff166129585760405162461bcd60e51b815260206004820152602560248201527f63616e6e6f742061646a7573742073697a65206f66207468697320636f6c6c6560448201526431ba34b7b760d91b6064820152608401610cb7565b8061296260005490565b11156129a65760405162461bcd60e51b8152602060048201526013602482015272063616e6e6f742064656372656173652063617606c1b6044820152606401610cb7565b600b55565b6014546060906001600160a01b03166129cb5760138054610f2c90614505565b601460009054906101000a90046001600160a01b03166001600160a01b031663e8a3d4856040518163ffffffff1660e01b8152600401600060405180830381865afa158015612a1e573d6000803e3d6000fd5b505050506040513d6000823e601f3d908101601f19168201604052612a4691908101906147bc565b905090565b6000600f544210158015612a6157506010544211155b8015612a4657505060115460ff161590565b612a7b612c34565b6001600160a01b038116612ae05760405162461bcd60e51b815260206004820152602660248201527f4f776e61626c653a206e6577206f776e657220697320746865207a65726f206160448201526564647265737360d01b6064820152608401610cb7565b612ae9816130cc565b50565b612af7600033612552565b612b135760405162461bcd60e51b8152600401610cb79061453f565b601480546001600160a01b0319166001600160a01b0392909216919091179055565b6040516370a0823160e01b81523060048201526000906001600160a01b038316906370a0823190602401602060405180830381865afa158015612b7c573d6000803e3d6000fd5b505050506040513d601f19601f82011682018060405250810190612ba091906145fd565b9050816001600160a01b031663a9059cbb612bc3601b546001600160a01b031690565b6040516001600160e01b031960e084901b1681526001600160a01b039091166004820152602481018490526044016020604051808303816000875af1158015612c10573d6000803e3d6000fd5b505050506040513d601f19601f8201168201806040525081019061100791906145e0565b600a546001600160a01b03620100009091041633146120ce5760405162461bcd60e51b815260206004820181905260248201527f4f776e61626c653a2063616c6c6572206973206e6f7420746865206f776e65726044820152606401610cb7565b60006001600160e01b03198216637965db0b60e01b1480610f1757506301ffc9a760e01b6001600160e01b0319831614610f17565b60006301ffc9a760e01b6001600160e01b031983161480612cfb57506380ac58cd60e01b6001600160e01b03198316145b80610f175750506001600160e01b031916635b5e139f60e01b1490565b6000805482108015610f17575050600090815260046020526040902054600160e01b161590565b6daaeb6d7670e522a718067333cd4e3b15612ae957604051633185c44d60e21b81523060048201526001600160a01b03821660248201526daaeb6d7670e522a718067333cd4e9063c617113490604401602060405180830381865afa158015612dac573d6000803e3d6000fd5b505050506040513d601f19601f82011682018060405250810190612dd091906145e0565b612ae957604051633b79c77360e21b81526001600160a01b0382166004820152602401610cb7565b6000612e0382611f46565b9050336001600160a01b03821614612e3c57612e1f8133610ba5565b612e3c576040516367d9dca160e11b815260040160405180910390fd5b60008281526006602052604080822080546001600160a01b0319166001600160a01b0387811691821790925591518593918516917f8c5be1e5ebec7d5bd14f71427d1e84f3dd0314c0f7b2291e5b200ac8c7c3b92591a4505050565b600081600054811015612eed5760008181526004602052604081205490600160e01b82169003612eeb575b80600003612ee4575060001901600081815260046020526040902054612ec3565b9392505050565b505b604051636f96cda160e11b815260040160405180910390fd5b836001600160a01b0381163314612f2057612f2033612d3f565b600e54610100900460ff161580612f4f57506001600160a01b0385161580612f4f57506001600160a01b038416155b611b8e5760405162461bcd60e51b81526020600482015260096024820152681cdbdd5b189bdd5b9960ba1b6044820152606401610cb7565b601a54604051636e5f691960e01b81526001600160a01b0390911690636e5f69199061146c90869086908690600401614832565b612ae981336133f6565b612fcf8282612552565b6116b65760008281526008602090815260408083206001600160a01b03851684529091529020805460ff191660011790556130073390565b6001600160a01b0316816001600160a01b0316837f2f8788117e7eff1d82e926ec794901d17c78024a50270940304540a733656f0d60405160405180910390a45050565b6130558282612552565b156116b65760008281526008602090815260408083206001600160a01b0385168085529252808320805460ff1916905551339285917ff6391f5c32d9c69d2a47ea670b442974b53935d1edc7fd64eb21e047a839171b9190a45050565b6116b682826040518060200160405280600081525061344f565b600a80546001600160a01b038381166201000081810262010000600160b01b031985161790945560405193909204169182907f8be0079c531659141344cd1fd0a4f28419497f9722a3daafe3b4186f6b6457e090600090a35050565b60008261313585846134b5565b14949350505050565b6000613152601b546001600160a01b031690565b6001600160a01b03164760405160006040518083038185875af1925050503d806000811461319c576040519150601f19603f3d011682016040523d82523d6000602084013e6131a1565b606091505b5050905080612ae95760405162461bcd60e51b815260206004820152601f60248201527f436f756c64206e6f74207472616e736665722045544820746f2073706c6974006044820152606401610cb7565b336001600160a01b0383160361321b5760405163b06307db60e01b815260040160405180910390fd5b3360008181526007602090815260408083206001600160a01b03871680855290835292819020805460ff191686151590811790915590519081529192917f17307eab39ab6107e8899845ad3d59bd9653f200f220920489ca2b5937696c31910160405180910390a35050565b604051630a85bd0160e11b81526000906001600160a01b0385169063150b7a02906132bc903390899088908890600401614895565b6020604051808303816000875af19250505080156132f7575060408051601f3d908101601f191682019092526132f4918101906148d2565b60015b613355573d808015613325576040519150601f19603f3d011682016040523d82523d6000602084013e61332a565b606091505b50805160000361334d576040516368d2bf6b60e11b815260040160405180910390fd5b805181602001fd5b6001600160e01b031916630a85bd0160e11b1490505b949350505050565b606061337e82612d18565b61339b57604051630a14c4b560e41b815260040160405180910390fd5b60006133a5613502565b905080516000036133c55760405180602001604052806000815250612ee4565b806133cf84613511565b6040516020016133e09291906148ef565b6040516020818303038152906040529392505050565b6134008282612552565b6116b65761340d81613549565b61341883602061355b565b60405160200161342992919061491e565b60408051601f198184030181529082905262461bcd60e51b8252610cb791600401613a57565b61345983836136f6565b6001600160a01b0383163b15611007576000548281035b6134836000868380600101945086613287565b6134a0576040516368d2bf6b60e11b815260040160405180910390fd5b818110613470578160005414611b8e57600080fd5b600081815b84518110156134fa576134e6828683815181106134d9576134d9614562565b6020026020010151613801565b9150806134f28161458e565b9150506134ba565b509392505050565b606060128054610f2c90614505565b604080516080019081905280825b600183039250600a81066030018353600a90048061351f5750819003601f19909101908152919050565b6060610f176001600160a01b03831660145b6060600061356a8360026145a7565b613575906002614616565b6001600160401b0381111561358c5761358c613b73565b6040519080825280601f01601f1916602001820160405280156135b6576020820181803683370190505b509050600360fc1b816000815181106135d1576135d1614562565b60200101906001600160f81b031916908160001a905350600f60fb1b8160018151811061360057613600614562565b60200101906001600160f81b031916908160001a90535060006136248460026145a7565b61362f906001614616565b90505b60018111156136a7576f181899199a1a9b1b9c1cb0b131b232b360811b85600f166010811061366357613663614562565b1a60f81b82828151811061367957613679614562565b60200101906001600160f81b031916908160001a90535060049490941c936136a081614993565b9050613632565b508315612ee45760405162461bcd60e51b815260206004820181905260248201527f537472696e67733a20686578206c656e67746820696e73756666696369656e746044820152606401610cb7565b600080549082900361371b5760405163b562e8dd60e01b815260040160405180910390fd5b6137286000848385612f06565b6001600160a01b03831660008181526005602090815260408083208054680100000000000000018802019055848352600490915281206001851460e11b4260a01b178317905582840190839083907fddf252ad1be2c89b69c2b068fc378daa952ba7f163c4a11628f55a4df523b3ef8180a4600183015b8181146137d757808360007fddf252ad1be2c89b69c2b068fc378daa952ba7f163c4a11628f55a4df523b3ef600080a460010161379f565b50816000036137f857604051622e076360e81b815260040160405180910390fd5b60005550505050565b600081831061381d576000828152602084905260409020612ee4565b6000838152602083905260409020612ee4565b6001600160a01b0381168114612ae957600080fd5b60008083601f84011261385757600080fd5b5081356001600160401b0381111561386e57600080fd5b6020830191508360208260051b850101111561137f57600080fd5b803563ffffffff8116811461389d57600080fd5b919050565b803561389d81613830565b600080600080600080600060a0888a0312156138c857600080fd5b87356138d381613830565b965060208801356001600160401b03808211156138ef57600080fd5b6138fb8b838c01613845565b909850965060408a013591508082111561391457600080fd5b506139218a828b01613845565b9095509350613934905060608901613889565b9150608088013561394481613830565b8091505092959891949750929550565b60008060008060006060868803121561396c57600080fd5b85356001600160401b038082111561398357600080fd5b61398f89838a01613845565b909750955060208801359150808211156139a857600080fd5b506139b588828901613845565b90945092506139c8905060408701613889565b90509295509295909350565b6001600160e01b031981168114612ae957600080fd5b6000602082840312156139fc57600080fd5b8135612ee4816139d4565b60005b83811015613a22578181015183820152602001613a0a565b50506000910152565b60008151808452613a43816020860160208601613a07565b601f01601f19169290920160200192915050565b602081526000612ee46020830184613a2b565b600060208284031215613a7c57600080fd5b5035919050565b60008060408385031215613a9657600080fd5b8235613aa181613830565b946020939093013593505050565b60008060408385031215613ac257600080fd5b50508035926020909101359150565b634e487b7160e01b600052602160045260246000fd5b6001600160a01b03841681526001600160581b03831660208201526060810160038310613b2457634e487b7160e01b600052602160045260246000fd5b826040830152949350505050565b600080600060608486031215613b4757600080fd5b8335613b5281613830565b92506020840135613b6281613830565b929592945050506040919091013590565b634e487b7160e01b600052604160045260246000fd5b6040516101c081016001600160401b0381118282101715613bac57613bac613b73565b60405290565b604051601f8201601f191681016001600160401b0381118282101715613bda57613bda613b73565b604052919050565b600082601f830112613bf357600080fd5b813560206001600160401b03821115613c0e57613c0e613b73565b8160051b613c1d828201613bb2565b9283528481018201928281019087851115613c3757600080fd5b83870192505b84831015613c5f578235613c5081613830565b82529183019190830190613c3d565b979650505050505050565b600080600080600080600080600060e08a8c031215613c8857600080fd5b8935613c9381613830565b985060208a0135975060408a01356001600160401b0380821115613cb657600080fd5b613cc28d838e01613be2565b985060608c0135915080821115613cd857600080fd5b613ce48d838e01613845565b909850965060808c0135915080821115613cfd57600080fd5b50613d0a8c828d01613845565b9095509350613d1d905060a08b01613889565b915060c08a0135613d2d81613830565b809150509295985092959850929598565b8015158114612ae957600080fd5b803561389d81613d3e565b60008060408385031215613d6a57600080fd5b8235613d7581613d3e565b91506020830135613d8581613830565b809150509250929050565b60008060408385031215613da357600080fd5b823591506020830135613d8581613830565b600060208284031215613dc757600080fd5b8135612ee481613830565b60006001600160401b03821115613deb57613deb613b73565b50601f01601f191660200190565b600082601f830112613e0a57600080fd5b8135613e1d613e1882613dd2565b613bb2565b818152846020838601011115613e3257600080fd5b816020850160208301376000918101602001919091529392505050565b600060208284031215613e6157600080fd5b81356001600160401b03811115613e7757600080fd5b61336b84828501613df9565b600060808284031215613e9557600080fd5b604051608081016001600160401b038282108183111715613eb857613eb8613b73565b816040528293508435915080821115613ed057600080fd5b613edc86838701613df9565b83526020850135915080821115613ef257600080fd5b613efe86838701613df9565b60208401526040850135915080821115613f1757600080fd5b50613f2485828601613df9565b6040830152506060830135613f3881613830565b6060919091015292915050565b600060608284031215613f5757600080fd5b604051606081018181106001600160401b0382111715613f7957613f79613b73565b6040529050808235613f8a81613830565b815260208301356001600160581b0381168114613fa657600080fd5b6020820152604083013560038110613fbd57600080fd5b6040919091015292915050565b60008060008060008061010080888a031215613fe557600080fd5b8735613ff081613830565b965060208801356001600160401b038082111561400c57600080fd5b908901906101c0828c03121561402157600080fd5b614029613b89565b82358281111561403857600080fd5b6140448d828601613df9565b82525060208301358281111561405957600080fd5b6140658d828601613df9565b60208301525061407760408401613d4c565b604082015261408860608401613d4c565b60608201526080838101359082015260a0808401359082015260c0808401359082015260e08084013590820152838301359381019390935261012080830135908401526101408083013590840152610160808301359084015261018080830135908401526101a0926140fb8484016138a2565b848201528098505060408a013592508083111561411757600080fd5b505061412589828a01613e83565b9450506141358860608901613f45565b925061414360c088016138a2565b915061415160e088016138a2565b90509295509295509295565b60008060008060006080868803121561417557600080fd5b85359450602086013593506040860135925060608601356001600160401b038111156141a057600080fd5b6141ac88828901613845565b969995985093965092949392505050565b600080604083850312156141d057600080fd5b8235915060208301356001600160401b038111156141ed57600080fd5b61137b85828601613be2565b6000806040838503121561420c57600080fd5b823561421781613830565b91506020830135613d8581613d3e565b6000806000806080858703121561423d57600080fd5b843561424881613830565b9350602085013561425881613830565b92506040850135915060608501356001600160401b0381111561427a57600080fd5b61428687828801613df9565b91505092959194509250565b600080600080600080608087890312156142ab57600080fd5b86356001600160401b03808211156142c257600080fd5b6142ce8a838b01613845565b909850965060208901359150808211156142e757600080fd5b506142f489828a01613845565b9095509350614307905060408801613889565b9150606087013561431781613830565b809150509295509295509295565b6000806020838503121561433857600080fd5b82356001600160401b0381111561434e57600080fd5b61435a85828601613845565b90969095509350505050565b6000806040838503121561437957600080fd5b8235613d7581613830565b60208082526015908201527414dc1b1a5d081b9bdd0818dc99585d1959081e595d605a1b604082015260600190565b8183526000602080850194508260005b858110156143f15781356143d681613830565b6001600160a01b0316875295820195908201906001016143c3565b509495945050505050565b8183526000602080850194508260005b858110156143f15763ffffffff61442283613889565b168752958201959082019060010161440c565b600060018060a01b03808b168352808a16602084015260c0604084015261446060c08401898b6143b3565b838103606085015261447381888a6143fc565b63ffffffff969096166080850152509290921660a090910152509695505050505050565b6080815260006144ab60808301888a6143b3565b82810360208401526144be8187896143fc565b63ffffffff95909516604084015250506001600160a01b0391909116606090910152949350505050565b6000602082840312156144fa57600080fd5b8151612ee481613830565b600181811c9082168061451957607f821691505b60208210810361453957634e487b7160e01b600052602260045260246000fd5b50919050565b60208082526009908201526837b7363ca0b236b4b760b91b604082015260600190565b634e487b7160e01b600052603260045260246000fd5b634e487b7160e01b600052601160045260246000fd5b6000600182016145a0576145a0614578565b5060010190565b8082028115828204841417610f1757610f17614578565b6000826145db57634e487b7160e01b600052601260045260246000fd5b500490565b6000602082840312156145f257600080fd5b8151612ee481613d3e565b60006020828403121561460f57600080fd5b5051919050565b80820180821115610f1757610f17614578565b6020808252818101527f507572636861736520776f756c6420657863656564206d617820737570706c79604082015260600190565b601f82111561100757600081815260208120601f850160051c810160208610156146855750805b601f850160051c820191505b81811015610ecc57828155600101614691565b81516001600160401b038111156146bd576146bd613b73565b6146d1816146cb8454614505565b8461465e565b602080601f83116001811461470657600084156146ee5750858301515b600019600386901b1c1916600185901b178555610ecc565b600085815260208120601f198616915b8281101561473557888601518255948401946001909101908401614716565b50858210156147535787850151600019600388901b60f8161c191681555b5050505050600190811b01905550565b600060018060a01b03808a16835260a0602084015261478660a08401898b6143b3565b838103604085015261479981888a6143fc565b63ffffffff96909616606085015250929092166080909101525095945050505050565b6000602082840312156147ce57600080fd5b81516001600160401b038111156147e457600080fd5b8201601f810184136147f557600080fd5b8051614803613e1882613dd2565b81815285602083850101111561481857600080fd5b614829826020830160208601613a07565b95945050505050565b6001600160a01b038481168252602080830185905260606040840181905284519084018190526000928583019290916080860190855b81811015614886578551851683529483019491830191600101614868565b50909998505050505050505050565b6001600160a01b03858116825284166020820152604081018390526080606082018190526000906148c890830184613a2b565b9695505050505050565b6000602082840312156148e457600080fd5b8151612ee4816139d4565b60008351614901818460208801613a07565b835190830190614915818360208801613a07565b01949350505050565b7f416363657373436f6e74726f6c3a206163636f756e7420000000000000000000815260008351614956816017850160208801613a07565b7001034b99036b4b9b9b4b733903937b6329607d1b6017918401918201528351614987816028840160208801613a07565b01602801949350505050565b6000816149a2576149a2614578565b50600019019056fea26469706673582212204c8550e97948f9365d32ad94f86e7ad992f3b179c8d190d9b3f48269e10651db64736f6c63430008110033",
  "linkReferences": {},
  "deployedLinkReferences": {}
}