{
  "_format": "hh-sol-artifact-1",
  "contractName": "DCNT721A",
  "sourceName": "contracts/DCNT721A.sol",
  "abi": [
    {
      "inputs": [],
      "name": "ApprovalCallerNotOwnerNorApproved",
      "type": "error"
    },
    {
      "inputs": [],
      "name": "ApprovalQueryForNonexistentToken",
      "type": "error"
    },
    {
      "inputs": [],
      "name": "ApproveToCaller",
      "type": "error"
    },
    {
      "inputs": [],
      "name": "BalanceQueryForZeroAddress",
      "type": "error"
    },
    {
      "inputs": [],
      "name": "MintERC2309QuantityExceedsLimit",
      "type": "error"
    },
    {
      "inputs": [],
      "name": "MintToZeroAddress",
      "type": "error"
    },
    {
      "inputs": [],
      "name": "MintZeroQuantity",
      "type": "error"
    },
    {
      "inputs": [
        {
          "internalType": "address",
          "name": "operator",
          "type": "address"
        }
      ],
      "name": "OperatorNotAllowed",
      "type": "error"
    },
    {
      "inputs": [],
      "name": "OwnerQueryForNonexistentToken",
      "type": "error"
    },
    {
      "inputs": [],
      "name": "OwnershipNotInitializedForExtraData",
      "type": "error"
    },
    {
      "inputs": [],
      "name": "TransferCallerNotOwnerNorApproved",
      "type": "error"
    },
    {
      "inputs": [],
      "name": "TransferFromIncorrectOwner",
      "type": "error"
    },
    {
      "inputs": [],
      "name": "TransferToNonERC721ReceiverImplementer",
      "type": "error"
    },
    {
      "inputs": [],
      "name": "TransferToZeroAddress",
      "type": "error"
    },
    {
      "inputs": [],
      "name": "URIQueryForNonexistentToken",
      "type": "error"
    },
    {
      "anonymous": false,
      "inputs": [
        {
          "indexed": true,
          "internalType": "address",
          "name": "owner",
          "type": "address"
        },
        {
          "indexed": true,
          "internalType": "address",
          "name": "approved",
          "type": "address"
        },
        {
          "indexed": true,
          "internalType": "uint256",
          "name": "tokenId",
          "type": "uint256"
        }
      ],
      "name": "Approval",
      "type": "event"
    },
    {
      "anonymous": false,
      "inputs": [
        {
          "indexed": true,
          "internalType": "address",
          "name": "owner",
          "type": "address"
        },
        {
          "indexed": true,
          "internalType": "address",
          "name": "operator",
          "type": "address"
        },
        {
          "indexed": false,
          "internalType": "bool",
          "name": "approved",
          "type": "bool"
        }
      ],
      "name": "ApprovalForAll",
      "type": "event"
    },
    {
      "anonymous": false,
      "inputs": [
        {
          "indexed": true,
          "internalType": "uint256",
          "name": "fromTokenId",
          "type": "uint256"
        },
        {
          "indexed": false,
          "internalType": "uint256",
          "name": "toTokenId",
          "type": "uint256"
        },
        {
          "indexed": true,
          "internalType": "address",
          "name": "from",
          "type": "address"
        },
        {
          "indexed": true,
          "internalType": "address",
          "name": "to",
          "type": "address"
        }
      ],
      "name": "ConsecutiveTransfer",
      "type": "event"
    },
    {
      "anonymous": false,
      "inputs": [
        {
          "indexed": false,
          "internalType": "uint8",
          "name": "version",
          "type": "uint8"
        }
      ],
      "name": "Initialized",
      "type": "event"
    },
    {
      "anonymous": false,
      "inputs": [
        {
          "indexed": false,
          "internalType": "address",
          "name": "sender",
          "type": "address"
        },
        {
          "indexed": false,
          "internalType": "uint256",
          "name": "tokenId_",
          "type": "uint256"
        }
      ],
      "name": "Minted",
      "type": "event"
    },
    {
      "anonymous": false,
      "inputs": [
        {
          "indexed": true,
          "internalType": "address",
          "name": "previousOwner",
          "type": "address"
        },
        {
          "indexed": true,
          "internalType": "address",
          "name": "newOwner",
          "type": "address"
        }
      ],
      "name": "OwnershipTransferred",
      "type": "event"
    },
    {
      "anonymous": false,
      "inputs": [
        {
          "indexed": true,
          "internalType": "bytes32",
          "name": "role",
          "type": "bytes32"
        },
        {
          "indexed": true,
          "internalType": "bytes32",
          "name": "previousAdminRole",
          "type": "bytes32"
        },
        {
          "indexed": true,
          "internalType": "bytes32",
          "name": "newAdminRole",
          "type": "bytes32"
        }
      ],
      "name": "RoleAdminChanged",
      "type": "event"
    },
    {
      "anonymous": false,
      "inputs": [
        {
          "indexed": true,
          "internalType": "bytes32",
          "name": "role",
          "type": "bytes32"
        },
        {
          "indexed": true,
          "internalType": "address",
          "name": "account",
          "type": "address"
        },
        {
          "indexed": true,
          "internalType": "address",
          "name": "sender",
          "type": "address"
        }
      ],
      "name": "RoleGranted",
      "type": "event"
    },
    {
      "anonymous": false,
      "inputs": [
        {
          "indexed": true,
          "internalType": "bytes32",
          "name": "role",
          "type": "bytes32"
        },
        {
          "indexed": true,
          "internalType": "address",
          "name": "account",
          "type": "address"
        },
        {
          "indexed": true,
          "internalType": "address",
          "name": "sender",
          "type": "address"
        }
      ],
      "name": "RoleRevoked",
      "type": "event"
    },
    {
      "anonymous": false,
      "inputs": [
        {
          "indexed": true,
          "internalType": "address",
          "name": "from",
          "type": "address"
        },
        {
          "indexed": true,
          "internalType": "address",
          "name": "to",
          "type": "address"
        },
        {
          "indexed": true,
          "internalType": "uint256",
          "name": "tokenId",
          "type": "uint256"
        }
      ],
      "name": "Transfer",
      "type": "event"
    },
    {
      "inputs": [],
      "name": "DEFAULT_ADMIN_ROLE",
      "outputs": [
        {
          "internalType": "bytes32",
          "name": "",
          "type": "bytes32"
        }
      ],
      "stateMutability": "view",
      "type": "function"
    },
    {
      "inputs": [],
      "name": "MAX_TOKENS",
      "outputs": [
        {
          "internalType": "uint32",
          "name": "",
          "type": "uint32"
        }
      ],
      "stateMutability": "view",
      "type": "function"
    },
    {
      "inputs": [
        {
          "internalType": "uint32",
          "name": "newCap",
          "type": "uint32"
        }
      ],
      "name": "adjustCap",
      "outputs": [],
      "stateMutability": "nonpayable",
      "type": "function"
    },
    {
      "inputs": [
        {
          "internalType": "address",
          "name": "operator",
          "type": "address"
        },
        {
          "internalType": "uint256",
          "name": "tokenId",
          "type": "uint256"
        }
      ],
      "name": "approve",
      "outputs": [],
      "stateMutability": "nonpayable",
      "type": "function"
    },
    {
      "inputs": [
        {
          "internalType": "address",
          "name": "owner",
          "type": "address"
        }
      ],
      "name": "balanceOf",
      "outputs": [
        {
          "internalType": "uint256",
          "name": "",
          "type": "uint256"
        }
      ],
      "stateMutability": "view",
      "type": "function"
    },
    {
      "inputs": [],
      "name": "baseURI",
      "outputs": [
        {
          "internalType": "string",
          "name": "",
          "type": "string"
        }
      ],
      "stateMutability": "view",
      "type": "function"
    },
    {
      "inputs": [],
      "name": "contractURI",
      "outputs": [
        {
          "internalType": "string",
          "name": "",
          "type": "string"
        }
      ],
      "stateMutability": "view",
      "type": "function"
    },
    {
      "inputs": [],
      "name": "contractVersion",
      "outputs": [
        {
          "internalType": "uint32",
          "name": "",
          "type": "uint32"
        }
      ],
      "stateMutability": "view",
      "type": "function"
    },
    {
      "inputs": [
        {
          "internalType": "address",
          "name": "_splitMain",
          "type": "address"
        },
        {
          "internalType": "address[]",
          "name": "accounts",
          "type": "address[]"
        },
        {
          "internalType": "uint32[]",
          "name": "percentAllocations",
          "type": "uint32[]"
        },
        {
          "internalType": "uint32",
          "name": "distributorFee",
          "type": "uint32"
        }
      ],
      "name": "createSplit",
      "outputs": [],
      "stateMutability": "nonpayable",
      "type": "function"
    },
    {
      "inputs": [
        {
          "internalType": "address",
          "name": "account",
          "type": "address"
        },
        {
          "internalType": "uint256",
          "name": "withdrawETH",
          "type": "uint256"
        },
        {
          "internalType": "contract ERC20[]",
          "name": "tokens",
          "type": "address[]"
        },
        {
          "internalType": "address[]",
          "name": "accounts",
          "type": "address[]"
        },
        {
          "internalType": "uint32[]",
          "name": "percentAllocations",
          "type": "uint32[]"
        },
        {
          "internalType": "uint32",
          "name": "distributorFee",
          "type": "uint32"
        },
        {
          "internalType": "address",
          "name": "distributorAddress",
          "type": "address"
        }
      ],
      "name": "distributeAndWithdraw",
      "outputs": [],
      "stateMutability": "nonpayable",
      "type": "function"
    },
    {
      "inputs": [
        {
          "internalType": "contract ERC20",
          "name": "token",
          "type": "address"
        },
        {
          "internalType": "address[]",
          "name": "accounts",
          "type": "address[]"
        },
        {
          "internalType": "uint32[]",
          "name": "percentAllocations",
          "type": "uint32[]"
        },
        {
          "internalType": "uint32",
          "name": "distributorFee",
          "type": "uint32"
        },
        {
          "internalType": "address",
          "name": "distributorAddress",
          "type": "address"
        }
      ],
      "name": "distributeERC20",
      "outputs": [],
      "stateMutability": "nonpayable",
      "type": "function"
    },
    {
      "inputs": [
        {
          "internalType": "address[]",
          "name": "accounts",
          "type": "address[]"
        },
        {
          "internalType": "uint32[]",
          "name": "percentAllocations",
          "type": "uint32[]"
        },
        {
          "internalType": "uint32",
          "name": "distributorFee",
          "type": "uint32"
        },
        {
          "internalType": "address",
          "name": "distributorAddress",
          "type": "address"
        }
      ],
      "name": "distributeETH",
      "outputs": [],
      "stateMutability": "nonpayable",
      "type": "function"
    },
    {
      "inputs": [],
      "name": "edition",
      "outputs": [
        {
          "internalType": "bool",
          "name": "hasAdjustableCap",
          "type": "bool"
        },
        {
          "internalType": "bool",
          "name": "isSoulbound",
          "type": "bool"
        },
        {
          "internalType": "uint32",
          "name": "maxTokens",
          "type": "uint32"
        },
        {
          "internalType": "uint32",
          "name": "maxTokenPurchase",
          "type": "uint32"
        },
        {
          "internalType": "uint32",
          "name": "presaleStart",
          "type": "uint32"
        },
        {
          "internalType": "uint32",
          "name": "presaleEnd",
          "type": "uint32"
        },
        {
          "internalType": "uint32",
          "name": "saleStart",
          "type": "uint32"
        },
        {
          "internalType": "uint32",
          "name": "saleEnd",
          "type": "uint32"
        },
        {
          "internalType": "uint16",
          "name": "royaltyBPS",
          "type": "uint16"
        },
        {
          "internalType": "uint96",
          "name": "tokenPrice",
          "type": "uint96"
        },
        {
          "internalType": "address",
          "name": "payoutAddress",
          "type": "address"
        },
        {
          "internalType": "bytes32",
          "name": "presaleMerkleRoot",
          "type": "bytes32"
        }
      ],
      "stateMutability": "view",
      "type": "function"
    },
    {
      "inputs": [],
      "name": "flipSaleState",
      "outputs": [],
      "stateMutability": "nonpayable",
      "type": "function"
    },
    {
      "inputs": [
        {
          "internalType": "uint256",
          "name": "tokenId",
          "type": "uint256"
        }
      ],
      "name": "getApproved",
      "outputs": [
        {
          "internalType": "address",
          "name": "",
          "type": "address"
        }
      ],
      "stateMutability": "view",
      "type": "function"
    },
    {
      "inputs": [
        {
          "internalType": "bytes32",
          "name": "role",
          "type": "bytes32"
        }
      ],
      "name": "getRoleAdmin",
      "outputs": [
        {
          "internalType": "bytes32",
          "name": "",
          "type": "bytes32"
        }
      ],
      "stateMutability": "view",
      "type": "function"
    },
    {
      "inputs": [
        {
          "internalType": "bytes32",
          "name": "role",
          "type": "bytes32"
        },
        {
          "internalType": "address",
          "name": "account",
          "type": "address"
        }
      ],
      "name": "grantRole",
      "outputs": [],
      "stateMutability": "nonpayable",
      "type": "function"
    },
    {
      "inputs": [],
      "name": "hasAdjustableCap",
      "outputs": [
        {
          "internalType": "bool",
          "name": "",
          "type": "bool"
        }
      ],
      "stateMutability": "view",
      "type": "function"
    },
    {
      "inputs": [
        {
          "internalType": "bytes32",
          "name": "role",
          "type": "bytes32"
        },
        {
          "internalType": "address",
          "name": "account",
          "type": "address"
        }
      ],
      "name": "hasRole",
      "outputs": [
        {
          "internalType": "bool",
          "name": "",
          "type": "bool"
        }
      ],
      "stateMutability": "view",
      "type": "function"
    },
    {
      "inputs": [
        {
          "internalType": "address",
          "name": "_owner",
          "type": "address"
        },
        {
          "components": [
            {
              "internalType": "string",
              "name": "name",
              "type": "string"
            },
            {
              "internalType": "string",
              "name": "symbol",
              "type": "string"
            },
            {
              "internalType": "bool",
              "name": "hasAdjustableCap",
              "type": "bool"
            },
            {
              "internalType": "bool",
              "name": "isSoulbound",
              "type": "bool"
            },
            {
              "internalType": "uint32",
              "name": "maxTokens",
              "type": "uint32"
            },
            {
              "internalType": "uint32",
              "name": "maxTokenPurchase",
              "type": "uint32"
            },
            {
              "internalType": "uint32",
              "name": "presaleStart",
              "type": "uint32"
            },
            {
              "internalType": "uint32",
              "name": "presaleEnd",
              "type": "uint32"
            },
            {
              "internalType": "uint32",
              "name": "saleStart",
              "type": "uint32"
            },
            {
              "internalType": "uint32",
              "name": "saleEnd",
              "type": "uint32"
            },
            {
              "internalType": "uint16",
              "name": "royaltyBPS",
              "type": "uint16"
            },
            {
              "internalType": "uint96",
              "name": "tokenPrice",
              "type": "uint96"
            },
            {
              "internalType": "address",
              "name": "payoutAddress",
              "type": "address"
            },
            {
              "internalType": "bytes32",
              "name": "presaleMerkleRoot",
              "type": "bytes32"
            }
          ],
          "internalType": "struct EditionConfig",
          "name": "_editionConfig",
          "type": "tuple"
        },
        {
          "components": [
            {
              "internalType": "string",
              "name": "contractURI",
              "type": "string"
            },
            {
              "internalType": "string",
              "name": "metadataURI",
              "type": "string"
            },
            {
              "internalType": "bytes",
              "name": "metadataRendererInit",
              "type": "bytes"
            },
            {
              "internalType": "address",
              "name": "parentIP",
              "type": "address"
            }
          ],
          "internalType": "struct MetadataConfig",
          "name": "_metadataConfig",
          "type": "tuple"
        },
        {
          "components": [
            {
              "internalType": "address",
              "name": "tokenAddress",
              "type": "address"
            },
            {
              "internalType": "uint88",
              "name": "minBalance",
              "type": "uint88"
            },
            {
              "internalType": "enum SaleType",
              "name": "saleType",
              "type": "uint8"
            }
          ],
          "internalType": "struct TokenGateConfig",
          "name": "_tokenGateConfig",
          "type": "tuple"
        },
        {
          "internalType": "address",
          "name": "_metadataRenderer",
          "type": "address"
        }
      ],
      "name": "initialize",
      "outputs": [],
      "stateMutability": "nonpayable",
      "type": "function"
    },
    {
      "inputs": [
        {
          "internalType": "address",
          "name": "owner",
          "type": "address"
        },
        {
          "internalType": "address",
          "name": "operator",
          "type": "address"
        }
      ],
      "name": "isApprovedForAll",
      "outputs": [
        {
          "internalType": "bool",
          "name": "",
          "type": "bool"
        }
      ],
      "stateMutability": "view",
      "type": "function"
    },
    {
      "inputs": [],
      "name": "isSoulbound",
      "outputs": [
        {
          "internalType": "bool",
          "name": "",
          "type": "bool"
        }
      ],
      "stateMutability": "view",
      "type": "function"
    },
    {
      "inputs": [],
      "name": "maxTokenPurchase",
      "outputs": [
        {
          "internalType": "uint32",
          "name": "",
          "type": "uint32"
        }
      ],
      "stateMutability": "view",
      "type": "function"
    },
    {
      "inputs": [],
      "name": "metadataRenderer",
      "outputs": [
        {
          "internalType": "address",
          "name": "",
          "type": "address"
        }
      ],
      "stateMutability": "view",
      "type": "function"
    },
    {
      "inputs": [
        {
          "internalType": "address",
          "name": "to",
          "type": "address"
        },
        {
          "internalType": "uint256",
          "name": "numberOfTokens",
          "type": "uint256"
        }
      ],
      "name": "mint",
      "outputs": [],
      "stateMutability": "payable",
      "type": "function"
    },
    {
      "inputs": [
        {
          "internalType": "address[]",
          "name": "recipients",
          "type": "address[]"
        }
      ],
      "name": "mintAirdrop",
      "outputs": [],
      "stateMutability": "nonpayable",
      "type": "function"
    },
    {
      "inputs": [
        {
          "internalType": "address",
          "name": "to",
          "type": "address"
        },
        {
          "internalType": "uint256",
          "name": "quantity",
          "type": "uint256"
        },
        {
          "internalType": "uint256",
          "name": "maxQuantity",
          "type": "uint256"
        },
        {
          "internalType": "uint256",
          "name": "pricePerToken",
          "type": "uint256"
        },
        {
          "internalType": "bytes32[]",
          "name": "merkleProof",
          "type": "bytes32[]"
        }
      ],
      "name": "mintPresale",
      "outputs": [],
      "stateMutability": "payable",
      "type": "function"
    },
    {
      "inputs": [],
      "name": "name",
      "outputs": [
        {
          "internalType": "string",
          "name": "",
          "type": "string"
        }
      ],
      "stateMutability": "view",
      "type": "function"
    },
    {
      "inputs": [],
      "name": "operatorFilterRegistry",
      "outputs": [
        {
          "internalType": "contract IOperatorFilterRegistry",
          "name": "",
          "type": "address"
        }
      ],
      "stateMutability": "view",
      "type": "function"
    },
    {
      "inputs": [],
      "name": "owner",
      "outputs": [
        {
          "internalType": "address",
          "name": "",
          "type": "address"
        }
      ],
      "stateMutability": "view",
      "type": "function"
    },
    {
      "inputs": [
        {
          "internalType": "uint256",
          "name": "tokenId",
          "type": "uint256"
        }
      ],
      "name": "ownerOf",
      "outputs": [
        {
          "internalType": "address",
          "name": "",
          "type": "address"
        }
      ],
      "stateMutability": "view",
      "type": "function"
    },
    {
      "inputs": [],
      "name": "parentIP",
      "outputs": [
        {
          "internalType": "address",
          "name": "",
          "type": "address"
        }
      ],
      "stateMutability": "view",
      "type": "function"
    },
    {
      "inputs": [],
      "name": "payoutAddress",
      "outputs": [
        {
          "internalType": "address",
          "name": "",
          "type": "address"
        }
      ],
      "stateMutability": "view",
      "type": "function"
    },
    {
      "inputs": [],
      "name": "presaleEnd",
      "outputs": [
        {
          "internalType": "uint32",
          "name": "",
          "type": "uint32"
        }
      ],
      "stateMutability": "view",
      "type": "function"
    },
    {
      "inputs": [],
      "name": "presaleMerkleRoot",
      "outputs": [
        {
          "internalType": "bytes32",
          "name": "",
          "type": "bytes32"
        }
      ],
      "stateMutability": "view",
      "type": "function"
    },
    {
      "inputs": [],
      "name": "presaleStart",
      "outputs": [
        {
          "internalType": "uint32",
          "name": "",
          "type": "uint32"
        }
      ],
      "stateMutability": "view",
      "type": "function"
    },
    {
      "inputs": [],
      "name": "renounceOwnership",
      "outputs": [],
      "stateMutability": "nonpayable",
      "type": "function"
    },
    {
      "inputs": [
        {
          "internalType": "bytes32",
          "name": "role",
          "type": "bytes32"
        },
        {
          "internalType": "address",
          "name": "account",
          "type": "address"
        }
      ],
      "name": "renounceRole",
      "outputs": [],
      "stateMutability": "nonpayable",
      "type": "function"
    },
    {
      "inputs": [
        {
          "internalType": "uint256",
          "name": "numReserved",
          "type": "uint256"
        }
      ],
      "name": "reserveDCNT",
      "outputs": [],
      "stateMutability": "nonpayable",
      "type": "function"
    },
    {
      "inputs": [
        {
          "internalType": "bytes32",
          "name": "role",
          "type": "bytes32"
        },
        {
          "internalType": "address",
          "name": "account",
          "type": "address"
        }
      ],
      "name": "revokeRole",
      "outputs": [],
      "stateMutability": "nonpayable",
      "type": "function"
    },
    {
      "inputs": [],
      "name": "royaltyBPS",
      "outputs": [
        {
          "internalType": "uint16",
          "name": "",
          "type": "uint16"
        }
      ],
      "stateMutability": "view",
      "type": "function"
    },
    {
      "inputs": [
        {
          "internalType": "uint256",
          "name": "tokenId",
          "type": "uint256"
        },
        {
          "internalType": "uint256",
          "name": "salePrice",
          "type": "uint256"
        }
      ],
      "name": "royaltyInfo",
      "outputs": [
        {
          "internalType": "address",
          "name": "receiver",
          "type": "address"
        },
        {
          "internalType": "uint256",
          "name": "royaltyAmount",
          "type": "uint256"
        }
      ],
      "stateMutability": "view",
      "type": "function"
    },
    {
      "inputs": [
        {
          "internalType": "address",
          "name": "from",
          "type": "address"
        },
        {
          "internalType": "address",
          "name": "to",
          "type": "address"
        },
        {
          "internalType": "uint256",
          "name": "tokenId",
          "type": "uint256"
        }
      ],
      "name": "safeTransferFrom",
      "outputs": [],
      "stateMutability": "nonpayable",
      "type": "function"
    },
    {
      "inputs": [
        {
          "internalType": "address",
          "name": "from",
          "type": "address"
        },
        {
          "internalType": "address",
          "name": "to",
          "type": "address"
        },
        {
          "internalType": "uint256",
          "name": "tokenId",
          "type": "uint256"
        },
        {
          "internalType": "bytes",
          "name": "_data",
          "type": "bytes"
        }
      ],
      "name": "safeTransferFrom",
      "outputs": [],
      "stateMutability": "nonpayable",
      "type": "function"
    },
    {
      "inputs": [],
      "name": "saleEnd",
      "outputs": [
        {
          "internalType": "uint32",
          "name": "",
          "type": "uint32"
        }
      ],
      "stateMutability": "view",
      "type": "function"
    },
    {
      "inputs": [],
      "name": "saleIsActive",
      "outputs": [
        {
          "internalType": "bool",
          "name": "_saleIsActive",
          "type": "bool"
        }
      ],
      "stateMutability": "view",
      "type": "function"
    },
    {
      "inputs": [],
      "name": "saleIsPaused",
      "outputs": [
        {
          "internalType": "bool",
          "name": "",
          "type": "bool"
        }
      ],
      "stateMutability": "view",
      "type": "function"
    },
    {
      "inputs": [],
      "name": "saleStart",
      "outputs": [
        {
          "internalType": "uint32",
          "name": "",
          "type": "uint32"
        }
      ],
      "stateMutability": "view",
      "type": "function"
    },
    {
      "inputs": [
        {
          "internalType": "address",
          "name": "operator",
          "type": "address"
        },
        {
          "internalType": "bool",
          "name": "approved",
          "type": "bool"
        }
      ],
      "name": "setApprovalForAll",
      "outputs": [],
      "stateMutability": "nonpayable",
      "type": "function"
    },
    {
      "inputs": [
        {
          "internalType": "string",
          "name": "uri",
          "type": "string"
        }
      ],
      "name": "setBaseURI",
      "outputs": [],
      "stateMutability": "nonpayable",
      "type": "function"
    },
    {
      "inputs": [
        {
          "internalType": "string",
          "name": "uri",
          "type": "string"
        }
      ],
      "name": "setContractURI",
      "outputs": [],
      "stateMutability": "nonpayable",
      "type": "function"
    },
    {
      "inputs": [
        {
          "internalType": "address",
          "name": "_metadataRenderer",
          "type": "address"
        }
      ],
      "name": "setMetadataRenderer",
      "outputs": [],
      "stateMutability": "nonpayable",
      "type": "function"
    },
    {
      "inputs": [
        {
          "internalType": "address",
          "name": "_payoutAddress",
          "type": "address"
        }
      ],
      "name": "setPayoutAddress",
      "outputs": [],
      "stateMutability": "nonpayable",
      "type": "function"
    },
    {
      "inputs": [
        {
          "internalType": "bytes32",
          "name": "_presaleMerkleRoot",
          "type": "bytes32"
        }
      ],
      "name": "setPresaleMerkleRoot",
      "outputs": [],
      "stateMutability": "nonpayable",
      "type": "function"
    },
    {
      "inputs": [
        {
          "components": [
            {
              "internalType": "address",
              "name": "tokenAddress",
              "type": "address"
            },
            {
              "internalType": "uint88",
              "name": "minBalance",
              "type": "uint88"
            },
            {
              "internalType": "enum SaleType",
              "name": "saleType",
              "type": "uint8"
            }
          ],
          "internalType": "struct TokenGateConfig",
          "name": "_tokenGateConfig",
          "type": "tuple"
        }
      ],
      "name": "setTokenGate",
      "outputs": [],
      "stateMutability": "nonpayable",
      "type": "function"
    },
    {
      "inputs": [],
      "name": "splitMain",
      "outputs": [
        {
          "internalType": "address",
          "name": "",
          "type": "address"
        }
      ],
      "stateMutability": "view",
      "type": "function"
    },
    {
      "inputs": [],
      "name": "splitWallet",
      "outputs": [
        {
          "internalType": "address",
          "name": "",
          "type": "address"
        }
      ],
      "stateMutability": "view",
      "type": "function"
    },
    {
      "inputs": [
        {
          "internalType": "bytes4",
          "name": "interfaceId",
          "type": "bytes4"
        }
      ],
      "name": "supportsInterface",
      "outputs": [
        {
          "internalType": "bool",
          "name": "",
          "type": "bool"
        }
      ],
      "stateMutability": "view",
      "type": "function"
    },
    {
      "inputs": [],
      "name": "symbol",
      "outputs": [
        {
          "internalType": "string",
          "name": "",
          "type": "string"
        }
      ],
      "stateMutability": "view",
      "type": "function"
    },
    {
      "inputs": [],
      "name": "tokenGateConfig",
      "outputs": [
        {
          "internalType": "address",
          "name": "tokenAddress",
          "type": "address"
        },
        {
          "internalType": "uint88",
          "name": "minBalance",
          "type": "uint88"
        },
        {
          "internalType": "enum SaleType",
          "name": "saleType",
          "type": "uint8"
        }
      ],
      "stateMutability": "view",
      "type": "function"
    },
    {
      "inputs": [],
      "name": "tokenPrice",
      "outputs": [
        {
          "internalType": "uint96",
          "name": "",
          "type": "uint96"
        }
      ],
      "stateMutability": "view",
      "type": "function"
    },
    {
      "inputs": [
        {
          "internalType": "uint256",
          "name": "tokenId",
          "type": "uint256"
        }
      ],
      "name": "tokenURI",
      "outputs": [
        {
          "internalType": "string",
          "name": "",
          "type": "string"
        }
      ],
      "stateMutability": "view",
      "type": "function"
    },
    {
      "inputs": [],
      "name": "totalSupply",
      "outputs": [
        {
          "internalType": "uint256",
          "name": "",
          "type": "uint256"
        }
      ],
      "stateMutability": "view",
      "type": "function"
    },
    {
      "inputs": [
        {
          "internalType": "address",
          "name": "from",
          "type": "address"
        },
        {
          "internalType": "address",
          "name": "to",
          "type": "address"
        },
        {
          "internalType": "uint256",
          "name": "tokenId",
          "type": "uint256"
        }
      ],
      "name": "transferFrom",
      "outputs": [],
      "stateMutability": "nonpayable",
      "type": "function"
    },
    {
      "inputs": [
        {
          "internalType": "address",
          "name": "newOwner",
          "type": "address"
        }
      ],
      "name": "transferOwnership",
      "outputs": [],
      "stateMutability": "nonpayable",
      "type": "function"
    },
    {
      "inputs": [
        {
          "internalType": "uint256",
          "name": "transferETH",
          "type": "uint256"
        },
        {
          "internalType": "contract ERC20[]",
          "name": "tokens",
          "type": "address[]"
        }
      ],
      "name": "transferToSplit",
      "outputs": [],
      "stateMutability": "nonpayable",
      "type": "function"
    },
    {
      "inputs": [
        {
          "internalType": "bool",
          "name": "enable",
          "type": "bool"
        },
        {
          "internalType": "address",
          "name": "operatorFilter",
          "type": "address"
        }
      ],
      "name": "updateOperatorFilter",
      "outputs": [],
      "stateMutability": "nonpayable",
      "type": "function"
    },
    {
      "inputs": [
        {
          "internalType": "uint32",
          "name": "newStart",
          "type": "uint32"
        },
        {
          "internalType": "uint32",
          "name": "newEnd",
          "type": "uint32"
        }
      ],
      "name": "updatePresaleStartEnd",
      "outputs": [],
      "stateMutability": "nonpayable",
      "type": "function"
    },
    {
      "inputs": [
        {
          "internalType": "uint32",
          "name": "newStart",
          "type": "uint32"
        },
        {
          "internalType": "uint32",
          "name": "newEnd",
          "type": "uint32"
        }
      ],
      "name": "updateSaleStartEnd",
      "outputs": [],
      "stateMutability": "nonpayable",
      "type": "function"
    },
    {
      "inputs": [],
      "name": "withdraw",
      "outputs": [],
      "stateMutability": "nonpayable",
      "type": "function"
    }
  ],
  "bytecode": "0x60a06040523480156200001157600080fd5b5060086200001f336200002e565b63ffffffff166080526200008a565b600a80546001600160a01b038381166201000081810262010000600160b01b031985161790945560405193909204169182907f8be0079c531659141344cd1fd0a4f28419497f9722a3daafe3b4186f6b6457e090600090a35050565b608051614fbb620000a66000396000610ae30152614fbb6000f3fe6080604052600436106104045760003560e01c8063715018a611610213578063b9c9d93a11610123578063e985e9c5116100ab578063f2fde38b1161007a578063f2fde38b14610da6578063f47c84c514610dc6578063f7eca6d014610de7578063fd4fe8a814610e04578063ff45640d14610e2457600080fd5b8063e985e9c514610d08578063eb8d244414610d51578063ed1f24ad14610d66578063f0cc8b6214610d8657600080fd5b8063c87b56dd116100f2578063c87b56dd14610c70578063d547741f14610c90578063de8801e514610cb0578063e6c350c114610cd2578063e8a3d48514610cf357600080fd5b8063b9c9d93a14610be0578063c10b935814610c0e578063c4559d5a14610c30578063c595317014610c5057600080fd5b806395d89b41116101a6578063ab0bcc4111610175578063ab0bcc4114610b3c578063ae1dd6c414610b5e578063b0ccc31e14610b7e578063b80476d014610ba0578063b88d4fde14610bc057600080fd5b806395d89b4114610abf578063a0a8e46014610ad4578063a217fddf14610b07578063a22cb46514610b1c57600080fd5b80638e98f86a116101e25780638e98f86a1461094d57806391d1485414610a67578063931cf0f414610a87578063938e3d7b14610a9f57600080fd5b8063715018a6146108cc57806379ab7c8e146108e15780637ff9b596146109015780638da5cb5b1461092957600080fd5b80632a55205a1161031957806342842e0e116102a15780636c0360eb116102705780636c0360eb146108375780636c1951ae1461084c578063703199701461086c57806370a082311461088c578063713b9787146108ac57600080fd5b806342842e0e146107b257806355f804b3146107d25780635b8d02d7146107f25780636352211e1461081757600080fd5b806333ea51a8116102e857806333ea51a81461073557806334918dfd1461075557806336568abe1461076a5780633ccfd60b1461078a57806340c10f191461079f57600080fd5b80632a55205a146106965780632d75fea6146106d55780632f2ff15d146106f557806333ea3e6d1461071557600080fd5b80630e769b2b1161039c578063229f3e291161036b578063229f3e29146105e457806323b872dd14610606578063248a9ca314610626578063284a44a81461065657806328d7b2761461067657600080fd5b80630e769b2b1461054057806318160ddd146105605780631dbdedbd1461058357806322212e2b146105cf57600080fd5b8063095ea7b3116103d8578063095ea7b3146104ba57806309aa3dcf146104da5780630ad6c6161461050d5780630b8999f31461052d57600080fd5b80625f16fb1461040957806301ffc9a71461042b57806306fdde0314610460578063081812fc14610482575b600080fd5b34801561041557600080fd5b50610429610424366004613d07565b610e44565b005b34801561043757600080fd5b5061044b610446366004613dc4565b610efb565b60405190151581526020015b60405180910390f35b34801561046c57600080fd5b50610475610f44565b6040516104579190613e31565b34801561048e57600080fd5b506104a261049d366004613e44565b610fd6565b6040516001600160a01b039091168152602001610457565b3480156104c657600080fd5b506104296104d5366004613e5d565b61101a565b3480156104e657600080fd5b50600d54600160301b900463ffffffff165b60405163ffffffff9091168152602001610457565b34801561051957600080fd5b50610429610528366004613e89565b611033565b61042961053b366004613ebc565b61109a565b34801561054c57600080fd5b50600b546104a2906001600160a01b031681565b34801561056c57600080fd5b50600154600054035b604051908152602001610457565b34801561058f57600080fd5b506009546105c0906001600160a01b03811690600160a01b81046001600160581b031690600160f81b900460ff1683565b60405161045793929190613f44565b3480156105db57600080fd5b50600f54610575565b3480156105f057600080fd5b50600d54600160701b900463ffffffff166104f8565b34801561061257600080fd5b50610429610621366004613f8f565b6114ce565b34801561063257600080fd5b50610575610641366004613e44565b60009081526008602052604090206001015490565b34801561066257600080fd5b506104296106713660046140c7565b611674565b34801561068257600080fd5b50610429610691366004613e44565b611700565b3480156106a257600080fd5b506106b66106b136600461419b565b61172c565b604080516001600160a01b039093168352602083019190915201610457565b3480156106e157600080fd5b506104296106f03660046141d6565b611817565b34801561070157600080fd5b5061042961071036600461420f565b611a24565b34801561072157600080fd5b50610429610730366004614234565b611a49565b34801561074157600080fd5b506104296107503660046142c5565b611b56565b34801561076157600080fd5b50610429611ba5565b34801561077657600080fd5b5061042961078536600461420f565b611bed565b34801561079657600080fd5b50610429611c6b565b6104296107ad366004613e5d565b611daf565b3480156107be57600080fd5b506104296107cd366004613f8f565b61219f565b3480156107de57600080fd5b506104296107ed36600461435f565b6121ba565b3480156107fe57600080fd5b50600e54600160601b90046001600160a01b03166104a2565b34801561082357600080fd5b506104a2610832366004613e44565b6121ed565b34801561084357600080fd5b506104756121f8565b34801561085857600080fd5b50610429610867366004613e44565b612286565b34801561087857600080fd5b506012546104a2906001600160a01b031681565b34801561089857600080fd5b506105756108a73660046142c5565b612321565b3480156108b857600080fd5b50600c546104a2906001600160a01b031681565b3480156108d857600080fd5b5061042961236f565b3480156108ed57600080fd5b506104296108fc366004614393565b612383565b34801561090d57600080fd5b50600e546040516001600160601b039091168152602001610457565b34801561093557600080fd5b50600a546201000090046001600160a01b03166104a2565b34801561095957600080fd5b50600d54600e54600f546109e49260ff8082169361010083049091169262010000830463ffffffff90811693600160301b8104821693600160501b8204831693600160701b8304841693600160901b8404811693600160b01b810490911692600160d01b90910461ffff16916001600160601b03821691600160601b90046001600160a01b0316908c565b604080519c15158d529a151560208d015263ffffffff998a169a8c019a909a5296881660608b015294871660808a015292861660a089015290851660c088015290931660e086015261ffff9092166101008501526001600160601b039091166101208401526001600160a01b031661014083015261016082015261018001610457565b348015610a7357600080fd5b5061044b610a8236600461420f565b6123f7565b348015610a9357600080fd5b50600d5460ff1661044b565b348015610aab57600080fd5b50610429610aba36600461435f565b612422565b348015610acb57600080fd5b50610475612455565b348015610ae057600080fd5b507f00000000000000000000000000000000000000000000000000000000000000006104f8565b348015610b1357600080fd5b50610575600081565b348015610b2857600080fd5b50610429610b373660046143cf565b612464565b348015610b4857600080fd5b50600d54600160901b900463ffffffff166104f8565b348015610b6a57600080fd5b50610429610b7936600461457f565b612478565b348015610b8a57600080fd5b506104a26daaeb6d7670e522a718067333cd4e81565b348015610bac57600080fd5b50610429610bbb366004614738565b612994565b348015610bcc57600080fd5b50610429610bdb366004614753565b612a93565b348015610bec57600080fd5b50600d54600160d01b900461ffff1660405161ffff9091168152602001610457565b348015610c1a57600080fd5b50600d54600160b01b900463ffffffff166104f8565b348015610c3c57600080fd5b50610429610c4b3660046147be565b612add565b348015610c5c57600080fd5b50610429610c6b366004614851565b612b87565b348015610c7c57600080fd5b50610475610c8b366004613e44565b612c9f565b348015610c9c57600080fd5b50610429610cab36600461420f565b612d52565b348015610cbc57600080fd5b50600d54600160501b900463ffffffff166104f8565b348015610cde57600080fd5b5060125461044b90600160a01b900460ff1681565b348015610cff57600080fd5b50610475612d77565b348015610d1457600080fd5b5061044b610d23366004614892565b6001600160a01b03918216600090815260076020908152604080832093909416825291909152205460ff1690565b348015610d5d57600080fd5b5061044b612e17565b348015610d7257600080fd5b50610429610d81366004613e89565b612e61565b348015610d9257600080fd5b506013546104a2906001600160a01b031681565b348015610db257600080fd5b50610429610dc13660046142c5565b612ec8565b348015610dd257600080fd5b50600d5462010000900463ffffffff166104f8565b348015610df357600080fd5b50600d54610100900460ff1661044b565b348015610e1057600080fd5b50610429610e1f3660046142c5565b612f41565b348015610e3057600080fd5b50610429610e3f3660046148b0565b612f8a565b600c546001600160a01b0316610e755760405162461bcd60e51b8152600401610e6c906148c8565b60405180910390fd5b610e7e87612fbe565b600b54600c54604051630ac0898160e11b81526001600160a01b0392831692631581130292610ec0929116908b908b908b908b908b908b908b90600401614979565b600060405180830381600087803b158015610eda57600080fd5b505af1158015610eee573d6000803e3d6000fd5b5050505050505050505050565b600063152a902d60e11b6001600160e01b031983161480610f205750610f20826130a2565b80610f2f5750610f2f826130d7565b80610f3e5750610f3e826130a2565b92915050565b606060028054610f53906149db565b80601f0160208091040260200160405190810160405280929190818152602001828054610f7f906149db565b8015610fcc5780601f10610fa157610100808354040283529160200191610fcc565b820191906000526020600020905b815481529060010190602001808311610faf57829003601f168201915b5050505050905090565b6000610fe182613125565b610ffe576040516333d1c03960e21b815260040160405180910390fd5b506000908152600660205260409020546001600160a01b031690565b816110248161314c565b61102e8383613205565b505050565b61103e6000336123f7565b61105a5760405162461bcd60e51b8152600401610e6c90614a0f565b600d805467ffffffffffffffff60901b1916600160901b63ffffffff9485160263ffffffff60b01b191617600160b01b9290931691909102919091179055565b6009546001906001600160a01b03161580159061110357506000600954600160f81b900460ff1660028111156110d2576110d2613f2e565b1480611103575080801561110357506001600954600160f81b900460ff16600281111561110157611101613f2e565b145b8061113457508015801561113457506002600954600160f81b900460ff16600281111561113257611132613f2e565b145b15611200576009546040516370a0823160e01b8152336004820152600160a01b82046001600160581b0316916001600160a01b0316906370a08231906024016020604051808303816000875af1158015611192573d6000803e3d6000fd5b505050506040513d601f19601f820116820180604052508101906111b69190614a32565b10156112005760405162461bcd60e51b81526020600482015260196024820152783237903737ba1037bbb7103932b8bab4b932b2103a37b5b2b760391b6044820152606401610e6c565b600d54600160501b900463ffffffff16421080159061122e5750600d54600160701b900463ffffffff164211155b6112685760405162461bcd60e51b815260206004820152600b60248201526a6e6f742070726573616c6560a81b6044820152606401610e6c565b600054601254600160a01b900460ff16156112c55760405162461bcd60e51b815260206004820152601b60248201527f53616c65206d7573742062652061637469766520746f206d696e7400000000006044820152606401610e6c565b600d5462010000900463ffffffff166112de8883614a61565b11156112fc5760405162461bcd60e51b8152600401610e6c90614a74565b61138084848080602002602001604051908101604052809392919081815260200183836020028082843760009201919091525050600f546040516bffffffffffffffffffffffff1960608f901b166020820152603481018c9052605481018b90529092506074019050604051602081830303815290604052805190602001206132a5565b6113bb5760405162461bcd60e51b815260206004820152600c60248201526b1b9bdd08185c1c1c9bdd995960a21b6044820152606401610e6c565b6113c58786614aa9565b3410156114095760405162461bcd60e51b8152602060048201526012602482015271496e73756666696369656e742066756e647360701b6044820152606401610e6c565b85876114148a612321565b61141e9190614a61565b111561145e5760405162461bcd60e51b815260206004820152600f60248201526e6d696e74656420746f6f206d616e7960881b6044820152606401610e6c565b61146888886132bb565b60005b878110156114c357604080516001600160a01b038b168152602081018490526001909301927f30385c845b448a36257a6a1716e6ad2e1bc2cbe333cde1e69fe849ad6511adfe910160405180910390a160010161146b565b505050505050505050565b60006114d9826132d5565b9050836001600160a01b0316816001600160a01b03161461150c5760405162a1148160e81b815260040160405180910390fd5b60008281526006602052604090208054338082146001600160a01b038816909114176115595761153c8633610d23565b61155957604051632ce44b5f60e11b815260040160405180910390fd5b6001600160a01b03851661158057604051633a954ecd60e21b815260040160405180910390fd5b61158d8686866001613343565b801561159857600082555b6001600160a01b038681166000908152600560205260408082208054600019019055918716808252919020805460010190554260a01b17600160e11b17600085815260046020526040812091909155600160e11b8416900361162a576001840160008181526004602052604081205490036116285760005481146116285760008181526004602052604090208490555b505b83856001600160a01b0316876001600160a01b03167fddf252ad1be2c89b69c2b068fc378daa952ba7f163c4a11628f55a4df523b3ef60405160405180910390a45b505050505050565b600c546001600160a01b031661169c5760405162461bcd60e51b8152600401610e6c906148c8565b87156116b0576116b0868686868686612add565b60005b87518110156116f4576116e48882815181106116d1576116d1614ac0565b6020026020010151888888888888610e44565b6116ed81614ad6565b90506116b3565b506114c38989896133c4565b61170b6000336123f7565b6117275760405162461bcd60e51b8152600401610e6c90614a0f565b600f55565b60008061173884613125565b6117785760405162461bcd60e51b81526020600482015260116024820152702737b732bc34b9ba32b73a103a37b5b2b760791b6044820152606401610e6c565b600c546001600160a01b03161561179c57600c546001600160a01b031691506117e3565b600e54600160601b90046001600160a01b0316156117ce57600e54600160601b90046001600160a01b031691506117e3565b600a546201000090046001600160a01b031691505b600d546000906127109061180290600160d01b900461ffff1686614aa9565b61180c9190614aef565b9150505b9250929050565b6118226000336123f7565b61183e5760405162461bcd60e51b8152600401610e6c90614a0f565b60405163c3c5a54760e01b81523060048201819052906daaeb6d7670e522a718067333cd4e9063c3c5a547906024016020604051808303816000875af115801561188c573d6000803e3d6000fd5b505050506040513d601f19601f820116820180604052508101906118b09190614b11565b1580156118ba5750825b1561193457604051633e9f1edf60e11b81526001600160a01b038083166004830152831660248201526daaeb6d7670e522a718067333cd4e90637d3e3dbe906044015b600060405180830381600087803b15801561191757600080fd5b505af115801561192b573d6000803e3d6000fd5b50505050505050565b821561197c57604051632cc5350560e21b81526001600160a01b038083166004830152831660248201526daaeb6d7670e522a718067333cd4e9063b314d414906044016118fd565b60405163034a0dc160e41b81526001600160a01b0382166004820152600060248201526daaeb6d7670e522a718067333cd4e906334a0dc1090604401600060405180830381600087803b1580156119d257600080fd5b505af11580156119e6573d6000803e3d6000fd5b5050604051631761612360e11b81526001600160a01b03841660048201526daaeb6d7670e522a718067333cd4e9250632ec2c24691506024016118fd565b600082815260086020526040902060010154611a3f816133f8565b61102e8383613402565b611a51613488565b600c546001600160a01b031615611aa25760405162461bcd60e51b815260206004820152601560248201527414dc1b1a5d08185b1c9958591e4818dc99585d1959605a1b6044820152606401610e6c565b600b80546001600160a01b0319166001600160a01b038816908117909155604051633b00fbc160e11b8152637601f78290611aeb90889088908890889088903390600401614b2e565b6020604051808303816000875af1158015611b0a573d6000803e3d6000fd5b505050506040513d601f19601f82011682018060405250810190611b2e9190614b7f565b600c80546001600160a01b0319166001600160a01b0392909216919091179055505050505050565b611b616000336123f7565b611b7d5760405162461bcd60e51b8152600401610e6c90614a0f565b600e80546001600160a01b03909216600160601b026001600160601b03909216919091179055565b611bb06000336123f7565b611bcc5760405162461bcd60e51b8152600401610e6c90614a0f565b6012805460ff60a01b198116600160a01b9182900460ff1615909102179055565b6001600160a01b0381163314611c5d5760405162461bcd60e51b815260206004820152602f60248201527f416363657373436f6e74726f6c3a2063616e206f6e6c792072656e6f756e636560448201526e103937b632b9903337b91039b2b63360891b6064820152608401610e6c565b611c6782826134e9565b5050565b600c546001600160a01b031615611cd05760405162461bcd60e51b8152602060048201526024808201527f43616e6e6f74207769746864726177207769746820616e2061637469766520736044820152631c1b1a5d60e21b6064820152608401610e6c565b600e54600090600160601b90046001600160a01b0316611d0157600a546201000090046001600160a01b0316611d15565b600e54600160601b90046001600160a01b03165b90506000816001600160a01b03164760405160006040518083038185875af1925050503d8060008114611d64576040519150601f19603f3d011682016040523d82523d6000602084013e611d69565b606091505b5050905080611c675760405162461bcd60e51b8152602060048201526012602482015271436f756c64206e6f7420776974686472617760701b6044820152606401610e6c565b6009546000906001600160a01b031615801590611e1857506000600954600160f81b900460ff166002811115611de757611de7613f2e565b1480611e185750808015611e1857506001600954600160f81b900460ff166002811115611e1657611e16613f2e565b145b80611e49575080158015611e4957506002600954600160f81b900460ff166002811115611e4757611e47613f2e565b145b15611f15576009546040516370a0823160e01b8152336004820152600160a01b82046001600160581b0316916001600160a01b0316906370a08231906024016020604051808303816000875af1158015611ea7573d6000803e3d6000fd5b505050506040513d601f19601f82011682018060405250810190611ecb9190614a32565b1015611f155760405162461bcd60e51b81526020600482015260196024820152783237903737ba1037bbb7103932b8bab4b932b2103a37b5b2b760391b6044820152606401610e6c565b600054600d54600160901b900463ffffffff164210801590611f465750600d54600160b01b900463ffffffff164211155b611f8a5760405162461bcd60e51b815260206004820152601560248201527429b0b632b99030b932903737ba1030b1ba34bb329760591b6044820152606401610e6c565b601254600160a01b900460ff1615611fe45760405162461bcd60e51b815260206004820152601b60248201527f53616c65206d7573742062652061637469766520746f206d696e7400000000006044820152606401610e6c565b600d5462010000900463ffffffff16611ffd8483614a61565b111561201b5760405162461bcd60e51b8152600401610e6c90614a74565b600d5462010000900463ffffffff168111156120645760405162461bcd60e51b815260206004820152600860248201526714d3d3110813d55560c21b6044820152606401610e6c565b600e5461207b9084906001600160601b0316614aa9565b3410156120bf5760405162461bcd60e51b8152602060048201526012602482015271496e73756666696369656e742066756e647360701b6044820152606401610e6c565b600d54600160301b900463ffffffff161561213357600d54600160301b900463ffffffff168311156121335760405162461bcd60e51b815260206004820152601c60248201527f4578636565646564206d6178206e756d62657220706572206d696e74000000006044820152606401610e6c565b61213d84846132bb565b60005b8381101561219857604080516001600160a01b0387168152602081018490526001909301927f30385c845b448a36257a6a1716e6ad2e1bc2cbe333cde1e69fe849ad6511adfe910160405180910390a1600101612140565b5050505050565b61102e83838360405180602001604052806000815250612a93565b6121c56000336123f7565b6121e15760405162461bcd60e51b8152600401610e6c90614a0f565b6010611c678282614be2565b6000610f3e826132d5565b60108054612205906149db565b80601f0160208091040260200160405190810160405280929190818152602001828054612231906149db565b801561227e5780601f106122535761010080835404028352916020019161227e565b820191906000526020600020905b81548152906001019060200180831161226157829003601f168201915b505050505081565b6122916000336123f7565b6122ad5760405162461bcd60e51b8152600401610e6c90614a0f565b600054600d5462010000900463ffffffff166122c98383614a61565b106122e65760405162461bcd60e51b8152600401610e6c90614a74565b60005b8281101561102e5761230f336122ff8385614a61565b61230a906001614a61565b6132bb565b8061231981614ad6565b9150506122e9565b60006001600160a01b03821661234a576040516323d3ad8160e21b815260040160405180910390fd5b506001600160a01b03166000908152600560205260409020546001600160401b031690565b612377613488565b6123816000613550565b565b600c546001600160a01b03166123ab5760405162461bcd60e51b8152600401610e6c906148c8565b81156123b9576123b96135ac565b60005b815181101561102e576123e78282815181106123da576123da614ac0565b6020026020010151612fbe565b6123f081614ad6565b90506123bc565b60009182526008602090815260408084206001600160a01b0393909316845291905290205460ff1690565b61242d6000336123f7565b6124495760405162461bcd60e51b8152600401610e6c90614a0f565b6011611c678282614be2565b606060038054610f53906149db565b8161246e8161314c565b61102e838361364f565b600a54610100900460ff16158080156124985750600a54600160ff909116105b806124b25750303b1580156124b25750600a5460ff166001145b6125155760405162461bcd60e51b815260206004820152602e60248201527f496e697469616c697a61626c653a20636f6e747261637420697320616c72656160448201526d191e481a5b9a5d1a585b1a5e995960921b6064820152608401610e6c565b600a805460ff19166001179055801561253857600a805461ff0019166101001790555b61254186613550565b61254c600087613402565b845160029061255b9082614be2565b50602085015160039061256e9082614be2565b50600080556060840151601380546001600160a01b039283166001600160a01b031990911617905583516009805460208701516001600160581b0316600160a01b026001600160f81b0319909116929093169190911791909117808255604085015185929182906001600160f81b0316600160f81b8360028111156125f5576125f5613f2e565b0217905550905050604051806101800160405280866040015115158152602001866060015115158152602001866080015163ffffffff1681526020018660a0015163ffffffff1681526020018660c0015163ffffffff1681526020018660e0015163ffffffff16815260200186610100015163ffffffff16815260200186610120015163ffffffff16815260200186610140015161ffff1681526020018661016001516001600160601b031681526020018661018001516001600160a01b03168152602001866101a00151815250600d60008201518160000160006101000a81548160ff02191690831515021790555060208201518160000160016101000a81548160ff02191690831515021790555060408201518160000160026101000a81548163ffffffff021916908363ffffffff16021790555060608201518160000160066101000a81548163ffffffff021916908363ffffffff160217905550608082015181600001600a6101000a81548163ffffffff021916908363ffffffff16021790555060a082015181600001600e6101000a81548163ffffffff021916908363ffffffff16021790555060c08201518160000160126101000a81548163ffffffff021916908363ffffffff16021790555060e08201518160000160166101000a81548163ffffffff021916908363ffffffff16021790555061010082015181600001601a6101000a81548161ffff021916908361ffff1602179055506101208201518160010160006101000a8154816001600160601b0302191690836001600160601b0316021790555061014082015181600101600c6101000a8154816001600160a01b0302191690836001600160a01b03160217905550610160820151816002015590505060006001600160a01b0316826001600160a01b0316141580156128a557506000846040015151115b1561292357601280546001600160a01b0319166001600160a01b03841690811790915560408581015190516342b53ffd60e11b815263856a7ffa916128ec91600401613e31565b600060405180830381600087803b15801561290657600080fd5b505af115801561291a573d6000803e3d6000fd5b50505050612947565b83516011906129329082614be2565b5060208401516010906129459082614be2565b505b801561166c57600a805461ff0019169055604051600181527f7f26b83ff96e1f2b6a682f133852f6798a09c465da95921460cefb38474024989060200160405180910390a1505050505050565b61299f6000336123f7565b6129bb5760405162461bcd60e51b8152600401610e6c90614a0f565b600d5460ff16612a1b5760405162461bcd60e51b815260206004820152602560248201527f63616e6e6f742061646a7573742073697a65206f66207468697320636f6c6c6560448201526431ba34b7b760d91b6064820152608401610e6c565b8063ffffffff16612a2b60005490565b1115612a6f5760405162461bcd60e51b8152602060048201526013602482015272063616e6e6f742064656372656173652063617606c1b6044820152606401610e6c565b600d805463ffffffff909216620100000265ffffffff000019909216919091179055565b612a9e8484846114ce565b6001600160a01b0383163b15612ad757612aba848484846136e4565b612ad7576040516368d2bf6b60e11b815260040160405180910390fd5b50505050565b600c546001600160a01b0316612b055760405162461bcd60e51b8152600401610e6c906148c8565b612b0d6135ac565b600b54600c5460405163730e582f60e11b81526001600160a01b039283169263e61cb05e92612b4d929116908a908a908a908a908a908a90600401614ca1565b600060405180830381600087803b158015612b6757600080fd5b505af1158015612b7b573d6000803e3d6000fd5b50505050505050505050565b612b926000336123f7565b612bae5760405162461bcd60e51b8152600401610e6c90614a0f565b600054600d54819062010000900463ffffffff16612bcc8483614a61565b1115612bea5760405162461bcd60e51b8152600401610e6c90614a74565b8183015b8083101561219857612c298585848603818110612c0d57612c0d614ac0565b9050602002016020810190612c2291906142c5565b60016132bb565b7f30385c845b448a36257a6a1716e6ad2e1bc2cbe333cde1e69fe849ad6511adfe8585848603818110612c5e57612c5e614ac0565b9050602002016020810190612c7391906142c5565b604080516001600160a01b039092168252602082018690520160405180910390a1600190920191612bee565b6060612caa82613125565b612cc757604051630a14c4b560e41b815260040160405180910390fd5b6012546001600160a01b031615612d495760125460405163c87b56dd60e01b8152600481018490526001600160a01b039091169063c87b56dd90602401600060405180830381865afa158015612d21573d6000803e3d6000fd5b505050506040513d6000823e601f3d908101601f19168201604052610f3e9190810190614cfa565b610f3e826137d0565b600082815260086020526040902060010154612d6d816133f8565b61102e83836134e9565b6012546060906001600160a01b0316612d975760118054610f53906149db565b601260009054906101000a90046001600160a01b03166001600160a01b031663e8a3d4856040518163ffffffff1660e01b8152600401600060405180830381865afa158015612dea573d6000803e3d6000fd5b505050506040513d6000823e601f3d908101601f19168201604052612e129190810190614cfa565b905090565b600d54600090600160901b900463ffffffff164210801590612e485750600d54600160b01b900463ffffffff164211155b8015612e12575050601254600160a01b900460ff161590565b612e6c6000336123f7565b612e885760405162461bcd60e51b8152600401610e6c90614a0f565b600d805467ffffffffffffffff60501b1916600160501b63ffffffff9485160263ffffffff60701b191617600160701b9290931691909102919091179055565b612ed0613488565b6001600160a01b038116612f355760405162461bcd60e51b815260206004820152602660248201527f4f776e61626c653a206e6577206f776e657220697320746865207a65726f206160448201526564647265737360d01b6064820152608401610e6c565b612f3e81613550565b50565b612f4c6000336123f7565b612f685760405162461bcd60e51b8152600401610e6c90614a0f565b601280546001600160a01b0319166001600160a01b0392909216919091179055565b612f956000336123f7565b612fb15760405162461bcd60e51b8152600401610e6c90614a0f565b80600961102e8282614d70565b6040516370a0823160e01b81523060048201526000906001600160a01b038316906370a0823190602401602060405180830381865afa158015613005573d6000803e3d6000fd5b505050506040513d601f19601f820116820180604052508101906130299190614a32565b600c5460405163a9059cbb60e01b81526001600160a01b0391821660048201526024810183905291925083169063a9059cbb906044016020604051808303816000875af115801561307e573d6000803e3d6000fd5b505050506040513d601f19601f8201168201806040525081019061102e9190614b11565b60006001600160e01b03198216637965db0b60e01b1480610f3e57506301ffc9a760e01b6001600160e01b0319831614610f3e565b60006301ffc9a760e01b6001600160e01b03198316148061310857506380ac58cd60e01b6001600160e01b03198316145b80610f3e5750506001600160e01b031916635b5e139f60e01b1490565b6000805482108015610f3e575050600090815260046020526040902054600160e01b161590565b6daaeb6d7670e522a718067333cd4e3b15612f3e57604051633185c44d60e21b81523060048201526001600160a01b03821660248201526daaeb6d7670e522a718067333cd4e9063c617113490604401602060405180830381865afa1580156131b9573d6000803e3d6000fd5b505050506040513d601f19601f820116820180604052508101906131dd9190614b11565b612f3e57604051633b79c77360e21b81526001600160a01b0382166004820152602401610e6c565b6000613210826121ed565b9050336001600160a01b038216146132495761322c8133610d23565b613249576040516367d9dca160e11b815260040160405180910390fd5b60008281526006602052604080822080546001600160a01b0319166001600160a01b0387811691821790925591518593918516917f8c5be1e5ebec7d5bd14f71427d1e84f3dd0314c0f7b2291e5b200ac8c7c3b92591a4505050565b6000826132b28584613853565b14949350505050565b611c678282604051806020016040528060008152506138a0565b60008160005481101561332a5760008181526004602052604081205490600160e01b82169003613328575b80600003613321575060001901600081815260046020526040902054613300565b9392505050565b505b604051636f96cda160e11b815260040160405180910390fd5b836001600160a01b038116331461335d5761335d3361314c565b600d54610100900460ff16158061338c57506001600160a01b038516158061338c57506001600160a01b038416155b6121985760405162461bcd60e51b81526020600482015260096024820152681cdbdd5b189bdd5b9960ba1b6044820152606401610e6c565b600b54604051636e5f691960e01b81526001600160a01b0390911690636e5f6919906118fd90869086908690600401614e0d565b612f3e8133613906565b61340c82826123f7565b611c675760008281526008602090815260408083206001600160a01b03851684529091529020805460ff191660011790556134443390565b6001600160a01b0316816001600160a01b0316837f2f8788117e7eff1d82e926ec794901d17c78024a50270940304540a733656f0d60405160405180910390a45050565b600a546001600160a01b03620100009091041633146123815760405162461bcd60e51b815260206004820181905260248201527f4f776e61626c653a2063616c6c6572206973206e6f7420746865206f776e65726044820152606401610e6c565b6134f382826123f7565b15611c675760008281526008602090815260408083206001600160a01b0385168085529252808320805460ff1916905551339285917ff6391f5c32d9c69d2a47ea670b442974b53935d1edc7fd64eb21e047a839171b9190a45050565b600a80546001600160a01b038381166201000081810262010000600160b01b031985161790945560405193909204169182907f8be0079c531659141344cd1fd0a4f28419497f9722a3daafe3b4186f6b6457e090600090a35050565b600c546040516000916001600160a01b03169047908381818185875af1925050503d80600081146135f9576040519150601f19603f3d011682016040523d82523d6000602084013e6135fe565b606091505b5050905080612f3e5760405162461bcd60e51b815260206004820152601f60248201527f436f756c64206e6f74207472616e736665722045544820746f2073706c6974006044820152606401610e6c565b336001600160a01b038316036136785760405163b06307db60e01b815260040160405180910390fd5b3360008181526007602090815260408083206001600160a01b03871680855290835292819020805460ff191686151590811790915590519081529192917f17307eab39ab6107e8899845ad3d59bd9653f200f220920489ca2b5937696c31910160405180910390a35050565b604051630a85bd0160e11b81526000906001600160a01b0385169063150b7a0290613719903390899088908890600401614e70565b6020604051808303816000875af1925050508015613754575060408051601f3d908101601f1916820190925261375191810190614ead565b60015b6137b2573d808015613782576040519150601f19603f3d011682016040523d82523d6000602084013e613787565b606091505b5080516000036137aa576040516368d2bf6b60e11b815260040160405180910390fd5b805181602001fd5b6001600160e01b031916630a85bd0160e11b1490505b949350505050565b60606137db82613125565b6137f857604051630a14c4b560e41b815260040160405180910390fd5b600061380261395f565b905080516000036138225760405180602001604052806000815250613321565b8061382c8461396e565b60405160200161383d929190614eca565b6040516020818303038152906040529392505050565b600081815b8451811015613898576138848286838151811061387757613877614ac0565b60200260200101516139a6565b91508061389081614ad6565b915050613858565b509392505050565b6138aa83836139d2565b6001600160a01b0383163b1561102e576000548281035b6138d460008683806001019450866136e4565b6138f1576040516368d2bf6b60e11b815260040160405180910390fd5b8181106138c157816000541461219857600080fd5b61391082826123f7565b611c675761391d81613add565b613928836020613aef565b604051602001613939929190614ef9565b60408051601f198184030181529082905262461bcd60e51b8252610e6c91600401613e31565b606060108054610f53906149db565b604080516080019081905280825b600183039250600a81066030018353600a90048061397c5750819003601f19909101908152919050565b60008183106139c2576000828152602084905260409020613321565b5060009182526020526040902090565b60008054908290036139f75760405163b562e8dd60e01b815260040160405180910390fd5b613a046000848385613343565b6001600160a01b03831660008181526005602090815260408083208054680100000000000000018802019055848352600490915281206001851460e11b4260a01b178317905582840190839083907fddf252ad1be2c89b69c2b068fc378daa952ba7f163c4a11628f55a4df523b3ef8180a4600183015b818114613ab357808360007fddf252ad1be2c89b69c2b068fc378daa952ba7f163c4a11628f55a4df523b3ef600080a4600101613a7b565b5081600003613ad457604051622e076360e81b815260040160405180910390fd5b60005550505050565b6060610f3e6001600160a01b03831660145b60606000613afe836002614aa9565b613b09906002614a61565b6001600160401b03811115613b2057613b20613fd0565b6040519080825280601f01601f191660200182016040528015613b4a576020820181803683370190505b509050600360fc1b81600081518110613b6557613b65614ac0565b60200101906001600160f81b031916908160001a905350600f60fb1b81600181518110613b9457613b94614ac0565b60200101906001600160f81b031916908160001a9053506000613bb8846002614aa9565b613bc3906001614a61565b90505b6001811115613c3b576f181899199a1a9b1b9c1cb0b131b232b360811b85600f1660108110613bf757613bf7614ac0565b1a60f81b828281518110613c0d57613c0d614ac0565b60200101906001600160f81b031916908160001a90535060049490941c93613c3481614f6e565b9050613bc6565b5083156133215760405162461bcd60e51b815260206004820181905260248201527f537472696e67733a20686578206c656e67746820696e73756666696369656e746044820152606401610e6c565b6001600160a01b0381168114612f3e57600080fd5b60008083601f840112613cb157600080fd5b5081356001600160401b03811115613cc857600080fd5b6020830191508360208260051b850101111561181057600080fd5b803563ffffffff81168114613cf757600080fd5b919050565b8035613cf781613c8a565b600080600080600080600060a0888a031215613d2257600080fd5b8735613d2d81613c8a565b965060208801356001600160401b0380821115613d4957600080fd5b613d558b838c01613c9f565b909850965060408a0135915080821115613d6e57600080fd5b50613d7b8a828b01613c9f565b9095509350613d8e905060608901613ce3565b91506080880135613d9e81613c8a565b8091505092959891949750929550565b6001600160e01b031981168114612f3e57600080fd5b600060208284031215613dd657600080fd5b813561332181613dae565b60005b83811015613dfc578181015183820152602001613de4565b50506000910152565b60008151808452613e1d816020860160208601613de1565b601f01601f19169290920160200192915050565b6020815260006133216020830184613e05565b600060208284031215613e5657600080fd5b5035919050565b60008060408385031215613e7057600080fd5b8235613e7b81613c8a565b946020939093013593505050565b60008060408385031215613e9c57600080fd5b613ea583613ce3565b9150613eb360208401613ce3565b90509250929050565b60008060008060008060a08789031215613ed557600080fd5b8635613ee081613c8a565b955060208701359450604087013593506060870135925060808701356001600160401b03811115613f1057600080fd5b613f1c89828a01613c9f565b979a9699509497509295939492505050565b634e487b7160e01b600052602160045260246000fd5b6001600160a01b03841681526001600160581b03831660208201526060810160038310613f8157634e487b7160e01b600052602160045260246000fd5b826040830152949350505050565b600080600060608486031215613fa457600080fd5b8335613faf81613c8a565b92506020840135613fbf81613c8a565b929592945050506040919091013590565b634e487b7160e01b600052604160045260246000fd5b6040516101c081016001600160401b038111828210171561400957614009613fd0565b60405290565b604051601f8201601f191681016001600160401b038111828210171561403757614037613fd0565b604052919050565b600082601f83011261405057600080fd5b813560206001600160401b0382111561406b5761406b613fd0565b8160051b61407a82820161400f565b928352848101820192828101908785111561409457600080fd5b83870192505b848310156140bc5782356140ad81613c8a565b8252918301919083019061409a565b979650505050505050565b600080600080600080600080600060e08a8c0312156140e557600080fd5b89356140f081613c8a565b985060208a0135975060408a01356001600160401b038082111561411357600080fd5b61411f8d838e0161403f565b985060608c013591508082111561413557600080fd5b6141418d838e01613c9f565b909850965060808c013591508082111561415a57600080fd5b506141678c828d01613c9f565b909550935061417a905060a08b01613ce3565b915060c08a013561418a81613c8a565b809150509295985092959850929598565b600080604083850312156141ae57600080fd5b50508035926020909101359150565b8015158114612f3e57600080fd5b8035613cf7816141bd565b600080604083850312156141e957600080fd5b82356141f4816141bd565b9150602083013561420481613c8a565b809150509250929050565b6000806040838503121561422257600080fd5b82359150602083013561420481613c8a565b6000806000806000806080878903121561424d57600080fd5b863561425881613c8a565b955060208701356001600160401b038082111561427457600080fd5b6142808a838b01613c9f565b9097509550604089013591508082111561429957600080fd5b506142a689828a01613c9f565b90945092506142b9905060608801613ce3565b90509295509295509295565b6000602082840312156142d757600080fd5b813561332181613c8a565b60006001600160401b038211156142fb576142fb613fd0565b50601f01601f191660200190565b600082601f83011261431a57600080fd5b813561432d614328826142e2565b61400f565b81815284602083860101111561434257600080fd5b816020850160208301376000918101602001919091529392505050565b60006020828403121561437157600080fd5b81356001600160401b0381111561438757600080fd5b6137c884828501614309565b600080604083850312156143a657600080fd5b8235915060208301356001600160401b038111156143c357600080fd5b61180c8582860161403f565b600080604083850312156143e257600080fd5b82356143ed81613c8a565b91506020830135614204816141bd565b803561ffff81168114613cf757600080fd5b80356001600160601b0381168114613cf757600080fd5b60006080828403121561443857600080fd5b604051608081016001600160401b03828210818311171561445b5761445b613fd0565b81604052829350843591508082111561447357600080fd5b61447f86838701614309565b8352602085013591508082111561449557600080fd5b6144a186838701614309565b602084015260408501359150808211156144ba57600080fd5b506144c785828601614309565b60408301525060608301356144db81613c8a565b6060919091015292915050565b6001600160581b0381168114612f3e57600080fd5b60038110612f3e57600080fd5b60006060828403121561451c57600080fd5b604051606081018181106001600160401b038211171561453e5761453e613fd0565b604052905080823561454f81613c8a565b8152602083013561455f816144e8565b60208201526040830135614572816144fd565b6040919091015292915050565b600080600080600060e0868803121561459757600080fd5b85356145a281613c8a565b945060208601356001600160401b03808211156145be57600080fd5b908701906101c0828a0312156145d357600080fd5b6145db613fe6565b8235828111156145ea57600080fd5b6145f68b828601614309565b82525060208301358281111561460b57600080fd5b6146178b828601614309565b602083015250614629604084016141cb565b604082015261463a606084016141cb565b606082015261464b60808401613ce3565b608082015261465c60a08401613ce3565b60a082015261466d60c08401613ce3565b60c082015261467e60e08401613ce3565b60e0820152610100614691818501613ce3565b908201526101206146a3848201613ce3565b908201526101406146b58482016143fd565b908201526101606146c784820161440f565b908201526101806146d9848201613cfc565b908201526101a092830135928101929092529094506040870135908082111561470157600080fd5b5061470e88828901614426565b93505061471e876060880161450a565b915061472c60c08701613cfc565b90509295509295909350565b60006020828403121561474a57600080fd5b61332182613ce3565b6000806000806080858703121561476957600080fd5b843561477481613c8a565b9350602085013561478481613c8a565b92506040850135915060608501356001600160401b038111156147a657600080fd5b6147b287828801614309565b91505092959194509250565b600080600080600080608087890312156147d757600080fd5b86356001600160401b03808211156147ee57600080fd5b6147fa8a838b01613c9f565b9098509650602089013591508082111561481357600080fd5b5061482089828a01613c9f565b9095509350614833905060408801613ce3565b9150606087013561484381613c8a565b809150509295509295509295565b6000806020838503121561486457600080fd5b82356001600160401b0381111561487a57600080fd5b61488685828601613c9f565b90969095509350505050565b600080604083850312156148a557600080fd5b82356141f481613c8a565b6000606082840312156148c257600080fd5b50919050565b60208082526015908201527414dc1b1a5d081b9bdd0818dc99585d1959081e595d605a1b604082015260600190565b8183526000602080850194508260005b8581101561493557813561491a81613c8a565b6001600160a01b031687529582019590820190600101614907565b509495945050505050565b8183526000602080850194508260005b858110156149355763ffffffff61496683613ce3565b1687529582019590820190600101614950565b600060018060a01b03808b168352808a16602084015260c060408401526149a460c08401898b6148f7565b83810360608501526149b781888a614940565b63ffffffff969096166080850152509290921660a090910152509695505050505050565b600181811c908216806149ef57607f821691505b6020821081036148c257634e487b7160e01b600052602260045260246000fd5b60208082526009908201526837b7363ca0b236b4b760b91b604082015260600190565b600060208284031215614a4457600080fd5b5051919050565b634e487b7160e01b600052601160045260246000fd5b80820180821115610f3e57610f3e614a4b565b6020808252818101527f507572636861736520776f756c6420657863656564206d617820737570706c79604082015260600190565b8082028115828204841417610f3e57610f3e614a4b565b634e487b7160e01b600052603260045260246000fd5b600060018201614ae857614ae8614a4b565b5060010190565b600082614b0c57634e487b7160e01b600052601260045260246000fd5b500490565b600060208284031215614b2357600080fd5b8151613321816141bd565b608081526000614b4260808301888a6148f7565b8281036020840152614b55818789614940565b63ffffffff95909516604084015250506001600160a01b0391909116606090910152949350505050565b600060208284031215614b9157600080fd5b815161332181613c8a565b601f82111561102e57600081815260208120601f850160051c81016020861015614bc35750805b601f850160051c820191505b8181101561166c57828155600101614bcf565b81516001600160401b03811115614bfb57614bfb613fd0565b614c0f81614c0984546149db565b84614b9c565b602080601f831160018114614c445760008415614c2c5750858301515b600019600386901b1c1916600185901b17855561166c565b600085815260208120601f198616915b82811015614c7357888601518255948401946001909101908401614c54565b5085821015614c915787850151600019600388901b60f8161c191681555b5050505050600190811b01905550565b600060018060a01b03808a16835260a06020840152614cc460a08401898b6148f7565b8381036040850152614cd781888a614940565b63ffffffff96909616606085015250929092166080909101525095945050505050565b600060208284031215614d0c57600080fd5b81516001600160401b03811115614d2257600080fd5b8201601f81018413614d3357600080fd5b8051614d41614328826142e2565b818152856020838501011115614d5657600080fd5b614d67826020830160208601613de1565b95945050505050565b8135614d7b81613c8a565b81546001600160a01b031981166001600160a01b039290921691821783556020840135614da7816144e8565b6affffffffffffffffffffff60a01b60a09190911b166001600160f81b0319918216831781178455604085013591614dde836144fd565b60038310614dfc57634e487b7160e01b600052602160045260246000fd5b921760f89190911b90911617905550565b6001600160a01b038481168252602080830185905260606040840181905284519084018190526000928583019290916080860190855b81811015614e61578551851683529483019491830191600101614e43565b50909998505050505050505050565b6001600160a01b0385811682528416602082015260408101839052608060608201819052600090614ea390830184613e05565b9695505050505050565b600060208284031215614ebf57600080fd5b815161332181613dae565b60008351614edc818460208801613de1565b835190830190614ef0818360208801613de1565b01949350505050565b7f416363657373436f6e74726f6c3a206163636f756e7420000000000000000000815260008351614f31816017850160208801613de1565b7001034b99036b4b9b9b4b733903937b6329607d1b6017918401918201528351614f62816028840160208801613de1565b01602801949350505050565b600081614f7d57614f7d614a4b565b50600019019056fea264697066735822122049068e66e200e1554e689bcb999403bb851c1744763cd46892ab16f848b800c764736f6c63430008110033",
  "linkReferences": {},
  "deployedLinkReferences": {}
}