{
  "_format": "hh-sol-artifact-1",
  "contractName": "DCNTVaultNFT",
  "sourceName": "contracts/DCNTVaultNFT.sol",
  "abi": [
    {
      "inputs": [
        {
          "internalType": "address",
          "name": "_DCNTSDK",
          "type": "address"
        }
      ],
      "stateMutability": "nonpayable",
      "type": "constructor"
    },
    {
      "anonymous": false,
      "inputs": [
        {
          "indexed": false,
          "internalType": "address",
          "name": "nft",
          "type": "address"
        },
        {
          "indexed": false,
          "internalType": "address",
          "name": "vault",
          "type": "address"
        }
      ],
      "name": "Create",
      "type": "event"
    },
    {
      "anonymous": false,
      "inputs": [
        {
          "indexed": true,
          "internalType": "address",
          "name": "previousOwner",
          "type": "address"
        },
        {
          "indexed": true,
          "internalType": "address",
          "name": "newOwner",
          "type": "address"
        }
      ],
      "name": "OwnershipTransferred",
      "type": "event"
    },
    {
      "inputs": [],
      "name": "DCNT4907AImplementation",
      "outputs": [
        {
          "internalType": "address",
          "name": "",
          "type": "address"
        }
      ],
      "stateMutability": "view",
      "type": "function"
    },
    {
      "inputs": [],
      "name": "DCNT721AImplementation",
      "outputs": [
        {
          "internalType": "address",
          "name": "",
          "type": "address"
        }
      ],
      "stateMutability": "view",
      "type": "function"
    },
    {
      "inputs": [],
      "name": "DCNTCrescendoImplementation",
      "outputs": [
        {
          "internalType": "address",
          "name": "",
          "type": "address"
        }
      ],
      "stateMutability": "view",
      "type": "function"
    },
    {
      "inputs": [],
      "name": "DCNTStakingImplementation",
      "outputs": [
        {
          "internalType": "address",
          "name": "",
          "type": "address"
        }
      ],
      "stateMutability": "view",
      "type": "function"
    },
    {
      "inputs": [],
      "name": "DCNTVaultImplementation",
      "outputs": [
        {
          "internalType": "address",
          "name": "",
          "type": "address"
        }
      ],
      "stateMutability": "view",
      "type": "function"
    },
    {
      "inputs": [],
      "name": "SplitMain",
      "outputs": [
        {
          "internalType": "address",
          "name": "",
          "type": "address"
        }
      ],
      "stateMutability": "view",
      "type": "function"
    },
    {
      "inputs": [],
      "name": "ZKEditionImplementation",
      "outputs": [
        {
          "internalType": "address",
          "name": "",
          "type": "address"
        }
      ],
      "stateMutability": "view",
      "type": "function"
    },
    {
      "inputs": [],
      "name": "contractRegistry",
      "outputs": [
        {
          "internalType": "address",
          "name": "",
          "type": "address"
        }
      ],
      "stateMutability": "view",
      "type": "function"
    },
    {
      "inputs": [
        {
          "internalType": "address",
          "name": "_DCNTSDK",
          "type": "address"
        },
        {
          "components": [
            {
              "internalType": "string",
              "name": "name",
              "type": "string"
            },
            {
              "internalType": "string",
              "name": "symbol",
              "type": "string"
            },
            {
              "internalType": "bool",
              "name": "hasAdjustableCap",
              "type": "bool"
            },
            {
              "internalType": "uint256",
              "name": "maxTokens",
              "type": "uint256"
            },
            {
              "internalType": "uint256",
              "name": "tokenPrice",
              "type": "uint256"
            },
            {
              "internalType": "uint256",
              "name": "maxTokenPurchase",
              "type": "uint256"
            },
            {
              "internalType": "bytes32",
              "name": "presaleMerkleRoot",
              "type": "bytes32"
            },
            {
              "internalType": "uint256",
              "name": "presaleStart",
              "type": "uint256"
            },
            {
              "internalType": "uint256",
              "name": "presaleEnd",
              "type": "uint256"
            },
            {
              "internalType": "uint256",
              "name": "saleStart",
              "type": "uint256"
            },
            {
              "internalType": "uint256",
              "name": "saleEnd",
              "type": "uint256"
            },
            {
              "internalType": "uint256",
              "name": "royaltyBPS",
              "type": "uint256"
            }
          ],
          "internalType": "struct EditionConfig",
          "name": "_editionConfig",
          "type": "tuple"
        },
        {
          "components": [
            {
              "internalType": "string",
              "name": "contractURI",
              "type": "string"
            },
            {
              "internalType": "string",
              "name": "metadataURI",
              "type": "string"
            },
            {
              "internalType": "bytes",
              "name": "metadataRendererInit",
              "type": "bytes"
            },
            {
              "internalType": "address",
              "name": "parentIP",
              "type": "address"
            }
          ],
          "internalType": "struct MetadataConfig",
          "name": "_metadataConfig",
          "type": "tuple"
        },
        {
          "components": [
            {
              "internalType": "address",
              "name": "tokenAddress",
              "type": "address"
            },
            {
              "internalType": "uint88",
              "name": "minBalance",
              "type": "uint88"
            },
            {
              "internalType": "enum SaleType",
              "name": "saleType",
              "type": "uint8"
            }
          ],
          "internalType": "struct TokenGateConfig",
          "name": "_tokenGateConfig",
          "type": "tuple"
        },
        {
          "internalType": "address",
          "name": "_vaultDistributionTokenAddress",
          "type": "address"
        },
        {
          "internalType": "uint256",
          "name": "_unlockDate",
          "type": "uint256"
        },
        {
          "internalType": "bool",
          "name": "_supports4907",
          "type": "bool"
        }
      ],
      "name": "create",
      "outputs": [
        {
          "internalType": "address",
          "name": "nft",
          "type": "address"
        },
        {
          "internalType": "address",
          "name": "vault",
          "type": "address"
        }
      ],
      "stateMutability": "nonpayable",
      "type": "function"
    },
    {
      "inputs": [],
      "name": "metadataRenderer",
      "outputs": [
        {
          "internalType": "address",
          "name": "",
          "type": "address"
        }
      ],
      "stateMutability": "view",
      "type": "function"
    },
    {
      "inputs": [],
      "name": "owner",
      "outputs": [
        {
          "internalType": "address",
          "name": "",
          "type": "address"
        }
      ],
      "stateMutability": "view",
      "type": "function"
    },
    {
      "inputs": [],
      "name": "renounceOwnership",
      "outputs": [],
      "stateMutability": "nonpayable",
      "type": "function"
    },
    {
      "inputs": [
        {
          "internalType": "address",
          "name": "newOwner",
          "type": "address"
        }
      ],
      "name": "transferOwnership",
      "outputs": [],
      "stateMutability": "nonpayable",
      "type": "function"
    }
  ],
  "bytecode": "0x60806040523480156200001157600080fd5b50604051620010ed380380620010ed833981016040819052620000349162000439565b6200003f33620003e9565b6000819050806001600160a01b03166310a089136040518163ffffffff1660e01b8152600401602060405180830381600087803b1580156200008057600080fd5b505af115801562000095573d6000803e3d6000fd5b505050506040513d601f19601f82011682018060405250810190620000bb919062000439565b600160006101000a8154816001600160a01b0302191690836001600160a01b03160217905550806001600160a01b0316634285656b6040518163ffffffff1660e01b8152600401602060405180830381600087803b1580156200011d57600080fd5b505af115801562000132573d6000803e3d6000fd5b505050506040513d601f19601f8201168201806040525081019062000158919062000439565b600260006101000a8154816001600160a01b0302191690836001600160a01b03160217905550806001600160a01b0316639f61dfec6040518163ffffffff1660e01b8152600401602060405180830381600087803b158015620001ba57600080fd5b505af1158015620001cf573d6000803e3d6000fd5b505050506040513d601f19601f82011682018060405250810190620001f5919062000439565b600480546001600160a01b0319166001600160a01b0392831617815560408051630703199760e41b81529051928416926370319970928281019260209291908290030181600087803b1580156200024b57600080fd5b505af115801562000260573d6000803e3d6000fd5b505050506040513d601f19601f8201168201806040525081019062000286919062000439565b600760006101000a8154816001600160a01b0302191690836001600160a01b03160217905550806001600160a01b031663abf410e56040518163ffffffff1660e01b8152600401602060405180830381600087803b158015620002e857600080fd5b505af1158015620002fd573d6000803e3d6000fd5b505050506040513d601f19601f8201168201806040525081019062000323919062000439565b600860006101000a8154816001600160a01b0302191690836001600160a01b03160217905550806001600160a01b031663eef702e96040518163ffffffff1660e01b8152600401602060405180830381600087803b1580156200038557600080fd5b505af11580156200039a573d6000803e3d6000fd5b505050506040513d601f19601f82011682018060405250810190620003c0919062000439565b600980546001600160a01b0319166001600160a01b0392909216919091179055506200046b9050565b600080546001600160a01b038381166001600160a01b0319831681178455604051919092169283917f8be0079c531659141344cd1fd0a4f28419497f9722a3daafe3b4186f6b6457e09190a35050565b6000602082840312156200044c57600080fd5b81516001600160a01b03811681146200046457600080fd5b9392505050565b610c72806200047b6000396000f3fe608060405234801561001057600080fd5b50600436106100cf5760003560e01c80638da5cb5b1161008c578063ca825bb511610066578063ca825bb5146101b1578063d0ae315a146101c4578063eef702e9146101d7578063f2fde38b146101ea57600080fd5b80638da5cb5b1461017a5780639f61dfec1461018b578063abf410e51461019e57600080fd5b806310a08913146100d45780633c3b370b146101045780634285656b14610117578063703199701461012a578063715018a61461013d5780637ebbc67014610147575b600080fd5b6001546100e7906001600160a01b031681565b6040516001600160a01b0390911681526020015b60405180910390f35b6005546100e7906001600160a01b031681565b6002546100e7906001600160a01b031681565b6007546100e7906001600160a01b031681565b6101456101fd565b005b61015a61015536600461086c565b610211565b604080516001600160a01b039384168152929091166020830152016100fb565b6000546001600160a01b03166100e7565b6004546100e7906001600160a01b031681565b6008546100e7906001600160a01b031681565b6003546100e7906001600160a01b031681565b6006546100e7906001600160a01b031681565b6009546100e7906001600160a01b031681565b6101456101f83660046109e7565b6104cc565b61020561054a565b61020f60006105a4565b565b600080600083156102df576000808b6001600160a01b03168b8b8b60405160240161023e93929190610b19565b60408051601f198184030181529181526020820180516001600160e01b0316635a33af6b60e11b179052516102739190610c03565b600060405180830381855af49150503d80600081146102ae576040519150601f19603f3d011682016040523d82523d6000602084013e6102b3565b606091505b5091509150816102c257600080fd5b808060200190518101906102d69190610c1f565b9250505061039e565b6000808b6001600160a01b03168b8b8b60405160240161030193929190610b19565b60408051601f198184030181529181526020820180516001600160e01b031663407d5cf760e11b179052516103369190610c03565b600060405180830381855af49150503d8060008114610371576040519150601f19603f3d011682016040523d82523d6000602084013e610376565b606091505b50915091508161038557600080fd5b808060200190518101906103999190610c1f565b925050505b60608901516040516001600160a01b03888116602483015283811660448301526064820192909252608481018790526000918291908d169060a40160408051601f198184030181529181526020820180516001600160e01b0316630e7ac45f60e31b1790525161040e9190610c03565b600060405180830381855af49150503d8060008114610449576040519150601f19603f3d011682016040523d82523d6000602084013e61044e565b606091505b50915091508161045d57600080fd5b6000818060200190518101906104739190610c1f565b604080516001600160a01b038088168252831660208201529192507f96b5b9b8a7193304150caccf9b80d150675fa3d6af57761d8d8ef1d6f9a1a909910160405180910390a1929c929b50919950505050505050505050565b6104d461054a565b6001600160a01b03811661053e5760405162461bcd60e51b815260206004820152602660248201527f4f776e61626c653a206e6577206f776e657220697320746865207a65726f206160448201526564647265737360d01b60648201526084015b60405180910390fd5b610547816105a4565b50565b6000546001600160a01b0316331461020f5760405162461bcd60e51b815260206004820181905260248201527f4f776e61626c653a2063616c6c6572206973206e6f7420746865206f776e65726044820152606401610535565b600080546001600160a01b038381166001600160a01b0319831681178455604051919092169283917f8be0079c531659141344cd1fd0a4f28419497f9722a3daafe3b4186f6b6457e09190a35050565b6001600160a01b038116811461054757600080fd5b8035610614816105f4565b919050565b634e487b7160e01b600052604160045260246000fd5b6040516080810167ffffffffffffffff8111828210171561065257610652610619565b60405290565b604051610180810167ffffffffffffffff8111828210171561065257610652610619565b600067ffffffffffffffff8084111561069757610697610619565b604051601f8501601f19908116603f011681019082821181831017156106bf576106bf610619565b816040528093508581528686860111156106d857600080fd5b858560208301376000602087830101525050509392505050565b600082601f83011261070357600080fd5b6107128383356020850161067c565b9392505050565b8035801515811461061457600080fd5b60006080828403121561073b57600080fd5b61074361062f565b9050813567ffffffffffffffff8082111561075d57600080fd5b610769858386016106f2565b8352602084013591508082111561077f57600080fd5b61078b858386016106f2565b602084015260408401359150808211156107a457600080fd5b508201601f810184136107b657600080fd5b6107c58482356020840161067c565b6040830152506107d760608301610609565b606082015292915050565b6000606082840312156107f457600080fd5b6040516060810181811067ffffffffffffffff8211171561081757610817610619565b6040529050808235610828816105f4565b815260208301356affffffffffffffffffffff8116811461084857600080fd5b602082015260408301356003811061085f57600080fd5b6040919091015292915050565b600080600080600080600061012080898b03121561088957600080fd5b8835610894816105f4565b9750602089013567ffffffffffffffff808211156108b157600080fd5b908a0190610180828d0312156108c657600080fd5b6108ce610658565b8235828111156108dd57600080fd5b6108e98e8286016106f2565b8252506020830135828111156108fe57600080fd5b61090a8e8286016106f2565b60208301525061091c60408401610719565b6040820152606083013560608201526080830135608082015260a083013560a082015260c083013560c082015260e083013560e0820152610100808401358183015284840135858301526101409450848401358583015261016094508484013585830152819a5060408d013594508285111561099757600080fd5b6109a38e868f01610729565b99506109b28e60608f016107e2565b98506109c060c08e01610609565b975060e08d013596506109d4818e01610719565b9550505050505092959891949750929550565b6000602082840312156109f957600080fd5b8135610712816105f4565b60005b83811015610a1f578181015183820152602001610a07565b83811115610a2e576000848401525b50505050565b60008151808452610a4c816020860160208601610a04565b601f01601f19169290920160200192915050565b6000815160808452610a756080850182610a34565b905060208301518482036020860152610a8e8282610a34565b91505060408301518482036040860152610aa88282610a34565b6060948501516001600160a01b03169590940194909452509092915050565b80516001600160a01b031682526020808201516affffffffffffffffffffff1690830152604081015160038110610b0e57634e487b7160e01b600052602160045260246000fd5b806040840152505050565b60a08152600084516101808060a0850152610b38610220850183610a34565b91506020870151609f198584030160c0860152610b558382610a34565b9250506040870151610b6b60e086018215159052565b5060608701516101008581019190915260808801516101208087019190915260a08901516101408088019190915260c08a01516101608089019190915260e08b015194880194909452918901516101a08701528801516101c08601528701516101e08501528601516102008401528281036020840152610beb8186610a60565b915050610bfb6040830184610ac7565b949350505050565b60008251610c15818460208701610a04565b9190910192915050565b600060208284031215610c3157600080fd5b8151610712816105f456fea2646970667358221220f0b654c6418b420bcf8f705ce32cc437aa2996352e2794cd3c2bd49bb9bc1c0564736f6c63430008090033",
  "linkReferences": {},
  "deployedLinkReferences": {}
}