{
  "_format": "hh-sol-artifact-1",
  "contractName": "DCNT721A",
  "sourceName": "contracts/DCNT721A.sol",
  "abi": [
    {
      "inputs": [],
      "name": "ApprovalCallerNotOwnerNorApproved",
      "type": "error"
    },
    {
      "inputs": [],
      "name": "ApprovalQueryForNonexistentToken",
      "type": "error"
    },
    {
      "inputs": [],
      "name": "ApproveToCaller",
      "type": "error"
    },
    {
      "inputs": [],
      "name": "BalanceQueryForZeroAddress",
      "type": "error"
    },
    {
      "inputs": [],
      "name": "FeeTransferFailed",
      "type": "error"
    },
    {
      "inputs": [],
      "name": "MintERC2309QuantityExceedsLimit",
      "type": "error"
    },
    {
      "inputs": [],
      "name": "MintToZeroAddress",
      "type": "error"
    },
    {
      "inputs": [],
      "name": "MintZeroQuantity",
      "type": "error"
    },
    {
      "inputs": [
        {
          "internalType": "address",
          "name": "operator",
          "type": "address"
        }
      ],
      "name": "OperatorNotAllowed",
      "type": "error"
    },
    {
      "inputs": [],
      "name": "OwnerQueryForNonexistentToken",
      "type": "error"
    },
    {
      "inputs": [],
      "name": "OwnershipNotInitializedForExtraData",
      "type": "error"
    },
    {
      "inputs": [],
      "name": "TransferCallerNotOwnerNorApproved",
      "type": "error"
    },
    {
      "inputs": [],
      "name": "TransferFromIncorrectOwner",
      "type": "error"
    },
    {
      "inputs": [],
      "name": "TransferToNonERC721ReceiverImplementer",
      "type": "error"
    },
    {
      "inputs": [],
      "name": "TransferToZeroAddress",
      "type": "error"
    },
    {
      "inputs": [],
      "name": "URIQueryForNonexistentToken",
      "type": "error"
    },
    {
      "anonymous": false,
      "inputs": [
        {
          "indexed": true,
          "internalType": "address",
          "name": "owner",
          "type": "address"
        },
        {
          "indexed": true,
          "internalType": "address",
          "name": "approved",
          "type": "address"
        },
        {
          "indexed": true,
          "internalType": "uint256",
          "name": "tokenId",
          "type": "uint256"
        }
      ],
      "name": "Approval",
      "type": "event"
    },
    {
      "anonymous": false,
      "inputs": [
        {
          "indexed": true,
          "internalType": "address",
          "name": "owner",
          "type": "address"
        },
        {
          "indexed": true,
          "internalType": "address",
          "name": "operator",
          "type": "address"
        },
        {
          "indexed": false,
          "internalType": "bool",
          "name": "approved",
          "type": "bool"
        }
      ],
      "name": "ApprovalForAll",
      "type": "event"
    },
    {
      "anonymous": false,
      "inputs": [
        {
          "indexed": true,
          "internalType": "uint256",
          "name": "fromTokenId",
          "type": "uint256"
        },
        {
          "indexed": false,
          "internalType": "uint256",
          "name": "toTokenId",
          "type": "uint256"
        },
        {
          "indexed": true,
          "internalType": "address",
          "name": "from",
          "type": "address"
        },
        {
          "indexed": true,
          "internalType": "address",
          "name": "to",
          "type": "address"
        }
      ],
      "name": "ConsecutiveTransfer",
      "type": "event"
    },
    {
      "anonymous": false,
      "inputs": [
        {
          "indexed": false,
          "internalType": "uint8",
          "name": "version",
          "type": "uint8"
        }
      ],
      "name": "Initialized",
      "type": "event"
    },
    {
      "anonymous": false,
      "inputs": [
        {
          "indexed": false,
          "internalType": "address",
          "name": "sender",
          "type": "address"
        },
        {
          "indexed": false,
          "internalType": "uint256",
          "name": "tokenId_",
          "type": "uint256"
        }
      ],
      "name": "Minted",
      "type": "event"
    },
    {
      "anonymous": false,
      "inputs": [
        {
          "indexed": true,
          "internalType": "address",
          "name": "previousOwner",
          "type": "address"
        },
        {
          "indexed": true,
          "internalType": "address",
          "name": "newOwner",
          "type": "address"
        }
      ],
      "name": "OwnershipTransferred",
      "type": "event"
    },
    {
      "anonymous": false,
      "inputs": [
        {
          "indexed": true,
          "internalType": "bytes32",
          "name": "role",
          "type": "bytes32"
        },
        {
          "indexed": true,
          "internalType": "bytes32",
          "name": "previousAdminRole",
          "type": "bytes32"
        },
        {
          "indexed": true,
          "internalType": "bytes32",
          "name": "newAdminRole",
          "type": "bytes32"
        }
      ],
      "name": "RoleAdminChanged",
      "type": "event"
    },
    {
      "anonymous": false,
      "inputs": [
        {
          "indexed": true,
          "internalType": "bytes32",
          "name": "role",
          "type": "bytes32"
        },
        {
          "indexed": true,
          "internalType": "address",
          "name": "account",
          "type": "address"
        },
        {
          "indexed": true,
          "internalType": "address",
          "name": "sender",
          "type": "address"
        }
      ],
      "name": "RoleGranted",
      "type": "event"
    },
    {
      "anonymous": false,
      "inputs": [
        {
          "indexed": true,
          "internalType": "bytes32",
          "name": "role",
          "type": "bytes32"
        },
        {
          "indexed": true,
          "internalType": "address",
          "name": "account",
          "type": "address"
        },
        {
          "indexed": true,
          "internalType": "address",
          "name": "sender",
          "type": "address"
        }
      ],
      "name": "RoleRevoked",
      "type": "event"
    },
    {
      "anonymous": false,
      "inputs": [
        {
          "indexed": true,
          "internalType": "address",
          "name": "from",
          "type": "address"
        },
        {
          "indexed": true,
          "internalType": "address",
          "name": "to",
          "type": "address"
        },
        {
          "indexed": true,
          "internalType": "uint256",
          "name": "tokenId",
          "type": "uint256"
        }
      ],
      "name": "Transfer",
      "type": "event"
    },
    {
      "inputs": [],
      "name": "DEFAULT_ADMIN_ROLE",
      "outputs": [
        {
          "internalType": "bytes32",
          "name": "",
          "type": "bytes32"
        }
      ],
      "stateMutability": "view",
      "type": "function"
    },
    {
      "inputs": [],
      "name": "MAX_TOKENS",
      "outputs": [
        {
          "internalType": "uint32",
          "name": "",
          "type": "uint32"
        }
      ],
      "stateMutability": "view",
      "type": "function"
    },
    {
      "inputs": [
        {
          "internalType": "uint32",
          "name": "newCap",
          "type": "uint32"
        }
      ],
      "name": "adjustCap",
      "outputs": [],
      "stateMutability": "nonpayable",
      "type": "function"
    },
    {
      "inputs": [
        {
          "internalType": "address",
          "name": "operator",
          "type": "address"
        },
        {
          "internalType": "uint256",
          "name": "tokenId",
          "type": "uint256"
        }
      ],
      "name": "approve",
      "outputs": [],
      "stateMutability": "nonpayable",
      "type": "function"
    },
    {
      "inputs": [
        {
          "internalType": "address",
          "name": "owner",
          "type": "address"
        }
      ],
      "name": "balanceOf",
      "outputs": [
        {
          "internalType": "uint256",
          "name": "",
          "type": "uint256"
        }
      ],
      "stateMutability": "view",
      "type": "function"
    },
    {
      "inputs": [],
      "name": "baseURI",
      "outputs": [
        {
          "internalType": "string",
          "name": "",
          "type": "string"
        }
      ],
      "stateMutability": "view",
      "type": "function"
    },
    {
      "inputs": [],
      "name": "contractURI",
      "outputs": [
        {
          "internalType": "string",
          "name": "",
          "type": "string"
        }
      ],
      "stateMutability": "view",
      "type": "function"
    },
    {
      "inputs": [],
      "name": "contractVersion",
      "outputs": [
        {
          "internalType": "uint32",
          "name": "",
          "type": "uint32"
        }
      ],
      "stateMutability": "view",
      "type": "function"
    },
    {
      "inputs": [
        {
          "internalType": "address",
          "name": "_splitMain",
          "type": "address"
        },
        {
          "internalType": "address[]",
          "name": "accounts",
          "type": "address[]"
        },
        {
          "internalType": "uint32[]",
          "name": "percentAllocations",
          "type": "uint32[]"
        },
        {
          "internalType": "uint32",
          "name": "distributorFee",
          "type": "uint32"
        }
      ],
      "name": "createSplit",
      "outputs": [],
      "stateMutability": "nonpayable",
      "type": "function"
    },
    {
      "inputs": [
        {
          "internalType": "address",
          "name": "account",
          "type": "address"
        },
        {
          "internalType": "uint256",
          "name": "withdrawETH",
          "type": "uint256"
        },
        {
          "internalType": "contract ERC20[]",
          "name": "tokens",
          "type": "address[]"
        },
        {
          "internalType": "address[]",
          "name": "accounts",
          "type": "address[]"
        },
        {
          "internalType": "uint32[]",
          "name": "percentAllocations",
          "type": "uint32[]"
        },
        {
          "internalType": "uint32",
          "name": "distributorFee",
          "type": "uint32"
        },
        {
          "internalType": "address",
          "name": "distributorAddress",
          "type": "address"
        }
      ],
      "name": "distributeAndWithdraw",
      "outputs": [],
      "stateMutability": "nonpayable",
      "type": "function"
    },
    {
      "inputs": [
        {
          "internalType": "contract ERC20",
          "name": "token",
          "type": "address"
        },
        {
          "internalType": "address[]",
          "name": "accounts",
          "type": "address[]"
        },
        {
          "internalType": "uint32[]",
          "name": "percentAllocations",
          "type": "uint32[]"
        },
        {
          "internalType": "uint32",
          "name": "distributorFee",
          "type": "uint32"
        },
        {
          "internalType": "address",
          "name": "distributorAddress",
          "type": "address"
        }
      ],
      "name": "distributeERC20",
      "outputs": [],
      "stateMutability": "nonpayable",
      "type": "function"
    },
    {
      "inputs": [
        {
          "internalType": "address[]",
          "name": "accounts",
          "type": "address[]"
        },
        {
          "internalType": "uint32[]",
          "name": "percentAllocations",
          "type": "uint32[]"
        },
        {
          "internalType": "uint32",
          "name": "distributorFee",
          "type": "uint32"
        },
        {
          "internalType": "address",
          "name": "distributorAddress",
          "type": "address"
        }
      ],
      "name": "distributeETH",
      "outputs": [],
      "stateMutability": "nonpayable",
      "type": "function"
    },
    {
      "inputs": [],
      "name": "edition",
      "outputs": [
        {
          "internalType": "bool",
          "name": "hasAdjustableCap",
          "type": "bool"
        },
        {
          "internalType": "bool",
          "name": "isSoulbound",
          "type": "bool"
        },
        {
          "internalType": "uint32",
          "name": "maxTokens",
          "type": "uint32"
        },
        {
          "internalType": "uint32",
          "name": "maxTokenPurchase",
          "type": "uint32"
        },
        {
          "internalType": "uint32",
          "name": "presaleStart",
          "type": "uint32"
        },
        {
          "internalType": "uint32",
          "name": "presaleEnd",
          "type": "uint32"
        },
        {
          "internalType": "uint32",
          "name": "saleStart",
          "type": "uint32"
        },
        {
          "internalType": "uint32",
          "name": "saleEnd",
          "type": "uint32"
        },
        {
          "internalType": "uint16",
          "name": "royaltyBPS",
          "type": "uint16"
        },
        {
          "internalType": "uint96",
          "name": "tokenPrice",
          "type": "uint96"
        },
        {
          "internalType": "address",
          "name": "payoutAddress",
          "type": "address"
        },
        {
          "internalType": "bytes32",
          "name": "presaleMerkleRoot",
          "type": "bytes32"
        }
      ],
      "stateMutability": "view",
      "type": "function"
    },
    {
      "inputs": [],
      "name": "feeManager",
      "outputs": [
        {
          "internalType": "address",
          "name": "",
          "type": "address"
        }
      ],
      "stateMutability": "view",
      "type": "function"
    },
    {
      "inputs": [],
      "name": "flipSaleState",
      "outputs": [],
      "stateMutability": "nonpayable",
      "type": "function"
    },
    {
      "inputs": [
        {
          "internalType": "uint256",
          "name": "tokenId",
          "type": "uint256"
        }
      ],
      "name": "getApproved",
      "outputs": [
        {
          "internalType": "address",
          "name": "",
          "type": "address"
        }
      ],
      "stateMutability": "view",
      "type": "function"
    },
    {
      "inputs": [
        {
          "internalType": "bytes32",
          "name": "role",
          "type": "bytes32"
        }
      ],
      "name": "getRoleAdmin",
      "outputs": [
        {
          "internalType": "bytes32",
          "name": "",
          "type": "bytes32"
        }
      ],
      "stateMutability": "view",
      "type": "function"
    },
    {
      "inputs": [
        {
          "internalType": "bytes32",
          "name": "role",
          "type": "bytes32"
        },
        {
          "internalType": "address",
          "name": "account",
          "type": "address"
        }
      ],
      "name": "grantRole",
      "outputs": [],
      "stateMutability": "nonpayable",
      "type": "function"
    },
    {
      "inputs": [],
      "name": "hasAdjustableCap",
      "outputs": [
        {
          "internalType": "bool",
          "name": "",
          "type": "bool"
        }
      ],
      "stateMutability": "view",
      "type": "function"
    },
    {
      "inputs": [
        {
          "internalType": "bytes32",
          "name": "role",
          "type": "bytes32"
        },
        {
          "internalType": "address",
          "name": "account",
          "type": "address"
        }
      ],
      "name": "hasRole",
      "outputs": [
        {
          "internalType": "bool",
          "name": "",
          "type": "bool"
        }
      ],
      "stateMutability": "view",
      "type": "function"
    },
    {
      "inputs": [
        {
          "internalType": "address",
          "name": "_owner",
          "type": "address"
        },
        {
          "components": [
            {
              "internalType": "string",
              "name": "name",
              "type": "string"
            },
            {
              "internalType": "string",
              "name": "symbol",
              "type": "string"
            },
            {
              "internalType": "bool",
              "name": "hasAdjustableCap",
              "type": "bool"
            },
            {
              "internalType": "bool",
              "name": "isSoulbound",
              "type": "bool"
            },
            {
              "internalType": "uint32",
              "name": "maxTokens",
              "type": "uint32"
            },
            {
              "internalType": "uint32",
              "name": "maxTokenPurchase",
              "type": "uint32"
            },
            {
              "internalType": "uint32",
              "name": "presaleStart",
              "type": "uint32"
            },
            {
              "internalType": "uint32",
              "name": "presaleEnd",
              "type": "uint32"
            },
            {
              "internalType": "uint32",
              "name": "saleStart",
              "type": "uint32"
            },
            {
              "internalType": "uint32",
              "name": "saleEnd",
              "type": "uint32"
            },
            {
              "internalType": "uint16",
              "name": "royaltyBPS",
              "type": "uint16"
            },
            {
              "internalType": "uint96",
              "name": "tokenPrice",
              "type": "uint96"
            },
            {
              "internalType": "address",
              "name": "feeManager",
              "type": "address"
            },
            {
              "internalType": "address",
              "name": "payoutAddress",
              "type": "address"
            },
            {
              "internalType": "bytes32",
              "name": "presaleMerkleRoot",
              "type": "bytes32"
            }
          ],
          "internalType": "struct EditionConfig",
          "name": "_editionConfig",
          "type": "tuple"
        },
        {
          "components": [
            {
              "internalType": "string",
              "name": "contractURI",
              "type": "string"
            },
            {
              "internalType": "string",
              "name": "metadataURI",
              "type": "string"
            },
            {
              "internalType": "bytes",
              "name": "metadataRendererInit",
              "type": "bytes"
            },
            {
              "internalType": "address",
              "name": "parentIP",
              "type": "address"
            }
          ],
          "internalType": "struct MetadataConfig",
          "name": "_metadataConfig",
          "type": "tuple"
        },
        {
          "components": [
            {
              "internalType": "address",
              "name": "tokenAddress",
              "type": "address"
            },
            {
              "internalType": "uint88",
              "name": "minBalance",
              "type": "uint88"
            },
            {
              "internalType": "enum SaleType",
              "name": "saleType",
              "type": "uint8"
            }
          ],
          "internalType": "struct TokenGateConfig",
          "name": "_tokenGateConfig",
          "type": "tuple"
        },
        {
          "internalType": "address",
          "name": "_metadataRenderer",
          "type": "address"
        }
      ],
      "name": "initialize",
      "outputs": [],
      "stateMutability": "nonpayable",
      "type": "function"
    },
    {
      "inputs": [
        {
          "internalType": "address",
          "name": "owner",
          "type": "address"
        },
        {
          "internalType": "address",
          "name": "operator",
          "type": "address"
        }
      ],
      "name": "isApprovedForAll",
      "outputs": [
        {
          "internalType": "bool",
          "name": "",
          "type": "bool"
        }
      ],
      "stateMutability": "view",
      "type": "function"
    },
    {
      "inputs": [],
      "name": "isSoulbound",
      "outputs": [
        {
          "internalType": "bool",
          "name": "",
          "type": "bool"
        }
      ],
      "stateMutability": "view",
      "type": "function"
    },
    {
      "inputs": [],
      "name": "maxTokenPurchase",
      "outputs": [
        {
          "internalType": "uint32",
          "name": "",
          "type": "uint32"
        }
      ],
      "stateMutability": "view",
      "type": "function"
    },
    {
      "inputs": [],
      "name": "metadataRenderer",
      "outputs": [
        {
          "internalType": "address",
          "name": "",
          "type": "address"
        }
      ],
      "stateMutability": "view",
      "type": "function"
    },
    {
      "inputs": [
        {
          "internalType": "address",
          "name": "to",
          "type": "address"
        },
        {
          "internalType": "uint256",
          "name": "numberOfTokens",
          "type": "uint256"
        }
      ],
      "name": "mint",
      "outputs": [],
      "stateMutability": "payable",
      "type": "function"
    },
    {
      "inputs": [
        {
          "internalType": "address[]",
          "name": "recipients",
          "type": "address[]"
        }
      ],
      "name": "mintAirdrop",
      "outputs": [],
      "stateMutability": "nonpayable",
      "type": "function"
    },
    {
      "inputs": [
        {
          "internalType": "uint256",
          "name": "quantity",
          "type": "uint256"
        }
      ],
      "name": "mintFee",
      "outputs": [
        {
          "internalType": "uint256",
          "name": "fee",
          "type": "uint256"
        }
      ],
      "stateMutability": "view",
      "type": "function"
    },
    {
      "inputs": [
        {
          "internalType": "address",
          "name": "to",
          "type": "address"
        },
        {
          "internalType": "uint256",
          "name": "quantity",
          "type": "uint256"
        },
        {
          "internalType": "uint256",
          "name": "maxQuantity",
          "type": "uint256"
        },
        {
          "internalType": "uint256",
          "name": "pricePerToken",
          "type": "uint256"
        },
        {
          "internalType": "bytes32[]",
          "name": "merkleProof",
          "type": "bytes32[]"
        }
      ],
      "name": "mintPresale",
      "outputs": [],
      "stateMutability": "payable",
      "type": "function"
    },
    {
      "inputs": [],
      "name": "name",
      "outputs": [
        {
          "internalType": "string",
          "name": "",
          "type": "string"
        }
      ],
      "stateMutability": "view",
      "type": "function"
    },
    {
      "inputs": [],
      "name": "operatorFilterRegistry",
      "outputs": [
        {
          "internalType": "contract IOperatorFilterRegistry",
          "name": "",
          "type": "address"
        }
      ],
      "stateMutability": "view",
      "type": "function"
    },
    {
      "inputs": [],
      "name": "owner",
      "outputs": [
        {
          "internalType": "address",
          "name": "",
          "type": "address"
        }
      ],
      "stateMutability": "view",
      "type": "function"
    },
    {
      "inputs": [
        {
          "internalType": "uint256",
          "name": "tokenId",
          "type": "uint256"
        }
      ],
      "name": "ownerOf",
      "outputs": [
        {
          "internalType": "address",
          "name": "",
          "type": "address"
        }
      ],
      "stateMutability": "view",
      "type": "function"
    },
    {
      "inputs": [],
      "name": "parentIP",
      "outputs": [
        {
          "internalType": "address",
          "name": "",
          "type": "address"
        }
      ],
      "stateMutability": "view",
      "type": "function"
    },
    {
      "inputs": [],
      "name": "payoutAddress",
      "outputs": [
        {
          "internalType": "address",
          "name": "",
          "type": "address"
        }
      ],
      "stateMutability": "view",
      "type": "function"
    },
    {
      "inputs": [],
      "name": "presaleEnd",
      "outputs": [
        {
          "internalType": "uint32",
          "name": "",
          "type": "uint32"
        }
      ],
      "stateMutability": "view",
      "type": "function"
    },
    {
      "inputs": [],
      "name": "presaleMerkleRoot",
      "outputs": [
        {
          "internalType": "bytes32",
          "name": "",
          "type": "bytes32"
        }
      ],
      "stateMutability": "view",
      "type": "function"
    },
    {
      "inputs": [],
      "name": "presaleStart",
      "outputs": [
        {
          "internalType": "uint32",
          "name": "",
          "type": "uint32"
        }
      ],
      "stateMutability": "view",
      "type": "function"
    },
    {
      "inputs": [],
      "name": "renounceOwnership",
      "outputs": [],
      "stateMutability": "nonpayable",
      "type": "function"
    },
    {
      "inputs": [
        {
          "internalType": "bytes32",
          "name": "role",
          "type": "bytes32"
        },
        {
          "internalType": "address",
          "name": "account",
          "type": "address"
        }
      ],
      "name": "renounceRole",
      "outputs": [],
      "stateMutability": "nonpayable",
      "type": "function"
    },
    {
      "inputs": [
        {
          "internalType": "uint256",
          "name": "numReserved",
          "type": "uint256"
        }
      ],
      "name": "reserveDCNT",
      "outputs": [],
      "stateMutability": "nonpayable",
      "type": "function"
    },
    {
      "inputs": [
        {
          "internalType": "bytes32",
          "name": "role",
          "type": "bytes32"
        },
        {
          "internalType": "address",
          "name": "account",
          "type": "address"
        }
      ],
      "name": "revokeRole",
      "outputs": [],
      "stateMutability": "nonpayable",
      "type": "function"
    },
    {
      "inputs": [],
      "name": "royaltyBPS",
      "outputs": [
        {
          "internalType": "uint16",
          "name": "",
          "type": "uint16"
        }
      ],
      "stateMutability": "view",
      "type": "function"
    },
    {
      "inputs": [
        {
          "internalType": "uint256",
          "name": "tokenId",
          "type": "uint256"
        },
        {
          "internalType": "uint256",
          "name": "salePrice",
          "type": "uint256"
        }
      ],
      "name": "royaltyInfo",
      "outputs": [
        {
          "internalType": "address",
          "name": "receiver",
          "type": "address"
        },
        {
          "internalType": "uint256",
          "name": "royaltyAmount",
          "type": "uint256"
        }
      ],
      "stateMutability": "view",
      "type": "function"
    },
    {
      "inputs": [
        {
          "internalType": "address",
          "name": "from",
          "type": "address"
        },
        {
          "internalType": "address",
          "name": "to",
          "type": "address"
        },
        {
          "internalType": "uint256",
          "name": "tokenId",
          "type": "uint256"
        }
      ],
      "name": "safeTransferFrom",
      "outputs": [],
      "stateMutability": "nonpayable",
      "type": "function"
    },
    {
      "inputs": [
        {
          "internalType": "address",
          "name": "from",
          "type": "address"
        },
        {
          "internalType": "address",
          "name": "to",
          "type": "address"
        },
        {
          "internalType": "uint256",
          "name": "tokenId",
          "type": "uint256"
        },
        {
          "internalType": "bytes",
          "name": "_data",
          "type": "bytes"
        }
      ],
      "name": "safeTransferFrom",
      "outputs": [],
      "stateMutability": "nonpayable",
      "type": "function"
    },
    {
      "inputs": [],
      "name": "saleEnd",
      "outputs": [
        {
          "internalType": "uint32",
          "name": "",
          "type": "uint32"
        }
      ],
      "stateMutability": "view",
      "type": "function"
    },
    {
      "inputs": [],
      "name": "saleIsActive",
      "outputs": [
        {
          "internalType": "bool",
          "name": "_saleIsActive",
          "type": "bool"
        }
      ],
      "stateMutability": "view",
      "type": "function"
    },
    {
      "inputs": [],
      "name": "saleIsPaused",
      "outputs": [
        {
          "internalType": "bool",
          "name": "",
          "type": "bool"
        }
      ],
      "stateMutability": "view",
      "type": "function"
    },
    {
      "inputs": [],
      "name": "saleStart",
      "outputs": [
        {
          "internalType": "uint32",
          "name": "",
          "type": "uint32"
        }
      ],
      "stateMutability": "view",
      "type": "function"
    },
    {
      "inputs": [
        {
          "internalType": "address",
          "name": "operator",
          "type": "address"
        },
        {
          "internalType": "bool",
          "name": "approved",
          "type": "bool"
        }
      ],
      "name": "setApprovalForAll",
      "outputs": [],
      "stateMutability": "nonpayable",
      "type": "function"
    },
    {
      "inputs": [
        {
          "internalType": "string",
          "name": "uri",
          "type": "string"
        }
      ],
      "name": "setBaseURI",
      "outputs": [],
      "stateMutability": "nonpayable",
      "type": "function"
    },
    {
      "inputs": [
        {
          "internalType": "string",
          "name": "uri",
          "type": "string"
        }
      ],
      "name": "setContractURI",
      "outputs": [],
      "stateMutability": "nonpayable",
      "type": "function"
    },
    {
      "inputs": [
        {
          "internalType": "address",
          "name": "_metadataRenderer",
          "type": "address"
        }
      ],
      "name": "setMetadataRenderer",
      "outputs": [],
      "stateMutability": "nonpayable",
      "type": "function"
    },
    {
      "inputs": [
        {
          "internalType": "address",
          "name": "_payoutAddress",
          "type": "address"
        }
      ],
      "name": "setPayoutAddress",
      "outputs": [],
      "stateMutability": "nonpayable",
      "type": "function"
    },
    {
      "inputs": [
        {
          "internalType": "bytes32",
          "name": "_presaleMerkleRoot",
          "type": "bytes32"
        }
      ],
      "name": "setPresaleMerkleRoot",
      "outputs": [],
      "stateMutability": "nonpayable",
      "type": "function"
    },
    {
      "inputs": [
        {
          "components": [
            {
              "internalType": "address",
              "name": "tokenAddress",
              "type": "address"
            },
            {
              "internalType": "uint88",
              "name": "minBalance",
              "type": "uint88"
            },
            {
              "internalType": "enum SaleType",
              "name": "saleType",
              "type": "uint8"
            }
          ],
          "internalType": "struct TokenGateConfig",
          "name": "_tokenGateConfig",
          "type": "tuple"
        }
      ],
      "name": "setTokenGate",
      "outputs": [],
      "stateMutability": "nonpayable",
      "type": "function"
    },
    {
      "inputs": [],
      "name": "splitMain",
      "outputs": [
        {
          "internalType": "address",
          "name": "",
          "type": "address"
        }
      ],
      "stateMutability": "view",
      "type": "function"
    },
    {
      "inputs": [],
      "name": "splitWallet",
      "outputs": [
        {
          "internalType": "address",
          "name": "",
          "type": "address"
        }
      ],
      "stateMutability": "view",
      "type": "function"
    },
    {
      "inputs": [
        {
          "internalType": "bytes4",
          "name": "interfaceId",
          "type": "bytes4"
        }
      ],
      "name": "supportsInterface",
      "outputs": [
        {
          "internalType": "bool",
          "name": "",
          "type": "bool"
        }
      ],
      "stateMutability": "view",
      "type": "function"
    },
    {
      "inputs": [],
      "name": "symbol",
      "outputs": [
        {
          "internalType": "string",
          "name": "",
          "type": "string"
        }
      ],
      "stateMutability": "view",
      "type": "function"
    },
    {
      "inputs": [],
      "name": "tokenGateConfig",
      "outputs": [
        {
          "internalType": "address",
          "name": "tokenAddress",
          "type": "address"
        },
        {
          "internalType": "uint88",
          "name": "minBalance",
          "type": "uint88"
        },
        {
          "internalType": "enum SaleType",
          "name": "saleType",
          "type": "uint8"
        }
      ],
      "stateMutability": "view",
      "type": "function"
    },
    {
      "inputs": [],
      "name": "tokenPrice",
      "outputs": [
        {
          "internalType": "uint96",
          "name": "",
          "type": "uint96"
        }
      ],
      "stateMutability": "view",
      "type": "function"
    },
    {
      "inputs": [
        {
          "internalType": "uint256",
          "name": "tokenId",
          "type": "uint256"
        }
      ],
      "name": "tokenURI",
      "outputs": [
        {
          "internalType": "string",
          "name": "",
          "type": "string"
        }
      ],
      "stateMutability": "view",
      "type": "function"
    },
    {
      "inputs": [],
      "name": "totalSupply",
      "outputs": [
        {
          "internalType": "uint256",
          "name": "",
          "type": "uint256"
        }
      ],
      "stateMutability": "view",
      "type": "function"
    },
    {
      "inputs": [
        {
          "internalType": "address",
          "name": "from",
          "type": "address"
        },
        {
          "internalType": "address",
          "name": "to",
          "type": "address"
        },
        {
          "internalType": "uint256",
          "name": "tokenId",
          "type": "uint256"
        }
      ],
      "name": "transferFrom",
      "outputs": [],
      "stateMutability": "nonpayable",
      "type": "function"
    },
    {
      "inputs": [
        {
          "internalType": "address",
          "name": "newOwner",
          "type": "address"
        }
      ],
      "name": "transferOwnership",
      "outputs": [],
      "stateMutability": "nonpayable",
      "type": "function"
    },
    {
      "inputs": [
        {
          "internalType": "uint256",
          "name": "transferETH",
          "type": "uint256"
        },
        {
          "internalType": "contract ERC20[]",
          "name": "tokens",
          "type": "address[]"
        }
      ],
      "name": "transferToSplit",
      "outputs": [],
      "stateMutability": "nonpayable",
      "type": "function"
    },
    {
      "inputs": [
        {
          "internalType": "bool",
          "name": "enable",
          "type": "bool"
        },
        {
          "internalType": "address",
          "name": "operatorFilter",
          "type": "address"
        }
      ],
      "name": "updateOperatorFilter",
      "outputs": [],
      "stateMutability": "nonpayable",
      "type": "function"
    },
    {
      "inputs": [
        {
          "internalType": "uint32",
          "name": "newStart",
          "type": "uint32"
        },
        {
          "internalType": "uint32",
          "name": "newEnd",
          "type": "uint32"
        }
      ],
      "name": "updatePresaleStartEnd",
      "outputs": [],
      "stateMutability": "nonpayable",
      "type": "function"
    },
    {
      "inputs": [
        {
          "internalType": "uint32",
          "name": "newStart",
          "type": "uint32"
        },
        {
          "internalType": "uint32",
          "name": "newEnd",
          "type": "uint32"
        }
      ],
      "name": "updateSaleStartEnd",
      "outputs": [],
      "stateMutability": "nonpayable",
      "type": "function"
    },
    {
      "inputs": [],
      "name": "withdraw",
      "outputs": [],
      "stateMutability": "nonpayable",
      "type": "function"
    }
  ],
  "bytecode": "0x60a06040523480156200001157600080fd5b5060086200001f336200002e565b63ffffffff166080526200008a565b600a80546001600160a01b038381166201000081810262010000600160b01b031985161790945560405193909204169182907f8be0079c531659141344cd1fd0a4f28419497f9722a3daafe3b4186f6b6457e090600090a35050565b608051615298620000a66000396000610b3901526152986000f3fe60806040526004361061041a5760003560e01c8063715018a61161021e578063c10b935811610123578063e985e9c5116100ab578063f2fde38b1161007a578063f2fde38b14610dfc578063f47c84c514610e1c578063f7eca6d014610e3d578063fd4fe8a814610e5a578063ff45640d14610e7a57600080fd5b8063e985e9c514610d5e578063eb8d244414610da7578063ed1f24ad14610dbc578063f0cc8b6214610ddc57600080fd5b8063d0fb0203116100f2578063d0fb020314610cc6578063d547741f14610ce6578063de8801e514610d06578063e6c350c114610d28578063e8a3d48514610d4957600080fd5b8063c10b935814610c44578063c4559d5a14610c66578063c595317014610c86578063c87b56dd14610ca657600080fd5b806395d89b41116101a6578063ab0bcc4111610175578063ab0bcc4114610b92578063b0ccc31e14610bb4578063b80476d014610bd6578063b88d4fde14610bf6578063b9c9d93a14610c1657600080fd5b806395d89b4114610b15578063a0a8e46014610b2a578063a217fddf14610b5d578063a22cb46514610b7257600080fd5b80638da5cb5b116101ed5780638da5cb5b1461097f5780638e98f86a146109a357806391d1485414610abd578063931cf0f414610add578063938e3d7b14610af557600080fd5b8063715018a61461090257806379ab7c8e146109175780637ff9b596146109375780638a35ace31461095f57600080fd5b80632d75fea61161032457806355f804b3116102ac5780636c0360eb1161027b5780636c0360eb1461086d5780636c1951ae1461088257806370319970146108a257806370a08231146108c2578063713b9787146108e257600080fd5b806355f804b3146107e8578063569c66c5146108085780635b8d02d7146108285780636352211e1461084d57600080fd5b806334918dfd116102f357806334918dfd1461076b57806336568abe146107805780633ccfd60b146107a057806340c10f19146107b557806342842e0e146107c857600080fd5b80632d75fea6146106eb5780632f2ff15d1461070b57806333ea3e6d1461072b57806333ea51a81461074b57600080fd5b806318160ddd116103a757806323b872dd1161037657806323b872dd1461061c578063248a9ca31461063c578063284a44a81461066c57806328d7b2761461068c5780632a55205a146106ac57600080fd5b806318160ddd146105765780631dbdedbd1461059957806322212e2b146105e5578063229f3e29146105fa57600080fd5b8063095ea7b3116103ee578063095ea7b3146104d057806309aa3dcf146104f05780630ad6c616146105235780630b8999f3146105435780630e769b2b1461055657600080fd5b80625f16fb1461041f57806301ffc9a71461044157806306fdde0314610476578063081812fc14610498575b600080fd5b34801561042b57600080fd5b5061043f61043a366004613fae565b610e9a565b005b34801561044d57600080fd5b5061046161045c36600461406b565b610f51565b60405190151581526020015b60405180910390f35b34801561048257600080fd5b5061048b610f9a565b60405161046d91906140d8565b3480156104a457600080fd5b506104b86104b33660046140eb565b61102c565b6040516001600160a01b03909116815260200161046d565b3480156104dc57600080fd5b5061043f6104eb366004614104565b611070565b3480156104fc57600080fd5b50600d54600160301b900463ffffffff165b60405163ffffffff909116815260200161046d565b34801561052f57600080fd5b5061043f61053e366004614130565b611089565b61043f610551366004614163565b6110f0565b34801561056257600080fd5b50600b546104b8906001600160a01b031681565b34801561058257600080fd5b50600154600054035b60405190815260200161046d565b3480156105a557600080fd5b506009546105d6906001600160a01b03811690600160a01b81046001600160581b031690600160f81b900460ff1683565b60405161046d939291906141eb565b3480156105f157600080fd5b50600f5461058b565b34801561060657600080fd5b50600d54600160701b900463ffffffff1661050e565b34801561062857600080fd5b5061043f610637366004614236565b611524565b34801561064857600080fd5b5061058b6106573660046140eb565b60009081526008602052604090206001015490565b34801561067857600080fd5b5061043f61068736600461436e565b6116ca565b34801561069857600080fd5b5061043f6106a73660046140eb565b611756565b3480156106b857600080fd5b506106cc6106c7366004614442565b611782565b604080516001600160a01b03909316835260208301919091520161046d565b3480156106f757600080fd5b5061043f61070636600461447d565b61186d565b34801561071757600080fd5b5061043f6107263660046144b6565b611a7a565b34801561073757600080fd5b5061043f6107463660046144db565b611a9f565b34801561075757600080fd5b5061043f61076636600461456c565b611bac565b34801561077757600080fd5b5061043f611bfb565b34801561078c57600080fd5b5061043f61079b3660046144b6565b611c43565b3480156107ac57600080fd5b5061043f611cc1565b61043f6107c3366004614104565b611e05565b3480156107d457600080fd5b5061043f6107e3366004614236565b6122ae565b3480156107f457600080fd5b5061043f610803366004614606565b6122c9565b34801561081457600080fd5b5061043f6108233660046147bc565b6122fc565b34801561083457600080fd5b50600e54600160601b90046001600160a01b03166104b8565b34801561085957600080fd5b506104b86108683660046140eb565b61282d565b34801561087957600080fd5b5061048b612838565b34801561088e57600080fd5b5061043f61089d3660046140eb565b6128c6565b3480156108ae57600080fd5b506012546104b8906001600160a01b031681565b3480156108ce57600080fd5b5061058b6108dd36600461456c565b612961565b3480156108ee57600080fd5b50600c546104b8906001600160a01b031681565b34801561090e57600080fd5b5061043f6129af565b34801561092357600080fd5b5061043f610932366004614987565b6129c3565b34801561094357600080fd5b50600e546040516001600160601b03909116815260200161046d565b34801561096b57600080fd5b5061058b61097a3660046140eb565b612a37565b34801561098b57600080fd5b50600a546201000090046001600160a01b03166104b8565b3480156109af57600080fd5b50600d54600e54600f54610a3a9260ff8082169361010083049091169262010000830463ffffffff90811693600160301b8104821693600160501b8204831693600160701b8304841693600160901b8404811693600160b01b810490911692600160d01b90910461ffff16916001600160601b03821691600160601b90046001600160a01b0316908c565b604080519c15158d529a151560208d015263ffffffff998a169a8c019a909a5296881660608b015294871660808a015292861660a089015290851660c088015290931660e086015261ffff9092166101008501526001600160601b039091166101208401526001600160a01b03166101408301526101608201526101800161046d565b348015610ac957600080fd5b50610461610ad83660046144b6565b612ad3565b348015610ae957600080fd5b50600d5460ff16610461565b348015610b0157600080fd5b5061043f610b10366004614606565b612afe565b348015610b2157600080fd5b5061048b612b31565b348015610b3657600080fd5b507f000000000000000000000000000000000000000000000000000000000000000061050e565b348015610b6957600080fd5b5061058b600081565b348015610b7e57600080fd5b5061043f610b8d3660046149c3565b612b40565b348015610b9e57600080fd5b50600d54600160901b900463ffffffff1661050e565b348015610bc057600080fd5b506104b86daaeb6d7670e522a718067333cd4e81565b348015610be257600080fd5b5061043f610bf13660046149f1565b612b54565b348015610c0257600080fd5b5061043f610c11366004614a0c565b612c53565b348015610c2257600080fd5b50600d54600160d01b900461ffff1660405161ffff909116815260200161046d565b348015610c5057600080fd5b50600d54600160b01b900463ffffffff1661050e565b348015610c7257600080fd5b5061043f610c81366004614a77565b612c9d565b348015610c9257600080fd5b5061043f610ca1366004614b0a565b612d47565b348015610cb257600080fd5b5061048b610cc13660046140eb565b612e66565b348015610cd257600080fd5b506014546104b8906001600160a01b031681565b348015610cf257600080fd5b5061043f610d013660046144b6565b612f19565b348015610d1257600080fd5b50600d54600160501b900463ffffffff1661050e565b348015610d3457600080fd5b5060125461046190600160a01b900460ff1681565b348015610d5557600080fd5b5061048b612f3e565b348015610d6a57600080fd5b50610461610d79366004614b4b565b6001600160a01b03918216600090815260076020908152604080832093909416825291909152205460ff1690565b348015610db357600080fd5b50610461612fde565b348015610dc857600080fd5b5061043f610dd7366004614130565b613028565b348015610de857600080fd5b506013546104b8906001600160a01b031681565b348015610e0857600080fd5b5061043f610e1736600461456c565b61308f565b348015610e2857600080fd5b50600d5462010000900463ffffffff1661050e565b348015610e4957600080fd5b50600d54610100900460ff16610461565b348015610e6657600080fd5b5061043f610e7536600461456c565b613108565b348015610e8657600080fd5b5061043f610e95366004614b69565b613151565b600c546001600160a01b0316610ecb5760405162461bcd60e51b8152600401610ec290614b81565b60405180910390fd5b610ed487613185565b600b54600c54604051630ac0898160e11b81526001600160a01b0392831692631581130292610f16929116908b908b908b908b908b908b908b90600401614c32565b600060405180830381600087803b158015610f3057600080fd5b505af1158015610f44573d6000803e3d6000fd5b5050505050505050505050565b600063152a902d60e11b6001600160e01b031983161480610f765750610f7682613269565b80610f855750610f858261329e565b80610f945750610f9482613269565b92915050565b606060028054610fa990614c94565b80601f0160208091040260200160405190810160405280929190818152602001828054610fd590614c94565b80156110225780601f10610ff757610100808354040283529160200191611022565b820191906000526020600020905b81548152906001019060200180831161100557829003601f168201915b5050505050905090565b6000611037826132ec565b611054576040516333d1c03960e21b815260040160405180910390fd5b506000908152600660205260409020546001600160a01b031690565b8161107a81613313565b61108483836133cc565b505050565b611094600033612ad3565b6110b05760405162461bcd60e51b8152600401610ec290614cc8565b600d805467ffffffffffffffff60901b1916600160901b63ffffffff9485160263ffffffff60b01b191617600160b01b9290931691909102919091179055565b6009546001906001600160a01b03161580159061115957506000600954600160f81b900460ff166002811115611128576111286141d5565b1480611159575080801561115957506001600954600160f81b900460ff166002811115611157576111576141d5565b145b8061118a57508015801561118a57506002600954600160f81b900460ff166002811115611188576111886141d5565b145b15611256576009546040516370a0823160e01b8152336004820152600160a01b82046001600160581b0316916001600160a01b0316906370a08231906024016020604051808303816000875af11580156111e8573d6000803e3d6000fd5b505050506040513d601f19601f8201168201806040525081019061120c9190614ceb565b10156112565760405162461bcd60e51b81526020600482015260196024820152783237903737ba1037bbb7103932b8bab4b932b2103a37b5b2b760391b6044820152606401610ec2565b600d54600160501b900463ffffffff1642108015906112845750600d54600160701b900463ffffffff164211155b6112be5760405162461bcd60e51b815260206004820152600b60248201526a6e6f742070726573616c6560a81b6044820152606401610ec2565b600054601254600160a01b900460ff161561131b5760405162461bcd60e51b815260206004820152601b60248201527f53616c65206d7573742062652061637469766520746f206d696e7400000000006044820152606401610ec2565b600d5462010000900463ffffffff166113348883614d1a565b11156113525760405162461bcd60e51b8152600401610ec290614d2d565b6113d684848080602002602001604051908101604052809392919081815260200183836020028082843760009201919091525050600f546040516bffffffffffffffffffffffff1960608f901b166020820152603481018c9052605481018b905290925060740190506040516020818303038152906040528051906020012061346c565b6114115760405162461bcd60e51b815260206004820152600c60248201526b1b9bdd08185c1c1c9bdd995960a21b6044820152606401610ec2565b61141b8786614d62565b34101561145f5760405162461bcd60e51b8152602060048201526012602482015271496e73756666696369656e742066756e647360701b6044820152606401610ec2565b858761146a8a612961565b6114749190614d1a565b11156114b45760405162461bcd60e51b815260206004820152600f60248201526e6d696e74656420746f6f206d616e7960881b6044820152606401610ec2565b6114be8888613482565b60005b8781101561151957604080516001600160a01b038b168152602081018490526001909301927f30385c845b448a36257a6a1716e6ad2e1bc2cbe333cde1e69fe849ad6511adfe910160405180910390a16001016114c1565b505050505050505050565b600061152f8261349c565b9050836001600160a01b0316816001600160a01b0316146115625760405162a1148160e81b815260040160405180910390fd5b60008281526006602052604090208054338082146001600160a01b038816909114176115af576115928633610d79565b6115af57604051632ce44b5f60e11b815260040160405180910390fd5b6001600160a01b0385166115d657604051633a954ecd60e21b815260040160405180910390fd5b6115e3868686600161350a565b80156115ee57600082555b6001600160a01b038681166000908152600560205260408082208054600019019055918716808252919020805460010190554260a01b17600160e11b17600085815260046020526040812091909155600160e11b841690036116805760018401600081815260046020526040812054900361167e57600054811461167e5760008181526004602052604090208490555b505b83856001600160a01b0316876001600160a01b03167fddf252ad1be2c89b69c2b068fc378daa952ba7f163c4a11628f55a4df523b3ef60405160405180910390a45b505050505050565b600c546001600160a01b03166116f25760405162461bcd60e51b8152600401610ec290614b81565b871561170657611706868686868686612c9d565b60005b875181101561174a5761173a88828151811061172757611727614d79565b6020026020010151888888888888610e9a565b61174381614d8f565b9050611709565b5061151989898961358b565b611761600033612ad3565b61177d5760405162461bcd60e51b8152600401610ec290614cc8565b600f55565b60008061178e846132ec565b6117ce5760405162461bcd60e51b81526020600482015260116024820152702737b732bc34b9ba32b73a103a37b5b2b760791b6044820152606401610ec2565b600c546001600160a01b0316156117f257600c546001600160a01b03169150611839565b600e54600160601b90046001600160a01b03161561182457600e54600160601b90046001600160a01b03169150611839565b600a546201000090046001600160a01b031691505b600d546000906127109061185890600160d01b900461ffff1686614d62565b6118629190614da8565b9150505b9250929050565b611878600033612ad3565b6118945760405162461bcd60e51b8152600401610ec290614cc8565b60405163c3c5a54760e01b81523060048201819052906daaeb6d7670e522a718067333cd4e9063c3c5a547906024016020604051808303816000875af11580156118e2573d6000803e3d6000fd5b505050506040513d601f19601f820116820180604052508101906119069190614dca565b1580156119105750825b1561198a57604051633e9f1edf60e11b81526001600160a01b038083166004830152831660248201526daaeb6d7670e522a718067333cd4e90637d3e3dbe906044015b600060405180830381600087803b15801561196d57600080fd5b505af1158015611981573d6000803e3d6000fd5b50505050505050565b82156119d257604051632cc5350560e21b81526001600160a01b038083166004830152831660248201526daaeb6d7670e522a718067333cd4e9063b314d41490604401611953565b60405163034a0dc160e41b81526001600160a01b0382166004820152600060248201526daaeb6d7670e522a718067333cd4e906334a0dc1090604401600060405180830381600087803b158015611a2857600080fd5b505af1158015611a3c573d6000803e3d6000fd5b5050604051631761612360e11b81526001600160a01b03841660048201526daaeb6d7670e522a718067333cd4e9250632ec2c2469150602401611953565b600082815260086020526040902060010154611a95816135bf565b61108483836135c9565b611aa761364f565b600c546001600160a01b031615611af85760405162461bcd60e51b815260206004820152601560248201527414dc1b1a5d08185b1c9958591e4818dc99585d1959605a1b6044820152606401610ec2565b600b80546001600160a01b0319166001600160a01b038816908117909155604051633b00fbc160e11b8152637601f78290611b4190889088908890889088903390600401614de7565b6020604051808303816000875af1158015611b60573d6000803e3d6000fd5b505050506040513d601f19601f82011682018060405250810190611b849190614e38565b600c80546001600160a01b0319166001600160a01b0392909216919091179055505050505050565b611bb7600033612ad3565b611bd35760405162461bcd60e51b8152600401610ec290614cc8565b600e80546001600160a01b03909216600160601b026001600160601b03909216919091179055565b611c06600033612ad3565b611c225760405162461bcd60e51b8152600401610ec290614cc8565b6012805460ff60a01b198116600160a01b9182900460ff1615909102179055565b6001600160a01b0381163314611cb35760405162461bcd60e51b815260206004820152602f60248201527f416363657373436f6e74726f6c3a2063616e206f6e6c792072656e6f756e636560448201526e103937b632b9903337b91039b2b63360891b6064820152608401610ec2565b611cbd82826136b0565b5050565b600c546001600160a01b031615611d265760405162461bcd60e51b8152602060048201526024808201527f43616e6e6f74207769746864726177207769746820616e2061637469766520736044820152631c1b1a5d60e21b6064820152608401610ec2565b600e54600090600160601b90046001600160a01b0316611d5757600a546201000090046001600160a01b0316611d6b565b600e54600160601b90046001600160a01b03165b90506000816001600160a01b03164760405160006040518083038185875af1925050503d8060008114611dba576040519150601f19603f3d011682016040523d82523d6000602084013e611dbf565b606091505b5050905080611cbd5760405162461bcd60e51b8152602060048201526012602482015271436f756c64206e6f7420776974686472617760701b6044820152606401610ec2565b6009546000906001600160a01b031615801590611e6e57506000600954600160f81b900460ff166002811115611e3d57611e3d6141d5565b1480611e6e5750808015611e6e57506001600954600160f81b900460ff166002811115611e6c57611e6c6141d5565b145b80611e9f575080158015611e9f57506002600954600160f81b900460ff166002811115611e9d57611e9d6141d5565b145b15611f6b576009546040516370a0823160e01b8152336004820152600160a01b82046001600160581b0316916001600160a01b0316906370a08231906024016020604051808303816000875af1158015611efd573d6000803e3d6000fd5b505050506040513d601f19601f82011682018060405250810190611f219190614ceb565b1015611f6b5760405162461bcd60e51b81526020600482015260196024820152783237903737ba1037bbb7103932b8bab4b932b2103a37b5b2b760391b6044820152606401610ec2565b600054600d54600160901b900463ffffffff164210801590611f9c5750600d54600160b01b900463ffffffff164211155b611fe05760405162461bcd60e51b815260206004820152601560248201527429b0b632b99030b932903737ba1030b1ba34bb329760591b6044820152606401610ec2565b601254600160a01b900460ff161561203a5760405162461bcd60e51b815260206004820152601b60248201527f53616c65206d7573742062652061637469766520746f206d696e7400000000006044820152606401610ec2565b600d5462010000900463ffffffff166120538483614d1a565b11156120715760405162461bcd60e51b8152600401610ec290614d2d565b600d5462010000900463ffffffff168111156120ba5760405162461bcd60e51b815260206004820152600860248201526714d3d3110813d55560c21b6044820152606401610ec2565b60145460009081906001600160a01b03161561215557601454600e54604051637096335b60e01b81526001600160601b039091166004820152602481018790526001600160a01b0390911690637096335b906044016040805180830381865afa15801561212b573d6000803e3d6000fd5b505050506040513d601f19601f8201168201806040525081019061214f9190614e55565b90925090505b600e5460009083906121719088906001600160601b0316614d62565b61217b9190614d1a565b9050803410156121c25760405162461bcd60e51b8152602060048201526012602482015271496e73756666696369656e742066756e647360701b6044820152606401610ec2565b600d54600160301b900463ffffffff161561223657600d54600160301b900463ffffffff168611156122365760405162461bcd60e51b815260206004820152601c60248201527f4578636565646564206d6178206e756d62657220706572206d696e74000000006044820152606401610ec2565b6122408787613482565b60005b8681101561229b57604080516001600160a01b038a168152602081018790526001909601957f30385c845b448a36257a6a1716e6ad2e1bc2cbe333cde1e69fe849ad6511adfe910160405180910390a1600101612243565b506119816122a98385614d1a565b613717565b61108483838360405180602001604052806000815250612c53565b6122d4600033612ad3565b6122f05760405162461bcd60e51b8152600401610ec290614cc8565b6010611cbd8282614ebf565b600a54610100900460ff161580801561231c5750600a54600160ff909116105b806123365750303b1580156123365750600a5460ff166001145b6123995760405162461bcd60e51b815260206004820152602e60248201527f496e697469616c697a61626c653a20636f6e747261637420697320616c72656160448201526d191e481a5b9a5d1a585b1a5e995960921b6064820152608401610ec2565b600a805460ff1916600117905580156123bc57600a805461ff0019166101001790555b6123c5866137fc565b6123d06000876135c9565b84516002906123df9082614ebf565b5060208501516003906123f29082614ebf565b5060008055610180850151601480546001600160a01b039283166001600160a01b0319918216179091556060860151601380549184169190921617905583516009805460208701516001600160581b0316600160a01b026001600160f81b0319909116929093169190911791909117808255604085015185929182906001600160f81b0316600160f81b83600281111561248e5761248e6141d5565b0217905550905050604051806101800160405280866040015115158152602001866060015115158152602001866080015163ffffffff1681526020018660a0015163ffffffff1681526020018660c0015163ffffffff1681526020018660e0015163ffffffff16815260200186610100015163ffffffff16815260200186610120015163ffffffff16815260200186610140015161ffff1681526020018661016001516001600160601b03168152602001866101a001516001600160a01b03168152602001866101c00151815250600d60008201518160000160006101000a81548160ff02191690831515021790555060208201518160000160016101000a81548160ff02191690831515021790555060408201518160000160026101000a81548163ffffffff021916908363ffffffff16021790555060608201518160000160066101000a81548163ffffffff021916908363ffffffff160217905550608082015181600001600a6101000a81548163ffffffff021916908363ffffffff16021790555060a082015181600001600e6101000a81548163ffffffff021916908363ffffffff16021790555060c08201518160000160126101000a81548163ffffffff021916908363ffffffff16021790555060e08201518160000160166101000a81548163ffffffff021916908363ffffffff16021790555061010082015181600001601a6101000a81548161ffff021916908361ffff1602179055506101208201518160010160006101000a8154816001600160601b0302191690836001600160601b0316021790555061014082015181600101600c6101000a8154816001600160a01b0302191690836001600160a01b03160217905550610160820151816002015590505060006001600160a01b0316826001600160a01b03161415801561273e57506000846040015151115b156127bc57601280546001600160a01b0319166001600160a01b03841690811790915560408581015190516342b53ffd60e11b815263856a7ffa91612785916004016140d8565b600060405180830381600087803b15801561279f57600080fd5b505af11580156127b3573d6000803e3d6000fd5b505050506127e0565b83516011906127cb9082614ebf565b5060208401516010906127de9082614ebf565b505b80156116c257600a805461ff0019169055604051600181527f7f26b83ff96e1f2b6a682f133852f6798a09c465da95921460cefb38474024989060200160405180910390a1505050505050565b6000610f948261349c565b6010805461284590614c94565b80601f016020809104026020016040519081016040528092919081815260200182805461287190614c94565b80156128be5780601f10612893576101008083540402835291602001916128be565b820191906000526020600020905b8154815290600101906020018083116128a157829003601f168201915b505050505081565b6128d1600033612ad3565b6128ed5760405162461bcd60e51b8152600401610ec290614cc8565b600054600d5462010000900463ffffffff166129098383614d1a565b106129265760405162461bcd60e51b8152600401610ec290614d2d565b60005b828110156110845761294f3361293f8385614d1a565b61294a906001614d1a565b613482565b8061295981614d8f565b915050612929565b60006001600160a01b03821661298a576040516323d3ad8160e21b815260040160405180910390fd5b506001600160a01b03166000908152600560205260409020546001600160401b031690565b6129b761364f565b6129c160006137fc565b565b600c546001600160a01b03166129eb5760405162461bcd60e51b8152600401610ec290614b81565b81156129f9576129f9613858565b60005b815181101561108457612a27828281518110612a1a57612a1a614d79565b6020026020010151613185565b612a3081614d8f565b90506129fc565b6014546000906001600160a01b031615612ace57601454600e54604051637096335b60e01b81526001600160601b039091166004820152602481018490526001600160a01b0390911690637096335b906044016040805180830381865afa158015612aa6573d6000803e3d6000fd5b505050506040513d601f19601f82011682018060405250810190612aca9190614e55565b5090505b919050565b60009182526008602090815260408084206001600160a01b0393909316845291905290205460ff1690565b612b09600033612ad3565b612b255760405162461bcd60e51b8152600401610ec290614cc8565b6011611cbd8282614ebf565b606060038054610fa990614c94565b81612b4a81613313565b61108483836138fb565b612b5f600033612ad3565b612b7b5760405162461bcd60e51b8152600401610ec290614cc8565b600d5460ff16612bdb5760405162461bcd60e51b815260206004820152602560248201527f63616e6e6f742061646a7573742073697a65206f66207468697320636f6c6c6560448201526431ba34b7b760d91b6064820152608401610ec2565b8063ffffffff16612beb60005490565b1115612c2f5760405162461bcd60e51b8152602060048201526013602482015272063616e6e6f742064656372656173652063617606c1b6044820152606401610ec2565b600d805463ffffffff909216620100000265ffffffff000019909216919091179055565b612c5e848484611524565b6001600160a01b0383163b15612c9757612c7a84848484613990565b612c97576040516368d2bf6b60e11b815260040160405180910390fd5b50505050565b600c546001600160a01b0316612cc55760405162461bcd60e51b8152600401610ec290614b81565b612ccd613858565b600b54600c5460405163730e582f60e11b81526001600160a01b039283169263e61cb05e92612d0d929116908a908a908a908a908a908a90600401614f7e565b600060405180830381600087803b158015612d2757600080fd5b505af1158015612d3b573d6000803e3d6000fd5b50505050505050505050565b612d52600033612ad3565b612d6e5760405162461bcd60e51b8152600401610ec290614cc8565b600054600d54819062010000900463ffffffff16612d8c8483614d1a565b1115612daa5760405162461bcd60e51b8152600401610ec290614d2d565b8183015b80831015612e5f57612de98585848603818110612dcd57612dcd614d79565b9050602002016020810190612de2919061456c565b6001613482565b7f30385c845b448a36257a6a1716e6ad2e1bc2cbe333cde1e69fe849ad6511adfe8585848603818110612e1e57612e1e614d79565b9050602002016020810190612e33919061456c565b604080516001600160a01b039092168252602082018690520160405180910390a1600190920191612dae565b5050505050565b6060612e71826132ec565b612e8e57604051630a14c4b560e41b815260040160405180910390fd5b6012546001600160a01b031615612f105760125460405163c87b56dd60e01b8152600481018490526001600160a01b039091169063c87b56dd90602401600060405180830381865afa158015612ee8573d6000803e3d6000fd5b505050506040513d6000823e601f3d908101601f19168201604052610f949190810190614fd7565b610f9482613a7c565b600082815260086020526040902060010154612f34816135bf565b61108483836136b0565b6012546060906001600160a01b0316612f5e5760118054610fa990614c94565b601260009054906101000a90046001600160a01b03166001600160a01b031663e8a3d4856040518163ffffffff1660e01b8152600401600060405180830381865afa158015612fb1573d6000803e3d6000fd5b505050506040513d6000823e601f3d908101601f19168201604052612fd99190810190614fd7565b905090565b600d54600090600160901b900463ffffffff16421080159061300f5750600d54600160b01b900463ffffffff164211155b8015612fd9575050601254600160a01b900460ff161590565b613033600033612ad3565b61304f5760405162461bcd60e51b8152600401610ec290614cc8565b600d805467ffffffffffffffff60501b1916600160501b63ffffffff9485160263ffffffff60701b191617600160701b9290931691909102919091179055565b61309761364f565b6001600160a01b0381166130fc5760405162461bcd60e51b815260206004820152602660248201527f4f776e61626c653a206e6577206f776e657220697320746865207a65726f206160448201526564647265737360d01b6064820152608401610ec2565b613105816137fc565b50565b613113600033612ad3565b61312f5760405162461bcd60e51b8152600401610ec290614cc8565b601280546001600160a01b0319166001600160a01b0392909216919091179055565b61315c600033612ad3565b6131785760405162461bcd60e51b8152600401610ec290614cc8565b806009611084828261504d565b6040516370a0823160e01b81523060048201526000906001600160a01b038316906370a0823190602401602060405180830381865afa1580156131cc573d6000803e3d6000fd5b505050506040513d601f19601f820116820180604052508101906131f09190614ceb565b600c5460405163a9059cbb60e01b81526001600160a01b0391821660048201526024810183905291925083169063a9059cbb906044016020604051808303816000875af1158015613245573d6000803e3d6000fd5b505050506040513d601f19601f820116820180604052508101906110849190614dca565b60006001600160e01b03198216637965db0b60e01b1480610f9457506301ffc9a760e01b6001600160e01b0319831614610f94565b60006301ffc9a760e01b6001600160e01b0319831614806132cf57506380ac58cd60e01b6001600160e01b03198316145b80610f945750506001600160e01b031916635b5e139f60e01b1490565b6000805482108015610f94575050600090815260046020526040902054600160e01b161590565b6daaeb6d7670e522a718067333cd4e3b1561310557604051633185c44d60e21b81523060048201526001600160a01b03821660248201526daaeb6d7670e522a718067333cd4e9063c617113490604401602060405180830381865afa158015613380573d6000803e3d6000fd5b505050506040513d601f19601f820116820180604052508101906133a49190614dca565b61310557604051633b79c77360e21b81526001600160a01b0382166004820152602401610ec2565b60006133d78261282d565b9050336001600160a01b03821614613410576133f38133610d79565b613410576040516367d9dca160e11b815260040160405180910390fd5b60008281526006602052604080822080546001600160a01b0319166001600160a01b0387811691821790925591518593918516917f8c5be1e5ebec7d5bd14f71427d1e84f3dd0314c0f7b2291e5b200ac8c7c3b92591a4505050565b6000826134798584613aff565b14949350505050565b611cbd828260405180602001604052806000815250613b4c565b6000816000548110156134f15760008181526004602052604081205490600160e01b821690036134ef575b806000036134e85750600019016000818152600460205260409020546134c7565b9392505050565b505b604051636f96cda160e11b815260040160405180910390fd5b836001600160a01b03811633146135245761352433613313565b600d54610100900460ff16158061355357506001600160a01b038516158061355357506001600160a01b038416155b612e5f5760405162461bcd60e51b81526020600482015260096024820152681cdbdd5b189bdd5b9960ba1b6044820152606401610ec2565b600b54604051636e5f691960e01b81526001600160a01b0390911690636e5f691990611953908690869086906004016150ea565b6131058133613bb2565b6135d38282612ad3565b611cbd5760008281526008602090815260408083206001600160a01b03851684529091529020805460ff1916600117905561360b3390565b6001600160a01b0316816001600160a01b0316837f2f8788117e7eff1d82e926ec794901d17c78024a50270940304540a733656f0d60405160405180910390a45050565b600a546001600160a01b03620100009091041633146129c15760405162461bcd60e51b815260206004820181905260248201527f4f776e61626c653a2063616c6c6572206973206e6f7420746865206f776e65726044820152606401610ec2565b6136ba8282612ad3565b15611cbd5760008281526008602090815260408083206001600160a01b0385168085529252808320805460ff1916905551339285917ff6391f5c32d9c69d2a47ea670b442974b53935d1edc7fd64eb21e047a839171b9190a45050565b801561310557601454604080516319b400eb60e21b815290516000926001600160a01b0316916366d003ac9160048083019260209291908290030181865afa158015613767573d6000803e3d6000fd5b505050506040513d601f19601f8201168201806040525081019061378b9190614e38565b6001600160a01b03168260405160006040518083038185875af1925050503d80600081146137d5576040519150601f19603f3d011682016040523d82523d6000602084013e6137da565b606091505b5050905080611cbd57604051634033e4e360e01b815260040160405180910390fd5b600a80546001600160a01b038381166201000081810262010000600160b01b031985161790945560405193909204169182907f8be0079c531659141344cd1fd0a4f28419497f9722a3daafe3b4186f6b6457e090600090a35050565b600c546040516000916001600160a01b03169047908381818185875af1925050503d80600081146138a5576040519150601f19603f3d011682016040523d82523d6000602084013e6138aa565b606091505b50509050806131055760405162461bcd60e51b815260206004820152601f60248201527f436f756c64206e6f74207472616e736665722045544820746f2073706c6974006044820152606401610ec2565b336001600160a01b038316036139245760405163b06307db60e01b815260040160405180910390fd5b3360008181526007602090815260408083206001600160a01b03871680855290835292819020805460ff191686151590811790915590519081529192917f17307eab39ab6107e8899845ad3d59bd9653f200f220920489ca2b5937696c31910160405180910390a35050565b604051630a85bd0160e11b81526000906001600160a01b0385169063150b7a02906139c590339089908890889060040161514d565b6020604051808303816000875af1925050508015613a00575060408051601f3d908101601f191682019092526139fd9181019061518a565b60015b613a5e573d808015613a2e576040519150601f19603f3d011682016040523d82523d6000602084013e613a33565b606091505b508051600003613a56576040516368d2bf6b60e11b815260040160405180910390fd5b805181602001fd5b6001600160e01b031916630a85bd0160e11b1490505b949350505050565b6060613a87826132ec565b613aa457604051630a14c4b560e41b815260040160405180910390fd5b6000613aae613c0b565b90508051600003613ace57604051806020016040528060008152506134e8565b80613ad884613c1a565b604051602001613ae99291906151a7565b6040516020818303038152906040529392505050565b600081815b8451811015613b4457613b3082868381518110613b2357613b23614d79565b6020026020010151613c52565b915080613b3c81614d8f565b915050613b04565b509392505050565b613b568383613c7e565b6001600160a01b0383163b15611084576000548281035b613b806000868380600101945086613990565b613b9d576040516368d2bf6b60e11b815260040160405180910390fd5b818110613b6d578160005414612e5f57600080fd5b613bbc8282612ad3565b611cbd57613bc981613d89565b613bd4836020613d9b565b604051602001613be59291906151d6565b60408051601f198184030181529082905262461bcd60e51b8252610ec2916004016140d8565b606060108054610fa990614c94565b604080516080019081905280825b600183039250600a81066030018353600a900480613c285750819003601f19909101908152919050565b6000818310613c6e5760008281526020849052604090206134e8565b5060009182526020526040902090565b6000805490829003613ca35760405163b562e8dd60e01b815260040160405180910390fd5b613cb0600084838561350a565b6001600160a01b03831660008181526005602090815260408083208054680100000000000000018802019055848352600490915281206001851460e11b4260a01b178317905582840190839083907fddf252ad1be2c89b69c2b068fc378daa952ba7f163c4a11628f55a4df523b3ef8180a4600183015b818114613d5f57808360007fddf252ad1be2c89b69c2b068fc378daa952ba7f163c4a11628f55a4df523b3ef600080a4600101613d27565b5081600003613d8057604051622e076360e81b815260040160405180910390fd5b60005550505050565b6060610f946001600160a01b03831660145b60606000613daa836002614d62565b613db5906002614d1a565b6001600160401b03811115613dcc57613dcc614277565b6040519080825280601f01601f191660200182016040528015613df6576020820181803683370190505b509050600360fc1b81600081518110613e1157613e11614d79565b60200101906001600160f81b031916908160001a905350600f60fb1b81600181518110613e4057613e40614d79565b60200101906001600160f81b031916908160001a9053506000613e64846002614d62565b613e6f906001614d1a565b90505b6001811115613ee7576f181899199a1a9b1b9c1cb0b131b232b360811b85600f1660108110613ea357613ea3614d79565b1a60f81b828281518110613eb957613eb9614d79565b60200101906001600160f81b031916908160001a90535060049490941c93613ee08161524b565b9050613e72565b5083156134e85760405162461bcd60e51b815260206004820181905260248201527f537472696e67733a20686578206c656e67746820696e73756666696369656e746044820152606401610ec2565b6001600160a01b038116811461310557600080fd5b60008083601f840112613f5d57600080fd5b5081356001600160401b03811115613f7457600080fd5b6020830191508360208260051b850101111561186657600080fd5b803563ffffffff81168114612ace57600080fd5b8035612ace81613f36565b600080600080600080600060a0888a031215613fc957600080fd5b8735613fd481613f36565b965060208801356001600160401b0380821115613ff057600080fd5b613ffc8b838c01613f4b565b909850965060408a013591508082111561401557600080fd5b506140228a828b01613f4b565b9095509350614035905060608901613f8f565b9150608088013561404581613f36565b8091505092959891949750929550565b6001600160e01b03198116811461310557600080fd5b60006020828403121561407d57600080fd5b81356134e881614055565b60005b838110156140a357818101518382015260200161408b565b50506000910152565b600081518084526140c4816020860160208601614088565b601f01601f19169290920160200192915050565b6020815260006134e860208301846140ac565b6000602082840312156140fd57600080fd5b5035919050565b6000806040838503121561411757600080fd5b823561412281613f36565b946020939093013593505050565b6000806040838503121561414357600080fd5b61414c83613f8f565b915061415a60208401613f8f565b90509250929050565b60008060008060008060a0878903121561417c57600080fd5b863561418781613f36565b955060208701359450604087013593506060870135925060808701356001600160401b038111156141b757600080fd5b6141c389828a01613f4b565b979a9699509497509295939492505050565b634e487b7160e01b600052602160045260246000fd5b6001600160a01b03841681526001600160581b0383166020820152606081016003831061422857634e487b7160e01b600052602160045260246000fd5b826040830152949350505050565b60008060006060848603121561424b57600080fd5b833561425681613f36565b9250602084013561426681613f36565b929592945050506040919091013590565b634e487b7160e01b600052604160045260246000fd5b6040516101e081016001600160401b03811182821017156142b0576142b0614277565b60405290565b604051601f8201601f191681016001600160401b03811182821017156142de576142de614277565b604052919050565b600082601f8301126142f757600080fd5b813560206001600160401b0382111561431257614312614277565b8160051b6143218282016142b6565b928352848101820192828101908785111561433b57600080fd5b83870192505b8483101561436357823561435481613f36565b82529183019190830190614341565b979650505050505050565b600080600080600080600080600060e08a8c03121561438c57600080fd5b893561439781613f36565b985060208a0135975060408a01356001600160401b03808211156143ba57600080fd5b6143c68d838e016142e6565b985060608c01359150808211156143dc57600080fd5b6143e88d838e01613f4b565b909850965060808c013591508082111561440157600080fd5b5061440e8c828d01613f4b565b9095509350614421905060a08b01613f8f565b915060c08a013561443181613f36565b809150509295985092959850929598565b6000806040838503121561445557600080fd5b50508035926020909101359150565b801515811461310557600080fd5b8035612ace81614464565b6000806040838503121561449057600080fd5b823561449b81614464565b915060208301356144ab81613f36565b809150509250929050565b600080604083850312156144c957600080fd5b8235915060208301356144ab81613f36565b600080600080600080608087890312156144f457600080fd5b86356144ff81613f36565b955060208701356001600160401b038082111561451b57600080fd5b6145278a838b01613f4b565b9097509550604089013591508082111561454057600080fd5b5061454d89828a01613f4b565b9094509250614560905060608801613f8f565b90509295509295509295565b60006020828403121561457e57600080fd5b81356134e881613f36565b60006001600160401b038211156145a2576145a2614277565b50601f01601f191660200190565b600082601f8301126145c157600080fd5b81356145d46145cf82614589565b6142b6565b8181528460208386010111156145e957600080fd5b816020850160208301376000918101602001919091529392505050565b60006020828403121561461857600080fd5b81356001600160401b0381111561462e57600080fd5b613a74848285016145b0565b803561ffff81168114612ace57600080fd5b80356001600160601b0381168114612ace57600080fd5b60006080828403121561467557600080fd5b604051608081016001600160401b03828210818311171561469857614698614277565b8160405282935084359150808211156146b057600080fd5b6146bc868387016145b0565b835260208501359150808211156146d257600080fd5b6146de868387016145b0565b602084015260408501359150808211156146f757600080fd5b50614704858286016145b0565b604083015250606083013561471881613f36565b6060919091015292915050565b6001600160581b038116811461310557600080fd5b6003811061310557600080fd5b60006060828403121561475957600080fd5b604051606081018181106001600160401b038211171561477b5761477b614277565b604052905080823561478c81613f36565b8152602083013561479c81614725565b602082015260408301356147af8161473a565b6040919091015292915050565b600080600080600060e086880312156147d457600080fd5b85356147df81613f36565b945060208601356001600160401b03808211156147fb57600080fd5b908701906101e0828a03121561481057600080fd5b61481861428d565b82358281111561482757600080fd5b6148338b8286016145b0565b82525060208301358281111561484857600080fd5b6148548b8286016145b0565b60208301525061486660408401614472565b604082015261487760608401614472565b606082015261488860808401613f8f565b608082015261489960a08401613f8f565b60a08201526148aa60c08401613f8f565b60c08201526148bb60e08401613f8f565b60e08201526101006148ce818501613f8f565b908201526101206148e0848201613f8f565b908201526101406148f284820161463a565b9082015261016061490484820161464c565b90820152610180614916848201613fa3565b908201526101a0614928848201613fa3565b908201526101c092830135928101929092529094506040870135908082111561495057600080fd5b5061495d88828901614663565b93505061496d8760608801614747565b915061497b60c08701613fa3565b90509295509295909350565b6000806040838503121561499a57600080fd5b8235915060208301356001600160401b038111156149b757600080fd5b611862858286016142e6565b600080604083850312156149d657600080fd5b82356149e181613f36565b915060208301356144ab81614464565b600060208284031215614a0357600080fd5b6134e882613f8f565b60008060008060808587031215614a2257600080fd5b8435614a2d81613f36565b93506020850135614a3d81613f36565b92506040850135915060608501356001600160401b03811115614a5f57600080fd5b614a6b878288016145b0565b91505092959194509250565b60008060008060008060808789031215614a9057600080fd5b86356001600160401b0380821115614aa757600080fd5b614ab38a838b01613f4b565b90985096506020890135915080821115614acc57600080fd5b50614ad989828a01613f4b565b9095509350614aec905060408801613f8f565b91506060870135614afc81613f36565b809150509295509295509295565b60008060208385031215614b1d57600080fd5b82356001600160401b03811115614b3357600080fd5b614b3f85828601613f4b565b90969095509350505050565b60008060408385031215614b5e57600080fd5b823561449b81613f36565b600060608284031215614b7b57600080fd5b50919050565b60208082526015908201527414dc1b1a5d081b9bdd0818dc99585d1959081e595d605a1b604082015260600190565b8183526000602080850194508260005b85811015614bee578135614bd381613f36565b6001600160a01b031687529582019590820190600101614bc0565b509495945050505050565b8183526000602080850194508260005b85811015614bee5763ffffffff614c1f83613f8f565b1687529582019590820190600101614c09565b600060018060a01b03808b168352808a16602084015260c06040840152614c5d60c08401898b614bb0565b8381036060850152614c7081888a614bf9565b63ffffffff969096166080850152509290921660a090910152509695505050505050565b600181811c90821680614ca857607f821691505b602082108103614b7b57634e487b7160e01b600052602260045260246000fd5b60208082526009908201526837b7363ca0b236b4b760b91b604082015260600190565b600060208284031215614cfd57600080fd5b5051919050565b634e487b7160e01b600052601160045260246000fd5b80820180821115610f9457610f94614d04565b6020808252818101527f507572636861736520776f756c6420657863656564206d617820737570706c79604082015260600190565b8082028115828204841417610f9457610f94614d04565b634e487b7160e01b600052603260045260246000fd5b600060018201614da157614da1614d04565b5060010190565b600082614dc557634e487b7160e01b600052601260045260246000fd5b500490565b600060208284031215614ddc57600080fd5b81516134e881614464565b608081526000614dfb60808301888a614bb0565b8281036020840152614e0e818789614bf9565b63ffffffff95909516604084015250506001600160a01b0391909116606090910152949350505050565b600060208284031215614e4a57600080fd5b81516134e881613f36565b60008060408385031215614e6857600080fd5b505080516020909101519092909150565b601f82111561108457600081815260208120601f850160051c81016020861015614ea05750805b601f850160051c820191505b818110156116c257828155600101614eac565b81516001600160401b03811115614ed857614ed8614277565b614eec81614ee68454614c94565b84614e79565b602080601f831160018114614f215760008415614f095750858301515b600019600386901b1c1916600185901b1785556116c2565b600085815260208120601f198616915b82811015614f5057888601518255948401946001909101908401614f31565b5085821015614f6e5787850151600019600388901b60f8161c191681555b5050505050600190811b01905550565b600060018060a01b03808a16835260a06020840152614fa160a08401898b614bb0565b8381036040850152614fb481888a614bf9565b63ffffffff96909616606085015250929092166080909101525095945050505050565b600060208284031215614fe957600080fd5b81516001600160401b03811115614fff57600080fd5b8201601f8101841361501057600080fd5b805161501e6145cf82614589565b81815285602083850101111561503357600080fd5b615044826020830160208601614088565b95945050505050565b813561505881613f36565b81546001600160a01b031981166001600160a01b03929092169182178355602084013561508481614725565b6affffffffffffffffffffff60a01b60a09190911b166001600160f81b03199182168317811784556040850135916150bb8361473a565b600383106150d957634e487b7160e01b600052602160045260246000fd5b921760f89190911b90911617905550565b6001600160a01b038481168252602080830185905260606040840181905284519084018190526000928583019290916080860190855b8181101561513e578551851683529483019491830191600101615120565b50909998505050505050505050565b6001600160a01b0385811682528416602082015260408101839052608060608201819052600090615180908301846140ac565b9695505050505050565b60006020828403121561519c57600080fd5b81516134e881614055565b600083516151b9818460208801614088565b8351908301906151cd818360208801614088565b01949350505050565b7f416363657373436f6e74726f6c3a206163636f756e742000000000000000000081526000835161520e816017850160208801614088565b7001034b99036b4b9b9b4b733903937b6329607d1b601791840191820152835161523f816028840160208801614088565b01602801949350505050565b60008161525a5761525a614d04565b50600019019056fea2646970667358221220548da628b001590d790f95f0a86f912fda659c0a7240e08ba992a740eac96f8264736f6c63430008110033",
  "linkReferences": {},
  "deployedLinkReferences": {}
}