{
  "_format": "hh-sol-artifact-1",
  "contractName": "DCNT4907A",
  "sourceName": "contracts/DCNT4907A.sol",
  "abi": [
    {
      "inputs": [],
      "name": "ApprovalCallerNotOwnerNorApproved",
      "type": "error"
    },
    {
      "inputs": [],
      "name": "ApprovalQueryForNonexistentToken",
      "type": "error"
    },
    {
      "inputs": [],
      "name": "ApproveToCaller",
      "type": "error"
    },
    {
      "inputs": [],
      "name": "BalanceQueryForZeroAddress",
      "type": "error"
    },
    {
      "inputs": [],
      "name": "MintERC2309QuantityExceedsLimit",
      "type": "error"
    },
    {
      "inputs": [],
      "name": "MintToZeroAddress",
      "type": "error"
    },
    {
      "inputs": [],
      "name": "MintZeroQuantity",
      "type": "error"
    },
    {
      "inputs": [
        {
          "internalType": "address",
          "name": "operator",
          "type": "address"
        }
      ],
      "name": "OperatorNotAllowed",
      "type": "error"
    },
    {
      "inputs": [],
      "name": "OwnerQueryForNonexistentToken",
      "type": "error"
    },
    {
      "inputs": [],
      "name": "OwnershipNotInitializedForExtraData",
      "type": "error"
    },
    {
      "inputs": [],
      "name": "SetUserCallerNotOwnerNorApproved",
      "type": "error"
    },
    {
      "inputs": [],
      "name": "TransferCallerNotOwnerNorApproved",
      "type": "error"
    },
    {
      "inputs": [],
      "name": "TransferFromIncorrectOwner",
      "type": "error"
    },
    {
      "inputs": [],
      "name": "TransferToNonERC721ReceiverImplementer",
      "type": "error"
    },
    {
      "inputs": [],
      "name": "TransferToZeroAddress",
      "type": "error"
    },
    {
      "inputs": [],
      "name": "URIQueryForNonexistentToken",
      "type": "error"
    },
    {
      "anonymous": false,
      "inputs": [
        {
          "indexed": true,
          "internalType": "address",
          "name": "owner",
          "type": "address"
        },
        {
          "indexed": true,
          "internalType": "address",
          "name": "approved",
          "type": "address"
        },
        {
          "indexed": true,
          "internalType": "uint256",
          "name": "tokenId",
          "type": "uint256"
        }
      ],
      "name": "Approval",
      "type": "event"
    },
    {
      "anonymous": false,
      "inputs": [
        {
          "indexed": true,
          "internalType": "address",
          "name": "owner",
          "type": "address"
        },
        {
          "indexed": true,
          "internalType": "address",
          "name": "operator",
          "type": "address"
        },
        {
          "indexed": false,
          "internalType": "bool",
          "name": "approved",
          "type": "bool"
        }
      ],
      "name": "ApprovalForAll",
      "type": "event"
    },
    {
      "anonymous": false,
      "inputs": [
        {
          "indexed": true,
          "internalType": "uint256",
          "name": "fromTokenId",
          "type": "uint256"
        },
        {
          "indexed": false,
          "internalType": "uint256",
          "name": "toTokenId",
          "type": "uint256"
        },
        {
          "indexed": true,
          "internalType": "address",
          "name": "from",
          "type": "address"
        },
        {
          "indexed": true,
          "internalType": "address",
          "name": "to",
          "type": "address"
        }
      ],
      "name": "ConsecutiveTransfer",
      "type": "event"
    },
    {
      "anonymous": false,
      "inputs": [
        {
          "indexed": false,
          "internalType": "uint8",
          "name": "version",
          "type": "uint8"
        }
      ],
      "name": "Initialized",
      "type": "event"
    },
    {
      "anonymous": false,
      "inputs": [
        {
          "indexed": false,
          "internalType": "address",
          "name": "sender",
          "type": "address"
        },
        {
          "indexed": false,
          "internalType": "uint256",
          "name": "tokenId_",
          "type": "uint256"
        }
      ],
      "name": "Minted",
      "type": "event"
    },
    {
      "anonymous": false,
      "inputs": [
        {
          "indexed": true,
          "internalType": "address",
          "name": "previousOwner",
          "type": "address"
        },
        {
          "indexed": true,
          "internalType": "address",
          "name": "newOwner",
          "type": "address"
        }
      ],
      "name": "OwnershipTransferred",
      "type": "event"
    },
    {
      "anonymous": false,
      "inputs": [
        {
          "indexed": true,
          "internalType": "bytes32",
          "name": "role",
          "type": "bytes32"
        },
        {
          "indexed": true,
          "internalType": "bytes32",
          "name": "previousAdminRole",
          "type": "bytes32"
        },
        {
          "indexed": true,
          "internalType": "bytes32",
          "name": "newAdminRole",
          "type": "bytes32"
        }
      ],
      "name": "RoleAdminChanged",
      "type": "event"
    },
    {
      "anonymous": false,
      "inputs": [
        {
          "indexed": true,
          "internalType": "bytes32",
          "name": "role",
          "type": "bytes32"
        },
        {
          "indexed": true,
          "internalType": "address",
          "name": "account",
          "type": "address"
        },
        {
          "indexed": true,
          "internalType": "address",
          "name": "sender",
          "type": "address"
        }
      ],
      "name": "RoleGranted",
      "type": "event"
    },
    {
      "anonymous": false,
      "inputs": [
        {
          "indexed": true,
          "internalType": "bytes32",
          "name": "role",
          "type": "bytes32"
        },
        {
          "indexed": true,
          "internalType": "address",
          "name": "account",
          "type": "address"
        },
        {
          "indexed": true,
          "internalType": "address",
          "name": "sender",
          "type": "address"
        }
      ],
      "name": "RoleRevoked",
      "type": "event"
    },
    {
      "anonymous": false,
      "inputs": [
        {
          "indexed": true,
          "internalType": "address",
          "name": "from",
          "type": "address"
        },
        {
          "indexed": true,
          "internalType": "address",
          "name": "to",
          "type": "address"
        },
        {
          "indexed": true,
          "internalType": "uint256",
          "name": "tokenId",
          "type": "uint256"
        }
      ],
      "name": "Transfer",
      "type": "event"
    },
    {
      "anonymous": false,
      "inputs": [
        {
          "indexed": true,
          "internalType": "uint256",
          "name": "tokenId",
          "type": "uint256"
        },
        {
          "indexed": true,
          "internalType": "address",
          "name": "user",
          "type": "address"
        },
        {
          "indexed": false,
          "internalType": "uint64",
          "name": "expires",
          "type": "uint64"
        }
      ],
      "name": "UpdateUser",
      "type": "event"
    },
    {
      "inputs": [],
      "name": "DEFAULT_ADMIN_ROLE",
      "outputs": [
        {
          "internalType": "bytes32",
          "name": "",
          "type": "bytes32"
        }
      ],
      "stateMutability": "view",
      "type": "function"
    },
    {
      "inputs": [],
      "name": "MAX_TOKENS",
      "outputs": [
        {
          "internalType": "uint256",
          "name": "",
          "type": "uint256"
        }
      ],
      "stateMutability": "view",
      "type": "function"
    },
    {
      "inputs": [
        {
          "internalType": "uint256",
          "name": "newCap",
          "type": "uint256"
        }
      ],
      "name": "adjustCap",
      "outputs": [],
      "stateMutability": "nonpayable",
      "type": "function"
    },
    {
      "inputs": [
        {
          "internalType": "address",
          "name": "operator",
          "type": "address"
        },
        {
          "internalType": "uint256",
          "name": "tokenId",
          "type": "uint256"
        }
      ],
      "name": "approve",
      "outputs": [],
      "stateMutability": "nonpayable",
      "type": "function"
    },
    {
      "inputs": [
        {
          "internalType": "address",
          "name": "owner",
          "type": "address"
        }
      ],
      "name": "balanceOf",
      "outputs": [
        {
          "internalType": "uint256",
          "name": "",
          "type": "uint256"
        }
      ],
      "stateMutability": "view",
      "type": "function"
    },
    {
      "inputs": [],
      "name": "baseURI",
      "outputs": [
        {
          "internalType": "string",
          "name": "",
          "type": "string"
        }
      ],
      "stateMutability": "view",
      "type": "function"
    },
    {
      "inputs": [],
      "name": "contractURI",
      "outputs": [
        {
          "internalType": "string",
          "name": "",
          "type": "string"
        }
      ],
      "stateMutability": "view",
      "type": "function"
    },
    {
      "inputs": [],
      "name": "contractVersion",
      "outputs": [
        {
          "internalType": "uint32",
          "name": "",
          "type": "uint32"
        }
      ],
      "stateMutability": "view",
      "type": "function"
    },
    {
      "inputs": [
        {
          "internalType": "address[]",
          "name": "accounts",
          "type": "address[]"
        },
        {
          "internalType": "uint32[]",
          "name": "percentAllocations",
          "type": "uint32[]"
        },
        {
          "internalType": "uint32",
          "name": "distributorFee",
          "type": "uint32"
        }
      ],
      "name": "createSplit",
      "outputs": [],
      "stateMutability": "nonpayable",
      "type": "function"
    },
    {
      "inputs": [
        {
          "internalType": "address",
          "name": "account",
          "type": "address"
        },
        {
          "internalType": "uint256",
          "name": "withdrawETH",
          "type": "uint256"
        },
        {
          "internalType": "contract ERC20[]",
          "name": "tokens",
          "type": "address[]"
        },
        {
          "internalType": "address[]",
          "name": "accounts",
          "type": "address[]"
        },
        {
          "internalType": "uint32[]",
          "name": "percentAllocations",
          "type": "uint32[]"
        },
        {
          "internalType": "uint32",
          "name": "distributorFee",
          "type": "uint32"
        },
        {
          "internalType": "address",
          "name": "distributorAddress",
          "type": "address"
        }
      ],
      "name": "distributeAndWithdraw",
      "outputs": [],
      "stateMutability": "nonpayable",
      "type": "function"
    },
    {
      "inputs": [
        {
          "internalType": "contract ERC20",
          "name": "token",
          "type": "address"
        },
        {
          "internalType": "address[]",
          "name": "accounts",
          "type": "address[]"
        },
        {
          "internalType": "uint32[]",
          "name": "percentAllocations",
          "type": "uint32[]"
        },
        {
          "internalType": "uint32",
          "name": "distributorFee",
          "type": "uint32"
        },
        {
          "internalType": "address",
          "name": "distributorAddress",
          "type": "address"
        }
      ],
      "name": "distributeERC20",
      "outputs": [],
      "stateMutability": "nonpayable",
      "type": "function"
    },
    {
      "inputs": [
        {
          "internalType": "address[]",
          "name": "accounts",
          "type": "address[]"
        },
        {
          "internalType": "uint32[]",
          "name": "percentAllocations",
          "type": "uint32[]"
        },
        {
          "internalType": "uint32",
          "name": "distributorFee",
          "type": "uint32"
        },
        {
          "internalType": "address",
          "name": "distributorAddress",
          "type": "address"
        }
      ],
      "name": "distributeETH",
      "outputs": [],
      "stateMutability": "nonpayable",
      "type": "function"
    },
    {
      "inputs": [],
      "name": "flipSaleState",
      "outputs": [],
      "stateMutability": "nonpayable",
      "type": "function"
    },
    {
      "inputs": [
        {
          "internalType": "uint256",
          "name": "tokenId",
          "type": "uint256"
        }
      ],
      "name": "getApproved",
      "outputs": [
        {
          "internalType": "address",
          "name": "",
          "type": "address"
        }
      ],
      "stateMutability": "view",
      "type": "function"
    },
    {
      "inputs": [
        {
          "internalType": "bytes32",
          "name": "role",
          "type": "bytes32"
        }
      ],
      "name": "getRoleAdmin",
      "outputs": [
        {
          "internalType": "bytes32",
          "name": "",
          "type": "bytes32"
        }
      ],
      "stateMutability": "view",
      "type": "function"
    },
    {
      "inputs": [
        {
          "internalType": "bytes32",
          "name": "role",
          "type": "bytes32"
        },
        {
          "internalType": "address",
          "name": "account",
          "type": "address"
        }
      ],
      "name": "grantRole",
      "outputs": [],
      "stateMutability": "nonpayable",
      "type": "function"
    },
    {
      "inputs": [],
      "name": "hasAdjustableCap",
      "outputs": [
        {
          "internalType": "bool",
          "name": "",
          "type": "bool"
        }
      ],
      "stateMutability": "view",
      "type": "function"
    },
    {
      "inputs": [
        {
          "internalType": "bytes32",
          "name": "role",
          "type": "bytes32"
        },
        {
          "internalType": "address",
          "name": "account",
          "type": "address"
        }
      ],
      "name": "hasRole",
      "outputs": [
        {
          "internalType": "bool",
          "name": "",
          "type": "bool"
        }
      ],
      "stateMutability": "view",
      "type": "function"
    },
    {
      "inputs": [
        {
          "internalType": "address",
          "name": "_owner",
          "type": "address"
        },
        {
          "components": [
            {
              "internalType": "string",
              "name": "name",
              "type": "string"
            },
            {
              "internalType": "string",
              "name": "symbol",
              "type": "string"
            },
            {
              "internalType": "bool",
              "name": "hasAdjustableCap",
              "type": "bool"
            },
            {
              "internalType": "bool",
              "name": "isSoulbound",
              "type": "bool"
            },
            {
              "internalType": "uint256",
              "name": "maxTokens",
              "type": "uint256"
            },
            {
              "internalType": "uint256",
              "name": "tokenPrice",
              "type": "uint256"
            },
            {
              "internalType": "uint256",
              "name": "maxTokenPurchase",
              "type": "uint256"
            },
            {
              "internalType": "bytes32",
              "name": "presaleMerkleRoot",
              "type": "bytes32"
            },
            {
              "internalType": "uint256",
              "name": "presaleStart",
              "type": "uint256"
            },
            {
              "internalType": "uint256",
              "name": "presaleEnd",
              "type": "uint256"
            },
            {
              "internalType": "uint256",
              "name": "saleStart",
              "type": "uint256"
            },
            {
              "internalType": "uint256",
              "name": "saleEnd",
              "type": "uint256"
            },
            {
              "internalType": "uint256",
              "name": "royaltyBPS",
              "type": "uint256"
            },
            {
              "internalType": "address",
              "name": "payoutAddress",
              "type": "address"
            }
          ],
          "internalType": "struct EditionConfig",
          "name": "_editionConfig",
          "type": "tuple"
        },
        {
          "components": [
            {
              "internalType": "string",
              "name": "contractURI",
              "type": "string"
            },
            {
              "internalType": "string",
              "name": "metadataURI",
              "type": "string"
            },
            {
              "internalType": "bytes",
              "name": "metadataRendererInit",
              "type": "bytes"
            },
            {
              "internalType": "address",
              "name": "parentIP",
              "type": "address"
            }
          ],
          "internalType": "struct MetadataConfig",
          "name": "_metadataConfig",
          "type": "tuple"
        },
        {
          "components": [
            {
              "internalType": "address",
              "name": "tokenAddress",
              "type": "address"
            },
            {
              "internalType": "uint88",
              "name": "minBalance",
              "type": "uint88"
            },
            {
              "internalType": "enum SaleType",
              "name": "saleType",
              "type": "uint8"
            }
          ],
          "internalType": "struct TokenGateConfig",
          "name": "_tokenGateConfig",
          "type": "tuple"
        },
        {
          "internalType": "address",
          "name": "_metadataRenderer",
          "type": "address"
        },
        {
          "internalType": "address",
          "name": "_splitMain",
          "type": "address"
        }
      ],
      "name": "initialize",
      "outputs": [],
      "stateMutability": "nonpayable",
      "type": "function"
    },
    {
      "inputs": [
        {
          "internalType": "address",
          "name": "owner",
          "type": "address"
        },
        {
          "internalType": "address",
          "name": "operator",
          "type": "address"
        }
      ],
      "name": "isApprovedForAll",
      "outputs": [
        {
          "internalType": "bool",
          "name": "",
          "type": "bool"
        }
      ],
      "stateMutability": "view",
      "type": "function"
    },
    {
      "inputs": [],
      "name": "isSoulbound",
      "outputs": [
        {
          "internalType": "bool",
          "name": "",
          "type": "bool"
        }
      ],
      "stateMutability": "view",
      "type": "function"
    },
    {
      "inputs": [],
      "name": "maxTokenPurchase",
      "outputs": [
        {
          "internalType": "uint256",
          "name": "",
          "type": "uint256"
        }
      ],
      "stateMutability": "view",
      "type": "function"
    },
    {
      "inputs": [],
      "name": "metadataRenderer",
      "outputs": [
        {
          "internalType": "address",
          "name": "",
          "type": "address"
        }
      ],
      "stateMutability": "view",
      "type": "function"
    },
    {
      "inputs": [
        {
          "internalType": "address",
          "name": "to",
          "type": "address"
        },
        {
          "internalType": "uint256",
          "name": "numberOfTokens",
          "type": "uint256"
        }
      ],
      "name": "mint",
      "outputs": [],
      "stateMutability": "payable",
      "type": "function"
    },
    {
      "inputs": [
        {
          "internalType": "address[]",
          "name": "recipients",
          "type": "address[]"
        }
      ],
      "name": "mintAirdrop",
      "outputs": [],
      "stateMutability": "nonpayable",
      "type": "function"
    },
    {
      "inputs": [
        {
          "internalType": "uint256",
          "name": "quantity",
          "type": "uint256"
        },
        {
          "internalType": "uint256",
          "name": "maxQuantity",
          "type": "uint256"
        },
        {
          "internalType": "uint256",
          "name": "pricePerToken",
          "type": "uint256"
        },
        {
          "internalType": "bytes32[]",
          "name": "merkleProof",
          "type": "bytes32[]"
        }
      ],
      "name": "mintPresale",
      "outputs": [],
      "stateMutability": "payable",
      "type": "function"
    },
    {
      "inputs": [],
      "name": "name",
      "outputs": [
        {
          "internalType": "string",
          "name": "",
          "type": "string"
        }
      ],
      "stateMutability": "view",
      "type": "function"
    },
    {
      "inputs": [],
      "name": "operatorFilterRegistry",
      "outputs": [
        {
          "internalType": "contract IOperatorFilterRegistry",
          "name": "",
          "type": "address"
        }
      ],
      "stateMutability": "view",
      "type": "function"
    },
    {
      "inputs": [],
      "name": "owner",
      "outputs": [
        {
          "internalType": "address",
          "name": "",
          "type": "address"
        }
      ],
      "stateMutability": "view",
      "type": "function"
    },
    {
      "inputs": [
        {
          "internalType": "uint256",
          "name": "tokenId",
          "type": "uint256"
        }
      ],
      "name": "ownerOf",
      "outputs": [
        {
          "internalType": "address",
          "name": "",
          "type": "address"
        }
      ],
      "stateMutability": "view",
      "type": "function"
    },
    {
      "inputs": [],
      "name": "parentIP",
      "outputs": [
        {
          "internalType": "address",
          "name": "",
          "type": "address"
        }
      ],
      "stateMutability": "view",
      "type": "function"
    },
    {
      "inputs": [],
      "name": "payoutAddress",
      "outputs": [
        {
          "internalType": "address",
          "name": "",
          "type": "address"
        }
      ],
      "stateMutability": "view",
      "type": "function"
    },
    {
      "inputs": [],
      "name": "presaleEnd",
      "outputs": [
        {
          "internalType": "uint256",
          "name": "",
          "type": "uint256"
        }
      ],
      "stateMutability": "view",
      "type": "function"
    },
    {
      "inputs": [],
      "name": "presaleMerkleRoot",
      "outputs": [
        {
          "internalType": "bytes32",
          "name": "",
          "type": "bytes32"
        }
      ],
      "stateMutability": "view",
      "type": "function"
    },
    {
      "inputs": [],
      "name": "presaleStart",
      "outputs": [
        {
          "internalType": "uint256",
          "name": "",
          "type": "uint256"
        }
      ],
      "stateMutability": "view",
      "type": "function"
    },
    {
      "inputs": [],
      "name": "renounceOwnership",
      "outputs": [],
      "stateMutability": "nonpayable",
      "type": "function"
    },
    {
      "inputs": [
        {
          "internalType": "bytes32",
          "name": "role",
          "type": "bytes32"
        },
        {
          "internalType": "address",
          "name": "account",
          "type": "address"
        }
      ],
      "name": "renounceRole",
      "outputs": [],
      "stateMutability": "nonpayable",
      "type": "function"
    },
    {
      "inputs": [
        {
          "internalType": "uint256",
          "name": "numReserved",
          "type": "uint256"
        }
      ],
      "name": "reserveDCNT",
      "outputs": [],
      "stateMutability": "nonpayable",
      "type": "function"
    },
    {
      "inputs": [
        {
          "internalType": "bytes32",
          "name": "role",
          "type": "bytes32"
        },
        {
          "internalType": "address",
          "name": "account",
          "type": "address"
        }
      ],
      "name": "revokeRole",
      "outputs": [],
      "stateMutability": "nonpayable",
      "type": "function"
    },
    {
      "inputs": [],
      "name": "royaltyBPS",
      "outputs": [
        {
          "internalType": "uint256",
          "name": "",
          "type": "uint256"
        }
      ],
      "stateMutability": "view",
      "type": "function"
    },
    {
      "inputs": [
        {
          "internalType": "uint256",
          "name": "tokenId",
          "type": "uint256"
        },
        {
          "internalType": "uint256",
          "name": "salePrice",
          "type": "uint256"
        }
      ],
      "name": "royaltyInfo",
      "outputs": [
        {
          "internalType": "address",
          "name": "receiver",
          "type": "address"
        },
        {
          "internalType": "uint256",
          "name": "royaltyAmount",
          "type": "uint256"
        }
      ],
      "stateMutability": "view",
      "type": "function"
    },
    {
      "inputs": [
        {
          "internalType": "address",
          "name": "from",
          "type": "address"
        },
        {
          "internalType": "address",
          "name": "to",
          "type": "address"
        },
        {
          "internalType": "uint256",
          "name": "tokenId",
          "type": "uint256"
        }
      ],
      "name": "safeTransferFrom",
      "outputs": [],
      "stateMutability": "nonpayable",
      "type": "function"
    },
    {
      "inputs": [
        {
          "internalType": "address",
          "name": "from",
          "type": "address"
        },
        {
          "internalType": "address",
          "name": "to",
          "type": "address"
        },
        {
          "internalType": "uint256",
          "name": "tokenId",
          "type": "uint256"
        },
        {
          "internalType": "bytes",
          "name": "_data",
          "type": "bytes"
        }
      ],
      "name": "safeTransferFrom",
      "outputs": [],
      "stateMutability": "nonpayable",
      "type": "function"
    },
    {
      "inputs": [],
      "name": "saleEnd",
      "outputs": [
        {
          "internalType": "uint256",
          "name": "",
          "type": "uint256"
        }
      ],
      "stateMutability": "view",
      "type": "function"
    },
    {
      "inputs": [],
      "name": "saleIsActive",
      "outputs": [
        {
          "internalType": "bool",
          "name": "_saleIsActive",
          "type": "bool"
        }
      ],
      "stateMutability": "view",
      "type": "function"
    },
    {
      "inputs": [],
      "name": "saleIsPaused",
      "outputs": [
        {
          "internalType": "bool",
          "name": "",
          "type": "bool"
        }
      ],
      "stateMutability": "view",
      "type": "function"
    },
    {
      "inputs": [],
      "name": "saleStart",
      "outputs": [
        {
          "internalType": "uint256",
          "name": "",
          "type": "uint256"
        }
      ],
      "stateMutability": "view",
      "type": "function"
    },
    {
      "inputs": [
        {
          "internalType": "address",
          "name": "operator",
          "type": "address"
        },
        {
          "internalType": "bool",
          "name": "approved",
          "type": "bool"
        }
      ],
      "name": "setApprovalForAll",
      "outputs": [],
      "stateMutability": "nonpayable",
      "type": "function"
    },
    {
      "inputs": [
        {
          "internalType": "string",
          "name": "uri",
          "type": "string"
        }
      ],
      "name": "setBaseURI",
      "outputs": [],
      "stateMutability": "nonpayable",
      "type": "function"
    },
    {
      "inputs": [
        {
          "internalType": "string",
          "name": "uri",
          "type": "string"
        }
      ],
      "name": "setContractURI",
      "outputs": [],
      "stateMutability": "nonpayable",
      "type": "function"
    },
    {
      "inputs": [
        {
          "internalType": "address",
          "name": "_metadataRenderer",
          "type": "address"
        }
      ],
      "name": "setMetadataRenderer",
      "outputs": [],
      "stateMutability": "nonpayable",
      "type": "function"
    },
    {
      "inputs": [
        {
          "internalType": "address",
          "name": "_payoutAddress",
          "type": "address"
        }
      ],
      "name": "setPayoutAddress",
      "outputs": [],
      "stateMutability": "nonpayable",
      "type": "function"
    },
    {
      "inputs": [
        {
          "internalType": "bytes32",
          "name": "_presaleMerkleRoot",
          "type": "bytes32"
        }
      ],
      "name": "setPresaleMerkleRoot",
      "outputs": [],
      "stateMutability": "nonpayable",
      "type": "function"
    },
    {
      "inputs": [
        {
          "internalType": "uint256",
          "name": "tokenId",
          "type": "uint256"
        },
        {
          "internalType": "address",
          "name": "user",
          "type": "address"
        },
        {
          "internalType": "uint64",
          "name": "expires",
          "type": "uint64"
        }
      ],
      "name": "setUser",
      "outputs": [],
      "stateMutability": "nonpayable",
      "type": "function"
    },
    {
      "inputs": [],
      "name": "splitMain",
      "outputs": [
        {
          "internalType": "address",
          "name": "",
          "type": "address"
        }
      ],
      "stateMutability": "view",
      "type": "function"
    },
    {
      "inputs": [],
      "name": "splitWallet",
      "outputs": [
        {
          "internalType": "address",
          "name": "",
          "type": "address"
        }
      ],
      "stateMutability": "view",
      "type": "function"
    },
    {
      "inputs": [
        {
          "internalType": "bytes4",
          "name": "interfaceId",
          "type": "bytes4"
        }
      ],
      "name": "supportsInterface",
      "outputs": [
        {
          "internalType": "bool",
          "name": "",
          "type": "bool"
        }
      ],
      "stateMutability": "view",
      "type": "function"
    },
    {
      "inputs": [],
      "name": "symbol",
      "outputs": [
        {
          "internalType": "string",
          "name": "",
          "type": "string"
        }
      ],
      "stateMutability": "view",
      "type": "function"
    },
    {
      "inputs": [],
      "name": "tokenGateConfig",
      "outputs": [
        {
          "internalType": "address",
          "name": "tokenAddress",
          "type": "address"
        },
        {
          "internalType": "uint88",
          "name": "minBalance",
          "type": "uint88"
        },
        {
          "internalType": "enum SaleType",
          "name": "saleType",
          "type": "uint8"
        }
      ],
      "stateMutability": "view",
      "type": "function"
    },
    {
      "inputs": [],
      "name": "tokenPrice",
      "outputs": [
        {
          "internalType": "uint256",
          "name": "",
          "type": "uint256"
        }
      ],
      "stateMutability": "view",
      "type": "function"
    },
    {
      "inputs": [
        {
          "internalType": "uint256",
          "name": "tokenId",
          "type": "uint256"
        }
      ],
      "name": "tokenURI",
      "outputs": [
        {
          "internalType": "string",
          "name": "",
          "type": "string"
        }
      ],
      "stateMutability": "view",
      "type": "function"
    },
    {
      "inputs": [],
      "name": "totalSupply",
      "outputs": [
        {
          "internalType": "uint256",
          "name": "",
          "type": "uint256"
        }
      ],
      "stateMutability": "view",
      "type": "function"
    },
    {
      "inputs": [
        {
          "internalType": "address",
          "name": "from",
          "type": "address"
        },
        {
          "internalType": "address",
          "name": "to",
          "type": "address"
        },
        {
          "internalType": "uint256",
          "name": "tokenId",
          "type": "uint256"
        }
      ],
      "name": "transferFrom",
      "outputs": [],
      "stateMutability": "nonpayable",
      "type": "function"
    },
    {
      "inputs": [
        {
          "internalType": "address",
          "name": "newOwner",
          "type": "address"
        }
      ],
      "name": "transferOwnership",
      "outputs": [],
      "stateMutability": "nonpayable",
      "type": "function"
    },
    {
      "inputs": [
        {
          "internalType": "uint256",
          "name": "transferETH",
          "type": "uint256"
        },
        {
          "internalType": "contract ERC20[]",
          "name": "tokens",
          "type": "address[]"
        }
      ],
      "name": "transferToSplit",
      "outputs": [],
      "stateMutability": "nonpayable",
      "type": "function"
    },
    {
      "inputs": [
        {
          "internalType": "bool",
          "name": "enable",
          "type": "bool"
        },
        {
          "internalType": "address",
          "name": "operatorFilter",
          "type": "address"
        }
      ],
      "name": "updateOperatorFilter",
      "outputs": [],
      "stateMutability": "nonpayable",
      "type": "function"
    },
    {
      "inputs": [
        {
          "internalType": "uint256",
          "name": "newStart",
          "type": "uint256"
        },
        {
          "internalType": "uint256",
          "name": "newEnd",
          "type": "uint256"
        }
      ],
      "name": "updatePresaleStartEnd",
      "outputs": [],
      "stateMutability": "nonpayable",
      "type": "function"
    },
    {
      "inputs": [
        {
          "internalType": "uint256",
          "name": "newStart",
          "type": "uint256"
        },
        {
          "internalType": "uint256",
          "name": "newEnd",
          "type": "uint256"
        }
      ],
      "name": "updateSaleStartEnd",
      "outputs": [],
      "stateMutability": "nonpayable",
      "type": "function"
    },
    {
      "inputs": [
        {
          "internalType": "uint256",
          "name": "tokenId",
          "type": "uint256"
        }
      ],
      "name": "userExpires",
      "outputs": [
        {
          "internalType": "uint256",
          "name": "",
          "type": "uint256"
        }
      ],
      "stateMutability": "view",
      "type": "function"
    },
    {
      "inputs": [
        {
          "internalType": "uint256",
          "name": "tokenId",
          "type": "uint256"
        }
      ],
      "name": "userOf",
      "outputs": [
        {
          "internalType": "address",
          "name": "",
          "type": "address"
        }
      ],
      "stateMutability": "view",
      "type": "function"
    },
    {
      "inputs": [],
      "name": "withdraw",
      "outputs": [],
      "stateMutability": "nonpayable",
      "type": "function"
    }
  ],
  "bytecode": "0x60a06040523480156200001157600080fd5b5060066200001f336200002e565b63ffffffff166080526200008a565b600a80546001600160a01b038381166201000081810262010000600160b01b031985161790945560405193909204169182907f8be0079c531659141344cd1fd0a4f28419497f9722a3daafe3b4186f6b6457e090600090a35050565b608051614c16620000a66000396000610a130152614c166000f3fe60806040526004361061040f5760003560e01c8063713b97871161021e578063c10b935811610123578063e6c350c1116100ab578063f0cc8b621161007a578063f0cc8b6214610c8d578063f2fde38b14610cad578063f47c84c514610ccd578063f7eca6d014610ce3578063fd4fe8a814610d0257600080fd5b8063e6c350c114610c00578063e8a3d48514610c1a578063e985e9c514610c2f578063eb8d244414610c7857600080fd5b8063c87b56dd116100f2578063c87b56dd14610b6a578063d547741f14610b8a578063d58d458a14610baa578063de8801e514610bca578063e030565e14610be057600080fd5b8063c10b935814610ae0578063c2f1f14a14610af6578063c4559d5a14610b2a578063c595317014610b4a57600080fd5b8063938e3d7b116101a6578063a22cb46511610175578063a22cb46514610a52578063ab0bcc4114610a72578063b0ccc31e14610a88578063b88d4fde14610aaa578063b9c9d93a14610aca57600080fd5b8063938e3d7b146109c757806395d89b41146109e7578063a0a8e460146109fc578063a217fddf14610a3d57600080fd5b80637ff9b596116101ed5780637ff9b596146109235780638da5cb5b146109395780638fc88c481461095d57806391d148541461098d578063931cf0f4146109ad57600080fd5b8063713b9787146108bb578063715018a6146108db578063727a612e146108f057806379ab7c8e1461090357600080fd5b80632a55205a1161032457806355f804b3116102ac5780636352211e1161027b5780636352211e146108265780636c0360eb146108465780636c1951ae1461085b578063703199701461087b57806370a082311461089b57600080fd5b806355f804b3146107a65780635799dbdd146107c65780635881b4b0146107e65780635b8d02d71461080657600080fd5b806334918dfd116102f357806334918dfd1461072957806336568abe1461073e5780633ccfd60b1461075e57806340c10f191461077357806342842e0e1461078657600080fd5b80632a55205a1461068a5780632d75fea6146106c95780632f2ff15d146106e957806333ea51a81461070957600080fd5b806317dc2587116103a7578063229f3e2911610376578063229f3e29146105e457806323b872dd146105fa578063248a9ca31461061a578063284a44a81461064a57806328d7b2761461066a57600080fd5b806317dc25871461054957806318160ddd146105695780631dbdedbd1461058257806322212e2b146105ce57600080fd5b8063081812fc116103e3578063081812fc146104ad578063095ea7b3146104e557806309aa3dcf146105055780630e769b2b1461052957600080fd5b80625f16fb14610414578063015893c51461043657806301ffc9a71461045657806306fdde031461048b575b600080fd5b34801561042057600080fd5b5061043461042f366004613a95565b610d22565b005b34801561044257600080fd5b50610434610451366004613b3c565b610dff565b34801561046257600080fd5b50610476610471366004613bd2565b610f79565b60405190151581526020015b60405180910390f35b34801561049757600080fd5b506104a0610f8a565b6040516104829190613c3f565b3480156104b957600080fd5b506104cd6104c8366004613c52565b61101c565b6040516001600160a01b039091168152602001610482565b3480156104f157600080fd5b50610434610500366004613c6b565b611060565b34801561051157600080fd5b5061051b600d5481565b604051908152602001610482565b34801561053557600080fd5b50601a546104cd906001600160a01b031681565b34801561055557600080fd5b50610434610564366004613c97565b61106e565b34801561057557600080fd5b506001546000540361051b565b34801561058e57600080fd5b506009546105bf906001600160a01b03811690600160a01b81046001600160581b031690600160f81b900460ff1683565b60405161048293929190613ccf565b3480156105da57600080fd5b5061051b60195481565b3480156105f057600080fd5b5061051b60185481565b34801561060657600080fd5b50610434610615366004613d1a565b6110a0565b34801561062657600080fd5b5061051b610635366004613c52565b60009081526008602052604090206001015490565b34801561065657600080fd5b50610434610665366004613e52565b611242565b34801561067657600080fd5b50610434610685366004613c52565b6112eb565b34801561069657600080fd5b506106aa6106a5366004613c97565b611317565b604080516001600160a01b039093168352602083019190915201610482565b3480156106d557600080fd5b506104346106e4366004613f3f565b6113e8565b3480156106f557600080fd5b50610434610704366004613f78565b61160f565b34801561071557600080fd5b50610434610724366004613f9d565b611634565b34801561073557600080fd5b5061043461167d565b34801561074a57600080fd5b50610434610759366004613f78565b6116b8565b34801561076a57600080fd5b50610434611732565b610434610781366004613c6b565b611879565b34801561079257600080fd5b506104346107a1366004613d1a565b611c0d565b3480156107b257600080fd5b506104346107c1366004614037565b611c28565b3480156107d257600080fd5b506104346107e1366004613c97565b611c5b565b3480156107f257600080fd5b506104346108013660046141b2565b611c8d565b34801561081257600080fd5b506016546104cd906001600160a01b031681565b34801561083257600080fd5b506104cd610841366004613c52565b611fbe565b34801561085257600080fd5b506104a0611fc9565b34801561086757600080fd5b50610434610876366004613c52565b612057565b34801561088757600080fd5b506014546104cd906001600160a01b031681565b3480156108a757600080fd5b5061051b6108b6366004613f9d565b6120e6565b3480156108c757600080fd5b50601b546104cd906001600160a01b031681565b3480156108e757600080fd5b50610434612134565b6104346108fe366004614345565b612148565b34801561090f57600080fd5b5061043461091e3660046143a5565b612544565b34801561092f57600080fd5b5061051b600c5481565b34801561094557600080fd5b50600a546201000090046001600160a01b03166104cd565b34801561096957600080fd5b5061051b610978366004613c52565b6000908152601d602052604090205460a01c90565b34801561099957600080fd5b506104766109a8366004613f78565b6125ca565b3480156109b957600080fd5b50600e546104769060ff1681565b3480156109d357600080fd5b506104346109e2366004614037565b6125f5565b3480156109f357600080fd5b506104a0612628565b348015610a0857600080fd5b5060405163ffffffff7f0000000000000000000000000000000000000000000000000000000000000000168152602001610482565b348015610a4957600080fd5b5061051b600081565b348015610a5e57600080fd5b50610434610a6d3660046143e1565b612637565b348015610a7e57600080fd5b5061051b600f5481565b348015610a9457600080fd5b506104cd6daaeb6d7670e522a718067333cd4e81565b348015610ab657600080fd5b50610434610ac536600461440f565b612641565b348015610ad657600080fd5b5061051b60155481565b348015610aec57600080fd5b5061051b60105481565b348015610b0257600080fd5b506104cd610b11366004613c52565b6000908152601d60205260409020544260a01b81110290565b348015610b3657600080fd5b50610434610b4536600461447a565b61268b565b348015610b5657600080fd5b50610434610b6536600461450d565b61275b565b348015610b7657600080fd5b506104a0610b85366004613c52565b612867565b348015610b9657600080fd5b50610434610ba5366004613f78565b612872565b348015610bb657600080fd5b50610434610bc5366004613c52565b612897565b348015610bd657600080fd5b5061051b60175481565b348015610bec57600080fd5b50610434610bfb36600461454e565b612971565b348015610c0c57600080fd5b506011546104769060ff1681565b348015610c2657600080fd5b506104a0612a41565b348015610c3b57600080fd5b50610476610c4a36600461459c565b6001600160a01b03918216600090815260076020908152604080832093909416825291909152205460ff1690565b348015610c8457600080fd5b50610476612ae1565b348015610c9957600080fd5b50601c546104cd906001600160a01b031681565b348015610cb957600080fd5b50610434610cc8366004613f9d565b612b09565b348015610cd957600080fd5b5061051b600b5481565b348015610cef57600080fd5b50600e5461047690610100900460ff1681565b348015610d0e57600080fd5b50610434610d1d366004613f9d565b612b82565b6000610d36601b546001600160a01b031690565b6001600160a01b031603610d655760405162461bcd60e51b8152600401610d5c906145ba565b60405180910390fd5b610d6e87612bcb565b601a546001600160a01b03166001600160a01b03166315811302610d9a601b546001600160a01b031690565b898989898989896040518963ffffffff1660e01b8152600401610dc498979695949392919061466b565b600060405180830381600087803b158015610dde57600080fd5b505af1158015610df2573d6000803e3d6000fd5b5050505050505050505050565b610e07612cca565b6000610e1b601a546001600160a01b031690565b6001600160a01b031603610e655760405162461bcd60e51b815260206004820152601160248201527014dc1b1a5d13585a5b881b9bdd081cd95d607a1b6044820152606401610d5c565b6000610e79601b546001600160a01b031690565b6001600160a01b031614610ec75760405162461bcd60e51b815260206004820152601560248201527414dc1b1a5d08185b1c9958591e4818dc99585d1959605a1b6044820152606401610d5c565b6000610edb601a546001600160a01b031690565b6001600160a01b0316637601f7828787878787336040518763ffffffff1660e01b8152600401610f10969594939291906146cd565b6020604051808303816000875af1158015610f2f573d6000803e3d6000fd5b505050506040513d601f19601f82011682018060405250810190610f53919061471e565b601b80546001600160a01b0319166001600160a01b03831617905590505b505050505050565b6000610f8482612d2b565b92915050565b606060028054610f999061473b565b80601f0160208091040260200160405190810160405280929190818152602001828054610fc59061473b565b80156110125780601f10610fe757610100808354040283529160200191611012565b820191906000526020600020905b815481529060010190602001808311610ff557829003601f168201915b5050505050905090565b600061102782612d53565b611044576040516333d1c03960e21b815260040160405180910390fd5b506000908152600660205260409020546001600160a01b031690565b61106a8282612d7a565b5050565b6110796000336125ca565b6110955760405162461bcd60e51b8152600401610d5c90614775565b600f91909155601055565b60006110ab82612d8e565b9050836001600160a01b0316816001600160a01b0316146110de5760405162a1148160e81b815260040160405180910390fd5b60008281526006602052604090208054338082146001600160a01b0388169091141761112b5761110e8633610c4a565b61112b57604051632ce44b5f60e11b815260040160405180910390fd5b6001600160a01b03851661115257604051633a954ecd60e21b815260040160405180910390fd5b61115f8686866001612dfc565b801561116a57600082555b6001600160a01b038681166000908152600560205260408082208054600019019055918716808252919020805460010190554260a01b17600160e11b17600085815260046020526040812091909155600160e11b841690036111fc576001840160008181526004602052604081205490036111fa5760005481146111fa5760008181526004602052604090208490555b505b83856001600160a01b0316876001600160a01b03167fddf252ad1be2c89b69c2b068fc378daa952ba7f163c4a11628f55a4df523b3ef60405160405180910390a4610f71565b6000611256601b546001600160a01b031690565b6001600160a01b03160361127c5760405162461bcd60e51b8152600401610d5c906145ba565b87156112905761129086868686868661268b565b60005b87518110156112d4576112c48882815181106112b1576112b1614798565b6020026020010151888888888888610d22565b6112cd816147c4565b9050611293565b506112e0898989612e08565b505050505050505050565b6112f66000336125ca565b6113125760405162461bcd60e51b8152600401610d5c90614775565b601955565b60008061132384612d53565b6113635760405162461bcd60e51b81526020600482015260116024820152702737b732bc34b9ba32b73a103a37b5b2b760791b6044820152606401610d5c565b601b546001600160a01b03161561138757601b546001600160a01b031691506113c0565b6016546001600160a01b0316156113ab576016546001600160a01b031691506113c0565b600a546201000090046001600160a01b031691505b6000612710601554856113d391906147dd565b6113dd91906147f4565b9150505b9250929050565b6113f36000336125ca565b61140f5760405162461bcd60e51b8152600401610d5c90614775565b60405163c3c5a54760e01b81523060048201819052906daaeb6d7670e522a718067333cd4e9063c3c5a547906024016020604051808303816000875af115801561145d573d6000803e3d6000fd5b505050506040513d601f19601f820116820180604052508101906114819190614816565b15801561148b5750825b1561150557604051633e9f1edf60e11b81526001600160a01b038083166004830152831660248201526daaeb6d7670e522a718067333cd4e90637d3e3dbe906044015b600060405180830381600087803b1580156114e857600080fd5b505af11580156114fc573d6000803e3d6000fd5b50505050505050565b821561154d57604051632cc5350560e21b81526001600160a01b038083166004830152831660248201526daaeb6d7670e522a718067333cd4e9063b314d414906044016114ce565b60405163034a0dc160e41b81526001600160a01b0382166004820152600060248201526daaeb6d7670e522a718067333cd4e906334a0dc1090604401600060405180830381600087803b1580156115a357600080fd5b505af11580156115b7573d6000803e3d6000fd5b5050604051631761612360e11b81526001600160a01b03841660048201526daaeb6d7670e522a718067333cd4e9250632ec2c2469150602401600060405180830381600087803b1580156114e857600080fd5b505050565b60008281526008602052604090206001015461162a81612e3c565b61160a8383612e46565b61163f6000336125ca565b61165b5760405162461bcd60e51b8152600401610d5c90614775565b601680546001600160a01b0319166001600160a01b0392909216919091179055565b6116886000336125ca565b6116a45760405162461bcd60e51b8152600401610d5c90614775565b6011805460ff19811660ff90911615179055565b6001600160a01b03811633146117285760405162461bcd60e51b815260206004820152602f60248201527f416363657373436f6e74726f6c3a2063616e206f6e6c792072656e6f756e636560448201526e103937b632b9903337b91039b2b63360891b6064820152608401610d5c565b61106a8282612ecc565b6000611746601b546001600160a01b031690565b6001600160a01b0316146117a85760405162461bcd60e51b8152602060048201526024808201527f43616e6e6f74207769746864726177207769746820616e2061637469766520736044820152631c1b1a5d60e21b6064820152608401610d5c565b6016546000906001600160a01b03166117d257600a546201000090046001600160a01b03166117df565b6016546001600160a01b03165b90506000816001600160a01b03164760405160006040518083038185875af1925050503d806000811461182e576040519150601f19603f3d011682016040523d82523d6000602084013e611833565b606091505b505090508061106a5760405162461bcd60e51b8152602060048201526012602482015271436f756c64206e6f7420776974686472617760701b6044820152606401610d5c565b6009546000906001600160a01b0316158015906118e257506000600954600160f81b900460ff1660028111156118b1576118b1613cb9565b14806118e257508080156118e257506001600954600160f81b900460ff1660028111156118e0576118e0613cb9565b145b8061191357508015801561191357506002600954600160f81b900460ff16600281111561191157611911613cb9565b145b156119df576009546040516370a0823160e01b8152336004820152600160a01b82046001600160581b0316916001600160a01b0316906370a08231906024016020604051808303816000875af1158015611971573d6000803e3d6000fd5b505050506040513d601f19601f820116820180604052508101906119959190614833565b10156119df5760405162461bcd60e51b81526020600482015260196024820152783237903737ba1037bbb7103932b8bab4b932b2103a37b5b2b760391b6044820152606401610d5c565b600054600f5442108015906119f657506010544211155b611a3a5760405162461bcd60e51b815260206004820152601560248201527429b0b632b99030b932903737ba1030b1ba34bb329760591b6044820152606401610d5c565b60115460ff1615611a8d5760405162461bcd60e51b815260206004820152601b60248201527f53616c65206d7573742062652061637469766520746f206d696e7400000000006044820152606401610d5c565b600b54611a9a848361484c565b1115611ab85760405162461bcd60e51b8152600401610d5c9061485f565b600b54811115611af55760405162461bcd60e51b815260206004820152600860248201526714d3d3110813d55560c21b6044820152606401610d5c565b82600c54611b0391906147dd565b341015611b475760405162461bcd60e51b8152602060048201526012602482015271496e73756666696369656e742066756e647360701b6044820152606401610d5c565b600d5415611ba157600d54831115611ba15760405162461bcd60e51b815260206004820152601c60248201527f4578636565646564206d6178206e756d62657220706572206d696e74000000006044820152606401610d5c565b611bab8484612f33565b60005b83811015611c0657604080516001600160a01b0387168152602081018490526001909301927f30385c845b448a36257a6a1716e6ad2e1bc2cbe333cde1e69fe849ad6511adfe910160405180910390a1600101611bae565b5050505050565b61160a83838360405180602001604052806000815250612641565b611c336000336125ca565b611c4f5760405162461bcd60e51b8152600401610d5c90614775565b601261106a82826148da565b611c666000336125ca565b611c825760405162461bcd60e51b8152600401610d5c90614775565b601791909155601855565b600a54610100900460ff1615808015611cad5750600a54600160ff909116105b80611cc75750303b158015611cc75750600a5460ff166001145b611d2a5760405162461bcd60e51b815260206004820152602e60248201527f496e697469616c697a61626c653a20636f6e747261637420697320616c72656160448201526d191e481a5b9a5d1a585b1a5e995960921b6064820152608401610d5c565b600a805460ff191660011790558015611d4d57600a805461ff0019166101001790555b611d5687612f4d565b611d61600088612e46565b8551600290611d7090826148da565b506020860151600390611d8390826148da565b50600080556080860151600b5560a0860151600c5560c0860151600d55610140860151600f556101608601516010556101808601516015556101a0860151601680546001600160a01b03199081166001600160a01b0393841617909155604080890151600e80546060808d015161ffff1990921693151561ff0019169390931761010091151591909102179055880151601c80548416918516919091179055601a8054909216858416179091558551600980546020890151929094166001600160f81b031990941693909317600160a01b6001600160581b0390921691909102178083559086015186929182906001600160f81b0316600160f81b836002811115611e9057611e90613cb9565b0217905550505060e08601516019556101008601516017556101208601516018556001600160a01b03831615801590611ece57506000856040015151115b15611f4c57601480546001600160a01b0319166001600160a01b03851690811790915560408681015190516342b53ffd60e11b815263856a7ffa91611f1591600401613c3f565b600060405180830381600087803b158015611f2f57600080fd5b505af1158015611f43573d6000803e3d6000fd5b50505050611f70565b8451601390611f5b90826148da565b506020850151601290611f6e90826148da565b505b80156114fc57600a805461ff0019169055604051600181527f7f26b83ff96e1f2b6a682f133852f6798a09c465da95921460cefb38474024989060200160405180910390a150505050505050565b6000610f8482612d8e565b60128054611fd69061473b565b80601f01602080910402602001604051908101604052809291908181526020018280546120029061473b565b801561204f5780601f106120245761010080835404028352916020019161204f565b820191906000526020600020905b81548152906001019060200180831161203257829003601f168201915b505050505081565b6120626000336125ca565b61207e5760405162461bcd60e51b8152600401610d5c90614775565b600054600b5461208e838361484c565b106120ab5760405162461bcd60e51b8152600401610d5c9061485f565b60005b8281101561160a576120d4336120c4838561484c565b6120cf90600161484c565b612f33565b806120de816147c4565b9150506120ae565b60006001600160a01b03821661210f576040516323d3ad8160e21b815260040160405180910390fd5b506001600160a01b03166000908152600560205260409020546001600160401b031690565b61213c612cca565b6121466000612f4d565b565b6009546001906001600160a01b0316158015906121b157506000600954600160f81b900460ff16600281111561218057612180613cb9565b14806121b157508080156121b157506001600954600160f81b900460ff1660028111156121af576121af613cb9565b145b806121e25750801580156121e257506002600954600160f81b900460ff1660028111156121e0576121e0613cb9565b145b156122ae576009546040516370a0823160e01b8152336004820152600160a01b82046001600160581b0316916001600160a01b0316906370a08231906024016020604051808303816000875af1158015612240573d6000803e3d6000fd5b505050506040513d601f19601f820116820180604052508101906122649190614833565b10156122ae5760405162461bcd60e51b81526020600482015260196024820152783237903737ba1037bbb7103932b8bab4b932b2103a37b5b2b760391b6044820152606401610d5c565b60175442101580156122c257506018544211155b6122fc5760405162461bcd60e51b815260206004820152600b60248201526a6e6f742070726573616c6560a81b6044820152606401610d5c565b60005460115460ff16156123525760405162461bcd60e51b815260206004820152601b60248201527f53616c65206d7573742062652061637469766520746f206d696e7400000000006044820152606401610d5c565b600b5461235f888361484c565b111561237d5760405162461bcd60e51b8152600401610d5c9061485f565b612400848480806020026020016040519081016040528093929190818152602001838360200280828437600092019190915250506019546040516bffffffffffffffffffffffff193360601b166020820152603481018c9052605481018b9052909250607401905060405160208183030381529060405280519060200120612fa9565b61243b5760405162461bcd60e51b815260206004820152600c60248201526b1b9bdd08185c1c1c9bdd995960a21b6044820152606401610d5c565b61244587866147dd565b3410156124895760405162461bcd60e51b8152602060048201526012602482015271496e73756666696369656e742066756e647360701b6044820152606401610d5c565b8587612494336120e6565b61249e919061484c565b11156124de5760405162461bcd60e51b815260206004820152600f60248201526e6d696e74656420746f6f206d616e7960881b6044820152606401610d5c565b6124e83388612f33565b60005b8781101561253a5760408051338152602081018490526001909301927f30385c845b448a36257a6a1716e6ad2e1bc2cbe333cde1e69fe849ad6511adfe910160405180910390a16001016124eb565b5050505050505050565b6000612558601b546001600160a01b031690565b6001600160a01b03160361257e5760405162461bcd60e51b8152600401610d5c906145ba565b811561258c5761258c612fbf565b60005b815181101561160a576125ba8282815181106125ad576125ad614798565b6020026020010151612bcb565b6125c3816147c4565b905061258f565b60009182526008602090815260408084206001600160a01b0393909316845291905290205460ff1690565b6126006000336125ca565b61261c5760405162461bcd60e51b8152600401610d5c90614775565b601361106a82826148da565b606060038054610f999061473b565b61106a8282613073565b61264c8484846110a0565b6001600160a01b0383163b156126855761266884848484613087565b612685576040516368d2bf6b60e11b815260040160405180910390fd5b50505050565b600061269f601b546001600160a01b031690565b6001600160a01b0316036126c55760405162461bcd60e51b8152600401610d5c906145ba565b6126cd612fbf565b601a546001600160a01b03166001600160a01b031663e61cb05e6126f9601b546001600160a01b031690565b8888888888886040518863ffffffff1660e01b81526004016127219796959493929190614999565b600060405180830381600087803b15801561273b57600080fd5b505af115801561274f573d6000803e3d6000fd5b50505050505050505050565b6127666000336125ca565b6127825760405162461bcd60e51b8152600401610d5c90614775565b600054600b548190612794848361484c565b11156127b25760405162461bcd60e51b8152600401610d5c9061485f565b8183015b80831015611c06576127f185858486038181106127d5576127d5614798565b90506020020160208101906127ea9190613f9d565b6001612f33565b7f30385c845b448a36257a6a1716e6ad2e1bc2cbe333cde1e69fe849ad6511adfe858584860381811061282657612826614798565b905060200201602081019061283b9190613f9d565b604080516001600160a01b039092168252602082018690520160405180910390a16001909201916127b6565b6060610f8482613173565b60008281526008602052604090206001015461288d81612e3c565b61160a8383612ecc565b6128a26000336125ca565b6128be5760405162461bcd60e51b8152600401610d5c90614775565b600e5460ff1661291e5760405162461bcd60e51b815260206004820152602560248201527f63616e6e6f742061646a7573742073697a65206f66207468697320636f6c6c6560448201526431ba34b7b760d91b6064820152608401610d5c565b8061292860005490565b111561296c5760405162461bcd60e51b8152602060048201526013602482015272063616e6e6f742064656372656173652063617606c1b6044820152606401610d5c565b600b55565b600061297c84611fbe565b9050336001600160a01b038216146129cd576129988133610c4a565b6129cd57336129a68561101c565b6001600160a01b0316146129cd576040516309e3bb1d60e31b815260040160405180910390fd5b6000848152601d60209081526040918290206001600160a01b03861660a086901b67ffffffffffffffff60a01b16811790915591516001600160401b038516815286917f4e06b4e7000e659094299b3533b47b6aa8ad048e95e872d23d1f4ee55af89cfe910160405180910390a350505050565b6014546060906001600160a01b0316612a615760138054610f999061473b565b601460009054906101000a90046001600160a01b03166001600160a01b031663e8a3d4856040518163ffffffff1660e01b8152600401600060405180830381865afa158015612ab4573d6000803e3d6000fd5b505050506040513d6000823e601f3d908101601f19168201604052612adc91908101906149f2565b905090565b6000600f544210158015612af757506010544211155b8015612adc57505060115460ff161590565b612b11612cca565b6001600160a01b038116612b765760405162461bcd60e51b815260206004820152602660248201527f4f776e61626c653a206e6577206f776e657220697320746865207a65726f206160448201526564647265737360d01b6064820152608401610d5c565b612b7f81612f4d565b50565b612b8d6000336125ca565b612ba95760405162461bcd60e51b8152600401610d5c90614775565b601480546001600160a01b0319166001600160a01b0392909216919091179055565b6040516370a0823160e01b81523060048201526000906001600160a01b038316906370a0823190602401602060405180830381865afa158015612c12573d6000803e3d6000fd5b505050506040513d601f19601f82011682018060405250810190612c369190614833565b9050816001600160a01b031663a9059cbb612c59601b546001600160a01b031690565b6040516001600160e01b031960e084901b1681526001600160a01b039091166004820152602481018490526044016020604051808303816000875af1158015612ca6573d6000803e3d6000fd5b505050506040513d601f19601f8201168201806040525081019061160a9190614816565b600a546001600160a01b03620100009091041633146121465760405162461bcd60e51b815260206004820181905260248201527f4f776e61626c653a2063616c6c6572206973206e6f7420746865206f776e65726044820152606401610d5c565b6000612d3682613226565b80610f845750506001600160e01b031916632b424ad760e21b1490565b6000805482108015610f84575050600090815260046020526040902054600160e01b161590565b81612d8481613269565b61160a8383613322565b600081600054811015612de35760008181526004602052604081205490600160e01b82169003612de1575b80600003612dda575060001901600081815260046020526040902054612db9565b9392505050565b505b604051636f96cda160e11b815260040160405180910390fd5b612685848484846133c2565b601a54604051636e5f691960e01b81526001600160a01b0390911690636e5f6919906114ce90869086908690600401614a68565b612b7f8133613443565b612e5082826125ca565b61106a5760008281526008602090815260408083206001600160a01b03851684529091529020805460ff19166001179055612e883390565b6001600160a01b0316816001600160a01b0316837f2f8788117e7eff1d82e926ec794901d17c78024a50270940304540a733656f0d60405160405180910390a45050565b612ed682826125ca565b1561106a5760008281526008602090815260408083206001600160a01b0385168085529252808320805460ff1916905551339285917ff6391f5c32d9c69d2a47ea670b442974b53935d1edc7fd64eb21e047a839171b9190a45050565b61106a82826040518060200160405280600081525061349c565b600a80546001600160a01b038381166201000081810262010000600160b01b031985161790945560405193909204169182907f8be0079c531659141344cd1fd0a4f28419497f9722a3daafe3b4186f6b6457e090600090a35050565b600082612fb68584613502565b14949350505050565b6000612fd3601b546001600160a01b031690565b6001600160a01b03164760405160006040518083038185875af1925050503d806000811461301d576040519150601f19603f3d011682016040523d82523d6000602084013e613022565b606091505b5050905080612b7f5760405162461bcd60e51b815260206004820152601f60248201527f436f756c64206e6f74207472616e736665722045544820746f2073706c6974006044820152606401610d5c565b8161307d81613269565b61160a838361354f565b604051630a85bd0160e11b81526000906001600160a01b0385169063150b7a02906130bc903390899088908890600401614acb565b6020604051808303816000875af19250505080156130f7575060408051601f3d908101601f191682019092526130f491810190614b08565b60015b613155573d808015613125576040519150601f19603f3d011682016040523d82523d6000602084013e61312a565b606091505b50805160000361314d576040516368d2bf6b60e11b815260040160405180910390fd5b805181602001fd5b6001600160e01b031916630a85bd0160e11b1490505b949350505050565b606061317e82612d53565b61319b57604051630a14c4b560e41b815260040160405180910390fd5b6014546001600160a01b03161561321d5760145460405163c87b56dd60e01b8152600481018490526001600160a01b039091169063c87b56dd90602401600060405180830381865afa1580156131f5573d6000803e3d6000fd5b505050506040513d6000823e601f3d908101601f19168201604052610f8491908101906149f2565b610f84826135e4565b600063152a902d60e11b6001600160e01b03198316148061324b575061324b82613667565b8061325a575061325a8261369c565b80610f845750610f8482613667565b6daaeb6d7670e522a718067333cd4e3b15612b7f57604051633185c44d60e21b81523060048201526001600160a01b03821660248201526daaeb6d7670e522a718067333cd4e9063c617113490604401602060405180830381865afa1580156132d6573d6000803e3d6000fd5b505050506040513d601f19601f820116820180604052508101906132fa9190614816565b612b7f57604051633b79c77360e21b81526001600160a01b0382166004820152602401610d5c565b600061332d82611fbe565b9050336001600160a01b03821614613366576133498133610c4a565b613366576040516367d9dca160e11b815260040160405180910390fd5b60008281526006602052604080822080546001600160a01b0319166001600160a01b0387811691821790925591518593918516917f8c5be1e5ebec7d5bd14f71427d1e84f3dd0314c0f7b2291e5b200ac8c7c3b92591a4505050565b836001600160a01b03811633146133dc576133dc33613269565b600e54610100900460ff16158061340b57506001600160a01b038516158061340b57506001600160a01b038416155b611c065760405162461bcd60e51b81526020600482015260096024820152681cdbdd5b189bdd5b9960ba1b6044820152606401610d5c565b61344d82826125ca565b61106a5761345a816136ea565b6134658360206136fc565b604051602001613476929190614b25565b60408051601f198184030181529082905262461bcd60e51b8252610d5c91600401613c3f565b6134a68383613897565b6001600160a01b0383163b1561160a576000548281035b6134d06000868380600101945086613087565b6134ed576040516368d2bf6b60e11b815260040160405180910390fd5b8181106134bd578160005414611c0657600080fd5b600081815b8451811015613547576135338286838151811061352657613526614798565b60200260200101516139a2565b91508061353f816147c4565b915050613507565b509392505050565b336001600160a01b038316036135785760405163b06307db60e01b815260040160405180910390fd5b3360008181526007602090815260408083206001600160a01b03871680855290835292819020805460ff191686151590811790915590519081529192917f17307eab39ab6107e8899845ad3d59bd9653f200f220920489ca2b5937696c31910160405180910390a35050565b60606135ef82612d53565b61360c57604051630a14c4b560e41b815260040160405180910390fd5b60006136166139d1565b905080516000036136365760405180602001604052806000815250612dda565b80613640846139e0565b604051602001613651929190614b9a565b6040516020818303038152906040529392505050565b60006001600160e01b03198216637965db0b60e01b1480610f8457506301ffc9a760e01b6001600160e01b0319831614610f84565b60006301ffc9a760e01b6001600160e01b0319831614806136cd57506380ac58cd60e01b6001600160e01b03198316145b80610f845750506001600160e01b031916635b5e139f60e01b1490565b6060610f846001600160a01b03831660145b6060600061370b8360026147dd565b61371690600261484c565b6001600160401b0381111561372d5761372d613d5b565b6040519080825280601f01601f191660200182016040528015613757576020820181803683370190505b509050600360fc1b8160008151811061377257613772614798565b60200101906001600160f81b031916908160001a905350600f60fb1b816001815181106137a1576137a1614798565b60200101906001600160f81b031916908160001a90535060006137c58460026147dd565b6137d090600161484c565b90505b6001811115613848576f181899199a1a9b1b9c1cb0b131b232b360811b85600f166010811061380457613804614798565b1a60f81b82828151811061381a5761381a614798565b60200101906001600160f81b031916908160001a90535060049490941c9361384181614bc9565b90506137d3565b508315612dda5760405162461bcd60e51b815260206004820181905260248201527f537472696e67733a20686578206c656e67746820696e73756666696369656e746044820152606401610d5c565b60008054908290036138bc5760405163b562e8dd60e01b815260040160405180910390fd5b6138c96000848385612dfc565b6001600160a01b03831660008181526005602090815260408083208054680100000000000000018802019055848352600490915281206001851460e11b4260a01b178317905582840190839083907fddf252ad1be2c89b69c2b068fc378daa952ba7f163c4a11628f55a4df523b3ef8180a4600183015b81811461397857808360007fddf252ad1be2c89b69c2b068fc378daa952ba7f163c4a11628f55a4df523b3ef600080a4600101613940565b508160000361399957604051622e076360e81b815260040160405180910390fd5b60005550505050565b60008183106139be576000828152602084905260409020612dda565b6000838152602083905260409020612dda565b606060128054610f999061473b565b604080516080019081905280825b600183039250600a81066030018353600a9004806139ee5750819003601f19909101908152919050565b6001600160a01b0381168114612b7f57600080fd5b60008083601f840112613a3f57600080fd5b5081356001600160401b03811115613a5657600080fd5b6020830191508360208260051b85010111156113e157600080fd5b803563ffffffff81168114613a8557600080fd5b919050565b8035613a8581613a18565b600080600080600080600060a0888a031215613ab057600080fd5b8735613abb81613a18565b965060208801356001600160401b0380821115613ad757600080fd5b613ae38b838c01613a2d565b909850965060408a0135915080821115613afc57600080fd5b50613b098a828b01613a2d565b9095509350613b1c905060608901613a71565b91506080880135613b2c81613a18565b8091505092959891949750929550565b600080600080600060608688031215613b5457600080fd5b85356001600160401b0380821115613b6b57600080fd5b613b7789838a01613a2d565b90975095506020880135915080821115613b9057600080fd5b50613b9d88828901613a2d565b9094509250613bb0905060408701613a71565b90509295509295909350565b6001600160e01b031981168114612b7f57600080fd5b600060208284031215613be457600080fd5b8135612dda81613bbc565b60005b83811015613c0a578181015183820152602001613bf2565b50506000910152565b60008151808452613c2b816020860160208601613bef565b601f01601f19169290920160200192915050565b602081526000612dda6020830184613c13565b600060208284031215613c6457600080fd5b5035919050565b60008060408385031215613c7e57600080fd5b8235613c8981613a18565b946020939093013593505050565b60008060408385031215613caa57600080fd5b50508035926020909101359150565b634e487b7160e01b600052602160045260246000fd5b6001600160a01b03841681526001600160581b03831660208201526060810160038310613d0c57634e487b7160e01b600052602160045260246000fd5b826040830152949350505050565b600080600060608486031215613d2f57600080fd5b8335613d3a81613a18565b92506020840135613d4a81613a18565b929592945050506040919091013590565b634e487b7160e01b600052604160045260246000fd5b6040516101c081016001600160401b0381118282101715613d9457613d94613d5b565b60405290565b604051601f8201601f191681016001600160401b0381118282101715613dc257613dc2613d5b565b604052919050565b600082601f830112613ddb57600080fd5b813560206001600160401b03821115613df657613df6613d5b565b8160051b613e05828201613d9a565b9283528481018201928281019087851115613e1f57600080fd5b83870192505b84831015613e47578235613e3881613a18565b82529183019190830190613e25565b979650505050505050565b600080600080600080600080600060e08a8c031215613e7057600080fd5b8935613e7b81613a18565b985060208a0135975060408a01356001600160401b0380821115613e9e57600080fd5b613eaa8d838e01613dca565b985060608c0135915080821115613ec057600080fd5b613ecc8d838e01613a2d565b909850965060808c0135915080821115613ee557600080fd5b50613ef28c828d01613a2d565b9095509350613f05905060a08b01613a71565b915060c08a0135613f1581613a18565b809150509295985092959850929598565b8015158114612b7f57600080fd5b8035613a8581613f26565b60008060408385031215613f5257600080fd5b8235613f5d81613f26565b91506020830135613f6d81613a18565b809150509250929050565b60008060408385031215613f8b57600080fd5b823591506020830135613f6d81613a18565b600060208284031215613faf57600080fd5b8135612dda81613a18565b60006001600160401b03821115613fd357613fd3613d5b565b50601f01601f191660200190565b600082601f830112613ff257600080fd5b813561400561400082613fba565b613d9a565b81815284602083860101111561401a57600080fd5b816020850160208301376000918101602001919091529392505050565b60006020828403121561404957600080fd5b81356001600160401b0381111561405f57600080fd5b61316b84828501613fe1565b60006080828403121561407d57600080fd5b604051608081016001600160401b0382821081831117156140a0576140a0613d5b565b8160405282935084359150808211156140b857600080fd5b6140c486838701613fe1565b835260208501359150808211156140da57600080fd5b6140e686838701613fe1565b602084015260408501359150808211156140ff57600080fd5b5061410c85828601613fe1565b604083015250606083013561412081613a18565b6060919091015292915050565b60006060828403121561413f57600080fd5b604051606081018181106001600160401b038211171561416157614161613d5b565b604052905080823561417281613a18565b815260208301356001600160581b038116811461418e57600080fd5b60208201526040830135600381106141a557600080fd5b6040919091015292915050565b60008060008060008061010080888a0312156141cd57600080fd5b87356141d881613a18565b965060208801356001600160401b03808211156141f457600080fd5b908901906101c0828c03121561420957600080fd5b614211613d71565b82358281111561422057600080fd5b61422c8d828601613fe1565b82525060208301358281111561424157600080fd5b61424d8d828601613fe1565b60208301525061425f60408401613f34565b604082015261427060608401613f34565b60608201526080838101359082015260a0808401359082015260c0808401359082015260e08084013590820152838301359381019390935261012080830135908401526101408083013590840152610160808301359084015261018080830135908401526101a0926142e3848401613a8a565b848201528098505060408a01359250808311156142ff57600080fd5b505061430d89828a0161406b565b94505061431d886060890161412d565b925061432b60c08801613a8a565b915061433960e08801613a8a565b90509295509295509295565b60008060008060006080868803121561435d57600080fd5b85359450602086013593506040860135925060608601356001600160401b0381111561438857600080fd5b61439488828901613a2d565b969995985093965092949392505050565b600080604083850312156143b857600080fd5b8235915060208301356001600160401b038111156143d557600080fd5b6113dd85828601613dca565b600080604083850312156143f457600080fd5b82356143ff81613a18565b91506020830135613f6d81613f26565b6000806000806080858703121561442557600080fd5b843561443081613a18565b9350602085013561444081613a18565b92506040850135915060608501356001600160401b0381111561446257600080fd5b61446e87828801613fe1565b91505092959194509250565b6000806000806000806080878903121561449357600080fd5b86356001600160401b03808211156144aa57600080fd5b6144b68a838b01613a2d565b909850965060208901359150808211156144cf57600080fd5b506144dc89828a01613a2d565b90955093506144ef905060408801613a71565b915060608701356144ff81613a18565b809150509295509295509295565b6000806020838503121561452057600080fd5b82356001600160401b0381111561453657600080fd5b61454285828601613a2d565b90969095509350505050565b60008060006060848603121561456357600080fd5b83359250602084013561457581613a18565b915060408401356001600160401b038116811461459157600080fd5b809150509250925092565b600080604083850312156145af57600080fd5b8235613f5d81613a18565b60208082526015908201527414dc1b1a5d081b9bdd0818dc99585d1959081e595d605a1b604082015260600190565b8183526000602080850194508260005b8581101561462757813561460c81613a18565b6001600160a01b0316875295820195908201906001016145f9565b509495945050505050565b8183526000602080850194508260005b858110156146275763ffffffff61465883613a71565b1687529582019590820190600101614642565b600060018060a01b03808b168352808a16602084015260c0604084015261469660c08401898b6145e9565b83810360608501526146a981888a614632565b63ffffffff969096166080850152509290921660a090910152509695505050505050565b6080815260006146e160808301888a6145e9565b82810360208401526146f4818789614632565b63ffffffff95909516604084015250506001600160a01b0391909116606090910152949350505050565b60006020828403121561473057600080fd5b8151612dda81613a18565b600181811c9082168061474f57607f821691505b60208210810361476f57634e487b7160e01b600052602260045260246000fd5b50919050565b60208082526009908201526837b7363ca0b236b4b760b91b604082015260600190565b634e487b7160e01b600052603260045260246000fd5b634e487b7160e01b600052601160045260246000fd5b6000600182016147d6576147d66147ae565b5060010190565b8082028115828204841417610f8457610f846147ae565b60008261481157634e487b7160e01b600052601260045260246000fd5b500490565b60006020828403121561482857600080fd5b8151612dda81613f26565b60006020828403121561484557600080fd5b5051919050565b80820180821115610f8457610f846147ae565b6020808252818101527f507572636861736520776f756c6420657863656564206d617820737570706c79604082015260600190565b601f82111561160a57600081815260208120601f850160051c810160208610156148bb5750805b601f850160051c820191505b81811015610f71578281556001016148c7565b81516001600160401b038111156148f3576148f3613d5b565b61490781614901845461473b565b84614894565b602080601f83116001811461493c57600084156149245750858301515b600019600386901b1c1916600185901b178555610f71565b600085815260208120601f198616915b8281101561496b5788860151825594840194600190910190840161494c565b50858210156149895787850151600019600388901b60f8161c191681555b5050505050600190811b01905550565b600060018060a01b03808a16835260a060208401526149bc60a08401898b6145e9565b83810360408501526149cf81888a614632565b63ffffffff96909616606085015250929092166080909101525095945050505050565b600060208284031215614a0457600080fd5b81516001600160401b03811115614a1a57600080fd5b8201601f81018413614a2b57600080fd5b8051614a3961400082613fba565b818152856020838501011115614a4e57600080fd5b614a5f826020830160208601613bef565b95945050505050565b6001600160a01b038481168252602080830185905260606040840181905284519084018190526000928583019290916080860190855b81811015614abc578551851683529483019491830191600101614a9e565b50909998505050505050505050565b6001600160a01b0385811682528416602082015260408101839052608060608201819052600090614afe90830184613c13565b9695505050505050565b600060208284031215614b1a57600080fd5b8151612dda81613bbc565b7f416363657373436f6e74726f6c3a206163636f756e7420000000000000000000815260008351614b5d816017850160208801613bef565b7001034b99036b4b9b9b4b733903937b6329607d1b6017918401918201528351614b8e816028840160208801613bef565b01602801949350505050565b60008351614bac818460208801613bef565b835190830190614bc0818360208801613bef565b01949350505050565b600081614bd857614bd86147ae565b50600019019056fea2646970667358221220b2baee2895841a4fb0a66d93f394ff1e87a24c53af63088423387b16102a64f064736f6c63430008110033",
  "linkReferences": {},
  "deployedLinkReferences": {}
}