{
  "_format": "hh-sol-artifact-1",
  "contractName": "DCNT4907A",
  "sourceName": "contracts/DCNT4907A.sol",
  "abi": [
    {
      "inputs": [],
      "name": "ApprovalCallerNotOwnerNorApproved",
      "type": "error"
    },
    {
      "inputs": [],
      "name": "ApprovalQueryForNonexistentToken",
      "type": "error"
    },
    {
      "inputs": [],
      "name": "ApproveToCaller",
      "type": "error"
    },
    {
      "inputs": [],
      "name": "BalanceQueryForZeroAddress",
      "type": "error"
    },
    {
      "inputs": [],
      "name": "MintERC2309QuantityExceedsLimit",
      "type": "error"
    },
    {
      "inputs": [],
      "name": "MintToZeroAddress",
      "type": "error"
    },
    {
      "inputs": [],
      "name": "MintZeroQuantity",
      "type": "error"
    },
    {
      "inputs": [],
      "name": "OwnerQueryForNonexistentToken",
      "type": "error"
    },
    {
      "inputs": [],
      "name": "OwnershipNotInitializedForExtraData",
      "type": "error"
    },
    {
      "inputs": [],
      "name": "SetUserCallerNotOwnerNorApproved",
      "type": "error"
    },
    {
      "inputs": [],
      "name": "TransferCallerNotOwnerNorApproved",
      "type": "error"
    },
    {
      "inputs": [],
      "name": "TransferFromIncorrectOwner",
      "type": "error"
    },
    {
      "inputs": [],
      "name": "TransferToNonERC721ReceiverImplementer",
      "type": "error"
    },
    {
      "inputs": [],
      "name": "TransferToZeroAddress",
      "type": "error"
    },
    {
      "inputs": [],
      "name": "URIQueryForNonexistentToken",
      "type": "error"
    },
    {
      "anonymous": false,
      "inputs": [
        {
          "indexed": true,
          "internalType": "address",
          "name": "owner",
          "type": "address"
        },
        {
          "indexed": true,
          "internalType": "address",
          "name": "approved",
          "type": "address"
        },
        {
          "indexed": true,
          "internalType": "uint256",
          "name": "tokenId",
          "type": "uint256"
        }
      ],
      "name": "Approval",
      "type": "event"
    },
    {
      "anonymous": false,
      "inputs": [
        {
          "indexed": true,
          "internalType": "address",
          "name": "owner",
          "type": "address"
        },
        {
          "indexed": true,
          "internalType": "address",
          "name": "operator",
          "type": "address"
        },
        {
          "indexed": false,
          "internalType": "bool",
          "name": "approved",
          "type": "bool"
        }
      ],
      "name": "ApprovalForAll",
      "type": "event"
    },
    {
      "anonymous": false,
      "inputs": [
        {
          "indexed": true,
          "internalType": "uint256",
          "name": "fromTokenId",
          "type": "uint256"
        },
        {
          "indexed": false,
          "internalType": "uint256",
          "name": "toTokenId",
          "type": "uint256"
        },
        {
          "indexed": true,
          "internalType": "address",
          "name": "from",
          "type": "address"
        },
        {
          "indexed": true,
          "internalType": "address",
          "name": "to",
          "type": "address"
        }
      ],
      "name": "ConsecutiveTransfer",
      "type": "event"
    },
    {
      "anonymous": false,
      "inputs": [
        {
          "indexed": false,
          "internalType": "uint8",
          "name": "version",
          "type": "uint8"
        }
      ],
      "name": "Initialized",
      "type": "event"
    },
    {
      "anonymous": false,
      "inputs": [
        {
          "indexed": false,
          "internalType": "address",
          "name": "sender",
          "type": "address"
        },
        {
          "indexed": false,
          "internalType": "uint256",
          "name": "tokenId_",
          "type": "uint256"
        }
      ],
      "name": "Minted",
      "type": "event"
    },
    {
      "anonymous": false,
      "inputs": [
        {
          "indexed": true,
          "internalType": "address",
          "name": "previousOwner",
          "type": "address"
        },
        {
          "indexed": true,
          "internalType": "address",
          "name": "newOwner",
          "type": "address"
        }
      ],
      "name": "OwnershipTransferred",
      "type": "event"
    },
    {
      "anonymous": false,
      "inputs": [
        {
          "indexed": true,
          "internalType": "address",
          "name": "from",
          "type": "address"
        },
        {
          "indexed": true,
          "internalType": "address",
          "name": "to",
          "type": "address"
        },
        {
          "indexed": true,
          "internalType": "uint256",
          "name": "tokenId",
          "type": "uint256"
        }
      ],
      "name": "Transfer",
      "type": "event"
    },
    {
      "anonymous": false,
      "inputs": [
        {
          "indexed": true,
          "internalType": "uint256",
          "name": "tokenId",
          "type": "uint256"
        },
        {
          "indexed": true,
          "internalType": "address",
          "name": "user",
          "type": "address"
        },
        {
          "indexed": false,
          "internalType": "uint64",
          "name": "expires",
          "type": "uint64"
        }
      ],
      "name": "UpdateUser",
      "type": "event"
    },
    {
      "inputs": [],
      "name": "MAX_TOKENS",
      "outputs": [
        {
          "internalType": "uint256",
          "name": "",
          "type": "uint256"
        }
      ],
      "stateMutability": "view",
      "type": "function"
    },
    {
      "inputs": [
        {
          "internalType": "uint256",
          "name": "newCap",
          "type": "uint256"
        }
      ],
      "name": "adjustCap",
      "outputs": [],
      "stateMutability": "nonpayable",
      "type": "function"
    },
    {
      "inputs": [],
      "name": "adjustableCap",
      "outputs": [
        {
          "internalType": "bool",
          "name": "",
          "type": "bool"
        }
      ],
      "stateMutability": "view",
      "type": "function"
    },
    {
      "inputs": [
        {
          "internalType": "address",
          "name": "to",
          "type": "address"
        },
        {
          "internalType": "uint256",
          "name": "tokenId",
          "type": "uint256"
        }
      ],
      "name": "approve",
      "outputs": [],
      "stateMutability": "nonpayable",
      "type": "function"
    },
    {
      "inputs": [
        {
          "internalType": "address",
          "name": "owner",
          "type": "address"
        }
      ],
      "name": "balanceOf",
      "outputs": [
        {
          "internalType": "uint256",
          "name": "",
          "type": "uint256"
        }
      ],
      "stateMutability": "view",
      "type": "function"
    },
    {
      "inputs": [],
      "name": "baseURI",
      "outputs": [
        {
          "internalType": "string",
          "name": "",
          "type": "string"
        }
      ],
      "stateMutability": "view",
      "type": "function"
    },
    {
      "inputs": [],
      "name": "contractURI",
      "outputs": [
        {
          "internalType": "string",
          "name": "",
          "type": "string"
        }
      ],
      "stateMutability": "view",
      "type": "function"
    },
    {
      "inputs": [
        {
          "internalType": "address[]",
          "name": "accounts",
          "type": "address[]"
        },
        {
          "internalType": "uint32[]",
          "name": "percentAllocations",
          "type": "uint32[]"
        },
        {
          "internalType": "uint32",
          "name": "distributorFee",
          "type": "uint32"
        }
      ],
      "name": "createSplit",
      "outputs": [],
      "stateMutability": "nonpayable",
      "type": "function"
    },
    {
      "inputs": [
        {
          "internalType": "address",
          "name": "account",
          "type": "address"
        },
        {
          "internalType": "uint256",
          "name": "withdrawETH",
          "type": "uint256"
        },
        {
          "internalType": "contract ERC20[]",
          "name": "tokens",
          "type": "address[]"
        },
        {
          "internalType": "address[]",
          "name": "accounts",
          "type": "address[]"
        },
        {
          "internalType": "uint32[]",
          "name": "percentAllocations",
          "type": "uint32[]"
        },
        {
          "internalType": "uint32",
          "name": "distributorFee",
          "type": "uint32"
        },
        {
          "internalType": "address",
          "name": "distributorAddress",
          "type": "address"
        }
      ],
      "name": "distributeAndWithdraw",
      "outputs": [],
      "stateMutability": "nonpayable",
      "type": "function"
    },
    {
      "inputs": [
        {
          "internalType": "contract ERC20",
          "name": "token",
          "type": "address"
        },
        {
          "internalType": "address[]",
          "name": "accounts",
          "type": "address[]"
        },
        {
          "internalType": "uint32[]",
          "name": "percentAllocations",
          "type": "uint32[]"
        },
        {
          "internalType": "uint32",
          "name": "distributorFee",
          "type": "uint32"
        },
        {
          "internalType": "address",
          "name": "distributorAddress",
          "type": "address"
        }
      ],
      "name": "distributeERC20",
      "outputs": [],
      "stateMutability": "nonpayable",
      "type": "function"
    },
    {
      "inputs": [
        {
          "internalType": "address[]",
          "name": "accounts",
          "type": "address[]"
        },
        {
          "internalType": "uint32[]",
          "name": "percentAllocations",
          "type": "uint32[]"
        },
        {
          "internalType": "uint32",
          "name": "distributorFee",
          "type": "uint32"
        },
        {
          "internalType": "address",
          "name": "distributorAddress",
          "type": "address"
        }
      ],
      "name": "distributeETH",
      "outputs": [],
      "stateMutability": "nonpayable",
      "type": "function"
    },
    {
      "inputs": [],
      "name": "flipSaleState",
      "outputs": [],
      "stateMutability": "nonpayable",
      "type": "function"
    },
    {
      "inputs": [
        {
          "internalType": "uint256",
          "name": "tokenId",
          "type": "uint256"
        }
      ],
      "name": "getApproved",
      "outputs": [
        {
          "internalType": "address",
          "name": "",
          "type": "address"
        }
      ],
      "stateMutability": "view",
      "type": "function"
    },
    {
      "inputs": [
        {
          "internalType": "address",
          "name": "_owner",
          "type": "address"
        },
        {
          "components": [
            {
              "internalType": "string",
              "name": "name",
              "type": "string"
            },
            {
              "internalType": "string",
              "name": "symbol",
              "type": "string"
            },
            {
              "internalType": "bool",
              "name": "adjustableCap",
              "type": "bool"
            },
            {
              "internalType": "uint256",
              "name": "maxTokens",
              "type": "uint256"
            },
            {
              "internalType": "uint256",
              "name": "tokenPrice",
              "type": "uint256"
            },
            {
              "internalType": "uint256",
              "name": "maxTokenPurchase",
              "type": "uint256"
            },
            {
              "internalType": "uint256",
              "name": "presaleStart",
              "type": "uint256"
            },
            {
              "internalType": "uint256",
              "name": "presaleEnd",
              "type": "uint256"
            },
            {
              "internalType": "uint256",
              "name": "saleStart",
              "type": "uint256"
            },
            {
              "internalType": "uint256",
              "name": "royaltyBPS",
              "type": "uint256"
            }
          ],
          "internalType": "struct EditionConfig",
          "name": "_editionConfig",
          "type": "tuple"
        },
        {
          "components": [
            {
              "internalType": "string",
              "name": "contractURI",
              "type": "string"
            },
            {
              "internalType": "string",
              "name": "metadataURI",
              "type": "string"
            },
            {
              "internalType": "bytes",
              "name": "metadataRendererInit",
              "type": "bytes"
            },
            {
              "internalType": "address",
              "name": "parentIP",
              "type": "address"
            }
          ],
          "internalType": "struct MetadataConfig",
          "name": "_metadataConfig",
          "type": "tuple"
        },
        {
          "components": [
            {
              "internalType": "address",
              "name": "tokenAddress",
              "type": "address"
            },
            {
              "internalType": "uint88",
              "name": "minBalance",
              "type": "uint88"
            },
            {
              "internalType": "enum SaleType",
              "name": "saleType",
              "type": "uint8"
            }
          ],
          "internalType": "struct TokenGateConfig",
          "name": "_tokenGateConfig",
          "type": "tuple"
        },
        {
          "internalType": "address",
          "name": "_metadataRenderer",
          "type": "address"
        },
        {
          "internalType": "address",
          "name": "_splitMain",
          "type": "address"
        }
      ],
      "name": "initialize",
      "outputs": [],
      "stateMutability": "nonpayable",
      "type": "function"
    },
    {
      "inputs": [
        {
          "internalType": "address",
          "name": "owner",
          "type": "address"
        },
        {
          "internalType": "address",
          "name": "operator",
          "type": "address"
        }
      ],
      "name": "isApprovedForAll",
      "outputs": [
        {
          "internalType": "bool",
          "name": "",
          "type": "bool"
        }
      ],
      "stateMutability": "view",
      "type": "function"
    },
    {
      "inputs": [],
      "name": "maxTokenPurchase",
      "outputs": [
        {
          "internalType": "uint256",
          "name": "",
          "type": "uint256"
        }
      ],
      "stateMutability": "view",
      "type": "function"
    },
    {
      "inputs": [],
      "name": "metadataRenderer",
      "outputs": [
        {
          "internalType": "address",
          "name": "",
          "type": "address"
        }
      ],
      "stateMutability": "view",
      "type": "function"
    },
    {
      "inputs": [
        {
          "internalType": "uint256",
          "name": "numberOfTokens",
          "type": "uint256"
        }
      ],
      "name": "mint",
      "outputs": [],
      "stateMutability": "payable",
      "type": "function"
    },
    {
      "inputs": [
        {
          "internalType": "address[]",
          "name": "recipients",
          "type": "address[]"
        }
      ],
      "name": "mintAirdrop",
      "outputs": [],
      "stateMutability": "nonpayable",
      "type": "function"
    },
    {
      "inputs": [
        {
          "internalType": "uint256",
          "name": "quantity",
          "type": "uint256"
        },
        {
          "internalType": "uint256",
          "name": "maxQuantity",
          "type": "uint256"
        },
        {
          "internalType": "uint256",
          "name": "pricePerToken",
          "type": "uint256"
        },
        {
          "internalType": "bytes32[]",
          "name": "merkleProof",
          "type": "bytes32[]"
        }
      ],
      "name": "mintPresale",
      "outputs": [],
      "stateMutability": "payable",
      "type": "function"
    },
    {
      "inputs": [],
      "name": "name",
      "outputs": [
        {
          "internalType": "string",
          "name": "",
          "type": "string"
        }
      ],
      "stateMutability": "view",
      "type": "function"
    },
    {
      "inputs": [],
      "name": "owner",
      "outputs": [
        {
          "internalType": "address",
          "name": "",
          "type": "address"
        }
      ],
      "stateMutability": "view",
      "type": "function"
    },
    {
      "inputs": [
        {
          "internalType": "uint256",
          "name": "tokenId",
          "type": "uint256"
        }
      ],
      "name": "ownerOf",
      "outputs": [
        {
          "internalType": "address",
          "name": "",
          "type": "address"
        }
      ],
      "stateMutability": "view",
      "type": "function"
    },
    {
      "inputs": [],
      "name": "parentIP",
      "outputs": [
        {
          "internalType": "address",
          "name": "",
          "type": "address"
        }
      ],
      "stateMutability": "view",
      "type": "function"
    },
    {
      "inputs": [],
      "name": "presaleEnd",
      "outputs": [
        {
          "internalType": "uint256",
          "name": "",
          "type": "uint256"
        }
      ],
      "stateMutability": "view",
      "type": "function"
    },
    {
      "inputs": [],
      "name": "presaleStart",
      "outputs": [
        {
          "internalType": "uint256",
          "name": "",
          "type": "uint256"
        }
      ],
      "stateMutability": "view",
      "type": "function"
    },
    {
      "inputs": [],
      "name": "renounceOwnership",
      "outputs": [],
      "stateMutability": "nonpayable",
      "type": "function"
    },
    {
      "inputs": [
        {
          "internalType": "uint256",
          "name": "numReserved",
          "type": "uint256"
        }
      ],
      "name": "reserveDCNT",
      "outputs": [],
      "stateMutability": "nonpayable",
      "type": "function"
    },
    {
      "inputs": [],
      "name": "royaltyBPS",
      "outputs": [
        {
          "internalType": "uint256",
          "name": "",
          "type": "uint256"
        }
      ],
      "stateMutability": "view",
      "type": "function"
    },
    {
      "inputs": [
        {
          "internalType": "uint256",
          "name": "tokenId",
          "type": "uint256"
        },
        {
          "internalType": "uint256",
          "name": "salePrice",
          "type": "uint256"
        }
      ],
      "name": "royaltyInfo",
      "outputs": [
        {
          "internalType": "address",
          "name": "receiver",
          "type": "address"
        },
        {
          "internalType": "uint256",
          "name": "royaltyAmount",
          "type": "uint256"
        }
      ],
      "stateMutability": "view",
      "type": "function"
    },
    {
      "inputs": [
        {
          "internalType": "address",
          "name": "from",
          "type": "address"
        },
        {
          "internalType": "address",
          "name": "to",
          "type": "address"
        },
        {
          "internalType": "uint256",
          "name": "tokenId",
          "type": "uint256"
        }
      ],
      "name": "safeTransferFrom",
      "outputs": [],
      "stateMutability": "nonpayable",
      "type": "function"
    },
    {
      "inputs": [
        {
          "internalType": "address",
          "name": "from",
          "type": "address"
        },
        {
          "internalType": "address",
          "name": "to",
          "type": "address"
        },
        {
          "internalType": "uint256",
          "name": "tokenId",
          "type": "uint256"
        },
        {
          "internalType": "bytes",
          "name": "_data",
          "type": "bytes"
        }
      ],
      "name": "safeTransferFrom",
      "outputs": [],
      "stateMutability": "nonpayable",
      "type": "function"
    },
    {
      "inputs": [],
      "name": "saleIsActive",
      "outputs": [
        {
          "internalType": "bool",
          "name": "_saleIsActive",
          "type": "bool"
        }
      ],
      "stateMutability": "view",
      "type": "function"
    },
    {
      "inputs": [],
      "name": "saleIsPaused",
      "outputs": [
        {
          "internalType": "bool",
          "name": "",
          "type": "bool"
        }
      ],
      "stateMutability": "view",
      "type": "function"
    },
    {
      "inputs": [],
      "name": "saleStart",
      "outputs": [
        {
          "internalType": "uint256",
          "name": "",
          "type": "uint256"
        }
      ],
      "stateMutability": "view",
      "type": "function"
    },
    {
      "inputs": [
        {
          "internalType": "address",
          "name": "operator",
          "type": "address"
        },
        {
          "internalType": "bool",
          "name": "approved",
          "type": "bool"
        }
      ],
      "name": "setApprovalForAll",
      "outputs": [],
      "stateMutability": "nonpayable",
      "type": "function"
    },
    {
      "inputs": [
        {
          "internalType": "string",
          "name": "uri",
          "type": "string"
        }
      ],
      "name": "setBaseURI",
      "outputs": [],
      "stateMutability": "nonpayable",
      "type": "function"
    },
    {
      "inputs": [
        {
          "internalType": "string",
          "name": "uri",
          "type": "string"
        }
      ],
      "name": "setContractURI",
      "outputs": [],
      "stateMutability": "nonpayable",
      "type": "function"
    },
    {
      "inputs": [
        {
          "internalType": "address",
          "name": "_metadataRenderer",
          "type": "address"
        }
      ],
      "name": "setMetadataRenderer",
      "outputs": [],
      "stateMutability": "nonpayable",
      "type": "function"
    },
    {
      "inputs": [
        {
          "internalType": "bytes32",
          "name": "_presaleMerkleRoot",
          "type": "bytes32"
        }
      ],
      "name": "setPresaleMerkleRoot",
      "outputs": [],
      "stateMutability": "nonpayable",
      "type": "function"
    },
    {
      "inputs": [
        {
          "internalType": "uint256",
          "name": "tokenId",
          "type": "uint256"
        },
        {
          "internalType": "address",
          "name": "user",
          "type": "address"
        },
        {
          "internalType": "uint64",
          "name": "expires",
          "type": "uint64"
        }
      ],
      "name": "setUser",
      "outputs": [],
      "stateMutability": "nonpayable",
      "type": "function"
    },
    {
      "inputs": [],
      "name": "splitMain",
      "outputs": [
        {
          "internalType": "address",
          "name": "",
          "type": "address"
        }
      ],
      "stateMutability": "view",
      "type": "function"
    },
    {
      "inputs": [],
      "name": "splitWallet",
      "outputs": [
        {
          "internalType": "address",
          "name": "",
          "type": "address"
        }
      ],
      "stateMutability": "view",
      "type": "function"
    },
    {
      "inputs": [
        {
          "internalType": "bytes4",
          "name": "interfaceId",
          "type": "bytes4"
        }
      ],
      "name": "supportsInterface",
      "outputs": [
        {
          "internalType": "bool",
          "name": "",
          "type": "bool"
        }
      ],
      "stateMutability": "view",
      "type": "function"
    },
    {
      "inputs": [],
      "name": "symbol",
      "outputs": [
        {
          "internalType": "string",
          "name": "",
          "type": "string"
        }
      ],
      "stateMutability": "view",
      "type": "function"
    },
    {
      "inputs": [],
      "name": "tokenGateConfig",
      "outputs": [
        {
          "internalType": "address",
          "name": "tokenAddress",
          "type": "address"
        },
        {
          "internalType": "uint88",
          "name": "minBalance",
          "type": "uint88"
        },
        {
          "internalType": "enum SaleType",
          "name": "saleType",
          "type": "uint8"
        }
      ],
      "stateMutability": "view",
      "type": "function"
    },
    {
      "inputs": [],
      "name": "tokenPrice",
      "outputs": [
        {
          "internalType": "uint256",
          "name": "",
          "type": "uint256"
        }
      ],
      "stateMutability": "view",
      "type": "function"
    },
    {
      "inputs": [
        {
          "internalType": "uint256",
          "name": "tokenId",
          "type": "uint256"
        }
      ],
      "name": "tokenURI",
      "outputs": [
        {
          "internalType": "string",
          "name": "",
          "type": "string"
        }
      ],
      "stateMutability": "view",
      "type": "function"
    },
    {
      "inputs": [],
      "name": "totalSupply",
      "outputs": [
        {
          "internalType": "uint256",
          "name": "",
          "type": "uint256"
        }
      ],
      "stateMutability": "view",
      "type": "function"
    },
    {
      "inputs": [
        {
          "internalType": "address",
          "name": "from",
          "type": "address"
        },
        {
          "internalType": "address",
          "name": "to",
          "type": "address"
        },
        {
          "internalType": "uint256",
          "name": "tokenId",
          "type": "uint256"
        }
      ],
      "name": "transferFrom",
      "outputs": [],
      "stateMutability": "nonpayable",
      "type": "function"
    },
    {
      "inputs": [
        {
          "internalType": "address",
          "name": "newOwner",
          "type": "address"
        }
      ],
      "name": "transferOwnership",
      "outputs": [],
      "stateMutability": "nonpayable",
      "type": "function"
    },
    {
      "inputs": [
        {
          "internalType": "uint256",
          "name": "transferETH",
          "type": "uint256"
        },
        {
          "internalType": "contract ERC20[]",
          "name": "tokens",
          "type": "address[]"
        }
      ],
      "name": "transferToSplit",
      "outputs": [],
      "stateMutability": "nonpayable",
      "type": "function"
    },
    {
      "inputs": [
        {
          "internalType": "uint256",
          "name": "newStart",
          "type": "uint256"
        }
      ],
      "name": "updateSaleStart",
      "outputs": [],
      "stateMutability": "nonpayable",
      "type": "function"
    },
    {
      "inputs": [
        {
          "internalType": "uint256",
          "name": "tokenId",
          "type": "uint256"
        }
      ],
      "name": "userExpires",
      "outputs": [
        {
          "internalType": "uint256",
          "name": "",
          "type": "uint256"
        }
      ],
      "stateMutability": "view",
      "type": "function"
    },
    {
      "inputs": [
        {
          "internalType": "uint256",
          "name": "tokenId",
          "type": "uint256"
        }
      ],
      "name": "userOf",
      "outputs": [
        {
          "internalType": "address",
          "name": "",
          "type": "address"
        }
      ],
      "stateMutability": "view",
      "type": "function"
    },
    {
      "inputs": [],
      "name": "withdraw",
      "outputs": [],
      "stateMutability": "nonpayable",
      "type": "function"
    }
  ],
  "bytecode": "0x60806040523480156200001157600080fd5b506200001d3362000023565b6200007f565b600980546001600160a01b038381166201000081810262010000600160b01b031985161790945560405193909204169182907f8be0079c531659141344cd1fd0a4f28419497f9722a3daafe3b4186f6b6457e090600090a35050565b613e18806200008f6000396000f3fe60806040526004361061036a5760003560e01c806379ab7c8e116101c6578063c4559d5a116100f7578063e8a3d48511610095578063f0cc8b621161006f578063f0cc8b6214610a1b578063f2fde38b14610a3b578063f47c84c514610a5b578063fd4fe8a814610a7157600080fd5b8063e8a3d485146109a8578063e985e9c5146109bd578063eb8d244414610a0657600080fd5b8063d58d458a116100d1578063d58d458a14610938578063de8801e514610958578063e030565e1461096e578063e6c350c11461098e57600080fd5b8063c4559d5a146108d8578063c5953170146108f8578063c87b56dd1461091857600080fd5b8063a0712d6811610164578063ab0bcc411161013e578063ab0bcc4114610858578063b88d4fde1461086e578063b9c9d93a1461088e578063c2f1f14a146108a457600080fd5b8063a0712d6814610804578063a18db11314610817578063a22cb4651461083857600080fd5b80638dbff58b116101a05780638dbff58b1461077f5780638fc88c481461079f578063938e3d7b146107cf57806395d89b41146107ef57600080fd5b806379ab7c8e146107255780637ff9b596146107455780638da5cb5b1461075b57600080fd5b80632a55205a116102a05780636c0360eb1161023e57806370a082311161021857806370a08231146106bd578063713b9787146106dd578063715018a6146106fd578063727a612e1461071257600080fd5b80636c0360eb146106685780636c1951ae1461067d578063703199701461069d57600080fd5b806342842e0e1161027a57806342842e0e146105e8578063435fe1b51461060857806355f804b3146106285780636352211e1461064857600080fd5b80632a55205a1461057f57806334918dfd146105be5780633ccfd60b146105d357600080fd5b80630e769b2b1161030d578063229f3e29116102e7578063229f3e291461050957806323b872dd1461051f578063284a44a81461053f57806328d7b2761461055f57600080fd5b80630e769b2b1461048457806318160ddd146104a45780631dbdedbd146104bd57600080fd5b806306fdde031161034957806306fdde03146103e6578063081812fc14610408578063095ea7b31461044057806309aa3dcf1461046057600080fd5b80625f16fb1461036f578063015893c51461039157806301ffc9a7146103b1575b600080fd5b34801561037b57600080fd5b5061038f61038a366004612eb2565b610a91565b005b34801561039d57600080fd5b5061038f6103ac366004612f59565b610b6f565b3480156103bd57600080fd5b506103d16103cc366004612fef565b610cf9565b60405190151581526020015b60405180910390f35b3480156103f257600080fd5b506103fb610d0a565b6040516103dd9190613064565b34801561041457600080fd5b50610428610423366004613077565b610d9c565b6040516001600160a01b0390911681526020016103dd565b34801561044c57600080fd5b5061038f61045b366004613090565b610de0565b34801561046c57600080fd5b50610476600c5481565b6040519081526020016103dd565b34801561049057600080fd5b50601654610428906001600160a01b031681565b3480156104b057600080fd5b5060015460005403610476565b3480156104c957600080fd5b506008546104fa906001600160a01b03811690600160a01b81046001600160581b031690600160f81b900460ff1683565b6040516103dd939291906130d2565b34801561051557600080fd5b5061047660145481565b34801561052b57600080fd5b5061038f61053a36600461311d565b610e80565b34801561054b57600080fd5b5061038f61055a366004613255565b61100e565b34801561056b57600080fd5b5061038f61057a366004613077565b6110b8565b34801561058b57600080fd5b5061059f61059a366004613329565b6110c5565b604080516001600160a01b0390931683526020830191909152016103dd565b3480156105ca57600080fd5b5061038f611172565b3480156105df57600080fd5b5061038f61118e565b3480156105f457600080fd5b5061038f61060336600461311d565b61123b565b34801561061457600080fd5b5061038f610623366004613077565b61125b565b34801561063457600080fd5b5061038f6106433660046133c8565b611268565b34801561065457600080fd5b50610428610663366004613077565b611287565b34801561067457600080fd5b506103fb611292565b34801561068957600080fd5b5061038f610698366004613077565b611320565b3480156106a957600080fd5b50601154610428906001600160a01b031681565b3480156106c957600080fd5b506104766106d83660046133fc565b611390565b3480156106e957600080fd5b50601754610428906001600160a01b031681565b34801561070957600080fd5b5061038f6113de565b61038f610720366004613419565b6113f2565b34801561073157600080fd5b5061038f610740366004613479565b6117fd565b34801561075157600080fd5b50610476600b5481565b34801561076757600080fd5b506009546201000090046001600160a01b0316610428565b34801561078b57600080fd5b5061038f61079a366004613615565b611884565b3480156107ab57600080fd5b506104766107ba366004613077565b60009081526019602052604090205460a01c90565b3480156107db57600080fd5b5061038f6107ea3660046133c8565b611b8b565b3480156107fb57600080fd5b506103fb611ba6565b61038f610812366004613077565b611bb5565b34801561082357600080fd5b506009546103d190600160b01b900460ff1681565b34801561084457600080fd5b5061038f61085336600461376c565b611f48565b34801561086457600080fd5b50610476600d5481565b34801561087a57600080fd5b5061038f6108893660046137a5565b611fde565b34801561089a57600080fd5b5061047660125481565b3480156108b057600080fd5b506104286108bf366004613077565b6000908152601960205260409020544260a01b81110290565b3480156108e457600080fd5b5061038f6108f3366004613810565b612022565b34801561090457600080fd5b5061038f6109133660046138a3565b6120f3565b34801561092457600080fd5b506103fb610933366004613077565b6121e7565b34801561094457600080fd5b5061038f610953366004613077565b6121f2565b34801561096457600080fd5b5061047660135481565b34801561097a57600080fd5b5061038f6109893660046138e4565b6122b4565b34801561099a57600080fd5b50600e546103d19060ff1681565b3480156109b457600080fd5b506103fb612384565b3480156109c957600080fd5b506103d16109d8366004613932565b6001600160a01b03918216600090815260076020908152604080832093909416825291909152205460ff1690565b348015610a1257600080fd5b506103d1612433565b348015610a2757600080fd5b50601854610428906001600160a01b031681565b348015610a4757600080fd5b5061038f610a563660046133fc565b61244d565b348015610a6757600080fd5b50610476600a5481565b348015610a7d57600080fd5b5061038f610a8c3660046133fc565b6124c3565b6000610aa56017546001600160a01b031690565b6001600160a01b03161415610ad55760405162461bcd60e51b8152600401610acc90613960565b60405180910390fd5b610ade876124ed565b6016546001600160a01b03166001600160a01b03166315811302610b0a6017546001600160a01b031690565b898989898989896040518963ffffffff1660e01b8152600401610b34989796959493929190613a11565b600060405180830381600087803b158015610b4e57600080fd5b505af1158015610b62573d6000803e3d6000fd5b5050505050505050505050565b610b7761260a565b6000610b8b6016546001600160a01b031690565b6001600160a01b03161415610bd65760405162461bcd60e51b815260206004820152601160248201527014dc1b1a5d13585a5b881b9bdd081cd95d607a1b6044820152606401610acc565b6000610bea6017546001600160a01b031690565b6001600160a01b031614610c385760405162461bcd60e51b815260206004820152601560248201527414dc1b1a5d08185b1c9958591e4818dc99585d1959605a1b6044820152606401610acc565b6000610c4c6016546001600160a01b031690565b6001600160a01b0316637601f7828787878787336040518763ffffffff1660e01b8152600401610c8196959493929190613a73565b602060405180830381600087803b158015610c9b57600080fd5b505af1158015610caf573d6000803e3d6000fd5b505050506040513d601f19601f82011682018060405250810190610cd39190613ac4565b601780546001600160a01b0319166001600160a01b03831617905590505b505050505050565b6000610d048261266b565b92915050565b606060028054610d1990613ae1565b80601f0160208091040260200160405190810160405280929190818152602001828054610d4590613ae1565b8015610d925780601f10610d6757610100808354040283529160200191610d92565b820191906000526020600020905b815481529060010190602001808311610d7557829003601f168201915b5050505050905090565b6000610da782612693565b610dc4576040516333d1c03960e21b815260040160405180910390fd5b506000908152600660205260409020546001600160a01b031690565b6000610deb82611287565b9050336001600160a01b03821614610e2457610e0781336109d8565b610e24576040516367d9dca160e11b815260040160405180910390fd5b60008281526006602052604080822080546001600160a01b0319166001600160a01b0387811691821790925591518593918516917f8c5be1e5ebec7d5bd14f71427d1e84f3dd0314c0f7b2291e5b200ac8c7c3b92591a4505050565b6000610e8b826126ba565b9050836001600160a01b0316816001600160a01b031614610ebe5760405162a1148160e81b815260040160405180910390fd5b60008281526006602052604090208054338082146001600160a01b03881690911417610f0b57610eee86336109d8565b610f0b57604051632ce44b5f60e11b815260040160405180910390fd5b6001600160a01b038516610f3257604051633a954ecd60e21b815260040160405180910390fd5b8015610f3d57600082555b6001600160a01b038681166000908152600560205260408082208054600019019055918716808252919020805460010190554260a01b17600160e11b17600085815260046020526040902055600160e11b8316610fc85760018401600081815260046020526040902054610fc6576000548114610fc65760008181526004602052604090208490555b505b83856001600160a01b0316876001600160a01b03167fddf252ad1be2c89b69c2b068fc378daa952ba7f163c4a11628f55a4df523b3ef60405160405180910390a4610cf1565b60006110226017546001600160a01b031690565b6001600160a01b031614156110495760405162461bcd60e51b8152600401610acc90613960565b871561105d5761105d868686868686612022565b60005b87518110156110a15761109188828151811061107e5761107e613b1c565b6020026020010151888888888888610a91565b61109a81613b48565b9050611060565b506110ad898989612722565b505050505050505050565b6110c061260a565b601555565b6000806110d184612693565b6111115760405162461bcd60e51b81526020600482015260116024820152702737b732bc34b9ba32b73a103a37b5b2b760791b6044820152606401610acc565b6017546001600160a01b031615611135576017546001600160a01b0316915061114a565b6009546201000090046001600160a01b031691505b60006127106012548561115d9190613b63565b6111679190613b82565b9150505b9250929050565b61117a61260a565b600e805460ff19811660ff90911615179055565b61119661260a565b60006111aa6017546001600160a01b031690565b6001600160a01b03161461120c5760405162461bcd60e51b8152602060048201526024808201527f43616e6e6f74207769746864726177207769746820616e2061637469766520736044820152631c1b1a5d60e21b6064820152608401610acc565b60405133904780156108fc02916000818181858888f19350505050158015611238573d6000803e3d6000fd5b50565b61125683838360405180602001604052806000815250611fde565b505050565b61126361260a565b600d55565b61127061260a565b805161128390600f906020840190612d9c565b5050565b6000610d04826126ba565b600f805461129f90613ae1565b80601f01602080910402602001604051908101604052809291908181526020018280546112cb90613ae1565b80156113185780601f106112ed57610100808354040283529160200191611318565b820191906000526020600020905b8154815290600101906020018083116112fb57829003601f168201915b505050505081565b61132861260a565b600054600a546113388383613ba4565b106113555760405162461bcd60e51b8152600401610acc90613bbc565b60005b828110156112565761137e3361136e8385613ba4565b611379906001613ba4565b612784565b8061138881613b48565b915050611358565b60006001600160a01b0382166113b9576040516323d3ad8160e21b815260040160405180910390fd5b506001600160a01b03166000908152600560205260409020546001600160401b031690565b6113e661260a565b6113f0600061279e565b565b6008546001906001600160a01b03161580159061145b57506000600854600160f81b900460ff16600281111561142a5761142a6130bc565b148061145b575080801561145b57506001600854600160f81b900460ff166002811115611459576114596130bc565b145b8061148c57508015801561148c57506002600854600160f81b900460ff16600281111561148a5761148a6130bc565b145b15611567576008546040516370a0823160e01b8152336004820152600160a01b82046001600160581b0316916001600160a01b0316906370a0823190602401602060405180830381600087803b1580156114e557600080fd5b505af11580156114f9573d6000803e3d6000fd5b505050506040513d601f19601f8201168201806040525081019061151d9190613bf1565b10156115675760405162461bcd60e51b81526020600482015260196024820152783237903737ba1037bbb7103932b8bab4b932b2103a37b5b2b760391b6044820152606401610acc565b601354421015801561157b57506014544211155b6115b55760405162461bcd60e51b815260206004820152600b60248201526a6e6f742070726573616c6560a81b6044820152606401610acc565b600054600e5460ff161561160b5760405162461bcd60e51b815260206004820152601b60248201527f53616c65206d7573742062652061637469766520746f206d696e7400000000006044820152606401610acc565b600a546116188883613ba4565b11156116365760405162461bcd60e51b8152600401610acc90613bbc565b6116b9848480806020026020016040519081016040528093929190818152602001838360200280828437600092019190915250506015546040516bffffffffffffffffffffffff193360601b166020820152603481018c9052605481018b90529092506074019050604051602081830303815290604052805190602001206127fa565b6116f45760405162461bcd60e51b815260206004820152600c60248201526b1b9bdd08185c1c1c9bdd995960a21b6044820152606401610acc565b6116fe8786613b63565b3410156117425760405162461bcd60e51b8152602060048201526012602482015271496e73756666696369656e742066756e647360701b6044820152606401610acc565b858761174d33611390565b6117579190613ba4565b11156117975760405162461bcd60e51b815260206004820152600f60248201526e6d696e74656420746f6f206d616e7960881b6044820152606401610acc565b6117a13388612784565b60005b878110156117f35760408051338152602081018490526001909301927f30385c845b448a36257a6a1716e6ad2e1bc2cbe333cde1e69fe849ad6511adfe910160405180910390a16001016117a4565b5050505050505050565b60006118116017546001600160a01b031690565b6001600160a01b031614156118385760405162461bcd60e51b8152600401610acc90613960565b811561184657611846612810565b60005b81518110156112565761187482828151811061186757611867613b1c565b60200260200101516124ed565b61187d81613b48565b9050611849565b600954610100900460ff16158080156118a45750600954600160ff909116105b806118be5750303b1580156118be575060095460ff166001145b6119215760405162461bcd60e51b815260206004820152602e60248201527f496e697469616c697a61626c653a20636f6e747261637420697320616c72656160448201526d191e481a5b9a5d1a585b1a5e995960921b6064820152608401610acc565b6009805460ff191660011790558015611944576009805461ff0019166101001790555b61194d8761279e565b8551805161196391600291602090910190612d9c565b50602080870151805161197a926003920190612d9c565b5060008055606080870151600a556080870151600b5560a0870151600c55610100870151600d5561012087015160125560408088015160098054911515600160b01b0260ff60b01b1990921691909117905590860151601880546001600160a01b039283166001600160a01b03199182161790915560168054868416921691909117905585516008805460208901516001600160581b0316600160a01b026001600160f81b031990911692909316919091179190911780825591860151869282906001600160f81b0316600160f81b836002811115611a5b57611a5b6130bc565b0217905550505060c086015160135560e08601516014556001600160a01b03831615801590611a8f57506000856040015151115b15611b0d57601180546001600160a01b0319166001600160a01b03851690811790915560408681015190516342b53ffd60e11b815263856a7ffa91611ad691600401613064565b600060405180830381600087803b158015611af057600080fd5b505af1158015611b04573d6000803e3d6000fd5b50505050611b3c565b84518051611b2391601091602090910190612d9c565b506020808601518051611b3a92600f920190612d9c565b505b8015611b82576009805461ff0019169055604051600181527f7f26b83ff96e1f2b6a682f133852f6798a09c465da95921460cefb38474024989060200160405180910390a15b50505050505050565b611b9361260a565b8051611283906010906020840190612d9c565b606060038054610d1990613ae1565b6008546000906001600160a01b031615801590611c1e57506000600854600160f81b900460ff166002811115611bed57611bed6130bc565b1480611c1e5750808015611c1e57506001600854600160f81b900460ff166002811115611c1c57611c1c6130bc565b145b80611c4f575080158015611c4f57506002600854600160f81b900460ff166002811115611c4d57611c4d6130bc565b145b15611d2a576008546040516370a0823160e01b8152336004820152600160a01b82046001600160581b0316916001600160a01b0316906370a0823190602401602060405180830381600087803b158015611ca857600080fd5b505af1158015611cbc573d6000803e3d6000fd5b505050506040513d601f19601f82011682018060405250810190611ce09190613bf1565b1015611d2a5760405162461bcd60e51b81526020600482015260196024820152783237903737ba1037bbb7103932b8bab4b932b2103a37b5b2b760391b6044820152606401610acc565b600054600d54421015611d7f5760405162461bcd60e51b815260206004820152601960248201527f53616c657320617265206e6f7420616374697665207965742e000000000000006044820152606401610acc565b600e5460ff1615611dd25760405162461bcd60e51b815260206004820152601b60248201527f53616c65206d7573742062652061637469766520746f206d696e7400000000006044820152606401610acc565b600a54611ddf8483613ba4565b1115611dfd5760405162461bcd60e51b8152600401610acc90613bbc565b600a54811115611e3a5760405162461bcd60e51b815260206004820152600860248201526714d3d3110813d55560c21b6044820152606401610acc565b82600b54611e489190613b63565b341015611e8c5760405162461bcd60e51b8152602060048201526012602482015271496e73756666696369656e742066756e647360701b6044820152606401610acc565b600c5415611ee657600c54831115611ee65760405162461bcd60e51b815260206004820152601c60248201527f4578636565646564206d6178206e756d62657220706572206d696e74000000006044820152606401610acc565b611ef03384612784565b60005b83811015611f425760408051338152602081018490526001909301927f30385c845b448a36257a6a1716e6ad2e1bc2cbe333cde1e69fe849ad6511adfe910160405180910390a1600101611ef3565b50505050565b6001600160a01b038216331415611f725760405163b06307db60e01b815260040160405180910390fd5b3360008181526007602090815260408083206001600160a01b03871680855290835292819020805460ff191686151590811790915590519081529192917f17307eab39ab6107e8899845ad3d59bd9653f200f220920489ca2b5937696c31910160405180910390a35050565b611fe9848484610e80565b6001600160a01b0383163b15611f4257612005848484846128c4565b611f42576040516368d2bf6b60e11b815260040160405180910390fd5b60006120366017546001600160a01b031690565b6001600160a01b0316141561205d5760405162461bcd60e51b8152600401610acc90613960565b612065612810565b6016546001600160a01b03166001600160a01b031663e61cb05e6120916017546001600160a01b031690565b8888888888886040518863ffffffff1660e01b81526004016120b99796959493929190613c0a565b600060405180830381600087803b1580156120d357600080fd5b505af11580156120e7573d6000803e3d6000fd5b50505050505050505050565b6120fb61260a565b600054600a54819061210d8483613ba4565b111561212b5760405162461bcd60e51b8152600401610acc90613bbc565b8183015b808310156121e05761216a858584860381811061214e5761214e613b1c565b905060200201602081019061216391906133fc565b6001612784565b7f30385c845b448a36257a6a1716e6ad2e1bc2cbe333cde1e69fe849ad6511adfe858584860381811061219f5761219f613b1c565b90506020020160208101906121b491906133fc565b604080516001600160a01b039092168252602082018690520160405180910390a160019092019161212f565b5050505050565b6060610d04826129bc565b6121fa61260a565b600954600160b01b900460ff166122615760405162461bcd60e51b815260206004820152602560248201527f63616e6e6f742061646a7573742073697a65206f66207468697320636f6c6c6560448201526431ba34b7b760d91b6064820152608401610acc565b8061226b60005490565b11156122af5760405162461bcd60e51b8152602060048201526013602482015272063616e6e6f742064656372656173652063617606c1b6044820152606401610acc565b600a55565b60006122bf84611287565b9050336001600160a01b03821614612310576122db81336109d8565b61231057336122e985610d9c565b6001600160a01b031614612310576040516309e3bb1d60e31b815260040160405180910390fd5b6000848152601960209081526040918290206001600160a01b03861660a086901b67ffffffffffffffff60a01b16811790915591516001600160401b038516815286917f4e06b4e7000e659094299b3533b47b6aa8ad048e95e872d23d1f4ee55af89cfe910160405180910390a350505050565b6011546060906001600160a01b03166123a45760108054610d1990613ae1565b601160009054906101000a90046001600160a01b03166001600160a01b031663e8a3d4856040518163ffffffff1660e01b815260040160006040518083038186803b1580156123f257600080fd5b505afa158015612406573d6000803e3d6000fd5b505050506040513d6000823e601f3d908101601f1916820160405261242e9190810190613c63565b905090565b6000600d54421015801561242e575050600e5460ff161590565b61245561260a565b6001600160a01b0381166124ba5760405162461bcd60e51b815260206004820152602660248201527f4f776e61626c653a206e6577206f776e657220697320746865207a65726f206160448201526564647265737360d01b6064820152608401610acc565b6112388161279e565b6124cb61260a565b601180546001600160a01b0319166001600160a01b0392909216919091179055565b6040516370a0823160e01b81523060048201526000906001600160a01b038316906370a082319060240160206040518083038186803b15801561252f57600080fd5b505afa158015612543573d6000803e3d6000fd5b505050506040513d601f19601f820116820180604052508101906125679190613bf1565b9050816001600160a01b031663a9059cbb61258a6017546001600160a01b031690565b6040516001600160e01b031960e084901b1681526001600160a01b03909116600482015260248101849052604401602060405180830381600087803b1580156125d257600080fd5b505af11580156125e6573d6000803e3d6000fd5b505050506040513d601f19601f820116820180604052508101906112569190613cd9565b6009546001600160a01b03620100009091041633146113f05760405162461bcd60e51b815260206004820181905260248201527f4f776e61626c653a2063616c6c6572206973206e6f7420746865206f776e65726044820152606401610acc565b600061267682612a7e565b80610d045750506001600160e01b031916632b424ad760e21b1490565b6000805482108015610d04575050600090815260046020526040902054600160e01b161590565b60008160005481101561270957600081815260046020526040902054600160e01b8116612707575b806127005750600019016000818152600460205260409020546126e2565b9392505050565b505b604051636f96cda160e11b815260040160405180910390fd5b601654604051636e5f691960e01b81526001600160a01b0390911690636e5f69199061275690869086908690600401613cf6565b600060405180830381600087803b15801561277057600080fd5b505af1158015611b82573d6000803e3d6000fd5b611283828260405180602001604052806000815250612aa3565b600980546001600160a01b038381166201000081810262010000600160b01b031985161790945560405193909204169182907f8be0079c531659141344cd1fd0a4f28419497f9722a3daafe3b4186f6b6457e090600090a35050565b6000826128078584612b09565b14949350505050565b60006128246017546001600160a01b031690565b6001600160a01b03164760405160006040518083038185875af1925050503d806000811461286e576040519150601f19603f3d011682016040523d82523d6000602084013e612873565b606091505b50509050806112385760405162461bcd60e51b815260206004820152601f60248201527f436f756c64206e6f74207472616e736665722045544820746f2073706c6974006044820152606401610acc565b604051630a85bd0160e11b81526000906001600160a01b0385169063150b7a02906128f9903390899088908890600401613d59565b602060405180830381600087803b15801561291357600080fd5b505af1925050508015612943575060408051601f3d908101601f1916820190925261294091810190613d96565b60015b61299e573d808015612971576040519150601f19603f3d011682016040523d82523d6000602084013e612976565b606091505b508051612996576040516368d2bf6b60e11b815260040160405180910390fd5b805181602001fd5b6001600160e01b031916630a85bd0160e11b1490505b949350505050565b60606129c782612693565b6129e457604051630a14c4b560e41b815260040160405180910390fd5b6011546001600160a01b031615612a755760115460405163c87b56dd60e01b8152600481018490526001600160a01b039091169063c87b56dd9060240160006040518083038186803b158015612a3957600080fd5b505afa158015612a4d573d6000803e3d6000fd5b505050506040513d6000823e601f3d908101601f19168201604052610d049190810190613c63565b610d0482612b56565b600063152a902d60e11b6001600160e01b031983161480610d045750610d0482612bda565b612aad8383612c28565b6001600160a01b0383163b15611256576000548281035b612ad760008683806001019450866128c4565b612af4576040516368d2bf6b60e11b815260040160405180910390fd5b818110612ac45781600054146121e057600080fd5b600081815b8451811015612b4e57612b3a82868381518110612b2d57612b2d613b1c565b6020026020010151612d1f565b915080612b4681613b48565b915050612b0e565b509392505050565b6060612b6182612693565b612b7e57604051630a14c4b560e41b815260040160405180910390fd5b6000612b88612d4b565b9050805160001415612ba95760405180602001604052806000815250612700565b80612bb384612d5a565b604051602001612bc4929190613db3565b6040516020818303038152906040529392505050565b60006301ffc9a760e01b6001600160e01b031983161480612c0b57506380ac58cd60e01b6001600160e01b03198316145b80610d045750506001600160e01b031916635b5e139f60e01b1490565b60005481612c495760405163b562e8dd60e01b815260040160405180910390fd5b6001600160a01b03831660008181526005602090815260408083208054680100000000000000018802019055848352600490915281206001851460e11b4260a01b178317905582840190839083907fddf252ad1be2c89b69c2b068fc378daa952ba7f163c4a11628f55a4df523b3ef8180a4600183015b818114612cf857808360007fddf252ad1be2c89b69c2b068fc378daa952ba7f163c4a11628f55a4df523b3ef600080a4600101612cc0565b5081612d1657604051622e076360e81b815260040160405180910390fd5b60005550505050565b6000818310612d3b576000828152602084905260409020612700565b5060009182526020526040902090565b6060600f8054610d1990613ae1565b604080516080019081905280825b600183039250600a81066030018353600a900480612d8557612d8a565b612d68565b50819003601f19909101908152919050565b828054612da890613ae1565b90600052602060002090601f016020900481019282612dca5760008555612e10565b82601f10612de357805160ff1916838001178555612e10565b82800160010185558215612e10579182015b82811115612e10578251825591602001919060010190612df5565b50612e1c929150612e20565b5090565b5b80821115612e1c5760008155600101612e21565b6001600160a01b038116811461123857600080fd5b60008083601f840112612e5c57600080fd5b5081356001600160401b03811115612e7357600080fd5b6020830191508360208260051b850101111561116b57600080fd5b803563ffffffff81168114612ea257600080fd5b919050565b8035612ea281612e35565b600080600080600080600060a0888a031215612ecd57600080fd5b8735612ed881612e35565b965060208801356001600160401b0380821115612ef457600080fd5b612f008b838c01612e4a565b909850965060408a0135915080821115612f1957600080fd5b50612f268a828b01612e4a565b9095509350612f39905060608901612e8e565b91506080880135612f4981612e35565b8091505092959891949750929550565b600080600080600060608688031215612f7157600080fd5b85356001600160401b0380821115612f8857600080fd5b612f9489838a01612e4a565b90975095506020880135915080821115612fad57600080fd5b50612fba88828901612e4a565b9094509250612fcd905060408701612e8e565b90509295509295909350565b6001600160e01b03198116811461123857600080fd5b60006020828403121561300157600080fd5b813561270081612fd9565b60005b8381101561302757818101518382015260200161300f565b83811115611f425750506000910152565b6000815180845261305081602086016020860161300c565b601f01601f19169290920160200192915050565b6020815260006127006020830184613038565b60006020828403121561308957600080fd5b5035919050565b600080604083850312156130a357600080fd5b82356130ae81612e35565b946020939093013593505050565b634e487b7160e01b600052602160045260246000fd5b6001600160a01b03841681526001600160581b0383166020820152606081016003831061310f57634e487b7160e01b600052602160045260246000fd5b826040830152949350505050565b60008060006060848603121561313257600080fd5b833561313d81612e35565b9250602084013561314d81612e35565b929592945050506040919091013590565b634e487b7160e01b600052604160045260246000fd5b60405161014081016001600160401b03811182821017156131975761319761315e565b60405290565b604051601f8201601f191681016001600160401b03811182821017156131c5576131c561315e565b604052919050565b600082601f8301126131de57600080fd5b813560206001600160401b038211156131f9576131f961315e565b8160051b61320882820161319d565b928352848101820192828101908785111561322257600080fd5b83870192505b8483101561324a57823561323b81612e35565b82529183019190830190613228565b979650505050505050565b600080600080600080600080600060e08a8c03121561327357600080fd5b893561327e81612e35565b985060208a0135975060408a01356001600160401b03808211156132a157600080fd5b6132ad8d838e016131cd565b985060608c01359150808211156132c357600080fd5b6132cf8d838e01612e4a565b909850965060808c01359150808211156132e857600080fd5b506132f58c828d01612e4a565b9095509350613308905060a08b01612e8e565b915060c08a013561331881612e35565b809150509295985092959850929598565b6000806040838503121561333c57600080fd5b50508035926020909101359150565b60006001600160401b038211156133645761336461315e565b50601f01601f191660200190565b600082601f83011261338357600080fd5b81356133966133918261334b565b61319d565b8181528460208386010111156133ab57600080fd5b816020850160208301376000918101602001919091529392505050565b6000602082840312156133da57600080fd5b81356001600160401b038111156133f057600080fd5b6129b484828501613372565b60006020828403121561340e57600080fd5b813561270081612e35565b60008060008060006080868803121561343157600080fd5b85359450602086013593506040860135925060608601356001600160401b0381111561345c57600080fd5b61346888828901612e4a565b969995985093965092949392505050565b6000806040838503121561348c57600080fd5b8235915060208301356001600160401b038111156134a957600080fd5b611167858286016131cd565b801515811461123857600080fd5b8035612ea2816134b5565b6000608082840312156134e057600080fd5b604051608081016001600160401b0382821081831117156135035761350361315e565b81604052829350843591508082111561351b57600080fd5b61352786838701613372565b8352602085013591508082111561353d57600080fd5b61354986838701613372565b6020840152604085013591508082111561356257600080fd5b5061356f85828601613372565b604083015250606083013561358381612e35565b6060919091015292915050565b6000606082840312156135a257600080fd5b604051606081018181106001600160401b03821117156135c4576135c461315e565b60405290508082356135d581612e35565b815260208301356001600160581b03811681146135f157600080fd5b602082015260408301356003811061360857600080fd5b6040919091015292915050565b60008060008060008061010080888a03121561363057600080fd5b873561363b81612e35565b965060208801356001600160401b038082111561365757600080fd5b90890190610140828c03121561366c57600080fd5b613674613174565b82358281111561368357600080fd5b61368f8d828601613372565b8252506020830135828111156136a457600080fd5b6136b08d828601613372565b6020830152506136c2604084016134c3565b6040820152606083013560608201526080830135608082015260a083013560a082015260c083013560c082015260e083013560e08201528383013584820152610120935083830135848201528098505060408a013592508083111561372657600080fd5b505061373489828a016134ce565b9450506137448860608901613590565b925061375260c08801612ea7565b915061376060e08801612ea7565b90509295509295509295565b6000806040838503121561377f57600080fd5b823561378a81612e35565b9150602083013561379a816134b5565b809150509250929050565b600080600080608085870312156137bb57600080fd5b84356137c681612e35565b935060208501356137d681612e35565b92506040850135915060608501356001600160401b038111156137f857600080fd5b61380487828801613372565b91505092959194509250565b6000806000806000806080878903121561382957600080fd5b86356001600160401b038082111561384057600080fd5b61384c8a838b01612e4a565b9098509650602089013591508082111561386557600080fd5b5061387289828a01612e4a565b9095509350613885905060408801612e8e565b9150606087013561389581612e35565b809150509295509295509295565b600080602083850312156138b657600080fd5b82356001600160401b038111156138cc57600080fd5b6138d885828601612e4a565b90969095509350505050565b6000806000606084860312156138f957600080fd5b83359250602084013561390b81612e35565b915060408401356001600160401b038116811461392757600080fd5b809150509250925092565b6000806040838503121561394557600080fd5b823561395081612e35565b9150602083013561379a81612e35565b60208082526015908201527414dc1b1a5d081b9bdd0818dc99585d1959081e595d605a1b604082015260600190565b8183526000602080850194508260005b858110156139cd5781356139b281612e35565b6001600160a01b03168752958201959082019060010161399f565b509495945050505050565b8183526000602080850194508260005b858110156139cd5763ffffffff6139fe83612e8e565b16875295820195908201906001016139e8565b600060018060a01b03808b168352808a16602084015260c06040840152613a3c60c08401898b61398f565b8381036060850152613a4f81888a6139d8565b63ffffffff969096166080850152509290921660a090910152509695505050505050565b608081526000613a8760808301888a61398f565b8281036020840152613a9a8187896139d8565b63ffffffff95909516604084015250506001600160a01b0391909116606090910152949350505050565b600060208284031215613ad657600080fd5b815161270081612e35565b600181811c90821680613af557607f821691505b60208210811415613b1657634e487b7160e01b600052602260045260246000fd5b50919050565b634e487b7160e01b600052603260045260246000fd5b634e487b7160e01b600052601160045260246000fd5b6000600019821415613b5c57613b5c613b32565b5060010190565b6000816000190483118215151615613b7d57613b7d613b32565b500290565b600082613b9f57634e487b7160e01b600052601260045260246000fd5b500490565b60008219821115613bb757613bb7613b32565b500190565b6020808252818101527f507572636861736520776f756c6420657863656564206d617820737570706c79604082015260600190565b600060208284031215613c0357600080fd5b5051919050565b600060018060a01b03808a16835260a06020840152613c2d60a08401898b61398f565b8381036040850152613c4081888a6139d8565b63ffffffff96909616606085015250929092166080909101525095945050505050565b600060208284031215613c7557600080fd5b81516001600160401b03811115613c8b57600080fd5b8201601f81018413613c9c57600080fd5b8051613caa6133918261334b565b818152856020838501011115613cbf57600080fd5b613cd082602083016020860161300c565b95945050505050565b600060208284031215613ceb57600080fd5b8151612700816134b5565b6001600160a01b038481168252602080830185905260606040840181905284519084018190526000928583019290916080860190855b81811015613d4a578551851683529483019491830191600101613d2c565b50909998505050505050505050565b6001600160a01b0385811682528416602082015260408101839052608060608201819052600090613d8c90830184613038565b9695505050505050565b600060208284031215613da857600080fd5b815161270081612fd9565b60008351613dc581846020880161300c565b835190830190613dd981836020880161300c565b0194935050505056fea264697066735822122021bf5ecd5a2846e4f228de5bbbdfcaeba6586ca80cc45922ae9604fbb418a54064736f6c63430008090033",
  "linkReferences": {},
  "deployedLinkReferences": {}
}