{
  "_format": "hh-sol-artifact-1",
  "contractName": "DCNTRentalMarket",
  "sourceName": "contracts/DCNTRentalMarket.sol",
  "abi": [
    {
      "inputs": [],
      "stateMutability": "nonpayable",
      "type": "constructor"
    },
    {
      "inputs": [
        {
          "internalType": "address",
          "name": "_rentable",
          "type": "address"
        },
        {
          "internalType": "uint256",
          "name": "_tokenId",
          "type": "uint256"
        }
      ],
      "name": "getRentable",
      "outputs": [
        {
          "components": [
            {
              "internalType": "bool",
              "name": "isListed",
              "type": "bool"
            },
            {
              "internalType": "uint256",
              "name": "pricePerDay",
              "type": "uint256"
            },
            {
              "internalType": "uint16",
              "name": "minDays",
              "type": "uint16"
            },
            {
              "internalType": "uint16",
              "name": "maxDays",
              "type": "uint16"
            }
          ],
          "internalType": "struct DCNTRentalMarket.Rentable",
          "name": "",
          "type": "tuple"
        }
      ],
      "stateMutability": "view",
      "type": "function"
    },
    {
      "inputs": [
        {
          "internalType": "address",
          "name": "_rentable",
          "type": "address"
        },
        {
          "internalType": "uint256",
          "name": "_tokenId",
          "type": "uint256"
        },
        {
          "internalType": "uint256",
          "name": "_days",
          "type": "uint256"
        }
      ],
      "name": "rent",
      "outputs": [],
      "stateMutability": "payable",
      "type": "function"
    },
    {
      "inputs": [
        {
          "internalType": "address",
          "name": "",
          "type": "address"
        },
        {
          "internalType": "uint256",
          "name": "",
          "type": "uint256"
        }
      ],
      "name": "rentables",
      "outputs": [
        {
          "internalType": "bool",
          "name": "isListed",
          "type": "bool"
        },
        {
          "internalType": "uint256",
          "name": "pricePerDay",
          "type": "uint256"
        },
        {
          "internalType": "uint16",
          "name": "minDays",
          "type": "uint16"
        },
        {
          "internalType": "uint16",
          "name": "maxDays",
          "type": "uint16"
        }
      ],
      "stateMutability": "view",
      "type": "function"
    },
    {
      "inputs": [
        {
          "internalType": "address",
          "name": "_rentable",
          "type": "address"
        },
        {
          "internalType": "uint256",
          "name": "_tokenId",
          "type": "uint256"
        },
        {
          "internalType": "bool",
          "name": "_isListed",
          "type": "bool"
        },
        {
          "internalType": "uint256",
          "name": "_pricePerDay",
          "type": "uint256"
        },
        {
          "internalType": "uint16",
          "name": "_minDays",
          "type": "uint16"
        },
        {
          "internalType": "uint16",
          "name": "_maxDays",
          "type": "uint16"
        }
      ],
      "name": "setRentable",
      "outputs": [],
      "stateMutability": "nonpayable",
      "type": "function"
    }
  ],
  "bytecode": "0x608060405234801561001057600080fd5b506118d0806100206000396000f3fe60806040526004361061003f5760003560e01c806301240020146100445780630bb07b2d14610084578063461ed957146100ad5780634dc32a18146100ea575b600080fd5b34801561005057600080fd5b5061006b60048036038101906100669190610df0565b610106565b60405161007b9493929190610e77565b60405180910390f35b34801561009057600080fd5b506100ab60048036038101906100a69190610f14565b61016c565b005b3480156100b957600080fd5b506100d460048036038101906100cf9190610df0565b610417565b6040516100e19190611023565b60405180910390f35b61010460048036038101906100ff919061103e565b6104e6565b005b6000602052816000526040600020602052806000526040600020600091509150508060000160009054906101000a900460ff16908060010154908060020160009054906101000a900461ffff16908060020160029054906101000a900461ffff16905084565b3073ffffffffffffffffffffffffffffffffffffffff168673ffffffffffffffffffffffffffffffffffffffff1663081812fc876040518263ffffffff1660e01b81526004016101bc9190611091565b60206040518083038186803b1580156101d457600080fd5b505afa1580156101e8573d6000803e3d6000fd5b505050506040513d601f19601f8201168201806040525081019061020c91906110c1565b73ffffffffffffffffffffffffffffffffffffffff1614610262576040517f08c379a000000000000000000000000000000000000000000000000000000000815260040161025990611171565b60405180910390fd5b3373ffffffffffffffffffffffffffffffffffffffff168673ffffffffffffffffffffffffffffffffffffffff16636352211e876040518263ffffffff1660e01b81526004016102b29190611091565b60206040518083038186803b1580156102ca57600080fd5b505afa1580156102de573d6000803e3d6000fd5b505050506040513d601f19601f8201168201806040525081019061030291906110c1565b73ffffffffffffffffffffffffffffffffffffffff1614610358576040517f08c379a000000000000000000000000000000000000000000000000000000000815260040161034f90611203565b60405180910390fd5b60008060008873ffffffffffffffffffffffffffffffffffffffff1673ffffffffffffffffffffffffffffffffffffffff16815260200190815260200160002060008781526020019081526020016000209050848160000160006101000a81548160ff021916908315150217905550838160010181905550828160020160006101000a81548161ffff021916908361ffff160217905550818160020160026101000a81548161ffff021916908361ffff16021790555050505050505050565b61041f610d25565b6000808473ffffffffffffffffffffffffffffffffffffffff1673ffffffffffffffffffffffffffffffffffffffff16815260200190815260200160002060008381526020019081526020016000206040518060800160405290816000820160009054906101000a900460ff16151515158152602001600182015481526020016002820160009054906101000a900461ffff1661ffff1661ffff1681526020016002820160029054906101000a900461ffff1661ffff1661ffff1681525050905092915050565b60008060008573ffffffffffffffffffffffffffffffffffffffff1673ffffffffffffffffffffffffffffffffffffffff16815260200190815260200160002060008481526020019081526020016000206040518060800160405290816000820160009054906101000a900460ff16151515158152602001600182015481526020016002820160009054906101000a900461ffff1661ffff1661ffff1681526020016002820160029054906101000a900461ffff1661ffff1661ffff168152505090503073ffffffffffffffffffffffffffffffffffffffff168473ffffffffffffffffffffffffffffffffffffffff1663081812fc856040518263ffffffff1660e01b81526004016105f99190611091565b60206040518083038186803b15801561061157600080fd5b505afa158015610625573d6000803e3d6000fd5b505050506040513d601f19601f8201168201806040525081019061064991906110c1565b73ffffffffffffffffffffffffffffffffffffffff161461069f576040517f08c379a000000000000000000000000000000000000000000000000000000000815260040161069690611171565b60405180910390fd5b80600001516106e3576040517f08c379a00000000000000000000000000000000000000000000000000000000081526004016106da90611295565b60405180910390fd5b600073ffffffffffffffffffffffffffffffffffffffff168473ffffffffffffffffffffffffffffffffffffffff1663c2f1f14a856040518263ffffffff1660e01b81526004016107349190611091565b60206040518083038186803b15801561074c57600080fd5b505afa158015610760573d6000803e3d6000fd5b505050506040513d601f19601f8201168201806040525081019061078491906110c1565b73ffffffffffffffffffffffffffffffffffffffff16146107da576040517f08c379a00000000000000000000000000000000000000000000000000000000081526004016107d190611301565b60405180910390fd5b806040015161ffff1682101580156107fa5750806060015161ffff168211155b610839576040517f08c379a00000000000000000000000000000000000000000000000000000000081526004016108309061136d565b60405180910390fd5b60008060008673ffffffffffffffffffffffffffffffffffffffff1673ffffffffffffffffffffffffffffffffffffffff1681526020019081526020016000206000858152602001908152602001600020600101549050600081116108d3576040517f08c379a00000000000000000000000000000000000000000000000000000000081526004016108ca906113d9565b60405180910390fd5b600083826108e19190611428565b905060003490508181101561092b576040517f08c379a0000000000000000000000000000000000000000000000000000000008152600401610922906114ce565b60405180910390fd5b8673ffffffffffffffffffffffffffffffffffffffff166301ffc9a7632a55205a6040518263ffffffff1660e01b81526004016109689190611562565b60206040518083038186803b15801561098057600080fd5b505afa158015610994573d6000803e3d6000fd5b505050506040513d601f19601f820116820180604052508101906109b89190611592565b15610b53576000808873ffffffffffffffffffffffffffffffffffffffff16632a55205a89866040518363ffffffff1660e01b81526004016109fb9291906115bf565b604080518083038186803b158015610a1257600080fd5b505afa158015610a26573d6000803e3d6000fd5b505050506040513d601f19601f82011682018060405250810190610a4a91906115fd565b8092508193505050600073ffffffffffffffffffffffffffffffffffffffff168273ffffffffffffffffffffffffffffffffffffffff1614158015610a8f5750600081115b15610b505760008273ffffffffffffffffffffffffffffffffffffffff1682604051610aba9061166e565b60006040518083038185875af1925050503d8060008114610af7576040519150601f19603f3d011682016040523d82523d6000602084013e610afc565b606091505b5050905080610b40576040517f08c379a0000000000000000000000000000000000000000000000000000000008152600401610b37906116f5565b60405180910390fd5b8184610b4c9190611715565b9350505b50505b60008773ffffffffffffffffffffffffffffffffffffffff16636352211e886040518263ffffffff1660e01b8152600401610b8e9190611091565b60206040518083038186803b158015610ba657600080fd5b505afa158015610bba573d6000803e3d6000fd5b505050506040513d601f19601f82011682018060405250810190610bde91906110c1565b905060008173ffffffffffffffffffffffffffffffffffffffff1683604051610c069061166e565b60006040518083038185875af1925050503d8060008114610c43576040519150601f19603f3d011682016040523d82523d6000602084013e610c48565b606091505b5050905080610c8c576040517f08c379a0000000000000000000000000000000000000000000000000000000008152600401610c83906117bb565b60405180910390fd5b60006201518088610c9d9190611428565b42610ca891906117db565b90508973ffffffffffffffffffffffffffffffffffffffff1663e030565e8a33846040518463ffffffff1660e01b8152600401610ce793929190611863565b600060405180830381600087803b158015610d0157600080fd5b505af1158015610d15573d6000803e3d6000fd5b5050505050505050505050505050565b604051806080016040528060001515815260200160008152602001600061ffff168152602001600061ffff1681525090565b600080fd5b600073ffffffffffffffffffffffffffffffffffffffff82169050919050565b6000610d8782610d5c565b9050919050565b610d9781610d7c565b8114610da257600080fd5b50565b600081359050610db481610d8e565b92915050565b6000819050919050565b610dcd81610dba565b8114610dd857600080fd5b50565b600081359050610dea81610dc4565b92915050565b60008060408385031215610e0757610e06610d57565b5b6000610e1585828601610da5565b9250506020610e2685828601610ddb565b9150509250929050565b60008115159050919050565b610e4581610e30565b82525050565b610e5481610dba565b82525050565b600061ffff82169050919050565b610e7181610e5a565b82525050565b6000608082019050610e8c6000830187610e3c565b610e996020830186610e4b565b610ea66040830185610e68565b610eb36060830184610e68565b95945050505050565b610ec581610e30565b8114610ed057600080fd5b50565b600081359050610ee281610ebc565b92915050565b610ef181610e5a565b8114610efc57600080fd5b50565b600081359050610f0e81610ee8565b92915050565b60008060008060008060c08789031215610f3157610f30610d57565b5b6000610f3f89828a01610da5565b9650506020610f5089828a01610ddb565b9550506040610f6189828a01610ed3565b9450506060610f7289828a01610ddb565b9350506080610f8389828a01610eff565b92505060a0610f9489828a01610eff565b9150509295509295509295565b610faa81610e30565b82525050565b610fb981610dba565b82525050565b610fc881610e5a565b82525050565b608082016000820151610fe46000850182610fa1565b506020820151610ff76020850182610fb0565b50604082015161100a6040850182610fbf565b50606082015161101d6060850182610fbf565b50505050565b60006080820190506110386000830184610fce565b92915050565b60008060006060848603121561105757611056610d57565b5b600061106586828701610da5565b935050602061107686828701610ddb565b925050604061108786828701610ddb565b9150509250925092565b60006020820190506110a66000830184610e4b565b92915050565b6000815190506110bb81610d8e565b92915050565b6000602082840312156110d7576110d6610d57565b5b60006110e5848285016110ac565b91505092915050565b600082825260208201905092915050565b7f546f6b656e206973206e6f7420617070726f76656420666f722072656e74616c60008201527f7300000000000000000000000000000000000000000000000000000000000000602082015250565b600061115b6021836110ee565b9150611166826110ff565b604082019050919050565b6000602082019050818103600083015261118a8161114e565b9050919050565b7f4d75737420626520746f6b656e206f776e657220746f207365742072656e746160008201527f626c650000000000000000000000000000000000000000000000000000000000602082015250565b60006111ed6023836110ee565b91506111f882611191565b604082019050919050565b6000602082019050818103600083015261121c816111e0565b9050919050565b7f52656e74616c7320617265206e6f742061637469766520666f7220746869732060008201527f746f6b656e000000000000000000000000000000000000000000000000000000602082015250565b600061127f6025836110ee565b915061128a82611223565b604082019050919050565b600060208201905081810360008301526112ae81611272565b9050919050565b7f546f6b656e20697320616c72656164792072656e746564000000000000000000600082015250565b60006112eb6017836110ee565b91506112f6826112b5565b602082019050919050565b6000602082019050818103600083015261131a816112de565b9050919050565b7f496e76616c69642072656e74616c206475726174696f6e000000000000000000600082015250565b60006113576017836110ee565b915061136282611321565b602082019050919050565b600060208201905081810360008301526113868161134a565b9050919050565b7f52656e74616c2066656520686173206e6f74206265656e207365740000000000600082015250565b60006113c3601b836110ee565b91506113ce8261138d565b602082019050919050565b600060208201905081810360008301526113f2816113b6565b9050919050565b7f4e487b7100000000000000000000000000000000000000000000000000000000600052601160045260246000fd5b600061143382610dba565b915061143e83610dba565b9250817fffffffffffffffffffffffffffffffffffffffffffffffffffffffffffffffff0483118215151615611477576114766113f9565b5b828202905092915050565b7f4e6f7420656e6f7567682066756e64732073656e7420666f722072656e74616c600082015250565b60006114b86020836110ee565b91506114c382611482565b602082019050919050565b600060208201905081810360008301526114e7816114ab565b9050919050565b6000819050919050565b60007fffffffff0000000000000000000000000000000000000000000000000000000082169050919050565b60008160e01b9050919050565b600061154c611547611542846114ee565b611524565b6114f8565b9050919050565b61155c81611531565b82525050565b60006020820190506115776000830184611553565b92915050565b60008151905061158c81610ebc565b92915050565b6000602082840312156115a8576115a7610d57565b5b60006115b68482850161157d565b91505092915050565b60006040820190506115d46000830185610e4b565b6115e16020830184610e4b565b9392505050565b6000815190506115f781610dc4565b92915050565b6000806040838503121561161457611613610d57565b5b6000611622858286016110ac565b9250506020611633858286016115e8565b9150509250929050565b600081905092915050565b50565b600061165860008361163d565b915061166382611648565b600082019050919050565b60006116798261164b565b9150819050919050565b7f4661696c656420746f2073656e6420726f79616c747920746f20726f79616c7460008201527f7920726563697069656e74000000000000000000000000000000000000000000602082015250565b60006116df602b836110ee565b91506116ea82611683565b604082019050919050565b6000602082019050818103600083015261170e816116d2565b9050919050565b600061172082610dba565b915061172b83610dba565b92508282101561173e5761173d6113f9565b5b828203905092915050565b7f4661696c656420746f2073656e642072656e74616c2066656520746f20746f6b60008201527f656e206f776e6572000000000000000000000000000000000000000000000000602082015250565b60006117a56028836110ee565b91506117b082611749565b604082019050919050565b600060208201905081810360008301526117d481611798565b9050919050565b60006117e682610dba565b91506117f183610dba565b9250827fffffffffffffffffffffffffffffffffffffffffffffffffffffffffffffffff03821115611826576118256113f9565b5b828201905092915050565b61183a81610d7c565b82525050565b600067ffffffffffffffff82169050919050565b61185d81611840565b82525050565b60006060820190506118786000830186610e4b565b6118856020830185611831565b6118926040830184611854565b94935050505056fea2646970667358221220f61138ba63cb5e5e6b06e74b2278470ab6bdaccc617e50c94ce57630ef79946264736f6c63430008090033",
  "linkReferences": {},
  "deployedLinkReferences": {}
}