{
  "_format": "hh-sol-artifact-1",
  "contractName": "ZKEdition",
  "sourceName": "contracts/ZKEdition.sol",
  "abi": [
    {
      "inputs": [],
      "name": "ApprovalCallerNotOwnerNorApproved",
      "type": "error"
    },
    {
      "inputs": [],
      "name": "ApprovalQueryForNonexistentToken",
      "type": "error"
    },
    {
      "inputs": [],
      "name": "ApproveToCaller",
      "type": "error"
    },
    {
      "inputs": [],
      "name": "BalanceQueryForZeroAddress",
      "type": "error"
    },
    {
      "inputs": [],
      "name": "FeeTransferFailed",
      "type": "error"
    },
    {
      "inputs": [],
      "name": "MintERC2309QuantityExceedsLimit",
      "type": "error"
    },
    {
      "inputs": [],
      "name": "MintToZeroAddress",
      "type": "error"
    },
    {
      "inputs": [],
      "name": "MintZeroQuantity",
      "type": "error"
    },
    {
      "inputs": [
        {
          "internalType": "address",
          "name": "operator",
          "type": "address"
        }
      ],
      "name": "OperatorNotAllowed",
      "type": "error"
    },
    {
      "inputs": [],
      "name": "OwnerQueryForNonexistentToken",
      "type": "error"
    },
    {
      "inputs": [],
      "name": "OwnershipNotInitializedForExtraData",
      "type": "error"
    },
    {
      "inputs": [],
      "name": "TransferCallerNotOwnerNorApproved",
      "type": "error"
    },
    {
      "inputs": [],
      "name": "TransferFromIncorrectOwner",
      "type": "error"
    },
    {
      "inputs": [],
      "name": "TransferToNonERC721ReceiverImplementer",
      "type": "error"
    },
    {
      "inputs": [],
      "name": "TransferToZeroAddress",
      "type": "error"
    },
    {
      "inputs": [],
      "name": "URIQueryForNonexistentToken",
      "type": "error"
    },
    {
      "anonymous": false,
      "inputs": [
        {
          "indexed": true,
          "internalType": "address",
          "name": "owner",
          "type": "address"
        },
        {
          "indexed": true,
          "internalType": "address",
          "name": "approved",
          "type": "address"
        },
        {
          "indexed": true,
          "internalType": "uint256",
          "name": "tokenId",
          "type": "uint256"
        }
      ],
      "name": "Approval",
      "type": "event"
    },
    {
      "anonymous": false,
      "inputs": [
        {
          "indexed": true,
          "internalType": "address",
          "name": "owner",
          "type": "address"
        },
        {
          "indexed": true,
          "internalType": "address",
          "name": "operator",
          "type": "address"
        },
        {
          "indexed": false,
          "internalType": "bool",
          "name": "approved",
          "type": "bool"
        }
      ],
      "name": "ApprovalForAll",
      "type": "event"
    },
    {
      "anonymous": false,
      "inputs": [
        {
          "indexed": true,
          "internalType": "uint256",
          "name": "fromTokenId",
          "type": "uint256"
        },
        {
          "indexed": false,
          "internalType": "uint256",
          "name": "toTokenId",
          "type": "uint256"
        },
        {
          "indexed": true,
          "internalType": "address",
          "name": "from",
          "type": "address"
        },
        {
          "indexed": true,
          "internalType": "address",
          "name": "to",
          "type": "address"
        }
      ],
      "name": "ConsecutiveTransfer",
      "type": "event"
    },
    {
      "anonymous": false,
      "inputs": [
        {
          "indexed": false,
          "internalType": "uint8",
          "name": "version",
          "type": "uint8"
        }
      ],
      "name": "Initialized",
      "type": "event"
    },
    {
      "anonymous": false,
      "inputs": [
        {
          "indexed": false,
          "internalType": "address",
          "name": "sender",
          "type": "address"
        },
        {
          "indexed": false,
          "internalType": "uint256",
          "name": "tokenId_",
          "type": "uint256"
        }
      ],
      "name": "Minted",
      "type": "event"
    },
    {
      "anonymous": false,
      "inputs": [
        {
          "indexed": true,
          "internalType": "address",
          "name": "previousOwner",
          "type": "address"
        },
        {
          "indexed": true,
          "internalType": "address",
          "name": "newOwner",
          "type": "address"
        }
      ],
      "name": "OwnershipTransferred",
      "type": "event"
    },
    {
      "anonymous": false,
      "inputs": [
        {
          "indexed": true,
          "internalType": "bytes32",
          "name": "role",
          "type": "bytes32"
        },
        {
          "indexed": true,
          "internalType": "bytes32",
          "name": "previousAdminRole",
          "type": "bytes32"
        },
        {
          "indexed": true,
          "internalType": "bytes32",
          "name": "newAdminRole",
          "type": "bytes32"
        }
      ],
      "name": "RoleAdminChanged",
      "type": "event"
    },
    {
      "anonymous": false,
      "inputs": [
        {
          "indexed": true,
          "internalType": "bytes32",
          "name": "role",
          "type": "bytes32"
        },
        {
          "indexed": true,
          "internalType": "address",
          "name": "account",
          "type": "address"
        },
        {
          "indexed": true,
          "internalType": "address",
          "name": "sender",
          "type": "address"
        }
      ],
      "name": "RoleGranted",
      "type": "event"
    },
    {
      "anonymous": false,
      "inputs": [
        {
          "indexed": true,
          "internalType": "bytes32",
          "name": "role",
          "type": "bytes32"
        },
        {
          "indexed": true,
          "internalType": "address",
          "name": "account",
          "type": "address"
        },
        {
          "indexed": true,
          "internalType": "address",
          "name": "sender",
          "type": "address"
        }
      ],
      "name": "RoleRevoked",
      "type": "event"
    },
    {
      "anonymous": false,
      "inputs": [
        {
          "indexed": true,
          "internalType": "address",
          "name": "from",
          "type": "address"
        },
        {
          "indexed": true,
          "internalType": "address",
          "name": "to",
          "type": "address"
        },
        {
          "indexed": true,
          "internalType": "uint256",
          "name": "tokenId",
          "type": "uint256"
        }
      ],
      "name": "Transfer",
      "type": "event"
    },
    {
      "inputs": [],
      "name": "DEFAULT_ADMIN_ROLE",
      "outputs": [
        {
          "internalType": "bytes32",
          "name": "",
          "type": "bytes32"
        }
      ],
      "stateMutability": "view",
      "type": "function"
    },
    {
      "inputs": [],
      "name": "MAX_TOKENS",
      "outputs": [
        {
          "internalType": "uint32",
          "name": "",
          "type": "uint32"
        }
      ],
      "stateMutability": "view",
      "type": "function"
    },
    {
      "inputs": [
        {
          "internalType": "uint32",
          "name": "newCap",
          "type": "uint32"
        }
      ],
      "name": "adjustCap",
      "outputs": [],
      "stateMutability": "nonpayable",
      "type": "function"
    },
    {
      "inputs": [
        {
          "internalType": "address",
          "name": "operator",
          "type": "address"
        },
        {
          "internalType": "uint256",
          "name": "tokenId",
          "type": "uint256"
        }
      ],
      "name": "approve",
      "outputs": [],
      "stateMutability": "nonpayable",
      "type": "function"
    },
    {
      "inputs": [
        {
          "internalType": "address",
          "name": "owner",
          "type": "address"
        }
      ],
      "name": "balanceOf",
      "outputs": [
        {
          "internalType": "uint256",
          "name": "",
          "type": "uint256"
        }
      ],
      "stateMutability": "view",
      "type": "function"
    },
    {
      "inputs": [],
      "name": "baseURI",
      "outputs": [
        {
          "internalType": "string",
          "name": "",
          "type": "string"
        }
      ],
      "stateMutability": "view",
      "type": "function"
    },
    {
      "inputs": [],
      "name": "contractURI",
      "outputs": [
        {
          "internalType": "string",
          "name": "",
          "type": "string"
        }
      ],
      "stateMutability": "view",
      "type": "function"
    },
    {
      "inputs": [],
      "name": "contractVersion",
      "outputs": [
        {
          "internalType": "uint32",
          "name": "",
          "type": "uint32"
        }
      ],
      "stateMutability": "view",
      "type": "function"
    },
    {
      "inputs": [
        {
          "internalType": "address",
          "name": "_splitMain",
          "type": "address"
        },
        {
          "internalType": "address[]",
          "name": "accounts",
          "type": "address[]"
        },
        {
          "internalType": "uint32[]",
          "name": "percentAllocations",
          "type": "uint32[]"
        },
        {
          "internalType": "uint32",
          "name": "distributorFee",
          "type": "uint32"
        }
      ],
      "name": "createSplit",
      "outputs": [],
      "stateMutability": "nonpayable",
      "type": "function"
    },
    {
      "inputs": [
        {
          "internalType": "address",
          "name": "account",
          "type": "address"
        },
        {
          "internalType": "uint256",
          "name": "withdrawETH",
          "type": "uint256"
        },
        {
          "internalType": "contract ERC20[]",
          "name": "tokens",
          "type": "address[]"
        },
        {
          "internalType": "address[]",
          "name": "accounts",
          "type": "address[]"
        },
        {
          "internalType": "uint32[]",
          "name": "percentAllocations",
          "type": "uint32[]"
        },
        {
          "internalType": "uint32",
          "name": "distributorFee",
          "type": "uint32"
        },
        {
          "internalType": "address",
          "name": "distributorAddress",
          "type": "address"
        }
      ],
      "name": "distributeAndWithdraw",
      "outputs": [],
      "stateMutability": "nonpayable",
      "type": "function"
    },
    {
      "inputs": [
        {
          "internalType": "contract ERC20",
          "name": "token",
          "type": "address"
        },
        {
          "internalType": "address[]",
          "name": "accounts",
          "type": "address[]"
        },
        {
          "internalType": "uint32[]",
          "name": "percentAllocations",
          "type": "uint32[]"
        },
        {
          "internalType": "uint32",
          "name": "distributorFee",
          "type": "uint32"
        },
        {
          "internalType": "address",
          "name": "distributorAddress",
          "type": "address"
        }
      ],
      "name": "distributeERC20",
      "outputs": [],
      "stateMutability": "nonpayable",
      "type": "function"
    },
    {
      "inputs": [
        {
          "internalType": "address[]",
          "name": "accounts",
          "type": "address[]"
        },
        {
          "internalType": "uint32[]",
          "name": "percentAllocations",
          "type": "uint32[]"
        },
        {
          "internalType": "uint32",
          "name": "distributorFee",
          "type": "uint32"
        },
        {
          "internalType": "address",
          "name": "distributorAddress",
          "type": "address"
        }
      ],
      "name": "distributeETH",
      "outputs": [],
      "stateMutability": "nonpayable",
      "type": "function"
    },
    {
      "inputs": [],
      "name": "edition",
      "outputs": [
        {
          "internalType": "bool",
          "name": "hasAdjustableCap",
          "type": "bool"
        },
        {
          "internalType": "bool",
          "name": "isSoulbound",
          "type": "bool"
        },
        {
          "internalType": "uint32",
          "name": "maxTokens",
          "type": "uint32"
        },
        {
          "internalType": "uint32",
          "name": "maxTokenPurchase",
          "type": "uint32"
        },
        {
          "internalType": "uint32",
          "name": "presaleStart",
          "type": "uint32"
        },
        {
          "internalType": "uint32",
          "name": "presaleEnd",
          "type": "uint32"
        },
        {
          "internalType": "uint32",
          "name": "saleStart",
          "type": "uint32"
        },
        {
          "internalType": "uint32",
          "name": "saleEnd",
          "type": "uint32"
        },
        {
          "internalType": "uint16",
          "name": "royaltyBPS",
          "type": "uint16"
        },
        {
          "internalType": "uint96",
          "name": "tokenPrice",
          "type": "uint96"
        },
        {
          "internalType": "address",
          "name": "payoutAddress",
          "type": "address"
        },
        {
          "internalType": "bytes32",
          "name": "presaleMerkleRoot",
          "type": "bytes32"
        }
      ],
      "stateMutability": "view",
      "type": "function"
    },
    {
      "inputs": [],
      "name": "feeManager",
      "outputs": [
        {
          "internalType": "address",
          "name": "",
          "type": "address"
        }
      ],
      "stateMutability": "view",
      "type": "function"
    },
    {
      "inputs": [],
      "name": "flipSaleState",
      "outputs": [],
      "stateMutability": "nonpayable",
      "type": "function"
    },
    {
      "inputs": [
        {
          "internalType": "uint256",
          "name": "tokenId",
          "type": "uint256"
        }
      ],
      "name": "getApproved",
      "outputs": [
        {
          "internalType": "address",
          "name": "",
          "type": "address"
        }
      ],
      "stateMutability": "view",
      "type": "function"
    },
    {
      "inputs": [
        {
          "internalType": "bytes32",
          "name": "role",
          "type": "bytes32"
        }
      ],
      "name": "getRoleAdmin",
      "outputs": [
        {
          "internalType": "bytes32",
          "name": "",
          "type": "bytes32"
        }
      ],
      "stateMutability": "view",
      "type": "function"
    },
    {
      "inputs": [
        {
          "internalType": "bytes32",
          "name": "role",
          "type": "bytes32"
        },
        {
          "internalType": "address",
          "name": "account",
          "type": "address"
        }
      ],
      "name": "grantRole",
      "outputs": [],
      "stateMutability": "nonpayable",
      "type": "function"
    },
    {
      "inputs": [],
      "name": "hasAdjustableCap",
      "outputs": [
        {
          "internalType": "bool",
          "name": "",
          "type": "bool"
        }
      ],
      "stateMutability": "view",
      "type": "function"
    },
    {
      "inputs": [
        {
          "internalType": "bytes32",
          "name": "role",
          "type": "bytes32"
        },
        {
          "internalType": "address",
          "name": "account",
          "type": "address"
        }
      ],
      "name": "hasRole",
      "outputs": [
        {
          "internalType": "bool",
          "name": "",
          "type": "bool"
        }
      ],
      "stateMutability": "view",
      "type": "function"
    },
    {
      "inputs": [
        {
          "internalType": "address",
          "name": "_owner",
          "type": "address"
        },
        {
          "components": [
            {
              "internalType": "string",
              "name": "name",
              "type": "string"
            },
            {
              "internalType": "string",
              "name": "symbol",
              "type": "string"
            },
            {
              "internalType": "bool",
              "name": "hasAdjustableCap",
              "type": "bool"
            },
            {
              "internalType": "bool",
              "name": "isSoulbound",
              "type": "bool"
            },
            {
              "internalType": "uint32",
              "name": "maxTokens",
              "type": "uint32"
            },
            {
              "internalType": "uint32",
              "name": "maxTokenPurchase",
              "type": "uint32"
            },
            {
              "internalType": "uint32",
              "name": "presaleStart",
              "type": "uint32"
            },
            {
              "internalType": "uint32",
              "name": "presaleEnd",
              "type": "uint32"
            },
            {
              "internalType": "uint32",
              "name": "saleStart",
              "type": "uint32"
            },
            {
              "internalType": "uint32",
              "name": "saleEnd",
              "type": "uint32"
            },
            {
              "internalType": "uint16",
              "name": "royaltyBPS",
              "type": "uint16"
            },
            {
              "internalType": "uint96",
              "name": "tokenPrice",
              "type": "uint96"
            },
            {
              "internalType": "address",
              "name": "feeManager",
              "type": "address"
            },
            {
              "internalType": "address",
              "name": "payoutAddress",
              "type": "address"
            },
            {
              "internalType": "bytes32",
              "name": "presaleMerkleRoot",
              "type": "bytes32"
            }
          ],
          "internalType": "struct EditionConfig",
          "name": "_editionConfig",
          "type": "tuple"
        },
        {
          "components": [
            {
              "internalType": "string",
              "name": "contractURI",
              "type": "string"
            },
            {
              "internalType": "string",
              "name": "metadataURI",
              "type": "string"
            },
            {
              "internalType": "bytes",
              "name": "metadataRendererInit",
              "type": "bytes"
            },
            {
              "internalType": "address",
              "name": "parentIP",
              "type": "address"
            }
          ],
          "internalType": "struct MetadataConfig",
          "name": "_metadataConfig",
          "type": "tuple"
        },
        {
          "components": [
            {
              "internalType": "address",
              "name": "tokenAddress",
              "type": "address"
            },
            {
              "internalType": "uint88",
              "name": "minBalance",
              "type": "uint88"
            },
            {
              "internalType": "enum SaleType",
              "name": "saleType",
              "type": "uint8"
            }
          ],
          "internalType": "struct TokenGateConfig",
          "name": "_tokenGateConfig",
          "type": "tuple"
        },
        {
          "internalType": "address",
          "name": "_metadataRenderer",
          "type": "address"
        },
        {
          "internalType": "address",
          "name": "_zkVerifier",
          "type": "address"
        }
      ],
      "name": "initialize",
      "outputs": [],
      "stateMutability": "nonpayable",
      "type": "function"
    },
    {
      "inputs": [
        {
          "internalType": "address",
          "name": "_owner",
          "type": "address"
        },
        {
          "components": [
            {
              "internalType": "string",
              "name": "name",
              "type": "string"
            },
            {
              "internalType": "string",
              "name": "symbol",
              "type": "string"
            },
            {
              "internalType": "bool",
              "name": "hasAdjustableCap",
              "type": "bool"
            },
            {
              "internalType": "bool",
              "name": "isSoulbound",
              "type": "bool"
            },
            {
              "internalType": "uint32",
              "name": "maxTokens",
              "type": "uint32"
            },
            {
              "internalType": "uint32",
              "name": "maxTokenPurchase",
              "type": "uint32"
            },
            {
              "internalType": "uint32",
              "name": "presaleStart",
              "type": "uint32"
            },
            {
              "internalType": "uint32",
              "name": "presaleEnd",
              "type": "uint32"
            },
            {
              "internalType": "uint32",
              "name": "saleStart",
              "type": "uint32"
            },
            {
              "internalType": "uint32",
              "name": "saleEnd",
              "type": "uint32"
            },
            {
              "internalType": "uint16",
              "name": "royaltyBPS",
              "type": "uint16"
            },
            {
              "internalType": "uint96",
              "name": "tokenPrice",
              "type": "uint96"
            },
            {
              "internalType": "address",
              "name": "feeManager",
              "type": "address"
            },
            {
              "internalType": "address",
              "name": "payoutAddress",
              "type": "address"
            },
            {
              "internalType": "bytes32",
              "name": "presaleMerkleRoot",
              "type": "bytes32"
            }
          ],
          "internalType": "struct EditionConfig",
          "name": "_editionConfig",
          "type": "tuple"
        },
        {
          "components": [
            {
              "internalType": "string",
              "name": "contractURI",
              "type": "string"
            },
            {
              "internalType": "string",
              "name": "metadataURI",
              "type": "string"
            },
            {
              "internalType": "bytes",
              "name": "metadataRendererInit",
              "type": "bytes"
            },
            {
              "internalType": "address",
              "name": "parentIP",
              "type": "address"
            }
          ],
          "internalType": "struct MetadataConfig",
          "name": "_metadataConfig",
          "type": "tuple"
        },
        {
          "components": [
            {
              "internalType": "address",
              "name": "tokenAddress",
              "type": "address"
            },
            {
              "internalType": "uint88",
              "name": "minBalance",
              "type": "uint88"
            },
            {
              "internalType": "enum SaleType",
              "name": "saleType",
              "type": "uint8"
            }
          ],
          "internalType": "struct TokenGateConfig",
          "name": "_tokenGateConfig",
          "type": "tuple"
        },
        {
          "internalType": "address",
          "name": "_metadataRenderer",
          "type": "address"
        }
      ],
      "name": "initialize",
      "outputs": [],
      "stateMutability": "nonpayable",
      "type": "function"
    },
    {
      "inputs": [
        {
          "internalType": "address",
          "name": "owner",
          "type": "address"
        },
        {
          "internalType": "address",
          "name": "operator",
          "type": "address"
        }
      ],
      "name": "isApprovedForAll",
      "outputs": [
        {
          "internalType": "bool",
          "name": "",
          "type": "bool"
        }
      ],
      "stateMutability": "view",
      "type": "function"
    },
    {
      "inputs": [],
      "name": "isSoulbound",
      "outputs": [
        {
          "internalType": "bool",
          "name": "",
          "type": "bool"
        }
      ],
      "stateMutability": "view",
      "type": "function"
    },
    {
      "inputs": [],
      "name": "maxTokenPurchase",
      "outputs": [
        {
          "internalType": "uint32",
          "name": "",
          "type": "uint32"
        }
      ],
      "stateMutability": "view",
      "type": "function"
    },
    {
      "inputs": [],
      "name": "metadataRenderer",
      "outputs": [
        {
          "internalType": "address",
          "name": "",
          "type": "address"
        }
      ],
      "stateMutability": "view",
      "type": "function"
    },
    {
      "inputs": [
        {
          "internalType": "address",
          "name": "to",
          "type": "address"
        },
        {
          "internalType": "uint256",
          "name": "numberOfTokens",
          "type": "uint256"
        }
      ],
      "name": "mint",
      "outputs": [],
      "stateMutability": "payable",
      "type": "function"
    },
    {
      "inputs": [
        {
          "internalType": "address[]",
          "name": "recipients",
          "type": "address[]"
        }
      ],
      "name": "mintAirdrop",
      "outputs": [],
      "stateMutability": "nonpayable",
      "type": "function"
    },
    {
      "inputs": [
        {
          "internalType": "uint256",
          "name": "quantity",
          "type": "uint256"
        }
      ],
      "name": "mintFee",
      "outputs": [
        {
          "internalType": "uint256",
          "name": "fee",
          "type": "uint256"
        }
      ],
      "stateMutability": "view",
      "type": "function"
    },
    {
      "inputs": [
        {
          "internalType": "address",
          "name": "to",
          "type": "address"
        },
        {
          "internalType": "uint256",
          "name": "quantity",
          "type": "uint256"
        },
        {
          "internalType": "uint256",
          "name": "maxQuantity",
          "type": "uint256"
        },
        {
          "internalType": "uint256",
          "name": "pricePerToken",
          "type": "uint256"
        },
        {
          "internalType": "bytes32[]",
          "name": "merkleProof",
          "type": "bytes32[]"
        }
      ],
      "name": "mintPresale",
      "outputs": [],
      "stateMutability": "payable",
      "type": "function"
    },
    {
      "inputs": [],
      "name": "name",
      "outputs": [
        {
          "internalType": "string",
          "name": "",
          "type": "string"
        }
      ],
      "stateMutability": "view",
      "type": "function"
    },
    {
      "inputs": [],
      "name": "operatorFilterRegistry",
      "outputs": [
        {
          "internalType": "contract IOperatorFilterRegistry",
          "name": "",
          "type": "address"
        }
      ],
      "stateMutability": "view",
      "type": "function"
    },
    {
      "inputs": [],
      "name": "owner",
      "outputs": [
        {
          "internalType": "address",
          "name": "",
          "type": "address"
        }
      ],
      "stateMutability": "view",
      "type": "function"
    },
    {
      "inputs": [
        {
          "internalType": "uint256",
          "name": "tokenId",
          "type": "uint256"
        }
      ],
      "name": "ownerOf",
      "outputs": [
        {
          "internalType": "address",
          "name": "",
          "type": "address"
        }
      ],
      "stateMutability": "view",
      "type": "function"
    },
    {
      "inputs": [],
      "name": "parentIP",
      "outputs": [
        {
          "internalType": "address",
          "name": "",
          "type": "address"
        }
      ],
      "stateMutability": "view",
      "type": "function"
    },
    {
      "inputs": [],
      "name": "payoutAddress",
      "outputs": [
        {
          "internalType": "address",
          "name": "",
          "type": "address"
        }
      ],
      "stateMutability": "view",
      "type": "function"
    },
    {
      "inputs": [],
      "name": "presaleEnd",
      "outputs": [
        {
          "internalType": "uint32",
          "name": "",
          "type": "uint32"
        }
      ],
      "stateMutability": "view",
      "type": "function"
    },
    {
      "inputs": [],
      "name": "presaleMerkleRoot",
      "outputs": [
        {
          "internalType": "bytes32",
          "name": "",
          "type": "bytes32"
        }
      ],
      "stateMutability": "view",
      "type": "function"
    },
    {
      "inputs": [],
      "name": "presaleStart",
      "outputs": [
        {
          "internalType": "uint32",
          "name": "",
          "type": "uint32"
        }
      ],
      "stateMutability": "view",
      "type": "function"
    },
    {
      "inputs": [],
      "name": "renounceOwnership",
      "outputs": [],
      "stateMutability": "nonpayable",
      "type": "function"
    },
    {
      "inputs": [
        {
          "internalType": "bytes32",
          "name": "role",
          "type": "bytes32"
        },
        {
          "internalType": "address",
          "name": "account",
          "type": "address"
        }
      ],
      "name": "renounceRole",
      "outputs": [],
      "stateMutability": "nonpayable",
      "type": "function"
    },
    {
      "inputs": [
        {
          "internalType": "uint256",
          "name": "numReserved",
          "type": "uint256"
        }
      ],
      "name": "reserveDCNT",
      "outputs": [],
      "stateMutability": "nonpayable",
      "type": "function"
    },
    {
      "inputs": [
        {
          "internalType": "bytes32",
          "name": "role",
          "type": "bytes32"
        },
        {
          "internalType": "address",
          "name": "account",
          "type": "address"
        }
      ],
      "name": "revokeRole",
      "outputs": [],
      "stateMutability": "nonpayable",
      "type": "function"
    },
    {
      "inputs": [],
      "name": "royaltyBPS",
      "outputs": [
        {
          "internalType": "uint16",
          "name": "",
          "type": "uint16"
        }
      ],
      "stateMutability": "view",
      "type": "function"
    },
    {
      "inputs": [
        {
          "internalType": "uint256",
          "name": "tokenId",
          "type": "uint256"
        },
        {
          "internalType": "uint256",
          "name": "salePrice",
          "type": "uint256"
        }
      ],
      "name": "royaltyInfo",
      "outputs": [
        {
          "internalType": "address",
          "name": "receiver",
          "type": "address"
        },
        {
          "internalType": "uint256",
          "name": "royaltyAmount",
          "type": "uint256"
        }
      ],
      "stateMutability": "view",
      "type": "function"
    },
    {
      "inputs": [
        {
          "internalType": "address",
          "name": "from",
          "type": "address"
        },
        {
          "internalType": "address",
          "name": "to",
          "type": "address"
        },
        {
          "internalType": "uint256",
          "name": "tokenId",
          "type": "uint256"
        }
      ],
      "name": "safeTransferFrom",
      "outputs": [],
      "stateMutability": "nonpayable",
      "type": "function"
    },
    {
      "inputs": [
        {
          "internalType": "address",
          "name": "from",
          "type": "address"
        },
        {
          "internalType": "address",
          "name": "to",
          "type": "address"
        },
        {
          "internalType": "uint256",
          "name": "tokenId",
          "type": "uint256"
        },
        {
          "internalType": "bytes",
          "name": "_data",
          "type": "bytes"
        }
      ],
      "name": "safeTransferFrom",
      "outputs": [],
      "stateMutability": "nonpayable",
      "type": "function"
    },
    {
      "inputs": [],
      "name": "saleEnd",
      "outputs": [
        {
          "internalType": "uint32",
          "name": "",
          "type": "uint32"
        }
      ],
      "stateMutability": "view",
      "type": "function"
    },
    {
      "inputs": [],
      "name": "saleIsActive",
      "outputs": [
        {
          "internalType": "bool",
          "name": "_saleIsActive",
          "type": "bool"
        }
      ],
      "stateMutability": "view",
      "type": "function"
    },
    {
      "inputs": [],
      "name": "saleIsPaused",
      "outputs": [
        {
          "internalType": "bool",
          "name": "",
          "type": "bool"
        }
      ],
      "stateMutability": "view",
      "type": "function"
    },
    {
      "inputs": [],
      "name": "saleStart",
      "outputs": [
        {
          "internalType": "uint32",
          "name": "",
          "type": "uint32"
        }
      ],
      "stateMutability": "view",
      "type": "function"
    },
    {
      "inputs": [
        {
          "internalType": "address",
          "name": "operator",
          "type": "address"
        },
        {
          "internalType": "bool",
          "name": "approved",
          "type": "bool"
        }
      ],
      "name": "setApprovalForAll",
      "outputs": [],
      "stateMutability": "nonpayable",
      "type": "function"
    },
    {
      "inputs": [
        {
          "internalType": "string",
          "name": "uri",
          "type": "string"
        }
      ],
      "name": "setBaseURI",
      "outputs": [],
      "stateMutability": "nonpayable",
      "type": "function"
    },
    {
      "inputs": [
        {
          "internalType": "string",
          "name": "uri",
          "type": "string"
        }
      ],
      "name": "setContractURI",
      "outputs": [],
      "stateMutability": "nonpayable",
      "type": "function"
    },
    {
      "inputs": [
        {
          "internalType": "address",
          "name": "_metadataRenderer",
          "type": "address"
        }
      ],
      "name": "setMetadataRenderer",
      "outputs": [],
      "stateMutability": "nonpayable",
      "type": "function"
    },
    {
      "inputs": [
        {
          "internalType": "address",
          "name": "_payoutAddress",
          "type": "address"
        }
      ],
      "name": "setPayoutAddress",
      "outputs": [],
      "stateMutability": "nonpayable",
      "type": "function"
    },
    {
      "inputs": [
        {
          "internalType": "bytes32",
          "name": "_presaleMerkleRoot",
          "type": "bytes32"
        }
      ],
      "name": "setPresaleMerkleRoot",
      "outputs": [],
      "stateMutability": "nonpayable",
      "type": "function"
    },
    {
      "inputs": [
        {
          "components": [
            {
              "internalType": "address",
              "name": "tokenAddress",
              "type": "address"
            },
            {
              "internalType": "uint88",
              "name": "minBalance",
              "type": "uint88"
            },
            {
              "internalType": "enum SaleType",
              "name": "saleType",
              "type": "uint8"
            }
          ],
          "internalType": "struct TokenGateConfig",
          "name": "_tokenGateConfig",
          "type": "tuple"
        }
      ],
      "name": "setTokenGate",
      "outputs": [],
      "stateMutability": "nonpayable",
      "type": "function"
    },
    {
      "inputs": [
        {
          "internalType": "address",
          "name": "_zkVerifier",
          "type": "address"
        }
      ],
      "name": "setZKVerifier",
      "outputs": [],
      "stateMutability": "nonpayable",
      "type": "function"
    },
    {
      "inputs": [],
      "name": "splitMain",
      "outputs": [
        {
          "internalType": "address",
          "name": "",
          "type": "address"
        }
      ],
      "stateMutability": "view",
      "type": "function"
    },
    {
      "inputs": [],
      "name": "splitWallet",
      "outputs": [
        {
          "internalType": "address",
          "name": "",
          "type": "address"
        }
      ],
      "stateMutability": "view",
      "type": "function"
    },
    {
      "inputs": [
        {
          "internalType": "bytes4",
          "name": "interfaceId",
          "type": "bytes4"
        }
      ],
      "name": "supportsInterface",
      "outputs": [
        {
          "internalType": "bool",
          "name": "",
          "type": "bool"
        }
      ],
      "stateMutability": "view",
      "type": "function"
    },
    {
      "inputs": [],
      "name": "symbol",
      "outputs": [
        {
          "internalType": "string",
          "name": "",
          "type": "string"
        }
      ],
      "stateMutability": "view",
      "type": "function"
    },
    {
      "inputs": [],
      "name": "tokenGateConfig",
      "outputs": [
        {
          "internalType": "address",
          "name": "tokenAddress",
          "type": "address"
        },
        {
          "internalType": "uint88",
          "name": "minBalance",
          "type": "uint88"
        },
        {
          "internalType": "enum SaleType",
          "name": "saleType",
          "type": "uint8"
        }
      ],
      "stateMutability": "view",
      "type": "function"
    },
    {
      "inputs": [],
      "name": "tokenPrice",
      "outputs": [
        {
          "internalType": "uint96",
          "name": "",
          "type": "uint96"
        }
      ],
      "stateMutability": "view",
      "type": "function"
    },
    {
      "inputs": [
        {
          "internalType": "uint256",
          "name": "tokenId",
          "type": "uint256"
        }
      ],
      "name": "tokenURI",
      "outputs": [
        {
          "internalType": "string",
          "name": "",
          "type": "string"
        }
      ],
      "stateMutability": "view",
      "type": "function"
    },
    {
      "inputs": [],
      "name": "totalSupply",
      "outputs": [
        {
          "internalType": "uint256",
          "name": "",
          "type": "uint256"
        }
      ],
      "stateMutability": "view",
      "type": "function"
    },
    {
      "inputs": [
        {
          "internalType": "address",
          "name": "from",
          "type": "address"
        },
        {
          "internalType": "address",
          "name": "to",
          "type": "address"
        },
        {
          "internalType": "uint256",
          "name": "tokenId",
          "type": "uint256"
        }
      ],
      "name": "transferFrom",
      "outputs": [],
      "stateMutability": "nonpayable",
      "type": "function"
    },
    {
      "inputs": [
        {
          "internalType": "address",
          "name": "newOwner",
          "type": "address"
        }
      ],
      "name": "transferOwnership",
      "outputs": [],
      "stateMutability": "nonpayable",
      "type": "function"
    },
    {
      "inputs": [
        {
          "internalType": "uint256",
          "name": "transferETH",
          "type": "uint256"
        },
        {
          "internalType": "contract ERC20[]",
          "name": "tokens",
          "type": "address[]"
        }
      ],
      "name": "transferToSplit",
      "outputs": [],
      "stateMutability": "nonpayable",
      "type": "function"
    },
    {
      "inputs": [
        {
          "internalType": "bool",
          "name": "enable",
          "type": "bool"
        },
        {
          "internalType": "address",
          "name": "operatorFilter",
          "type": "address"
        }
      ],
      "name": "updateOperatorFilter",
      "outputs": [],
      "stateMutability": "nonpayable",
      "type": "function"
    },
    {
      "inputs": [
        {
          "internalType": "uint32",
          "name": "newStart",
          "type": "uint32"
        },
        {
          "internalType": "uint32",
          "name": "newEnd",
          "type": "uint32"
        }
      ],
      "name": "updatePresaleStartEnd",
      "outputs": [],
      "stateMutability": "nonpayable",
      "type": "function"
    },
    {
      "inputs": [
        {
          "internalType": "uint32",
          "name": "newStart",
          "type": "uint32"
        },
        {
          "internalType": "uint32",
          "name": "newEnd",
          "type": "uint32"
        }
      ],
      "name": "updateSaleStartEnd",
      "outputs": [],
      "stateMutability": "nonpayable",
      "type": "function"
    },
    {
      "inputs": [],
      "name": "withdraw",
      "outputs": [],
      "stateMutability": "nonpayable",
      "type": "function"
    },
    {
      "inputs": [
        {
          "internalType": "address",
          "name": "recipient",
          "type": "address"
        }
      ],
      "name": "zkClaim",
      "outputs": [],
      "stateMutability": "nonpayable",
      "type": "function"
    },
    {
      "inputs": [],
      "name": "zkVerifier",
      "outputs": [
        {
          "internalType": "address",
          "name": "",
          "type": "address"
        }
      ],
      "stateMutability": "view",
      "type": "function"
    }
  ],
  "bytecode": "0x60a06040523480156200001157600080fd5b5060086200001f336200002e565b63ffffffff166080526200008a565b600a80546001600160a01b038381166201000081810262010000600160b01b031985161790945560405193909204169182907f8be0079c531659141344cd1fd0a4f28419497f9722a3daafe3b4186f6b6457e090600090a35050565b608051615aa9620000a66000396000610b850152615aa96000f3fe6080604052600436106104465760003560e01c806379ab7c8e11610234578063c4559d5a1161012e578063e8a3d485116100b6578063f2fde38b1161007a578063f2fde38b14610ea8578063f47c84c514610ec8578063f7eca6d014610ee9578063fd4fe8a814610f06578063ff45640d14610f2657600080fd5b8063e8a3d48514610df5578063e985e9c514610e0a578063eb8d244414610e53578063ed1f24ad14610e68578063f0cc8b6214610e8857600080fd5b8063d0fb0203116100fd578063d0fb020314610d52578063d547741f14610d72578063d6df096d14610d92578063de8801e514610db2578063e6c350c114610dd457600080fd5b8063c4559d5a14610cd2578063c509034614610cf2578063c595317014610d12578063c87b56dd14610d3257600080fd5b8063a0a8e460116101bc578063b80476d011610180578063b80476d014610c22578063b88d4fde14610c42578063b9139dcb14610c62578063b9c9d93a14610c82578063c10b935814610cb057600080fd5b8063a0a8e46014610b76578063a217fddf14610ba9578063a22cb46514610bbe578063ab0bcc4114610bde578063b0ccc31e14610c0057600080fd5b80638e98f86a116102035780638e98f86a146109ef57806391d1485414610b09578063931cf0f414610b29578063938e3d7b14610b4157806395d89b4114610b6157600080fd5b806379ab7c8e146109635780637ff9b596146109835780638a35ace3146109ab5780638da5cb5b146109cb57600080fd5b80632f2ff15d1161034557806355f804b3116102cd5780636c1951ae116102915780636c1951ae146108ce57806370319970146108ee57806370a082311461090e578063713b97871461092e578063715018a61461094e57600080fd5b806355f804b314610834578063569c66c5146108545780635b8d02d7146108745780636352211e146108995780636c0360eb146108b957600080fd5b806336568abe1161031457806336568abe146107ac5780633ccfd60b146107cc57806340c10f19146107e157806342842e0e146107f457806351b5a28c1461081457600080fd5b80632f2ff15d1461073757806333ea3e6d1461075757806333ea51a81461077757806334918dfd1461079757600080fd5b806318160ddd116103d3578063248a9ca311610397578063248a9ca314610668578063284a44a81461069857806328d7b276146106b85780632a55205a146106d85780632d75fea61461071757600080fd5b806318160ddd146105a25780631dbdedbd146105c557806322212e2b14610611578063229f3e291461062657806323b872dd1461064857600080fd5b8063095ea7b31161041a578063095ea7b3146104fc57806309aa3dcf1461051c5780630ad6c6161461054f5780630b8999f31461056f5780630e769b2b1461058257600080fd5b80625f16fb1461044b57806301ffc9a71461046d57806306fdde03146104a2578063081812fc146104c4575b600080fd5b34801561045757600080fd5b5061046b610466366004614692565b610f46565b005b34801561047957600080fd5b5061048d61048836600461474f565b610ffd565b60405190151581526020015b60405180910390f35b3480156104ae57600080fd5b506104b7611046565b60405161049991906147bc565b3480156104d057600080fd5b506104e46104df3660046147cf565b6110d8565b6040516001600160a01b039091168152602001610499565b34801561050857600080fd5b5061046b6105173660046147e8565b61111c565b34801561052857600080fd5b50600d54600160301b900463ffffffff165b60405163ffffffff9091168152602001610499565b34801561055b57600080fd5b5061046b61056a366004614814565b611135565b61046b61057d366004614847565b61119c565b34801561058e57600080fd5b50600b546104e4906001600160a01b031681565b3480156105ae57600080fd5b50600154600054035b604051908152602001610499565b3480156105d157600080fd5b50600954610602906001600160a01b03811690600160a01b81046001600160581b031690600160f81b900460ff1683565b604051610499939291906148cf565b34801561061d57600080fd5b50600f546105b7565b34801561063257600080fd5b50600d54600160701b900463ffffffff1661053a565b34801561065457600080fd5b5061046b61066336600461491a565b611672565b34801561067457600080fd5b506105b76106833660046147cf565b60009081526008602052604090206001015490565b3480156106a457600080fd5b5061046b6106b3366004614a52565b611818565b3480156106c457600080fd5b5061046b6106d33660046147cf565b6118af565b3480156106e457600080fd5b506106f86106f3366004614b26565b6118db565b604080516001600160a01b039093168352602083019190915201610499565b34801561072357600080fd5b5061046b610732366004614b61565b6119c6565b34801561074357600080fd5b5061046b610752366004614b9a565b611bd3565b34801561076357600080fd5b5061046b610772366004614bbf565b611bf8565b34801561078357600080fd5b5061046b610792366004614c50565b611d05565b3480156107a357600080fd5b5061046b611d54565b3480156107b857600080fd5b5061046b6107c7366004614b9a565b611d9c565b3480156107d857600080fd5b5061046b611e1a565b61046b6107ef3660046147e8565b611f5e565b34801561080057600080fd5b5061046b61080f36600461491a565b6123f0565b34801561082057600080fd5b5061046b61082f366004614fba565b61240b565b34801561084057600080fd5b5061046b61084f366004615068565b612908565b34801561086057600080fd5b5061046b61086f36600461509c565b61293b565b34801561088057600080fd5b50600e54600160601b90046001600160a01b03166104e4565b3480156108a557600080fd5b506104e46108b43660046147cf565b612e25565b3480156108c557600080fd5b506104b7612e30565b3480156108da57600080fd5b5061046b6108e93660046147cf565b612ebe565b3480156108fa57600080fd5b506012546104e4906001600160a01b031681565b34801561091a57600080fd5b506105b7610929366004614c50565b612f59565b34801561093a57600080fd5b50600c546104e4906001600160a01b031681565b34801561095a57600080fd5b5061046b612fa7565b34801561096f57600080fd5b5061046b61097e366004615138565b612fbb565b34801561098f57600080fd5b50600e546040516001600160601b039091168152602001610499565b3480156109b757600080fd5b506105b76109c63660046147cf565b61302f565b3480156109d757600080fd5b50600a546201000090046001600160a01b03166104e4565b3480156109fb57600080fd5b50600d54600e54600f54610a869260ff8082169361010083049091169262010000830463ffffffff90811693600160301b8104821693600160501b8204831693600160701b8304841693600160901b8404811693600160b01b810490911692600160d01b90910461ffff16916001600160601b03821691600160601b90046001600160a01b0316908c565b604080519c15158d529a151560208d015263ffffffff998a169a8c019a909a5296881660608b015294871660808a015292861660a089015290851660c088015290931660e086015261ffff9092166101008501526001600160601b039091166101208401526001600160a01b031661014083015261016082015261018001610499565b348015610b1557600080fd5b5061048d610b24366004614b9a565b6130cb565b348015610b3557600080fd5b50600d5460ff1661048d565b348015610b4d57600080fd5b5061046b610b5c366004615068565b6130f6565b348015610b6d57600080fd5b506104b7613129565b348015610b8257600080fd5b507f000000000000000000000000000000000000000000000000000000000000000061053a565b348015610bb557600080fd5b506105b7600081565b348015610bca57600080fd5b5061046b610bd9366004615174565b613138565b348015610bea57600080fd5b50600d54600160901b900463ffffffff1661053a565b348015610c0c57600080fd5b506104e46daaeb6d7670e522a718067333cd4e81565b348015610c2e57600080fd5b5061046b610c3d3660046151a2565b61314c565b348015610c4e57600080fd5b5061046b610c5d3660046151bd565b61324b565b348015610c6e57600080fd5b5061046b610c7d366004614c50565b613295565b348015610c8e57600080fd5b50600d54600160d01b900461ffff1660405161ffff9091168152602001610499565b348015610cbc57600080fd5b50600d54600160b01b900463ffffffff1661053a565b348015610cde57600080fd5b5061046b610ced366004615228565b613369565b348015610cfe57600080fd5b5061046b610d0d366004614c50565b613413565b348015610d1e57600080fd5b5061046b610d2d3660046152ad565b61343d565b348015610d3e57600080fd5b506104b7610d4d3660046147cf565b61354a565b348015610d5e57600080fd5b506014546104e4906001600160a01b031681565b348015610d7e57600080fd5b5061046b610d8d366004614b9a565b6135fd565b348015610d9e57600080fd5b506015546104e4906001600160a01b031681565b348015610dbe57600080fd5b50600d54600160501b900463ffffffff1661053a565b348015610de057600080fd5b5060125461048d90600160a01b900460ff1681565b348015610e0157600080fd5b506104b7613622565b348015610e1657600080fd5b5061048d610e253660046152ee565b6001600160a01b03918216600090815260076020908152604080832093909416825291909152205460ff1690565b348015610e5f57600080fd5b5061048d6136c2565b348015610e7457600080fd5b5061046b610e83366004614814565b61370c565b348015610e9457600080fd5b506013546104e4906001600160a01b031681565b348015610eb457600080fd5b5061046b610ec3366004614c50565b613773565b348015610ed457600080fd5b50600d5462010000900463ffffffff1661053a565b348015610ef557600080fd5b50600d54610100900460ff1661048d565b348015610f1257600080fd5b5061046b610f21366004614c50565b6137ec565b348015610f3257600080fd5b5061046b610f4136600461530c565b613835565b600c546001600160a01b0316610f775760405162461bcd60e51b8152600401610f6e90615324565b60405180910390fd5b610f8087613869565b600b54600c54604051630ac0898160e11b81526001600160a01b0392831692631581130292610fc2929116908b908b908b908b908b908b908b906004016153d5565b600060405180830381600087803b158015610fdc57600080fd5b505af1158015610ff0573d6000803e3d6000fd5b5050505050505050505050565b600063152a902d60e11b6001600160e01b03198316148061102257506110228261394d565b80611031575061103182613982565b8061104057506110408261394d565b92915050565b60606002805461105590615437565b80601f016020809104026020016040519081016040528092919081815260200182805461108190615437565b80156110ce5780601f106110a3576101008083540402835291602001916110ce565b820191906000526020600020905b8154815290600101906020018083116110b157829003601f168201915b5050505050905090565b60006110e3826139d0565b611100576040516333d1c03960e21b815260040160405180910390fd5b506000908152600660205260409020546001600160a01b031690565b81611126816139f7565b6111308383613ab0565b505050565b6111406000336130cb565b61115c5760405162461bcd60e51b8152600401610f6e9061546b565b600d805467ffffffffffffffff60901b1916600160901b63ffffffff9485160263ffffffff60b01b191617600160b01b9290931691909102919091179055565b6009546001906001600160a01b03161580159061120557506000600954600160f81b900460ff1660028111156111d4576111d46148b9565b1480611205575080801561120557506001600954600160f81b900460ff166002811115611203576112036148b9565b145b8061123657508015801561123657506002600954600160f81b900460ff166002811115611234576112346148b9565b145b15611302576009546040516370a0823160e01b8152336004820152600160a01b82046001600160581b0316916001600160a01b0316906370a08231906024016020604051808303816000875af1158015611294573d6000803e3d6000fd5b505050506040513d601f19601f820116820180604052508101906112b8919061548e565b10156113025760405162461bcd60e51b81526020600482015260196024820152783237903737ba1037bbb7103932b8bab4b932b2103a37b5b2b760391b6044820152606401610f6e565b600d54600160501b900463ffffffff1642108015906113305750600d54600160701b900463ffffffff164211155b61136a5760405162461bcd60e51b815260206004820152600b60248201526a6e6f742070726573616c6560a81b6044820152606401610f6e565b600054601254600160a01b900460ff16156113c75760405162461bcd60e51b815260206004820152601b60248201527f53616c65206d7573742062652061637469766520746f206d696e7400000000006044820152606401610f6e565b600d5462010000900463ffffffff166113e088836154bd565b11156113fe5760405162461bcd60e51b8152600401610f6e906154d0565b61148284848080602002602001604051908101604052809392919081815260200183836020028082843760009201919091525050600f546040516bffffffffffffffffffffffff1960608f901b166020820152603481018c9052605481018b9052909250607401905060405160208183030381529060405280519060200120613b50565b6114bd5760405162461bcd60e51b815260206004820152600c60248201526b1b9bdd08185c1c1c9bdd995960a21b6044820152606401610f6e565b60145460009081906001600160a01b03161561154c57601454604051637096335b60e01b815260048101899052602481018b90526001600160a01b0390911690637096335b906044016040805180830381865afa158015611522573d6000803e3d6000fd5b505050506040513d601f19601f820116820180604052508101906115469190615505565b90925090505b6000826115598b8a615529565b61156391906154bd565b9050803410156115aa5760405162461bcd60e51b8152602060048201526012602482015271496e73756666696369656e742066756e647360701b6044820152606401610f6e565b888a6115b58d612f59565b6115bf91906154bd565b11156115ff5760405162461bcd60e51b815260206004820152600f60248201526e6d696e74656420746f6f206d616e7960881b6044820152606401610f6e565b6116098b8b613b66565b61161b61161683856154bd565b613b80565b60005b8a81101561166457604080516001600160a01b038e16815260208101879052600190960195600080516020615a54833981519152910160405180910390a160010161161e565b505050505050505050505050565b600061167d82613c65565b9050836001600160a01b0316816001600160a01b0316146116b05760405162a1148160e81b815260040160405180910390fd5b60008281526006602052604090208054338082146001600160a01b038816909114176116fd576116e08633610e25565b6116fd57604051632ce44b5f60e11b815260040160405180910390fd5b6001600160a01b03851661172457604051633a954ecd60e21b815260040160405180910390fd5b6117318686866001613cd3565b801561173c57600082555b6001600160a01b038681166000908152600560205260408082208054600019019055918716808252919020805460010190554260a01b17600160e11b17600085815260046020526040812091909155600160e11b841690036117ce576001840160008181526004602052604081205490036117cc5760005481146117cc5760008181526004602052604090208490555b505b83856001600160a01b0316876001600160a01b03167fddf252ad1be2c89b69c2b068fc378daa952ba7f163c4a11628f55a4df523b3ef60405160405180910390a45b505050505050565b600c546001600160a01b03166118405760405162461bcd60e51b8152600401610f6e90615324565b871561185457611854868686868686613369565b60005b87518110156118985761188888828151811061187557611875615540565b6020026020010151888888888888610f46565b61189181615556565b9050611857565b506118a4898989613d54565b505050505050505050565b6118ba6000336130cb565b6118d65760405162461bcd60e51b8152600401610f6e9061546b565b600f55565b6000806118e7846139d0565b6119275760405162461bcd60e51b81526020600482015260116024820152702737b732bc34b9ba32b73a103a37b5b2b760791b6044820152606401610f6e565b600c546001600160a01b03161561194b57600c546001600160a01b03169150611992565b600e54600160601b90046001600160a01b03161561197d57600e54600160601b90046001600160a01b03169150611992565b600a546201000090046001600160a01b031691505b600d54600090612710906119b190600160d01b900461ffff1686615529565b6119bb919061556f565b9150505b9250929050565b6119d16000336130cb565b6119ed5760405162461bcd60e51b8152600401610f6e9061546b565b60405163c3c5a54760e01b81523060048201819052906daaeb6d7670e522a718067333cd4e9063c3c5a547906024016020604051808303816000875af1158015611a3b573d6000803e3d6000fd5b505050506040513d601f19601f82011682018060405250810190611a5f9190615591565b158015611a695750825b15611ae357604051633e9f1edf60e11b81526001600160a01b038083166004830152831660248201526daaeb6d7670e522a718067333cd4e90637d3e3dbe906044015b600060405180830381600087803b158015611ac657600080fd5b505af1158015611ada573d6000803e3d6000fd5b50505050505050565b8215611b2b57604051632cc5350560e21b81526001600160a01b038083166004830152831660248201526daaeb6d7670e522a718067333cd4e9063b314d41490604401611aac565b60405163034a0dc160e41b81526001600160a01b0382166004820152600060248201526daaeb6d7670e522a718067333cd4e906334a0dc1090604401600060405180830381600087803b158015611b8157600080fd5b505af1158015611b95573d6000803e3d6000fd5b5050604051631761612360e11b81526001600160a01b03841660048201526daaeb6d7670e522a718067333cd4e9250632ec2c2469150602401611aac565b600082815260086020526040902060010154611bee81613d88565b6111308383613d92565b611c00613e18565b600c546001600160a01b031615611c515760405162461bcd60e51b815260206004820152601560248201527414dc1b1a5d08185b1c9958591e4818dc99585d1959605a1b6044820152606401610f6e565b600b80546001600160a01b0319166001600160a01b038816908117909155604051633b00fbc160e11b8152637601f78290611c9a908890889088908890889033906004016155ae565b6020604051808303816000875af1158015611cb9573d6000803e3d6000fd5b505050506040513d601f19601f82011682018060405250810190611cdd91906155ff565b600c80546001600160a01b0319166001600160a01b0392909216919091179055505050505050565b611d106000336130cb565b611d2c5760405162461bcd60e51b8152600401610f6e9061546b565b600e80546001600160a01b03909216600160601b026001600160601b03909216919091179055565b611d5f6000336130cb565b611d7b5760405162461bcd60e51b8152600401610f6e9061546b565b6012805460ff60a01b198116600160a01b9182900460ff1615909102179055565b6001600160a01b0381163314611e0c5760405162461bcd60e51b815260206004820152602f60248201527f416363657373436f6e74726f6c3a2063616e206f6e6c792072656e6f756e636560448201526e103937b632b9903337b91039b2b63360891b6064820152608401610f6e565b611e168282613e79565b5050565b600c546001600160a01b031615611e7f5760405162461bcd60e51b8152602060048201526024808201527f43616e6e6f74207769746864726177207769746820616e2061637469766520736044820152631c1b1a5d60e21b6064820152608401610f6e565b600e54600090600160601b90046001600160a01b0316611eb057600a546201000090046001600160a01b0316611ec4565b600e54600160601b90046001600160a01b03165b90506000816001600160a01b03164760405160006040518083038185875af1925050503d8060008114611f13576040519150601f19603f3d011682016040523d82523d6000602084013e611f18565b606091505b5050905080611e165760405162461bcd60e51b8152602060048201526012602482015271436f756c64206e6f7420776974686472617760701b6044820152606401610f6e565b6009546000906001600160a01b031615801590611fc757506000600954600160f81b900460ff166002811115611f9657611f966148b9565b1480611fc75750808015611fc757506001600954600160f81b900460ff166002811115611fc557611fc56148b9565b145b80611ff8575080158015611ff857506002600954600160f81b900460ff166002811115611ff657611ff66148b9565b145b156120c4576009546040516370a0823160e01b8152336004820152600160a01b82046001600160581b0316916001600160a01b0316906370a08231906024016020604051808303816000875af1158015612056573d6000803e3d6000fd5b505050506040513d601f19601f8201168201806040525081019061207a919061548e565b10156120c45760405162461bcd60e51b81526020600482015260196024820152783237903737ba1037bbb7103932b8bab4b932b2103a37b5b2b760391b6044820152606401610f6e565b600054600d54600160901b900463ffffffff1642108015906120f55750600d54600160b01b900463ffffffff164211155b6121395760405162461bcd60e51b815260206004820152601560248201527429b0b632b99030b932903737ba1030b1ba34bb329760591b6044820152606401610f6e565b601254600160a01b900460ff16156121935760405162461bcd60e51b815260206004820152601b60248201527f53616c65206d7573742062652061637469766520746f206d696e7400000000006044820152606401610f6e565b600d5462010000900463ffffffff166121ac84836154bd565b11156121ca5760405162461bcd60e51b8152600401610f6e906154d0565b600d5462010000900463ffffffff168111156122135760405162461bcd60e51b815260206004820152600860248201526714d3d3110813d55560c21b6044820152606401610f6e565b60145460009081906001600160a01b0316156122ae57601454600e54604051637096335b60e01b81526001600160601b039091166004820152602481018790526001600160a01b0390911690637096335b906044016040805180830381865afa158015612284573d6000803e3d6000fd5b505050506040513d601f19601f820116820180604052508101906122a89190615505565b90925090505b600e5460009083906122ca9088906001600160601b0316615529565b6122d491906154bd565b90508034101561231b5760405162461bcd60e51b8152602060048201526012602482015271496e73756666696369656e742066756e647360701b6044820152606401610f6e565b600d54600160301b900463ffffffff161561238f57600d54600160301b900463ffffffff1686111561238f5760405162461bcd60e51b815260206004820152601c60248201527f4578636565646564206d6178206e756d62657220706572206d696e74000000006044820152606401610f6e565b6123998787613b66565b60005b868110156123e257604080516001600160a01b038a16815260208101879052600190960195600080516020615a54833981519152910160405180910390a160010161239c565b50611ada61161683856154bd565b6111308383836040518060200160405280600081525061324b565b600a54610100900460ff161580801561242b5750600a54600160ff909116105b806124455750303b1580156124455750600a5460ff166001145b6124615760405162461bcd60e51b8152600401610f6e9061561c565b600a805460ff19166001179055801561248457600a805461ff0019166101001790555b61248d87613ee0565b612498600088613d92565b85516002906124a790826156b0565b5060208601516003906124ba90826156b0565b50600080556060850151601380546001600160a01b039283166001600160a01b031990911617905584516009805460208801516001600160581b0316600160a01b026001600160f81b0319909116929093169190911791909117808255604086015186929182906001600160f81b0316600160f81b836002811115612541576125416148b9565b021790555090505081601560006101000a8154816001600160a01b0302191690836001600160a01b03160217905550604051806101800160405280876040015115158152602001876060015115158152602001876080015163ffffffff1681526020018760a0015163ffffffff1681526020018760c0015163ffffffff1681526020018760e0015163ffffffff16815260200187610100015163ffffffff16815260200187610120015163ffffffff16815260200187610140015161ffff1681526020018761016001516001600160601b03168152602001876101a001516001600160a01b03168152602001876101c00151815250600d60008201518160000160006101000a81548160ff02191690831515021790555060208201518160000160016101000a81548160ff02191690831515021790555060408201518160000160026101000a81548163ffffffff021916908363ffffffff16021790555060608201518160000160066101000a81548163ffffffff021916908363ffffffff160217905550608082015181600001600a6101000a81548163ffffffff021916908363ffffffff16021790555060a082015181600001600e6101000a81548163ffffffff021916908363ffffffff16021790555060c08201518160000160126101000a81548163ffffffff021916908363ffffffff16021790555060e08201518160000160166101000a81548163ffffffff021916908363ffffffff16021790555061010082015181600001601a6101000a81548161ffff021916908361ffff1602179055506101208201518160010160006101000a8154816001600160601b0302191690836001600160601b0316021790555061014082015181600101600c6101000a8154816001600160a01b0302191690836001600160a01b03160217905550610160820151816002015590505060006001600160a01b0316836001600160a01b03161415801561281857506000856040015151115b1561289657601280546001600160a01b0319166001600160a01b03851690811790915560408681015190516342b53ffd60e11b815263856a7ffa9161285f916004016147bc565b600060405180830381600087803b15801561287957600080fd5b505af115801561288d573d6000803e3d6000fd5b505050506128ba565b84516011906128a590826156b0565b5060208501516010906128b890826156b0565b505b8015611ada57600a805461ff0019169055604051600181527f7f26b83ff96e1f2b6a682f133852f6798a09c465da95921460cefb38474024989060200160405180910390a150505050505050565b6129136000336130cb565b61292f5760405162461bcd60e51b8152600401610f6e9061546b565b6010611e1682826156b0565b600a54610100900460ff161580801561295b5750600a54600160ff909116105b806129755750303b1580156129755750600a5460ff166001145b6129915760405162461bcd60e51b8152600401610f6e9061561c565b600a805460ff1916600117905580156129b457600a805461ff0019166101001790555b6129bd86613ee0565b6129c8600087613d92565b84516002906129d790826156b0565b5060208501516003906129ea90826156b0565b5060008055610180850151601480546001600160a01b039283166001600160a01b0319918216179091556060860151601380549184169190921617905583516009805460208701516001600160581b0316600160a01b026001600160f81b0319909116929093169190911791909117808255604085015185929182906001600160f81b0316600160f81b836002811115612a8657612a866148b9565b0217905550905050604051806101800160405280866040015115158152602001866060015115158152602001866080015163ffffffff1681526020018660a0015163ffffffff1681526020018660c0015163ffffffff1681526020018660e0015163ffffffff16815260200186610100015163ffffffff16815260200186610120015163ffffffff16815260200186610140015161ffff1681526020018661016001516001600160601b03168152602001866101a001516001600160a01b03168152602001866101c00151815250600d60008201518160000160006101000a81548160ff02191690831515021790555060208201518160000160016101000a81548160ff02191690831515021790555060408201518160000160026101000a81548163ffffffff021916908363ffffffff16021790555060608201518160000160066101000a81548163ffffffff021916908363ffffffff160217905550608082015181600001600a6101000a81548163ffffffff021916908363ffffffff16021790555060a082015181600001600e6101000a81548163ffffffff021916908363ffffffff16021790555060c08201518160000160126101000a81548163ffffffff021916908363ffffffff16021790555060e08201518160000160166101000a81548163ffffffff021916908363ffffffff16021790555061010082015181600001601a6101000a81548161ffff021916908361ffff1602179055506101208201518160010160006101000a8154816001600160601b0302191690836001600160601b0316021790555061014082015181600101600c6101000a8154816001600160a01b0302191690836001600160a01b03160217905550610160820151816002015590505060006001600160a01b0316826001600160a01b031614158015612d3657506000846040015151115b15612db457601280546001600160a01b0319166001600160a01b03841690811790915560408581015190516342b53ffd60e11b815263856a7ffa91612d7d916004016147bc565b600060405180830381600087803b158015612d9757600080fd5b505af1158015612dab573d6000803e3d6000fd5b50505050612dd8565b8351601190612dc390826156b0565b506020840151601090612dd690826156b0565b505b801561181057600a805461ff0019169055604051600181527f7f26b83ff96e1f2b6a682f133852f6798a09c465da95921460cefb38474024989060200160405180910390a1505050505050565b600061104082613c65565b60108054612e3d90615437565b80601f0160208091040260200160405190810160405280929190818152602001828054612e6990615437565b8015612eb65780601f10612e8b57610100808354040283529160200191612eb6565b820191906000526020600020905b815481529060010190602001808311612e9957829003601f168201915b505050505081565b612ec96000336130cb565b612ee55760405162461bcd60e51b8152600401610f6e9061546b565b600054600d5462010000900463ffffffff16612f0183836154bd565b10612f1e5760405162461bcd60e51b8152600401610f6e906154d0565b60005b8281101561113057612f4733612f3783856154bd565b612f429060016154bd565b613b66565b80612f5181615556565b915050612f21565b60006001600160a01b038216612f82576040516323d3ad8160e21b815260040160405180910390fd5b506001600160a01b03166000908152600560205260409020546001600160401b031690565b612faf613e18565b612fb96000613ee0565b565b600c546001600160a01b0316612fe35760405162461bcd60e51b8152600401610f6e90615324565b8115612ff157612ff1613f3c565b60005b81518110156111305761301f82828151811061301257613012615540565b6020026020010151613869565b61302881615556565b9050612ff4565b6014546000906001600160a01b0316156130c657601454600e54604051637096335b60e01b81526001600160601b039091166004820152602481018490526001600160a01b0390911690637096335b906044016040805180830381865afa15801561309e573d6000803e3d6000fd5b505050506040513d601f19601f820116820180604052508101906130c29190615505565b5090505b919050565b60009182526008602090815260408084206001600160a01b0393909316845291905290205460ff1690565b6131016000336130cb565b61311d5760405162461bcd60e51b8152600401610f6e9061546b565b6011611e1682826156b0565b60606003805461105590615437565b81613142816139f7565b6111308383613fdf565b6131576000336130cb565b6131735760405162461bcd60e51b8152600401610f6e9061546b565b600d5460ff166131d35760405162461bcd60e51b815260206004820152602560248201527f63616e6e6f742061646a7573742073697a65206f66207468697320636f6c6c6560448201526431ba34b7b760d91b6064820152608401610f6e565b8063ffffffff166131e360005490565b11156132275760405162461bcd60e51b8152602060048201526013602482015272063616e6e6f742064656372656173652063617606c1b6044820152606401610f6e565b600d805463ffffffff909216620100000265ffffffff000019909216919091179055565b613256848484611672565b6001600160a01b0383163b1561328f5761327284848484614074565b61328f576040516368d2bf6b60e11b815260040160405180910390fd5b50505050565b6015546001600160a01b031633146132ef5760405162461bcd60e51b815260206004820152601860248201527f4f6e6c79207a6b56657269666965722063616e2063616c6c00000000000000006044820152606401610f6e565b600054600d5462010000900463ffffffff1661330c8260016154bd565b111561332a5760405162461bcd60e51b8152600401610f6e906154d0565b613335826001613b66565b604080516001600160a01b038416815260208101839052600080516020615a54833981519152910160405180910390a15050565b600c546001600160a01b03166133915760405162461bcd60e51b8152600401610f6e90615324565b613399613f3c565b600b54600c5460405163730e582f60e11b81526001600160a01b039283169263e61cb05e926133d9929116908a908a908a908a908a908a9060040161576f565b600060405180830381600087803b1580156133f357600080fd5b505af1158015613407573d6000803e3d6000fd5b50505050505050505050565b61341b613e18565b601580546001600160a01b0319166001600160a01b0392909216919091179055565b6134486000336130cb565b6134645760405162461bcd60e51b8152600401610f6e9061546b565b600054600d54819062010000900463ffffffff1661348284836154bd565b11156134a05760405162461bcd60e51b8152600401610f6e906154d0565b8183015b80831015613543576134df85858486038181106134c3576134c3615540565b90506020020160208101906134d89190614c50565b6001613b66565b600080516020615a54833981519152858584860381811061350257613502615540565b90506020020160208101906135179190614c50565b604080516001600160a01b039092168252602082018690520160405180910390a16001909201916134a4565b5050505050565b6060613555826139d0565b61357257604051630a14c4b560e41b815260040160405180910390fd5b6012546001600160a01b0316156135f45760125460405163c87b56dd60e01b8152600481018490526001600160a01b039091169063c87b56dd90602401600060405180830381865afa1580156135cc573d6000803e3d6000fd5b505050506040513d6000823e601f3d908101601f1916820160405261104091908101906157c8565b61104082614160565b60008281526008602052604090206001015461361881613d88565b6111308383613e79565b6012546060906001600160a01b0316613642576011805461105590615437565b601260009054906101000a90046001600160a01b03166001600160a01b031663e8a3d4856040518163ffffffff1660e01b8152600401600060405180830381865afa158015613695573d6000803e3d6000fd5b505050506040513d6000823e601f3d908101601f191682016040526136bd91908101906157c8565b905090565b600d54600090600160901b900463ffffffff1642108015906136f35750600d54600160b01b900463ffffffff164211155b80156136bd575050601254600160a01b900460ff161590565b6137176000336130cb565b6137335760405162461bcd60e51b8152600401610f6e9061546b565b600d805467ffffffffffffffff60501b1916600160501b63ffffffff9485160263ffffffff60701b191617600160701b9290931691909102919091179055565b61377b613e18565b6001600160a01b0381166137e05760405162461bcd60e51b815260206004820152602660248201527f4f776e61626c653a206e6577206f776e657220697320746865207a65726f206160448201526564647265737360d01b6064820152608401610f6e565b6137e981613ee0565b50565b6137f76000336130cb565b6138135760405162461bcd60e51b8152600401610f6e9061546b565b601280546001600160a01b0319166001600160a01b0392909216919091179055565b6138406000336130cb565b61385c5760405162461bcd60e51b8152600401610f6e9061546b565b806009611130828261583e565b6040516370a0823160e01b81523060048201526000906001600160a01b038316906370a0823190602401602060405180830381865afa1580156138b0573d6000803e3d6000fd5b505050506040513d601f19601f820116820180604052508101906138d4919061548e565b600c5460405163a9059cbb60e01b81526001600160a01b0391821660048201526024810183905291925083169063a9059cbb906044016020604051808303816000875af1158015613929573d6000803e3d6000fd5b505050506040513d601f19601f820116820180604052508101906111309190615591565b60006001600160e01b03198216637965db0b60e01b148061104057506301ffc9a760e01b6001600160e01b0319831614611040565b60006301ffc9a760e01b6001600160e01b0319831614806139b357506380ac58cd60e01b6001600160e01b03198316145b806110405750506001600160e01b031916635b5e139f60e01b1490565b6000805482108015611040575050600090815260046020526040902054600160e01b161590565b6daaeb6d7670e522a718067333cd4e3b156137e957604051633185c44d60e21b81523060048201526001600160a01b03821660248201526daaeb6d7670e522a718067333cd4e9063c617113490604401602060405180830381865afa158015613a64573d6000803e3d6000fd5b505050506040513d601f19601f82011682018060405250810190613a889190615591565b6137e957604051633b79c77360e21b81526001600160a01b0382166004820152602401610f6e565b6000613abb82612e25565b9050336001600160a01b03821614613af457613ad78133610e25565b613af4576040516367d9dca160e11b815260040160405180910390fd5b60008281526006602052604080822080546001600160a01b0319166001600160a01b0387811691821790925591518593918516917f8c5be1e5ebec7d5bd14f71427d1e84f3dd0314c0f7b2291e5b200ac8c7c3b92591a4505050565b600082613b5d85846141e3565b14949350505050565b611e16828260405180602001604052806000815250614230565b80156137e957601454604080516319b400eb60e21b815290516000926001600160a01b0316916366d003ac9160048083019260209291908290030181865afa158015613bd0573d6000803e3d6000fd5b505050506040513d601f19601f82011682018060405250810190613bf491906155ff565b6001600160a01b03168260405160006040518083038185875af1925050503d8060008114613c3e576040519150601f19603f3d011682016040523d82523d6000602084013e613c43565b606091505b5050905080611e1657604051634033e4e360e01b815260040160405180910390fd5b600081600054811015613cba5760008181526004602052604081205490600160e01b82169003613cb8575b80600003613cb1575060001901600081815260046020526040902054613c90565b9392505050565b505b604051636f96cda160e11b815260040160405180910390fd5b836001600160a01b0381163314613ced57613ced336139f7565b600d54610100900460ff161580613d1c57506001600160a01b0385161580613d1c57506001600160a01b038416155b6135435760405162461bcd60e51b81526020600482015260096024820152681cdbdd5b189bdd5b9960ba1b6044820152606401610f6e565b600b54604051636e5f691960e01b81526001600160a01b0390911690636e5f691990611aac908690869086906004016158db565b6137e98133614296565b613d9c82826130cb565b611e165760008281526008602090815260408083206001600160a01b03851684529091529020805460ff19166001179055613dd43390565b6001600160a01b0316816001600160a01b0316837f2f8788117e7eff1d82e926ec794901d17c78024a50270940304540a733656f0d60405160405180910390a45050565b600a546001600160a01b0362010000909104163314612fb95760405162461bcd60e51b815260206004820181905260248201527f4f776e61626c653a2063616c6c6572206973206e6f7420746865206f776e65726044820152606401610f6e565b613e8382826130cb565b15611e165760008281526008602090815260408083206001600160a01b0385168085529252808320805460ff1916905551339285917ff6391f5c32d9c69d2a47ea670b442974b53935d1edc7fd64eb21e047a839171b9190a45050565b600a80546001600160a01b038381166201000081810262010000600160b01b031985161790945560405193909204169182907f8be0079c531659141344cd1fd0a4f28419497f9722a3daafe3b4186f6b6457e090600090a35050565b600c546040516000916001600160a01b03169047908381818185875af1925050503d8060008114613f89576040519150601f19603f3d011682016040523d82523d6000602084013e613f8e565b606091505b50509050806137e95760405162461bcd60e51b815260206004820152601f60248201527f436f756c64206e6f74207472616e736665722045544820746f2073706c6974006044820152606401610f6e565b336001600160a01b038316036140085760405163b06307db60e01b815260040160405180910390fd5b3360008181526007602090815260408083206001600160a01b03871680855290835292819020805460ff191686151590811790915590519081529192917f17307eab39ab6107e8899845ad3d59bd9653f200f220920489ca2b5937696c31910160405180910390a35050565b604051630a85bd0160e11b81526000906001600160a01b0385169063150b7a02906140a990339089908890889060040161593e565b6020604051808303816000875af19250505080156140e4575060408051601f3d908101601f191682019092526140e19181019061597b565b60015b614142573d808015614112576040519150601f19603f3d011682016040523d82523d6000602084013e614117565b606091505b50805160000361413a576040516368d2bf6b60e11b815260040160405180910390fd5b805181602001fd5b6001600160e01b031916630a85bd0160e11b1490505b949350505050565b606061416b826139d0565b61418857604051630a14c4b560e41b815260040160405180910390fd5b60006141926142ef565b905080516000036141b25760405180602001604052806000815250613cb1565b806141bc846142fe565b6040516020016141cd929190615998565b6040516020818303038152906040529392505050565b600081815b8451811015614228576142148286838151811061420757614207615540565b6020026020010151614336565b91508061422081615556565b9150506141e8565b509392505050565b61423a8383614362565b6001600160a01b0383163b15611130576000548281035b6142646000868380600101945086614074565b614281576040516368d2bf6b60e11b815260040160405180910390fd5b81811061425157816000541461354357600080fd5b6142a082826130cb565b611e16576142ad8161446d565b6142b883602061447f565b6040516020016142c99291906159c7565b60408051601f198184030181529082905262461bcd60e51b8252610f6e916004016147bc565b60606010805461105590615437565b604080516080019081905280825b600183039250600a81066030018353600a90048061430c5750819003601f19909101908152919050565b6000818310614352576000828152602084905260409020613cb1565b5060009182526020526040902090565b60008054908290036143875760405163b562e8dd60e01b815260040160405180910390fd5b6143946000848385613cd3565b6001600160a01b03831660008181526005602090815260408083208054680100000000000000018802019055848352600490915281206001851460e11b4260a01b178317905582840190839083907fddf252ad1be2c89b69c2b068fc378daa952ba7f163c4a11628f55a4df523b3ef8180a4600183015b81811461444357808360007fddf252ad1be2c89b69c2b068fc378daa952ba7f163c4a11628f55a4df523b3ef600080a460010161440b565b508160000361446457604051622e076360e81b815260040160405180910390fd5b60005550505050565b60606110406001600160a01b03831660145b6060600061448e836002615529565b6144999060026154bd565b6001600160401b038111156144b0576144b061495b565b6040519080825280601f01601f1916602001820160405280156144da576020820181803683370190505b509050600360fc1b816000815181106144f5576144f5615540565b60200101906001600160f81b031916908160001a905350600f60fb1b8160018151811061452457614524615540565b60200101906001600160f81b031916908160001a9053506000614548846002615529565b6145539060016154bd565b90505b60018111156145cb576f181899199a1a9b1b9c1cb0b131b232b360811b85600f166010811061458757614587615540565b1a60f81b82828151811061459d5761459d615540565b60200101906001600160f81b031916908160001a90535060049490941c936145c481615a3c565b9050614556565b508315613cb15760405162461bcd60e51b815260206004820181905260248201527f537472696e67733a20686578206c656e67746820696e73756666696369656e746044820152606401610f6e565b6001600160a01b03811681146137e957600080fd5b60008083601f84011261464157600080fd5b5081356001600160401b0381111561465857600080fd5b6020830191508360208260051b85010111156119bf57600080fd5b803563ffffffff811681146130c657600080fd5b80356130c68161461a565b600080600080600080600060a0888a0312156146ad57600080fd5b87356146b88161461a565b965060208801356001600160401b03808211156146d457600080fd5b6146e08b838c0161462f565b909850965060408a01359150808211156146f957600080fd5b506147068a828b0161462f565b9095509350614719905060608901614673565b915060808801356147298161461a565b8091505092959891949750929550565b6001600160e01b0319811681146137e957600080fd5b60006020828403121561476157600080fd5b8135613cb181614739565b60005b8381101561478757818101518382015260200161476f565b50506000910152565b600081518084526147a881602086016020860161476c565b601f01601f19169290920160200192915050565b602081526000613cb16020830184614790565b6000602082840312156147e157600080fd5b5035919050565b600080604083850312156147fb57600080fd5b82356148068161461a565b946020939093013593505050565b6000806040838503121561482757600080fd5b61483083614673565b915061483e60208401614673565b90509250929050565b60008060008060008060a0878903121561486057600080fd5b863561486b8161461a565b955060208701359450604087013593506060870135925060808701356001600160401b0381111561489b57600080fd5b6148a789828a0161462f565b979a9699509497509295939492505050565b634e487b7160e01b600052602160045260246000fd5b6001600160a01b03841681526001600160581b0383166020820152606081016003831061490c57634e487b7160e01b600052602160045260246000fd5b826040830152949350505050565b60008060006060848603121561492f57600080fd5b833561493a8161461a565b9250602084013561494a8161461a565b929592945050506040919091013590565b634e487b7160e01b600052604160045260246000fd5b6040516101e081016001600160401b03811182821017156149945761499461495b565b60405290565b604051601f8201601f191681016001600160401b03811182821017156149c2576149c261495b565b604052919050565b600082601f8301126149db57600080fd5b813560206001600160401b038211156149f6576149f661495b565b8160051b614a0582820161499a565b9283528481018201928281019087851115614a1f57600080fd5b83870192505b84831015614a47578235614a388161461a565b82529183019190830190614a25565b979650505050505050565b600080600080600080600080600060e08a8c031215614a7057600080fd5b8935614a7b8161461a565b985060208a0135975060408a01356001600160401b0380821115614a9e57600080fd5b614aaa8d838e016149ca565b985060608c0135915080821115614ac057600080fd5b614acc8d838e0161462f565b909850965060808c0135915080821115614ae557600080fd5b50614af28c828d0161462f565b9095509350614b05905060a08b01614673565b915060c08a0135614b158161461a565b809150509295985092959850929598565b60008060408385031215614b3957600080fd5b50508035926020909101359150565b80151581146137e957600080fd5b80356130c681614b48565b60008060408385031215614b7457600080fd5b8235614b7f81614b48565b91506020830135614b8f8161461a565b809150509250929050565b60008060408385031215614bad57600080fd5b823591506020830135614b8f8161461a565b60008060008060008060808789031215614bd857600080fd5b8635614be38161461a565b955060208701356001600160401b0380821115614bff57600080fd5b614c0b8a838b0161462f565b90975095506040890135915080821115614c2457600080fd5b50614c3189828a0161462f565b9094509250614c44905060608801614673565b90509295509295509295565b600060208284031215614c6257600080fd5b8135613cb18161461a565b60006001600160401b03821115614c8657614c8661495b565b50601f01601f191660200190565b600082601f830112614ca557600080fd5b8135614cb8614cb382614c6d565b61499a565b818152846020838601011115614ccd57600080fd5b816020850160208301376000918101602001919091529392505050565b803561ffff811681146130c657600080fd5b80356001600160601b03811681146130c657600080fd5b60006101e08284031215614d2657600080fd5b614d2e614971565b905081356001600160401b0380821115614d4757600080fd5b614d5385838601614c94565b83526020840135915080821115614d6957600080fd5b50614d7684828501614c94565b602083015250614d8860408301614b56565b6040820152614d9960608301614b56565b6060820152614daa60808301614673565b6080820152614dbb60a08301614673565b60a0820152614dcc60c08301614673565b60c0820152614ddd60e08301614673565b60e0820152610100614df0818401614673565b90820152610120614e02838201614673565b90820152610140614e14838201614cea565b90820152610160614e26838201614cfc565b90820152610180614e38838201614687565b908201526101a0614e4a838201614687565b81830152506101c080830135818301525092915050565b600060808284031215614e7357600080fd5b604051608081016001600160401b038282108183111715614e9657614e9661495b565b816040528293508435915080821115614eae57600080fd5b614eba86838701614c94565b83526020850135915080821115614ed057600080fd5b614edc86838701614c94565b60208401526040850135915080821115614ef557600080fd5b50614f0285828601614c94565b6040830152506060830135614f168161461a565b6060919091015292915050565b6001600160581b03811681146137e957600080fd5b600381106137e957600080fd5b600060608284031215614f5757600080fd5b604051606081018181106001600160401b0382111715614f7957614f7961495b565b6040529050808235614f8a8161461a565b81526020830135614f9a81614f23565b60208201526040830135614fad81614f38565b6040919091015292915050565b6000806000806000806101008789031215614fd457600080fd5b8635614fdf8161461a565b955060208701356001600160401b0380821115614ffb57600080fd5b6150078a838b01614d13565b9650604089013591508082111561501d57600080fd5b5061502a89828a01614e61565b94505061503a8860608901614f45565b925060c087013561504a8161461a565b915060e087013561505a8161461a565b809150509295509295509295565b60006020828403121561507a57600080fd5b81356001600160401b0381111561509057600080fd5b61415884828501614c94565b600080600080600060e086880312156150b457600080fd5b85356150bf8161461a565b945060208601356001600160401b03808211156150db57600080fd5b6150e789838a01614d13565b955060408801359150808211156150fd57600080fd5b5061510a88828901614e61565b93505061511a8760608801614f45565b915060c086013561512a8161461a565b809150509295509295909350565b6000806040838503121561514b57600080fd5b8235915060208301356001600160401b0381111561516857600080fd5b6119bb858286016149ca565b6000806040838503121561518757600080fd5b82356151928161461a565b91506020830135614b8f81614b48565b6000602082840312156151b457600080fd5b613cb182614673565b600080600080608085870312156151d357600080fd5b84356151de8161461a565b935060208501356151ee8161461a565b92506040850135915060608501356001600160401b0381111561521057600080fd5b61521c87828801614c94565b91505092959194509250565b6000806000806000806080878903121561524157600080fd5b86356001600160401b038082111561525857600080fd5b6152648a838b0161462f565b9098509650602089013591508082111561527d57600080fd5b5061528a89828a0161462f565b909550935061529d905060408801614673565b9150606087013561505a8161461a565b600080602083850312156152c057600080fd5b82356001600160401b038111156152d657600080fd5b6152e28582860161462f565b90969095509350505050565b6000806040838503121561530157600080fd5b8235614b7f8161461a565b60006060828403121561531e57600080fd5b50919050565b60208082526015908201527414dc1b1a5d081b9bdd0818dc99585d1959081e595d605a1b604082015260600190565b8183526000602080850194508260005b858110156153915781356153768161461a565b6001600160a01b031687529582019590820190600101615363565b509495945050505050565b8183526000602080850194508260005b858110156153915763ffffffff6153c283614673565b16875295820195908201906001016153ac565b600060018060a01b03808b168352808a16602084015260c0604084015261540060c08401898b615353565b838103606085015261541381888a61539c565b63ffffffff969096166080850152509290921660a090910152509695505050505050565b600181811c9082168061544b57607f821691505b60208210810361531e57634e487b7160e01b600052602260045260246000fd5b60208082526009908201526837b7363ca0b236b4b760b91b604082015260600190565b6000602082840312156154a057600080fd5b5051919050565b634e487b7160e01b600052601160045260246000fd5b80820180821115611040576110406154a7565b6020808252818101527f507572636861736520776f756c6420657863656564206d617820737570706c79604082015260600190565b6000806040838503121561551857600080fd5b505080516020909101519092909150565b8082028115828204841417611040576110406154a7565b634e487b7160e01b600052603260045260246000fd5b600060018201615568576155686154a7565b5060010190565b60008261558c57634e487b7160e01b600052601260045260246000fd5b500490565b6000602082840312156155a357600080fd5b8151613cb181614b48565b6080815260006155c260808301888a615353565b82810360208401526155d581878961539c565b63ffffffff95909516604084015250506001600160a01b0391909116606090910152949350505050565b60006020828403121561561157600080fd5b8151613cb18161461a565b6020808252602e908201527f496e697469616c697a61626c653a20636f6e747261637420697320616c72656160408201526d191e481a5b9a5d1a585b1a5e995960921b606082015260800190565b601f82111561113057600081815260208120601f850160051c810160208610156156915750805b601f850160051c820191505b818110156118105782815560010161569d565b81516001600160401b038111156156c9576156c961495b565b6156dd816156d78454615437565b8461566a565b602080601f83116001811461571257600084156156fa5750858301515b600019600386901b1c1916600185901b178555611810565b600085815260208120601f198616915b8281101561574157888601518255948401946001909101908401615722565b508582101561575f5787850151600019600388901b60f8161c191681555b5050505050600190811b01905550565b600060018060a01b03808a16835260a0602084015261579260a08401898b615353565b83810360408501526157a581888a61539c565b63ffffffff96909616606085015250929092166080909101525095945050505050565b6000602082840312156157da57600080fd5b81516001600160401b038111156157f057600080fd5b8201601f8101841361580157600080fd5b805161580f614cb382614c6d565b81815285602083850101111561582457600080fd5b61583582602083016020860161476c565b95945050505050565b81356158498161461a565b81546001600160a01b031981166001600160a01b03929092169182178355602084013561587581614f23565b6affffffffffffffffffffff60a01b60a09190911b166001600160f81b03199182168317811784556040850135916158ac83614f38565b600383106158ca57634e487b7160e01b600052602160045260246000fd5b921760f89190911b90911617905550565b6001600160a01b038481168252602080830185905260606040840181905284519084018190526000928583019290916080860190855b8181101561592f578551851683529483019491830191600101615911565b50909998505050505050505050565b6001600160a01b038581168252841660208201526040810183905260806060820181905260009061597190830184614790565b9695505050505050565b60006020828403121561598d57600080fd5b8151613cb181614739565b600083516159aa81846020880161476c565b8351908301906159be81836020880161476c565b01949350505050565b7f416363657373436f6e74726f6c3a206163636f756e74200000000000000000008152600083516159ff81601785016020880161476c565b7001034b99036b4b9b9b4b733903937b6329607d1b6017918401918201528351615a3081602884016020880161476c565b01602801949350505050565b600081615a4b57615a4b6154a7565b50600019019056fe30385c845b448a36257a6a1716e6ad2e1bc2cbe333cde1e69fe849ad6511adfea2646970667358221220ca45f2f1456e9f0a8362ff2bcdd5de298f4f660f51730277f83157a071ebb89764736f6c63430008110033",
  "linkReferences": {},
  "deployedLinkReferences": {}
}