{
  "_format": "hh-sol-artifact-1",
  "contractName": "ZKEdition",
  "sourceName": "contracts/ZKEdition.sol",
  "abi": [
    {
      "inputs": [],
      "name": "ApprovalCallerNotOwnerNorApproved",
      "type": "error"
    },
    {
      "inputs": [],
      "name": "ApprovalQueryForNonexistentToken",
      "type": "error"
    },
    {
      "inputs": [],
      "name": "ApproveToCaller",
      "type": "error"
    },
    {
      "inputs": [],
      "name": "BalanceQueryForZeroAddress",
      "type": "error"
    },
    {
      "inputs": [],
      "name": "FeeTransferFailed",
      "type": "error"
    },
    {
      "inputs": [],
      "name": "MintERC2309QuantityExceedsLimit",
      "type": "error"
    },
    {
      "inputs": [],
      "name": "MintToZeroAddress",
      "type": "error"
    },
    {
      "inputs": [],
      "name": "MintZeroQuantity",
      "type": "error"
    },
    {
      "inputs": [
        {
          "internalType": "address",
          "name": "operator",
          "type": "address"
        }
      ],
      "name": "OperatorNotAllowed",
      "type": "error"
    },
    {
      "inputs": [],
      "name": "OwnerQueryForNonexistentToken",
      "type": "error"
    },
    {
      "inputs": [],
      "name": "OwnershipNotInitializedForExtraData",
      "type": "error"
    },
    {
      "inputs": [],
      "name": "TransferCallerNotOwnerNorApproved",
      "type": "error"
    },
    {
      "inputs": [],
      "name": "TransferFromIncorrectOwner",
      "type": "error"
    },
    {
      "inputs": [],
      "name": "TransferToNonERC721ReceiverImplementer",
      "type": "error"
    },
    {
      "inputs": [],
      "name": "TransferToZeroAddress",
      "type": "error"
    },
    {
      "inputs": [],
      "name": "URIQueryForNonexistentToken",
      "type": "error"
    },
    {
      "anonymous": false,
      "inputs": [
        {
          "indexed": true,
          "internalType": "address",
          "name": "owner",
          "type": "address"
        },
        {
          "indexed": true,
          "internalType": "address",
          "name": "approved",
          "type": "address"
        },
        {
          "indexed": true,
          "internalType": "uint256",
          "name": "tokenId",
          "type": "uint256"
        }
      ],
      "name": "Approval",
      "type": "event"
    },
    {
      "anonymous": false,
      "inputs": [
        {
          "indexed": true,
          "internalType": "address",
          "name": "owner",
          "type": "address"
        },
        {
          "indexed": true,
          "internalType": "address",
          "name": "operator",
          "type": "address"
        },
        {
          "indexed": false,
          "internalType": "bool",
          "name": "approved",
          "type": "bool"
        }
      ],
      "name": "ApprovalForAll",
      "type": "event"
    },
    {
      "anonymous": false,
      "inputs": [
        {
          "indexed": true,
          "internalType": "uint256",
          "name": "fromTokenId",
          "type": "uint256"
        },
        {
          "indexed": false,
          "internalType": "uint256",
          "name": "toTokenId",
          "type": "uint256"
        },
        {
          "indexed": true,
          "internalType": "address",
          "name": "from",
          "type": "address"
        },
        {
          "indexed": true,
          "internalType": "address",
          "name": "to",
          "type": "address"
        }
      ],
      "name": "ConsecutiveTransfer",
      "type": "event"
    },
    {
      "anonymous": false,
      "inputs": [
        {
          "indexed": false,
          "internalType": "uint8",
          "name": "version",
          "type": "uint8"
        }
      ],
      "name": "Initialized",
      "type": "event"
    },
    {
      "anonymous": false,
      "inputs": [
        {
          "indexed": false,
          "internalType": "address",
          "name": "sender",
          "type": "address"
        },
        {
          "indexed": false,
          "internalType": "uint256",
          "name": "tokenId_",
          "type": "uint256"
        }
      ],
      "name": "Minted",
      "type": "event"
    },
    {
      "anonymous": false,
      "inputs": [
        {
          "indexed": true,
          "internalType": "address",
          "name": "previousOwner",
          "type": "address"
        },
        {
          "indexed": true,
          "internalType": "address",
          "name": "newOwner",
          "type": "address"
        }
      ],
      "name": "OwnershipTransferred",
      "type": "event"
    },
    {
      "anonymous": false,
      "inputs": [
        {
          "indexed": true,
          "internalType": "bytes32",
          "name": "role",
          "type": "bytes32"
        },
        {
          "indexed": true,
          "internalType": "bytes32",
          "name": "previousAdminRole",
          "type": "bytes32"
        },
        {
          "indexed": true,
          "internalType": "bytes32",
          "name": "newAdminRole",
          "type": "bytes32"
        }
      ],
      "name": "RoleAdminChanged",
      "type": "event"
    },
    {
      "anonymous": false,
      "inputs": [
        {
          "indexed": true,
          "internalType": "bytes32",
          "name": "role",
          "type": "bytes32"
        },
        {
          "indexed": true,
          "internalType": "address",
          "name": "account",
          "type": "address"
        },
        {
          "indexed": true,
          "internalType": "address",
          "name": "sender",
          "type": "address"
        }
      ],
      "name": "RoleGranted",
      "type": "event"
    },
    {
      "anonymous": false,
      "inputs": [
        {
          "indexed": true,
          "internalType": "bytes32",
          "name": "role",
          "type": "bytes32"
        },
        {
          "indexed": true,
          "internalType": "address",
          "name": "account",
          "type": "address"
        },
        {
          "indexed": true,
          "internalType": "address",
          "name": "sender",
          "type": "address"
        }
      ],
      "name": "RoleRevoked",
      "type": "event"
    },
    {
      "anonymous": false,
      "inputs": [
        {
          "indexed": true,
          "internalType": "address",
          "name": "from",
          "type": "address"
        },
        {
          "indexed": true,
          "internalType": "address",
          "name": "to",
          "type": "address"
        },
        {
          "indexed": true,
          "internalType": "uint256",
          "name": "tokenId",
          "type": "uint256"
        }
      ],
      "name": "Transfer",
      "type": "event"
    },
    {
      "inputs": [],
      "name": "DEFAULT_ADMIN_ROLE",
      "outputs": [
        {
          "internalType": "bytes32",
          "name": "",
          "type": "bytes32"
        }
      ],
      "stateMutability": "view",
      "type": "function"
    },
    {
      "inputs": [],
      "name": "MAX_TOKENS",
      "outputs": [
        {
          "internalType": "uint32",
          "name": "",
          "type": "uint32"
        }
      ],
      "stateMutability": "view",
      "type": "function"
    },
    {
      "inputs": [
        {
          "internalType": "uint32",
          "name": "newCap",
          "type": "uint32"
        }
      ],
      "name": "adjustCap",
      "outputs": [],
      "stateMutability": "nonpayable",
      "type": "function"
    },
    {
      "inputs": [
        {
          "internalType": "address",
          "name": "operator",
          "type": "address"
        },
        {
          "internalType": "uint256",
          "name": "tokenId",
          "type": "uint256"
        }
      ],
      "name": "approve",
      "outputs": [],
      "stateMutability": "nonpayable",
      "type": "function"
    },
    {
      "inputs": [
        {
          "internalType": "address",
          "name": "owner",
          "type": "address"
        }
      ],
      "name": "balanceOf",
      "outputs": [
        {
          "internalType": "uint256",
          "name": "",
          "type": "uint256"
        }
      ],
      "stateMutability": "view",
      "type": "function"
    },
    {
      "inputs": [],
      "name": "baseURI",
      "outputs": [
        {
          "internalType": "string",
          "name": "",
          "type": "string"
        }
      ],
      "stateMutability": "view",
      "type": "function"
    },
    {
      "inputs": [],
      "name": "contractURI",
      "outputs": [
        {
          "internalType": "string",
          "name": "",
          "type": "string"
        }
      ],
      "stateMutability": "view",
      "type": "function"
    },
    {
      "inputs": [],
      "name": "contractVersion",
      "outputs": [
        {
          "internalType": "uint32",
          "name": "",
          "type": "uint32"
        }
      ],
      "stateMutability": "view",
      "type": "function"
    },
    {
      "inputs": [
        {
          "internalType": "address",
          "name": "_splitMain",
          "type": "address"
        },
        {
          "internalType": "address[]",
          "name": "accounts",
          "type": "address[]"
        },
        {
          "internalType": "uint32[]",
          "name": "percentAllocations",
          "type": "uint32[]"
        },
        {
          "internalType": "uint32",
          "name": "distributorFee",
          "type": "uint32"
        }
      ],
      "name": "createSplit",
      "outputs": [],
      "stateMutability": "nonpayable",
      "type": "function"
    },
    {
      "inputs": [
        {
          "internalType": "address",
          "name": "account",
          "type": "address"
        },
        {
          "internalType": "uint256",
          "name": "withdrawETH",
          "type": "uint256"
        },
        {
          "internalType": "contract ERC20[]",
          "name": "tokens",
          "type": "address[]"
        },
        {
          "internalType": "address[]",
          "name": "accounts",
          "type": "address[]"
        },
        {
          "internalType": "uint32[]",
          "name": "percentAllocations",
          "type": "uint32[]"
        },
        {
          "internalType": "uint32",
          "name": "distributorFee",
          "type": "uint32"
        },
        {
          "internalType": "address",
          "name": "distributorAddress",
          "type": "address"
        }
      ],
      "name": "distributeAndWithdraw",
      "outputs": [],
      "stateMutability": "nonpayable",
      "type": "function"
    },
    {
      "inputs": [
        {
          "internalType": "contract ERC20",
          "name": "token",
          "type": "address"
        },
        {
          "internalType": "address[]",
          "name": "accounts",
          "type": "address[]"
        },
        {
          "internalType": "uint32[]",
          "name": "percentAllocations",
          "type": "uint32[]"
        },
        {
          "internalType": "uint32",
          "name": "distributorFee",
          "type": "uint32"
        },
        {
          "internalType": "address",
          "name": "distributorAddress",
          "type": "address"
        }
      ],
      "name": "distributeERC20",
      "outputs": [],
      "stateMutability": "nonpayable",
      "type": "function"
    },
    {
      "inputs": [
        {
          "internalType": "address[]",
          "name": "accounts",
          "type": "address[]"
        },
        {
          "internalType": "uint32[]",
          "name": "percentAllocations",
          "type": "uint32[]"
        },
        {
          "internalType": "uint32",
          "name": "distributorFee",
          "type": "uint32"
        },
        {
          "internalType": "address",
          "name": "distributorAddress",
          "type": "address"
        }
      ],
      "name": "distributeETH",
      "outputs": [],
      "stateMutability": "nonpayable",
      "type": "function"
    },
    {
      "inputs": [],
      "name": "edition",
      "outputs": [
        {
          "internalType": "bool",
          "name": "hasAdjustableCap",
          "type": "bool"
        },
        {
          "internalType": "bool",
          "name": "isSoulbound",
          "type": "bool"
        },
        {
          "internalType": "uint32",
          "name": "maxTokens",
          "type": "uint32"
        },
        {
          "internalType": "uint32",
          "name": "maxTokenPurchase",
          "type": "uint32"
        },
        {
          "internalType": "uint32",
          "name": "presaleStart",
          "type": "uint32"
        },
        {
          "internalType": "uint32",
          "name": "presaleEnd",
          "type": "uint32"
        },
        {
          "internalType": "uint32",
          "name": "saleStart",
          "type": "uint32"
        },
        {
          "internalType": "uint32",
          "name": "saleEnd",
          "type": "uint32"
        },
        {
          "internalType": "uint16",
          "name": "royaltyBPS",
          "type": "uint16"
        },
        {
          "internalType": "uint96",
          "name": "tokenPrice",
          "type": "uint96"
        },
        {
          "internalType": "address",
          "name": "payoutAddress",
          "type": "address"
        },
        {
          "internalType": "bytes32",
          "name": "presaleMerkleRoot",
          "type": "bytes32"
        }
      ],
      "stateMutability": "view",
      "type": "function"
    },
    {
      "inputs": [],
      "name": "feeManager",
      "outputs": [
        {
          "internalType": "address",
          "name": "",
          "type": "address"
        }
      ],
      "stateMutability": "view",
      "type": "function"
    },
    {
      "inputs": [],
      "name": "flipSaleState",
      "outputs": [],
      "stateMutability": "nonpayable",
      "type": "function"
    },
    {
      "inputs": [
        {
          "internalType": "uint256",
          "name": "tokenId",
          "type": "uint256"
        }
      ],
      "name": "getApproved",
      "outputs": [
        {
          "internalType": "address",
          "name": "",
          "type": "address"
        }
      ],
      "stateMutability": "view",
      "type": "function"
    },
    {
      "inputs": [
        {
          "internalType": "bytes32",
          "name": "role",
          "type": "bytes32"
        }
      ],
      "name": "getRoleAdmin",
      "outputs": [
        {
          "internalType": "bytes32",
          "name": "",
          "type": "bytes32"
        }
      ],
      "stateMutability": "view",
      "type": "function"
    },
    {
      "inputs": [
        {
          "internalType": "bytes32",
          "name": "role",
          "type": "bytes32"
        },
        {
          "internalType": "address",
          "name": "account",
          "type": "address"
        }
      ],
      "name": "grantRole",
      "outputs": [],
      "stateMutability": "nonpayable",
      "type": "function"
    },
    {
      "inputs": [],
      "name": "hasAdjustableCap",
      "outputs": [
        {
          "internalType": "bool",
          "name": "",
          "type": "bool"
        }
      ],
      "stateMutability": "view",
      "type": "function"
    },
    {
      "inputs": [
        {
          "internalType": "bytes32",
          "name": "role",
          "type": "bytes32"
        },
        {
          "internalType": "address",
          "name": "account",
          "type": "address"
        }
      ],
      "name": "hasRole",
      "outputs": [
        {
          "internalType": "bool",
          "name": "",
          "type": "bool"
        }
      ],
      "stateMutability": "view",
      "type": "function"
    },
    {
      "inputs": [
        {
          "internalType": "address",
          "name": "_owner",
          "type": "address"
        },
        {
          "components": [
            {
              "internalType": "string",
              "name": "name",
              "type": "string"
            },
            {
              "internalType": "string",
              "name": "symbol",
              "type": "string"
            },
            {
              "internalType": "bool",
              "name": "hasAdjustableCap",
              "type": "bool"
            },
            {
              "internalType": "bool",
              "name": "isSoulbound",
              "type": "bool"
            },
            {
              "internalType": "uint32",
              "name": "maxTokens",
              "type": "uint32"
            },
            {
              "internalType": "uint32",
              "name": "maxTokenPurchase",
              "type": "uint32"
            },
            {
              "internalType": "uint32",
              "name": "presaleStart",
              "type": "uint32"
            },
            {
              "internalType": "uint32",
              "name": "presaleEnd",
              "type": "uint32"
            },
            {
              "internalType": "uint32",
              "name": "saleStart",
              "type": "uint32"
            },
            {
              "internalType": "uint32",
              "name": "saleEnd",
              "type": "uint32"
            },
            {
              "internalType": "uint16",
              "name": "royaltyBPS",
              "type": "uint16"
            },
            {
              "internalType": "uint96",
              "name": "tokenPrice",
              "type": "uint96"
            },
            {
              "internalType": "address",
              "name": "feeManager",
              "type": "address"
            },
            {
              "internalType": "address",
              "name": "payoutAddress",
              "type": "address"
            },
            {
              "internalType": "bytes32",
              "name": "presaleMerkleRoot",
              "type": "bytes32"
            }
          ],
          "internalType": "struct EditionConfig",
          "name": "_editionConfig",
          "type": "tuple"
        },
        {
          "components": [
            {
              "internalType": "string",
              "name": "contractURI",
              "type": "string"
            },
            {
              "internalType": "string",
              "name": "metadataURI",
              "type": "string"
            },
            {
              "internalType": "bytes",
              "name": "metadataRendererInit",
              "type": "bytes"
            },
            {
              "internalType": "address",
              "name": "parentIP",
              "type": "address"
            }
          ],
          "internalType": "struct MetadataConfig",
          "name": "_metadataConfig",
          "type": "tuple"
        },
        {
          "components": [
            {
              "internalType": "address",
              "name": "tokenAddress",
              "type": "address"
            },
            {
              "internalType": "uint88",
              "name": "minBalance",
              "type": "uint88"
            },
            {
              "internalType": "enum SaleType",
              "name": "saleType",
              "type": "uint8"
            }
          ],
          "internalType": "struct TokenGateConfig",
          "name": "_tokenGateConfig",
          "type": "tuple"
        },
        {
          "internalType": "address",
          "name": "_metadataRenderer",
          "type": "address"
        },
        {
          "internalType": "address",
          "name": "_zkVerifier",
          "type": "address"
        }
      ],
      "name": "initialize",
      "outputs": [],
      "stateMutability": "nonpayable",
      "type": "function"
    },
    {
      "inputs": [
        {
          "internalType": "address",
          "name": "_owner",
          "type": "address"
        },
        {
          "components": [
            {
              "internalType": "string",
              "name": "name",
              "type": "string"
            },
            {
              "internalType": "string",
              "name": "symbol",
              "type": "string"
            },
            {
              "internalType": "bool",
              "name": "hasAdjustableCap",
              "type": "bool"
            },
            {
              "internalType": "bool",
              "name": "isSoulbound",
              "type": "bool"
            },
            {
              "internalType": "uint32",
              "name": "maxTokens",
              "type": "uint32"
            },
            {
              "internalType": "uint32",
              "name": "maxTokenPurchase",
              "type": "uint32"
            },
            {
              "internalType": "uint32",
              "name": "presaleStart",
              "type": "uint32"
            },
            {
              "internalType": "uint32",
              "name": "presaleEnd",
              "type": "uint32"
            },
            {
              "internalType": "uint32",
              "name": "saleStart",
              "type": "uint32"
            },
            {
              "internalType": "uint32",
              "name": "saleEnd",
              "type": "uint32"
            },
            {
              "internalType": "uint16",
              "name": "royaltyBPS",
              "type": "uint16"
            },
            {
              "internalType": "uint96",
              "name": "tokenPrice",
              "type": "uint96"
            },
            {
              "internalType": "address",
              "name": "feeManager",
              "type": "address"
            },
            {
              "internalType": "address",
              "name": "payoutAddress",
              "type": "address"
            },
            {
              "internalType": "bytes32",
              "name": "presaleMerkleRoot",
              "type": "bytes32"
            }
          ],
          "internalType": "struct EditionConfig",
          "name": "_editionConfig",
          "type": "tuple"
        },
        {
          "components": [
            {
              "internalType": "string",
              "name": "contractURI",
              "type": "string"
            },
            {
              "internalType": "string",
              "name": "metadataURI",
              "type": "string"
            },
            {
              "internalType": "bytes",
              "name": "metadataRendererInit",
              "type": "bytes"
            },
            {
              "internalType": "address",
              "name": "parentIP",
              "type": "address"
            }
          ],
          "internalType": "struct MetadataConfig",
          "name": "_metadataConfig",
          "type": "tuple"
        },
        {
          "components": [
            {
              "internalType": "address",
              "name": "tokenAddress",
              "type": "address"
            },
            {
              "internalType": "uint88",
              "name": "minBalance",
              "type": "uint88"
            },
            {
              "internalType": "enum SaleType",
              "name": "saleType",
              "type": "uint8"
            }
          ],
          "internalType": "struct TokenGateConfig",
          "name": "_tokenGateConfig",
          "type": "tuple"
        },
        {
          "internalType": "address",
          "name": "_metadataRenderer",
          "type": "address"
        }
      ],
      "name": "initialize",
      "outputs": [],
      "stateMutability": "nonpayable",
      "type": "function"
    },
    {
      "inputs": [
        {
          "internalType": "address",
          "name": "owner",
          "type": "address"
        },
        {
          "internalType": "address",
          "name": "operator",
          "type": "address"
        }
      ],
      "name": "isApprovedForAll",
      "outputs": [
        {
          "internalType": "bool",
          "name": "",
          "type": "bool"
        }
      ],
      "stateMutability": "view",
      "type": "function"
    },
    {
      "inputs": [],
      "name": "isSoulbound",
      "outputs": [
        {
          "internalType": "bool",
          "name": "",
          "type": "bool"
        }
      ],
      "stateMutability": "view",
      "type": "function"
    },
    {
      "inputs": [],
      "name": "maxTokenPurchase",
      "outputs": [
        {
          "internalType": "uint32",
          "name": "",
          "type": "uint32"
        }
      ],
      "stateMutability": "view",
      "type": "function"
    },
    {
      "inputs": [],
      "name": "metadataRenderer",
      "outputs": [
        {
          "internalType": "address",
          "name": "",
          "type": "address"
        }
      ],
      "stateMutability": "view",
      "type": "function"
    },
    {
      "inputs": [
        {
          "internalType": "address",
          "name": "to",
          "type": "address"
        },
        {
          "internalType": "uint256",
          "name": "numberOfTokens",
          "type": "uint256"
        }
      ],
      "name": "mint",
      "outputs": [],
      "stateMutability": "payable",
      "type": "function"
    },
    {
      "inputs": [
        {
          "internalType": "address[]",
          "name": "recipients",
          "type": "address[]"
        }
      ],
      "name": "mintAirdrop",
      "outputs": [],
      "stateMutability": "nonpayable",
      "type": "function"
    },
    {
      "inputs": [
        {
          "internalType": "uint256",
          "name": "quantity",
          "type": "uint256"
        }
      ],
      "name": "mintFee",
      "outputs": [
        {
          "internalType": "uint256",
          "name": "fee",
          "type": "uint256"
        }
      ],
      "stateMutability": "view",
      "type": "function"
    },
    {
      "inputs": [
        {
          "internalType": "address",
          "name": "to",
          "type": "address"
        },
        {
          "internalType": "uint256",
          "name": "quantity",
          "type": "uint256"
        },
        {
          "internalType": "uint256",
          "name": "maxQuantity",
          "type": "uint256"
        },
        {
          "internalType": "uint256",
          "name": "pricePerToken",
          "type": "uint256"
        },
        {
          "internalType": "bytes32[]",
          "name": "merkleProof",
          "type": "bytes32[]"
        }
      ],
      "name": "mintPresale",
      "outputs": [],
      "stateMutability": "payable",
      "type": "function"
    },
    {
      "inputs": [],
      "name": "name",
      "outputs": [
        {
          "internalType": "string",
          "name": "",
          "type": "string"
        }
      ],
      "stateMutability": "view",
      "type": "function"
    },
    {
      "inputs": [],
      "name": "operatorFilterRegistry",
      "outputs": [
        {
          "internalType": "contract IOperatorFilterRegistry",
          "name": "",
          "type": "address"
        }
      ],
      "stateMutability": "view",
      "type": "function"
    },
    {
      "inputs": [],
      "name": "owner",
      "outputs": [
        {
          "internalType": "address",
          "name": "",
          "type": "address"
        }
      ],
      "stateMutability": "view",
      "type": "function"
    },
    {
      "inputs": [
        {
          "internalType": "uint256",
          "name": "tokenId",
          "type": "uint256"
        }
      ],
      "name": "ownerOf",
      "outputs": [
        {
          "internalType": "address",
          "name": "",
          "type": "address"
        }
      ],
      "stateMutability": "view",
      "type": "function"
    },
    {
      "inputs": [],
      "name": "parentIP",
      "outputs": [
        {
          "internalType": "address",
          "name": "",
          "type": "address"
        }
      ],
      "stateMutability": "view",
      "type": "function"
    },
    {
      "inputs": [],
      "name": "payoutAddress",
      "outputs": [
        {
          "internalType": "address",
          "name": "",
          "type": "address"
        }
      ],
      "stateMutability": "view",
      "type": "function"
    },
    {
      "inputs": [],
      "name": "presaleEnd",
      "outputs": [
        {
          "internalType": "uint32",
          "name": "",
          "type": "uint32"
        }
      ],
      "stateMutability": "view",
      "type": "function"
    },
    {
      "inputs": [],
      "name": "presaleMerkleRoot",
      "outputs": [
        {
          "internalType": "bytes32",
          "name": "",
          "type": "bytes32"
        }
      ],
      "stateMutability": "view",
      "type": "function"
    },
    {
      "inputs": [],
      "name": "presaleStart",
      "outputs": [
        {
          "internalType": "uint32",
          "name": "",
          "type": "uint32"
        }
      ],
      "stateMutability": "view",
      "type": "function"
    },
    {
      "inputs": [],
      "name": "renounceOwnership",
      "outputs": [],
      "stateMutability": "nonpayable",
      "type": "function"
    },
    {
      "inputs": [
        {
          "internalType": "bytes32",
          "name": "role",
          "type": "bytes32"
        },
        {
          "internalType": "address",
          "name": "account",
          "type": "address"
        }
      ],
      "name": "renounceRole",
      "outputs": [],
      "stateMutability": "nonpayable",
      "type": "function"
    },
    {
      "inputs": [
        {
          "internalType": "uint256",
          "name": "numReserved",
          "type": "uint256"
        }
      ],
      "name": "reserveDCNT",
      "outputs": [],
      "stateMutability": "nonpayable",
      "type": "function"
    },
    {
      "inputs": [
        {
          "internalType": "bytes32",
          "name": "role",
          "type": "bytes32"
        },
        {
          "internalType": "address",
          "name": "account",
          "type": "address"
        }
      ],
      "name": "revokeRole",
      "outputs": [],
      "stateMutability": "nonpayable",
      "type": "function"
    },
    {
      "inputs": [],
      "name": "royaltyBPS",
      "outputs": [
        {
          "internalType": "uint16",
          "name": "",
          "type": "uint16"
        }
      ],
      "stateMutability": "view",
      "type": "function"
    },
    {
      "inputs": [
        {
          "internalType": "uint256",
          "name": "tokenId",
          "type": "uint256"
        },
        {
          "internalType": "uint256",
          "name": "salePrice",
          "type": "uint256"
        }
      ],
      "name": "royaltyInfo",
      "outputs": [
        {
          "internalType": "address",
          "name": "receiver",
          "type": "address"
        },
        {
          "internalType": "uint256",
          "name": "royaltyAmount",
          "type": "uint256"
        }
      ],
      "stateMutability": "view",
      "type": "function"
    },
    {
      "inputs": [
        {
          "internalType": "address",
          "name": "from",
          "type": "address"
        },
        {
          "internalType": "address",
          "name": "to",
          "type": "address"
        },
        {
          "internalType": "uint256",
          "name": "tokenId",
          "type": "uint256"
        }
      ],
      "name": "safeTransferFrom",
      "outputs": [],
      "stateMutability": "nonpayable",
      "type": "function"
    },
    {
      "inputs": [
        {
          "internalType": "address",
          "name": "from",
          "type": "address"
        },
        {
          "internalType": "address",
          "name": "to",
          "type": "address"
        },
        {
          "internalType": "uint256",
          "name": "tokenId",
          "type": "uint256"
        },
        {
          "internalType": "bytes",
          "name": "_data",
          "type": "bytes"
        }
      ],
      "name": "safeTransferFrom",
      "outputs": [],
      "stateMutability": "nonpayable",
      "type": "function"
    },
    {
      "inputs": [],
      "name": "saleEnd",
      "outputs": [
        {
          "internalType": "uint32",
          "name": "",
          "type": "uint32"
        }
      ],
      "stateMutability": "view",
      "type": "function"
    },
    {
      "inputs": [],
      "name": "saleIsActive",
      "outputs": [
        {
          "internalType": "bool",
          "name": "_saleIsActive",
          "type": "bool"
        }
      ],
      "stateMutability": "view",
      "type": "function"
    },
    {
      "inputs": [],
      "name": "saleIsPaused",
      "outputs": [
        {
          "internalType": "bool",
          "name": "",
          "type": "bool"
        }
      ],
      "stateMutability": "view",
      "type": "function"
    },
    {
      "inputs": [],
      "name": "saleStart",
      "outputs": [
        {
          "internalType": "uint32",
          "name": "",
          "type": "uint32"
        }
      ],
      "stateMutability": "view",
      "type": "function"
    },
    {
      "inputs": [
        {
          "internalType": "address",
          "name": "operator",
          "type": "address"
        },
        {
          "internalType": "bool",
          "name": "approved",
          "type": "bool"
        }
      ],
      "name": "setApprovalForAll",
      "outputs": [],
      "stateMutability": "nonpayable",
      "type": "function"
    },
    {
      "inputs": [
        {
          "internalType": "string",
          "name": "uri",
          "type": "string"
        }
      ],
      "name": "setBaseURI",
      "outputs": [],
      "stateMutability": "nonpayable",
      "type": "function"
    },
    {
      "inputs": [
        {
          "internalType": "string",
          "name": "uri",
          "type": "string"
        }
      ],
      "name": "setContractURI",
      "outputs": [],
      "stateMutability": "nonpayable",
      "type": "function"
    },
    {
      "inputs": [
        {
          "internalType": "address",
          "name": "_metadataRenderer",
          "type": "address"
        }
      ],
      "name": "setMetadataRenderer",
      "outputs": [],
      "stateMutability": "nonpayable",
      "type": "function"
    },
    {
      "inputs": [
        {
          "internalType": "address",
          "name": "_payoutAddress",
          "type": "address"
        }
      ],
      "name": "setPayoutAddress",
      "outputs": [],
      "stateMutability": "nonpayable",
      "type": "function"
    },
    {
      "inputs": [
        {
          "internalType": "bytes32",
          "name": "_presaleMerkleRoot",
          "type": "bytes32"
        }
      ],
      "name": "setPresaleMerkleRoot",
      "outputs": [],
      "stateMutability": "nonpayable",
      "type": "function"
    },
    {
      "inputs": [
        {
          "components": [
            {
              "internalType": "address",
              "name": "tokenAddress",
              "type": "address"
            },
            {
              "internalType": "uint88",
              "name": "minBalance",
              "type": "uint88"
            },
            {
              "internalType": "enum SaleType",
              "name": "saleType",
              "type": "uint8"
            }
          ],
          "internalType": "struct TokenGateConfig",
          "name": "_tokenGateConfig",
          "type": "tuple"
        }
      ],
      "name": "setTokenGate",
      "outputs": [],
      "stateMutability": "nonpayable",
      "type": "function"
    },
    {
      "inputs": [
        {
          "internalType": "address",
          "name": "_zkVerifier",
          "type": "address"
        }
      ],
      "name": "setZKVerifier",
      "outputs": [],
      "stateMutability": "nonpayable",
      "type": "function"
    },
    {
      "inputs": [],
      "name": "splitMain",
      "outputs": [
        {
          "internalType": "address",
          "name": "",
          "type": "address"
        }
      ],
      "stateMutability": "view",
      "type": "function"
    },
    {
      "inputs": [],
      "name": "splitWallet",
      "outputs": [
        {
          "internalType": "address",
          "name": "",
          "type": "address"
        }
      ],
      "stateMutability": "view",
      "type": "function"
    },
    {
      "inputs": [
        {
          "internalType": "bytes4",
          "name": "interfaceId",
          "type": "bytes4"
        }
      ],
      "name": "supportsInterface",
      "outputs": [
        {
          "internalType": "bool",
          "name": "",
          "type": "bool"
        }
      ],
      "stateMutability": "view",
      "type": "function"
    },
    {
      "inputs": [],
      "name": "symbol",
      "outputs": [
        {
          "internalType": "string",
          "name": "",
          "type": "string"
        }
      ],
      "stateMutability": "view",
      "type": "function"
    },
    {
      "inputs": [],
      "name": "tokenGateConfig",
      "outputs": [
        {
          "internalType": "address",
          "name": "tokenAddress",
          "type": "address"
        },
        {
          "internalType": "uint88",
          "name": "minBalance",
          "type": "uint88"
        },
        {
          "internalType": "enum SaleType",
          "name": "saleType",
          "type": "uint8"
        }
      ],
      "stateMutability": "view",
      "type": "function"
    },
    {
      "inputs": [],
      "name": "tokenPrice",
      "outputs": [
        {
          "internalType": "uint96",
          "name": "",
          "type": "uint96"
        }
      ],
      "stateMutability": "view",
      "type": "function"
    },
    {
      "inputs": [
        {
          "internalType": "uint256",
          "name": "tokenId",
          "type": "uint256"
        }
      ],
      "name": "tokenURI",
      "outputs": [
        {
          "internalType": "string",
          "name": "",
          "type": "string"
        }
      ],
      "stateMutability": "view",
      "type": "function"
    },
    {
      "inputs": [],
      "name": "totalSupply",
      "outputs": [
        {
          "internalType": "uint256",
          "name": "",
          "type": "uint256"
        }
      ],
      "stateMutability": "view",
      "type": "function"
    },
    {
      "inputs": [
        {
          "internalType": "address",
          "name": "from",
          "type": "address"
        },
        {
          "internalType": "address",
          "name": "to",
          "type": "address"
        },
        {
          "internalType": "uint256",
          "name": "tokenId",
          "type": "uint256"
        }
      ],
      "name": "transferFrom",
      "outputs": [],
      "stateMutability": "nonpayable",
      "type": "function"
    },
    {
      "inputs": [
        {
          "internalType": "address",
          "name": "newOwner",
          "type": "address"
        }
      ],
      "name": "transferOwnership",
      "outputs": [],
      "stateMutability": "nonpayable",
      "type": "function"
    },
    {
      "inputs": [
        {
          "internalType": "uint256",
          "name": "transferETH",
          "type": "uint256"
        },
        {
          "internalType": "contract ERC20[]",
          "name": "tokens",
          "type": "address[]"
        }
      ],
      "name": "transferToSplit",
      "outputs": [],
      "stateMutability": "nonpayable",
      "type": "function"
    },
    {
      "inputs": [
        {
          "internalType": "bool",
          "name": "enable",
          "type": "bool"
        },
        {
          "internalType": "address",
          "name": "operatorFilter",
          "type": "address"
        }
      ],
      "name": "updateOperatorFilter",
      "outputs": [],
      "stateMutability": "nonpayable",
      "type": "function"
    },
    {
      "inputs": [
        {
          "internalType": "uint32",
          "name": "newStart",
          "type": "uint32"
        },
        {
          "internalType": "uint32",
          "name": "newEnd",
          "type": "uint32"
        }
      ],
      "name": "updatePresaleStartEnd",
      "outputs": [],
      "stateMutability": "nonpayable",
      "type": "function"
    },
    {
      "inputs": [
        {
          "internalType": "uint32",
          "name": "newStart",
          "type": "uint32"
        },
        {
          "internalType": "uint32",
          "name": "newEnd",
          "type": "uint32"
        }
      ],
      "name": "updateSaleStartEnd",
      "outputs": [],
      "stateMutability": "nonpayable",
      "type": "function"
    },
    {
      "inputs": [],
      "name": "withdraw",
      "outputs": [],
      "stateMutability": "nonpayable",
      "type": "function"
    },
    {
      "inputs": [
        {
          "internalType": "address",
          "name": "recipient",
          "type": "address"
        }
      ],
      "name": "zkClaim",
      "outputs": [],
      "stateMutability": "nonpayable",
      "type": "function"
    },
    {
      "inputs": [],
      "name": "zkVerifier",
      "outputs": [
        {
          "internalType": "address",
          "name": "",
          "type": "address"
        }
      ],
      "stateMutability": "view",
      "type": "function"
    }
  ],
  "bytecode": "0x60a06040523480156200001157600080fd5b5060086200001f336200002e565b63ffffffff166080526200008a565b600a80546001600160a01b038381166201000081810262010000600160b01b031985161790945560405193909204169182907f8be0079c531659141344cd1fd0a4f28419497f9722a3daafe3b4186f6b6457e090600090a35050565b6080516159ef620000a66000396000610b8501526159ef6000f3fe6080604052600436106104465760003560e01c806379ab7c8e11610234578063c4559d5a1161012e578063e8a3d485116100b6578063f2fde38b1161007a578063f2fde38b14610ea8578063f47c84c514610ec8578063f7eca6d014610ee9578063fd4fe8a814610f06578063ff45640d14610f2657600080fd5b8063e8a3d48514610df5578063e985e9c514610e0a578063eb8d244414610e53578063ed1f24ad14610e68578063f0cc8b6214610e8857600080fd5b8063d0fb0203116100fd578063d0fb020314610d52578063d547741f14610d72578063d6df096d14610d92578063de8801e514610db2578063e6c350c114610dd457600080fd5b8063c4559d5a14610cd2578063c509034614610cf2578063c595317014610d12578063c87b56dd14610d3257600080fd5b8063a0a8e460116101bc578063b80476d011610180578063b80476d014610c22578063b88d4fde14610c42578063b9139dcb14610c62578063b9c9d93a14610c82578063c10b935814610cb057600080fd5b8063a0a8e46014610b76578063a217fddf14610ba9578063a22cb46514610bbe578063ab0bcc4114610bde578063b0ccc31e14610c0057600080fd5b80638e98f86a116102035780638e98f86a146109ef57806391d1485414610b09578063931cf0f414610b29578063938e3d7b14610b4157806395d89b4114610b6157600080fd5b806379ab7c8e146109635780637ff9b596146109835780638a35ace3146109ab5780638da5cb5b146109cb57600080fd5b80632f2ff15d1161034557806355f804b3116102cd5780636c1951ae116102915780636c1951ae146108ce57806370319970146108ee57806370a082311461090e578063713b97871461092e578063715018a61461094e57600080fd5b806355f804b314610834578063569c66c5146108545780635b8d02d7146108745780636352211e146108995780636c0360eb146108b957600080fd5b806336568abe1161031457806336568abe146107ac5780633ccfd60b146107cc57806340c10f19146107e157806342842e0e146107f457806351b5a28c1461081457600080fd5b80632f2ff15d1461073757806333ea3e6d1461075757806333ea51a81461077757806334918dfd1461079757600080fd5b806318160ddd116103d3578063248a9ca311610397578063248a9ca314610668578063284a44a81461069857806328d7b276146106b85780632a55205a146106d85780632d75fea61461071757600080fd5b806318160ddd146105a25780631dbdedbd146105c557806322212e2b14610611578063229f3e291461062657806323b872dd1461064857600080fd5b8063095ea7b31161041a578063095ea7b3146104fc57806309aa3dcf1461051c5780630ad6c6161461054f5780630b8999f31461056f5780630e769b2b1461058257600080fd5b80625f16fb1461044b57806301ffc9a71461046d57806306fdde03146104a2578063081812fc146104c4575b600080fd5b34801561045757600080fd5b5061046b6104663660046145d8565b610f46565b005b34801561047957600080fd5b5061048d610488366004614695565b610ffd565b60405190151581526020015b60405180910390f35b3480156104ae57600080fd5b506104b7611046565b6040516104999190614702565b3480156104d057600080fd5b506104e46104df366004614715565b6110d8565b6040516001600160a01b039091168152602001610499565b34801561050857600080fd5b5061046b61051736600461472e565b61111c565b34801561052857600080fd5b50600d54600160301b900463ffffffff165b60405163ffffffff9091168152602001610499565b34801561055b57600080fd5b5061046b61056a36600461475a565b611135565b61046b61057d36600461478d565b61119c565b34801561058e57600080fd5b50600b546104e4906001600160a01b031681565b3480156105ae57600080fd5b50600154600054035b604051908152602001610499565b3480156105d157600080fd5b50600954610602906001600160a01b03811690600160a01b81046001600160581b031690600160f81b900460ff1683565b60405161049993929190614815565b34801561061d57600080fd5b50600f546105b7565b34801561063257600080fd5b50600d54600160701b900463ffffffff1661053a565b34801561065457600080fd5b5061046b610663366004614860565b6115be565b34801561067457600080fd5b506105b7610683366004614715565b60009081526008602052604090206001015490565b3480156106a457600080fd5b5061046b6106b3366004614998565b611764565b3480156106c457600080fd5b5061046b6106d3366004614715565b6117f0565b3480156106e457600080fd5b506106f86106f3366004614a6c565b61181c565b604080516001600160a01b039093168352602083019190915201610499565b34801561072357600080fd5b5061046b610732366004614aa7565b611907565b34801561074357600080fd5b5061046b610752366004614ae0565b611b14565b34801561076357600080fd5b5061046b610772366004614b05565b611b39565b34801561078357600080fd5b5061046b610792366004614b96565b611c46565b3480156107a357600080fd5b5061046b611c95565b3480156107b857600080fd5b5061046b6107c7366004614ae0565b611cdd565b3480156107d857600080fd5b5061046b611d5b565b61046b6107ef36600461472e565b611e9f565b34801561080057600080fd5b5061046b61080f366004614860565b612336565b34801561082057600080fd5b5061046b61082f366004614f00565b612351565b34801561084057600080fd5b5061046b61084f366004614fae565b61284e565b34801561086057600080fd5b5061046b61086f366004614fe2565b612881565b34801561088057600080fd5b50600e54600160601b90046001600160a01b03166104e4565b3480156108a557600080fd5b506104e46108b4366004614715565b612d6b565b3480156108c557600080fd5b506104b7612d76565b3480156108da57600080fd5b5061046b6108e9366004614715565b612e04565b3480156108fa57600080fd5b506012546104e4906001600160a01b031681565b34801561091a57600080fd5b506105b7610929366004614b96565b612e9f565b34801561093a57600080fd5b50600c546104e4906001600160a01b031681565b34801561095a57600080fd5b5061046b612eed565b34801561096f57600080fd5b5061046b61097e36600461507e565b612f01565b34801561098f57600080fd5b50600e546040516001600160601b039091168152602001610499565b3480156109b757600080fd5b506105b76109c6366004614715565b612f75565b3480156109d757600080fd5b50600a546201000090046001600160a01b03166104e4565b3480156109fb57600080fd5b50600d54600e54600f54610a869260ff8082169361010083049091169262010000830463ffffffff90811693600160301b8104821693600160501b8204831693600160701b8304841693600160901b8404811693600160b01b810490911692600160d01b90910461ffff16916001600160601b03821691600160601b90046001600160a01b0316908c565b604080519c15158d529a151560208d015263ffffffff998a169a8c019a909a5296881660608b015294871660808a015292861660a089015290851660c088015290931660e086015261ffff9092166101008501526001600160601b039091166101208401526001600160a01b031661014083015261016082015261018001610499565b348015610b1557600080fd5b5061048d610b24366004614ae0565b613011565b348015610b3557600080fd5b50600d5460ff1661048d565b348015610b4d57600080fd5b5061046b610b5c366004614fae565b61303c565b348015610b6d57600080fd5b506104b761306f565b348015610b8257600080fd5b507f000000000000000000000000000000000000000000000000000000000000000061053a565b348015610bb557600080fd5b506105b7600081565b348015610bca57600080fd5b5061046b610bd93660046150ba565b61307e565b348015610bea57600080fd5b50600d54600160901b900463ffffffff1661053a565b348015610c0c57600080fd5b506104e46daaeb6d7670e522a718067333cd4e81565b348015610c2e57600080fd5b5061046b610c3d3660046150e8565b613092565b348015610c4e57600080fd5b5061046b610c5d366004615103565b613191565b348015610c6e57600080fd5b5061046b610c7d366004614b96565b6131db565b348015610c8e57600080fd5b50600d54600160d01b900461ffff1660405161ffff9091168152602001610499565b348015610cbc57600080fd5b50600d54600160b01b900463ffffffff1661053a565b348015610cde57600080fd5b5061046b610ced36600461516e565b6132af565b348015610cfe57600080fd5b5061046b610d0d366004614b96565b613359565b348015610d1e57600080fd5b5061046b610d2d3660046151f3565b613383565b348015610d3e57600080fd5b506104b7610d4d366004614715565b613490565b348015610d5e57600080fd5b506014546104e4906001600160a01b031681565b348015610d7e57600080fd5b5061046b610d8d366004614ae0565b613543565b348015610d9e57600080fd5b506015546104e4906001600160a01b031681565b348015610dbe57600080fd5b50600d54600160501b900463ffffffff1661053a565b348015610de057600080fd5b5060125461048d90600160a01b900460ff1681565b348015610e0157600080fd5b506104b7613568565b348015610e1657600080fd5b5061048d610e25366004615234565b6001600160a01b03918216600090815260076020908152604080832093909416825291909152205460ff1690565b348015610e5f57600080fd5b5061048d613608565b348015610e7457600080fd5b5061046b610e8336600461475a565b613652565b348015610e9457600080fd5b506013546104e4906001600160a01b031681565b348015610eb457600080fd5b5061046b610ec3366004614b96565b6136b9565b348015610ed457600080fd5b50600d5462010000900463ffffffff1661053a565b348015610ef557600080fd5b50600d54610100900460ff1661048d565b348015610f1257600080fd5b5061046b610f21366004614b96565b613732565b348015610f3257600080fd5b5061046b610f41366004615252565b61377b565b600c546001600160a01b0316610f775760405162461bcd60e51b8152600401610f6e9061526a565b60405180910390fd5b610f80876137af565b600b54600c54604051630ac0898160e11b81526001600160a01b0392831692631581130292610fc2929116908b908b908b908b908b908b908b9060040161531b565b600060405180830381600087803b158015610fdc57600080fd5b505af1158015610ff0573d6000803e3d6000fd5b5050505050505050505050565b600063152a902d60e11b6001600160e01b031983161480611022575061102282613893565b806110315750611031826138c8565b80611040575061104082613893565b92915050565b6060600280546110559061537d565b80601f01602080910402602001604051908101604052809291908181526020018280546110819061537d565b80156110ce5780601f106110a3576101008083540402835291602001916110ce565b820191906000526020600020905b8154815290600101906020018083116110b157829003601f168201915b5050505050905090565b60006110e382613916565b611100576040516333d1c03960e21b815260040160405180910390fd5b506000908152600660205260409020546001600160a01b031690565b816111268161393d565b61113083836139f6565b505050565b611140600033613011565b61115c5760405162461bcd60e51b8152600401610f6e906153b1565b600d805467ffffffffffffffff60901b1916600160901b63ffffffff9485160263ffffffff60b01b191617600160b01b9290931691909102919091179055565b6009546001906001600160a01b03161580159061120557506000600954600160f81b900460ff1660028111156111d4576111d46147ff565b1480611205575080801561120557506001600954600160f81b900460ff166002811115611203576112036147ff565b145b8061123657508015801561123657506002600954600160f81b900460ff166002811115611234576112346147ff565b145b15611302576009546040516370a0823160e01b8152336004820152600160a01b82046001600160581b0316916001600160a01b0316906370a08231906024016020604051808303816000875af1158015611294573d6000803e3d6000fd5b505050506040513d601f19601f820116820180604052508101906112b891906153d4565b10156113025760405162461bcd60e51b81526020600482015260196024820152783237903737ba1037bbb7103932b8bab4b932b2103a37b5b2b760391b6044820152606401610f6e565b600d54600160501b900463ffffffff1642108015906113305750600d54600160701b900463ffffffff164211155b61136a5760405162461bcd60e51b815260206004820152600b60248201526a6e6f742070726573616c6560a81b6044820152606401610f6e565b600054601254600160a01b900460ff16156113c75760405162461bcd60e51b815260206004820152601b60248201527f53616c65206d7573742062652061637469766520746f206d696e7400000000006044820152606401610f6e565b600d5462010000900463ffffffff166113e08883615403565b11156113fe5760405162461bcd60e51b8152600401610f6e90615416565b61148284848080602002602001604051908101604052809392919081815260200183836020028082843760009201919091525050600f546040516bffffffffffffffffffffffff1960608f901b166020820152603481018c9052605481018b9052909250607401905060405160208183030381529060405280519060200120613a96565b6114bd5760405162461bcd60e51b815260206004820152600c60248201526b1b9bdd08185c1c1c9bdd995960a21b6044820152606401610f6e565b6114c7878661544b565b34101561150b5760405162461bcd60e51b8152602060048201526012602482015271496e73756666696369656e742066756e647360701b6044820152606401610f6e565b85876115168a612e9f565b6115209190615403565b11156115605760405162461bcd60e51b815260206004820152600f60248201526e6d696e74656420746f6f206d616e7960881b6044820152606401610f6e565b61156a8888613aac565b60005b878110156115b357604080516001600160a01b038b1681526020810184905260019093019260008051602061599a833981519152910160405180910390a160010161156d565b505050505050505050565b60006115c982613ac6565b9050836001600160a01b0316816001600160a01b0316146115fc5760405162a1148160e81b815260040160405180910390fd5b60008281526006602052604090208054338082146001600160a01b038816909114176116495761162c8633610e25565b61164957604051632ce44b5f60e11b815260040160405180910390fd5b6001600160a01b03851661167057604051633a954ecd60e21b815260040160405180910390fd5b61167d8686866001613b34565b801561168857600082555b6001600160a01b038681166000908152600560205260408082208054600019019055918716808252919020805460010190554260a01b17600160e11b17600085815260046020526040812091909155600160e11b8416900361171a576001840160008181526004602052604081205490036117185760005481146117185760008181526004602052604090208490555b505b83856001600160a01b0316876001600160a01b03167fddf252ad1be2c89b69c2b068fc378daa952ba7f163c4a11628f55a4df523b3ef60405160405180910390a45b505050505050565b600c546001600160a01b031661178c5760405162461bcd60e51b8152600401610f6e9061526a565b87156117a0576117a08686868686866132af565b60005b87518110156117e4576117d48882815181106117c1576117c1615462565b6020026020010151888888888888610f46565b6117dd81615478565b90506117a3565b506115b3898989613bb5565b6117fb600033613011565b6118175760405162461bcd60e51b8152600401610f6e906153b1565b600f55565b60008061182884613916565b6118685760405162461bcd60e51b81526020600482015260116024820152702737b732bc34b9ba32b73a103a37b5b2b760791b6044820152606401610f6e565b600c546001600160a01b03161561188c57600c546001600160a01b031691506118d3565b600e54600160601b90046001600160a01b0316156118be57600e54600160601b90046001600160a01b031691506118d3565b600a546201000090046001600160a01b031691505b600d54600090612710906118f290600160d01b900461ffff168661544b565b6118fc9190615491565b9150505b9250929050565b611912600033613011565b61192e5760405162461bcd60e51b8152600401610f6e906153b1565b60405163c3c5a54760e01b81523060048201819052906daaeb6d7670e522a718067333cd4e9063c3c5a547906024016020604051808303816000875af115801561197c573d6000803e3d6000fd5b505050506040513d601f19601f820116820180604052508101906119a091906154b3565b1580156119aa5750825b15611a2457604051633e9f1edf60e11b81526001600160a01b038083166004830152831660248201526daaeb6d7670e522a718067333cd4e90637d3e3dbe906044015b600060405180830381600087803b158015611a0757600080fd5b505af1158015611a1b573d6000803e3d6000fd5b50505050505050565b8215611a6c57604051632cc5350560e21b81526001600160a01b038083166004830152831660248201526daaeb6d7670e522a718067333cd4e9063b314d414906044016119ed565b60405163034a0dc160e41b81526001600160a01b0382166004820152600060248201526daaeb6d7670e522a718067333cd4e906334a0dc1090604401600060405180830381600087803b158015611ac257600080fd5b505af1158015611ad6573d6000803e3d6000fd5b5050604051631761612360e11b81526001600160a01b03841660048201526daaeb6d7670e522a718067333cd4e9250632ec2c24691506024016119ed565b600082815260086020526040902060010154611b2f81613be9565b6111308383613bf3565b611b41613c79565b600c546001600160a01b031615611b925760405162461bcd60e51b815260206004820152601560248201527414dc1b1a5d08185b1c9958591e4818dc99585d1959605a1b6044820152606401610f6e565b600b80546001600160a01b0319166001600160a01b038816908117909155604051633b00fbc160e11b8152637601f78290611bdb908890889088908890889033906004016154d0565b6020604051808303816000875af1158015611bfa573d6000803e3d6000fd5b505050506040513d601f19601f82011682018060405250810190611c1e9190615521565b600c80546001600160a01b0319166001600160a01b0392909216919091179055505050505050565b611c51600033613011565b611c6d5760405162461bcd60e51b8152600401610f6e906153b1565b600e80546001600160a01b03909216600160601b026001600160601b03909216919091179055565b611ca0600033613011565b611cbc5760405162461bcd60e51b8152600401610f6e906153b1565b6012805460ff60a01b198116600160a01b9182900460ff1615909102179055565b6001600160a01b0381163314611d4d5760405162461bcd60e51b815260206004820152602f60248201527f416363657373436f6e74726f6c3a2063616e206f6e6c792072656e6f756e636560448201526e103937b632b9903337b91039b2b63360891b6064820152608401610f6e565b611d578282613cda565b5050565b600c546001600160a01b031615611dc05760405162461bcd60e51b8152602060048201526024808201527f43616e6e6f74207769746864726177207769746820616e2061637469766520736044820152631c1b1a5d60e21b6064820152608401610f6e565b600e54600090600160601b90046001600160a01b0316611df157600a546201000090046001600160a01b0316611e05565b600e54600160601b90046001600160a01b03165b90506000816001600160a01b03164760405160006040518083038185875af1925050503d8060008114611e54576040519150601f19603f3d011682016040523d82523d6000602084013e611e59565b606091505b5050905080611d575760405162461bcd60e51b8152602060048201526012602482015271436f756c64206e6f7420776974686472617760701b6044820152606401610f6e565b6009546000906001600160a01b031615801590611f0857506000600954600160f81b900460ff166002811115611ed757611ed76147ff565b1480611f085750808015611f0857506001600954600160f81b900460ff166002811115611f0657611f066147ff565b145b80611f39575080158015611f3957506002600954600160f81b900460ff166002811115611f3757611f376147ff565b145b15612005576009546040516370a0823160e01b8152336004820152600160a01b82046001600160581b0316916001600160a01b0316906370a08231906024016020604051808303816000875af1158015611f97573d6000803e3d6000fd5b505050506040513d601f19601f82011682018060405250810190611fbb91906153d4565b10156120055760405162461bcd60e51b81526020600482015260196024820152783237903737ba1037bbb7103932b8bab4b932b2103a37b5b2b760391b6044820152606401610f6e565b600054600d54600160901b900463ffffffff1642108015906120365750600d54600160b01b900463ffffffff164211155b61207a5760405162461bcd60e51b815260206004820152601560248201527429b0b632b99030b932903737ba1030b1ba34bb329760591b6044820152606401610f6e565b601254600160a01b900460ff16156120d45760405162461bcd60e51b815260206004820152601b60248201527f53616c65206d7573742062652061637469766520746f206d696e7400000000006044820152606401610f6e565b600d5462010000900463ffffffff166120ed8483615403565b111561210b5760405162461bcd60e51b8152600401610f6e90615416565b600d5462010000900463ffffffff168111156121545760405162461bcd60e51b815260206004820152600860248201526714d3d3110813d55560c21b6044820152606401610f6e565b60145460009081906001600160a01b0316156121ef57601454600e54604051637096335b60e01b81526001600160601b039091166004820152602481018790526001600160a01b0390911690637096335b906044016040805180830381865afa1580156121c5573d6000803e3d6000fd5b505050506040513d601f19601f820116820180604052508101906121e9919061553e565b90925090505b600e54600090839061220b9088906001600160601b031661544b565b6122159190615403565b90508034101561225c5760405162461bcd60e51b8152602060048201526012602482015271496e73756666696369656e742066756e647360701b6044820152606401610f6e565b600d54600160301b900463ffffffff16156122d057600d54600160301b900463ffffffff168611156122d05760405162461bcd60e51b815260206004820152601c60248201527f4578636565646564206d6178206e756d62657220706572206d696e74000000006044820152606401610f6e565b6122da8787613aac565b60005b8681101561232357604080516001600160a01b038a1681526020810187905260019096019560008051602061599a833981519152910160405180910390a16001016122dd565b50611a1b6123318385615403565b613d41565b61113083838360405180602001604052806000815250613191565b600a54610100900460ff16158080156123715750600a54600160ff909116105b8061238b5750303b15801561238b5750600a5460ff166001145b6123a75760405162461bcd60e51b8152600401610f6e90615562565b600a805460ff1916600117905580156123ca57600a805461ff0019166101001790555b6123d387613e26565b6123de600088613bf3565b85516002906123ed90826155f6565b50602086015160039061240090826155f6565b50600080556060850151601380546001600160a01b039283166001600160a01b031990911617905584516009805460208801516001600160581b0316600160a01b026001600160f81b0319909116929093169190911791909117808255604086015186929182906001600160f81b0316600160f81b836002811115612487576124876147ff565b021790555090505081601560006101000a8154816001600160a01b0302191690836001600160a01b03160217905550604051806101800160405280876040015115158152602001876060015115158152602001876080015163ffffffff1681526020018760a0015163ffffffff1681526020018760c0015163ffffffff1681526020018760e0015163ffffffff16815260200187610100015163ffffffff16815260200187610120015163ffffffff16815260200187610140015161ffff1681526020018761016001516001600160601b03168152602001876101a001516001600160a01b03168152602001876101c00151815250600d60008201518160000160006101000a81548160ff02191690831515021790555060208201518160000160016101000a81548160ff02191690831515021790555060408201518160000160026101000a81548163ffffffff021916908363ffffffff16021790555060608201518160000160066101000a81548163ffffffff021916908363ffffffff160217905550608082015181600001600a6101000a81548163ffffffff021916908363ffffffff16021790555060a082015181600001600e6101000a81548163ffffffff021916908363ffffffff16021790555060c08201518160000160126101000a81548163ffffffff021916908363ffffffff16021790555060e08201518160000160166101000a81548163ffffffff021916908363ffffffff16021790555061010082015181600001601a6101000a81548161ffff021916908361ffff1602179055506101208201518160010160006101000a8154816001600160601b0302191690836001600160601b0316021790555061014082015181600101600c6101000a8154816001600160a01b0302191690836001600160a01b03160217905550610160820151816002015590505060006001600160a01b0316836001600160a01b03161415801561275e57506000856040015151115b156127dc57601280546001600160a01b0319166001600160a01b03851690811790915560408681015190516342b53ffd60e11b815263856a7ffa916127a591600401614702565b600060405180830381600087803b1580156127bf57600080fd5b505af11580156127d3573d6000803e3d6000fd5b50505050612800565b84516011906127eb90826155f6565b5060208501516010906127fe90826155f6565b505b8015611a1b57600a805461ff0019169055604051600181527f7f26b83ff96e1f2b6a682f133852f6798a09c465da95921460cefb38474024989060200160405180910390a150505050505050565b612859600033613011565b6128755760405162461bcd60e51b8152600401610f6e906153b1565b6010611d5782826155f6565b600a54610100900460ff16158080156128a15750600a54600160ff909116105b806128bb5750303b1580156128bb5750600a5460ff166001145b6128d75760405162461bcd60e51b8152600401610f6e90615562565b600a805460ff1916600117905580156128fa57600a805461ff0019166101001790555b61290386613e26565b61290e600087613bf3565b845160029061291d90826155f6565b50602085015160039061293090826155f6565b5060008055610180850151601480546001600160a01b039283166001600160a01b0319918216179091556060860151601380549184169190921617905583516009805460208701516001600160581b0316600160a01b026001600160f81b0319909116929093169190911791909117808255604085015185929182906001600160f81b0316600160f81b8360028111156129cc576129cc6147ff565b0217905550905050604051806101800160405280866040015115158152602001866060015115158152602001866080015163ffffffff1681526020018660a0015163ffffffff1681526020018660c0015163ffffffff1681526020018660e0015163ffffffff16815260200186610100015163ffffffff16815260200186610120015163ffffffff16815260200186610140015161ffff1681526020018661016001516001600160601b03168152602001866101a001516001600160a01b03168152602001866101c00151815250600d60008201518160000160006101000a81548160ff02191690831515021790555060208201518160000160016101000a81548160ff02191690831515021790555060408201518160000160026101000a81548163ffffffff021916908363ffffffff16021790555060608201518160000160066101000a81548163ffffffff021916908363ffffffff160217905550608082015181600001600a6101000a81548163ffffffff021916908363ffffffff16021790555060a082015181600001600e6101000a81548163ffffffff021916908363ffffffff16021790555060c08201518160000160126101000a81548163ffffffff021916908363ffffffff16021790555060e08201518160000160166101000a81548163ffffffff021916908363ffffffff16021790555061010082015181600001601a6101000a81548161ffff021916908361ffff1602179055506101208201518160010160006101000a8154816001600160601b0302191690836001600160601b0316021790555061014082015181600101600c6101000a8154816001600160a01b0302191690836001600160a01b03160217905550610160820151816002015590505060006001600160a01b0316826001600160a01b031614158015612c7c57506000846040015151115b15612cfa57601280546001600160a01b0319166001600160a01b03841690811790915560408581015190516342b53ffd60e11b815263856a7ffa91612cc391600401614702565b600060405180830381600087803b158015612cdd57600080fd5b505af1158015612cf1573d6000803e3d6000fd5b50505050612d1e565b8351601190612d0990826155f6565b506020840151601090612d1c90826155f6565b505b801561175c57600a805461ff0019169055604051600181527f7f26b83ff96e1f2b6a682f133852f6798a09c465da95921460cefb38474024989060200160405180910390a1505050505050565b600061104082613ac6565b60108054612d839061537d565b80601f0160208091040260200160405190810160405280929190818152602001828054612daf9061537d565b8015612dfc5780601f10612dd157610100808354040283529160200191612dfc565b820191906000526020600020905b815481529060010190602001808311612ddf57829003601f168201915b505050505081565b612e0f600033613011565b612e2b5760405162461bcd60e51b8152600401610f6e906153b1565b600054600d5462010000900463ffffffff16612e478383615403565b10612e645760405162461bcd60e51b8152600401610f6e90615416565b60005b8281101561113057612e8d33612e7d8385615403565b612e88906001615403565b613aac565b80612e9781615478565b915050612e67565b60006001600160a01b038216612ec8576040516323d3ad8160e21b815260040160405180910390fd5b506001600160a01b03166000908152600560205260409020546001600160401b031690565b612ef5613c79565b612eff6000613e26565b565b600c546001600160a01b0316612f295760405162461bcd60e51b8152600401610f6e9061526a565b8115612f3757612f37613e82565b60005b815181101561113057612f65828281518110612f5857612f58615462565b60200260200101516137af565b612f6e81615478565b9050612f3a565b6014546000906001600160a01b03161561300c57601454600e54604051637096335b60e01b81526001600160601b039091166004820152602481018490526001600160a01b0390911690637096335b906044016040805180830381865afa158015612fe4573d6000803e3d6000fd5b505050506040513d601f19601f82011682018060405250810190613008919061553e565b5090505b919050565b60009182526008602090815260408084206001600160a01b0393909316845291905290205460ff1690565b613047600033613011565b6130635760405162461bcd60e51b8152600401610f6e906153b1565b6011611d5782826155f6565b6060600380546110559061537d565b816130888161393d565b6111308383613f25565b61309d600033613011565b6130b95760405162461bcd60e51b8152600401610f6e906153b1565b600d5460ff166131195760405162461bcd60e51b815260206004820152602560248201527f63616e6e6f742061646a7573742073697a65206f66207468697320636f6c6c6560448201526431ba34b7b760d91b6064820152608401610f6e565b8063ffffffff1661312960005490565b111561316d5760405162461bcd60e51b8152602060048201526013602482015272063616e6e6f742064656372656173652063617606c1b6044820152606401610f6e565b600d805463ffffffff909216620100000265ffffffff000019909216919091179055565b61319c8484846115be565b6001600160a01b0383163b156131d5576131b884848484613fba565b6131d5576040516368d2bf6b60e11b815260040160405180910390fd5b50505050565b6015546001600160a01b031633146132355760405162461bcd60e51b815260206004820152601860248201527f4f6e6c79207a6b56657269666965722063616e2063616c6c00000000000000006044820152606401610f6e565b600054600d5462010000900463ffffffff16613252826001615403565b11156132705760405162461bcd60e51b8152600401610f6e90615416565b61327b826001613aac565b604080516001600160a01b03841681526020810183905260008051602061599a833981519152910160405180910390a15050565b600c546001600160a01b03166132d75760405162461bcd60e51b8152600401610f6e9061526a565b6132df613e82565b600b54600c5460405163730e582f60e11b81526001600160a01b039283169263e61cb05e9261331f929116908a908a908a908a908a908a906004016156b5565b600060405180830381600087803b15801561333957600080fd5b505af115801561334d573d6000803e3d6000fd5b50505050505050505050565b613361613c79565b601580546001600160a01b0319166001600160a01b0392909216919091179055565b61338e600033613011565b6133aa5760405162461bcd60e51b8152600401610f6e906153b1565b600054600d54819062010000900463ffffffff166133c88483615403565b11156133e65760405162461bcd60e51b8152600401610f6e90615416565b8183015b8083101561348957613425858584860381811061340957613409615462565b905060200201602081019061341e9190614b96565b6001613aac565b60008051602061599a833981519152858584860381811061344857613448615462565b905060200201602081019061345d9190614b96565b604080516001600160a01b039092168252602082018690520160405180910390a16001909201916133ea565b5050505050565b606061349b82613916565b6134b857604051630a14c4b560e41b815260040160405180910390fd5b6012546001600160a01b03161561353a5760125460405163c87b56dd60e01b8152600481018490526001600160a01b039091169063c87b56dd90602401600060405180830381865afa158015613512573d6000803e3d6000fd5b505050506040513d6000823e601f3d908101601f19168201604052611040919081019061570e565b611040826140a6565b60008281526008602052604090206001015461355e81613be9565b6111308383613cda565b6012546060906001600160a01b031661358857601180546110559061537d565b601260009054906101000a90046001600160a01b03166001600160a01b031663e8a3d4856040518163ffffffff1660e01b8152600401600060405180830381865afa1580156135db573d6000803e3d6000fd5b505050506040513d6000823e601f3d908101601f19168201604052613603919081019061570e565b905090565b600d54600090600160901b900463ffffffff1642108015906136395750600d54600160b01b900463ffffffff164211155b8015613603575050601254600160a01b900460ff161590565b61365d600033613011565b6136795760405162461bcd60e51b8152600401610f6e906153b1565b600d805467ffffffffffffffff60501b1916600160501b63ffffffff9485160263ffffffff60701b191617600160701b9290931691909102919091179055565b6136c1613c79565b6001600160a01b0381166137265760405162461bcd60e51b815260206004820152602660248201527f4f776e61626c653a206e6577206f776e657220697320746865207a65726f206160448201526564647265737360d01b6064820152608401610f6e565b61372f81613e26565b50565b61373d600033613011565b6137595760405162461bcd60e51b8152600401610f6e906153b1565b601280546001600160a01b0319166001600160a01b0392909216919091179055565b613786600033613011565b6137a25760405162461bcd60e51b8152600401610f6e906153b1565b8060096111308282615784565b6040516370a0823160e01b81523060048201526000906001600160a01b038316906370a0823190602401602060405180830381865afa1580156137f6573d6000803e3d6000fd5b505050506040513d601f19601f8201168201806040525081019061381a91906153d4565b600c5460405163a9059cbb60e01b81526001600160a01b0391821660048201526024810183905291925083169063a9059cbb906044016020604051808303816000875af115801561386f573d6000803e3d6000fd5b505050506040513d601f19601f8201168201806040525081019061113091906154b3565b60006001600160e01b03198216637965db0b60e01b148061104057506301ffc9a760e01b6001600160e01b0319831614611040565b60006301ffc9a760e01b6001600160e01b0319831614806138f957506380ac58cd60e01b6001600160e01b03198316145b806110405750506001600160e01b031916635b5e139f60e01b1490565b6000805482108015611040575050600090815260046020526040902054600160e01b161590565b6daaeb6d7670e522a718067333cd4e3b1561372f57604051633185c44d60e21b81523060048201526001600160a01b03821660248201526daaeb6d7670e522a718067333cd4e9063c617113490604401602060405180830381865afa1580156139aa573d6000803e3d6000fd5b505050506040513d601f19601f820116820180604052508101906139ce91906154b3565b61372f57604051633b79c77360e21b81526001600160a01b0382166004820152602401610f6e565b6000613a0182612d6b565b9050336001600160a01b03821614613a3a57613a1d8133610e25565b613a3a576040516367d9dca160e11b815260040160405180910390fd5b60008281526006602052604080822080546001600160a01b0319166001600160a01b0387811691821790925591518593918516917f8c5be1e5ebec7d5bd14f71427d1e84f3dd0314c0f7b2291e5b200ac8c7c3b92591a4505050565b600082613aa38584614129565b14949350505050565b611d57828260405180602001604052806000815250614176565b600081600054811015613b1b5760008181526004602052604081205490600160e01b82169003613b19575b80600003613b12575060001901600081815260046020526040902054613af1565b9392505050565b505b604051636f96cda160e11b815260040160405180910390fd5b836001600160a01b0381163314613b4e57613b4e3361393d565b600d54610100900460ff161580613b7d57506001600160a01b0385161580613b7d57506001600160a01b038416155b6134895760405162461bcd60e51b81526020600482015260096024820152681cdbdd5b189bdd5b9960ba1b6044820152606401610f6e565b600b54604051636e5f691960e01b81526001600160a01b0390911690636e5f6919906119ed90869086908690600401615821565b61372f81336141dc565b613bfd8282613011565b611d575760008281526008602090815260408083206001600160a01b03851684529091529020805460ff19166001179055613c353390565b6001600160a01b0316816001600160a01b0316837f2f8788117e7eff1d82e926ec794901d17c78024a50270940304540a733656f0d60405160405180910390a45050565b600a546001600160a01b0362010000909104163314612eff5760405162461bcd60e51b815260206004820181905260248201527f4f776e61626c653a2063616c6c6572206973206e6f7420746865206f776e65726044820152606401610f6e565b613ce48282613011565b15611d575760008281526008602090815260408083206001600160a01b0385168085529252808320805460ff1916905551339285917ff6391f5c32d9c69d2a47ea670b442974b53935d1edc7fd64eb21e047a839171b9190a45050565b801561372f57601454604080516319b400eb60e21b815290516000926001600160a01b0316916366d003ac9160048083019260209291908290030181865afa158015613d91573d6000803e3d6000fd5b505050506040513d601f19601f82011682018060405250810190613db59190615521565b6001600160a01b03168260405160006040518083038185875af1925050503d8060008114613dff576040519150601f19603f3d011682016040523d82523d6000602084013e613e04565b606091505b5050905080611d5757604051634033e4e360e01b815260040160405180910390fd5b600a80546001600160a01b038381166201000081810262010000600160b01b031985161790945560405193909204169182907f8be0079c531659141344cd1fd0a4f28419497f9722a3daafe3b4186f6b6457e090600090a35050565b600c546040516000916001600160a01b03169047908381818185875af1925050503d8060008114613ecf576040519150601f19603f3d011682016040523d82523d6000602084013e613ed4565b606091505b505090508061372f5760405162461bcd60e51b815260206004820152601f60248201527f436f756c64206e6f74207472616e736665722045544820746f2073706c6974006044820152606401610f6e565b336001600160a01b03831603613f4e5760405163b06307db60e01b815260040160405180910390fd5b3360008181526007602090815260408083206001600160a01b03871680855290835292819020805460ff191686151590811790915590519081529192917f17307eab39ab6107e8899845ad3d59bd9653f200f220920489ca2b5937696c31910160405180910390a35050565b604051630a85bd0160e11b81526000906001600160a01b0385169063150b7a0290613fef903390899088908890600401615884565b6020604051808303816000875af192505050801561402a575060408051601f3d908101601f19168201909252614027918101906158c1565b60015b614088573d808015614058576040519150601f19603f3d011682016040523d82523d6000602084013e61405d565b606091505b508051600003614080576040516368d2bf6b60e11b815260040160405180910390fd5b805181602001fd5b6001600160e01b031916630a85bd0160e11b1490505b949350505050565b60606140b182613916565b6140ce57604051630a14c4b560e41b815260040160405180910390fd5b60006140d8614235565b905080516000036140f85760405180602001604052806000815250613b12565b8061410284614244565b6040516020016141139291906158de565b6040516020818303038152906040529392505050565b600081815b845181101561416e5761415a8286838151811061414d5761414d615462565b602002602001015161427c565b91508061416681615478565b91505061412e565b509392505050565b61418083836142a8565b6001600160a01b0383163b15611130576000548281035b6141aa6000868380600101945086613fba565b6141c7576040516368d2bf6b60e11b815260040160405180910390fd5b81811061419757816000541461348957600080fd5b6141e68282613011565b611d57576141f3816143b3565b6141fe8360206143c5565b60405160200161420f92919061590d565b60408051601f198184030181529082905262461bcd60e51b8252610f6e91600401614702565b6060601080546110559061537d565b604080516080019081905280825b600183039250600a81066030018353600a9004806142525750819003601f19909101908152919050565b6000818310614298576000828152602084905260409020613b12565b5060009182526020526040902090565b60008054908290036142cd5760405163b562e8dd60e01b815260040160405180910390fd5b6142da6000848385613b34565b6001600160a01b03831660008181526005602090815260408083208054680100000000000000018802019055848352600490915281206001851460e11b4260a01b178317905582840190839083907fddf252ad1be2c89b69c2b068fc378daa952ba7f163c4a11628f55a4df523b3ef8180a4600183015b81811461438957808360007fddf252ad1be2c89b69c2b068fc378daa952ba7f163c4a11628f55a4df523b3ef600080a4600101614351565b50816000036143aa57604051622e076360e81b815260040160405180910390fd5b60005550505050565b60606110406001600160a01b03831660145b606060006143d483600261544b565b6143df906002615403565b6001600160401b038111156143f6576143f66148a1565b6040519080825280601f01601f191660200182016040528015614420576020820181803683370190505b509050600360fc1b8160008151811061443b5761443b615462565b60200101906001600160f81b031916908160001a905350600f60fb1b8160018151811061446a5761446a615462565b60200101906001600160f81b031916908160001a905350600061448e84600261544b565b614499906001615403565b90505b6001811115614511576f181899199a1a9b1b9c1cb0b131b232b360811b85600f16601081106144cd576144cd615462565b1a60f81b8282815181106144e3576144e3615462565b60200101906001600160f81b031916908160001a90535060049490941c9361450a81615982565b905061449c565b508315613b125760405162461bcd60e51b815260206004820181905260248201527f537472696e67733a20686578206c656e67746820696e73756666696369656e746044820152606401610f6e565b6001600160a01b038116811461372f57600080fd5b60008083601f84011261458757600080fd5b5081356001600160401b0381111561459e57600080fd5b6020830191508360208260051b850101111561190057600080fd5b803563ffffffff8116811461300c57600080fd5b803561300c81614560565b600080600080600080600060a0888a0312156145f357600080fd5b87356145fe81614560565b965060208801356001600160401b038082111561461a57600080fd5b6146268b838c01614575565b909850965060408a013591508082111561463f57600080fd5b5061464c8a828b01614575565b909550935061465f9050606089016145b9565b9150608088013561466f81614560565b8091505092959891949750929550565b6001600160e01b03198116811461372f57600080fd5b6000602082840312156146a757600080fd5b8135613b128161467f565b60005b838110156146cd5781810151838201526020016146b5565b50506000910152565b600081518084526146ee8160208601602086016146b2565b601f01601f19169290920160200192915050565b602081526000613b1260208301846146d6565b60006020828403121561472757600080fd5b5035919050565b6000806040838503121561474157600080fd5b823561474c81614560565b946020939093013593505050565b6000806040838503121561476d57600080fd5b614776836145b9565b9150614784602084016145b9565b90509250929050565b60008060008060008060a087890312156147a657600080fd5b86356147b181614560565b955060208701359450604087013593506060870135925060808701356001600160401b038111156147e157600080fd5b6147ed89828a01614575565b979a9699509497509295939492505050565b634e487b7160e01b600052602160045260246000fd5b6001600160a01b03841681526001600160581b0383166020820152606081016003831061485257634e487b7160e01b600052602160045260246000fd5b826040830152949350505050565b60008060006060848603121561487557600080fd5b833561488081614560565b9250602084013561489081614560565b929592945050506040919091013590565b634e487b7160e01b600052604160045260246000fd5b6040516101e081016001600160401b03811182821017156148da576148da6148a1565b60405290565b604051601f8201601f191681016001600160401b0381118282101715614908576149086148a1565b604052919050565b600082601f83011261492157600080fd5b813560206001600160401b0382111561493c5761493c6148a1565b8160051b61494b8282016148e0565b928352848101820192828101908785111561496557600080fd5b83870192505b8483101561498d57823561497e81614560565b8252918301919083019061496b565b979650505050505050565b600080600080600080600080600060e08a8c0312156149b657600080fd5b89356149c181614560565b985060208a0135975060408a01356001600160401b03808211156149e457600080fd5b6149f08d838e01614910565b985060608c0135915080821115614a0657600080fd5b614a128d838e01614575565b909850965060808c0135915080821115614a2b57600080fd5b50614a388c828d01614575565b9095509350614a4b905060a08b016145b9565b915060c08a0135614a5b81614560565b809150509295985092959850929598565b60008060408385031215614a7f57600080fd5b50508035926020909101359150565b801515811461372f57600080fd5b803561300c81614a8e565b60008060408385031215614aba57600080fd5b8235614ac581614a8e565b91506020830135614ad581614560565b809150509250929050565b60008060408385031215614af357600080fd5b823591506020830135614ad581614560565b60008060008060008060808789031215614b1e57600080fd5b8635614b2981614560565b955060208701356001600160401b0380821115614b4557600080fd5b614b518a838b01614575565b90975095506040890135915080821115614b6a57600080fd5b50614b7789828a01614575565b9094509250614b8a9050606088016145b9565b90509295509295509295565b600060208284031215614ba857600080fd5b8135613b1281614560565b60006001600160401b03821115614bcc57614bcc6148a1565b50601f01601f191660200190565b600082601f830112614beb57600080fd5b8135614bfe614bf982614bb3565b6148e0565b818152846020838601011115614c1357600080fd5b816020850160208301376000918101602001919091529392505050565b803561ffff8116811461300c57600080fd5b80356001600160601b038116811461300c57600080fd5b60006101e08284031215614c6c57600080fd5b614c746148b7565b905081356001600160401b0380821115614c8d57600080fd5b614c9985838601614bda565b83526020840135915080821115614caf57600080fd5b50614cbc84828501614bda565b602083015250614cce60408301614a9c565b6040820152614cdf60608301614a9c565b6060820152614cf0608083016145b9565b6080820152614d0160a083016145b9565b60a0820152614d1260c083016145b9565b60c0820152614d2360e083016145b9565b60e0820152610100614d368184016145b9565b90820152610120614d488382016145b9565b90820152610140614d5a838201614c30565b90820152610160614d6c838201614c42565b90820152610180614d7e8382016145cd565b908201526101a0614d908382016145cd565b81830152506101c080830135818301525092915050565b600060808284031215614db957600080fd5b604051608081016001600160401b038282108183111715614ddc57614ddc6148a1565b816040528293508435915080821115614df457600080fd5b614e0086838701614bda565b83526020850135915080821115614e1657600080fd5b614e2286838701614bda565b60208401526040850135915080821115614e3b57600080fd5b50614e4885828601614bda565b6040830152506060830135614e5c81614560565b6060919091015292915050565b6001600160581b038116811461372f57600080fd5b6003811061372f57600080fd5b600060608284031215614e9d57600080fd5b604051606081018181106001600160401b0382111715614ebf57614ebf6148a1565b6040529050808235614ed081614560565b81526020830135614ee081614e69565b60208201526040830135614ef381614e7e565b6040919091015292915050565b6000806000806000806101008789031215614f1a57600080fd5b8635614f2581614560565b955060208701356001600160401b0380821115614f4157600080fd5b614f4d8a838b01614c59565b96506040890135915080821115614f6357600080fd5b50614f7089828a01614da7565b945050614f808860608901614e8b565b925060c0870135614f9081614560565b915060e0870135614fa081614560565b809150509295509295509295565b600060208284031215614fc057600080fd5b81356001600160401b03811115614fd657600080fd5b61409e84828501614bda565b600080600080600060e08688031215614ffa57600080fd5b853561500581614560565b945060208601356001600160401b038082111561502157600080fd5b61502d89838a01614c59565b9550604088013591508082111561504357600080fd5b5061505088828901614da7565b9350506150608760608801614e8b565b915060c086013561507081614560565b809150509295509295909350565b6000806040838503121561509157600080fd5b8235915060208301356001600160401b038111156150ae57600080fd5b6118fc85828601614910565b600080604083850312156150cd57600080fd5b82356150d881614560565b91506020830135614ad581614a8e565b6000602082840312156150fa57600080fd5b613b12826145b9565b6000806000806080858703121561511957600080fd5b843561512481614560565b9350602085013561513481614560565b92506040850135915060608501356001600160401b0381111561515657600080fd5b61516287828801614bda565b91505092959194509250565b6000806000806000806080878903121561518757600080fd5b86356001600160401b038082111561519e57600080fd5b6151aa8a838b01614575565b909850965060208901359150808211156151c357600080fd5b506151d089828a01614575565b90955093506151e39050604088016145b9565b91506060870135614fa081614560565b6000806020838503121561520657600080fd5b82356001600160401b0381111561521c57600080fd5b61522885828601614575565b90969095509350505050565b6000806040838503121561524757600080fd5b8235614ac581614560565b60006060828403121561526457600080fd5b50919050565b60208082526015908201527414dc1b1a5d081b9bdd0818dc99585d1959081e595d605a1b604082015260600190565b8183526000602080850194508260005b858110156152d75781356152bc81614560565b6001600160a01b0316875295820195908201906001016152a9565b509495945050505050565b8183526000602080850194508260005b858110156152d75763ffffffff615308836145b9565b16875295820195908201906001016152f2565b600060018060a01b03808b168352808a16602084015260c0604084015261534660c08401898b615299565b838103606085015261535981888a6152e2565b63ffffffff969096166080850152509290921660a090910152509695505050505050565b600181811c9082168061539157607f821691505b60208210810361526457634e487b7160e01b600052602260045260246000fd5b60208082526009908201526837b7363ca0b236b4b760b91b604082015260600190565b6000602082840312156153e657600080fd5b5051919050565b634e487b7160e01b600052601160045260246000fd5b80820180821115611040576110406153ed565b6020808252818101527f507572636861736520776f756c6420657863656564206d617820737570706c79604082015260600190565b8082028115828204841417611040576110406153ed565b634e487b7160e01b600052603260045260246000fd5b60006001820161548a5761548a6153ed565b5060010190565b6000826154ae57634e487b7160e01b600052601260045260246000fd5b500490565b6000602082840312156154c557600080fd5b8151613b1281614a8e565b6080815260006154e460808301888a615299565b82810360208401526154f78187896152e2565b63ffffffff95909516604084015250506001600160a01b0391909116606090910152949350505050565b60006020828403121561553357600080fd5b8151613b1281614560565b6000806040838503121561555157600080fd5b505080516020909101519092909150565b6020808252602e908201527f496e697469616c697a61626c653a20636f6e747261637420697320616c72656160408201526d191e481a5b9a5d1a585b1a5e995960921b606082015260800190565b601f82111561113057600081815260208120601f850160051c810160208610156155d75750805b601f850160051c820191505b8181101561175c578281556001016155e3565b81516001600160401b0381111561560f5761560f6148a1565b6156238161561d845461537d565b846155b0565b602080601f83116001811461565857600084156156405750858301515b600019600386901b1c1916600185901b17855561175c565b600085815260208120601f198616915b8281101561568757888601518255948401946001909101908401615668565b50858210156156a55787850151600019600388901b60f8161c191681555b5050505050600190811b01905550565b600060018060a01b03808a16835260a060208401526156d860a08401898b615299565b83810360408501526156eb81888a6152e2565b63ffffffff96909616606085015250929092166080909101525095945050505050565b60006020828403121561572057600080fd5b81516001600160401b0381111561573657600080fd5b8201601f8101841361574757600080fd5b8051615755614bf982614bb3565b81815285602083850101111561576a57600080fd5b61577b8260208301602086016146b2565b95945050505050565b813561578f81614560565b81546001600160a01b031981166001600160a01b0392909216918217835560208401356157bb81614e69565b6affffffffffffffffffffff60a01b60a09190911b166001600160f81b03199182168317811784556040850135916157f283614e7e565b6003831061581057634e487b7160e01b600052602160045260246000fd5b921760f89190911b90911617905550565b6001600160a01b038481168252602080830185905260606040840181905284519084018190526000928583019290916080860190855b81811015615875578551851683529483019491830191600101615857565b50909998505050505050505050565b6001600160a01b03858116825284166020820152604081018390526080606082018190526000906158b7908301846146d6565b9695505050505050565b6000602082840312156158d357600080fd5b8151613b128161467f565b600083516158f08184602088016146b2565b8351908301906159048183602088016146b2565b01949350505050565b7f416363657373436f6e74726f6c3a206163636f756e74200000000000000000008152600083516159458160178501602088016146b2565b7001034b99036b4b9b9b4b733903937b6329607d1b60179184019182015283516159768160288401602088016146b2565b01602801949350505050565b600081615991576159916153ed565b50600019019056fe30385c845b448a36257a6a1716e6ad2e1bc2cbe333cde1e69fe849ad6511adfea2646970667358221220cbda16157c9ce4dc29074e5e929b00b9875e3f7b05d51438ce4e213877f0c2d364736f6c63430008110033",
  "linkReferences": {},
  "deployedLinkReferences": {}
}