{
  "_format": "hh-sol-artifact-1",
  "contractName": "ZKEdition",
  "sourceName": "contracts/ZKEdition.sol",
  "abi": [
    {
      "inputs": [],
      "name": "ApprovalCallerNotOwnerNorApproved",
      "type": "error"
    },
    {
      "inputs": [],
      "name": "ApprovalQueryForNonexistentToken",
      "type": "error"
    },
    {
      "inputs": [],
      "name": "ApproveToCaller",
      "type": "error"
    },
    {
      "inputs": [],
      "name": "BalanceQueryForZeroAddress",
      "type": "error"
    },
    {
      "inputs": [],
      "name": "MintERC2309QuantityExceedsLimit",
      "type": "error"
    },
    {
      "inputs": [],
      "name": "MintToZeroAddress",
      "type": "error"
    },
    {
      "inputs": [],
      "name": "MintZeroQuantity",
      "type": "error"
    },
    {
      "inputs": [
        {
          "internalType": "address",
          "name": "operator",
          "type": "address"
        }
      ],
      "name": "OperatorNotAllowed",
      "type": "error"
    },
    {
      "inputs": [],
      "name": "OwnerQueryForNonexistentToken",
      "type": "error"
    },
    {
      "inputs": [],
      "name": "OwnershipNotInitializedForExtraData",
      "type": "error"
    },
    {
      "inputs": [],
      "name": "TransferCallerNotOwnerNorApproved",
      "type": "error"
    },
    {
      "inputs": [],
      "name": "TransferFromIncorrectOwner",
      "type": "error"
    },
    {
      "inputs": [],
      "name": "TransferToNonERC721ReceiverImplementer",
      "type": "error"
    },
    {
      "inputs": [],
      "name": "TransferToZeroAddress",
      "type": "error"
    },
    {
      "inputs": [],
      "name": "URIQueryForNonexistentToken",
      "type": "error"
    },
    {
      "anonymous": false,
      "inputs": [
        {
          "indexed": true,
          "internalType": "address",
          "name": "owner",
          "type": "address"
        },
        {
          "indexed": true,
          "internalType": "address",
          "name": "approved",
          "type": "address"
        },
        {
          "indexed": true,
          "internalType": "uint256",
          "name": "tokenId",
          "type": "uint256"
        }
      ],
      "name": "Approval",
      "type": "event"
    },
    {
      "anonymous": false,
      "inputs": [
        {
          "indexed": true,
          "internalType": "address",
          "name": "owner",
          "type": "address"
        },
        {
          "indexed": true,
          "internalType": "address",
          "name": "operator",
          "type": "address"
        },
        {
          "indexed": false,
          "internalType": "bool",
          "name": "approved",
          "type": "bool"
        }
      ],
      "name": "ApprovalForAll",
      "type": "event"
    },
    {
      "anonymous": false,
      "inputs": [
        {
          "indexed": true,
          "internalType": "uint256",
          "name": "fromTokenId",
          "type": "uint256"
        },
        {
          "indexed": false,
          "internalType": "uint256",
          "name": "toTokenId",
          "type": "uint256"
        },
        {
          "indexed": true,
          "internalType": "address",
          "name": "from",
          "type": "address"
        },
        {
          "indexed": true,
          "internalType": "address",
          "name": "to",
          "type": "address"
        }
      ],
      "name": "ConsecutiveTransfer",
      "type": "event"
    },
    {
      "anonymous": false,
      "inputs": [
        {
          "indexed": false,
          "internalType": "uint8",
          "name": "version",
          "type": "uint8"
        }
      ],
      "name": "Initialized",
      "type": "event"
    },
    {
      "anonymous": false,
      "inputs": [
        {
          "indexed": false,
          "internalType": "address",
          "name": "sender",
          "type": "address"
        },
        {
          "indexed": false,
          "internalType": "uint256",
          "name": "tokenId_",
          "type": "uint256"
        }
      ],
      "name": "Minted",
      "type": "event"
    },
    {
      "anonymous": false,
      "inputs": [
        {
          "indexed": true,
          "internalType": "address",
          "name": "previousOwner",
          "type": "address"
        },
        {
          "indexed": true,
          "internalType": "address",
          "name": "newOwner",
          "type": "address"
        }
      ],
      "name": "OwnershipTransferred",
      "type": "event"
    },
    {
      "anonymous": false,
      "inputs": [
        {
          "indexed": true,
          "internalType": "address",
          "name": "from",
          "type": "address"
        },
        {
          "indexed": true,
          "internalType": "address",
          "name": "to",
          "type": "address"
        },
        {
          "indexed": true,
          "internalType": "uint256",
          "name": "tokenId",
          "type": "uint256"
        }
      ],
      "name": "Transfer",
      "type": "event"
    },
    {
      "inputs": [],
      "name": "MAX_TOKENS",
      "outputs": [
        {
          "internalType": "uint256",
          "name": "",
          "type": "uint256"
        }
      ],
      "stateMutability": "view",
      "type": "function"
    },
    {
      "inputs": [
        {
          "internalType": "uint256",
          "name": "newCap",
          "type": "uint256"
        }
      ],
      "name": "adjustCap",
      "outputs": [],
      "stateMutability": "nonpayable",
      "type": "function"
    },
    {
      "inputs": [
        {
          "internalType": "address",
          "name": "operator",
          "type": "address"
        },
        {
          "internalType": "uint256",
          "name": "tokenId",
          "type": "uint256"
        }
      ],
      "name": "approve",
      "outputs": [],
      "stateMutability": "nonpayable",
      "type": "function"
    },
    {
      "inputs": [
        {
          "internalType": "address",
          "name": "owner",
          "type": "address"
        }
      ],
      "name": "balanceOf",
      "outputs": [
        {
          "internalType": "uint256",
          "name": "",
          "type": "uint256"
        }
      ],
      "stateMutability": "view",
      "type": "function"
    },
    {
      "inputs": [],
      "name": "baseURI",
      "outputs": [
        {
          "internalType": "string",
          "name": "",
          "type": "string"
        }
      ],
      "stateMutability": "view",
      "type": "function"
    },
    {
      "inputs": [],
      "name": "contractURI",
      "outputs": [
        {
          "internalType": "string",
          "name": "",
          "type": "string"
        }
      ],
      "stateMutability": "view",
      "type": "function"
    },
    {
      "inputs": [
        {
          "internalType": "address[]",
          "name": "accounts",
          "type": "address[]"
        },
        {
          "internalType": "uint32[]",
          "name": "percentAllocations",
          "type": "uint32[]"
        },
        {
          "internalType": "uint32",
          "name": "distributorFee",
          "type": "uint32"
        }
      ],
      "name": "createSplit",
      "outputs": [],
      "stateMutability": "nonpayable",
      "type": "function"
    },
    {
      "inputs": [
        {
          "internalType": "address",
          "name": "account",
          "type": "address"
        },
        {
          "internalType": "uint256",
          "name": "withdrawETH",
          "type": "uint256"
        },
        {
          "internalType": "contract ERC20[]",
          "name": "tokens",
          "type": "address[]"
        },
        {
          "internalType": "address[]",
          "name": "accounts",
          "type": "address[]"
        },
        {
          "internalType": "uint32[]",
          "name": "percentAllocations",
          "type": "uint32[]"
        },
        {
          "internalType": "uint32",
          "name": "distributorFee",
          "type": "uint32"
        },
        {
          "internalType": "address",
          "name": "distributorAddress",
          "type": "address"
        }
      ],
      "name": "distributeAndWithdraw",
      "outputs": [],
      "stateMutability": "nonpayable",
      "type": "function"
    },
    {
      "inputs": [
        {
          "internalType": "contract ERC20",
          "name": "token",
          "type": "address"
        },
        {
          "internalType": "address[]",
          "name": "accounts",
          "type": "address[]"
        },
        {
          "internalType": "uint32[]",
          "name": "percentAllocations",
          "type": "uint32[]"
        },
        {
          "internalType": "uint32",
          "name": "distributorFee",
          "type": "uint32"
        },
        {
          "internalType": "address",
          "name": "distributorAddress",
          "type": "address"
        }
      ],
      "name": "distributeERC20",
      "outputs": [],
      "stateMutability": "nonpayable",
      "type": "function"
    },
    {
      "inputs": [
        {
          "internalType": "address[]",
          "name": "accounts",
          "type": "address[]"
        },
        {
          "internalType": "uint32[]",
          "name": "percentAllocations",
          "type": "uint32[]"
        },
        {
          "internalType": "uint32",
          "name": "distributorFee",
          "type": "uint32"
        },
        {
          "internalType": "address",
          "name": "distributorAddress",
          "type": "address"
        }
      ],
      "name": "distributeETH",
      "outputs": [],
      "stateMutability": "nonpayable",
      "type": "function"
    },
    {
      "inputs": [],
      "name": "flipSaleState",
      "outputs": [],
      "stateMutability": "nonpayable",
      "type": "function"
    },
    {
      "inputs": [
        {
          "internalType": "uint256",
          "name": "tokenId",
          "type": "uint256"
        }
      ],
      "name": "getApproved",
      "outputs": [
        {
          "internalType": "address",
          "name": "",
          "type": "address"
        }
      ],
      "stateMutability": "view",
      "type": "function"
    },
    {
      "inputs": [],
      "name": "hasAdjustableCap",
      "outputs": [
        {
          "internalType": "bool",
          "name": "",
          "type": "bool"
        }
      ],
      "stateMutability": "view",
      "type": "function"
    },
    {
      "inputs": [
        {
          "internalType": "address",
          "name": "_owner",
          "type": "address"
        },
        {
          "components": [
            {
              "internalType": "string",
              "name": "name",
              "type": "string"
            },
            {
              "internalType": "string",
              "name": "symbol",
              "type": "string"
            },
            {
              "internalType": "bool",
              "name": "hasAdjustableCap",
              "type": "bool"
            },
            {
              "internalType": "uint256",
              "name": "maxTokens",
              "type": "uint256"
            },
            {
              "internalType": "uint256",
              "name": "tokenPrice",
              "type": "uint256"
            },
            {
              "internalType": "uint256",
              "name": "maxTokenPurchase",
              "type": "uint256"
            },
            {
              "internalType": "bytes32",
              "name": "presaleMerkleRoot",
              "type": "bytes32"
            },
            {
              "internalType": "uint256",
              "name": "presaleStart",
              "type": "uint256"
            },
            {
              "internalType": "uint256",
              "name": "presaleEnd",
              "type": "uint256"
            },
            {
              "internalType": "uint256",
              "name": "saleStart",
              "type": "uint256"
            },
            {
              "internalType": "uint256",
              "name": "saleEnd",
              "type": "uint256"
            },
            {
              "internalType": "uint256",
              "name": "royaltyBPS",
              "type": "uint256"
            }
          ],
          "internalType": "struct EditionConfig",
          "name": "_editionConfig",
          "type": "tuple"
        },
        {
          "components": [
            {
              "internalType": "string",
              "name": "contractURI",
              "type": "string"
            },
            {
              "internalType": "string",
              "name": "metadataURI",
              "type": "string"
            },
            {
              "internalType": "bytes",
              "name": "metadataRendererInit",
              "type": "bytes"
            },
            {
              "internalType": "address",
              "name": "parentIP",
              "type": "address"
            }
          ],
          "internalType": "struct MetadataConfig",
          "name": "_metadataConfig",
          "type": "tuple"
        },
        {
          "components": [
            {
              "internalType": "address",
              "name": "tokenAddress",
              "type": "address"
            },
            {
              "internalType": "uint88",
              "name": "minBalance",
              "type": "uint88"
            },
            {
              "internalType": "enum SaleType",
              "name": "saleType",
              "type": "uint8"
            }
          ],
          "internalType": "struct TokenGateConfig",
          "name": "_tokenGateConfig",
          "type": "tuple"
        },
        {
          "internalType": "address",
          "name": "_metadataRenderer",
          "type": "address"
        },
        {
          "internalType": "address",
          "name": "_splitMain",
          "type": "address"
        }
      ],
      "name": "initialize",
      "outputs": [],
      "stateMutability": "nonpayable",
      "type": "function"
    },
    {
      "inputs": [
        {
          "internalType": "address",
          "name": "_owner",
          "type": "address"
        },
        {
          "components": [
            {
              "internalType": "string",
              "name": "name",
              "type": "string"
            },
            {
              "internalType": "string",
              "name": "symbol",
              "type": "string"
            },
            {
              "internalType": "bool",
              "name": "hasAdjustableCap",
              "type": "bool"
            },
            {
              "internalType": "uint256",
              "name": "maxTokens",
              "type": "uint256"
            },
            {
              "internalType": "uint256",
              "name": "tokenPrice",
              "type": "uint256"
            },
            {
              "internalType": "uint256",
              "name": "maxTokenPurchase",
              "type": "uint256"
            },
            {
              "internalType": "bytes32",
              "name": "presaleMerkleRoot",
              "type": "bytes32"
            },
            {
              "internalType": "uint256",
              "name": "presaleStart",
              "type": "uint256"
            },
            {
              "internalType": "uint256",
              "name": "presaleEnd",
              "type": "uint256"
            },
            {
              "internalType": "uint256",
              "name": "saleStart",
              "type": "uint256"
            },
            {
              "internalType": "uint256",
              "name": "saleEnd",
              "type": "uint256"
            },
            {
              "internalType": "uint256",
              "name": "royaltyBPS",
              "type": "uint256"
            }
          ],
          "internalType": "struct EditionConfig",
          "name": "_editionConfig",
          "type": "tuple"
        },
        {
          "components": [
            {
              "internalType": "string",
              "name": "contractURI",
              "type": "string"
            },
            {
              "internalType": "string",
              "name": "metadataURI",
              "type": "string"
            },
            {
              "internalType": "bytes",
              "name": "metadataRendererInit",
              "type": "bytes"
            },
            {
              "internalType": "address",
              "name": "parentIP",
              "type": "address"
            }
          ],
          "internalType": "struct MetadataConfig",
          "name": "_metadataConfig",
          "type": "tuple"
        },
        {
          "components": [
            {
              "internalType": "address",
              "name": "tokenAddress",
              "type": "address"
            },
            {
              "internalType": "uint88",
              "name": "minBalance",
              "type": "uint88"
            },
            {
              "internalType": "enum SaleType",
              "name": "saleType",
              "type": "uint8"
            }
          ],
          "internalType": "struct TokenGateConfig",
          "name": "_tokenGateConfig",
          "type": "tuple"
        },
        {
          "internalType": "address",
          "name": "_metadataRenderer",
          "type": "address"
        },
        {
          "internalType": "address",
          "name": "_splitMain",
          "type": "address"
        },
        {
          "internalType": "address",
          "name": "_zkVerifier",
          "type": "address"
        }
      ],
      "name": "initialize",
      "outputs": [],
      "stateMutability": "nonpayable",
      "type": "function"
    },
    {
      "inputs": [
        {
          "internalType": "address",
          "name": "owner",
          "type": "address"
        },
        {
          "internalType": "address",
          "name": "operator",
          "type": "address"
        }
      ],
      "name": "isApprovedForAll",
      "outputs": [
        {
          "internalType": "bool",
          "name": "",
          "type": "bool"
        }
      ],
      "stateMutability": "view",
      "type": "function"
    },
    {
      "inputs": [],
      "name": "maxTokenPurchase",
      "outputs": [
        {
          "internalType": "uint256",
          "name": "",
          "type": "uint256"
        }
      ],
      "stateMutability": "view",
      "type": "function"
    },
    {
      "inputs": [],
      "name": "metadataRenderer",
      "outputs": [
        {
          "internalType": "address",
          "name": "",
          "type": "address"
        }
      ],
      "stateMutability": "view",
      "type": "function"
    },
    {
      "inputs": [
        {
          "internalType": "uint256",
          "name": "numberOfTokens",
          "type": "uint256"
        }
      ],
      "name": "mint",
      "outputs": [],
      "stateMutability": "payable",
      "type": "function"
    },
    {
      "inputs": [
        {
          "internalType": "address[]",
          "name": "recipients",
          "type": "address[]"
        }
      ],
      "name": "mintAirdrop",
      "outputs": [],
      "stateMutability": "nonpayable",
      "type": "function"
    },
    {
      "inputs": [
        {
          "internalType": "uint256",
          "name": "quantity",
          "type": "uint256"
        },
        {
          "internalType": "uint256",
          "name": "maxQuantity",
          "type": "uint256"
        },
        {
          "internalType": "uint256",
          "name": "pricePerToken",
          "type": "uint256"
        },
        {
          "internalType": "bytes32[]",
          "name": "merkleProof",
          "type": "bytes32[]"
        }
      ],
      "name": "mintPresale",
      "outputs": [],
      "stateMutability": "payable",
      "type": "function"
    },
    {
      "inputs": [],
      "name": "name",
      "outputs": [
        {
          "internalType": "string",
          "name": "",
          "type": "string"
        }
      ],
      "stateMutability": "view",
      "type": "function"
    },
    {
      "inputs": [],
      "name": "operatorFilterRegistry",
      "outputs": [
        {
          "internalType": "contract IOperatorFilterRegistry",
          "name": "",
          "type": "address"
        }
      ],
      "stateMutability": "view",
      "type": "function"
    },
    {
      "inputs": [],
      "name": "owner",
      "outputs": [
        {
          "internalType": "address",
          "name": "",
          "type": "address"
        }
      ],
      "stateMutability": "view",
      "type": "function"
    },
    {
      "inputs": [
        {
          "internalType": "uint256",
          "name": "tokenId",
          "type": "uint256"
        }
      ],
      "name": "ownerOf",
      "outputs": [
        {
          "internalType": "address",
          "name": "",
          "type": "address"
        }
      ],
      "stateMutability": "view",
      "type": "function"
    },
    {
      "inputs": [],
      "name": "parentIP",
      "outputs": [
        {
          "internalType": "address",
          "name": "",
          "type": "address"
        }
      ],
      "stateMutability": "view",
      "type": "function"
    },
    {
      "inputs": [],
      "name": "presaleEnd",
      "outputs": [
        {
          "internalType": "uint256",
          "name": "",
          "type": "uint256"
        }
      ],
      "stateMutability": "view",
      "type": "function"
    },
    {
      "inputs": [],
      "name": "presaleStart",
      "outputs": [
        {
          "internalType": "uint256",
          "name": "",
          "type": "uint256"
        }
      ],
      "stateMutability": "view",
      "type": "function"
    },
    {
      "inputs": [],
      "name": "renounceOwnership",
      "outputs": [],
      "stateMutability": "nonpayable",
      "type": "function"
    },
    {
      "inputs": [
        {
          "internalType": "uint256",
          "name": "numReserved",
          "type": "uint256"
        }
      ],
      "name": "reserveDCNT",
      "outputs": [],
      "stateMutability": "nonpayable",
      "type": "function"
    },
    {
      "inputs": [],
      "name": "royaltyBPS",
      "outputs": [
        {
          "internalType": "uint256",
          "name": "",
          "type": "uint256"
        }
      ],
      "stateMutability": "view",
      "type": "function"
    },
    {
      "inputs": [
        {
          "internalType": "uint256",
          "name": "tokenId",
          "type": "uint256"
        },
        {
          "internalType": "uint256",
          "name": "salePrice",
          "type": "uint256"
        }
      ],
      "name": "royaltyInfo",
      "outputs": [
        {
          "internalType": "address",
          "name": "receiver",
          "type": "address"
        },
        {
          "internalType": "uint256",
          "name": "royaltyAmount",
          "type": "uint256"
        }
      ],
      "stateMutability": "view",
      "type": "function"
    },
    {
      "inputs": [
        {
          "internalType": "address",
          "name": "from",
          "type": "address"
        },
        {
          "internalType": "address",
          "name": "to",
          "type": "address"
        },
        {
          "internalType": "uint256",
          "name": "tokenId",
          "type": "uint256"
        }
      ],
      "name": "safeTransferFrom",
      "outputs": [],
      "stateMutability": "nonpayable",
      "type": "function"
    },
    {
      "inputs": [
        {
          "internalType": "address",
          "name": "from",
          "type": "address"
        },
        {
          "internalType": "address",
          "name": "to",
          "type": "address"
        },
        {
          "internalType": "uint256",
          "name": "tokenId",
          "type": "uint256"
        },
        {
          "internalType": "bytes",
          "name": "_data",
          "type": "bytes"
        }
      ],
      "name": "safeTransferFrom",
      "outputs": [],
      "stateMutability": "nonpayable",
      "type": "function"
    },
    {
      "inputs": [],
      "name": "saleEnd",
      "outputs": [
        {
          "internalType": "uint256",
          "name": "",
          "type": "uint256"
        }
      ],
      "stateMutability": "view",
      "type": "function"
    },
    {
      "inputs": [],
      "name": "saleIsActive",
      "outputs": [
        {
          "internalType": "bool",
          "name": "_saleIsActive",
          "type": "bool"
        }
      ],
      "stateMutability": "view",
      "type": "function"
    },
    {
      "inputs": [],
      "name": "saleIsPaused",
      "outputs": [
        {
          "internalType": "bool",
          "name": "",
          "type": "bool"
        }
      ],
      "stateMutability": "view",
      "type": "function"
    },
    {
      "inputs": [],
      "name": "saleStart",
      "outputs": [
        {
          "internalType": "uint256",
          "name": "",
          "type": "uint256"
        }
      ],
      "stateMutability": "view",
      "type": "function"
    },
    {
      "inputs": [
        {
          "internalType": "address",
          "name": "operator",
          "type": "address"
        },
        {
          "internalType": "bool",
          "name": "approved",
          "type": "bool"
        }
      ],
      "name": "setApprovalForAll",
      "outputs": [],
      "stateMutability": "nonpayable",
      "type": "function"
    },
    {
      "inputs": [
        {
          "internalType": "string",
          "name": "uri",
          "type": "string"
        }
      ],
      "name": "setBaseURI",
      "outputs": [],
      "stateMutability": "nonpayable",
      "type": "function"
    },
    {
      "inputs": [
        {
          "internalType": "string",
          "name": "uri",
          "type": "string"
        }
      ],
      "name": "setContractURI",
      "outputs": [],
      "stateMutability": "nonpayable",
      "type": "function"
    },
    {
      "inputs": [
        {
          "internalType": "address",
          "name": "_metadataRenderer",
          "type": "address"
        }
      ],
      "name": "setMetadataRenderer",
      "outputs": [],
      "stateMutability": "nonpayable",
      "type": "function"
    },
    {
      "inputs": [
        {
          "internalType": "bytes32",
          "name": "_presaleMerkleRoot",
          "type": "bytes32"
        }
      ],
      "name": "setPresaleMerkleRoot",
      "outputs": [],
      "stateMutability": "nonpayable",
      "type": "function"
    },
    {
      "inputs": [
        {
          "internalType": "address",
          "name": "_zkVerifier",
          "type": "address"
        }
      ],
      "name": "setZKVerifier",
      "outputs": [],
      "stateMutability": "nonpayable",
      "type": "function"
    },
    {
      "inputs": [],
      "name": "splitMain",
      "outputs": [
        {
          "internalType": "address",
          "name": "",
          "type": "address"
        }
      ],
      "stateMutability": "view",
      "type": "function"
    },
    {
      "inputs": [],
      "name": "splitWallet",
      "outputs": [
        {
          "internalType": "address",
          "name": "",
          "type": "address"
        }
      ],
      "stateMutability": "view",
      "type": "function"
    },
    {
      "inputs": [
        {
          "internalType": "bytes4",
          "name": "interfaceId",
          "type": "bytes4"
        }
      ],
      "name": "supportsInterface",
      "outputs": [
        {
          "internalType": "bool",
          "name": "",
          "type": "bool"
        }
      ],
      "stateMutability": "view",
      "type": "function"
    },
    {
      "inputs": [],
      "name": "symbol",
      "outputs": [
        {
          "internalType": "string",
          "name": "",
          "type": "string"
        }
      ],
      "stateMutability": "view",
      "type": "function"
    },
    {
      "inputs": [],
      "name": "tokenGateConfig",
      "outputs": [
        {
          "internalType": "address",
          "name": "tokenAddress",
          "type": "address"
        },
        {
          "internalType": "uint88",
          "name": "minBalance",
          "type": "uint88"
        },
        {
          "internalType": "enum SaleType",
          "name": "saleType",
          "type": "uint8"
        }
      ],
      "stateMutability": "view",
      "type": "function"
    },
    {
      "inputs": [],
      "name": "tokenPrice",
      "outputs": [
        {
          "internalType": "uint256",
          "name": "",
          "type": "uint256"
        }
      ],
      "stateMutability": "view",
      "type": "function"
    },
    {
      "inputs": [
        {
          "internalType": "uint256",
          "name": "tokenId",
          "type": "uint256"
        }
      ],
      "name": "tokenURI",
      "outputs": [
        {
          "internalType": "string",
          "name": "",
          "type": "string"
        }
      ],
      "stateMutability": "view",
      "type": "function"
    },
    {
      "inputs": [],
      "name": "totalSupply",
      "outputs": [
        {
          "internalType": "uint256",
          "name": "",
          "type": "uint256"
        }
      ],
      "stateMutability": "view",
      "type": "function"
    },
    {
      "inputs": [
        {
          "internalType": "address",
          "name": "from",
          "type": "address"
        },
        {
          "internalType": "address",
          "name": "to",
          "type": "address"
        },
        {
          "internalType": "uint256",
          "name": "tokenId",
          "type": "uint256"
        }
      ],
      "name": "transferFrom",
      "outputs": [],
      "stateMutability": "nonpayable",
      "type": "function"
    },
    {
      "inputs": [
        {
          "internalType": "address",
          "name": "newOwner",
          "type": "address"
        }
      ],
      "name": "transferOwnership",
      "outputs": [],
      "stateMutability": "nonpayable",
      "type": "function"
    },
    {
      "inputs": [
        {
          "internalType": "uint256",
          "name": "transferETH",
          "type": "uint256"
        },
        {
          "internalType": "contract ERC20[]",
          "name": "tokens",
          "type": "address[]"
        }
      ],
      "name": "transferToSplit",
      "outputs": [],
      "stateMutability": "nonpayable",
      "type": "function"
    },
    {
      "inputs": [
        {
          "internalType": "bool",
          "name": "enable",
          "type": "bool"
        },
        {
          "internalType": "address",
          "name": "operatorFilter",
          "type": "address"
        }
      ],
      "name": "updateOperatorFilter",
      "outputs": [],
      "stateMutability": "nonpayable",
      "type": "function"
    },
    {
      "inputs": [
        {
          "internalType": "uint256",
          "name": "newStart",
          "type": "uint256"
        },
        {
          "internalType": "uint256",
          "name": "newEnd",
          "type": "uint256"
        }
      ],
      "name": "updatePresaleStartEnd",
      "outputs": [],
      "stateMutability": "nonpayable",
      "type": "function"
    },
    {
      "inputs": [
        {
          "internalType": "uint256",
          "name": "newStart",
          "type": "uint256"
        },
        {
          "internalType": "uint256",
          "name": "newEnd",
          "type": "uint256"
        }
      ],
      "name": "updateSaleStartEnd",
      "outputs": [],
      "stateMutability": "nonpayable",
      "type": "function"
    },
    {
      "inputs": [],
      "name": "withdraw",
      "outputs": [],
      "stateMutability": "nonpayable",
      "type": "function"
    },
    {
      "inputs": [
        {
          "internalType": "address",
          "name": "recipient",
          "type": "address"
        }
      ],
      "name": "zkClaim",
      "outputs": [],
      "stateMutability": "nonpayable",
      "type": "function"
    },
    {
      "inputs": [],
      "name": "zkVerifier",
      "outputs": [
        {
          "internalType": "address",
          "name": "",
          "type": "address"
        }
      ],
      "stateMutability": "view",
      "type": "function"
    }
  ],
  "bytecode": "0x60806040523480156200001157600080fd5b506200001d3362000023565b6200007f565b600980546001600160a01b038381166201000081810262010000600160b01b031985161790945560405193909204169182907f8be0079c531659141344cd1fd0a4f28419497f9722a3daafe3b4186f6b6457e090600090a35050565b614546806200008f6000396000f3fe6080604052600436106103a15760003560e01c806379ab7c8e116101e7578063c50903461161010d578063e70aeefe116100a0578063f0cc8b621161006f578063f0cc8b6214610a9d578063f2fde38b14610abd578063f47c84c514610add578063fd4fe8a814610af357600080fd5b8063e70aeefe14610a33578063e8a3d48514610a53578063e985e9c514610a68578063eb8d244414610a8857600080fd5b8063d58d458a116100dc578063d58d458a146109c3578063d6df096d146109e3578063de8801e514610a03578063e6c350c114610a1957600080fd5b8063c509034614610943578063c595317014610963578063c87b56dd14610983578063c9ef5eee146109a357600080fd5b8063a22cb46511610185578063b9139dcb11610154578063b9139dcb146108d7578063b9c9d93a146108f7578063c10b93581461090d578063c4559d5a1461092357600080fd5b8063a22cb4651461085f578063ab0bcc411461087f578063b0ccc31e14610895578063b88d4fde146108b757600080fd5b8063931cf0f4116101c1578063931cf0f4146107f6578063938e3d7b1461081757806395d89b4114610837578063a0712d681461084c57600080fd5b806379ab7c8e1461079c5780637ff9b596146107bc5780638da5cb5b146107d257600080fd5b80632a55205a116102cc5780636352211e1161026a57806370a082311161023957806370a0823114610734578063713b978714610754578063715018a614610774578063727a612e1461078957600080fd5b80636352211e146106bf5780636c0360eb146106df5780636c1951ae146106f4578063703199701461071457600080fd5b80633ccfd60b116102a65780633ccfd60b1461064a57806342842e0e1461065f57806355f804b31461067f5780635799dbdd1461069f57600080fd5b80632a55205a146105d65780632d75fea61461061557806334918dfd1461063557600080fd5b80630e769b2b11610344578063229f3e2911610313578063229f3e291461056057806323b872dd14610576578063284a44a81461059657806328d7b276146105b657600080fd5b80630e769b2b146104bb57806317dc2587146104db57806318160ddd146104fb5780631dbdedbd1461051457600080fd5b806306fdde031161038057806306fdde031461041d578063081812fc1461043f578063095ea7b31461047757806309aa3dcf1461049757600080fd5b80625f16fb146103a6578063015893c5146103c857806301ffc9a7146103e8575b600080fd5b3480156103b257600080fd5b506103c66103c13660046133d7565b610b13565b005b3480156103d457600080fd5b506103c66103e336600461347e565b610bf0565b3480156103f457600080fd5b50610408610403366004613514565b610d6a565b60405190151581526020015b60405180910390f35b34801561042957600080fd5b50610432610d95565b6040516104149190613581565b34801561044b57600080fd5b5061045f61045a366004613594565b610e27565b6040516001600160a01b039091168152602001610414565b34801561048357600080fd5b506103c66104923660046135ad565b610e6b565b3480156104a357600080fd5b506104ad600c5481565b604051908152602001610414565b3480156104c757600080fd5b5060175461045f906001600160a01b031681565b3480156104e757600080fd5b506103c66104f63660046135d9565b610e84565b34801561050757600080fd5b50600154600054036104ad565b34801561052057600080fd5b50600854610551906001600160a01b03811690600160a01b81046001600160581b031690600160f81b900460ff1683565b60405161041493929190613611565b34801561056c57600080fd5b506104ad60155481565b34801561058257600080fd5b506103c661059136600461365c565b610e97565b3480156105a257600080fd5b506103c66105b1366004613794565b611039565b3480156105c257600080fd5b506103c66105d1366004613594565b6110e2565b3480156105e257600080fd5b506105f66105f13660046135d9565b6110ef565b604080516001600160a01b039093168352602083019190915201610414565b34801561062157600080fd5b506103c6610630366004613881565b61119c565b34801561064157600080fd5b506103c661138a565b34801561065657600080fd5b506103c66113a6565b34801561066b57600080fd5b506103c661067a36600461365c565b6114b4565b34801561068b57600080fd5b506103c661069a366004613937565b6114cf565b3480156106ab57600080fd5b506103c66106ba3660046135d9565b6114e7565b3480156106cb57600080fd5b5061045f6106da366004613594565b6114fa565b3480156106eb57600080fd5b50610432611505565b34801561070057600080fd5b506103c661070f366004613594565b611593565b34801561072057600080fd5b5060125461045f906001600160a01b031681565b34801561074057600080fd5b506104ad61074f36600461396b565b611603565b34801561076057600080fd5b5060185461045f906001600160a01b031681565b34801561078057600080fd5b506103c6611651565b6103c6610797366004613988565b611665565b3480156107a857600080fd5b506103c66107b73660046139e8565b611a4f565b3480156107c857600080fd5b506104ad600b5481565b3480156107de57600080fd5b506009546201000090046001600160a01b031661045f565b34801561080257600080fd5b5060095461040890600160b01b900460ff1681565b34801561082357600080fd5b506103c6610832366004613937565b611ad5565b34801561084357600080fd5b50610432611ae9565b6103c661085a366004613594565b611af8565b34801561086b57600080fd5b506103c661087a366004613a24565b611e70565b34801561088b57600080fd5b506104ad600d5481565b3480156108a157600080fd5b5061045f6daaeb6d7670e522a718067333cd4e81565b3480156108c357600080fd5b506103c66108d2366004613a52565b611e84565b3480156108e357600080fd5b506103c66108f236600461396b565b611ec8565b34801561090357600080fd5b506104ad60135481565b34801561091957600080fd5b506104ad600e5481565b34801561092f57600080fd5b506103c661093e366004613abd565b611f90565b34801561094f57600080fd5b506103c661095e36600461396b565b612060565b34801561096f57600080fd5b506103c661097e366004613b50565b61208a565b34801561098f57600080fd5b5061043261099e366004613594565b61216c565b3480156109af57600080fd5b506103c66109be366004613dba565b61221f565b3480156109cf57600080fd5b506103c66109de366004613594565b6124da565b3480156109ef57600080fd5b50601a5461045f906001600160a01b031681565b348015610a0f57600080fd5b506104ad60145481565b348015610a2557600080fd5b50600f546104089060ff1681565b348015610a3f57600080fd5b506103c6610a4e366004613e5a565b61259c565b348015610a5f57600080fd5b50610432612870565b348015610a7457600080fd5b50610408610a83366004613f0d565b612910565b348015610a9457600080fd5b5061040861293e565b348015610aa957600080fd5b5060195461045f906001600160a01b031681565b348015610ac957600080fd5b506103c6610ad836600461396b565b612966565b348015610ae957600080fd5b506104ad600a5481565b348015610aff57600080fd5b506103c6610b0e36600461396b565b6129dc565b6000610b276018546001600160a01b031690565b6001600160a01b031603610b565760405162461bcd60e51b8152600401610b4d90613f2b565b60405180910390fd5b610b5f87612a06565b6017546001600160a01b03166001600160a01b03166315811302610b8b6018546001600160a01b031690565b898989898989896040518963ffffffff1660e01b8152600401610bb5989796959493929190613fdc565b600060405180830381600087803b158015610bcf57600080fd5b505af1158015610be3573d6000803e3d6000fd5b5050505050505050505050565b610bf8612b05565b6000610c0c6017546001600160a01b031690565b6001600160a01b031603610c565760405162461bcd60e51b815260206004820152601160248201527014dc1b1a5d13585a5b881b9bdd081cd95d607a1b6044820152606401610b4d565b6000610c6a6018546001600160a01b031690565b6001600160a01b031614610cb85760405162461bcd60e51b815260206004820152601560248201527414dc1b1a5d08185b1c9958591e4818dc99585d1959605a1b6044820152606401610b4d565b6000610ccc6017546001600160a01b031690565b6001600160a01b0316637601f7828787878787336040518763ffffffff1660e01b8152600401610d019695949392919061403e565b6020604051808303816000875af1158015610d20573d6000803e3d6000fd5b505050506040513d601f19601f82011682018060405250810190610d44919061408f565b601880546001600160a01b0319166001600160a01b03831617905590505b505050505050565b600063152a902d60e11b6001600160e01b031983161480610d8f5750610d8f82612b66565b92915050565b606060028054610da4906140ac565b80601f0160208091040260200160405190810160405280929190818152602001828054610dd0906140ac565b8015610e1d5780601f10610df257610100808354040283529160200191610e1d565b820191906000526020600020905b815481529060010190602001808311610e0057829003601f168201915b5050505050905090565b6000610e3282612bb4565b610e4f576040516333d1c03960e21b815260040160405180910390fd5b506000908152600660205260409020546001600160a01b031690565b81610e7581612bdb565b610e7f8383612c94565b505050565b610e8c612b05565b600d91909155600e55565b6000610ea282612d34565b9050836001600160a01b0316816001600160a01b031614610ed55760405162a1148160e81b815260040160405180910390fd5b60008281526006602052604090208054338082146001600160a01b03881690911417610f2257610f058633612910565b610f2257604051632ce44b5f60e11b815260040160405180910390fd5b6001600160a01b038516610f4957604051633a954ecd60e21b815260040160405180910390fd5b610f568686866001612da2565b8015610f6157600082555b6001600160a01b038681166000908152600560205260408082208054600019019055918716808252919020805460010190554260a01b17600160e11b17600085815260046020526040812091909155600160e11b84169003610ff357600184016000818152600460205260408120549003610ff1576000548114610ff15760008181526004602052604090208490555b505b83856001600160a01b0316876001600160a01b03167fddf252ad1be2c89b69c2b068fc378daa952ba7f163c4a11628f55a4df523b3ef60405160405180910390a4610d62565b600061104d6018546001600160a01b031690565b6001600160a01b0316036110735760405162461bcd60e51b8152600401610b4d90613f2b565b871561108757611087868686868686611f90565b60005b87518110156110cb576110bb8882815181106110a8576110a86140e6565b6020026020010151888888888888610b13565b6110c481614112565b905061108a565b506110d7898989612dbc565b505050505050505050565b6110ea612b05565b601655565b6000806110fb84612bb4565b61113b5760405162461bcd60e51b81526020600482015260116024820152702737b732bc34b9ba32b73a103a37b5b2b760791b6044820152606401610b4d565b6018546001600160a01b03161561115f576018546001600160a01b03169150611174565b6009546201000090046001600160a01b031691505b600061271060135485611187919061412b565b6111919190614142565b9150505b9250929050565b6111a4612b05565b60405163c3c5a54760e01b81523060048201819052906daaeb6d7670e522a718067333cd4e9063c3c5a547906024016020604051808303816000875af11580156111f2573d6000803e3d6000fd5b505050506040513d601f19601f820116820180604052508101906112169190614164565b1580156112205750825b1561129a57604051633e9f1edf60e11b81526001600160a01b038083166004830152831660248201526daaeb6d7670e522a718067333cd4e90637d3e3dbe906044015b600060405180830381600087803b15801561127d57600080fd5b505af1158015611291573d6000803e3d6000fd5b50505050505050565b82156112e257604051632cc5350560e21b81526001600160a01b038083166004830152831660248201526daaeb6d7670e522a718067333cd4e9063b314d41490604401611263565b60405163034a0dc160e41b81526001600160a01b0382166004820152600060248201526daaeb6d7670e522a718067333cd4e906334a0dc1090604401600060405180830381600087803b15801561133857600080fd5b505af115801561134c573d6000803e3d6000fd5b5050604051631761612360e11b81526001600160a01b03841660048201526daaeb6d7670e522a718067333cd4e9250632ec2c2469150602401611263565b611392612b05565b600f805460ff19811660ff90911615179055565b6113ae612b05565b60006113c26018546001600160a01b031690565b6001600160a01b0316146114245760405162461bcd60e51b8152602060048201526024808201527f43616e6e6f74207769746864726177207769746820616e2061637469766520736044820152631c1b1a5d60e21b6064820152608401610b4d565b604051600090339047908381818185875af1925050503d8060008114611466576040519150601f19603f3d011682016040523d82523d6000602084013e61146b565b606091505b50509050806114b15760405162461bcd60e51b8152602060048201526012602482015271436f756c64206e6f7420776974686472617760701b6044820152606401610b4d565b50565b610e7f83838360405180602001604052806000815250611e84565b6114d7612b05565b60106114e382826141c7565b5050565b6114ef612b05565b601491909155601555565b6000610d8f82612d34565b60108054611512906140ac565b80601f016020809104026020016040519081016040528092919081815260200182805461153e906140ac565b801561158b5780601f106115605761010080835404028352916020019161158b565b820191906000526020600020905b81548152906001019060200180831161156e57829003601f168201915b505050505081565b61159b612b05565b600054600a546115ab8383614286565b106115c85760405162461bcd60e51b8152600401610b4d90614299565b60005b82811015610e7f576115f1336115e18385614286565b6115ec906001614286565b612df0565b806115fb81614112565b9150506115cb565b60006001600160a01b03821661162c576040516323d3ad8160e21b815260040160405180910390fd5b506001600160a01b03166000908152600560205260409020546001600160401b031690565b611659612b05565b6116636000612e0a565b565b6008546001906001600160a01b0316158015906116ce57506000600854600160f81b900460ff16600281111561169d5761169d6135fb565b14806116ce57508080156116ce57506001600854600160f81b900460ff1660028111156116cc576116cc6135fb565b145b806116ff5750801580156116ff57506002600854600160f81b900460ff1660028111156116fd576116fd6135fb565b145b156117cb576008546040516370a0823160e01b8152336004820152600160a01b82046001600160581b0316916001600160a01b0316906370a08231906024016020604051808303816000875af115801561175d573d6000803e3d6000fd5b505050506040513d601f19601f8201168201806040525081019061178191906142ce565b10156117cb5760405162461bcd60e51b81526020600482015260196024820152783237903737ba1037bbb7103932b8bab4b932b2103a37b5b2b760391b6044820152606401610b4d565b60145442101580156117df57506015544211155b6118195760405162461bcd60e51b815260206004820152600b60248201526a6e6f742070726573616c6560a81b6044820152606401610b4d565b600054600f5460ff161561186f5760405162461bcd60e51b815260206004820152601b60248201527f53616c65206d7573742062652061637469766520746f206d696e7400000000006044820152606401610b4d565b600a5461187c8883614286565b111561189a5760405162461bcd60e51b8152600401610b4d90614299565b61191d848480806020026020016040519081016040528093929190818152602001838360200280828437600092019190915250506016546040516bffffffffffffffffffffffff193360601b166020820152603481018c9052605481018b9052909250607401905060405160208183030381529060405280519060200120612e66565b6119585760405162461bcd60e51b815260206004820152600c60248201526b1b9bdd08185c1c1c9bdd995960a21b6044820152606401610b4d565b611962878661412b565b3410156119a65760405162461bcd60e51b8152602060048201526012602482015271496e73756666696369656e742066756e647360701b6044820152606401610b4d565b85876119b133611603565b6119bb9190614286565b11156119fb5760405162461bcd60e51b815260206004820152600f60248201526e6d696e74656420746f6f206d616e7960881b6044820152606401610b4d565b611a053388612df0565b60005b87811015611a455760408051338152602081018490526001909301926000805160206144f1833981519152910160405180910390a1600101611a08565b5050505050505050565b6000611a636018546001600160a01b031690565b6001600160a01b031603611a895760405162461bcd60e51b8152600401610b4d90613f2b565b8115611a9757611a97612e7c565b60005b8151811015610e7f57611ac5828281518110611ab857611ab86140e6565b6020026020010151612a06565b611ace81614112565b9050611a9a565b611add612b05565b60116114e382826141c7565b606060038054610da4906140ac565b6008546000906001600160a01b031615801590611b6157506000600854600160f81b900460ff166002811115611b3057611b306135fb565b1480611b615750808015611b6157506001600854600160f81b900460ff166002811115611b5f57611b5f6135fb565b145b80611b92575080158015611b9257506002600854600160f81b900460ff166002811115611b9057611b906135fb565b145b15611c5e576008546040516370a0823160e01b8152336004820152600160a01b82046001600160581b0316916001600160a01b0316906370a08231906024016020604051808303816000875af1158015611bf0573d6000803e3d6000fd5b505050506040513d601f19601f82011682018060405250810190611c1491906142ce565b1015611c5e5760405162461bcd60e51b81526020600482015260196024820152783237903737ba1037bbb7103932b8bab4b932b2103a37b5b2b760391b6044820152606401610b4d565b600054600d544210801590611c755750600e544211155b611cb95760405162461bcd60e51b815260206004820152601560248201527429b0b632b99030b932903737ba1030b1ba34bb329760591b6044820152606401610b4d565b600f5460ff1615611d0c5760405162461bcd60e51b815260206004820152601b60248201527f53616c65206d7573742062652061637469766520746f206d696e7400000000006044820152606401610b4d565b600a54611d198483614286565b1115611d375760405162461bcd60e51b8152600401610b4d90614299565b600a54811115611d745760405162461bcd60e51b815260206004820152600860248201526714d3d3110813d55560c21b6044820152606401610b4d565b82600b54611d82919061412b565b341015611dc65760405162461bcd60e51b8152602060048201526012602482015271496e73756666696369656e742066756e647360701b6044820152606401610b4d565b600c5415611e2057600c54831115611e205760405162461bcd60e51b815260206004820152601c60248201527f4578636565646564206d6178206e756d62657220706572206d696e74000000006044820152606401610b4d565b611e2a3384612df0565b60005b83811015611e6a5760408051338152602081018490526001909301926000805160206144f1833981519152910160405180910390a1600101611e2d565b50505050565b81611e7a81612bdb565b610e7f8383612f30565b611e8f848484610e97565b6001600160a01b0383163b15611e6a57611eab84848484612fc5565b611e6a576040516368d2bf6b60e11b815260040160405180910390fd5b601a546001600160a01b03163314611f225760405162461bcd60e51b815260206004820152601860248201527f4f6e6c79207a6b56657269666965722063616e2063616c6c00000000000000006044820152606401610b4d565b600054600a54611f33826001614286565b1115611f515760405162461bcd60e51b8152600401610b4d90614299565b611f5c826001612df0565b604080516001600160a01b0384168152602081018390526000805160206144f1833981519152910160405180910390a15050565b6000611fa46018546001600160a01b031690565b6001600160a01b031603611fca5760405162461bcd60e51b8152600401610b4d90613f2b565b611fd2612e7c565b6017546001600160a01b03166001600160a01b031663e61cb05e611ffe6018546001600160a01b031690565b8888888888886040518863ffffffff1660e01b815260040161202697969594939291906142e7565b600060405180830381600087803b15801561204057600080fd5b505af1158015612054573d6000803e3d6000fd5b50505050505050505050565b612068612b05565b601a80546001600160a01b0319166001600160a01b0392909216919091179055565b612092612b05565b600054600a5481906120a48483614286565b11156120c25760405162461bcd60e51b8152600401610b4d90614299565b8183015b808310156121655761210185858486038181106120e5576120e56140e6565b90506020020160208101906120fa919061396b565b6001612df0565b6000805160206144f18339815191528585848603818110612124576121246140e6565b9050602002016020810190612139919061396b565b604080516001600160a01b039092168252602082018690520160405180910390a16001909201916120c6565b5050505050565b606061217782612bb4565b61219457604051630a14c4b560e41b815260040160405180910390fd5b6012546001600160a01b0316156122165760125460405163c87b56dd60e01b8152600481018490526001600160a01b039091169063c87b56dd90602401600060405180830381865afa1580156121ee573d6000803e3d6000fd5b505050506040513d6000823e601f3d908101601f19168201604052610d8f9190810190614340565b610d8f826130b1565b600954610100900460ff161580801561223f5750600954600160ff909116105b806122595750303b158015612259575060095460ff166001145b6122755760405162461bcd60e51b8152600401610b4d906143b6565b6009805460ff191660011790558015612298576009805461ff0019166101001790555b6122a187612e0a565b85516002906122b090826141c7565b5060208601516003906122c390826141c7565b5060008055606080870151600a556080870151600b5560a0870151600c55610120870151600d55610140870151600e5561016087015160135560408088015160098054911515600160b01b0260ff60b01b1990921691909117905590860151601980546001600160a01b039283166001600160a01b03199182161790915560178054868416921691909117905585516008805460208901516001600160581b0316600160a01b026001600160f81b031990911692909316919091179190911780825591860151869282906001600160f81b0316600160f81b8360028111156123ad576123ad6135fb565b0217905550505060c086015160165560e08601516014556101008601516015556001600160a01b038316158015906123ea57506000856040015151115b1561246857601280546001600160a01b0319166001600160a01b03851690811790915560408681015190516342b53ffd60e11b815263856a7ffa9161243191600401613581565b600060405180830381600087803b15801561244b57600080fd5b505af115801561245f573d6000803e3d6000fd5b5050505061248c565b845160119061247790826141c7565b50602085015160109061248a90826141c7565b505b8015611291576009805461ff0019169055604051600181527f7f26b83ff96e1f2b6a682f133852f6798a09c465da95921460cefb38474024989060200160405180910390a150505050505050565b6124e2612b05565b600954600160b01b900460ff166125495760405162461bcd60e51b815260206004820152602560248201527f63616e6e6f742061646a7573742073697a65206f66207468697320636f6c6c6560448201526431ba34b7b760d91b6064820152608401610b4d565b8061255360005490565b11156125975760405162461bcd60e51b8152602060048201526013602482015272063616e6e6f742064656372656173652063617606c1b6044820152606401610b4d565b600a55565b600954610100900460ff16158080156125bc5750600954600160ff909116105b806125d65750303b1580156125d6575060095460ff166001145b6125f25760405162461bcd60e51b8152600401610b4d906143b6565b6009805460ff191660011790558015612615576009805461ff0019166101001790555b61261e88612e0a565b865160029061262d90826141c7565b50602087015160039061264090826141c7565b5060008055606080880151600a556080880151600b5560a0880151600c55610120880151600d55610140880151600e5561016088015160135560408089015160098054911515600160b01b0260ff60b01b1990921691909117905590870151601980546001600160a01b039283166001600160a01b03199182161790915560178054878416921691909117905586516008805460208a01516001600160581b0316600160a01b026001600160f81b031990911692909316919091179190911780825591870151879282906001600160f81b0316600160f81b83600281111561272a5761272a6135fb565b0217905550505060c087015160165560e0870151601455610100870151601555601a80546001600160a01b0319166001600160a01b038481169190911790915584161580159061277f57506000866040015151115b156127fd57601280546001600160a01b0319166001600160a01b03861690811790915560408781015190516342b53ffd60e11b815263856a7ffa916127c691600401613581565b600060405180830381600087803b1580156127e057600080fd5b505af11580156127f4573d6000803e3d6000fd5b50505050612821565b855160119061280c90826141c7565b50602086015160109061281f90826141c7565b505b8015611a45576009805461ff0019169055604051600181527f7f26b83ff96e1f2b6a682f133852f6798a09c465da95921460cefb38474024989060200160405180910390a15050505050505050565b6012546060906001600160a01b03166128905760118054610da4906140ac565b601260009054906101000a90046001600160a01b03166001600160a01b031663e8a3d4856040518163ffffffff1660e01b8152600401600060405180830381865afa1580156128e3573d6000803e3d6000fd5b505050506040513d6000823e601f3d908101601f1916820160405261290b9190810190614340565b905090565b6001600160a01b03918216600090815260076020908152604080832093909416825291909152205460ff1690565b6000600d5442101580156129545750600e544211155b801561290b575050600f5460ff161590565b61296e612b05565b6001600160a01b0381166129d35760405162461bcd60e51b815260206004820152602660248201527f4f776e61626c653a206e6577206f776e657220697320746865207a65726f206160448201526564647265737360d01b6064820152608401610b4d565b6114b181612e0a565b6129e4612b05565b601280546001600160a01b0319166001600160a01b0392909216919091179055565b6040516370a0823160e01b81523060048201526000906001600160a01b038316906370a0823190602401602060405180830381865afa158015612a4d573d6000803e3d6000fd5b505050506040513d601f19601f82011682018060405250810190612a7191906142ce565b9050816001600160a01b031663a9059cbb612a946018546001600160a01b031690565b6040516001600160e01b031960e084901b1681526001600160a01b039091166004820152602481018490526044016020604051808303816000875af1158015612ae1573d6000803e3d6000fd5b505050506040513d601f19601f82011682018060405250810190610e7f9190614164565b6009546001600160a01b03620100009091041633146116635760405162461bcd60e51b815260206004820181905260248201527f4f776e61626c653a2063616c6c6572206973206e6f7420746865206f776e65726044820152606401610b4d565b60006301ffc9a760e01b6001600160e01b031983161480612b9757506380ac58cd60e01b6001600160e01b03198316145b80610d8f5750506001600160e01b031916635b5e139f60e01b1490565b6000805482108015610d8f575050600090815260046020526040902054600160e01b161590565b6daaeb6d7670e522a718067333cd4e3b156114b157604051633185c44d60e21b81523060048201526001600160a01b03821660248201526daaeb6d7670e522a718067333cd4e9063c617113490604401602060405180830381865afa158015612c48573d6000803e3d6000fd5b505050506040513d601f19601f82011682018060405250810190612c6c9190614164565b6114b157604051633b79c77360e21b81526001600160a01b0382166004820152602401610b4d565b6000612c9f826114fa565b9050336001600160a01b03821614612cd857612cbb8133612910565b612cd8576040516367d9dca160e11b815260040160405180910390fd5b60008281526006602052604080822080546001600160a01b0319166001600160a01b0387811691821790925591518593918516917f8c5be1e5ebec7d5bd14f71427d1e84f3dd0314c0f7b2291e5b200ac8c7c3b92591a4505050565b600081600054811015612d895760008181526004602052604081205490600160e01b82169003612d87575b80600003612d80575060001901600081815260046020526040902054612d5f565b9392505050565b505b604051636f96cda160e11b815260040160405180910390fd5b836001600160a01b03811633146121655761216533612bdb565b601754604051636e5f691960e01b81526001600160a01b0390911690636e5f69199061126390869086908690600401614404565b6114e3828260405180602001604052806000815250613134565b600980546001600160a01b038381166201000081810262010000600160b01b031985161790945560405193909204169182907f8be0079c531659141344cd1fd0a4f28419497f9722a3daafe3b4186f6b6457e090600090a35050565b600082612e73858461319a565b14949350505050565b6000612e906018546001600160a01b031690565b6001600160a01b03164760405160006040518083038185875af1925050503d8060008114612eda576040519150601f19603f3d011682016040523d82523d6000602084013e612edf565b606091505b50509050806114b15760405162461bcd60e51b815260206004820152601f60248201527f436f756c64206e6f74207472616e736665722045544820746f2073706c6974006044820152606401610b4d565b336001600160a01b03831603612f595760405163b06307db60e01b815260040160405180910390fd5b3360008181526007602090815260408083206001600160a01b03871680855290835292819020805460ff191686151590811790915590519081529192917f17307eab39ab6107e8899845ad3d59bd9653f200f220920489ca2b5937696c31910160405180910390a35050565b604051630a85bd0160e11b81526000906001600160a01b0385169063150b7a0290612ffa903390899088908890600401614467565b6020604051808303816000875af1925050508015613035575060408051601f3d908101601f19168201909252613032918101906144a4565b60015b613093573d808015613063576040519150601f19603f3d011682016040523d82523d6000602084013e613068565b606091505b50805160000361308b576040516368d2bf6b60e11b815260040160405180910390fd5b805181602001fd5b6001600160e01b031916630a85bd0160e11b1490505b949350505050565b60606130bc82612bb4565b6130d957604051630a14c4b560e41b815260040160405180910390fd5b60006130e36131e7565b905080516000036131035760405180602001604052806000815250612d80565b8061310d846131f6565b60405160200161311e9291906144c1565b6040516020818303038152906040529392505050565b61313e838361322e565b6001600160a01b0383163b15610e7f576000548281035b6131686000868380600101945086612fc5565b613185576040516368d2bf6b60e11b815260040160405180910390fd5b81811061315557816000541461216557600080fd5b600081815b84518110156131df576131cb828683815181106131be576131be6140e6565b6020026020010151613339565b9150806131d781614112565b91505061319f565b509392505050565b606060108054610da4906140ac565b604080516080019081905280825b600183039250600a81066030018353600a9004806132045750819003601f19909101908152919050565b60008054908290036132535760405163b562e8dd60e01b815260040160405180910390fd5b6132606000848385612da2565b6001600160a01b03831660008181526005602090815260408083208054680100000000000000018802019055848352600490915281206001851460e11b4260a01b178317905582840190839083907fddf252ad1be2c89b69c2b068fc378daa952ba7f163c4a11628f55a4df523b3ef8180a4600183015b81811461330f57808360007fddf252ad1be2c89b69c2b068fc378daa952ba7f163c4a11628f55a4df523b3ef600080a46001016132d7565b508160000361333057604051622e076360e81b815260040160405180910390fd5b60005550505050565b6000818310613355576000828152602084905260409020612d80565b5060009182526020526040902090565b6001600160a01b03811681146114b157600080fd5b60008083601f84011261338c57600080fd5b5081356001600160401b038111156133a357600080fd5b6020830191508360208260051b850101111561119557600080fd5b803563ffffffff811681146133d257600080fd5b919050565b600080600080600080600060a0888a0312156133f257600080fd5b87356133fd81613365565b965060208801356001600160401b038082111561341957600080fd5b6134258b838c0161337a565b909850965060408a013591508082111561343e57600080fd5b5061344b8a828b0161337a565b909550935061345e9050606089016133be565b9150608088013561346e81613365565b8091505092959891949750929550565b60008060008060006060868803121561349657600080fd5b85356001600160401b03808211156134ad57600080fd5b6134b989838a0161337a565b909750955060208801359150808211156134d257600080fd5b506134df8882890161337a565b90945092506134f29050604087016133be565b90509295509295909350565b6001600160e01b0319811681146114b157600080fd5b60006020828403121561352657600080fd5b8135612d80816134fe565b60005b8381101561354c578181015183820152602001613534565b50506000910152565b6000815180845261356d816020860160208601613531565b601f01601f19169290920160200192915050565b602081526000612d806020830184613555565b6000602082840312156135a657600080fd5b5035919050565b600080604083850312156135c057600080fd5b82356135cb81613365565b946020939093013593505050565b600080604083850312156135ec57600080fd5b50508035926020909101359150565b634e487b7160e01b600052602160045260246000fd5b6001600160a01b03841681526001600160581b0383166020820152606081016003831061364e57634e487b7160e01b600052602160045260246000fd5b826040830152949350505050565b60008060006060848603121561367157600080fd5b833561367c81613365565b9250602084013561368c81613365565b929592945050506040919091013590565b634e487b7160e01b600052604160045260246000fd5b60405161018081016001600160401b03811182821017156136d6576136d661369d565b60405290565b604051601f8201601f191681016001600160401b03811182821017156137045761370461369d565b604052919050565b600082601f83011261371d57600080fd5b813560206001600160401b038211156137385761373861369d565b8160051b6137478282016136dc565b928352848101820192828101908785111561376157600080fd5b83870192505b8483101561378957823561377a81613365565b82529183019190830190613767565b979650505050505050565b600080600080600080600080600060e08a8c0312156137b257600080fd5b89356137bd81613365565b985060208a0135975060408a01356001600160401b03808211156137e057600080fd5b6137ec8d838e0161370c565b985060608c013591508082111561380257600080fd5b61380e8d838e0161337a565b909850965060808c013591508082111561382757600080fd5b506138348c828d0161337a565b9095509350613847905060a08b016133be565b915060c08a013561385781613365565b809150509295985092959850929598565b80151581146114b157600080fd5b80356133d281613868565b6000806040838503121561389457600080fd5b823561389f81613868565b915060208301356138af81613365565b809150509250929050565b60006001600160401b038211156138d3576138d361369d565b50601f01601f191660200190565b600082601f8301126138f257600080fd5b8135613905613900826138ba565b6136dc565b81815284602083860101111561391a57600080fd5b816020850160208301376000918101602001919091529392505050565b60006020828403121561394957600080fd5b81356001600160401b0381111561395f57600080fd5b6130a9848285016138e1565b60006020828403121561397d57600080fd5b8135612d8081613365565b6000806000806000608086880312156139a057600080fd5b85359450602086013593506040860135925060608601356001600160401b038111156139cb57600080fd5b6139d78882890161337a565b969995985093965092949392505050565b600080604083850312156139fb57600080fd5b8235915060208301356001600160401b03811115613a1857600080fd5b6111918582860161370c565b60008060408385031215613a3757600080fd5b8235613a4281613365565b915060208301356138af81613868565b60008060008060808587031215613a6857600080fd5b8435613a7381613365565b93506020850135613a8381613365565b92506040850135915060608501356001600160401b03811115613aa557600080fd5b613ab1878288016138e1565b91505092959194509250565b60008060008060008060808789031215613ad657600080fd5b86356001600160401b0380821115613aed57600080fd5b613af98a838b0161337a565b90985096506020890135915080821115613b1257600080fd5b50613b1f89828a0161337a565b9095509350613b329050604088016133be565b91506060870135613b4281613365565b809150509295509295509295565b60008060208385031215613b6357600080fd5b82356001600160401b03811115613b7957600080fd5b613b858582860161337a565b90969095509350505050565b60006101808284031215613ba457600080fd5b613bac6136b3565b905081356001600160401b0380821115613bc557600080fd5b613bd1858386016138e1565b83526020840135915080821115613be757600080fd5b50613bf4848285016138e1565b602083015250613c0660408301613876565b6040820152606082013560608201526080820135608082015260a082013560a082015260c082013560c082015260e082013560e082015261010080830135818301525061012080830135818301525061014080830135818301525061016080830135818301525092915050565b600060808284031215613c8557600080fd5b604051608081016001600160401b038282108183111715613ca857613ca861369d565b816040528293508435915080821115613cc057600080fd5b613ccc868387016138e1565b83526020850135915080821115613ce257600080fd5b613cee868387016138e1565b60208401526040850135915080821115613d0757600080fd5b50613d14858286016138e1565b6040830152506060830135613d2881613365565b6060919091015292915050565b600060608284031215613d4757600080fd5b604051606081018181106001600160401b0382111715613d6957613d6961369d565b6040529050808235613d7a81613365565b815260208301356001600160581b0381168114613d9657600080fd5b6020820152604083013560038110613dad57600080fd5b6040919091015292915050565b6000806000806000806101008789031215613dd457600080fd5b8635613ddf81613365565b955060208701356001600160401b0380821115613dfb57600080fd5b613e078a838b01613b91565b96506040890135915080821115613e1d57600080fd5b50613e2a89828a01613c73565b945050613e3a8860608901613d35565b925060c0870135613e4a81613365565b915060e0870135613b4281613365565b6000806000806000806000610120888a031215613e7657600080fd5b8735613e8181613365565b965060208801356001600160401b0380821115613e9d57600080fd5b613ea98b838c01613b91565b975060408a0135915080821115613ebf57600080fd5b50613ecc8a828b01613c73565b955050613edc8960608a01613d35565b935060c0880135613eec81613365565b925060e0880135613efc81613365565b915061010088013561346e81613365565b60008060408385031215613f2057600080fd5b823561389f81613365565b60208082526015908201527414dc1b1a5d081b9bdd0818dc99585d1959081e595d605a1b604082015260600190565b8183526000602080850194508260005b85811015613f98578135613f7d81613365565b6001600160a01b031687529582019590820190600101613f6a565b509495945050505050565b8183526000602080850194508260005b85811015613f985763ffffffff613fc9836133be565b1687529582019590820190600101613fb3565b600060018060a01b03808b168352808a16602084015260c0604084015261400760c08401898b613f5a565b838103606085015261401a81888a613fa3565b63ffffffff969096166080850152509290921660a090910152509695505050505050565b60808152600061405260808301888a613f5a565b8281036020840152614065818789613fa3565b63ffffffff95909516604084015250506001600160a01b0391909116606090910152949350505050565b6000602082840312156140a157600080fd5b8151612d8081613365565b600181811c908216806140c057607f821691505b6020821081036140e057634e487b7160e01b600052602260045260246000fd5b50919050565b634e487b7160e01b600052603260045260246000fd5b634e487b7160e01b600052601160045260246000fd5b600060018201614124576141246140fc565b5060010190565b8082028115828204841417610d8f57610d8f6140fc565b60008261415f57634e487b7160e01b600052601260045260246000fd5b500490565b60006020828403121561417657600080fd5b8151612d8081613868565b601f821115610e7f57600081815260208120601f850160051c810160208610156141a85750805b601f850160051c820191505b81811015610d62578281556001016141b4565b81516001600160401b038111156141e0576141e061369d565b6141f4816141ee84546140ac565b84614181565b602080601f83116001811461422957600084156142115750858301515b600019600386901b1c1916600185901b178555610d62565b600085815260208120601f198616915b8281101561425857888601518255948401946001909101908401614239565b50858210156142765787850151600019600388901b60f8161c191681555b5050505050600190811b01905550565b80820180821115610d8f57610d8f6140fc565b6020808252818101527f507572636861736520776f756c6420657863656564206d617820737570706c79604082015260600190565b6000602082840312156142e057600080fd5b5051919050565b600060018060a01b03808a16835260a0602084015261430a60a08401898b613f5a565b838103604085015261431d81888a613fa3565b63ffffffff96909616606085015250929092166080909101525095945050505050565b60006020828403121561435257600080fd5b81516001600160401b0381111561436857600080fd5b8201601f8101841361437957600080fd5b8051614387613900826138ba565b81815285602083850101111561439c57600080fd5b6143ad826020830160208601613531565b95945050505050565b6020808252602e908201527f496e697469616c697a61626c653a20636f6e747261637420697320616c72656160408201526d191e481a5b9a5d1a585b1a5e995960921b606082015260800190565b6001600160a01b038481168252602080830185905260606040840181905284519084018190526000928583019290916080860190855b8181101561445857855185168352948301949183019160010161443a565b50909998505050505050505050565b6001600160a01b038581168252841660208201526040810183905260806060820181905260009061449a90830184613555565b9695505050505050565b6000602082840312156144b657600080fd5b8151612d80816134fe565b600083516144d3818460208801613531565b8351908301906144e7818360208801613531565b0194935050505056fe30385c845b448a36257a6a1716e6ad2e1bc2cbe333cde1e69fe849ad6511adfea2646970667358221220282ae66e49085a9e0a79ae9af2934e620377d0430369487dd3f7048d85dfa76764736f6c63430008110033",
  "linkReferences": {},
  "deployedLinkReferences": {}
}