{
  "_format": "hh-sol-artifact-1",
  "contractName": "ZKEdition",
  "sourceName": "contracts/ZKEdition.sol",
  "abi": [
    {
      "inputs": [],
      "name": "ApprovalCallerNotOwnerNorApproved",
      "type": "error"
    },
    {
      "inputs": [],
      "name": "ApprovalQueryForNonexistentToken",
      "type": "error"
    },
    {
      "inputs": [],
      "name": "ApproveToCaller",
      "type": "error"
    },
    {
      "inputs": [],
      "name": "BalanceQueryForZeroAddress",
      "type": "error"
    },
    {
      "inputs": [],
      "name": "MintERC2309QuantityExceedsLimit",
      "type": "error"
    },
    {
      "inputs": [],
      "name": "MintToZeroAddress",
      "type": "error"
    },
    {
      "inputs": [],
      "name": "MintZeroQuantity",
      "type": "error"
    },
    {
      "inputs": [
        {
          "internalType": "address",
          "name": "operator",
          "type": "address"
        }
      ],
      "name": "OperatorNotAllowed",
      "type": "error"
    },
    {
      "inputs": [],
      "name": "OwnerQueryForNonexistentToken",
      "type": "error"
    },
    {
      "inputs": [],
      "name": "OwnershipNotInitializedForExtraData",
      "type": "error"
    },
    {
      "inputs": [],
      "name": "TransferCallerNotOwnerNorApproved",
      "type": "error"
    },
    {
      "inputs": [],
      "name": "TransferFromIncorrectOwner",
      "type": "error"
    },
    {
      "inputs": [],
      "name": "TransferToNonERC721ReceiverImplementer",
      "type": "error"
    },
    {
      "inputs": [],
      "name": "TransferToZeroAddress",
      "type": "error"
    },
    {
      "inputs": [],
      "name": "URIQueryForNonexistentToken",
      "type": "error"
    },
    {
      "anonymous": false,
      "inputs": [
        {
          "indexed": true,
          "internalType": "address",
          "name": "owner",
          "type": "address"
        },
        {
          "indexed": true,
          "internalType": "address",
          "name": "approved",
          "type": "address"
        },
        {
          "indexed": true,
          "internalType": "uint256",
          "name": "tokenId",
          "type": "uint256"
        }
      ],
      "name": "Approval",
      "type": "event"
    },
    {
      "anonymous": false,
      "inputs": [
        {
          "indexed": true,
          "internalType": "address",
          "name": "owner",
          "type": "address"
        },
        {
          "indexed": true,
          "internalType": "address",
          "name": "operator",
          "type": "address"
        },
        {
          "indexed": false,
          "internalType": "bool",
          "name": "approved",
          "type": "bool"
        }
      ],
      "name": "ApprovalForAll",
      "type": "event"
    },
    {
      "anonymous": false,
      "inputs": [
        {
          "indexed": true,
          "internalType": "uint256",
          "name": "fromTokenId",
          "type": "uint256"
        },
        {
          "indexed": false,
          "internalType": "uint256",
          "name": "toTokenId",
          "type": "uint256"
        },
        {
          "indexed": true,
          "internalType": "address",
          "name": "from",
          "type": "address"
        },
        {
          "indexed": true,
          "internalType": "address",
          "name": "to",
          "type": "address"
        }
      ],
      "name": "ConsecutiveTransfer",
      "type": "event"
    },
    {
      "anonymous": false,
      "inputs": [
        {
          "indexed": false,
          "internalType": "uint8",
          "name": "version",
          "type": "uint8"
        }
      ],
      "name": "Initialized",
      "type": "event"
    },
    {
      "anonymous": false,
      "inputs": [
        {
          "indexed": false,
          "internalType": "address",
          "name": "sender",
          "type": "address"
        },
        {
          "indexed": false,
          "internalType": "uint256",
          "name": "tokenId_",
          "type": "uint256"
        }
      ],
      "name": "Minted",
      "type": "event"
    },
    {
      "anonymous": false,
      "inputs": [
        {
          "indexed": true,
          "internalType": "address",
          "name": "previousOwner",
          "type": "address"
        },
        {
          "indexed": true,
          "internalType": "address",
          "name": "newOwner",
          "type": "address"
        }
      ],
      "name": "OwnershipTransferred",
      "type": "event"
    },
    {
      "anonymous": false,
      "inputs": [
        {
          "indexed": true,
          "internalType": "bytes32",
          "name": "role",
          "type": "bytes32"
        },
        {
          "indexed": true,
          "internalType": "bytes32",
          "name": "previousAdminRole",
          "type": "bytes32"
        },
        {
          "indexed": true,
          "internalType": "bytes32",
          "name": "newAdminRole",
          "type": "bytes32"
        }
      ],
      "name": "RoleAdminChanged",
      "type": "event"
    },
    {
      "anonymous": false,
      "inputs": [
        {
          "indexed": true,
          "internalType": "bytes32",
          "name": "role",
          "type": "bytes32"
        },
        {
          "indexed": true,
          "internalType": "address",
          "name": "account",
          "type": "address"
        },
        {
          "indexed": true,
          "internalType": "address",
          "name": "sender",
          "type": "address"
        }
      ],
      "name": "RoleGranted",
      "type": "event"
    },
    {
      "anonymous": false,
      "inputs": [
        {
          "indexed": true,
          "internalType": "bytes32",
          "name": "role",
          "type": "bytes32"
        },
        {
          "indexed": true,
          "internalType": "address",
          "name": "account",
          "type": "address"
        },
        {
          "indexed": true,
          "internalType": "address",
          "name": "sender",
          "type": "address"
        }
      ],
      "name": "RoleRevoked",
      "type": "event"
    },
    {
      "anonymous": false,
      "inputs": [
        {
          "indexed": true,
          "internalType": "address",
          "name": "from",
          "type": "address"
        },
        {
          "indexed": true,
          "internalType": "address",
          "name": "to",
          "type": "address"
        },
        {
          "indexed": true,
          "internalType": "uint256",
          "name": "tokenId",
          "type": "uint256"
        }
      ],
      "name": "Transfer",
      "type": "event"
    },
    {
      "inputs": [],
      "name": "DEFAULT_ADMIN_ROLE",
      "outputs": [
        {
          "internalType": "bytes32",
          "name": "",
          "type": "bytes32"
        }
      ],
      "stateMutability": "view",
      "type": "function"
    },
    {
      "inputs": [],
      "name": "MAX_TOKENS",
      "outputs": [
        {
          "internalType": "uint32",
          "name": "",
          "type": "uint32"
        }
      ],
      "stateMutability": "view",
      "type": "function"
    },
    {
      "inputs": [
        {
          "internalType": "uint32",
          "name": "newCap",
          "type": "uint32"
        }
      ],
      "name": "adjustCap",
      "outputs": [],
      "stateMutability": "nonpayable",
      "type": "function"
    },
    {
      "inputs": [
        {
          "internalType": "address",
          "name": "operator",
          "type": "address"
        },
        {
          "internalType": "uint256",
          "name": "tokenId",
          "type": "uint256"
        }
      ],
      "name": "approve",
      "outputs": [],
      "stateMutability": "nonpayable",
      "type": "function"
    },
    {
      "inputs": [
        {
          "internalType": "address",
          "name": "owner",
          "type": "address"
        }
      ],
      "name": "balanceOf",
      "outputs": [
        {
          "internalType": "uint256",
          "name": "",
          "type": "uint256"
        }
      ],
      "stateMutability": "view",
      "type": "function"
    },
    {
      "inputs": [],
      "name": "baseURI",
      "outputs": [
        {
          "internalType": "string",
          "name": "",
          "type": "string"
        }
      ],
      "stateMutability": "view",
      "type": "function"
    },
    {
      "inputs": [],
      "name": "contractURI",
      "outputs": [
        {
          "internalType": "string",
          "name": "",
          "type": "string"
        }
      ],
      "stateMutability": "view",
      "type": "function"
    },
    {
      "inputs": [],
      "name": "contractVersion",
      "outputs": [
        {
          "internalType": "uint32",
          "name": "",
          "type": "uint32"
        }
      ],
      "stateMutability": "view",
      "type": "function"
    },
    {
      "inputs": [
        {
          "internalType": "address",
          "name": "_splitMain",
          "type": "address"
        },
        {
          "internalType": "address[]",
          "name": "accounts",
          "type": "address[]"
        },
        {
          "internalType": "uint32[]",
          "name": "percentAllocations",
          "type": "uint32[]"
        },
        {
          "internalType": "uint32",
          "name": "distributorFee",
          "type": "uint32"
        }
      ],
      "name": "createSplit",
      "outputs": [],
      "stateMutability": "nonpayable",
      "type": "function"
    },
    {
      "inputs": [
        {
          "internalType": "address",
          "name": "account",
          "type": "address"
        },
        {
          "internalType": "uint256",
          "name": "withdrawETH",
          "type": "uint256"
        },
        {
          "internalType": "contract ERC20[]",
          "name": "tokens",
          "type": "address[]"
        },
        {
          "internalType": "address[]",
          "name": "accounts",
          "type": "address[]"
        },
        {
          "internalType": "uint32[]",
          "name": "percentAllocations",
          "type": "uint32[]"
        },
        {
          "internalType": "uint32",
          "name": "distributorFee",
          "type": "uint32"
        },
        {
          "internalType": "address",
          "name": "distributorAddress",
          "type": "address"
        }
      ],
      "name": "distributeAndWithdraw",
      "outputs": [],
      "stateMutability": "nonpayable",
      "type": "function"
    },
    {
      "inputs": [
        {
          "internalType": "contract ERC20",
          "name": "token",
          "type": "address"
        },
        {
          "internalType": "address[]",
          "name": "accounts",
          "type": "address[]"
        },
        {
          "internalType": "uint32[]",
          "name": "percentAllocations",
          "type": "uint32[]"
        },
        {
          "internalType": "uint32",
          "name": "distributorFee",
          "type": "uint32"
        },
        {
          "internalType": "address",
          "name": "distributorAddress",
          "type": "address"
        }
      ],
      "name": "distributeERC20",
      "outputs": [],
      "stateMutability": "nonpayable",
      "type": "function"
    },
    {
      "inputs": [
        {
          "internalType": "address[]",
          "name": "accounts",
          "type": "address[]"
        },
        {
          "internalType": "uint32[]",
          "name": "percentAllocations",
          "type": "uint32[]"
        },
        {
          "internalType": "uint32",
          "name": "distributorFee",
          "type": "uint32"
        },
        {
          "internalType": "address",
          "name": "distributorAddress",
          "type": "address"
        }
      ],
      "name": "distributeETH",
      "outputs": [],
      "stateMutability": "nonpayable",
      "type": "function"
    },
    {
      "inputs": [],
      "name": "edition",
      "outputs": [
        {
          "internalType": "bool",
          "name": "hasAdjustableCap",
          "type": "bool"
        },
        {
          "internalType": "bool",
          "name": "isSoulbound",
          "type": "bool"
        },
        {
          "internalType": "uint32",
          "name": "maxTokens",
          "type": "uint32"
        },
        {
          "internalType": "uint32",
          "name": "maxTokenPurchase",
          "type": "uint32"
        },
        {
          "internalType": "uint32",
          "name": "presaleStart",
          "type": "uint32"
        },
        {
          "internalType": "uint32",
          "name": "presaleEnd",
          "type": "uint32"
        },
        {
          "internalType": "uint32",
          "name": "saleStart",
          "type": "uint32"
        },
        {
          "internalType": "uint32",
          "name": "saleEnd",
          "type": "uint32"
        },
        {
          "internalType": "uint16",
          "name": "royaltyBPS",
          "type": "uint16"
        },
        {
          "internalType": "uint96",
          "name": "tokenPrice",
          "type": "uint96"
        },
        {
          "internalType": "address",
          "name": "payoutAddress",
          "type": "address"
        },
        {
          "internalType": "bytes32",
          "name": "presaleMerkleRoot",
          "type": "bytes32"
        }
      ],
      "stateMutability": "view",
      "type": "function"
    },
    {
      "inputs": [],
      "name": "flipSaleState",
      "outputs": [],
      "stateMutability": "nonpayable",
      "type": "function"
    },
    {
      "inputs": [
        {
          "internalType": "uint256",
          "name": "tokenId",
          "type": "uint256"
        }
      ],
      "name": "getApproved",
      "outputs": [
        {
          "internalType": "address",
          "name": "",
          "type": "address"
        }
      ],
      "stateMutability": "view",
      "type": "function"
    },
    {
      "inputs": [
        {
          "internalType": "bytes32",
          "name": "role",
          "type": "bytes32"
        }
      ],
      "name": "getRoleAdmin",
      "outputs": [
        {
          "internalType": "bytes32",
          "name": "",
          "type": "bytes32"
        }
      ],
      "stateMutability": "view",
      "type": "function"
    },
    {
      "inputs": [
        {
          "internalType": "bytes32",
          "name": "role",
          "type": "bytes32"
        },
        {
          "internalType": "address",
          "name": "account",
          "type": "address"
        }
      ],
      "name": "grantRole",
      "outputs": [],
      "stateMutability": "nonpayable",
      "type": "function"
    },
    {
      "inputs": [],
      "name": "hasAdjustableCap",
      "outputs": [
        {
          "internalType": "bool",
          "name": "",
          "type": "bool"
        }
      ],
      "stateMutability": "view",
      "type": "function"
    },
    {
      "inputs": [
        {
          "internalType": "bytes32",
          "name": "role",
          "type": "bytes32"
        },
        {
          "internalType": "address",
          "name": "account",
          "type": "address"
        }
      ],
      "name": "hasRole",
      "outputs": [
        {
          "internalType": "bool",
          "name": "",
          "type": "bool"
        }
      ],
      "stateMutability": "view",
      "type": "function"
    },
    {
      "inputs": [
        {
          "internalType": "address",
          "name": "_owner",
          "type": "address"
        },
        {
          "components": [
            {
              "internalType": "string",
              "name": "name",
              "type": "string"
            },
            {
              "internalType": "string",
              "name": "symbol",
              "type": "string"
            },
            {
              "internalType": "bool",
              "name": "hasAdjustableCap",
              "type": "bool"
            },
            {
              "internalType": "bool",
              "name": "isSoulbound",
              "type": "bool"
            },
            {
              "internalType": "uint32",
              "name": "maxTokens",
              "type": "uint32"
            },
            {
              "internalType": "uint32",
              "name": "maxTokenPurchase",
              "type": "uint32"
            },
            {
              "internalType": "uint32",
              "name": "presaleStart",
              "type": "uint32"
            },
            {
              "internalType": "uint32",
              "name": "presaleEnd",
              "type": "uint32"
            },
            {
              "internalType": "uint32",
              "name": "saleStart",
              "type": "uint32"
            },
            {
              "internalType": "uint32",
              "name": "saleEnd",
              "type": "uint32"
            },
            {
              "internalType": "uint16",
              "name": "royaltyBPS",
              "type": "uint16"
            },
            {
              "internalType": "uint96",
              "name": "tokenPrice",
              "type": "uint96"
            },
            {
              "internalType": "address",
              "name": "payoutAddress",
              "type": "address"
            },
            {
              "internalType": "bytes32",
              "name": "presaleMerkleRoot",
              "type": "bytes32"
            }
          ],
          "internalType": "struct EditionConfig",
          "name": "_editionConfig",
          "type": "tuple"
        },
        {
          "components": [
            {
              "internalType": "string",
              "name": "contractURI",
              "type": "string"
            },
            {
              "internalType": "string",
              "name": "metadataURI",
              "type": "string"
            },
            {
              "internalType": "bytes",
              "name": "metadataRendererInit",
              "type": "bytes"
            },
            {
              "internalType": "address",
              "name": "parentIP",
              "type": "address"
            }
          ],
          "internalType": "struct MetadataConfig",
          "name": "_metadataConfig",
          "type": "tuple"
        },
        {
          "components": [
            {
              "internalType": "address",
              "name": "tokenAddress",
              "type": "address"
            },
            {
              "internalType": "uint88",
              "name": "minBalance",
              "type": "uint88"
            },
            {
              "internalType": "enum SaleType",
              "name": "saleType",
              "type": "uint8"
            }
          ],
          "internalType": "struct TokenGateConfig",
          "name": "_tokenGateConfig",
          "type": "tuple"
        },
        {
          "internalType": "address",
          "name": "_metadataRenderer",
          "type": "address"
        },
        {
          "internalType": "address",
          "name": "_zkVerifier",
          "type": "address"
        }
      ],
      "name": "initialize",
      "outputs": [],
      "stateMutability": "nonpayable",
      "type": "function"
    },
    {
      "inputs": [
        {
          "internalType": "address",
          "name": "_owner",
          "type": "address"
        },
        {
          "components": [
            {
              "internalType": "string",
              "name": "name",
              "type": "string"
            },
            {
              "internalType": "string",
              "name": "symbol",
              "type": "string"
            },
            {
              "internalType": "bool",
              "name": "hasAdjustableCap",
              "type": "bool"
            },
            {
              "internalType": "bool",
              "name": "isSoulbound",
              "type": "bool"
            },
            {
              "internalType": "uint32",
              "name": "maxTokens",
              "type": "uint32"
            },
            {
              "internalType": "uint32",
              "name": "maxTokenPurchase",
              "type": "uint32"
            },
            {
              "internalType": "uint32",
              "name": "presaleStart",
              "type": "uint32"
            },
            {
              "internalType": "uint32",
              "name": "presaleEnd",
              "type": "uint32"
            },
            {
              "internalType": "uint32",
              "name": "saleStart",
              "type": "uint32"
            },
            {
              "internalType": "uint32",
              "name": "saleEnd",
              "type": "uint32"
            },
            {
              "internalType": "uint16",
              "name": "royaltyBPS",
              "type": "uint16"
            },
            {
              "internalType": "uint96",
              "name": "tokenPrice",
              "type": "uint96"
            },
            {
              "internalType": "address",
              "name": "payoutAddress",
              "type": "address"
            },
            {
              "internalType": "bytes32",
              "name": "presaleMerkleRoot",
              "type": "bytes32"
            }
          ],
          "internalType": "struct EditionConfig",
          "name": "_editionConfig",
          "type": "tuple"
        },
        {
          "components": [
            {
              "internalType": "string",
              "name": "contractURI",
              "type": "string"
            },
            {
              "internalType": "string",
              "name": "metadataURI",
              "type": "string"
            },
            {
              "internalType": "bytes",
              "name": "metadataRendererInit",
              "type": "bytes"
            },
            {
              "internalType": "address",
              "name": "parentIP",
              "type": "address"
            }
          ],
          "internalType": "struct MetadataConfig",
          "name": "_metadataConfig",
          "type": "tuple"
        },
        {
          "components": [
            {
              "internalType": "address",
              "name": "tokenAddress",
              "type": "address"
            },
            {
              "internalType": "uint88",
              "name": "minBalance",
              "type": "uint88"
            },
            {
              "internalType": "enum SaleType",
              "name": "saleType",
              "type": "uint8"
            }
          ],
          "internalType": "struct TokenGateConfig",
          "name": "_tokenGateConfig",
          "type": "tuple"
        },
        {
          "internalType": "address",
          "name": "_metadataRenderer",
          "type": "address"
        }
      ],
      "name": "initialize",
      "outputs": [],
      "stateMutability": "nonpayable",
      "type": "function"
    },
    {
      "inputs": [
        {
          "internalType": "address",
          "name": "owner",
          "type": "address"
        },
        {
          "internalType": "address",
          "name": "operator",
          "type": "address"
        }
      ],
      "name": "isApprovedForAll",
      "outputs": [
        {
          "internalType": "bool",
          "name": "",
          "type": "bool"
        }
      ],
      "stateMutability": "view",
      "type": "function"
    },
    {
      "inputs": [],
      "name": "isSoulbound",
      "outputs": [
        {
          "internalType": "bool",
          "name": "",
          "type": "bool"
        }
      ],
      "stateMutability": "view",
      "type": "function"
    },
    {
      "inputs": [],
      "name": "maxTokenPurchase",
      "outputs": [
        {
          "internalType": "uint32",
          "name": "",
          "type": "uint32"
        }
      ],
      "stateMutability": "view",
      "type": "function"
    },
    {
      "inputs": [],
      "name": "metadataRenderer",
      "outputs": [
        {
          "internalType": "address",
          "name": "",
          "type": "address"
        }
      ],
      "stateMutability": "view",
      "type": "function"
    },
    {
      "inputs": [
        {
          "internalType": "address",
          "name": "to",
          "type": "address"
        },
        {
          "internalType": "uint256",
          "name": "numberOfTokens",
          "type": "uint256"
        }
      ],
      "name": "mint",
      "outputs": [],
      "stateMutability": "payable",
      "type": "function"
    },
    {
      "inputs": [
        {
          "internalType": "address[]",
          "name": "recipients",
          "type": "address[]"
        }
      ],
      "name": "mintAirdrop",
      "outputs": [],
      "stateMutability": "nonpayable",
      "type": "function"
    },
    {
      "inputs": [
        {
          "internalType": "uint256",
          "name": "quantity",
          "type": "uint256"
        },
        {
          "internalType": "uint256",
          "name": "maxQuantity",
          "type": "uint256"
        },
        {
          "internalType": "uint256",
          "name": "pricePerToken",
          "type": "uint256"
        },
        {
          "internalType": "bytes32[]",
          "name": "merkleProof",
          "type": "bytes32[]"
        }
      ],
      "name": "mintPresale",
      "outputs": [],
      "stateMutability": "payable",
      "type": "function"
    },
    {
      "inputs": [],
      "name": "name",
      "outputs": [
        {
          "internalType": "string",
          "name": "",
          "type": "string"
        }
      ],
      "stateMutability": "view",
      "type": "function"
    },
    {
      "inputs": [],
      "name": "operatorFilterRegistry",
      "outputs": [
        {
          "internalType": "contract IOperatorFilterRegistry",
          "name": "",
          "type": "address"
        }
      ],
      "stateMutability": "view",
      "type": "function"
    },
    {
      "inputs": [],
      "name": "owner",
      "outputs": [
        {
          "internalType": "address",
          "name": "",
          "type": "address"
        }
      ],
      "stateMutability": "view",
      "type": "function"
    },
    {
      "inputs": [
        {
          "internalType": "uint256",
          "name": "tokenId",
          "type": "uint256"
        }
      ],
      "name": "ownerOf",
      "outputs": [
        {
          "internalType": "address",
          "name": "",
          "type": "address"
        }
      ],
      "stateMutability": "view",
      "type": "function"
    },
    {
      "inputs": [],
      "name": "parentIP",
      "outputs": [
        {
          "internalType": "address",
          "name": "",
          "type": "address"
        }
      ],
      "stateMutability": "view",
      "type": "function"
    },
    {
      "inputs": [],
      "name": "payoutAddress",
      "outputs": [
        {
          "internalType": "address",
          "name": "",
          "type": "address"
        }
      ],
      "stateMutability": "view",
      "type": "function"
    },
    {
      "inputs": [],
      "name": "presaleEnd",
      "outputs": [
        {
          "internalType": "uint32",
          "name": "",
          "type": "uint32"
        }
      ],
      "stateMutability": "view",
      "type": "function"
    },
    {
      "inputs": [],
      "name": "presaleMerkleRoot",
      "outputs": [
        {
          "internalType": "bytes32",
          "name": "",
          "type": "bytes32"
        }
      ],
      "stateMutability": "view",
      "type": "function"
    },
    {
      "inputs": [],
      "name": "presaleStart",
      "outputs": [
        {
          "internalType": "uint32",
          "name": "",
          "type": "uint32"
        }
      ],
      "stateMutability": "view",
      "type": "function"
    },
    {
      "inputs": [],
      "name": "renounceOwnership",
      "outputs": [],
      "stateMutability": "nonpayable",
      "type": "function"
    },
    {
      "inputs": [
        {
          "internalType": "bytes32",
          "name": "role",
          "type": "bytes32"
        },
        {
          "internalType": "address",
          "name": "account",
          "type": "address"
        }
      ],
      "name": "renounceRole",
      "outputs": [],
      "stateMutability": "nonpayable",
      "type": "function"
    },
    {
      "inputs": [
        {
          "internalType": "uint256",
          "name": "numReserved",
          "type": "uint256"
        }
      ],
      "name": "reserveDCNT",
      "outputs": [],
      "stateMutability": "nonpayable",
      "type": "function"
    },
    {
      "inputs": [
        {
          "internalType": "bytes32",
          "name": "role",
          "type": "bytes32"
        },
        {
          "internalType": "address",
          "name": "account",
          "type": "address"
        }
      ],
      "name": "revokeRole",
      "outputs": [],
      "stateMutability": "nonpayable",
      "type": "function"
    },
    {
      "inputs": [],
      "name": "royaltyBPS",
      "outputs": [
        {
          "internalType": "uint16",
          "name": "",
          "type": "uint16"
        }
      ],
      "stateMutability": "view",
      "type": "function"
    },
    {
      "inputs": [
        {
          "internalType": "uint256",
          "name": "tokenId",
          "type": "uint256"
        },
        {
          "internalType": "uint256",
          "name": "salePrice",
          "type": "uint256"
        }
      ],
      "name": "royaltyInfo",
      "outputs": [
        {
          "internalType": "address",
          "name": "receiver",
          "type": "address"
        },
        {
          "internalType": "uint256",
          "name": "royaltyAmount",
          "type": "uint256"
        }
      ],
      "stateMutability": "view",
      "type": "function"
    },
    {
      "inputs": [
        {
          "internalType": "address",
          "name": "from",
          "type": "address"
        },
        {
          "internalType": "address",
          "name": "to",
          "type": "address"
        },
        {
          "internalType": "uint256",
          "name": "tokenId",
          "type": "uint256"
        }
      ],
      "name": "safeTransferFrom",
      "outputs": [],
      "stateMutability": "nonpayable",
      "type": "function"
    },
    {
      "inputs": [
        {
          "internalType": "address",
          "name": "from",
          "type": "address"
        },
        {
          "internalType": "address",
          "name": "to",
          "type": "address"
        },
        {
          "internalType": "uint256",
          "name": "tokenId",
          "type": "uint256"
        },
        {
          "internalType": "bytes",
          "name": "_data",
          "type": "bytes"
        }
      ],
      "name": "safeTransferFrom",
      "outputs": [],
      "stateMutability": "nonpayable",
      "type": "function"
    },
    {
      "inputs": [],
      "name": "saleEnd",
      "outputs": [
        {
          "internalType": "uint32",
          "name": "",
          "type": "uint32"
        }
      ],
      "stateMutability": "view",
      "type": "function"
    },
    {
      "inputs": [],
      "name": "saleIsActive",
      "outputs": [
        {
          "internalType": "bool",
          "name": "_saleIsActive",
          "type": "bool"
        }
      ],
      "stateMutability": "view",
      "type": "function"
    },
    {
      "inputs": [],
      "name": "saleIsPaused",
      "outputs": [
        {
          "internalType": "bool",
          "name": "",
          "type": "bool"
        }
      ],
      "stateMutability": "view",
      "type": "function"
    },
    {
      "inputs": [],
      "name": "saleStart",
      "outputs": [
        {
          "internalType": "uint32",
          "name": "",
          "type": "uint32"
        }
      ],
      "stateMutability": "view",
      "type": "function"
    },
    {
      "inputs": [
        {
          "internalType": "address",
          "name": "operator",
          "type": "address"
        },
        {
          "internalType": "bool",
          "name": "approved",
          "type": "bool"
        }
      ],
      "name": "setApprovalForAll",
      "outputs": [],
      "stateMutability": "nonpayable",
      "type": "function"
    },
    {
      "inputs": [
        {
          "internalType": "string",
          "name": "uri",
          "type": "string"
        }
      ],
      "name": "setBaseURI",
      "outputs": [],
      "stateMutability": "nonpayable",
      "type": "function"
    },
    {
      "inputs": [
        {
          "internalType": "string",
          "name": "uri",
          "type": "string"
        }
      ],
      "name": "setContractURI",
      "outputs": [],
      "stateMutability": "nonpayable",
      "type": "function"
    },
    {
      "inputs": [
        {
          "internalType": "address",
          "name": "_metadataRenderer",
          "type": "address"
        }
      ],
      "name": "setMetadataRenderer",
      "outputs": [],
      "stateMutability": "nonpayable",
      "type": "function"
    },
    {
      "inputs": [
        {
          "internalType": "address",
          "name": "_payoutAddress",
          "type": "address"
        }
      ],
      "name": "setPayoutAddress",
      "outputs": [],
      "stateMutability": "nonpayable",
      "type": "function"
    },
    {
      "inputs": [
        {
          "internalType": "bytes32",
          "name": "_presaleMerkleRoot",
          "type": "bytes32"
        }
      ],
      "name": "setPresaleMerkleRoot",
      "outputs": [],
      "stateMutability": "nonpayable",
      "type": "function"
    },
    {
      "inputs": [
        {
          "components": [
            {
              "internalType": "address",
              "name": "tokenAddress",
              "type": "address"
            },
            {
              "internalType": "uint88",
              "name": "minBalance",
              "type": "uint88"
            },
            {
              "internalType": "enum SaleType",
              "name": "saleType",
              "type": "uint8"
            }
          ],
          "internalType": "struct TokenGateConfig",
          "name": "_tokenGateConfig",
          "type": "tuple"
        }
      ],
      "name": "setTokenGate",
      "outputs": [],
      "stateMutability": "nonpayable",
      "type": "function"
    },
    {
      "inputs": [
        {
          "internalType": "address",
          "name": "_zkVerifier",
          "type": "address"
        }
      ],
      "name": "setZKVerifier",
      "outputs": [],
      "stateMutability": "nonpayable",
      "type": "function"
    },
    {
      "inputs": [],
      "name": "splitMain",
      "outputs": [
        {
          "internalType": "address",
          "name": "",
          "type": "address"
        }
      ],
      "stateMutability": "view",
      "type": "function"
    },
    {
      "inputs": [],
      "name": "splitWallet",
      "outputs": [
        {
          "internalType": "address",
          "name": "",
          "type": "address"
        }
      ],
      "stateMutability": "view",
      "type": "function"
    },
    {
      "inputs": [
        {
          "internalType": "bytes4",
          "name": "interfaceId",
          "type": "bytes4"
        }
      ],
      "name": "supportsInterface",
      "outputs": [
        {
          "internalType": "bool",
          "name": "",
          "type": "bool"
        }
      ],
      "stateMutability": "view",
      "type": "function"
    },
    {
      "inputs": [],
      "name": "symbol",
      "outputs": [
        {
          "internalType": "string",
          "name": "",
          "type": "string"
        }
      ],
      "stateMutability": "view",
      "type": "function"
    },
    {
      "inputs": [],
      "name": "tokenGateConfig",
      "outputs": [
        {
          "internalType": "address",
          "name": "tokenAddress",
          "type": "address"
        },
        {
          "internalType": "uint88",
          "name": "minBalance",
          "type": "uint88"
        },
        {
          "internalType": "enum SaleType",
          "name": "saleType",
          "type": "uint8"
        }
      ],
      "stateMutability": "view",
      "type": "function"
    },
    {
      "inputs": [],
      "name": "tokenPrice",
      "outputs": [
        {
          "internalType": "uint96",
          "name": "",
          "type": "uint96"
        }
      ],
      "stateMutability": "view",
      "type": "function"
    },
    {
      "inputs": [
        {
          "internalType": "uint256",
          "name": "tokenId",
          "type": "uint256"
        }
      ],
      "name": "tokenURI",
      "outputs": [
        {
          "internalType": "string",
          "name": "",
          "type": "string"
        }
      ],
      "stateMutability": "view",
      "type": "function"
    },
    {
      "inputs": [],
      "name": "totalSupply",
      "outputs": [
        {
          "internalType": "uint256",
          "name": "",
          "type": "uint256"
        }
      ],
      "stateMutability": "view",
      "type": "function"
    },
    {
      "inputs": [
        {
          "internalType": "address",
          "name": "from",
          "type": "address"
        },
        {
          "internalType": "address",
          "name": "to",
          "type": "address"
        },
        {
          "internalType": "uint256",
          "name": "tokenId",
          "type": "uint256"
        }
      ],
      "name": "transferFrom",
      "outputs": [],
      "stateMutability": "nonpayable",
      "type": "function"
    },
    {
      "inputs": [
        {
          "internalType": "address",
          "name": "newOwner",
          "type": "address"
        }
      ],
      "name": "transferOwnership",
      "outputs": [],
      "stateMutability": "nonpayable",
      "type": "function"
    },
    {
      "inputs": [
        {
          "internalType": "uint256",
          "name": "transferETH",
          "type": "uint256"
        },
        {
          "internalType": "contract ERC20[]",
          "name": "tokens",
          "type": "address[]"
        }
      ],
      "name": "transferToSplit",
      "outputs": [],
      "stateMutability": "nonpayable",
      "type": "function"
    },
    {
      "inputs": [
        {
          "internalType": "bool",
          "name": "enable",
          "type": "bool"
        },
        {
          "internalType": "address",
          "name": "operatorFilter",
          "type": "address"
        }
      ],
      "name": "updateOperatorFilter",
      "outputs": [],
      "stateMutability": "nonpayable",
      "type": "function"
    },
    {
      "inputs": [
        {
          "internalType": "uint32",
          "name": "newStart",
          "type": "uint32"
        },
        {
          "internalType": "uint32",
          "name": "newEnd",
          "type": "uint32"
        }
      ],
      "name": "updatePresaleStartEnd",
      "outputs": [],
      "stateMutability": "nonpayable",
      "type": "function"
    },
    {
      "inputs": [
        {
          "internalType": "uint32",
          "name": "newStart",
          "type": "uint32"
        },
        {
          "internalType": "uint32",
          "name": "newEnd",
          "type": "uint32"
        }
      ],
      "name": "updateSaleStartEnd",
      "outputs": [],
      "stateMutability": "nonpayable",
      "type": "function"
    },
    {
      "inputs": [],
      "name": "withdraw",
      "outputs": [],
      "stateMutability": "nonpayable",
      "type": "function"
    },
    {
      "inputs": [
        {
          "internalType": "address",
          "name": "recipient",
          "type": "address"
        }
      ],
      "name": "zkClaim",
      "outputs": [],
      "stateMutability": "nonpayable",
      "type": "function"
    },
    {
      "inputs": [],
      "name": "zkVerifier",
      "outputs": [
        {
          "internalType": "address",
          "name": "",
          "type": "address"
        }
      ],
      "stateMutability": "view",
      "type": "function"
    }
  ],
  "bytecode": "0x60a06040523480156200001157600080fd5b5060076200001f336200002e565b63ffffffff166080526200008a565b600a80546001600160a01b038381166201000081810262010000600160b01b031985161790945560405193909204169182907f8be0079c531659141344cd1fd0a4f28419497f9722a3daafe3b4186f6b6457e090600090a35050565b608051615703620000a66000396000610b2f01526157036000f3fe6080604052600436106104305760003560e01c806379ab7c8e11610229578063c10b93581161012e578063e8a3d485116100b6578063f2fde38b1161007a578063f2fde38b14610e52578063f47c84c514610e72578063f7eca6d014610e93578063fd4fe8a814610eb0578063ff45640d14610ed057600080fd5b8063e8a3d48514610d9f578063e985e9c514610db4578063eb8d244414610dfd578063ed1f24ad14610e12578063f0cc8b6214610e3257600080fd5b8063c87b56dd116100fd578063c87b56dd14610cfc578063d547741f14610d1c578063d6df096d14610d3c578063de8801e514610d5c578063e6c350c114610d7e57600080fd5b8063c10b935814610c7a578063c4559d5a14610c9c578063c509034614610cbc578063c595317014610cdc57600080fd5b8063a217fddf116101b1578063b0ccc31e11610180578063b0ccc31e14610bca578063b80476d014610bec578063b88d4fde14610c0c578063b9139dcb14610c2c578063b9c9d93a14610c4c57600080fd5b8063a217fddf14610b53578063a22cb46514610b68578063ab0bcc4114610b88578063ae1dd6c414610baa57600080fd5b806391d14854116101f857806391d1485414610ab3578063931cf0f414610ad3578063938e3d7b14610aeb57806395d89b4114610b0b578063a0a8e46014610b2057600080fd5b806379ab7c8e1461092d5780637ff9b5961461094d5780638da5cb5b146109755780638e98f86a1461099957600080fd5b80632f2ff15d1161033a5780635b8d02d7116102c257806370a082311161028657806370a08231146108a5578063713b9787146108c5578063715018a6146108e5578063727a612e146108fa578063799f5a8b1461090d57600080fd5b80635b8d02d71461080b5780636352211e146108305780636c0360eb146108505780636c1951ae14610865578063703199701461088557600080fd5b806336568abe1161030957806336568abe146107835780633ccfd60b146107a357806340c10f19146107b857806342842e0e146107cb57806355f804b3146107eb57600080fd5b80632f2ff15d1461070e57806333ea3e6d1461072e57806333ea51a81461074e57806334918dfd1461076e57600080fd5b80631dbdedbd116103bd578063248a9ca31161038c578063248a9ca31461063f578063284a44a81461066f57806328d7b2761461068f5780632a55205a146106af5780632d75fea6146106ee57600080fd5b80631dbdedbd1461059c57806322212e2b146105e8578063229f3e29146105fd57806323b872dd1461061f57600080fd5b8063095ea7b311610404578063095ea7b3146104e657806309aa3dcf146105065780630ad6c616146105395780630e769b2b1461055957806318160ddd1461057957600080fd5b80625f16fb1461043557806301ffc9a71461045757806306fdde031461048c578063081812fc146104ae575b600080fd5b34801561044157600080fd5b50610455610450366004614334565b610ef0565b005b34801561046357600080fd5b506104776104723660046143f1565b610fa7565b60405190151581526020015b60405180910390f35b34801561049857600080fd5b506104a1610ff0565b604051610483919061445e565b3480156104ba57600080fd5b506104ce6104c9366004614471565b611082565b6040516001600160a01b039091168152602001610483565b3480156104f257600080fd5b5061045561050136600461448a565b6110c6565b34801561051257600080fd5b50600d54600160301b900463ffffffff165b60405163ffffffff9091168152602001610483565b34801561054557600080fd5b506104556105543660046144b6565b6110df565b34801561056557600080fd5b50600b546104ce906001600160a01b031681565b34801561058557600080fd5b50600154600054035b604051908152602001610483565b3480156105a857600080fd5b506009546105d9906001600160a01b03811690600160a01b81046001600160581b031690600160f81b900460ff1683565b604051610483939291906144ff565b3480156105f457600080fd5b50600f5461058e565b34801561060957600080fd5b50600d54600160701b900463ffffffff16610524565b34801561062b57600080fd5b5061045561063a36600461454a565b611146565b34801561064b57600080fd5b5061058e61065a366004614471565b60009081526008602052604090206001015490565b34801561067b57600080fd5b5061045561068a366004614682565b6112ec565b34801561069b57600080fd5b506104556106aa366004614471565b611383565b3480156106bb57600080fd5b506106cf6106ca366004614756565b6113af565b604080516001600160a01b039093168352602083019190915201610483565b3480156106fa57600080fd5b50610455610709366004614791565b61149a565b34801561071a57600080fd5b506104556107293660046147ca565b6116a7565b34801561073a57600080fd5b506104556107493660046147ef565b6116cc565b34801561075a57600080fd5b50610455610769366004614880565b6117d9565b34801561077a57600080fd5b50610455611828565b34801561078f57600080fd5b5061045561079e3660046147ca565b611870565b3480156107af57600080fd5b506104556118ee565b6104556107c636600461448a565b611a32565b3480156107d757600080fd5b506104556107e636600461454a565b611e10565b3480156107f757600080fd5b5061045561080636600461491a565b611e2b565b34801561081757600080fd5b50600e54600160601b90046001600160a01b03166104ce565b34801561083c57600080fd5b506104ce61084b366004614471565b611e5e565b34801561085c57600080fd5b506104a1611e69565b34801561087157600080fd5b50610455610880366004614471565b611ef7565b34801561089157600080fd5b506012546104ce906001600160a01b031681565b3480156108b157600080fd5b5061058e6108c0366004614880565b611f92565b3480156108d157600080fd5b50600c546104ce906001600160a01b031681565b3480156108f157600080fd5b50610455611fe0565b61045561090836600461494e565b611ff4565b34801561091957600080fd5b50610455610928366004614c6c565b61240b565b34801561093957600080fd5b50610455610948366004614d1a565b612908565b34801561095957600080fd5b50600e546040516001600160601b039091168152602001610483565b34801561098157600080fd5b50600a546201000090046001600160a01b03166104ce565b3480156109a557600080fd5b50600d54600e54600f54610a309260ff8082169361010083049091169262010000830463ffffffff90811693600160301b8104821693600160501b8204831693600160701b8304841693600160901b8404811693600160b01b810490911692600160d01b90910461ffff16916001600160601b03821691600160601b90046001600160a01b0316908c565b604080519c15158d529a151560208d015263ffffffff998a169a8c019a909a5296881660608b015294871660808a015292861660a089015290851660c088015290931660e086015261ffff9092166101008501526001600160601b039091166101208401526001600160a01b031661014083015261016082015261018001610483565b348015610abf57600080fd5b50610477610ace3660046147ca565b61297c565b348015610adf57600080fd5b50600d5460ff16610477565b348015610af757600080fd5b50610455610b0636600461491a565b6129a7565b348015610b1757600080fd5b506104a16129da565b348015610b2c57600080fd5b507f0000000000000000000000000000000000000000000000000000000000000000610524565b348015610b5f57600080fd5b5061058e600081565b348015610b7457600080fd5b50610455610b83366004614d56565b6129e9565b348015610b9457600080fd5b50600d54600160901b900463ffffffff16610524565b348015610bb657600080fd5b50610455610bc5366004614d84565b6129fd565b348015610bd657600080fd5b506104ce6daaeb6d7670e522a718067333cd4e81565b348015610bf857600080fd5b50610455610c07366004614e20565b612ed2565b348015610c1857600080fd5b50610455610c27366004614e3b565b612fd1565b348015610c3857600080fd5b50610455610c47366004614880565b61301b565b348015610c5857600080fd5b50600d54600160d01b900461ffff1660405161ffff9091168152602001610483565b348015610c8657600080fd5b50600d54600160b01b900463ffffffff16610524565b348015610ca857600080fd5b50610455610cb7366004614ea6565b6130ef565b348015610cc857600080fd5b50610455610cd7366004614880565b613199565b348015610ce857600080fd5b50610455610cf7366004614f2b565b6131c3565b348015610d0857600080fd5b506104a1610d17366004614471565b6132c9565b348015610d2857600080fd5b50610455610d373660046147ca565b61337c565b348015610d4857600080fd5b506014546104ce906001600160a01b031681565b348015610d6857600080fd5b50600d54600160501b900463ffffffff16610524565b348015610d8a57600080fd5b5060125461047790600160a01b900460ff1681565b348015610dab57600080fd5b506104a16133a1565b348015610dc057600080fd5b50610477610dcf366004614f6c565b6001600160a01b03918216600090815260076020908152604080832093909416825291909152205460ff1690565b348015610e0957600080fd5b50610477613441565b348015610e1e57600080fd5b50610455610e2d3660046144b6565b61348b565b348015610e3e57600080fd5b506013546104ce906001600160a01b031681565b348015610e5e57600080fd5b50610455610e6d366004614880565b6134f2565b348015610e7e57600080fd5b50600d5462010000900463ffffffff16610524565b348015610e9f57600080fd5b50600d54610100900460ff16610477565b348015610ebc57600080fd5b50610455610ecb366004614880565b61356b565b348015610edc57600080fd5b50610455610eeb366004614f8a565b6135b4565b600c546001600160a01b0316610f215760405162461bcd60e51b8152600401610f1890614fa2565b60405180910390fd5b610f2a876135e8565b600b54600c54604051630ac0898160e11b81526001600160a01b0392831692631581130292610f6c929116908b908b908b908b908b908b908b90600401615053565b600060405180830381600087803b158015610f8657600080fd5b505af1158015610f9a573d6000803e3d6000fd5b5050505050505050505050565b600063152a902d60e11b6001600160e01b031983161480610fcc5750610fcc826136cc565b80610fdb5750610fdb82613701565b80610fea5750610fea826136cc565b92915050565b606060028054610fff906150b5565b80601f016020809104026020016040519081016040528092919081815260200182805461102b906150b5565b80156110785780601f1061104d57610100808354040283529160200191611078565b820191906000526020600020905b81548152906001019060200180831161105b57829003601f168201915b5050505050905090565b600061108d8261374f565b6110aa576040516333d1c03960e21b815260040160405180910390fd5b506000908152600660205260409020546001600160a01b031690565b816110d081613776565b6110da838361382f565b505050565b6110ea60003361297c565b6111065760405162461bcd60e51b8152600401610f18906150e9565b600d805467ffffffffffffffff60901b1916600160901b63ffffffff9485160263ffffffff60b01b191617600160b01b9290931691909102919091179055565b6000611151826138cf565b9050836001600160a01b0316816001600160a01b0316146111845760405162a1148160e81b815260040160405180910390fd5b60008281526006602052604090208054338082146001600160a01b038816909114176111d1576111b48633610dcf565b6111d157604051632ce44b5f60e11b815260040160405180910390fd5b6001600160a01b0385166111f857604051633a954ecd60e21b815260040160405180910390fd5b611205868686600161393d565b801561121057600082555b6001600160a01b038681166000908152600560205260408082208054600019019055918716808252919020805460010190554260a01b17600160e11b17600085815260046020526040812091909155600160e11b841690036112a2576001840160008181526004602052604081205490036112a05760005481146112a05760008181526004602052604090208490555b505b83856001600160a01b0316876001600160a01b03167fddf252ad1be2c89b69c2b068fc378daa952ba7f163c4a11628f55a4df523b3ef60405160405180910390a45b505050505050565b600c546001600160a01b03166113145760405162461bcd60e51b8152600401610f1890614fa2565b8715611328576113288686868686866130ef565b60005b875181101561136c5761135c8882815181106113495761134961510c565b6020026020010151888888888888610ef0565b61136581615138565b905061132b565b506113788989896139be565b505050505050505050565b61138e60003361297c565b6113aa5760405162461bcd60e51b8152600401610f18906150e9565b600f55565b6000806113bb8461374f565b6113fb5760405162461bcd60e51b81526020600482015260116024820152702737b732bc34b9ba32b73a103a37b5b2b760791b6044820152606401610f18565b600c546001600160a01b03161561141f57600c546001600160a01b03169150611466565b600e54600160601b90046001600160a01b03161561145157600e54600160601b90046001600160a01b03169150611466565b600a546201000090046001600160a01b031691505b600d546000906127109061148590600160d01b900461ffff1686615151565b61148f9190615168565b9150505b9250929050565b6114a560003361297c565b6114c15760405162461bcd60e51b8152600401610f18906150e9565b60405163c3c5a54760e01b81523060048201819052906daaeb6d7670e522a718067333cd4e9063c3c5a547906024016020604051808303816000875af115801561150f573d6000803e3d6000fd5b505050506040513d601f19601f82011682018060405250810190611533919061518a565b15801561153d5750825b156115b757604051633e9f1edf60e11b81526001600160a01b038083166004830152831660248201526daaeb6d7670e522a718067333cd4e90637d3e3dbe906044015b600060405180830381600087803b15801561159a57600080fd5b505af11580156115ae573d6000803e3d6000fd5b50505050505050565b82156115ff57604051632cc5350560e21b81526001600160a01b038083166004830152831660248201526daaeb6d7670e522a718067333cd4e9063b314d41490604401611580565b60405163034a0dc160e41b81526001600160a01b0382166004820152600060248201526daaeb6d7670e522a718067333cd4e906334a0dc1090604401600060405180830381600087803b15801561165557600080fd5b505af1158015611669573d6000803e3d6000fd5b5050604051631761612360e11b81526001600160a01b03841660048201526daaeb6d7670e522a718067333cd4e9250632ec2c2469150602401611580565b6000828152600860205260409020600101546116c2816139f2565b6110da83836139fc565b6116d4613a82565b600c546001600160a01b0316156117255760405162461bcd60e51b815260206004820152601560248201527414dc1b1a5d08185b1c9958591e4818dc99585d1959605a1b6044820152606401610f18565b600b80546001600160a01b0319166001600160a01b038816908117909155604051633b00fbc160e11b8152637601f7829061176e908890889088908890889033906004016151a7565b6020604051808303816000875af115801561178d573d6000803e3d6000fd5b505050506040513d601f19601f820116820180604052508101906117b191906151f8565b600c80546001600160a01b0319166001600160a01b0392909216919091179055505050505050565b6117e460003361297c565b6118005760405162461bcd60e51b8152600401610f18906150e9565b600e80546001600160a01b03909216600160601b026001600160601b03909216919091179055565b61183360003361297c565b61184f5760405162461bcd60e51b8152600401610f18906150e9565b6012805460ff60a01b198116600160a01b9182900460ff1615909102179055565b6001600160a01b03811633146118e05760405162461bcd60e51b815260206004820152602f60248201527f416363657373436f6e74726f6c3a2063616e206f6e6c792072656e6f756e636560448201526e103937b632b9903337b91039b2b63360891b6064820152608401610f18565b6118ea8282613ae3565b5050565b600c546001600160a01b0316156119535760405162461bcd60e51b8152602060048201526024808201527f43616e6e6f74207769746864726177207769746820616e2061637469766520736044820152631c1b1a5d60e21b6064820152608401610f18565b600e54600090600160601b90046001600160a01b031661198457600a546201000090046001600160a01b0316611998565b600e54600160601b90046001600160a01b03165b90506000816001600160a01b03164760405160006040518083038185875af1925050503d80600081146119e7576040519150601f19603f3d011682016040523d82523d6000602084013e6119ec565b606091505b50509050806118ea5760405162461bcd60e51b8152602060048201526012602482015271436f756c64206e6f7420776974686472617760701b6044820152606401610f18565b6009546000906001600160a01b031615801590611a9b57506000600954600160f81b900460ff166002811115611a6a57611a6a6144e9565b1480611a9b5750808015611a9b57506001600954600160f81b900460ff166002811115611a9957611a996144e9565b145b80611acc575080158015611acc57506002600954600160f81b900460ff166002811115611aca57611aca6144e9565b145b15611b98576009546040516370a0823160e01b8152336004820152600160a01b82046001600160581b0316916001600160a01b0316906370a08231906024016020604051808303816000875af1158015611b2a573d6000803e3d6000fd5b505050506040513d601f19601f82011682018060405250810190611b4e9190615215565b1015611b985760405162461bcd60e51b81526020600482015260196024820152783237903737ba1037bbb7103932b8bab4b932b2103a37b5b2b760391b6044820152606401610f18565b600054600d54600160901b900463ffffffff164210801590611bc95750600d54600160b01b900463ffffffff164211155b611c0d5760405162461bcd60e51b815260206004820152601560248201527429b0b632b99030b932903737ba1030b1ba34bb329760591b6044820152606401610f18565b601254600160a01b900460ff1615611c675760405162461bcd60e51b815260206004820152601b60248201527f53616c65206d7573742062652061637469766520746f206d696e7400000000006044820152606401610f18565b600d5462010000900463ffffffff16611c80848361522e565b1115611c9e5760405162461bcd60e51b8152600401610f1890615241565b600d5462010000900463ffffffff16811115611ce75760405162461bcd60e51b815260206004820152600860248201526714d3d3110813d55560c21b6044820152606401610f18565b600e54611cfe9084906001600160601b0316615151565b341015611d425760405162461bcd60e51b8152602060048201526012602482015271496e73756666696369656e742066756e647360701b6044820152606401610f18565b600d54600160301b900463ffffffff1615611db657600d54600160301b900463ffffffff16831115611db65760405162461bcd60e51b815260206004820152601c60248201527f4578636565646564206d6178206e756d62657220706572206d696e74000000006044820152606401610f18565b611dc08484613b4a565b60005b83811015611e0957604080516001600160a01b0387168152602081018490526001909301926000805160206156ae833981519152910160405180910390a1600101611dc3565b5050505050565b6110da83838360405180602001604052806000815250612fd1565b611e3660003361297c565b611e525760405162461bcd60e51b8152600401610f18906150e9565b60106118ea82826152bc565b6000610fea826138cf565b60108054611e76906150b5565b80601f0160208091040260200160405190810160405280929190818152602001828054611ea2906150b5565b8015611eef5780601f10611ec457610100808354040283529160200191611eef565b820191906000526020600020905b815481529060010190602001808311611ed257829003601f168201915b505050505081565b611f0260003361297c565b611f1e5760405162461bcd60e51b8152600401610f18906150e9565b600054600d5462010000900463ffffffff16611f3a838361522e565b10611f575760405162461bcd60e51b8152600401610f1890615241565b60005b828110156110da57611f8033611f70838561522e565b611f7b90600161522e565b613b4a565b80611f8a81615138565b915050611f5a565b60006001600160a01b038216611fbb576040516323d3ad8160e21b815260040160405180910390fd5b506001600160a01b03166000908152600560205260409020546001600160401b031690565b611fe8613a82565b611ff26000613b64565b565b6009546001906001600160a01b03161580159061205d57506000600954600160f81b900460ff16600281111561202c5761202c6144e9565b148061205d575080801561205d57506001600954600160f81b900460ff16600281111561205b5761205b6144e9565b145b8061208e57508015801561208e57506002600954600160f81b900460ff16600281111561208c5761208c6144e9565b145b1561215a576009546040516370a0823160e01b8152336004820152600160a01b82046001600160581b0316916001600160a01b0316906370a08231906024016020604051808303816000875af11580156120ec573d6000803e3d6000fd5b505050506040513d601f19601f820116820180604052508101906121109190615215565b101561215a5760405162461bcd60e51b81526020600482015260196024820152783237903737ba1037bbb7103932b8bab4b932b2103a37b5b2b760391b6044820152606401610f18565b600d54600160501b900463ffffffff1642108015906121885750600d54600160701b900463ffffffff164211155b6121c25760405162461bcd60e51b815260206004820152600b60248201526a6e6f742070726573616c6560a81b6044820152606401610f18565b600054601254600160a01b900460ff161561221f5760405162461bcd60e51b815260206004820152601b60248201527f53616c65206d7573742062652061637469766520746f206d696e7400000000006044820152606401610f18565b600d5462010000900463ffffffff16612238888361522e565b11156122565760405162461bcd60e51b8152600401610f1890615241565b6122d984848080602002602001604051908101604052809392919081815260200183836020028082843760009201919091525050600f546040516bffffffffffffffffffffffff193360601b166020820152603481018c9052605481018b9052909250607401905060405160208183030381529060405280519060200120613bc0565b6123145760405162461bcd60e51b815260206004820152600c60248201526b1b9bdd08185c1c1c9bdd995960a21b6044820152606401610f18565b61231e8786615151565b3410156123625760405162461bcd60e51b8152602060048201526012602482015271496e73756666696369656e742066756e647360701b6044820152606401610f18565b858761236d33611f92565b612377919061522e565b11156123b75760405162461bcd60e51b815260206004820152600f60248201526e6d696e74656420746f6f206d616e7960881b6044820152606401610f18565b6123c13388613b4a565b60005b878110156124015760408051338152602081018490526001909301926000805160206156ae833981519152910160405180910390a16001016123c4565b5050505050505050565b600a54610100900460ff161580801561242b5750600a54600160ff909116105b806124455750303b1580156124455750600a5460ff166001145b6124615760405162461bcd60e51b8152600401610f189061537b565b600a805460ff19166001179055801561248457600a805461ff0019166101001790555b61248d87613b64565b6124986000886139fc565b85516002906124a790826152bc565b5060208601516003906124ba90826152bc565b50600080556060850151601380546001600160a01b039283166001600160a01b031990911617905584516009805460208801516001600160581b0316600160a01b026001600160f81b0319909116929093169190911791909117808255604086015186929182906001600160f81b0316600160f81b836002811115612541576125416144e9565b021790555090505081601460006101000a8154816001600160a01b0302191690836001600160a01b03160217905550604051806101800160405280876040015115158152602001876060015115158152602001876080015163ffffffff1681526020018760a0015163ffffffff1681526020018760c0015163ffffffff1681526020018760e0015163ffffffff16815260200187610100015163ffffffff16815260200187610120015163ffffffff16815260200187610140015161ffff1681526020018761016001516001600160601b031681526020018761018001516001600160a01b03168152602001876101a00151815250600d60008201518160000160006101000a81548160ff02191690831515021790555060208201518160000160016101000a81548160ff02191690831515021790555060408201518160000160026101000a81548163ffffffff021916908363ffffffff16021790555060608201518160000160066101000a81548163ffffffff021916908363ffffffff160217905550608082015181600001600a6101000a81548163ffffffff021916908363ffffffff16021790555060a082015181600001600e6101000a81548163ffffffff021916908363ffffffff16021790555060c08201518160000160126101000a81548163ffffffff021916908363ffffffff16021790555060e08201518160000160166101000a81548163ffffffff021916908363ffffffff16021790555061010082015181600001601a6101000a81548161ffff021916908361ffff1602179055506101208201518160010160006101000a8154816001600160601b0302191690836001600160601b0316021790555061014082015181600101600c6101000a8154816001600160a01b0302191690836001600160a01b03160217905550610160820151816002015590505060006001600160a01b0316836001600160a01b03161415801561281857506000856040015151115b1561289657601280546001600160a01b0319166001600160a01b03851690811790915560408681015190516342b53ffd60e11b815263856a7ffa9161285f9160040161445e565b600060405180830381600087803b15801561287957600080fd5b505af115801561288d573d6000803e3d6000fd5b505050506128ba565b84516011906128a590826152bc565b5060208501516010906128b890826152bc565b505b80156115ae57600a805461ff0019169055604051600181527f7f26b83ff96e1f2b6a682f133852f6798a09c465da95921460cefb38474024989060200160405180910390a150505050505050565b600c546001600160a01b03166129305760405162461bcd60e51b8152600401610f1890614fa2565b811561293e5761293e613bd6565b60005b81518110156110da5761296c82828151811061295f5761295f61510c565b60200260200101516135e8565b61297581615138565b9050612941565b60009182526008602090815260408084206001600160a01b0393909316845291905290205460ff1690565b6129b260003361297c565b6129ce5760405162461bcd60e51b8152600401610f18906150e9565b60116118ea82826152bc565b606060038054610fff906150b5565b816129f381613776565b6110da8383613c79565b600a54610100900460ff1615808015612a1d5750600a54600160ff909116105b80612a375750303b158015612a375750600a5460ff166001145b612a535760405162461bcd60e51b8152600401610f189061537b565b600a805460ff191660011790558015612a7657600a805461ff0019166101001790555b612a7f86613b64565b612a8a6000876139fc565b8451600290612a9990826152bc565b506020850151600390612aac90826152bc565b50600080556060840151601380546001600160a01b039283166001600160a01b031990911617905583516009805460208701516001600160581b0316600160a01b026001600160f81b0319909116929093169190911791909117808255604085015185929182906001600160f81b0316600160f81b836002811115612b3357612b336144e9565b0217905550905050604051806101800160405280866040015115158152602001866060015115158152602001866080015163ffffffff1681526020018660a0015163ffffffff1681526020018660c0015163ffffffff1681526020018660e0015163ffffffff16815260200186610100015163ffffffff16815260200186610120015163ffffffff16815260200186610140015161ffff1681526020018661016001516001600160601b031681526020018661018001516001600160a01b03168152602001866101a00151815250600d60008201518160000160006101000a81548160ff02191690831515021790555060208201518160000160016101000a81548160ff02191690831515021790555060408201518160000160026101000a81548163ffffffff021916908363ffffffff16021790555060608201518160000160066101000a81548163ffffffff021916908363ffffffff160217905550608082015181600001600a6101000a81548163ffffffff021916908363ffffffff16021790555060a082015181600001600e6101000a81548163ffffffff021916908363ffffffff16021790555060c08201518160000160126101000a81548163ffffffff021916908363ffffffff16021790555060e08201518160000160166101000a81548163ffffffff021916908363ffffffff16021790555061010082015181600001601a6101000a81548161ffff021916908361ffff1602179055506101208201518160010160006101000a8154816001600160601b0302191690836001600160601b0316021790555061014082015181600101600c6101000a8154816001600160a01b0302191690836001600160a01b03160217905550610160820151816002015590505060006001600160a01b0316826001600160a01b031614158015612de357506000846040015151115b15612e6157601280546001600160a01b0319166001600160a01b03841690811790915560408581015190516342b53ffd60e11b815263856a7ffa91612e2a9160040161445e565b600060405180830381600087803b158015612e4457600080fd5b505af1158015612e58573d6000803e3d6000fd5b50505050612e85565b8351601190612e7090826152bc565b506020840151601090612e8390826152bc565b505b80156112e457600a805461ff0019169055604051600181527f7f26b83ff96e1f2b6a682f133852f6798a09c465da95921460cefb38474024989060200160405180910390a1505050505050565b612edd60003361297c565b612ef95760405162461bcd60e51b8152600401610f18906150e9565b600d5460ff16612f595760405162461bcd60e51b815260206004820152602560248201527f63616e6e6f742061646a7573742073697a65206f66207468697320636f6c6c6560448201526431ba34b7b760d91b6064820152608401610f18565b8063ffffffff16612f6960005490565b1115612fad5760405162461bcd60e51b8152602060048201526013602482015272063616e6e6f742064656372656173652063617606c1b6044820152606401610f18565b600d805463ffffffff909216620100000265ffffffff000019909216919091179055565b612fdc848484611146565b6001600160a01b0383163b1561301557612ff884848484613d0e565b613015576040516368d2bf6b60e11b815260040160405180910390fd5b50505050565b6014546001600160a01b031633146130755760405162461bcd60e51b815260206004820152601860248201527f4f6e6c79207a6b56657269666965722063616e2063616c6c00000000000000006044820152606401610f18565b600054600d5462010000900463ffffffff1661309282600161522e565b11156130b05760405162461bcd60e51b8152600401610f1890615241565b6130bb826001613b4a565b604080516001600160a01b0384168152602081018390526000805160206156ae833981519152910160405180910390a15050565b600c546001600160a01b03166131175760405162461bcd60e51b8152600401610f1890614fa2565b61311f613bd6565b600b54600c5460405163730e582f60e11b81526001600160a01b039283169263e61cb05e9261315f929116908a908a908a908a908a908a906004016153c9565b600060405180830381600087803b15801561317957600080fd5b505af115801561318d573d6000803e3d6000fd5b50505050505050505050565b6131a1613a82565b601480546001600160a01b0319166001600160a01b0392909216919091179055565b6131ce60003361297c565b6131ea5760405162461bcd60e51b8152600401610f18906150e9565b600054600d54819062010000900463ffffffff16613208848361522e565b11156132265760405162461bcd60e51b8152600401610f1890615241565b8183015b80831015611e095761326585858486038181106132495761324961510c565b905060200201602081019061325e9190614880565b6001613b4a565b6000805160206156ae83398151915285858486038181106132885761328861510c565b905060200201602081019061329d9190614880565b604080516001600160a01b039092168252602082018690520160405180910390a160019092019161322a565b60606132d48261374f565b6132f157604051630a14c4b560e41b815260040160405180910390fd5b6012546001600160a01b0316156133735760125460405163c87b56dd60e01b8152600481018490526001600160a01b039091169063c87b56dd90602401600060405180830381865afa15801561334b573d6000803e3d6000fd5b505050506040513d6000823e601f3d908101601f19168201604052610fea9190810190615422565b610fea82613dfa565b600082815260086020526040902060010154613397816139f2565b6110da8383613ae3565b6012546060906001600160a01b03166133c15760118054610fff906150b5565b601260009054906101000a90046001600160a01b03166001600160a01b031663e8a3d4856040518163ffffffff1660e01b8152600401600060405180830381865afa158015613414573d6000803e3d6000fd5b505050506040513d6000823e601f3d908101601f1916820160405261343c9190810190615422565b905090565b600d54600090600160901b900463ffffffff1642108015906134725750600d54600160b01b900463ffffffff164211155b801561343c575050601254600160a01b900460ff161590565b61349660003361297c565b6134b25760405162461bcd60e51b8152600401610f18906150e9565b600d805467ffffffffffffffff60501b1916600160501b63ffffffff9485160263ffffffff60701b191617600160701b9290931691909102919091179055565b6134fa613a82565b6001600160a01b03811661355f5760405162461bcd60e51b815260206004820152602660248201527f4f776e61626c653a206e6577206f776e657220697320746865207a65726f206160448201526564647265737360d01b6064820152608401610f18565b61356881613b64565b50565b61357660003361297c565b6135925760405162461bcd60e51b8152600401610f18906150e9565b601280546001600160a01b0319166001600160a01b0392909216919091179055565b6135bf60003361297c565b6135db5760405162461bcd60e51b8152600401610f18906150e9565b8060096110da8282615498565b6040516370a0823160e01b81523060048201526000906001600160a01b038316906370a0823190602401602060405180830381865afa15801561362f573d6000803e3d6000fd5b505050506040513d601f19601f820116820180604052508101906136539190615215565b600c5460405163a9059cbb60e01b81526001600160a01b0391821660048201526024810183905291925083169063a9059cbb906044016020604051808303816000875af11580156136a8573d6000803e3d6000fd5b505050506040513d601f19601f820116820180604052508101906110da919061518a565b60006001600160e01b03198216637965db0b60e01b1480610fea57506301ffc9a760e01b6001600160e01b0319831614610fea565b60006301ffc9a760e01b6001600160e01b03198316148061373257506380ac58cd60e01b6001600160e01b03198316145b80610fea5750506001600160e01b031916635b5e139f60e01b1490565b6000805482108015610fea575050600090815260046020526040902054600160e01b161590565b6daaeb6d7670e522a718067333cd4e3b1561356857604051633185c44d60e21b81523060048201526001600160a01b03821660248201526daaeb6d7670e522a718067333cd4e9063c617113490604401602060405180830381865afa1580156137e3573d6000803e3d6000fd5b505050506040513d601f19601f82011682018060405250810190613807919061518a565b61356857604051633b79c77360e21b81526001600160a01b0382166004820152602401610f18565b600061383a82611e5e565b9050336001600160a01b03821614613873576138568133610dcf565b613873576040516367d9dca160e11b815260040160405180910390fd5b60008281526006602052604080822080546001600160a01b0319166001600160a01b0387811691821790925591518593918516917f8c5be1e5ebec7d5bd14f71427d1e84f3dd0314c0f7b2291e5b200ac8c7c3b92591a4505050565b6000816000548110156139245760008181526004602052604081205490600160e01b82169003613922575b8060000361391b5750600019016000818152600460205260409020546138fa565b9392505050565b505b604051636f96cda160e11b815260040160405180910390fd5b836001600160a01b03811633146139575761395733613776565b600d54610100900460ff16158061398657506001600160a01b038516158061398657506001600160a01b038416155b611e095760405162461bcd60e51b81526020600482015260096024820152681cdbdd5b189bdd5b9960ba1b6044820152606401610f18565b600b54604051636e5f691960e01b81526001600160a01b0390911690636e5f69199061158090869086908690600401615535565b6135688133613e7d565b613a06828261297c565b6118ea5760008281526008602090815260408083206001600160a01b03851684529091529020805460ff19166001179055613a3e3390565b6001600160a01b0316816001600160a01b0316837f2f8788117e7eff1d82e926ec794901d17c78024a50270940304540a733656f0d60405160405180910390a45050565b600a546001600160a01b0362010000909104163314611ff25760405162461bcd60e51b815260206004820181905260248201527f4f776e61626c653a2063616c6c6572206973206e6f7420746865206f776e65726044820152606401610f18565b613aed828261297c565b156118ea5760008281526008602090815260408083206001600160a01b0385168085529252808320805460ff1916905551339285917ff6391f5c32d9c69d2a47ea670b442974b53935d1edc7fd64eb21e047a839171b9190a45050565b6118ea828260405180602001604052806000815250613ed6565b600a80546001600160a01b038381166201000081810262010000600160b01b031985161790945560405193909204169182907f8be0079c531659141344cd1fd0a4f28419497f9722a3daafe3b4186f6b6457e090600090a35050565b600082613bcd8584613f3c565b14949350505050565b600c546040516000916001600160a01b03169047908381818185875af1925050503d8060008114613c23576040519150601f19603f3d011682016040523d82523d6000602084013e613c28565b606091505b50509050806135685760405162461bcd60e51b815260206004820152601f60248201527f436f756c64206e6f74207472616e736665722045544820746f2073706c6974006044820152606401610f18565b336001600160a01b03831603613ca25760405163b06307db60e01b815260040160405180910390fd5b3360008181526007602090815260408083206001600160a01b03871680855290835292819020805460ff191686151590811790915590519081529192917f17307eab39ab6107e8899845ad3d59bd9653f200f220920489ca2b5937696c31910160405180910390a35050565b604051630a85bd0160e11b81526000906001600160a01b0385169063150b7a0290613d43903390899088908890600401615598565b6020604051808303816000875af1925050508015613d7e575060408051601f3d908101601f19168201909252613d7b918101906155d5565b60015b613ddc573d808015613dac576040519150601f19603f3d011682016040523d82523d6000602084013e613db1565b606091505b508051600003613dd4576040516368d2bf6b60e11b815260040160405180910390fd5b805181602001fd5b6001600160e01b031916630a85bd0160e11b1490505b949350505050565b6060613e058261374f565b613e2257604051630a14c4b560e41b815260040160405180910390fd5b6000613e2c613f89565b90508051600003613e4c576040518060200160405280600081525061391b565b80613e5684613f98565b604051602001613e679291906155f2565b6040516020818303038152906040529392505050565b613e87828261297c565b6118ea57613e9481613fd0565b613e9f836020613fe2565b604051602001613eb0929190615621565b60408051601f198184030181529082905262461bcd60e51b8252610f189160040161445e565b613ee0838361417d565b6001600160a01b0383163b156110da576000548281035b613f0a6000868380600101945086613d0e565b613f27576040516368d2bf6b60e11b815260040160405180910390fd5b818110613ef7578160005414611e0957600080fd5b600081815b8451811015613f8157613f6d82868381518110613f6057613f6061510c565b6020026020010151614288565b915080613f7981615138565b915050613f41565b509392505050565b606060108054610fff906150b5565b604080516080019081905280825b600183039250600a81066030018353600a900480613fa65750819003601f19909101908152919050565b6060610fea6001600160a01b03831660145b60606000613ff1836002615151565b613ffc90600261522e565b6001600160401b038111156140135761401361458b565b6040519080825280601f01601f19166020018201604052801561403d576020820181803683370190505b509050600360fc1b816000815181106140585761405861510c565b60200101906001600160f81b031916908160001a905350600f60fb1b816001815181106140875761408761510c565b60200101906001600160f81b031916908160001a90535060006140ab846002615151565b6140b690600161522e565b90505b600181111561412e576f181899199a1a9b1b9c1cb0b131b232b360811b85600f16601081106140ea576140ea61510c565b1a60f81b8282815181106141005761410061510c565b60200101906001600160f81b031916908160001a90535060049490941c9361412781615696565b90506140b9565b50831561391b5760405162461bcd60e51b815260206004820181905260248201527f537472696e67733a20686578206c656e67746820696e73756666696369656e746044820152606401610f18565b60008054908290036141a25760405163b562e8dd60e01b815260040160405180910390fd5b6141af600084838561393d565b6001600160a01b03831660008181526005602090815260408083208054680100000000000000018802019055848352600490915281206001851460e11b4260a01b178317905582840190839083907fddf252ad1be2c89b69c2b068fc378daa952ba7f163c4a11628f55a4df523b3ef8180a4600183015b81811461425e57808360007fddf252ad1be2c89b69c2b068fc378daa952ba7f163c4a11628f55a4df523b3ef600080a4600101614226565b508160000361427f57604051622e076360e81b815260040160405180910390fd5b60005550505050565b60008183106142a457600082815260208490526040902061391b565b600083815260208390526040902061391b565b6001600160a01b038116811461356857600080fd5b60008083601f8401126142de57600080fd5b5081356001600160401b038111156142f557600080fd5b6020830191508360208260051b850101111561149357600080fd5b803563ffffffff8116811461432457600080fd5b919050565b8035614324816142b7565b600080600080600080600060a0888a03121561434f57600080fd5b873561435a816142b7565b965060208801356001600160401b038082111561437657600080fd5b6143828b838c016142cc565b909850965060408a013591508082111561439b57600080fd5b506143a88a828b016142cc565b90955093506143bb905060608901614310565b915060808801356143cb816142b7565b8091505092959891949750929550565b6001600160e01b03198116811461356857600080fd5b60006020828403121561440357600080fd5b813561391b816143db565b60005b83811015614429578181015183820152602001614411565b50506000910152565b6000815180845261444a81602086016020860161440e565b601f01601f19169290920160200192915050565b60208152600061391b6020830184614432565b60006020828403121561448357600080fd5b5035919050565b6000806040838503121561449d57600080fd5b82356144a8816142b7565b946020939093013593505050565b600080604083850312156144c957600080fd5b6144d283614310565b91506144e060208401614310565b90509250929050565b634e487b7160e01b600052602160045260246000fd5b6001600160a01b03841681526001600160581b0383166020820152606081016003831061453c57634e487b7160e01b600052602160045260246000fd5b826040830152949350505050565b60008060006060848603121561455f57600080fd5b833561456a816142b7565b9250602084013561457a816142b7565b929592945050506040919091013590565b634e487b7160e01b600052604160045260246000fd5b6040516101c081016001600160401b03811182821017156145c4576145c461458b565b60405290565b604051601f8201601f191681016001600160401b03811182821017156145f2576145f261458b565b604052919050565b600082601f83011261460b57600080fd5b813560206001600160401b038211156146265761462661458b565b8160051b6146358282016145ca565b928352848101820192828101908785111561464f57600080fd5b83870192505b84831015614677578235614668816142b7565b82529183019190830190614655565b979650505050505050565b600080600080600080600080600060e08a8c0312156146a057600080fd5b89356146ab816142b7565b985060208a0135975060408a01356001600160401b03808211156146ce57600080fd5b6146da8d838e016145fa565b985060608c01359150808211156146f057600080fd5b6146fc8d838e016142cc565b909850965060808c013591508082111561471557600080fd5b506147228c828d016142cc565b9095509350614735905060a08b01614310565b915060c08a0135614745816142b7565b809150509295985092959850929598565b6000806040838503121561476957600080fd5b50508035926020909101359150565b801515811461356857600080fd5b803561432481614778565b600080604083850312156147a457600080fd5b82356147af81614778565b915060208301356147bf816142b7565b809150509250929050565b600080604083850312156147dd57600080fd5b8235915060208301356147bf816142b7565b6000806000806000806080878903121561480857600080fd5b8635614813816142b7565b955060208701356001600160401b038082111561482f57600080fd5b61483b8a838b016142cc565b9097509550604089013591508082111561485457600080fd5b5061486189828a016142cc565b9094509250614874905060608801614310565b90509295509295509295565b60006020828403121561489257600080fd5b813561391b816142b7565b60006001600160401b038211156148b6576148b661458b565b50601f01601f191660200190565b600082601f8301126148d557600080fd5b81356148e86148e38261489d565b6145ca565b8181528460208386010111156148fd57600080fd5b816020850160208301376000918101602001919091529392505050565b60006020828403121561492c57600080fd5b81356001600160401b0381111561494257600080fd5b613df2848285016148c4565b60008060008060006080868803121561496657600080fd5b85359450602086013593506040860135925060608601356001600160401b0381111561499157600080fd5b61499d888289016142cc565b969995985093965092949392505050565b803561ffff8116811461432457600080fd5b80356001600160601b038116811461432457600080fd5b60006101c082840312156149ea57600080fd5b6149f26145a1565b905081356001600160401b0380821115614a0b57600080fd5b614a17858386016148c4565b83526020840135915080821115614a2d57600080fd5b50614a3a848285016148c4565b602083015250614a4c60408301614786565b6040820152614a5d60608301614786565b6060820152614a6e60808301614310565b6080820152614a7f60a08301614310565b60a0820152614a9060c08301614310565b60c0820152614aa160e08301614310565b60e0820152610100614ab4818401614310565b90820152610120614ac6838201614310565b90820152610140614ad88382016149ae565b90820152610160614aea8382016149c0565b90820152610180614afc838201614329565b81830152506101a080830135818301525092915050565b600060808284031215614b2557600080fd5b604051608081016001600160401b038282108183111715614b4857614b4861458b565b816040528293508435915080821115614b6057600080fd5b614b6c868387016148c4565b83526020850135915080821115614b8257600080fd5b614b8e868387016148c4565b60208401526040850135915080821115614ba757600080fd5b50614bb4858286016148c4565b6040830152506060830135614bc8816142b7565b6060919091015292915050565b6001600160581b038116811461356857600080fd5b6003811061356857600080fd5b600060608284031215614c0957600080fd5b604051606081018181106001600160401b0382111715614c2b57614c2b61458b565b6040529050808235614c3c816142b7565b81526020830135614c4c81614bd5565b60208201526040830135614c5f81614bea565b6040919091015292915050565b6000806000806000806101008789031215614c8657600080fd5b8635614c91816142b7565b955060208701356001600160401b0380821115614cad57600080fd5b614cb98a838b016149d7565b96506040890135915080821115614ccf57600080fd5b50614cdc89828a01614b13565b945050614cec8860608901614bf7565b925060c0870135614cfc816142b7565b915060e0870135614d0c816142b7565b809150509295509295509295565b60008060408385031215614d2d57600080fd5b8235915060208301356001600160401b03811115614d4a57600080fd5b61148f858286016145fa565b60008060408385031215614d6957600080fd5b8235614d74816142b7565b915060208301356147bf81614778565b600080600080600060e08688031215614d9c57600080fd5b8535614da7816142b7565b945060208601356001600160401b0380821115614dc357600080fd5b614dcf89838a016149d7565b95506040880135915080821115614de557600080fd5b50614df288828901614b13565b935050614e028760608801614bf7565b915060c0860135614e12816142b7565b809150509295509295909350565b600060208284031215614e3257600080fd5b61391b82614310565b60008060008060808587031215614e5157600080fd5b8435614e5c816142b7565b93506020850135614e6c816142b7565b92506040850135915060608501356001600160401b03811115614e8e57600080fd5b614e9a878288016148c4565b91505092959194509250565b60008060008060008060808789031215614ebf57600080fd5b86356001600160401b0380821115614ed657600080fd5b614ee28a838b016142cc565b90985096506020890135915080821115614efb57600080fd5b50614f0889828a016142cc565b9095509350614f1b905060408801614310565b91506060870135614d0c816142b7565b60008060208385031215614f3e57600080fd5b82356001600160401b03811115614f5457600080fd5b614f60858286016142cc565b90969095509350505050565b60008060408385031215614f7f57600080fd5b82356147af816142b7565b600060608284031215614f9c57600080fd5b50919050565b60208082526015908201527414dc1b1a5d081b9bdd0818dc99585d1959081e595d605a1b604082015260600190565b8183526000602080850194508260005b8581101561500f578135614ff4816142b7565b6001600160a01b031687529582019590820190600101614fe1565b509495945050505050565b8183526000602080850194508260005b8581101561500f5763ffffffff61504083614310565b168752958201959082019060010161502a565b600060018060a01b03808b168352808a16602084015260c0604084015261507e60c08401898b614fd1565b838103606085015261509181888a61501a565b63ffffffff969096166080850152509290921660a090910152509695505050505050565b600181811c908216806150c957607f821691505b602082108103614f9c57634e487b7160e01b600052602260045260246000fd5b60208082526009908201526837b7363ca0b236b4b760b91b604082015260600190565b634e487b7160e01b600052603260045260246000fd5b634e487b7160e01b600052601160045260246000fd5b60006001820161514a5761514a615122565b5060010190565b8082028115828204841417610fea57610fea615122565b60008261518557634e487b7160e01b600052601260045260246000fd5b500490565b60006020828403121561519c57600080fd5b815161391b81614778565b6080815260006151bb60808301888a614fd1565b82810360208401526151ce81878961501a565b63ffffffff95909516604084015250506001600160a01b0391909116606090910152949350505050565b60006020828403121561520a57600080fd5b815161391b816142b7565b60006020828403121561522757600080fd5b5051919050565b80820180821115610fea57610fea615122565b6020808252818101527f507572636861736520776f756c6420657863656564206d617820737570706c79604082015260600190565b601f8211156110da57600081815260208120601f850160051c8101602086101561529d5750805b601f850160051c820191505b818110156112e4578281556001016152a9565b81516001600160401b038111156152d5576152d561458b565b6152e9816152e384546150b5565b84615276565b602080601f83116001811461531e57600084156153065750858301515b600019600386901b1c1916600185901b1785556112e4565b600085815260208120601f198616915b8281101561534d5788860151825594840194600190910190840161532e565b508582101561536b5787850151600019600388901b60f8161c191681555b5050505050600190811b01905550565b6020808252602e908201527f496e697469616c697a61626c653a20636f6e747261637420697320616c72656160408201526d191e481a5b9a5d1a585b1a5e995960921b606082015260800190565b600060018060a01b03808a16835260a060208401526153ec60a08401898b614fd1565b83810360408501526153ff81888a61501a565b63ffffffff96909616606085015250929092166080909101525095945050505050565b60006020828403121561543457600080fd5b81516001600160401b0381111561544a57600080fd5b8201601f8101841361545b57600080fd5b80516154696148e38261489d565b81815285602083850101111561547e57600080fd5b61548f82602083016020860161440e565b95945050505050565b81356154a3816142b7565b81546001600160a01b031981166001600160a01b0392909216918217835560208401356154cf81614bd5565b6affffffffffffffffffffff60a01b60a09190911b166001600160f81b031991821683178117845560408501359161550683614bea565b6003831061552457634e487b7160e01b600052602160045260246000fd5b921760f89190911b90911617905550565b6001600160a01b038481168252602080830185905260606040840181905284519084018190526000928583019290916080860190855b8181101561558957855185168352948301949183019160010161556b565b50909998505050505050505050565b6001600160a01b03858116825284166020820152604081018390526080606082018190526000906155cb90830184614432565b9695505050505050565b6000602082840312156155e757600080fd5b815161391b816143db565b6000835161560481846020880161440e565b83519083019061561881836020880161440e565b01949350505050565b7f416363657373436f6e74726f6c3a206163636f756e742000000000000000000081526000835161565981601785016020880161440e565b7001034b99036b4b9b9b4b733903937b6329607d1b601791840191820152835161568a81602884016020880161440e565b01602801949350505050565b6000816156a5576156a5615122565b50600019019056fe30385c845b448a36257a6a1716e6ad2e1bc2cbe333cde1e69fe849ad6511adfea26469706673582212208e4ea804ca838d52497562c63636d47a47a5473762df1e667dc358687798868864736f6c63430008110033",
  "linkReferences": {},
  "deployedLinkReferences": {}
}