{
  "_format": "hh-sol-artifact-1",
  "contractName": "ZKEdition",
  "sourceName": "contracts/ZKEdition.sol",
  "abi": [
    {
      "inputs": [],
      "name": "ApprovalCallerNotOwnerNorApproved",
      "type": "error"
    },
    {
      "inputs": [],
      "name": "ApprovalQueryForNonexistentToken",
      "type": "error"
    },
    {
      "inputs": [],
      "name": "ApproveToCaller",
      "type": "error"
    },
    {
      "inputs": [],
      "name": "BalanceQueryForZeroAddress",
      "type": "error"
    },
    {
      "inputs": [],
      "name": "MintERC2309QuantityExceedsLimit",
      "type": "error"
    },
    {
      "inputs": [],
      "name": "MintToZeroAddress",
      "type": "error"
    },
    {
      "inputs": [],
      "name": "MintZeroQuantity",
      "type": "error"
    },
    {
      "inputs": [
        {
          "internalType": "address",
          "name": "operator",
          "type": "address"
        }
      ],
      "name": "OperatorNotAllowed",
      "type": "error"
    },
    {
      "inputs": [],
      "name": "OwnerQueryForNonexistentToken",
      "type": "error"
    },
    {
      "inputs": [],
      "name": "OwnershipNotInitializedForExtraData",
      "type": "error"
    },
    {
      "inputs": [],
      "name": "TransferCallerNotOwnerNorApproved",
      "type": "error"
    },
    {
      "inputs": [],
      "name": "TransferFromIncorrectOwner",
      "type": "error"
    },
    {
      "inputs": [],
      "name": "TransferToNonERC721ReceiverImplementer",
      "type": "error"
    },
    {
      "inputs": [],
      "name": "TransferToZeroAddress",
      "type": "error"
    },
    {
      "inputs": [],
      "name": "URIQueryForNonexistentToken",
      "type": "error"
    },
    {
      "anonymous": false,
      "inputs": [
        {
          "indexed": true,
          "internalType": "address",
          "name": "owner",
          "type": "address"
        },
        {
          "indexed": true,
          "internalType": "address",
          "name": "approved",
          "type": "address"
        },
        {
          "indexed": true,
          "internalType": "uint256",
          "name": "tokenId",
          "type": "uint256"
        }
      ],
      "name": "Approval",
      "type": "event"
    },
    {
      "anonymous": false,
      "inputs": [
        {
          "indexed": true,
          "internalType": "address",
          "name": "owner",
          "type": "address"
        },
        {
          "indexed": true,
          "internalType": "address",
          "name": "operator",
          "type": "address"
        },
        {
          "indexed": false,
          "internalType": "bool",
          "name": "approved",
          "type": "bool"
        }
      ],
      "name": "ApprovalForAll",
      "type": "event"
    },
    {
      "anonymous": false,
      "inputs": [
        {
          "indexed": true,
          "internalType": "uint256",
          "name": "fromTokenId",
          "type": "uint256"
        },
        {
          "indexed": false,
          "internalType": "uint256",
          "name": "toTokenId",
          "type": "uint256"
        },
        {
          "indexed": true,
          "internalType": "address",
          "name": "from",
          "type": "address"
        },
        {
          "indexed": true,
          "internalType": "address",
          "name": "to",
          "type": "address"
        }
      ],
      "name": "ConsecutiveTransfer",
      "type": "event"
    },
    {
      "anonymous": false,
      "inputs": [
        {
          "indexed": false,
          "internalType": "uint8",
          "name": "version",
          "type": "uint8"
        }
      ],
      "name": "Initialized",
      "type": "event"
    },
    {
      "anonymous": false,
      "inputs": [
        {
          "indexed": false,
          "internalType": "address",
          "name": "sender",
          "type": "address"
        },
        {
          "indexed": false,
          "internalType": "uint256",
          "name": "tokenId_",
          "type": "uint256"
        }
      ],
      "name": "Minted",
      "type": "event"
    },
    {
      "anonymous": false,
      "inputs": [
        {
          "indexed": true,
          "internalType": "address",
          "name": "previousOwner",
          "type": "address"
        },
        {
          "indexed": true,
          "internalType": "address",
          "name": "newOwner",
          "type": "address"
        }
      ],
      "name": "OwnershipTransferred",
      "type": "event"
    },
    {
      "anonymous": false,
      "inputs": [
        {
          "indexed": true,
          "internalType": "bytes32",
          "name": "role",
          "type": "bytes32"
        },
        {
          "indexed": true,
          "internalType": "bytes32",
          "name": "previousAdminRole",
          "type": "bytes32"
        },
        {
          "indexed": true,
          "internalType": "bytes32",
          "name": "newAdminRole",
          "type": "bytes32"
        }
      ],
      "name": "RoleAdminChanged",
      "type": "event"
    },
    {
      "anonymous": false,
      "inputs": [
        {
          "indexed": true,
          "internalType": "bytes32",
          "name": "role",
          "type": "bytes32"
        },
        {
          "indexed": true,
          "internalType": "address",
          "name": "account",
          "type": "address"
        },
        {
          "indexed": true,
          "internalType": "address",
          "name": "sender",
          "type": "address"
        }
      ],
      "name": "RoleGranted",
      "type": "event"
    },
    {
      "anonymous": false,
      "inputs": [
        {
          "indexed": true,
          "internalType": "bytes32",
          "name": "role",
          "type": "bytes32"
        },
        {
          "indexed": true,
          "internalType": "address",
          "name": "account",
          "type": "address"
        },
        {
          "indexed": true,
          "internalType": "address",
          "name": "sender",
          "type": "address"
        }
      ],
      "name": "RoleRevoked",
      "type": "event"
    },
    {
      "anonymous": false,
      "inputs": [
        {
          "indexed": true,
          "internalType": "address",
          "name": "from",
          "type": "address"
        },
        {
          "indexed": true,
          "internalType": "address",
          "name": "to",
          "type": "address"
        },
        {
          "indexed": true,
          "internalType": "uint256",
          "name": "tokenId",
          "type": "uint256"
        }
      ],
      "name": "Transfer",
      "type": "event"
    },
    {
      "inputs": [],
      "name": "DEFAULT_ADMIN_ROLE",
      "outputs": [
        {
          "internalType": "bytes32",
          "name": "",
          "type": "bytes32"
        }
      ],
      "stateMutability": "view",
      "type": "function"
    },
    {
      "inputs": [],
      "name": "MAX_TOKENS",
      "outputs": [
        {
          "internalType": "uint32",
          "name": "",
          "type": "uint32"
        }
      ],
      "stateMutability": "view",
      "type": "function"
    },
    {
      "inputs": [
        {
          "internalType": "uint32",
          "name": "newCap",
          "type": "uint32"
        }
      ],
      "name": "adjustCap",
      "outputs": [],
      "stateMutability": "nonpayable",
      "type": "function"
    },
    {
      "inputs": [
        {
          "internalType": "address",
          "name": "operator",
          "type": "address"
        },
        {
          "internalType": "uint256",
          "name": "tokenId",
          "type": "uint256"
        }
      ],
      "name": "approve",
      "outputs": [],
      "stateMutability": "nonpayable",
      "type": "function"
    },
    {
      "inputs": [
        {
          "internalType": "address",
          "name": "owner",
          "type": "address"
        }
      ],
      "name": "balanceOf",
      "outputs": [
        {
          "internalType": "uint256",
          "name": "",
          "type": "uint256"
        }
      ],
      "stateMutability": "view",
      "type": "function"
    },
    {
      "inputs": [],
      "name": "baseURI",
      "outputs": [
        {
          "internalType": "string",
          "name": "",
          "type": "string"
        }
      ],
      "stateMutability": "view",
      "type": "function"
    },
    {
      "inputs": [],
      "name": "contractURI",
      "outputs": [
        {
          "internalType": "string",
          "name": "",
          "type": "string"
        }
      ],
      "stateMutability": "view",
      "type": "function"
    },
    {
      "inputs": [],
      "name": "contractVersion",
      "outputs": [
        {
          "internalType": "uint32",
          "name": "",
          "type": "uint32"
        }
      ],
      "stateMutability": "view",
      "type": "function"
    },
    {
      "inputs": [
        {
          "internalType": "address",
          "name": "_splitMain",
          "type": "address"
        },
        {
          "internalType": "address[]",
          "name": "accounts",
          "type": "address[]"
        },
        {
          "internalType": "uint32[]",
          "name": "percentAllocations",
          "type": "uint32[]"
        },
        {
          "internalType": "uint32",
          "name": "distributorFee",
          "type": "uint32"
        }
      ],
      "name": "createSplit",
      "outputs": [],
      "stateMutability": "nonpayable",
      "type": "function"
    },
    {
      "inputs": [
        {
          "internalType": "address",
          "name": "account",
          "type": "address"
        },
        {
          "internalType": "uint256",
          "name": "withdrawETH",
          "type": "uint256"
        },
        {
          "internalType": "contract ERC20[]",
          "name": "tokens",
          "type": "address[]"
        },
        {
          "internalType": "address[]",
          "name": "accounts",
          "type": "address[]"
        },
        {
          "internalType": "uint32[]",
          "name": "percentAllocations",
          "type": "uint32[]"
        },
        {
          "internalType": "uint32",
          "name": "distributorFee",
          "type": "uint32"
        },
        {
          "internalType": "address",
          "name": "distributorAddress",
          "type": "address"
        }
      ],
      "name": "distributeAndWithdraw",
      "outputs": [],
      "stateMutability": "nonpayable",
      "type": "function"
    },
    {
      "inputs": [
        {
          "internalType": "contract ERC20",
          "name": "token",
          "type": "address"
        },
        {
          "internalType": "address[]",
          "name": "accounts",
          "type": "address[]"
        },
        {
          "internalType": "uint32[]",
          "name": "percentAllocations",
          "type": "uint32[]"
        },
        {
          "internalType": "uint32",
          "name": "distributorFee",
          "type": "uint32"
        },
        {
          "internalType": "address",
          "name": "distributorAddress",
          "type": "address"
        }
      ],
      "name": "distributeERC20",
      "outputs": [],
      "stateMutability": "nonpayable",
      "type": "function"
    },
    {
      "inputs": [
        {
          "internalType": "address[]",
          "name": "accounts",
          "type": "address[]"
        },
        {
          "internalType": "uint32[]",
          "name": "percentAllocations",
          "type": "uint32[]"
        },
        {
          "internalType": "uint32",
          "name": "distributorFee",
          "type": "uint32"
        },
        {
          "internalType": "address",
          "name": "distributorAddress",
          "type": "address"
        }
      ],
      "name": "distributeETH",
      "outputs": [],
      "stateMutability": "nonpayable",
      "type": "function"
    },
    {
      "inputs": [],
      "name": "edition",
      "outputs": [
        {
          "internalType": "bool",
          "name": "hasAdjustableCap",
          "type": "bool"
        },
        {
          "internalType": "bool",
          "name": "isSoulbound",
          "type": "bool"
        },
        {
          "internalType": "uint32",
          "name": "maxTokens",
          "type": "uint32"
        },
        {
          "internalType": "uint32",
          "name": "maxTokenPurchase",
          "type": "uint32"
        },
        {
          "internalType": "uint32",
          "name": "presaleStart",
          "type": "uint32"
        },
        {
          "internalType": "uint32",
          "name": "presaleEnd",
          "type": "uint32"
        },
        {
          "internalType": "uint32",
          "name": "saleStart",
          "type": "uint32"
        },
        {
          "internalType": "uint32",
          "name": "saleEnd",
          "type": "uint32"
        },
        {
          "internalType": "uint16",
          "name": "royaltyBPS",
          "type": "uint16"
        },
        {
          "internalType": "uint96",
          "name": "tokenPrice",
          "type": "uint96"
        },
        {
          "internalType": "address",
          "name": "payoutAddress",
          "type": "address"
        },
        {
          "internalType": "bytes32",
          "name": "presaleMerkleRoot",
          "type": "bytes32"
        }
      ],
      "stateMutability": "view",
      "type": "function"
    },
    {
      "inputs": [],
      "name": "flipSaleState",
      "outputs": [],
      "stateMutability": "nonpayable",
      "type": "function"
    },
    {
      "inputs": [
        {
          "internalType": "uint256",
          "name": "tokenId",
          "type": "uint256"
        }
      ],
      "name": "getApproved",
      "outputs": [
        {
          "internalType": "address",
          "name": "",
          "type": "address"
        }
      ],
      "stateMutability": "view",
      "type": "function"
    },
    {
      "inputs": [
        {
          "internalType": "bytes32",
          "name": "role",
          "type": "bytes32"
        }
      ],
      "name": "getRoleAdmin",
      "outputs": [
        {
          "internalType": "bytes32",
          "name": "",
          "type": "bytes32"
        }
      ],
      "stateMutability": "view",
      "type": "function"
    },
    {
      "inputs": [
        {
          "internalType": "bytes32",
          "name": "role",
          "type": "bytes32"
        },
        {
          "internalType": "address",
          "name": "account",
          "type": "address"
        }
      ],
      "name": "grantRole",
      "outputs": [],
      "stateMutability": "nonpayable",
      "type": "function"
    },
    {
      "inputs": [],
      "name": "hasAdjustableCap",
      "outputs": [
        {
          "internalType": "bool",
          "name": "",
          "type": "bool"
        }
      ],
      "stateMutability": "view",
      "type": "function"
    },
    {
      "inputs": [
        {
          "internalType": "bytes32",
          "name": "role",
          "type": "bytes32"
        },
        {
          "internalType": "address",
          "name": "account",
          "type": "address"
        }
      ],
      "name": "hasRole",
      "outputs": [
        {
          "internalType": "bool",
          "name": "",
          "type": "bool"
        }
      ],
      "stateMutability": "view",
      "type": "function"
    },
    {
      "inputs": [
        {
          "internalType": "address",
          "name": "_owner",
          "type": "address"
        },
        {
          "components": [
            {
              "internalType": "string",
              "name": "name",
              "type": "string"
            },
            {
              "internalType": "string",
              "name": "symbol",
              "type": "string"
            },
            {
              "internalType": "bool",
              "name": "hasAdjustableCap",
              "type": "bool"
            },
            {
              "internalType": "bool",
              "name": "isSoulbound",
              "type": "bool"
            },
            {
              "internalType": "uint32",
              "name": "maxTokens",
              "type": "uint32"
            },
            {
              "internalType": "uint32",
              "name": "maxTokenPurchase",
              "type": "uint32"
            },
            {
              "internalType": "uint32",
              "name": "presaleStart",
              "type": "uint32"
            },
            {
              "internalType": "uint32",
              "name": "presaleEnd",
              "type": "uint32"
            },
            {
              "internalType": "uint32",
              "name": "saleStart",
              "type": "uint32"
            },
            {
              "internalType": "uint32",
              "name": "saleEnd",
              "type": "uint32"
            },
            {
              "internalType": "uint16",
              "name": "royaltyBPS",
              "type": "uint16"
            },
            {
              "internalType": "uint96",
              "name": "tokenPrice",
              "type": "uint96"
            },
            {
              "internalType": "address",
              "name": "payoutAddress",
              "type": "address"
            },
            {
              "internalType": "bytes32",
              "name": "presaleMerkleRoot",
              "type": "bytes32"
            }
          ],
          "internalType": "struct EditionConfig",
          "name": "_editionConfig",
          "type": "tuple"
        },
        {
          "components": [
            {
              "internalType": "string",
              "name": "contractURI",
              "type": "string"
            },
            {
              "internalType": "string",
              "name": "metadataURI",
              "type": "string"
            },
            {
              "internalType": "bytes",
              "name": "metadataRendererInit",
              "type": "bytes"
            },
            {
              "internalType": "address",
              "name": "parentIP",
              "type": "address"
            }
          ],
          "internalType": "struct MetadataConfig",
          "name": "_metadataConfig",
          "type": "tuple"
        },
        {
          "components": [
            {
              "internalType": "address",
              "name": "tokenAddress",
              "type": "address"
            },
            {
              "internalType": "uint88",
              "name": "minBalance",
              "type": "uint88"
            },
            {
              "internalType": "enum SaleType",
              "name": "saleType",
              "type": "uint8"
            }
          ],
          "internalType": "struct TokenGateConfig",
          "name": "_tokenGateConfig",
          "type": "tuple"
        },
        {
          "internalType": "address",
          "name": "_metadataRenderer",
          "type": "address"
        },
        {
          "internalType": "address",
          "name": "_zkVerifier",
          "type": "address"
        }
      ],
      "name": "initialize",
      "outputs": [],
      "stateMutability": "nonpayable",
      "type": "function"
    },
    {
      "inputs": [
        {
          "internalType": "address",
          "name": "_owner",
          "type": "address"
        },
        {
          "components": [
            {
              "internalType": "string",
              "name": "name",
              "type": "string"
            },
            {
              "internalType": "string",
              "name": "symbol",
              "type": "string"
            },
            {
              "internalType": "bool",
              "name": "hasAdjustableCap",
              "type": "bool"
            },
            {
              "internalType": "bool",
              "name": "isSoulbound",
              "type": "bool"
            },
            {
              "internalType": "uint32",
              "name": "maxTokens",
              "type": "uint32"
            },
            {
              "internalType": "uint32",
              "name": "maxTokenPurchase",
              "type": "uint32"
            },
            {
              "internalType": "uint32",
              "name": "presaleStart",
              "type": "uint32"
            },
            {
              "internalType": "uint32",
              "name": "presaleEnd",
              "type": "uint32"
            },
            {
              "internalType": "uint32",
              "name": "saleStart",
              "type": "uint32"
            },
            {
              "internalType": "uint32",
              "name": "saleEnd",
              "type": "uint32"
            },
            {
              "internalType": "uint16",
              "name": "royaltyBPS",
              "type": "uint16"
            },
            {
              "internalType": "uint96",
              "name": "tokenPrice",
              "type": "uint96"
            },
            {
              "internalType": "address",
              "name": "payoutAddress",
              "type": "address"
            },
            {
              "internalType": "bytes32",
              "name": "presaleMerkleRoot",
              "type": "bytes32"
            }
          ],
          "internalType": "struct EditionConfig",
          "name": "_editionConfig",
          "type": "tuple"
        },
        {
          "components": [
            {
              "internalType": "string",
              "name": "contractURI",
              "type": "string"
            },
            {
              "internalType": "string",
              "name": "metadataURI",
              "type": "string"
            },
            {
              "internalType": "bytes",
              "name": "metadataRendererInit",
              "type": "bytes"
            },
            {
              "internalType": "address",
              "name": "parentIP",
              "type": "address"
            }
          ],
          "internalType": "struct MetadataConfig",
          "name": "_metadataConfig",
          "type": "tuple"
        },
        {
          "components": [
            {
              "internalType": "address",
              "name": "tokenAddress",
              "type": "address"
            },
            {
              "internalType": "uint88",
              "name": "minBalance",
              "type": "uint88"
            },
            {
              "internalType": "enum SaleType",
              "name": "saleType",
              "type": "uint8"
            }
          ],
          "internalType": "struct TokenGateConfig",
          "name": "_tokenGateConfig",
          "type": "tuple"
        },
        {
          "internalType": "address",
          "name": "_metadataRenderer",
          "type": "address"
        }
      ],
      "name": "initialize",
      "outputs": [],
      "stateMutability": "nonpayable",
      "type": "function"
    },
    {
      "inputs": [
        {
          "internalType": "address",
          "name": "owner",
          "type": "address"
        },
        {
          "internalType": "address",
          "name": "operator",
          "type": "address"
        }
      ],
      "name": "isApprovedForAll",
      "outputs": [
        {
          "internalType": "bool",
          "name": "",
          "type": "bool"
        }
      ],
      "stateMutability": "view",
      "type": "function"
    },
    {
      "inputs": [],
      "name": "isSoulbound",
      "outputs": [
        {
          "internalType": "bool",
          "name": "",
          "type": "bool"
        }
      ],
      "stateMutability": "view",
      "type": "function"
    },
    {
      "inputs": [],
      "name": "maxTokenPurchase",
      "outputs": [
        {
          "internalType": "uint32",
          "name": "",
          "type": "uint32"
        }
      ],
      "stateMutability": "view",
      "type": "function"
    },
    {
      "inputs": [],
      "name": "metadataRenderer",
      "outputs": [
        {
          "internalType": "address",
          "name": "",
          "type": "address"
        }
      ],
      "stateMutability": "view",
      "type": "function"
    },
    {
      "inputs": [
        {
          "internalType": "address",
          "name": "to",
          "type": "address"
        },
        {
          "internalType": "uint256",
          "name": "numberOfTokens",
          "type": "uint256"
        }
      ],
      "name": "mint",
      "outputs": [],
      "stateMutability": "payable",
      "type": "function"
    },
    {
      "inputs": [
        {
          "internalType": "address[]",
          "name": "recipients",
          "type": "address[]"
        }
      ],
      "name": "mintAirdrop",
      "outputs": [],
      "stateMutability": "nonpayable",
      "type": "function"
    },
    {
      "inputs": [
        {
          "internalType": "address",
          "name": "to",
          "type": "address"
        },
        {
          "internalType": "uint256",
          "name": "quantity",
          "type": "uint256"
        },
        {
          "internalType": "uint256",
          "name": "maxQuantity",
          "type": "uint256"
        },
        {
          "internalType": "uint256",
          "name": "pricePerToken",
          "type": "uint256"
        },
        {
          "internalType": "bytes32[]",
          "name": "merkleProof",
          "type": "bytes32[]"
        }
      ],
      "name": "mintPresale",
      "outputs": [],
      "stateMutability": "payable",
      "type": "function"
    },
    {
      "inputs": [],
      "name": "name",
      "outputs": [
        {
          "internalType": "string",
          "name": "",
          "type": "string"
        }
      ],
      "stateMutability": "view",
      "type": "function"
    },
    {
      "inputs": [],
      "name": "operatorFilterRegistry",
      "outputs": [
        {
          "internalType": "contract IOperatorFilterRegistry",
          "name": "",
          "type": "address"
        }
      ],
      "stateMutability": "view",
      "type": "function"
    },
    {
      "inputs": [],
      "name": "owner",
      "outputs": [
        {
          "internalType": "address",
          "name": "",
          "type": "address"
        }
      ],
      "stateMutability": "view",
      "type": "function"
    },
    {
      "inputs": [
        {
          "internalType": "uint256",
          "name": "tokenId",
          "type": "uint256"
        }
      ],
      "name": "ownerOf",
      "outputs": [
        {
          "internalType": "address",
          "name": "",
          "type": "address"
        }
      ],
      "stateMutability": "view",
      "type": "function"
    },
    {
      "inputs": [],
      "name": "parentIP",
      "outputs": [
        {
          "internalType": "address",
          "name": "",
          "type": "address"
        }
      ],
      "stateMutability": "view",
      "type": "function"
    },
    {
      "inputs": [],
      "name": "payoutAddress",
      "outputs": [
        {
          "internalType": "address",
          "name": "",
          "type": "address"
        }
      ],
      "stateMutability": "view",
      "type": "function"
    },
    {
      "inputs": [],
      "name": "presaleEnd",
      "outputs": [
        {
          "internalType": "uint32",
          "name": "",
          "type": "uint32"
        }
      ],
      "stateMutability": "view",
      "type": "function"
    },
    {
      "inputs": [],
      "name": "presaleMerkleRoot",
      "outputs": [
        {
          "internalType": "bytes32",
          "name": "",
          "type": "bytes32"
        }
      ],
      "stateMutability": "view",
      "type": "function"
    },
    {
      "inputs": [],
      "name": "presaleStart",
      "outputs": [
        {
          "internalType": "uint32",
          "name": "",
          "type": "uint32"
        }
      ],
      "stateMutability": "view",
      "type": "function"
    },
    {
      "inputs": [],
      "name": "renounceOwnership",
      "outputs": [],
      "stateMutability": "nonpayable",
      "type": "function"
    },
    {
      "inputs": [
        {
          "internalType": "bytes32",
          "name": "role",
          "type": "bytes32"
        },
        {
          "internalType": "address",
          "name": "account",
          "type": "address"
        }
      ],
      "name": "renounceRole",
      "outputs": [],
      "stateMutability": "nonpayable",
      "type": "function"
    },
    {
      "inputs": [
        {
          "internalType": "uint256",
          "name": "numReserved",
          "type": "uint256"
        }
      ],
      "name": "reserveDCNT",
      "outputs": [],
      "stateMutability": "nonpayable",
      "type": "function"
    },
    {
      "inputs": [
        {
          "internalType": "bytes32",
          "name": "role",
          "type": "bytes32"
        },
        {
          "internalType": "address",
          "name": "account",
          "type": "address"
        }
      ],
      "name": "revokeRole",
      "outputs": [],
      "stateMutability": "nonpayable",
      "type": "function"
    },
    {
      "inputs": [],
      "name": "royaltyBPS",
      "outputs": [
        {
          "internalType": "uint16",
          "name": "",
          "type": "uint16"
        }
      ],
      "stateMutability": "view",
      "type": "function"
    },
    {
      "inputs": [
        {
          "internalType": "uint256",
          "name": "tokenId",
          "type": "uint256"
        },
        {
          "internalType": "uint256",
          "name": "salePrice",
          "type": "uint256"
        }
      ],
      "name": "royaltyInfo",
      "outputs": [
        {
          "internalType": "address",
          "name": "receiver",
          "type": "address"
        },
        {
          "internalType": "uint256",
          "name": "royaltyAmount",
          "type": "uint256"
        }
      ],
      "stateMutability": "view",
      "type": "function"
    },
    {
      "inputs": [
        {
          "internalType": "address",
          "name": "from",
          "type": "address"
        },
        {
          "internalType": "address",
          "name": "to",
          "type": "address"
        },
        {
          "internalType": "uint256",
          "name": "tokenId",
          "type": "uint256"
        }
      ],
      "name": "safeTransferFrom",
      "outputs": [],
      "stateMutability": "nonpayable",
      "type": "function"
    },
    {
      "inputs": [
        {
          "internalType": "address",
          "name": "from",
          "type": "address"
        },
        {
          "internalType": "address",
          "name": "to",
          "type": "address"
        },
        {
          "internalType": "uint256",
          "name": "tokenId",
          "type": "uint256"
        },
        {
          "internalType": "bytes",
          "name": "_data",
          "type": "bytes"
        }
      ],
      "name": "safeTransferFrom",
      "outputs": [],
      "stateMutability": "nonpayable",
      "type": "function"
    },
    {
      "inputs": [],
      "name": "saleEnd",
      "outputs": [
        {
          "internalType": "uint32",
          "name": "",
          "type": "uint32"
        }
      ],
      "stateMutability": "view",
      "type": "function"
    },
    {
      "inputs": [],
      "name": "saleIsActive",
      "outputs": [
        {
          "internalType": "bool",
          "name": "_saleIsActive",
          "type": "bool"
        }
      ],
      "stateMutability": "view",
      "type": "function"
    },
    {
      "inputs": [],
      "name": "saleIsPaused",
      "outputs": [
        {
          "internalType": "bool",
          "name": "",
          "type": "bool"
        }
      ],
      "stateMutability": "view",
      "type": "function"
    },
    {
      "inputs": [],
      "name": "saleStart",
      "outputs": [
        {
          "internalType": "uint32",
          "name": "",
          "type": "uint32"
        }
      ],
      "stateMutability": "view",
      "type": "function"
    },
    {
      "inputs": [
        {
          "internalType": "address",
          "name": "operator",
          "type": "address"
        },
        {
          "internalType": "bool",
          "name": "approved",
          "type": "bool"
        }
      ],
      "name": "setApprovalForAll",
      "outputs": [],
      "stateMutability": "nonpayable",
      "type": "function"
    },
    {
      "inputs": [
        {
          "internalType": "string",
          "name": "uri",
          "type": "string"
        }
      ],
      "name": "setBaseURI",
      "outputs": [],
      "stateMutability": "nonpayable",
      "type": "function"
    },
    {
      "inputs": [
        {
          "internalType": "string",
          "name": "uri",
          "type": "string"
        }
      ],
      "name": "setContractURI",
      "outputs": [],
      "stateMutability": "nonpayable",
      "type": "function"
    },
    {
      "inputs": [
        {
          "internalType": "address",
          "name": "_metadataRenderer",
          "type": "address"
        }
      ],
      "name": "setMetadataRenderer",
      "outputs": [],
      "stateMutability": "nonpayable",
      "type": "function"
    },
    {
      "inputs": [
        {
          "internalType": "address",
          "name": "_payoutAddress",
          "type": "address"
        }
      ],
      "name": "setPayoutAddress",
      "outputs": [],
      "stateMutability": "nonpayable",
      "type": "function"
    },
    {
      "inputs": [
        {
          "internalType": "bytes32",
          "name": "_presaleMerkleRoot",
          "type": "bytes32"
        }
      ],
      "name": "setPresaleMerkleRoot",
      "outputs": [],
      "stateMutability": "nonpayable",
      "type": "function"
    },
    {
      "inputs": [
        {
          "components": [
            {
              "internalType": "address",
              "name": "tokenAddress",
              "type": "address"
            },
            {
              "internalType": "uint88",
              "name": "minBalance",
              "type": "uint88"
            },
            {
              "internalType": "enum SaleType",
              "name": "saleType",
              "type": "uint8"
            }
          ],
          "internalType": "struct TokenGateConfig",
          "name": "_tokenGateConfig",
          "type": "tuple"
        }
      ],
      "name": "setTokenGate",
      "outputs": [],
      "stateMutability": "nonpayable",
      "type": "function"
    },
    {
      "inputs": [
        {
          "internalType": "address",
          "name": "_zkVerifier",
          "type": "address"
        }
      ],
      "name": "setZKVerifier",
      "outputs": [],
      "stateMutability": "nonpayable",
      "type": "function"
    },
    {
      "inputs": [],
      "name": "splitMain",
      "outputs": [
        {
          "internalType": "address",
          "name": "",
          "type": "address"
        }
      ],
      "stateMutability": "view",
      "type": "function"
    },
    {
      "inputs": [],
      "name": "splitWallet",
      "outputs": [
        {
          "internalType": "address",
          "name": "",
          "type": "address"
        }
      ],
      "stateMutability": "view",
      "type": "function"
    },
    {
      "inputs": [
        {
          "internalType": "bytes4",
          "name": "interfaceId",
          "type": "bytes4"
        }
      ],
      "name": "supportsInterface",
      "outputs": [
        {
          "internalType": "bool",
          "name": "",
          "type": "bool"
        }
      ],
      "stateMutability": "view",
      "type": "function"
    },
    {
      "inputs": [],
      "name": "symbol",
      "outputs": [
        {
          "internalType": "string",
          "name": "",
          "type": "string"
        }
      ],
      "stateMutability": "view",
      "type": "function"
    },
    {
      "inputs": [],
      "name": "tokenGateConfig",
      "outputs": [
        {
          "internalType": "address",
          "name": "tokenAddress",
          "type": "address"
        },
        {
          "internalType": "uint88",
          "name": "minBalance",
          "type": "uint88"
        },
        {
          "internalType": "enum SaleType",
          "name": "saleType",
          "type": "uint8"
        }
      ],
      "stateMutability": "view",
      "type": "function"
    },
    {
      "inputs": [],
      "name": "tokenPrice",
      "outputs": [
        {
          "internalType": "uint96",
          "name": "",
          "type": "uint96"
        }
      ],
      "stateMutability": "view",
      "type": "function"
    },
    {
      "inputs": [
        {
          "internalType": "uint256",
          "name": "tokenId",
          "type": "uint256"
        }
      ],
      "name": "tokenURI",
      "outputs": [
        {
          "internalType": "string",
          "name": "",
          "type": "string"
        }
      ],
      "stateMutability": "view",
      "type": "function"
    },
    {
      "inputs": [],
      "name": "totalSupply",
      "outputs": [
        {
          "internalType": "uint256",
          "name": "",
          "type": "uint256"
        }
      ],
      "stateMutability": "view",
      "type": "function"
    },
    {
      "inputs": [
        {
          "internalType": "address",
          "name": "from",
          "type": "address"
        },
        {
          "internalType": "address",
          "name": "to",
          "type": "address"
        },
        {
          "internalType": "uint256",
          "name": "tokenId",
          "type": "uint256"
        }
      ],
      "name": "transferFrom",
      "outputs": [],
      "stateMutability": "nonpayable",
      "type": "function"
    },
    {
      "inputs": [
        {
          "internalType": "address",
          "name": "newOwner",
          "type": "address"
        }
      ],
      "name": "transferOwnership",
      "outputs": [],
      "stateMutability": "nonpayable",
      "type": "function"
    },
    {
      "inputs": [
        {
          "internalType": "uint256",
          "name": "transferETH",
          "type": "uint256"
        },
        {
          "internalType": "contract ERC20[]",
          "name": "tokens",
          "type": "address[]"
        }
      ],
      "name": "transferToSplit",
      "outputs": [],
      "stateMutability": "nonpayable",
      "type": "function"
    },
    {
      "inputs": [
        {
          "internalType": "bool",
          "name": "enable",
          "type": "bool"
        },
        {
          "internalType": "address",
          "name": "operatorFilter",
          "type": "address"
        }
      ],
      "name": "updateOperatorFilter",
      "outputs": [],
      "stateMutability": "nonpayable",
      "type": "function"
    },
    {
      "inputs": [
        {
          "internalType": "uint32",
          "name": "newStart",
          "type": "uint32"
        },
        {
          "internalType": "uint32",
          "name": "newEnd",
          "type": "uint32"
        }
      ],
      "name": "updatePresaleStartEnd",
      "outputs": [],
      "stateMutability": "nonpayable",
      "type": "function"
    },
    {
      "inputs": [
        {
          "internalType": "uint32",
          "name": "newStart",
          "type": "uint32"
        },
        {
          "internalType": "uint32",
          "name": "newEnd",
          "type": "uint32"
        }
      ],
      "name": "updateSaleStartEnd",
      "outputs": [],
      "stateMutability": "nonpayable",
      "type": "function"
    },
    {
      "inputs": [],
      "name": "withdraw",
      "outputs": [],
      "stateMutability": "nonpayable",
      "type": "function"
    },
    {
      "inputs": [
        {
          "internalType": "address",
          "name": "recipient",
          "type": "address"
        }
      ],
      "name": "zkClaim",
      "outputs": [],
      "stateMutability": "nonpayable",
      "type": "function"
    },
    {
      "inputs": [],
      "name": "zkVerifier",
      "outputs": [
        {
          "internalType": "address",
          "name": "",
          "type": "address"
        }
      ],
      "stateMutability": "view",
      "type": "function"
    }
  ],
  "bytecode": "0x60a06040523480156200001157600080fd5b5060086200001f336200002e565b63ffffffff166080526200008a565b600a80546001600160a01b038381166201000081810262010000600160b01b031985161790945560405193909204169182907f8be0079c531659141344cd1fd0a4f28419497f9722a3daafe3b4186f6b6457e090600090a35050565b608051615712620000a66000396000610b2f01526157126000f3fe6080604052600436106104305760003560e01c806379ab7c8e11610229578063c10b93581161012e578063e8a3d485116100b6578063f2fde38b1161007a578063f2fde38b14610e52578063f47c84c514610e72578063f7eca6d014610e93578063fd4fe8a814610eb0578063ff45640d14610ed057600080fd5b8063e8a3d48514610d9f578063e985e9c514610db4578063eb8d244414610dfd578063ed1f24ad14610e12578063f0cc8b6214610e3257600080fd5b8063c87b56dd116100fd578063c87b56dd14610cfc578063d547741f14610d1c578063d6df096d14610d3c578063de8801e514610d5c578063e6c350c114610d7e57600080fd5b8063c10b935814610c7a578063c4559d5a14610c9c578063c509034614610cbc578063c595317014610cdc57600080fd5b8063a217fddf116101b1578063b0ccc31e11610180578063b0ccc31e14610bca578063b80476d014610bec578063b88d4fde14610c0c578063b9139dcb14610c2c578063b9c9d93a14610c4c57600080fd5b8063a217fddf14610b53578063a22cb46514610b68578063ab0bcc4114610b88578063ae1dd6c414610baa57600080fd5b806391d14854116101f857806391d1485414610ab3578063931cf0f414610ad3578063938e3d7b14610aeb57806395d89b4114610b0b578063a0a8e46014610b2057600080fd5b806379ab7c8e1461092d5780637ff9b5961461094d5780638da5cb5b146109755780638e98f86a1461099957600080fd5b80632d75fea61161033a57806355f804b3116102c25780637031997011610286578063703199701461089857806370a08231146108b8578063713b9787146108d8578063715018a6146108f8578063799f5a8b1461090d57600080fd5b806355f804b3146107fe5780635b8d02d71461081e5780636352211e146108435780636c0360eb146108635780636c1951ae1461087857600080fd5b806334918dfd1161030957806334918dfd1461078157806336568abe146107965780633ccfd60b146107b657806340c10f19146107cb57806342842e0e146107de57600080fd5b80632d75fea6146107015780632f2ff15d1461072157806333ea3e6d1461074157806333ea51a81461076157600080fd5b806318160ddd116103bd57806323b872dd1161038c57806323b872dd14610632578063248a9ca314610652578063284a44a81461068257806328d7b276146106a25780632a55205a146106c257600080fd5b806318160ddd1461058c5780631dbdedbd146105af57806322212e2b146105fb578063229f3e291461061057600080fd5b8063095ea7b311610404578063095ea7b3146104e657806309aa3dcf146105065780630ad6c616146105395780630b8999f3146105595780630e769b2b1461056c57600080fd5b80625f16fb1461043557806301ffc9a71461045757806306fdde031461048c578063081812fc146104ae575b600080fd5b34801561044157600080fd5b50610455610450366004614331565b610ef0565b005b34801561046357600080fd5b506104776104723660046143ee565b610fa7565b60405190151581526020015b60405180910390f35b34801561049857600080fd5b506104a1610ff0565b604051610483919061445b565b3480156104ba57600080fd5b506104ce6104c936600461446e565b611082565b6040516001600160a01b039091168152602001610483565b3480156104f257600080fd5b50610455610501366004614487565b6110c6565b34801561051257600080fd5b50600d54600160301b900463ffffffff165b60405163ffffffff9091168152602001610483565b34801561054557600080fd5b506104556105543660046144b3565b6110df565b6104556105673660046144e6565b611146565b34801561057857600080fd5b50600b546104ce906001600160a01b031681565b34801561059857600080fd5b50600154600054035b604051908152602001610483565b3480156105bb57600080fd5b506009546105ec906001600160a01b03811690600160a01b81046001600160581b031690600160f81b900460ff1683565b6040516104839392919061456e565b34801561060757600080fd5b50600f546105a1565b34801561061c57600080fd5b50600d54600160701b900463ffffffff16610524565b34801561063e57600080fd5b5061045561064d3660046145b9565b611568565b34801561065e57600080fd5b506105a161066d36600461446e565b60009081526008602052604090206001015490565b34801561068e57600080fd5b5061045561069d3660046146f1565b61170e565b3480156106ae57600080fd5b506104556106bd36600461446e565b61179a565b3480156106ce57600080fd5b506106e26106dd3660046147c5565b6117c6565b604080516001600160a01b039093168352602083019190915201610483565b34801561070d57600080fd5b5061045561071c366004614800565b6118b1565b34801561072d57600080fd5b5061045561073c366004614839565b611abe565b34801561074d57600080fd5b5061045561075c36600461485e565b611ae3565b34801561076d57600080fd5b5061045561077c3660046148ef565b611bf0565b34801561078d57600080fd5b50610455611c3f565b3480156107a257600080fd5b506104556107b1366004614839565b611c87565b3480156107c257600080fd5b50610455611d05565b6104556107d9366004614487565b611e49565b3480156107ea57600080fd5b506104556107f93660046145b9565b612227565b34801561080a57600080fd5b50610455610819366004614989565b612242565b34801561082a57600080fd5b50600e54600160601b90046001600160a01b03166104ce565b34801561084f57600080fd5b506104ce61085e36600461446e565b612275565b34801561086f57600080fd5b506104a1612280565b34801561088457600080fd5b5061045561089336600461446e565b61230e565b3480156108a457600080fd5b506012546104ce906001600160a01b031681565b3480156108c457600080fd5b506105a16108d33660046148ef565b6123a9565b3480156108e457600080fd5b50600c546104ce906001600160a01b031681565b34801561090457600080fd5b506104556123f7565b34801561091957600080fd5b50610455610928366004614c7b565b61240b565b34801561093957600080fd5b50610455610948366004614d29565b612908565b34801561095957600080fd5b50600e546040516001600160601b039091168152602001610483565b34801561098157600080fd5b50600a546201000090046001600160a01b03166104ce565b3480156109a557600080fd5b50600d54600e54600f54610a309260ff8082169361010083049091169262010000830463ffffffff90811693600160301b8104821693600160501b8204831693600160701b8304841693600160901b8404811693600160b01b810490911692600160d01b90910461ffff16916001600160601b03821691600160601b90046001600160a01b0316908c565b604080519c15158d529a151560208d015263ffffffff998a169a8c019a909a5296881660608b015294871660808a015292861660a089015290851660c088015290931660e086015261ffff9092166101008501526001600160601b039091166101208401526001600160a01b031661014083015261016082015261018001610483565b348015610abf57600080fd5b50610477610ace366004614839565b61297c565b348015610adf57600080fd5b50600d5460ff16610477565b348015610af757600080fd5b50610455610b06366004614989565b6129a7565b348015610b1757600080fd5b506104a16129da565b348015610b2c57600080fd5b507f0000000000000000000000000000000000000000000000000000000000000000610524565b348015610b5f57600080fd5b506105a1600081565b348015610b7457600080fd5b50610455610b83366004614d65565b6129e9565b348015610b9457600080fd5b50600d54600160901b900463ffffffff16610524565b348015610bb657600080fd5b50610455610bc5366004614d93565b6129fd565b348015610bd657600080fd5b506104ce6daaeb6d7670e522a718067333cd4e81565b348015610bf857600080fd5b50610455610c07366004614e2f565b612ed2565b348015610c1857600080fd5b50610455610c27366004614e4a565b612fd1565b348015610c3857600080fd5b50610455610c473660046148ef565b61301b565b348015610c5857600080fd5b50600d54600160d01b900461ffff1660405161ffff9091168152602001610483565b348015610c8657600080fd5b50600d54600160b01b900463ffffffff16610524565b348015610ca857600080fd5b50610455610cb7366004614eb5565b6130ef565b348015610cc857600080fd5b50610455610cd73660046148ef565b613199565b348015610ce857600080fd5b50610455610cf7366004614f3a565b6131c3565b348015610d0857600080fd5b506104a1610d1736600461446e565b6132c9565b348015610d2857600080fd5b50610455610d37366004614839565b61337c565b348015610d4857600080fd5b506014546104ce906001600160a01b031681565b348015610d6857600080fd5b50600d54600160501b900463ffffffff16610524565b348015610d8a57600080fd5b5060125461047790600160a01b900460ff1681565b348015610dab57600080fd5b506104a16133a1565b348015610dc057600080fd5b50610477610dcf366004614f7b565b6001600160a01b03918216600090815260076020908152604080832093909416825291909152205460ff1690565b348015610e0957600080fd5b50610477613441565b348015610e1e57600080fd5b50610455610e2d3660046144b3565b61348b565b348015610e3e57600080fd5b506013546104ce906001600160a01b031681565b348015610e5e57600080fd5b50610455610e6d3660046148ef565b6134f2565b348015610e7e57600080fd5b50600d5462010000900463ffffffff16610524565b348015610e9f57600080fd5b50600d54610100900460ff16610477565b348015610ebc57600080fd5b50610455610ecb3660046148ef565b61356b565b348015610edc57600080fd5b50610455610eeb366004614f99565b6135b4565b600c546001600160a01b0316610f215760405162461bcd60e51b8152600401610f1890614fb1565b60405180910390fd5b610f2a876135e8565b600b54600c54604051630ac0898160e11b81526001600160a01b0392831692631581130292610f6c929116908b908b908b908b908b908b908b90600401615062565b600060405180830381600087803b158015610f8657600080fd5b505af1158015610f9a573d6000803e3d6000fd5b5050505050505050505050565b600063152a902d60e11b6001600160e01b031983161480610fcc5750610fcc826136cc565b80610fdb5750610fdb82613701565b80610fea5750610fea826136cc565b92915050565b606060028054610fff906150c4565b80601f016020809104026020016040519081016040528092919081815260200182805461102b906150c4565b80156110785780601f1061104d57610100808354040283529160200191611078565b820191906000526020600020905b81548152906001019060200180831161105b57829003601f168201915b5050505050905090565b600061108d8261374f565b6110aa576040516333d1c03960e21b815260040160405180910390fd5b506000908152600660205260409020546001600160a01b031690565b816110d081613776565b6110da838361382f565b505050565b6110ea60003361297c565b6111065760405162461bcd60e51b8152600401610f18906150f8565b600d805467ffffffffffffffff60901b1916600160901b63ffffffff9485160263ffffffff60b01b191617600160b01b9290931691909102919091179055565b6009546001906001600160a01b0316158015906111af57506000600954600160f81b900460ff16600281111561117e5761117e614558565b14806111af57508080156111af57506001600954600160f81b900460ff1660028111156111ad576111ad614558565b145b806111e05750801580156111e057506002600954600160f81b900460ff1660028111156111de576111de614558565b145b156112ac576009546040516370a0823160e01b8152336004820152600160a01b82046001600160581b0316916001600160a01b0316906370a08231906024016020604051808303816000875af115801561123e573d6000803e3d6000fd5b505050506040513d601f19601f82011682018060405250810190611262919061511b565b10156112ac5760405162461bcd60e51b81526020600482015260196024820152783237903737ba1037bbb7103932b8bab4b932b2103a37b5b2b760391b6044820152606401610f18565b600d54600160501b900463ffffffff1642108015906112da5750600d54600160701b900463ffffffff164211155b6113145760405162461bcd60e51b815260206004820152600b60248201526a6e6f742070726573616c6560a81b6044820152606401610f18565b600054601254600160a01b900460ff16156113715760405162461bcd60e51b815260206004820152601b60248201527f53616c65206d7573742062652061637469766520746f206d696e7400000000006044820152606401610f18565b600d5462010000900463ffffffff1661138a888361514a565b11156113a85760405162461bcd60e51b8152600401610f189061515d565b61142c84848080602002602001604051908101604052809392919081815260200183836020028082843760009201919091525050600f546040516bffffffffffffffffffffffff1960608f901b166020820152603481018c9052605481018b90529092506074019050604051602081830303815290604052805190602001206138cf565b6114675760405162461bcd60e51b815260206004820152600c60248201526b1b9bdd08185c1c1c9bdd995960a21b6044820152606401610f18565b6114718786615192565b3410156114b55760405162461bcd60e51b8152602060048201526012602482015271496e73756666696369656e742066756e647360701b6044820152606401610f18565b85876114c08a6123a9565b6114ca919061514a565b111561150a5760405162461bcd60e51b815260206004820152600f60248201526e6d696e74656420746f6f206d616e7960881b6044820152606401610f18565b61151488886138e5565b60005b8781101561155d57604080516001600160a01b038b168152602081018490526001909301926000805160206156bd833981519152910160405180910390a1600101611517565b505050505050505050565b6000611573826138ff565b9050836001600160a01b0316816001600160a01b0316146115a65760405162a1148160e81b815260040160405180910390fd5b60008281526006602052604090208054338082146001600160a01b038816909114176115f3576115d68633610dcf565b6115f357604051632ce44b5f60e11b815260040160405180910390fd5b6001600160a01b03851661161a57604051633a954ecd60e21b815260040160405180910390fd5b611627868686600161396d565b801561163257600082555b6001600160a01b038681166000908152600560205260408082208054600019019055918716808252919020805460010190554260a01b17600160e11b17600085815260046020526040812091909155600160e11b841690036116c4576001840160008181526004602052604081205490036116c25760005481146116c25760008181526004602052604090208490555b505b83856001600160a01b0316876001600160a01b03167fddf252ad1be2c89b69c2b068fc378daa952ba7f163c4a11628f55a4df523b3ef60405160405180910390a45b505050505050565b600c546001600160a01b03166117365760405162461bcd60e51b8152600401610f1890614fb1565b871561174a5761174a8686868686866130ef565b60005b875181101561178e5761177e88828151811061176b5761176b6151a9565b6020026020010151888888888888610ef0565b611787816151bf565b905061174d565b5061155d8989896139ee565b6117a560003361297c565b6117c15760405162461bcd60e51b8152600401610f18906150f8565b600f55565b6000806117d28461374f565b6118125760405162461bcd60e51b81526020600482015260116024820152702737b732bc34b9ba32b73a103a37b5b2b760791b6044820152606401610f18565b600c546001600160a01b03161561183657600c546001600160a01b0316915061187d565b600e54600160601b90046001600160a01b03161561186857600e54600160601b90046001600160a01b0316915061187d565b600a546201000090046001600160a01b031691505b600d546000906127109061189c90600160d01b900461ffff1686615192565b6118a691906151d8565b9150505b9250929050565b6118bc60003361297c565b6118d85760405162461bcd60e51b8152600401610f18906150f8565b60405163c3c5a54760e01b81523060048201819052906daaeb6d7670e522a718067333cd4e9063c3c5a547906024016020604051808303816000875af1158015611926573d6000803e3d6000fd5b505050506040513d601f19601f8201168201806040525081019061194a91906151fa565b1580156119545750825b156119ce57604051633e9f1edf60e11b81526001600160a01b038083166004830152831660248201526daaeb6d7670e522a718067333cd4e90637d3e3dbe906044015b600060405180830381600087803b1580156119b157600080fd5b505af11580156119c5573d6000803e3d6000fd5b50505050505050565b8215611a1657604051632cc5350560e21b81526001600160a01b038083166004830152831660248201526daaeb6d7670e522a718067333cd4e9063b314d41490604401611997565b60405163034a0dc160e41b81526001600160a01b0382166004820152600060248201526daaeb6d7670e522a718067333cd4e906334a0dc1090604401600060405180830381600087803b158015611a6c57600080fd5b505af1158015611a80573d6000803e3d6000fd5b5050604051631761612360e11b81526001600160a01b03841660048201526daaeb6d7670e522a718067333cd4e9250632ec2c2469150602401611997565b600082815260086020526040902060010154611ad981613a22565b6110da8383613a2c565b611aeb613ab2565b600c546001600160a01b031615611b3c5760405162461bcd60e51b815260206004820152601560248201527414dc1b1a5d08185b1c9958591e4818dc99585d1959605a1b6044820152606401610f18565b600b80546001600160a01b0319166001600160a01b038816908117909155604051633b00fbc160e11b8152637601f78290611b8590889088908890889088903390600401615217565b6020604051808303816000875af1158015611ba4573d6000803e3d6000fd5b505050506040513d601f19601f82011682018060405250810190611bc89190615268565b600c80546001600160a01b0319166001600160a01b0392909216919091179055505050505050565b611bfb60003361297c565b611c175760405162461bcd60e51b8152600401610f18906150f8565b600e80546001600160a01b03909216600160601b026001600160601b03909216919091179055565b611c4a60003361297c565b611c665760405162461bcd60e51b8152600401610f18906150f8565b6012805460ff60a01b198116600160a01b9182900460ff1615909102179055565b6001600160a01b0381163314611cf75760405162461bcd60e51b815260206004820152602f60248201527f416363657373436f6e74726f6c3a2063616e206f6e6c792072656e6f756e636560448201526e103937b632b9903337b91039b2b63360891b6064820152608401610f18565b611d018282613b13565b5050565b600c546001600160a01b031615611d6a5760405162461bcd60e51b8152602060048201526024808201527f43616e6e6f74207769746864726177207769746820616e2061637469766520736044820152631c1b1a5d60e21b6064820152608401610f18565b600e54600090600160601b90046001600160a01b0316611d9b57600a546201000090046001600160a01b0316611daf565b600e54600160601b90046001600160a01b03165b90506000816001600160a01b03164760405160006040518083038185875af1925050503d8060008114611dfe576040519150601f19603f3d011682016040523d82523d6000602084013e611e03565b606091505b5050905080611d015760405162461bcd60e51b8152602060048201526012602482015271436f756c64206e6f7420776974686472617760701b6044820152606401610f18565b6009546000906001600160a01b031615801590611eb257506000600954600160f81b900460ff166002811115611e8157611e81614558565b1480611eb25750808015611eb257506001600954600160f81b900460ff166002811115611eb057611eb0614558565b145b80611ee3575080158015611ee357506002600954600160f81b900460ff166002811115611ee157611ee1614558565b145b15611faf576009546040516370a0823160e01b8152336004820152600160a01b82046001600160581b0316916001600160a01b0316906370a08231906024016020604051808303816000875af1158015611f41573d6000803e3d6000fd5b505050506040513d601f19601f82011682018060405250810190611f65919061511b565b1015611faf5760405162461bcd60e51b81526020600482015260196024820152783237903737ba1037bbb7103932b8bab4b932b2103a37b5b2b760391b6044820152606401610f18565b600054600d54600160901b900463ffffffff164210801590611fe05750600d54600160b01b900463ffffffff164211155b6120245760405162461bcd60e51b815260206004820152601560248201527429b0b632b99030b932903737ba1030b1ba34bb329760591b6044820152606401610f18565b601254600160a01b900460ff161561207e5760405162461bcd60e51b815260206004820152601b60248201527f53616c65206d7573742062652061637469766520746f206d696e7400000000006044820152606401610f18565b600d5462010000900463ffffffff16612097848361514a565b11156120b55760405162461bcd60e51b8152600401610f189061515d565b600d5462010000900463ffffffff168111156120fe5760405162461bcd60e51b815260206004820152600860248201526714d3d3110813d55560c21b6044820152606401610f18565b600e546121159084906001600160601b0316615192565b3410156121595760405162461bcd60e51b8152602060048201526012602482015271496e73756666696369656e742066756e647360701b6044820152606401610f18565b600d54600160301b900463ffffffff16156121cd57600d54600160301b900463ffffffff168311156121cd5760405162461bcd60e51b815260206004820152601c60248201527f4578636565646564206d6178206e756d62657220706572206d696e74000000006044820152606401610f18565b6121d784846138e5565b60005b8381101561222057604080516001600160a01b0387168152602081018490526001909301926000805160206156bd833981519152910160405180910390a16001016121da565b5050505050565b6110da83838360405180602001604052806000815250612fd1565b61224d60003361297c565b6122695760405162461bcd60e51b8152600401610f18906150f8565b6010611d0182826152cb565b6000610fea826138ff565b6010805461228d906150c4565b80601f01602080910402602001604051908101604052809291908181526020018280546122b9906150c4565b80156123065780601f106122db57610100808354040283529160200191612306565b820191906000526020600020905b8154815290600101906020018083116122e957829003601f168201915b505050505081565b61231960003361297c565b6123355760405162461bcd60e51b8152600401610f18906150f8565b600054600d5462010000900463ffffffff16612351838361514a565b1061236e5760405162461bcd60e51b8152600401610f189061515d565b60005b828110156110da5761239733612387838561514a565b61239290600161514a565b6138e5565b806123a1816151bf565b915050612371565b60006001600160a01b0382166123d2576040516323d3ad8160e21b815260040160405180910390fd5b506001600160a01b03166000908152600560205260409020546001600160401b031690565b6123ff613ab2565b6124096000613b7a565b565b600a54610100900460ff161580801561242b5750600a54600160ff909116105b806124455750303b1580156124455750600a5460ff166001145b6124615760405162461bcd60e51b8152600401610f189061538a565b600a805460ff19166001179055801561248457600a805461ff0019166101001790555b61248d87613b7a565b612498600088613a2c565b85516002906124a790826152cb565b5060208601516003906124ba90826152cb565b50600080556060850151601380546001600160a01b039283166001600160a01b031990911617905584516009805460208801516001600160581b0316600160a01b026001600160f81b0319909116929093169190911791909117808255604086015186929182906001600160f81b0316600160f81b83600281111561254157612541614558565b021790555090505081601460006101000a8154816001600160a01b0302191690836001600160a01b03160217905550604051806101800160405280876040015115158152602001876060015115158152602001876080015163ffffffff1681526020018760a0015163ffffffff1681526020018760c0015163ffffffff1681526020018760e0015163ffffffff16815260200187610100015163ffffffff16815260200187610120015163ffffffff16815260200187610140015161ffff1681526020018761016001516001600160601b031681526020018761018001516001600160a01b03168152602001876101a00151815250600d60008201518160000160006101000a81548160ff02191690831515021790555060208201518160000160016101000a81548160ff02191690831515021790555060408201518160000160026101000a81548163ffffffff021916908363ffffffff16021790555060608201518160000160066101000a81548163ffffffff021916908363ffffffff160217905550608082015181600001600a6101000a81548163ffffffff021916908363ffffffff16021790555060a082015181600001600e6101000a81548163ffffffff021916908363ffffffff16021790555060c08201518160000160126101000a81548163ffffffff021916908363ffffffff16021790555060e08201518160000160166101000a81548163ffffffff021916908363ffffffff16021790555061010082015181600001601a6101000a81548161ffff021916908361ffff1602179055506101208201518160010160006101000a8154816001600160601b0302191690836001600160601b0316021790555061014082015181600101600c6101000a8154816001600160a01b0302191690836001600160a01b03160217905550610160820151816002015590505060006001600160a01b0316836001600160a01b03161415801561281857506000856040015151115b1561289657601280546001600160a01b0319166001600160a01b03851690811790915560408681015190516342b53ffd60e11b815263856a7ffa9161285f9160040161445b565b600060405180830381600087803b15801561287957600080fd5b505af115801561288d573d6000803e3d6000fd5b505050506128ba565b84516011906128a590826152cb565b5060208501516010906128b890826152cb565b505b80156119c557600a805461ff0019169055604051600181527f7f26b83ff96e1f2b6a682f133852f6798a09c465da95921460cefb38474024989060200160405180910390a150505050505050565b600c546001600160a01b03166129305760405162461bcd60e51b8152600401610f1890614fb1565b811561293e5761293e613bd6565b60005b81518110156110da5761296c82828151811061295f5761295f6151a9565b60200260200101516135e8565b612975816151bf565b9050612941565b60009182526008602090815260408084206001600160a01b0393909316845291905290205460ff1690565b6129b260003361297c565b6129ce5760405162461bcd60e51b8152600401610f18906150f8565b6011611d0182826152cb565b606060038054610fff906150c4565b816129f381613776565b6110da8383613c79565b600a54610100900460ff1615808015612a1d5750600a54600160ff909116105b80612a375750303b158015612a375750600a5460ff166001145b612a535760405162461bcd60e51b8152600401610f189061538a565b600a805460ff191660011790558015612a7657600a805461ff0019166101001790555b612a7f86613b7a565b612a8a600087613a2c565b8451600290612a9990826152cb565b506020850151600390612aac90826152cb565b50600080556060840151601380546001600160a01b039283166001600160a01b031990911617905583516009805460208701516001600160581b0316600160a01b026001600160f81b0319909116929093169190911791909117808255604085015185929182906001600160f81b0316600160f81b836002811115612b3357612b33614558565b0217905550905050604051806101800160405280866040015115158152602001866060015115158152602001866080015163ffffffff1681526020018660a0015163ffffffff1681526020018660c0015163ffffffff1681526020018660e0015163ffffffff16815260200186610100015163ffffffff16815260200186610120015163ffffffff16815260200186610140015161ffff1681526020018661016001516001600160601b031681526020018661018001516001600160a01b03168152602001866101a00151815250600d60008201518160000160006101000a81548160ff02191690831515021790555060208201518160000160016101000a81548160ff02191690831515021790555060408201518160000160026101000a81548163ffffffff021916908363ffffffff16021790555060608201518160000160066101000a81548163ffffffff021916908363ffffffff160217905550608082015181600001600a6101000a81548163ffffffff021916908363ffffffff16021790555060a082015181600001600e6101000a81548163ffffffff021916908363ffffffff16021790555060c08201518160000160126101000a81548163ffffffff021916908363ffffffff16021790555060e08201518160000160166101000a81548163ffffffff021916908363ffffffff16021790555061010082015181600001601a6101000a81548161ffff021916908361ffff1602179055506101208201518160010160006101000a8154816001600160601b0302191690836001600160601b0316021790555061014082015181600101600c6101000a8154816001600160a01b0302191690836001600160a01b03160217905550610160820151816002015590505060006001600160a01b0316826001600160a01b031614158015612de357506000846040015151115b15612e6157601280546001600160a01b0319166001600160a01b03841690811790915560408581015190516342b53ffd60e11b815263856a7ffa91612e2a9160040161445b565b600060405180830381600087803b158015612e4457600080fd5b505af1158015612e58573d6000803e3d6000fd5b50505050612e85565b8351601190612e7090826152cb565b506020840151601090612e8390826152cb565b505b801561170657600a805461ff0019169055604051600181527f7f26b83ff96e1f2b6a682f133852f6798a09c465da95921460cefb38474024989060200160405180910390a1505050505050565b612edd60003361297c565b612ef95760405162461bcd60e51b8152600401610f18906150f8565b600d5460ff16612f595760405162461bcd60e51b815260206004820152602560248201527f63616e6e6f742061646a7573742073697a65206f66207468697320636f6c6c6560448201526431ba34b7b760d91b6064820152608401610f18565b8063ffffffff16612f6960005490565b1115612fad5760405162461bcd60e51b8152602060048201526013602482015272063616e6e6f742064656372656173652063617606c1b6044820152606401610f18565b600d805463ffffffff909216620100000265ffffffff000019909216919091179055565b612fdc848484611568565b6001600160a01b0383163b1561301557612ff884848484613d0e565b613015576040516368d2bf6b60e11b815260040160405180910390fd5b50505050565b6014546001600160a01b031633146130755760405162461bcd60e51b815260206004820152601860248201527f4f6e6c79207a6b56657269666965722063616e2063616c6c00000000000000006044820152606401610f18565b600054600d5462010000900463ffffffff1661309282600161514a565b11156130b05760405162461bcd60e51b8152600401610f189061515d565b6130bb8260016138e5565b604080516001600160a01b0384168152602081018390526000805160206156bd833981519152910160405180910390a15050565b600c546001600160a01b03166131175760405162461bcd60e51b8152600401610f1890614fb1565b61311f613bd6565b600b54600c5460405163730e582f60e11b81526001600160a01b039283169263e61cb05e9261315f929116908a908a908a908a908a908a906004016153d8565b600060405180830381600087803b15801561317957600080fd5b505af115801561318d573d6000803e3d6000fd5b50505050505050505050565b6131a1613ab2565b601480546001600160a01b0319166001600160a01b0392909216919091179055565b6131ce60003361297c565b6131ea5760405162461bcd60e51b8152600401610f18906150f8565b600054600d54819062010000900463ffffffff16613208848361514a565b11156132265760405162461bcd60e51b8152600401610f189061515d565b8183015b80831015612220576132658585848603818110613249576132496151a9565b905060200201602081019061325e91906148ef565b60016138e5565b6000805160206156bd8339815191528585848603818110613288576132886151a9565b905060200201602081019061329d91906148ef565b604080516001600160a01b039092168252602082018690520160405180910390a160019092019161322a565b60606132d48261374f565b6132f157604051630a14c4b560e41b815260040160405180910390fd5b6012546001600160a01b0316156133735760125460405163c87b56dd60e01b8152600481018490526001600160a01b039091169063c87b56dd90602401600060405180830381865afa15801561334b573d6000803e3d6000fd5b505050506040513d6000823e601f3d908101601f19168201604052610fea9190810190615431565b610fea82613dfa565b60008281526008602052604090206001015461339781613a22565b6110da8383613b13565b6012546060906001600160a01b03166133c15760118054610fff906150c4565b601260009054906101000a90046001600160a01b03166001600160a01b031663e8a3d4856040518163ffffffff1660e01b8152600401600060405180830381865afa158015613414573d6000803e3d6000fd5b505050506040513d6000823e601f3d908101601f1916820160405261343c9190810190615431565b905090565b600d54600090600160901b900463ffffffff1642108015906134725750600d54600160b01b900463ffffffff164211155b801561343c575050601254600160a01b900460ff161590565b61349660003361297c565b6134b25760405162461bcd60e51b8152600401610f18906150f8565b600d805467ffffffffffffffff60501b1916600160501b63ffffffff9485160263ffffffff60701b191617600160701b9290931691909102919091179055565b6134fa613ab2565b6001600160a01b03811661355f5760405162461bcd60e51b815260206004820152602660248201527f4f776e61626c653a206e6577206f776e657220697320746865207a65726f206160448201526564647265737360d01b6064820152608401610f18565b61356881613b7a565b50565b61357660003361297c565b6135925760405162461bcd60e51b8152600401610f18906150f8565b601280546001600160a01b0319166001600160a01b0392909216919091179055565b6135bf60003361297c565b6135db5760405162461bcd60e51b8152600401610f18906150f8565b8060096110da82826154a7565b6040516370a0823160e01b81523060048201526000906001600160a01b038316906370a0823190602401602060405180830381865afa15801561362f573d6000803e3d6000fd5b505050506040513d601f19601f82011682018060405250810190613653919061511b565b600c5460405163a9059cbb60e01b81526001600160a01b0391821660048201526024810183905291925083169063a9059cbb906044016020604051808303816000875af11580156136a8573d6000803e3d6000fd5b505050506040513d601f19601f820116820180604052508101906110da91906151fa565b60006001600160e01b03198216637965db0b60e01b1480610fea57506301ffc9a760e01b6001600160e01b0319831614610fea565b60006301ffc9a760e01b6001600160e01b03198316148061373257506380ac58cd60e01b6001600160e01b03198316145b80610fea5750506001600160e01b031916635b5e139f60e01b1490565b6000805482108015610fea575050600090815260046020526040902054600160e01b161590565b6daaeb6d7670e522a718067333cd4e3b1561356857604051633185c44d60e21b81523060048201526001600160a01b03821660248201526daaeb6d7670e522a718067333cd4e9063c617113490604401602060405180830381865afa1580156137e3573d6000803e3d6000fd5b505050506040513d601f19601f8201168201806040525081019061380791906151fa565b61356857604051633b79c77360e21b81526001600160a01b0382166004820152602401610f18565b600061383a82612275565b9050336001600160a01b03821614613873576138568133610dcf565b613873576040516367d9dca160e11b815260040160405180910390fd5b60008281526006602052604080822080546001600160a01b0319166001600160a01b0387811691821790925591518593918516917f8c5be1e5ebec7d5bd14f71427d1e84f3dd0314c0f7b2291e5b200ac8c7c3b92591a4505050565b6000826138dc8584613e7d565b14949350505050565b611d01828260405180602001604052806000815250613eca565b6000816000548110156139545760008181526004602052604081205490600160e01b82169003613952575b8060000361394b57506000190160008181526004602052604090205461392a565b9392505050565b505b604051636f96cda160e11b815260040160405180910390fd5b836001600160a01b03811633146139875761398733613776565b600d54610100900460ff1615806139b657506001600160a01b03851615806139b657506001600160a01b038416155b6122205760405162461bcd60e51b81526020600482015260096024820152681cdbdd5b189bdd5b9960ba1b6044820152606401610f18565b600b54604051636e5f691960e01b81526001600160a01b0390911690636e5f69199061199790869086908690600401615544565b6135688133613f30565b613a36828261297c565b611d015760008281526008602090815260408083206001600160a01b03851684529091529020805460ff19166001179055613a6e3390565b6001600160a01b0316816001600160a01b0316837f2f8788117e7eff1d82e926ec794901d17c78024a50270940304540a733656f0d60405160405180910390a45050565b600a546001600160a01b03620100009091041633146124095760405162461bcd60e51b815260206004820181905260248201527f4f776e61626c653a2063616c6c6572206973206e6f7420746865206f776e65726044820152606401610f18565b613b1d828261297c565b15611d015760008281526008602090815260408083206001600160a01b0385168085529252808320805460ff1916905551339285917ff6391f5c32d9c69d2a47ea670b442974b53935d1edc7fd64eb21e047a839171b9190a45050565b600a80546001600160a01b038381166201000081810262010000600160b01b031985161790945560405193909204169182907f8be0079c531659141344cd1fd0a4f28419497f9722a3daafe3b4186f6b6457e090600090a35050565b600c546040516000916001600160a01b03169047908381818185875af1925050503d8060008114613c23576040519150601f19603f3d011682016040523d82523d6000602084013e613c28565b606091505b50509050806135685760405162461bcd60e51b815260206004820152601f60248201527f436f756c64206e6f74207472616e736665722045544820746f2073706c6974006044820152606401610f18565b336001600160a01b03831603613ca25760405163b06307db60e01b815260040160405180910390fd5b3360008181526007602090815260408083206001600160a01b03871680855290835292819020805460ff191686151590811790915590519081529192917f17307eab39ab6107e8899845ad3d59bd9653f200f220920489ca2b5937696c31910160405180910390a35050565b604051630a85bd0160e11b81526000906001600160a01b0385169063150b7a0290613d439033908990889088906004016155a7565b6020604051808303816000875af1925050508015613d7e575060408051601f3d908101601f19168201909252613d7b918101906155e4565b60015b613ddc573d808015613dac576040519150601f19603f3d011682016040523d82523d6000602084013e613db1565b606091505b508051600003613dd4576040516368d2bf6b60e11b815260040160405180910390fd5b805181602001fd5b6001600160e01b031916630a85bd0160e11b1490505b949350505050565b6060613e058261374f565b613e2257604051630a14c4b560e41b815260040160405180910390fd5b6000613e2c613f89565b90508051600003613e4c576040518060200160405280600081525061394b565b80613e5684613f98565b604051602001613e67929190615601565b6040516020818303038152906040529392505050565b600081815b8451811015613ec257613eae82868381518110613ea157613ea16151a9565b6020026020010151613fd0565b915080613eba816151bf565b915050613e82565b509392505050565b613ed48383613ffc565b6001600160a01b0383163b156110da576000548281035b613efe6000868380600101945086613d0e565b613f1b576040516368d2bf6b60e11b815260040160405180910390fd5b818110613eeb57816000541461222057600080fd5b613f3a828261297c565b611d0157613f4781614107565b613f52836020614119565b604051602001613f63929190615630565b60408051601f198184030181529082905262461bcd60e51b8252610f189160040161445b565b606060108054610fff906150c4565b604080516080019081905280825b600183039250600a81066030018353600a900480613fa65750819003601f19909101908152919050565b6000818310613fec57600082815260208490526040902061394b565b5060009182526020526040902090565b60008054908290036140215760405163b562e8dd60e01b815260040160405180910390fd5b61402e600084838561396d565b6001600160a01b03831660008181526005602090815260408083208054680100000000000000018802019055848352600490915281206001851460e11b4260a01b178317905582840190839083907fddf252ad1be2c89b69c2b068fc378daa952ba7f163c4a11628f55a4df523b3ef8180a4600183015b8181146140dd57808360007fddf252ad1be2c89b69c2b068fc378daa952ba7f163c4a11628f55a4df523b3ef600080a46001016140a5565b50816000036140fe57604051622e076360e81b815260040160405180910390fd5b60005550505050565b6060610fea6001600160a01b03831660145b60606000614128836002615192565b61413390600261514a565b6001600160401b0381111561414a5761414a6145fa565b6040519080825280601f01601f191660200182016040528015614174576020820181803683370190505b509050600360fc1b8160008151811061418f5761418f6151a9565b60200101906001600160f81b031916908160001a905350600f60fb1b816001815181106141be576141be6151a9565b60200101906001600160f81b031916908160001a90535060006141e2846002615192565b6141ed90600161514a565b90505b6001811115614265576f181899199a1a9b1b9c1cb0b131b232b360811b85600f1660108110614221576142216151a9565b1a60f81b828281518110614237576142376151a9565b60200101906001600160f81b031916908160001a90535060049490941c9361425e816156a5565b90506141f0565b50831561394b5760405162461bcd60e51b815260206004820181905260248201527f537472696e67733a20686578206c656e67746820696e73756666696369656e746044820152606401610f18565b6001600160a01b038116811461356857600080fd5b60008083601f8401126142db57600080fd5b5081356001600160401b038111156142f257600080fd5b6020830191508360208260051b85010111156118aa57600080fd5b803563ffffffff8116811461432157600080fd5b919050565b8035614321816142b4565b600080600080600080600060a0888a03121561434c57600080fd5b8735614357816142b4565b965060208801356001600160401b038082111561437357600080fd5b61437f8b838c016142c9565b909850965060408a013591508082111561439857600080fd5b506143a58a828b016142c9565b90955093506143b890506060890161430d565b915060808801356143c8816142b4565b8091505092959891949750929550565b6001600160e01b03198116811461356857600080fd5b60006020828403121561440057600080fd5b813561394b816143d8565b60005b8381101561442657818101518382015260200161440e565b50506000910152565b6000815180845261444781602086016020860161440b565b601f01601f19169290920160200192915050565b60208152600061394b602083018461442f565b60006020828403121561448057600080fd5b5035919050565b6000806040838503121561449a57600080fd5b82356144a5816142b4565b946020939093013593505050565b600080604083850312156144c657600080fd5b6144cf8361430d565b91506144dd6020840161430d565b90509250929050565b60008060008060008060a087890312156144ff57600080fd5b863561450a816142b4565b955060208701359450604087013593506060870135925060808701356001600160401b0381111561453a57600080fd5b61454689828a016142c9565b979a9699509497509295939492505050565b634e487b7160e01b600052602160045260246000fd5b6001600160a01b03841681526001600160581b038316602082015260608101600383106145ab57634e487b7160e01b600052602160045260246000fd5b826040830152949350505050565b6000806000606084860312156145ce57600080fd5b83356145d9816142b4565b925060208401356145e9816142b4565b929592945050506040919091013590565b634e487b7160e01b600052604160045260246000fd5b6040516101c081016001600160401b0381118282101715614633576146336145fa565b60405290565b604051601f8201601f191681016001600160401b0381118282101715614661576146616145fa565b604052919050565b600082601f83011261467a57600080fd5b813560206001600160401b03821115614695576146956145fa565b8160051b6146a4828201614639565b92835284810182019282810190878511156146be57600080fd5b83870192505b848310156146e65782356146d7816142b4565b825291830191908301906146c4565b979650505050505050565b600080600080600080600080600060e08a8c03121561470f57600080fd5b893561471a816142b4565b985060208a0135975060408a01356001600160401b038082111561473d57600080fd5b6147498d838e01614669565b985060608c013591508082111561475f57600080fd5b61476b8d838e016142c9565b909850965060808c013591508082111561478457600080fd5b506147918c828d016142c9565b90955093506147a4905060a08b0161430d565b915060c08a01356147b4816142b4565b809150509295985092959850929598565b600080604083850312156147d857600080fd5b50508035926020909101359150565b801515811461356857600080fd5b8035614321816147e7565b6000806040838503121561481357600080fd5b823561481e816147e7565b9150602083013561482e816142b4565b809150509250929050565b6000806040838503121561484c57600080fd5b82359150602083013561482e816142b4565b6000806000806000806080878903121561487757600080fd5b8635614882816142b4565b955060208701356001600160401b038082111561489e57600080fd5b6148aa8a838b016142c9565b909750955060408901359150808211156148c357600080fd5b506148d089828a016142c9565b90945092506148e390506060880161430d565b90509295509295509295565b60006020828403121561490157600080fd5b813561394b816142b4565b60006001600160401b03821115614925576149256145fa565b50601f01601f191660200190565b600082601f83011261494457600080fd5b81356149576149528261490c565b614639565b81815284602083860101111561496c57600080fd5b816020850160208301376000918101602001919091529392505050565b60006020828403121561499b57600080fd5b81356001600160401b038111156149b157600080fd5b613df284828501614933565b803561ffff8116811461432157600080fd5b80356001600160601b038116811461432157600080fd5b60006101c082840312156149f957600080fd5b614a01614610565b905081356001600160401b0380821115614a1a57600080fd5b614a2685838601614933565b83526020840135915080821115614a3c57600080fd5b50614a4984828501614933565b602083015250614a5b604083016147f5565b6040820152614a6c606083016147f5565b6060820152614a7d6080830161430d565b6080820152614a8e60a0830161430d565b60a0820152614a9f60c0830161430d565b60c0820152614ab060e0830161430d565b60e0820152610100614ac381840161430d565b90820152610120614ad583820161430d565b90820152610140614ae78382016149bd565b90820152610160614af98382016149cf565b90820152610180614b0b838201614326565b81830152506101a080830135818301525092915050565b600060808284031215614b3457600080fd5b604051608081016001600160401b038282108183111715614b5757614b576145fa565b816040528293508435915080821115614b6f57600080fd5b614b7b86838701614933565b83526020850135915080821115614b9157600080fd5b614b9d86838701614933565b60208401526040850135915080821115614bb657600080fd5b50614bc385828601614933565b6040830152506060830135614bd7816142b4565b6060919091015292915050565b6001600160581b038116811461356857600080fd5b6003811061356857600080fd5b600060608284031215614c1857600080fd5b604051606081018181106001600160401b0382111715614c3a57614c3a6145fa565b6040529050808235614c4b816142b4565b81526020830135614c5b81614be4565b60208201526040830135614c6e81614bf9565b6040919091015292915050565b6000806000806000806101008789031215614c9557600080fd5b8635614ca0816142b4565b955060208701356001600160401b0380821115614cbc57600080fd5b614cc88a838b016149e6565b96506040890135915080821115614cde57600080fd5b50614ceb89828a01614b22565b945050614cfb8860608901614c06565b925060c0870135614d0b816142b4565b915060e0870135614d1b816142b4565b809150509295509295509295565b60008060408385031215614d3c57600080fd5b8235915060208301356001600160401b03811115614d5957600080fd5b6118a685828601614669565b60008060408385031215614d7857600080fd5b8235614d83816142b4565b9150602083013561482e816147e7565b600080600080600060e08688031215614dab57600080fd5b8535614db6816142b4565b945060208601356001600160401b0380821115614dd257600080fd5b614dde89838a016149e6565b95506040880135915080821115614df457600080fd5b50614e0188828901614b22565b935050614e118760608801614c06565b915060c0860135614e21816142b4565b809150509295509295909350565b600060208284031215614e4157600080fd5b61394b8261430d565b60008060008060808587031215614e6057600080fd5b8435614e6b816142b4565b93506020850135614e7b816142b4565b92506040850135915060608501356001600160401b03811115614e9d57600080fd5b614ea987828801614933565b91505092959194509250565b60008060008060008060808789031215614ece57600080fd5b86356001600160401b0380821115614ee557600080fd5b614ef18a838b016142c9565b90985096506020890135915080821115614f0a57600080fd5b50614f1789828a016142c9565b9095509350614f2a90506040880161430d565b91506060870135614d1b816142b4565b60008060208385031215614f4d57600080fd5b82356001600160401b03811115614f6357600080fd5b614f6f858286016142c9565b90969095509350505050565b60008060408385031215614f8e57600080fd5b823561481e816142b4565b600060608284031215614fab57600080fd5b50919050565b60208082526015908201527414dc1b1a5d081b9bdd0818dc99585d1959081e595d605a1b604082015260600190565b8183526000602080850194508260005b8581101561501e578135615003816142b4565b6001600160a01b031687529582019590820190600101614ff0565b509495945050505050565b8183526000602080850194508260005b8581101561501e5763ffffffff61504f8361430d565b1687529582019590820190600101615039565b600060018060a01b03808b168352808a16602084015260c0604084015261508d60c08401898b614fe0565b83810360608501526150a081888a615029565b63ffffffff969096166080850152509290921660a090910152509695505050505050565b600181811c908216806150d857607f821691505b602082108103614fab57634e487b7160e01b600052602260045260246000fd5b60208082526009908201526837b7363ca0b236b4b760b91b604082015260600190565b60006020828403121561512d57600080fd5b5051919050565b634e487b7160e01b600052601160045260246000fd5b80820180821115610fea57610fea615134565b6020808252818101527f507572636861736520776f756c6420657863656564206d617820737570706c79604082015260600190565b8082028115828204841417610fea57610fea615134565b634e487b7160e01b600052603260045260246000fd5b6000600182016151d1576151d1615134565b5060010190565b6000826151f557634e487b7160e01b600052601260045260246000fd5b500490565b60006020828403121561520c57600080fd5b815161394b816147e7565b60808152600061522b60808301888a614fe0565b828103602084015261523e818789615029565b63ffffffff95909516604084015250506001600160a01b0391909116606090910152949350505050565b60006020828403121561527a57600080fd5b815161394b816142b4565b601f8211156110da57600081815260208120601f850160051c810160208610156152ac5750805b601f850160051c820191505b81811015611706578281556001016152b8565b81516001600160401b038111156152e4576152e46145fa565b6152f8816152f284546150c4565b84615285565b602080601f83116001811461532d57600084156153155750858301515b600019600386901b1c1916600185901b178555611706565b600085815260208120601f198616915b8281101561535c5788860151825594840194600190910190840161533d565b508582101561537a5787850151600019600388901b60f8161c191681555b5050505050600190811b01905550565b6020808252602e908201527f496e697469616c697a61626c653a20636f6e747261637420697320616c72656160408201526d191e481a5b9a5d1a585b1a5e995960921b606082015260800190565b600060018060a01b03808a16835260a060208401526153fb60a08401898b614fe0565b838103604085015261540e81888a615029565b63ffffffff96909616606085015250929092166080909101525095945050505050565b60006020828403121561544357600080fd5b81516001600160401b0381111561545957600080fd5b8201601f8101841361546a57600080fd5b80516154786149528261490c565b81815285602083850101111561548d57600080fd5b61549e82602083016020860161440b565b95945050505050565b81356154b2816142b4565b81546001600160a01b031981166001600160a01b0392909216918217835560208401356154de81614be4565b6affffffffffffffffffffff60a01b60a09190911b166001600160f81b031991821683178117845560408501359161551583614bf9565b6003831061553357634e487b7160e01b600052602160045260246000fd5b921760f89190911b90911617905550565b6001600160a01b038481168252602080830185905260606040840181905284519084018190526000928583019290916080860190855b8181101561559857855185168352948301949183019160010161557a565b50909998505050505050505050565b6001600160a01b03858116825284166020820152604081018390526080606082018190526000906155da9083018461442f565b9695505050505050565b6000602082840312156155f657600080fd5b815161394b816143d8565b6000835161561381846020880161440b565b83519083019061562781836020880161440b565b01949350505050565b7f416363657373436f6e74726f6c3a206163636f756e742000000000000000000081526000835161566881601785016020880161440b565b7001034b99036b4b9b9b4b733903937b6329607d1b601791840191820152835161569981602884016020880161440b565b01602801949350505050565b6000816156b4576156b4615134565b50600019019056fe30385c845b448a36257a6a1716e6ad2e1bc2cbe333cde1e69fe849ad6511adfea264697066735822122056623b7c22457b1f686483c8776b4109827992b80f7663a59fa818134ea5ada464736f6c63430008110033",
  "linkReferences": {},
  "deployedLinkReferences": {}
}