{
  "_format": "hh-sol-artifact-1",
  "contractName": "ZKEdition",
  "sourceName": "contracts/ZKEdition.sol",
  "abi": [
    {
      "inputs": [],
      "name": "ApprovalCallerNotOwnerNorApproved",
      "type": "error"
    },
    {
      "inputs": [],
      "name": "ApprovalQueryForNonexistentToken",
      "type": "error"
    },
    {
      "inputs": [],
      "name": "ApproveToCaller",
      "type": "error"
    },
    {
      "inputs": [],
      "name": "BalanceQueryForZeroAddress",
      "type": "error"
    },
    {
      "inputs": [],
      "name": "MintERC2309QuantityExceedsLimit",
      "type": "error"
    },
    {
      "inputs": [],
      "name": "MintToZeroAddress",
      "type": "error"
    },
    {
      "inputs": [],
      "name": "MintZeroQuantity",
      "type": "error"
    },
    {
      "inputs": [],
      "name": "OwnerQueryForNonexistentToken",
      "type": "error"
    },
    {
      "inputs": [],
      "name": "OwnershipNotInitializedForExtraData",
      "type": "error"
    },
    {
      "inputs": [],
      "name": "TransferCallerNotOwnerNorApproved",
      "type": "error"
    },
    {
      "inputs": [],
      "name": "TransferFromIncorrectOwner",
      "type": "error"
    },
    {
      "inputs": [],
      "name": "TransferToNonERC721ReceiverImplementer",
      "type": "error"
    },
    {
      "inputs": [],
      "name": "TransferToZeroAddress",
      "type": "error"
    },
    {
      "inputs": [],
      "name": "URIQueryForNonexistentToken",
      "type": "error"
    },
    {
      "anonymous": false,
      "inputs": [
        {
          "indexed": true,
          "internalType": "address",
          "name": "owner",
          "type": "address"
        },
        {
          "indexed": true,
          "internalType": "address",
          "name": "approved",
          "type": "address"
        },
        {
          "indexed": true,
          "internalType": "uint256",
          "name": "tokenId",
          "type": "uint256"
        }
      ],
      "name": "Approval",
      "type": "event"
    },
    {
      "anonymous": false,
      "inputs": [
        {
          "indexed": true,
          "internalType": "address",
          "name": "owner",
          "type": "address"
        },
        {
          "indexed": true,
          "internalType": "address",
          "name": "operator",
          "type": "address"
        },
        {
          "indexed": false,
          "internalType": "bool",
          "name": "approved",
          "type": "bool"
        }
      ],
      "name": "ApprovalForAll",
      "type": "event"
    },
    {
      "anonymous": false,
      "inputs": [
        {
          "indexed": true,
          "internalType": "uint256",
          "name": "fromTokenId",
          "type": "uint256"
        },
        {
          "indexed": false,
          "internalType": "uint256",
          "name": "toTokenId",
          "type": "uint256"
        },
        {
          "indexed": true,
          "internalType": "address",
          "name": "from",
          "type": "address"
        },
        {
          "indexed": true,
          "internalType": "address",
          "name": "to",
          "type": "address"
        }
      ],
      "name": "ConsecutiveTransfer",
      "type": "event"
    },
    {
      "anonymous": false,
      "inputs": [
        {
          "indexed": false,
          "internalType": "uint8",
          "name": "version",
          "type": "uint8"
        }
      ],
      "name": "Initialized",
      "type": "event"
    },
    {
      "anonymous": false,
      "inputs": [
        {
          "indexed": false,
          "internalType": "address",
          "name": "sender",
          "type": "address"
        },
        {
          "indexed": false,
          "internalType": "uint256",
          "name": "tokenId_",
          "type": "uint256"
        }
      ],
      "name": "Minted",
      "type": "event"
    },
    {
      "anonymous": false,
      "inputs": [
        {
          "indexed": true,
          "internalType": "address",
          "name": "previousOwner",
          "type": "address"
        },
        {
          "indexed": true,
          "internalType": "address",
          "name": "newOwner",
          "type": "address"
        }
      ],
      "name": "OwnershipTransferred",
      "type": "event"
    },
    {
      "anonymous": false,
      "inputs": [
        {
          "indexed": true,
          "internalType": "address",
          "name": "from",
          "type": "address"
        },
        {
          "indexed": true,
          "internalType": "address",
          "name": "to",
          "type": "address"
        },
        {
          "indexed": true,
          "internalType": "uint256",
          "name": "tokenId",
          "type": "uint256"
        }
      ],
      "name": "Transfer",
      "type": "event"
    },
    {
      "inputs": [],
      "name": "MAX_TOKENS",
      "outputs": [
        {
          "internalType": "uint256",
          "name": "",
          "type": "uint256"
        }
      ],
      "stateMutability": "view",
      "type": "function"
    },
    {
      "inputs": [
        {
          "internalType": "uint256",
          "name": "newCap",
          "type": "uint256"
        }
      ],
      "name": "adjustCap",
      "outputs": [],
      "stateMutability": "nonpayable",
      "type": "function"
    },
    {
      "inputs": [
        {
          "internalType": "address",
          "name": "to",
          "type": "address"
        },
        {
          "internalType": "uint256",
          "name": "tokenId",
          "type": "uint256"
        }
      ],
      "name": "approve",
      "outputs": [],
      "stateMutability": "nonpayable",
      "type": "function"
    },
    {
      "inputs": [
        {
          "internalType": "address",
          "name": "owner",
          "type": "address"
        }
      ],
      "name": "balanceOf",
      "outputs": [
        {
          "internalType": "uint256",
          "name": "",
          "type": "uint256"
        }
      ],
      "stateMutability": "view",
      "type": "function"
    },
    {
      "inputs": [],
      "name": "baseURI",
      "outputs": [
        {
          "internalType": "string",
          "name": "",
          "type": "string"
        }
      ],
      "stateMutability": "view",
      "type": "function"
    },
    {
      "inputs": [],
      "name": "contractURI",
      "outputs": [
        {
          "internalType": "string",
          "name": "",
          "type": "string"
        }
      ],
      "stateMutability": "view",
      "type": "function"
    },
    {
      "inputs": [
        {
          "internalType": "address[]",
          "name": "accounts",
          "type": "address[]"
        },
        {
          "internalType": "uint32[]",
          "name": "percentAllocations",
          "type": "uint32[]"
        },
        {
          "internalType": "uint32",
          "name": "distributorFee",
          "type": "uint32"
        }
      ],
      "name": "createSplit",
      "outputs": [],
      "stateMutability": "nonpayable",
      "type": "function"
    },
    {
      "inputs": [
        {
          "internalType": "address",
          "name": "account",
          "type": "address"
        },
        {
          "internalType": "uint256",
          "name": "withdrawETH",
          "type": "uint256"
        },
        {
          "internalType": "contract ERC20[]",
          "name": "tokens",
          "type": "address[]"
        },
        {
          "internalType": "address[]",
          "name": "accounts",
          "type": "address[]"
        },
        {
          "internalType": "uint32[]",
          "name": "percentAllocations",
          "type": "uint32[]"
        },
        {
          "internalType": "uint32",
          "name": "distributorFee",
          "type": "uint32"
        },
        {
          "internalType": "address",
          "name": "distributorAddress",
          "type": "address"
        }
      ],
      "name": "distributeAndWithdraw",
      "outputs": [],
      "stateMutability": "nonpayable",
      "type": "function"
    },
    {
      "inputs": [
        {
          "internalType": "contract ERC20",
          "name": "token",
          "type": "address"
        },
        {
          "internalType": "address[]",
          "name": "accounts",
          "type": "address[]"
        },
        {
          "internalType": "uint32[]",
          "name": "percentAllocations",
          "type": "uint32[]"
        },
        {
          "internalType": "uint32",
          "name": "distributorFee",
          "type": "uint32"
        },
        {
          "internalType": "address",
          "name": "distributorAddress",
          "type": "address"
        }
      ],
      "name": "distributeERC20",
      "outputs": [],
      "stateMutability": "nonpayable",
      "type": "function"
    },
    {
      "inputs": [
        {
          "internalType": "address[]",
          "name": "accounts",
          "type": "address[]"
        },
        {
          "internalType": "uint32[]",
          "name": "percentAllocations",
          "type": "uint32[]"
        },
        {
          "internalType": "uint32",
          "name": "distributorFee",
          "type": "uint32"
        },
        {
          "internalType": "address",
          "name": "distributorAddress",
          "type": "address"
        }
      ],
      "name": "distributeETH",
      "outputs": [],
      "stateMutability": "nonpayable",
      "type": "function"
    },
    {
      "inputs": [],
      "name": "flipSaleState",
      "outputs": [],
      "stateMutability": "nonpayable",
      "type": "function"
    },
    {
      "inputs": [
        {
          "internalType": "uint256",
          "name": "tokenId",
          "type": "uint256"
        }
      ],
      "name": "getApproved",
      "outputs": [
        {
          "internalType": "address",
          "name": "",
          "type": "address"
        }
      ],
      "stateMutability": "view",
      "type": "function"
    },
    {
      "inputs": [],
      "name": "hasAdjustableCap",
      "outputs": [
        {
          "internalType": "bool",
          "name": "",
          "type": "bool"
        }
      ],
      "stateMutability": "view",
      "type": "function"
    },
    {
      "inputs": [
        {
          "internalType": "address",
          "name": "_owner",
          "type": "address"
        },
        {
          "components": [
            {
              "internalType": "string",
              "name": "name",
              "type": "string"
            },
            {
              "internalType": "string",
              "name": "symbol",
              "type": "string"
            },
            {
              "internalType": "bool",
              "name": "hasAdjustableCap",
              "type": "bool"
            },
            {
              "internalType": "uint256",
              "name": "maxTokens",
              "type": "uint256"
            },
            {
              "internalType": "uint256",
              "name": "tokenPrice",
              "type": "uint256"
            },
            {
              "internalType": "uint256",
              "name": "maxTokenPurchase",
              "type": "uint256"
            },
            {
              "internalType": "bytes32",
              "name": "presaleMerkleRoot",
              "type": "bytes32"
            },
            {
              "internalType": "uint256",
              "name": "presaleStart",
              "type": "uint256"
            },
            {
              "internalType": "uint256",
              "name": "presaleEnd",
              "type": "uint256"
            },
            {
              "internalType": "uint256",
              "name": "saleStart",
              "type": "uint256"
            },
            {
              "internalType": "uint256",
              "name": "saleEnd",
              "type": "uint256"
            },
            {
              "internalType": "uint256",
              "name": "royaltyBPS",
              "type": "uint256"
            }
          ],
          "internalType": "struct EditionConfig",
          "name": "_editionConfig",
          "type": "tuple"
        },
        {
          "components": [
            {
              "internalType": "string",
              "name": "contractURI",
              "type": "string"
            },
            {
              "internalType": "string",
              "name": "metadataURI",
              "type": "string"
            },
            {
              "internalType": "bytes",
              "name": "metadataRendererInit",
              "type": "bytes"
            },
            {
              "internalType": "address",
              "name": "parentIP",
              "type": "address"
            }
          ],
          "internalType": "struct MetadataConfig",
          "name": "_metadataConfig",
          "type": "tuple"
        },
        {
          "components": [
            {
              "internalType": "address",
              "name": "tokenAddress",
              "type": "address"
            },
            {
              "internalType": "uint88",
              "name": "minBalance",
              "type": "uint88"
            },
            {
              "internalType": "enum SaleType",
              "name": "saleType",
              "type": "uint8"
            }
          ],
          "internalType": "struct TokenGateConfig",
          "name": "_tokenGateConfig",
          "type": "tuple"
        },
        {
          "internalType": "address",
          "name": "_metadataRenderer",
          "type": "address"
        },
        {
          "internalType": "address",
          "name": "_splitMain",
          "type": "address"
        }
      ],
      "name": "initialize",
      "outputs": [],
      "stateMutability": "nonpayable",
      "type": "function"
    },
    {
      "inputs": [
        {
          "internalType": "address",
          "name": "_owner",
          "type": "address"
        },
        {
          "components": [
            {
              "internalType": "string",
              "name": "name",
              "type": "string"
            },
            {
              "internalType": "string",
              "name": "symbol",
              "type": "string"
            },
            {
              "internalType": "bool",
              "name": "hasAdjustableCap",
              "type": "bool"
            },
            {
              "internalType": "uint256",
              "name": "maxTokens",
              "type": "uint256"
            },
            {
              "internalType": "uint256",
              "name": "tokenPrice",
              "type": "uint256"
            },
            {
              "internalType": "uint256",
              "name": "maxTokenPurchase",
              "type": "uint256"
            },
            {
              "internalType": "bytes32",
              "name": "presaleMerkleRoot",
              "type": "bytes32"
            },
            {
              "internalType": "uint256",
              "name": "presaleStart",
              "type": "uint256"
            },
            {
              "internalType": "uint256",
              "name": "presaleEnd",
              "type": "uint256"
            },
            {
              "internalType": "uint256",
              "name": "saleStart",
              "type": "uint256"
            },
            {
              "internalType": "uint256",
              "name": "saleEnd",
              "type": "uint256"
            },
            {
              "internalType": "uint256",
              "name": "royaltyBPS",
              "type": "uint256"
            }
          ],
          "internalType": "struct EditionConfig",
          "name": "_editionConfig",
          "type": "tuple"
        },
        {
          "components": [
            {
              "internalType": "string",
              "name": "contractURI",
              "type": "string"
            },
            {
              "internalType": "string",
              "name": "metadataURI",
              "type": "string"
            },
            {
              "internalType": "bytes",
              "name": "metadataRendererInit",
              "type": "bytes"
            },
            {
              "internalType": "address",
              "name": "parentIP",
              "type": "address"
            }
          ],
          "internalType": "struct MetadataConfig",
          "name": "_metadataConfig",
          "type": "tuple"
        },
        {
          "components": [
            {
              "internalType": "address",
              "name": "tokenAddress",
              "type": "address"
            },
            {
              "internalType": "uint88",
              "name": "minBalance",
              "type": "uint88"
            },
            {
              "internalType": "enum SaleType",
              "name": "saleType",
              "type": "uint8"
            }
          ],
          "internalType": "struct TokenGateConfig",
          "name": "_tokenGateConfig",
          "type": "tuple"
        },
        {
          "internalType": "address",
          "name": "_metadataRenderer",
          "type": "address"
        },
        {
          "internalType": "address",
          "name": "_splitMain",
          "type": "address"
        },
        {
          "internalType": "address",
          "name": "_zkVerifier",
          "type": "address"
        }
      ],
      "name": "initialize",
      "outputs": [],
      "stateMutability": "nonpayable",
      "type": "function"
    },
    {
      "inputs": [
        {
          "internalType": "address",
          "name": "owner",
          "type": "address"
        },
        {
          "internalType": "address",
          "name": "operator",
          "type": "address"
        }
      ],
      "name": "isApprovedForAll",
      "outputs": [
        {
          "internalType": "bool",
          "name": "",
          "type": "bool"
        }
      ],
      "stateMutability": "view",
      "type": "function"
    },
    {
      "inputs": [],
      "name": "maxTokenPurchase",
      "outputs": [
        {
          "internalType": "uint256",
          "name": "",
          "type": "uint256"
        }
      ],
      "stateMutability": "view",
      "type": "function"
    },
    {
      "inputs": [],
      "name": "metadataRenderer",
      "outputs": [
        {
          "internalType": "address",
          "name": "",
          "type": "address"
        }
      ],
      "stateMutability": "view",
      "type": "function"
    },
    {
      "inputs": [
        {
          "internalType": "uint256",
          "name": "numberOfTokens",
          "type": "uint256"
        }
      ],
      "name": "mint",
      "outputs": [],
      "stateMutability": "payable",
      "type": "function"
    },
    {
      "inputs": [
        {
          "internalType": "address[]",
          "name": "recipients",
          "type": "address[]"
        }
      ],
      "name": "mintAirdrop",
      "outputs": [],
      "stateMutability": "nonpayable",
      "type": "function"
    },
    {
      "inputs": [
        {
          "internalType": "uint256",
          "name": "quantity",
          "type": "uint256"
        },
        {
          "internalType": "uint256",
          "name": "maxQuantity",
          "type": "uint256"
        },
        {
          "internalType": "uint256",
          "name": "pricePerToken",
          "type": "uint256"
        },
        {
          "internalType": "bytes32[]",
          "name": "merkleProof",
          "type": "bytes32[]"
        }
      ],
      "name": "mintPresale",
      "outputs": [],
      "stateMutability": "payable",
      "type": "function"
    },
    {
      "inputs": [],
      "name": "name",
      "outputs": [
        {
          "internalType": "string",
          "name": "",
          "type": "string"
        }
      ],
      "stateMutability": "view",
      "type": "function"
    },
    {
      "inputs": [],
      "name": "owner",
      "outputs": [
        {
          "internalType": "address",
          "name": "",
          "type": "address"
        }
      ],
      "stateMutability": "view",
      "type": "function"
    },
    {
      "inputs": [
        {
          "internalType": "uint256",
          "name": "tokenId",
          "type": "uint256"
        }
      ],
      "name": "ownerOf",
      "outputs": [
        {
          "internalType": "address",
          "name": "",
          "type": "address"
        }
      ],
      "stateMutability": "view",
      "type": "function"
    },
    {
      "inputs": [],
      "name": "parentIP",
      "outputs": [
        {
          "internalType": "address",
          "name": "",
          "type": "address"
        }
      ],
      "stateMutability": "view",
      "type": "function"
    },
    {
      "inputs": [],
      "name": "presaleEnd",
      "outputs": [
        {
          "internalType": "uint256",
          "name": "",
          "type": "uint256"
        }
      ],
      "stateMutability": "view",
      "type": "function"
    },
    {
      "inputs": [],
      "name": "presaleStart",
      "outputs": [
        {
          "internalType": "uint256",
          "name": "",
          "type": "uint256"
        }
      ],
      "stateMutability": "view",
      "type": "function"
    },
    {
      "inputs": [],
      "name": "renounceOwnership",
      "outputs": [],
      "stateMutability": "nonpayable",
      "type": "function"
    },
    {
      "inputs": [
        {
          "internalType": "uint256",
          "name": "numReserved",
          "type": "uint256"
        }
      ],
      "name": "reserveDCNT",
      "outputs": [],
      "stateMutability": "nonpayable",
      "type": "function"
    },
    {
      "inputs": [],
      "name": "royaltyBPS",
      "outputs": [
        {
          "internalType": "uint256",
          "name": "",
          "type": "uint256"
        }
      ],
      "stateMutability": "view",
      "type": "function"
    },
    {
      "inputs": [
        {
          "internalType": "uint256",
          "name": "tokenId",
          "type": "uint256"
        },
        {
          "internalType": "uint256",
          "name": "salePrice",
          "type": "uint256"
        }
      ],
      "name": "royaltyInfo",
      "outputs": [
        {
          "internalType": "address",
          "name": "receiver",
          "type": "address"
        },
        {
          "internalType": "uint256",
          "name": "royaltyAmount",
          "type": "uint256"
        }
      ],
      "stateMutability": "view",
      "type": "function"
    },
    {
      "inputs": [
        {
          "internalType": "address",
          "name": "from",
          "type": "address"
        },
        {
          "internalType": "address",
          "name": "to",
          "type": "address"
        },
        {
          "internalType": "uint256",
          "name": "tokenId",
          "type": "uint256"
        }
      ],
      "name": "safeTransferFrom",
      "outputs": [],
      "stateMutability": "nonpayable",
      "type": "function"
    },
    {
      "inputs": [
        {
          "internalType": "address",
          "name": "from",
          "type": "address"
        },
        {
          "internalType": "address",
          "name": "to",
          "type": "address"
        },
        {
          "internalType": "uint256",
          "name": "tokenId",
          "type": "uint256"
        },
        {
          "internalType": "bytes",
          "name": "_data",
          "type": "bytes"
        }
      ],
      "name": "safeTransferFrom",
      "outputs": [],
      "stateMutability": "nonpayable",
      "type": "function"
    },
    {
      "inputs": [],
      "name": "saleEnd",
      "outputs": [
        {
          "internalType": "uint256",
          "name": "",
          "type": "uint256"
        }
      ],
      "stateMutability": "view",
      "type": "function"
    },
    {
      "inputs": [],
      "name": "saleIsActive",
      "outputs": [
        {
          "internalType": "bool",
          "name": "_saleIsActive",
          "type": "bool"
        }
      ],
      "stateMutability": "view",
      "type": "function"
    },
    {
      "inputs": [],
      "name": "saleIsPaused",
      "outputs": [
        {
          "internalType": "bool",
          "name": "",
          "type": "bool"
        }
      ],
      "stateMutability": "view",
      "type": "function"
    },
    {
      "inputs": [],
      "name": "saleStart",
      "outputs": [
        {
          "internalType": "uint256",
          "name": "",
          "type": "uint256"
        }
      ],
      "stateMutability": "view",
      "type": "function"
    },
    {
      "inputs": [
        {
          "internalType": "address",
          "name": "operator",
          "type": "address"
        },
        {
          "internalType": "bool",
          "name": "approved",
          "type": "bool"
        }
      ],
      "name": "setApprovalForAll",
      "outputs": [],
      "stateMutability": "nonpayable",
      "type": "function"
    },
    {
      "inputs": [
        {
          "internalType": "string",
          "name": "uri",
          "type": "string"
        }
      ],
      "name": "setBaseURI",
      "outputs": [],
      "stateMutability": "nonpayable",
      "type": "function"
    },
    {
      "inputs": [
        {
          "internalType": "string",
          "name": "uri",
          "type": "string"
        }
      ],
      "name": "setContractURI",
      "outputs": [],
      "stateMutability": "nonpayable",
      "type": "function"
    },
    {
      "inputs": [
        {
          "internalType": "address",
          "name": "_metadataRenderer",
          "type": "address"
        }
      ],
      "name": "setMetadataRenderer",
      "outputs": [],
      "stateMutability": "nonpayable",
      "type": "function"
    },
    {
      "inputs": [
        {
          "internalType": "bytes32",
          "name": "_presaleMerkleRoot",
          "type": "bytes32"
        }
      ],
      "name": "setPresaleMerkleRoot",
      "outputs": [],
      "stateMutability": "nonpayable",
      "type": "function"
    },
    {
      "inputs": [
        {
          "internalType": "address",
          "name": "_zkVerifier",
          "type": "address"
        }
      ],
      "name": "setZKVerifier",
      "outputs": [],
      "stateMutability": "nonpayable",
      "type": "function"
    },
    {
      "inputs": [],
      "name": "splitMain",
      "outputs": [
        {
          "internalType": "address",
          "name": "",
          "type": "address"
        }
      ],
      "stateMutability": "view",
      "type": "function"
    },
    {
      "inputs": [],
      "name": "splitWallet",
      "outputs": [
        {
          "internalType": "address",
          "name": "",
          "type": "address"
        }
      ],
      "stateMutability": "view",
      "type": "function"
    },
    {
      "inputs": [
        {
          "internalType": "bytes4",
          "name": "interfaceId",
          "type": "bytes4"
        }
      ],
      "name": "supportsInterface",
      "outputs": [
        {
          "internalType": "bool",
          "name": "",
          "type": "bool"
        }
      ],
      "stateMutability": "view",
      "type": "function"
    },
    {
      "inputs": [],
      "name": "symbol",
      "outputs": [
        {
          "internalType": "string",
          "name": "",
          "type": "string"
        }
      ],
      "stateMutability": "view",
      "type": "function"
    },
    {
      "inputs": [],
      "name": "tokenGateConfig",
      "outputs": [
        {
          "internalType": "address",
          "name": "tokenAddress",
          "type": "address"
        },
        {
          "internalType": "uint88",
          "name": "minBalance",
          "type": "uint88"
        },
        {
          "internalType": "enum SaleType",
          "name": "saleType",
          "type": "uint8"
        }
      ],
      "stateMutability": "view",
      "type": "function"
    },
    {
      "inputs": [],
      "name": "tokenPrice",
      "outputs": [
        {
          "internalType": "uint256",
          "name": "",
          "type": "uint256"
        }
      ],
      "stateMutability": "view",
      "type": "function"
    },
    {
      "inputs": [
        {
          "internalType": "uint256",
          "name": "tokenId",
          "type": "uint256"
        }
      ],
      "name": "tokenURI",
      "outputs": [
        {
          "internalType": "string",
          "name": "",
          "type": "string"
        }
      ],
      "stateMutability": "view",
      "type": "function"
    },
    {
      "inputs": [],
      "name": "totalSupply",
      "outputs": [
        {
          "internalType": "uint256",
          "name": "",
          "type": "uint256"
        }
      ],
      "stateMutability": "view",
      "type": "function"
    },
    {
      "inputs": [
        {
          "internalType": "address",
          "name": "from",
          "type": "address"
        },
        {
          "internalType": "address",
          "name": "to",
          "type": "address"
        },
        {
          "internalType": "uint256",
          "name": "tokenId",
          "type": "uint256"
        }
      ],
      "name": "transferFrom",
      "outputs": [],
      "stateMutability": "nonpayable",
      "type": "function"
    },
    {
      "inputs": [
        {
          "internalType": "address",
          "name": "newOwner",
          "type": "address"
        }
      ],
      "name": "transferOwnership",
      "outputs": [],
      "stateMutability": "nonpayable",
      "type": "function"
    },
    {
      "inputs": [
        {
          "internalType": "uint256",
          "name": "transferETH",
          "type": "uint256"
        },
        {
          "internalType": "contract ERC20[]",
          "name": "tokens",
          "type": "address[]"
        }
      ],
      "name": "transferToSplit",
      "outputs": [],
      "stateMutability": "nonpayable",
      "type": "function"
    },
    {
      "inputs": [
        {
          "internalType": "uint256",
          "name": "newStart",
          "type": "uint256"
        },
        {
          "internalType": "uint256",
          "name": "newEnd",
          "type": "uint256"
        }
      ],
      "name": "updatePresaleStartEnd",
      "outputs": [],
      "stateMutability": "nonpayable",
      "type": "function"
    },
    {
      "inputs": [
        {
          "internalType": "uint256",
          "name": "newStart",
          "type": "uint256"
        },
        {
          "internalType": "uint256",
          "name": "newEnd",
          "type": "uint256"
        }
      ],
      "name": "updateSaleStartEnd",
      "outputs": [],
      "stateMutability": "nonpayable",
      "type": "function"
    },
    {
      "inputs": [],
      "name": "withdraw",
      "outputs": [],
      "stateMutability": "nonpayable",
      "type": "function"
    },
    {
      "inputs": [
        {
          "internalType": "address",
          "name": "recipient",
          "type": "address"
        }
      ],
      "name": "zkClaim",
      "outputs": [],
      "stateMutability": "nonpayable",
      "type": "function"
    },
    {
      "inputs": [],
      "name": "zkVerifier",
      "outputs": [
        {
          "internalType": "address",
          "name": "",
          "type": "address"
        }
      ],
      "stateMutability": "view",
      "type": "function"
    }
  ],
  "bytecode": "0x60806040523480156200001157600080fd5b506200001d3362000023565b6200007f565b600980546001600160a01b038381166201000081810262010000600160b01b031985161790945560405193909204169182907f8be0079c531659141344cd1fd0a4f28419497f9722a3daafe3b4186f6b6457e090600090a35050565b61424f806200008f6000396000f3fe60806040526004361061038b5760003560e01c806379ab7c8e116101dc578063c595317011610102578063e70aeefe116100a0578063f0cc8b621161006f578063f0cc8b6214610a6e578063f2fde38b14610a8e578063f47c84c514610aae578063fd4fe8a814610ac457600080fd5b8063e70aeefe146109db578063e8a3d485146109fb578063e985e9c514610a10578063eb8d244414610a5957600080fd5b8063d58d458a116100dc578063d58d458a1461096b578063d6df096d1461098b578063de8801e5146109ab578063e6c350c1146109c157600080fd5b8063c59531701461090b578063c87b56dd1461092b578063c9ef5eee1461094b57600080fd5b8063a22cb4651161017a578063b9c9d93a11610149578063b9c9d93a1461089f578063c10b9358146108b5578063c4559d5a146108cb578063c5090346146108eb57600080fd5b8063a22cb46514610829578063ab0bcc4114610849578063b88d4fde1461085f578063b9139dcb1461087f57600080fd5b8063931cf0f4116101b6578063931cf0f4146107c0578063938e3d7b146107e157806395d89b4114610801578063a0712d681461081657600080fd5b806379ab7c8e146107665780637ff9b596146107865780638da5cb5b1461079c57600080fd5b806328d7b276116102c15780636352211e1161025f57806370a082311161022e57806370a08231146106fe578063713b97871461071e578063715018a61461073e578063727a612e1461075357600080fd5b80636352211e146106895780636c0360eb146106a95780636c1951ae146106be57806370319970146106de57600080fd5b80633ccfd60b1161029b5780633ccfd60b1461061457806342842e0e1461062957806355f804b3146106495780635799dbdd1461066957600080fd5b806328d7b276146105a05780632a55205a146105c057806334918dfd146105ff57600080fd5b80630e769b2b1161032e5780631dbdedbd116103085780631dbdedbd146104fe578063229f3e291461054a57806323b872dd14610560578063284a44a81461058057600080fd5b80630e769b2b146104a557806317dc2587146104c557806318160ddd146104e557600080fd5b806306fdde031161036a57806306fdde0314610407578063081812fc14610429578063095ea7b31461046157806309aa3dcf1461048157600080fd5b80625f16fb14610390578063015893c5146103b257806301ffc9a7146103d2575b600080fd5b34801561039c57600080fd5b506103b06103ab3660046131eb565b610ae4565b005b3480156103be57600080fd5b506103b06103cd366004613292565b610bc2565b3480156103de57600080fd5b506103f26103ed366004613328565b610d4c565b60405190151581526020015b60405180910390f35b34801561041357600080fd5b5061041c610d77565b6040516103fe919061339d565b34801561043557600080fd5b506104496104443660046133b0565b610e09565b6040516001600160a01b0390911681526020016103fe565b34801561046d57600080fd5b506103b061047c3660046133c9565b610e4d565b34801561048d57600080fd5b50610497600c5481565b6040519081526020016103fe565b3480156104b157600080fd5b50601754610449906001600160a01b031681565b3480156104d157600080fd5b506103b06104e03660046133f5565b610eed565b3480156104f157600080fd5b5060015460005403610497565b34801561050a57600080fd5b5060085461053b906001600160a01b03811690600160a01b81046001600160581b031690600160f81b900460ff1683565b6040516103fe9392919061342d565b34801561055657600080fd5b5061049760155481565b34801561056c57600080fd5b506103b061057b366004613478565b610f00565b34801561058c57600080fd5b506103b061059b3660046135b0565b61108e565b3480156105ac57600080fd5b506103b06105bb3660046133b0565b611138565b3480156105cc57600080fd5b506105e06105db3660046133f5565b611145565b604080516001600160a01b0390931683526020830191909152016103fe565b34801561060b57600080fd5b506103b06111f2565b34801561062057600080fd5b506103b061120e565b34801561063557600080fd5b506103b0610644366004613478565b61131c565b34801561065557600080fd5b506103b0610664366004613701565b61133c565b34801561067557600080fd5b506103b06106843660046133f5565b61135b565b34801561069557600080fd5b506104496106a43660046133b0565b61136e565b3480156106b557600080fd5b5061041c611379565b3480156106ca57600080fd5b506103b06106d93660046133b0565b611407565b3480156106ea57600080fd5b50601254610449906001600160a01b031681565b34801561070a57600080fd5b50610497610719366004613735565b611477565b34801561072a57600080fd5b50601854610449906001600160a01b031681565b34801561074a57600080fd5b506103b06114c5565b6103b0610761366004613752565b6114d9565b34801561077257600080fd5b506103b06107813660046137b2565b6118d2565b34801561079257600080fd5b50610497600b5481565b3480156107a857600080fd5b506009546201000090046001600160a01b0316610449565b3480156107cc57600080fd5b506009546103f290600160b01b900460ff1681565b3480156107ed57600080fd5b506103b06107fc366004613701565b611959565b34801561080d57600080fd5b5061041c611974565b6103b06108243660046133b0565b611983565b34801561083557600080fd5b506103b0610844366004613807565b611d0a565b34801561085557600080fd5b50610497600d5481565b34801561086b57600080fd5b506103b061087a366004613840565b611da0565b34801561088b57600080fd5b506103b061089a366004613735565b611de4565b3480156108ab57600080fd5b5061049760135481565b3480156108c157600080fd5b50610497600e5481565b3480156108d757600080fd5b506103b06108e63660046138ab565b611eac565b3480156108f757600080fd5b506103b0610906366004613735565b611f7d565b34801561091757600080fd5b506103b061092636600461393e565b611fa7565b34801561093757600080fd5b5061041c6109463660046133b0565b612089565b34801561095757600080fd5b506103b0610966366004613ba8565b61214b565b34801561097757600080fd5b506103b06109863660046133b0565b61241d565b34801561099757600080fd5b50601a54610449906001600160a01b031681565b3480156109b757600080fd5b5061049760145481565b3480156109cd57600080fd5b50600f546103f29060ff1681565b3480156109e757600080fd5b506103b06109f6366004613c48565b6124df565b348015610a0757600080fd5b5061041c6127c9565b348015610a1c57600080fd5b506103f2610a2b366004613cfb565b6001600160a01b03918216600090815260076020908152604080832093909416825291909152205460ff1690565b348015610a6557600080fd5b506103f2612878565b348015610a7a57600080fd5b50601954610449906001600160a01b031681565b348015610a9a57600080fd5b506103b0610aa9366004613735565b6128a0565b348015610aba57600080fd5b50610497600a5481565b348015610ad057600080fd5b506103b0610adf366004613735565b612916565b6000610af86018546001600160a01b031690565b6001600160a01b03161415610b285760405162461bcd60e51b8152600401610b1f90613d29565b60405180910390fd5b610b3187612940565b6017546001600160a01b03166001600160a01b03166315811302610b5d6018546001600160a01b031690565b898989898989896040518963ffffffff1660e01b8152600401610b87989796959493929190613dda565b600060405180830381600087803b158015610ba157600080fd5b505af1158015610bb5573d6000803e3d6000fd5b5050505050505050505050565b610bca612a5d565b6000610bde6017546001600160a01b031690565b6001600160a01b03161415610c295760405162461bcd60e51b815260206004820152601160248201527014dc1b1a5d13585a5b881b9bdd081cd95d607a1b6044820152606401610b1f565b6000610c3d6018546001600160a01b031690565b6001600160a01b031614610c8b5760405162461bcd60e51b815260206004820152601560248201527414dc1b1a5d08185b1c9958591e4818dc99585d1959605a1b6044820152606401610b1f565b6000610c9f6017546001600160a01b031690565b6001600160a01b0316637601f7828787878787336040518763ffffffff1660e01b8152600401610cd496959493929190613e3c565b602060405180830381600087803b158015610cee57600080fd5b505af1158015610d02573d6000803e3d6000fd5b505050506040513d601f19601f82011682018060405250810190610d269190613e8d565b601880546001600160a01b0319166001600160a01b03831617905590505b505050505050565b600063152a902d60e11b6001600160e01b031983161480610d715750610d7182612abe565b92915050565b606060028054610d8690613eaa565b80601f0160208091040260200160405190810160405280929190818152602001828054610db290613eaa565b8015610dff5780601f10610dd457610100808354040283529160200191610dff565b820191906000526020600020905b815481529060010190602001808311610de257829003601f168201915b5050505050905090565b6000610e1482612b0c565b610e31576040516333d1c03960e21b815260040160405180910390fd5b506000908152600660205260409020546001600160a01b031690565b6000610e588261136e565b9050336001600160a01b03821614610e9157610e748133610a2b565b610e91576040516367d9dca160e11b815260040160405180910390fd5b60008281526006602052604080822080546001600160a01b0319166001600160a01b0387811691821790925591518593918516917f8c5be1e5ebec7d5bd14f71427d1e84f3dd0314c0f7b2291e5b200ac8c7c3b92591a4505050565b610ef5612a5d565b600d91909155600e55565b6000610f0b82612b33565b9050836001600160a01b0316816001600160a01b031614610f3e5760405162a1148160e81b815260040160405180910390fd5b60008281526006602052604090208054338082146001600160a01b03881690911417610f8b57610f6e8633610a2b565b610f8b57604051632ce44b5f60e11b815260040160405180910390fd5b6001600160a01b038516610fb257604051633a954ecd60e21b815260040160405180910390fd5b8015610fbd57600082555b6001600160a01b038681166000908152600560205260408082208054600019019055918716808252919020805460010190554260a01b17600160e11b17600085815260046020526040902055600160e11b831661104857600184016000818152600460205260409020546110465760005481146110465760008181526004602052604090208490555b505b83856001600160a01b0316876001600160a01b03167fddf252ad1be2c89b69c2b068fc378daa952ba7f163c4a11628f55a4df523b3ef60405160405180910390a4610d44565b60006110a26018546001600160a01b031690565b6001600160a01b031614156110c95760405162461bcd60e51b8152600401610b1f90613d29565b87156110dd576110dd868686868686611eac565b60005b8751811015611121576111118882815181106110fe576110fe613ee5565b6020026020010151888888888888610ae4565b61111a81613f11565b90506110e0565b5061112d898989612b9b565b505050505050505050565b611140612a5d565b601655565b60008061115184612b0c565b6111915760405162461bcd60e51b81526020600482015260116024820152702737b732bc34b9ba32b73a103a37b5b2b760791b6044820152606401610b1f565b6018546001600160a01b0316156111b5576018546001600160a01b031691506111ca565b6009546201000090046001600160a01b031691505b6000612710601354856111dd9190613f2c565b6111e79190613f4b565b9150505b9250929050565b6111fa612a5d565b600f805460ff19811660ff90911615179055565b611216612a5d565b600061122a6018546001600160a01b031690565b6001600160a01b03161461128c5760405162461bcd60e51b8152602060048201526024808201527f43616e6e6f74207769746864726177207769746820616e2061637469766520736044820152631c1b1a5d60e21b6064820152608401610b1f565b604051600090339047908381818185875af1925050503d80600081146112ce576040519150601f19603f3d011682016040523d82523d6000602084013e6112d3565b606091505b50509050806113195760405162461bcd60e51b8152602060048201526012602482015271436f756c64206e6f7420776974686472617760701b6044820152606401610b1f565b50565b61133783838360405180602001604052806000815250611da0565b505050565b611344612a5d565b80516113579060109060208401906130e0565b5050565b611363612a5d565b601491909155601555565b6000610d7182612b33565b6010805461138690613eaa565b80601f01602080910402602001604051908101604052809291908181526020018280546113b290613eaa565b80156113ff5780601f106113d4576101008083540402835291602001916113ff565b820191906000526020600020905b8154815290600101906020018083116113e257829003601f168201915b505050505081565b61140f612a5d565b600054600a5461141f8383613f6d565b1061143c5760405162461bcd60e51b8152600401610b1f90613f85565b60005b8281101561133757611465336114558385613f6d565b611460906001613f6d565b612bfd565b8061146f81613f11565b91505061143f565b60006001600160a01b0382166114a0576040516323d3ad8160e21b815260040160405180910390fd5b506001600160a01b03166000908152600560205260409020546001600160401b031690565b6114cd612a5d565b6114d76000612c17565b565b6008546001906001600160a01b03161580159061154257506000600854600160f81b900460ff16600281111561151157611511613417565b1480611542575080801561154257506001600854600160f81b900460ff16600281111561154057611540613417565b145b8061157357508015801561157357506002600854600160f81b900460ff16600281111561157157611571613417565b145b1561164e576008546040516370a0823160e01b8152336004820152600160a01b82046001600160581b0316916001600160a01b0316906370a0823190602401602060405180830381600087803b1580156115cc57600080fd5b505af11580156115e0573d6000803e3d6000fd5b505050506040513d601f19601f820116820180604052508101906116049190613fba565b101561164e5760405162461bcd60e51b81526020600482015260196024820152783237903737ba1037bbb7103932b8bab4b932b2103a37b5b2b760391b6044820152606401610b1f565b601454421015801561166257506015544211155b61169c5760405162461bcd60e51b815260206004820152600b60248201526a6e6f742070726573616c6560a81b6044820152606401610b1f565b600054600f5460ff16156116f25760405162461bcd60e51b815260206004820152601b60248201527f53616c65206d7573742062652061637469766520746f206d696e7400000000006044820152606401610b1f565b600a546116ff8883613f6d565b111561171d5760405162461bcd60e51b8152600401610b1f90613f85565b6117a0848480806020026020016040519081016040528093929190818152602001838360200280828437600092019190915250506016546040516bffffffffffffffffffffffff193360601b166020820152603481018c9052605481018b9052909250607401905060405160208183030381529060405280519060200120612c73565b6117db5760405162461bcd60e51b815260206004820152600c60248201526b1b9bdd08185c1c1c9bdd995960a21b6044820152606401610b1f565b6117e58786613f2c565b3410156118295760405162461bcd60e51b8152602060048201526012602482015271496e73756666696369656e742066756e647360701b6044820152606401610b1f565b858761183433611477565b61183e9190613f6d565b111561187e5760405162461bcd60e51b815260206004820152600f60248201526e6d696e74656420746f6f206d616e7960881b6044820152606401610b1f565b6118883388612bfd565b60005b878110156118c85760408051338152602081018490526001909301926000805160206141fa833981519152910160405180910390a160010161188b565b5050505050505050565b60006118e66018546001600160a01b031690565b6001600160a01b0316141561190d5760405162461bcd60e51b8152600401610b1f90613d29565b811561191b5761191b612c89565b60005b81518110156113375761194982828151811061193c5761193c613ee5565b6020026020010151612940565b61195281613f11565b905061191e565b611961612a5d565b80516113579060119060208401906130e0565b606060038054610d8690613eaa565b6008546000906001600160a01b0316158015906119ec57506000600854600160f81b900460ff1660028111156119bb576119bb613417565b14806119ec57508080156119ec57506001600854600160f81b900460ff1660028111156119ea576119ea613417565b145b80611a1d575080158015611a1d57506002600854600160f81b900460ff166002811115611a1b57611a1b613417565b145b15611af8576008546040516370a0823160e01b8152336004820152600160a01b82046001600160581b0316916001600160a01b0316906370a0823190602401602060405180830381600087803b158015611a7657600080fd5b505af1158015611a8a573d6000803e3d6000fd5b505050506040513d601f19601f82011682018060405250810190611aae9190613fba565b1015611af85760405162461bcd60e51b81526020600482015260196024820152783237903737ba1037bbb7103932b8bab4b932b2103a37b5b2b760391b6044820152606401610b1f565b600054600d544210801590611b0f5750600e544211155b611b535760405162461bcd60e51b815260206004820152601560248201527429b0b632b99030b932903737ba1030b1ba34bb329760591b6044820152606401610b1f565b600f5460ff1615611ba65760405162461bcd60e51b815260206004820152601b60248201527f53616c65206d7573742062652061637469766520746f206d696e7400000000006044820152606401610b1f565b600a54611bb38483613f6d565b1115611bd15760405162461bcd60e51b8152600401610b1f90613f85565b600a54811115611c0e5760405162461bcd60e51b815260206004820152600860248201526714d3d3110813d55560c21b6044820152606401610b1f565b82600b54611c1c9190613f2c565b341015611c605760405162461bcd60e51b8152602060048201526012602482015271496e73756666696369656e742066756e647360701b6044820152606401610b1f565b600c5415611cba57600c54831115611cba5760405162461bcd60e51b815260206004820152601c60248201527f4578636565646564206d6178206e756d62657220706572206d696e74000000006044820152606401610b1f565b611cc43384612bfd565b60005b83811015611d045760408051338152602081018490526001909301926000805160206141fa833981519152910160405180910390a1600101611cc7565b50505050565b6001600160a01b038216331415611d345760405163b06307db60e01b815260040160405180910390fd5b3360008181526007602090815260408083206001600160a01b03871680855290835292819020805460ff191686151590811790915590519081529192917f17307eab39ab6107e8899845ad3d59bd9653f200f220920489ca2b5937696c31910160405180910390a35050565b611dab848484610f00565b6001600160a01b0383163b15611d0457611dc784848484612d3d565b611d04576040516368d2bf6b60e11b815260040160405180910390fd5b601a546001600160a01b03163314611e3e5760405162461bcd60e51b815260206004820152601860248201527f4f6e6c79207a6b56657269666965722063616e2063616c6c00000000000000006044820152606401610b1f565b600054600a54611e4f826001613f6d565b1115611e6d5760405162461bcd60e51b8152600401610b1f90613f85565b611e78826001612bfd565b604080516001600160a01b0384168152602081018390526000805160206141fa833981519152910160405180910390a15050565b6000611ec06018546001600160a01b031690565b6001600160a01b03161415611ee75760405162461bcd60e51b8152600401610b1f90613d29565b611eef612c89565b6017546001600160a01b03166001600160a01b031663e61cb05e611f1b6018546001600160a01b031690565b8888888888886040518863ffffffff1660e01b8152600401611f439796959493929190613fd3565b600060405180830381600087803b158015611f5d57600080fd5b505af1158015611f71573d6000803e3d6000fd5b50505050505050505050565b611f85612a5d565b601a80546001600160a01b0319166001600160a01b0392909216919091179055565b611faf612a5d565b600054600a548190611fc18483613f6d565b1115611fdf5760405162461bcd60e51b8152600401610b1f90613f85565b8183015b808310156120825761201e858584860381811061200257612002613ee5565b90506020020160208101906120179190613735565b6001612bfd565b6000805160206141fa833981519152858584860381811061204157612041613ee5565b90506020020160208101906120569190613735565b604080516001600160a01b039092168252602082018690520160405180910390a1600190920191611fe3565b5050505050565b606061209482612b0c565b6120b157604051630a14c4b560e41b815260040160405180910390fd5b6012546001600160a01b0316156121425760125460405163c87b56dd60e01b8152600481018490526001600160a01b039091169063c87b56dd9060240160006040518083038186803b15801561210657600080fd5b505afa15801561211a573d6000803e3d6000fd5b505050506040513d6000823e601f3d908101601f19168201604052610d71919081019061402c565b610d7182612e35565b600954610100900460ff161580801561216b5750600954600160ff909116105b806121855750303b158015612185575060095460ff166001145b6121a15760405162461bcd60e51b8152600401610b1f906140a2565b6009805460ff1916600117905580156121c4576009805461ff0019166101001790555b6121cd87612c17565b855180516121e3916002916020909101906130e0565b5060208087015180516121fa9260039201906130e0565b5060008055606080870151600a556080870151600b5560a0870151600c55610120870151600d55610140870151600e5561016087015160135560408088015160098054911515600160b01b0260ff60b01b1990921691909117905590860151601980546001600160a01b039283166001600160a01b03199182161790915560178054868416921691909117905585516008805460208901516001600160581b0316600160a01b026001600160f81b031990911692909316919091179190911780825591860151869282906001600160f81b0316600160f81b8360028111156122e4576122e4613417565b0217905550505060c086015160165560e08601516014556101008601516015556001600160a01b0383161580159061232157506000856040015151115b1561239f57601280546001600160a01b0319166001600160a01b03851690811790915560408681015190516342b53ffd60e11b815263856a7ffa916123689160040161339d565b600060405180830381600087803b15801561238257600080fd5b505af1158015612396573d6000803e3d6000fd5b505050506123ce565b845180516123b5916011916020909101906130e0565b5060208086015180516123cc9260109201906130e0565b505b8015612414576009805461ff0019169055604051600181527f7f26b83ff96e1f2b6a682f133852f6798a09c465da95921460cefb38474024989060200160405180910390a15b50505050505050565b612425612a5d565b600954600160b01b900460ff1661248c5760405162461bcd60e51b815260206004820152602560248201527f63616e6e6f742061646a7573742073697a65206f66207468697320636f6c6c6560448201526431ba34b7b760d91b6064820152608401610b1f565b8061249660005490565b11156124da5760405162461bcd60e51b8152602060048201526013602482015272063616e6e6f742064656372656173652063617606c1b6044820152606401610b1f565b600a55565b600954610100900460ff16158080156124ff5750600954600160ff909116105b806125195750303b158015612519575060095460ff166001145b6125355760405162461bcd60e51b8152600401610b1f906140a2565b6009805460ff191660011790558015612558576009805461ff0019166101001790555b61256188612c17565b86518051612577916002916020909101906130e0565b50602080880151805161258e9260039201906130e0565b5060008055606080880151600a556080880151600b5560a0880151600c55610120880151600d55610140880151600e5561016088015160135560408089015160098054911515600160b01b0260ff60b01b1990921691909117905590870151601980546001600160a01b039283166001600160a01b03199182161790915560178054878416921691909117905586516008805460208a01516001600160581b0316600160a01b026001600160f81b031990911692909316919091179190911780825591870151879282906001600160f81b0316600160f81b83600281111561267857612678613417565b0217905550505060c087015160165560e0870151601455610100870151601555601a80546001600160a01b0319166001600160a01b03848116919091179091558416158015906126cd57506000866040015151115b1561274b57601280546001600160a01b0319166001600160a01b03861690811790915560408781015190516342b53ffd60e11b815263856a7ffa916127149160040161339d565b600060405180830381600087803b15801561272e57600080fd5b505af1158015612742573d6000803e3d6000fd5b5050505061277a565b85518051612761916011916020909101906130e0565b5060208087015180516127789260109201906130e0565b505b80156118c8576009805461ff0019169055604051600181527f7f26b83ff96e1f2b6a682f133852f6798a09c465da95921460cefb38474024989060200160405180910390a15050505050505050565b6012546060906001600160a01b03166127e95760118054610d8690613eaa565b601260009054906101000a90046001600160a01b03166001600160a01b031663e8a3d4856040518163ffffffff1660e01b815260040160006040518083038186803b15801561283757600080fd5b505afa15801561284b573d6000803e3d6000fd5b505050506040513d6000823e601f3d908101601f19168201604052612873919081019061402c565b905090565b6000600d54421015801561288e5750600e544211155b8015612873575050600f5460ff161590565b6128a8612a5d565b6001600160a01b03811661290d5760405162461bcd60e51b815260206004820152602660248201527f4f776e61626c653a206e6577206f776e657220697320746865207a65726f206160448201526564647265737360d01b6064820152608401610b1f565b61131981612c17565b61291e612a5d565b601280546001600160a01b0319166001600160a01b0392909216919091179055565b6040516370a0823160e01b81523060048201526000906001600160a01b038316906370a082319060240160206040518083038186803b15801561298257600080fd5b505afa158015612996573d6000803e3d6000fd5b505050506040513d601f19601f820116820180604052508101906129ba9190613fba565b9050816001600160a01b031663a9059cbb6129dd6018546001600160a01b031690565b6040516001600160e01b031960e084901b1681526001600160a01b03909116600482015260248101849052604401602060405180830381600087803b158015612a2557600080fd5b505af1158015612a39573d6000803e3d6000fd5b505050506040513d601f19601f8201168201806040525081019061133791906140f0565b6009546001600160a01b03620100009091041633146114d75760405162461bcd60e51b815260206004820181905260248201527f4f776e61626c653a2063616c6c6572206973206e6f7420746865206f776e65726044820152606401610b1f565b60006301ffc9a760e01b6001600160e01b031983161480612aef57506380ac58cd60e01b6001600160e01b03198316145b80610d715750506001600160e01b031916635b5e139f60e01b1490565b6000805482108015610d71575050600090815260046020526040902054600160e01b161590565b600081600054811015612b8257600081815260046020526040902054600160e01b8116612b80575b80612b79575060001901600081815260046020526040902054612b5b565b9392505050565b505b604051636f96cda160e11b815260040160405180910390fd5b601754604051636e5f691960e01b81526001600160a01b0390911690636e5f691990612bcf9086908690869060040161410d565b600060405180830381600087803b158015612be957600080fd5b505af1158015612414573d6000803e3d6000fd5b611357828260405180602001604052806000815250612eb9565b600980546001600160a01b038381166201000081810262010000600160b01b031985161790945560405193909204169182907f8be0079c531659141344cd1fd0a4f28419497f9722a3daafe3b4186f6b6457e090600090a35050565b600082612c808584612f1f565b14949350505050565b6000612c9d6018546001600160a01b031690565b6001600160a01b03164760405160006040518083038185875af1925050503d8060008114612ce7576040519150601f19603f3d011682016040523d82523d6000602084013e612cec565b606091505b50509050806113195760405162461bcd60e51b815260206004820152601f60248201527f436f756c64206e6f74207472616e736665722045544820746f2073706c6974006044820152606401610b1f565b604051630a85bd0160e11b81526000906001600160a01b0385169063150b7a0290612d72903390899088908890600401614170565b602060405180830381600087803b158015612d8c57600080fd5b505af1925050508015612dbc575060408051601f3d908101601f19168201909252612db9918101906141ad565b60015b612e17573d808015612dea576040519150601f19603f3d011682016040523d82523d6000602084013e612def565b606091505b508051612e0f576040516368d2bf6b60e11b815260040160405180910390fd5b805181602001fd5b6001600160e01b031916630a85bd0160e11b1490505b949350505050565b6060612e4082612b0c565b612e5d57604051630a14c4b560e41b815260040160405180910390fd5b6000612e67612f6c565b9050805160001415612e885760405180602001604052806000815250612b79565b80612e9284612f7b565b604051602001612ea39291906141ca565b6040516020818303038152906040529392505050565b612ec38383612fbd565b6001600160a01b0383163b15611337576000548281035b612eed6000868380600101945086612d3d565b612f0a576040516368d2bf6b60e11b815260040160405180910390fd5b818110612eda57816000541461208257600080fd5b600081815b8451811015612f6457612f5082868381518110612f4357612f43613ee5565b60200260200101516130b4565b915080612f5c81613f11565b915050612f24565b509392505050565b606060108054610d8690613eaa565b604080516080019081905280825b600183039250600a81066030018353600a900480612fa657612fab565b612f89565b50819003601f19909101908152919050565b60005481612fde5760405163b562e8dd60e01b815260040160405180910390fd5b6001600160a01b03831660008181526005602090815260408083208054680100000000000000018802019055848352600490915281206001851460e11b4260a01b178317905582840190839083907fddf252ad1be2c89b69c2b068fc378daa952ba7f163c4a11628f55a4df523b3ef8180a4600183015b81811461308d57808360007fddf252ad1be2c89b69c2b068fc378daa952ba7f163c4a11628f55a4df523b3ef600080a4600101613055565b50816130ab57604051622e076360e81b815260040160405180910390fd5b60005550505050565b60008183106130d0576000828152602084905260409020612b79565b5060009182526020526040902090565b8280546130ec90613eaa565b90600052602060002090601f01602090048101928261310e5760008555613154565b82601f1061312757805160ff1916838001178555613154565b82800160010185558215613154579182015b82811115613154578251825591602001919060010190613139565b50613160929150613164565b5090565b5b808211156131605760008155600101613165565b6001600160a01b038116811461131957600080fd5b60008083601f8401126131a057600080fd5b5081356001600160401b038111156131b757600080fd5b6020830191508360208260051b85010111156111eb57600080fd5b803563ffffffff811681146131e657600080fd5b919050565b600080600080600080600060a0888a03121561320657600080fd5b873561321181613179565b965060208801356001600160401b038082111561322d57600080fd5b6132398b838c0161318e565b909850965060408a013591508082111561325257600080fd5b5061325f8a828b0161318e565b90955093506132729050606089016131d2565b9150608088013561328281613179565b8091505092959891949750929550565b6000806000806000606086880312156132aa57600080fd5b85356001600160401b03808211156132c157600080fd5b6132cd89838a0161318e565b909750955060208801359150808211156132e657600080fd5b506132f38882890161318e565b90945092506133069050604087016131d2565b90509295509295909350565b6001600160e01b03198116811461131957600080fd5b60006020828403121561333a57600080fd5b8135612b7981613312565b60005b83811015613360578181015183820152602001613348565b83811115611d045750506000910152565b60008151808452613389816020860160208601613345565b601f01601f19169290920160200192915050565b602081526000612b796020830184613371565b6000602082840312156133c257600080fd5b5035919050565b600080604083850312156133dc57600080fd5b82356133e781613179565b946020939093013593505050565b6000806040838503121561340857600080fd5b50508035926020909101359150565b634e487b7160e01b600052602160045260246000fd5b6001600160a01b03841681526001600160581b0383166020820152606081016003831061346a57634e487b7160e01b600052602160045260246000fd5b826040830152949350505050565b60008060006060848603121561348d57600080fd5b833561349881613179565b925060208401356134a881613179565b929592945050506040919091013590565b634e487b7160e01b600052604160045260246000fd5b60405161018081016001600160401b03811182821017156134f2576134f26134b9565b60405290565b604051601f8201601f191681016001600160401b0381118282101715613520576135206134b9565b604052919050565b600082601f83011261353957600080fd5b813560206001600160401b03821115613554576135546134b9565b8160051b6135638282016134f8565b928352848101820192828101908785111561357d57600080fd5b83870192505b848310156135a557823561359681613179565b82529183019190830190613583565b979650505050505050565b600080600080600080600080600060e08a8c0312156135ce57600080fd5b89356135d981613179565b985060208a0135975060408a01356001600160401b03808211156135fc57600080fd5b6136088d838e01613528565b985060608c013591508082111561361e57600080fd5b61362a8d838e0161318e565b909850965060808c013591508082111561364357600080fd5b506136508c828d0161318e565b9095509350613663905060a08b016131d2565b915060c08a013561367381613179565b809150509295985092959850929598565b60006001600160401b0382111561369d5761369d6134b9565b50601f01601f191660200190565b600082601f8301126136bc57600080fd5b81356136cf6136ca82613684565b6134f8565b8181528460208386010111156136e457600080fd5b816020850160208301376000918101602001919091529392505050565b60006020828403121561371357600080fd5b81356001600160401b0381111561372957600080fd5b612e2d848285016136ab565b60006020828403121561374757600080fd5b8135612b7981613179565b60008060008060006080868803121561376a57600080fd5b85359450602086013593506040860135925060608601356001600160401b0381111561379557600080fd5b6137a18882890161318e565b969995985093965092949392505050565b600080604083850312156137c557600080fd5b8235915060208301356001600160401b038111156137e257600080fd5b6111e785828601613528565b801515811461131957600080fd5b80356131e6816137ee565b6000806040838503121561381a57600080fd5b823561382581613179565b91506020830135613835816137ee565b809150509250929050565b6000806000806080858703121561385657600080fd5b843561386181613179565b9350602085013561387181613179565b92506040850135915060608501356001600160401b0381111561389357600080fd5b61389f878288016136ab565b91505092959194509250565b600080600080600080608087890312156138c457600080fd5b86356001600160401b03808211156138db57600080fd5b6138e78a838b0161318e565b9098509650602089013591508082111561390057600080fd5b5061390d89828a0161318e565b90955093506139209050604088016131d2565b9150606087013561393081613179565b809150509295509295509295565b6000806020838503121561395157600080fd5b82356001600160401b0381111561396757600080fd5b6139738582860161318e565b90969095509350505050565b6000610180828403121561399257600080fd5b61399a6134cf565b905081356001600160401b03808211156139b357600080fd5b6139bf858386016136ab565b835260208401359150808211156139d557600080fd5b506139e2848285016136ab565b6020830152506139f4604083016137fc565b6040820152606082013560608201526080820135608082015260a082013560a082015260c082013560c082015260e082013560e082015261010080830135818301525061012080830135818301525061014080830135818301525061016080830135818301525092915050565b600060808284031215613a7357600080fd5b604051608081016001600160401b038282108183111715613a9657613a966134b9565b816040528293508435915080821115613aae57600080fd5b613aba868387016136ab565b83526020850135915080821115613ad057600080fd5b613adc868387016136ab565b60208401526040850135915080821115613af557600080fd5b50613b02858286016136ab565b6040830152506060830135613b1681613179565b6060919091015292915050565b600060608284031215613b3557600080fd5b604051606081018181106001600160401b0382111715613b5757613b576134b9565b6040529050808235613b6881613179565b815260208301356001600160581b0381168114613b8457600080fd5b6020820152604083013560038110613b9b57600080fd5b6040919091015292915050565b6000806000806000806101008789031215613bc257600080fd5b8635613bcd81613179565b955060208701356001600160401b0380821115613be957600080fd5b613bf58a838b0161397f565b96506040890135915080821115613c0b57600080fd5b50613c1889828a01613a61565b945050613c288860608901613b23565b925060c0870135613c3881613179565b915060e087013561393081613179565b6000806000806000806000610120888a031215613c6457600080fd5b8735613c6f81613179565b965060208801356001600160401b0380821115613c8b57600080fd5b613c978b838c0161397f565b975060408a0135915080821115613cad57600080fd5b50613cba8a828b01613a61565b955050613cca8960608a01613b23565b935060c0880135613cda81613179565b925060e0880135613cea81613179565b915061010088013561328281613179565b60008060408385031215613d0e57600080fd5b8235613d1981613179565b9150602083013561383581613179565b60208082526015908201527414dc1b1a5d081b9bdd0818dc99585d1959081e595d605a1b604082015260600190565b8183526000602080850194508260005b85811015613d96578135613d7b81613179565b6001600160a01b031687529582019590820190600101613d68565b509495945050505050565b8183526000602080850194508260005b85811015613d965763ffffffff613dc7836131d2565b1687529582019590820190600101613db1565b600060018060a01b03808b168352808a16602084015260c06040840152613e0560c08401898b613d58565b8381036060850152613e1881888a613da1565b63ffffffff969096166080850152509290921660a090910152509695505050505050565b608081526000613e5060808301888a613d58565b8281036020840152613e63818789613da1565b63ffffffff95909516604084015250506001600160a01b0391909116606090910152949350505050565b600060208284031215613e9f57600080fd5b8151612b7981613179565b600181811c90821680613ebe57607f821691505b60208210811415613edf57634e487b7160e01b600052602260045260246000fd5b50919050565b634e487b7160e01b600052603260045260246000fd5b634e487b7160e01b600052601160045260246000fd5b6000600019821415613f2557613f25613efb565b5060010190565b6000816000190483118215151615613f4657613f46613efb565b500290565b600082613f6857634e487b7160e01b600052601260045260246000fd5b500490565b60008219821115613f8057613f80613efb565b500190565b6020808252818101527f507572636861736520776f756c6420657863656564206d617820737570706c79604082015260600190565b600060208284031215613fcc57600080fd5b5051919050565b600060018060a01b03808a16835260a06020840152613ff660a08401898b613d58565b838103604085015261400981888a613da1565b63ffffffff96909616606085015250929092166080909101525095945050505050565b60006020828403121561403e57600080fd5b81516001600160401b0381111561405457600080fd5b8201601f8101841361406557600080fd5b80516140736136ca82613684565b81815285602083850101111561408857600080fd5b614099826020830160208601613345565b95945050505050565b6020808252602e908201527f496e697469616c697a61626c653a20636f6e747261637420697320616c72656160408201526d191e481a5b9a5d1a585b1a5e995960921b606082015260800190565b60006020828403121561410257600080fd5b8151612b79816137ee565b6001600160a01b038481168252602080830185905260606040840181905284519084018190526000928583019290916080860190855b81811015614161578551851683529483019491830191600101614143565b50909998505050505050505050565b6001600160a01b03858116825284166020820152604081018390526080606082018190526000906141a390830184613371565b9695505050505050565b6000602082840312156141bf57600080fd5b8151612b7981613312565b600083516141dc818460208801613345565b8351908301906141f0818360208801613345565b0194935050505056fe30385c845b448a36257a6a1716e6ad2e1bc2cbe333cde1e69fe849ad6511adfea26469706673582212200db4c7978f6dbd67bfe38d568365719045d4f3a5e9e069623c6a93fd87a63da964736f6c63430008090033",
  "linkReferences": {},
  "deployedLinkReferences": {}
}