{
  "_format": "hh-sol-artifact-1",
  "contractName": "ZKEdition",
  "sourceName": "contracts/ZKEdition.sol",
  "abi": [
    {
      "inputs": [],
      "name": "ApprovalCallerNotOwnerNorApproved",
      "type": "error"
    },
    {
      "inputs": [],
      "name": "ApprovalQueryForNonexistentToken",
      "type": "error"
    },
    {
      "inputs": [],
      "name": "ApproveToCaller",
      "type": "error"
    },
    {
      "inputs": [],
      "name": "BalanceQueryForZeroAddress",
      "type": "error"
    },
    {
      "inputs": [],
      "name": "MintERC2309QuantityExceedsLimit",
      "type": "error"
    },
    {
      "inputs": [],
      "name": "MintToZeroAddress",
      "type": "error"
    },
    {
      "inputs": [],
      "name": "MintZeroQuantity",
      "type": "error"
    },
    {
      "inputs": [
        {
          "internalType": "address",
          "name": "operator",
          "type": "address"
        }
      ],
      "name": "OperatorNotAllowed",
      "type": "error"
    },
    {
      "inputs": [],
      "name": "OwnerQueryForNonexistentToken",
      "type": "error"
    },
    {
      "inputs": [],
      "name": "OwnershipNotInitializedForExtraData",
      "type": "error"
    },
    {
      "inputs": [],
      "name": "TransferCallerNotOwnerNorApproved",
      "type": "error"
    },
    {
      "inputs": [],
      "name": "TransferFromIncorrectOwner",
      "type": "error"
    },
    {
      "inputs": [],
      "name": "TransferToNonERC721ReceiverImplementer",
      "type": "error"
    },
    {
      "inputs": [],
      "name": "TransferToZeroAddress",
      "type": "error"
    },
    {
      "inputs": [],
      "name": "URIQueryForNonexistentToken",
      "type": "error"
    },
    {
      "anonymous": false,
      "inputs": [
        {
          "indexed": true,
          "internalType": "address",
          "name": "owner",
          "type": "address"
        },
        {
          "indexed": true,
          "internalType": "address",
          "name": "approved",
          "type": "address"
        },
        {
          "indexed": true,
          "internalType": "uint256",
          "name": "tokenId",
          "type": "uint256"
        }
      ],
      "name": "Approval",
      "type": "event"
    },
    {
      "anonymous": false,
      "inputs": [
        {
          "indexed": true,
          "internalType": "address",
          "name": "owner",
          "type": "address"
        },
        {
          "indexed": true,
          "internalType": "address",
          "name": "operator",
          "type": "address"
        },
        {
          "indexed": false,
          "internalType": "bool",
          "name": "approved",
          "type": "bool"
        }
      ],
      "name": "ApprovalForAll",
      "type": "event"
    },
    {
      "anonymous": false,
      "inputs": [
        {
          "indexed": true,
          "internalType": "uint256",
          "name": "fromTokenId",
          "type": "uint256"
        },
        {
          "indexed": false,
          "internalType": "uint256",
          "name": "toTokenId",
          "type": "uint256"
        },
        {
          "indexed": true,
          "internalType": "address",
          "name": "from",
          "type": "address"
        },
        {
          "indexed": true,
          "internalType": "address",
          "name": "to",
          "type": "address"
        }
      ],
      "name": "ConsecutiveTransfer",
      "type": "event"
    },
    {
      "anonymous": false,
      "inputs": [
        {
          "indexed": false,
          "internalType": "uint8",
          "name": "version",
          "type": "uint8"
        }
      ],
      "name": "Initialized",
      "type": "event"
    },
    {
      "anonymous": false,
      "inputs": [
        {
          "indexed": false,
          "internalType": "address",
          "name": "sender",
          "type": "address"
        },
        {
          "indexed": false,
          "internalType": "uint256",
          "name": "tokenId_",
          "type": "uint256"
        }
      ],
      "name": "Minted",
      "type": "event"
    },
    {
      "anonymous": false,
      "inputs": [
        {
          "indexed": true,
          "internalType": "address",
          "name": "previousOwner",
          "type": "address"
        },
        {
          "indexed": true,
          "internalType": "address",
          "name": "newOwner",
          "type": "address"
        }
      ],
      "name": "OwnershipTransferred",
      "type": "event"
    },
    {
      "anonymous": false,
      "inputs": [
        {
          "indexed": true,
          "internalType": "bytes32",
          "name": "role",
          "type": "bytes32"
        },
        {
          "indexed": true,
          "internalType": "bytes32",
          "name": "previousAdminRole",
          "type": "bytes32"
        },
        {
          "indexed": true,
          "internalType": "bytes32",
          "name": "newAdminRole",
          "type": "bytes32"
        }
      ],
      "name": "RoleAdminChanged",
      "type": "event"
    },
    {
      "anonymous": false,
      "inputs": [
        {
          "indexed": true,
          "internalType": "bytes32",
          "name": "role",
          "type": "bytes32"
        },
        {
          "indexed": true,
          "internalType": "address",
          "name": "account",
          "type": "address"
        },
        {
          "indexed": true,
          "internalType": "address",
          "name": "sender",
          "type": "address"
        }
      ],
      "name": "RoleGranted",
      "type": "event"
    },
    {
      "anonymous": false,
      "inputs": [
        {
          "indexed": true,
          "internalType": "bytes32",
          "name": "role",
          "type": "bytes32"
        },
        {
          "indexed": true,
          "internalType": "address",
          "name": "account",
          "type": "address"
        },
        {
          "indexed": true,
          "internalType": "address",
          "name": "sender",
          "type": "address"
        }
      ],
      "name": "RoleRevoked",
      "type": "event"
    },
    {
      "anonymous": false,
      "inputs": [
        {
          "indexed": true,
          "internalType": "address",
          "name": "from",
          "type": "address"
        },
        {
          "indexed": true,
          "internalType": "address",
          "name": "to",
          "type": "address"
        },
        {
          "indexed": true,
          "internalType": "uint256",
          "name": "tokenId",
          "type": "uint256"
        }
      ],
      "name": "Transfer",
      "type": "event"
    },
    {
      "inputs": [],
      "name": "DEFAULT_ADMIN_ROLE",
      "outputs": [
        {
          "internalType": "bytes32",
          "name": "",
          "type": "bytes32"
        }
      ],
      "stateMutability": "view",
      "type": "function"
    },
    {
      "inputs": [],
      "name": "MAX_TOKENS",
      "outputs": [
        {
          "internalType": "uint256",
          "name": "",
          "type": "uint256"
        }
      ],
      "stateMutability": "view",
      "type": "function"
    },
    {
      "inputs": [
        {
          "internalType": "uint256",
          "name": "newCap",
          "type": "uint256"
        }
      ],
      "name": "adjustCap",
      "outputs": [],
      "stateMutability": "nonpayable",
      "type": "function"
    },
    {
      "inputs": [
        {
          "internalType": "address",
          "name": "operator",
          "type": "address"
        },
        {
          "internalType": "uint256",
          "name": "tokenId",
          "type": "uint256"
        }
      ],
      "name": "approve",
      "outputs": [],
      "stateMutability": "nonpayable",
      "type": "function"
    },
    {
      "inputs": [
        {
          "internalType": "address",
          "name": "owner",
          "type": "address"
        }
      ],
      "name": "balanceOf",
      "outputs": [
        {
          "internalType": "uint256",
          "name": "",
          "type": "uint256"
        }
      ],
      "stateMutability": "view",
      "type": "function"
    },
    {
      "inputs": [],
      "name": "baseURI",
      "outputs": [
        {
          "internalType": "string",
          "name": "",
          "type": "string"
        }
      ],
      "stateMutability": "view",
      "type": "function"
    },
    {
      "inputs": [],
      "name": "contractURI",
      "outputs": [
        {
          "internalType": "string",
          "name": "",
          "type": "string"
        }
      ],
      "stateMutability": "view",
      "type": "function"
    },
    {
      "inputs": [],
      "name": "contractVersion",
      "outputs": [
        {
          "internalType": "uint32",
          "name": "",
          "type": "uint32"
        }
      ],
      "stateMutability": "view",
      "type": "function"
    },
    {
      "inputs": [
        {
          "internalType": "address[]",
          "name": "accounts",
          "type": "address[]"
        },
        {
          "internalType": "uint32[]",
          "name": "percentAllocations",
          "type": "uint32[]"
        },
        {
          "internalType": "uint32",
          "name": "distributorFee",
          "type": "uint32"
        }
      ],
      "name": "createSplit",
      "outputs": [],
      "stateMutability": "nonpayable",
      "type": "function"
    },
    {
      "inputs": [
        {
          "internalType": "address",
          "name": "account",
          "type": "address"
        },
        {
          "internalType": "uint256",
          "name": "withdrawETH",
          "type": "uint256"
        },
        {
          "internalType": "contract ERC20[]",
          "name": "tokens",
          "type": "address[]"
        },
        {
          "internalType": "address[]",
          "name": "accounts",
          "type": "address[]"
        },
        {
          "internalType": "uint32[]",
          "name": "percentAllocations",
          "type": "uint32[]"
        },
        {
          "internalType": "uint32",
          "name": "distributorFee",
          "type": "uint32"
        },
        {
          "internalType": "address",
          "name": "distributorAddress",
          "type": "address"
        }
      ],
      "name": "distributeAndWithdraw",
      "outputs": [],
      "stateMutability": "nonpayable",
      "type": "function"
    },
    {
      "inputs": [
        {
          "internalType": "contract ERC20",
          "name": "token",
          "type": "address"
        },
        {
          "internalType": "address[]",
          "name": "accounts",
          "type": "address[]"
        },
        {
          "internalType": "uint32[]",
          "name": "percentAllocations",
          "type": "uint32[]"
        },
        {
          "internalType": "uint32",
          "name": "distributorFee",
          "type": "uint32"
        },
        {
          "internalType": "address",
          "name": "distributorAddress",
          "type": "address"
        }
      ],
      "name": "distributeERC20",
      "outputs": [],
      "stateMutability": "nonpayable",
      "type": "function"
    },
    {
      "inputs": [
        {
          "internalType": "address[]",
          "name": "accounts",
          "type": "address[]"
        },
        {
          "internalType": "uint32[]",
          "name": "percentAllocations",
          "type": "uint32[]"
        },
        {
          "internalType": "uint32",
          "name": "distributorFee",
          "type": "uint32"
        },
        {
          "internalType": "address",
          "name": "distributorAddress",
          "type": "address"
        }
      ],
      "name": "distributeETH",
      "outputs": [],
      "stateMutability": "nonpayable",
      "type": "function"
    },
    {
      "inputs": [],
      "name": "flipSaleState",
      "outputs": [],
      "stateMutability": "nonpayable",
      "type": "function"
    },
    {
      "inputs": [
        {
          "internalType": "uint256",
          "name": "tokenId",
          "type": "uint256"
        }
      ],
      "name": "getApproved",
      "outputs": [
        {
          "internalType": "address",
          "name": "",
          "type": "address"
        }
      ],
      "stateMutability": "view",
      "type": "function"
    },
    {
      "inputs": [
        {
          "internalType": "bytes32",
          "name": "role",
          "type": "bytes32"
        }
      ],
      "name": "getRoleAdmin",
      "outputs": [
        {
          "internalType": "bytes32",
          "name": "",
          "type": "bytes32"
        }
      ],
      "stateMutability": "view",
      "type": "function"
    },
    {
      "inputs": [
        {
          "internalType": "bytes32",
          "name": "role",
          "type": "bytes32"
        },
        {
          "internalType": "address",
          "name": "account",
          "type": "address"
        }
      ],
      "name": "grantRole",
      "outputs": [],
      "stateMutability": "nonpayable",
      "type": "function"
    },
    {
      "inputs": [],
      "name": "hasAdjustableCap",
      "outputs": [
        {
          "internalType": "bool",
          "name": "",
          "type": "bool"
        }
      ],
      "stateMutability": "view",
      "type": "function"
    },
    {
      "inputs": [
        {
          "internalType": "bytes32",
          "name": "role",
          "type": "bytes32"
        },
        {
          "internalType": "address",
          "name": "account",
          "type": "address"
        }
      ],
      "name": "hasRole",
      "outputs": [
        {
          "internalType": "bool",
          "name": "",
          "type": "bool"
        }
      ],
      "stateMutability": "view",
      "type": "function"
    },
    {
      "inputs": [
        {
          "internalType": "address",
          "name": "_owner",
          "type": "address"
        },
        {
          "components": [
            {
              "internalType": "string",
              "name": "name",
              "type": "string"
            },
            {
              "internalType": "string",
              "name": "symbol",
              "type": "string"
            },
            {
              "internalType": "bool",
              "name": "hasAdjustableCap",
              "type": "bool"
            },
            {
              "internalType": "bool",
              "name": "isSoulbound",
              "type": "bool"
            },
            {
              "internalType": "uint256",
              "name": "maxTokens",
              "type": "uint256"
            },
            {
              "internalType": "uint256",
              "name": "tokenPrice",
              "type": "uint256"
            },
            {
              "internalType": "uint256",
              "name": "maxTokenPurchase",
              "type": "uint256"
            },
            {
              "internalType": "bytes32",
              "name": "presaleMerkleRoot",
              "type": "bytes32"
            },
            {
              "internalType": "uint256",
              "name": "presaleStart",
              "type": "uint256"
            },
            {
              "internalType": "uint256",
              "name": "presaleEnd",
              "type": "uint256"
            },
            {
              "internalType": "uint256",
              "name": "saleStart",
              "type": "uint256"
            },
            {
              "internalType": "uint256",
              "name": "saleEnd",
              "type": "uint256"
            },
            {
              "internalType": "uint256",
              "name": "royaltyBPS",
              "type": "uint256"
            },
            {
              "internalType": "address",
              "name": "payoutAddress",
              "type": "address"
            }
          ],
          "internalType": "struct EditionConfig",
          "name": "_editionConfig",
          "type": "tuple"
        },
        {
          "components": [
            {
              "internalType": "string",
              "name": "contractURI",
              "type": "string"
            },
            {
              "internalType": "string",
              "name": "metadataURI",
              "type": "string"
            },
            {
              "internalType": "bytes",
              "name": "metadataRendererInit",
              "type": "bytes"
            },
            {
              "internalType": "address",
              "name": "parentIP",
              "type": "address"
            }
          ],
          "internalType": "struct MetadataConfig",
          "name": "_metadataConfig",
          "type": "tuple"
        },
        {
          "components": [
            {
              "internalType": "address",
              "name": "tokenAddress",
              "type": "address"
            },
            {
              "internalType": "uint88",
              "name": "minBalance",
              "type": "uint88"
            },
            {
              "internalType": "enum SaleType",
              "name": "saleType",
              "type": "uint8"
            }
          ],
          "internalType": "struct TokenGateConfig",
          "name": "_tokenGateConfig",
          "type": "tuple"
        },
        {
          "internalType": "address",
          "name": "_metadataRenderer",
          "type": "address"
        },
        {
          "internalType": "address",
          "name": "_splitMain",
          "type": "address"
        }
      ],
      "name": "initialize",
      "outputs": [],
      "stateMutability": "nonpayable",
      "type": "function"
    },
    {
      "inputs": [
        {
          "internalType": "address",
          "name": "_owner",
          "type": "address"
        },
        {
          "components": [
            {
              "internalType": "string",
              "name": "name",
              "type": "string"
            },
            {
              "internalType": "string",
              "name": "symbol",
              "type": "string"
            },
            {
              "internalType": "bool",
              "name": "hasAdjustableCap",
              "type": "bool"
            },
            {
              "internalType": "bool",
              "name": "isSoulbound",
              "type": "bool"
            },
            {
              "internalType": "uint256",
              "name": "maxTokens",
              "type": "uint256"
            },
            {
              "internalType": "uint256",
              "name": "tokenPrice",
              "type": "uint256"
            },
            {
              "internalType": "uint256",
              "name": "maxTokenPurchase",
              "type": "uint256"
            },
            {
              "internalType": "bytes32",
              "name": "presaleMerkleRoot",
              "type": "bytes32"
            },
            {
              "internalType": "uint256",
              "name": "presaleStart",
              "type": "uint256"
            },
            {
              "internalType": "uint256",
              "name": "presaleEnd",
              "type": "uint256"
            },
            {
              "internalType": "uint256",
              "name": "saleStart",
              "type": "uint256"
            },
            {
              "internalType": "uint256",
              "name": "saleEnd",
              "type": "uint256"
            },
            {
              "internalType": "uint256",
              "name": "royaltyBPS",
              "type": "uint256"
            },
            {
              "internalType": "address",
              "name": "payoutAddress",
              "type": "address"
            }
          ],
          "internalType": "struct EditionConfig",
          "name": "_editionConfig",
          "type": "tuple"
        },
        {
          "components": [
            {
              "internalType": "string",
              "name": "contractURI",
              "type": "string"
            },
            {
              "internalType": "string",
              "name": "metadataURI",
              "type": "string"
            },
            {
              "internalType": "bytes",
              "name": "metadataRendererInit",
              "type": "bytes"
            },
            {
              "internalType": "address",
              "name": "parentIP",
              "type": "address"
            }
          ],
          "internalType": "struct MetadataConfig",
          "name": "_metadataConfig",
          "type": "tuple"
        },
        {
          "components": [
            {
              "internalType": "address",
              "name": "tokenAddress",
              "type": "address"
            },
            {
              "internalType": "uint88",
              "name": "minBalance",
              "type": "uint88"
            },
            {
              "internalType": "enum SaleType",
              "name": "saleType",
              "type": "uint8"
            }
          ],
          "internalType": "struct TokenGateConfig",
          "name": "_tokenGateConfig",
          "type": "tuple"
        },
        {
          "internalType": "address",
          "name": "_metadataRenderer",
          "type": "address"
        },
        {
          "internalType": "address",
          "name": "_splitMain",
          "type": "address"
        },
        {
          "internalType": "address",
          "name": "_zkVerifier",
          "type": "address"
        }
      ],
      "name": "initialize",
      "outputs": [],
      "stateMutability": "nonpayable",
      "type": "function"
    },
    {
      "inputs": [
        {
          "internalType": "address",
          "name": "owner",
          "type": "address"
        },
        {
          "internalType": "address",
          "name": "operator",
          "type": "address"
        }
      ],
      "name": "isApprovedForAll",
      "outputs": [
        {
          "internalType": "bool",
          "name": "",
          "type": "bool"
        }
      ],
      "stateMutability": "view",
      "type": "function"
    },
    {
      "inputs": [],
      "name": "isSoulbound",
      "outputs": [
        {
          "internalType": "bool",
          "name": "",
          "type": "bool"
        }
      ],
      "stateMutability": "view",
      "type": "function"
    },
    {
      "inputs": [],
      "name": "maxTokenPurchase",
      "outputs": [
        {
          "internalType": "uint256",
          "name": "",
          "type": "uint256"
        }
      ],
      "stateMutability": "view",
      "type": "function"
    },
    {
      "inputs": [],
      "name": "metadataRenderer",
      "outputs": [
        {
          "internalType": "address",
          "name": "",
          "type": "address"
        }
      ],
      "stateMutability": "view",
      "type": "function"
    },
    {
      "inputs": [
        {
          "internalType": "address",
          "name": "to",
          "type": "address"
        },
        {
          "internalType": "uint256",
          "name": "numberOfTokens",
          "type": "uint256"
        }
      ],
      "name": "mint",
      "outputs": [],
      "stateMutability": "payable",
      "type": "function"
    },
    {
      "inputs": [
        {
          "internalType": "address[]",
          "name": "recipients",
          "type": "address[]"
        }
      ],
      "name": "mintAirdrop",
      "outputs": [],
      "stateMutability": "nonpayable",
      "type": "function"
    },
    {
      "inputs": [
        {
          "internalType": "uint256",
          "name": "quantity",
          "type": "uint256"
        },
        {
          "internalType": "uint256",
          "name": "maxQuantity",
          "type": "uint256"
        },
        {
          "internalType": "uint256",
          "name": "pricePerToken",
          "type": "uint256"
        },
        {
          "internalType": "bytes32[]",
          "name": "merkleProof",
          "type": "bytes32[]"
        }
      ],
      "name": "mintPresale",
      "outputs": [],
      "stateMutability": "payable",
      "type": "function"
    },
    {
      "inputs": [],
      "name": "name",
      "outputs": [
        {
          "internalType": "string",
          "name": "",
          "type": "string"
        }
      ],
      "stateMutability": "view",
      "type": "function"
    },
    {
      "inputs": [],
      "name": "operatorFilterRegistry",
      "outputs": [
        {
          "internalType": "contract IOperatorFilterRegistry",
          "name": "",
          "type": "address"
        }
      ],
      "stateMutability": "view",
      "type": "function"
    },
    {
      "inputs": [],
      "name": "owner",
      "outputs": [
        {
          "internalType": "address",
          "name": "",
          "type": "address"
        }
      ],
      "stateMutability": "view",
      "type": "function"
    },
    {
      "inputs": [
        {
          "internalType": "uint256",
          "name": "tokenId",
          "type": "uint256"
        }
      ],
      "name": "ownerOf",
      "outputs": [
        {
          "internalType": "address",
          "name": "",
          "type": "address"
        }
      ],
      "stateMutability": "view",
      "type": "function"
    },
    {
      "inputs": [],
      "name": "parentIP",
      "outputs": [
        {
          "internalType": "address",
          "name": "",
          "type": "address"
        }
      ],
      "stateMutability": "view",
      "type": "function"
    },
    {
      "inputs": [],
      "name": "payoutAddress",
      "outputs": [
        {
          "internalType": "address",
          "name": "",
          "type": "address"
        }
      ],
      "stateMutability": "view",
      "type": "function"
    },
    {
      "inputs": [],
      "name": "presaleEnd",
      "outputs": [
        {
          "internalType": "uint256",
          "name": "",
          "type": "uint256"
        }
      ],
      "stateMutability": "view",
      "type": "function"
    },
    {
      "inputs": [],
      "name": "presaleMerkleRoot",
      "outputs": [
        {
          "internalType": "bytes32",
          "name": "",
          "type": "bytes32"
        }
      ],
      "stateMutability": "view",
      "type": "function"
    },
    {
      "inputs": [],
      "name": "presaleStart",
      "outputs": [
        {
          "internalType": "uint256",
          "name": "",
          "type": "uint256"
        }
      ],
      "stateMutability": "view",
      "type": "function"
    },
    {
      "inputs": [],
      "name": "renounceOwnership",
      "outputs": [],
      "stateMutability": "nonpayable",
      "type": "function"
    },
    {
      "inputs": [
        {
          "internalType": "bytes32",
          "name": "role",
          "type": "bytes32"
        },
        {
          "internalType": "address",
          "name": "account",
          "type": "address"
        }
      ],
      "name": "renounceRole",
      "outputs": [],
      "stateMutability": "nonpayable",
      "type": "function"
    },
    {
      "inputs": [
        {
          "internalType": "uint256",
          "name": "numReserved",
          "type": "uint256"
        }
      ],
      "name": "reserveDCNT",
      "outputs": [],
      "stateMutability": "nonpayable",
      "type": "function"
    },
    {
      "inputs": [
        {
          "internalType": "bytes32",
          "name": "role",
          "type": "bytes32"
        },
        {
          "internalType": "address",
          "name": "account",
          "type": "address"
        }
      ],
      "name": "revokeRole",
      "outputs": [],
      "stateMutability": "nonpayable",
      "type": "function"
    },
    {
      "inputs": [],
      "name": "royaltyBPS",
      "outputs": [
        {
          "internalType": "uint256",
          "name": "",
          "type": "uint256"
        }
      ],
      "stateMutability": "view",
      "type": "function"
    },
    {
      "inputs": [
        {
          "internalType": "uint256",
          "name": "tokenId",
          "type": "uint256"
        },
        {
          "internalType": "uint256",
          "name": "salePrice",
          "type": "uint256"
        }
      ],
      "name": "royaltyInfo",
      "outputs": [
        {
          "internalType": "address",
          "name": "receiver",
          "type": "address"
        },
        {
          "internalType": "uint256",
          "name": "royaltyAmount",
          "type": "uint256"
        }
      ],
      "stateMutability": "view",
      "type": "function"
    },
    {
      "inputs": [
        {
          "internalType": "address",
          "name": "from",
          "type": "address"
        },
        {
          "internalType": "address",
          "name": "to",
          "type": "address"
        },
        {
          "internalType": "uint256",
          "name": "tokenId",
          "type": "uint256"
        }
      ],
      "name": "safeTransferFrom",
      "outputs": [],
      "stateMutability": "nonpayable",
      "type": "function"
    },
    {
      "inputs": [
        {
          "internalType": "address",
          "name": "from",
          "type": "address"
        },
        {
          "internalType": "address",
          "name": "to",
          "type": "address"
        },
        {
          "internalType": "uint256",
          "name": "tokenId",
          "type": "uint256"
        },
        {
          "internalType": "bytes",
          "name": "_data",
          "type": "bytes"
        }
      ],
      "name": "safeTransferFrom",
      "outputs": [],
      "stateMutability": "nonpayable",
      "type": "function"
    },
    {
      "inputs": [],
      "name": "saleEnd",
      "outputs": [
        {
          "internalType": "uint256",
          "name": "",
          "type": "uint256"
        }
      ],
      "stateMutability": "view",
      "type": "function"
    },
    {
      "inputs": [],
      "name": "saleIsActive",
      "outputs": [
        {
          "internalType": "bool",
          "name": "_saleIsActive",
          "type": "bool"
        }
      ],
      "stateMutability": "view",
      "type": "function"
    },
    {
      "inputs": [],
      "name": "saleIsPaused",
      "outputs": [
        {
          "internalType": "bool",
          "name": "",
          "type": "bool"
        }
      ],
      "stateMutability": "view",
      "type": "function"
    },
    {
      "inputs": [],
      "name": "saleStart",
      "outputs": [
        {
          "internalType": "uint256",
          "name": "",
          "type": "uint256"
        }
      ],
      "stateMutability": "view",
      "type": "function"
    },
    {
      "inputs": [
        {
          "internalType": "address",
          "name": "operator",
          "type": "address"
        },
        {
          "internalType": "bool",
          "name": "approved",
          "type": "bool"
        }
      ],
      "name": "setApprovalForAll",
      "outputs": [],
      "stateMutability": "nonpayable",
      "type": "function"
    },
    {
      "inputs": [
        {
          "internalType": "string",
          "name": "uri",
          "type": "string"
        }
      ],
      "name": "setBaseURI",
      "outputs": [],
      "stateMutability": "nonpayable",
      "type": "function"
    },
    {
      "inputs": [
        {
          "internalType": "string",
          "name": "uri",
          "type": "string"
        }
      ],
      "name": "setContractURI",
      "outputs": [],
      "stateMutability": "nonpayable",
      "type": "function"
    },
    {
      "inputs": [
        {
          "internalType": "address",
          "name": "_metadataRenderer",
          "type": "address"
        }
      ],
      "name": "setMetadataRenderer",
      "outputs": [],
      "stateMutability": "nonpayable",
      "type": "function"
    },
    {
      "inputs": [
        {
          "internalType": "address",
          "name": "_payoutAddress",
          "type": "address"
        }
      ],
      "name": "setPayoutAddress",
      "outputs": [],
      "stateMutability": "nonpayable",
      "type": "function"
    },
    {
      "inputs": [
        {
          "internalType": "bytes32",
          "name": "_presaleMerkleRoot",
          "type": "bytes32"
        }
      ],
      "name": "setPresaleMerkleRoot",
      "outputs": [],
      "stateMutability": "nonpayable",
      "type": "function"
    },
    {
      "inputs": [
        {
          "internalType": "address",
          "name": "_zkVerifier",
          "type": "address"
        }
      ],
      "name": "setZKVerifier",
      "outputs": [],
      "stateMutability": "nonpayable",
      "type": "function"
    },
    {
      "inputs": [],
      "name": "splitMain",
      "outputs": [
        {
          "internalType": "address",
          "name": "",
          "type": "address"
        }
      ],
      "stateMutability": "view",
      "type": "function"
    },
    {
      "inputs": [],
      "name": "splitWallet",
      "outputs": [
        {
          "internalType": "address",
          "name": "",
          "type": "address"
        }
      ],
      "stateMutability": "view",
      "type": "function"
    },
    {
      "inputs": [
        {
          "internalType": "bytes4",
          "name": "interfaceId",
          "type": "bytes4"
        }
      ],
      "name": "supportsInterface",
      "outputs": [
        {
          "internalType": "bool",
          "name": "",
          "type": "bool"
        }
      ],
      "stateMutability": "view",
      "type": "function"
    },
    {
      "inputs": [],
      "name": "symbol",
      "outputs": [
        {
          "internalType": "string",
          "name": "",
          "type": "string"
        }
      ],
      "stateMutability": "view",
      "type": "function"
    },
    {
      "inputs": [],
      "name": "tokenGateConfig",
      "outputs": [
        {
          "internalType": "address",
          "name": "tokenAddress",
          "type": "address"
        },
        {
          "internalType": "uint88",
          "name": "minBalance",
          "type": "uint88"
        },
        {
          "internalType": "enum SaleType",
          "name": "saleType",
          "type": "uint8"
        }
      ],
      "stateMutability": "view",
      "type": "function"
    },
    {
      "inputs": [],
      "name": "tokenPrice",
      "outputs": [
        {
          "internalType": "uint256",
          "name": "",
          "type": "uint256"
        }
      ],
      "stateMutability": "view",
      "type": "function"
    },
    {
      "inputs": [
        {
          "internalType": "uint256",
          "name": "tokenId",
          "type": "uint256"
        }
      ],
      "name": "tokenURI",
      "outputs": [
        {
          "internalType": "string",
          "name": "",
          "type": "string"
        }
      ],
      "stateMutability": "view",
      "type": "function"
    },
    {
      "inputs": [],
      "name": "totalSupply",
      "outputs": [
        {
          "internalType": "uint256",
          "name": "",
          "type": "uint256"
        }
      ],
      "stateMutability": "view",
      "type": "function"
    },
    {
      "inputs": [
        {
          "internalType": "address",
          "name": "from",
          "type": "address"
        },
        {
          "internalType": "address",
          "name": "to",
          "type": "address"
        },
        {
          "internalType": "uint256",
          "name": "tokenId",
          "type": "uint256"
        }
      ],
      "name": "transferFrom",
      "outputs": [],
      "stateMutability": "nonpayable",
      "type": "function"
    },
    {
      "inputs": [
        {
          "internalType": "address",
          "name": "newOwner",
          "type": "address"
        }
      ],
      "name": "transferOwnership",
      "outputs": [],
      "stateMutability": "nonpayable",
      "type": "function"
    },
    {
      "inputs": [
        {
          "internalType": "uint256",
          "name": "transferETH",
          "type": "uint256"
        },
        {
          "internalType": "contract ERC20[]",
          "name": "tokens",
          "type": "address[]"
        }
      ],
      "name": "transferToSplit",
      "outputs": [],
      "stateMutability": "nonpayable",
      "type": "function"
    },
    {
      "inputs": [
        {
          "internalType": "bool",
          "name": "enable",
          "type": "bool"
        },
        {
          "internalType": "address",
          "name": "operatorFilter",
          "type": "address"
        }
      ],
      "name": "updateOperatorFilter",
      "outputs": [],
      "stateMutability": "nonpayable",
      "type": "function"
    },
    {
      "inputs": [
        {
          "internalType": "uint256",
          "name": "newStart",
          "type": "uint256"
        },
        {
          "internalType": "uint256",
          "name": "newEnd",
          "type": "uint256"
        }
      ],
      "name": "updatePresaleStartEnd",
      "outputs": [],
      "stateMutability": "nonpayable",
      "type": "function"
    },
    {
      "inputs": [
        {
          "internalType": "uint256",
          "name": "newStart",
          "type": "uint256"
        },
        {
          "internalType": "uint256",
          "name": "newEnd",
          "type": "uint256"
        }
      ],
      "name": "updateSaleStartEnd",
      "outputs": [],
      "stateMutability": "nonpayable",
      "type": "function"
    },
    {
      "inputs": [],
      "name": "withdraw",
      "outputs": [],
      "stateMutability": "nonpayable",
      "type": "function"
    },
    {
      "inputs": [
        {
          "internalType": "address",
          "name": "recipient",
          "type": "address"
        }
      ],
      "name": "zkClaim",
      "outputs": [],
      "stateMutability": "nonpayable",
      "type": "function"
    },
    {
      "inputs": [],
      "name": "zkVerifier",
      "outputs": [
        {
          "internalType": "address",
          "name": "",
          "type": "address"
        }
      ],
      "stateMutability": "view",
      "type": "function"
    }
  ],
  "bytecode": "0x60a06040523480156200001157600080fd5b5060066200001f336200002e565b63ffffffff166080526200008a565b600a80546001600160a01b038381166201000081810262010000600160b01b031985161790945560405193909204169182907f8be0079c531659141344cd1fd0a4f28419497f9722a3daafe3b4186f6b6457e090600090a35050565b608051614f34620000a660003960006109ee0152614f346000f3fe60806040526004361061041a5760003560e01c8063715018a61161021e578063c4559d5a11610123578063e6c350c1116100ab578063f0cc8b621161007a578063f0cc8b6214610c94578063f2fde38b14610cb4578063f47c84c514610cd4578063f7eca6d014610cea578063fd4fe8a814610d0957600080fd5b8063e6c350c114610c07578063e8a3d48514610c21578063e985e9c514610c36578063eb8d244414610c7f57600080fd5b8063d547741f116100f2578063d547741f14610b71578063d58d458a14610b91578063d6df096d14610bb1578063de8801e514610bd1578063e24c424d14610be757600080fd5b8063c4559d5a14610af1578063c509034614610b11578063c595317014610b31578063c87b56dd14610b5157600080fd5b8063a0a8e460116101a6578063b0ccc31e11610175578063b0ccc31e14610a63578063b88d4fde14610a85578063b9139dcb14610aa5578063b9c9d93a14610ac5578063c10b935814610adb57600080fd5b8063a0a8e460146109d7578063a217fddf14610a18578063a22cb46514610a2d578063ab0bcc4114610a4d57600080fd5b80638da5cb5b116101ed5780638da5cb5b1461094457806391d1485414610968578063931cf0f414610988578063938e3d7b146109a257806395d89b41146109c257600080fd5b8063715018a6146108e6578063727a612e146108fb57806379ab7c8e1461090e5780637ff9b5961461092e57600080fd5b80632d75fea6116103245780635799dbdd116102ac5780636c0360eb1161027b5780636c0360eb146108515780636c1951ae14610866578063703199701461088657806370a08231146108a6578063713b9787146108c657600080fd5b80635799dbdd146107d15780635881b4b0146107f15780635b8d02d7146108115780636352211e1461083157600080fd5b806336568abe116102f357806336568abe146107495780633ccfd60b1461076957806340c10f191461077e57806342842e0e1461079157806355f804b3146107b157600080fd5b80632d75fea6146106d45780632f2ff15d146106f457806333ea51a81461071457806334918dfd1461073457600080fd5b806318160ddd116103a757806323b872dd1161037657806323b872dd14610605578063248a9ca314610625578063284a44a81461065557806328d7b276146106755780632a55205a1461069557600080fd5b806318160ddd146105745780631dbdedbd1461058d57806322212e2b146105d9578063229f3e29146105ef57600080fd5b8063081812fc116103ee578063081812fc146104b8578063095ea7b3146104f057806309aa3dcf146105105780630e769b2b1461053457806317dc25871461055457600080fd5b80625f16fb1461041f578063015893c51461044157806301ffc9a71461046157806306fdde0314610496575b600080fd5b34801561042b57600080fd5b5061043f61043a366004613cd1565b610d29565b005b34801561044d57600080fd5b5061043f61045c366004613d78565b610e06565b34801561046d57600080fd5b5061048161047c366004613e0e565b610f80565b60405190151581526020015b60405180910390f35b3480156104a257600080fd5b506104ab610fc9565b60405161048d9190613e7b565b3480156104c457600080fd5b506104d86104d3366004613e8e565b61105b565b6040516001600160a01b03909116815260200161048d565b3480156104fc57600080fd5b5061043f61050b366004613ea7565b61109f565b34801561051c57600080fd5b50610526600d5481565b60405190815260200161048d565b34801561054057600080fd5b50601a546104d8906001600160a01b031681565b34801561056057600080fd5b5061043f61056f366004613ed3565b6110b8565b34801561058057600080fd5b5060015460005403610526565b34801561059957600080fd5b506009546105ca906001600160a01b03811690600160a01b81046001600160581b031690600160f81b900460ff1683565b60405161048d93929190613f0b565b3480156105e557600080fd5b5061052660195481565b3480156105fb57600080fd5b5061052660185481565b34801561061157600080fd5b5061043f610620366004613f56565b6110ea565b34801561063157600080fd5b50610526610640366004613e8e565b60009081526008602052604090206001015490565b34801561066157600080fd5b5061043f61067036600461408e565b61128c565b34801561068157600080fd5b5061043f610690366004613e8e565b611335565b3480156106a157600080fd5b506106b56106b0366004613ed3565b611361565b604080516001600160a01b03909316835260208301919091520161048d565b3480156106e057600080fd5b5061043f6106ef36600461417b565b611432565b34801561070057600080fd5b5061043f61070f3660046141b4565b61163f565b34801561072057600080fd5b5061043f61072f3660046141d9565b611664565b34801561074057600080fd5b5061043f6116ad565b34801561075557600080fd5b5061043f6107643660046141b4565b6116e8565b34801561077557600080fd5b5061043f611766565b61043f61078c366004613ea7565b6118ad565b34801561079d57600080fd5b5061043f6107ac366004613f56565b611c2f565b3480156107bd57600080fd5b5061043f6107cc366004614273565b611c4a565b3480156107dd57600080fd5b5061043f6107ec366004613ed3565b611c7d565b3480156107fd57600080fd5b5061043f61080c3660046144f0565b611caf565b34801561081d57600080fd5b506016546104d8906001600160a01b031681565b34801561083d57600080fd5b506104d861084c366004613e8e565b611f99565b34801561085d57600080fd5b506104ab611fa4565b34801561087257600080fd5b5061043f610881366004613e8e565b612032565b34801561089257600080fd5b506014546104d8906001600160a01b031681565b3480156108b257600080fd5b506105266108c13660046141d9565b6120c1565b3480156108d257600080fd5b50601b546104d8906001600160a01b031681565b3480156108f257600080fd5b5061043f61210f565b61043f61090936600461459e565b612123565b34801561091a57600080fd5b5061043f6109293660046145fe565b61250d565b34801561093a57600080fd5b50610526600c5481565b34801561095057600080fd5b50600a546201000090046001600160a01b03166104d8565b34801561097457600080fd5b506104816109833660046141b4565b612593565b34801561099457600080fd5b50600e546104819060ff1681565b3480156109ae57600080fd5b5061043f6109bd366004614273565b6125be565b3480156109ce57600080fd5b506104ab6125f1565b3480156109e357600080fd5b5060405163ffffffff7f000000000000000000000000000000000000000000000000000000000000000016815260200161048d565b348015610a2457600080fd5b50610526600081565b348015610a3957600080fd5b5061043f610a4836600461463a565b612600565b348015610a5957600080fd5b50610526600f5481565b348015610a6f57600080fd5b506104d86daaeb6d7670e522a718067333cd4e81565b348015610a9157600080fd5b5061043f610aa0366004614668565b612614565b348015610ab157600080fd5b5061043f610ac03660046141d9565b61265e565b348015610ad157600080fd5b5061052660155481565b348015610ae757600080fd5b5061052660105481565b348015610afd57600080fd5b5061043f610b0c3660046146d3565b612726565b348015610b1d57600080fd5b5061043f610b2c3660046141d9565b6127f6565b348015610b3d57600080fd5b5061043f610b4c366004614758565b612820565b348015610b5d57600080fd5b506104ab610b6c366004613e8e565b61291a565b348015610b7d57600080fd5b5061043f610b8c3660046141b4565b6129cd565b348015610b9d57600080fd5b5061043f610bac366004613e8e565b6129f2565b348015610bbd57600080fd5b50601d546104d8906001600160a01b031681565b348015610bdd57600080fd5b5061052660175481565b348015610bf357600080fd5b5061043f610c02366004614799565b612acc565b348015610c1357600080fd5b506011546104819060ff1681565b348015610c2d57600080fd5b506104ab612dcf565b348015610c4257600080fd5b50610481610c5136600461484c565b6001600160a01b03918216600090815260076020908152604080832093909416825291909152205460ff1690565b348015610c8b57600080fd5b50610481612e6f565b348015610ca057600080fd5b50601c546104d8906001600160a01b031681565b348015610cc057600080fd5b5061043f610ccf3660046141d9565b612e97565b348015610ce057600080fd5b50610526600b5481565b348015610cf657600080fd5b50600e5461048190610100900460ff1681565b348015610d1557600080fd5b5061043f610d243660046141d9565b612f10565b6000610d3d601b546001600160a01b031690565b6001600160a01b031603610d6c5760405162461bcd60e51b8152600401610d639061486a565b60405180910390fd5b610d7587612f59565b601a546001600160a01b03166001600160a01b03166315811302610da1601b546001600160a01b031690565b898989898989896040518963ffffffff1660e01b8152600401610dcb98979695949392919061491b565b600060405180830381600087803b158015610de557600080fd5b505af1158015610df9573d6000803e3d6000fd5b5050505050505050505050565b610e0e613058565b6000610e22601a546001600160a01b031690565b6001600160a01b031603610e6c5760405162461bcd60e51b815260206004820152601160248201527014dc1b1a5d13585a5b881b9bdd081cd95d607a1b6044820152606401610d63565b6000610e80601b546001600160a01b031690565b6001600160a01b031614610ece5760405162461bcd60e51b815260206004820152601560248201527414dc1b1a5d08185b1c9958591e4818dc99585d1959605a1b6044820152606401610d63565b6000610ee2601a546001600160a01b031690565b6001600160a01b0316637601f7828787878787336040518763ffffffff1660e01b8152600401610f179695949392919061497d565b6020604051808303816000875af1158015610f36573d6000803e3d6000fd5b505050506040513d601f19601f82011682018060405250810190610f5a91906149ce565b601b80546001600160a01b0319166001600160a01b03831617905590505b505050505050565b600063152a902d60e11b6001600160e01b031983161480610fa55750610fa5826130b9565b80610fb45750610fb4826130ee565b80610fc35750610fc3826130b9565b92915050565b606060028054610fd8906149eb565b80601f0160208091040260200160405190810160405280929190818152602001828054611004906149eb565b80156110515780601f1061102657610100808354040283529160200191611051565b820191906000526020600020905b81548152906001019060200180831161103457829003601f168201915b5050505050905090565b60006110668261313c565b611083576040516333d1c03960e21b815260040160405180910390fd5b506000908152600660205260409020546001600160a01b031690565b816110a981613163565b6110b3838361321c565b505050565b6110c3600033612593565b6110df5760405162461bcd60e51b8152600401610d6390614a25565b600f91909155601055565b60006110f5826132bc565b9050836001600160a01b0316816001600160a01b0316146111285760405162a1148160e81b815260040160405180910390fd5b60008281526006602052604090208054338082146001600160a01b03881690911417611175576111588633610c51565b61117557604051632ce44b5f60e11b815260040160405180910390fd5b6001600160a01b03851661119c57604051633a954ecd60e21b815260040160405180910390fd5b6111a9868686600161332a565b80156111b457600082555b6001600160a01b038681166000908152600560205260408082208054600019019055918716808252919020805460010190554260a01b17600160e11b17600085815260046020526040812091909155600160e11b84169003611246576001840160008181526004602052604081205490036112445760005481146112445760008181526004602052604090208490555b505b83856001600160a01b0316876001600160a01b03167fddf252ad1be2c89b69c2b068fc378daa952ba7f163c4a11628f55a4df523b3ef60405160405180910390a4610f78565b60006112a0601b546001600160a01b031690565b6001600160a01b0316036112c65760405162461bcd60e51b8152600401610d639061486a565b87156112da576112da868686868686612726565b60005b875181101561131e5761130e8882815181106112fb576112fb614a48565b6020026020010151888888888888610d29565b61131781614a74565b90506112dd565b5061132a8989896133ab565b505050505050505050565b611340600033612593565b61135c5760405162461bcd60e51b8152600401610d6390614a25565b601955565b60008061136d8461313c565b6113ad5760405162461bcd60e51b81526020600482015260116024820152702737b732bc34b9ba32b73a103a37b5b2b760791b6044820152606401610d63565b601b546001600160a01b0316156113d157601b546001600160a01b0316915061140a565b6016546001600160a01b0316156113f5576016546001600160a01b0316915061140a565b600a546201000090046001600160a01b031691505b60006127106015548561141d9190614a8d565b6114279190614aa4565b9150505b9250929050565b61143d600033612593565b6114595760405162461bcd60e51b8152600401610d6390614a25565b60405163c3c5a54760e01b81523060048201819052906daaeb6d7670e522a718067333cd4e9063c3c5a547906024016020604051808303816000875af11580156114a7573d6000803e3d6000fd5b505050506040513d601f19601f820116820180604052508101906114cb9190614ac6565b1580156114d55750825b1561154f57604051633e9f1edf60e11b81526001600160a01b038083166004830152831660248201526daaeb6d7670e522a718067333cd4e90637d3e3dbe906044015b600060405180830381600087803b15801561153257600080fd5b505af1158015611546573d6000803e3d6000fd5b50505050505050565b821561159757604051632cc5350560e21b81526001600160a01b038083166004830152831660248201526daaeb6d7670e522a718067333cd4e9063b314d41490604401611518565b60405163034a0dc160e41b81526001600160a01b0382166004820152600060248201526daaeb6d7670e522a718067333cd4e906334a0dc1090604401600060405180830381600087803b1580156115ed57600080fd5b505af1158015611601573d6000803e3d6000fd5b5050604051631761612360e11b81526001600160a01b03841660048201526daaeb6d7670e522a718067333cd4e9250632ec2c2469150602401611518565b60008281526008602052604090206001015461165a816133df565b6110b383836133e9565b61166f600033612593565b61168b5760405162461bcd60e51b8152600401610d6390614a25565b601680546001600160a01b0319166001600160a01b0392909216919091179055565b6116b8600033612593565b6116d45760405162461bcd60e51b8152600401610d6390614a25565b6011805460ff19811660ff90911615179055565b6001600160a01b03811633146117585760405162461bcd60e51b815260206004820152602f60248201527f416363657373436f6e74726f6c3a2063616e206f6e6c792072656e6f756e636560448201526e103937b632b9903337b91039b2b63360891b6064820152608401610d63565b611762828261346f565b5050565b600061177a601b546001600160a01b031690565b6001600160a01b0316146117dc5760405162461bcd60e51b8152602060048201526024808201527f43616e6e6f74207769746864726177207769746820616e2061637469766520736044820152631c1b1a5d60e21b6064820152608401610d63565b6016546000906001600160a01b031661180657600a546201000090046001600160a01b0316611813565b6016546001600160a01b03165b90506000816001600160a01b03164760405160006040518083038185875af1925050503d8060008114611862576040519150601f19603f3d011682016040523d82523d6000602084013e611867565b606091505b50509050806117625760405162461bcd60e51b8152602060048201526012602482015271436f756c64206e6f7420776974686472617760701b6044820152606401610d63565b6009546000906001600160a01b03161580159061191657506000600954600160f81b900460ff1660028111156118e5576118e5613ef5565b1480611916575080801561191657506001600954600160f81b900460ff16600281111561191457611914613ef5565b145b8061194757508015801561194757506002600954600160f81b900460ff16600281111561194557611945613ef5565b145b15611a13576009546040516370a0823160e01b8152336004820152600160a01b82046001600160581b0316916001600160a01b0316906370a08231906024016020604051808303816000875af11580156119a5573d6000803e3d6000fd5b505050506040513d601f19601f820116820180604052508101906119c99190614ae3565b1015611a135760405162461bcd60e51b81526020600482015260196024820152783237903737ba1037bbb7103932b8bab4b932b2103a37b5b2b760391b6044820152606401610d63565b600054600f544210801590611a2a57506010544211155b611a6e5760405162461bcd60e51b815260206004820152601560248201527429b0b632b99030b932903737ba1030b1ba34bb329760591b6044820152606401610d63565b60115460ff1615611ac15760405162461bcd60e51b815260206004820152601b60248201527f53616c65206d7573742062652061637469766520746f206d696e7400000000006044820152606401610d63565b600b54611ace8483614afc565b1115611aec5760405162461bcd60e51b8152600401610d6390614b0f565b600b54811115611b295760405162461bcd60e51b815260206004820152600860248201526714d3d3110813d55560c21b6044820152606401610d63565b82600c54611b379190614a8d565b341015611b7b5760405162461bcd60e51b8152602060048201526012602482015271496e73756666696369656e742066756e647360701b6044820152606401610d63565b600d5415611bd557600d54831115611bd55760405162461bcd60e51b815260206004820152601c60248201527f4578636565646564206d6178206e756d62657220706572206d696e74000000006044820152606401610d63565b611bdf84846134d6565b60005b83811015611c2857604080516001600160a01b038716815260208101849052600190930192600080516020614edf833981519152910160405180910390a1600101611be2565b5050505050565b6110b383838360405180602001604052806000815250612614565b611c55600033612593565b611c715760405162461bcd60e51b8152600401610d6390614a25565b60126117628282614b8a565b611c88600033612593565b611ca45760405162461bcd60e51b8152600401610d6390614a25565b601791909155601855565b600a54610100900460ff1615808015611ccf5750600a54600160ff909116105b80611ce95750303b158015611ce95750600a5460ff166001145b611d055760405162461bcd60e51b8152600401610d6390614c49565b600a805460ff191660011790558015611d2857600a805461ff0019166101001790555b611d31876134f0565b611d3c6000886133e9565b8551600290611d4b9082614b8a565b506020860151600390611d5e9082614b8a565b50600080556080860151600b5560a0860151600c5560c0860151600d55610140860151600f556101608601516010556101808601516015556101a0860151601680546001600160a01b03199081166001600160a01b0393841617909155604080890151600e80546060808d015161ffff1990921693151561ff0019169390931761010091151591909102179055880151601c80548416918516919091179055601a8054909216858416179091558551600980546020890151929094166001600160f81b031990941693909317600160a01b6001600160581b0390921691909102178083559086015186929182906001600160f81b0316600160f81b836002811115611e6b57611e6b613ef5565b0217905550505060e08601516019556101008601516017556101208601516018556001600160a01b03831615801590611ea957506000856040015151115b15611f2757601480546001600160a01b0319166001600160a01b03851690811790915560408681015190516342b53ffd60e11b815263856a7ffa91611ef091600401613e7b565b600060405180830381600087803b158015611f0a57600080fd5b505af1158015611f1e573d6000803e3d6000fd5b50505050611f4b565b8451601390611f369082614b8a565b506020850151601290611f499082614b8a565b505b801561154657600a805461ff0019169055604051600181527f7f26b83ff96e1f2b6a682f133852f6798a09c465da95921460cefb38474024989060200160405180910390a150505050505050565b6000610fc3826132bc565b60128054611fb1906149eb565b80601f0160208091040260200160405190810160405280929190818152602001828054611fdd906149eb565b801561202a5780601f10611fff5761010080835404028352916020019161202a565b820191906000526020600020905b81548152906001019060200180831161200d57829003601f168201915b505050505081565b61203d600033612593565b6120595760405162461bcd60e51b8152600401610d6390614a25565b600054600b546120698383614afc565b106120865760405162461bcd60e51b8152600401610d6390614b0f565b60005b828110156110b3576120af3361209f8385614afc565b6120aa906001614afc565b6134d6565b806120b981614a74565b915050612089565b60006001600160a01b0382166120ea576040516323d3ad8160e21b815260040160405180910390fd5b506001600160a01b03166000908152600560205260409020546001600160401b031690565b612117613058565b61212160006134f0565b565b6009546001906001600160a01b03161580159061218c57506000600954600160f81b900460ff16600281111561215b5761215b613ef5565b148061218c575080801561218c57506001600954600160f81b900460ff16600281111561218a5761218a613ef5565b145b806121bd5750801580156121bd57506002600954600160f81b900460ff1660028111156121bb576121bb613ef5565b145b15612289576009546040516370a0823160e01b8152336004820152600160a01b82046001600160581b0316916001600160a01b0316906370a08231906024016020604051808303816000875af115801561221b573d6000803e3d6000fd5b505050506040513d601f19601f8201168201806040525081019061223f9190614ae3565b10156122895760405162461bcd60e51b81526020600482015260196024820152783237903737ba1037bbb7103932b8bab4b932b2103a37b5b2b760391b6044820152606401610d63565b601754421015801561229d57506018544211155b6122d75760405162461bcd60e51b815260206004820152600b60248201526a6e6f742070726573616c6560a81b6044820152606401610d63565b60005460115460ff161561232d5760405162461bcd60e51b815260206004820152601b60248201527f53616c65206d7573742062652061637469766520746f206d696e7400000000006044820152606401610d63565b600b5461233a8883614afc565b11156123585760405162461bcd60e51b8152600401610d6390614b0f565b6123db848480806020026020016040519081016040528093929190818152602001838360200280828437600092019190915250506019546040516bffffffffffffffffffffffff193360601b166020820152603481018c9052605481018b905290925060740190506040516020818303038152906040528051906020012061354c565b6124165760405162461bcd60e51b815260206004820152600c60248201526b1b9bdd08185c1c1c9bdd995960a21b6044820152606401610d63565b6124208786614a8d565b3410156124645760405162461bcd60e51b8152602060048201526012602482015271496e73756666696369656e742066756e647360701b6044820152606401610d63565b858761246f336120c1565b6124799190614afc565b11156124b95760405162461bcd60e51b815260206004820152600f60248201526e6d696e74656420746f6f206d616e7960881b6044820152606401610d63565b6124c333886134d6565b60005b87811015612503576040805133815260208101849052600190930192600080516020614edf833981519152910160405180910390a16001016124c6565b5050505050505050565b6000612521601b546001600160a01b031690565b6001600160a01b0316036125475760405162461bcd60e51b8152600401610d639061486a565b811561255557612555613562565b60005b81518110156110b35761258382828151811061257657612576614a48565b6020026020010151612f59565b61258c81614a74565b9050612558565b60009182526008602090815260408084206001600160a01b0393909316845291905290205460ff1690565b6125c9600033612593565b6125e55760405162461bcd60e51b8152600401610d6390614a25565b60136117628282614b8a565b606060038054610fd8906149eb565b8161260a81613163565b6110b38383613616565b61261f8484846110ea565b6001600160a01b0383163b156126585761263b848484846136ab565b612658576040516368d2bf6b60e11b815260040160405180910390fd5b50505050565b601d546001600160a01b031633146126b85760405162461bcd60e51b815260206004820152601860248201527f4f6e6c79207a6b56657269666965722063616e2063616c6c00000000000000006044820152606401610d63565b600054600b546126c9826001614afc565b11156126e75760405162461bcd60e51b8152600401610d6390614b0f565b6126f28260016134d6565b604080516001600160a01b038416815260208101839052600080516020614edf833981519152910160405180910390a15050565b600061273a601b546001600160a01b031690565b6001600160a01b0316036127605760405162461bcd60e51b8152600401610d639061486a565b612768613562565b601a546001600160a01b03166001600160a01b031663e61cb05e612794601b546001600160a01b031690565b8888888888886040518863ffffffff1660e01b81526004016127bc9796959493929190614c97565b600060405180830381600087803b1580156127d657600080fd5b505af11580156127ea573d6000803e3d6000fd5b50505050505050505050565b6127fe613058565b601d80546001600160a01b0319166001600160a01b0392909216919091179055565b61282b600033612593565b6128475760405162461bcd60e51b8152600401610d6390614a25565b600054600b5481906128598483614afc565b11156128775760405162461bcd60e51b8152600401610d6390614b0f565b8183015b80831015611c28576128b6858584860381811061289a5761289a614a48565b90506020020160208101906128af91906141d9565b60016134d6565b600080516020614edf83398151915285858486038181106128d9576128d9614a48565b90506020020160208101906128ee91906141d9565b604080516001600160a01b039092168252602082018690520160405180910390a160019092019161287b565b60606129258261313c565b61294257604051630a14c4b560e41b815260040160405180910390fd5b6014546001600160a01b0316156129c45760145460405163c87b56dd60e01b8152600481018490526001600160a01b039091169063c87b56dd90602401600060405180830381865afa15801561299c573d6000803e3d6000fd5b505050506040513d6000823e601f3d908101601f19168201604052610fc39190810190614cf0565b610fc382613797565b6000828152600860205260409020600101546129e8816133df565b6110b3838361346f565b6129fd600033612593565b612a195760405162461bcd60e51b8152600401610d6390614a25565b600e5460ff16612a795760405162461bcd60e51b815260206004820152602560248201527f63616e6e6f742061646a7573742073697a65206f66207468697320636f6c6c6560448201526431ba34b7b760d91b6064820152608401610d63565b80612a8360005490565b1115612ac75760405162461bcd60e51b8152602060048201526013602482015272063616e6e6f742064656372656173652063617606c1b6044820152606401610d63565b600b55565b600a54610100900460ff1615808015612aec5750600a54600160ff909116105b80612b065750303b158015612b065750600a5460ff166001145b612b225760405162461bcd60e51b8152600401610d6390614c49565b600a805460ff191660011790558015612b4557600a805461ff0019166101001790555b612b4e886134f0565b612b596000896133e9565b8651600290612b689082614b8a565b506020870151600390612b7b9082614b8a565b50600080556080870151600b5560a0870151600c5560c0870151600d55610140870151600f556101608701516010556101808701516015556101a0870151601680546001600160a01b03199081166001600160a01b03938416179091556040808a0151600e80546060808e015161ffff1990921693151561ff0019169390931761010091151591909102179055890151601c80548416918516919091179055601a80549092168684161790915586516009805460208a0151929094166001600160f81b031990941693909317600160a01b6001600160581b0390921691909102178083559087015187929182906001600160f81b0316600160f81b836002811115612c8857612c88613ef5565b0217905550505060e0870151601955610100870151601755610120870151601855601d80546001600160a01b0319166001600160a01b0384811691909117909155841615801590612cde57506000866040015151115b15612d5c57601480546001600160a01b0319166001600160a01b03861690811790915560408781015190516342b53ffd60e11b815263856a7ffa91612d2591600401613e7b565b600060405180830381600087803b158015612d3f57600080fd5b505af1158015612d53573d6000803e3d6000fd5b50505050612d80565b8551601390612d6b9082614b8a565b506020860151601290612d7e9082614b8a565b505b801561250357600a805461ff0019169055604051600181527f7f26b83ff96e1f2b6a682f133852f6798a09c465da95921460cefb38474024989060200160405180910390a15050505050505050565b6014546060906001600160a01b0316612def5760138054610fd8906149eb565b601460009054906101000a90046001600160a01b03166001600160a01b031663e8a3d4856040518163ffffffff1660e01b8152600401600060405180830381865afa158015612e42573d6000803e3d6000fd5b505050506040513d6000823e601f3d908101601f19168201604052612e6a9190810190614cf0565b905090565b6000600f544210158015612e8557506010544211155b8015612e6a57505060115460ff161590565b612e9f613058565b6001600160a01b038116612f045760405162461bcd60e51b815260206004820152602660248201527f4f776e61626c653a206e6577206f776e657220697320746865207a65726f206160448201526564647265737360d01b6064820152608401610d63565b612f0d816134f0565b50565b612f1b600033612593565b612f375760405162461bcd60e51b8152600401610d6390614a25565b601480546001600160a01b0319166001600160a01b0392909216919091179055565b6040516370a0823160e01b81523060048201526000906001600160a01b038316906370a0823190602401602060405180830381865afa158015612fa0573d6000803e3d6000fd5b505050506040513d601f19601f82011682018060405250810190612fc49190614ae3565b9050816001600160a01b031663a9059cbb612fe7601b546001600160a01b031690565b6040516001600160e01b031960e084901b1681526001600160a01b039091166004820152602481018490526044016020604051808303816000875af1158015613034573d6000803e3d6000fd5b505050506040513d601f19601f820116820180604052508101906110b39190614ac6565b600a546001600160a01b03620100009091041633146121215760405162461bcd60e51b815260206004820181905260248201527f4f776e61626c653a2063616c6c6572206973206e6f7420746865206f776e65726044820152606401610d63565b60006001600160e01b03198216637965db0b60e01b1480610fc357506301ffc9a760e01b6001600160e01b0319831614610fc3565b60006301ffc9a760e01b6001600160e01b03198316148061311f57506380ac58cd60e01b6001600160e01b03198316145b80610fc35750506001600160e01b031916635b5e139f60e01b1490565b6000805482108015610fc3575050600090815260046020526040902054600160e01b161590565b6daaeb6d7670e522a718067333cd4e3b15612f0d57604051633185c44d60e21b81523060048201526001600160a01b03821660248201526daaeb6d7670e522a718067333cd4e9063c617113490604401602060405180830381865afa1580156131d0573d6000803e3d6000fd5b505050506040513d601f19601f820116820180604052508101906131f49190614ac6565b612f0d57604051633b79c77360e21b81526001600160a01b0382166004820152602401610d63565b600061322782611f99565b9050336001600160a01b03821614613260576132438133610c51565b613260576040516367d9dca160e11b815260040160405180910390fd5b60008281526006602052604080822080546001600160a01b0319166001600160a01b0387811691821790925591518593918516917f8c5be1e5ebec7d5bd14f71427d1e84f3dd0314c0f7b2291e5b200ac8c7c3b92591a4505050565b6000816000548110156133115760008181526004602052604081205490600160e01b8216900361330f575b806000036133085750600019016000818152600460205260409020546132e7565b9392505050565b505b604051636f96cda160e11b815260040160405180910390fd5b836001600160a01b03811633146133445761334433613163565b600e54610100900460ff16158061337357506001600160a01b038516158061337357506001600160a01b038416155b611c285760405162461bcd60e51b81526020600482015260096024820152681cdbdd5b189bdd5b9960ba1b6044820152606401610d63565b601a54604051636e5f691960e01b81526001600160a01b0390911690636e5f69199061151890869086908690600401614d66565b612f0d813361381a565b6133f38282612593565b6117625760008281526008602090815260408083206001600160a01b03851684529091529020805460ff1916600117905561342b3390565b6001600160a01b0316816001600160a01b0316837f2f8788117e7eff1d82e926ec794901d17c78024a50270940304540a733656f0d60405160405180910390a45050565b6134798282612593565b156117625760008281526008602090815260408083206001600160a01b0385168085529252808320805460ff1916905551339285917ff6391f5c32d9c69d2a47ea670b442974b53935d1edc7fd64eb21e047a839171b9190a45050565b611762828260405180602001604052806000815250613873565b600a80546001600160a01b038381166201000081810262010000600160b01b031985161790945560405193909204169182907f8be0079c531659141344cd1fd0a4f28419497f9722a3daafe3b4186f6b6457e090600090a35050565b60008261355985846138d9565b14949350505050565b6000613576601b546001600160a01b031690565b6001600160a01b03164760405160006040518083038185875af1925050503d80600081146135c0576040519150601f19603f3d011682016040523d82523d6000602084013e6135c5565b606091505b5050905080612f0d5760405162461bcd60e51b815260206004820152601f60248201527f436f756c64206e6f74207472616e736665722045544820746f2073706c6974006044820152606401610d63565b336001600160a01b0383160361363f5760405163b06307db60e01b815260040160405180910390fd5b3360008181526007602090815260408083206001600160a01b03871680855290835292819020805460ff191686151590811790915590519081529192917f17307eab39ab6107e8899845ad3d59bd9653f200f220920489ca2b5937696c31910160405180910390a35050565b604051630a85bd0160e11b81526000906001600160a01b0385169063150b7a02906136e0903390899088908890600401614dc9565b6020604051808303816000875af192505050801561371b575060408051601f3d908101601f1916820190925261371891810190614e06565b60015b613779573d808015613749576040519150601f19603f3d011682016040523d82523d6000602084013e61374e565b606091505b508051600003613771576040516368d2bf6b60e11b815260040160405180910390fd5b805181602001fd5b6001600160e01b031916630a85bd0160e11b1490505b949350505050565b60606137a28261313c565b6137bf57604051630a14c4b560e41b815260040160405180910390fd5b60006137c9613926565b905080516000036137e95760405180602001604052806000815250613308565b806137f384613935565b604051602001613804929190614e23565b6040516020818303038152906040529392505050565b6138248282612593565b611762576138318161396d565b61383c83602061397f565b60405160200161384d929190614e52565b60408051601f198184030181529082905262461bcd60e51b8252610d6391600401613e7b565b61387d8383613b1a565b6001600160a01b0383163b156110b3576000548281035b6138a760008683806001019450866136ab565b6138c4576040516368d2bf6b60e11b815260040160405180910390fd5b818110613894578160005414611c2857600080fd5b600081815b845181101561391e5761390a828683815181106138fd576138fd614a48565b6020026020010151613c25565b91508061391681614a74565b9150506138de565b509392505050565b606060128054610fd8906149eb565b604080516080019081905280825b600183039250600a81066030018353600a9004806139435750819003601f19909101908152919050565b6060610fc36001600160a01b03831660145b6060600061398e836002614a8d565b613999906002614afc565b6001600160401b038111156139b0576139b0613f97565b6040519080825280601f01601f1916602001820160405280156139da576020820181803683370190505b509050600360fc1b816000815181106139f5576139f5614a48565b60200101906001600160f81b031916908160001a905350600f60fb1b81600181518110613a2457613a24614a48565b60200101906001600160f81b031916908160001a9053506000613a48846002614a8d565b613a53906001614afc565b90505b6001811115613acb576f181899199a1a9b1b9c1cb0b131b232b360811b85600f1660108110613a8757613a87614a48565b1a60f81b828281518110613a9d57613a9d614a48565b60200101906001600160f81b031916908160001a90535060049490941c93613ac481614ec7565b9050613a56565b5083156133085760405162461bcd60e51b815260206004820181905260248201527f537472696e67733a20686578206c656e67746820696e73756666696369656e746044820152606401610d63565b6000805490829003613b3f5760405163b562e8dd60e01b815260040160405180910390fd5b613b4c600084838561332a565b6001600160a01b03831660008181526005602090815260408083208054680100000000000000018802019055848352600490915281206001851460e11b4260a01b178317905582840190839083907fddf252ad1be2c89b69c2b068fc378daa952ba7f163c4a11628f55a4df523b3ef8180a4600183015b818114613bfb57808360007fddf252ad1be2c89b69c2b068fc378daa952ba7f163c4a11628f55a4df523b3ef600080a4600101613bc3565b5081600003613c1c57604051622e076360e81b815260040160405180910390fd5b60005550505050565b6000818310613c41576000828152602084905260409020613308565b6000838152602083905260409020613308565b6001600160a01b0381168114612f0d57600080fd5b60008083601f840112613c7b57600080fd5b5081356001600160401b03811115613c9257600080fd5b6020830191508360208260051b850101111561142b57600080fd5b803563ffffffff81168114613cc157600080fd5b919050565b8035613cc181613c54565b600080600080600080600060a0888a031215613cec57600080fd5b8735613cf781613c54565b965060208801356001600160401b0380821115613d1357600080fd5b613d1f8b838c01613c69565b909850965060408a0135915080821115613d3857600080fd5b50613d458a828b01613c69565b9095509350613d58905060608901613cad565b91506080880135613d6881613c54565b8091505092959891949750929550565b600080600080600060608688031215613d9057600080fd5b85356001600160401b0380821115613da757600080fd5b613db389838a01613c69565b90975095506020880135915080821115613dcc57600080fd5b50613dd988828901613c69565b9094509250613dec905060408701613cad565b90509295509295909350565b6001600160e01b031981168114612f0d57600080fd5b600060208284031215613e2057600080fd5b813561330881613df8565b60005b83811015613e46578181015183820152602001613e2e565b50506000910152565b60008151808452613e67816020860160208601613e2b565b601f01601f19169290920160200192915050565b6020815260006133086020830184613e4f565b600060208284031215613ea057600080fd5b5035919050565b60008060408385031215613eba57600080fd5b8235613ec581613c54565b946020939093013593505050565b60008060408385031215613ee657600080fd5b50508035926020909101359150565b634e487b7160e01b600052602160045260246000fd5b6001600160a01b03841681526001600160581b03831660208201526060810160038310613f4857634e487b7160e01b600052602160045260246000fd5b826040830152949350505050565b600080600060608486031215613f6b57600080fd5b8335613f7681613c54565b92506020840135613f8681613c54565b929592945050506040919091013590565b634e487b7160e01b600052604160045260246000fd5b6040516101c081016001600160401b0381118282101715613fd057613fd0613f97565b60405290565b604051601f8201601f191681016001600160401b0381118282101715613ffe57613ffe613f97565b604052919050565b600082601f83011261401757600080fd5b813560206001600160401b0382111561403257614032613f97565b8160051b614041828201613fd6565b928352848101820192828101908785111561405b57600080fd5b83870192505b8483101561408357823561407481613c54565b82529183019190830190614061565b979650505050505050565b600080600080600080600080600060e08a8c0312156140ac57600080fd5b89356140b781613c54565b985060208a0135975060408a01356001600160401b03808211156140da57600080fd5b6140e68d838e01614006565b985060608c01359150808211156140fc57600080fd5b6141088d838e01613c69565b909850965060808c013591508082111561412157600080fd5b5061412e8c828d01613c69565b9095509350614141905060a08b01613cad565b915060c08a013561415181613c54565b809150509295985092959850929598565b8015158114612f0d57600080fd5b8035613cc181614162565b6000806040838503121561418e57600080fd5b823561419981614162565b915060208301356141a981613c54565b809150509250929050565b600080604083850312156141c757600080fd5b8235915060208301356141a981613c54565b6000602082840312156141eb57600080fd5b813561330881613c54565b60006001600160401b0382111561420f5761420f613f97565b50601f01601f191660200190565b600082601f83011261422e57600080fd5b813561424161423c826141f6565b613fd6565b81815284602083860101111561425657600080fd5b816020850160208301376000918101602001919091529392505050565b60006020828403121561428557600080fd5b81356001600160401b0381111561429b57600080fd5b61378f8482850161421d565b60006101c082840312156142ba57600080fd5b6142c2613fad565b905081356001600160401b03808211156142db57600080fd5b6142e78583860161421d565b835260208401359150808211156142fd57600080fd5b5061430a8482850161421d565b60208301525061431c60408301614170565b604082015261432d60608301614170565b60608201526080828101359082015260a0808301359082015260c0808301359082015260e08083013590820152610100808301359082015261012080830135908201526101408083013590820152610160808301359082015261018080830135908201526101a061439f818401613cc6565b9082015292915050565b6000608082840312156143bb57600080fd5b604051608081016001600160401b0382821081831117156143de576143de613f97565b8160405282935084359150808211156143f657600080fd5b6144028683870161421d565b8352602085013591508082111561441857600080fd5b6144248683870161421d565b6020840152604085013591508082111561443d57600080fd5b5061444a8582860161421d565b604083015250606083013561445e81613c54565b6060919091015292915050565b60006060828403121561447d57600080fd5b604051606081018181106001600160401b038211171561449f5761449f613f97565b60405290508082356144b081613c54565b815260208301356001600160581b03811681146144cc57600080fd5b60208201526040830135600381106144e357600080fd5b6040919091015292915050565b600080600080600080610100878903121561450a57600080fd5b863561451581613c54565b955060208701356001600160401b038082111561453157600080fd5b61453d8a838b016142a7565b9650604089013591508082111561455357600080fd5b5061456089828a016143a9565b945050614570886060890161446b565b925060c087013561458081613c54565b915060e087013561459081613c54565b809150509295509295509295565b6000806000806000608086880312156145b657600080fd5b85359450602086013593506040860135925060608601356001600160401b038111156145e157600080fd5b6145ed88828901613c69565b969995985093965092949392505050565b6000806040838503121561461157600080fd5b8235915060208301356001600160401b0381111561462e57600080fd5b61142785828601614006565b6000806040838503121561464d57600080fd5b823561465881613c54565b915060208301356141a981614162565b6000806000806080858703121561467e57600080fd5b843561468981613c54565b9350602085013561469981613c54565b92506040850135915060608501356001600160401b038111156146bb57600080fd5b6146c78782880161421d565b91505092959194509250565b600080600080600080608087890312156146ec57600080fd5b86356001600160401b038082111561470357600080fd5b61470f8a838b01613c69565b9098509650602089013591508082111561472857600080fd5b5061473589828a01613c69565b9095509350614748905060408801613cad565b9150606087013561459081613c54565b6000806020838503121561476b57600080fd5b82356001600160401b0381111561478157600080fd5b61478d85828601613c69565b90969095509350505050565b6000806000806000806000610120888a0312156147b557600080fd5b87356147c081613c54565b965060208801356001600160401b03808211156147dc57600080fd5b6147e88b838c016142a7565b975060408a01359150808211156147fe57600080fd5b5061480b8a828b016143a9565b95505061481b8960608a0161446b565b935060c088013561482b81613c54565b925060e088013561483b81613c54565b9150610100880135613d6881613c54565b6000806040838503121561485f57600080fd5b823561419981613c54565b60208082526015908201527414dc1b1a5d081b9bdd0818dc99585d1959081e595d605a1b604082015260600190565b8183526000602080850194508260005b858110156148d75781356148bc81613c54565b6001600160a01b0316875295820195908201906001016148a9565b509495945050505050565b8183526000602080850194508260005b858110156148d75763ffffffff61490883613cad565b16875295820195908201906001016148f2565b600060018060a01b03808b168352808a16602084015260c0604084015261494660c08401898b614899565b838103606085015261495981888a6148e2565b63ffffffff969096166080850152509290921660a090910152509695505050505050565b60808152600061499160808301888a614899565b82810360208401526149a48187896148e2565b63ffffffff95909516604084015250506001600160a01b0391909116606090910152949350505050565b6000602082840312156149e057600080fd5b815161330881613c54565b600181811c908216806149ff57607f821691505b602082108103614a1f57634e487b7160e01b600052602260045260246000fd5b50919050565b60208082526009908201526837b7363ca0b236b4b760b91b604082015260600190565b634e487b7160e01b600052603260045260246000fd5b634e487b7160e01b600052601160045260246000fd5b600060018201614a8657614a86614a5e565b5060010190565b8082028115828204841417610fc357610fc3614a5e565b600082614ac157634e487b7160e01b600052601260045260246000fd5b500490565b600060208284031215614ad857600080fd5b815161330881614162565b600060208284031215614af557600080fd5b5051919050565b80820180821115610fc357610fc3614a5e565b6020808252818101527f507572636861736520776f756c6420657863656564206d617820737570706c79604082015260600190565b601f8211156110b357600081815260208120601f850160051c81016020861015614b6b5750805b601f850160051c820191505b81811015610f7857828155600101614b77565b81516001600160401b03811115614ba357614ba3613f97565b614bb781614bb184546149eb565b84614b44565b602080601f831160018114614bec5760008415614bd45750858301515b600019600386901b1c1916600185901b178555610f78565b600085815260208120601f198616915b82811015614c1b57888601518255948401946001909101908401614bfc565b5085821015614c395787850151600019600388901b60f8161c191681555b5050505050600190811b01905550565b6020808252602e908201527f496e697469616c697a61626c653a20636f6e747261637420697320616c72656160408201526d191e481a5b9a5d1a585b1a5e995960921b606082015260800190565b600060018060a01b03808a16835260a06020840152614cba60a08401898b614899565b8381036040850152614ccd81888a6148e2565b63ffffffff96909616606085015250929092166080909101525095945050505050565b600060208284031215614d0257600080fd5b81516001600160401b03811115614d1857600080fd5b8201601f81018413614d2957600080fd5b8051614d3761423c826141f6565b818152856020838501011115614d4c57600080fd5b614d5d826020830160208601613e2b565b95945050505050565b6001600160a01b038481168252602080830185905260606040840181905284519084018190526000928583019290916080860190855b81811015614dba578551851683529483019491830191600101614d9c565b50909998505050505050505050565b6001600160a01b0385811682528416602082015260408101839052608060608201819052600090614dfc90830184613e4f565b9695505050505050565b600060208284031215614e1857600080fd5b815161330881613df8565b60008351614e35818460208801613e2b565b835190830190614e49818360208801613e2b565b01949350505050565b7f416363657373436f6e74726f6c3a206163636f756e7420000000000000000000815260008351614e8a816017850160208801613e2b565b7001034b99036b4b9b9b4b733903937b6329607d1b6017918401918201528351614ebb816028840160208801613e2b565b01602801949350505050565b600081614ed657614ed6614a5e565b50600019019056fe30385c845b448a36257a6a1716e6ad2e1bc2cbe333cde1e69fe849ad6511adfea26469706673582212208b5eae1cad04c59c6d70e2a4db3aa9aff6cc957841de7e907b474906cc76ce4464736f6c63430008110033",
  "linkReferences": {},
  "deployedLinkReferences": {}
}